{
	"market.sol": {
		"n2DMarket": {
			"abi": [
				{
					"inputs": [],
					"stateMutability": "nonpayable",
					"type": "constructor"
				},
				{
					"anonymous": false,
					"inputs": [
						{
							"indexed": true,
							"internalType": "address",
							"name": "previousOwner",
							"type": "address"
						},
						{
							"indexed": true,
							"internalType": "address",
							"name": "newOwner",
							"type": "address"
						}
					],
					"name": "OwnershipTransferred",
					"type": "event"
				},
				{
					"anonymous": false,
					"inputs": [
						{
							"indexed": true,
							"internalType": "uint256",
							"name": "itemId",
							"type": "uint256"
						},
						{
							"indexed": true,
							"internalType": "address",
							"name": "nftContract",
							"type": "address"
						},
						{
							"indexed": true,
							"internalType": "uint256",
							"name": "tokenId",
							"type": "uint256"
						},
						{
							"indexed": false,
							"internalType": "address",
							"name": "seller",
							"type": "address"
						},
						{
							"indexed": false,
							"internalType": "address",
							"name": "holder",
							"type": "address"
						},
						{
							"indexed": false,
							"internalType": "uint256",
							"name": "price",
							"type": "uint256"
						},
						{
							"indexed": false,
							"internalType": "bool",
							"name": "sold",
							"type": "bool"
						}
					],
					"name": "VaultItemCreated",
					"type": "event"
				},
				{
					"inputs": [
						{
							"internalType": "address",
							"name": "nftContract",
							"type": "address"
						},
						{
							"internalType": "uint256",
							"name": "tokenId",
							"type": "uint256"
						},
						{
							"internalType": "uint256",
							"name": "price",
							"type": "uint256"
						}
					],
					"name": "createVaultItem",
					"outputs": [],
					"stateMutability": "payable",
					"type": "function"
				},
				{
					"inputs": [],
					"name": "getAvailableNft",
					"outputs": [
						{
							"components": [
								{
									"internalType": "uint256",
									"name": "itemId",
									"type": "uint256"
								},
								{
									"internalType": "address",
									"name": "nftContract",
									"type": "address"
								},
								{
									"internalType": "uint256",
									"name": "tokenId",
									"type": "uint256"
								},
								{
									"internalType": "address payable",
									"name": "seller",
									"type": "address"
								},
								{
									"internalType": "address payable",
									"name": "holder",
									"type": "address"
								},
								{
									"internalType": "uint256",
									"name": "price",
									"type": "uint256"
								},
								{
									"internalType": "bool",
									"name": "sold",
									"type": "bool"
								}
							],
							"internalType": "struct n2DMarket.VaultItem[]",
							"name": "",
							"type": "tuple[]"
						}
					],
					"stateMutability": "view",
					"type": "function"
				},
				{
					"inputs": [],
					"name": "getListingFee",
					"outputs": [
						{
							"internalType": "uint256",
							"name": "",
							"type": "uint256"
						}
					],
					"stateMutability": "view",
					"type": "function"
				},
				{
					"inputs": [],
					"name": "getMyMarketNfts",
					"outputs": [
						{
							"components": [
								{
									"internalType": "uint256",
									"name": "itemId",
									"type": "uint256"
								},
								{
									"internalType": "address",
									"name": "nftContract",
									"type": "address"
								},
								{
									"internalType": "uint256",
									"name": "tokenId",
									"type": "uint256"
								},
								{
									"internalType": "address payable",
									"name": "seller",
									"type": "address"
								},
								{
									"internalType": "address payable",
									"name": "holder",
									"type": "address"
								},
								{
									"internalType": "uint256",
									"name": "price",
									"type": "uint256"
								},
								{
									"internalType": "bool",
									"name": "sold",
									"type": "bool"
								}
							],
							"internalType": "struct n2DMarket.VaultItem[]",
							"name": "",
							"type": "tuple[]"
						}
					],
					"stateMutability": "view",
					"type": "function"
				},
				{
					"inputs": [],
					"name": "getMyNft",
					"outputs": [
						{
							"components": [
								{
									"internalType": "uint256",
									"name": "itemId",
									"type": "uint256"
								},
								{
									"internalType": "address",
									"name": "nftContract",
									"type": "address"
								},
								{
									"internalType": "uint256",
									"name": "tokenId",
									"type": "uint256"
								},
								{
									"internalType": "address payable",
									"name": "seller",
									"type": "address"
								},
								{
									"internalType": "address payable",
									"name": "holder",
									"type": "address"
								},
								{
									"internalType": "uint256",
									"name": "price",
									"type": "uint256"
								},
								{
									"internalType": "bool",
									"name": "sold",
									"type": "bool"
								}
							],
							"internalType": "struct n2DMarket.VaultItem[]",
							"name": "",
							"type": "tuple[]"
						}
					],
					"stateMutability": "view",
					"type": "function"
				},
				{
					"inputs": [
						{
							"internalType": "address",
							"name": "nftContract",
							"type": "address"
						},
						{
							"internalType": "uint256",
							"name": "itemId",
							"type": "uint256"
						}
					],
					"name": "n2DMarketSale",
					"outputs": [],
					"stateMutability": "payable",
					"type": "function"
				},
				{
					"inputs": [],
					"name": "owner",
					"outputs": [
						{
							"internalType": "address",
							"name": "",
							"type": "address"
						}
					],
					"stateMutability": "view",
					"type": "function"
				},
				{
					"inputs": [],
					"name": "renounceOwnership",
					"outputs": [],
					"stateMutability": "nonpayable",
					"type": "function"
				},
				{
					"inputs": [
						{
							"internalType": "address",
							"name": "newOwner",
							"type": "address"
						}
					],
					"name": "transferOwnership",
					"outputs": [],
					"stateMutability": "nonpayable",
					"type": "function"
				},
				{
					"inputs": [],
					"name": "withdraw",
					"outputs": [],
					"stateMutability": "payable",
					"type": "function"
				}
			],
			"devdoc": {
				"kind": "dev",
				"methods": {
					"owner()": {
						"details": "Returns the address of the current owner."
					},
					"renounceOwnership()": {
						"details": "Leaves the contract without owner. It will not be possible to call `onlyOwner` functions anymore. Can only be called by the current owner. NOTE: Renouncing ownership will leave the contract without an owner, thereby removing any functionality that is only available to the owner."
					},
					"transferOwnership(address)": {
						"details": "Transfers ownership of the contract to a new account (`newOwner`). Can only be called by the current owner."
					}
				},
				"version": 1
			},
			"evm": {
				"assembly": "    /* \"market.sol\":680:4845  contract n2DMarket is ReentrancyGuard, Ownable {\r... */\n  mstore(0x40, 0x80)\n    /* \"market.sol\":900:912  0.0025 ether */\n  0x08e1bc9bf04000\n    /* \"market.sol\":879:912  uint256 listingFee = 0.0025 ether */\n  0x05\n  sstore\n    /* \"market.sol\":938:950  0.0075 ether */\n  0x1aa535d3d0c000\n    /* \"market.sol\":917:950  uint256 mintingFee = 0.0075 ether */\n  0x06\n  sstore\n    /* \"market.sol\":957:1012  constructor() {\r... */\n  callvalue\n  dup1\n  iszero\n  tag_1\n  jumpi\n  0x00\n  dup1\n  revert\ntag_1:\n  pop\n    /* \"@openzeppelin/contracts/security/ReentrancyGuard.sol\":1701:1702  1 */\n  0x01\n    /* \"@openzeppelin/contracts/security/ReentrancyGuard.sol\":1806:1813  _status */\n  0x00\n    /* \"@openzeppelin/contracts/security/ReentrancyGuard.sol\":1806:1828  _status = _NOT_ENTERED */\n  dup2\n  swap1\n  sstore\n  pop\n    /* \"@openzeppelin/contracts/access/Ownable.sol\":936:968  _transferOwnership(_msgSender()) */\n  tag_7\n    /* \"@openzeppelin/contracts/access/Ownable.sol\":955:967  _msgSender() */\n  tag_8\n    /* \"@openzeppelin/contracts/access/Ownable.sol\":955:965  _msgSender */\n  shl(0x20, tag_9)\n    /* \"@openzeppelin/contracts/access/Ownable.sol\":955:967  _msgSender() */\n  0x20\n  shr\n  jump\t// in\ntag_8:\n    /* \"@openzeppelin/contracts/access/Ownable.sol\":936:954  _transferOwnership */\n  shl(0x20, tag_10)\n    /* \"@openzeppelin/contracts/access/Ownable.sol\":936:968  _transferOwnership(_msgSender()) */\n  0x20\n  shr\n  jump\t// in\ntag_7:\n    /* \"market.sol\":995:1005  msg.sender */\n  caller\n    /* \"market.sol\":978:984  holder */\n  0x04\n  0x00\n    /* \"market.sol\":978:1006  holder = payable(msg.sender) */\n  0x0100\n  exp\n  dup2\n  sload\n  dup2\n  0xffffffffffffffffffffffffffffffffffffffff\n  mul\n  not\n  and\n  swap1\n  dup4\n  0xffffffffffffffffffffffffffffffffffffffff\n  and\n  mul\n  or\n  swap1\n  sstore\n  pop\n    /* \"market.sol\":680:4845  contract n2DMarket is ReentrancyGuard, Ownable {\r... */\n  jump(tag_12)\n    /* \"@openzeppelin/contracts/utils/Context.sol\":640:736  function _msgSender() internal view virtual returns (address) {... */\ntag_9:\n    /* \"@openzeppelin/contracts/utils/Context.sol\":693:700  address */\n  0x00\n    /* \"@openzeppelin/contracts/utils/Context.sol\":719:729  msg.sender */\n  caller\n    /* \"@openzeppelin/contracts/utils/Context.sol\":712:729  return msg.sender */\n  swap1\n  pop\n    /* \"@openzeppelin/contracts/utils/Context.sol\":640:736  function _msgSender() internal view virtual returns (address) {... */\n  swap1\n  jump\t// out\n    /* \"@openzeppelin/contracts/access/Ownable.sol\":2433:2620  function _transferOwnership(address newOwner) internal virtual {... */\ntag_10:\n    /* \"@openzeppelin/contracts/access/Ownable.sol\":2506:2522  address oldOwner */\n  0x00\n    /* \"@openzeppelin/contracts/access/Ownable.sol\":2525:2531  _owner */\n  0x01\n  0x00\n  swap1\n  sload\n  swap1\n  0x0100\n  exp\n  swap1\n  div\n  0xffffffffffffffffffffffffffffffffffffffff\n  and\n    /* \"@openzeppelin/contracts/access/Ownable.sol\":2506:2531  address oldOwner = _owner */\n  swap1\n  pop\n    /* \"@openzeppelin/contracts/access/Ownable.sol\":2550:2558  newOwner */\n  dup2\n    /* \"@openzeppelin/contracts/access/Ownable.sol\":2541:2547  _owner */\n  0x01\n  0x00\n    /* \"@openzeppelin/contracts/access/Ownable.sol\":2541:2558  _owner = newOwner */\n  0x0100\n  exp\n  dup2\n  sload\n  dup2\n  0xffffffffffffffffffffffffffffffffffffffff\n  mul\n  not\n  and\n  swap1\n  dup4\n  0xffffffffffffffffffffffffffffffffffffffff\n  and\n  mul\n  or\n  swap1\n  sstore\n  pop\n    /* \"@openzeppelin/contracts/access/Ownable.sol\":2604:2612  newOwner */\n  dup2\n    /* \"@openzeppelin/contracts/access/Ownable.sol\":2573:2613  OwnershipTransferred(oldOwner, newOwner) */\n  0xffffffffffffffffffffffffffffffffffffffff\n  and\n    /* \"@openzeppelin/contracts/access/Ownable.sol\":2594:2602  oldOwner */\n  dup2\n    /* \"@openzeppelin/contracts/access/Ownable.sol\":2573:2613  OwnershipTransferred(oldOwner, newOwner) */\n  0xffffffffffffffffffffffffffffffffffffffff\n  and\n  0x8be0079c531659141344cd1fd0a4f28419497f9722a3daafe3b4186f6b6457e0\n  mload(0x40)\n  mload(0x40)\n  dup1\n  swap2\n  sub\n  swap1\n  log3\n    /* \"@openzeppelin/contracts/access/Ownable.sol\":2433:2620  function _transferOwnership(address newOwner) internal virtual {... */\n  pop\n  pop\n  jump\t// out\n    /* \"market.sol\":680:4845  contract n2DMarket is ReentrancyGuard, Ownable {\r... */\ntag_12:\n  dataSize(sub_0)\n  dup1\n  dataOffset(sub_0)\n  0x00\n  codecopy\n  0x00\n  return\nstop\n\nsub_0: assembly {\n        /* \"market.sol\":680:4845  contract n2DMarket is ReentrancyGuard, Ownable {\r... */\n      mstore(0x40, 0x80)\n      jumpi(tag_1, lt(calldatasize, 0x04))\n      shr(0xe0, calldataload(0x00))\n      dup1\n      0xa706ac21\n      gt\n      tag_12\n      jumpi\n      dup1\n      0xa706ac21\n      eq\n      tag_7\n      jumpi\n      dup1\n      0xb8fe6abe\n      eq\n      tag_8\n      jumpi\n      dup1\n      0xd438b986\n      eq\n      tag_9\n      jumpi\n      dup1\n      0xd6c6bd5c\n      eq\n      tag_10\n      jumpi\n      dup1\n      0xf2fde38b\n      eq\n      tag_11\n      jumpi\n      jump(tag_1)\n    tag_12:\n      dup1\n      0x3ccfd60b\n      eq\n      tag_2\n      jumpi\n      dup1\n      0x6f2e30c0\n      eq\n      tag_3\n      jumpi\n      dup1\n      0x715018a6\n      eq\n      tag_4\n      jumpi\n      dup1\n      0x8da5cb5b\n      eq\n      tag_5\n      jumpi\n      dup1\n      0x9fd01cd1\n      eq\n      tag_6\n      jumpi\n    tag_1:\n      0x00\n      dup1\n      revert\n        /* \"market.sol\":4724:4842  function withdraw() public payable onlyOwner() {\r... */\n    tag_2:\n      tag_13\n      tag_14\n      jump\t// in\n    tag_13:\n      stop\n        /* \"market.sol\":3327:4016  function getMyNft() public view returns (VaultItem[] memory) {\r... */\n    tag_3:\n      callvalue\n      dup1\n      iszero\n      tag_15\n      jumpi\n      0x00\n      dup1\n      revert\n    tag_15:\n      pop\n      tag_16\n      tag_17\n      jump\t// in\n    tag_16:\n      mload(0x40)\n      tag_18\n      swap2\n      swap1\n      tag_19\n      jump\t// in\n    tag_18:\n      mload(0x40)\n      dup1\n      swap2\n      sub\n      swap1\n      return\n        /* \"@openzeppelin/contracts/access/Ownable.sol\":1831:1932  function renounceOwnership() public virtual onlyOwner {... */\n    tag_4:\n      callvalue\n      dup1\n      iszero\n      tag_20\n      jumpi\n      0x00\n      dup1\n      revert\n    tag_20:\n      pop\n      tag_21\n      tag_22\n      jump\t// in\n    tag_21:\n      stop\n        /* \"@openzeppelin/contracts/access/Ownable.sol\":1201:1286  function owner() public view virtual returns (address) {... */\n    tag_5:\n      callvalue\n      dup1\n      iszero\n      tag_23\n      jumpi\n      0x00\n      dup1\n      revert\n    tag_23:\n      pop\n      tag_24\n      tag_25\n      jump\t// in\n    tag_24:\n      mload(0x40)\n      tag_26\n      swap2\n      swap1\n      tag_27\n      jump\t// in\n    tag_26:\n      mload(0x40)\n      dup1\n      swap2\n      sub\n      swap1\n      return\n        /* \"market.sol\":4022:4718  function getMyMarketNfts() public view returns (VaultItem[] memory) {\r... */\n    tag_6:\n      callvalue\n      dup1\n      iszero\n      tag_28\n      jumpi\n      0x00\n      dup1\n      revert\n    tag_28:\n      pop\n      tag_29\n      tag_30\n      jump\t// in\n    tag_29:\n      mload(0x40)\n      tag_31\n      swap2\n      swap1\n      tag_19\n      jump\t// in\n    tag_31:\n      mload(0x40)\n      dup1\n      swap2\n      sub\n      swap1\n      return\n        /* \"market.sol\":1561:2142  function createVaultItem(address nftContract,uint256 tokenId,uint256 price) public payable nonReentrant {\r... */\n    tag_7:\n      tag_32\n      0x04\n      dup1\n      calldatasize\n      sub\n      dup2\n      add\n      swap1\n      tag_33\n      swap2\n      swap1\n      tag_34\n      jump\t// in\n    tag_33:\n      tag_35\n      jump\t// in\n    tag_32:\n      stop\n        /* \"market.sol\":1468:1553  function getListingFee() public view returns (uint256) {\r... */\n    tag_8:\n      callvalue\n      dup1\n      iszero\n      tag_36\n      jumpi\n      0x00\n      dup1\n      revert\n    tag_36:\n      pop\n      tag_37\n      tag_38\n      jump\t// in\n    tag_37:\n      mload(0x40)\n      tag_39\n      swap2\n      swap1\n      tag_40\n      jump\t// in\n    tag_39:\n      mload(0x40)\n      dup1\n      swap2\n      sub\n      swap1\n      return\n        /* \"market.sol\":2731:3321  function getAvailableNft() public view returns (VaultItem[] memory) {\r... */\n    tag_9:\n      callvalue\n      dup1\n      iszero\n      tag_41\n      jumpi\n      0x00\n      dup1\n      revert\n    tag_41:\n      pop\n      tag_42\n      tag_43\n      jump\t// in\n    tag_42:\n      mload(0x40)\n      tag_44\n      swap2\n      swap1\n      tag_19\n      jump\t// in\n    tag_44:\n      mload(0x40)\n      dup1\n      swap2\n      sub\n      swap1\n      return\n        /* \"market.sol\":2148:2725  function n2DMarketSale(\r... */\n    tag_10:\n      tag_45\n      0x04\n      dup1\n      calldatasize\n      sub\n      dup2\n      add\n      swap1\n      tag_46\n      swap2\n      swap1\n      tag_47\n      jump\t// in\n    tag_46:\n      tag_48\n      jump\t// in\n    tag_45:\n      stop\n        /* \"@openzeppelin/contracts/access/Ownable.sol\":2081:2279  function transferOwnership(address newOwner) public virtual onlyOwner {... */\n    tag_11:\n      callvalue\n      dup1\n      iszero\n      tag_49\n      jumpi\n      0x00\n      dup1\n      revert\n    tag_49:\n      pop\n      tag_50\n      0x04\n      dup1\n      calldatasize\n      sub\n      dup2\n      add\n      swap1\n      tag_51\n      swap2\n      swap1\n      tag_52\n      jump\t// in\n    tag_51:\n      tag_53\n      jump\t// in\n    tag_50:\n      stop\n        /* \"market.sol\":4724:4842  function withdraw() public payable onlyOwner() {\r... */\n    tag_14:\n        /* \"@openzeppelin/contracts/access/Ownable.sol\":1094:1107  _checkOwner() */\n      tag_55\n        /* \"@openzeppelin/contracts/access/Ownable.sol\":1094:1105  _checkOwner */\n      tag_56\n        /* \"@openzeppelin/contracts/access/Ownable.sol\":1094:1107  _checkOwner() */\n      jump\t// in\n    tag_55:\n        /* \"market.sol\":4794:4804  msg.sender */\n      caller\n        /* \"market.sol\":4786:4810  payable(msg.sender).send */\n      0xffffffffffffffffffffffffffffffffffffffff\n      and\n        /* \"market.sol\":4786:4833  payable(msg.sender).send(address(this).balance) */\n      0x08fc\n        /* \"market.sol\":4811:4832  address(this).balance */\n      selfbalance\n        /* \"market.sol\":4786:4833  payable(msg.sender).send(address(this).balance) */\n      swap1\n      dup2\n      iszero\n      mul\n      swap1\n      mload(0x40)\n      0x00\n      mload(0x40)\n      dup1\n      dup4\n      sub\n      dup2\n      dup6\n      dup9\n      dup9\n      call\n      swap4\n      pop\n      pop\n      pop\n      pop\n        /* \"market.sol\":4778:4834  require(payable(msg.sender).send(address(this).balance)) */\n      tag_59\n      jumpi\n      0x00\n      dup1\n      revert\n    tag_59:\n        /* \"market.sol\":4724:4842  function withdraw() public payable onlyOwner() {\r... */\n      jump\t// out\n        /* \"market.sol\":3327:4016  function getMyNft() public view returns (VaultItem[] memory) {\r... */\n    tag_17:\n        /* \"market.sol\":3368:3386  VaultItem[] memory */\n      0x60\n        /* \"market.sol\":3395:3414  uint totalItemCount */\n      0x00\n        /* \"market.sol\":3417:3435  _itemIds.current() */\n      tag_61\n        /* \"market.sol\":3417:3425  _itemIds */\n      0x02\n        /* \"market.sol\":3417:3433  _itemIds.current */\n      tag_62\n        /* \"market.sol\":3417:3435  _itemIds.current() */\n      jump\t// in\n    tag_61:\n        /* \"market.sol\":3395:3435  uint totalItemCount = _itemIds.current() */\n      swap1\n      pop\n        /* \"market.sol\":3442:3456  uint itemCount */\n      0x00\n        /* \"market.sol\":3467:3484  uint currentIndex */\n      dup1\n        /* \"market.sol\":3502:3508  uint i */\n      0x00\n        /* \"market.sol\":3497:3637  for (uint i = 0; i < totalItemCount; i++) {\r... */\n    tag_63:\n        /* \"market.sol\":3518:3532  totalItemCount */\n      dup4\n        /* \"market.sol\":3514:3515  i */\n      dup2\n        /* \"market.sol\":3514:3532  i < totalItemCount */\n      lt\n        /* \"market.sol\":3497:3637  for (uint i = 0; i < totalItemCount; i++) {\r... */\n      iszero\n      tag_64\n      jumpi\n        /* \"market.sol\":3583:3593  msg.sender */\n      caller\n        /* \"market.sol\":3552:3593  idToVaultItem[i + 1].holder == msg.sender */\n      0xffffffffffffffffffffffffffffffffffffffff\n      and\n        /* \"market.sol\":3552:3565  idToVaultItem */\n      0x07\n        /* \"market.sol\":3552:3572  idToVaultItem[i + 1] */\n      0x00\n        /* \"market.sol\":3570:3571  1 */\n      0x01\n        /* \"market.sol\":3566:3567  i */\n      dup5\n        /* \"market.sol\":3566:3571  i + 1 */\n      tag_66\n      swap2\n      swap1\n      tag_67\n      jump\t// in\n    tag_66:\n        /* \"market.sol\":3552:3572  idToVaultItem[i + 1] */\n      dup2\n      mstore\n      0x20\n      add\n      swap1\n      dup2\n      mstore\n      0x20\n      add\n      0x00\n      keccak256\n        /* \"market.sol\":3552:3579  idToVaultItem[i + 1].holder */\n      0x04\n      add\n      0x00\n      swap1\n      sload\n      swap1\n      0x0100\n      exp\n      swap1\n      div\n      0xffffffffffffffffffffffffffffffffffffffff\n      and\n        /* \"market.sol\":3552:3593  idToVaultItem[i + 1].holder == msg.sender */\n      0xffffffffffffffffffffffffffffffffffffffff\n      and\n      eq\n        /* \"market.sol\":3548:3630  if (idToVaultItem[i + 1].holder == msg.sender) {\r... */\n      iszero\n      tag_68\n      jumpi\n        /* \"market.sol\":3619:3620  1 */\n      0x01\n        /* \"market.sol\":3606:3620  itemCount += 1 */\n      dup4\n      tag_69\n      swap2\n      swap1\n      tag_67\n      jump\t// in\n    tag_69:\n      swap3\n      pop\n        /* \"market.sol\":3548:3630  if (idToVaultItem[i + 1].holder == msg.sender) {\r... */\n    tag_68:\n        /* \"market.sol\":3534:3537  i++ */\n      dup1\n      dup1\n      tag_70\n      swap1\n      tag_71\n      jump\t// in\n    tag_70:\n      swap2\n      pop\n      pop\n        /* \"market.sol\":3497:3637  for (uint i = 0; i < totalItemCount; i++) {\r... */\n      jump(tag_63)\n    tag_64:\n      pop\n        /* \"market.sol\":3645:3669  VaultItem[] memory items */\n      0x00\n        /* \"market.sol\":3688:3697  itemCount */\n      dup3\n        /* \"market.sol\":3672:3698  new VaultItem[](itemCount) */\n      0xffffffffffffffff\n      dup2\n      gt\n      iszero\n      tag_72\n      jumpi\n      mstore(0x00, 0x4e487b7100000000000000000000000000000000000000000000000000000000)\n      mstore(0x04, 0x41)\n      revert(0x00, 0x24)\n    tag_72:\n      mload(0x40)\n      swap1\n      dup1\n      dup3\n      mstore\n      dup1\n      0x20\n      mul\n      0x20\n      add\n      dup3\n      add\n      0x40\n      mstore\n      dup1\n      iszero\n      tag_73\n      jumpi\n      dup2\n      0x20\n      add\n    tag_74:\n      tag_75\n      tag_76\n      jump\t// in\n    tag_75:\n      dup2\n      mstore\n      0x20\n      add\n      swap1\n      0x01\n      swap1\n      sub\n      swap1\n      dup2\n      tag_74\n      jumpi\n      swap1\n      pop\n    tag_73:\n      pop\n        /* \"market.sol\":3645:3698  VaultItem[] memory items = new VaultItem[](itemCount) */\n      swap1\n      pop\n        /* \"market.sol\":3710:3716  uint i */\n      0x00\n        /* \"market.sol\":3705:3992  for (uint i = 0; i < totalItemCount; i++) {\r... */\n    tag_77:\n        /* \"market.sol\":3726:3740  totalItemCount */\n      dup5\n        /* \"market.sol\":3722:3723  i */\n      dup2\n        /* \"market.sol\":3722:3740  i < totalItemCount */\n      lt\n        /* \"market.sol\":3705:3992  for (uint i = 0; i < totalItemCount; i++) {\r... */\n      iszero\n      tag_78\n      jumpi\n        /* \"market.sol\":3791:3801  msg.sender */\n      caller\n        /* \"market.sol\":3760:3801  idToVaultItem[i + 1].holder == msg.sender */\n      0xffffffffffffffffffffffffffffffffffffffff\n      and\n        /* \"market.sol\":3760:3773  idToVaultItem */\n      0x07\n        /* \"market.sol\":3760:3780  idToVaultItem[i + 1] */\n      0x00\n        /* \"market.sol\":3778:3779  1 */\n      0x01\n        /* \"market.sol\":3774:3775  i */\n      dup5\n        /* \"market.sol\":3774:3779  i + 1 */\n      tag_80\n      swap2\n      swap1\n      tag_67\n      jump\t// in\n    tag_80:\n        /* \"market.sol\":3760:3780  idToVaultItem[i + 1] */\n      dup2\n      mstore\n      0x20\n      add\n      swap1\n      dup2\n      mstore\n      0x20\n      add\n      0x00\n      keccak256\n        /* \"market.sol\":3760:3787  idToVaultItem[i + 1].holder */\n      0x04\n      add\n      0x00\n      swap1\n      sload\n      swap1\n      0x0100\n      exp\n      swap1\n      div\n      0xffffffffffffffffffffffffffffffffffffffff\n      and\n        /* \"market.sol\":3760:3801  idToVaultItem[i + 1].holder == msg.sender */\n      0xffffffffffffffffffffffffffffffffffffffff\n      and\n      eq\n        /* \"market.sol\":3756:3985  if (idToVaultItem[i + 1].holder == msg.sender) {\r... */\n      iszero\n      tag_81\n      jumpi\n        /* \"market.sol\":3814:3828  uint currentId */\n      0x00\n        /* \"market.sol\":3835:3836  1 */\n      0x01\n        /* \"market.sol\":3831:3832  i */\n      dup3\n        /* \"market.sol\":3831:3836  i + 1 */\n      tag_82\n      swap2\n      swap1\n      tag_67\n      jump\t// in\n    tag_82:\n        /* \"market.sol\":3814:3836  uint currentId = i + 1 */\n      swap1\n      pop\n        /* \"market.sol\":3847:3876  VaultItem storage currentItem */\n      0x00\n        /* \"market.sol\":3879:3892  idToVaultItem */\n      0x07\n        /* \"market.sol\":3879:3903  idToVaultItem[currentId] */\n      0x00\n        /* \"market.sol\":3893:3902  currentId */\n      dup4\n        /* \"market.sol\":3879:3903  idToVaultItem[currentId] */\n      dup2\n      mstore\n      0x20\n      add\n      swap1\n      dup2\n      mstore\n      0x20\n      add\n      0x00\n      keccak256\n        /* \"market.sol\":3847:3903  VaultItem storage currentItem = idToVaultItem[currentId] */\n      swap1\n      pop\n        /* \"market.sol\":3936:3947  currentItem */\n      dup1\n        /* \"market.sol\":3914:3947  items[currentIndex] = currentItem */\n      mload(0x40)\n      dup1\n      0xe0\n      add\n      0x40\n      mstore\n      swap1\n      dup2\n      0x00\n      dup3\n      add\n      sload\n      dup2\n      mstore\n      0x20\n      add\n      0x01\n      dup3\n      add\n      0x00\n      swap1\n      sload\n      swap1\n      0x0100\n      exp\n      swap1\n      div\n      0xffffffffffffffffffffffffffffffffffffffff\n      and\n      0xffffffffffffffffffffffffffffffffffffffff\n      and\n      0xffffffffffffffffffffffffffffffffffffffff\n      and\n      dup2\n      mstore\n      0x20\n      add\n      0x02\n      dup3\n      add\n      sload\n      dup2\n      mstore\n      0x20\n      add\n      0x03\n      dup3\n      add\n      0x00\n      swap1\n      sload\n      swap1\n      0x0100\n      exp\n      swap1\n      div\n      0xffffffffffffffffffffffffffffffffffffffff\n      and\n      0xffffffffffffffffffffffffffffffffffffffff\n      and\n      0xffffffffffffffffffffffffffffffffffffffff\n      and\n      dup2\n      mstore\n      0x20\n      add\n      0x04\n      dup3\n      add\n      0x00\n      swap1\n      sload\n      swap1\n      0x0100\n      exp\n      swap1\n      div\n      0xffffffffffffffffffffffffffffffffffffffff\n      and\n      0xffffffffffffffffffffffffffffffffffffffff\n      and\n      0xffffffffffffffffffffffffffffffffffffffff\n      and\n      dup2\n      mstore\n      0x20\n      add\n      0x05\n      dup3\n      add\n      sload\n      dup2\n      mstore\n      0x20\n      add\n      0x06\n      dup3\n      add\n      0x00\n      swap1\n      sload\n      swap1\n      0x0100\n      exp\n      swap1\n      div\n      0xff\n      and\n      iszero\n      iszero\n      iszero\n      iszero\n      dup2\n      mstore\n      pop\n      pop\n        /* \"market.sol\":3914:3919  items */\n      dup5\n        /* \"market.sol\":3920:3932  currentIndex */\n      dup7\n        /* \"market.sol\":3914:3933  items[currentIndex] */\n      dup2\n      mload\n      dup2\n      lt\n      tag_83\n      jumpi\n      mstore(0x00, 0x4e487b7100000000000000000000000000000000000000000000000000000000)\n      mstore(0x04, 0x32)\n      revert(0x00, 0x24)\n    tag_83:\n      0x20\n      mul\n      0x20\n      add\n      add\n        /* \"market.sol\":3914:3947  items[currentIndex] = currentItem */\n      dup2\n      swap1\n      mstore\n      pop\n        /* \"market.sol\":3974:3975  1 */\n      0x01\n        /* \"market.sol\":3958:3975  currentIndex += 1 */\n      dup6\n      tag_84\n      swap2\n      swap1\n      tag_67\n      jump\t// in\n    tag_84:\n      swap5\n      pop\n        /* \"market.sol\":3756:3985  if (idToVaultItem[i + 1].holder == msg.sender) {\r... */\n      pop\n      pop\n    tag_81:\n        /* \"market.sol\":3742:3745  i++ */\n      dup1\n      dup1\n      tag_85\n      swap1\n      tag_71\n      jump\t// in\n    tag_85:\n      swap2\n      pop\n      pop\n        /* \"market.sol\":3705:3992  for (uint i = 0; i < totalItemCount; i++) {\r... */\n      jump(tag_77)\n    tag_78:\n      pop\n        /* \"market.sol\":4005:4010  items */\n      dup1\n        /* \"market.sol\":3998:4010  return items */\n      swap5\n      pop\n      pop\n      pop\n      pop\n      pop\n        /* \"market.sol\":3327:4016  function getMyNft() public view returns (VaultItem[] memory) {\r... */\n      swap1\n      jump\t// out\n        /* \"@openzeppelin/contracts/access/Ownable.sol\":1831:1932  function renounceOwnership() public virtual onlyOwner {... */\n    tag_22:\n        /* \"@openzeppelin/contracts/access/Ownable.sol\":1094:1107  _checkOwner() */\n      tag_87\n        /* \"@openzeppelin/contracts/access/Ownable.sol\":1094:1105  _checkOwner */\n      tag_56\n        /* \"@openzeppelin/contracts/access/Ownable.sol\":1094:1107  _checkOwner() */\n      jump\t// in\n    tag_87:\n        /* \"@openzeppelin/contracts/access/Ownable.sol\":1895:1925  _transferOwnership(address(0)) */\n      tag_89\n        /* \"@openzeppelin/contracts/access/Ownable.sol\":1922:1923  0 */\n      0x00\n        /* \"@openzeppelin/contracts/access/Ownable.sol\":1895:1913  _transferOwnership */\n      tag_90\n        /* \"@openzeppelin/contracts/access/Ownable.sol\":1895:1925  _transferOwnership(address(0)) */\n      jump\t// in\n    tag_89:\n        /* \"@openzeppelin/contracts/access/Ownable.sol\":1831:1932  function renounceOwnership() public virtual onlyOwner {... */\n      jump\t// out\n        /* \"@openzeppelin/contracts/access/Ownable.sol\":1201:1286  function owner() public view virtual returns (address) {... */\n    tag_25:\n        /* \"@openzeppelin/contracts/access/Ownable.sol\":1247:1254  address */\n      0x00\n        /* \"@openzeppelin/contracts/access/Ownable.sol\":1273:1279  _owner */\n      0x01\n      0x00\n      swap1\n      sload\n      swap1\n      0x0100\n      exp\n      swap1\n      div\n      0xffffffffffffffffffffffffffffffffffffffff\n      and\n        /* \"@openzeppelin/contracts/access/Ownable.sol\":1266:1279  return _owner */\n      swap1\n      pop\n        /* \"@openzeppelin/contracts/access/Ownable.sol\":1201:1286  function owner() public view virtual returns (address) {... */\n      swap1\n      jump\t// out\n        /* \"market.sol\":4022:4718  function getMyMarketNfts() public view returns (VaultItem[] memory) {\r... */\n    tag_30:\n        /* \"market.sol\":4070:4088  VaultItem[] memory */\n      0x60\n        /* \"market.sol\":4097:4116  uint totalItemCount */\n      0x00\n        /* \"market.sol\":4119:4137  _itemIds.current() */\n      tag_93\n        /* \"market.sol\":4119:4127  _itemIds */\n      0x02\n        /* \"market.sol\":4119:4135  _itemIds.current */\n      tag_62\n        /* \"market.sol\":4119:4137  _itemIds.current() */\n      jump\t// in\n    tag_93:\n        /* \"market.sol\":4097:4137  uint totalItemCount = _itemIds.current() */\n      swap1\n      pop\n        /* \"market.sol\":4144:4158  uint itemCount */\n      0x00\n        /* \"market.sol\":4169:4186  uint currentIndex */\n      dup1\n        /* \"market.sol\":4204:4210  uint i */\n      0x00\n        /* \"market.sol\":4199:4339  for (uint i = 0; i < totalItemCount; i++) {\r... */\n    tag_94:\n        /* \"market.sol\":4220:4234  totalItemCount */\n      dup4\n        /* \"market.sol\":4216:4217  i */\n      dup2\n        /* \"market.sol\":4216:4234  i < totalItemCount */\n      lt\n        /* \"market.sol\":4199:4339  for (uint i = 0; i < totalItemCount; i++) {\r... */\n      iszero\n      tag_95\n      jumpi\n        /* \"market.sol\":4285:4295  msg.sender */\n      caller\n        /* \"market.sol\":4254:4295  idToVaultItem[i + 1].seller == msg.sender */\n      0xffffffffffffffffffffffffffffffffffffffff\n      and\n        /* \"market.sol\":4254:4267  idToVaultItem */\n      0x07\n        /* \"market.sol\":4254:4274  idToVaultItem[i + 1] */\n      0x00\n        /* \"market.sol\":4272:4273  1 */\n      0x01\n        /* \"market.sol\":4268:4269  i */\n      dup5\n        /* \"market.sol\":4268:4273  i + 1 */\n      tag_97\n      swap2\n      swap1\n      tag_67\n      jump\t// in\n    tag_97:\n        /* \"market.sol\":4254:4274  idToVaultItem[i + 1] */\n      dup2\n      mstore\n      0x20\n      add\n      swap1\n      dup2\n      mstore\n      0x20\n      add\n      0x00\n      keccak256\n        /* \"market.sol\":4254:4281  idToVaultItem[i + 1].seller */\n      0x03\n      add\n      0x00\n      swap1\n      sload\n      swap1\n      0x0100\n      exp\n      swap1\n      div\n      0xffffffffffffffffffffffffffffffffffffffff\n      and\n        /* \"market.sol\":4254:4295  idToVaultItem[i + 1].seller == msg.sender */\n      0xffffffffffffffffffffffffffffffffffffffff\n      and\n      eq\n        /* \"market.sol\":4250:4332  if (idToVaultItem[i + 1].seller == msg.sender) {\r... */\n      iszero\n      tag_98\n      jumpi\n        /* \"market.sol\":4321:4322  1 */\n      0x01\n        /* \"market.sol\":4308:4322  itemCount += 1 */\n      dup4\n      tag_99\n      swap2\n      swap1\n      tag_67\n      jump\t// in\n    tag_99:\n      swap3\n      pop\n        /* \"market.sol\":4250:4332  if (idToVaultItem[i + 1].seller == msg.sender) {\r... */\n    tag_98:\n        /* \"market.sol\":4236:4239  i++ */\n      dup1\n      dup1\n      tag_100\n      swap1\n      tag_71\n      jump\t// in\n    tag_100:\n      swap2\n      pop\n      pop\n        /* \"market.sol\":4199:4339  for (uint i = 0; i < totalItemCount; i++) {\r... */\n      jump(tag_94)\n    tag_95:\n      pop\n        /* \"market.sol\":4347:4371  VaultItem[] memory items */\n      0x00\n        /* \"market.sol\":4390:4399  itemCount */\n      dup3\n        /* \"market.sol\":4374:4400  new VaultItem[](itemCount) */\n      0xffffffffffffffff\n      dup2\n      gt\n      iszero\n      tag_101\n      jumpi\n      mstore(0x00, 0x4e487b7100000000000000000000000000000000000000000000000000000000)\n      mstore(0x04, 0x41)\n      revert(0x00, 0x24)\n    tag_101:\n      mload(0x40)\n      swap1\n      dup1\n      dup3\n      mstore\n      dup1\n      0x20\n      mul\n      0x20\n      add\n      dup3\n      add\n      0x40\n      mstore\n      dup1\n      iszero\n      tag_102\n      jumpi\n      dup2\n      0x20\n      add\n    tag_103:\n      tag_104\n      tag_76\n      jump\t// in\n    tag_104:\n      dup2\n      mstore\n      0x20\n      add\n      swap1\n      0x01\n      swap1\n      sub\n      swap1\n      dup2\n      tag_103\n      jumpi\n      swap1\n      pop\n    tag_102:\n      pop\n        /* \"market.sol\":4347:4400  VaultItem[] memory items = new VaultItem[](itemCount) */\n      swap1\n      pop\n        /* \"market.sol\":4412:4418  uint i */\n      0x00\n        /* \"market.sol\":4407:4694  for (uint i = 0; i < totalItemCount; i++) {\r... */\n    tag_105:\n        /* \"market.sol\":4428:4442  totalItemCount */\n      dup5\n        /* \"market.sol\":4424:4425  i */\n      dup2\n        /* \"market.sol\":4424:4442  i < totalItemCount */\n      lt\n        /* \"market.sol\":4407:4694  for (uint i = 0; i < totalItemCount; i++) {\r... */\n      iszero\n      tag_106\n      jumpi\n        /* \"market.sol\":4493:4503  msg.sender */\n      caller\n        /* \"market.sol\":4462:4503  idToVaultItem[i + 1].seller == msg.sender */\n      0xffffffffffffffffffffffffffffffffffffffff\n      and\n        /* \"market.sol\":4462:4475  idToVaultItem */\n      0x07\n        /* \"market.sol\":4462:4482  idToVaultItem[i + 1] */\n      0x00\n        /* \"market.sol\":4480:4481  1 */\n      0x01\n        /* \"market.sol\":4476:4477  i */\n      dup5\n        /* \"market.sol\":4476:4481  i + 1 */\n      tag_108\n      swap2\n      swap1\n      tag_67\n      jump\t// in\n    tag_108:\n        /* \"market.sol\":4462:4482  idToVaultItem[i + 1] */\n      dup2\n      mstore\n      0x20\n      add\n      swap1\n      dup2\n      mstore\n      0x20\n      add\n      0x00\n      keccak256\n        /* \"market.sol\":4462:4489  idToVaultItem[i + 1].seller */\n      0x03\n      add\n      0x00\n      swap1\n      sload\n      swap1\n      0x0100\n      exp\n      swap1\n      div\n      0xffffffffffffffffffffffffffffffffffffffff\n      and\n        /* \"market.sol\":4462:4503  idToVaultItem[i + 1].seller == msg.sender */\n      0xffffffffffffffffffffffffffffffffffffffff\n      and\n      eq\n        /* \"market.sol\":4458:4687  if (idToVaultItem[i + 1].seller == msg.sender) {\r... */\n      iszero\n      tag_109\n      jumpi\n        /* \"market.sol\":4516:4530  uint currentId */\n      0x00\n        /* \"market.sol\":4537:4538  1 */\n      0x01\n        /* \"market.sol\":4533:4534  i */\n      dup3\n        /* \"market.sol\":4533:4538  i + 1 */\n      tag_110\n      swap2\n      swap1\n      tag_67\n      jump\t// in\n    tag_110:\n        /* \"market.sol\":4516:4538  uint currentId = i + 1 */\n      swap1\n      pop\n        /* \"market.sol\":4549:4578  VaultItem storage currentItem */\n      0x00\n        /* \"market.sol\":4581:4594  idToVaultItem */\n      0x07\n        /* \"market.sol\":4581:4605  idToVaultItem[currentId] */\n      0x00\n        /* \"market.sol\":4595:4604  currentId */\n      dup4\n        /* \"market.sol\":4581:4605  idToVaultItem[currentId] */\n      dup2\n      mstore\n      0x20\n      add\n      swap1\n      dup2\n      mstore\n      0x20\n      add\n      0x00\n      keccak256\n        /* \"market.sol\":4549:4605  VaultItem storage currentItem = idToVaultItem[currentId] */\n      swap1\n      pop\n        /* \"market.sol\":4638:4649  currentItem */\n      dup1\n        /* \"market.sol\":4616:4649  items[currentIndex] = currentItem */\n      mload(0x40)\n      dup1\n      0xe0\n      add\n      0x40\n      mstore\n      swap1\n      dup2\n      0x00\n      dup3\n      add\n      sload\n      dup2\n      mstore\n      0x20\n      add\n      0x01\n      dup3\n      add\n      0x00\n      swap1\n      sload\n      swap1\n      0x0100\n      exp\n      swap1\n      div\n      0xffffffffffffffffffffffffffffffffffffffff\n      and\n      0xffffffffffffffffffffffffffffffffffffffff\n      and\n      0xffffffffffffffffffffffffffffffffffffffff\n      and\n      dup2\n      mstore\n      0x20\n      add\n      0x02\n      dup3\n      add\n      sload\n      dup2\n      mstore\n      0x20\n      add\n      0x03\n      dup3\n      add\n      0x00\n      swap1\n      sload\n      swap1\n      0x0100\n      exp\n      swap1\n      div\n      0xffffffffffffffffffffffffffffffffffffffff\n      and\n      0xffffffffffffffffffffffffffffffffffffffff\n      and\n      0xffffffffffffffffffffffffffffffffffffffff\n      and\n      dup2\n      mstore\n      0x20\n      add\n      0x04\n      dup3\n      add\n      0x00\n      swap1\n      sload\n      swap1\n      0x0100\n      exp\n      swap1\n      div\n      0xffffffffffffffffffffffffffffffffffffffff\n      and\n      0xffffffffffffffffffffffffffffffffffffffff\n      and\n      0xffffffffffffffffffffffffffffffffffffffff\n      and\n      dup2\n      mstore\n      0x20\n      add\n      0x05\n      dup3\n      add\n      sload\n      dup2\n      mstore\n      0x20\n      add\n      0x06\n      dup3\n      add\n      0x00\n      swap1\n      sload\n      swap1\n      0x0100\n      exp\n      swap1\n      div\n      0xff\n      and\n      iszero\n      iszero\n      iszero\n      iszero\n      dup2\n      mstore\n      pop\n      pop\n        /* \"market.sol\":4616:4621  items */\n      dup5\n        /* \"market.sol\":4622:4634  currentIndex */\n      dup7\n        /* \"market.sol\":4616:4635  items[currentIndex] */\n      dup2\n      mload\n      dup2\n      lt\n      tag_111\n      jumpi\n      mstore(0x00, 0x4e487b7100000000000000000000000000000000000000000000000000000000)\n      mstore(0x04, 0x32)\n      revert(0x00, 0x24)\n    tag_111:\n      0x20\n      mul\n      0x20\n      add\n      add\n        /* \"market.sol\":4616:4649  items[currentIndex] = currentItem */\n      dup2\n      swap1\n      mstore\n      pop\n        /* \"market.sol\":4676:4677  1 */\n      0x01\n        /* \"market.sol\":4660:4677  currentIndex += 1 */\n      dup6\n      tag_112\n      swap2\n      swap1\n      tag_67\n      jump\t// in\n    tag_112:\n      swap5\n      pop\n        /* \"market.sol\":4458:4687  if (idToVaultItem[i + 1].seller == msg.sender) {\r... */\n      pop\n      pop\n    tag_109:\n        /* \"market.sol\":4444:4447  i++ */\n      dup1\n      dup1\n      tag_113\n      swap1\n      tag_71\n      jump\t// in\n    tag_113:\n      swap2\n      pop\n      pop\n        /* \"market.sol\":4407:4694  for (uint i = 0; i < totalItemCount; i++) {\r... */\n      jump(tag_105)\n    tag_106:\n      pop\n        /* \"market.sol\":4707:4712  items */\n      dup1\n        /* \"market.sol\":4700:4712  return items */\n      swap5\n      pop\n      pop\n      pop\n      pop\n      pop\n        /* \"market.sol\":4022:4718  function getMyMarketNfts() public view returns (VaultItem[] memory) {\r... */\n      swap1\n      jump\t// out\n        /* \"market.sol\":1561:2142  function createVaultItem(address nftContract,uint256 tokenId,uint256 price) public payable nonReentrant {\r... */\n    tag_35:\n        /* \"@openzeppelin/contracts/security/ReentrancyGuard.sol\":1744:1745  2 */\n      0x02\n        /* \"@openzeppelin/contracts/security/ReentrancyGuard.sol\":2325:2332  _status */\n      sload(0x00)\n        /* \"@openzeppelin/contracts/security/ReentrancyGuard.sol\":2325:2344  _status != _ENTERED */\n      eq\n      iszero\n        /* \"@openzeppelin/contracts/security/ReentrancyGuard.sol\":2317:2380  require(_status != _ENTERED, \"ReentrancyGuard: reentrant call\") */\n      tag_115\n      jumpi\n      mload(0x40)\n      0x08c379a000000000000000000000000000000000000000000000000000000000\n      dup2\n      mstore\n      0x04\n      add\n      tag_116\n      swap1\n      tag_117\n      jump\t// in\n    tag_116:\n      mload(0x40)\n      dup1\n      swap2\n      sub\n      swap1\n      revert\n    tag_115:\n        /* \"@openzeppelin/contracts/security/ReentrancyGuard.sol\":1744:1745  2 */\n      0x02\n        /* \"@openzeppelin/contracts/security/ReentrancyGuard.sol\":2455:2462  _status */\n      0x00\n        /* \"@openzeppelin/contracts/security/ReentrancyGuard.sol\":2455:2473  _status = _ENTERED */\n      dup2\n      swap1\n      sstore\n      pop\n        /* \"market.sol\":1688:1689  0 */\n      0x00\n        /* \"market.sol\":1680:1685  price */\n      dup2\n        /* \"market.sol\":1680:1689  price > 0 */\n      gt\n        /* \"market.sol\":1672:1714  require(price > 0, \"Price cannot be zero\") */\n      tag_119\n      jumpi\n      mload(0x40)\n      0x08c379a000000000000000000000000000000000000000000000000000000000\n      dup2\n      mstore\n      0x04\n      add\n      tag_120\n      swap1\n      tag_121\n      jump\t// in\n    tag_120:\n      mload(0x40)\n      dup1\n      swap2\n      sub\n      swap1\n      revert\n    tag_119:\n        /* \"market.sol\":1742:1752  listingFee */\n      sload(0x05)\n        /* \"market.sol\":1729:1738  msg.value */\n      callvalue\n        /* \"market.sol\":1729:1752  msg.value == listingFee */\n      eq\n        /* \"market.sol\":1721:1784  require(msg.value == listingFee, \"Price cannot be listing fee\") */\n      tag_122\n      jumpi\n      mload(0x40)\n      0x08c379a000000000000000000000000000000000000000000000000000000000\n      dup2\n      mstore\n      0x04\n      add\n      tag_123\n      swap1\n      tag_124\n      jump\t// in\n    tag_123:\n      mload(0x40)\n      dup1\n      swap2\n      sub\n      swap1\n      revert\n    tag_122:\n        /* \"market.sol\":1791:1811  _itemIds.increment() */\n      tag_125\n        /* \"market.sol\":1791:1799  _itemIds */\n      0x02\n        /* \"market.sol\":1791:1809  _itemIds.increment */\n      tag_126\n        /* \"market.sol\":1791:1811  _itemIds.increment() */\n      jump\t// in\n    tag_125:\n        /* \"market.sol\":1818:1832  uint256 itemId */\n      0x00\n        /* \"market.sol\":1835:1853  _itemIds.current() */\n      tag_127\n        /* \"market.sol\":1835:1843  _itemIds */\n      0x02\n        /* \"market.sol\":1835:1851  _itemIds.current */\n      tag_62\n        /* \"market.sol\":1835:1853  _itemIds.current() */\n      jump\t// in\n    tag_127:\n        /* \"market.sol\":1818:1853  uint256 itemId = _itemIds.current() */\n      swap1\n      pop\n        /* \"market.sol\":1885:1974  VaultItem(itemId,nftContract,tokenId,payable(msg.sender),payable(address(0)),price,false) */\n      mload(0x40)\n      dup1\n      0xe0\n      add\n      0x40\n      mstore\n      dup1\n        /* \"market.sol\":1895:1901  itemId */\n      dup3\n        /* \"market.sol\":1885:1974  VaultItem(itemId,nftContract,tokenId,payable(msg.sender),payable(address(0)),price,false) */\n      dup2\n      mstore\n      0x20\n      add\n        /* \"market.sol\":1902:1913  nftContract */\n      dup6\n        /* \"market.sol\":1885:1974  VaultItem(itemId,nftContract,tokenId,payable(msg.sender),payable(address(0)),price,false) */\n      0xffffffffffffffffffffffffffffffffffffffff\n      and\n      dup2\n      mstore\n      0x20\n      add\n        /* \"market.sol\":1914:1921  tokenId */\n      dup5\n        /* \"market.sol\":1885:1974  VaultItem(itemId,nftContract,tokenId,payable(msg.sender),payable(address(0)),price,false) */\n      dup2\n      mstore\n      0x20\n      add\n        /* \"market.sol\":1930:1940  msg.sender */\n      caller\n        /* \"market.sol\":1885:1974  VaultItem(itemId,nftContract,tokenId,payable(msg.sender),payable(address(0)),price,false) */\n      0xffffffffffffffffffffffffffffffffffffffff\n      and\n      dup2\n      mstore\n      0x20\n      add\n        /* \"market.sol\":1958:1959  0 */\n      0x00\n        /* \"market.sol\":1885:1974  VaultItem(itemId,nftContract,tokenId,payable(msg.sender),payable(address(0)),price,false) */\n      0xffffffffffffffffffffffffffffffffffffffff\n      and\n      dup2\n      mstore\n      0x20\n      add\n        /* \"market.sol\":1962:1967  price */\n      dup4\n        /* \"market.sol\":1885:1974  VaultItem(itemId,nftContract,tokenId,payable(msg.sender),payable(address(0)),price,false) */\n      dup2\n      mstore\n      0x20\n      add\n        /* \"market.sol\":1968:1973  false */\n      0x00\n        /* \"market.sol\":1885:1974  VaultItem(itemId,nftContract,tokenId,payable(msg.sender),payable(address(0)),price,false) */\n      iszero\n      iszero\n      dup2\n      mstore\n      pop\n        /* \"market.sol\":1860:1873  idToVaultItem */\n      0x07\n        /* \"market.sol\":1860:1881  idToVaultItem[itemId] */\n      0x00\n        /* \"market.sol\":1874:1880  itemId */\n      dup4\n        /* \"market.sol\":1860:1881  idToVaultItem[itemId] */\n      dup2\n      mstore\n      0x20\n      add\n      swap1\n      dup2\n      mstore\n      0x20\n      add\n      0x00\n      keccak256\n        /* \"market.sol\":1860:1974  idToVaultItem[itemId] =  VaultItem(itemId,nftContract,tokenId,payable(msg.sender),payable(address(0)),price,false) */\n      0x00\n      dup3\n      add\n      mload\n      dup2\n      0x00\n      add\n      sstore\n      0x20\n      dup3\n      add\n      mload\n      dup2\n      0x01\n      add\n      exp(0x0100, 0x00)\n      dup2\n      sload\n      dup2\n      0xffffffffffffffffffffffffffffffffffffffff\n      mul\n      not\n      and\n      swap1\n      dup4\n      0xffffffffffffffffffffffffffffffffffffffff\n      and\n      mul\n      or\n      swap1\n      sstore\n      pop\n      0x40\n      dup3\n      add\n      mload\n      dup2\n      0x02\n      add\n      sstore\n      0x60\n      dup3\n      add\n      mload\n      dup2\n      0x03\n      add\n      exp(0x0100, 0x00)\n      dup2\n      sload\n      dup2\n      0xffffffffffffffffffffffffffffffffffffffff\n      mul\n      not\n      and\n      swap1\n      dup4\n      0xffffffffffffffffffffffffffffffffffffffff\n      and\n      mul\n      or\n      swap1\n      sstore\n      pop\n      0x80\n      dup3\n      add\n      mload\n      dup2\n      0x04\n      add\n      exp(0x0100, 0x00)\n      dup2\n      sload\n      dup2\n      0xffffffffffffffffffffffffffffffffffffffff\n      mul\n      not\n      and\n      swap1\n      dup4\n      0xffffffffffffffffffffffffffffffffffffffff\n      and\n      mul\n      or\n      swap1\n      sstore\n      pop\n      0xa0\n      dup3\n      add\n      mload\n      dup2\n      0x05\n      add\n      sstore\n      0xc0\n      dup3\n      add\n      mload\n      dup2\n      0x06\n      add\n      exp(0x0100, 0x00)\n      dup2\n      sload\n      dup2\n      0xff\n      mul\n      not\n      and\n      swap1\n      dup4\n      iszero\n      iszero\n      mul\n      or\n      swap1\n      sstore\n      pop\n      swap1\n      pop\n      pop\n        /* \"market.sol\":1989:2000  nftContract */\n      dup4\n        /* \"market.sol\":1981:2014  IERC721(nftContract).transferFrom */\n      0xffffffffffffffffffffffffffffffffffffffff\n      and\n      0x23b872dd\n        /* \"market.sol\":2015:2025  msg.sender */\n      caller\n        /* \"market.sol\":2035:2039  this */\n      address\n        /* \"market.sol\":2042:2049  tokenId */\n      dup7\n        /* \"market.sol\":1981:2050  IERC721(nftContract).transferFrom(msg.sender, address(this), tokenId) */\n      mload(0x40)\n      dup5\n      0xffffffff\n      and\n      0xe0\n      shl\n      dup2\n      mstore\n      0x04\n      add\n      tag_128\n      swap4\n      swap3\n      swap2\n      swap1\n      tag_129\n      jump\t// in\n    tag_128:\n      0x00\n      mload(0x40)\n      dup1\n      dup4\n      sub\n      dup2\n      0x00\n      dup8\n      dup1\n      extcodesize\n      iszero\n      dup1\n      iszero\n      tag_130\n      jumpi\n      0x00\n      dup1\n      revert\n    tag_130:\n      pop\n      gas\n      call\n      iszero\n      dup1\n      iszero\n      tag_132\n      jumpi\n      returndatasize\n      0x00\n      dup1\n      returndatacopy\n      revert(0x00, returndatasize)\n    tag_132:\n      pop\n      pop\n      pop\n      pop\n        /* \"market.sol\":2098:2105  tokenId */\n      dup3\n        /* \"market.sol\":2086:2097  nftContract */\n      dup5\n        /* \"market.sol\":2062:2140  VaultItemCreated(itemId,nftContract,tokenId,msg.sender,address(0),price,false) */\n      0xffffffffffffffffffffffffffffffffffffffff\n      and\n        /* \"market.sol\":2079:2085  itemId */\n      dup3\n        /* \"market.sol\":2062:2140  VaultItemCreated(itemId,nftContract,tokenId,msg.sender,address(0),price,false) */\n      0x5f244be10a8d938e3d87696f8eb660aea498791b881de4ccb1838ba753270f18\n        /* \"market.sol\":2106:2116  msg.sender */\n      caller\n        /* \"market.sol\":2125:2126  0 */\n      0x00\n        /* \"market.sol\":2128:2133  price */\n      dup8\n        /* \"market.sol\":2134:2139  false */\n      0x00\n        /* \"market.sol\":2062:2140  VaultItemCreated(itemId,nftContract,tokenId,msg.sender,address(0),price,false) */\n      mload(0x40)\n      tag_133\n      swap5\n      swap4\n      swap3\n      swap2\n      swap1\n      tag_134\n      jump\t// in\n    tag_133:\n      mload(0x40)\n      dup1\n      swap2\n      sub\n      swap1\n      log4\n        /* \"@openzeppelin/contracts/security/ReentrancyGuard.sol\":2484:2485  _ */\n      pop\n        /* \"@openzeppelin/contracts/security/ReentrancyGuard.sol\":1701:1702  1 */\n      0x01\n        /* \"@openzeppelin/contracts/security/ReentrancyGuard.sol\":2628:2635  _status */\n      0x00\n        /* \"@openzeppelin/contracts/security/ReentrancyGuard.sol\":2628:2650  _status = _NOT_ENTERED */\n      dup2\n      swap1\n      sstore\n      pop\n        /* \"market.sol\":1561:2142  function createVaultItem(address nftContract,uint256 tokenId,uint256 price) public payable nonReentrant {\r... */\n      pop\n      pop\n      pop\n      jump\t// out\n        /* \"market.sol\":1468:1553  function getListingFee() public view returns (uint256) {\r... */\n    tag_38:\n        /* \"market.sol\":1514:1521  uint256 */\n      0x00\n        /* \"market.sol\":1537:1547  listingFee */\n      sload(0x05)\n        /* \"market.sol\":1530:1547  return listingFee */\n      swap1\n      pop\n        /* \"market.sol\":1468:1553  function getListingFee() public view returns (uint256) {\r... */\n      swap1\n      jump\t// out\n        /* \"market.sol\":2731:3321  function getAvailableNft() public view returns (VaultItem[] memory) {\r... */\n    tag_43:\n        /* \"market.sol\":2779:2797  VaultItem[] memory */\n      0x60\n        /* \"market.sol\":2806:2820  uint itemCount */\n      0x00\n        /* \"market.sol\":2823:2841  _itemIds.current() */\n      tag_137\n        /* \"market.sol\":2823:2831  _itemIds */\n      0x02\n        /* \"market.sol\":2823:2839  _itemIds.current */\n      tag_62\n        /* \"market.sol\":2823:2841  _itemIds.current() */\n      jump\t// in\n    tag_137:\n        /* \"market.sol\":2806:2841  uint itemCount = _itemIds.current() */\n      swap1\n      pop\n        /* \"market.sol\":2848:2868  uint unsoldItemCount */\n      0x00\n        /* \"market.sol\":2892:2912  _itemsSold.current() */\n      tag_138\n        /* \"market.sol\":2892:2902  _itemsSold */\n      0x03\n        /* \"market.sol\":2892:2910  _itemsSold.current */\n      tag_62\n        /* \"market.sol\":2892:2912  _itemsSold.current() */\n      jump\t// in\n    tag_138:\n        /* \"market.sol\":2871:2889  _itemIds.current() */\n      tag_139\n        /* \"market.sol\":2871:2879  _itemIds */\n      0x02\n        /* \"market.sol\":2871:2887  _itemIds.current */\n      tag_62\n        /* \"market.sol\":2871:2889  _itemIds.current() */\n      jump\t// in\n    tag_139:\n        /* \"market.sol\":2871:2912  _itemIds.current() - _itemsSold.current() */\n      tag_140\n      swap2\n      swap1\n      tag_141\n      jump\t// in\n    tag_140:\n        /* \"market.sol\":2848:2912  uint unsoldItemCount = _itemIds.current() - _itemsSold.current() */\n      swap1\n      pop\n        /* \"market.sol\":2919:2936  uint currentIndex */\n      0x00\n        /* \"market.sol\":2949:2973  VaultItem[] memory items */\n      dup1\n        /* \"market.sol\":2992:3007  unsoldItemCount */\n      dup3\n        /* \"market.sol\":2976:3008  new VaultItem[](unsoldItemCount) */\n      0xffffffffffffffff\n      dup2\n      gt\n      iszero\n      tag_142\n      jumpi\n      mstore(0x00, 0x4e487b7100000000000000000000000000000000000000000000000000000000)\n      mstore(0x04, 0x41)\n      revert(0x00, 0x24)\n    tag_142:\n      mload(0x40)\n      swap1\n      dup1\n      dup3\n      mstore\n      dup1\n      0x20\n      mul\n      0x20\n      add\n      dup3\n      add\n      0x40\n      mstore\n      dup1\n      iszero\n      tag_143\n      jumpi\n      dup2\n      0x20\n      add\n    tag_144:\n      tag_145\n      tag_76\n      jump\t// in\n    tag_145:\n      dup2\n      mstore\n      0x20\n      add\n      swap1\n      0x01\n      swap1\n      sub\n      swap1\n      dup2\n      tag_144\n      jumpi\n      swap1\n      pop\n    tag_143:\n      pop\n        /* \"market.sol\":2949:3008  VaultItem[] memory items = new VaultItem[](unsoldItemCount) */\n      swap1\n      pop\n        /* \"market.sol\":3020:3026  uint i */\n      0x00\n        /* \"market.sol\":3015:3297  for (uint i = 0; i < itemCount; i++) {\r... */\n    tag_146:\n        /* \"market.sol\":3036:3045  itemCount */\n      dup5\n        /* \"market.sol\":3032:3033  i */\n      dup2\n        /* \"market.sol\":3032:3045  i < itemCount */\n      lt\n        /* \"market.sol\":3015:3297  for (uint i = 0; i < itemCount; i++) {\r... */\n      iszero\n      tag_147\n      jumpi\n        /* \"market.sol\":3104:3105  0 */\n      0x00\n        /* \"market.sol\":3065:3106  idToVaultItem[i + 1].holder == address(0) */\n      0xffffffffffffffffffffffffffffffffffffffff\n      and\n        /* \"market.sol\":3065:3078  idToVaultItem */\n      0x07\n        /* \"market.sol\":3065:3085  idToVaultItem[i + 1] */\n      0x00\n        /* \"market.sol\":3083:3084  1 */\n      0x01\n        /* \"market.sol\":3079:3080  i */\n      dup5\n        /* \"market.sol\":3079:3084  i + 1 */\n      tag_149\n      swap2\n      swap1\n      tag_67\n      jump\t// in\n    tag_149:\n        /* \"market.sol\":3065:3085  idToVaultItem[i + 1] */\n      dup2\n      mstore\n      0x20\n      add\n      swap1\n      dup2\n      mstore\n      0x20\n      add\n      0x00\n      keccak256\n        /* \"market.sol\":3065:3092  idToVaultItem[i + 1].holder */\n      0x04\n      add\n      0x00\n      swap1\n      sload\n      swap1\n      0x0100\n      exp\n      swap1\n      div\n      0xffffffffffffffffffffffffffffffffffffffff\n      and\n        /* \"market.sol\":3065:3106  idToVaultItem[i + 1].holder == address(0) */\n      0xffffffffffffffffffffffffffffffffffffffff\n      and\n      eq\n        /* \"market.sol\":3061:3290  if (idToVaultItem[i + 1].holder == address(0)) {\r... */\n      iszero\n      tag_150\n      jumpi\n        /* \"market.sol\":3119:3133  uint currentId */\n      0x00\n        /* \"market.sol\":3140:3141  1 */\n      0x01\n        /* \"market.sol\":3136:3137  i */\n      dup3\n        /* \"market.sol\":3136:3141  i + 1 */\n      tag_151\n      swap2\n      swap1\n      tag_67\n      jump\t// in\n    tag_151:\n        /* \"market.sol\":3119:3141  uint currentId = i + 1 */\n      swap1\n      pop\n        /* \"market.sol\":3152:3181  VaultItem storage currentItem */\n      0x00\n        /* \"market.sol\":3184:3197  idToVaultItem */\n      0x07\n        /* \"market.sol\":3184:3208  idToVaultItem[currentId] */\n      0x00\n        /* \"market.sol\":3198:3207  currentId */\n      dup4\n        /* \"market.sol\":3184:3208  idToVaultItem[currentId] */\n      dup2\n      mstore\n      0x20\n      add\n      swap1\n      dup2\n      mstore\n      0x20\n      add\n      0x00\n      keccak256\n        /* \"market.sol\":3152:3208  VaultItem storage currentItem = idToVaultItem[currentId] */\n      swap1\n      pop\n        /* \"market.sol\":3241:3252  currentItem */\n      dup1\n        /* \"market.sol\":3219:3252  items[currentIndex] = currentItem */\n      mload(0x40)\n      dup1\n      0xe0\n      add\n      0x40\n      mstore\n      swap1\n      dup2\n      0x00\n      dup3\n      add\n      sload\n      dup2\n      mstore\n      0x20\n      add\n      0x01\n      dup3\n      add\n      0x00\n      swap1\n      sload\n      swap1\n      0x0100\n      exp\n      swap1\n      div\n      0xffffffffffffffffffffffffffffffffffffffff\n      and\n      0xffffffffffffffffffffffffffffffffffffffff\n      and\n      0xffffffffffffffffffffffffffffffffffffffff\n      and\n      dup2\n      mstore\n      0x20\n      add\n      0x02\n      dup3\n      add\n      sload\n      dup2\n      mstore\n      0x20\n      add\n      0x03\n      dup3\n      add\n      0x00\n      swap1\n      sload\n      swap1\n      0x0100\n      exp\n      swap1\n      div\n      0xffffffffffffffffffffffffffffffffffffffff\n      and\n      0xffffffffffffffffffffffffffffffffffffffff\n      and\n      0xffffffffffffffffffffffffffffffffffffffff\n      and\n      dup2\n      mstore\n      0x20\n      add\n      0x04\n      dup3\n      add\n      0x00\n      swap1\n      sload\n      swap1\n      0x0100\n      exp\n      swap1\n      div\n      0xffffffffffffffffffffffffffffffffffffffff\n      and\n      0xffffffffffffffffffffffffffffffffffffffff\n      and\n      0xffffffffffffffffffffffffffffffffffffffff\n      and\n      dup2\n      mstore\n      0x20\n      add\n      0x05\n      dup3\n      add\n      sload\n      dup2\n      mstore\n      0x20\n      add\n      0x06\n      dup3\n      add\n      0x00\n      swap1\n      sload\n      swap1\n      0x0100\n      exp\n      swap1\n      div\n      0xff\n      and\n      iszero\n      iszero\n      iszero\n      iszero\n      dup2\n      mstore\n      pop\n      pop\n        /* \"market.sol\":3219:3224  items */\n      dup5\n        /* \"market.sol\":3225:3237  currentIndex */\n      dup7\n        /* \"market.sol\":3219:3238  items[currentIndex] */\n      dup2\n      mload\n      dup2\n      lt\n      tag_152\n      jumpi\n      mstore(0x00, 0x4e487b7100000000000000000000000000000000000000000000000000000000)\n      mstore(0x04, 0x32)\n      revert(0x00, 0x24)\n    tag_152:\n      0x20\n      mul\n      0x20\n      add\n      add\n        /* \"market.sol\":3219:3252  items[currentIndex] = currentItem */\n      dup2\n      swap1\n      mstore\n      pop\n        /* \"market.sol\":3279:3280  1 */\n      0x01\n        /* \"market.sol\":3263:3280  currentIndex += 1 */\n      dup6\n      tag_153\n      swap2\n      swap1\n      tag_67\n      jump\t// in\n    tag_153:\n      swap5\n      pop\n        /* \"market.sol\":3061:3290  if (idToVaultItem[i + 1].holder == address(0)) {\r... */\n      pop\n      pop\n    tag_150:\n        /* \"market.sol\":3047:3050  i++ */\n      dup1\n      dup1\n      tag_154\n      swap1\n      tag_71\n      jump\t// in\n    tag_154:\n      swap2\n      pop\n      pop\n        /* \"market.sol\":3015:3297  for (uint i = 0; i < itemCount; i++) {\r... */\n      jump(tag_146)\n    tag_147:\n      pop\n        /* \"market.sol\":3310:3315  items */\n      dup1\n        /* \"market.sol\":3303:3315  return items */\n      swap5\n      pop\n      pop\n      pop\n      pop\n      pop\n        /* \"market.sol\":2731:3321  function getAvailableNft() public view returns (VaultItem[] memory) {\r... */\n      swap1\n      jump\t// out\n        /* \"market.sol\":2148:2725  function n2DMarketSale(\r... */\n    tag_48:\n        /* \"@openzeppelin/contracts/security/ReentrancyGuard.sol\":1744:1745  2 */\n      0x02\n        /* \"@openzeppelin/contracts/security/ReentrancyGuard.sol\":2325:2332  _status */\n      sload(0x00)\n        /* \"@openzeppelin/contracts/security/ReentrancyGuard.sol\":2325:2344  _status != _ENTERED */\n      eq\n      iszero\n        /* \"@openzeppelin/contracts/security/ReentrancyGuard.sol\":2317:2380  require(_status != _ENTERED, \"ReentrancyGuard: reentrant call\") */\n      tag_156\n      jumpi\n      mload(0x40)\n      0x08c379a000000000000000000000000000000000000000000000000000000000\n      dup2\n      mstore\n      0x04\n      add\n      tag_157\n      swap1\n      tag_117\n      jump\t// in\n    tag_157:\n      mload(0x40)\n      dup1\n      swap2\n      sub\n      swap1\n      revert\n    tag_156:\n        /* \"@openzeppelin/contracts/security/ReentrancyGuard.sol\":1744:1745  2 */\n      0x02\n        /* \"@openzeppelin/contracts/security/ReentrancyGuard.sol\":2455:2462  _status */\n      0x00\n        /* \"@openzeppelin/contracts/security/ReentrancyGuard.sol\":2455:2473  _status = _ENTERED */\n      dup2\n      swap1\n      sstore\n      pop\n        /* \"market.sol\":2248:2258  uint price */\n      0x00\n        /* \"market.sol\":2261:2274  idToVaultItem */\n      0x07\n        /* \"market.sol\":2261:2282  idToVaultItem[itemId] */\n      0x00\n        /* \"market.sol\":2275:2281  itemId */\n      dup4\n        /* \"market.sol\":2261:2282  idToVaultItem[itemId] */\n      dup2\n      mstore\n      0x20\n      add\n      swap1\n      dup2\n      mstore\n      0x20\n      add\n      0x00\n      keccak256\n        /* \"market.sol\":2261:2288  idToVaultItem[itemId].price */\n      0x05\n      add\n      sload\n        /* \"market.sol\":2248:2288  uint price = idToVaultItem[itemId].price */\n      swap1\n      pop\n        /* \"market.sol\":2295:2307  uint tokenId */\n      0x00\n        /* \"market.sol\":2310:2323  idToVaultItem */\n      0x07\n        /* \"market.sol\":2310:2331  idToVaultItem[itemId] */\n      0x00\n        /* \"market.sol\":2324:2330  itemId */\n      dup5\n        /* \"market.sol\":2310:2331  idToVaultItem[itemId] */\n      dup2\n      mstore\n      0x20\n      add\n      swap1\n      dup2\n      mstore\n      0x20\n      add\n      0x00\n      keccak256\n        /* \"market.sol\":2310:2339  idToVaultItem[itemId].tokenId */\n      0x02\n      add\n      sload\n        /* \"market.sol\":2295:2339  uint tokenId = idToVaultItem[itemId].tokenId */\n      swap1\n      pop\n        /* \"market.sol\":2367:2372  price */\n      dup2\n        /* \"market.sol\":2354:2363  msg.value */\n      callvalue\n        /* \"market.sol\":2354:2372  msg.value == price */\n      eq\n        /* \"market.sol\":2346:2419  require(msg.value == price, \"Not enough balance to complete transaction\") */\n      tag_159\n      jumpi\n      mload(0x40)\n      0x08c379a000000000000000000000000000000000000000000000000000000000\n      dup2\n      mstore\n      0x04\n      add\n      tag_160\n      swap1\n      tag_161\n      jump\t// in\n    tag_160:\n      mload(0x40)\n      dup1\n      swap2\n      sub\n      swap1\n      revert\n    tag_159:\n        /* \"market.sol\":2426:2439  idToVaultItem */\n      0x07\n        /* \"market.sol\":2426:2447  idToVaultItem[itemId] */\n      0x00\n        /* \"market.sol\":2440:2446  itemId */\n      dup5\n        /* \"market.sol\":2426:2447  idToVaultItem[itemId] */\n      dup2\n      mstore\n      0x20\n      add\n      swap1\n      dup2\n      mstore\n      0x20\n      add\n      0x00\n      keccak256\n        /* \"market.sol\":2426:2454  idToVaultItem[itemId].seller */\n      0x03\n      add\n      0x00\n      swap1\n      sload\n      swap1\n      0x0100\n      exp\n      swap1\n      div\n      0xffffffffffffffffffffffffffffffffffffffff\n      and\n        /* \"market.sol\":2426:2463  idToVaultItem[itemId].seller.transfer */\n      0xffffffffffffffffffffffffffffffffffffffff\n      and\n        /* \"market.sol\":2426:2474  idToVaultItem[itemId].seller.transfer(msg.value) */\n      0x08fc\n        /* \"market.sol\":2464:2473  msg.value */\n      callvalue\n        /* \"market.sol\":2426:2474  idToVaultItem[itemId].seller.transfer(msg.value) */\n      swap1\n      dup2\n      iszero\n      mul\n      swap1\n      mload(0x40)\n      0x00\n      mload(0x40)\n      dup1\n      dup4\n      sub\n      dup2\n      dup6\n      dup9\n      dup9\n      call\n      swap4\n      pop\n      pop\n      pop\n      pop\n      iszero\n      dup1\n      iszero\n      tag_163\n      jumpi\n      returndatasize\n      0x00\n      dup1\n      returndatacopy\n      revert(0x00, returndatasize)\n    tag_163:\n      pop\n        /* \"market.sol\":2489:2500  nftContract */\n      dup4\n        /* \"market.sol\":2481:2514  IERC721(nftContract).transferFrom */\n      0xffffffffffffffffffffffffffffffffffffffff\n      and\n      0x23b872dd\n        /* \"market.sol\":2523:2527  this */\n      address\n        /* \"market.sol\":2530:2540  msg.sender */\n      caller\n        /* \"market.sol\":2542:2549  tokenId */\n      dup5\n        /* \"market.sol\":2481:2550  IERC721(nftContract).transferFrom(address(this), msg.sender, tokenId) */\n      mload(0x40)\n      dup5\n      0xffffffff\n      and\n      0xe0\n      shl\n      dup2\n      mstore\n      0x04\n      add\n      tag_164\n      swap4\n      swap3\n      swap2\n      swap1\n      tag_129\n      jump\t// in\n    tag_164:\n      0x00\n      mload(0x40)\n      dup1\n      dup4\n      sub\n      dup2\n      0x00\n      dup8\n      dup1\n      extcodesize\n      iszero\n      dup1\n      iszero\n      tag_165\n      jumpi\n      0x00\n      dup1\n      revert\n    tag_165:\n      pop\n      gas\n      call\n      iszero\n      dup1\n      iszero\n      tag_167\n      jumpi\n      returndatasize\n      0x00\n      dup1\n      returndatacopy\n      revert(0x00, returndatasize)\n    tag_167:\n      pop\n      pop\n      pop\n      pop\n        /* \"market.sol\":2596:2606  msg.sender */\n      caller\n        /* \"market.sol\":2557:2570  idToVaultItem */\n      0x07\n        /* \"market.sol\":2557:2578  idToVaultItem[itemId] */\n      0x00\n        /* \"market.sol\":2571:2577  itemId */\n      dup6\n        /* \"market.sol\":2557:2578  idToVaultItem[itemId] */\n      dup2\n      mstore\n      0x20\n      add\n      swap1\n      dup2\n      mstore\n      0x20\n      add\n      0x00\n      keccak256\n        /* \"market.sol\":2557:2585  idToVaultItem[itemId].holder */\n      0x04\n      add\n      0x00\n        /* \"market.sol\":2557:2607  idToVaultItem[itemId].holder = payable(msg.sender) */\n      0x0100\n      exp\n      dup2\n      sload\n      dup2\n      0xffffffffffffffffffffffffffffffffffffffff\n      mul\n      not\n      and\n      swap1\n      dup4\n      0xffffffffffffffffffffffffffffffffffffffff\n      and\n      mul\n      or\n      swap1\n      sstore\n      pop\n        /* \"market.sol\":2643:2647  true */\n      0x01\n        /* \"market.sol\":2614:2627  idToVaultItem */\n      0x07\n        /* \"market.sol\":2614:2635  idToVaultItem[itemId] */\n      0x00\n        /* \"market.sol\":2628:2634  itemId */\n      dup6\n        /* \"market.sol\":2614:2635  idToVaultItem[itemId] */\n      dup2\n      mstore\n      0x20\n      add\n      swap1\n      dup2\n      mstore\n      0x20\n      add\n      0x00\n      keccak256\n        /* \"market.sol\":2614:2640  idToVaultItem[itemId].sold */\n      0x06\n      add\n      0x00\n        /* \"market.sol\":2614:2647  idToVaultItem[itemId].sold = true */\n      0x0100\n      exp\n      dup2\n      sload\n      dup2\n      0xff\n      mul\n      not\n      and\n      swap1\n      dup4\n      iszero\n      iszero\n      mul\n      or\n      swap1\n      sstore\n      pop\n        /* \"market.sol\":2654:2676  _itemsSold.increment() */\n      tag_168\n        /* \"market.sol\":2654:2664  _itemsSold */\n      0x03\n        /* \"market.sol\":2654:2674  _itemsSold.increment */\n      tag_126\n        /* \"market.sol\":2654:2676  _itemsSold.increment() */\n      jump\t// in\n    tag_168:\n        /* \"market.sol\":2691:2697  holder */\n      0x04\n      0x00\n      swap1\n      sload\n      swap1\n      0x0100\n      exp\n      swap1\n      div\n      0xffffffffffffffffffffffffffffffffffffffff\n      and\n        /* \"market.sol\":2683:2707  payable(holder).transfer */\n      0xffffffffffffffffffffffffffffffffffffffff\n      and\n        /* \"market.sol\":2683:2719  payable(holder).transfer(listingFee) */\n      0x08fc\n        /* \"market.sol\":2708:2718  listingFee */\n      sload(0x05)\n        /* \"market.sol\":2683:2719  payable(holder).transfer(listingFee) */\n      swap1\n      dup2\n      iszero\n      mul\n      swap1\n      mload(0x40)\n      0x00\n      mload(0x40)\n      dup1\n      dup4\n      sub\n      dup2\n      dup6\n      dup9\n      dup9\n      call\n      swap4\n      pop\n      pop\n      pop\n      pop\n      iszero\n      dup1\n      iszero\n      tag_170\n      jumpi\n      returndatasize\n      0x00\n      dup1\n      returndatacopy\n      revert(0x00, returndatasize)\n    tag_170:\n      pop\n        /* \"@openzeppelin/contracts/security/ReentrancyGuard.sol\":2484:2485  _ */\n      pop\n      pop\n        /* \"@openzeppelin/contracts/security/ReentrancyGuard.sol\":1701:1702  1 */\n      0x01\n        /* \"@openzeppelin/contracts/security/ReentrancyGuard.sol\":2628:2635  _status */\n      0x00\n        /* \"@openzeppelin/contracts/security/ReentrancyGuard.sol\":2628:2650  _status = _NOT_ENTERED */\n      dup2\n      swap1\n      sstore\n      pop\n        /* \"market.sol\":2148:2725  function n2DMarketSale(\r... */\n      pop\n      pop\n      jump\t// out\n        /* \"@openzeppelin/contracts/access/Ownable.sol\":2081:2279  function transferOwnership(address newOwner) public virtual onlyOwner {... */\n    tag_53:\n        /* \"@openzeppelin/contracts/access/Ownable.sol\":1094:1107  _checkOwner() */\n      tag_172\n        /* \"@openzeppelin/contracts/access/Ownable.sol\":1094:1105  _checkOwner */\n      tag_56\n        /* \"@openzeppelin/contracts/access/Ownable.sol\":1094:1107  _checkOwner() */\n      jump\t// in\n    tag_172:\n        /* \"@openzeppelin/contracts/access/Ownable.sol\":2189:2190  0 */\n      0x00\n        /* \"@openzeppelin/contracts/access/Ownable.sol\":2169:2191  newOwner != address(0) */\n      0xffffffffffffffffffffffffffffffffffffffff\n      and\n        /* \"@openzeppelin/contracts/access/Ownable.sol\":2169:2177  newOwner */\n      dup2\n        /* \"@openzeppelin/contracts/access/Ownable.sol\":2169:2191  newOwner != address(0) */\n      0xffffffffffffffffffffffffffffffffffffffff\n      and\n      eq\n      iszero\n        /* \"@openzeppelin/contracts/access/Ownable.sol\":2161:2234  require(newOwner != address(0), \"Ownable: new owner is the zero address\") */\n      tag_174\n      jumpi\n      mload(0x40)\n      0x08c379a000000000000000000000000000000000000000000000000000000000\n      dup2\n      mstore\n      0x04\n      add\n      tag_175\n      swap1\n      tag_176\n      jump\t// in\n    tag_175:\n      mload(0x40)\n      dup1\n      swap2\n      sub\n      swap1\n      revert\n    tag_174:\n        /* \"@openzeppelin/contracts/access/Ownable.sol\":2244:2272  _transferOwnership(newOwner) */\n      tag_177\n        /* \"@openzeppelin/contracts/access/Ownable.sol\":2263:2271  newOwner */\n      dup2\n        /* \"@openzeppelin/contracts/access/Ownable.sol\":2244:2262  _transferOwnership */\n      tag_90\n        /* \"@openzeppelin/contracts/access/Ownable.sol\":2244:2272  _transferOwnership(newOwner) */\n      jump\t// in\n    tag_177:\n        /* \"@openzeppelin/contracts/access/Ownable.sol\":2081:2279  function transferOwnership(address newOwner) public virtual onlyOwner {... */\n      pop\n      jump\t// out\n        /* \"@openzeppelin/contracts/access/Ownable.sol\":1359:1489  function _checkOwner() internal view virtual {... */\n    tag_56:\n        /* \"@openzeppelin/contracts/access/Ownable.sol\":1433:1445  _msgSender() */\n      tag_179\n        /* \"@openzeppelin/contracts/access/Ownable.sol\":1433:1443  _msgSender */\n      tag_180\n        /* \"@openzeppelin/contracts/access/Ownable.sol\":1433:1445  _msgSender() */\n      jump\t// in\n    tag_179:\n        /* \"@openzeppelin/contracts/access/Ownable.sol\":1422:1445  owner() == _msgSender() */\n      0xffffffffffffffffffffffffffffffffffffffff\n      and\n        /* \"@openzeppelin/contracts/access/Ownable.sol\":1422:1429  owner() */\n      tag_181\n        /* \"@openzeppelin/contracts/access/Ownable.sol\":1422:1427  owner */\n      tag_25\n        /* \"@openzeppelin/contracts/access/Ownable.sol\":1422:1429  owner() */\n      jump\t// in\n    tag_181:\n        /* \"@openzeppelin/contracts/access/Ownable.sol\":1422:1445  owner() == _msgSender() */\n      0xffffffffffffffffffffffffffffffffffffffff\n      and\n      eq\n        /* \"@openzeppelin/contracts/access/Ownable.sol\":1414:1482  require(owner() == _msgSender(), \"Ownable: caller is not the owner\") */\n      tag_182\n      jumpi\n      mload(0x40)\n      0x08c379a000000000000000000000000000000000000000000000000000000000\n      dup2\n      mstore\n      0x04\n      add\n      tag_183\n      swap1\n      tag_184\n      jump\t// in\n    tag_183:\n      mload(0x40)\n      dup1\n      swap2\n      sub\n      swap1\n      revert\n    tag_182:\n        /* \"@openzeppelin/contracts/access/Ownable.sol\":1359:1489  function _checkOwner() internal view virtual {... */\n      jump\t// out\n        /* \"@openzeppelin/contracts/utils/Counters.sol\":827:939  function current(Counter storage counter) internal view returns (uint256) {... */\n    tag_62:\n        /* \"@openzeppelin/contracts/utils/Counters.sol\":892:899  uint256 */\n      0x00\n        /* \"@openzeppelin/contracts/utils/Counters.sol\":918:925  counter */\n      dup2\n        /* \"@openzeppelin/contracts/utils/Counters.sol\":918:932  counter._value */\n      0x00\n      add\n      sload\n        /* \"@openzeppelin/contracts/utils/Counters.sol\":911:932  return counter._value */\n      swap1\n      pop\n        /* \"@openzeppelin/contracts/utils/Counters.sol\":827:939  function current(Counter storage counter) internal view returns (uint256) {... */\n      swap2\n      swap1\n      pop\n      jump\t// out\n        /* \"@openzeppelin/contracts/access/Ownable.sol\":2433:2620  function _transferOwnership(address newOwner) internal virtual {... */\n    tag_90:\n        /* \"@openzeppelin/contracts/access/Ownable.sol\":2506:2522  address oldOwner */\n      0x00\n        /* \"@openzeppelin/contracts/access/Ownable.sol\":2525:2531  _owner */\n      0x01\n      0x00\n      swap1\n      sload\n      swap1\n      0x0100\n      exp\n      swap1\n      div\n      0xffffffffffffffffffffffffffffffffffffffff\n      and\n        /* \"@openzeppelin/contracts/access/Ownable.sol\":2506:2531  address oldOwner = _owner */\n      swap1\n      pop\n        /* \"@openzeppelin/contracts/access/Ownable.sol\":2550:2558  newOwner */\n      dup2\n        /* \"@openzeppelin/contracts/access/Ownable.sol\":2541:2547  _owner */\n      0x01\n      0x00\n        /* \"@openzeppelin/contracts/access/Ownable.sol\":2541:2558  _owner = newOwner */\n      0x0100\n      exp\n      dup2\n      sload\n      dup2\n      0xffffffffffffffffffffffffffffffffffffffff\n      mul\n      not\n      and\n      swap1\n      dup4\n      0xffffffffffffffffffffffffffffffffffffffff\n      and\n      mul\n      or\n      swap1\n      sstore\n      pop\n        /* \"@openzeppelin/contracts/access/Ownable.sol\":2604:2612  newOwner */\n      dup2\n        /* \"@openzeppelin/contracts/access/Ownable.sol\":2573:2613  OwnershipTransferred(oldOwner, newOwner) */\n      0xffffffffffffffffffffffffffffffffffffffff\n      and\n        /* \"@openzeppelin/contracts/access/Ownable.sol\":2594:2602  oldOwner */\n      dup2\n        /* \"@openzeppelin/contracts/access/Ownable.sol\":2573:2613  OwnershipTransferred(oldOwner, newOwner) */\n      0xffffffffffffffffffffffffffffffffffffffff\n      and\n      0x8be0079c531659141344cd1fd0a4f28419497f9722a3daafe3b4186f6b6457e0\n      mload(0x40)\n      mload(0x40)\n      dup1\n      swap2\n      sub\n      swap1\n      log3\n        /* \"@openzeppelin/contracts/access/Ownable.sol\":2433:2620  function _transferOwnership(address newOwner) internal virtual {... */\n      pop\n      pop\n      jump\t// out\n        /* \"@openzeppelin/contracts/utils/Counters.sol\":945:1068  function increment(Counter storage counter) internal {... */\n    tag_126:\n        /* \"@openzeppelin/contracts/utils/Counters.sol\":1050:1051  1 */\n      0x01\n        /* \"@openzeppelin/contracts/utils/Counters.sol\":1032:1039  counter */\n      dup2\n        /* \"@openzeppelin/contracts/utils/Counters.sol\":1032:1046  counter._value */\n      0x00\n      add\n      0x00\n        /* \"@openzeppelin/contracts/utils/Counters.sol\":1032:1051  counter._value += 1 */\n      dup3\n      dup3\n      sload\n      add\n      swap3\n      pop\n      pop\n      dup2\n      swap1\n      sstore\n      pop\n        /* \"@openzeppelin/contracts/utils/Counters.sol\":945:1068  function increment(Counter storage counter) internal {... */\n      pop\n      jump\t// out\n        /* \"@openzeppelin/contracts/utils/Context.sol\":640:736  function _msgSender() internal view virtual returns (address) {... */\n    tag_180:\n        /* \"@openzeppelin/contracts/utils/Context.sol\":693:700  address */\n      0x00\n        /* \"@openzeppelin/contracts/utils/Context.sol\":719:729  msg.sender */\n      caller\n        /* \"@openzeppelin/contracts/utils/Context.sol\":712:729  return msg.sender */\n      swap1\n      pop\n        /* \"@openzeppelin/contracts/utils/Context.sol\":640:736  function _msgSender() internal view virtual returns (address) {... */\n      swap1\n      jump\t// out\n    tag_76:\n      mload(0x40)\n      dup1\n      0xe0\n      add\n      0x40\n      mstore\n      dup1\n      0x00\n      dup2\n      mstore\n      0x20\n      add\n      and(0xffffffffffffffffffffffffffffffffffffffff, 0x00)\n      dup2\n      mstore\n      0x20\n      add\n      0x00\n      dup2\n      mstore\n      0x20\n      add\n      and(0xffffffffffffffffffffffffffffffffffffffff, 0x00)\n      dup2\n      mstore\n      0x20\n      add\n      and(0xffffffffffffffffffffffffffffffffffffffff, 0x00)\n      dup2\n      mstore\n      0x20\n      add\n      0x00\n      dup2\n      mstore\n      0x20\n      add\n      iszero(iszero(0x00))\n      dup2\n      mstore\n      pop\n      swap1\n      jump\t// out\n        /* \"#utility.yul\":7:146   */\n    tag_190:\n        /* \"#utility.yul\":53:58   */\n      0x00\n        /* \"#utility.yul\":91:97   */\n      dup2\n        /* \"#utility.yul\":78:98   */\n      calldataload\n        /* \"#utility.yul\":69:98   */\n      swap1\n      pop\n        /* \"#utility.yul\":107:140   */\n      tag_192\n        /* \"#utility.yul\":134:139   */\n      dup2\n        /* \"#utility.yul\":107:140   */\n      tag_193\n      jump\t// in\n    tag_192:\n        /* \"#utility.yul\":59:146   */\n      swap3\n      swap2\n      pop\n      pop\n      jump\t// out\n        /* \"#utility.yul\":152:291   */\n    tag_194:\n        /* \"#utility.yul\":198:203   */\n      0x00\n        /* \"#utility.yul\":236:242   */\n      dup2\n        /* \"#utility.yul\":223:243   */\n      calldataload\n        /* \"#utility.yul\":214:243   */\n      swap1\n      pop\n        /* \"#utility.yul\":252:285   */\n      tag_196\n        /* \"#utility.yul\":279:284   */\n      dup2\n        /* \"#utility.yul\":252:285   */\n      tag_197\n      jump\t// in\n    tag_196:\n        /* \"#utility.yul\":204:291   */\n      swap3\n      swap2\n      pop\n      pop\n      jump\t// out\n        /* \"#utility.yul\":297:559   */\n    tag_52:\n        /* \"#utility.yul\":356:362   */\n      0x00\n        /* \"#utility.yul\":405:407   */\n      0x20\n        /* \"#utility.yul\":393:402   */\n      dup3\n        /* \"#utility.yul\":384:391   */\n      dup5\n        /* \"#utility.yul\":380:403   */\n      sub\n        /* \"#utility.yul\":376:408   */\n      slt\n        /* \"#utility.yul\":373:375   */\n      iszero\n      tag_199\n      jumpi\n        /* \"#utility.yul\":421:422   */\n      0x00\n        /* \"#utility.yul\":418:419   */\n      dup1\n        /* \"#utility.yul\":411:423   */\n      revert\n        /* \"#utility.yul\":373:375   */\n    tag_199:\n        /* \"#utility.yul\":464:465   */\n      0x00\n        /* \"#utility.yul\":489:542   */\n      tag_200\n        /* \"#utility.yul\":534:541   */\n      dup5\n        /* \"#utility.yul\":525:531   */\n      dup3\n        /* \"#utility.yul\":514:523   */\n      dup6\n        /* \"#utility.yul\":510:532   */\n      add\n        /* \"#utility.yul\":489:542   */\n      tag_190\n      jump\t// in\n    tag_200:\n        /* \"#utility.yul\":479:542   */\n      swap2\n      pop\n        /* \"#utility.yul\":435:552   */\n      pop\n        /* \"#utility.yul\":363:559   */\n      swap3\n      swap2\n      pop\n      pop\n      jump\t// out\n        /* \"#utility.yul\":565:972   */\n    tag_47:\n        /* \"#utility.yul\":633:639   */\n      0x00\n        /* \"#utility.yul\":641:647   */\n      dup1\n        /* \"#utility.yul\":690:692   */\n      0x40\n        /* \"#utility.yul\":678:687   */\n      dup4\n        /* \"#utility.yul\":669:676   */\n      dup6\n        /* \"#utility.yul\":665:688   */\n      sub\n        /* \"#utility.yul\":661:693   */\n      slt\n        /* \"#utility.yul\":658:660   */\n      iszero\n      tag_202\n      jumpi\n        /* \"#utility.yul\":706:707   */\n      0x00\n        /* \"#utility.yul\":703:704   */\n      dup1\n        /* \"#utility.yul\":696:708   */\n      revert\n        /* \"#utility.yul\":658:660   */\n    tag_202:\n        /* \"#utility.yul\":749:750   */\n      0x00\n        /* \"#utility.yul\":774:827   */\n      tag_203\n        /* \"#utility.yul\":819:826   */\n      dup6\n        /* \"#utility.yul\":810:816   */\n      dup3\n        /* \"#utility.yul\":799:808   */\n      dup7\n        /* \"#utility.yul\":795:817   */\n      add\n        /* \"#utility.yul\":774:827   */\n      tag_190\n      jump\t// in\n    tag_203:\n        /* \"#utility.yul\":764:827   */\n      swap3\n      pop\n        /* \"#utility.yul\":720:837   */\n      pop\n        /* \"#utility.yul\":876:878   */\n      0x20\n        /* \"#utility.yul\":902:955   */\n      tag_204\n        /* \"#utility.yul\":947:954   */\n      dup6\n        /* \"#utility.yul\":938:944   */\n      dup3\n        /* \"#utility.yul\":927:936   */\n      dup7\n        /* \"#utility.yul\":923:945   */\n      add\n        /* \"#utility.yul\":902:955   */\n      tag_194\n      jump\t// in\n    tag_204:\n        /* \"#utility.yul\":892:955   */\n      swap2\n      pop\n        /* \"#utility.yul\":847:965   */\n      pop\n        /* \"#utility.yul\":648:972   */\n      swap3\n      pop\n      swap3\n      swap1\n      pop\n      jump\t// out\n        /* \"#utility.yul\":978:1530   */\n    tag_34:\n        /* \"#utility.yul\":1055:1061   */\n      0x00\n        /* \"#utility.yul\":1063:1069   */\n      dup1\n        /* \"#utility.yul\":1071:1077   */\n      0x00\n        /* \"#utility.yul\":1120:1122   */\n      0x60\n        /* \"#utility.yul\":1108:1117   */\n      dup5\n        /* \"#utility.yul\":1099:1106   */\n      dup7\n        /* \"#utility.yul\":1095:1118   */\n      sub\n        /* \"#utility.yul\":1091:1123   */\n      slt\n        /* \"#utility.yul\":1088:1090   */\n      iszero\n      tag_206\n      jumpi\n        /* \"#utility.yul\":1136:1137   */\n      0x00\n        /* \"#utility.yul\":1133:1134   */\n      dup1\n        /* \"#utility.yul\":1126:1138   */\n      revert\n        /* \"#utility.yul\":1088:1090   */\n    tag_206:\n        /* \"#utility.yul\":1179:1180   */\n      0x00\n        /* \"#utility.yul\":1204:1257   */\n      tag_207\n        /* \"#utility.yul\":1249:1256   */\n      dup7\n        /* \"#utility.yul\":1240:1246   */\n      dup3\n        /* \"#utility.yul\":1229:1238   */\n      dup8\n        /* \"#utility.yul\":1225:1247   */\n      add\n        /* \"#utility.yul\":1204:1257   */\n      tag_190\n      jump\t// in\n    tag_207:\n        /* \"#utility.yul\":1194:1257   */\n      swap4\n      pop\n        /* \"#utility.yul\":1150:1267   */\n      pop\n        /* \"#utility.yul\":1306:1308   */\n      0x20\n        /* \"#utility.yul\":1332:1385   */\n      tag_208\n        /* \"#utility.yul\":1377:1384   */\n      dup7\n        /* \"#utility.yul\":1368:1374   */\n      dup3\n        /* \"#utility.yul\":1357:1366   */\n      dup8\n        /* \"#utility.yul\":1353:1375   */\n      add\n        /* \"#utility.yul\":1332:1385   */\n      tag_194\n      jump\t// in\n    tag_208:\n        /* \"#utility.yul\":1322:1385   */\n      swap3\n      pop\n        /* \"#utility.yul\":1277:1395   */\n      pop\n        /* \"#utility.yul\":1434:1436   */\n      0x40\n        /* \"#utility.yul\":1460:1513   */\n      tag_209\n        /* \"#utility.yul\":1505:1512   */\n      dup7\n        /* \"#utility.yul\":1496:1502   */\n      dup3\n        /* \"#utility.yul\":1485:1494   */\n      dup8\n        /* \"#utility.yul\":1481:1503   */\n      add\n        /* \"#utility.yul\":1460:1513   */\n      tag_194\n      jump\t// in\n    tag_209:\n        /* \"#utility.yul\":1450:1513   */\n      swap2\n      pop\n        /* \"#utility.yul\":1405:1523   */\n      pop\n        /* \"#utility.yul\":1078:1530   */\n      swap3\n      pop\n      swap3\n      pop\n      swap3\n      jump\t// out\n        /* \"#utility.yul\":1536:1823   */\n    tag_210:\n        /* \"#utility.yul\":1659:1669   */\n      0x00\n        /* \"#utility.yul\":1680:1780   */\n      tag_212\n        /* \"#utility.yul\":1776:1779   */\n      dup4\n        /* \"#utility.yul\":1768:1774   */\n      dup4\n        /* \"#utility.yul\":1680:1780   */\n      tag_213\n      jump\t// in\n    tag_212:\n        /* \"#utility.yul\":1812:1816   */\n      0xe0\n        /* \"#utility.yul\":1807:1810   */\n      dup4\n        /* \"#utility.yul\":1803:1817   */\n      add\n        /* \"#utility.yul\":1789:1817   */\n      swap1\n      pop\n        /* \"#utility.yul\":1670:1823   */\n      swap3\n      swap2\n      pop\n      pop\n      jump\t// out\n        /* \"#utility.yul\":1829:1961   */\n    tag_214:\n        /* \"#utility.yul\":1922:1954   */\n      tag_216\n        /* \"#utility.yul\":1948:1953   */\n      dup2\n        /* \"#utility.yul\":1922:1954   */\n      tag_217\n      jump\t// in\n    tag_216:\n        /* \"#utility.yul\":1917:1920   */\n      dup3\n        /* \"#utility.yul\":1910:1955   */\n      mstore\n        /* \"#utility.yul\":1900:1961   */\n      pop\n      pop\n      jump\t// out\n        /* \"#utility.yul\":1967:2075   */\n    tag_218:\n        /* \"#utility.yul\":2044:2068   */\n      tag_220\n        /* \"#utility.yul\":2062:2067   */\n      dup2\n        /* \"#utility.yul\":2044:2068   */\n      tag_221\n      jump\t// in\n    tag_220:\n        /* \"#utility.yul\":2039:2042   */\n      dup3\n        /* \"#utility.yul\":2032:2069   */\n      mstore\n        /* \"#utility.yul\":2022:2075   */\n      pop\n      pop\n      jump\t// out\n        /* \"#utility.yul\":2081:2199   */\n    tag_222:\n        /* \"#utility.yul\":2168:2192   */\n      tag_224\n        /* \"#utility.yul\":2186:2191   */\n      dup2\n        /* \"#utility.yul\":2168:2192   */\n      tag_221\n      jump\t// in\n    tag_224:\n        /* \"#utility.yul\":2163:2166   */\n      dup3\n        /* \"#utility.yul\":2156:2193   */\n      mstore\n        /* \"#utility.yul\":2146:2199   */\n      pop\n      pop\n      jump\t// out\n        /* \"#utility.yul\":2273:3221   */\n    tag_225:\n        /* \"#utility.yul\":2446:2449   */\n      0x00\n        /* \"#utility.yul\":2475:2556   */\n      tag_227\n        /* \"#utility.yul\":2550:2555   */\n      dup3\n        /* \"#utility.yul\":2475:2556   */\n      tag_228\n      jump\t// in\n    tag_227:\n        /* \"#utility.yul\":2572:2685   */\n      tag_229\n        /* \"#utility.yul\":2678:2684   */\n      dup2\n        /* \"#utility.yul\":2673:2676   */\n      dup6\n        /* \"#utility.yul\":2572:2685   */\n      tag_230\n      jump\t// in\n    tag_229:\n        /* \"#utility.yul\":2565:2685   */\n      swap4\n      pop\n        /* \"#utility.yul\":2709:2792   */\n      tag_231\n        /* \"#utility.yul\":2786:2791   */\n      dup4\n        /* \"#utility.yul\":2709:2792   */\n      tag_232\n      jump\t// in\n    tag_231:\n        /* \"#utility.yul\":2815:2822   */\n      dup1\n        /* \"#utility.yul\":2846:2847   */\n      0x00\n        /* \"#utility.yul\":2831:3196   */\n    tag_233:\n        /* \"#utility.yul\":2856:2862   */\n      dup4\n        /* \"#utility.yul\":2853:2854   */\n      dup2\n        /* \"#utility.yul\":2850:2863   */\n      lt\n        /* \"#utility.yul\":2831:3196   */\n      iszero\n      tag_235\n      jumpi\n        /* \"#utility.yul\":2932:2938   */\n      dup2\n        /* \"#utility.yul\":2926:2939   */\n      mload\n        /* \"#utility.yul\":2959:3076   */\n      tag_236\n        /* \"#utility.yul\":3072:3075   */\n      dup9\n        /* \"#utility.yul\":3057:3070   */\n      dup3\n        /* \"#utility.yul\":2959:3076   */\n      tag_210\n      jump\t// in\n    tag_236:\n        /* \"#utility.yul\":2952:3076   */\n      swap8\n      pop\n        /* \"#utility.yul\":3099:3186   */\n      tag_237\n        /* \"#utility.yul\":3179:3185   */\n      dup4\n        /* \"#utility.yul\":3099:3186   */\n      tag_238\n      jump\t// in\n    tag_237:\n        /* \"#utility.yul\":3089:3186   */\n      swap3\n      pop\n        /* \"#utility.yul\":2891:3196   */\n      pop\n        /* \"#utility.yul\":2878:2879   */\n      0x01\n        /* \"#utility.yul\":2875:2876   */\n      dup2\n        /* \"#utility.yul\":2871:2880   */\n      add\n        /* \"#utility.yul\":2866:2880   */\n      swap1\n      pop\n        /* \"#utility.yul\":2831:3196   */\n      jump(tag_233)\n    tag_235:\n        /* \"#utility.yul\":2835:2849   */\n      pop\n        /* \"#utility.yul\":3212:3215   */\n      dup6\n        /* \"#utility.yul\":3205:3215   */\n      swap4\n      pop\n        /* \"#utility.yul\":2451:3221   */\n      pop\n      pop\n      pop\n      swap3\n      swap2\n      pop\n      pop\n      jump\t// out\n        /* \"#utility.yul\":3227:3326   */\n    tag_239:\n        /* \"#utility.yul\":3298:3319   */\n      tag_241\n        /* \"#utility.yul\":3313:3318   */\n      dup2\n        /* \"#utility.yul\":3298:3319   */\n      tag_242\n      jump\t// in\n    tag_241:\n        /* \"#utility.yul\":3293:3296   */\n      dup3\n        /* \"#utility.yul\":3286:3320   */\n      mstore\n        /* \"#utility.yul\":3276:3326   */\n      pop\n      pop\n      jump\t// out\n        /* \"#utility.yul\":3332:3441   */\n    tag_243:\n        /* \"#utility.yul\":3413:3434   */\n      tag_245\n        /* \"#utility.yul\":3428:3433   */\n      dup2\n        /* \"#utility.yul\":3413:3434   */\n      tag_242\n      jump\t// in\n    tag_245:\n        /* \"#utility.yul\":3408:3411   */\n      dup3\n        /* \"#utility.yul\":3401:3435   */\n      mstore\n        /* \"#utility.yul\":3391:3441   */\n      pop\n      pop\n      jump\t// out\n        /* \"#utility.yul\":3447:3813   */\n    tag_246:\n        /* \"#utility.yul\":3589:3592   */\n      0x00\n        /* \"#utility.yul\":3610:3677   */\n      tag_248\n        /* \"#utility.yul\":3674:3676   */\n      0x2a\n        /* \"#utility.yul\":3669:3672   */\n      dup4\n        /* \"#utility.yul\":3610:3677   */\n      tag_249\n      jump\t// in\n    tag_248:\n        /* \"#utility.yul\":3603:3677   */\n      swap2\n      pop\n        /* \"#utility.yul\":3686:3779   */\n      tag_250\n        /* \"#utility.yul\":3775:3778   */\n      dup3\n        /* \"#utility.yul\":3686:3779   */\n      tag_251\n      jump\t// in\n    tag_250:\n        /* \"#utility.yul\":3804:3806   */\n      0x40\n        /* \"#utility.yul\":3799:3802   */\n      dup3\n        /* \"#utility.yul\":3795:3807   */\n      add\n        /* \"#utility.yul\":3788:3807   */\n      swap1\n      pop\n        /* \"#utility.yul\":3593:3813   */\n      swap2\n      swap1\n      pop\n      jump\t// out\n        /* \"#utility.yul\":3819:4185   */\n    tag_252:\n        /* \"#utility.yul\":3961:3964   */\n      0x00\n        /* \"#utility.yul\":3982:4049   */\n      tag_254\n        /* \"#utility.yul\":4046:4048   */\n      0x26\n        /* \"#utility.yul\":4041:4044   */\n      dup4\n        /* \"#utility.yul\":3982:4049   */\n      tag_249\n      jump\t// in\n    tag_254:\n        /* \"#utility.yul\":3975:4049   */\n      swap2\n      pop\n        /* \"#utility.yul\":4058:4151   */\n      tag_255\n        /* \"#utility.yul\":4147:4150   */\n      dup3\n        /* \"#utility.yul\":4058:4151   */\n      tag_256\n      jump\t// in\n    tag_255:\n        /* \"#utility.yul\":4176:4178   */\n      0x40\n        /* \"#utility.yul\":4171:4174   */\n      dup3\n        /* \"#utility.yul\":4167:4179   */\n      add\n        /* \"#utility.yul\":4160:4179   */\n      swap1\n      pop\n        /* \"#utility.yul\":3965:4185   */\n      swap2\n      swap1\n      pop\n      jump\t// out\n        /* \"#utility.yul\":4191:4557   */\n    tag_257:\n        /* \"#utility.yul\":4333:4336   */\n      0x00\n        /* \"#utility.yul\":4354:4421   */\n      tag_259\n        /* \"#utility.yul\":4418:4420   */\n      0x14\n        /* \"#utility.yul\":4413:4416   */\n      dup4\n        /* \"#utility.yul\":4354:4421   */\n      tag_249\n      jump\t// in\n    tag_259:\n        /* \"#utility.yul\":4347:4421   */\n      swap2\n      pop\n        /* \"#utility.yul\":4430:4523   */\n      tag_260\n        /* \"#utility.yul\":4519:4522   */\n      dup3\n        /* \"#utility.yul\":4430:4523   */\n      tag_261\n      jump\t// in\n    tag_260:\n        /* \"#utility.yul\":4548:4550   */\n      0x20\n        /* \"#utility.yul\":4543:4546   */\n      dup3\n        /* \"#utility.yul\":4539:4551   */\n      add\n        /* \"#utility.yul\":4532:4551   */\n      swap1\n      pop\n        /* \"#utility.yul\":4337:4557   */\n      swap2\n      swap1\n      pop\n      jump\t// out\n        /* \"#utility.yul\":4563:4929   */\n    tag_262:\n        /* \"#utility.yul\":4705:4708   */\n      0x00\n        /* \"#utility.yul\":4726:4793   */\n      tag_264\n        /* \"#utility.yul\":4790:4792   */\n      0x20\n        /* \"#utility.yul\":4785:4788   */\n      dup4\n        /* \"#utility.yul\":4726:4793   */\n      tag_249\n      jump\t// in\n    tag_264:\n        /* \"#utility.yul\":4719:4793   */\n      swap2\n      pop\n        /* \"#utility.yul\":4802:4895   */\n      tag_265\n        /* \"#utility.yul\":4891:4894   */\n      dup3\n        /* \"#utility.yul\":4802:4895   */\n      tag_266\n      jump\t// in\n    tag_265:\n        /* \"#utility.yul\":4920:4922   */\n      0x20\n        /* \"#utility.yul\":4915:4918   */\n      dup3\n        /* \"#utility.yul\":4911:4923   */\n      add\n        /* \"#utility.yul\":4904:4923   */\n      swap1\n      pop\n        /* \"#utility.yul\":4709:4929   */\n      swap2\n      swap1\n      pop\n      jump\t// out\n        /* \"#utility.yul\":4935:5301   */\n    tag_267:\n        /* \"#utility.yul\":5077:5080   */\n      0x00\n        /* \"#utility.yul\":5098:5165   */\n      tag_269\n        /* \"#utility.yul\":5162:5164   */\n      0x1f\n        /* \"#utility.yul\":5157:5160   */\n      dup4\n        /* \"#utility.yul\":5098:5165   */\n      tag_249\n      jump\t// in\n    tag_269:\n        /* \"#utility.yul\":5091:5165   */\n      swap2\n      pop\n        /* \"#utility.yul\":5174:5267   */\n      tag_270\n        /* \"#utility.yul\":5263:5266   */\n      dup3\n        /* \"#utility.yul\":5174:5267   */\n      tag_271\n      jump\t// in\n    tag_270:\n        /* \"#utility.yul\":5292:5294   */\n      0x20\n        /* \"#utility.yul\":5287:5290   */\n      dup3\n        /* \"#utility.yul\":5283:5295   */\n      add\n        /* \"#utility.yul\":5276:5295   */\n      swap1\n      pop\n        /* \"#utility.yul\":5081:5301   */\n      swap2\n      swap1\n      pop\n      jump\t// out\n        /* \"#utility.yul\":5307:5673   */\n    tag_272:\n        /* \"#utility.yul\":5449:5452   */\n      0x00\n        /* \"#utility.yul\":5470:5537   */\n      tag_274\n        /* \"#utility.yul\":5534:5536   */\n      0x1b\n        /* \"#utility.yul\":5529:5532   */\n      dup4\n        /* \"#utility.yul\":5470:5537   */\n      tag_249\n      jump\t// in\n    tag_274:\n        /* \"#utility.yul\":5463:5537   */\n      swap2\n      pop\n        /* \"#utility.yul\":5546:5639   */\n      tag_275\n        /* \"#utility.yul\":5635:5638   */\n      dup3\n        /* \"#utility.yul\":5546:5639   */\n      tag_276\n      jump\t// in\n    tag_275:\n        /* \"#utility.yul\":5664:5666   */\n      0x20\n        /* \"#utility.yul\":5659:5662   */\n      dup3\n        /* \"#utility.yul\":5655:5667   */\n      add\n        /* \"#utility.yul\":5648:5667   */\n      swap1\n      pop\n        /* \"#utility.yul\":5453:5673   */\n      swap2\n      swap1\n      pop\n      jump\t// out\n        /* \"#utility.yul\":5743:7157   */\n    tag_213:\n        /* \"#utility.yul\":5884:5888   */\n      0xe0\n        /* \"#utility.yul\":5879:5882   */\n      dup3\n        /* \"#utility.yul\":5875:5889   */\n      add\n        /* \"#utility.yul\":5973:5977   */\n      0x00\n        /* \"#utility.yul\":5966:5971   */\n      dup3\n        /* \"#utility.yul\":5962:5978   */\n      add\n        /* \"#utility.yul\":5956:5979   */\n      mload\n        /* \"#utility.yul\":5992:6055   */\n      tag_278\n        /* \"#utility.yul\":6049:6053   */\n      0x00\n        /* \"#utility.yul\":6044:6047   */\n      dup6\n        /* \"#utility.yul\":6040:6054   */\n      add\n        /* \"#utility.yul\":6026:6038   */\n      dup3\n        /* \"#utility.yul\":5992:6055   */\n      tag_279\n      jump\t// in\n    tag_278:\n        /* \"#utility.yul\":5899:6065   */\n      pop\n        /* \"#utility.yul\":6154:6158   */\n      0x20\n        /* \"#utility.yul\":6147:6152   */\n      dup3\n        /* \"#utility.yul\":6143:6159   */\n      add\n        /* \"#utility.yul\":6137:6160   */\n      mload\n        /* \"#utility.yul\":6173:6236   */\n      tag_280\n        /* \"#utility.yul\":6230:6234   */\n      0x20\n        /* \"#utility.yul\":6225:6228   */\n      dup6\n        /* \"#utility.yul\":6221:6235   */\n      add\n        /* \"#utility.yul\":6207:6219   */\n      dup3\n        /* \"#utility.yul\":6173:6236   */\n      tag_218\n      jump\t// in\n    tag_280:\n        /* \"#utility.yul\":6075:6246   */\n      pop\n        /* \"#utility.yul\":6331:6335   */\n      0x40\n        /* \"#utility.yul\":6324:6329   */\n      dup3\n        /* \"#utility.yul\":6320:6336   */\n      add\n        /* \"#utility.yul\":6314:6337   */\n      mload\n        /* \"#utility.yul\":6350:6413   */\n      tag_281\n        /* \"#utility.yul\":6407:6411   */\n      0x40\n        /* \"#utility.yul\":6402:6405   */\n      dup6\n        /* \"#utility.yul\":6398:6412   */\n      add\n        /* \"#utility.yul\":6384:6396   */\n      dup3\n        /* \"#utility.yul\":6350:6413   */\n      tag_279\n      jump\t// in\n    tag_281:\n        /* \"#utility.yul\":6256:6423   */\n      pop\n        /* \"#utility.yul\":6507:6511   */\n      0x60\n        /* \"#utility.yul\":6500:6505   */\n      dup3\n        /* \"#utility.yul\":6496:6512   */\n      add\n        /* \"#utility.yul\":6490:6513   */\n      mload\n        /* \"#utility.yul\":6526:6605   */\n      tag_282\n        /* \"#utility.yul\":6599:6603   */\n      0x60\n        /* \"#utility.yul\":6594:6597   */\n      dup6\n        /* \"#utility.yul\":6590:6604   */\n      add\n        /* \"#utility.yul\":6576:6588   */\n      dup3\n        /* \"#utility.yul\":6526:6605   */\n      tag_214\n      jump\t// in\n    tag_282:\n        /* \"#utility.yul\":6433:6615   */\n      pop\n        /* \"#utility.yul\":6699:6703   */\n      0x80\n        /* \"#utility.yul\":6692:6697   */\n      dup3\n        /* \"#utility.yul\":6688:6704   */\n      add\n        /* \"#utility.yul\":6682:6705   */\n      mload\n        /* \"#utility.yul\":6718:6797   */\n      tag_283\n        /* \"#utility.yul\":6791:6795   */\n      0x80\n        /* \"#utility.yul\":6786:6789   */\n      dup6\n        /* \"#utility.yul\":6782:6796   */\n      add\n        /* \"#utility.yul\":6768:6780   */\n      dup3\n        /* \"#utility.yul\":6718:6797   */\n      tag_214\n      jump\t// in\n    tag_283:\n        /* \"#utility.yul\":6625:6807   */\n      pop\n        /* \"#utility.yul\":6890:6894   */\n      0xa0\n        /* \"#utility.yul\":6883:6888   */\n      dup3\n        /* \"#utility.yul\":6879:6895   */\n      add\n        /* \"#utility.yul\":6873:6896   */\n      mload\n        /* \"#utility.yul\":6909:6972   */\n      tag_284\n        /* \"#utility.yul\":6966:6970   */\n      0xa0\n        /* \"#utility.yul\":6961:6964   */\n      dup6\n        /* \"#utility.yul\":6957:6971   */\n      add\n        /* \"#utility.yul\":6943:6955   */\n      dup3\n        /* \"#utility.yul\":6909:6972   */\n      tag_279\n      jump\t// in\n    tag_284:\n        /* \"#utility.yul\":6817:6982   */\n      pop\n        /* \"#utility.yul\":7064:7068   */\n      0xc0\n        /* \"#utility.yul\":7057:7062   */\n      dup3\n        /* \"#utility.yul\":7053:7069   */\n      add\n        /* \"#utility.yul\":7047:7070   */\n      mload\n        /* \"#utility.yul\":7083:7140   */\n      tag_285\n        /* \"#utility.yul\":7134:7138   */\n      0xc0\n        /* \"#utility.yul\":7129:7132   */\n      dup6\n        /* \"#utility.yul\":7125:7139   */\n      add\n        /* \"#utility.yul\":7111:7123   */\n      dup3\n        /* \"#utility.yul\":7083:7140   */\n      tag_239\n      jump\t// in\n    tag_285:\n        /* \"#utility.yul\":6992:7150   */\n      pop\n        /* \"#utility.yul\":5853:7157   */\n      pop\n      pop\n      pop\n      jump\t// out\n        /* \"#utility.yul\":7163:7271   */\n    tag_279:\n        /* \"#utility.yul\":7240:7264   */\n      tag_287\n        /* \"#utility.yul\":7258:7263   */\n      dup2\n        /* \"#utility.yul\":7240:7264   */\n      tag_288\n      jump\t// in\n    tag_287:\n        /* \"#utility.yul\":7235:7238   */\n      dup3\n        /* \"#utility.yul\":7228:7265   */\n      mstore\n        /* \"#utility.yul\":7218:7271   */\n      pop\n      pop\n      jump\t// out\n        /* \"#utility.yul\":7277:7395   */\n    tag_289:\n        /* \"#utility.yul\":7364:7388   */\n      tag_291\n        /* \"#utility.yul\":7382:7387   */\n      dup2\n        /* \"#utility.yul\":7364:7388   */\n      tag_288\n      jump\t// in\n    tag_291:\n        /* \"#utility.yul\":7359:7362   */\n      dup3\n        /* \"#utility.yul\":7352:7389   */\n      mstore\n        /* \"#utility.yul\":7342:7395   */\n      pop\n      pop\n      jump\t// out\n        /* \"#utility.yul\":7401:7623   */\n    tag_27:\n        /* \"#utility.yul\":7494:7498   */\n      0x00\n        /* \"#utility.yul\":7532:7534   */\n      0x20\n        /* \"#utility.yul\":7521:7530   */\n      dup3\n        /* \"#utility.yul\":7517:7535   */\n      add\n        /* \"#utility.yul\":7509:7535   */\n      swap1\n      pop\n        /* \"#utility.yul\":7545:7616   */\n      tag_293\n        /* \"#utility.yul\":7613:7614   */\n      0x00\n        /* \"#utility.yul\":7602:7611   */\n      dup4\n        /* \"#utility.yul\":7598:7615   */\n      add\n        /* \"#utility.yul\":7589:7595   */\n      dup5\n        /* \"#utility.yul\":7545:7616   */\n      tag_222\n      jump\t// in\n    tag_293:\n        /* \"#utility.yul\":7499:7623   */\n      swap3\n      swap2\n      pop\n      pop\n      jump\t// out\n        /* \"#utility.yul\":7629:8071   */\n    tag_129:\n        /* \"#utility.yul\":7778:7782   */\n      0x00\n        /* \"#utility.yul\":7816:7818   */\n      0x60\n        /* \"#utility.yul\":7805:7814   */\n      dup3\n        /* \"#utility.yul\":7801:7819   */\n      add\n        /* \"#utility.yul\":7793:7819   */\n      swap1\n      pop\n        /* \"#utility.yul\":7829:7900   */\n      tag_295\n        /* \"#utility.yul\":7897:7898   */\n      0x00\n        /* \"#utility.yul\":7886:7895   */\n      dup4\n        /* \"#utility.yul\":7882:7899   */\n      add\n        /* \"#utility.yul\":7873:7879   */\n      dup7\n        /* \"#utility.yul\":7829:7900   */\n      tag_222\n      jump\t// in\n    tag_295:\n        /* \"#utility.yul\":7910:7982   */\n      tag_296\n        /* \"#utility.yul\":7978:7980   */\n      0x20\n        /* \"#utility.yul\":7967:7976   */\n      dup4\n        /* \"#utility.yul\":7963:7981   */\n      add\n        /* \"#utility.yul\":7954:7960   */\n      dup6\n        /* \"#utility.yul\":7910:7982   */\n      tag_222\n      jump\t// in\n    tag_296:\n        /* \"#utility.yul\":7992:8064   */\n      tag_297\n        /* \"#utility.yul\":8060:8062   */\n      0x40\n        /* \"#utility.yul\":8049:8058   */\n      dup4\n        /* \"#utility.yul\":8045:8063   */\n      add\n        /* \"#utility.yul\":8036:8042   */\n      dup5\n        /* \"#utility.yul\":7992:8064   */\n      tag_289\n      jump\t// in\n    tag_297:\n        /* \"#utility.yul\":7783:8071   */\n      swap5\n      swap4\n      pop\n      pop\n      pop\n      pop\n      jump\t// out\n        /* \"#utility.yul\":8077:8618   */\n    tag_134:\n        /* \"#utility.yul\":8248:8252   */\n      0x00\n        /* \"#utility.yul\":8286:8289   */\n      0x80\n        /* \"#utility.yul\":8275:8284   */\n      dup3\n        /* \"#utility.yul\":8271:8290   */\n      add\n        /* \"#utility.yul\":8263:8290   */\n      swap1\n      pop\n        /* \"#utility.yul\":8300:8371   */\n      tag_299\n        /* \"#utility.yul\":8368:8369   */\n      0x00\n        /* \"#utility.yul\":8357:8366   */\n      dup4\n        /* \"#utility.yul\":8353:8370   */\n      add\n        /* \"#utility.yul\":8344:8350   */\n      dup8\n        /* \"#utility.yul\":8300:8371   */\n      tag_222\n      jump\t// in\n    tag_299:\n        /* \"#utility.yul\":8381:8453   */\n      tag_300\n        /* \"#utility.yul\":8449:8451   */\n      0x20\n        /* \"#utility.yul\":8438:8447   */\n      dup4\n        /* \"#utility.yul\":8434:8452   */\n      add\n        /* \"#utility.yul\":8425:8431   */\n      dup7\n        /* \"#utility.yul\":8381:8453   */\n      tag_222\n      jump\t// in\n    tag_300:\n        /* \"#utility.yul\":8463:8535   */\n      tag_301\n        /* \"#utility.yul\":8531:8533   */\n      0x40\n        /* \"#utility.yul\":8520:8529   */\n      dup4\n        /* \"#utility.yul\":8516:8534   */\n      add\n        /* \"#utility.yul\":8507:8513   */\n      dup6\n        /* \"#utility.yul\":8463:8535   */\n      tag_289\n      jump\t// in\n    tag_301:\n        /* \"#utility.yul\":8545:8611   */\n      tag_302\n        /* \"#utility.yul\":8607:8609   */\n      0x60\n        /* \"#utility.yul\":8596:8605   */\n      dup4\n        /* \"#utility.yul\":8592:8610   */\n      add\n        /* \"#utility.yul\":8583:8589   */\n      dup5\n        /* \"#utility.yul\":8545:8611   */\n      tag_243\n      jump\t// in\n    tag_302:\n        /* \"#utility.yul\":8253:8618   */\n      swap6\n      swap5\n      pop\n      pop\n      pop\n      pop\n      pop\n      jump\t// out\n        /* \"#utility.yul\":8624:9105   */\n    tag_19:\n        /* \"#utility.yul\":8821:8825   */\n      0x00\n        /* \"#utility.yul\":8859:8861   */\n      0x20\n        /* \"#utility.yul\":8848:8857   */\n      dup3\n        /* \"#utility.yul\":8844:8862   */\n      add\n        /* \"#utility.yul\":8836:8862   */\n      swap1\n      pop\n        /* \"#utility.yul\":8908:8917   */\n      dup2\n        /* \"#utility.yul\":8902:8906   */\n      dup2\n        /* \"#utility.yul\":8898:8918   */\n      sub\n        /* \"#utility.yul\":8894:8895   */\n      0x00\n        /* \"#utility.yul\":8883:8892   */\n      dup4\n        /* \"#utility.yul\":8879:8896   */\n      add\n        /* \"#utility.yul\":8872:8919   */\n      mstore\n        /* \"#utility.yul\":8936:9098   */\n      tag_304\n        /* \"#utility.yul\":9093:9097   */\n      dup2\n        /* \"#utility.yul\":9084:9090   */\n      dup5\n        /* \"#utility.yul\":8936:9098   */\n      tag_225\n      jump\t// in\n    tag_304:\n        /* \"#utility.yul\":8928:9098   */\n      swap1\n      pop\n        /* \"#utility.yul\":8826:9105   */\n      swap3\n      swap2\n      pop\n      pop\n      jump\t// out\n        /* \"#utility.yul\":9111:9530   */\n    tag_161:\n        /* \"#utility.yul\":9277:9281   */\n      0x00\n        /* \"#utility.yul\":9315:9317   */\n      0x20\n        /* \"#utility.yul\":9304:9313   */\n      dup3\n        /* \"#utility.yul\":9300:9318   */\n      add\n        /* \"#utility.yul\":9292:9318   */\n      swap1\n      pop\n        /* \"#utility.yul\":9364:9373   */\n      dup2\n        /* \"#utility.yul\":9358:9362   */\n      dup2\n        /* \"#utility.yul\":9354:9374   */\n      sub\n        /* \"#utility.yul\":9350:9351   */\n      0x00\n        /* \"#utility.yul\":9339:9348   */\n      dup4\n        /* \"#utility.yul\":9335:9352   */\n      add\n        /* \"#utility.yul\":9328:9375   */\n      mstore\n        /* \"#utility.yul\":9392:9523   */\n      tag_306\n        /* \"#utility.yul\":9518:9522   */\n      dup2\n        /* \"#utility.yul\":9392:9523   */\n      tag_246\n      jump\t// in\n    tag_306:\n        /* \"#utility.yul\":9384:9523   */\n      swap1\n      pop\n        /* \"#utility.yul\":9282:9530   */\n      swap2\n      swap1\n      pop\n      jump\t// out\n        /* \"#utility.yul\":9536:9955   */\n    tag_176:\n        /* \"#utility.yul\":9702:9706   */\n      0x00\n        /* \"#utility.yul\":9740:9742   */\n      0x20\n        /* \"#utility.yul\":9729:9738   */\n      dup3\n        /* \"#utility.yul\":9725:9743   */\n      add\n        /* \"#utility.yul\":9717:9743   */\n      swap1\n      pop\n        /* \"#utility.yul\":9789:9798   */\n      dup2\n        /* \"#utility.yul\":9783:9787   */\n      dup2\n        /* \"#utility.yul\":9779:9799   */\n      sub\n        /* \"#utility.yul\":9775:9776   */\n      0x00\n        /* \"#utility.yul\":9764:9773   */\n      dup4\n        /* \"#utility.yul\":9760:9777   */\n      add\n        /* \"#utility.yul\":9753:9800   */\n      mstore\n        /* \"#utility.yul\":9817:9948   */\n      tag_308\n        /* \"#utility.yul\":9943:9947   */\n      dup2\n        /* \"#utility.yul\":9817:9948   */\n      tag_252\n      jump\t// in\n    tag_308:\n        /* \"#utility.yul\":9809:9948   */\n      swap1\n      pop\n        /* \"#utility.yul\":9707:9955   */\n      swap2\n      swap1\n      pop\n      jump\t// out\n        /* \"#utility.yul\":9961:10380   */\n    tag_121:\n        /* \"#utility.yul\":10127:10131   */\n      0x00\n        /* \"#utility.yul\":10165:10167   */\n      0x20\n        /* \"#utility.yul\":10154:10163   */\n      dup3\n        /* \"#utility.yul\":10150:10168   */\n      add\n        /* \"#utility.yul\":10142:10168   */\n      swap1\n      pop\n        /* \"#utility.yul\":10214:10223   */\n      dup2\n        /* \"#utility.yul\":10208:10212   */\n      dup2\n        /* \"#utility.yul\":10204:10224   */\n      sub\n        /* \"#utility.yul\":10200:10201   */\n      0x00\n        /* \"#utility.yul\":10189:10198   */\n      dup4\n        /* \"#utility.yul\":10185:10202   */\n      add\n        /* \"#utility.yul\":10178:10225   */\n      mstore\n        /* \"#utility.yul\":10242:10373   */\n      tag_310\n        /* \"#utility.yul\":10368:10372   */\n      dup2\n        /* \"#utility.yul\":10242:10373   */\n      tag_257\n      jump\t// in\n    tag_310:\n        /* \"#utility.yul\":10234:10373   */\n      swap1\n      pop\n        /* \"#utility.yul\":10132:10380   */\n      swap2\n      swap1\n      pop\n      jump\t// out\n        /* \"#utility.yul\":10386:10805   */\n    tag_184:\n        /* \"#utility.yul\":10552:10556   */\n      0x00\n        /* \"#utility.yul\":10590:10592   */\n      0x20\n        /* \"#utility.yul\":10579:10588   */\n      dup3\n        /* \"#utility.yul\":10575:10593   */\n      add\n        /* \"#utility.yul\":10567:10593   */\n      swap1\n      pop\n        /* \"#utility.yul\":10639:10648   */\n      dup2\n        /* \"#utility.yul\":10633:10637   */\n      dup2\n        /* \"#utility.yul\":10629:10649   */\n      sub\n        /* \"#utility.yul\":10625:10626   */\n      0x00\n        /* \"#utility.yul\":10614:10623   */\n      dup4\n        /* \"#utility.yul\":10610:10627   */\n      add\n        /* \"#utility.yul\":10603:10650   */\n      mstore\n        /* \"#utility.yul\":10667:10798   */\n      tag_312\n        /* \"#utility.yul\":10793:10797   */\n      dup2\n        /* \"#utility.yul\":10667:10798   */\n      tag_262\n      jump\t// in\n    tag_312:\n        /* \"#utility.yul\":10659:10798   */\n      swap1\n      pop\n        /* \"#utility.yul\":10557:10805   */\n      swap2\n      swap1\n      pop\n      jump\t// out\n        /* \"#utility.yul\":10811:11230   */\n    tag_117:\n        /* \"#utility.yul\":10977:10981   */\n      0x00\n        /* \"#utility.yul\":11015:11017   */\n      0x20\n        /* \"#utility.yul\":11004:11013   */\n      dup3\n        /* \"#utility.yul\":11000:11018   */\n      add\n        /* \"#utility.yul\":10992:11018   */\n      swap1\n      pop\n        /* \"#utility.yul\":11064:11073   */\n      dup2\n        /* \"#utility.yul\":11058:11062   */\n      dup2\n        /* \"#utility.yul\":11054:11074   */\n      sub\n        /* \"#utility.yul\":11050:11051   */\n      0x00\n        /* \"#utility.yul\":11039:11048   */\n      dup4\n        /* \"#utility.yul\":11035:11052   */\n      add\n        /* \"#utility.yul\":11028:11075   */\n      mstore\n        /* \"#utility.yul\":11092:11223   */\n      tag_314\n        /* \"#utility.yul\":11218:11222   */\n      dup2\n        /* \"#utility.yul\":11092:11223   */\n      tag_267\n      jump\t// in\n    tag_314:\n        /* \"#utility.yul\":11084:11223   */\n      swap1\n      pop\n        /* \"#utility.yul\":10982:11230   */\n      swap2\n      swap1\n      pop\n      jump\t// out\n        /* \"#utility.yul\":11236:11655   */\n    tag_124:\n        /* \"#utility.yul\":11402:11406   */\n      0x00\n        /* \"#utility.yul\":11440:11442   */\n      0x20\n        /* \"#utility.yul\":11429:11438   */\n      dup3\n        /* \"#utility.yul\":11425:11443   */\n      add\n        /* \"#utility.yul\":11417:11443   */\n      swap1\n      pop\n        /* \"#utility.yul\":11489:11498   */\n      dup2\n        /* \"#utility.yul\":11483:11487   */\n      dup2\n        /* \"#utility.yul\":11479:11499   */\n      sub\n        /* \"#utility.yul\":11475:11476   */\n      0x00\n        /* \"#utility.yul\":11464:11473   */\n      dup4\n        /* \"#utility.yul\":11460:11477   */\n      add\n        /* \"#utility.yul\":11453:11500   */\n      mstore\n        /* \"#utility.yul\":11517:11648   */\n      tag_316\n        /* \"#utility.yul\":11643:11647   */\n      dup2\n        /* \"#utility.yul\":11517:11648   */\n      tag_272\n      jump\t// in\n    tag_316:\n        /* \"#utility.yul\":11509:11648   */\n      swap1\n      pop\n        /* \"#utility.yul\":11407:11655   */\n      swap2\n      swap1\n      pop\n      jump\t// out\n        /* \"#utility.yul\":11661:11883   */\n    tag_40:\n        /* \"#utility.yul\":11754:11758   */\n      0x00\n        /* \"#utility.yul\":11792:11794   */\n      0x20\n        /* \"#utility.yul\":11781:11790   */\n      dup3\n        /* \"#utility.yul\":11777:11795   */\n      add\n        /* \"#utility.yul\":11769:11795   */\n      swap1\n      pop\n        /* \"#utility.yul\":11805:11876   */\n      tag_318\n        /* \"#utility.yul\":11873:11874   */\n      0x00\n        /* \"#utility.yul\":11862:11871   */\n      dup4\n        /* \"#utility.yul\":11858:11875   */\n      add\n        /* \"#utility.yul\":11849:11855   */\n      dup5\n        /* \"#utility.yul\":11805:11876   */\n      tag_289\n      jump\t// in\n    tag_318:\n        /* \"#utility.yul\":11759:11883   */\n      swap3\n      swap2\n      pop\n      pop\n      jump\t// out\n        /* \"#utility.yul\":11889:12048   */\n    tag_232:\n        /* \"#utility.yul\":11983:11987   */\n      0x00\n        /* \"#utility.yul\":12006:12009   */\n      dup2\n        /* \"#utility.yul\":11998:12009   */\n      swap1\n      pop\n        /* \"#utility.yul\":12036:12040   */\n      0x20\n        /* \"#utility.yul\":12031:12034   */\n      dup3\n        /* \"#utility.yul\":12027:12041   */\n      add\n        /* \"#utility.yul\":12019:12041   */\n      swap1\n      pop\n        /* \"#utility.yul\":11988:12048   */\n      swap2\n      swap1\n      pop\n      jump\t// out\n        /* \"#utility.yul\":12054:12195   */\n    tag_228:\n        /* \"#utility.yul\":12148:12154   */\n      0x00\n        /* \"#utility.yul\":12182:12187   */\n      dup2\n        /* \"#utility.yul\":12176:12188   */\n      mload\n        /* \"#utility.yul\":12166:12188   */\n      swap1\n      pop\n        /* \"#utility.yul\":12155:12195   */\n      swap2\n      swap1\n      pop\n      jump\t// out\n        /* \"#utility.yul\":12201:12341   */\n    tag_238:\n        /* \"#utility.yul\":12298:12302   */\n      0x00\n        /* \"#utility.yul\":12330:12334   */\n      0x20\n        /* \"#utility.yul\":12325:12328   */\n      dup3\n        /* \"#utility.yul\":12321:12335   */\n      add\n        /* \"#utility.yul\":12313:12335   */\n      swap1\n      pop\n        /* \"#utility.yul\":12303:12341   */\n      swap2\n      swap1\n      pop\n      jump\t// out\n        /* \"#utility.yul\":12347:12558   */\n    tag_230:\n        /* \"#utility.yul\":12473:12484   */\n      0x00\n        /* \"#utility.yul\":12507:12513   */\n      dup3\n        /* \"#utility.yul\":12502:12505   */\n      dup3\n        /* \"#utility.yul\":12495:12514   */\n      mstore\n        /* \"#utility.yul\":12547:12551   */\n      0x20\n        /* \"#utility.yul\":12542:12545   */\n      dup3\n        /* \"#utility.yul\":12538:12552   */\n      add\n        /* \"#utility.yul\":12523:12552   */\n      swap1\n      pop\n        /* \"#utility.yul\":12485:12558   */\n      swap3\n      swap2\n      pop\n      pop\n      jump\t// out\n        /* \"#utility.yul\":12564:12733   */\n    tag_249:\n        /* \"#utility.yul\":12648:12659   */\n      0x00\n        /* \"#utility.yul\":12682:12688   */\n      dup3\n        /* \"#utility.yul\":12677:12680   */\n      dup3\n        /* \"#utility.yul\":12670:12689   */\n      mstore\n        /* \"#utility.yul\":12722:12726   */\n      0x20\n        /* \"#utility.yul\":12717:12720   */\n      dup3\n        /* \"#utility.yul\":12713:12727   */\n      add\n        /* \"#utility.yul\":12698:12727   */\n      swap1\n      pop\n        /* \"#utility.yul\":12660:12733   */\n      swap3\n      swap2\n      pop\n      pop\n      jump\t// out\n        /* \"#utility.yul\":12739:13044   */\n    tag_67:\n        /* \"#utility.yul\":12779:12782   */\n      0x00\n        /* \"#utility.yul\":12798:12818   */\n      tag_325\n        /* \"#utility.yul\":12816:12817   */\n      dup3\n        /* \"#utility.yul\":12798:12818   */\n      tag_288\n      jump\t// in\n    tag_325:\n        /* \"#utility.yul\":12793:12818   */\n      swap2\n      pop\n        /* \"#utility.yul\":12832:12852   */\n      tag_326\n        /* \"#utility.yul\":12850:12851   */\n      dup4\n        /* \"#utility.yul\":12832:12852   */\n      tag_288\n      jump\t// in\n    tag_326:\n        /* \"#utility.yul\":12827:12852   */\n      swap3\n      pop\n        /* \"#utility.yul\":12986:12987   */\n      dup3\n        /* \"#utility.yul\":12918:12984   */\n      0xffffffffffffffffffffffffffffffffffffffffffffffffffffffffffffffff\n        /* \"#utility.yul\":12914:12988   */\n      sub\n        /* \"#utility.yul\":12911:12912   */\n      dup3\n        /* \"#utility.yul\":12908:12989   */\n      gt\n        /* \"#utility.yul\":12905:12907   */\n      iszero\n      tag_327\n      jumpi\n        /* \"#utility.yul\":12992:13010   */\n      tag_328\n      tag_329\n      jump\t// in\n    tag_328:\n        /* \"#utility.yul\":12905:12907   */\n    tag_327:\n        /* \"#utility.yul\":13036:13037   */\n      dup3\n        /* \"#utility.yul\":13033:13034   */\n      dup3\n        /* \"#utility.yul\":13029:13038   */\n      add\n        /* \"#utility.yul\":13022:13038   */\n      swap1\n      pop\n        /* \"#utility.yul\":12783:13044   */\n      swap3\n      swap2\n      pop\n      pop\n      jump\t// out\n        /* \"#utility.yul\":13050:13241   */\n    tag_141:\n        /* \"#utility.yul\":13090:13094   */\n      0x00\n        /* \"#utility.yul\":13110:13130   */\n      tag_331\n        /* \"#utility.yul\":13128:13129   */\n      dup3\n        /* \"#utility.yul\":13110:13130   */\n      tag_288\n      jump\t// in\n    tag_331:\n        /* \"#utility.yul\":13105:13130   */\n      swap2\n      pop\n        /* \"#utility.yul\":13144:13164   */\n      tag_332\n        /* \"#utility.yul\":13162:13163   */\n      dup4\n        /* \"#utility.yul\":13144:13164   */\n      tag_288\n      jump\t// in\n    tag_332:\n        /* \"#utility.yul\":13139:13164   */\n      swap3\n      pop\n        /* \"#utility.yul\":13183:13184   */\n      dup3\n        /* \"#utility.yul\":13180:13181   */\n      dup3\n        /* \"#utility.yul\":13177:13185   */\n      lt\n        /* \"#utility.yul\":13174:13176   */\n      iszero\n      tag_333\n      jumpi\n        /* \"#utility.yul\":13188:13206   */\n      tag_334\n      tag_329\n      jump\t// in\n    tag_334:\n        /* \"#utility.yul\":13174:13176   */\n    tag_333:\n        /* \"#utility.yul\":13233:13234   */\n      dup3\n        /* \"#utility.yul\":13230:13231   */\n      dup3\n        /* \"#utility.yul\":13226:13235   */\n      sub\n        /* \"#utility.yul\":13218:13235   */\n      swap1\n      pop\n        /* \"#utility.yul\":13095:13241   */\n      swap3\n      swap2\n      pop\n      pop\n      jump\t// out\n        /* \"#utility.yul\":13247:13343   */\n    tag_221:\n        /* \"#utility.yul\":13284:13291   */\n      0x00\n        /* \"#utility.yul\":13313:13337   */\n      tag_336\n        /* \"#utility.yul\":13331:13336   */\n      dup3\n        /* \"#utility.yul\":13313:13337   */\n      tag_337\n      jump\t// in\n    tag_336:\n        /* \"#utility.yul\":13302:13337   */\n      swap1\n      pop\n        /* \"#utility.yul\":13292:13343   */\n      swap2\n      swap1\n      pop\n      jump\t// out\n        /* \"#utility.yul\":13349:13453   */\n    tag_217:\n        /* \"#utility.yul\":13394:13401   */\n      0x00\n        /* \"#utility.yul\":13423:13447   */\n      tag_339\n        /* \"#utility.yul\":13441:13446   */\n      dup3\n        /* \"#utility.yul\":13423:13447   */\n      tag_337\n      jump\t// in\n    tag_339:\n        /* \"#utility.yul\":13412:13447   */\n      swap1\n      pop\n        /* \"#utility.yul\":13402:13453   */\n      swap2\n      swap1\n      pop\n      jump\t// out\n        /* \"#utility.yul\":13459:13549   */\n    tag_242:\n        /* \"#utility.yul\":13493:13500   */\n      0x00\n        /* \"#utility.yul\":13536:13541   */\n      dup2\n        /* \"#utility.yul\":13529:13542   */\n      iszero\n        /* \"#utility.yul\":13522:13543   */\n      iszero\n        /* \"#utility.yul\":13511:13543   */\n      swap1\n      pop\n        /* \"#utility.yul\":13501:13549   */\n      swap2\n      swap1\n      pop\n      jump\t// out\n        /* \"#utility.yul\":13555:13681   */\n    tag_337:\n        /* \"#utility.yul\":13592:13599   */\n      0x00\n        /* \"#utility.yul\":13632:13674   */\n      0xffffffffffffffffffffffffffffffffffffffff\n        /* \"#utility.yul\":13625:13630   */\n      dup3\n        /* \"#utility.yul\":13621:13675   */\n      and\n        /* \"#utility.yul\":13610:13675   */\n      swap1\n      pop\n        /* \"#utility.yul\":13600:13681   */\n      swap2\n      swap1\n      pop\n      jump\t// out\n        /* \"#utility.yul\":13687:13764   */\n    tag_288:\n        /* \"#utility.yul\":13724:13731   */\n      0x00\n        /* \"#utility.yul\":13753:13758   */\n      dup2\n        /* \"#utility.yul\":13742:13758   */\n      swap1\n      pop\n        /* \"#utility.yul\":13732:13764   */\n      swap2\n      swap1\n      pop\n      jump\t// out\n        /* \"#utility.yul\":13770:14003   */\n    tag_71:\n        /* \"#utility.yul\":13809:13812   */\n      0x00\n        /* \"#utility.yul\":13832:13856   */\n      tag_344\n        /* \"#utility.yul\":13850:13855   */\n      dup3\n        /* \"#utility.yul\":13832:13856   */\n      tag_288\n      jump\t// in\n    tag_344:\n        /* \"#utility.yul\":13823:13856   */\n      swap2\n      pop\n        /* \"#utility.yul\":13878:13944   */\n      0xffffffffffffffffffffffffffffffffffffffffffffffffffffffffffffffff\n        /* \"#utility.yul\":13871:13876   */\n      dup3\n        /* \"#utility.yul\":13868:13945   */\n      eq\n        /* \"#utility.yul\":13865:13867   */\n      iszero\n      tag_345\n      jumpi\n        /* \"#utility.yul\":13948:13966   */\n      tag_346\n      tag_329\n      jump\t// in\n    tag_346:\n        /* \"#utility.yul\":13865:13867   */\n    tag_345:\n        /* \"#utility.yul\":13995:13996   */\n      0x01\n        /* \"#utility.yul\":13988:13993   */\n      dup3\n        /* \"#utility.yul\":13984:13997   */\n      add\n        /* \"#utility.yul\":13977:13997   */\n      swap1\n      pop\n        /* \"#utility.yul\":13813:14003   */\n      swap2\n      swap1\n      pop\n      jump\t// out\n        /* \"#utility.yul\":14009:14189   */\n    tag_329:\n        /* \"#utility.yul\":14057:14134   */\n      0x4e487b7100000000000000000000000000000000000000000000000000000000\n        /* \"#utility.yul\":14054:14055   */\n      0x00\n        /* \"#utility.yul\":14047:14135   */\n      mstore\n        /* \"#utility.yul\":14154:14158   */\n      0x11\n        /* \"#utility.yul\":14151:14152   */\n      0x04\n        /* \"#utility.yul\":14144:14159   */\n      mstore\n        /* \"#utility.yul\":14178:14182   */\n      0x24\n        /* \"#utility.yul\":14175:14176   */\n      0x00\n        /* \"#utility.yul\":14168:14183   */\n      revert\n        /* \"#utility.yul\":14195:14424   */\n    tag_251:\n        /* \"#utility.yul\":14335:14369   */\n      0x4e6f7420656e6f7567682062616c616e636520746f20636f6d706c6574652074\n        /* \"#utility.yul\":14331:14332   */\n      0x00\n        /* \"#utility.yul\":14323:14329   */\n      dup3\n        /* \"#utility.yul\":14319:14333   */\n      add\n        /* \"#utility.yul\":14312:14370   */\n      mstore\n        /* \"#utility.yul\":14404:14416   */\n      0x72616e73616374696f6e00000000000000000000000000000000000000000000\n        /* \"#utility.yul\":14399:14401   */\n      0x20\n        /* \"#utility.yul\":14391:14397   */\n      dup3\n        /* \"#utility.yul\":14387:14402   */\n      add\n        /* \"#utility.yul\":14380:14417   */\n      mstore\n        /* \"#utility.yul\":14301:14424   */\n      pop\n      jump\t// out\n        /* \"#utility.yul\":14430:14655   */\n    tag_256:\n        /* \"#utility.yul\":14570:14604   */\n      0x4f776e61626c653a206e6577206f776e657220697320746865207a65726f2061\n        /* \"#utility.yul\":14566:14567   */\n      0x00\n        /* \"#utility.yul\":14558:14564   */\n      dup3\n        /* \"#utility.yul\":14554:14568   */\n      add\n        /* \"#utility.yul\":14547:14605   */\n      mstore\n        /* \"#utility.yul\":14639:14647   */\n      0x6464726573730000000000000000000000000000000000000000000000000000\n        /* \"#utility.yul\":14634:14636   */\n      0x20\n        /* \"#utility.yul\":14626:14632   */\n      dup3\n        /* \"#utility.yul\":14622:14637   */\n      add\n        /* \"#utility.yul\":14615:14648   */\n      mstore\n        /* \"#utility.yul\":14536:14655   */\n      pop\n      jump\t// out\n        /* \"#utility.yul\":14661:14831   */\n    tag_261:\n        /* \"#utility.yul\":14801:14823   */\n      0x50726963652063616e6e6f74206265207a65726f000000000000000000000000\n        /* \"#utility.yul\":14797:14798   */\n      0x00\n        /* \"#utility.yul\":14789:14795   */\n      dup3\n        /* \"#utility.yul\":14785:14799   */\n      add\n        /* \"#utility.yul\":14778:14824   */\n      mstore\n        /* \"#utility.yul\":14767:14831   */\n      pop\n      jump\t// out\n        /* \"#utility.yul\":14837:15019   */\n    tag_266:\n        /* \"#utility.yul\":14977:15011   */\n      0x4f776e61626c653a2063616c6c6572206973206e6f7420746865206f776e6572\n        /* \"#utility.yul\":14973:14974   */\n      0x00\n        /* \"#utility.yul\":14965:14971   */\n      dup3\n        /* \"#utility.yul\":14961:14975   */\n      add\n        /* \"#utility.yul\":14954:15012   */\n      mstore\n        /* \"#utility.yul\":14943:15019   */\n      pop\n      jump\t// out\n        /* \"#utility.yul\":15025:15206   */\n    tag_271:\n        /* \"#utility.yul\":15165:15198   */\n      0x5265656e7472616e637947756172643a207265656e7472616e742063616c6c00\n        /* \"#utility.yul\":15161:15162   */\n      0x00\n        /* \"#utility.yul\":15153:15159   */\n      dup3\n        /* \"#utility.yul\":15149:15163   */\n      add\n        /* \"#utility.yul\":15142:15199   */\n      mstore\n        /* \"#utility.yul\":15131:15206   */\n      pop\n      jump\t// out\n        /* \"#utility.yul\":15212:15389   */\n    tag_276:\n        /* \"#utility.yul\":15352:15381   */\n      0x50726963652063616e6e6f74206265206c697374696e67206665650000000000\n        /* \"#utility.yul\":15348:15349   */\n      0x00\n        /* \"#utility.yul\":15340:15346   */\n      dup3\n        /* \"#utility.yul\":15336:15350   */\n      add\n        /* \"#utility.yul\":15329:15382   */\n      mstore\n        /* \"#utility.yul\":15318:15389   */\n      pop\n      jump\t// out\n        /* \"#utility.yul\":15395:15517   */\n    tag_193:\n        /* \"#utility.yul\":15468:15492   */\n      tag_355\n        /* \"#utility.yul\":15486:15491   */\n      dup2\n        /* \"#utility.yul\":15468:15492   */\n      tag_221\n      jump\t// in\n    tag_355:\n        /* \"#utility.yul\":15461:15466   */\n      dup2\n        /* \"#utility.yul\":15458:15493   */\n      eq\n        /* \"#utility.yul\":15448:15450   */\n      tag_356\n      jumpi\n        /* \"#utility.yul\":15507:15508   */\n      0x00\n        /* \"#utility.yul\":15504:15505   */\n      dup1\n        /* \"#utility.yul\":15497:15509   */\n      revert\n        /* \"#utility.yul\":15448:15450   */\n    tag_356:\n        /* \"#utility.yul\":15438:15517   */\n      pop\n      jump\t// out\n        /* \"#utility.yul\":15523:15645   */\n    tag_197:\n        /* \"#utility.yul\":15596:15620   */\n      tag_358\n        /* \"#utility.yul\":15614:15619   */\n      dup2\n        /* \"#utility.yul\":15596:15620   */\n      tag_288\n      jump\t// in\n    tag_358:\n        /* \"#utility.yul\":15589:15594   */\n      dup2\n        /* \"#utility.yul\":15586:15621   */\n      eq\n        /* \"#utility.yul\":15576:15578   */\n      tag_359\n      jumpi\n        /* \"#utility.yul\":15635:15636   */\n      0x00\n        /* \"#utility.yul\":15632:15633   */\n      dup1\n        /* \"#utility.yul\":15625:15637   */\n      revert\n        /* \"#utility.yul\":15576:15578   */\n    tag_359:\n        /* \"#utility.yul\":15566:15645   */\n      pop\n      jump\t// out\n\n    auxdata: 0xa2646970667358221220442e5cab634a9e4538ddbc795ecfaf7138afbce3c857b4d97baf0ba9f2e8caf264736f6c63430008040033\n}\n",
				"bytecode": {
					"linkReferences": {},
					"object": "60806040526608e1bc9bf04000600555661aa535d3d0c00060065534801561002657600080fd5b50600160008190555061004b61004061009160201b60201c565b61009960201b60201c565b33600460006101000a81548173ffffffffffffffffffffffffffffffffffffffff021916908373ffffffffffffffffffffffffffffffffffffffff16021790555061015f565b600033905090565b6000600160009054906101000a900473ffffffffffffffffffffffffffffffffffffffff16905081600160006101000a81548173ffffffffffffffffffffffffffffffffffffffff021916908373ffffffffffffffffffffffffffffffffffffffff1602179055508173ffffffffffffffffffffffffffffffffffffffff168173ffffffffffffffffffffffffffffffffffffffff167f8be0079c531659141344cd1fd0a4f28419497f9722a3daafe3b4186f6b6457e060405160405180910390a35050565b611d588061016e6000396000f3fe6080604052600436106100915760003560e01c8063a706ac2111610059578063a706ac2114610138578063b8fe6abe14610154578063d438b9861461017f578063d6c6bd5c146101aa578063f2fde38b146101c657610091565b80633ccfd60b146100965780636f2e30c0146100a0578063715018a6146100cb5780638da5cb5b146100e25780639fd01cd11461010d575b600080fd5b61009e6101ef565b005b3480156100ac57600080fd5b506100b5610237565b6040516100c2919061190f565b60405180910390f35b3480156100d757600080fd5b506100e06105d1565b005b3480156100ee57600080fd5b506100f76105e5565b6040516101049190611878565b60405180910390f35b34801561011957600080fd5b5061012261060f565b60405161012f919061190f565b60405180910390f35b610152600480360381019061014d91906115ea565b6109a9565b005b34801561016057600080fd5b50610169610d0d565b60405161017691906119f1565b60405180910390f35b34801561018b57600080fd5b50610194610d17565b6040516101a1919061190f565b60405180910390f35b6101c460048036038101906101bf91906115ae565b61102d565b005b3480156101d257600080fd5b506101ed60048036038101906101e89190611585565b6112e6565b005b6101f761136a565b3373ffffffffffffffffffffffffffffffffffffffff166108fc479081150290604051600060405180830381858888f1935050505061023557600080fd5b565b6060600061024560026113e8565b905060008060005b838110156102ee573373ffffffffffffffffffffffffffffffffffffffff166007600060018461027d9190611a56565b815260200190815260200160002060040160009054906101000a900473ffffffffffffffffffffffffffffffffffffffff1673ffffffffffffffffffffffffffffffffffffffff1614156102db576001836102d89190611a56565b92505b80806102e690611b3a565b91505061024d565b5060008267ffffffffffffffff811115610331577f4e487b7100000000000000000000000000000000000000000000000000000000600052604160045260246000fd5b60405190808252806020026020018201604052801561036a57816020015b6103576114da565b81526020019060019003908161034f5790505b50905060005b848110156105c6573373ffffffffffffffffffffffffffffffffffffffff16600760006001846103a09190611a56565b815260200190815260200160002060040160009054906101000a900473ffffffffffffffffffffffffffffffffffffffff1673ffffffffffffffffffffffffffffffffffffffff1614156105b35760006001826103fd9190611a56565b90506000600760008381526020019081526020016000209050806040518060e0016040529081600082015481526020016001820160009054906101000a900473ffffffffffffffffffffffffffffffffffffffff1673ffffffffffffffffffffffffffffffffffffffff1673ffffffffffffffffffffffffffffffffffffffff168152602001600282015481526020016003820160009054906101000a900473ffffffffffffffffffffffffffffffffffffffff1673ffffffffffffffffffffffffffffffffffffffff1673ffffffffffffffffffffffffffffffffffffffff1681526020016004820160009054906101000a900473ffffffffffffffffffffffffffffffffffffffff1673ffffffffffffffffffffffffffffffffffffffff1673ffffffffffffffffffffffffffffffffffffffff168152602001600582015481526020016006820160009054906101000a900460ff161515151581525050848681518110610596577f4e487b7100000000000000000000000000000000000000000000000000000000600052603260045260246000fd5b60200260200101819052506001856105ae9190611a56565b945050505b80806105be90611b3a565b915050610370565b508094505050505090565b6105d961136a565b6105e360006113f6565b565b6000600160009054906101000a900473ffffffffffffffffffffffffffffffffffffffff16905090565b6060600061061d60026113e8565b905060008060005b838110156106c6573373ffffffffffffffffffffffffffffffffffffffff16600760006001846106559190611a56565b815260200190815260200160002060030160009054906101000a900473ffffffffffffffffffffffffffffffffffffffff1673ffffffffffffffffffffffffffffffffffffffff1614156106b3576001836106b09190611a56565b92505b80806106be90611b3a565b915050610625565b5060008267ffffffffffffffff811115610709577f4e487b7100000000000000000000000000000000000000000000000000000000600052604160045260246000fd5b60405190808252806020026020018201604052801561074257816020015b61072f6114da565b8152602001906001900390816107275790505b50905060005b8481101561099e573373ffffffffffffffffffffffffffffffffffffffff16600760006001846107789190611a56565b815260200190815260200160002060030160009054906101000a900473ffffffffffffffffffffffffffffffffffffffff1673ffffffffffffffffffffffffffffffffffffffff16141561098b5760006001826107d59190611a56565b90506000600760008381526020019081526020016000209050806040518060e0016040529081600082015481526020016001820160009054906101000a900473ffffffffffffffffffffffffffffffffffffffff1673ffffffffffffffffffffffffffffffffffffffff1673ffffffffffffffffffffffffffffffffffffffff168152602001600282015481526020016003820160009054906101000a900473ffffffffffffffffffffffffffffffffffffffff1673ffffffffffffffffffffffffffffffffffffffff1673ffffffffffffffffffffffffffffffffffffffff1681526020016004820160009054906101000a900473ffffffffffffffffffffffffffffffffffffffff1673ffffffffffffffffffffffffffffffffffffffff1673ffffffffffffffffffffffffffffffffffffffff168152602001600582015481526020016006820160009054906101000a900460ff16151515158152505084868151811061096e577f4e487b7100000000000000000000000000000000000000000000000000000000600052603260045260246000fd5b60200260200101819052506001856109869190611a56565b945050505b808061099690611b3a565b915050610748565b508094505050505090565b600260005414156109ef576040517f08c379a00000000000000000000000000000000000000000000000000000000081526004016109e6906119b1565b60405180910390fd5b600260008190555060008111610a3a576040517f08c379a0000000000000000000000000000000000000000000000000000000008152600401610a3190611971565b60405180910390fd5b6005543414610a7e576040517f08c379a0000000000000000000000000000000000000000000000000000000008152600401610a75906119d1565b60405180910390fd5b610a8860026114bc565b6000610a9460026113e8565b90506040518060e001604052808281526020018573ffffffffffffffffffffffffffffffffffffffff1681526020018481526020013373ffffffffffffffffffffffffffffffffffffffff168152602001600073ffffffffffffffffffffffffffffffffffffffff16815260200183815260200160001515815250600760008381526020019081526020016000206000820151816000015560208201518160010160006101000a81548173ffffffffffffffffffffffffffffffffffffffff021916908373ffffffffffffffffffffffffffffffffffffffff1602179055506040820151816002015560608201518160030160006101000a81548173ffffffffffffffffffffffffffffffffffffffff021916908373ffffffffffffffffffffffffffffffffffffffff16021790555060808201518160040160006101000a81548173ffffffffffffffffffffffffffffffffffffffff021916908373ffffffffffffffffffffffffffffffffffffffff16021790555060a0820151816005015560c08201518160060160006101000a81548160ff0219169083151502179055509050508373ffffffffffffffffffffffffffffffffffffffff166323b872dd3330866040518463ffffffff1660e01b8152600401610c7593929190611893565b600060405180830381600087803b158015610c8f57600080fd5b505af1158015610ca3573d6000803e3d6000fd5b50505050828473ffffffffffffffffffffffffffffffffffffffff16827f5f244be10a8d938e3d87696f8eb660aea498791b881de4ccb1838ba753270f18336000876000604051610cf794939291906118ca565b60405180910390a4506001600081905550505050565b6000600554905090565b60606000610d2560026113e8565b90506000610d3360036113e8565b610d3d60026113e8565b610d479190611aac565b90506000808267ffffffffffffffff811115610d8c577f4e487b7100000000000000000000000000000000000000000000000000000000600052604160045260246000fd5b604051908082528060200260200182016040528015610dc557816020015b610db26114da565b815260200190600190039081610daa5790505b50905060005b8481101561102257600073ffffffffffffffffffffffffffffffffffffffff1660076000600184610dfc9190611a56565b815260200190815260200160002060040160009054906101000a900473ffffffffffffffffffffffffffffffffffffffff1673ffffffffffffffffffffffffffffffffffffffff16141561100f576000600182610e599190611a56565b90506000600760008381526020019081526020016000209050806040518060e0016040529081600082015481526020016001820160009054906101000a900473ffffffffffffffffffffffffffffffffffffffff1673ffffffffffffffffffffffffffffffffffffffff1673ffffffffffffffffffffffffffffffffffffffff168152602001600282015481526020016003820160009054906101000a900473ffffffffffffffffffffffffffffffffffffffff1673ffffffffffffffffffffffffffffffffffffffff1673ffffffffffffffffffffffffffffffffffffffff1681526020016004820160009054906101000a900473ffffffffffffffffffffffffffffffffffffffff1673ffffffffffffffffffffffffffffffffffffffff1673ffffffffffffffffffffffffffffffffffffffff168152602001600582015481526020016006820160009054906101000a900460ff161515151581525050848681518110610ff2577f4e487b7100000000000000000000000000000000000000000000000000000000600052603260045260246000fd5b602002602001018190525060018561100a9190611a56565b945050505b808061101a90611b3a565b915050610dcb565b508094505050505090565b60026000541415611073576040517f08c379a000000000000000000000000000000000000000000000000000000000815260040161106a906119b1565b60405180910390fd5b60026000819055506000600760008381526020019081526020016000206005015490506000600760008481526020019081526020016000206002015490508134146110f3576040517f08c379a00000000000000000000000000000000000000000000000000000000081526004016110ea90611931565b60405180910390fd5b6007600084815260200190815260200160002060030160009054906101000a900473ffffffffffffffffffffffffffffffffffffffff1673ffffffffffffffffffffffffffffffffffffffff166108fc349081150290604051600060405180830381858888f1935050505015801561116f573d6000803e3d6000fd5b508373ffffffffffffffffffffffffffffffffffffffff166323b872dd3033846040518463ffffffff1660e01b81526004016111ad93929190611893565b600060405180830381600087803b1580156111c757600080fd5b505af11580156111db573d6000803e3d6000fd5b50505050336007600085815260200190815260200160002060040160006101000a81548173ffffffffffffffffffffffffffffffffffffffff021916908373ffffffffffffffffffffffffffffffffffffffff16021790555060016007600085815260200190815260200160002060060160006101000a81548160ff02191690831515021790555061126d60036114bc565b600460009054906101000a900473ffffffffffffffffffffffffffffffffffffffff1673ffffffffffffffffffffffffffffffffffffffff166108fc6005549081150290604051600060405180830381858888f193505050501580156112d7573d6000803e3d6000fd5b50505060016000819055505050565b6112ee61136a565b600073ffffffffffffffffffffffffffffffffffffffff168173ffffffffffffffffffffffffffffffffffffffff16141561135e576040517f08c379a000000000000000000000000000000000000000000000000000000000815260040161135590611951565b60405180910390fd5b611367816113f6565b50565b6113726114d2565b73ffffffffffffffffffffffffffffffffffffffff166113906105e5565b73ffffffffffffffffffffffffffffffffffffffff16146113e6576040517f08c379a00000000000000000000000000000000000000000000000000000000081526004016113dd90611991565b60405180910390fd5b565b600081600001549050919050565b6000600160009054906101000a900473ffffffffffffffffffffffffffffffffffffffff16905081600160006101000a81548173ffffffffffffffffffffffffffffffffffffffff021916908373ffffffffffffffffffffffffffffffffffffffff1602179055508173ffffffffffffffffffffffffffffffffffffffff168173ffffffffffffffffffffffffffffffffffffffff167f8be0079c531659141344cd1fd0a4f28419497f9722a3daafe3b4186f6b6457e060405160405180910390a35050565b6001816000016000828254019250508190555050565b600033905090565b6040518060e0016040528060008152602001600073ffffffffffffffffffffffffffffffffffffffff16815260200160008152602001600073ffffffffffffffffffffffffffffffffffffffff168152602001600073ffffffffffffffffffffffffffffffffffffffff168152602001600081526020016000151581525090565b60008135905061156a81611cf4565b92915050565b60008135905061157f81611d0b565b92915050565b60006020828403121561159757600080fd5b60006115a58482850161155b565b91505092915050565b600080604083850312156115c157600080fd5b60006115cf8582860161155b565b92505060206115e085828601611570565b9150509250929050565b6000806000606084860312156115ff57600080fd5b600061160d8682870161155b565b935050602061161e86828701611570565b925050604061162f86828701611570565b9150509250925092565b600061164583836117cc565b60e08301905092915050565b61165a81611af2565b82525050565b61166981611ae0565b82525050565b61167881611ae0565b82525050565b600061168982611a1c565b6116938185611a34565b935061169e83611a0c565b8060005b838110156116cf5781516116b68882611639565b97506116c183611a27565b9250506001810190506116a2565b5085935050505092915050565b6116e581611b04565b82525050565b6116f481611b04565b82525050565b6000611707602a83611a45565b915061171282611bb2565b604082019050919050565b600061172a602683611a45565b915061173582611c01565b604082019050919050565b600061174d601483611a45565b915061175882611c50565b602082019050919050565b6000611770602083611a45565b915061177b82611c79565b602082019050919050565b6000611793601f83611a45565b915061179e82611ca2565b602082019050919050565b60006117b6601b83611a45565b91506117c182611ccb565b602082019050919050565b60e0820160008201516117e2600085018261185a565b5060208201516117f56020850182611660565b506040820151611808604085018261185a565b50606082015161181b6060850182611651565b50608082015161182e6080850182611651565b5060a082015161184160a085018261185a565b5060c082015161185460c08501826116dc565b50505050565b61186381611b30565b82525050565b61187281611b30565b82525050565b600060208201905061188d600083018461166f565b92915050565b60006060820190506118a8600083018661166f565b6118b5602083018561166f565b6118c26040830184611869565b949350505050565b60006080820190506118df600083018761166f565b6118ec602083018661166f565b6118f96040830185611869565b61190660608301846116eb565b95945050505050565b60006020820190508181036000830152611929818461167e565b905092915050565b6000602082019050818103600083015261194a816116fa565b9050919050565b6000602082019050818103600083015261196a8161171d565b9050919050565b6000602082019050818103600083015261198a81611740565b9050919050565b600060208201905081810360008301526119aa81611763565b9050919050565b600060208201905081810360008301526119ca81611786565b9050919050565b600060208201905081810360008301526119ea816117a9565b9050919050565b6000602082019050611a066000830184611869565b92915050565b6000819050602082019050919050565b600081519050919050565b6000602082019050919050565b600082825260208201905092915050565b600082825260208201905092915050565b6000611a6182611b30565b9150611a6c83611b30565b9250827fffffffffffffffffffffffffffffffffffffffffffffffffffffffffffffffff03821115611aa157611aa0611b83565b5b828201905092915050565b6000611ab782611b30565b9150611ac283611b30565b925082821015611ad557611ad4611b83565b5b828203905092915050565b6000611aeb82611b10565b9050919050565b6000611afd82611b10565b9050919050565b60008115159050919050565b600073ffffffffffffffffffffffffffffffffffffffff82169050919050565b6000819050919050565b6000611b4582611b30565b91507fffffffffffffffffffffffffffffffffffffffffffffffffffffffffffffffff821415611b7857611b77611b83565b5b600182019050919050565b7f4e487b7100000000000000000000000000000000000000000000000000000000600052601160045260246000fd5b7f4e6f7420656e6f7567682062616c616e636520746f20636f6d706c657465207460008201527f72616e73616374696f6e00000000000000000000000000000000000000000000602082015250565b7f4f776e61626c653a206e6577206f776e657220697320746865207a65726f206160008201527f6464726573730000000000000000000000000000000000000000000000000000602082015250565b7f50726963652063616e6e6f74206265207a65726f000000000000000000000000600082015250565b7f4f776e61626c653a2063616c6c6572206973206e6f7420746865206f776e6572600082015250565b7f5265656e7472616e637947756172643a207265656e7472616e742063616c6c00600082015250565b7f50726963652063616e6e6f74206265206c697374696e67206665650000000000600082015250565b611cfd81611ae0565b8114611d0857600080fd5b50565b611d1481611b30565b8114611d1f57600080fd5b5056fea2646970667358221220442e5cab634a9e4538ddbc795ecfaf7138afbce3c857b4d97baf0ba9f2e8caf264736f6c63430008040033",
					"opcodes": "PUSH1 0x80 PUSH1 0x40 MSTORE PUSH7 0x8E1BC9BF04000 PUSH1 0x5 SSTORE PUSH7 0x1AA535D3D0C000 PUSH1 0x6 SSTORE CALLVALUE DUP1 ISZERO PUSH2 0x26 JUMPI PUSH1 0x0 DUP1 REVERT JUMPDEST POP PUSH1 0x1 PUSH1 0x0 DUP2 SWAP1 SSTORE POP PUSH2 0x4B PUSH2 0x40 PUSH2 0x91 PUSH1 0x20 SHL PUSH1 0x20 SHR JUMP JUMPDEST PUSH2 0x99 PUSH1 0x20 SHL PUSH1 0x20 SHR JUMP JUMPDEST CALLER PUSH1 0x4 PUSH1 0x0 PUSH2 0x100 EXP DUP2 SLOAD DUP2 PUSH20 0xFFFFFFFFFFFFFFFFFFFFFFFFFFFFFFFFFFFFFFFF MUL NOT AND SWAP1 DUP4 PUSH20 0xFFFFFFFFFFFFFFFFFFFFFFFFFFFFFFFFFFFFFFFF AND MUL OR SWAP1 SSTORE POP PUSH2 0x15F JUMP JUMPDEST PUSH1 0x0 CALLER SWAP1 POP SWAP1 JUMP JUMPDEST PUSH1 0x0 PUSH1 0x1 PUSH1 0x0 SWAP1 SLOAD SWAP1 PUSH2 0x100 EXP SWAP1 DIV PUSH20 0xFFFFFFFFFFFFFFFFFFFFFFFFFFFFFFFFFFFFFFFF AND SWAP1 POP DUP2 PUSH1 0x1 PUSH1 0x0 PUSH2 0x100 EXP DUP2 SLOAD DUP2 PUSH20 0xFFFFFFFFFFFFFFFFFFFFFFFFFFFFFFFFFFFFFFFF MUL NOT AND SWAP1 DUP4 PUSH20 0xFFFFFFFFFFFFFFFFFFFFFFFFFFFFFFFFFFFFFFFF AND MUL OR SWAP1 SSTORE POP DUP2 PUSH20 0xFFFFFFFFFFFFFFFFFFFFFFFFFFFFFFFFFFFFFFFF AND DUP2 PUSH20 0xFFFFFFFFFFFFFFFFFFFFFFFFFFFFFFFFFFFFFFFF AND PUSH32 0x8BE0079C531659141344CD1FD0A4F28419497F9722A3DAAFE3B4186F6B6457E0 PUSH1 0x40 MLOAD PUSH1 0x40 MLOAD DUP1 SWAP2 SUB SWAP1 LOG3 POP POP JUMP JUMPDEST PUSH2 0x1D58 DUP1 PUSH2 0x16E PUSH1 0x0 CODECOPY PUSH1 0x0 RETURN INVALID PUSH1 0x80 PUSH1 0x40 MSTORE PUSH1 0x4 CALLDATASIZE LT PUSH2 0x91 JUMPI PUSH1 0x0 CALLDATALOAD PUSH1 0xE0 SHR DUP1 PUSH4 0xA706AC21 GT PUSH2 0x59 JUMPI DUP1 PUSH4 0xA706AC21 EQ PUSH2 0x138 JUMPI DUP1 PUSH4 0xB8FE6ABE EQ PUSH2 0x154 JUMPI DUP1 PUSH4 0xD438B986 EQ PUSH2 0x17F JUMPI DUP1 PUSH4 0xD6C6BD5C EQ PUSH2 0x1AA JUMPI DUP1 PUSH4 0xF2FDE38B EQ PUSH2 0x1C6 JUMPI PUSH2 0x91 JUMP JUMPDEST DUP1 PUSH4 0x3CCFD60B EQ PUSH2 0x96 JUMPI DUP1 PUSH4 0x6F2E30C0 EQ PUSH2 0xA0 JUMPI DUP1 PUSH4 0x715018A6 EQ PUSH2 0xCB JUMPI DUP1 PUSH4 0x8DA5CB5B EQ PUSH2 0xE2 JUMPI DUP1 PUSH4 0x9FD01CD1 EQ PUSH2 0x10D JUMPI JUMPDEST PUSH1 0x0 DUP1 REVERT JUMPDEST PUSH2 0x9E PUSH2 0x1EF JUMP JUMPDEST STOP JUMPDEST CALLVALUE DUP1 ISZERO PUSH2 0xAC JUMPI PUSH1 0x0 DUP1 REVERT JUMPDEST POP PUSH2 0xB5 PUSH2 0x237 JUMP JUMPDEST PUSH1 0x40 MLOAD PUSH2 0xC2 SWAP2 SWAP1 PUSH2 0x190F JUMP JUMPDEST PUSH1 0x40 MLOAD DUP1 SWAP2 SUB SWAP1 RETURN JUMPDEST CALLVALUE DUP1 ISZERO PUSH2 0xD7 JUMPI PUSH1 0x0 DUP1 REVERT JUMPDEST POP PUSH2 0xE0 PUSH2 0x5D1 JUMP JUMPDEST STOP JUMPDEST CALLVALUE DUP1 ISZERO PUSH2 0xEE JUMPI PUSH1 0x0 DUP1 REVERT JUMPDEST POP PUSH2 0xF7 PUSH2 0x5E5 JUMP JUMPDEST PUSH1 0x40 MLOAD PUSH2 0x104 SWAP2 SWAP1 PUSH2 0x1878 JUMP JUMPDEST PUSH1 0x40 MLOAD DUP1 SWAP2 SUB SWAP1 RETURN JUMPDEST CALLVALUE DUP1 ISZERO PUSH2 0x119 JUMPI PUSH1 0x0 DUP1 REVERT JUMPDEST POP PUSH2 0x122 PUSH2 0x60F JUMP JUMPDEST PUSH1 0x40 MLOAD PUSH2 0x12F SWAP2 SWAP1 PUSH2 0x190F JUMP JUMPDEST PUSH1 0x40 MLOAD DUP1 SWAP2 SUB SWAP1 RETURN JUMPDEST PUSH2 0x152 PUSH1 0x4 DUP1 CALLDATASIZE SUB DUP2 ADD SWAP1 PUSH2 0x14D SWAP2 SWAP1 PUSH2 0x15EA JUMP JUMPDEST PUSH2 0x9A9 JUMP JUMPDEST STOP JUMPDEST CALLVALUE DUP1 ISZERO PUSH2 0x160 JUMPI PUSH1 0x0 DUP1 REVERT JUMPDEST POP PUSH2 0x169 PUSH2 0xD0D JUMP JUMPDEST PUSH1 0x40 MLOAD PUSH2 0x176 SWAP2 SWAP1 PUSH2 0x19F1 JUMP JUMPDEST PUSH1 0x40 MLOAD DUP1 SWAP2 SUB SWAP1 RETURN JUMPDEST CALLVALUE DUP1 ISZERO PUSH2 0x18B JUMPI PUSH1 0x0 DUP1 REVERT JUMPDEST POP PUSH2 0x194 PUSH2 0xD17 JUMP JUMPDEST PUSH1 0x40 MLOAD PUSH2 0x1A1 SWAP2 SWAP1 PUSH2 0x190F JUMP JUMPDEST PUSH1 0x40 MLOAD DUP1 SWAP2 SUB SWAP1 RETURN JUMPDEST PUSH2 0x1C4 PUSH1 0x4 DUP1 CALLDATASIZE SUB DUP2 ADD SWAP1 PUSH2 0x1BF SWAP2 SWAP1 PUSH2 0x15AE JUMP JUMPDEST PUSH2 0x102D JUMP JUMPDEST STOP JUMPDEST CALLVALUE DUP1 ISZERO PUSH2 0x1D2 JUMPI PUSH1 0x0 DUP1 REVERT JUMPDEST POP PUSH2 0x1ED PUSH1 0x4 DUP1 CALLDATASIZE SUB DUP2 ADD SWAP1 PUSH2 0x1E8 SWAP2 SWAP1 PUSH2 0x1585 JUMP JUMPDEST PUSH2 0x12E6 JUMP JUMPDEST STOP JUMPDEST PUSH2 0x1F7 PUSH2 0x136A JUMP JUMPDEST CALLER PUSH20 0xFFFFFFFFFFFFFFFFFFFFFFFFFFFFFFFFFFFFFFFF AND PUSH2 0x8FC SELFBALANCE SWAP1 DUP2 ISZERO MUL SWAP1 PUSH1 0x40 MLOAD PUSH1 0x0 PUSH1 0x40 MLOAD DUP1 DUP4 SUB DUP2 DUP6 DUP9 DUP9 CALL SWAP4 POP POP POP POP PUSH2 0x235 JUMPI PUSH1 0x0 DUP1 REVERT JUMPDEST JUMP JUMPDEST PUSH1 0x60 PUSH1 0x0 PUSH2 0x245 PUSH1 0x2 PUSH2 0x13E8 JUMP JUMPDEST SWAP1 POP PUSH1 0x0 DUP1 PUSH1 0x0 JUMPDEST DUP4 DUP2 LT ISZERO PUSH2 0x2EE JUMPI CALLER PUSH20 0xFFFFFFFFFFFFFFFFFFFFFFFFFFFFFFFFFFFFFFFF AND PUSH1 0x7 PUSH1 0x0 PUSH1 0x1 DUP5 PUSH2 0x27D SWAP2 SWAP1 PUSH2 0x1A56 JUMP JUMPDEST DUP2 MSTORE PUSH1 0x20 ADD SWAP1 DUP2 MSTORE PUSH1 0x20 ADD PUSH1 0x0 KECCAK256 PUSH1 0x4 ADD PUSH1 0x0 SWAP1 SLOAD SWAP1 PUSH2 0x100 EXP SWAP1 DIV PUSH20 0xFFFFFFFFFFFFFFFFFFFFFFFFFFFFFFFFFFFFFFFF AND PUSH20 0xFFFFFFFFFFFFFFFFFFFFFFFFFFFFFFFFFFFFFFFF AND EQ ISZERO PUSH2 0x2DB JUMPI PUSH1 0x1 DUP4 PUSH2 0x2D8 SWAP2 SWAP1 PUSH2 0x1A56 JUMP JUMPDEST SWAP3 POP JUMPDEST DUP1 DUP1 PUSH2 0x2E6 SWAP1 PUSH2 0x1B3A JUMP JUMPDEST SWAP2 POP POP PUSH2 0x24D JUMP JUMPDEST POP PUSH1 0x0 DUP3 PUSH8 0xFFFFFFFFFFFFFFFF DUP2 GT ISZERO PUSH2 0x331 JUMPI PUSH32 0x4E487B7100000000000000000000000000000000000000000000000000000000 PUSH1 0x0 MSTORE PUSH1 0x41 PUSH1 0x4 MSTORE PUSH1 0x24 PUSH1 0x0 REVERT JUMPDEST PUSH1 0x40 MLOAD SWAP1 DUP1 DUP3 MSTORE DUP1 PUSH1 0x20 MUL PUSH1 0x20 ADD DUP3 ADD PUSH1 0x40 MSTORE DUP1 ISZERO PUSH2 0x36A JUMPI DUP2 PUSH1 0x20 ADD JUMPDEST PUSH2 0x357 PUSH2 0x14DA JUMP JUMPDEST DUP2 MSTORE PUSH1 0x20 ADD SWAP1 PUSH1 0x1 SWAP1 SUB SWAP1 DUP2 PUSH2 0x34F JUMPI SWAP1 POP JUMPDEST POP SWAP1 POP PUSH1 0x0 JUMPDEST DUP5 DUP2 LT ISZERO PUSH2 0x5C6 JUMPI CALLER PUSH20 0xFFFFFFFFFFFFFFFFFFFFFFFFFFFFFFFFFFFFFFFF AND PUSH1 0x7 PUSH1 0x0 PUSH1 0x1 DUP5 PUSH2 0x3A0 SWAP2 SWAP1 PUSH2 0x1A56 JUMP JUMPDEST DUP2 MSTORE PUSH1 0x20 ADD SWAP1 DUP2 MSTORE PUSH1 0x20 ADD PUSH1 0x0 KECCAK256 PUSH1 0x4 ADD PUSH1 0x0 SWAP1 SLOAD SWAP1 PUSH2 0x100 EXP SWAP1 DIV PUSH20 0xFFFFFFFFFFFFFFFFFFFFFFFFFFFFFFFFFFFFFFFF AND PUSH20 0xFFFFFFFFFFFFFFFFFFFFFFFFFFFFFFFFFFFFFFFF AND EQ ISZERO PUSH2 0x5B3 JUMPI PUSH1 0x0 PUSH1 0x1 DUP3 PUSH2 0x3FD SWAP2 SWAP1 PUSH2 0x1A56 JUMP JUMPDEST SWAP1 POP PUSH1 0x0 PUSH1 0x7 PUSH1 0x0 DUP4 DUP2 MSTORE PUSH1 0x20 ADD SWAP1 DUP2 MSTORE PUSH1 0x20 ADD PUSH1 0x0 KECCAK256 SWAP1 POP DUP1 PUSH1 0x40 MLOAD DUP1 PUSH1 0xE0 ADD PUSH1 0x40 MSTORE SWAP1 DUP2 PUSH1 0x0 DUP3 ADD SLOAD DUP2 MSTORE PUSH1 0x20 ADD PUSH1 0x1 DUP3 ADD PUSH1 0x0 SWAP1 SLOAD SWAP1 PUSH2 0x100 EXP SWAP1 DIV PUSH20 0xFFFFFFFFFFFFFFFFFFFFFFFFFFFFFFFFFFFFFFFF AND PUSH20 0xFFFFFFFFFFFFFFFFFFFFFFFFFFFFFFFFFFFFFFFF AND PUSH20 0xFFFFFFFFFFFFFFFFFFFFFFFFFFFFFFFFFFFFFFFF AND DUP2 MSTORE PUSH1 0x20 ADD PUSH1 0x2 DUP3 ADD SLOAD DUP2 MSTORE PUSH1 0x20 ADD PUSH1 0x3 DUP3 ADD PUSH1 0x0 SWAP1 SLOAD SWAP1 PUSH2 0x100 EXP SWAP1 DIV PUSH20 0xFFFFFFFFFFFFFFFFFFFFFFFFFFFFFFFFFFFFFFFF AND PUSH20 0xFFFFFFFFFFFFFFFFFFFFFFFFFFFFFFFFFFFFFFFF AND PUSH20 0xFFFFFFFFFFFFFFFFFFFFFFFFFFFFFFFFFFFFFFFF AND DUP2 MSTORE PUSH1 0x20 ADD PUSH1 0x4 DUP3 ADD PUSH1 0x0 SWAP1 SLOAD SWAP1 PUSH2 0x100 EXP SWAP1 DIV PUSH20 0xFFFFFFFFFFFFFFFFFFFFFFFFFFFFFFFFFFFFFFFF AND PUSH20 0xFFFFFFFFFFFFFFFFFFFFFFFFFFFFFFFFFFFFFFFF AND PUSH20 0xFFFFFFFFFFFFFFFFFFFFFFFFFFFFFFFFFFFFFFFF AND DUP2 MSTORE PUSH1 0x20 ADD PUSH1 0x5 DUP3 ADD SLOAD DUP2 MSTORE PUSH1 0x20 ADD PUSH1 0x6 DUP3 ADD PUSH1 0x0 SWAP1 SLOAD SWAP1 PUSH2 0x100 EXP SWAP1 DIV PUSH1 0xFF AND ISZERO ISZERO ISZERO ISZERO DUP2 MSTORE POP POP DUP5 DUP7 DUP2 MLOAD DUP2 LT PUSH2 0x596 JUMPI PUSH32 0x4E487B7100000000000000000000000000000000000000000000000000000000 PUSH1 0x0 MSTORE PUSH1 0x32 PUSH1 0x4 MSTORE PUSH1 0x24 PUSH1 0x0 REVERT JUMPDEST PUSH1 0x20 MUL PUSH1 0x20 ADD ADD DUP2 SWAP1 MSTORE POP PUSH1 0x1 DUP6 PUSH2 0x5AE SWAP2 SWAP1 PUSH2 0x1A56 JUMP JUMPDEST SWAP5 POP POP POP JUMPDEST DUP1 DUP1 PUSH2 0x5BE SWAP1 PUSH2 0x1B3A JUMP JUMPDEST SWAP2 POP POP PUSH2 0x370 JUMP JUMPDEST POP DUP1 SWAP5 POP POP POP POP POP SWAP1 JUMP JUMPDEST PUSH2 0x5D9 PUSH2 0x136A JUMP JUMPDEST PUSH2 0x5E3 PUSH1 0x0 PUSH2 0x13F6 JUMP JUMPDEST JUMP JUMPDEST PUSH1 0x0 PUSH1 0x1 PUSH1 0x0 SWAP1 SLOAD SWAP1 PUSH2 0x100 EXP SWAP1 DIV PUSH20 0xFFFFFFFFFFFFFFFFFFFFFFFFFFFFFFFFFFFFFFFF AND SWAP1 POP SWAP1 JUMP JUMPDEST PUSH1 0x60 PUSH1 0x0 PUSH2 0x61D PUSH1 0x2 PUSH2 0x13E8 JUMP JUMPDEST SWAP1 POP PUSH1 0x0 DUP1 PUSH1 0x0 JUMPDEST DUP4 DUP2 LT ISZERO PUSH2 0x6C6 JUMPI CALLER PUSH20 0xFFFFFFFFFFFFFFFFFFFFFFFFFFFFFFFFFFFFFFFF AND PUSH1 0x7 PUSH1 0x0 PUSH1 0x1 DUP5 PUSH2 0x655 SWAP2 SWAP1 PUSH2 0x1A56 JUMP JUMPDEST DUP2 MSTORE PUSH1 0x20 ADD SWAP1 DUP2 MSTORE PUSH1 0x20 ADD PUSH1 0x0 KECCAK256 PUSH1 0x3 ADD PUSH1 0x0 SWAP1 SLOAD SWAP1 PUSH2 0x100 EXP SWAP1 DIV PUSH20 0xFFFFFFFFFFFFFFFFFFFFFFFFFFFFFFFFFFFFFFFF AND PUSH20 0xFFFFFFFFFFFFFFFFFFFFFFFFFFFFFFFFFFFFFFFF AND EQ ISZERO PUSH2 0x6B3 JUMPI PUSH1 0x1 DUP4 PUSH2 0x6B0 SWAP2 SWAP1 PUSH2 0x1A56 JUMP JUMPDEST SWAP3 POP JUMPDEST DUP1 DUP1 PUSH2 0x6BE SWAP1 PUSH2 0x1B3A JUMP JUMPDEST SWAP2 POP POP PUSH2 0x625 JUMP JUMPDEST POP PUSH1 0x0 DUP3 PUSH8 0xFFFFFFFFFFFFFFFF DUP2 GT ISZERO PUSH2 0x709 JUMPI PUSH32 0x4E487B7100000000000000000000000000000000000000000000000000000000 PUSH1 0x0 MSTORE PUSH1 0x41 PUSH1 0x4 MSTORE PUSH1 0x24 PUSH1 0x0 REVERT JUMPDEST PUSH1 0x40 MLOAD SWAP1 DUP1 DUP3 MSTORE DUP1 PUSH1 0x20 MUL PUSH1 0x20 ADD DUP3 ADD PUSH1 0x40 MSTORE DUP1 ISZERO PUSH2 0x742 JUMPI DUP2 PUSH1 0x20 ADD JUMPDEST PUSH2 0x72F PUSH2 0x14DA JUMP JUMPDEST DUP2 MSTORE PUSH1 0x20 ADD SWAP1 PUSH1 0x1 SWAP1 SUB SWAP1 DUP2 PUSH2 0x727 JUMPI SWAP1 POP JUMPDEST POP SWAP1 POP PUSH1 0x0 JUMPDEST DUP5 DUP2 LT ISZERO PUSH2 0x99E JUMPI CALLER PUSH20 0xFFFFFFFFFFFFFFFFFFFFFFFFFFFFFFFFFFFFFFFF AND PUSH1 0x7 PUSH1 0x0 PUSH1 0x1 DUP5 PUSH2 0x778 SWAP2 SWAP1 PUSH2 0x1A56 JUMP JUMPDEST DUP2 MSTORE PUSH1 0x20 ADD SWAP1 DUP2 MSTORE PUSH1 0x20 ADD PUSH1 0x0 KECCAK256 PUSH1 0x3 ADD PUSH1 0x0 SWAP1 SLOAD SWAP1 PUSH2 0x100 EXP SWAP1 DIV PUSH20 0xFFFFFFFFFFFFFFFFFFFFFFFFFFFFFFFFFFFFFFFF AND PUSH20 0xFFFFFFFFFFFFFFFFFFFFFFFFFFFFFFFFFFFFFFFF AND EQ ISZERO PUSH2 0x98B JUMPI PUSH1 0x0 PUSH1 0x1 DUP3 PUSH2 0x7D5 SWAP2 SWAP1 PUSH2 0x1A56 JUMP JUMPDEST SWAP1 POP PUSH1 0x0 PUSH1 0x7 PUSH1 0x0 DUP4 DUP2 MSTORE PUSH1 0x20 ADD SWAP1 DUP2 MSTORE PUSH1 0x20 ADD PUSH1 0x0 KECCAK256 SWAP1 POP DUP1 PUSH1 0x40 MLOAD DUP1 PUSH1 0xE0 ADD PUSH1 0x40 MSTORE SWAP1 DUP2 PUSH1 0x0 DUP3 ADD SLOAD DUP2 MSTORE PUSH1 0x20 ADD PUSH1 0x1 DUP3 ADD PUSH1 0x0 SWAP1 SLOAD SWAP1 PUSH2 0x100 EXP SWAP1 DIV PUSH20 0xFFFFFFFFFFFFFFFFFFFFFFFFFFFFFFFFFFFFFFFF AND PUSH20 0xFFFFFFFFFFFFFFFFFFFFFFFFFFFFFFFFFFFFFFFF AND PUSH20 0xFFFFFFFFFFFFFFFFFFFFFFFFFFFFFFFFFFFFFFFF AND DUP2 MSTORE PUSH1 0x20 ADD PUSH1 0x2 DUP3 ADD SLOAD DUP2 MSTORE PUSH1 0x20 ADD PUSH1 0x3 DUP3 ADD PUSH1 0x0 SWAP1 SLOAD SWAP1 PUSH2 0x100 EXP SWAP1 DIV PUSH20 0xFFFFFFFFFFFFFFFFFFFFFFFFFFFFFFFFFFFFFFFF AND PUSH20 0xFFFFFFFFFFFFFFFFFFFFFFFFFFFFFFFFFFFFFFFF AND PUSH20 0xFFFFFFFFFFFFFFFFFFFFFFFFFFFFFFFFFFFFFFFF AND DUP2 MSTORE PUSH1 0x20 ADD PUSH1 0x4 DUP3 ADD PUSH1 0x0 SWAP1 SLOAD SWAP1 PUSH2 0x100 EXP SWAP1 DIV PUSH20 0xFFFFFFFFFFFFFFFFFFFFFFFFFFFFFFFFFFFFFFFF AND PUSH20 0xFFFFFFFFFFFFFFFFFFFFFFFFFFFFFFFFFFFFFFFF AND PUSH20 0xFFFFFFFFFFFFFFFFFFFFFFFFFFFFFFFFFFFFFFFF AND DUP2 MSTORE PUSH1 0x20 ADD PUSH1 0x5 DUP3 ADD SLOAD DUP2 MSTORE PUSH1 0x20 ADD PUSH1 0x6 DUP3 ADD PUSH1 0x0 SWAP1 SLOAD SWAP1 PUSH2 0x100 EXP SWAP1 DIV PUSH1 0xFF AND ISZERO ISZERO ISZERO ISZERO DUP2 MSTORE POP POP DUP5 DUP7 DUP2 MLOAD DUP2 LT PUSH2 0x96E JUMPI PUSH32 0x4E487B7100000000000000000000000000000000000000000000000000000000 PUSH1 0x0 MSTORE PUSH1 0x32 PUSH1 0x4 MSTORE PUSH1 0x24 PUSH1 0x0 REVERT JUMPDEST PUSH1 0x20 MUL PUSH1 0x20 ADD ADD DUP2 SWAP1 MSTORE POP PUSH1 0x1 DUP6 PUSH2 0x986 SWAP2 SWAP1 PUSH2 0x1A56 JUMP JUMPDEST SWAP5 POP POP POP JUMPDEST DUP1 DUP1 PUSH2 0x996 SWAP1 PUSH2 0x1B3A JUMP JUMPDEST SWAP2 POP POP PUSH2 0x748 JUMP JUMPDEST POP DUP1 SWAP5 POP POP POP POP POP SWAP1 JUMP JUMPDEST PUSH1 0x2 PUSH1 0x0 SLOAD EQ ISZERO PUSH2 0x9EF JUMPI PUSH1 0x40 MLOAD PUSH32 0x8C379A000000000000000000000000000000000000000000000000000000000 DUP2 MSTORE PUSH1 0x4 ADD PUSH2 0x9E6 SWAP1 PUSH2 0x19B1 JUMP JUMPDEST PUSH1 0x40 MLOAD DUP1 SWAP2 SUB SWAP1 REVERT JUMPDEST PUSH1 0x2 PUSH1 0x0 DUP2 SWAP1 SSTORE POP PUSH1 0x0 DUP2 GT PUSH2 0xA3A JUMPI PUSH1 0x40 MLOAD PUSH32 0x8C379A000000000000000000000000000000000000000000000000000000000 DUP2 MSTORE PUSH1 0x4 ADD PUSH2 0xA31 SWAP1 PUSH2 0x1971 JUMP JUMPDEST PUSH1 0x40 MLOAD DUP1 SWAP2 SUB SWAP1 REVERT JUMPDEST PUSH1 0x5 SLOAD CALLVALUE EQ PUSH2 0xA7E JUMPI PUSH1 0x40 MLOAD PUSH32 0x8C379A000000000000000000000000000000000000000000000000000000000 DUP2 MSTORE PUSH1 0x4 ADD PUSH2 0xA75 SWAP1 PUSH2 0x19D1 JUMP JUMPDEST PUSH1 0x40 MLOAD DUP1 SWAP2 SUB SWAP1 REVERT JUMPDEST PUSH2 0xA88 PUSH1 0x2 PUSH2 0x14BC JUMP JUMPDEST PUSH1 0x0 PUSH2 0xA94 PUSH1 0x2 PUSH2 0x13E8 JUMP JUMPDEST SWAP1 POP PUSH1 0x40 MLOAD DUP1 PUSH1 0xE0 ADD PUSH1 0x40 MSTORE DUP1 DUP3 DUP2 MSTORE PUSH1 0x20 ADD DUP6 PUSH20 0xFFFFFFFFFFFFFFFFFFFFFFFFFFFFFFFFFFFFFFFF AND DUP2 MSTORE PUSH1 0x20 ADD DUP5 DUP2 MSTORE PUSH1 0x20 ADD CALLER PUSH20 0xFFFFFFFFFFFFFFFFFFFFFFFFFFFFFFFFFFFFFFFF AND DUP2 MSTORE PUSH1 0x20 ADD PUSH1 0x0 PUSH20 0xFFFFFFFFFFFFFFFFFFFFFFFFFFFFFFFFFFFFFFFF AND DUP2 MSTORE PUSH1 0x20 ADD DUP4 DUP2 MSTORE PUSH1 0x20 ADD PUSH1 0x0 ISZERO ISZERO DUP2 MSTORE POP PUSH1 0x7 PUSH1 0x0 DUP4 DUP2 MSTORE PUSH1 0x20 ADD SWAP1 DUP2 MSTORE PUSH1 0x20 ADD PUSH1 0x0 KECCAK256 PUSH1 0x0 DUP3 ADD MLOAD DUP2 PUSH1 0x0 ADD SSTORE PUSH1 0x20 DUP3 ADD MLOAD DUP2 PUSH1 0x1 ADD PUSH1 0x0 PUSH2 0x100 EXP DUP2 SLOAD DUP2 PUSH20 0xFFFFFFFFFFFFFFFFFFFFFFFFFFFFFFFFFFFFFFFF MUL NOT AND SWAP1 DUP4 PUSH20 0xFFFFFFFFFFFFFFFFFFFFFFFFFFFFFFFFFFFFFFFF AND MUL OR SWAP1 SSTORE POP PUSH1 0x40 DUP3 ADD MLOAD DUP2 PUSH1 0x2 ADD SSTORE PUSH1 0x60 DUP3 ADD MLOAD DUP2 PUSH1 0x3 ADD PUSH1 0x0 PUSH2 0x100 EXP DUP2 SLOAD DUP2 PUSH20 0xFFFFFFFFFFFFFFFFFFFFFFFFFFFFFFFFFFFFFFFF MUL NOT AND SWAP1 DUP4 PUSH20 0xFFFFFFFFFFFFFFFFFFFFFFFFFFFFFFFFFFFFFFFF AND MUL OR SWAP1 SSTORE POP PUSH1 0x80 DUP3 ADD MLOAD DUP2 PUSH1 0x4 ADD PUSH1 0x0 PUSH2 0x100 EXP DUP2 SLOAD DUP2 PUSH20 0xFFFFFFFFFFFFFFFFFFFFFFFFFFFFFFFFFFFFFFFF MUL NOT AND SWAP1 DUP4 PUSH20 0xFFFFFFFFFFFFFFFFFFFFFFFFFFFFFFFFFFFFFFFF AND MUL OR SWAP1 SSTORE POP PUSH1 0xA0 DUP3 ADD MLOAD DUP2 PUSH1 0x5 ADD SSTORE PUSH1 0xC0 DUP3 ADD MLOAD DUP2 PUSH1 0x6 ADD PUSH1 0x0 PUSH2 0x100 EXP DUP2 SLOAD DUP2 PUSH1 0xFF MUL NOT AND SWAP1 DUP4 ISZERO ISZERO MUL OR SWAP1 SSTORE POP SWAP1 POP POP DUP4 PUSH20 0xFFFFFFFFFFFFFFFFFFFFFFFFFFFFFFFFFFFFFFFF AND PUSH4 0x23B872DD CALLER ADDRESS DUP7 PUSH1 0x40 MLOAD DUP5 PUSH4 0xFFFFFFFF AND PUSH1 0xE0 SHL DUP2 MSTORE PUSH1 0x4 ADD PUSH2 0xC75 SWAP4 SWAP3 SWAP2 SWAP1 PUSH2 0x1893 JUMP JUMPDEST PUSH1 0x0 PUSH1 0x40 MLOAD DUP1 DUP4 SUB DUP2 PUSH1 0x0 DUP8 DUP1 EXTCODESIZE ISZERO DUP1 ISZERO PUSH2 0xC8F JUMPI PUSH1 0x0 DUP1 REVERT JUMPDEST POP GAS CALL ISZERO DUP1 ISZERO PUSH2 0xCA3 JUMPI RETURNDATASIZE PUSH1 0x0 DUP1 RETURNDATACOPY RETURNDATASIZE PUSH1 0x0 REVERT JUMPDEST POP POP POP POP DUP3 DUP5 PUSH20 0xFFFFFFFFFFFFFFFFFFFFFFFFFFFFFFFFFFFFFFFF AND DUP3 PUSH32 0x5F244BE10A8D938E3D87696F8EB660AEA498791B881DE4CCB1838BA753270F18 CALLER PUSH1 0x0 DUP8 PUSH1 0x0 PUSH1 0x40 MLOAD PUSH2 0xCF7 SWAP5 SWAP4 SWAP3 SWAP2 SWAP1 PUSH2 0x18CA JUMP JUMPDEST PUSH1 0x40 MLOAD DUP1 SWAP2 SUB SWAP1 LOG4 POP PUSH1 0x1 PUSH1 0x0 DUP2 SWAP1 SSTORE POP POP POP POP JUMP JUMPDEST PUSH1 0x0 PUSH1 0x5 SLOAD SWAP1 POP SWAP1 JUMP JUMPDEST PUSH1 0x60 PUSH1 0x0 PUSH2 0xD25 PUSH1 0x2 PUSH2 0x13E8 JUMP JUMPDEST SWAP1 POP PUSH1 0x0 PUSH2 0xD33 PUSH1 0x3 PUSH2 0x13E8 JUMP JUMPDEST PUSH2 0xD3D PUSH1 0x2 PUSH2 0x13E8 JUMP JUMPDEST PUSH2 0xD47 SWAP2 SWAP1 PUSH2 0x1AAC JUMP JUMPDEST SWAP1 POP PUSH1 0x0 DUP1 DUP3 PUSH8 0xFFFFFFFFFFFFFFFF DUP2 GT ISZERO PUSH2 0xD8C JUMPI PUSH32 0x4E487B7100000000000000000000000000000000000000000000000000000000 PUSH1 0x0 MSTORE PUSH1 0x41 PUSH1 0x4 MSTORE PUSH1 0x24 PUSH1 0x0 REVERT JUMPDEST PUSH1 0x40 MLOAD SWAP1 DUP1 DUP3 MSTORE DUP1 PUSH1 0x20 MUL PUSH1 0x20 ADD DUP3 ADD PUSH1 0x40 MSTORE DUP1 ISZERO PUSH2 0xDC5 JUMPI DUP2 PUSH1 0x20 ADD JUMPDEST PUSH2 0xDB2 PUSH2 0x14DA JUMP JUMPDEST DUP2 MSTORE PUSH1 0x20 ADD SWAP1 PUSH1 0x1 SWAP1 SUB SWAP1 DUP2 PUSH2 0xDAA JUMPI SWAP1 POP JUMPDEST POP SWAP1 POP PUSH1 0x0 JUMPDEST DUP5 DUP2 LT ISZERO PUSH2 0x1022 JUMPI PUSH1 0x0 PUSH20 0xFFFFFFFFFFFFFFFFFFFFFFFFFFFFFFFFFFFFFFFF AND PUSH1 0x7 PUSH1 0x0 PUSH1 0x1 DUP5 PUSH2 0xDFC SWAP2 SWAP1 PUSH2 0x1A56 JUMP JUMPDEST DUP2 MSTORE PUSH1 0x20 ADD SWAP1 DUP2 MSTORE PUSH1 0x20 ADD PUSH1 0x0 KECCAK256 PUSH1 0x4 ADD PUSH1 0x0 SWAP1 SLOAD SWAP1 PUSH2 0x100 EXP SWAP1 DIV PUSH20 0xFFFFFFFFFFFFFFFFFFFFFFFFFFFFFFFFFFFFFFFF AND PUSH20 0xFFFFFFFFFFFFFFFFFFFFFFFFFFFFFFFFFFFFFFFF AND EQ ISZERO PUSH2 0x100F JUMPI PUSH1 0x0 PUSH1 0x1 DUP3 PUSH2 0xE59 SWAP2 SWAP1 PUSH2 0x1A56 JUMP JUMPDEST SWAP1 POP PUSH1 0x0 PUSH1 0x7 PUSH1 0x0 DUP4 DUP2 MSTORE PUSH1 0x20 ADD SWAP1 DUP2 MSTORE PUSH1 0x20 ADD PUSH1 0x0 KECCAK256 SWAP1 POP DUP1 PUSH1 0x40 MLOAD DUP1 PUSH1 0xE0 ADD PUSH1 0x40 MSTORE SWAP1 DUP2 PUSH1 0x0 DUP3 ADD SLOAD DUP2 MSTORE PUSH1 0x20 ADD PUSH1 0x1 DUP3 ADD PUSH1 0x0 SWAP1 SLOAD SWAP1 PUSH2 0x100 EXP SWAP1 DIV PUSH20 0xFFFFFFFFFFFFFFFFFFFFFFFFFFFFFFFFFFFFFFFF AND PUSH20 0xFFFFFFFFFFFFFFFFFFFFFFFFFFFFFFFFFFFFFFFF AND PUSH20 0xFFFFFFFFFFFFFFFFFFFFFFFFFFFFFFFFFFFFFFFF AND DUP2 MSTORE PUSH1 0x20 ADD PUSH1 0x2 DUP3 ADD SLOAD DUP2 MSTORE PUSH1 0x20 ADD PUSH1 0x3 DUP3 ADD PUSH1 0x0 SWAP1 SLOAD SWAP1 PUSH2 0x100 EXP SWAP1 DIV PUSH20 0xFFFFFFFFFFFFFFFFFFFFFFFFFFFFFFFFFFFFFFFF AND PUSH20 0xFFFFFFFFFFFFFFFFFFFFFFFFFFFFFFFFFFFFFFFF AND PUSH20 0xFFFFFFFFFFFFFFFFFFFFFFFFFFFFFFFFFFFFFFFF AND DUP2 MSTORE PUSH1 0x20 ADD PUSH1 0x4 DUP3 ADD PUSH1 0x0 SWAP1 SLOAD SWAP1 PUSH2 0x100 EXP SWAP1 DIV PUSH20 0xFFFFFFFFFFFFFFFFFFFFFFFFFFFFFFFFFFFFFFFF AND PUSH20 0xFFFFFFFFFFFFFFFFFFFFFFFFFFFFFFFFFFFFFFFF AND PUSH20 0xFFFFFFFFFFFFFFFFFFFFFFFFFFFFFFFFFFFFFFFF AND DUP2 MSTORE PUSH1 0x20 ADD PUSH1 0x5 DUP3 ADD SLOAD DUP2 MSTORE PUSH1 0x20 ADD PUSH1 0x6 DUP3 ADD PUSH1 0x0 SWAP1 SLOAD SWAP1 PUSH2 0x100 EXP SWAP1 DIV PUSH1 0xFF AND ISZERO ISZERO ISZERO ISZERO DUP2 MSTORE POP POP DUP5 DUP7 DUP2 MLOAD DUP2 LT PUSH2 0xFF2 JUMPI PUSH32 0x4E487B7100000000000000000000000000000000000000000000000000000000 PUSH1 0x0 MSTORE PUSH1 0x32 PUSH1 0x4 MSTORE PUSH1 0x24 PUSH1 0x0 REVERT JUMPDEST PUSH1 0x20 MUL PUSH1 0x20 ADD ADD DUP2 SWAP1 MSTORE POP PUSH1 0x1 DUP6 PUSH2 0x100A SWAP2 SWAP1 PUSH2 0x1A56 JUMP JUMPDEST SWAP5 POP POP POP JUMPDEST DUP1 DUP1 PUSH2 0x101A SWAP1 PUSH2 0x1B3A JUMP JUMPDEST SWAP2 POP POP PUSH2 0xDCB JUMP JUMPDEST POP DUP1 SWAP5 POP POP POP POP POP SWAP1 JUMP JUMPDEST PUSH1 0x2 PUSH1 0x0 SLOAD EQ ISZERO PUSH2 0x1073 JUMPI PUSH1 0x40 MLOAD PUSH32 0x8C379A000000000000000000000000000000000000000000000000000000000 DUP2 MSTORE PUSH1 0x4 ADD PUSH2 0x106A SWAP1 PUSH2 0x19B1 JUMP JUMPDEST PUSH1 0x40 MLOAD DUP1 SWAP2 SUB SWAP1 REVERT JUMPDEST PUSH1 0x2 PUSH1 0x0 DUP2 SWAP1 SSTORE POP PUSH1 0x0 PUSH1 0x7 PUSH1 0x0 DUP4 DUP2 MSTORE PUSH1 0x20 ADD SWAP1 DUP2 MSTORE PUSH1 0x20 ADD PUSH1 0x0 KECCAK256 PUSH1 0x5 ADD SLOAD SWAP1 POP PUSH1 0x0 PUSH1 0x7 PUSH1 0x0 DUP5 DUP2 MSTORE PUSH1 0x20 ADD SWAP1 DUP2 MSTORE PUSH1 0x20 ADD PUSH1 0x0 KECCAK256 PUSH1 0x2 ADD SLOAD SWAP1 POP DUP2 CALLVALUE EQ PUSH2 0x10F3 JUMPI PUSH1 0x40 MLOAD PUSH32 0x8C379A000000000000000000000000000000000000000000000000000000000 DUP2 MSTORE PUSH1 0x4 ADD PUSH2 0x10EA SWAP1 PUSH2 0x1931 JUMP JUMPDEST PUSH1 0x40 MLOAD DUP1 SWAP2 SUB SWAP1 REVERT JUMPDEST PUSH1 0x7 PUSH1 0x0 DUP5 DUP2 MSTORE PUSH1 0x20 ADD SWAP1 DUP2 MSTORE PUSH1 0x20 ADD PUSH1 0x0 KECCAK256 PUSH1 0x3 ADD PUSH1 0x0 SWAP1 SLOAD SWAP1 PUSH2 0x100 EXP SWAP1 DIV PUSH20 0xFFFFFFFFFFFFFFFFFFFFFFFFFFFFFFFFFFFFFFFF AND PUSH20 0xFFFFFFFFFFFFFFFFFFFFFFFFFFFFFFFFFFFFFFFF AND PUSH2 0x8FC CALLVALUE SWAP1 DUP2 ISZERO MUL SWAP1 PUSH1 0x40 MLOAD PUSH1 0x0 PUSH1 0x40 MLOAD DUP1 DUP4 SUB DUP2 DUP6 DUP9 DUP9 CALL SWAP4 POP POP POP POP ISZERO DUP1 ISZERO PUSH2 0x116F JUMPI RETURNDATASIZE PUSH1 0x0 DUP1 RETURNDATACOPY RETURNDATASIZE PUSH1 0x0 REVERT JUMPDEST POP DUP4 PUSH20 0xFFFFFFFFFFFFFFFFFFFFFFFFFFFFFFFFFFFFFFFF AND PUSH4 0x23B872DD ADDRESS CALLER DUP5 PUSH1 0x40 MLOAD DUP5 PUSH4 0xFFFFFFFF AND PUSH1 0xE0 SHL DUP2 MSTORE PUSH1 0x4 ADD PUSH2 0x11AD SWAP4 SWAP3 SWAP2 SWAP1 PUSH2 0x1893 JUMP JUMPDEST PUSH1 0x0 PUSH1 0x40 MLOAD DUP1 DUP4 SUB DUP2 PUSH1 0x0 DUP8 DUP1 EXTCODESIZE ISZERO DUP1 ISZERO PUSH2 0x11C7 JUMPI PUSH1 0x0 DUP1 REVERT JUMPDEST POP GAS CALL ISZERO DUP1 ISZERO PUSH2 0x11DB JUMPI RETURNDATASIZE PUSH1 0x0 DUP1 RETURNDATACOPY RETURNDATASIZE PUSH1 0x0 REVERT JUMPDEST POP POP POP POP CALLER PUSH1 0x7 PUSH1 0x0 DUP6 DUP2 MSTORE PUSH1 0x20 ADD SWAP1 DUP2 MSTORE PUSH1 0x20 ADD PUSH1 0x0 KECCAK256 PUSH1 0x4 ADD PUSH1 0x0 PUSH2 0x100 EXP DUP2 SLOAD DUP2 PUSH20 0xFFFFFFFFFFFFFFFFFFFFFFFFFFFFFFFFFFFFFFFF MUL NOT AND SWAP1 DUP4 PUSH20 0xFFFFFFFFFFFFFFFFFFFFFFFFFFFFFFFFFFFFFFFF AND MUL OR SWAP1 SSTORE POP PUSH1 0x1 PUSH1 0x7 PUSH1 0x0 DUP6 DUP2 MSTORE PUSH1 0x20 ADD SWAP1 DUP2 MSTORE PUSH1 0x20 ADD PUSH1 0x0 KECCAK256 PUSH1 0x6 ADD PUSH1 0x0 PUSH2 0x100 EXP DUP2 SLOAD DUP2 PUSH1 0xFF MUL NOT AND SWAP1 DUP4 ISZERO ISZERO MUL OR SWAP1 SSTORE POP PUSH2 0x126D PUSH1 0x3 PUSH2 0x14BC JUMP JUMPDEST PUSH1 0x4 PUSH1 0x0 SWAP1 SLOAD SWAP1 PUSH2 0x100 EXP SWAP1 DIV PUSH20 0xFFFFFFFFFFFFFFFFFFFFFFFFFFFFFFFFFFFFFFFF AND PUSH20 0xFFFFFFFFFFFFFFFFFFFFFFFFFFFFFFFFFFFFFFFF AND PUSH2 0x8FC PUSH1 0x5 SLOAD SWAP1 DUP2 ISZERO MUL SWAP1 PUSH1 0x40 MLOAD PUSH1 0x0 PUSH1 0x40 MLOAD DUP1 DUP4 SUB DUP2 DUP6 DUP9 DUP9 CALL SWAP4 POP POP POP POP ISZERO DUP1 ISZERO PUSH2 0x12D7 JUMPI RETURNDATASIZE PUSH1 0x0 DUP1 RETURNDATACOPY RETURNDATASIZE PUSH1 0x0 REVERT JUMPDEST POP POP POP PUSH1 0x1 PUSH1 0x0 DUP2 SWAP1 SSTORE POP POP POP JUMP JUMPDEST PUSH2 0x12EE PUSH2 0x136A JUMP JUMPDEST PUSH1 0x0 PUSH20 0xFFFFFFFFFFFFFFFFFFFFFFFFFFFFFFFFFFFFFFFF AND DUP2 PUSH20 0xFFFFFFFFFFFFFFFFFFFFFFFFFFFFFFFFFFFFFFFF AND EQ ISZERO PUSH2 0x135E JUMPI PUSH1 0x40 MLOAD PUSH32 0x8C379A000000000000000000000000000000000000000000000000000000000 DUP2 MSTORE PUSH1 0x4 ADD PUSH2 0x1355 SWAP1 PUSH2 0x1951 JUMP JUMPDEST PUSH1 0x40 MLOAD DUP1 SWAP2 SUB SWAP1 REVERT JUMPDEST PUSH2 0x1367 DUP2 PUSH2 0x13F6 JUMP JUMPDEST POP JUMP JUMPDEST PUSH2 0x1372 PUSH2 0x14D2 JUMP JUMPDEST PUSH20 0xFFFFFFFFFFFFFFFFFFFFFFFFFFFFFFFFFFFFFFFF AND PUSH2 0x1390 PUSH2 0x5E5 JUMP JUMPDEST PUSH20 0xFFFFFFFFFFFFFFFFFFFFFFFFFFFFFFFFFFFFFFFF AND EQ PUSH2 0x13E6 JUMPI PUSH1 0x40 MLOAD PUSH32 0x8C379A000000000000000000000000000000000000000000000000000000000 DUP2 MSTORE PUSH1 0x4 ADD PUSH2 0x13DD SWAP1 PUSH2 0x1991 JUMP JUMPDEST PUSH1 0x40 MLOAD DUP1 SWAP2 SUB SWAP1 REVERT JUMPDEST JUMP JUMPDEST PUSH1 0x0 DUP2 PUSH1 0x0 ADD SLOAD SWAP1 POP SWAP2 SWAP1 POP JUMP JUMPDEST PUSH1 0x0 PUSH1 0x1 PUSH1 0x0 SWAP1 SLOAD SWAP1 PUSH2 0x100 EXP SWAP1 DIV PUSH20 0xFFFFFFFFFFFFFFFFFFFFFFFFFFFFFFFFFFFFFFFF AND SWAP1 POP DUP2 PUSH1 0x1 PUSH1 0x0 PUSH2 0x100 EXP DUP2 SLOAD DUP2 PUSH20 0xFFFFFFFFFFFFFFFFFFFFFFFFFFFFFFFFFFFFFFFF MUL NOT AND SWAP1 DUP4 PUSH20 0xFFFFFFFFFFFFFFFFFFFFFFFFFFFFFFFFFFFFFFFF AND MUL OR SWAP1 SSTORE POP DUP2 PUSH20 0xFFFFFFFFFFFFFFFFFFFFFFFFFFFFFFFFFFFFFFFF AND DUP2 PUSH20 0xFFFFFFFFFFFFFFFFFFFFFFFFFFFFFFFFFFFFFFFF AND PUSH32 0x8BE0079C531659141344CD1FD0A4F28419497F9722A3DAAFE3B4186F6B6457E0 PUSH1 0x40 MLOAD PUSH1 0x40 MLOAD DUP1 SWAP2 SUB SWAP1 LOG3 POP POP JUMP JUMPDEST PUSH1 0x1 DUP2 PUSH1 0x0 ADD PUSH1 0x0 DUP3 DUP3 SLOAD ADD SWAP3 POP POP DUP2 SWAP1 SSTORE POP POP JUMP JUMPDEST PUSH1 0x0 CALLER SWAP1 POP SWAP1 JUMP JUMPDEST PUSH1 0x40 MLOAD DUP1 PUSH1 0xE0 ADD PUSH1 0x40 MSTORE DUP1 PUSH1 0x0 DUP2 MSTORE PUSH1 0x20 ADD PUSH1 0x0 PUSH20 0xFFFFFFFFFFFFFFFFFFFFFFFFFFFFFFFFFFFFFFFF AND DUP2 MSTORE PUSH1 0x20 ADD PUSH1 0x0 DUP2 MSTORE PUSH1 0x20 ADD PUSH1 0x0 PUSH20 0xFFFFFFFFFFFFFFFFFFFFFFFFFFFFFFFFFFFFFFFF AND DUP2 MSTORE PUSH1 0x20 ADD PUSH1 0x0 PUSH20 0xFFFFFFFFFFFFFFFFFFFFFFFFFFFFFFFFFFFFFFFF AND DUP2 MSTORE PUSH1 0x20 ADD PUSH1 0x0 DUP2 MSTORE PUSH1 0x20 ADD PUSH1 0x0 ISZERO ISZERO DUP2 MSTORE POP SWAP1 JUMP JUMPDEST PUSH1 0x0 DUP2 CALLDATALOAD SWAP1 POP PUSH2 0x156A DUP2 PUSH2 0x1CF4 JUMP JUMPDEST SWAP3 SWAP2 POP POP JUMP JUMPDEST PUSH1 0x0 DUP2 CALLDATALOAD SWAP1 POP PUSH2 0x157F DUP2 PUSH2 0x1D0B JUMP JUMPDEST SWAP3 SWAP2 POP POP JUMP JUMPDEST PUSH1 0x0 PUSH1 0x20 DUP3 DUP5 SUB SLT ISZERO PUSH2 0x1597 JUMPI PUSH1 0x0 DUP1 REVERT JUMPDEST PUSH1 0x0 PUSH2 0x15A5 DUP5 DUP3 DUP6 ADD PUSH2 0x155B JUMP JUMPDEST SWAP2 POP POP SWAP3 SWAP2 POP POP JUMP JUMPDEST PUSH1 0x0 DUP1 PUSH1 0x40 DUP4 DUP6 SUB SLT ISZERO PUSH2 0x15C1 JUMPI PUSH1 0x0 DUP1 REVERT JUMPDEST PUSH1 0x0 PUSH2 0x15CF DUP6 DUP3 DUP7 ADD PUSH2 0x155B JUMP JUMPDEST SWAP3 POP POP PUSH1 0x20 PUSH2 0x15E0 DUP6 DUP3 DUP7 ADD PUSH2 0x1570 JUMP JUMPDEST SWAP2 POP POP SWAP3 POP SWAP3 SWAP1 POP JUMP JUMPDEST PUSH1 0x0 DUP1 PUSH1 0x0 PUSH1 0x60 DUP5 DUP7 SUB SLT ISZERO PUSH2 0x15FF JUMPI PUSH1 0x0 DUP1 REVERT JUMPDEST PUSH1 0x0 PUSH2 0x160D DUP7 DUP3 DUP8 ADD PUSH2 0x155B JUMP JUMPDEST SWAP4 POP POP PUSH1 0x20 PUSH2 0x161E DUP7 DUP3 DUP8 ADD PUSH2 0x1570 JUMP JUMPDEST SWAP3 POP POP PUSH1 0x40 PUSH2 0x162F DUP7 DUP3 DUP8 ADD PUSH2 0x1570 JUMP JUMPDEST SWAP2 POP POP SWAP3 POP SWAP3 POP SWAP3 JUMP JUMPDEST PUSH1 0x0 PUSH2 0x1645 DUP4 DUP4 PUSH2 0x17CC JUMP JUMPDEST PUSH1 0xE0 DUP4 ADD SWAP1 POP SWAP3 SWAP2 POP POP JUMP JUMPDEST PUSH2 0x165A DUP2 PUSH2 0x1AF2 JUMP JUMPDEST DUP3 MSTORE POP POP JUMP JUMPDEST PUSH2 0x1669 DUP2 PUSH2 0x1AE0 JUMP JUMPDEST DUP3 MSTORE POP POP JUMP JUMPDEST PUSH2 0x1678 DUP2 PUSH2 0x1AE0 JUMP JUMPDEST DUP3 MSTORE POP POP JUMP JUMPDEST PUSH1 0x0 PUSH2 0x1689 DUP3 PUSH2 0x1A1C JUMP JUMPDEST PUSH2 0x1693 DUP2 DUP6 PUSH2 0x1A34 JUMP JUMPDEST SWAP4 POP PUSH2 0x169E DUP4 PUSH2 0x1A0C JUMP JUMPDEST DUP1 PUSH1 0x0 JUMPDEST DUP4 DUP2 LT ISZERO PUSH2 0x16CF JUMPI DUP2 MLOAD PUSH2 0x16B6 DUP9 DUP3 PUSH2 0x1639 JUMP JUMPDEST SWAP8 POP PUSH2 0x16C1 DUP4 PUSH2 0x1A27 JUMP JUMPDEST SWAP3 POP POP PUSH1 0x1 DUP2 ADD SWAP1 POP PUSH2 0x16A2 JUMP JUMPDEST POP DUP6 SWAP4 POP POP POP POP SWAP3 SWAP2 POP POP JUMP JUMPDEST PUSH2 0x16E5 DUP2 PUSH2 0x1B04 JUMP JUMPDEST DUP3 MSTORE POP POP JUMP JUMPDEST PUSH2 0x16F4 DUP2 PUSH2 0x1B04 JUMP JUMPDEST DUP3 MSTORE POP POP JUMP JUMPDEST PUSH1 0x0 PUSH2 0x1707 PUSH1 0x2A DUP4 PUSH2 0x1A45 JUMP JUMPDEST SWAP2 POP PUSH2 0x1712 DUP3 PUSH2 0x1BB2 JUMP JUMPDEST PUSH1 0x40 DUP3 ADD SWAP1 POP SWAP2 SWAP1 POP JUMP JUMPDEST PUSH1 0x0 PUSH2 0x172A PUSH1 0x26 DUP4 PUSH2 0x1A45 JUMP JUMPDEST SWAP2 POP PUSH2 0x1735 DUP3 PUSH2 0x1C01 JUMP JUMPDEST PUSH1 0x40 DUP3 ADD SWAP1 POP SWAP2 SWAP1 POP JUMP JUMPDEST PUSH1 0x0 PUSH2 0x174D PUSH1 0x14 DUP4 PUSH2 0x1A45 JUMP JUMPDEST SWAP2 POP PUSH2 0x1758 DUP3 PUSH2 0x1C50 JUMP JUMPDEST PUSH1 0x20 DUP3 ADD SWAP1 POP SWAP2 SWAP1 POP JUMP JUMPDEST PUSH1 0x0 PUSH2 0x1770 PUSH1 0x20 DUP4 PUSH2 0x1A45 JUMP JUMPDEST SWAP2 POP PUSH2 0x177B DUP3 PUSH2 0x1C79 JUMP JUMPDEST PUSH1 0x20 DUP3 ADD SWAP1 POP SWAP2 SWAP1 POP JUMP JUMPDEST PUSH1 0x0 PUSH2 0x1793 PUSH1 0x1F DUP4 PUSH2 0x1A45 JUMP JUMPDEST SWAP2 POP PUSH2 0x179E DUP3 PUSH2 0x1CA2 JUMP JUMPDEST PUSH1 0x20 DUP3 ADD SWAP1 POP SWAP2 SWAP1 POP JUMP JUMPDEST PUSH1 0x0 PUSH2 0x17B6 PUSH1 0x1B DUP4 PUSH2 0x1A45 JUMP JUMPDEST SWAP2 POP PUSH2 0x17C1 DUP3 PUSH2 0x1CCB JUMP JUMPDEST PUSH1 0x20 DUP3 ADD SWAP1 POP SWAP2 SWAP1 POP JUMP JUMPDEST PUSH1 0xE0 DUP3 ADD PUSH1 0x0 DUP3 ADD MLOAD PUSH2 0x17E2 PUSH1 0x0 DUP6 ADD DUP3 PUSH2 0x185A JUMP JUMPDEST POP PUSH1 0x20 DUP3 ADD MLOAD PUSH2 0x17F5 PUSH1 0x20 DUP6 ADD DUP3 PUSH2 0x1660 JUMP JUMPDEST POP PUSH1 0x40 DUP3 ADD MLOAD PUSH2 0x1808 PUSH1 0x40 DUP6 ADD DUP3 PUSH2 0x185A JUMP JUMPDEST POP PUSH1 0x60 DUP3 ADD MLOAD PUSH2 0x181B PUSH1 0x60 DUP6 ADD DUP3 PUSH2 0x1651 JUMP JUMPDEST POP PUSH1 0x80 DUP3 ADD MLOAD PUSH2 0x182E PUSH1 0x80 DUP6 ADD DUP3 PUSH2 0x1651 JUMP JUMPDEST POP PUSH1 0xA0 DUP3 ADD MLOAD PUSH2 0x1841 PUSH1 0xA0 DUP6 ADD DUP3 PUSH2 0x185A JUMP JUMPDEST POP PUSH1 0xC0 DUP3 ADD MLOAD PUSH2 0x1854 PUSH1 0xC0 DUP6 ADD DUP3 PUSH2 0x16DC JUMP JUMPDEST POP POP POP POP JUMP JUMPDEST PUSH2 0x1863 DUP2 PUSH2 0x1B30 JUMP JUMPDEST DUP3 MSTORE POP POP JUMP JUMPDEST PUSH2 0x1872 DUP2 PUSH2 0x1B30 JUMP JUMPDEST DUP3 MSTORE POP POP JUMP JUMPDEST PUSH1 0x0 PUSH1 0x20 DUP3 ADD SWAP1 POP PUSH2 0x188D PUSH1 0x0 DUP4 ADD DUP5 PUSH2 0x166F JUMP JUMPDEST SWAP3 SWAP2 POP POP JUMP JUMPDEST PUSH1 0x0 PUSH1 0x60 DUP3 ADD SWAP1 POP PUSH2 0x18A8 PUSH1 0x0 DUP4 ADD DUP7 PUSH2 0x166F JUMP JUMPDEST PUSH2 0x18B5 PUSH1 0x20 DUP4 ADD DUP6 PUSH2 0x166F JUMP JUMPDEST PUSH2 0x18C2 PUSH1 0x40 DUP4 ADD DUP5 PUSH2 0x1869 JUMP JUMPDEST SWAP5 SWAP4 POP POP POP POP JUMP JUMPDEST PUSH1 0x0 PUSH1 0x80 DUP3 ADD SWAP1 POP PUSH2 0x18DF PUSH1 0x0 DUP4 ADD DUP8 PUSH2 0x166F JUMP JUMPDEST PUSH2 0x18EC PUSH1 0x20 DUP4 ADD DUP7 PUSH2 0x166F JUMP JUMPDEST PUSH2 0x18F9 PUSH1 0x40 DUP4 ADD DUP6 PUSH2 0x1869 JUMP JUMPDEST PUSH2 0x1906 PUSH1 0x60 DUP4 ADD DUP5 PUSH2 0x16EB JUMP JUMPDEST SWAP6 SWAP5 POP POP POP POP POP JUMP JUMPDEST PUSH1 0x0 PUSH1 0x20 DUP3 ADD SWAP1 POP DUP2 DUP2 SUB PUSH1 0x0 DUP4 ADD MSTORE PUSH2 0x1929 DUP2 DUP5 PUSH2 0x167E JUMP JUMPDEST SWAP1 POP SWAP3 SWAP2 POP POP JUMP JUMPDEST PUSH1 0x0 PUSH1 0x20 DUP3 ADD SWAP1 POP DUP2 DUP2 SUB PUSH1 0x0 DUP4 ADD MSTORE PUSH2 0x194A DUP2 PUSH2 0x16FA JUMP JUMPDEST SWAP1 POP SWAP2 SWAP1 POP JUMP JUMPDEST PUSH1 0x0 PUSH1 0x20 DUP3 ADD SWAP1 POP DUP2 DUP2 SUB PUSH1 0x0 DUP4 ADD MSTORE PUSH2 0x196A DUP2 PUSH2 0x171D JUMP JUMPDEST SWAP1 POP SWAP2 SWAP1 POP JUMP JUMPDEST PUSH1 0x0 PUSH1 0x20 DUP3 ADD SWAP1 POP DUP2 DUP2 SUB PUSH1 0x0 DUP4 ADD MSTORE PUSH2 0x198A DUP2 PUSH2 0x1740 JUMP JUMPDEST SWAP1 POP SWAP2 SWAP1 POP JUMP JUMPDEST PUSH1 0x0 PUSH1 0x20 DUP3 ADD SWAP1 POP DUP2 DUP2 SUB PUSH1 0x0 DUP4 ADD MSTORE PUSH2 0x19AA DUP2 PUSH2 0x1763 JUMP JUMPDEST SWAP1 POP SWAP2 SWAP1 POP JUMP JUMPDEST PUSH1 0x0 PUSH1 0x20 DUP3 ADD SWAP1 POP DUP2 DUP2 SUB PUSH1 0x0 DUP4 ADD MSTORE PUSH2 0x19CA DUP2 PUSH2 0x1786 JUMP JUMPDEST SWAP1 POP SWAP2 SWAP1 POP JUMP JUMPDEST PUSH1 0x0 PUSH1 0x20 DUP3 ADD SWAP1 POP DUP2 DUP2 SUB PUSH1 0x0 DUP4 ADD MSTORE PUSH2 0x19EA DUP2 PUSH2 0x17A9 JUMP JUMPDEST SWAP1 POP SWAP2 SWAP1 POP JUMP JUMPDEST PUSH1 0x0 PUSH1 0x20 DUP3 ADD SWAP1 POP PUSH2 0x1A06 PUSH1 0x0 DUP4 ADD DUP5 PUSH2 0x1869 JUMP JUMPDEST SWAP3 SWAP2 POP POP JUMP JUMPDEST PUSH1 0x0 DUP2 SWAP1 POP PUSH1 0x20 DUP3 ADD SWAP1 POP SWAP2 SWAP1 POP JUMP JUMPDEST PUSH1 0x0 DUP2 MLOAD SWAP1 POP SWAP2 SWAP1 POP JUMP JUMPDEST PUSH1 0x0 PUSH1 0x20 DUP3 ADD SWAP1 POP SWAP2 SWAP1 POP JUMP JUMPDEST PUSH1 0x0 DUP3 DUP3 MSTORE PUSH1 0x20 DUP3 ADD SWAP1 POP SWAP3 SWAP2 POP POP JUMP JUMPDEST PUSH1 0x0 DUP3 DUP3 MSTORE PUSH1 0x20 DUP3 ADD SWAP1 POP SWAP3 SWAP2 POP POP JUMP JUMPDEST PUSH1 0x0 PUSH2 0x1A61 DUP3 PUSH2 0x1B30 JUMP JUMPDEST SWAP2 POP PUSH2 0x1A6C DUP4 PUSH2 0x1B30 JUMP JUMPDEST SWAP3 POP DUP3 PUSH32 0xFFFFFFFFFFFFFFFFFFFFFFFFFFFFFFFFFFFFFFFFFFFFFFFFFFFFFFFFFFFFFFFF SUB DUP3 GT ISZERO PUSH2 0x1AA1 JUMPI PUSH2 0x1AA0 PUSH2 0x1B83 JUMP JUMPDEST JUMPDEST DUP3 DUP3 ADD SWAP1 POP SWAP3 SWAP2 POP POP JUMP JUMPDEST PUSH1 0x0 PUSH2 0x1AB7 DUP3 PUSH2 0x1B30 JUMP JUMPDEST SWAP2 POP PUSH2 0x1AC2 DUP4 PUSH2 0x1B30 JUMP JUMPDEST SWAP3 POP DUP3 DUP3 LT ISZERO PUSH2 0x1AD5 JUMPI PUSH2 0x1AD4 PUSH2 0x1B83 JUMP JUMPDEST JUMPDEST DUP3 DUP3 SUB SWAP1 POP SWAP3 SWAP2 POP POP JUMP JUMPDEST PUSH1 0x0 PUSH2 0x1AEB DUP3 PUSH2 0x1B10 JUMP JUMPDEST SWAP1 POP SWAP2 SWAP1 POP JUMP JUMPDEST PUSH1 0x0 PUSH2 0x1AFD DUP3 PUSH2 0x1B10 JUMP JUMPDEST SWAP1 POP SWAP2 SWAP1 POP JUMP JUMPDEST PUSH1 0x0 DUP2 ISZERO ISZERO SWAP1 POP SWAP2 SWAP1 POP JUMP JUMPDEST PUSH1 0x0 PUSH20 0xFFFFFFFFFFFFFFFFFFFFFFFFFFFFFFFFFFFFFFFF DUP3 AND SWAP1 POP SWAP2 SWAP1 POP JUMP JUMPDEST PUSH1 0x0 DUP2 SWAP1 POP SWAP2 SWAP1 POP JUMP JUMPDEST PUSH1 0x0 PUSH2 0x1B45 DUP3 PUSH2 0x1B30 JUMP JUMPDEST SWAP2 POP PUSH32 0xFFFFFFFFFFFFFFFFFFFFFFFFFFFFFFFFFFFFFFFFFFFFFFFFFFFFFFFFFFFFFFFF DUP3 EQ ISZERO PUSH2 0x1B78 JUMPI PUSH2 0x1B77 PUSH2 0x1B83 JUMP JUMPDEST JUMPDEST PUSH1 0x1 DUP3 ADD SWAP1 POP SWAP2 SWAP1 POP JUMP JUMPDEST PUSH32 0x4E487B7100000000000000000000000000000000000000000000000000000000 PUSH1 0x0 MSTORE PUSH1 0x11 PUSH1 0x4 MSTORE PUSH1 0x24 PUSH1 0x0 REVERT JUMPDEST PUSH32 0x4E6F7420656E6F7567682062616C616E636520746F20636F6D706C6574652074 PUSH1 0x0 DUP3 ADD MSTORE PUSH32 0x72616E73616374696F6E00000000000000000000000000000000000000000000 PUSH1 0x20 DUP3 ADD MSTORE POP JUMP JUMPDEST PUSH32 0x4F776E61626C653A206E6577206F776E657220697320746865207A65726F2061 PUSH1 0x0 DUP3 ADD MSTORE PUSH32 0x6464726573730000000000000000000000000000000000000000000000000000 PUSH1 0x20 DUP3 ADD MSTORE POP JUMP JUMPDEST PUSH32 0x50726963652063616E6E6F74206265207A65726F000000000000000000000000 PUSH1 0x0 DUP3 ADD MSTORE POP JUMP JUMPDEST PUSH32 0x4F776E61626C653A2063616C6C6572206973206E6F7420746865206F776E6572 PUSH1 0x0 DUP3 ADD MSTORE POP JUMP JUMPDEST PUSH32 0x5265656E7472616E637947756172643A207265656E7472616E742063616C6C00 PUSH1 0x0 DUP3 ADD MSTORE POP JUMP JUMPDEST PUSH32 0x50726963652063616E6E6F74206265206C697374696E67206665650000000000 PUSH1 0x0 DUP3 ADD MSTORE POP JUMP JUMPDEST PUSH2 0x1CFD DUP2 PUSH2 0x1AE0 JUMP JUMPDEST DUP2 EQ PUSH2 0x1D08 JUMPI PUSH1 0x0 DUP1 REVERT JUMPDEST POP JUMP JUMPDEST PUSH2 0x1D14 DUP2 PUSH2 0x1B30 JUMP JUMPDEST DUP2 EQ PUSH2 0x1D1F JUMPI PUSH1 0x0 DUP1 REVERT JUMPDEST POP JUMP INVALID LOG2 PUSH5 0x6970667358 0x22 SLT KECCAK256 DIFFICULTY 0x2E 0x5C 0xAB PUSH4 0x4A9E4538 0xDD 0xBC PUSH26 0x5ECFAF7138AFBCE3C857B4D97BAF0BA9F2E8CAF264736F6C6343 STOP ADDMOD DIV STOP CALLER "
				},
				"gasEstimates": {
					"creation": {
						"codeDepositCost": "1502400",
						"executionCost": "infinite",
						"totalCost": "infinite"
					},
					"external": {
						"createVaultItem(address,uint256,uint256)": "infinite",
						"getAvailableNft()": "infinite",
						"getListingFee()": "1159",
						"getMyMarketNfts()": "infinite",
						"getMyNft()": "infinite",
						"n2DMarketSale(address,uint256)": "infinite",
						"owner()": "1289",
						"renounceOwnership()": "24443",
						"transferOwnership(address)": "24835",
						"withdraw()": "infinite"
					}
				},
				"methodIdentifiers": {
					"createVaultItem(address,uint256,uint256)": "a706ac21",
					"getAvailableNft()": "d438b986",
					"getListingFee()": "b8fe6abe",
					"getMyMarketNfts()": "9fd01cd1",
					"getMyNft()": "6f2e30c0",
					"n2DMarketSale(address,uint256)": "d6c6bd5c",
					"owner()": "8da5cb5b",
					"renounceOwnership()": "715018a6",
					"transferOwnership(address)": "f2fde38b",
					"withdraw()": "3ccfd60b"
				}
			},
			"storageLayout": {
				"storage": [
					{
						"astId": 123,
						"contract": "market.sol:n2DMarket",
						"label": "_status",
						"offset": 0,
						"slot": "0",
						"type": "t_uint256"
					},
					{
						"astId": 7,
						"contract": "market.sol:n2DMarket",
						"label": "_owner",
						"offset": 0,
						"slot": "1",
						"type": "t_address"
					},
					{
						"astId": 1850,
						"contract": "market.sol:n2DMarket",
						"label": "_itemIds",
						"offset": 0,
						"slot": "2",
						"type": "t_struct(Counter)1503_storage"
					},
					{
						"astId": 1853,
						"contract": "market.sol:n2DMarket",
						"label": "_itemsSold",
						"offset": 0,
						"slot": "3",
						"type": "t_struct(Counter)1503_storage"
					},
					{
						"astId": 1855,
						"contract": "market.sol:n2DMarket",
						"label": "holder",
						"offset": 0,
						"slot": "4",
						"type": "t_address_payable"
					},
					{
						"astId": 1858,
						"contract": "market.sol:n2DMarket",
						"label": "listingFee",
						"offset": 0,
						"slot": "5",
						"type": "t_uint256"
					},
					{
						"astId": 1861,
						"contract": "market.sol:n2DMarket",
						"label": "mintingFee",
						"offset": 0,
						"slot": "6",
						"type": "t_uint256"
					},
					{
						"astId": 1893,
						"contract": "market.sol:n2DMarket",
						"label": "idToVaultItem",
						"offset": 0,
						"slot": "7",
						"type": "t_mapping(t_uint256,t_struct(VaultItem)1888_storage)"
					}
				],
				"types": {
					"t_address": {
						"encoding": "inplace",
						"label": "address",
						"numberOfBytes": "20"
					},
					"t_address_payable": {
						"encoding": "inplace",
						"label": "address payable",
						"numberOfBytes": "20"
					},
					"t_bool": {
						"encoding": "inplace",
						"label": "bool",
						"numberOfBytes": "1"
					},
					"t_mapping(t_uint256,t_struct(VaultItem)1888_storage)": {
						"encoding": "mapping",
						"key": "t_uint256",
						"label": "mapping(uint256 => struct n2DMarket.VaultItem)",
						"numberOfBytes": "32",
						"value": "t_struct(VaultItem)1888_storage"
					},
					"t_struct(Counter)1503_storage": {
						"encoding": "inplace",
						"label": "struct Counters.Counter",
						"members": [
							{
								"astId": 1502,
								"contract": "market.sol:n2DMarket",
								"label": "_value",
								"offset": 0,
								"slot": "0",
								"type": "t_uint256"
							}
						],
						"numberOfBytes": "32"
					},
					"t_struct(VaultItem)1888_storage": {
						"encoding": "inplace",
						"label": "struct n2DMarket.VaultItem",
						"members": [
							{
								"astId": 1875,
								"contract": "market.sol:n2DMarket",
								"label": "itemId",
								"offset": 0,
								"slot": "0",
								"type": "t_uint256"
							},
							{
								"astId": 1877,
								"contract": "market.sol:n2DMarket",
								"label": "nftContract",
								"offset": 0,
								"slot": "1",
								"type": "t_address"
							},
							{
								"astId": 1879,
								"contract": "market.sol:n2DMarket",
								"label": "tokenId",
								"offset": 0,
								"slot": "2",
								"type": "t_uint256"
							},
							{
								"astId": 1881,
								"contract": "market.sol:n2DMarket",
								"label": "seller",
								"offset": 0,
								"slot": "3",
								"type": "t_address_payable"
							},
							{
								"astId": 1883,
								"contract": "market.sol:n2DMarket",
								"label": "holder",
								"offset": 0,
								"slot": "4",
								"type": "t_address_payable"
							},
							{
								"astId": 1885,
								"contract": "market.sol:n2DMarket",
								"label": "price",
								"offset": 0,
								"slot": "5",
								"type": "t_uint256"
							},
							{
								"astId": 1887,
								"contract": "market.sol:n2DMarket",
								"label": "sold",
								"offset": 0,
								"slot": "6",
								"type": "t_bool"
							}
						],
						"numberOfBytes": "224"
					},
					"t_uint256": {
						"encoding": "inplace",
						"label": "uint256",
						"numberOfBytes": "32"
					}
				}
			},
			"userdoc": {
				"kind": "user",
				"methods": {},
				"version": 1
			}
		}
	}
}