{
	"contracts/betting.sol": {
		"DistanceFiBET": {
			"abi": [
				{
					"inputs": [],
					"stateMutability": "nonpayable",
					"type": "constructor"
				},
				{
					"inputs": [
						{
							"internalType": "uint256",
							"name": "",
							"type": "uint256"
						}
					],
					"name": "Game",
					"outputs": [
						{
							"internalType": "string",
							"name": "HomeTeam",
							"type": "string"
						},
						{
							"internalType": "string",
							"name": "AwayTeam",
							"type": "string"
						},
						{
							"internalType": "uint256",
							"name": "startTime",
							"type": "uint256"
						},
						{
							"internalType": "uint256",
							"name": "endTime",
							"type": "uint256"
						},
						{
							"components": [
								{
									"internalType": "uint256",
									"name": "Home_score",
									"type": "uint256"
								},
								{
									"internalType": "uint256",
									"name": "Away_score",
									"type": "uint256"
								}
							],
							"internalType": "struct DistanceFiBET.Results",
							"name": "results",
							"type": "tuple"
						}
					],
					"stateMutability": "view",
					"type": "function"
				},
				{
					"inputs": [],
					"name": "admin",
					"outputs": [
						{
							"internalType": "address",
							"name": "",
							"type": "address"
						}
					],
					"stateMutability": "view",
					"type": "function"
				},
				{
					"inputs": [
						{
							"internalType": "uint256",
							"name": "",
							"type": "uint256"
						}
					],
					"name": "allMatch",
					"outputs": [
						{
							"internalType": "string",
							"name": "HomeTeam",
							"type": "string"
						},
						{
							"internalType": "string",
							"name": "AwayTeam",
							"type": "string"
						},
						{
							"internalType": "uint256",
							"name": "startTime",
							"type": "uint256"
						},
						{
							"internalType": "uint256",
							"name": "endTime",
							"type": "uint256"
						},
						{
							"components": [
								{
									"internalType": "uint256",
									"name": "Home_score",
									"type": "uint256"
								},
								{
									"internalType": "uint256",
									"name": "Away_score",
									"type": "uint256"
								}
							],
							"internalType": "struct DistanceFiBET.Results",
							"name": "results",
							"type": "tuple"
						}
					],
					"stateMutability": "view",
					"type": "function"
				},
				{
					"inputs": [
						{
							"internalType": "uint256",
							"name": "epoch",
							"type": "uint256"
						},
						{
							"internalType": "uint256",
							"name": "_homeScore",
							"type": "uint256"
						},
						{
							"internalType": "uint256",
							"name": "_awayScore",
							"type": "uint256"
						}
					],
					"name": "closeMatch",
					"outputs": [],
					"stateMutability": "nonpayable",
					"type": "function"
				},
				{
					"inputs": [
						{
							"internalType": "string",
							"name": "_HomeTeam",
							"type": "string"
						},
						{
							"internalType": "string",
							"name": "_AwayTeam",
							"type": "string"
						},
						{
							"internalType": "uint256",
							"name": "_startTime",
							"type": "uint256"
						}
					],
					"name": "instantiateMatch",
					"outputs": [
						{
							"internalType": "bool",
							"name": "",
							"type": "bool"
						}
					],
					"stateMutability": "nonpayable",
					"type": "function"
				},
				{
					"inputs": [
						{
							"internalType": "uint256",
							"name": "epoch",
							"type": "uint256"
						},
						{
							"internalType": "enum DistanceFiBET.Choices",
							"name": "_betChoice",
							"type": "uint8"
						}
					],
					"name": "placeBet",
					"outputs": [],
					"stateMutability": "payable",
					"type": "function"
				},
				{
					"inputs": [
						{
							"internalType": "uint256",
							"name": "",
							"type": "uint256"
						}
					],
					"name": "specificMatchBets",
					"outputs": [
						{
							"internalType": "address",
							"name": "bettor",
							"type": "address"
						},
						{
							"internalType": "uint256",
							"name": "amount",
							"type": "uint256"
						},
						{
							"internalType": "enum DistanceFiBET.Choices",
							"name": "choice",
							"type": "uint8"
						}
					],
					"stateMutability": "view",
					"type": "function"
				},
				{
					"inputs": [
						{
							"internalType": "uint256",
							"name": "epoch",
							"type": "uint256"
						},
						{
							"internalType": "enum DistanceFiBET.Choices",
							"name": "_betChoice",
							"type": "uint8"
						}
					],
					"name": "updateBet",
					"outputs": [],
					"stateMutability": "nonpayable",
					"type": "function"
				},
				{
					"inputs": [
						{
							"internalType": "address",
							"name": "",
							"type": "address"
						},
						{
							"internalType": "uint256",
							"name": "",
							"type": "uint256"
						}
					],
					"name": "userBet",
					"outputs": [
						{
							"internalType": "enum DistanceFiBET.Choices",
							"name": "bet",
							"type": "uint8"
						},
						{
							"internalType": "uint256",
							"name": "winAmounts",
							"type": "uint256"
						},
						{
							"internalType": "uint256",
							"name": "betAmount",
							"type": "uint256"
						},
						{
							"internalType": "bool",
							"name": "played",
							"type": "bool"
						}
					],
					"stateMutability": "view",
					"type": "function"
				}
			],
			"devdoc": {
				"kind": "dev",
				"methods": {},
				"version": 1
			},
			"evm": {
				"assembly": "    /* \"contracts/betting.sol\":63:2694  contract DistanceFiBET{... */\n  mstore(0x40, 0x80)\n    /* \"contracts/betting.sol\":817:867  constructor(){... */\n  callvalue\n  dup1\n  iszero\n  tag_1\n  jumpi\n  0x00\n  dup1\n  revert\ntag_1:\n  pop\n    /* \"contracts/betting.sol\":849:859  msg.sender */\n  caller\n    /* \"contracts/betting.sol\":841:846  admin */\n  0x00\n  dup1\n    /* \"contracts/betting.sol\":841:859  admin = msg.sender */\n  0x0100\n  exp\n  dup2\n  sload\n  dup2\n  0xffffffffffffffffffffffffffffffffffffffff\n  mul\n  not\n  and\n  swap1\n  dup4\n  0xffffffffffffffffffffffffffffffffffffffff\n  and\n  mul\n  or\n  swap1\n  sstore\n  pop\n    /* \"contracts/betting.sol\":63:2694  contract DistanceFiBET{... */\n  dataSize(sub_0)\n  dup1\n  dataOffset(sub_0)\n  0x00\n  codecopy\n  0x00\n  return\nstop\n\nsub_0: assembly {\n        /* \"contracts/betting.sol\":63:2694  contract DistanceFiBET{... */\n      mstore(0x40, 0x80)\n      jumpi(tag_1, lt(calldatasize, 0x04))\n      shr(0xe0, calldataload(0x00))\n      dup1\n      0x5fbc88ad\n      gt\n      tag_11\n      jumpi\n      dup1\n      0x5fbc88ad\n      eq\n      tag_6\n      jumpi\n      dup1\n      0xb2edb39f\n      eq\n      tag_7\n      jumpi\n      dup1\n      0xbc9e6e2c\n      eq\n      tag_8\n      jumpi\n      dup1\n      0xec7361a8\n      eq\n      tag_9\n      jumpi\n      dup1\n      0xf851a440\n      eq\n      tag_10\n      jumpi\n      jump(tag_1)\n    tag_11:\n      dup1\n      0x03edf914\n      eq\n      tag_2\n      jumpi\n      dup1\n      0x15a3ae71\n      eq\n      tag_3\n      jumpi\n      dup1\n      0x2172ff16\n      eq\n      tag_4\n      jumpi\n      dup1\n      0x4195ab8e\n      eq\n      tag_5\n      jumpi\n    tag_1:\n      0x00\n      dup1\n      revert\n        /* \"contracts/betting.sol\":1852:2305  function placeBet(uint epoch, Choices _betChoice) payable external {... */\n    tag_2:\n      tag_12\n      0x04\n      dup1\n      calldatasize\n      sub\n      dup2\n      add\n      swap1\n      tag_13\n      swap2\n      swap1\n      tag_14\n      jump\t// in\n    tag_13:\n      tag_15\n      jump\t// in\n    tag_12:\n      stop\n        /* \"contracts/betting.sol\":771:805  allBets[] public specificMatchBets */\n    tag_3:\n      callvalue\n      dup1\n      iszero\n      tag_16\n      jumpi\n      0x00\n      dup1\n      revert\n    tag_16:\n      pop\n      tag_17\n      0x04\n      dup1\n      calldatasize\n      sub\n      dup2\n      add\n      swap1\n      tag_18\n      swap2\n      swap1\n      tag_19\n      jump\t// in\n    tag_18:\n      tag_20\n      jump\t// in\n    tag_17:\n      mload(0x40)\n      tag_21\n      swap4\n      swap3\n      swap2\n      swap1\n      tag_22\n      jump\t// in\n    tag_21:\n      mload(0x40)\n      dup1\n      swap2\n      sub\n      swap1\n      return\n        /* \"contracts/betting.sol\":531:566  mapping (uint => Match) public Game */\n    tag_4:\n      callvalue\n      dup1\n      iszero\n      tag_23\n      jumpi\n      0x00\n      dup1\n      revert\n    tag_23:\n      pop\n      tag_24\n      0x04\n      dup1\n      calldatasize\n      sub\n      dup2\n      add\n      swap1\n      tag_25\n      swap2\n      swap1\n      tag_19\n      jump\t// in\n    tag_25:\n      tag_26\n      jump\t// in\n    tag_24:\n      mload(0x40)\n      tag_27\n      swap6\n      swap5\n      swap4\n      swap3\n      swap2\n      swap1\n      tag_28\n      jump\t// in\n    tag_27:\n      mload(0x40)\n      dup1\n      swap2\n      sub\n      swap1\n      return\n        /* \"contracts/betting.sol\":573:633  mapping (address => mapping (uint => Bettor)) public userBet */\n    tag_5:\n      callvalue\n      dup1\n      iszero\n      tag_29\n      jumpi\n      0x00\n      dup1\n      revert\n    tag_29:\n      pop\n      tag_30\n      0x04\n      dup1\n      calldatasize\n      sub\n      dup2\n      add\n      swap1\n      tag_31\n      swap2\n      swap1\n      tag_32\n      jump\t// in\n    tag_31:\n      tag_33\n      jump\t// in\n    tag_30:\n      mload(0x40)\n      tag_34\n      swap5\n      swap4\n      swap3\n      swap2\n      swap1\n      tag_35\n      jump\t// in\n    tag_34:\n      mload(0x40)\n      dup1\n      swap2\n      sub\n      swap1\n      return\n        /* \"contracts/betting.sol\":2313:2486  function updateBet(uint epoch, Choices _betChoice) external  {... */\n    tag_6:\n      callvalue\n      dup1\n      iszero\n      tag_36\n      jumpi\n      0x00\n      dup1\n      revert\n    tag_36:\n      pop\n      tag_37\n      0x04\n      dup1\n      calldatasize\n      sub\n      dup2\n      add\n      swap1\n      tag_38\n      swap2\n      swap1\n      tag_14\n      jump\t// in\n    tag_38:\n      tag_39\n      jump\t// in\n    tag_37:\n      stop\n        /* \"contracts/betting.sol\":640:664  Match [] public allMatch */\n    tag_7:\n      callvalue\n      dup1\n      iszero\n      tag_40\n      jumpi\n      0x00\n      dup1\n      revert\n    tag_40:\n      pop\n      tag_41\n      0x04\n      dup1\n      calldatasize\n      sub\n      dup2\n      add\n      swap1\n      tag_42\n      swap2\n      swap1\n      tag_19\n      jump\t// in\n    tag_42:\n      tag_43\n      jump\t// in\n    tag_41:\n      mload(0x40)\n      tag_44\n      swap6\n      swap5\n      swap4\n      swap3\n      swap2\n      swap1\n      tag_28\n      jump\t// in\n    tag_44:\n      mload(0x40)\n      dup1\n      swap2\n      sub\n      swap1\n      return\n        /* \"contracts/betting.sol\":875:1405  function instantiateMatch(string calldata _HomeTeam, string calldata _AwayTeam, uint _startTime) external returns (bool) {... */\n    tag_8:\n      callvalue\n      dup1\n      iszero\n      tag_45\n      jumpi\n      0x00\n      dup1\n      revert\n    tag_45:\n      pop\n      tag_46\n      0x04\n      dup1\n      calldatasize\n      sub\n      dup2\n      add\n      swap1\n      tag_47\n      swap2\n      swap1\n      tag_48\n      jump\t// in\n    tag_47:\n      tag_49\n      jump\t// in\n    tag_46:\n      mload(0x40)\n      tag_50\n      swap2\n      swap1\n      tag_51\n      jump\t// in\n    tag_50:\n      mload(0x40)\n      dup1\n      swap2\n      sub\n      swap1\n      return\n        /* \"contracts/betting.sol\":1413:1844  function closeMatch(uint epoch, uint _homeScore, uint _awayScore) external {... */\n    tag_9:\n      callvalue\n      dup1\n      iszero\n      tag_52\n      jumpi\n      0x00\n      dup1\n      revert\n    tag_52:\n      pop\n      tag_53\n      0x04\n      dup1\n      calldatasize\n      sub\n      dup2\n      add\n      swap1\n      tag_54\n      swap2\n      swap1\n      tag_55\n      jump\t// in\n    tag_54:\n      tag_56\n      jump\t// in\n    tag_53:\n      stop\n        /* \"contracts/betting.sol\":148:168  address public admin */\n    tag_10:\n      callvalue\n      dup1\n      iszero\n      tag_57\n      jumpi\n      0x00\n      dup1\n      revert\n    tag_57:\n      pop\n      tag_58\n      tag_59\n      jump\t// in\n    tag_58:\n      mload(0x40)\n      tag_60\n      swap2\n      swap1\n      tag_61\n      jump\t// in\n    tag_60:\n      mload(0x40)\n      dup1\n      swap2\n      sub\n      swap1\n      return\n        /* \"contracts/betting.sol\":1852:2305  function placeBet(uint epoch, Choices _betChoice) payable external {... */\n    tag_15:\n        /* \"contracts/betting.sol\":1975:1980  false */\n      0x00\n        /* \"contracts/betting.sol\":1938:1980  userBet[msg.sender][epoch].played == false */\n      iszero\n      iszero\n        /* \"contracts/betting.sol\":1938:1945  userBet */\n      0x02\n        /* \"contracts/betting.sol\":1938:1957  userBet[msg.sender] */\n      0x00\n        /* \"contracts/betting.sol\":1946:1956  msg.sender */\n      caller\n        /* \"contracts/betting.sol\":1938:1957  userBet[msg.sender] */\n      0xffffffffffffffffffffffffffffffffffffffff\n      and\n      0xffffffffffffffffffffffffffffffffffffffff\n      and\n      dup2\n      mstore\n      0x20\n      add\n      swap1\n      dup2\n      mstore\n      0x20\n      add\n      0x00\n      keccak256\n        /* \"contracts/betting.sol\":1938:1964  userBet[msg.sender][epoch] */\n      0x00\n        /* \"contracts/betting.sol\":1958:1963  epoch */\n      dup5\n        /* \"contracts/betting.sol\":1938:1964  userBet[msg.sender][epoch] */\n      dup2\n      mstore\n      0x20\n      add\n      swap1\n      dup2\n      mstore\n      0x20\n      add\n      0x00\n      keccak256\n        /* \"contracts/betting.sol\":1938:1971  userBet[msg.sender][epoch].played */\n      0x03\n      add\n      0x00\n      swap1\n      sload\n      swap1\n      0x0100\n      exp\n      swap1\n      div\n      0xff\n      and\n        /* \"contracts/betting.sol\":1938:1980  userBet[msg.sender][epoch].played == false */\n      iszero\n      iszero\n      eq\n        /* \"contracts/betting.sol\":1930:2023  require(userBet[msg.sender][epoch].played == false, \"You can only play once! Update instead\") */\n      tag_63\n      jumpi\n      mload(0x40)\n      0x08c379a000000000000000000000000000000000000000000000000000000000\n      dup2\n      mstore\n      0x04\n      add\n      tag_64\n      swap1\n      tag_65\n      jump\t// in\n    tag_64:\n      mload(0x40)\n      dup1\n      swap2\n      sub\n      swap1\n      revert\n    tag_63:\n        /* \"contracts/betting.sol\":2055:2062  1 ether */\n      0x0de0b6b3a7640000\n        /* \"contracts/betting.sol\":2042:2051  msg.value */\n      callvalue\n        /* \"contracts/betting.sol\":2042:2062  msg.value == 1 ether */\n      eq\n        /* \"contracts/betting.sol\":2034:2099  require(msg.value == 1 ether, \"Bet Amount is less than required\") */\n      tag_66\n      jumpi\n      mload(0x40)\n      0x08c379a000000000000000000000000000000000000000000000000000000000\n      dup2\n      mstore\n      0x04\n      add\n      tag_67\n      swap1\n      tag_68\n      jump\t// in\n    tag_67:\n      mload(0x40)\n      dup1\n      swap2\n      sub\n      swap1\n      revert\n    tag_66:\n        /* \"contracts/betting.sol\":2110:2125  uint _betAmount */\n      0x00\n        /* \"contracts/betting.sol\":2128:2137  msg.value */\n      callvalue\n        /* \"contracts/betting.sol\":2110:2137  uint _betAmount = msg.value */\n      swap1\n      pop\n        /* \"contracts/betting.sol\":2177:2216  Bettor(_betChoice, 0, _betAmount, true) */\n      mload(0x40)\n      dup1\n      0x80\n      add\n      0x40\n      mstore\n      dup1\n        /* \"contracts/betting.sol\":2184:2194  _betChoice */\n      dup4\n        /* \"contracts/betting.sol\":2177:2216  Bettor(_betChoice, 0, _betAmount, true) */\n      0x03\n      dup2\n      gt\n      iszero\n      tag_69\n      jumpi\n      tag_70\n      tag_71\n      jump\t// in\n    tag_70:\n    tag_69:\n      dup2\n      mstore\n      0x20\n      add\n        /* \"contracts/betting.sol\":2196:2197  0 */\n      0x00\n        /* \"contracts/betting.sol\":2177:2216  Bettor(_betChoice, 0, _betAmount, true) */\n      dup2\n      mstore\n      0x20\n      add\n        /* \"contracts/betting.sol\":2199:2209  _betAmount */\n      dup3\n        /* \"contracts/betting.sol\":2177:2216  Bettor(_betChoice, 0, _betAmount, true) */\n      dup2\n      mstore\n      0x20\n      add\n        /* \"contracts/betting.sol\":2211:2215  true */\n      0x01\n        /* \"contracts/betting.sol\":2177:2216  Bettor(_betChoice, 0, _betAmount, true) */\n      iszero\n      iszero\n      dup2\n      mstore\n      pop\n        /* \"contracts/betting.sol\":2148:2155  userBet */\n      0x02\n        /* \"contracts/betting.sol\":2148:2167  userBet[msg.sender] */\n      0x00\n        /* \"contracts/betting.sol\":2156:2166  msg.sender */\n      caller\n        /* \"contracts/betting.sol\":2148:2167  userBet[msg.sender] */\n      0xffffffffffffffffffffffffffffffffffffffff\n      and\n      0xffffffffffffffffffffffffffffffffffffffff\n      and\n      dup2\n      mstore\n      0x20\n      add\n      swap1\n      dup2\n      mstore\n      0x20\n      add\n      0x00\n      keccak256\n        /* \"contracts/betting.sol\":2148:2174  userBet[msg.sender][epoch] */\n      0x00\n        /* \"contracts/betting.sol\":2168:2173  epoch */\n      dup6\n        /* \"contracts/betting.sol\":2148:2174  userBet[msg.sender][epoch] */\n      dup2\n      mstore\n      0x20\n      add\n      swap1\n      dup2\n      mstore\n      0x20\n      add\n      0x00\n      keccak256\n        /* \"contracts/betting.sol\":2148:2216  userBet[msg.sender][epoch] = Bettor(_betChoice, 0, _betAmount, true) */\n      0x00\n      dup3\n      add\n      mload\n      dup2\n      0x00\n      add\n      exp(0x0100, 0x00)\n      dup2\n      sload\n      dup2\n      0xff\n      mul\n      not\n      and\n      swap1\n      dup4\n      0x03\n      dup2\n      gt\n      iszero\n      tag_72\n      jumpi\n      tag_73\n      tag_71\n      jump\t// in\n    tag_73:\n    tag_72:\n      mul\n      or\n      swap1\n      sstore\n      pop\n      0x20\n      dup3\n      add\n      mload\n      dup2\n      0x01\n      add\n      sstore\n      0x40\n      dup3\n      add\n      mload\n      dup2\n      0x02\n      add\n      sstore\n      0x60\n      dup3\n      add\n      mload\n      dup2\n      0x03\n      add\n      exp(0x0100, 0x00)\n      dup2\n      sload\n      dup2\n      0xff\n      mul\n      not\n      and\n      swap1\n      dup4\n      iszero\n      iszero\n      mul\n      or\n      swap1\n      sstore\n      pop\n      swap1\n      pop\n      pop\n        /* \"contracts/betting.sol\":2254:2297  allBets(msg.sender, _betAmount, _betChoice) */\n      mload(0x40)\n      dup1\n      0x60\n      add\n      0x40\n      mstore\n      dup1\n        /* \"contracts/betting.sol\":2262:2272  msg.sender */\n      caller\n        /* \"contracts/betting.sol\":2254:2297  allBets(msg.sender, _betAmount, _betChoice) */\n      0xffffffffffffffffffffffffffffffffffffffff\n      and\n      dup2\n      mstore\n      0x20\n      add\n        /* \"contracts/betting.sol\":2274:2284  _betAmount */\n      dup3\n        /* \"contracts/betting.sol\":2254:2297  allBets(msg.sender, _betAmount, _betChoice) */\n      dup2\n      mstore\n      0x20\n      add\n        /* \"contracts/betting.sol\":2286:2296  _betChoice */\n      dup4\n        /* \"contracts/betting.sol\":2254:2297  allBets(msg.sender, _betAmount, _betChoice) */\n      0x03\n      dup2\n      gt\n      iszero\n      tag_74\n      jumpi\n      tag_75\n      tag_71\n      jump\t// in\n    tag_75:\n    tag_74:\n      dup2\n      mstore\n      pop\n        /* \"contracts/betting.sol\":2227:2244  specificMatchBets */\n      0x04\n        /* \"contracts/betting.sol\":2245:2250  epoch */\n      dup5\n        /* \"contracts/betting.sol\":2227:2251  specificMatchBets[epoch] */\n      dup2\n      sload\n      dup2\n      lt\n      tag_76\n      jumpi\n      tag_77\n      tag_78\n      jump\t// in\n    tag_77:\n    tag_76:\n      swap1\n      0x00\n      mstore\n      keccak256(0x00, 0x20)\n      swap1\n      0x03\n      mul\n      add\n        /* \"contracts/betting.sol\":2227:2297  specificMatchBets[epoch] = allBets(msg.sender, _betAmount, _betChoice) */\n      0x00\n      dup3\n      add\n      mload\n      dup2\n      0x00\n      add\n      exp(0x0100, 0x00)\n      dup2\n      sload\n      dup2\n      0xffffffffffffffffffffffffffffffffffffffff\n      mul\n      not\n      and\n      swap1\n      dup4\n      0xffffffffffffffffffffffffffffffffffffffff\n      and\n      mul\n      or\n      swap1\n      sstore\n      pop\n      0x20\n      dup3\n      add\n      mload\n      dup2\n      0x01\n      add\n      sstore\n      0x40\n      dup3\n      add\n      mload\n      dup2\n      0x02\n      add\n      exp(0x0100, 0x00)\n      dup2\n      sload\n      dup2\n      0xff\n      mul\n      not\n      and\n      swap1\n      dup4\n      0x03\n      dup2\n      gt\n      iszero\n      tag_80\n      jumpi\n      tag_81\n      tag_71\n      jump\t// in\n    tag_81:\n    tag_80:\n      mul\n      or\n      swap1\n      sstore\n      pop\n      swap1\n      pop\n      pop\n        /* \"contracts/betting.sol\":1919:2305  {... */\n      pop\n        /* \"contracts/betting.sol\":1852:2305  function placeBet(uint epoch, Choices _betChoice) payable external {... */\n      pop\n      pop\n      jump\t// out\n        /* \"contracts/betting.sol\":771:805  allBets[] public specificMatchBets */\n    tag_20:\n      0x04\n      dup2\n      dup2\n      sload\n      dup2\n      lt\n      tag_82\n      jumpi\n      0x00\n      dup1\n      revert\n    tag_82:\n      swap1\n      0x00\n      mstore\n      keccak256(0x00, 0x20)\n      swap1\n      0x03\n      mul\n      add\n      0x00\n      swap2\n      pop\n      swap1\n      pop\n      dup1\n      0x00\n      add\n      0x00\n      swap1\n      sload\n      swap1\n      0x0100\n      exp\n      swap1\n      div\n      0xffffffffffffffffffffffffffffffffffffffff\n      and\n      swap1\n      dup1\n      0x01\n      add\n      sload\n      swap1\n      dup1\n      0x02\n      add\n      0x00\n      swap1\n      sload\n      swap1\n      0x0100\n      exp\n      swap1\n      div\n      0xff\n      and\n      swap1\n      pop\n      dup4\n      jump\t// out\n        /* \"contracts/betting.sol\":531:566  mapping (uint => Match) public Game */\n    tag_26:\n      mstore(0x20, 0x01)\n      dup1\n      0x00\n      mstore\n      keccak256(0x00, 0x40)\n      0x00\n      swap2\n      pop\n      swap1\n      pop\n      dup1\n      0x00\n      add\n      dup1\n      sload\n      tag_84\n      swap1\n      tag_85\n      jump\t// in\n    tag_84:\n      dup1\n      0x1f\n      add\n      0x20\n      dup1\n      swap2\n      div\n      mul\n      0x20\n      add\n      mload(0x40)\n      swap1\n      dup2\n      add\n      0x40\n      mstore\n      dup1\n      swap3\n      swap2\n      swap1\n      dup2\n      dup2\n      mstore\n      0x20\n      add\n      dup3\n      dup1\n      sload\n      tag_86\n      swap1\n      tag_85\n      jump\t// in\n    tag_86:\n      dup1\n      iszero\n      tag_87\n      jumpi\n      dup1\n      0x1f\n      lt\n      tag_88\n      jumpi\n      0x0100\n      dup1\n      dup4\n      sload\n      div\n      mul\n      dup4\n      mstore\n      swap2\n      0x20\n      add\n      swap2\n      jump(tag_87)\n    tag_88:\n      dup3\n      add\n      swap2\n      swap1\n      0x00\n      mstore\n      keccak256(0x00, 0x20)\n      swap1\n    tag_89:\n      dup2\n      sload\n      dup2\n      mstore\n      swap1\n      0x01\n      add\n      swap1\n      0x20\n      add\n      dup1\n      dup4\n      gt\n      tag_89\n      jumpi\n      dup3\n      swap1\n      sub\n      0x1f\n      and\n      dup3\n      add\n      swap2\n    tag_87:\n      pop\n      pop\n      pop\n      pop\n      pop\n      swap1\n      dup1\n      0x01\n      add\n      dup1\n      sload\n      tag_90\n      swap1\n      tag_85\n      jump\t// in\n    tag_90:\n      dup1\n      0x1f\n      add\n      0x20\n      dup1\n      swap2\n      div\n      mul\n      0x20\n      add\n      mload(0x40)\n      swap1\n      dup2\n      add\n      0x40\n      mstore\n      dup1\n      swap3\n      swap2\n      swap1\n      dup2\n      dup2\n      mstore\n      0x20\n      add\n      dup3\n      dup1\n      sload\n      tag_91\n      swap1\n      tag_85\n      jump\t// in\n    tag_91:\n      dup1\n      iszero\n      tag_92\n      jumpi\n      dup1\n      0x1f\n      lt\n      tag_93\n      jumpi\n      0x0100\n      dup1\n      dup4\n      sload\n      div\n      mul\n      dup4\n      mstore\n      swap2\n      0x20\n      add\n      swap2\n      jump(tag_92)\n    tag_93:\n      dup3\n      add\n      swap2\n      swap1\n      0x00\n      mstore\n      keccak256(0x00, 0x20)\n      swap1\n    tag_94:\n      dup2\n      sload\n      dup2\n      mstore\n      swap1\n      0x01\n      add\n      swap1\n      0x20\n      add\n      dup1\n      dup4\n      gt\n      tag_94\n      jumpi\n      dup3\n      swap1\n      sub\n      0x1f\n      and\n      dup3\n      add\n      swap2\n    tag_92:\n      pop\n      pop\n      pop\n      pop\n      pop\n      swap1\n      dup1\n      0x02\n      add\n      sload\n      swap1\n      dup1\n      0x03\n      add\n      sload\n      swap1\n      dup1\n      0x04\n      add\n      mload(0x40)\n      dup1\n      0x40\n      add\n      0x40\n      mstore\n      swap1\n      dup2\n      0x00\n      dup3\n      add\n      sload\n      dup2\n      mstore\n      0x20\n      add\n      0x01\n      dup3\n      add\n      sload\n      dup2\n      mstore\n      pop\n      pop\n      swap1\n      pop\n      dup6\n      jump\t// out\n        /* \"contracts/betting.sol\":573:633  mapping (address => mapping (uint => Bettor)) public userBet */\n    tag_33:\n      mstore(0x20, 0x02)\n      dup2\n      0x00\n      mstore\n      mstore(0x20, keccak256(0x00, 0x40))\n      dup1\n      0x00\n      mstore\n      keccak256(0x00, 0x40)\n      0x00\n      swap2\n      pop\n      swap2\n      pop\n      pop\n      dup1\n      0x00\n      add\n      0x00\n      swap1\n      sload\n      swap1\n      0x0100\n      exp\n      swap1\n      div\n      0xff\n      and\n      swap1\n      dup1\n      0x01\n      add\n      sload\n      swap1\n      dup1\n      0x02\n      add\n      sload\n      swap1\n      dup1\n      0x03\n      add\n      0x00\n      swap1\n      sload\n      swap1\n      0x0100\n      exp\n      swap1\n      div\n      0xff\n      and\n      swap1\n      pop\n      dup5\n      jump\t// out\n        /* \"contracts/betting.sol\":2313:2486  function updateBet(uint epoch, Choices _betChoice) external  {... */\n    tag_39:\n        /* \"contracts/betting.sol\":2385:2401  uint currentTime */\n      0x00\n        /* \"contracts/betting.sol\":2404:2419  block.timestamp */\n      timestamp\n        /* \"contracts/betting.sol\":2385:2419  uint currentTime = block.timestamp */\n      swap1\n      pop\n        /* \"contracts/betting.sol\":2452:2456  Game */\n      0x01\n        /* \"contracts/betting.sol\":2452:2463  Game[epoch] */\n      0x00\n        /* \"contracts/betting.sol\":2457:2462  epoch */\n      dup5\n        /* \"contracts/betting.sol\":2452:2463  Game[epoch] */\n      dup2\n      mstore\n      0x20\n      add\n      swap1\n      dup2\n      mstore\n      0x20\n      add\n      0x00\n      keccak256\n        /* \"contracts/betting.sol\":2452:2471  Game[epoch].endTime */\n      0x03\n      add\n      sload\n        /* \"contracts/betting.sol\":2438:2449  currentTime */\n      dup2\n        /* \"contracts/betting.sol\":2438:2471  currentTime < Game[epoch].endTime */\n      lt\n        /* \"contracts/betting.sol\":2430:2478  require(currentTime < Game[epoch].endTime, \"Ga\") */\n      tag_96\n      jumpi\n      mload(0x40)\n      0x08c379a000000000000000000000000000000000000000000000000000000000\n      dup2\n      mstore\n      0x04\n      add\n      tag_97\n      swap1\n      tag_98\n      jump\t// in\n    tag_97:\n      mload(0x40)\n      dup1\n      swap2\n      sub\n      swap1\n      revert\n    tag_96:\n        /* \"contracts/betting.sol\":2374:2486  {... */\n      pop\n        /* \"contracts/betting.sol\":2313:2486  function updateBet(uint epoch, Choices _betChoice) external  {... */\n      pop\n      pop\n      jump\t// out\n        /* \"contracts/betting.sol\":640:664  Match [] public allMatch */\n    tag_43:\n      0x03\n      dup2\n      dup2\n      sload\n      dup2\n      lt\n      tag_99\n      jumpi\n      0x00\n      dup1\n      revert\n    tag_99:\n      swap1\n      0x00\n      mstore\n      keccak256(0x00, 0x20)\n      swap1\n      0x06\n      mul\n      add\n      0x00\n      swap2\n      pop\n      swap1\n      pop\n      dup1\n      0x00\n      add\n      dup1\n      sload\n      tag_101\n      swap1\n      tag_85\n      jump\t// in\n    tag_101:\n      dup1\n      0x1f\n      add\n      0x20\n      dup1\n      swap2\n      div\n      mul\n      0x20\n      add\n      mload(0x40)\n      swap1\n      dup2\n      add\n      0x40\n      mstore\n      dup1\n      swap3\n      swap2\n      swap1\n      dup2\n      dup2\n      mstore\n      0x20\n      add\n      dup3\n      dup1\n      sload\n      tag_102\n      swap1\n      tag_85\n      jump\t// in\n    tag_102:\n      dup1\n      iszero\n      tag_103\n      jumpi\n      dup1\n      0x1f\n      lt\n      tag_104\n      jumpi\n      0x0100\n      dup1\n      dup4\n      sload\n      div\n      mul\n      dup4\n      mstore\n      swap2\n      0x20\n      add\n      swap2\n      jump(tag_103)\n    tag_104:\n      dup3\n      add\n      swap2\n      swap1\n      0x00\n      mstore\n      keccak256(0x00, 0x20)\n      swap1\n    tag_105:\n      dup2\n      sload\n      dup2\n      mstore\n      swap1\n      0x01\n      add\n      swap1\n      0x20\n      add\n      dup1\n      dup4\n      gt\n      tag_105\n      jumpi\n      dup3\n      swap1\n      sub\n      0x1f\n      and\n      dup3\n      add\n      swap2\n    tag_103:\n      pop\n      pop\n      pop\n      pop\n      pop\n      swap1\n      dup1\n      0x01\n      add\n      dup1\n      sload\n      tag_106\n      swap1\n      tag_85\n      jump\t// in\n    tag_106:\n      dup1\n      0x1f\n      add\n      0x20\n      dup1\n      swap2\n      div\n      mul\n      0x20\n      add\n      mload(0x40)\n      swap1\n      dup2\n      add\n      0x40\n      mstore\n      dup1\n      swap3\n      swap2\n      swap1\n      dup2\n      dup2\n      mstore\n      0x20\n      add\n      dup3\n      dup1\n      sload\n      tag_107\n      swap1\n      tag_85\n      jump\t// in\n    tag_107:\n      dup1\n      iszero\n      tag_108\n      jumpi\n      dup1\n      0x1f\n      lt\n      tag_109\n      jumpi\n      0x0100\n      dup1\n      dup4\n      sload\n      div\n      mul\n      dup4\n      mstore\n      swap2\n      0x20\n      add\n      swap2\n      jump(tag_108)\n    tag_109:\n      dup3\n      add\n      swap2\n      swap1\n      0x00\n      mstore\n      keccak256(0x00, 0x20)\n      swap1\n    tag_110:\n      dup2\n      sload\n      dup2\n      mstore\n      swap1\n      0x01\n      add\n      swap1\n      0x20\n      add\n      dup1\n      dup4\n      gt\n      tag_110\n      jumpi\n      dup3\n      swap1\n      sub\n      0x1f\n      and\n      dup3\n      add\n      swap2\n    tag_108:\n      pop\n      pop\n      pop\n      pop\n      pop\n      swap1\n      dup1\n      0x02\n      add\n      sload\n      swap1\n      dup1\n      0x03\n      add\n      sload\n      swap1\n      dup1\n      0x04\n      add\n      mload(0x40)\n      dup1\n      0x40\n      add\n      0x40\n      mstore\n      swap1\n      dup2\n      0x00\n      dup3\n      add\n      sload\n      dup2\n      mstore\n      0x20\n      add\n      0x01\n      dup3\n      add\n      sload\n      dup2\n      mstore\n      pop\n      pop\n      swap1\n      pop\n      dup6\n      jump\t// out\n        /* \"contracts/betting.sol\":875:1405  function instantiateMatch(string calldata _HomeTeam, string calldata _AwayTeam, uint _startTime) external returns (bool) {... */\n    tag_49:\n        /* \"contracts/betting.sol\":990:994  bool */\n      0x00\n        /* \"contracts/betting.sol\":1024:1034  msg.sender */\n      caller\n        /* \"contracts/betting.sol\":1015:1034  admin == msg.sender */\n      0xffffffffffffffffffffffffffffffffffffffff\n      and\n        /* \"contracts/betting.sol\":1015:1020  admin */\n      0x00\n      dup1\n      sload\n      swap1\n      0x0100\n      exp\n      swap1\n      div\n      0xffffffffffffffffffffffffffffffffffffffff\n      and\n        /* \"contracts/betting.sol\":1015:1034  admin == msg.sender */\n      0xffffffffffffffffffffffffffffffffffffffff\n      and\n      eq\n        /* \"contracts/betting.sol\":1007:1048  require(admin == msg.sender, \"Not Owner\") */\n      tag_112\n      jumpi\n      mload(0x40)\n      0x08c379a000000000000000000000000000000000000000000000000000000000\n      dup2\n      mstore\n      0x04\n      add\n      tag_113\n      swap1\n      tag_114\n      jump\t// in\n    tag_113:\n      mload(0x40)\n      dup1\n      swap2\n      sub\n      swap1\n      revert\n    tag_112:\n        /* \"contracts/betting.sol\":1059:1072  uint matchEnd */\n      0x00\n        /* \"contracts/betting.sol\":1088:1098  95 seconds */\n      0x5f\n        /* \"contracts/betting.sol\":1075:1085  _startTime */\n      dup4\n        /* \"contracts/betting.sol\":1075:1098  _startTime + 95 seconds */\n      tag_115\n      swap2\n      swap1\n      tag_116\n      jump\t// in\n    tag_115:\n        /* \"contracts/betting.sol\":1059:1098  uint matchEnd = _startTime + 95 seconds */\n      swap1\n      pop\n        /* \"contracts/betting.sol\":1109:1139  Results memory startingResults */\n      0x00\n        /* \"contracts/betting.sol\":1142:1155  Results(0, 0) */\n      mload(0x40)\n      dup1\n      0x40\n      add\n      0x40\n      mstore\n      dup1\n        /* \"contracts/betting.sol\":1150:1151  0 */\n      0x00\n        /* \"contracts/betting.sol\":1142:1155  Results(0, 0) */\n      dup2\n      mstore\n      0x20\n      add\n        /* \"contracts/betting.sol\":1153:1154  0 */\n      0x00\n        /* \"contracts/betting.sol\":1142:1155  Results(0, 0) */\n      dup2\n      mstore\n      pop\n        /* \"contracts/betting.sol\":1109:1155  Results memory startingResults = Results(0, 0) */\n      swap1\n      pop\n        /* \"contracts/betting.sol\":1166:1175  uint game */\n      0x00\n        /* \"contracts/betting.sol\":1178:1186  allMatch */\n      0x03\n        /* \"contracts/betting.sol\":1178:1193  allMatch.length */\n      dup1\n      sload\n      swap1\n      pop\n        /* \"contracts/betting.sol\":1166:1193  uint game = allMatch.length */\n      swap1\n      pop\n        /* \"contracts/betting.sol\":1217:1283  Match(_HomeTeam, _AwayTeam, _startTime, matchEnd, startingResults) */\n      mload(0x40)\n      dup1\n      0xa0\n      add\n      0x40\n      mstore\n      dup1\n        /* \"contracts/betting.sol\":1223:1232  _HomeTeam */\n      dup11\n      dup11\n        /* \"contracts/betting.sol\":1217:1283  Match(_HomeTeam, _AwayTeam, _startTime, matchEnd, startingResults) */\n      dup1\n      dup1\n      0x1f\n      add\n      0x20\n      dup1\n      swap2\n      div\n      mul\n      0x20\n      add\n      mload(0x40)\n      swap1\n      dup2\n      add\n      0x40\n      mstore\n      dup1\n      swap4\n      swap3\n      swap2\n      swap1\n      dup2\n      dup2\n      mstore\n      0x20\n      add\n      dup4\n      dup4\n      dup1\n      dup3\n      dup5\n      calldatacopy\n      0x00\n      dup2\n      dup5\n      add\n      mstore\n      not(0x1f)\n      0x1f\n      dup3\n      add\n      and\n      swap1\n      pop\n      dup1\n      dup4\n      add\n      swap3\n      pop\n      pop\n      pop\n      pop\n      pop\n      pop\n      pop\n      dup2\n      mstore\n      0x20\n      add\n        /* \"contracts/betting.sol\":1234:1243  _AwayTeam */\n      dup9\n      dup9\n        /* \"contracts/betting.sol\":1217:1283  Match(_HomeTeam, _AwayTeam, _startTime, matchEnd, startingResults) */\n      dup1\n      dup1\n      0x1f\n      add\n      0x20\n      dup1\n      swap2\n      div\n      mul\n      0x20\n      add\n      mload(0x40)\n      swap1\n      dup2\n      add\n      0x40\n      mstore\n      dup1\n      swap4\n      swap3\n      swap2\n      swap1\n      dup2\n      dup2\n      mstore\n      0x20\n      add\n      dup4\n      dup4\n      dup1\n      dup3\n      dup5\n      calldatacopy\n      0x00\n      dup2\n      dup5\n      add\n      mstore\n      not(0x1f)\n      0x1f\n      dup3\n      add\n      and\n      swap1\n      pop\n      dup1\n      dup4\n      add\n      swap3\n      pop\n      pop\n      pop\n      pop\n      pop\n      pop\n      pop\n      dup2\n      mstore\n      0x20\n      add\n        /* \"contracts/betting.sol\":1245:1255  _startTime */\n      dup7\n        /* \"contracts/betting.sol\":1217:1283  Match(_HomeTeam, _AwayTeam, _startTime, matchEnd, startingResults) */\n      dup2\n      mstore\n      0x20\n      add\n        /* \"contracts/betting.sol\":1257:1265  matchEnd */\n      dup5\n        /* \"contracts/betting.sol\":1217:1283  Match(_HomeTeam, _AwayTeam, _startTime, matchEnd, startingResults) */\n      dup2\n      mstore\n      0x20\n      add\n        /* \"contracts/betting.sol\":1267:1282  startingResults */\n      dup4\n        /* \"contracts/betting.sol\":1217:1283  Match(_HomeTeam, _AwayTeam, _startTime, matchEnd, startingResults) */\n      dup2\n      mstore\n      pop\n        /* \"contracts/betting.sol\":1204:1208  Game */\n      0x01\n        /* \"contracts/betting.sol\":1204:1214  Game[game] */\n      0x00\n        /* \"contracts/betting.sol\":1209:1213  game */\n      dup4\n        /* \"contracts/betting.sol\":1204:1214  Game[game] */\n      dup2\n      mstore\n      0x20\n      add\n      swap1\n      dup2\n      mstore\n      0x20\n      add\n      0x00\n      keccak256\n        /* \"contracts/betting.sol\":1204:1283  Game[game] = Match(_HomeTeam, _AwayTeam, _startTime, matchEnd, startingResults) */\n      0x00\n      dup3\n      add\n      mload\n      dup2\n      0x00\n      add\n      swap1\n      dup2\n      tag_117\n      swap2\n      swap1\n      tag_118\n      jump\t// in\n    tag_117:\n      pop\n      0x20\n      dup3\n      add\n      mload\n      dup2\n      0x01\n      add\n      swap1\n      dup2\n      tag_119\n      swap2\n      swap1\n      tag_118\n      jump\t// in\n    tag_119:\n      pop\n      0x40\n      dup3\n      add\n      mload\n      dup2\n      0x02\n      add\n      sstore\n      0x60\n      dup3\n      add\n      mload\n      dup2\n      0x03\n      add\n      sstore\n      0x80\n      dup3\n      add\n      mload\n      dup2\n      0x04\n      add\n      0x00\n      dup3\n      add\n      mload\n      dup2\n      0x00\n      add\n      sstore\n      0x20\n      dup3\n      add\n      mload\n      dup2\n      0x01\n      add\n      sstore\n      pop\n      pop\n      swap1\n      pop\n      pop\n        /* \"contracts/betting.sol\":1294:1302  allMatch */\n      0x03\n        /* \"contracts/betting.sol\":1308:1374  Match(_HomeTeam, _AwayTeam, _startTime, matchEnd, startingResults) */\n      mload(0x40)\n      dup1\n      0xa0\n      add\n      0x40\n      mstore\n      dup1\n        /* \"contracts/betting.sol\":1314:1323  _HomeTeam */\n      dup12\n      dup12\n        /* \"contracts/betting.sol\":1308:1374  Match(_HomeTeam, _AwayTeam, _startTime, matchEnd, startingResults) */\n      dup1\n      dup1\n      0x1f\n      add\n      0x20\n      dup1\n      swap2\n      div\n      mul\n      0x20\n      add\n      mload(0x40)\n      swap1\n      dup2\n      add\n      0x40\n      mstore\n      dup1\n      swap4\n      swap3\n      swap2\n      swap1\n      dup2\n      dup2\n      mstore\n      0x20\n      add\n      dup4\n      dup4\n      dup1\n      dup3\n      dup5\n      calldatacopy\n      0x00\n      dup2\n      dup5\n      add\n      mstore\n      not(0x1f)\n      0x1f\n      dup3\n      add\n      and\n      swap1\n      pop\n      dup1\n      dup4\n      add\n      swap3\n      pop\n      pop\n      pop\n      pop\n      pop\n      pop\n      pop\n      dup2\n      mstore\n      0x20\n      add\n        /* \"contracts/betting.sol\":1325:1334  _AwayTeam */\n      dup10\n      dup10\n        /* \"contracts/betting.sol\":1308:1374  Match(_HomeTeam, _AwayTeam, _startTime, matchEnd, startingResults) */\n      dup1\n      dup1\n      0x1f\n      add\n      0x20\n      dup1\n      swap2\n      div\n      mul\n      0x20\n      add\n      mload(0x40)\n      swap1\n      dup2\n      add\n      0x40\n      mstore\n      dup1\n      swap4\n      swap3\n      swap2\n      swap1\n      dup2\n      dup2\n      mstore\n      0x20\n      add\n      dup4\n      dup4\n      dup1\n      dup3\n      dup5\n      calldatacopy\n      0x00\n      dup2\n      dup5\n      add\n      mstore\n      not(0x1f)\n      0x1f\n      dup3\n      add\n      and\n      swap1\n      pop\n      dup1\n      dup4\n      add\n      swap3\n      pop\n      pop\n      pop\n      pop\n      pop\n      pop\n      pop\n      dup2\n      mstore\n      0x20\n      add\n        /* \"contracts/betting.sol\":1336:1346  _startTime */\n      dup8\n        /* \"contracts/betting.sol\":1308:1374  Match(_HomeTeam, _AwayTeam, _startTime, matchEnd, startingResults) */\n      dup2\n      mstore\n      0x20\n      add\n        /* \"contracts/betting.sol\":1348:1356  matchEnd */\n      dup6\n        /* \"contracts/betting.sol\":1308:1374  Match(_HomeTeam, _AwayTeam, _startTime, matchEnd, startingResults) */\n      dup2\n      mstore\n      0x20\n      add\n        /* \"contracts/betting.sol\":1358:1373  startingResults */\n      dup5\n        /* \"contracts/betting.sol\":1308:1374  Match(_HomeTeam, _AwayTeam, _startTime, matchEnd, startingResults) */\n      dup2\n      mstore\n      pop\n        /* \"contracts/betting.sol\":1294:1375  allMatch.push(Match(_HomeTeam, _AwayTeam, _startTime, matchEnd, startingResults)) */\n      swap1\n      dup1\n      0x01\n      dup2\n      sload\n      add\n      dup1\n      dup3\n      sstore\n      dup1\n      swap2\n      pop\n      pop\n      0x01\n      swap1\n      sub\n      swap1\n      0x00\n      mstore\n      keccak256(0x00, 0x20)\n      swap1\n      0x06\n      mul\n      add\n      0x00\n      swap1\n      swap2\n      swap1\n      swap2\n      swap1\n      swap2\n      pop\n      0x00\n      dup3\n      add\n      mload\n      dup2\n      0x00\n      add\n      swap1\n      dup2\n      tag_121\n      swap2\n      swap1\n      tag_118\n      jump\t// in\n    tag_121:\n      pop\n      0x20\n      dup3\n      add\n      mload\n      dup2\n      0x01\n      add\n      swap1\n      dup2\n      tag_122\n      swap2\n      swap1\n      tag_118\n      jump\t// in\n    tag_122:\n      pop\n      0x40\n      dup3\n      add\n      mload\n      dup2\n      0x02\n      add\n      sstore\n      0x60\n      dup3\n      add\n      mload\n      dup2\n      0x03\n      add\n      sstore\n      0x80\n      dup3\n      add\n      mload\n      dup2\n      0x04\n      add\n      0x00\n      dup3\n      add\n      mload\n      dup2\n      0x00\n      add\n      sstore\n      0x20\n      dup3\n      add\n      mload\n      dup2\n      0x01\n      add\n      sstore\n      pop\n      pop\n      pop\n      pop\n        /* \"contracts/betting.sol\":1393:1397  true */\n      0x01\n        /* \"contracts/betting.sol\":1386:1397  return true */\n      swap4\n      pop\n      pop\n      pop\n      pop\n        /* \"contracts/betting.sol\":875:1405  function instantiateMatch(string calldata _HomeTeam, string calldata _AwayTeam, uint _startTime) external returns (bool) {... */\n      swap6\n      swap5\n      pop\n      pop\n      pop\n      pop\n      pop\n      jump\t// out\n        /* \"contracts/betting.sol\":1413:1844  function closeMatch(uint epoch, uint _homeScore, uint _awayScore) external {... */\n    tag_56:\n        /* \"contracts/betting.sol\":1516:1526  msg.sender */\n      caller\n        /* \"contracts/betting.sol\":1507:1526  admin == msg.sender */\n      0xffffffffffffffffffffffffffffffffffffffff\n      and\n        /* \"contracts/betting.sol\":1507:1512  admin */\n      0x00\n      dup1\n      sload\n      swap1\n      0x0100\n      exp\n      swap1\n      div\n      0xffffffffffffffffffffffffffffffffffffffff\n      and\n        /* \"contracts/betting.sol\":1507:1526  admin == msg.sender */\n      0xffffffffffffffffffffffffffffffffffffffff\n      and\n      eq\n        /* \"contracts/betting.sol\":1499:1540  require(admin == msg.sender, \"Not Owner\") */\n      tag_124\n      jumpi\n      mload(0x40)\n      0x08c379a000000000000000000000000000000000000000000000000000000000\n      dup2\n      mstore\n      0x04\n      add\n      tag_125\n      swap1\n      tag_114\n      jump\t// in\n    tag_125:\n      mload(0x40)\n      dup1\n      swap2\n      sub\n      swap1\n      revert\n    tag_124:\n        /* \"contracts/betting.sol\":1551:1567  uint currentTime */\n      0x00\n        /* \"contracts/betting.sol\":1570:1585  block.timestamp */\n      timestamp\n        /* \"contracts/betting.sol\":1551:1585  uint currentTime = block.timestamp */\n      swap1\n      pop\n        /* \"contracts/betting.sol\":1619:1627  allMatch */\n      0x03\n        /* \"contracts/betting.sol\":1628:1633  epoch */\n      dup5\n        /* \"contracts/betting.sol\":1619:1634  allMatch[epoch] */\n      dup2\n      sload\n      dup2\n      lt\n      tag_126\n      jumpi\n      tag_127\n      tag_78\n      jump\t// in\n    tag_127:\n    tag_126:\n      swap1\n      0x00\n      mstore\n      keccak256(0x00, 0x20)\n      swap1\n      0x06\n      mul\n      add\n        /* \"contracts/betting.sol\":1619:1642  allMatch[epoch].endTime */\n      0x03\n      add\n      sload\n        /* \"contracts/betting.sol\":1604:1615  currentTime */\n      dup2\n        /* \"contracts/betting.sol\":1604:1642  currentTime >= allMatch[epoch].endTime */\n      lt\n      iszero\n        /* \"contracts/betting.sol\":1596:1664  require(currentTime >= allMatch[epoch].endTime, \"Match is still on\") */\n      tag_129\n      jumpi\n      mload(0x40)\n      0x08c379a000000000000000000000000000000000000000000000000000000000\n      dup2\n      mstore\n      0x04\n      add\n      tag_130\n      swap1\n      tag_131\n      jump\t// in\n    tag_130:\n      mload(0x40)\n      dup1\n      swap2\n      sub\n      swap1\n      revert\n    tag_129:\n        /* \"contracts/betting.sol\":1675:1704  Results memory closingResults */\n      0x00\n        /* \"contracts/betting.sol\":1707:1738  Results(_homeScore, _awayScore) */\n      mload(0x40)\n      dup1\n      0x40\n      add\n      0x40\n      mstore\n      dup1\n        /* \"contracts/betting.sol\":1715:1725  _homeScore */\n      dup6\n        /* \"contracts/betting.sol\":1707:1738  Results(_homeScore, _awayScore) */\n      dup2\n      mstore\n      0x20\n      add\n        /* \"contracts/betting.sol\":1727:1737  _awayScore */\n      dup5\n        /* \"contracts/betting.sol\":1707:1738  Results(_homeScore, _awayScore) */\n      dup2\n      mstore\n      pop\n        /* \"contracts/betting.sol\":1675:1738  Results memory closingResults = Results(_homeScore, _awayScore) */\n      swap1\n      pop\n        /* \"contracts/betting.sol\":1775:1789  closingResults */\n      dup1\n        /* \"contracts/betting.sol\":1749:1757  allMatch */\n      0x03\n        /* \"contracts/betting.sol\":1758:1763  epoch */\n      dup7\n        /* \"contracts/betting.sol\":1749:1764  allMatch[epoch] */\n      dup2\n      sload\n      dup2\n      lt\n      tag_132\n      jumpi\n      tag_133\n      tag_78\n      jump\t// in\n    tag_133:\n    tag_132:\n      swap1\n      0x00\n      mstore\n      keccak256(0x00, 0x20)\n      swap1\n      0x06\n      mul\n      add\n        /* \"contracts/betting.sol\":1749:1772  allMatch[epoch].results */\n      0x04\n      add\n        /* \"contracts/betting.sol\":1749:1789  allMatch[epoch].results = closingResults */\n      0x00\n      dup3\n      add\n      mload\n      dup2\n      0x00\n      add\n      sstore\n      0x20\n      dup3\n      add\n      mload\n      dup2\n      0x01\n      add\n      sstore\n      swap1\n      pop\n      pop\n        /* \"contracts/betting.sol\":1822:1836  closingResults */\n      dup1\n        /* \"contracts/betting.sol\":1800:1804  Game */\n      0x01\n        /* \"contracts/betting.sol\":1800:1811  Game[epoch] */\n      0x00\n        /* \"contracts/betting.sol\":1805:1810  epoch */\n      dup8\n        /* \"contracts/betting.sol\":1800:1811  Game[epoch] */\n      dup2\n      mstore\n      0x20\n      add\n      swap1\n      dup2\n      mstore\n      0x20\n      add\n      0x00\n      keccak256\n        /* \"contracts/betting.sol\":1800:1819  Game[epoch].results */\n      0x04\n      add\n        /* \"contracts/betting.sol\":1800:1836  Game[epoch].results = closingResults */\n      0x00\n      dup3\n      add\n      mload\n      dup2\n      0x00\n      add\n      sstore\n      0x20\n      dup3\n      add\n      mload\n      dup2\n      0x01\n      add\n      sstore\n      swap1\n      pop\n      pop\n        /* \"contracts/betting.sol\":1488:1844  {... */\n      pop\n      pop\n        /* \"contracts/betting.sol\":1413:1844  function closeMatch(uint epoch, uint _homeScore, uint _awayScore) external {... */\n      pop\n      pop\n      pop\n      jump\t// out\n        /* \"contracts/betting.sol\":148:168  address public admin */\n    tag_59:\n      0x00\n      dup1\n      sload\n      swap1\n      0x0100\n      exp\n      swap1\n      div\n      0xffffffffffffffffffffffffffffffffffffffff\n      and\n      dup2\n      jump\t// out\n        /* \"#utility.yul\":88:205   */\n    tag_136:\n        /* \"#utility.yul\":197:198   */\n      0x00\n        /* \"#utility.yul\":194:195   */\n      dup1\n        /* \"#utility.yul\":187:199   */\n      revert\n        /* \"#utility.yul\":211:328   */\n    tag_137:\n        /* \"#utility.yul\":320:321   */\n      0x00\n        /* \"#utility.yul\":317:318   */\n      dup1\n        /* \"#utility.yul\":310:322   */\n      revert\n        /* \"#utility.yul\":334:411   */\n    tag_138:\n        /* \"#utility.yul\":371:378   */\n      0x00\n        /* \"#utility.yul\":400:405   */\n      dup2\n        /* \"#utility.yul\":389:405   */\n      swap1\n      pop\n        /* \"#utility.yul\":334:411   */\n      swap2\n      swap1\n      pop\n      jump\t// out\n        /* \"#utility.yul\":417:539   */\n    tag_139:\n        /* \"#utility.yul\":490:514   */\n      tag_200\n        /* \"#utility.yul\":508:513   */\n      dup2\n        /* \"#utility.yul\":490:514   */\n      tag_138\n      jump\t// in\n    tag_200:\n        /* \"#utility.yul\":483:488   */\n      dup2\n        /* \"#utility.yul\":480:515   */\n      eq\n        /* \"#utility.yul\":470:533   */\n      tag_201\n      jumpi\n        /* \"#utility.yul\":529:530   */\n      0x00\n        /* \"#utility.yul\":526:527   */\n      dup1\n        /* \"#utility.yul\":519:531   */\n      revert\n        /* \"#utility.yul\":470:533   */\n    tag_201:\n        /* \"#utility.yul\":417:539   */\n      pop\n      jump\t// out\n        /* \"#utility.yul\":545:684   */\n    tag_140:\n        /* \"#utility.yul\":591:596   */\n      0x00\n        /* \"#utility.yul\":629:635   */\n      dup2\n        /* \"#utility.yul\":616:636   */\n      calldataload\n        /* \"#utility.yul\":607:636   */\n      swap1\n      pop\n        /* \"#utility.yul\":645:678   */\n      tag_203\n        /* \"#utility.yul\":672:677   */\n      dup2\n        /* \"#utility.yul\":645:678   */\n      tag_139\n      jump\t// in\n    tag_203:\n        /* \"#utility.yul\":545:684   */\n      swap3\n      swap2\n      pop\n      pop\n      jump\t// out\n        /* \"#utility.yul\":690:798   */\n    tag_141:\n        /* \"#utility.yul\":772:773   */\n      0x04\n        /* \"#utility.yul\":765:770   */\n      dup2\n        /* \"#utility.yul\":762:774   */\n      lt\n        /* \"#utility.yul\":752:792   */\n      tag_205\n      jumpi\n        /* \"#utility.yul\":788:789   */\n      0x00\n        /* \"#utility.yul\":785:786   */\n      dup1\n        /* \"#utility.yul\":778:790   */\n      revert\n        /* \"#utility.yul\":752:792   */\n    tag_205:\n        /* \"#utility.yul\":690:798   */\n      pop\n      jump\t// out\n        /* \"#utility.yul\":804:961   */\n    tag_142:\n        /* \"#utility.yul\":859:864   */\n      0x00\n        /* \"#utility.yul\":897:903   */\n      dup2\n        /* \"#utility.yul\":884:904   */\n      calldataload\n        /* \"#utility.yul\":875:904   */\n      swap1\n      pop\n        /* \"#utility.yul\":913:955   */\n      tag_207\n        /* \"#utility.yul\":949:954   */\n      dup2\n        /* \"#utility.yul\":913:955   */\n      tag_141\n      jump\t// in\n    tag_207:\n        /* \"#utility.yul\":804:961   */\n      swap3\n      swap2\n      pop\n      pop\n      jump\t// out\n        /* \"#utility.yul\":967:1459   */\n    tag_14:\n        /* \"#utility.yul\":1044:1050   */\n      0x00\n        /* \"#utility.yul\":1052:1058   */\n      dup1\n        /* \"#utility.yul\":1101:1103   */\n      0x40\n        /* \"#utility.yul\":1089:1098   */\n      dup4\n        /* \"#utility.yul\":1080:1087   */\n      dup6\n        /* \"#utility.yul\":1076:1099   */\n      sub\n        /* \"#utility.yul\":1072:1104   */\n      slt\n        /* \"#utility.yul\":1069:1188   */\n      iszero\n      tag_209\n      jumpi\n        /* \"#utility.yul\":1107:1186   */\n      tag_210\n      tag_136\n      jump\t// in\n    tag_210:\n        /* \"#utility.yul\":1069:1188   */\n    tag_209:\n        /* \"#utility.yul\":1227:1228   */\n      0x00\n        /* \"#utility.yul\":1252:1305   */\n      tag_211\n        /* \"#utility.yul\":1297:1304   */\n      dup6\n        /* \"#utility.yul\":1288:1294   */\n      dup3\n        /* \"#utility.yul\":1277:1286   */\n      dup7\n        /* \"#utility.yul\":1273:1295   */\n      add\n        /* \"#utility.yul\":1252:1305   */\n      tag_140\n      jump\t// in\n    tag_211:\n        /* \"#utility.yul\":1242:1305   */\n      swap3\n      pop\n        /* \"#utility.yul\":1198:1315   */\n      pop\n        /* \"#utility.yul\":1354:1356   */\n      0x20\n        /* \"#utility.yul\":1380:1442   */\n      tag_212\n        /* \"#utility.yul\":1434:1441   */\n      dup6\n        /* \"#utility.yul\":1425:1431   */\n      dup3\n        /* \"#utility.yul\":1414:1423   */\n      dup7\n        /* \"#utility.yul\":1410:1432   */\n      add\n        /* \"#utility.yul\":1380:1442   */\n      tag_142\n      jump\t// in\n    tag_212:\n        /* \"#utility.yul\":1370:1442   */\n      swap2\n      pop\n        /* \"#utility.yul\":1325:1452   */\n      pop\n        /* \"#utility.yul\":967:1459   */\n      swap3\n      pop\n      swap3\n      swap1\n      pop\n      jump\t// out\n        /* \"#utility.yul\":1465:1794   */\n    tag_19:\n        /* \"#utility.yul\":1524:1530   */\n      0x00\n        /* \"#utility.yul\":1573:1575   */\n      0x20\n        /* \"#utility.yul\":1561:1570   */\n      dup3\n        /* \"#utility.yul\":1552:1559   */\n      dup5\n        /* \"#utility.yul\":1548:1571   */\n      sub\n        /* \"#utility.yul\":1544:1576   */\n      slt\n        /* \"#utility.yul\":1541:1660   */\n      iszero\n      tag_214\n      jumpi\n        /* \"#utility.yul\":1579:1658   */\n      tag_215\n      tag_136\n      jump\t// in\n    tag_215:\n        /* \"#utility.yul\":1541:1660   */\n    tag_214:\n        /* \"#utility.yul\":1699:1700   */\n      0x00\n        /* \"#utility.yul\":1724:1777   */\n      tag_216\n        /* \"#utility.yul\":1769:1776   */\n      dup5\n        /* \"#utility.yul\":1760:1766   */\n      dup3\n        /* \"#utility.yul\":1749:1758   */\n      dup6\n        /* \"#utility.yul\":1745:1767   */\n      add\n        /* \"#utility.yul\":1724:1777   */\n      tag_140\n      jump\t// in\n    tag_216:\n        /* \"#utility.yul\":1714:1777   */\n      swap2\n      pop\n        /* \"#utility.yul\":1670:1787   */\n      pop\n        /* \"#utility.yul\":1465:1794   */\n      swap3\n      swap2\n      pop\n      pop\n      jump\t// out\n        /* \"#utility.yul\":1800:1926   */\n    tag_143:\n        /* \"#utility.yul\":1837:1844   */\n      0x00\n        /* \"#utility.yul\":1877:1919   */\n      0xffffffffffffffffffffffffffffffffffffffff\n        /* \"#utility.yul\":1870:1875   */\n      dup3\n        /* \"#utility.yul\":1866:1920   */\n      and\n        /* \"#utility.yul\":1855:1920   */\n      swap1\n      pop\n        /* \"#utility.yul\":1800:1926   */\n      swap2\n      swap1\n      pop\n      jump\t// out\n        /* \"#utility.yul\":1932:2028   */\n    tag_144:\n        /* \"#utility.yul\":1969:1976   */\n      0x00\n        /* \"#utility.yul\":1998:2022   */\n      tag_219\n        /* \"#utility.yul\":2016:2021   */\n      dup3\n        /* \"#utility.yul\":1998:2022   */\n      tag_143\n      jump\t// in\n    tag_219:\n        /* \"#utility.yul\":1987:2022   */\n      swap1\n      pop\n        /* \"#utility.yul\":1932:2028   */\n      swap2\n      swap1\n      pop\n      jump\t// out\n        /* \"#utility.yul\":2034:2152   */\n    tag_145:\n        /* \"#utility.yul\":2121:2145   */\n      tag_221\n        /* \"#utility.yul\":2139:2144   */\n      dup2\n        /* \"#utility.yul\":2121:2145   */\n      tag_144\n      jump\t// in\n    tag_221:\n        /* \"#utility.yul\":2116:2119   */\n      dup3\n        /* \"#utility.yul\":2109:2146   */\n      mstore\n        /* \"#utility.yul\":2034:2152   */\n      pop\n      pop\n      jump\t// out\n        /* \"#utility.yul\":2158:2276   */\n    tag_146:\n        /* \"#utility.yul\":2245:2269   */\n      tag_223\n        /* \"#utility.yul\":2263:2268   */\n      dup2\n        /* \"#utility.yul\":2245:2269   */\n      tag_138\n      jump\t// in\n    tag_223:\n        /* \"#utility.yul\":2240:2243   */\n      dup3\n        /* \"#utility.yul\":2233:2270   */\n      mstore\n        /* \"#utility.yul\":2158:2276   */\n      pop\n      pop\n      jump\t// out\n        /* \"#utility.yul\":2282:2462   */\n    tag_71:\n        /* \"#utility.yul\":2330:2407   */\n      0x4e487b7100000000000000000000000000000000000000000000000000000000\n        /* \"#utility.yul\":2327:2328   */\n      0x00\n        /* \"#utility.yul\":2320:2408   */\n      mstore\n        /* \"#utility.yul\":2427:2431   */\n      0x21\n        /* \"#utility.yul\":2424:2425   */\n      0x04\n        /* \"#utility.yul\":2417:2432   */\n      mstore\n        /* \"#utility.yul\":2451:2455   */\n      0x24\n        /* \"#utility.yul\":2448:2449   */\n      0x00\n        /* \"#utility.yul\":2441:2456   */\n      revert\n        /* \"#utility.yul\":2468:2582   */\n    tag_147:\n        /* \"#utility.yul\":2550:2551   */\n      0x04\n        /* \"#utility.yul\":2543:2548   */\n      dup2\n        /* \"#utility.yul\":2540:2552   */\n      lt\n        /* \"#utility.yul\":2530:2576   */\n      tag_226\n      jumpi\n        /* \"#utility.yul\":2556:2574   */\n      tag_227\n      tag_71\n      jump\t// in\n    tag_227:\n        /* \"#utility.yul\":2530:2576   */\n    tag_226:\n        /* \"#utility.yul\":2468:2582   */\n      pop\n      jump\t// out\n        /* \"#utility.yul\":2588:2717   */\n    tag_148:\n        /* \"#utility.yul\":2634:2641   */\n      0x00\n        /* \"#utility.yul\":2663:2668   */\n      dup2\n        /* \"#utility.yul\":2652:2668   */\n      swap1\n      pop\n        /* \"#utility.yul\":2669:2711   */\n      tag_229\n        /* \"#utility.yul\":2705:2710   */\n      dup3\n        /* \"#utility.yul\":2669:2711   */\n      tag_147\n      jump\t// in\n    tag_229:\n        /* \"#utility.yul\":2588:2717   */\n      swap2\n      swap1\n      pop\n      jump\t// out\n        /* \"#utility.yul\":2723:2852   */\n    tag_149:\n        /* \"#utility.yul\":2780:2789   */\n      0x00\n        /* \"#utility.yul\":2813:2846   */\n      tag_231\n        /* \"#utility.yul\":2840:2845   */\n      dup3\n        /* \"#utility.yul\":2813:2846   */\n      tag_148\n      jump\t// in\n    tag_231:\n        /* \"#utility.yul\":2800:2846   */\n      swap1\n      pop\n        /* \"#utility.yul\":2723:2852   */\n      swap2\n      swap1\n      pop\n      jump\t// out\n        /* \"#utility.yul\":2858:3003   */\n    tag_150:\n        /* \"#utility.yul\":2952:2996   */\n      tag_233\n        /* \"#utility.yul\":2990:2995   */\n      dup2\n        /* \"#utility.yul\":2952:2996   */\n      tag_149\n      jump\t// in\n    tag_233:\n        /* \"#utility.yul\":2947:2950   */\n      dup3\n        /* \"#utility.yul\":2940:2997   */\n      mstore\n        /* \"#utility.yul\":2858:3003   */\n      pop\n      pop\n      jump\t// out\n        /* \"#utility.yul\":3009:3465   */\n    tag_22:\n        /* \"#utility.yul\":3165:3169   */\n      0x00\n        /* \"#utility.yul\":3203:3205   */\n      0x60\n        /* \"#utility.yul\":3192:3201   */\n      dup3\n        /* \"#utility.yul\":3188:3206   */\n      add\n        /* \"#utility.yul\":3180:3206   */\n      swap1\n      pop\n        /* \"#utility.yul\":3216:3287   */\n      tag_235\n        /* \"#utility.yul\":3284:3285   */\n      0x00\n        /* \"#utility.yul\":3273:3282   */\n      dup4\n        /* \"#utility.yul\":3269:3286   */\n      add\n        /* \"#utility.yul\":3260:3266   */\n      dup7\n        /* \"#utility.yul\":3216:3287   */\n      tag_145\n      jump\t// in\n    tag_235:\n        /* \"#utility.yul\":3297:3369   */\n      tag_236\n        /* \"#utility.yul\":3365:3367   */\n      0x20\n        /* \"#utility.yul\":3354:3363   */\n      dup4\n        /* \"#utility.yul\":3350:3368   */\n      add\n        /* \"#utility.yul\":3341:3347   */\n      dup6\n        /* \"#utility.yul\":3297:3369   */\n      tag_146\n      jump\t// in\n    tag_236:\n        /* \"#utility.yul\":3379:3458   */\n      tag_237\n        /* \"#utility.yul\":3454:3456   */\n      0x40\n        /* \"#utility.yul\":3443:3452   */\n      dup4\n        /* \"#utility.yul\":3439:3457   */\n      add\n        /* \"#utility.yul\":3430:3436   */\n      dup5\n        /* \"#utility.yul\":3379:3458   */\n      tag_150\n      jump\t// in\n    tag_237:\n        /* \"#utility.yul\":3009:3465   */\n      swap5\n      swap4\n      pop\n      pop\n      pop\n      pop\n      jump\t// out\n        /* \"#utility.yul\":3471:3570   */\n    tag_151:\n        /* \"#utility.yul\":3523:3529   */\n      0x00\n        /* \"#utility.yul\":3557:3562   */\n      dup2\n        /* \"#utility.yul\":3551:3563   */\n      mload\n        /* \"#utility.yul\":3541:3563   */\n      swap1\n      pop\n        /* \"#utility.yul\":3471:3570   */\n      swap2\n      swap1\n      pop\n      jump\t// out\n        /* \"#utility.yul\":3576:3745   */\n    tag_152:\n        /* \"#utility.yul\":3660:3671   */\n      0x00\n        /* \"#utility.yul\":3694:3700   */\n      dup3\n        /* \"#utility.yul\":3689:3692   */\n      dup3\n        /* \"#utility.yul\":3682:3701   */\n      mstore\n        /* \"#utility.yul\":3734:3738   */\n      0x20\n        /* \"#utility.yul\":3729:3732   */\n      dup3\n        /* \"#utility.yul\":3725:3739   */\n      add\n        /* \"#utility.yul\":3710:3739   */\n      swap1\n      pop\n        /* \"#utility.yul\":3576:3745   */\n      swap3\n      swap2\n      pop\n      pop\n      jump\t// out\n        /* \"#utility.yul\":3751:3997   */\n    tag_153:\n        /* \"#utility.yul\":3832:3833   */\n      0x00\n        /* \"#utility.yul\":3842:3955   */\n    tag_241:\n        /* \"#utility.yul\":3856:3862   */\n      dup4\n        /* \"#utility.yul\":3853:3854   */\n      dup2\n        /* \"#utility.yul\":3850:3863   */\n      lt\n        /* \"#utility.yul\":3842:3955   */\n      iszero\n      tag_243\n      jumpi\n        /* \"#utility.yul\":3941:3942   */\n      dup1\n        /* \"#utility.yul\":3936:3939   */\n      dup3\n        /* \"#utility.yul\":3932:3943   */\n      add\n        /* \"#utility.yul\":3926:3944   */\n      mload\n        /* \"#utility.yul\":3922:3923   */\n      dup2\n        /* \"#utility.yul\":3917:3920   */\n      dup5\n        /* \"#utility.yul\":3913:3924   */\n      add\n        /* \"#utility.yul\":3906:3945   */\n      mstore\n        /* \"#utility.yul\":3878:3880   */\n      0x20\n        /* \"#utility.yul\":3875:3876   */\n      dup2\n        /* \"#utility.yul\":3871:3881   */\n      add\n        /* \"#utility.yul\":3866:3881   */\n      swap1\n      pop\n        /* \"#utility.yul\":3842:3955   */\n      jump(tag_241)\n    tag_243:\n        /* \"#utility.yul\":3989:3990   */\n      0x00\n        /* \"#utility.yul\":3980:3986   */\n      dup5\n        /* \"#utility.yul\":3975:3978   */\n      dup5\n        /* \"#utility.yul\":3971:3987   */\n      add\n        /* \"#utility.yul\":3964:3991   */\n      mstore\n        /* \"#utility.yul\":3813:3997   */\n      pop\n        /* \"#utility.yul\":3751:3997   */\n      pop\n      pop\n      pop\n      jump\t// out\n        /* \"#utility.yul\":4003:4105   */\n    tag_154:\n        /* \"#utility.yul\":4044:4050   */\n      0x00\n        /* \"#utility.yul\":4095:4097   */\n      0x1f\n        /* \"#utility.yul\":4091:4098   */\n      not\n        /* \"#utility.yul\":4086:4088   */\n      0x1f\n        /* \"#utility.yul\":4079:4084   */\n      dup4\n        /* \"#utility.yul\":4075:4089   */\n      add\n        /* \"#utility.yul\":4071:4099   */\n      and\n        /* \"#utility.yul\":4061:4099   */\n      swap1\n      pop\n        /* \"#utility.yul\":4003:4105   */\n      swap2\n      swap1\n      pop\n      jump\t// out\n        /* \"#utility.yul\":4111:4488   */\n    tag_155:\n        /* \"#utility.yul\":4199:4202   */\n      0x00\n        /* \"#utility.yul\":4227:4266   */\n      tag_246\n        /* \"#utility.yul\":4260:4265   */\n      dup3\n        /* \"#utility.yul\":4227:4266   */\n      tag_151\n      jump\t// in\n    tag_246:\n        /* \"#utility.yul\":4282:4353   */\n      tag_247\n        /* \"#utility.yul\":4346:4352   */\n      dup2\n        /* \"#utility.yul\":4341:4344   */\n      dup6\n        /* \"#utility.yul\":4282:4353   */\n      tag_152\n      jump\t// in\n    tag_247:\n        /* \"#utility.yul\":4275:4353   */\n      swap4\n      pop\n        /* \"#utility.yul\":4362:4427   */\n      tag_248\n        /* \"#utility.yul\":4420:4426   */\n      dup2\n        /* \"#utility.yul\":4415:4418   */\n      dup6\n        /* \"#utility.yul\":4408:4412   */\n      0x20\n        /* \"#utility.yul\":4401:4406   */\n      dup7\n        /* \"#utility.yul\":4397:4413   */\n      add\n        /* \"#utility.yul\":4362:4427   */\n      tag_153\n      jump\t// in\n    tag_248:\n        /* \"#utility.yul\":4452:4481   */\n      tag_249\n        /* \"#utility.yul\":4474:4480   */\n      dup2\n        /* \"#utility.yul\":4452:4481   */\n      tag_154\n      jump\t// in\n    tag_249:\n        /* \"#utility.yul\":4447:4450   */\n      dup5\n        /* \"#utility.yul\":4443:4482   */\n      add\n        /* \"#utility.yul\":4436:4482   */\n      swap2\n      pop\n        /* \"#utility.yul\":4203:4488   */\n      pop\n        /* \"#utility.yul\":4111:4488   */\n      swap3\n      swap2\n      pop\n      pop\n      jump\t// out\n        /* \"#utility.yul\":4494:4602   */\n    tag_156:\n        /* \"#utility.yul\":4571:4595   */\n      tag_251\n        /* \"#utility.yul\":4589:4594   */\n      dup2\n        /* \"#utility.yul\":4571:4595   */\n      tag_138\n      jump\t// in\n    tag_251:\n        /* \"#utility.yul\":4566:4569   */\n      dup3\n        /* \"#utility.yul\":4559:4596   */\n      mstore\n        /* \"#utility.yul\":4494:4602   */\n      pop\n      pop\n      jump\t// out\n        /* \"#utility.yul\":4676:5191   */\n    tag_157:\n        /* \"#utility.yul\":4819:4823   */\n      0x40\n        /* \"#utility.yul\":4814:4817   */\n      dup3\n        /* \"#utility.yul\":4810:4824   */\n      add\n        /* \"#utility.yul\":4912:4916   */\n      0x00\n        /* \"#utility.yul\":4905:4910   */\n      dup3\n        /* \"#utility.yul\":4901:4917   */\n      add\n        /* \"#utility.yul\":4895:4918   */\n      mload\n        /* \"#utility.yul\":4931:4994   */\n      tag_253\n        /* \"#utility.yul\":4988:4992   */\n      0x00\n        /* \"#utility.yul\":4983:4986   */\n      dup6\n        /* \"#utility.yul\":4979:4993   */\n      add\n        /* \"#utility.yul\":4965:4977   */\n      dup3\n        /* \"#utility.yul\":4931:4994   */\n      tag_156\n      jump\t// in\n    tag_253:\n        /* \"#utility.yul\":4834:5004   */\n      pop\n        /* \"#utility.yul\":5092:5096   */\n      0x20\n        /* \"#utility.yul\":5085:5090   */\n      dup3\n        /* \"#utility.yul\":5081:5097   */\n      add\n        /* \"#utility.yul\":5075:5098   */\n      mload\n        /* \"#utility.yul\":5111:5174   */\n      tag_254\n        /* \"#utility.yul\":5168:5172   */\n      0x20\n        /* \"#utility.yul\":5163:5166   */\n      dup6\n        /* \"#utility.yul\":5159:5173   */\n      add\n        /* \"#utility.yul\":5145:5157   */\n      dup3\n        /* \"#utility.yul\":5111:5174   */\n      tag_156\n      jump\t// in\n    tag_254:\n        /* \"#utility.yul\":5014:5184   */\n      pop\n        /* \"#utility.yul\":4788:5191   */\n      pop\n        /* \"#utility.yul\":4676:5191   */\n      pop\n      pop\n      jump\t// out\n        /* \"#utility.yul\":5197:6135   */\n    tag_28:\n        /* \"#utility.yul\":5488:5492   */\n      0x00\n        /* \"#utility.yul\":5526:5529   */\n      0xc0\n        /* \"#utility.yul\":5515:5524   */\n      dup3\n        /* \"#utility.yul\":5511:5530   */\n      add\n        /* \"#utility.yul\":5503:5530   */\n      swap1\n      pop\n        /* \"#utility.yul\":5576:5585   */\n      dup2\n        /* \"#utility.yul\":5570:5574   */\n      dup2\n        /* \"#utility.yul\":5566:5586   */\n      sub\n        /* \"#utility.yul\":5562:5563   */\n      0x00\n        /* \"#utility.yul\":5551:5560   */\n      dup4\n        /* \"#utility.yul\":5547:5564   */\n      add\n        /* \"#utility.yul\":5540:5587   */\n      mstore\n        /* \"#utility.yul\":5604:5682   */\n      tag_256\n        /* \"#utility.yul\":5677:5681   */\n      dup2\n        /* \"#utility.yul\":5668:5674   */\n      dup9\n        /* \"#utility.yul\":5604:5682   */\n      tag_155\n      jump\t// in\n    tag_256:\n        /* \"#utility.yul\":5596:5682   */\n      swap1\n      pop\n        /* \"#utility.yul\":5729:5738   */\n      dup2\n        /* \"#utility.yul\":5723:5727   */\n      dup2\n        /* \"#utility.yul\":5719:5739   */\n      sub\n        /* \"#utility.yul\":5714:5716   */\n      0x20\n        /* \"#utility.yul\":5703:5712   */\n      dup4\n        /* \"#utility.yul\":5699:5717   */\n      add\n        /* \"#utility.yul\":5692:5740   */\n      mstore\n        /* \"#utility.yul\":5757:5835   */\n      tag_257\n        /* \"#utility.yul\":5830:5834   */\n      dup2\n        /* \"#utility.yul\":5821:5827   */\n      dup8\n        /* \"#utility.yul\":5757:5835   */\n      tag_155\n      jump\t// in\n    tag_257:\n        /* \"#utility.yul\":5749:5835   */\n      swap1\n      pop\n        /* \"#utility.yul\":5845:5917   */\n      tag_258\n        /* \"#utility.yul\":5913:5915   */\n      0x40\n        /* \"#utility.yul\":5902:5911   */\n      dup4\n        /* \"#utility.yul\":5898:5916   */\n      add\n        /* \"#utility.yul\":5889:5895   */\n      dup7\n        /* \"#utility.yul\":5845:5917   */\n      tag_146\n      jump\t// in\n    tag_258:\n        /* \"#utility.yul\":5927:5999   */\n      tag_259\n        /* \"#utility.yul\":5995:5997   */\n      0x60\n        /* \"#utility.yul\":5984:5993   */\n      dup4\n        /* \"#utility.yul\":5980:5998   */\n      add\n        /* \"#utility.yul\":5971:5977   */\n      dup6\n        /* \"#utility.yul\":5927:5999   */\n      tag_146\n      jump\t// in\n    tag_259:\n        /* \"#utility.yul\":6009:6128   */\n      tag_260\n        /* \"#utility.yul\":6123:6126   */\n      0x80\n        /* \"#utility.yul\":6112:6121   */\n      dup4\n        /* \"#utility.yul\":6108:6127   */\n      add\n        /* \"#utility.yul\":6099:6105   */\n      dup5\n        /* \"#utility.yul\":6009:6128   */\n      tag_157\n      jump\t// in\n    tag_260:\n        /* \"#utility.yul\":5197:6135   */\n      swap7\n      swap6\n      pop\n      pop\n      pop\n      pop\n      pop\n      pop\n      jump\t// out\n        /* \"#utility.yul\":6141:6263   */\n    tag_158:\n        /* \"#utility.yul\":6214:6238   */\n      tag_262\n        /* \"#utility.yul\":6232:6237   */\n      dup2\n        /* \"#utility.yul\":6214:6238   */\n      tag_144\n      jump\t// in\n    tag_262:\n        /* \"#utility.yul\":6207:6212   */\n      dup2\n        /* \"#utility.yul\":6204:6239   */\n      eq\n        /* \"#utility.yul\":6194:6257   */\n      tag_263\n      jumpi\n        /* \"#utility.yul\":6253:6254   */\n      0x00\n        /* \"#utility.yul\":6250:6251   */\n      dup1\n        /* \"#utility.yul\":6243:6255   */\n      revert\n        /* \"#utility.yul\":6194:6257   */\n    tag_263:\n        /* \"#utility.yul\":6141:6263   */\n      pop\n      jump\t// out\n        /* \"#utility.yul\":6269:6408   */\n    tag_159:\n        /* \"#utility.yul\":6315:6320   */\n      0x00\n        /* \"#utility.yul\":6353:6359   */\n      dup2\n        /* \"#utility.yul\":6340:6360   */\n      calldataload\n        /* \"#utility.yul\":6331:6360   */\n      swap1\n      pop\n        /* \"#utility.yul\":6369:6402   */\n      tag_265\n        /* \"#utility.yul\":6396:6401   */\n      dup2\n        /* \"#utility.yul\":6369:6402   */\n      tag_158\n      jump\t// in\n    tag_265:\n        /* \"#utility.yul\":6269:6408   */\n      swap3\n      swap2\n      pop\n      pop\n      jump\t// out\n        /* \"#utility.yul\":6414:6888   */\n    tag_32:\n        /* \"#utility.yul\":6482:6488   */\n      0x00\n        /* \"#utility.yul\":6490:6496   */\n      dup1\n        /* \"#utility.yul\":6539:6541   */\n      0x40\n        /* \"#utility.yul\":6527:6536   */\n      dup4\n        /* \"#utility.yul\":6518:6525   */\n      dup6\n        /* \"#utility.yul\":6514:6537   */\n      sub\n        /* \"#utility.yul\":6510:6542   */\n      slt\n        /* \"#utility.yul\":6507:6626   */\n      iszero\n      tag_267\n      jumpi\n        /* \"#utility.yul\":6545:6624   */\n      tag_268\n      tag_136\n      jump\t// in\n    tag_268:\n        /* \"#utility.yul\":6507:6626   */\n    tag_267:\n        /* \"#utility.yul\":6665:6666   */\n      0x00\n        /* \"#utility.yul\":6690:6743   */\n      tag_269\n        /* \"#utility.yul\":6735:6742   */\n      dup6\n        /* \"#utility.yul\":6726:6732   */\n      dup3\n        /* \"#utility.yul\":6715:6724   */\n      dup7\n        /* \"#utility.yul\":6711:6733   */\n      add\n        /* \"#utility.yul\":6690:6743   */\n      tag_159\n      jump\t// in\n    tag_269:\n        /* \"#utility.yul\":6680:6743   */\n      swap3\n      pop\n        /* \"#utility.yul\":6636:6753   */\n      pop\n        /* \"#utility.yul\":6792:6794   */\n      0x20\n        /* \"#utility.yul\":6818:6871   */\n      tag_270\n        /* \"#utility.yul\":6863:6870   */\n      dup6\n        /* \"#utility.yul\":6854:6860   */\n      dup3\n        /* \"#utility.yul\":6843:6852   */\n      dup7\n        /* \"#utility.yul\":6839:6861   */\n      add\n        /* \"#utility.yul\":6818:6871   */\n      tag_140\n      jump\t// in\n    tag_270:\n        /* \"#utility.yul\":6808:6871   */\n      swap2\n      pop\n        /* \"#utility.yul\":6763:6881   */\n      pop\n        /* \"#utility.yul\":6414:6888   */\n      swap3\n      pop\n      swap3\n      swap1\n      pop\n      jump\t// out\n        /* \"#utility.yul\":6894:6984   */\n    tag_160:\n        /* \"#utility.yul\":6928:6935   */\n      0x00\n        /* \"#utility.yul\":6971:6976   */\n      dup2\n        /* \"#utility.yul\":6964:6977   */\n      iszero\n        /* \"#utility.yul\":6957:6978   */\n      iszero\n        /* \"#utility.yul\":6946:6978   */\n      swap1\n      pop\n        /* \"#utility.yul\":6894:6984   */\n      swap2\n      swap1\n      pop\n      jump\t// out\n        /* \"#utility.yul\":6990:7099   */\n    tag_161:\n        /* \"#utility.yul\":7071:7092   */\n      tag_273\n        /* \"#utility.yul\":7086:7091   */\n      dup2\n        /* \"#utility.yul\":7071:7092   */\n      tag_160\n      jump\t// in\n    tag_273:\n        /* \"#utility.yul\":7066:7069   */\n      dup3\n        /* \"#utility.yul\":7059:7093   */\n      mstore\n        /* \"#utility.yul\":6990:7099   */\n      pop\n      pop\n      jump\t// out\n        /* \"#utility.yul\":7105:7660   */\n    tag_35:\n        /* \"#utility.yul\":7283:7287   */\n      0x00\n        /* \"#utility.yul\":7321:7324   */\n      0x80\n        /* \"#utility.yul\":7310:7319   */\n      dup3\n        /* \"#utility.yul\":7306:7325   */\n      add\n        /* \"#utility.yul\":7298:7325   */\n      swap1\n      pop\n        /* \"#utility.yul\":7335:7413   */\n      tag_275\n        /* \"#utility.yul\":7410:7411   */\n      0x00\n        /* \"#utility.yul\":7399:7408   */\n      dup4\n        /* \"#utility.yul\":7395:7412   */\n      add\n        /* \"#utility.yul\":7386:7392   */\n      dup8\n        /* \"#utility.yul\":7335:7413   */\n      tag_150\n      jump\t// in\n    tag_275:\n        /* \"#utility.yul\":7423:7495   */\n      tag_276\n        /* \"#utility.yul\":7491:7493   */\n      0x20\n        /* \"#utility.yul\":7480:7489   */\n      dup4\n        /* \"#utility.yul\":7476:7494   */\n      add\n        /* \"#utility.yul\":7467:7473   */\n      dup7\n        /* \"#utility.yul\":7423:7495   */\n      tag_146\n      jump\t// in\n    tag_276:\n        /* \"#utility.yul\":7505:7577   */\n      tag_277\n        /* \"#utility.yul\":7573:7575   */\n      0x40\n        /* \"#utility.yul\":7562:7571   */\n      dup4\n        /* \"#utility.yul\":7558:7576   */\n      add\n        /* \"#utility.yul\":7549:7555   */\n      dup6\n        /* \"#utility.yul\":7505:7577   */\n      tag_146\n      jump\t// in\n    tag_277:\n        /* \"#utility.yul\":7587:7653   */\n      tag_278\n        /* \"#utility.yul\":7649:7651   */\n      0x60\n        /* \"#utility.yul\":7638:7647   */\n      dup4\n        /* \"#utility.yul\":7634:7652   */\n      add\n        /* \"#utility.yul\":7625:7631   */\n      dup5\n        /* \"#utility.yul\":7587:7653   */\n      tag_161\n      jump\t// in\n    tag_278:\n        /* \"#utility.yul\":7105:7660   */\n      swap6\n      swap5\n      pop\n      pop\n      pop\n      pop\n      pop\n      jump\t// out\n        /* \"#utility.yul\":7666:7783   */\n    tag_162:\n        /* \"#utility.yul\":7775:7776   */\n      0x00\n        /* \"#utility.yul\":7772:7773   */\n      dup1\n        /* \"#utility.yul\":7765:7777   */\n      revert\n        /* \"#utility.yul\":7789:7906   */\n    tag_163:\n        /* \"#utility.yul\":7898:7899   */\n      0x00\n        /* \"#utility.yul\":7895:7896   */\n      dup1\n        /* \"#utility.yul\":7888:7900   */\n      revert\n        /* \"#utility.yul\":7912:8029   */\n    tag_164:\n        /* \"#utility.yul\":8021:8022   */\n      0x00\n        /* \"#utility.yul\":8018:8019   */\n      dup1\n        /* \"#utility.yul\":8011:8023   */\n      revert\n        /* \"#utility.yul\":8049:8602   */\n    tag_165:\n        /* \"#utility.yul\":8107:8115   */\n      0x00\n        /* \"#utility.yul\":8117:8123   */\n      dup1\n        /* \"#utility.yul\":8167:8170   */\n      dup4\n        /* \"#utility.yul\":8160:8164   */\n      0x1f\n        /* \"#utility.yul\":8152:8158   */\n      dup5\n        /* \"#utility.yul\":8148:8165   */\n      add\n        /* \"#utility.yul\":8144:8171   */\n      slt\n        /* \"#utility.yul\":8134:8256   */\n      tag_283\n      jumpi\n        /* \"#utility.yul\":8175:8254   */\n      tag_284\n      tag_162\n      jump\t// in\n    tag_284:\n        /* \"#utility.yul\":8134:8256   */\n    tag_283:\n        /* \"#utility.yul\":8288:8294   */\n      dup3\n        /* \"#utility.yul\":8275:8295   */\n      calldataload\n        /* \"#utility.yul\":8265:8295   */\n      swap1\n      pop\n        /* \"#utility.yul\":8318:8336   */\n      0xffffffffffffffff\n        /* \"#utility.yul\":8310:8316   */\n      dup2\n        /* \"#utility.yul\":8307:8337   */\n      gt\n        /* \"#utility.yul\":8304:8421   */\n      iszero\n      tag_285\n      jumpi\n        /* \"#utility.yul\":8340:8419   */\n      tag_286\n      tag_163\n      jump\t// in\n    tag_286:\n        /* \"#utility.yul\":8304:8421   */\n    tag_285:\n        /* \"#utility.yul\":8454:8458   */\n      0x20\n        /* \"#utility.yul\":8446:8452   */\n      dup4\n        /* \"#utility.yul\":8442:8459   */\n      add\n        /* \"#utility.yul\":8430:8459   */\n      swap2\n      pop\n        /* \"#utility.yul\":8508:8511   */\n      dup4\n        /* \"#utility.yul\":8500:8504   */\n      0x01\n        /* \"#utility.yul\":8492:8498   */\n      dup3\n        /* \"#utility.yul\":8488:8505   */\n      mul\n        /* \"#utility.yul\":8478:8486   */\n      dup4\n        /* \"#utility.yul\":8474:8506   */\n      add\n        /* \"#utility.yul\":8471:8512   */\n      gt\n        /* \"#utility.yul\":8468:8596   */\n      iszero\n      tag_287\n      jumpi\n        /* \"#utility.yul\":8515:8594   */\n      tag_288\n      tag_164\n      jump\t// in\n    tag_288:\n        /* \"#utility.yul\":8468:8596   */\n    tag_287:\n        /* \"#utility.yul\":8049:8602   */\n      swap3\n      pop\n      swap3\n      swap1\n      pop\n      jump\t// out\n        /* \"#utility.yul\":8608:9627   */\n    tag_48:\n        /* \"#utility.yul\":8709:8715   */\n      0x00\n        /* \"#utility.yul\":8717:8723   */\n      dup1\n        /* \"#utility.yul\":8725:8731   */\n      0x00\n        /* \"#utility.yul\":8733:8739   */\n      dup1\n        /* \"#utility.yul\":8741:8747   */\n      0x00\n        /* \"#utility.yul\":8790:8792   */\n      0x60\n        /* \"#utility.yul\":8778:8787   */\n      dup7\n        /* \"#utility.yul\":8769:8776   */\n      dup9\n        /* \"#utility.yul\":8765:8788   */\n      sub\n        /* \"#utility.yul\":8761:8793   */\n      slt\n        /* \"#utility.yul\":8758:8877   */\n      iszero\n      tag_290\n      jumpi\n        /* \"#utility.yul\":8796:8875   */\n      tag_291\n      tag_136\n      jump\t// in\n    tag_291:\n        /* \"#utility.yul\":8758:8877   */\n    tag_290:\n        /* \"#utility.yul\":8944:8945   */\n      0x00\n        /* \"#utility.yul\":8933:8942   */\n      dup7\n        /* \"#utility.yul\":8929:8946   */\n      add\n        /* \"#utility.yul\":8916:8947   */\n      calldataload\n        /* \"#utility.yul\":8974:8992   */\n      0xffffffffffffffff\n        /* \"#utility.yul\":8966:8972   */\n      dup2\n        /* \"#utility.yul\":8963:8993   */\n      gt\n        /* \"#utility.yul\":8960:9077   */\n      iszero\n      tag_292\n      jumpi\n        /* \"#utility.yul\":8996:9075   */\n      tag_293\n      tag_137\n      jump\t// in\n    tag_293:\n        /* \"#utility.yul\":8960:9077   */\n    tag_292:\n        /* \"#utility.yul\":9109:9174   */\n      tag_294\n        /* \"#utility.yul\":9166:9173   */\n      dup9\n        /* \"#utility.yul\":9157:9163   */\n      dup3\n        /* \"#utility.yul\":9146:9155   */\n      dup10\n        /* \"#utility.yul\":9142:9164   */\n      add\n        /* \"#utility.yul\":9109:9174   */\n      tag_165\n      jump\t// in\n    tag_294:\n        /* \"#utility.yul\":9091:9174   */\n      swap6\n      pop\n      swap6\n      pop\n        /* \"#utility.yul\":8887:9184   */\n      pop\n        /* \"#utility.yul\":9251:9253   */\n      0x20\n        /* \"#utility.yul\":9240:9249   */\n      dup7\n        /* \"#utility.yul\":9236:9254   */\n      add\n        /* \"#utility.yul\":9223:9255   */\n      calldataload\n        /* \"#utility.yul\":9282:9300   */\n      0xffffffffffffffff\n        /* \"#utility.yul\":9274:9280   */\n      dup2\n        /* \"#utility.yul\":9271:9301   */\n      gt\n        /* \"#utility.yul\":9268:9385   */\n      iszero\n      tag_295\n      jumpi\n        /* \"#utility.yul\":9304:9383   */\n      tag_296\n      tag_137\n      jump\t// in\n    tag_296:\n        /* \"#utility.yul\":9268:9385   */\n    tag_295:\n        /* \"#utility.yul\":9417:9482   */\n      tag_297\n        /* \"#utility.yul\":9474:9481   */\n      dup9\n        /* \"#utility.yul\":9465:9471   */\n      dup3\n        /* \"#utility.yul\":9454:9463   */\n      dup10\n        /* \"#utility.yul\":9450:9472   */\n      add\n        /* \"#utility.yul\":9417:9482   */\n      tag_165\n      jump\t// in\n    tag_297:\n        /* \"#utility.yul\":9399:9482   */\n      swap4\n      pop\n      swap4\n      pop\n        /* \"#utility.yul\":9194:9492   */\n      pop\n        /* \"#utility.yul\":9531:9533   */\n      0x40\n        /* \"#utility.yul\":9557:9610   */\n      tag_298\n        /* \"#utility.yul\":9602:9609   */\n      dup9\n        /* \"#utility.yul\":9593:9599   */\n      dup3\n        /* \"#utility.yul\":9582:9591   */\n      dup10\n        /* \"#utility.yul\":9578:9600   */\n      add\n        /* \"#utility.yul\":9557:9610   */\n      tag_140\n      jump\t// in\n    tag_298:\n        /* \"#utility.yul\":9547:9610   */\n      swap2\n      pop\n        /* \"#utility.yul\":9502:9620   */\n      pop\n        /* \"#utility.yul\":8608:9627   */\n      swap3\n      swap6\n      pop\n      swap3\n      swap6\n      swap1\n      swap4\n      pop\n      jump\t// out\n        /* \"#utility.yul\":9633:9843   */\n    tag_51:\n        /* \"#utility.yul\":9720:9724   */\n      0x00\n        /* \"#utility.yul\":9758:9760   */\n      0x20\n        /* \"#utility.yul\":9747:9756   */\n      dup3\n        /* \"#utility.yul\":9743:9761   */\n      add\n        /* \"#utility.yul\":9735:9761   */\n      swap1\n      pop\n        /* \"#utility.yul\":9771:9836   */\n      tag_300\n        /* \"#utility.yul\":9833:9834   */\n      0x00\n        /* \"#utility.yul\":9822:9831   */\n      dup4\n        /* \"#utility.yul\":9818:9835   */\n      add\n        /* \"#utility.yul\":9809:9815   */\n      dup5\n        /* \"#utility.yul\":9771:9836   */\n      tag_161\n      jump\t// in\n    tag_300:\n        /* \"#utility.yul\":9633:9843   */\n      swap3\n      swap2\n      pop\n      pop\n      jump\t// out\n        /* \"#utility.yul\":9849:10468   */\n    tag_55:\n        /* \"#utility.yul\":9926:9932   */\n      0x00\n        /* \"#utility.yul\":9934:9940   */\n      dup1\n        /* \"#utility.yul\":9942:9948   */\n      0x00\n        /* \"#utility.yul\":9991:9993   */\n      0x60\n        /* \"#utility.yul\":9979:9988   */\n      dup5\n        /* \"#utility.yul\":9970:9977   */\n      dup7\n        /* \"#utility.yul\":9966:9989   */\n      sub\n        /* \"#utility.yul\":9962:9994   */\n      slt\n        /* \"#utility.yul\":9959:10078   */\n      iszero\n      tag_302\n      jumpi\n        /* \"#utility.yul\":9997:10076   */\n      tag_303\n      tag_136\n      jump\t// in\n    tag_303:\n        /* \"#utility.yul\":9959:10078   */\n    tag_302:\n        /* \"#utility.yul\":10117:10118   */\n      0x00\n        /* \"#utility.yul\":10142:10195   */\n      tag_304\n        /* \"#utility.yul\":10187:10194   */\n      dup7\n        /* \"#utility.yul\":10178:10184   */\n      dup3\n        /* \"#utility.yul\":10167:10176   */\n      dup8\n        /* \"#utility.yul\":10163:10185   */\n      add\n        /* \"#utility.yul\":10142:10195   */\n      tag_140\n      jump\t// in\n    tag_304:\n        /* \"#utility.yul\":10132:10195   */\n      swap4\n      pop\n        /* \"#utility.yul\":10088:10205   */\n      pop\n        /* \"#utility.yul\":10244:10246   */\n      0x20\n        /* \"#utility.yul\":10270:10323   */\n      tag_305\n        /* \"#utility.yul\":10315:10322   */\n      dup7\n        /* \"#utility.yul\":10306:10312   */\n      dup3\n        /* \"#utility.yul\":10295:10304   */\n      dup8\n        /* \"#utility.yul\":10291:10313   */\n      add\n        /* \"#utility.yul\":10270:10323   */\n      tag_140\n      jump\t// in\n    tag_305:\n        /* \"#utility.yul\":10260:10323   */\n      swap3\n      pop\n        /* \"#utility.yul\":10215:10333   */\n      pop\n        /* \"#utility.yul\":10372:10374   */\n      0x40\n        /* \"#utility.yul\":10398:10451   */\n      tag_306\n        /* \"#utility.yul\":10443:10450   */\n      dup7\n        /* \"#utility.yul\":10434:10440   */\n      dup3\n        /* \"#utility.yul\":10423:10432   */\n      dup8\n        /* \"#utility.yul\":10419:10441   */\n      add\n        /* \"#utility.yul\":10398:10451   */\n      tag_140\n      jump\t// in\n    tag_306:\n        /* \"#utility.yul\":10388:10451   */\n      swap2\n      pop\n        /* \"#utility.yul\":10343:10461   */\n      pop\n        /* \"#utility.yul\":9849:10468   */\n      swap3\n      pop\n      swap3\n      pop\n      swap3\n      jump\t// out\n        /* \"#utility.yul\":10474:10696   */\n    tag_61:\n        /* \"#utility.yul\":10567:10571   */\n      0x00\n        /* \"#utility.yul\":10605:10607   */\n      0x20\n        /* \"#utility.yul\":10594:10603   */\n      dup3\n        /* \"#utility.yul\":10590:10608   */\n      add\n        /* \"#utility.yul\":10582:10608   */\n      swap1\n      pop\n        /* \"#utility.yul\":10618:10689   */\n      tag_308\n        /* \"#utility.yul\":10686:10687   */\n      0x00\n        /* \"#utility.yul\":10675:10684   */\n      dup4\n        /* \"#utility.yul\":10671:10688   */\n      add\n        /* \"#utility.yul\":10662:10668   */\n      dup5\n        /* \"#utility.yul\":10618:10689   */\n      tag_145\n      jump\t// in\n    tag_308:\n        /* \"#utility.yul\":10474:10696   */\n      swap3\n      swap2\n      pop\n      pop\n      jump\t// out\n        /* \"#utility.yul\":10702:10927   */\n    tag_166:\n        /* \"#utility.yul\":10842:10876   */\n      0x596f752063616e206f6e6c7920706c6179206f6e636521205570646174652069\n        /* \"#utility.yul\":10838:10839   */\n      0x00\n        /* \"#utility.yul\":10830:10836   */\n      dup3\n        /* \"#utility.yul\":10826:10840   */\n      add\n        /* \"#utility.yul\":10819:10877   */\n      mstore\n        /* \"#utility.yul\":10911:10919   */\n      0x6e73746561640000000000000000000000000000000000000000000000000000\n        /* \"#utility.yul\":10906:10908   */\n      0x20\n        /* \"#utility.yul\":10898:10904   */\n      dup3\n        /* \"#utility.yul\":10894:10909   */\n      add\n        /* \"#utility.yul\":10887:10920   */\n      mstore\n        /* \"#utility.yul\":10702:10927   */\n      pop\n      jump\t// out\n        /* \"#utility.yul\":10933:11299   */\n    tag_167:\n        /* \"#utility.yul\":11075:11078   */\n      0x00\n        /* \"#utility.yul\":11096:11163   */\n      tag_311\n        /* \"#utility.yul\":11160:11162   */\n      0x26\n        /* \"#utility.yul\":11155:11158   */\n      dup4\n        /* \"#utility.yul\":11096:11163   */\n      tag_152\n      jump\t// in\n    tag_311:\n        /* \"#utility.yul\":11089:11163   */\n      swap2\n      pop\n        /* \"#utility.yul\":11172:11265   */\n      tag_312\n        /* \"#utility.yul\":11261:11264   */\n      dup3\n        /* \"#utility.yul\":11172:11265   */\n      tag_166\n      jump\t// in\n    tag_312:\n        /* \"#utility.yul\":11290:11292   */\n      0x40\n        /* \"#utility.yul\":11285:11288   */\n      dup3\n        /* \"#utility.yul\":11281:11293   */\n      add\n        /* \"#utility.yul\":11274:11293   */\n      swap1\n      pop\n        /* \"#utility.yul\":10933:11299   */\n      swap2\n      swap1\n      pop\n      jump\t// out\n        /* \"#utility.yul\":11305:11724   */\n    tag_65:\n        /* \"#utility.yul\":11471:11475   */\n      0x00\n        /* \"#utility.yul\":11509:11511   */\n      0x20\n        /* \"#utility.yul\":11498:11507   */\n      dup3\n        /* \"#utility.yul\":11494:11512   */\n      add\n        /* \"#utility.yul\":11486:11512   */\n      swap1\n      pop\n        /* \"#utility.yul\":11558:11567   */\n      dup2\n        /* \"#utility.yul\":11552:11556   */\n      dup2\n        /* \"#utility.yul\":11548:11568   */\n      sub\n        /* \"#utility.yul\":11544:11545   */\n      0x00\n        /* \"#utility.yul\":11533:11542   */\n      dup4\n        /* \"#utility.yul\":11529:11546   */\n      add\n        /* \"#utility.yul\":11522:11569   */\n      mstore\n        /* \"#utility.yul\":11586:11717   */\n      tag_314\n        /* \"#utility.yul\":11712:11716   */\n      dup2\n        /* \"#utility.yul\":11586:11717   */\n      tag_167\n      jump\t// in\n    tag_314:\n        /* \"#utility.yul\":11578:11717   */\n      swap1\n      pop\n        /* \"#utility.yul\":11305:11724   */\n      swap2\n      swap1\n      pop\n      jump\t// out\n        /* \"#utility.yul\":11730:11912   */\n    tag_168:\n        /* \"#utility.yul\":11870:11904   */\n      0x42657420416d6f756e74206973206c657373207468616e207265717569726564\n        /* \"#utility.yul\":11866:11867   */\n      0x00\n        /* \"#utility.yul\":11858:11864   */\n      dup3\n        /* \"#utility.yul\":11854:11868   */\n      add\n        /* \"#utility.yul\":11847:11905   */\n      mstore\n        /* \"#utility.yul\":11730:11912   */\n      pop\n      jump\t// out\n        /* \"#utility.yul\":11918:12284   */\n    tag_169:\n        /* \"#utility.yul\":12060:12063   */\n      0x00\n        /* \"#utility.yul\":12081:12148   */\n      tag_317\n        /* \"#utility.yul\":12145:12147   */\n      0x20\n        /* \"#utility.yul\":12140:12143   */\n      dup4\n        /* \"#utility.yul\":12081:12148   */\n      tag_152\n      jump\t// in\n    tag_317:\n        /* \"#utility.yul\":12074:12148   */\n      swap2\n      pop\n        /* \"#utility.yul\":12157:12250   */\n      tag_318\n        /* \"#utility.yul\":12246:12249   */\n      dup3\n        /* \"#utility.yul\":12157:12250   */\n      tag_168\n      jump\t// in\n    tag_318:\n        /* \"#utility.yul\":12275:12277   */\n      0x20\n        /* \"#utility.yul\":12270:12273   */\n      dup3\n        /* \"#utility.yul\":12266:12278   */\n      add\n        /* \"#utility.yul\":12259:12278   */\n      swap1\n      pop\n        /* \"#utility.yul\":11918:12284   */\n      swap2\n      swap1\n      pop\n      jump\t// out\n        /* \"#utility.yul\":12290:12709   */\n    tag_68:\n        /* \"#utility.yul\":12456:12460   */\n      0x00\n        /* \"#utility.yul\":12494:12496   */\n      0x20\n        /* \"#utility.yul\":12483:12492   */\n      dup3\n        /* \"#utility.yul\":12479:12497   */\n      add\n        /* \"#utility.yul\":12471:12497   */\n      swap1\n      pop\n        /* \"#utility.yul\":12543:12552   */\n      dup2\n        /* \"#utility.yul\":12537:12541   */\n      dup2\n        /* \"#utility.yul\":12533:12553   */\n      sub\n        /* \"#utility.yul\":12529:12530   */\n      0x00\n        /* \"#utility.yul\":12518:12527   */\n      dup4\n        /* \"#utility.yul\":12514:12531   */\n      add\n        /* \"#utility.yul\":12507:12554   */\n      mstore\n        /* \"#utility.yul\":12571:12702   */\n      tag_320\n        /* \"#utility.yul\":12697:12701   */\n      dup2\n        /* \"#utility.yul\":12571:12702   */\n      tag_169\n      jump\t// in\n    tag_320:\n        /* \"#utility.yul\":12563:12702   */\n      swap1\n      pop\n        /* \"#utility.yul\":12290:12709   */\n      swap2\n      swap1\n      pop\n      jump\t// out\n        /* \"#utility.yul\":12715:12895   */\n    tag_78:\n        /* \"#utility.yul\":12763:12840   */\n      0x4e487b7100000000000000000000000000000000000000000000000000000000\n        /* \"#utility.yul\":12760:12761   */\n      0x00\n        /* \"#utility.yul\":12753:12841   */\n      mstore\n        /* \"#utility.yul\":12860:12864   */\n      0x32\n        /* \"#utility.yul\":12857:12858   */\n      0x04\n        /* \"#utility.yul\":12850:12865   */\n      mstore\n        /* \"#utility.yul\":12884:12888   */\n      0x24\n        /* \"#utility.yul\":12881:12882   */\n      0x00\n        /* \"#utility.yul\":12874:12889   */\n      revert\n        /* \"#utility.yul\":12901:13081   */\n    tag_170:\n        /* \"#utility.yul\":12949:13026   */\n      0x4e487b7100000000000000000000000000000000000000000000000000000000\n        /* \"#utility.yul\":12946:12947   */\n      0x00\n        /* \"#utility.yul\":12939:13027   */\n      mstore\n        /* \"#utility.yul\":13046:13050   */\n      0x22\n        /* \"#utility.yul\":13043:13044   */\n      0x04\n        /* \"#utility.yul\":13036:13051   */\n      mstore\n        /* \"#utility.yul\":13070:13074   */\n      0x24\n        /* \"#utility.yul\":13067:13068   */\n      0x00\n        /* \"#utility.yul\":13060:13075   */\n      revert\n        /* \"#utility.yul\":13087:13407   */\n    tag_85:\n        /* \"#utility.yul\":13131:13137   */\n      0x00\n        /* \"#utility.yul\":13168:13169   */\n      0x02\n        /* \"#utility.yul\":13162:13166   */\n      dup3\n        /* \"#utility.yul\":13158:13170   */\n      div\n        /* \"#utility.yul\":13148:13170   */\n      swap1\n      pop\n        /* \"#utility.yul\":13215:13216   */\n      0x01\n        /* \"#utility.yul\":13209:13213   */\n      dup3\n        /* \"#utility.yul\":13205:13217   */\n      and\n        /* \"#utility.yul\":13236:13254   */\n      dup1\n        /* \"#utility.yul\":13226:13307   */\n      tag_324\n      jumpi\n        /* \"#utility.yul\":13292:13296   */\n      0x7f\n        /* \"#utility.yul\":13284:13290   */\n      dup3\n        /* \"#utility.yul\":13280:13297   */\n      and\n        /* \"#utility.yul\":13270:13297   */\n      swap2\n      pop\n        /* \"#utility.yul\":13226:13307   */\n    tag_324:\n        /* \"#utility.yul\":13354:13356   */\n      0x20\n        /* \"#utility.yul\":13346:13352   */\n      dup3\n        /* \"#utility.yul\":13343:13357   */\n      lt\n        /* \"#utility.yul\":13323:13341   */\n      dup2\n        /* \"#utility.yul\":13320:13358   */\n      sub\n        /* \"#utility.yul\":13317:13401   */\n      tag_325\n      jumpi\n        /* \"#utility.yul\":13373:13391   */\n      tag_326\n      tag_170\n      jump\t// in\n    tag_326:\n        /* \"#utility.yul\":13317:13401   */\n    tag_325:\n        /* \"#utility.yul\":13138:13407   */\n      pop\n        /* \"#utility.yul\":13087:13407   */\n      swap2\n      swap1\n      pop\n      jump\t// out\n        /* \"#utility.yul\":13413:13565   */\n    tag_171:\n        /* \"#utility.yul\":13553:13557   */\n      0x4761000000000000000000000000000000000000000000000000000000000000\n        /* \"#utility.yul\":13549:13550   */\n      0x00\n        /* \"#utility.yul\":13541:13547   */\n      dup3\n        /* \"#utility.yul\":13537:13551   */\n      add\n        /* \"#utility.yul\":13530:13558   */\n      mstore\n        /* \"#utility.yul\":13413:13565   */\n      pop\n      jump\t// out\n        /* \"#utility.yul\":13571:13936   */\n    tag_172:\n        /* \"#utility.yul\":13713:13716   */\n      0x00\n        /* \"#utility.yul\":13734:13800   */\n      tag_329\n        /* \"#utility.yul\":13798:13799   */\n      0x02\n        /* \"#utility.yul\":13793:13796   */\n      dup4\n        /* \"#utility.yul\":13734:13800   */\n      tag_152\n      jump\t// in\n    tag_329:\n        /* \"#utility.yul\":13727:13800   */\n      swap2\n      pop\n        /* \"#utility.yul\":13809:13902   */\n      tag_330\n        /* \"#utility.yul\":13898:13901   */\n      dup3\n        /* \"#utility.yul\":13809:13902   */\n      tag_171\n      jump\t// in\n    tag_330:\n        /* \"#utility.yul\":13927:13929   */\n      0x20\n        /* \"#utility.yul\":13922:13925   */\n      dup3\n        /* \"#utility.yul\":13918:13930   */\n      add\n        /* \"#utility.yul\":13911:13930   */\n      swap1\n      pop\n        /* \"#utility.yul\":13571:13936   */\n      swap2\n      swap1\n      pop\n      jump\t// out\n        /* \"#utility.yul\":13942:14361   */\n    tag_98:\n        /* \"#utility.yul\":14108:14112   */\n      0x00\n        /* \"#utility.yul\":14146:14148   */\n      0x20\n        /* \"#utility.yul\":14135:14144   */\n      dup3\n        /* \"#utility.yul\":14131:14149   */\n      add\n        /* \"#utility.yul\":14123:14149   */\n      swap1\n      pop\n        /* \"#utility.yul\":14195:14204   */\n      dup2\n        /* \"#utility.yul\":14189:14193   */\n      dup2\n        /* \"#utility.yul\":14185:14205   */\n      sub\n        /* \"#utility.yul\":14181:14182   */\n      0x00\n        /* \"#utility.yul\":14170:14179   */\n      dup4\n        /* \"#utility.yul\":14166:14183   */\n      add\n        /* \"#utility.yul\":14159:14206   */\n      mstore\n        /* \"#utility.yul\":14223:14354   */\n      tag_332\n        /* \"#utility.yul\":14349:14353   */\n      dup2\n        /* \"#utility.yul\":14223:14354   */\n      tag_172\n      jump\t// in\n    tag_332:\n        /* \"#utility.yul\":14215:14354   */\n      swap1\n      pop\n        /* \"#utility.yul\":13942:14361   */\n      swap2\n      swap1\n      pop\n      jump\t// out\n        /* \"#utility.yul\":14367:14526   */\n    tag_173:\n        /* \"#utility.yul\":14507:14518   */\n      0x4e6f74204f776e65720000000000000000000000000000000000000000000000\n        /* \"#utility.yul\":14503:14504   */\n      0x00\n        /* \"#utility.yul\":14495:14501   */\n      dup3\n        /* \"#utility.yul\":14491:14505   */\n      add\n        /* \"#utility.yul\":14484:14519   */\n      mstore\n        /* \"#utility.yul\":14367:14526   */\n      pop\n      jump\t// out\n        /* \"#utility.yul\":14532:14897   */\n    tag_174:\n        /* \"#utility.yul\":14674:14677   */\n      0x00\n        /* \"#utility.yul\":14695:14761   */\n      tag_335\n        /* \"#utility.yul\":14759:14760   */\n      0x09\n        /* \"#utility.yul\":14754:14757   */\n      dup4\n        /* \"#utility.yul\":14695:14761   */\n      tag_152\n      jump\t// in\n    tag_335:\n        /* \"#utility.yul\":14688:14761   */\n      swap2\n      pop\n        /* \"#utility.yul\":14770:14863   */\n      tag_336\n        /* \"#utility.yul\":14859:14862   */\n      dup3\n        /* \"#utility.yul\":14770:14863   */\n      tag_173\n      jump\t// in\n    tag_336:\n        /* \"#utility.yul\":14888:14890   */\n      0x20\n        /* \"#utility.yul\":14883:14886   */\n      dup3\n        /* \"#utility.yul\":14879:14891   */\n      add\n        /* \"#utility.yul\":14872:14891   */\n      swap1\n      pop\n        /* \"#utility.yul\":14532:14897   */\n      swap2\n      swap1\n      pop\n      jump\t// out\n        /* \"#utility.yul\":14903:15322   */\n    tag_114:\n        /* \"#utility.yul\":15069:15073   */\n      0x00\n        /* \"#utility.yul\":15107:15109   */\n      0x20\n        /* \"#utility.yul\":15096:15105   */\n      dup3\n        /* \"#utility.yul\":15092:15110   */\n      add\n        /* \"#utility.yul\":15084:15110   */\n      swap1\n      pop\n        /* \"#utility.yul\":15156:15165   */\n      dup2\n        /* \"#utility.yul\":15150:15154   */\n      dup2\n        /* \"#utility.yul\":15146:15166   */\n      sub\n        /* \"#utility.yul\":15142:15143   */\n      0x00\n        /* \"#utility.yul\":15131:15140   */\n      dup4\n        /* \"#utility.yul\":15127:15144   */\n      add\n        /* \"#utility.yul\":15120:15167   */\n      mstore\n        /* \"#utility.yul\":15184:15315   */\n      tag_338\n        /* \"#utility.yul\":15310:15314   */\n      dup2\n        /* \"#utility.yul\":15184:15315   */\n      tag_174\n      jump\t// in\n    tag_338:\n        /* \"#utility.yul\":15176:15315   */\n      swap1\n      pop\n        /* \"#utility.yul\":14903:15322   */\n      swap2\n      swap1\n      pop\n      jump\t// out\n        /* \"#utility.yul\":15328:15508   */\n    tag_175:\n        /* \"#utility.yul\":15376:15453   */\n      0x4e487b7100000000000000000000000000000000000000000000000000000000\n        /* \"#utility.yul\":15373:15374   */\n      0x00\n        /* \"#utility.yul\":15366:15454   */\n      mstore\n        /* \"#utility.yul\":15473:15477   */\n      0x11\n        /* \"#utility.yul\":15470:15471   */\n      0x04\n        /* \"#utility.yul\":15463:15478   */\n      mstore\n        /* \"#utility.yul\":15497:15501   */\n      0x24\n        /* \"#utility.yul\":15494:15495   */\n      0x00\n        /* \"#utility.yul\":15487:15502   */\n      revert\n        /* \"#utility.yul\":15514:15705   */\n    tag_116:\n        /* \"#utility.yul\":15554:15557   */\n      0x00\n        /* \"#utility.yul\":15573:15593   */\n      tag_341\n        /* \"#utility.yul\":15591:15592   */\n      dup3\n        /* \"#utility.yul\":15573:15593   */\n      tag_138\n      jump\t// in\n    tag_341:\n        /* \"#utility.yul\":15568:15593   */\n      swap2\n      pop\n        /* \"#utility.yul\":15607:15627   */\n      tag_342\n        /* \"#utility.yul\":15625:15626   */\n      dup4\n        /* \"#utility.yul\":15607:15627   */\n      tag_138\n      jump\t// in\n    tag_342:\n        /* \"#utility.yul\":15602:15627   */\n      swap3\n      pop\n        /* \"#utility.yul\":15650:15651   */\n      dup3\n        /* \"#utility.yul\":15647:15648   */\n      dup3\n        /* \"#utility.yul\":15643:15652   */\n      add\n        /* \"#utility.yul\":15636:15652   */\n      swap1\n      pop\n        /* \"#utility.yul\":15671:15674   */\n      dup1\n        /* \"#utility.yul\":15668:15669   */\n      dup3\n        /* \"#utility.yul\":15665:15675   */\n      gt\n        /* \"#utility.yul\":15662:15698   */\n      iszero\n      tag_343\n      jumpi\n        /* \"#utility.yul\":15678:15696   */\n      tag_344\n      tag_175\n      jump\t// in\n    tag_344:\n        /* \"#utility.yul\":15662:15698   */\n    tag_343:\n        /* \"#utility.yul\":15514:15705   */\n      swap3\n      swap2\n      pop\n      pop\n      jump\t// out\n        /* \"#utility.yul\":15711:15891   */\n    tag_176:\n        /* \"#utility.yul\":15759:15836   */\n      0x4e487b7100000000000000000000000000000000000000000000000000000000\n        /* \"#utility.yul\":15756:15757   */\n      0x00\n        /* \"#utility.yul\":15749:15837   */\n      mstore\n        /* \"#utility.yul\":15856:15860   */\n      0x41\n        /* \"#utility.yul\":15853:15854   */\n      0x04\n        /* \"#utility.yul\":15846:15861   */\n      mstore\n        /* \"#utility.yul\":15880:15884   */\n      0x24\n        /* \"#utility.yul\":15877:15878   */\n      0x00\n        /* \"#utility.yul\":15870:15885   */\n      revert\n        /* \"#utility.yul\":15897:16038   */\n    tag_177:\n        /* \"#utility.yul\":15946:15950   */\n      0x00\n        /* \"#utility.yul\":15969:15972   */\n      dup2\n        /* \"#utility.yul\":15961:15972   */\n      swap1\n      pop\n        /* \"#utility.yul\":15992:15995   */\n      dup2\n        /* \"#utility.yul\":15989:15990   */\n      0x00\n        /* \"#utility.yul\":15982:15996   */\n      mstore\n        /* \"#utility.yul\":16026:16030   */\n      0x20\n        /* \"#utility.yul\":16023:16024   */\n      0x00\n        /* \"#utility.yul\":16013:16031   */\n      keccak256\n        /* \"#utility.yul\":16005:16031   */\n      swap1\n      pop\n        /* \"#utility.yul\":15897:16038   */\n      swap2\n      swap1\n      pop\n      jump\t// out\n        /* \"#utility.yul\":16044:16137   */\n    tag_178:\n        /* \"#utility.yul\":16081:16087   */\n      0x00\n        /* \"#utility.yul\":16128:16130   */\n      0x20\n        /* \"#utility.yul\":16123:16125   */\n      0x1f\n        /* \"#utility.yul\":16116:16121   */\n      dup4\n        /* \"#utility.yul\":16112:16126   */\n      add\n        /* \"#utility.yul\":16108:16131   */\n      div\n        /* \"#utility.yul\":16098:16131   */\n      swap1\n      pop\n        /* \"#utility.yul\":16044:16137   */\n      swap2\n      swap1\n      pop\n      jump\t// out\n        /* \"#utility.yul\":16143:16250   */\n    tag_179:\n        /* \"#utility.yul\":16187:16195   */\n      0x00\n        /* \"#utility.yul\":16237:16242   */\n      dup3\n        /* \"#utility.yul\":16231:16235   */\n      dup3\n        /* \"#utility.yul\":16227:16243   */\n      shl\n        /* \"#utility.yul\":16206:16243   */\n      swap1\n      pop\n        /* \"#utility.yul\":16143:16250   */\n      swap3\n      swap2\n      pop\n      pop\n      jump\t// out\n        /* \"#utility.yul\":16256:16649   */\n    tag_180:\n        /* \"#utility.yul\":16325:16331   */\n      0x00\n        /* \"#utility.yul\":16375:16376   */\n      0x08\n        /* \"#utility.yul\":16363:16373   */\n      dup4\n        /* \"#utility.yul\":16359:16377   */\n      mul\n        /* \"#utility.yul\":16398:16495   */\n      tag_350\n        /* \"#utility.yul\":16428:16494   */\n      0xffffffffffffffffffffffffffffffffffffffffffffffffffffffffffffffff\n        /* \"#utility.yul\":16417:16426   */\n      dup3\n        /* \"#utility.yul\":16398:16495   */\n      tag_179\n      jump\t// in\n    tag_350:\n        /* \"#utility.yul\":16516:16555   */\n      tag_351\n        /* \"#utility.yul\":16546:16554   */\n      dup7\n        /* \"#utility.yul\":16535:16544   */\n      dup4\n        /* \"#utility.yul\":16516:16555   */\n      tag_179\n      jump\t// in\n    tag_351:\n        /* \"#utility.yul\":16504:16555   */\n      swap6\n      pop\n        /* \"#utility.yul\":16588:16592   */\n      dup1\n        /* \"#utility.yul\":16584:16593   */\n      not\n        /* \"#utility.yul\":16577:16582   */\n      dup5\n        /* \"#utility.yul\":16573:16594   */\n      and\n        /* \"#utility.yul\":16564:16594   */\n      swap4\n      pop\n        /* \"#utility.yul\":16637:16641   */\n      dup1\n        /* \"#utility.yul\":16627:16635   */\n      dup7\n        /* \"#utility.yul\":16623:16642   */\n      and\n        /* \"#utility.yul\":16616:16621   */\n      dup5\n        /* \"#utility.yul\":16613:16643   */\n      or\n        /* \"#utility.yul\":16603:16643   */\n      swap3\n      pop\n        /* \"#utility.yul\":16332:16649   */\n      pop\n      pop\n        /* \"#utility.yul\":16256:16649   */\n      swap4\n      swap3\n      pop\n      pop\n      pop\n      jump\t// out\n        /* \"#utility.yul\":16655:16715   */\n    tag_181:\n        /* \"#utility.yul\":16683:16686   */\n      0x00\n        /* \"#utility.yul\":16704:16709   */\n      dup2\n        /* \"#utility.yul\":16697:16709   */\n      swap1\n      pop\n        /* \"#utility.yul\":16655:16715   */\n      swap2\n      swap1\n      pop\n      jump\t// out\n        /* \"#utility.yul\":16721:16863   */\n    tag_182:\n        /* \"#utility.yul\":16771:16780   */\n      0x00\n        /* \"#utility.yul\":16804:16857   */\n      tag_354\n        /* \"#utility.yul\":16822:16856   */\n      tag_355\n        /* \"#utility.yul\":16831:16855   */\n      tag_356\n        /* \"#utility.yul\":16849:16854   */\n      dup5\n        /* \"#utility.yul\":16831:16855   */\n      tag_138\n      jump\t// in\n    tag_356:\n        /* \"#utility.yul\":16822:16856   */\n      tag_181\n      jump\t// in\n    tag_355:\n        /* \"#utility.yul\":16804:16857   */\n      tag_138\n      jump\t// in\n    tag_354:\n        /* \"#utility.yul\":16791:16857   */\n      swap1\n      pop\n        /* \"#utility.yul\":16721:16863   */\n      swap2\n      swap1\n      pop\n      jump\t// out\n        /* \"#utility.yul\":16869:16944   */\n    tag_183:\n        /* \"#utility.yul\":16912:16915   */\n      0x00\n        /* \"#utility.yul\":16933:16938   */\n      dup2\n        /* \"#utility.yul\":16926:16938   */\n      swap1\n      pop\n        /* \"#utility.yul\":16869:16944   */\n      swap2\n      swap1\n      pop\n      jump\t// out\n        /* \"#utility.yul\":16950:17219   */\n    tag_184:\n        /* \"#utility.yul\":17060:17099   */\n      tag_359\n        /* \"#utility.yul\":17091:17098   */\n      dup4\n        /* \"#utility.yul\":17060:17099   */\n      tag_182\n      jump\t// in\n    tag_359:\n        /* \"#utility.yul\":17121:17212   */\n      tag_360\n        /* \"#utility.yul\":17170:17211   */\n      tag_361\n        /* \"#utility.yul\":17194:17210   */\n      dup3\n        /* \"#utility.yul\":17170:17211   */\n      tag_183\n      jump\t// in\n    tag_361:\n        /* \"#utility.yul\":17162:17168   */\n      dup5\n        /* \"#utility.yul\":17155:17159   */\n      dup5\n        /* \"#utility.yul\":17149:17160   */\n      sload\n        /* \"#utility.yul\":17121:17212   */\n      tag_180\n      jump\t// in\n    tag_360:\n        /* \"#utility.yul\":17115:17119   */\n      dup3\n        /* \"#utility.yul\":17108:17213   */\n      sstore\n        /* \"#utility.yul\":17026:17219   */\n      pop\n        /* \"#utility.yul\":16950:17219   */\n      pop\n      pop\n      pop\n      jump\t// out\n        /* \"#utility.yul\":17225:17298   */\n    tag_185:\n        /* \"#utility.yul\":17270:17273   */\n      0x00\n        /* \"#utility.yul\":17225:17298   */\n      swap1\n      jump\t// out\n        /* \"#utility.yul\":17304:17493   */\n    tag_186:\n        /* \"#utility.yul\":17381:17413   */\n      tag_364\n      tag_185\n      jump\t// in\n    tag_364:\n        /* \"#utility.yul\":17422:17487   */\n      tag_365\n        /* \"#utility.yul\":17480:17486   */\n      dup2\n        /* \"#utility.yul\":17472:17478   */\n      dup5\n        /* \"#utility.yul\":17466:17470   */\n      dup5\n        /* \"#utility.yul\":17422:17487   */\n      tag_184\n      jump\t// in\n    tag_365:\n        /* \"#utility.yul\":17357:17493   */\n      pop\n        /* \"#utility.yul\":17304:17493   */\n      pop\n      pop\n      jump\t// out\n        /* \"#utility.yul\":17499:17685   */\n    tag_187:\n        /* \"#utility.yul\":17559:17679   */\n    tag_367:\n        /* \"#utility.yul\":17576:17579   */\n      dup2\n        /* \"#utility.yul\":17569:17574   */\n      dup2\n        /* \"#utility.yul\":17566:17580   */\n      lt\n        /* \"#utility.yul\":17559:17679   */\n      iszero\n      tag_369\n      jumpi\n        /* \"#utility.yul\":17630:17669   */\n      tag_370\n        /* \"#utility.yul\":17667:17668   */\n      0x00\n        /* \"#utility.yul\":17660:17665   */\n      dup3\n        /* \"#utility.yul\":17630:17669   */\n      tag_186\n      jump\t// in\n    tag_370:\n        /* \"#utility.yul\":17603:17604   */\n      0x01\n        /* \"#utility.yul\":17596:17601   */\n      dup2\n        /* \"#utility.yul\":17592:17605   */\n      add\n        /* \"#utility.yul\":17583:17605   */\n      swap1\n      pop\n        /* \"#utility.yul\":17559:17679   */\n      jump(tag_367)\n    tag_369:\n        /* \"#utility.yul\":17499:17685   */\n      pop\n      pop\n      jump\t// out\n        /* \"#utility.yul\":17691:18234   */\n    tag_188:\n        /* \"#utility.yul\":17792:17794   */\n      0x1f\n        /* \"#utility.yul\":17787:17790   */\n      dup3\n        /* \"#utility.yul\":17784:17795   */\n      gt\n        /* \"#utility.yul\":17781:18227   */\n      iszero\n      tag_372\n      jumpi\n        /* \"#utility.yul\":17826:17864   */\n      tag_373\n        /* \"#utility.yul\":17858:17863   */\n      dup2\n        /* \"#utility.yul\":17826:17864   */\n      tag_177\n      jump\t// in\n    tag_373:\n        /* \"#utility.yul\":17910:17939   */\n      tag_374\n        /* \"#utility.yul\":17928:17938   */\n      dup5\n        /* \"#utility.yul\":17910:17939   */\n      tag_178\n      jump\t// in\n    tag_374:\n        /* \"#utility.yul\":17900:17908   */\n      dup2\n        /* \"#utility.yul\":17896:17940   */\n      add\n        /* \"#utility.yul\":18093:18095   */\n      0x20\n        /* \"#utility.yul\":18081:18091   */\n      dup6\n        /* \"#utility.yul\":18078:18096   */\n      lt\n        /* \"#utility.yul\":18075:18124   */\n      iszero\n      tag_375\n      jumpi\n        /* \"#utility.yul\":18114:18122   */\n      dup2\n        /* \"#utility.yul\":18099:18122   */\n      swap1\n      pop\n        /* \"#utility.yul\":18075:18124   */\n    tag_375:\n        /* \"#utility.yul\":18137:18217   */\n      tag_376\n        /* \"#utility.yul\":18193:18215   */\n      tag_377\n        /* \"#utility.yul\":18211:18214   */\n      dup6\n        /* \"#utility.yul\":18193:18215   */\n      tag_178\n      jump\t// in\n    tag_377:\n        /* \"#utility.yul\":18183:18191   */\n      dup4\n        /* \"#utility.yul\":18179:18216   */\n      add\n        /* \"#utility.yul\":18166:18177   */\n      dup3\n        /* \"#utility.yul\":18137:18217   */\n      tag_187\n      jump\t// in\n    tag_376:\n        /* \"#utility.yul\":17796:18227   */\n      pop\n      pop\n        /* \"#utility.yul\":17781:18227   */\n    tag_372:\n        /* \"#utility.yul\":17691:18234   */\n      pop\n      pop\n      pop\n      jump\t// out\n        /* \"#utility.yul\":18240:18357   */\n    tag_189:\n        /* \"#utility.yul\":18294:18302   */\n      0x00\n        /* \"#utility.yul\":18344:18349   */\n      dup3\n        /* \"#utility.yul\":18338:18342   */\n      dup3\n        /* \"#utility.yul\":18334:18350   */\n      shr\n        /* \"#utility.yul\":18313:18350   */\n      swap1\n      pop\n        /* \"#utility.yul\":18240:18357   */\n      swap3\n      swap2\n      pop\n      pop\n      jump\t// out\n        /* \"#utility.yul\":18363:18532   */\n    tag_190:\n        /* \"#utility.yul\":18407:18413   */\n      0x00\n        /* \"#utility.yul\":18440:18491   */\n      tag_380\n        /* \"#utility.yul\":18488:18489   */\n      0x00\n        /* \"#utility.yul\":18484:18490   */\n      not\n        /* \"#utility.yul\":18476:18481   */\n      dup5\n        /* \"#utility.yul\":18473:18474   */\n      0x08\n        /* \"#utility.yul\":18469:18482   */\n      mul\n        /* \"#utility.yul\":18440:18491   */\n      tag_189\n      jump\t// in\n    tag_380:\n        /* \"#utility.yul\":18436:18492   */\n      not\n        /* \"#utility.yul\":18521:18525   */\n      dup1\n        /* \"#utility.yul\":18515:18519   */\n      dup4\n        /* \"#utility.yul\":18511:18526   */\n      and\n        /* \"#utility.yul\":18501:18526   */\n      swap2\n      pop\n        /* \"#utility.yul\":18414:18532   */\n      pop\n        /* \"#utility.yul\":18363:18532   */\n      swap3\n      swap2\n      pop\n      pop\n      jump\t// out\n        /* \"#utility.yul\":18537:18832   */\n    tag_191:\n        /* \"#utility.yul\":18613:18617   */\n      0x00\n        /* \"#utility.yul\":18759:18788   */\n      tag_382\n        /* \"#utility.yul\":18784:18787   */\n      dup4\n        /* \"#utility.yul\":18778:18782   */\n      dup4\n        /* \"#utility.yul\":18759:18788   */\n      tag_190\n      jump\t// in\n    tag_382:\n        /* \"#utility.yul\":18751:18788   */\n      swap2\n      pop\n        /* \"#utility.yul\":18821:18824   */\n      dup3\n        /* \"#utility.yul\":18818:18819   */\n      0x02\n        /* \"#utility.yul\":18814:18825   */\n      mul\n        /* \"#utility.yul\":18808:18812   */\n      dup3\n        /* \"#utility.yul\":18805:18826   */\n      or\n        /* \"#utility.yul\":18797:18826   */\n      swap1\n      pop\n        /* \"#utility.yul\":18537:18832   */\n      swap3\n      swap2\n      pop\n      pop\n      jump\t// out\n        /* \"#utility.yul\":18837:20232   */\n    tag_118:\n        /* \"#utility.yul\":18954:18991   */\n      tag_384\n        /* \"#utility.yul\":18987:18990   */\n      dup3\n        /* \"#utility.yul\":18954:18991   */\n      tag_151\n      jump\t// in\n    tag_384:\n        /* \"#utility.yul\":19056:19074   */\n      0xffffffffffffffff\n        /* \"#utility.yul\":19048:19054   */\n      dup2\n        /* \"#utility.yul\":19045:19075   */\n      gt\n        /* \"#utility.yul\":19042:19098   */\n      iszero\n      tag_385\n      jumpi\n        /* \"#utility.yul\":19078:19096   */\n      tag_386\n      tag_176\n      jump\t// in\n    tag_386:\n        /* \"#utility.yul\":19042:19098   */\n    tag_385:\n        /* \"#utility.yul\":19122:19160   */\n      tag_387\n        /* \"#utility.yul\":19154:19158   */\n      dup3\n        /* \"#utility.yul\":19148:19159   */\n      sload\n        /* \"#utility.yul\":19122:19160   */\n      tag_85\n      jump\t// in\n    tag_387:\n        /* \"#utility.yul\":19207:19274   */\n      tag_388\n        /* \"#utility.yul\":19267:19273   */\n      dup3\n        /* \"#utility.yul\":19259:19265   */\n      dup3\n        /* \"#utility.yul\":19253:19257   */\n      dup6\n        /* \"#utility.yul\":19207:19274   */\n      tag_188\n      jump\t// in\n    tag_388:\n        /* \"#utility.yul\":19301:19302   */\n      0x00\n        /* \"#utility.yul\":19325:19329   */\n      0x20\n        /* \"#utility.yul\":19312:19329   */\n      swap1\n      pop\n        /* \"#utility.yul\":19357:19359   */\n      0x1f\n        /* \"#utility.yul\":19349:19355   */\n      dup4\n        /* \"#utility.yul\":19346:19360   */\n      gt\n        /* \"#utility.yul\":19374:19375   */\n      0x01\n        /* \"#utility.yul\":19369:19987   */\n      dup2\n      eq\n      tag_390\n      jumpi\n        /* \"#utility.yul\":20031:20032   */\n      0x00\n        /* \"#utility.yul\":20048:20054   */\n      dup5\n        /* \"#utility.yul\":20045:20122   */\n      iszero\n      tag_391\n      jumpi\n        /* \"#utility.yul\":20097:20106   */\n      dup3\n        /* \"#utility.yul\":20092:20095   */\n      dup8\n        /* \"#utility.yul\":20088:20107   */\n      add\n        /* \"#utility.yul\":20082:20108   */\n      mload\n        /* \"#utility.yul\":20073:20108   */\n      swap1\n      pop\n        /* \"#utility.yul\":20045:20122   */\n    tag_391:\n        /* \"#utility.yul\":20148:20215   */\n      tag_392\n        /* \"#utility.yul\":20208:20214   */\n      dup6\n        /* \"#utility.yul\":20201:20206   */\n      dup3\n        /* \"#utility.yul\":20148:20215   */\n      tag_191\n      jump\t// in\n    tag_392:\n        /* \"#utility.yul\":20142:20146   */\n      dup7\n        /* \"#utility.yul\":20135:20216   */\n      sstore\n        /* \"#utility.yul\":20004:20226   */\n      pop\n        /* \"#utility.yul\":19339:20226   */\n      jump(tag_389)\n        /* \"#utility.yul\":19369:19987   */\n    tag_390:\n        /* \"#utility.yul\":19421:19425   */\n      0x1f\n        /* \"#utility.yul\":19417:19426   */\n      not\n        /* \"#utility.yul\":19409:19415   */\n      dup5\n        /* \"#utility.yul\":19405:19427   */\n      and\n        /* \"#utility.yul\":19455:19492   */\n      tag_393\n        /* \"#utility.yul\":19487:19491   */\n      dup7\n        /* \"#utility.yul\":19455:19492   */\n      tag_177\n      jump\t// in\n    tag_393:\n        /* \"#utility.yul\":19514:19515   */\n      0x00\n        /* \"#utility.yul\":19528:19736   */\n    tag_394:\n        /* \"#utility.yul\":19542:19549   */\n      dup3\n        /* \"#utility.yul\":19539:19540   */\n      dup2\n        /* \"#utility.yul\":19536:19550   */\n      lt\n        /* \"#utility.yul\":19528:19736   */\n      iszero\n      tag_396\n      jumpi\n        /* \"#utility.yul\":19621:19630   */\n      dup5\n        /* \"#utility.yul\":19616:19619   */\n      dup10\n        /* \"#utility.yul\":19612:19631   */\n      add\n        /* \"#utility.yul\":19606:19632   */\n      mload\n        /* \"#utility.yul\":19598:19604   */\n      dup3\n        /* \"#utility.yul\":19591:19633   */\n      sstore\n        /* \"#utility.yul\":19672:19673   */\n      0x01\n        /* \"#utility.yul\":19664:19670   */\n      dup3\n        /* \"#utility.yul\":19660:19674   */\n      add\n        /* \"#utility.yul\":19650:19674   */\n      swap2\n      pop\n        /* \"#utility.yul\":19719:19721   */\n      0x20\n        /* \"#utility.yul\":19708:19717   */\n      dup6\n        /* \"#utility.yul\":19704:19722   */\n      add\n        /* \"#utility.yul\":19691:19722   */\n      swap5\n      pop\n        /* \"#utility.yul\":19565:19569   */\n      0x20\n        /* \"#utility.yul\":19562:19563   */\n      dup2\n        /* \"#utility.yul\":19558:19570   */\n      add\n        /* \"#utility.yul\":19553:19570   */\n      swap1\n      pop\n        /* \"#utility.yul\":19528:19736   */\n      jump(tag_394)\n    tag_396:\n        /* \"#utility.yul\":19764:19770   */\n      dup7\n        /* \"#utility.yul\":19755:19762   */\n      dup4\n        /* \"#utility.yul\":19752:19771   */\n      lt\n        /* \"#utility.yul\":19749:19928   */\n      iszero\n      tag_397\n      jumpi\n        /* \"#utility.yul\":19822:19831   */\n      dup5\n        /* \"#utility.yul\":19817:19820   */\n      dup10\n        /* \"#utility.yul\":19813:19832   */\n      add\n        /* \"#utility.yul\":19807:19833   */\n      mload\n        /* \"#utility.yul\":19865:19913   */\n      tag_398\n        /* \"#utility.yul\":19907:19911   */\n      0x1f\n        /* \"#utility.yul\":19899:19905   */\n      dup10\n        /* \"#utility.yul\":19895:19912   */\n      and\n        /* \"#utility.yul\":19884:19893   */\n      dup3\n        /* \"#utility.yul\":19865:19913   */\n      tag_190\n      jump\t// in\n    tag_398:\n        /* \"#utility.yul\":19857:19863   */\n      dup4\n        /* \"#utility.yul\":19850:19914   */\n      sstore\n        /* \"#utility.yul\":19772:19928   */\n      pop\n        /* \"#utility.yul\":19749:19928   */\n    tag_397:\n        /* \"#utility.yul\":19974:19975   */\n      0x01\n        /* \"#utility.yul\":19970:19971   */\n      0x02\n        /* \"#utility.yul\":19962:19968   */\n      dup9\n        /* \"#utility.yul\":19958:19972   */\n      mul\n        /* \"#utility.yul\":19954:19976   */\n      add\n        /* \"#utility.yul\":19948:19952   */\n      dup9\n        /* \"#utility.yul\":19941:19977   */\n      sstore\n        /* \"#utility.yul\":19376:19987   */\n      pop\n      pop\n      pop\n        /* \"#utility.yul\":19339:20226   */\n    tag_389:\n      pop\n        /* \"#utility.yul\":18929:20232   */\n      pop\n      pop\n      pop\n        /* \"#utility.yul\":18837:20232   */\n      pop\n      pop\n      jump\t// out\n        /* \"#utility.yul\":20238:20405   */\n    tag_192:\n        /* \"#utility.yul\":20378:20397   */\n      0x4d61746368206973207374696c6c206f6e000000000000000000000000000000\n        /* \"#utility.yul\":20374:20375   */\n      0x00\n        /* \"#utility.yul\":20366:20372   */\n      dup3\n        /* \"#utility.yul\":20362:20376   */\n      add\n        /* \"#utility.yul\":20355:20398   */\n      mstore\n        /* \"#utility.yul\":20238:20405   */\n      pop\n      jump\t// out\n        /* \"#utility.yul\":20411:20777   */\n    tag_193:\n        /* \"#utility.yul\":20553:20556   */\n      0x00\n        /* \"#utility.yul\":20574:20641   */\n      tag_401\n        /* \"#utility.yul\":20638:20640   */\n      0x11\n        /* \"#utility.yul\":20633:20636   */\n      dup4\n        /* \"#utility.yul\":20574:20641   */\n      tag_152\n      jump\t// in\n    tag_401:\n        /* \"#utility.yul\":20567:20641   */\n      swap2\n      pop\n        /* \"#utility.yul\":20650:20743   */\n      tag_402\n        /* \"#utility.yul\":20739:20742   */\n      dup3\n        /* \"#utility.yul\":20650:20743   */\n      tag_192\n      jump\t// in\n    tag_402:\n        /* \"#utility.yul\":20768:20770   */\n      0x20\n        /* \"#utility.yul\":20763:20766   */\n      dup3\n        /* \"#utility.yul\":20759:20771   */\n      add\n        /* \"#utility.yul\":20752:20771   */\n      swap1\n      pop\n        /* \"#utility.yul\":20411:20777   */\n      swap2\n      swap1\n      pop\n      jump\t// out\n        /* \"#utility.yul\":20783:21202   */\n    tag_131:\n        /* \"#utility.yul\":20949:20953   */\n      0x00\n        /* \"#utility.yul\":20987:20989   */\n      0x20\n        /* \"#utility.yul\":20976:20985   */\n      dup3\n        /* \"#utility.yul\":20972:20990   */\n      add\n        /* \"#utility.yul\":20964:20990   */\n      swap1\n      pop\n        /* \"#utility.yul\":21036:21045   */\n      dup2\n        /* \"#utility.yul\":21030:21034   */\n      dup2\n        /* \"#utility.yul\":21026:21046   */\n      sub\n        /* \"#utility.yul\":21022:21023   */\n      0x00\n        /* \"#utility.yul\":21011:21020   */\n      dup4\n        /* \"#utility.yul\":21007:21024   */\n      add\n        /* \"#utility.yul\":21000:21047   */\n      mstore\n        /* \"#utility.yul\":21064:21195   */\n      tag_404\n        /* \"#utility.yul\":21190:21194   */\n      dup2\n        /* \"#utility.yul\":21064:21195   */\n      tag_193\n      jump\t// in\n    tag_404:\n        /* \"#utility.yul\":21056:21195   */\n      swap1\n      pop\n        /* \"#utility.yul\":20783:21202   */\n      swap2\n      swap1\n      pop\n      jump\t// out\n\n    auxdata: 0xa2646970667358221220400a833c3c91671ff48711b82efd08dc6cf8e311db865ab9be3f00995d021b8364736f6c63430008110033\n}\n",
				"bytecode": {
					"linkReferences": {},
					"object": "608060405234801561001057600080fd5b50336000806101000a81548173ffffffffffffffffffffffffffffffffffffffff021916908373ffffffffffffffffffffffffffffffffffffffff160217905550611970806100606000396000f3fe6080604052600436106100865760003560e01c80635fbc88ad116100595780635fbc88ad14610167578063b2edb39f14610190578063bc9e6e2c146101d1578063ec7361a81461020e578063f851a4401461023757610086565b806303edf9141461008b57806315a3ae71146100a75780632172ff16146100e65780634195ab8e14610127575b600080fd5b6100a560048036038101906100a09190610e70565b610262565b005b3480156100b357600080fd5b506100ce60048036038101906100c99190610eb0565b610534565b6040516100dd93929190610fa4565b60405180910390f35b3480156100f257600080fd5b5061010d60048036038101906101089190610eb0565b61059b565b60405161011e9594939291906110a9565b60405180910390f35b34801561013357600080fd5b5061014e60048036038101906101499190611136565b6106ff565b60405161015e9493929190611191565b60405180910390f35b34801561017357600080fd5b5061018e60048036038101906101899190610e70565b610756565b005b34801561019c57600080fd5b506101b760048036038101906101b29190610eb0565b6107b8565b6040516101c89594939291906110a9565b60405180910390f35b3480156101dd57600080fd5b506101f860048036038101906101f3919061123b565b61092c565b60405161020591906112d0565b60405180910390f35b34801561021a57600080fd5b50610235600480360381019061023091906112eb565b610c61565b005b34801561024357600080fd5b5061024c610de7565b604051610259919061133e565b60405180910390f35b60001515600260003373ffffffffffffffffffffffffffffffffffffffff1673ffffffffffffffffffffffffffffffffffffffff168152602001908152602001600020600084815260200190815260200160002060030160009054906101000a900460ff16151514610309576040517f08c379a0000000000000000000000000000000000000000000000000000000008152600401610300906113cb565b60405180910390fd5b670de0b6b3a76400003414610353576040517f08c379a000000000000000000000000000000000000000000000000000000000815260040161034a90611437565b60405180910390fd5b6000349050604051806080016040528083600381111561037657610375610f2d565b5b81526020016000815260200182815260200160011515815250600260003373ffffffffffffffffffffffffffffffffffffffff1673ffffffffffffffffffffffffffffffffffffffff168152602001908152602001600020600085815260200190815260200160002060008201518160000160006101000a81548160ff0219169083600381111561040a57610409610f2d565b5b0217905550602082015181600101556040820151816002015560608201518160030160006101000a81548160ff02191690831515021790555090505060405180606001604052803373ffffffffffffffffffffffffffffffffffffffff16815260200182815260200183600381111561048657610485610f2d565b5b8152506004848154811061049d5761049c611457565b5b906000526020600020906003020160008201518160000160006101000a81548173ffffffffffffffffffffffffffffffffffffffff021916908373ffffffffffffffffffffffffffffffffffffffff1602179055506020820151816001015560408201518160020160006101000a81548160ff0219169083600381111561052757610526610f2d565b5b0217905550905050505050565b6004818154811061054457600080fd5b90600052602060002090600302016000915090508060000160009054906101000a900473ffffffffffffffffffffffffffffffffffffffff16908060010154908060020160009054906101000a900460ff16905083565b60016020528060005260406000206000915090508060000180546105be906114b5565b80601f01602080910402602001604051908101604052809291908181526020018280546105ea906114b5565b80156106375780601f1061060c57610100808354040283529160200191610637565b820191906000526020600020905b81548152906001019060200180831161061a57829003601f168201915b50505050509080600101805461064c906114b5565b80601f0160208091040260200160405190810160405280929190818152602001828054610678906114b5565b80156106c55780601f1061069a576101008083540402835291602001916106c5565b820191906000526020600020905b8154815290600101906020018083116106a857829003601f168201915b5050505050908060020154908060030154908060040160405180604001604052908160008201548152602001600182015481525050905085565b6002602052816000526040600020602052806000526040600020600091509150508060000160009054906101000a900460ff16908060010154908060020154908060030160009054906101000a900460ff16905084565b6000429050600160008481526020019081526020016000206003015481106107b3576040517f08c379a00000000000000000000000000000000000000000000000000000000081526004016107aa90611532565b60405180910390fd5b505050565b600381815481106107c857600080fd5b90600052602060002090600602016000915090508060000180546107eb906114b5565b80601f0160208091040260200160405190810160405280929190818152602001828054610817906114b5565b80156108645780601f1061083957610100808354040283529160200191610864565b820191906000526020600020905b81548152906001019060200180831161084757829003601f168201915b505050505090806001018054610879906114b5565b80601f01602080910402602001604051908101604052809291908181526020018280546108a5906114b5565b80156108f25780601f106108c7576101008083540402835291602001916108f2565b820191906000526020600020905b8154815290600101906020018083116108d557829003601f168201915b5050505050908060020154908060030154908060040160405180604001604052908160008201548152602001600182015481525050905085565b60003373ffffffffffffffffffffffffffffffffffffffff1660008054906101000a900473ffffffffffffffffffffffffffffffffffffffff1673ffffffffffffffffffffffffffffffffffffffff16146109bc576040517f08c379a00000000000000000000000000000000000000000000000000000000081526004016109b39061159e565b60405180910390fd5b6000605f836109cb91906115ed565b9050600060405180604001604052806000815260200160008152509050600060038054905090506040518060a001604052808a8a8080601f016020809104026020016040519081016040528093929190818152602001838380828437600081840152601f19601f82011690508083019250505050505050815260200188888080601f016020809104026020016040519081016040528093929190818152602001838380828437600081840152601f19601f82011690508083019250505050505050815260200186815260200184815260200183815250600160008381526020019081526020016000206000820151816000019081610ac991906117fc565b506020820151816001019081610adf91906117fc565b5060408201518160020155606082015181600301556080820151816004016000820151816000015560208201518160010155505090505060036040518060a001604052808b8b8080601f016020809104026020016040519081016040528093929190818152602001838380828437600081840152601f19601f82011690508083019250505050505050815260200189898080601f016020809104026020016040519081016040528093929190818152602001838380828437600081840152601f19601f8201169050808301925050505050505081526020018781526020018581526020018481525090806001815401808255809150506001900390600052602060002090600602016000909190919091506000820151816000019081610c0591906117fc565b506020820151816001019081610c1b91906117fc565b5060408201518160020155606082015181600301556080820151816004016000820151816000015560208201518160010155505050506001935050505095945050505050565b3373ffffffffffffffffffffffffffffffffffffffff1660008054906101000a900473ffffffffffffffffffffffffffffffffffffffff1673ffffffffffffffffffffffffffffffffffffffff1614610cef576040517f08c379a0000000000000000000000000000000000000000000000000000000008152600401610ce69061159e565b60405180910390fd5b600042905060038481548110610d0857610d07611457565b5b906000526020600020906006020160030154811015610d5c576040517f08c379a0000000000000000000000000000000000000000000000000000000008152600401610d539061191a565b60405180910390fd5b600060405180604001604052808581526020018481525090508060038681548110610d8a57610d89611457565b5b90600052602060002090600602016004016000820151816000015560208201518160010155905050806001600087815260200190815260200160002060040160008201518160000155602082015181600101559050505050505050565b60008054906101000a900473ffffffffffffffffffffffffffffffffffffffff1681565b600080fd5b600080fd5b6000819050919050565b610e2881610e15565b8114610e3357600080fd5b50565b600081359050610e4581610e1f565b92915050565b60048110610e5857600080fd5b50565b600081359050610e6a81610e4b565b92915050565b60008060408385031215610e8757610e86610e0b565b5b6000610e9585828601610e36565b9250506020610ea685828601610e5b565b9150509250929050565b600060208284031215610ec657610ec5610e0b565b5b6000610ed484828501610e36565b91505092915050565b600073ffffffffffffffffffffffffffffffffffffffff82169050919050565b6000610f0882610edd565b9050919050565b610f1881610efd565b82525050565b610f2781610e15565b82525050565b7f4e487b7100000000000000000000000000000000000000000000000000000000600052602160045260246000fd5b60048110610f6d57610f6c610f2d565b5b50565b6000819050610f7e82610f5c565b919050565b6000610f8e82610f70565b9050919050565b610f9e81610f83565b82525050565b6000606082019050610fb96000830186610f0f565b610fc66020830185610f1e565b610fd36040830184610f95565b949350505050565b600081519050919050565b600082825260208201905092915050565b60005b83811015611015578082015181840152602081019050610ffa565b60008484015250505050565b6000601f19601f8301169050919050565b600061103d82610fdb565b6110478185610fe6565b9350611057818560208601610ff7565b61106081611021565b840191505092915050565b61107481610e15565b82525050565b604082016000820151611090600085018261106b565b5060208201516110a3602085018261106b565b50505050565b600060c08201905081810360008301526110c38188611032565b905081810360208301526110d78187611032565b90506110e66040830186610f1e565b6110f36060830185610f1e565b611100608083018461107a565b9695505050505050565b61111381610efd565b811461111e57600080fd5b50565b6000813590506111308161110a565b92915050565b6000806040838503121561114d5761114c610e0b565b5b600061115b85828601611121565b925050602061116c85828601610e36565b9150509250929050565b60008115159050919050565b61118b81611176565b82525050565b60006080820190506111a66000830187610f95565b6111b36020830186610f1e565b6111c06040830185610f1e565b6111cd6060830184611182565b95945050505050565b600080fd5b600080fd5b600080fd5b60008083601f8401126111fb576111fa6111d6565b5b8235905067ffffffffffffffff811115611218576112176111db565b5b602083019150836001820283011115611234576112336111e0565b5b9250929050565b60008060008060006060868803121561125757611256610e0b565b5b600086013567ffffffffffffffff81111561127557611274610e10565b5b611281888289016111e5565b9550955050602086013567ffffffffffffffff8111156112a4576112a3610e10565b5b6112b0888289016111e5565b935093505060406112c388828901610e36565b9150509295509295909350565b60006020820190506112e56000830184611182565b92915050565b60008060006060848603121561130457611303610e0b565b5b600061131286828701610e36565b935050602061132386828701610e36565b925050604061133486828701610e36565b9150509250925092565b60006020820190506113536000830184610f0f565b92915050565b7f596f752063616e206f6e6c7920706c6179206f6e63652120557064617465206960008201527f6e73746561640000000000000000000000000000000000000000000000000000602082015250565b60006113b5602683610fe6565b91506113c082611359565b604082019050919050565b600060208201905081810360008301526113e4816113a8565b9050919050565b7f42657420416d6f756e74206973206c657373207468616e207265717569726564600082015250565b6000611421602083610fe6565b915061142c826113eb565b602082019050919050565b6000602082019050818103600083015261145081611414565b9050919050565b7f4e487b7100000000000000000000000000000000000000000000000000000000600052603260045260246000fd5b7f4e487b7100000000000000000000000000000000000000000000000000000000600052602260045260246000fd5b600060028204905060018216806114cd57607f821691505b6020821081036114e0576114df611486565b5b50919050565b7f4761000000000000000000000000000000000000000000000000000000000000600082015250565b600061151c600283610fe6565b9150611527826114e6565b602082019050919050565b6000602082019050818103600083015261154b8161150f565b9050919050565b7f4e6f74204f776e65720000000000000000000000000000000000000000000000600082015250565b6000611588600983610fe6565b915061159382611552565b602082019050919050565b600060208201905081810360008301526115b78161157b565b9050919050565b7f4e487b7100000000000000000000000000000000000000000000000000000000600052601160045260246000fd5b60006115f882610e15565b915061160383610e15565b925082820190508082111561161b5761161a6115be565b5b92915050565b7f4e487b7100000000000000000000000000000000000000000000000000000000600052604160045260246000fd5b60008190508160005260206000209050919050565b60006020601f8301049050919050565b600082821b905092915050565b6000600883026116b27fffffffffffffffffffffffffffffffffffffffffffffffffffffffffffffffff82611675565b6116bc8683611675565b95508019841693508086168417925050509392505050565b6000819050919050565b60006116f96116f46116ef84610e15565b6116d4565b610e15565b9050919050565b6000819050919050565b611713836116de565b61172761171f82611700565b848454611682565b825550505050565b600090565b61173c61172f565b61174781848461170a565b505050565b5b8181101561176b57611760600082611734565b60018101905061174d565b5050565b601f8211156117b05761178181611650565b61178a84611665565b81016020851015611799578190505b6117ad6117a585611665565b83018261174c565b50505b505050565b600082821c905092915050565b60006117d3600019846008026117b5565b1980831691505092915050565b60006117ec83836117c2565b9150826002028217905092915050565b61180582610fdb565b67ffffffffffffffff81111561181e5761181d611621565b5b61182882546114b5565b61183382828561176f565b600060209050601f8311600181146118665760008415611854578287015190505b61185e85826117e0565b8655506118c6565b601f19841661187486611650565b60005b8281101561189c57848901518255600182019150602085019450602081019050611877565b868310156118b957848901516118b5601f8916826117c2565b8355505b6001600288020188555050505b505050505050565b7f4d61746368206973207374696c6c206f6e000000000000000000000000000000600082015250565b6000611904601183610fe6565b915061190f826118ce565b602082019050919050565b60006020820190508181036000830152611933816118f7565b905091905056fea2646970667358221220400a833c3c91671ff48711b82efd08dc6cf8e311db865ab9be3f00995d021b8364736f6c63430008110033",
					"opcodes": "PUSH1 0x80 PUSH1 0x40 MSTORE CALLVALUE DUP1 ISZERO PUSH2 0x10 JUMPI PUSH1 0x0 DUP1 REVERT JUMPDEST POP CALLER PUSH1 0x0 DUP1 PUSH2 0x100 EXP DUP2 SLOAD DUP2 PUSH20 0xFFFFFFFFFFFFFFFFFFFFFFFFFFFFFFFFFFFFFFFF MUL NOT AND SWAP1 DUP4 PUSH20 0xFFFFFFFFFFFFFFFFFFFFFFFFFFFFFFFFFFFFFFFF AND MUL OR SWAP1 SSTORE POP PUSH2 0x1970 DUP1 PUSH2 0x60 PUSH1 0x0 CODECOPY PUSH1 0x0 RETURN INVALID PUSH1 0x80 PUSH1 0x40 MSTORE PUSH1 0x4 CALLDATASIZE LT PUSH2 0x86 JUMPI PUSH1 0x0 CALLDATALOAD PUSH1 0xE0 SHR DUP1 PUSH4 0x5FBC88AD GT PUSH2 0x59 JUMPI DUP1 PUSH4 0x5FBC88AD EQ PUSH2 0x167 JUMPI DUP1 PUSH4 0xB2EDB39F EQ PUSH2 0x190 JUMPI DUP1 PUSH4 0xBC9E6E2C EQ PUSH2 0x1D1 JUMPI DUP1 PUSH4 0xEC7361A8 EQ PUSH2 0x20E JUMPI DUP1 PUSH4 0xF851A440 EQ PUSH2 0x237 JUMPI PUSH2 0x86 JUMP JUMPDEST DUP1 PUSH4 0x3EDF914 EQ PUSH2 0x8B JUMPI DUP1 PUSH4 0x15A3AE71 EQ PUSH2 0xA7 JUMPI DUP1 PUSH4 0x2172FF16 EQ PUSH2 0xE6 JUMPI DUP1 PUSH4 0x4195AB8E EQ PUSH2 0x127 JUMPI JUMPDEST PUSH1 0x0 DUP1 REVERT JUMPDEST PUSH2 0xA5 PUSH1 0x4 DUP1 CALLDATASIZE SUB DUP2 ADD SWAP1 PUSH2 0xA0 SWAP2 SWAP1 PUSH2 0xE70 JUMP JUMPDEST PUSH2 0x262 JUMP JUMPDEST STOP JUMPDEST CALLVALUE DUP1 ISZERO PUSH2 0xB3 JUMPI PUSH1 0x0 DUP1 REVERT JUMPDEST POP PUSH2 0xCE PUSH1 0x4 DUP1 CALLDATASIZE SUB DUP2 ADD SWAP1 PUSH2 0xC9 SWAP2 SWAP1 PUSH2 0xEB0 JUMP JUMPDEST PUSH2 0x534 JUMP JUMPDEST PUSH1 0x40 MLOAD PUSH2 0xDD SWAP4 SWAP3 SWAP2 SWAP1 PUSH2 0xFA4 JUMP JUMPDEST PUSH1 0x40 MLOAD DUP1 SWAP2 SUB SWAP1 RETURN JUMPDEST CALLVALUE DUP1 ISZERO PUSH2 0xF2 JUMPI PUSH1 0x0 DUP1 REVERT JUMPDEST POP PUSH2 0x10D PUSH1 0x4 DUP1 CALLDATASIZE SUB DUP2 ADD SWAP1 PUSH2 0x108 SWAP2 SWAP1 PUSH2 0xEB0 JUMP JUMPDEST PUSH2 0x59B JUMP JUMPDEST PUSH1 0x40 MLOAD PUSH2 0x11E SWAP6 SWAP5 SWAP4 SWAP3 SWAP2 SWAP1 PUSH2 0x10A9 JUMP JUMPDEST PUSH1 0x40 MLOAD DUP1 SWAP2 SUB SWAP1 RETURN JUMPDEST CALLVALUE DUP1 ISZERO PUSH2 0x133 JUMPI PUSH1 0x0 DUP1 REVERT JUMPDEST POP PUSH2 0x14E PUSH1 0x4 DUP1 CALLDATASIZE SUB DUP2 ADD SWAP1 PUSH2 0x149 SWAP2 SWAP1 PUSH2 0x1136 JUMP JUMPDEST PUSH2 0x6FF JUMP JUMPDEST PUSH1 0x40 MLOAD PUSH2 0x15E SWAP5 SWAP4 SWAP3 SWAP2 SWAP1 PUSH2 0x1191 JUMP JUMPDEST PUSH1 0x40 MLOAD DUP1 SWAP2 SUB SWAP1 RETURN JUMPDEST CALLVALUE DUP1 ISZERO PUSH2 0x173 JUMPI PUSH1 0x0 DUP1 REVERT JUMPDEST POP PUSH2 0x18E PUSH1 0x4 DUP1 CALLDATASIZE SUB DUP2 ADD SWAP1 PUSH2 0x189 SWAP2 SWAP1 PUSH2 0xE70 JUMP JUMPDEST PUSH2 0x756 JUMP JUMPDEST STOP JUMPDEST CALLVALUE DUP1 ISZERO PUSH2 0x19C JUMPI PUSH1 0x0 DUP1 REVERT JUMPDEST POP PUSH2 0x1B7 PUSH1 0x4 DUP1 CALLDATASIZE SUB DUP2 ADD SWAP1 PUSH2 0x1B2 SWAP2 SWAP1 PUSH2 0xEB0 JUMP JUMPDEST PUSH2 0x7B8 JUMP JUMPDEST PUSH1 0x40 MLOAD PUSH2 0x1C8 SWAP6 SWAP5 SWAP4 SWAP3 SWAP2 SWAP1 PUSH2 0x10A9 JUMP JUMPDEST PUSH1 0x40 MLOAD DUP1 SWAP2 SUB SWAP1 RETURN JUMPDEST CALLVALUE DUP1 ISZERO PUSH2 0x1DD JUMPI PUSH1 0x0 DUP1 REVERT JUMPDEST POP PUSH2 0x1F8 PUSH1 0x4 DUP1 CALLDATASIZE SUB DUP2 ADD SWAP1 PUSH2 0x1F3 SWAP2 SWAP1 PUSH2 0x123B JUMP JUMPDEST PUSH2 0x92C JUMP JUMPDEST PUSH1 0x40 MLOAD PUSH2 0x205 SWAP2 SWAP1 PUSH2 0x12D0 JUMP JUMPDEST PUSH1 0x40 MLOAD DUP1 SWAP2 SUB SWAP1 RETURN JUMPDEST CALLVALUE DUP1 ISZERO PUSH2 0x21A JUMPI PUSH1 0x0 DUP1 REVERT JUMPDEST POP PUSH2 0x235 PUSH1 0x4 DUP1 CALLDATASIZE SUB DUP2 ADD SWAP1 PUSH2 0x230 SWAP2 SWAP1 PUSH2 0x12EB JUMP JUMPDEST PUSH2 0xC61 JUMP JUMPDEST STOP JUMPDEST CALLVALUE DUP1 ISZERO PUSH2 0x243 JUMPI PUSH1 0x0 DUP1 REVERT JUMPDEST POP PUSH2 0x24C PUSH2 0xDE7 JUMP JUMPDEST PUSH1 0x40 MLOAD PUSH2 0x259 SWAP2 SWAP1 PUSH2 0x133E JUMP JUMPDEST PUSH1 0x40 MLOAD DUP1 SWAP2 SUB SWAP1 RETURN JUMPDEST PUSH1 0x0 ISZERO ISZERO PUSH1 0x2 PUSH1 0x0 CALLER PUSH20 0xFFFFFFFFFFFFFFFFFFFFFFFFFFFFFFFFFFFFFFFF AND PUSH20 0xFFFFFFFFFFFFFFFFFFFFFFFFFFFFFFFFFFFFFFFF AND DUP2 MSTORE PUSH1 0x20 ADD SWAP1 DUP2 MSTORE PUSH1 0x20 ADD PUSH1 0x0 KECCAK256 PUSH1 0x0 DUP5 DUP2 MSTORE PUSH1 0x20 ADD SWAP1 DUP2 MSTORE PUSH1 0x20 ADD PUSH1 0x0 KECCAK256 PUSH1 0x3 ADD PUSH1 0x0 SWAP1 SLOAD SWAP1 PUSH2 0x100 EXP SWAP1 DIV PUSH1 0xFF AND ISZERO ISZERO EQ PUSH2 0x309 JUMPI PUSH1 0x40 MLOAD PUSH32 0x8C379A000000000000000000000000000000000000000000000000000000000 DUP2 MSTORE PUSH1 0x4 ADD PUSH2 0x300 SWAP1 PUSH2 0x13CB JUMP JUMPDEST PUSH1 0x40 MLOAD DUP1 SWAP2 SUB SWAP1 REVERT JUMPDEST PUSH8 0xDE0B6B3A7640000 CALLVALUE EQ PUSH2 0x353 JUMPI PUSH1 0x40 MLOAD PUSH32 0x8C379A000000000000000000000000000000000000000000000000000000000 DUP2 MSTORE PUSH1 0x4 ADD PUSH2 0x34A SWAP1 PUSH2 0x1437 JUMP JUMPDEST PUSH1 0x40 MLOAD DUP1 SWAP2 SUB SWAP1 REVERT JUMPDEST PUSH1 0x0 CALLVALUE SWAP1 POP PUSH1 0x40 MLOAD DUP1 PUSH1 0x80 ADD PUSH1 0x40 MSTORE DUP1 DUP4 PUSH1 0x3 DUP2 GT ISZERO PUSH2 0x376 JUMPI PUSH2 0x375 PUSH2 0xF2D JUMP JUMPDEST JUMPDEST DUP2 MSTORE PUSH1 0x20 ADD PUSH1 0x0 DUP2 MSTORE PUSH1 0x20 ADD DUP3 DUP2 MSTORE PUSH1 0x20 ADD PUSH1 0x1 ISZERO ISZERO DUP2 MSTORE POP PUSH1 0x2 PUSH1 0x0 CALLER PUSH20 0xFFFFFFFFFFFFFFFFFFFFFFFFFFFFFFFFFFFFFFFF AND PUSH20 0xFFFFFFFFFFFFFFFFFFFFFFFFFFFFFFFFFFFFFFFF AND DUP2 MSTORE PUSH1 0x20 ADD SWAP1 DUP2 MSTORE PUSH1 0x20 ADD PUSH1 0x0 KECCAK256 PUSH1 0x0 DUP6 DUP2 MSTORE PUSH1 0x20 ADD SWAP1 DUP2 MSTORE PUSH1 0x20 ADD PUSH1 0x0 KECCAK256 PUSH1 0x0 DUP3 ADD MLOAD DUP2 PUSH1 0x0 ADD PUSH1 0x0 PUSH2 0x100 EXP DUP2 SLOAD DUP2 PUSH1 0xFF MUL NOT AND SWAP1 DUP4 PUSH1 0x3 DUP2 GT ISZERO PUSH2 0x40A JUMPI PUSH2 0x409 PUSH2 0xF2D JUMP JUMPDEST JUMPDEST MUL OR SWAP1 SSTORE POP PUSH1 0x20 DUP3 ADD MLOAD DUP2 PUSH1 0x1 ADD SSTORE PUSH1 0x40 DUP3 ADD MLOAD DUP2 PUSH1 0x2 ADD SSTORE PUSH1 0x60 DUP3 ADD MLOAD DUP2 PUSH1 0x3 ADD PUSH1 0x0 PUSH2 0x100 EXP DUP2 SLOAD DUP2 PUSH1 0xFF MUL NOT AND SWAP1 DUP4 ISZERO ISZERO MUL OR SWAP1 SSTORE POP SWAP1 POP POP PUSH1 0x40 MLOAD DUP1 PUSH1 0x60 ADD PUSH1 0x40 MSTORE DUP1 CALLER PUSH20 0xFFFFFFFFFFFFFFFFFFFFFFFFFFFFFFFFFFFFFFFF AND DUP2 MSTORE PUSH1 0x20 ADD DUP3 DUP2 MSTORE PUSH1 0x20 ADD DUP4 PUSH1 0x3 DUP2 GT ISZERO PUSH2 0x486 JUMPI PUSH2 0x485 PUSH2 0xF2D JUMP JUMPDEST JUMPDEST DUP2 MSTORE POP PUSH1 0x4 DUP5 DUP2 SLOAD DUP2 LT PUSH2 0x49D JUMPI PUSH2 0x49C PUSH2 0x1457 JUMP JUMPDEST JUMPDEST SWAP1 PUSH1 0x0 MSTORE PUSH1 0x20 PUSH1 0x0 KECCAK256 SWAP1 PUSH1 0x3 MUL ADD PUSH1 0x0 DUP3 ADD MLOAD DUP2 PUSH1 0x0 ADD PUSH1 0x0 PUSH2 0x100 EXP DUP2 SLOAD DUP2 PUSH20 0xFFFFFFFFFFFFFFFFFFFFFFFFFFFFFFFFFFFFFFFF MUL NOT AND SWAP1 DUP4 PUSH20 0xFFFFFFFFFFFFFFFFFFFFFFFFFFFFFFFFFFFFFFFF AND MUL OR SWAP1 SSTORE POP PUSH1 0x20 DUP3 ADD MLOAD DUP2 PUSH1 0x1 ADD SSTORE PUSH1 0x40 DUP3 ADD MLOAD DUP2 PUSH1 0x2 ADD PUSH1 0x0 PUSH2 0x100 EXP DUP2 SLOAD DUP2 PUSH1 0xFF MUL NOT AND SWAP1 DUP4 PUSH1 0x3 DUP2 GT ISZERO PUSH2 0x527 JUMPI PUSH2 0x526 PUSH2 0xF2D JUMP JUMPDEST JUMPDEST MUL OR SWAP1 SSTORE POP SWAP1 POP POP POP POP POP JUMP JUMPDEST PUSH1 0x4 DUP2 DUP2 SLOAD DUP2 LT PUSH2 0x544 JUMPI PUSH1 0x0 DUP1 REVERT JUMPDEST SWAP1 PUSH1 0x0 MSTORE PUSH1 0x20 PUSH1 0x0 KECCAK256 SWAP1 PUSH1 0x3 MUL ADD PUSH1 0x0 SWAP2 POP SWAP1 POP DUP1 PUSH1 0x0 ADD PUSH1 0x0 SWAP1 SLOAD SWAP1 PUSH2 0x100 EXP SWAP1 DIV PUSH20 0xFFFFFFFFFFFFFFFFFFFFFFFFFFFFFFFFFFFFFFFF AND SWAP1 DUP1 PUSH1 0x1 ADD SLOAD SWAP1 DUP1 PUSH1 0x2 ADD PUSH1 0x0 SWAP1 SLOAD SWAP1 PUSH2 0x100 EXP SWAP1 DIV PUSH1 0xFF AND SWAP1 POP DUP4 JUMP JUMPDEST PUSH1 0x1 PUSH1 0x20 MSTORE DUP1 PUSH1 0x0 MSTORE PUSH1 0x40 PUSH1 0x0 KECCAK256 PUSH1 0x0 SWAP2 POP SWAP1 POP DUP1 PUSH1 0x0 ADD DUP1 SLOAD PUSH2 0x5BE SWAP1 PUSH2 0x14B5 JUMP JUMPDEST DUP1 PUSH1 0x1F ADD PUSH1 0x20 DUP1 SWAP2 DIV MUL PUSH1 0x20 ADD PUSH1 0x40 MLOAD SWAP1 DUP2 ADD PUSH1 0x40 MSTORE DUP1 SWAP3 SWAP2 SWAP1 DUP2 DUP2 MSTORE PUSH1 0x20 ADD DUP3 DUP1 SLOAD PUSH2 0x5EA SWAP1 PUSH2 0x14B5 JUMP JUMPDEST DUP1 ISZERO PUSH2 0x637 JUMPI DUP1 PUSH1 0x1F LT PUSH2 0x60C JUMPI PUSH2 0x100 DUP1 DUP4 SLOAD DIV MUL DUP4 MSTORE SWAP2 PUSH1 0x20 ADD SWAP2 PUSH2 0x637 JUMP JUMPDEST DUP3 ADD SWAP2 SWAP1 PUSH1 0x0 MSTORE PUSH1 0x20 PUSH1 0x0 KECCAK256 SWAP1 JUMPDEST DUP2 SLOAD DUP2 MSTORE SWAP1 PUSH1 0x1 ADD SWAP1 PUSH1 0x20 ADD DUP1 DUP4 GT PUSH2 0x61A JUMPI DUP3 SWAP1 SUB PUSH1 0x1F AND DUP3 ADD SWAP2 JUMPDEST POP POP POP POP POP SWAP1 DUP1 PUSH1 0x1 ADD DUP1 SLOAD PUSH2 0x64C SWAP1 PUSH2 0x14B5 JUMP JUMPDEST DUP1 PUSH1 0x1F ADD PUSH1 0x20 DUP1 SWAP2 DIV MUL PUSH1 0x20 ADD PUSH1 0x40 MLOAD SWAP1 DUP2 ADD PUSH1 0x40 MSTORE DUP1 SWAP3 SWAP2 SWAP1 DUP2 DUP2 MSTORE PUSH1 0x20 ADD DUP3 DUP1 SLOAD PUSH2 0x678 SWAP1 PUSH2 0x14B5 JUMP JUMPDEST DUP1 ISZERO PUSH2 0x6C5 JUMPI DUP1 PUSH1 0x1F LT PUSH2 0x69A JUMPI PUSH2 0x100 DUP1 DUP4 SLOAD DIV MUL DUP4 MSTORE SWAP2 PUSH1 0x20 ADD SWAP2 PUSH2 0x6C5 JUMP JUMPDEST DUP3 ADD SWAP2 SWAP1 PUSH1 0x0 MSTORE PUSH1 0x20 PUSH1 0x0 KECCAK256 SWAP1 JUMPDEST DUP2 SLOAD DUP2 MSTORE SWAP1 PUSH1 0x1 ADD SWAP1 PUSH1 0x20 ADD DUP1 DUP4 GT PUSH2 0x6A8 JUMPI DUP3 SWAP1 SUB PUSH1 0x1F AND DUP3 ADD SWAP2 JUMPDEST POP POP POP POP POP SWAP1 DUP1 PUSH1 0x2 ADD SLOAD SWAP1 DUP1 PUSH1 0x3 ADD SLOAD SWAP1 DUP1 PUSH1 0x4 ADD PUSH1 0x40 MLOAD DUP1 PUSH1 0x40 ADD PUSH1 0x40 MSTORE SWAP1 DUP2 PUSH1 0x0 DUP3 ADD SLOAD DUP2 MSTORE PUSH1 0x20 ADD PUSH1 0x1 DUP3 ADD SLOAD DUP2 MSTORE POP POP SWAP1 POP DUP6 JUMP JUMPDEST PUSH1 0x2 PUSH1 0x20 MSTORE DUP2 PUSH1 0x0 MSTORE PUSH1 0x40 PUSH1 0x0 KECCAK256 PUSH1 0x20 MSTORE DUP1 PUSH1 0x0 MSTORE PUSH1 0x40 PUSH1 0x0 KECCAK256 PUSH1 0x0 SWAP2 POP SWAP2 POP POP DUP1 PUSH1 0x0 ADD PUSH1 0x0 SWAP1 SLOAD SWAP1 PUSH2 0x100 EXP SWAP1 DIV PUSH1 0xFF AND SWAP1 DUP1 PUSH1 0x1 ADD SLOAD SWAP1 DUP1 PUSH1 0x2 ADD SLOAD SWAP1 DUP1 PUSH1 0x3 ADD PUSH1 0x0 SWAP1 SLOAD SWAP1 PUSH2 0x100 EXP SWAP1 DIV PUSH1 0xFF AND SWAP1 POP DUP5 JUMP JUMPDEST PUSH1 0x0 TIMESTAMP SWAP1 POP PUSH1 0x1 PUSH1 0x0 DUP5 DUP2 MSTORE PUSH1 0x20 ADD SWAP1 DUP2 MSTORE PUSH1 0x20 ADD PUSH1 0x0 KECCAK256 PUSH1 0x3 ADD SLOAD DUP2 LT PUSH2 0x7B3 JUMPI PUSH1 0x40 MLOAD PUSH32 0x8C379A000000000000000000000000000000000000000000000000000000000 DUP2 MSTORE PUSH1 0x4 ADD PUSH2 0x7AA SWAP1 PUSH2 0x1532 JUMP JUMPDEST PUSH1 0x40 MLOAD DUP1 SWAP2 SUB SWAP1 REVERT JUMPDEST POP POP POP JUMP JUMPDEST PUSH1 0x3 DUP2 DUP2 SLOAD DUP2 LT PUSH2 0x7C8 JUMPI PUSH1 0x0 DUP1 REVERT JUMPDEST SWAP1 PUSH1 0x0 MSTORE PUSH1 0x20 PUSH1 0x0 KECCAK256 SWAP1 PUSH1 0x6 MUL ADD PUSH1 0x0 SWAP2 POP SWAP1 POP DUP1 PUSH1 0x0 ADD DUP1 SLOAD PUSH2 0x7EB SWAP1 PUSH2 0x14B5 JUMP JUMPDEST DUP1 PUSH1 0x1F ADD PUSH1 0x20 DUP1 SWAP2 DIV MUL PUSH1 0x20 ADD PUSH1 0x40 MLOAD SWAP1 DUP2 ADD PUSH1 0x40 MSTORE DUP1 SWAP3 SWAP2 SWAP1 DUP2 DUP2 MSTORE PUSH1 0x20 ADD DUP3 DUP1 SLOAD PUSH2 0x817 SWAP1 PUSH2 0x14B5 JUMP JUMPDEST DUP1 ISZERO PUSH2 0x864 JUMPI DUP1 PUSH1 0x1F LT PUSH2 0x839 JUMPI PUSH2 0x100 DUP1 DUP4 SLOAD DIV MUL DUP4 MSTORE SWAP2 PUSH1 0x20 ADD SWAP2 PUSH2 0x864 JUMP JUMPDEST DUP3 ADD SWAP2 SWAP1 PUSH1 0x0 MSTORE PUSH1 0x20 PUSH1 0x0 KECCAK256 SWAP1 JUMPDEST DUP2 SLOAD DUP2 MSTORE SWAP1 PUSH1 0x1 ADD SWAP1 PUSH1 0x20 ADD DUP1 DUP4 GT PUSH2 0x847 JUMPI DUP3 SWAP1 SUB PUSH1 0x1F AND DUP3 ADD SWAP2 JUMPDEST POP POP POP POP POP SWAP1 DUP1 PUSH1 0x1 ADD DUP1 SLOAD PUSH2 0x879 SWAP1 PUSH2 0x14B5 JUMP JUMPDEST DUP1 PUSH1 0x1F ADD PUSH1 0x20 DUP1 SWAP2 DIV MUL PUSH1 0x20 ADD PUSH1 0x40 MLOAD SWAP1 DUP2 ADD PUSH1 0x40 MSTORE DUP1 SWAP3 SWAP2 SWAP1 DUP2 DUP2 MSTORE PUSH1 0x20 ADD DUP3 DUP1 SLOAD PUSH2 0x8A5 SWAP1 PUSH2 0x14B5 JUMP JUMPDEST DUP1 ISZERO PUSH2 0x8F2 JUMPI DUP1 PUSH1 0x1F LT PUSH2 0x8C7 JUMPI PUSH2 0x100 DUP1 DUP4 SLOAD DIV MUL DUP4 MSTORE SWAP2 PUSH1 0x20 ADD SWAP2 PUSH2 0x8F2 JUMP JUMPDEST DUP3 ADD SWAP2 SWAP1 PUSH1 0x0 MSTORE PUSH1 0x20 PUSH1 0x0 KECCAK256 SWAP1 JUMPDEST DUP2 SLOAD DUP2 MSTORE SWAP1 PUSH1 0x1 ADD SWAP1 PUSH1 0x20 ADD DUP1 DUP4 GT PUSH2 0x8D5 JUMPI DUP3 SWAP1 SUB PUSH1 0x1F AND DUP3 ADD SWAP2 JUMPDEST POP POP POP POP POP SWAP1 DUP1 PUSH1 0x2 ADD SLOAD SWAP1 DUP1 PUSH1 0x3 ADD SLOAD SWAP1 DUP1 PUSH1 0x4 ADD PUSH1 0x40 MLOAD DUP1 PUSH1 0x40 ADD PUSH1 0x40 MSTORE SWAP1 DUP2 PUSH1 0x0 DUP3 ADD SLOAD DUP2 MSTORE PUSH1 0x20 ADD PUSH1 0x1 DUP3 ADD SLOAD DUP2 MSTORE POP POP SWAP1 POP DUP6 JUMP JUMPDEST PUSH1 0x0 CALLER PUSH20 0xFFFFFFFFFFFFFFFFFFFFFFFFFFFFFFFFFFFFFFFF AND PUSH1 0x0 DUP1 SLOAD SWAP1 PUSH2 0x100 EXP SWAP1 DIV PUSH20 0xFFFFFFFFFFFFFFFFFFFFFFFFFFFFFFFFFFFFFFFF AND PUSH20 0xFFFFFFFFFFFFFFFFFFFFFFFFFFFFFFFFFFFFFFFF AND EQ PUSH2 0x9BC JUMPI PUSH1 0x40 MLOAD PUSH32 0x8C379A000000000000000000000000000000000000000000000000000000000 DUP2 MSTORE PUSH1 0x4 ADD PUSH2 0x9B3 SWAP1 PUSH2 0x159E JUMP JUMPDEST PUSH1 0x40 MLOAD DUP1 SWAP2 SUB SWAP1 REVERT JUMPDEST PUSH1 0x0 PUSH1 0x5F DUP4 PUSH2 0x9CB SWAP2 SWAP1 PUSH2 0x15ED JUMP JUMPDEST SWAP1 POP PUSH1 0x0 PUSH1 0x40 MLOAD DUP1 PUSH1 0x40 ADD PUSH1 0x40 MSTORE DUP1 PUSH1 0x0 DUP2 MSTORE PUSH1 0x20 ADD PUSH1 0x0 DUP2 MSTORE POP SWAP1 POP PUSH1 0x0 PUSH1 0x3 DUP1 SLOAD SWAP1 POP SWAP1 POP PUSH1 0x40 MLOAD DUP1 PUSH1 0xA0 ADD PUSH1 0x40 MSTORE DUP1 DUP11 DUP11 DUP1 DUP1 PUSH1 0x1F ADD PUSH1 0x20 DUP1 SWAP2 DIV MUL PUSH1 0x20 ADD PUSH1 0x40 MLOAD SWAP1 DUP2 ADD PUSH1 0x40 MSTORE DUP1 SWAP4 SWAP3 SWAP2 SWAP1 DUP2 DUP2 MSTORE PUSH1 0x20 ADD DUP4 DUP4 DUP1 DUP3 DUP5 CALLDATACOPY PUSH1 0x0 DUP2 DUP5 ADD MSTORE PUSH1 0x1F NOT PUSH1 0x1F DUP3 ADD AND SWAP1 POP DUP1 DUP4 ADD SWAP3 POP POP POP POP POP POP POP DUP2 MSTORE PUSH1 0x20 ADD DUP9 DUP9 DUP1 DUP1 PUSH1 0x1F ADD PUSH1 0x20 DUP1 SWAP2 DIV MUL PUSH1 0x20 ADD PUSH1 0x40 MLOAD SWAP1 DUP2 ADD PUSH1 0x40 MSTORE DUP1 SWAP4 SWAP3 SWAP2 SWAP1 DUP2 DUP2 MSTORE PUSH1 0x20 ADD DUP4 DUP4 DUP1 DUP3 DUP5 CALLDATACOPY PUSH1 0x0 DUP2 DUP5 ADD MSTORE PUSH1 0x1F NOT PUSH1 0x1F DUP3 ADD AND SWAP1 POP DUP1 DUP4 ADD SWAP3 POP POP POP POP POP POP POP DUP2 MSTORE PUSH1 0x20 ADD DUP7 DUP2 MSTORE PUSH1 0x20 ADD DUP5 DUP2 MSTORE PUSH1 0x20 ADD DUP4 DUP2 MSTORE POP PUSH1 0x1 PUSH1 0x0 DUP4 DUP2 MSTORE PUSH1 0x20 ADD SWAP1 DUP2 MSTORE PUSH1 0x20 ADD PUSH1 0x0 KECCAK256 PUSH1 0x0 DUP3 ADD MLOAD DUP2 PUSH1 0x0 ADD SWAP1 DUP2 PUSH2 0xAC9 SWAP2 SWAP1 PUSH2 0x17FC JUMP JUMPDEST POP PUSH1 0x20 DUP3 ADD MLOAD DUP2 PUSH1 0x1 ADD SWAP1 DUP2 PUSH2 0xADF SWAP2 SWAP1 PUSH2 0x17FC JUMP JUMPDEST POP PUSH1 0x40 DUP3 ADD MLOAD DUP2 PUSH1 0x2 ADD SSTORE PUSH1 0x60 DUP3 ADD MLOAD DUP2 PUSH1 0x3 ADD SSTORE PUSH1 0x80 DUP3 ADD MLOAD DUP2 PUSH1 0x4 ADD PUSH1 0x0 DUP3 ADD MLOAD DUP2 PUSH1 0x0 ADD SSTORE PUSH1 0x20 DUP3 ADD MLOAD DUP2 PUSH1 0x1 ADD SSTORE POP POP SWAP1 POP POP PUSH1 0x3 PUSH1 0x40 MLOAD DUP1 PUSH1 0xA0 ADD PUSH1 0x40 MSTORE DUP1 DUP12 DUP12 DUP1 DUP1 PUSH1 0x1F ADD PUSH1 0x20 DUP1 SWAP2 DIV MUL PUSH1 0x20 ADD PUSH1 0x40 MLOAD SWAP1 DUP2 ADD PUSH1 0x40 MSTORE DUP1 SWAP4 SWAP3 SWAP2 SWAP1 DUP2 DUP2 MSTORE PUSH1 0x20 ADD DUP4 DUP4 DUP1 DUP3 DUP5 CALLDATACOPY PUSH1 0x0 DUP2 DUP5 ADD MSTORE PUSH1 0x1F NOT PUSH1 0x1F DUP3 ADD AND SWAP1 POP DUP1 DUP4 ADD SWAP3 POP POP POP POP POP POP POP DUP2 MSTORE PUSH1 0x20 ADD DUP10 DUP10 DUP1 DUP1 PUSH1 0x1F ADD PUSH1 0x20 DUP1 SWAP2 DIV MUL PUSH1 0x20 ADD PUSH1 0x40 MLOAD SWAP1 DUP2 ADD PUSH1 0x40 MSTORE DUP1 SWAP4 SWAP3 SWAP2 SWAP1 DUP2 DUP2 MSTORE PUSH1 0x20 ADD DUP4 DUP4 DUP1 DUP3 DUP5 CALLDATACOPY PUSH1 0x0 DUP2 DUP5 ADD MSTORE PUSH1 0x1F NOT PUSH1 0x1F DUP3 ADD AND SWAP1 POP DUP1 DUP4 ADD SWAP3 POP POP POP POP POP POP POP DUP2 MSTORE PUSH1 0x20 ADD DUP8 DUP2 MSTORE PUSH1 0x20 ADD DUP6 DUP2 MSTORE PUSH1 0x20 ADD DUP5 DUP2 MSTORE POP SWAP1 DUP1 PUSH1 0x1 DUP2 SLOAD ADD DUP1 DUP3 SSTORE DUP1 SWAP2 POP POP PUSH1 0x1 SWAP1 SUB SWAP1 PUSH1 0x0 MSTORE PUSH1 0x20 PUSH1 0x0 KECCAK256 SWAP1 PUSH1 0x6 MUL ADD PUSH1 0x0 SWAP1 SWAP2 SWAP1 SWAP2 SWAP1 SWAP2 POP PUSH1 0x0 DUP3 ADD MLOAD DUP2 PUSH1 0x0 ADD SWAP1 DUP2 PUSH2 0xC05 SWAP2 SWAP1 PUSH2 0x17FC JUMP JUMPDEST POP PUSH1 0x20 DUP3 ADD MLOAD DUP2 PUSH1 0x1 ADD SWAP1 DUP2 PUSH2 0xC1B SWAP2 SWAP1 PUSH2 0x17FC JUMP JUMPDEST POP PUSH1 0x40 DUP3 ADD MLOAD DUP2 PUSH1 0x2 ADD SSTORE PUSH1 0x60 DUP3 ADD MLOAD DUP2 PUSH1 0x3 ADD SSTORE PUSH1 0x80 DUP3 ADD MLOAD DUP2 PUSH1 0x4 ADD PUSH1 0x0 DUP3 ADD MLOAD DUP2 PUSH1 0x0 ADD SSTORE PUSH1 0x20 DUP3 ADD MLOAD DUP2 PUSH1 0x1 ADD SSTORE POP POP POP POP PUSH1 0x1 SWAP4 POP POP POP POP SWAP6 SWAP5 POP POP POP POP POP JUMP JUMPDEST CALLER PUSH20 0xFFFFFFFFFFFFFFFFFFFFFFFFFFFFFFFFFFFFFFFF AND PUSH1 0x0 DUP1 SLOAD SWAP1 PUSH2 0x100 EXP SWAP1 DIV PUSH20 0xFFFFFFFFFFFFFFFFFFFFFFFFFFFFFFFFFFFFFFFF AND PUSH20 0xFFFFFFFFFFFFFFFFFFFFFFFFFFFFFFFFFFFFFFFF AND EQ PUSH2 0xCEF JUMPI PUSH1 0x40 MLOAD PUSH32 0x8C379A000000000000000000000000000000000000000000000000000000000 DUP2 MSTORE PUSH1 0x4 ADD PUSH2 0xCE6 SWAP1 PUSH2 0x159E JUMP JUMPDEST PUSH1 0x40 MLOAD DUP1 SWAP2 SUB SWAP1 REVERT JUMPDEST PUSH1 0x0 TIMESTAMP SWAP1 POP PUSH1 0x3 DUP5 DUP2 SLOAD DUP2 LT PUSH2 0xD08 JUMPI PUSH2 0xD07 PUSH2 0x1457 JUMP JUMPDEST JUMPDEST SWAP1 PUSH1 0x0 MSTORE PUSH1 0x20 PUSH1 0x0 KECCAK256 SWAP1 PUSH1 0x6 MUL ADD PUSH1 0x3 ADD SLOAD DUP2 LT ISZERO PUSH2 0xD5C JUMPI PUSH1 0x40 MLOAD PUSH32 0x8C379A000000000000000000000000000000000000000000000000000000000 DUP2 MSTORE PUSH1 0x4 ADD PUSH2 0xD53 SWAP1 PUSH2 0x191A JUMP JUMPDEST PUSH1 0x40 MLOAD DUP1 SWAP2 SUB SWAP1 REVERT JUMPDEST PUSH1 0x0 PUSH1 0x40 MLOAD DUP1 PUSH1 0x40 ADD PUSH1 0x40 MSTORE DUP1 DUP6 DUP2 MSTORE PUSH1 0x20 ADD DUP5 DUP2 MSTORE POP SWAP1 POP DUP1 PUSH1 0x3 DUP7 DUP2 SLOAD DUP2 LT PUSH2 0xD8A JUMPI PUSH2 0xD89 PUSH2 0x1457 JUMP JUMPDEST JUMPDEST SWAP1 PUSH1 0x0 MSTORE PUSH1 0x20 PUSH1 0x0 KECCAK256 SWAP1 PUSH1 0x6 MUL ADD PUSH1 0x4 ADD PUSH1 0x0 DUP3 ADD MLOAD DUP2 PUSH1 0x0 ADD SSTORE PUSH1 0x20 DUP3 ADD MLOAD DUP2 PUSH1 0x1 ADD SSTORE SWAP1 POP POP DUP1 PUSH1 0x1 PUSH1 0x0 DUP8 DUP2 MSTORE PUSH1 0x20 ADD SWAP1 DUP2 MSTORE PUSH1 0x20 ADD PUSH1 0x0 KECCAK256 PUSH1 0x4 ADD PUSH1 0x0 DUP3 ADD MLOAD DUP2 PUSH1 0x0 ADD SSTORE PUSH1 0x20 DUP3 ADD MLOAD DUP2 PUSH1 0x1 ADD SSTORE SWAP1 POP POP POP POP POP POP POP JUMP JUMPDEST PUSH1 0x0 DUP1 SLOAD SWAP1 PUSH2 0x100 EXP SWAP1 DIV PUSH20 0xFFFFFFFFFFFFFFFFFFFFFFFFFFFFFFFFFFFFFFFF AND DUP2 JUMP JUMPDEST PUSH1 0x0 DUP1 REVERT JUMPDEST PUSH1 0x0 DUP1 REVERT JUMPDEST PUSH1 0x0 DUP2 SWAP1 POP SWAP2 SWAP1 POP JUMP JUMPDEST PUSH2 0xE28 DUP2 PUSH2 0xE15 JUMP JUMPDEST DUP2 EQ PUSH2 0xE33 JUMPI PUSH1 0x0 DUP1 REVERT JUMPDEST POP JUMP JUMPDEST PUSH1 0x0 DUP2 CALLDATALOAD SWAP1 POP PUSH2 0xE45 DUP2 PUSH2 0xE1F JUMP JUMPDEST SWAP3 SWAP2 POP POP JUMP JUMPDEST PUSH1 0x4 DUP2 LT PUSH2 0xE58 JUMPI PUSH1 0x0 DUP1 REVERT JUMPDEST POP JUMP JUMPDEST PUSH1 0x0 DUP2 CALLDATALOAD SWAP1 POP PUSH2 0xE6A DUP2 PUSH2 0xE4B JUMP JUMPDEST SWAP3 SWAP2 POP POP JUMP JUMPDEST PUSH1 0x0 DUP1 PUSH1 0x40 DUP4 DUP6 SUB SLT ISZERO PUSH2 0xE87 JUMPI PUSH2 0xE86 PUSH2 0xE0B JUMP JUMPDEST JUMPDEST PUSH1 0x0 PUSH2 0xE95 DUP6 DUP3 DUP7 ADD PUSH2 0xE36 JUMP JUMPDEST SWAP3 POP POP PUSH1 0x20 PUSH2 0xEA6 DUP6 DUP3 DUP7 ADD PUSH2 0xE5B JUMP JUMPDEST SWAP2 POP POP SWAP3 POP SWAP3 SWAP1 POP JUMP JUMPDEST PUSH1 0x0 PUSH1 0x20 DUP3 DUP5 SUB SLT ISZERO PUSH2 0xEC6 JUMPI PUSH2 0xEC5 PUSH2 0xE0B JUMP JUMPDEST JUMPDEST PUSH1 0x0 PUSH2 0xED4 DUP5 DUP3 DUP6 ADD PUSH2 0xE36 JUMP JUMPDEST SWAP2 POP POP SWAP3 SWAP2 POP POP JUMP JUMPDEST PUSH1 0x0 PUSH20 0xFFFFFFFFFFFFFFFFFFFFFFFFFFFFFFFFFFFFFFFF DUP3 AND SWAP1 POP SWAP2 SWAP1 POP JUMP JUMPDEST PUSH1 0x0 PUSH2 0xF08 DUP3 PUSH2 0xEDD JUMP JUMPDEST SWAP1 POP SWAP2 SWAP1 POP JUMP JUMPDEST PUSH2 0xF18 DUP2 PUSH2 0xEFD JUMP JUMPDEST DUP3 MSTORE POP POP JUMP JUMPDEST PUSH2 0xF27 DUP2 PUSH2 0xE15 JUMP JUMPDEST DUP3 MSTORE POP POP JUMP JUMPDEST PUSH32 0x4E487B7100000000000000000000000000000000000000000000000000000000 PUSH1 0x0 MSTORE PUSH1 0x21 PUSH1 0x4 MSTORE PUSH1 0x24 PUSH1 0x0 REVERT JUMPDEST PUSH1 0x4 DUP2 LT PUSH2 0xF6D JUMPI PUSH2 0xF6C PUSH2 0xF2D JUMP JUMPDEST JUMPDEST POP JUMP JUMPDEST PUSH1 0x0 DUP2 SWAP1 POP PUSH2 0xF7E DUP3 PUSH2 0xF5C JUMP JUMPDEST SWAP2 SWAP1 POP JUMP JUMPDEST PUSH1 0x0 PUSH2 0xF8E DUP3 PUSH2 0xF70 JUMP JUMPDEST SWAP1 POP SWAP2 SWAP1 POP JUMP JUMPDEST PUSH2 0xF9E DUP2 PUSH2 0xF83 JUMP JUMPDEST DUP3 MSTORE POP POP JUMP JUMPDEST PUSH1 0x0 PUSH1 0x60 DUP3 ADD SWAP1 POP PUSH2 0xFB9 PUSH1 0x0 DUP4 ADD DUP7 PUSH2 0xF0F JUMP JUMPDEST PUSH2 0xFC6 PUSH1 0x20 DUP4 ADD DUP6 PUSH2 0xF1E JUMP JUMPDEST PUSH2 0xFD3 PUSH1 0x40 DUP4 ADD DUP5 PUSH2 0xF95 JUMP JUMPDEST SWAP5 SWAP4 POP POP POP POP JUMP JUMPDEST PUSH1 0x0 DUP2 MLOAD SWAP1 POP SWAP2 SWAP1 POP JUMP JUMPDEST PUSH1 0x0 DUP3 DUP3 MSTORE PUSH1 0x20 DUP3 ADD SWAP1 POP SWAP3 SWAP2 POP POP JUMP JUMPDEST PUSH1 0x0 JUMPDEST DUP4 DUP2 LT ISZERO PUSH2 0x1015 JUMPI DUP1 DUP3 ADD MLOAD DUP2 DUP5 ADD MSTORE PUSH1 0x20 DUP2 ADD SWAP1 POP PUSH2 0xFFA JUMP JUMPDEST PUSH1 0x0 DUP5 DUP5 ADD MSTORE POP POP POP POP JUMP JUMPDEST PUSH1 0x0 PUSH1 0x1F NOT PUSH1 0x1F DUP4 ADD AND SWAP1 POP SWAP2 SWAP1 POP JUMP JUMPDEST PUSH1 0x0 PUSH2 0x103D DUP3 PUSH2 0xFDB JUMP JUMPDEST PUSH2 0x1047 DUP2 DUP6 PUSH2 0xFE6 JUMP JUMPDEST SWAP4 POP PUSH2 0x1057 DUP2 DUP6 PUSH1 0x20 DUP7 ADD PUSH2 0xFF7 JUMP JUMPDEST PUSH2 0x1060 DUP2 PUSH2 0x1021 JUMP JUMPDEST DUP5 ADD SWAP2 POP POP SWAP3 SWAP2 POP POP JUMP JUMPDEST PUSH2 0x1074 DUP2 PUSH2 0xE15 JUMP JUMPDEST DUP3 MSTORE POP POP JUMP JUMPDEST PUSH1 0x40 DUP3 ADD PUSH1 0x0 DUP3 ADD MLOAD PUSH2 0x1090 PUSH1 0x0 DUP6 ADD DUP3 PUSH2 0x106B JUMP JUMPDEST POP PUSH1 0x20 DUP3 ADD MLOAD PUSH2 0x10A3 PUSH1 0x20 DUP6 ADD DUP3 PUSH2 0x106B JUMP JUMPDEST POP POP POP POP JUMP JUMPDEST PUSH1 0x0 PUSH1 0xC0 DUP3 ADD SWAP1 POP DUP2 DUP2 SUB PUSH1 0x0 DUP4 ADD MSTORE PUSH2 0x10C3 DUP2 DUP9 PUSH2 0x1032 JUMP JUMPDEST SWAP1 POP DUP2 DUP2 SUB PUSH1 0x20 DUP4 ADD MSTORE PUSH2 0x10D7 DUP2 DUP8 PUSH2 0x1032 JUMP JUMPDEST SWAP1 POP PUSH2 0x10E6 PUSH1 0x40 DUP4 ADD DUP7 PUSH2 0xF1E JUMP JUMPDEST PUSH2 0x10F3 PUSH1 0x60 DUP4 ADD DUP6 PUSH2 0xF1E JUMP JUMPDEST PUSH2 0x1100 PUSH1 0x80 DUP4 ADD DUP5 PUSH2 0x107A JUMP JUMPDEST SWAP7 SWAP6 POP POP POP POP POP POP JUMP JUMPDEST PUSH2 0x1113 DUP2 PUSH2 0xEFD JUMP JUMPDEST DUP2 EQ PUSH2 0x111E JUMPI PUSH1 0x0 DUP1 REVERT JUMPDEST POP JUMP JUMPDEST PUSH1 0x0 DUP2 CALLDATALOAD SWAP1 POP PUSH2 0x1130 DUP2 PUSH2 0x110A JUMP JUMPDEST SWAP3 SWAP2 POP POP JUMP JUMPDEST PUSH1 0x0 DUP1 PUSH1 0x40 DUP4 DUP6 SUB SLT ISZERO PUSH2 0x114D JUMPI PUSH2 0x114C PUSH2 0xE0B JUMP JUMPDEST JUMPDEST PUSH1 0x0 PUSH2 0x115B DUP6 DUP3 DUP7 ADD PUSH2 0x1121 JUMP JUMPDEST SWAP3 POP POP PUSH1 0x20 PUSH2 0x116C DUP6 DUP3 DUP7 ADD PUSH2 0xE36 JUMP JUMPDEST SWAP2 POP POP SWAP3 POP SWAP3 SWAP1 POP JUMP JUMPDEST PUSH1 0x0 DUP2 ISZERO ISZERO SWAP1 POP SWAP2 SWAP1 POP JUMP JUMPDEST PUSH2 0x118B DUP2 PUSH2 0x1176 JUMP JUMPDEST DUP3 MSTORE POP POP JUMP JUMPDEST PUSH1 0x0 PUSH1 0x80 DUP3 ADD SWAP1 POP PUSH2 0x11A6 PUSH1 0x0 DUP4 ADD DUP8 PUSH2 0xF95 JUMP JUMPDEST PUSH2 0x11B3 PUSH1 0x20 DUP4 ADD DUP7 PUSH2 0xF1E JUMP JUMPDEST PUSH2 0x11C0 PUSH1 0x40 DUP4 ADD DUP6 PUSH2 0xF1E JUMP JUMPDEST PUSH2 0x11CD PUSH1 0x60 DUP4 ADD DUP5 PUSH2 0x1182 JUMP JUMPDEST SWAP6 SWAP5 POP POP POP POP POP JUMP JUMPDEST PUSH1 0x0 DUP1 REVERT JUMPDEST PUSH1 0x0 DUP1 REVERT JUMPDEST PUSH1 0x0 DUP1 REVERT JUMPDEST PUSH1 0x0 DUP1 DUP4 PUSH1 0x1F DUP5 ADD SLT PUSH2 0x11FB JUMPI PUSH2 0x11FA PUSH2 0x11D6 JUMP JUMPDEST JUMPDEST DUP3 CALLDATALOAD SWAP1 POP PUSH8 0xFFFFFFFFFFFFFFFF DUP2 GT ISZERO PUSH2 0x1218 JUMPI PUSH2 0x1217 PUSH2 0x11DB JUMP JUMPDEST JUMPDEST PUSH1 0x20 DUP4 ADD SWAP2 POP DUP4 PUSH1 0x1 DUP3 MUL DUP4 ADD GT ISZERO PUSH2 0x1234 JUMPI PUSH2 0x1233 PUSH2 0x11E0 JUMP JUMPDEST JUMPDEST SWAP3 POP SWAP3 SWAP1 POP JUMP JUMPDEST PUSH1 0x0 DUP1 PUSH1 0x0 DUP1 PUSH1 0x0 PUSH1 0x60 DUP7 DUP9 SUB SLT ISZERO PUSH2 0x1257 JUMPI PUSH2 0x1256 PUSH2 0xE0B JUMP JUMPDEST JUMPDEST PUSH1 0x0 DUP7 ADD CALLDATALOAD PUSH8 0xFFFFFFFFFFFFFFFF DUP2 GT ISZERO PUSH2 0x1275 JUMPI PUSH2 0x1274 PUSH2 0xE10 JUMP JUMPDEST JUMPDEST PUSH2 0x1281 DUP9 DUP3 DUP10 ADD PUSH2 0x11E5 JUMP JUMPDEST SWAP6 POP SWAP6 POP POP PUSH1 0x20 DUP7 ADD CALLDATALOAD PUSH8 0xFFFFFFFFFFFFFFFF DUP2 GT ISZERO PUSH2 0x12A4 JUMPI PUSH2 0x12A3 PUSH2 0xE10 JUMP JUMPDEST JUMPDEST PUSH2 0x12B0 DUP9 DUP3 DUP10 ADD PUSH2 0x11E5 JUMP JUMPDEST SWAP4 POP SWAP4 POP POP PUSH1 0x40 PUSH2 0x12C3 DUP9 DUP3 DUP10 ADD PUSH2 0xE36 JUMP JUMPDEST SWAP2 POP POP SWAP3 SWAP6 POP SWAP3 SWAP6 SWAP1 SWAP4 POP JUMP JUMPDEST PUSH1 0x0 PUSH1 0x20 DUP3 ADD SWAP1 POP PUSH2 0x12E5 PUSH1 0x0 DUP4 ADD DUP5 PUSH2 0x1182 JUMP JUMPDEST SWAP3 SWAP2 POP POP JUMP JUMPDEST PUSH1 0x0 DUP1 PUSH1 0x0 PUSH1 0x60 DUP5 DUP7 SUB SLT ISZERO PUSH2 0x1304 JUMPI PUSH2 0x1303 PUSH2 0xE0B JUMP JUMPDEST JUMPDEST PUSH1 0x0 PUSH2 0x1312 DUP7 DUP3 DUP8 ADD PUSH2 0xE36 JUMP JUMPDEST SWAP4 POP POP PUSH1 0x20 PUSH2 0x1323 DUP7 DUP3 DUP8 ADD PUSH2 0xE36 JUMP JUMPDEST SWAP3 POP POP PUSH1 0x40 PUSH2 0x1334 DUP7 DUP3 DUP8 ADD PUSH2 0xE36 JUMP JUMPDEST SWAP2 POP POP SWAP3 POP SWAP3 POP SWAP3 JUMP JUMPDEST PUSH1 0x0 PUSH1 0x20 DUP3 ADD SWAP1 POP PUSH2 0x1353 PUSH1 0x0 DUP4 ADD DUP5 PUSH2 0xF0F JUMP JUMPDEST SWAP3 SWAP2 POP POP JUMP JUMPDEST PUSH32 0x596F752063616E206F6E6C7920706C6179206F6E636521205570646174652069 PUSH1 0x0 DUP3 ADD MSTORE PUSH32 0x6E73746561640000000000000000000000000000000000000000000000000000 PUSH1 0x20 DUP3 ADD MSTORE POP JUMP JUMPDEST PUSH1 0x0 PUSH2 0x13B5 PUSH1 0x26 DUP4 PUSH2 0xFE6 JUMP JUMPDEST SWAP2 POP PUSH2 0x13C0 DUP3 PUSH2 0x1359 JUMP JUMPDEST PUSH1 0x40 DUP3 ADD SWAP1 POP SWAP2 SWAP1 POP JUMP JUMPDEST PUSH1 0x0 PUSH1 0x20 DUP3 ADD SWAP1 POP DUP2 DUP2 SUB PUSH1 0x0 DUP4 ADD MSTORE PUSH2 0x13E4 DUP2 PUSH2 0x13A8 JUMP JUMPDEST SWAP1 POP SWAP2 SWAP1 POP JUMP JUMPDEST PUSH32 0x42657420416D6F756E74206973206C657373207468616E207265717569726564 PUSH1 0x0 DUP3 ADD MSTORE POP JUMP JUMPDEST PUSH1 0x0 PUSH2 0x1421 PUSH1 0x20 DUP4 PUSH2 0xFE6 JUMP JUMPDEST SWAP2 POP PUSH2 0x142C DUP3 PUSH2 0x13EB JUMP JUMPDEST PUSH1 0x20 DUP3 ADD SWAP1 POP SWAP2 SWAP1 POP JUMP JUMPDEST PUSH1 0x0 PUSH1 0x20 DUP3 ADD SWAP1 POP DUP2 DUP2 SUB PUSH1 0x0 DUP4 ADD MSTORE PUSH2 0x1450 DUP2 PUSH2 0x1414 JUMP JUMPDEST SWAP1 POP SWAP2 SWAP1 POP JUMP JUMPDEST PUSH32 0x4E487B7100000000000000000000000000000000000000000000000000000000 PUSH1 0x0 MSTORE PUSH1 0x32 PUSH1 0x4 MSTORE PUSH1 0x24 PUSH1 0x0 REVERT JUMPDEST PUSH32 0x4E487B7100000000000000000000000000000000000000000000000000000000 PUSH1 0x0 MSTORE PUSH1 0x22 PUSH1 0x4 MSTORE PUSH1 0x24 PUSH1 0x0 REVERT JUMPDEST PUSH1 0x0 PUSH1 0x2 DUP3 DIV SWAP1 POP PUSH1 0x1 DUP3 AND DUP1 PUSH2 0x14CD JUMPI PUSH1 0x7F DUP3 AND SWAP2 POP JUMPDEST PUSH1 0x20 DUP3 LT DUP2 SUB PUSH2 0x14E0 JUMPI PUSH2 0x14DF PUSH2 0x1486 JUMP JUMPDEST JUMPDEST POP SWAP2 SWAP1 POP JUMP JUMPDEST PUSH32 0x4761000000000000000000000000000000000000000000000000000000000000 PUSH1 0x0 DUP3 ADD MSTORE POP JUMP JUMPDEST PUSH1 0x0 PUSH2 0x151C PUSH1 0x2 DUP4 PUSH2 0xFE6 JUMP JUMPDEST SWAP2 POP PUSH2 0x1527 DUP3 PUSH2 0x14E6 JUMP JUMPDEST PUSH1 0x20 DUP3 ADD SWAP1 POP SWAP2 SWAP1 POP JUMP JUMPDEST PUSH1 0x0 PUSH1 0x20 DUP3 ADD SWAP1 POP DUP2 DUP2 SUB PUSH1 0x0 DUP4 ADD MSTORE PUSH2 0x154B DUP2 PUSH2 0x150F JUMP JUMPDEST SWAP1 POP SWAP2 SWAP1 POP JUMP JUMPDEST PUSH32 0x4E6F74204F776E65720000000000000000000000000000000000000000000000 PUSH1 0x0 DUP3 ADD MSTORE POP JUMP JUMPDEST PUSH1 0x0 PUSH2 0x1588 PUSH1 0x9 DUP4 PUSH2 0xFE6 JUMP JUMPDEST SWAP2 POP PUSH2 0x1593 DUP3 PUSH2 0x1552 JUMP JUMPDEST PUSH1 0x20 DUP3 ADD SWAP1 POP SWAP2 SWAP1 POP JUMP JUMPDEST PUSH1 0x0 PUSH1 0x20 DUP3 ADD SWAP1 POP DUP2 DUP2 SUB PUSH1 0x0 DUP4 ADD MSTORE PUSH2 0x15B7 DUP2 PUSH2 0x157B JUMP JUMPDEST SWAP1 POP SWAP2 SWAP1 POP JUMP JUMPDEST PUSH32 0x4E487B7100000000000000000000000000000000000000000000000000000000 PUSH1 0x0 MSTORE PUSH1 0x11 PUSH1 0x4 MSTORE PUSH1 0x24 PUSH1 0x0 REVERT JUMPDEST PUSH1 0x0 PUSH2 0x15F8 DUP3 PUSH2 0xE15 JUMP JUMPDEST SWAP2 POP PUSH2 0x1603 DUP4 PUSH2 0xE15 JUMP JUMPDEST SWAP3 POP DUP3 DUP3 ADD SWAP1 POP DUP1 DUP3 GT ISZERO PUSH2 0x161B JUMPI PUSH2 0x161A PUSH2 0x15BE JUMP JUMPDEST JUMPDEST SWAP3 SWAP2 POP POP JUMP JUMPDEST PUSH32 0x4E487B7100000000000000000000000000000000000000000000000000000000 PUSH1 0x0 MSTORE PUSH1 0x41 PUSH1 0x4 MSTORE PUSH1 0x24 PUSH1 0x0 REVERT JUMPDEST PUSH1 0x0 DUP2 SWAP1 POP DUP2 PUSH1 0x0 MSTORE PUSH1 0x20 PUSH1 0x0 KECCAK256 SWAP1 POP SWAP2 SWAP1 POP JUMP JUMPDEST PUSH1 0x0 PUSH1 0x20 PUSH1 0x1F DUP4 ADD DIV SWAP1 POP SWAP2 SWAP1 POP JUMP JUMPDEST PUSH1 0x0 DUP3 DUP3 SHL SWAP1 POP SWAP3 SWAP2 POP POP JUMP JUMPDEST PUSH1 0x0 PUSH1 0x8 DUP4 MUL PUSH2 0x16B2 PUSH32 0xFFFFFFFFFFFFFFFFFFFFFFFFFFFFFFFFFFFFFFFFFFFFFFFFFFFFFFFFFFFFFFFF DUP3 PUSH2 0x1675 JUMP JUMPDEST PUSH2 0x16BC DUP7 DUP4 PUSH2 0x1675 JUMP JUMPDEST SWAP6 POP DUP1 NOT DUP5 AND SWAP4 POP DUP1 DUP7 AND DUP5 OR SWAP3 POP POP POP SWAP4 SWAP3 POP POP POP JUMP JUMPDEST PUSH1 0x0 DUP2 SWAP1 POP SWAP2 SWAP1 POP JUMP JUMPDEST PUSH1 0x0 PUSH2 0x16F9 PUSH2 0x16F4 PUSH2 0x16EF DUP5 PUSH2 0xE15 JUMP JUMPDEST PUSH2 0x16D4 JUMP JUMPDEST PUSH2 0xE15 JUMP JUMPDEST SWAP1 POP SWAP2 SWAP1 POP JUMP JUMPDEST PUSH1 0x0 DUP2 SWAP1 POP SWAP2 SWAP1 POP JUMP JUMPDEST PUSH2 0x1713 DUP4 PUSH2 0x16DE JUMP JUMPDEST PUSH2 0x1727 PUSH2 0x171F DUP3 PUSH2 0x1700 JUMP JUMPDEST DUP5 DUP5 SLOAD PUSH2 0x1682 JUMP JUMPDEST DUP3 SSTORE POP POP POP POP JUMP JUMPDEST PUSH1 0x0 SWAP1 JUMP JUMPDEST PUSH2 0x173C PUSH2 0x172F JUMP JUMPDEST PUSH2 0x1747 DUP2 DUP5 DUP5 PUSH2 0x170A JUMP JUMPDEST POP POP POP JUMP JUMPDEST JUMPDEST DUP2 DUP2 LT ISZERO PUSH2 0x176B JUMPI PUSH2 0x1760 PUSH1 0x0 DUP3 PUSH2 0x1734 JUMP JUMPDEST PUSH1 0x1 DUP2 ADD SWAP1 POP PUSH2 0x174D JUMP JUMPDEST POP POP JUMP JUMPDEST PUSH1 0x1F DUP3 GT ISZERO PUSH2 0x17B0 JUMPI PUSH2 0x1781 DUP2 PUSH2 0x1650 JUMP JUMPDEST PUSH2 0x178A DUP5 PUSH2 0x1665 JUMP JUMPDEST DUP2 ADD PUSH1 0x20 DUP6 LT ISZERO PUSH2 0x1799 JUMPI DUP2 SWAP1 POP JUMPDEST PUSH2 0x17AD PUSH2 0x17A5 DUP6 PUSH2 0x1665 JUMP JUMPDEST DUP4 ADD DUP3 PUSH2 0x174C JUMP JUMPDEST POP POP JUMPDEST POP POP POP JUMP JUMPDEST PUSH1 0x0 DUP3 DUP3 SHR SWAP1 POP SWAP3 SWAP2 POP POP JUMP JUMPDEST PUSH1 0x0 PUSH2 0x17D3 PUSH1 0x0 NOT DUP5 PUSH1 0x8 MUL PUSH2 0x17B5 JUMP JUMPDEST NOT DUP1 DUP4 AND SWAP2 POP POP SWAP3 SWAP2 POP POP JUMP JUMPDEST PUSH1 0x0 PUSH2 0x17EC DUP4 DUP4 PUSH2 0x17C2 JUMP JUMPDEST SWAP2 POP DUP3 PUSH1 0x2 MUL DUP3 OR SWAP1 POP SWAP3 SWAP2 POP POP JUMP JUMPDEST PUSH2 0x1805 DUP3 PUSH2 0xFDB JUMP JUMPDEST PUSH8 0xFFFFFFFFFFFFFFFF DUP2 GT ISZERO PUSH2 0x181E JUMPI PUSH2 0x181D PUSH2 0x1621 JUMP JUMPDEST JUMPDEST PUSH2 0x1828 DUP3 SLOAD PUSH2 0x14B5 JUMP JUMPDEST PUSH2 0x1833 DUP3 DUP3 DUP6 PUSH2 0x176F JUMP JUMPDEST PUSH1 0x0 PUSH1 0x20 SWAP1 POP PUSH1 0x1F DUP4 GT PUSH1 0x1 DUP2 EQ PUSH2 0x1866 JUMPI PUSH1 0x0 DUP5 ISZERO PUSH2 0x1854 JUMPI DUP3 DUP8 ADD MLOAD SWAP1 POP JUMPDEST PUSH2 0x185E DUP6 DUP3 PUSH2 0x17E0 JUMP JUMPDEST DUP7 SSTORE POP PUSH2 0x18C6 JUMP JUMPDEST PUSH1 0x1F NOT DUP5 AND PUSH2 0x1874 DUP7 PUSH2 0x1650 JUMP JUMPDEST PUSH1 0x0 JUMPDEST DUP3 DUP2 LT ISZERO PUSH2 0x189C JUMPI DUP5 DUP10 ADD MLOAD DUP3 SSTORE PUSH1 0x1 DUP3 ADD SWAP2 POP PUSH1 0x20 DUP6 ADD SWAP5 POP PUSH1 0x20 DUP2 ADD SWAP1 POP PUSH2 0x1877 JUMP JUMPDEST DUP7 DUP4 LT ISZERO PUSH2 0x18B9 JUMPI DUP5 DUP10 ADD MLOAD PUSH2 0x18B5 PUSH1 0x1F DUP10 AND DUP3 PUSH2 0x17C2 JUMP JUMPDEST DUP4 SSTORE POP JUMPDEST PUSH1 0x1 PUSH1 0x2 DUP9 MUL ADD DUP9 SSTORE POP POP POP JUMPDEST POP POP POP POP POP POP JUMP JUMPDEST PUSH32 0x4D61746368206973207374696C6C206F6E000000000000000000000000000000 PUSH1 0x0 DUP3 ADD MSTORE POP JUMP JUMPDEST PUSH1 0x0 PUSH2 0x1904 PUSH1 0x11 DUP4 PUSH2 0xFE6 JUMP JUMPDEST SWAP2 POP PUSH2 0x190F DUP3 PUSH2 0x18CE JUMP JUMPDEST PUSH1 0x20 DUP3 ADD SWAP1 POP SWAP2 SWAP1 POP JUMP JUMPDEST PUSH1 0x0 PUSH1 0x20 DUP3 ADD SWAP1 POP DUP2 DUP2 SUB PUSH1 0x0 DUP4 ADD MSTORE PUSH2 0x1933 DUP2 PUSH2 0x18F7 JUMP JUMPDEST SWAP1 POP SWAP2 SWAP1 POP JUMP INVALID LOG2 PUSH5 0x6970667358 0x22 SLT KECCAK256 BLOCKHASH EXP DUP4 EXTCODECOPY EXTCODECOPY SWAP2 PUSH8 0x1FF48711B82EFD08 0xDC PUSH13 0xF8E311DB865AB9BE3F00995D02 SHL DUP4 PUSH5 0x736F6C6343 STOP ADDMOD GT STOP CALLER "
				},
				"gasEstimates": {
					"creation": {
						"codeDepositCost": "1302400",
						"executionCost": "25622",
						"totalCost": "1328022"
					},
					"external": {
						"Game(uint256)": "infinite",
						"admin()": "2599",
						"allMatch(uint256)": "infinite",
						"closeMatch(uint256,uint256,uint256)": "infinite",
						"instantiateMatch(string,string,uint256)": "infinite",
						"placeBet(uint256,uint8)": "151932",
						"specificMatchBets(uint256)": "infinite",
						"updateBet(uint256,uint8)": "3038",
						"userBet(address,uint256)": "infinite"
					}
				},
				"methodIdentifiers": {
					"Game(uint256)": "2172ff16",
					"admin()": "f851a440",
					"allMatch(uint256)": "b2edb39f",
					"closeMatch(uint256,uint256,uint256)": "ec7361a8",
					"instantiateMatch(string,string,uint256)": "bc9e6e2c",
					"placeBet(uint256,uint8)": "03edf914",
					"specificMatchBets(uint256)": "15a3ae71",
					"updateBet(uint256,uint8)": "5fbc88ad",
					"userBet(address,uint256)": "4195ab8e"
				}
			},
			"storageLayout": {
				"storage": [
					{
						"astId": 8,
						"contract": "contracts/betting.sol:DistanceFiBET",
						"label": "admin",
						"offset": 0,
						"slot": "0",
						"type": "t_address"
					},
					{
						"astId": 40,
						"contract": "contracts/betting.sol:DistanceFiBET",
						"label": "Game",
						"offset": 0,
						"slot": "1",
						"type": "t_mapping(t_uint256,t_struct(Match)25_storage)"
					},
					{
						"astId": 47,
						"contract": "contracts/betting.sol:DistanceFiBET",
						"label": "userBet",
						"offset": 0,
						"slot": "2",
						"type": "t_mapping(t_address,t_mapping(t_uint256,t_struct(Bettor)35_storage))"
					},
					{
						"astId": 51,
						"contract": "contracts/betting.sol:DistanceFiBET",
						"label": "allMatch",
						"offset": 0,
						"slot": "3",
						"type": "t_array(t_struct(Match)25_storage)dyn_storage"
					},
					{
						"astId": 63,
						"contract": "contracts/betting.sol:DistanceFiBET",
						"label": "specificMatchBets",
						"offset": 0,
						"slot": "4",
						"type": "t_array(t_struct(allBets)59_storage)dyn_storage"
					}
				],
				"types": {
					"t_address": {
						"encoding": "inplace",
						"label": "address",
						"numberOfBytes": "20"
					},
					"t_array(t_struct(Match)25_storage)dyn_storage": {
						"base": "t_struct(Match)25_storage",
						"encoding": "dynamic_array",
						"label": "struct DistanceFiBET.Match[]",
						"numberOfBytes": "32"
					},
					"t_array(t_struct(allBets)59_storage)dyn_storage": {
						"base": "t_struct(allBets)59_storage",
						"encoding": "dynamic_array",
						"label": "struct DistanceFiBET.allBets[]",
						"numberOfBytes": "32"
					},
					"t_bool": {
						"encoding": "inplace",
						"label": "bool",
						"numberOfBytes": "1"
					},
					"t_enum(Choices)6": {
						"encoding": "inplace",
						"label": "enum DistanceFiBET.Choices",
						"numberOfBytes": "1"
					},
					"t_mapping(t_address,t_mapping(t_uint256,t_struct(Bettor)35_storage))": {
						"encoding": "mapping",
						"key": "t_address",
						"label": "mapping(address => mapping(uint256 => struct DistanceFiBET.Bettor))",
						"numberOfBytes": "32",
						"value": "t_mapping(t_uint256,t_struct(Bettor)35_storage)"
					},
					"t_mapping(t_uint256,t_struct(Bettor)35_storage)": {
						"encoding": "mapping",
						"key": "t_uint256",
						"label": "mapping(uint256 => struct DistanceFiBET.Bettor)",
						"numberOfBytes": "32",
						"value": "t_struct(Bettor)35_storage"
					},
					"t_mapping(t_uint256,t_struct(Match)25_storage)": {
						"encoding": "mapping",
						"key": "t_uint256",
						"label": "mapping(uint256 => struct DistanceFiBET.Match)",
						"numberOfBytes": "32",
						"value": "t_struct(Match)25_storage"
					},
					"t_string_storage": {
						"encoding": "bytes",
						"label": "string",
						"numberOfBytes": "32"
					},
					"t_struct(Bettor)35_storage": {
						"encoding": "inplace",
						"label": "struct DistanceFiBET.Bettor",
						"members": [
							{
								"astId": 28,
								"contract": "contracts/betting.sol:DistanceFiBET",
								"label": "bet",
								"offset": 0,
								"slot": "0",
								"type": "t_enum(Choices)6"
							},
							{
								"astId": 30,
								"contract": "contracts/betting.sol:DistanceFiBET",
								"label": "winAmounts",
								"offset": 0,
								"slot": "1",
								"type": "t_uint256"
							},
							{
								"astId": 32,
								"contract": "contracts/betting.sol:DistanceFiBET",
								"label": "betAmount",
								"offset": 0,
								"slot": "2",
								"type": "t_uint256"
							},
							{
								"astId": 34,
								"contract": "contracts/betting.sol:DistanceFiBET",
								"label": "played",
								"offset": 0,
								"slot": "3",
								"type": "t_bool"
							}
						],
						"numberOfBytes": "128"
					},
					"t_struct(Match)25_storage": {
						"encoding": "inplace",
						"label": "struct DistanceFiBET.Match",
						"members": [
							{
								"astId": 15,
								"contract": "contracts/betting.sol:DistanceFiBET",
								"label": "HomeTeam",
								"offset": 0,
								"slot": "0",
								"type": "t_string_storage"
							},
							{
								"astId": 17,
								"contract": "contracts/betting.sol:DistanceFiBET",
								"label": "AwayTeam",
								"offset": 0,
								"slot": "1",
								"type": "t_string_storage"
							},
							{
								"astId": 19,
								"contract": "contracts/betting.sol:DistanceFiBET",
								"label": "startTime",
								"offset": 0,
								"slot": "2",
								"type": "t_uint256"
							},
							{
								"astId": 21,
								"contract": "contracts/betting.sol:DistanceFiBET",
								"label": "endTime",
								"offset": 0,
								"slot": "3",
								"type": "t_uint256"
							},
							{
								"astId": 24,
								"contract": "contracts/betting.sol:DistanceFiBET",
								"label": "results",
								"offset": 0,
								"slot": "4",
								"type": "t_struct(Results)13_storage"
							}
						],
						"numberOfBytes": "192"
					},
					"t_struct(Results)13_storage": {
						"encoding": "inplace",
						"label": "struct DistanceFiBET.Results",
						"members": [
							{
								"astId": 10,
								"contract": "contracts/betting.sol:DistanceFiBET",
								"label": "Home_score",
								"offset": 0,
								"slot": "0",
								"type": "t_uint256"
							},
							{
								"astId": 12,
								"contract": "contracts/betting.sol:DistanceFiBET",
								"label": "Away_score",
								"offset": 0,
								"slot": "1",
								"type": "t_uint256"
							}
						],
						"numberOfBytes": "64"
					},
					"t_struct(allBets)59_storage": {
						"encoding": "inplace",
						"label": "struct DistanceFiBET.allBets",
						"members": [
							{
								"astId": 53,
								"contract": "contracts/betting.sol:DistanceFiBET",
								"label": "bettor",
								"offset": 0,
								"slot": "0",
								"type": "t_address"
							},
							{
								"astId": 55,
								"contract": "contracts/betting.sol:DistanceFiBET",
								"label": "amount",
								"offset": 0,
								"slot": "1",
								"type": "t_uint256"
							},
							{
								"astId": 58,
								"contract": "contracts/betting.sol:DistanceFiBET",
								"label": "choice",
								"offset": 0,
								"slot": "2",
								"type": "t_enum(Choices)6"
							}
						],
						"numberOfBytes": "96"
					},
					"t_uint256": {
						"encoding": "inplace",
						"label": "uint256",
						"numberOfBytes": "32"
					}
				}
			},
			"userdoc": {
				"kind": "user",
				"methods": {},
				"version": 1
			}
		}
	}
}