{
	"contracts/ico.sol": {
		"Amestarter": {
			"abi": [
				{
					"inputs": [
						{
							"internalType": "uint256",
							"name": "_tokenPrice",
							"type": "uint256"
						},
						{
							"internalType": "address",
							"name": "_IUSDT",
							"type": "address"
						},
						{
							"internalType": "uint256",
							"name": "_targetSale",
							"type": "uint256"
						}
					],
					"stateMutability": "nonpayable",
					"type": "constructor"
				},
				{
					"anonymous": false,
					"inputs": [
						{
							"indexed": false,
							"internalType": "string",
							"name": "icoAlert",
							"type": "string"
						}
					],
					"name": "ICOStartAlert",
					"type": "event"
				},
				{
					"anonymous": false,
					"inputs": [
						{
							"indexed": false,
							"internalType": "address",
							"name": "buyuer",
							"type": "address"
						},
						{
							"indexed": false,
							"internalType": "uint256",
							"name": "tokenBought",
							"type": "uint256"
						}
					],
					"name": "claimToken",
					"type": "event"
				},
				{
					"anonymous": false,
					"inputs": [
						{
							"indexed": false,
							"internalType": "uint256",
							"name": "newTokenprice",
							"type": "uint256"
						},
						{
							"indexed": false,
							"internalType": "uint256",
							"name": "target",
							"type": "uint256"
						}
					],
					"name": "icoUpdate",
					"type": "event"
				},
				{
					"anonymous": false,
					"inputs": [
						{
							"indexed": true,
							"internalType": "address",
							"name": "buyer",
							"type": "address"
						},
						{
							"indexed": false,
							"internalType": "uint256",
							"name": "amount",
							"type": "uint256"
						}
					],
					"name": "latestPurchased",
					"type": "event"
				},
				{
					"inputs": [],
					"name": "BeginIDO",
					"outputs": [],
					"stateMutability": "nonpayable",
					"type": "function"
				},
				{
					"inputs": [],
					"name": "StopIDO",
					"outputs": [],
					"stateMutability": "nonpayable",
					"type": "function"
				},
				{
					"inputs": [],
					"name": "USDT",
					"outputs": [
						{
							"internalType": "address",
							"name": "",
							"type": "address"
						}
					],
					"stateMutability": "view",
					"type": "function"
				},
				{
					"inputs": [],
					"name": "claimPurchasedToken",
					"outputs": [],
					"stateMutability": "nonpayable",
					"type": "function"
				},
				{
					"inputs": [],
					"name": "claimRaisedFunds",
					"outputs": [],
					"stateMutability": "nonpayable",
					"type": "function"
				},
				{
					"inputs": [
						{
							"internalType": "uint256",
							"name": "_tokenPrice",
							"type": "uint256"
						},
						{
							"internalType": "uint256",
							"name": "_targetSale",
							"type": "uint256"
						}
					],
					"name": "editIDO",
					"outputs": [],
					"stateMutability": "nonpayable",
					"type": "function"
				},
				{
					"inputs": [
						{
							"internalType": "uint256",
							"name": "_amount",
							"type": "uint256"
						}
					],
					"name": "purchaseToken",
					"outputs": [],
					"stateMutability": "nonpayable",
					"type": "function"
				},
				{
					"inputs": [
						{
							"internalType": "address",
							"name": "_token",
							"type": "address"
						}
					],
					"name": "startClaim",
					"outputs": [],
					"stateMutability": "nonpayable",
					"type": "function"
				},
				{
					"inputs": [],
					"name": "tokenPrice",
					"outputs": [
						{
							"internalType": "uint256",
							"name": "",
							"type": "uint256"
						}
					],
					"stateMutability": "view",
					"type": "function"
				}
			],
			"devdoc": {
				"kind": "dev",
				"methods": {},
				"version": 1
			},
			"evm": {
				"assembly": "    /* \"contracts/ico.sol\":1245:4094  contract Amestarter is ReentrancyGuard {... */\n  mstore(0x40, 0xa0)\n    /* \"contracts/ico.sol\":1961:2180  constructor(uint _tokenPrice, address _IUSDT, uint256 _targetSale){... */\n  callvalue\n  dup1\n  iszero\n  tag_1\n  jumpi\n  0x00\n  dup1\n  revert\ntag_1:\n  pop\n  mload(0x40)\n  sub(codesize, bytecodeSize)\n  dup1\n  bytecodeSize\n  dup4\n  codecopy\n  dup2\n  dup2\n  add\n  0x40\n  mstore\n  dup2\n  add\n  swap1\n  tag_2\n  swap2\n  swap1\n  tag_3\n  jump\t// in\ntag_2:\n    /* \"@openzeppelin/contracts/security/ReentrancyGuard.sol\":1701:1702  1 */\n  0x01\n    /* \"@openzeppelin/contracts/security/ReentrancyGuard.sol\":1806:1813  _status */\n  0x00\n    /* \"@openzeppelin/contracts/security/ReentrancyGuard.sol\":1806:1828  _status = _NOT_ENTERED */\n  dup2\n  swap1\n  sstore\n  pop\n    /* \"contracts/ico.sol\":2046:2056  msg.sender */\n  caller\n    /* \"contracts/ico.sol\":2038:2043  owner */\n  0x03\n  0x00\n    /* \"contracts/ico.sol\":2038:2056  owner = msg.sender */\n  0x0100\n  exp\n  dup2\n  sload\n  dup2\n  0xffffffffffffffffffffffffffffffffffffffff\n  mul\n  not\n  and\n  swap1\n  dup4\n  0xffffffffffffffffffffffffffffffffffffffff\n  and\n  mul\n  or\n  swap1\n  sstore\n  pop\n    /* \"contracts/ico.sol\":2094:2102  10 ** 18 */\n  0x0de0b6b3a7640000\n    /* \"contracts/ico.sol\":2080:2091  _tokenPrice */\n  dup4\n    /* \"contracts/ico.sol\":2080:2102  _tokenPrice * 10 ** 18 */\n  tag_8\n  swap2\n  swap1\n  tag_9\n  jump\t// in\ntag_8:\n    /* \"contracts/ico.sol\":2067:2077  tokenPrice */\n  0x02\n    /* \"contracts/ico.sol\":2067:2102  tokenPrice = _tokenPrice * 10 ** 18 */\n  dup2\n  swap1\n  sstore\n  pop\n    /* \"contracts/ico.sol\":2120:2126  _IUSDT */\n  dup2\n    /* \"contracts/ico.sol\":2113:2126  USDT = _IUSDT */\n  0xffffffffffffffffffffffffffffffffffffffff\n  and\n  0x80\n  dup2\n  0xffffffffffffffffffffffffffffffffffffffff\n  and\n  dup2\n  mstore\n  pop\n  pop\n    /* \"contracts/ico.sol\":2164:2172  10 ** 18 */\n  0x0de0b6b3a7640000\n    /* \"contracts/ico.sol\":2150:2161  _targetSale */\n  dup2\n    /* \"contracts/ico.sol\":2150:2172  _targetSale * 10 ** 18 */\n  tag_10\n  swap2\n  swap1\n  tag_9\n  jump\t// in\ntag_10:\n    /* \"contracts/ico.sol\":2137:2147  targetSale */\n  0x04\n    /* \"contracts/ico.sol\":2137:2172  targetSale = _targetSale * 10 ** 18 */\n  dup2\n  swap1\n  sstore\n  pop\n    /* \"contracts/ico.sol\":1961:2180  constructor(uint _tokenPrice, address _IUSDT, uint256 _targetSale){... */\n  pop\n  pop\n  pop\n    /* \"contracts/ico.sol\":1245:4094  contract Amestarter is ReentrancyGuard {... */\n  jump(tag_11)\n    /* \"#utility.yul\":88:205   */\ntag_13:\n    /* \"#utility.yul\":197:198   */\n  0x00\n    /* \"#utility.yul\":194:195   */\n  dup1\n    /* \"#utility.yul\":187:199   */\n  revert\n    /* \"#utility.yul\":334:411   */\ntag_15:\n    /* \"#utility.yul\":371:378   */\n  0x00\n    /* \"#utility.yul\":400:405   */\n  dup2\n    /* \"#utility.yul\":389:405   */\n  swap1\n  pop\n    /* \"#utility.yul\":334:411   */\n  swap2\n  swap1\n  pop\n  jump\t// out\n    /* \"#utility.yul\":417:539   */\ntag_16:\n    /* \"#utility.yul\":490:514   */\n  tag_29\n    /* \"#utility.yul\":508:513   */\n  dup2\n    /* \"#utility.yul\":490:514   */\n  tag_15\n  jump\t// in\ntag_29:\n    /* \"#utility.yul\":483:488   */\n  dup2\n    /* \"#utility.yul\":480:515   */\n  eq\n    /* \"#utility.yul\":470:533   */\n  tag_30\n  jumpi\n    /* \"#utility.yul\":529:530   */\n  0x00\n    /* \"#utility.yul\":526:527   */\n  dup1\n    /* \"#utility.yul\":519:531   */\n  revert\n    /* \"#utility.yul\":470:533   */\ntag_30:\n    /* \"#utility.yul\":417:539   */\n  pop\n  jump\t// out\n    /* \"#utility.yul\":545:688   */\ntag_17:\n    /* \"#utility.yul\":602:607   */\n  0x00\n    /* \"#utility.yul\":633:639   */\n  dup2\n    /* \"#utility.yul\":627:640   */\n  mload\n    /* \"#utility.yul\":618:640   */\n  swap1\n  pop\n    /* \"#utility.yul\":649:682   */\n  tag_32\n    /* \"#utility.yul\":676:681   */\n  dup2\n    /* \"#utility.yul\":649:682   */\n  tag_16\n  jump\t// in\ntag_32:\n    /* \"#utility.yul\":545:688   */\n  swap3\n  swap2\n  pop\n  pop\n  jump\t// out\n    /* \"#utility.yul\":694:820   */\ntag_18:\n    /* \"#utility.yul\":731:738   */\n  0x00\n    /* \"#utility.yul\":771:813   */\n  0xffffffffffffffffffffffffffffffffffffffff\n    /* \"#utility.yul\":764:769   */\n  dup3\n    /* \"#utility.yul\":760:814   */\n  and\n    /* \"#utility.yul\":749:814   */\n  swap1\n  pop\n    /* \"#utility.yul\":694:820   */\n  swap2\n  swap1\n  pop\n  jump\t// out\n    /* \"#utility.yul\":826:922   */\ntag_19:\n    /* \"#utility.yul\":863:870   */\n  0x00\n    /* \"#utility.yul\":892:916   */\n  tag_35\n    /* \"#utility.yul\":910:915   */\n  dup3\n    /* \"#utility.yul\":892:916   */\n  tag_18\n  jump\t// in\ntag_35:\n    /* \"#utility.yul\":881:916   */\n  swap1\n  pop\n    /* \"#utility.yul\":826:922   */\n  swap2\n  swap1\n  pop\n  jump\t// out\n    /* \"#utility.yul\":928:1050   */\ntag_20:\n    /* \"#utility.yul\":1001:1025   */\n  tag_37\n    /* \"#utility.yul\":1019:1024   */\n  dup2\n    /* \"#utility.yul\":1001:1025   */\n  tag_19\n  jump\t// in\ntag_37:\n    /* \"#utility.yul\":994:999   */\n  dup2\n    /* \"#utility.yul\":991:1026   */\n  eq\n    /* \"#utility.yul\":981:1044   */\n  tag_38\n  jumpi\n    /* \"#utility.yul\":1040:1041   */\n  0x00\n    /* \"#utility.yul\":1037:1038   */\n  dup1\n    /* \"#utility.yul\":1030:1042   */\n  revert\n    /* \"#utility.yul\":981:1044   */\ntag_38:\n    /* \"#utility.yul\":928:1050   */\n  pop\n  jump\t// out\n    /* \"#utility.yul\":1056:1199   */\ntag_21:\n    /* \"#utility.yul\":1113:1118   */\n  0x00\n    /* \"#utility.yul\":1144:1150   */\n  dup2\n    /* \"#utility.yul\":1138:1151   */\n  mload\n    /* \"#utility.yul\":1129:1151   */\n  swap1\n  pop\n    /* \"#utility.yul\":1160:1193   */\n  tag_40\n    /* \"#utility.yul\":1187:1192   */\n  dup2\n    /* \"#utility.yul\":1160:1193   */\n  tag_20\n  jump\t// in\ntag_40:\n    /* \"#utility.yul\":1056:1199   */\n  swap3\n  swap2\n  pop\n  pop\n  jump\t// out\n    /* \"#utility.yul\":1205:1868   */\ntag_3:\n    /* \"#utility.yul\":1293:1299   */\n  0x00\n    /* \"#utility.yul\":1301:1307   */\n  dup1\n    /* \"#utility.yul\":1309:1315   */\n  0x00\n    /* \"#utility.yul\":1358:1360   */\n  0x60\n    /* \"#utility.yul\":1346:1355   */\n  dup5\n    /* \"#utility.yul\":1337:1344   */\n  dup7\n    /* \"#utility.yul\":1333:1356   */\n  sub\n    /* \"#utility.yul\":1329:1361   */\n  slt\n    /* \"#utility.yul\":1326:1445   */\n  iszero\n  tag_42\n  jumpi\n    /* \"#utility.yul\":1364:1443   */\n  tag_43\n  tag_13\n  jump\t// in\ntag_43:\n    /* \"#utility.yul\":1326:1445   */\ntag_42:\n    /* \"#utility.yul\":1484:1485   */\n  0x00\n    /* \"#utility.yul\":1509:1573   */\n  tag_44\n    /* \"#utility.yul\":1565:1572   */\n  dup7\n    /* \"#utility.yul\":1556:1562   */\n  dup3\n    /* \"#utility.yul\":1545:1554   */\n  dup8\n    /* \"#utility.yul\":1541:1563   */\n  add\n    /* \"#utility.yul\":1509:1573   */\n  tag_17\n  jump\t// in\ntag_44:\n    /* \"#utility.yul\":1499:1573   */\n  swap4\n  pop\n    /* \"#utility.yul\":1455:1583   */\n  pop\n    /* \"#utility.yul\":1622:1624   */\n  0x20\n    /* \"#utility.yul\":1648:1712   */\n  tag_45\n    /* \"#utility.yul\":1704:1711   */\n  dup7\n    /* \"#utility.yul\":1695:1701   */\n  dup3\n    /* \"#utility.yul\":1684:1693   */\n  dup8\n    /* \"#utility.yul\":1680:1702   */\n  add\n    /* \"#utility.yul\":1648:1712   */\n  tag_21\n  jump\t// in\ntag_45:\n    /* \"#utility.yul\":1638:1712   */\n  swap3\n  pop\n    /* \"#utility.yul\":1593:1722   */\n  pop\n    /* \"#utility.yul\":1761:1763   */\n  0x40\n    /* \"#utility.yul\":1787:1851   */\n  tag_46\n    /* \"#utility.yul\":1843:1850   */\n  dup7\n    /* \"#utility.yul\":1834:1840   */\n  dup3\n    /* \"#utility.yul\":1823:1832   */\n  dup8\n    /* \"#utility.yul\":1819:1841   */\n  add\n    /* \"#utility.yul\":1787:1851   */\n  tag_17\n  jump\t// in\ntag_46:\n    /* \"#utility.yul\":1777:1851   */\n  swap2\n  pop\n    /* \"#utility.yul\":1732:1861   */\n  pop\n    /* \"#utility.yul\":1205:1868   */\n  swap3\n  pop\n  swap3\n  pop\n  swap3\n  jump\t// out\n    /* \"#utility.yul\":1874:2054   */\ntag_22:\n    /* \"#utility.yul\":1922:1999   */\n  0x4e487b7100000000000000000000000000000000000000000000000000000000\n    /* \"#utility.yul\":1919:1920   */\n  0x00\n    /* \"#utility.yul\":1912:2000   */\n  mstore\n    /* \"#utility.yul\":2019:2023   */\n  0x11\n    /* \"#utility.yul\":2016:2017   */\n  0x04\n    /* \"#utility.yul\":2009:2024   */\n  mstore\n    /* \"#utility.yul\":2043:2047   */\n  0x24\n    /* \"#utility.yul\":2040:2041   */\n  0x00\n    /* \"#utility.yul\":2033:2048   */\n  revert\n    /* \"#utility.yul\":2060:2470   */\ntag_9:\n    /* \"#utility.yul\":2100:2107   */\n  0x00\n    /* \"#utility.yul\":2123:2143   */\n  tag_49\n    /* \"#utility.yul\":2141:2142   */\n  dup3\n    /* \"#utility.yul\":2123:2143   */\n  tag_15\n  jump\t// in\ntag_49:\n    /* \"#utility.yul\":2118:2143   */\n  swap2\n  pop\n    /* \"#utility.yul\":2157:2177   */\n  tag_50\n    /* \"#utility.yul\":2175:2176   */\n  dup4\n    /* \"#utility.yul\":2157:2177   */\n  tag_15\n  jump\t// in\ntag_50:\n    /* \"#utility.yul\":2152:2177   */\n  swap3\n  pop\n    /* \"#utility.yul\":2212:2213   */\n  dup3\n    /* \"#utility.yul\":2209:2210   */\n  dup3\n    /* \"#utility.yul\":2205:2214   */\n  mul\n    /* \"#utility.yul\":2234:2264   */\n  tag_51\n    /* \"#utility.yul\":2252:2263   */\n  dup2\n    /* \"#utility.yul\":2234:2264   */\n  tag_15\n  jump\t// in\ntag_51:\n    /* \"#utility.yul\":2223:2264   */\n  swap2\n  pop\n    /* \"#utility.yul\":2413:2414   */\n  dup3\n    /* \"#utility.yul\":2404:2411   */\n  dup3\n    /* \"#utility.yul\":2400:2415   */\n  div\n    /* \"#utility.yul\":2397:2398   */\n  dup5\n    /* \"#utility.yul\":2394:2416   */\n  eq\n    /* \"#utility.yul\":2374:2375   */\n  dup4\n    /* \"#utility.yul\":2367:2376   */\n  iszero\n    /* \"#utility.yul\":2347:2430   */\n  or\n    /* \"#utility.yul\":2324:2463   */\n  tag_52\n  jumpi\n    /* \"#utility.yul\":2443:2461   */\n  tag_53\n  tag_22\n  jump\t// in\ntag_53:\n    /* \"#utility.yul\":2324:2463   */\ntag_52:\n    /* \"#utility.yul\":2108:2470   */\n  pop\n    /* \"#utility.yul\":2060:2470   */\n  swap3\n  swap2\n  pop\n  pop\n  jump\t// out\n    /* \"contracts/ico.sol\":1245:4094  contract Amestarter is ReentrancyGuard {... */\ntag_11:\n  mload(0x80)\n  codecopy(0x00, dataOffset(sub_0), dataSize(sub_0))\n  0x00\n  assignImmutable(\"0xc8a6f112e7620748ca3ae6a49a58464897133c24b6f43e9fa71155cd2626380a\")\n  return(0x00, dataSize(sub_0))\nstop\n\nsub_0: assembly {\n        /* \"contracts/ico.sol\":1245:4094  contract Amestarter is ReentrancyGuard {... */\n      mstore(0x40, 0x80)\n      callvalue\n      dup1\n      iszero\n      tag_1\n      jumpi\n      0x00\n      dup1\n      revert\n    tag_1:\n      pop\n      jumpi(tag_2, lt(calldatasize, 0x04))\n      shr(0xe0, calldataload(0x00))\n      dup1\n      0xc2bb8b15\n      gt\n      tag_12\n      jumpi\n      dup1\n      0xc2bb8b15\n      eq\n      tag_7\n      jumpi\n      dup1\n      0xc2db2c42\n      eq\n      tag_8\n      jumpi\n      dup1\n      0xc54e44eb\n      eq\n      tag_9\n      jumpi\n      dup1\n      0xd7997f7e\n      eq\n      tag_10\n      jumpi\n      dup1\n      0xdc55920f\n      eq\n      tag_11\n      jumpi\n      jump(tag_2)\n    tag_12:\n      dup1\n      0x76d812ea\n      eq\n      tag_3\n      jumpi\n      dup1\n      0x7ff9b596\n      eq\n      tag_4\n      jumpi\n      dup1\n      0x890e63e7\n      eq\n      tag_5\n      jumpi\n      dup1\n      0xb392972d\n      eq\n      tag_6\n      jumpi\n    tag_2:\n      0x00\n      dup1\n      revert\n        /* \"contracts/ico.sol\":3935:4083  function StopIDO() public {... */\n    tag_3:\n      tag_13\n      tag_14\n      jump\t// in\n    tag_13:\n      stop\n        /* \"contracts/ico.sol\":1394:1416  uint public tokenPrice */\n    tag_4:\n      tag_15\n      tag_16\n      jump\t// in\n    tag_15:\n      mload(0x40)\n      tag_17\n      swap2\n      swap1\n      tag_18\n      jump\t// in\n    tag_17:\n      mload(0x40)\n      dup1\n      swap2\n      sub\n      swap1\n      return\n        /* \"contracts/ico.sol\":3487:3742  function editIDO(uint _tokenPrice, uint256 _targetSale) public{... */\n    tag_5:\n      tag_19\n      0x04\n      dup1\n      calldatasize\n      sub\n      dup2\n      add\n      swap1\n      tag_20\n      swap2\n      swap1\n      tag_21\n      jump\t// in\n    tag_20:\n      tag_22\n      jump\t// in\n    tag_19:\n      stop\n        /* \"contracts/ico.sol\":3376:3479  function claimRaisedFunds() external {... */\n    tag_6:\n      tag_23\n      tag_24\n      jump\t// in\n    tag_23:\n      stop\n        /* \"contracts/ico.sol\":2640:2822  function startClaim(address _token) external {... */\n    tag_7:\n      tag_25\n      0x04\n      dup1\n      calldatasize\n      sub\n      dup2\n      add\n      swap1\n      tag_26\n      swap2\n      swap1\n      tag_27\n      jump\t// in\n    tag_26:\n      tag_28\n      jump\t// in\n    tag_25:\n      stop\n        /* \"contracts/ico.sol\":2188:2632  function purchaseToken(uint _amount)  public nonReentrant{... */\n    tag_8:\n      tag_29\n      0x04\n      dup1\n      calldatasize\n      sub\n      dup2\n      add\n      swap1\n      tag_30\n      swap2\n      swap1\n      tag_31\n      jump\t// in\n    tag_30:\n      tag_32\n      jump\t// in\n    tag_29:\n      stop\n        /* \"contracts/ico.sol\":1332:1361  address public immutable USDT */\n    tag_9:\n      tag_33\n      tag_34\n      jump\t// in\n    tag_33:\n      mload(0x40)\n      tag_35\n      swap2\n      swap1\n      tag_36\n      jump\t// in\n    tag_35:\n      mload(0x40)\n      dup1\n      swap2\n      sub\n      swap1\n      return\n        /* \"contracts/ico.sol\":2830:3368  function claimPurchasedToken() external nonReentrant {... */\n    tag_10:\n      tag_37\n      tag_38\n      jump\t// in\n    tag_37:\n      stop\n        /* \"contracts/ico.sol\":3750:3927  function BeginIDO() public {... */\n    tag_11:\n      tag_39\n      tag_40\n      jump\t// in\n    tag_39:\n      stop\n        /* \"contracts/ico.sol\":3935:4083  function StopIDO() public {... */\n    tag_14:\n        /* \"contracts/ico.sol\":3994:3999  owner */\n      0x03\n      0x00\n      swap1\n      sload\n      swap1\n      0x0100\n      exp\n      swap1\n      div\n      0xffffffffffffffffffffffffffffffffffffffff\n      and\n        /* \"contracts/ico.sol\":3980:3999  msg.sender == owner */\n      0xffffffffffffffffffffffffffffffffffffffff\n      and\n        /* \"contracts/ico.sol\":3980:3990  msg.sender */\n      caller\n        /* \"contracts/ico.sol\":3980:3999  msg.sender == owner */\n      0xffffffffffffffffffffffffffffffffffffffff\n      and\n      eq\n        /* \"contracts/ico.sol\":3972:4000  require(msg.sender == owner) */\n      tag_42\n      jumpi\n      0x00\n      dup1\n      revert\n    tag_42:\n        /* \"contracts/ico.sol\":4024:4029  false */\n      0x00\n        /* \"contracts/ico.sol\":4011:4021  IDOStarted */\n      0x03\n      0x14\n        /* \"contracts/ico.sol\":4011:4029  IDOStarted = false */\n      0x0100\n      exp\n      dup2\n      sload\n      dup2\n      0xff\n      mul\n      not\n      and\n      swap1\n      dup4\n      iszero\n      iszero\n      mul\n      or\n      swap1\n      sstore\n      pop\n        /* \"contracts/ico.sol\":4045:4075  ICOStartAlert(\"ICO is paused\") */\n      0x71002079ab3de7feb03ee30c84baf1d2350d4ffe16709d3dacb5e1037a0fe1cc\n      mload(0x40)\n      tag_43\n      swap1\n      tag_44\n      jump\t// in\n    tag_43:\n      mload(0x40)\n      dup1\n      swap2\n      sub\n      swap1\n      log1\n        /* \"contracts/ico.sol\":3935:4083  function StopIDO() public {... */\n      jump\t// out\n        /* \"contracts/ico.sol\":1394:1416  uint public tokenPrice */\n    tag_16:\n      sload(0x02)\n      dup2\n      jump\t// out\n        /* \"contracts/ico.sol\":3487:3742  function editIDO(uint _tokenPrice, uint256 _targetSale) public{... */\n    tag_22:\n        /* \"contracts/ico.sol\":3582:3587  owner */\n      0x03\n      0x00\n      swap1\n      sload\n      swap1\n      0x0100\n      exp\n      swap1\n      div\n      0xffffffffffffffffffffffffffffffffffffffff\n      and\n        /* \"contracts/ico.sol\":3568:3587  msg.sender == owner */\n      0xffffffffffffffffffffffffffffffffffffffff\n      and\n        /* \"contracts/ico.sol\":3568:3578  msg.sender */\n      caller\n        /* \"contracts/ico.sol\":3568:3587  msg.sender == owner */\n      0xffffffffffffffffffffffffffffffffffffffff\n      and\n      eq\n        /* \"contracts/ico.sol\":3560:3588  require(msg.sender == owner) */\n      tag_46\n      jumpi\n      0x00\n      dup1\n      revert\n    tag_46:\n        /* \"contracts/ico.sol\":3626:3634  10 ** 18 */\n      0x0de0b6b3a7640000\n        /* \"contracts/ico.sol\":3612:3623  _tokenPrice */\n      dup3\n        /* \"contracts/ico.sol\":3612:3634  _tokenPrice * 10 ** 18 */\n      tag_47\n      swap2\n      swap1\n      tag_48\n      jump\t// in\n    tag_47:\n        /* \"contracts/ico.sol\":3599:3609  tokenPrice */\n      0x02\n        /* \"contracts/ico.sol\":3599:3634  tokenPrice = _tokenPrice * 10 ** 18 */\n      dup2\n      swap1\n      sstore\n      pop\n        /* \"contracts/ico.sol\":3672:3680  10 ** 18 */\n      0x0de0b6b3a7640000\n        /* \"contracts/ico.sol\":3658:3669  _targetSale */\n      dup2\n        /* \"contracts/ico.sol\":3658:3680  _targetSale * 10 ** 18 */\n      tag_49\n      swap2\n      swap1\n      tag_48\n      jump\t// in\n    tag_49:\n        /* \"contracts/ico.sol\":3645:3655  targetSale */\n      0x04\n        /* \"contracts/ico.sol\":3645:3680  targetSale = _targetSale * 10 ** 18 */\n      dup2\n      swap1\n      sstore\n      pop\n        /* \"contracts/ico.sol\":3698:3734  icoUpdate( _tokenPrice, _targetSale) */\n      0x314bf1ccc32c608a6175053b0da1933b3a745b3f799011003a4c39aab0c518a3\n        /* \"contracts/ico.sol\":3709:3720  _tokenPrice */\n      dup3\n        /* \"contracts/ico.sol\":3722:3733  _targetSale */\n      dup3\n        /* \"contracts/ico.sol\":3698:3734  icoUpdate( _tokenPrice, _targetSale) */\n      mload(0x40)\n      tag_50\n      swap3\n      swap2\n      swap1\n      tag_51\n      jump\t// in\n    tag_50:\n      mload(0x40)\n      dup1\n      swap2\n      sub\n      swap1\n      log1\n        /* \"contracts/ico.sol\":3487:3742  function editIDO(uint _tokenPrice, uint256 _targetSale) public{... */\n      pop\n      pop\n      jump\t// out\n        /* \"contracts/ico.sol\":3376:3479  function claimRaisedFunds() external {... */\n    tag_24:\n        /* \"contracts/ico.sol\":3446:3451  owner */\n      0x03\n      0x00\n      swap1\n      sload\n      swap1\n      0x0100\n      exp\n      swap1\n      div\n      0xffffffffffffffffffffffffffffffffffffffff\n      and\n        /* \"contracts/ico.sol\":3432:3451  msg.sender == owner */\n      0xffffffffffffffffffffffffffffffffffffffff\n      and\n        /* \"contracts/ico.sol\":3432:3442  msg.sender */\n      caller\n        /* \"contracts/ico.sol\":3432:3451  msg.sender == owner */\n      0xffffffffffffffffffffffffffffffffffffffff\n      and\n      eq\n        /* \"contracts/ico.sol\":3424:3471  require(msg.sender == owner, \"Only owner can \") */\n      tag_53\n      jumpi\n      mload(0x40)\n      0x08c379a000000000000000000000000000000000000000000000000000000000\n      dup2\n      mstore\n      0x04\n      add\n      tag_54\n      swap1\n      tag_55\n      jump\t// in\n    tag_54:\n      mload(0x40)\n      dup1\n      swap2\n      sub\n      swap1\n      revert\n    tag_53:\n        /* \"contracts/ico.sol\":3376:3479  function claimRaisedFunds() external {... */\n      jump\t// out\n        /* \"contracts/ico.sol\":2640:2822  function startClaim(address _token) external {... */\n    tag_28:\n        /* \"contracts/ico.sol\":2718:2723  owner */\n      0x03\n      0x00\n      swap1\n      sload\n      swap1\n      0x0100\n      exp\n      swap1\n      div\n      0xffffffffffffffffffffffffffffffffffffffff\n      and\n        /* \"contracts/ico.sol\":2704:2723  msg.sender == owner */\n      0xffffffffffffffffffffffffffffffffffffffff\n      and\n        /* \"contracts/ico.sol\":2704:2714  msg.sender */\n      caller\n        /* \"contracts/ico.sol\":2704:2723  msg.sender == owner */\n      0xffffffffffffffffffffffffffffffffffffffff\n      and\n      eq\n        /* \"contracts/ico.sol\":2696:2761  require(msg.sender == owner, \"Only owner can call this function\") */\n      tag_57\n      jumpi\n      mload(0x40)\n      0x08c379a000000000000000000000000000000000000000000000000000000000\n      dup2\n      mstore\n      0x04\n      add\n      tag_58\n      swap1\n      tag_59\n      jump\t// in\n    tag_58:\n      mload(0x40)\n      dup1\n      swap2\n      sub\n      swap1\n      revert\n    tag_57:\n        /* \"contracts/ico.sol\":2778:2784  _token */\n      dup1\n        /* \"contracts/ico.sol\":2772:2775  DAZ */\n      0x01\n      0x00\n        /* \"contracts/ico.sol\":2772:2784  DAZ = _token */\n      0x0100\n      exp\n      dup2\n      sload\n      dup2\n      0xffffffffffffffffffffffffffffffffffffffff\n      mul\n      not\n      and\n      swap1\n      dup4\n      0xffffffffffffffffffffffffffffffffffffffff\n      and\n      mul\n      or\n      swap1\n      sstore\n      pop\n        /* \"contracts/ico.sol\":2810:2814  true */\n      0x01\n        /* \"contracts/ico.sol\":2795:2807  claimStarted */\n      0x03\n      0x15\n        /* \"contracts/ico.sol\":2795:2814  claimStarted = true */\n      0x0100\n      exp\n      dup2\n      sload\n      dup2\n      0xff\n      mul\n      not\n      and\n      swap1\n      dup4\n      iszero\n      iszero\n      mul\n      or\n      swap1\n      sstore\n      pop\n        /* \"contracts/ico.sol\":2640:2822  function startClaim(address _token) external {... */\n      pop\n      jump\t// out\n        /* \"contracts/ico.sol\":2188:2632  function purchaseToken(uint _amount)  public nonReentrant{... */\n    tag_32:\n        /* \"@openzeppelin/contracts/security/ReentrancyGuard.sol\":1744:1745  2 */\n      0x02\n        /* \"@openzeppelin/contracts/security/ReentrancyGuard.sol\":2325:2332  _status */\n      sload(0x00)\n        /* \"@openzeppelin/contracts/security/ReentrancyGuard.sol\":2325:2344  _status != _ENTERED */\n      sub\n        /* \"@openzeppelin/contracts/security/ReentrancyGuard.sol\":2317:2380  require(_status != _ENTERED, \"ReentrancyGuard: reentrant call\") */\n      tag_61\n      jumpi\n      mload(0x40)\n      0x08c379a000000000000000000000000000000000000000000000000000000000\n      dup2\n      mstore\n      0x04\n      add\n      tag_62\n      swap1\n      tag_63\n      jump\t// in\n    tag_62:\n      mload(0x40)\n      dup1\n      swap2\n      sub\n      swap1\n      revert\n    tag_61:\n        /* \"@openzeppelin/contracts/security/ReentrancyGuard.sol\":1744:1745  2 */\n      0x02\n        /* \"@openzeppelin/contracts/security/ReentrancyGuard.sol\":2455:2462  _status */\n      0x00\n        /* \"@openzeppelin/contracts/security/ReentrancyGuard.sol\":2455:2473  _status = _ENTERED */\n      dup2\n      swap1\n      sstore\n      pop\n        /* \"contracts/ico.sol\":2278:2282  true */\n      0x01\n        /* \"contracts/ico.sol\":2264:2282  IDOStarted == true */\n      iszero\n      iszero\n        /* \"contracts/ico.sol\":2264:2274  IDOStarted */\n      0x03\n      0x14\n      swap1\n      sload\n      swap1\n      0x0100\n      exp\n      swap1\n      div\n      0xff\n      and\n        /* \"contracts/ico.sol\":2264:2282  IDOStarted == true */\n      iszero\n      iszero\n      eq\n        /* \"contracts/ico.sol\":2256:2306  require(IDOStarted == true, \"IDO has not started\") */\n      tag_65\n      jumpi\n      mload(0x40)\n      0x08c379a000000000000000000000000000000000000000000000000000000000\n      dup2\n      mstore\n      0x04\n      add\n      tag_66\n      swap1\n      tag_67\n      jump\t// in\n    tag_66:\n      mload(0x40)\n      dup1\n      swap2\n      sub\n      swap1\n      revert\n    tag_65:\n        /* \"contracts/ico.sol\":2317:2330  uint256 value */\n      0x00\n        /* \"contracts/ico.sol\":2347:2354  _amount */\n      dup2\n        /* \"contracts/ico.sol\":2333:2344  totalRaised */\n      sload(0x05)\n        /* \"contracts/ico.sol\":2333:2354  totalRaised + _amount */\n      tag_68\n      swap2\n      swap1\n      tag_69\n      jump\t// in\n    tag_68:\n        /* \"contracts/ico.sol\":2317:2354  uint256 value = totalRaised + _amount */\n      swap1\n      pop\n        /* \"contracts/ico.sol\":2381:2391  targetSale */\n      sload(0x04)\n        /* \"contracts/ico.sol\":2373:2378  value */\n      dup2\n        /* \"contracts/ico.sol\":2373:2391  value < targetSale */\n      lt\n        /* \"contracts/ico.sol\":2365:2420  require(value < targetSale, \"All tokens has been sold\") */\n      tag_70\n      jumpi\n      mload(0x40)\n      0x08c379a000000000000000000000000000000000000000000000000000000000\n      dup2\n      mstore\n      0x04\n      add\n      tag_71\n      swap1\n      tag_72\n      jump\t// in\n    tag_71:\n      mload(0x40)\n      dup1\n      swap2\n      sub\n      swap1\n      revert\n    tag_70:\n        /* \"contracts/ico.sol\":2431:2496  IKRC20(USDT).safeTransferFrom(msg.sender, address(this), _amount) */\n      tag_73\n        /* \"contracts/ico.sol\":2461:2471  msg.sender */\n      caller\n        /* \"contracts/ico.sol\":2481:2485  this */\n      address\n        /* \"contracts/ico.sol\":2488:2495  _amount */\n      dup5\n        /* \"contracts/ico.sol\":2438:2442  USDT */\n      immutable(\"0xc8a6f112e7620748ca3ae6a49a58464897133c24b6f43e9fa71155cd2626380a\")\n        /* \"contracts/ico.sol\":2431:2460  IKRC20(USDT).safeTransferFrom */\n      0xffffffffffffffffffffffffffffffffffffffff\n      and\n      tag_74\n      swap1\n        /* \"contracts/ico.sol\":2431:2496  IKRC20(USDT).safeTransferFrom(msg.sender, address(this), _amount) */\n      swap4\n      swap3\n      swap2\n      swap1\n      0xffffffff\n      and\n      jump\t// in\n    tag_73:\n        /* \"contracts/ico.sol\":2532:2539  _amount */\n      dup2\n        /* \"contracts/ico.sol\":2507:2515  purchase */\n      0x06\n        /* \"contracts/ico.sol\":2507:2527  purchase[msg.sender] */\n      0x00\n        /* \"contracts/ico.sol\":2516:2526  msg.sender */\n      caller\n        /* \"contracts/ico.sol\":2507:2527  purchase[msg.sender] */\n      0xffffffffffffffffffffffffffffffffffffffff\n      and\n      0xffffffffffffffffffffffffffffffffffffffff\n      and\n      dup2\n      mstore\n      0x20\n      add\n      swap1\n      dup2\n      mstore\n      0x20\n      add\n      0x00\n      keccak256\n      0x00\n        /* \"contracts/ico.sol\":2507:2539  purchase[msg.sender]  += _amount */\n      dup3\n      dup3\n      sload\n      tag_75\n      swap2\n      swap1\n      tag_69\n      jump\t// in\n    tag_75:\n      swap3\n      pop\n      pop\n      dup2\n      swap1\n      sstore\n      pop\n        /* \"contracts/ico.sol\":2565:2572  _amount */\n      dup2\n        /* \"contracts/ico.sol\":2550:2561  totalRaised */\n      0x05\n      0x00\n        /* \"contracts/ico.sol\":2550:2572  totalRaised += _amount */\n      dup3\n      dup3\n      sload\n      tag_76\n      swap2\n      swap1\n      tag_69\n      jump\t// in\n    tag_76:\n      swap3\n      pop\n      pop\n      dup2\n      swap1\n      sstore\n      pop\n        /* \"contracts/ico.sol\":2604:2614  msg.sender */\n      caller\n        /* \"contracts/ico.sol\":2588:2624  latestPurchased(msg.sender, _amount) */\n      0xffffffffffffffffffffffffffffffffffffffff\n      and\n      0xda4cadf0d4383cb43c8249e3cc678f6690bdbaa01421c99fd9b14edac62cde80\n        /* \"contracts/ico.sol\":2616:2623  _amount */\n      dup4\n        /* \"contracts/ico.sol\":2588:2624  latestPurchased(msg.sender, _amount) */\n      mload(0x40)\n      tag_77\n      swap2\n      swap1\n      tag_18\n      jump\t// in\n    tag_77:\n      mload(0x40)\n      dup1\n      swap2\n      sub\n      swap1\n      log2\n        /* \"contracts/ico.sol\":2245:2632  {... */\n      pop\n        /* \"@openzeppelin/contracts/security/ReentrancyGuard.sol\":1701:1702  1 */\n      0x01\n        /* \"@openzeppelin/contracts/security/ReentrancyGuard.sol\":2628:2635  _status */\n      0x00\n        /* \"@openzeppelin/contracts/security/ReentrancyGuard.sol\":2628:2650  _status = _NOT_ENTERED */\n      dup2\n      swap1\n      sstore\n      pop\n        /* \"contracts/ico.sol\":2188:2632  function purchaseToken(uint _amount)  public nonReentrant{... */\n      pop\n      jump\t// out\n        /* \"contracts/ico.sol\":1332:1361  address public immutable USDT */\n    tag_34:\n      immutable(\"0xc8a6f112e7620748ca3ae6a49a58464897133c24b6f43e9fa71155cd2626380a\")\n      dup2\n      jump\t// out\n        /* \"contracts/ico.sol\":2830:3368  function claimPurchasedToken() external nonReentrant {... */\n    tag_38:\n        /* \"@openzeppelin/contracts/security/ReentrancyGuard.sol\":1744:1745  2 */\n      0x02\n        /* \"@openzeppelin/contracts/security/ReentrancyGuard.sol\":2325:2332  _status */\n      sload(0x00)\n        /* \"@openzeppelin/contracts/security/ReentrancyGuard.sol\":2325:2344  _status != _ENTERED */\n      sub\n        /* \"@openzeppelin/contracts/security/ReentrancyGuard.sol\":2317:2380  require(_status != _ENTERED, \"ReentrancyGuard: reentrant call\") */\n      tag_79\n      jumpi\n      mload(0x40)\n      0x08c379a000000000000000000000000000000000000000000000000000000000\n      dup2\n      mstore\n      0x04\n      add\n      tag_80\n      swap1\n      tag_63\n      jump\t// in\n    tag_80:\n      mload(0x40)\n      dup1\n      swap2\n      sub\n      swap1\n      revert\n    tag_79:\n        /* \"@openzeppelin/contracts/security/ReentrancyGuard.sol\":1744:1745  2 */\n      0x02\n        /* \"@openzeppelin/contracts/security/ReentrancyGuard.sol\":2455:2462  _status */\n      0x00\n        /* \"@openzeppelin/contracts/security/ReentrancyGuard.sol\":2455:2473  _status = _ENTERED */\n      dup2\n      swap1\n      sstore\n      pop\n        /* \"contracts/ico.sol\":2916:2921  false */\n      0x00\n        /* \"contracts/ico.sol\":2902:2921  IDOStarted == false */\n      iszero\n      iszero\n        /* \"contracts/ico.sol\":2902:2912  IDOStarted */\n      0x03\n      0x14\n      swap1\n      sload\n      swap1\n      0x0100\n      exp\n      swap1\n      div\n      0xff\n      and\n        /* \"contracts/ico.sol\":2902:2921  IDOStarted == false */\n      iszero\n      iszero\n      eq\n        /* \"contracts/ico.sol\":2894:2963  require(IDOStarted == false, \"IDO Has  not ended, claim unavailable\") */\n      tag_82\n      jumpi\n      mload(0x40)\n      0x08c379a000000000000000000000000000000000000000000000000000000000\n      dup2\n      mstore\n      0x04\n      add\n      tag_83\n      swap1\n      tag_84\n      jump\t// in\n    tag_83:\n      mload(0x40)\n      dup1\n      swap2\n      sub\n      swap1\n      revert\n    tag_82:\n        /* \"contracts/ico.sol\":3005:3006  0 */\n      0x00\n        /* \"contracts/ico.sol\":2982:2990  purchase */\n      0x06\n        /* \"contracts/ico.sol\":2982:3002  purchase[msg.sender] */\n      0x00\n        /* \"contracts/ico.sol\":2991:3001  msg.sender */\n      caller\n        /* \"contracts/ico.sol\":2982:3002  purchase[msg.sender] */\n      0xffffffffffffffffffffffffffffffffffffffff\n      and\n      0xffffffffffffffffffffffffffffffffffffffff\n      and\n      dup2\n      mstore\n      0x20\n      add\n      swap1\n      dup2\n      mstore\n      0x20\n      add\n      0x00\n      keccak256\n      sload\n        /* \"contracts/ico.sol\":2982:3006  purchase[msg.sender] > 0 */\n      gt\n        /* \"contracts/ico.sol\":2974:3034  require(purchase[msg.sender] > 0, \"you did not participate\") */\n      tag_85\n      jumpi\n      mload(0x40)\n      0x08c379a000000000000000000000000000000000000000000000000000000000\n      dup2\n      mstore\n      0x04\n      add\n      tag_86\n      swap1\n      tag_87\n      jump\t// in\n    tag_86:\n      mload(0x40)\n      dup1\n      swap2\n      sub\n      swap1\n      revert\n    tag_85:\n        /* \"contracts/ico.sol\":3045:3069  uint256  claimableAmount */\n      0x00\n        /* \"contracts/ico.sol\":3072:3080  purchase */\n      0x06\n        /* \"contracts/ico.sol\":3072:3092  purchase[msg.sender] */\n      0x00\n        /* \"contracts/ico.sol\":3081:3091  msg.sender */\n      caller\n        /* \"contracts/ico.sol\":3072:3092  purchase[msg.sender] */\n      0xffffffffffffffffffffffffffffffffffffffff\n      and\n      0xffffffffffffffffffffffffffffffffffffffff\n      and\n      dup2\n      mstore\n      0x20\n      add\n      swap1\n      dup2\n      mstore\n      0x20\n      add\n      0x00\n      keccak256\n      sload\n        /* \"contracts/ico.sol\":3045:3092  uint256  claimableAmount = purchase[msg.sender] */\n      swap1\n      pop\n        /* \"contracts/ico.sol\":3103:3117  uint256  token */\n      0x00\n        /* \"contracts/ico.sol\":3139:3149  tokenPrice */\n      sload(0x02)\n        /* \"contracts/ico.sol\":3121:3136  claimableAmount */\n      dup3\n        /* \"contracts/ico.sol\":3121:3149  claimableAmount / tokenPrice */\n      tag_88\n      swap2\n      swap1\n      tag_89\n      jump\t// in\n    tag_88:\n        /* \"contracts/ico.sol\":3103:3150  uint256  token = (claimableAmount / tokenPrice) */\n      swap1\n      pop\n        /* \"contracts/ico.sol\":3161:3184  uint256 claimableTokens */\n      0x00\n        /* \"contracts/ico.sol\":3195:3201  10**18 */\n      0x0de0b6b3a7640000\n        /* \"contracts/ico.sol\":3187:3192  token */\n      dup3\n        /* \"contracts/ico.sol\":3187:3201  token * 10**18 */\n      tag_90\n      swap2\n      swap1\n      tag_48\n      jump\t// in\n    tag_90:\n        /* \"contracts/ico.sol\":3161:3201  uint256 claimableTokens = token * 10**18 */\n      swap1\n      pop\n        /* \"contracts/ico.sol\":3235:3236  0 */\n      0x00\n        /* \"contracts/ico.sol\":3212:3220  purchase */\n      0x06\n        /* \"contracts/ico.sol\":3212:3232  purchase[msg.sender] */\n      0x00\n        /* \"contracts/ico.sol\":3221:3231  msg.sender */\n      caller\n        /* \"contracts/ico.sol\":3212:3232  purchase[msg.sender] */\n      0xffffffffffffffffffffffffffffffffffffffff\n      and\n      0xffffffffffffffffffffffffffffffffffffffff\n      and\n      dup2\n      mstore\n      0x20\n      add\n      swap1\n      dup2\n      mstore\n      0x20\n      add\n      0x00\n      keccak256\n        /* \"contracts/ico.sol\":3212:3236  purchase[msg.sender] = 0 */\n      dup2\n      swap1\n      sstore\n      pop\n        /* \"contracts/ico.sol\":3254:3257  DAZ */\n      0x01\n      0x00\n      swap1\n      sload\n      swap1\n      0x0100\n      exp\n      swap1\n      div\n      0xffffffffffffffffffffffffffffffffffffffff\n      and\n        /* \"contracts/ico.sol\":3247:3271  IKRC20(DAZ).transferFrom */\n      0xffffffffffffffffffffffffffffffffffffffff\n      and\n      0x23b872dd\n        /* \"contracts/ico.sol\":3280:3284  this */\n      address\n        /* \"contracts/ico.sol\":3287:3297  msg.sender */\n      caller\n        /* \"contracts/ico.sol\":3299:3314  claimableTokens */\n      dup5\n        /* \"contracts/ico.sol\":3247:3315  IKRC20(DAZ).transferFrom(address(this), msg.sender, claimableTokens) */\n      mload(0x40)\n      dup5\n      0xffffffff\n      and\n      0xe0\n      shl\n      dup2\n      mstore\n      0x04\n      add\n      tag_91\n      swap4\n      swap3\n      swap2\n      swap1\n      tag_92\n      jump\t// in\n    tag_91:\n      0x20\n      mload(0x40)\n      dup1\n      dup4\n      sub\n      dup2\n      0x00\n      dup8\n      gas\n      call\n      iszero\n      dup1\n      iszero\n      tag_94\n      jumpi\n      returndatasize\n      0x00\n      dup1\n      returndatacopy\n      revert(0x00, returndatasize)\n    tag_94:\n      pop\n      pop\n      pop\n      pop\n      mload(0x40)\n      returndatasize\n      not(0x1f)\n      0x1f\n      dup3\n      add\n      and\n      dup3\n      add\n      dup1\n      0x40\n      mstore\n      pop\n      dup2\n      add\n      swap1\n      tag_95\n      swap2\n      swap1\n      tag_96\n      jump\t// in\n    tag_95:\n      pop\n        /* \"contracts/ico.sol\":3331:3360  claimToken(msg.sender, token) */\n      0x1698755f2f63264c31ca84d930df9dd8ca3ac92d33a0dd64d10154f95e4203ef\n        /* \"contracts/ico.sol\":3342:3352  msg.sender */\n      caller\n        /* \"contracts/ico.sol\":3354:3359  token */\n      dup4\n        /* \"contracts/ico.sol\":3331:3360  claimToken(msg.sender, token) */\n      mload(0x40)\n      tag_97\n      swap3\n      swap2\n      swap1\n      tag_98\n      jump\t// in\n    tag_97:\n      mload(0x40)\n      dup1\n      swap2\n      sub\n      swap1\n      log1\n        /* \"contracts/ico.sol\":2883:3368  {... */\n      pop\n      pop\n      pop\n        /* \"@openzeppelin/contracts/security/ReentrancyGuard.sol\":1701:1702  1 */\n      0x01\n        /* \"@openzeppelin/contracts/security/ReentrancyGuard.sol\":2628:2635  _status */\n      0x00\n        /* \"@openzeppelin/contracts/security/ReentrancyGuard.sol\":2628:2650  _status = _NOT_ENTERED */\n      dup2\n      swap1\n      sstore\n      pop\n        /* \"contracts/ico.sol\":2830:3368  function claimPurchasedToken() external nonReentrant {... */\n      jump\t// out\n        /* \"contracts/ico.sol\":3750:3927  function BeginIDO() public {... */\n    tag_40:\n        /* \"contracts/ico.sol\":3810:3815  owner */\n      0x03\n      0x00\n      swap1\n      sload\n      swap1\n      0x0100\n      exp\n      swap1\n      div\n      0xffffffffffffffffffffffffffffffffffffffff\n      and\n        /* \"contracts/ico.sol\":3796:3815  msg.sender == owner */\n      0xffffffffffffffffffffffffffffffffffffffff\n      and\n        /* \"contracts/ico.sol\":3796:3806  msg.sender */\n      caller\n        /* \"contracts/ico.sol\":3796:3815  msg.sender == owner */\n      0xffffffffffffffffffffffffffffffffffffffff\n      and\n      eq\n        /* \"contracts/ico.sol\":3788:3816  require(msg.sender == owner) */\n      tag_100\n      jumpi\n      0x00\n      dup1\n      revert\n    tag_100:\n        /* \"contracts/ico.sol\":3840:3844  true */\n      0x01\n        /* \"contracts/ico.sol\":3827:3837  IDOStarted */\n      0x03\n      0x14\n        /* \"contracts/ico.sol\":3827:3844  IDOStarted = true */\n      0x0100\n      exp\n      dup2\n      sload\n      dup2\n      0xff\n      mul\n      not\n      and\n      swap1\n      dup4\n      iszero\n      iszero\n      mul\n      or\n      swap1\n      sstore\n      pop\n        /* \"contracts/ico.sol\":3870:3875  false */\n      0x00\n        /* \"contracts/ico.sol\":3855:3867  claimStarted */\n      0x03\n      0x15\n        /* \"contracts/ico.sol\":3855:3875  claimStarted = false */\n      0x0100\n      exp\n      dup2\n      sload\n      dup2\n      0xff\n      mul\n      not\n      and\n      swap1\n      dup4\n      iszero\n      iszero\n      mul\n      or\n      swap1\n      sstore\n      pop\n        /* \"contracts/ico.sol\":3893:3919  ICOStartAlert(\"ICO is on\") */\n      0x71002079ab3de7feb03ee30c84baf1d2350d4ffe16709d3dacb5e1037a0fe1cc\n      mload(0x40)\n      tag_101\n      swap1\n      tag_102\n      jump\t// in\n    tag_101:\n      mload(0x40)\n      dup1\n      swap2\n      sub\n      swap1\n      log1\n        /* \"contracts/ico.sol\":3750:3927  function BeginIDO() public {... */\n      jump\t// out\n        /* \"@openzeppelin/contracts/token/ERC20/utils/SafeERC20.sol\":974:1215  function safeTransferFrom(... */\n    tag_74:\n        /* \"@openzeppelin/contracts/token/ERC20/utils/SafeERC20.sol\":1112:1208  _callOptionalReturn(token, abi.encodeWithSelector(token.transferFrom.selector, from, to, value)) */\n      tag_104\n        /* \"@openzeppelin/contracts/token/ERC20/utils/SafeERC20.sol\":1132:1137  token */\n      dup5\n        /* \"@openzeppelin/contracts/token/ERC20/utils/SafeERC20.sol\":1162:1189  token.transferFrom.selector */\n      shl(0xe0, 0x23b872dd)\n        /* \"@openzeppelin/contracts/token/ERC20/utils/SafeERC20.sol\":1191:1195  from */\n      dup6\n        /* \"@openzeppelin/contracts/token/ERC20/utils/SafeERC20.sol\":1197:1199  to */\n      dup6\n        /* \"@openzeppelin/contracts/token/ERC20/utils/SafeERC20.sol\":1201:1206  value */\n      dup6\n        /* \"@openzeppelin/contracts/token/ERC20/utils/SafeERC20.sol\":1139:1207  abi.encodeWithSelector(token.transferFrom.selector, from, to, value) */\n      add(0x24, mload(0x40))\n      tag_105\n      swap4\n      swap3\n      swap2\n      swap1\n      tag_92\n      jump\t// in\n    tag_105:\n      mload(0x40)\n      0x20\n      dup2\n      dup4\n      sub\n      sub\n      dup2\n      mstore\n      swap1\n      0x40\n      mstore\n      swap1\n      not(0xffffffffffffffffffffffffffffffffffffffffffffffffffffffff)\n      and\n      0x20\n      dup3\n      add\n      dup1\n      mload\n      0xffffffffffffffffffffffffffffffffffffffffffffffffffffffff\n      dup4\n      dup2\n      dup4\n      and\n      or\n      dup4\n      mstore\n      pop\n      pop\n      pop\n      pop\n        /* \"@openzeppelin/contracts/token/ERC20/utils/SafeERC20.sol\":1112:1131  _callOptionalReturn */\n      tag_106\n        /* \"@openzeppelin/contracts/token/ERC20/utils/SafeERC20.sol\":1112:1208  _callOptionalReturn(token, abi.encodeWithSelector(token.transferFrom.selector, from, to, value)) */\n      jump\t// in\n    tag_104:\n        /* \"@openzeppelin/contracts/token/ERC20/utils/SafeERC20.sol\":974:1215  function safeTransferFrom(... */\n      pop\n      pop\n      pop\n      pop\n      jump\t// out\n        /* \"@openzeppelin/contracts/token/ERC20/utils/SafeERC20.sol\":3747:4453  function _callOptionalReturn(IERC20 token, bytes memory data) private {... */\n    tag_106:\n        /* \"@openzeppelin/contracts/token/ERC20/utils/SafeERC20.sol\":4166:4189  bytes memory returndata */\n      0x00\n        /* \"@openzeppelin/contracts/token/ERC20/utils/SafeERC20.sol\":4192:4261  address(token).functionCall(data, \"SafeERC20: low-level call failed\") */\n      tag_108\n        /* \"@openzeppelin/contracts/token/ERC20/utils/SafeERC20.sol\":4220:4224  data */\n      dup3\n        /* \"@openzeppelin/contracts/token/ERC20/utils/SafeERC20.sol\":4192:4261  address(token).functionCall(data, \"SafeERC20: low-level call failed\") */\n      mload(0x40)\n      dup1\n      0x40\n      add\n      0x40\n      mstore\n      dup1\n      0x20\n      dup2\n      mstore\n      0x20\n      add\n      0x5361666545524332303a206c6f772d6c6576656c2063616c6c206661696c6564\n      dup2\n      mstore\n      pop\n        /* \"@openzeppelin/contracts/token/ERC20/utils/SafeERC20.sol\":4200:4205  token */\n      dup6\n        /* \"@openzeppelin/contracts/token/ERC20/utils/SafeERC20.sol\":4192:4219  address(token).functionCall */\n      0xffffffffffffffffffffffffffffffffffffffff\n      and\n      tag_109\n      swap1\n        /* \"@openzeppelin/contracts/token/ERC20/utils/SafeERC20.sol\":4192:4261  address(token).functionCall(data, \"SafeERC20: low-level call failed\") */\n      swap3\n      swap2\n      swap1\n      0xffffffff\n      and\n      jump\t// in\n    tag_108:\n        /* \"@openzeppelin/contracts/token/ERC20/utils/SafeERC20.sol\":4166:4261  bytes memory returndata = address(token).functionCall(data, \"SafeERC20: low-level call failed\") */\n      swap1\n      pop\n        /* \"@openzeppelin/contracts/token/ERC20/utils/SafeERC20.sol\":4295:4296  0 */\n      0x00\n        /* \"@openzeppelin/contracts/token/ERC20/utils/SafeERC20.sol\":4275:4285  returndata */\n      dup2\n        /* \"@openzeppelin/contracts/token/ERC20/utils/SafeERC20.sol\":4275:4292  returndata.length */\n      mload\n        /* \"@openzeppelin/contracts/token/ERC20/utils/SafeERC20.sol\":4275:4296  returndata.length > 0 */\n      gt\n        /* \"@openzeppelin/contracts/token/ERC20/utils/SafeERC20.sol\":4271:4447  if (returndata.length > 0) {... */\n      iszero\n      tag_110\n      jumpi\n        /* \"@openzeppelin/contracts/token/ERC20/utils/SafeERC20.sol\":4370:4380  returndata */\n      dup1\n        /* \"@openzeppelin/contracts/token/ERC20/utils/SafeERC20.sol\":4359:4389  abi.decode(returndata, (bool)) */\n      dup1\n      0x20\n      add\n      swap1\n      mload\n      dup2\n      add\n      swap1\n      tag_111\n      swap2\n      swap1\n      tag_96\n      jump\t// in\n    tag_111:\n        /* \"@openzeppelin/contracts/token/ERC20/utils/SafeERC20.sol\":4351:4436  require(abi.decode(returndata, (bool)), \"SafeERC20: ERC20 operation did not succeed\") */\n      tag_112\n      jumpi\n      mload(0x40)\n      0x08c379a000000000000000000000000000000000000000000000000000000000\n      dup2\n      mstore\n      0x04\n      add\n      tag_113\n      swap1\n      tag_114\n      jump\t// in\n    tag_113:\n      mload(0x40)\n      dup1\n      swap2\n      sub\n      swap1\n      revert\n    tag_112:\n        /* \"@openzeppelin/contracts/token/ERC20/utils/SafeERC20.sol\":4271:4447  if (returndata.length > 0) {... */\n    tag_110:\n        /* \"@openzeppelin/contracts/token/ERC20/utils/SafeERC20.sol\":3817:4453  {... */\n      pop\n        /* \"@openzeppelin/contracts/token/ERC20/utils/SafeERC20.sol\":3747:4453  function _callOptionalReturn(IERC20 token, bytes memory data) private {... */\n      pop\n      pop\n      jump\t// out\n        /* \"@openzeppelin/contracts/utils/Address.sol\":3861:4084  function functionCall(... */\n    tag_109:\n        /* \"@openzeppelin/contracts/utils/Address.sol\":3994:4006  bytes memory */\n      0x60\n        /* \"@openzeppelin/contracts/utils/Address.sol\":4025:4077  functionCallWithValue(target, data, 0, errorMessage) */\n      tag_116\n        /* \"@openzeppelin/contracts/utils/Address.sol\":4047:4053  target */\n      dup5\n        /* \"@openzeppelin/contracts/utils/Address.sol\":4055:4059  data */\n      dup5\n        /* \"@openzeppelin/contracts/utils/Address.sol\":4061:4062  0 */\n      0x00\n        /* \"@openzeppelin/contracts/utils/Address.sol\":4064:4076  errorMessage */\n      dup6\n        /* \"@openzeppelin/contracts/utils/Address.sol\":4025:4046  functionCallWithValue */\n      tag_117\n        /* \"@openzeppelin/contracts/utils/Address.sol\":4025:4077  functionCallWithValue(target, data, 0, errorMessage) */\n      jump\t// in\n    tag_116:\n        /* \"@openzeppelin/contracts/utils/Address.sol\":4018:4077  return functionCallWithValue(target, data, 0, errorMessage) */\n      swap1\n      pop\n        /* \"@openzeppelin/contracts/utils/Address.sol\":3861:4084  function functionCall(... */\n      swap4\n      swap3\n      pop\n      pop\n      pop\n      jump\t// out\n        /* \"@openzeppelin/contracts/utils/Address.sol\":4948:5447  function functionCallWithValue(... */\n    tag_117:\n        /* \"@openzeppelin/contracts/utils/Address.sol\":5113:5125  bytes memory */\n      0x60\n        /* \"@openzeppelin/contracts/utils/Address.sol\":5170:5175  value */\n      dup3\n        /* \"@openzeppelin/contracts/utils/Address.sol\":5145:5166  address(this).balance */\n      selfbalance\n        /* \"@openzeppelin/contracts/utils/Address.sol\":5145:5175  address(this).balance >= value */\n      lt\n      iszero\n        /* \"@openzeppelin/contracts/utils/Address.sol\":5137:5218  require(address(this).balance >= value, \"Address: insufficient balance for call\") */\n      tag_119\n      jumpi\n      mload(0x40)\n      0x08c379a000000000000000000000000000000000000000000000000000000000\n      dup2\n      mstore\n      0x04\n      add\n      tag_120\n      swap1\n      tag_121\n      jump\t// in\n    tag_120:\n      mload(0x40)\n      dup1\n      swap2\n      sub\n      swap1\n      revert\n    tag_119:\n        /* \"@openzeppelin/contracts/utils/Address.sol\":5236:5254  isContract(target) */\n      tag_122\n        /* \"@openzeppelin/contracts/utils/Address.sol\":5247:5253  target */\n      dup6\n        /* \"@openzeppelin/contracts/utils/Address.sol\":5236:5246  isContract */\n      tag_123\n        /* \"@openzeppelin/contracts/utils/Address.sol\":5236:5254  isContract(target) */\n      jump\t// in\n    tag_122:\n        /* \"@openzeppelin/contracts/utils/Address.sol\":5228:5288  require(isContract(target), \"Address: call to non-contract\") */\n      tag_124\n      jumpi\n      mload(0x40)\n      0x08c379a000000000000000000000000000000000000000000000000000000000\n      dup2\n      mstore\n      0x04\n      add\n      tag_125\n      swap1\n      tag_126\n      jump\t// in\n    tag_125:\n      mload(0x40)\n      dup1\n      swap2\n      sub\n      swap1\n      revert\n    tag_124:\n        /* \"@openzeppelin/contracts/utils/Address.sol\":5300:5312  bool success */\n      0x00\n        /* \"@openzeppelin/contracts/utils/Address.sol\":5314:5337  bytes memory returndata */\n      dup1\n        /* \"@openzeppelin/contracts/utils/Address.sol\":5341:5347  target */\n      dup7\n        /* \"@openzeppelin/contracts/utils/Address.sol\":5341:5352  target.call */\n      0xffffffffffffffffffffffffffffffffffffffff\n      and\n        /* \"@openzeppelin/contracts/utils/Address.sol\":5360:5365  value */\n      dup6\n        /* \"@openzeppelin/contracts/utils/Address.sol\":5367:5371  data */\n      dup8\n        /* \"@openzeppelin/contracts/utils/Address.sol\":5341:5372  target.call{value: value}(data) */\n      mload(0x40)\n      tag_127\n      swap2\n      swap1\n      tag_128\n      jump\t// in\n    tag_127:\n      0x00\n      mload(0x40)\n      dup1\n      dup4\n      sub\n      dup2\n      dup6\n      dup8\n      gas\n      call\n      swap3\n      pop\n      pop\n      pop\n      returndatasize\n      dup1\n      0x00\n      dup2\n      eq\n      tag_131\n      jumpi\n      mload(0x40)\n      swap2\n      pop\n      and(add(returndatasize, 0x3f), not(0x1f))\n      dup3\n      add\n      0x40\n      mstore\n      returndatasize\n      dup3\n      mstore\n      returndatasize\n      0x00\n      0x20\n      dup5\n      add\n      returndatacopy\n      jump(tag_130)\n    tag_131:\n      0x60\n      swap2\n      pop\n    tag_130:\n      pop\n        /* \"@openzeppelin/contracts/utils/Address.sol\":5299:5372  (bool success, bytes memory returndata) = target.call{value: value}(data) */\n      swap2\n      pop\n      swap2\n      pop\n        /* \"@openzeppelin/contracts/utils/Address.sol\":5389:5440  verifyCallResult(success, returndata, errorMessage) */\n      tag_132\n        /* \"@openzeppelin/contracts/utils/Address.sol\":5406:5413  success */\n      dup3\n        /* \"@openzeppelin/contracts/utils/Address.sol\":5415:5425  returndata */\n      dup3\n        /* \"@openzeppelin/contracts/utils/Address.sol\":5427:5439  errorMessage */\n      dup7\n        /* \"@openzeppelin/contracts/utils/Address.sol\":5389:5405  verifyCallResult */\n      tag_133\n        /* \"@openzeppelin/contracts/utils/Address.sol\":5389:5440  verifyCallResult(success, returndata, errorMessage) */\n      jump\t// in\n    tag_132:\n        /* \"@openzeppelin/contracts/utils/Address.sol\":5382:5440  return verifyCallResult(success, returndata, errorMessage) */\n      swap3\n      pop\n      pop\n      pop\n        /* \"@openzeppelin/contracts/utils/Address.sol\":4948:5447  function functionCallWithValue(... */\n      swap5\n      swap4\n      pop\n      pop\n      pop\n      pop\n      jump\t// out\n        /* \"@openzeppelin/contracts/utils/Address.sol\":1175:1495  function isContract(address account) internal view returns (bool) {... */\n    tag_123:\n        /* \"@openzeppelin/contracts/utils/Address.sol\":1235:1239  bool */\n      0x00\n        /* \"@openzeppelin/contracts/utils/Address.sol\":1487:1488  0 */\n      dup1\n        /* \"@openzeppelin/contracts/utils/Address.sol\":1465:1472  account */\n      dup3\n        /* \"@openzeppelin/contracts/utils/Address.sol\":1465:1484  account.code.length */\n      0xffffffffffffffffffffffffffffffffffffffff\n      and\n      extcodesize\n        /* \"@openzeppelin/contracts/utils/Address.sol\":1465:1488  account.code.length > 0 */\n      gt\n        /* \"@openzeppelin/contracts/utils/Address.sol\":1458:1488  return account.code.length > 0 */\n      swap1\n      pop\n        /* \"@openzeppelin/contracts/utils/Address.sol\":1175:1495  function isContract(address account) internal view returns (bool) {... */\n      swap2\n      swap1\n      pop\n      jump\t// out\n        /* \"@openzeppelin/contracts/utils/Address.sol\":7561:8303  function verifyCallResult(... */\n    tag_133:\n        /* \"@openzeppelin/contracts/utils/Address.sol\":7707:7719  bytes memory */\n      0x60\n        /* \"@openzeppelin/contracts/utils/Address.sol\":7735:7742  success */\n      dup4\n        /* \"@openzeppelin/contracts/utils/Address.sol\":7731:8297  if (success) {... */\n      iszero\n      tag_136\n      jumpi\n        /* \"@openzeppelin/contracts/utils/Address.sol\":7765:7775  returndata */\n      dup3\n        /* \"@openzeppelin/contracts/utils/Address.sol\":7758:7775  return returndata */\n      swap1\n      pop\n      jump(tag_135)\n        /* \"@openzeppelin/contracts/utils/Address.sol\":7731:8297  if (success) {... */\n    tag_136:\n        /* \"@openzeppelin/contracts/utils/Address.sol\":7896:7897  0 */\n      0x00\n        /* \"@openzeppelin/contracts/utils/Address.sol\":7876:7886  returndata */\n      dup4\n        /* \"@openzeppelin/contracts/utils/Address.sol\":7876:7893  returndata.length */\n      mload\n        /* \"@openzeppelin/contracts/utils/Address.sol\":7876:7897  returndata.length > 0 */\n      gt\n        /* \"@openzeppelin/contracts/utils/Address.sol\":7872:8287  if (returndata.length > 0) {... */\n      iszero\n      tag_138\n      jumpi\n        /* \"@openzeppelin/contracts/utils/Address.sol\":8120:8130  returndata */\n      dup3\n        /* \"@openzeppelin/contracts/utils/Address.sol\":8114:8131  mload(returndata) */\n      mload\n        /* \"@openzeppelin/contracts/utils/Address.sol\":8180:8195  returndata_size */\n      dup1\n        /* \"@openzeppelin/contracts/utils/Address.sol\":8167:8177  returndata */\n      dup5\n        /* \"@openzeppelin/contracts/utils/Address.sol\":8163:8165  32 */\n      0x20\n        /* \"@openzeppelin/contracts/utils/Address.sol\":8159:8178  add(32, returndata) */\n      add\n        /* \"@openzeppelin/contracts/utils/Address.sol\":8152:8196  revert(add(32, returndata), returndata_size) */\n      revert\n        /* \"@openzeppelin/contracts/utils/Address.sol\":7872:8287  if (returndata.length > 0) {... */\n    tag_138:\n        /* \"@openzeppelin/contracts/utils/Address.sol\":8259:8271  errorMessage */\n      dup2\n        /* \"@openzeppelin/contracts/utils/Address.sol\":8252:8272  revert(errorMessage) */\n      mload(0x40)\n      0x08c379a000000000000000000000000000000000000000000000000000000000\n      dup2\n      mstore\n      0x04\n      add\n      tag_140\n      swap2\n      swap1\n      tag_141\n      jump\t// in\n    tag_140:\n      mload(0x40)\n      dup1\n      swap2\n      sub\n      swap1\n      revert\n        /* \"@openzeppelin/contracts/utils/Address.sol\":7561:8303  function verifyCallResult(... */\n    tag_135:\n      swap4\n      swap3\n      pop\n      pop\n      pop\n      jump\t// out\n        /* \"#utility.yul\":7:84   */\n    tag_142:\n        /* \"#utility.yul\":44:51   */\n      0x00\n        /* \"#utility.yul\":73:78   */\n      dup2\n        /* \"#utility.yul\":62:78   */\n      swap1\n      pop\n        /* \"#utility.yul\":7:84   */\n      swap2\n      swap1\n      pop\n      jump\t// out\n        /* \"#utility.yul\":90:208   */\n    tag_143:\n        /* \"#utility.yul\":177:201   */\n      tag_194\n        /* \"#utility.yul\":195:200   */\n      dup2\n        /* \"#utility.yul\":177:201   */\n      tag_142\n      jump\t// in\n    tag_194:\n        /* \"#utility.yul\":172:175   */\n      dup3\n        /* \"#utility.yul\":165:202   */\n      mstore\n        /* \"#utility.yul\":90:208   */\n      pop\n      pop\n      jump\t// out\n        /* \"#utility.yul\":214:436   */\n    tag_18:\n        /* \"#utility.yul\":307:311   */\n      0x00\n        /* \"#utility.yul\":345:347   */\n      0x20\n        /* \"#utility.yul\":334:343   */\n      dup3\n        /* \"#utility.yul\":330:348   */\n      add\n        /* \"#utility.yul\":322:348   */\n      swap1\n      pop\n        /* \"#utility.yul\":358:429   */\n      tag_196\n        /* \"#utility.yul\":426:427   */\n      0x00\n        /* \"#utility.yul\":415:424   */\n      dup4\n        /* \"#utility.yul\":411:428   */\n      add\n        /* \"#utility.yul\":402:408   */\n      dup5\n        /* \"#utility.yul\":358:429   */\n      tag_143\n      jump\t// in\n    tag_196:\n        /* \"#utility.yul\":214:436   */\n      swap3\n      swap2\n      pop\n      pop\n      jump\t// out\n        /* \"#utility.yul\":523:640   */\n    tag_145:\n        /* \"#utility.yul\":632:633   */\n      0x00\n        /* \"#utility.yul\":629:630   */\n      dup1\n        /* \"#utility.yul\":622:634   */\n      revert\n        /* \"#utility.yul\":769:891   */\n    tag_147:\n        /* \"#utility.yul\":842:866   */\n      tag_201\n        /* \"#utility.yul\":860:865   */\n      dup2\n        /* \"#utility.yul\":842:866   */\n      tag_142\n      jump\t// in\n    tag_201:\n        /* \"#utility.yul\":835:840   */\n      dup2\n        /* \"#utility.yul\":832:867   */\n      eq\n        /* \"#utility.yul\":822:885   */\n      tag_202\n      jumpi\n        /* \"#utility.yul\":881:882   */\n      0x00\n        /* \"#utility.yul\":878:879   */\n      dup1\n        /* \"#utility.yul\":871:883   */\n      revert\n        /* \"#utility.yul\":822:885   */\n    tag_202:\n        /* \"#utility.yul\":769:891   */\n      pop\n      jump\t// out\n        /* \"#utility.yul\":897:1036   */\n    tag_148:\n        /* \"#utility.yul\":943:948   */\n      0x00\n        /* \"#utility.yul\":981:987   */\n      dup2\n        /* \"#utility.yul\":968:988   */\n      calldataload\n        /* \"#utility.yul\":959:988   */\n      swap1\n      pop\n        /* \"#utility.yul\":997:1030   */\n      tag_204\n        /* \"#utility.yul\":1024:1029   */\n      dup2\n        /* \"#utility.yul\":997:1030   */\n      tag_147\n      jump\t// in\n    tag_204:\n        /* \"#utility.yul\":897:1036   */\n      swap3\n      swap2\n      pop\n      pop\n      jump\t// out\n        /* \"#utility.yul\":1042:1516   */\n    tag_21:\n        /* \"#utility.yul\":1110:1116   */\n      0x00\n        /* \"#utility.yul\":1118:1124   */\n      dup1\n        /* \"#utility.yul\":1167:1169   */\n      0x40\n        /* \"#utility.yul\":1155:1164   */\n      dup4\n        /* \"#utility.yul\":1146:1153   */\n      dup6\n        /* \"#utility.yul\":1142:1165   */\n      sub\n        /* \"#utility.yul\":1138:1170   */\n      slt\n        /* \"#utility.yul\":1135:1254   */\n      iszero\n      tag_206\n      jumpi\n        /* \"#utility.yul\":1173:1252   */\n      tag_207\n      tag_145\n      jump\t// in\n    tag_207:\n        /* \"#utility.yul\":1135:1254   */\n    tag_206:\n        /* \"#utility.yul\":1293:1294   */\n      0x00\n        /* \"#utility.yul\":1318:1371   */\n      tag_208\n        /* \"#utility.yul\":1363:1370   */\n      dup6\n        /* \"#utility.yul\":1354:1360   */\n      dup3\n        /* \"#utility.yul\":1343:1352   */\n      dup7\n        /* \"#utility.yul\":1339:1361   */\n      add\n        /* \"#utility.yul\":1318:1371   */\n      tag_148\n      jump\t// in\n    tag_208:\n        /* \"#utility.yul\":1308:1371   */\n      swap3\n      pop\n        /* \"#utility.yul\":1264:1381   */\n      pop\n        /* \"#utility.yul\":1420:1422   */\n      0x20\n        /* \"#utility.yul\":1446:1499   */\n      tag_209\n        /* \"#utility.yul\":1491:1498   */\n      dup6\n        /* \"#utility.yul\":1482:1488   */\n      dup3\n        /* \"#utility.yul\":1471:1480   */\n      dup7\n        /* \"#utility.yul\":1467:1489   */\n      add\n        /* \"#utility.yul\":1446:1499   */\n      tag_148\n      jump\t// in\n    tag_209:\n        /* \"#utility.yul\":1436:1499   */\n      swap2\n      pop\n        /* \"#utility.yul\":1391:1509   */\n      pop\n        /* \"#utility.yul\":1042:1516   */\n      swap3\n      pop\n      swap3\n      swap1\n      pop\n      jump\t// out\n        /* \"#utility.yul\":1522:1648   */\n    tag_149:\n        /* \"#utility.yul\":1559:1566   */\n      0x00\n        /* \"#utility.yul\":1599:1641   */\n      0xffffffffffffffffffffffffffffffffffffffff\n        /* \"#utility.yul\":1592:1597   */\n      dup3\n        /* \"#utility.yul\":1588:1642   */\n      and\n        /* \"#utility.yul\":1577:1642   */\n      swap1\n      pop\n        /* \"#utility.yul\":1522:1648   */\n      swap2\n      swap1\n      pop\n      jump\t// out\n        /* \"#utility.yul\":1654:1750   */\n    tag_150:\n        /* \"#utility.yul\":1691:1698   */\n      0x00\n        /* \"#utility.yul\":1720:1744   */\n      tag_212\n        /* \"#utility.yul\":1738:1743   */\n      dup3\n        /* \"#utility.yul\":1720:1744   */\n      tag_149\n      jump\t// in\n    tag_212:\n        /* \"#utility.yul\":1709:1744   */\n      swap1\n      pop\n        /* \"#utility.yul\":1654:1750   */\n      swap2\n      swap1\n      pop\n      jump\t// out\n        /* \"#utility.yul\":1756:1878   */\n    tag_151:\n        /* \"#utility.yul\":1829:1853   */\n      tag_214\n        /* \"#utility.yul\":1847:1852   */\n      dup2\n        /* \"#utility.yul\":1829:1853   */\n      tag_150\n      jump\t// in\n    tag_214:\n        /* \"#utility.yul\":1822:1827   */\n      dup2\n        /* \"#utility.yul\":1819:1854   */\n      eq\n        /* \"#utility.yul\":1809:1872   */\n      tag_215\n      jumpi\n        /* \"#utility.yul\":1868:1869   */\n      0x00\n        /* \"#utility.yul\":1865:1866   */\n      dup1\n        /* \"#utility.yul\":1858:1870   */\n      revert\n        /* \"#utility.yul\":1809:1872   */\n    tag_215:\n        /* \"#utility.yul\":1756:1878   */\n      pop\n      jump\t// out\n        /* \"#utility.yul\":1884:2023   */\n    tag_152:\n        /* \"#utility.yul\":1930:1935   */\n      0x00\n        /* \"#utility.yul\":1968:1974   */\n      dup2\n        /* \"#utility.yul\":1955:1975   */\n      calldataload\n        /* \"#utility.yul\":1946:1975   */\n      swap1\n      pop\n        /* \"#utility.yul\":1984:2017   */\n      tag_217\n        /* \"#utility.yul\":2011:2016   */\n      dup2\n        /* \"#utility.yul\":1984:2017   */\n      tag_151\n      jump\t// in\n    tag_217:\n        /* \"#utility.yul\":1884:2023   */\n      swap3\n      swap2\n      pop\n      pop\n      jump\t// out\n        /* \"#utility.yul\":2029:2358   */\n    tag_27:\n        /* \"#utility.yul\":2088:2094   */\n      0x00\n        /* \"#utility.yul\":2137:2139   */\n      0x20\n        /* \"#utility.yul\":2125:2134   */\n      dup3\n        /* \"#utility.yul\":2116:2123   */\n      dup5\n        /* \"#utility.yul\":2112:2135   */\n      sub\n        /* \"#utility.yul\":2108:2140   */\n      slt\n        /* \"#utility.yul\":2105:2224   */\n      iszero\n      tag_219\n      jumpi\n        /* \"#utility.yul\":2143:2222   */\n      tag_220\n      tag_145\n      jump\t// in\n    tag_220:\n        /* \"#utility.yul\":2105:2224   */\n    tag_219:\n        /* \"#utility.yul\":2263:2264   */\n      0x00\n        /* \"#utility.yul\":2288:2341   */\n      tag_221\n        /* \"#utility.yul\":2333:2340   */\n      dup5\n        /* \"#utility.yul\":2324:2330   */\n      dup3\n        /* \"#utility.yul\":2313:2322   */\n      dup6\n        /* \"#utility.yul\":2309:2331   */\n      add\n        /* \"#utility.yul\":2288:2341   */\n      tag_152\n      jump\t// in\n    tag_221:\n        /* \"#utility.yul\":2278:2341   */\n      swap2\n      pop\n        /* \"#utility.yul\":2234:2351   */\n      pop\n        /* \"#utility.yul\":2029:2358   */\n      swap3\n      swap2\n      pop\n      pop\n      jump\t// out\n        /* \"#utility.yul\":2364:2693   */\n    tag_31:\n        /* \"#utility.yul\":2423:2429   */\n      0x00\n        /* \"#utility.yul\":2472:2474   */\n      0x20\n        /* \"#utility.yul\":2460:2469   */\n      dup3\n        /* \"#utility.yul\":2451:2458   */\n      dup5\n        /* \"#utility.yul\":2447:2470   */\n      sub\n        /* \"#utility.yul\":2443:2475   */\n      slt\n        /* \"#utility.yul\":2440:2559   */\n      iszero\n      tag_223\n      jumpi\n        /* \"#utility.yul\":2478:2557   */\n      tag_224\n      tag_145\n      jump\t// in\n    tag_224:\n        /* \"#utility.yul\":2440:2559   */\n    tag_223:\n        /* \"#utility.yul\":2598:2599   */\n      0x00\n        /* \"#utility.yul\":2623:2676   */\n      tag_225\n        /* \"#utility.yul\":2668:2675   */\n      dup5\n        /* \"#utility.yul\":2659:2665   */\n      dup3\n        /* \"#utility.yul\":2648:2657   */\n      dup6\n        /* \"#utility.yul\":2644:2666   */\n      add\n        /* \"#utility.yul\":2623:2676   */\n      tag_148\n      jump\t// in\n    tag_225:\n        /* \"#utility.yul\":2613:2676   */\n      swap2\n      pop\n        /* \"#utility.yul\":2569:2686   */\n      pop\n        /* \"#utility.yul\":2364:2693   */\n      swap3\n      swap2\n      pop\n      pop\n      jump\t// out\n        /* \"#utility.yul\":2699:2817   */\n    tag_153:\n        /* \"#utility.yul\":2786:2810   */\n      tag_227\n        /* \"#utility.yul\":2804:2809   */\n      dup2\n        /* \"#utility.yul\":2786:2810   */\n      tag_150\n      jump\t// in\n    tag_227:\n        /* \"#utility.yul\":2781:2784   */\n      dup3\n        /* \"#utility.yul\":2774:2811   */\n      mstore\n        /* \"#utility.yul\":2699:2817   */\n      pop\n      pop\n      jump\t// out\n        /* \"#utility.yul\":2823:3045   */\n    tag_36:\n        /* \"#utility.yul\":2916:2920   */\n      0x00\n        /* \"#utility.yul\":2954:2956   */\n      0x20\n        /* \"#utility.yul\":2943:2952   */\n      dup3\n        /* \"#utility.yul\":2939:2957   */\n      add\n        /* \"#utility.yul\":2931:2957   */\n      swap1\n      pop\n        /* \"#utility.yul\":2967:3038   */\n      tag_229\n        /* \"#utility.yul\":3035:3036   */\n      0x00\n        /* \"#utility.yul\":3024:3033   */\n      dup4\n        /* \"#utility.yul\":3020:3037   */\n      add\n        /* \"#utility.yul\":3011:3017   */\n      dup5\n        /* \"#utility.yul\":2967:3038   */\n      tag_153\n      jump\t// in\n    tag_229:\n        /* \"#utility.yul\":2823:3045   */\n      swap3\n      swap2\n      pop\n      pop\n      jump\t// out\n        /* \"#utility.yul\":3051:3220   */\n    tag_154:\n        /* \"#utility.yul\":3135:3146   */\n      0x00\n        /* \"#utility.yul\":3169:3175   */\n      dup3\n        /* \"#utility.yul\":3164:3167   */\n      dup3\n        /* \"#utility.yul\":3157:3176   */\n      mstore\n        /* \"#utility.yul\":3209:3213   */\n      0x20\n        /* \"#utility.yul\":3204:3207   */\n      dup3\n        /* \"#utility.yul\":3200:3214   */\n      add\n        /* \"#utility.yul\":3185:3214   */\n      swap1\n      pop\n        /* \"#utility.yul\":3051:3220   */\n      swap3\n      swap2\n      pop\n      pop\n      jump\t// out\n        /* \"#utility.yul\":3226:3389   */\n    tag_155:\n        /* \"#utility.yul\":3366:3381   */\n      0x49434f2069732070617573656400000000000000000000000000000000000000\n        /* \"#utility.yul\":3362:3363   */\n      0x00\n        /* \"#utility.yul\":3354:3360   */\n      dup3\n        /* \"#utility.yul\":3350:3364   */\n      add\n        /* \"#utility.yul\":3343:3382   */\n      mstore\n        /* \"#utility.yul\":3226:3389   */\n      pop\n      jump\t// out\n        /* \"#utility.yul\":3395:3761   */\n    tag_156:\n        /* \"#utility.yul\":3537:3540   */\n      0x00\n        /* \"#utility.yul\":3558:3625   */\n      tag_233\n        /* \"#utility.yul\":3622:3624   */\n      0x0d\n        /* \"#utility.yul\":3617:3620   */\n      dup4\n        /* \"#utility.yul\":3558:3625   */\n      tag_154\n      jump\t// in\n    tag_233:\n        /* \"#utility.yul\":3551:3625   */\n      swap2\n      pop\n        /* \"#utility.yul\":3634:3727   */\n      tag_234\n        /* \"#utility.yul\":3723:3726   */\n      dup3\n        /* \"#utility.yul\":3634:3727   */\n      tag_155\n      jump\t// in\n    tag_234:\n        /* \"#utility.yul\":3752:3754   */\n      0x20\n        /* \"#utility.yul\":3747:3750   */\n      dup3\n        /* \"#utility.yul\":3743:3755   */\n      add\n        /* \"#utility.yul\":3736:3755   */\n      swap1\n      pop\n        /* \"#utility.yul\":3395:3761   */\n      swap2\n      swap1\n      pop\n      jump\t// out\n        /* \"#utility.yul\":3767:4186   */\n    tag_44:\n        /* \"#utility.yul\":3933:3937   */\n      0x00\n        /* \"#utility.yul\":3971:3973   */\n      0x20\n        /* \"#utility.yul\":3960:3969   */\n      dup3\n        /* \"#utility.yul\":3956:3974   */\n      add\n        /* \"#utility.yul\":3948:3974   */\n      swap1\n      pop\n        /* \"#utility.yul\":4020:4029   */\n      dup2\n        /* \"#utility.yul\":4014:4018   */\n      dup2\n        /* \"#utility.yul\":4010:4030   */\n      sub\n        /* \"#utility.yul\":4006:4007   */\n      0x00\n        /* \"#utility.yul\":3995:4004   */\n      dup4\n        /* \"#utility.yul\":3991:4008   */\n      add\n        /* \"#utility.yul\":3984:4031   */\n      mstore\n        /* \"#utility.yul\":4048:4179   */\n      tag_236\n        /* \"#utility.yul\":4174:4178   */\n      dup2\n        /* \"#utility.yul\":4048:4179   */\n      tag_156\n      jump\t// in\n    tag_236:\n        /* \"#utility.yul\":4040:4179   */\n      swap1\n      pop\n        /* \"#utility.yul\":3767:4186   */\n      swap2\n      swap1\n      pop\n      jump\t// out\n        /* \"#utility.yul\":4192:4372   */\n    tag_157:\n        /* \"#utility.yul\":4240:4317   */\n      0x4e487b7100000000000000000000000000000000000000000000000000000000\n        /* \"#utility.yul\":4237:4238   */\n      0x00\n        /* \"#utility.yul\":4230:4318   */\n      mstore\n        /* \"#utility.yul\":4337:4341   */\n      0x11\n        /* \"#utility.yul\":4334:4335   */\n      0x04\n        /* \"#utility.yul\":4327:4342   */\n      mstore\n        /* \"#utility.yul\":4361:4365   */\n      0x24\n        /* \"#utility.yul\":4358:4359   */\n      0x00\n        /* \"#utility.yul\":4351:4366   */\n      revert\n        /* \"#utility.yul\":4378:4788   */\n    tag_48:\n        /* \"#utility.yul\":4418:4425   */\n      0x00\n        /* \"#utility.yul\":4441:4461   */\n      tag_239\n        /* \"#utility.yul\":4459:4460   */\n      dup3\n        /* \"#utility.yul\":4441:4461   */\n      tag_142\n      jump\t// in\n    tag_239:\n        /* \"#utility.yul\":4436:4461   */\n      swap2\n      pop\n        /* \"#utility.yul\":4475:4495   */\n      tag_240\n        /* \"#utility.yul\":4493:4494   */\n      dup4\n        /* \"#utility.yul\":4475:4495   */\n      tag_142\n      jump\t// in\n    tag_240:\n        /* \"#utility.yul\":4470:4495   */\n      swap3\n      pop\n        /* \"#utility.yul\":4530:4531   */\n      dup3\n        /* \"#utility.yul\":4527:4528   */\n      dup3\n        /* \"#utility.yul\":4523:4532   */\n      mul\n        /* \"#utility.yul\":4552:4582   */\n      tag_241\n        /* \"#utility.yul\":4570:4581   */\n      dup2\n        /* \"#utility.yul\":4552:4582   */\n      tag_142\n      jump\t// in\n    tag_241:\n        /* \"#utility.yul\":4541:4582   */\n      swap2\n      pop\n        /* \"#utility.yul\":4731:4732   */\n      dup3\n        /* \"#utility.yul\":4722:4729   */\n      dup3\n        /* \"#utility.yul\":4718:4733   */\n      div\n        /* \"#utility.yul\":4715:4716   */\n      dup5\n        /* \"#utility.yul\":4712:4734   */\n      eq\n        /* \"#utility.yul\":4692:4693   */\n      dup4\n        /* \"#utility.yul\":4685:4694   */\n      iszero\n        /* \"#utility.yul\":4665:4748   */\n      or\n        /* \"#utility.yul\":4642:4781   */\n      tag_242\n      jumpi\n        /* \"#utility.yul\":4761:4779   */\n      tag_243\n      tag_157\n      jump\t// in\n    tag_243:\n        /* \"#utility.yul\":4642:4781   */\n    tag_242:\n        /* \"#utility.yul\":4426:4788   */\n      pop\n        /* \"#utility.yul\":4378:4788   */\n      swap3\n      swap2\n      pop\n      pop\n      jump\t// out\n        /* \"#utility.yul\":4794:5126   */\n    tag_51:\n        /* \"#utility.yul\":4915:4919   */\n      0x00\n        /* \"#utility.yul\":4953:4955   */\n      0x40\n        /* \"#utility.yul\":4942:4951   */\n      dup3\n        /* \"#utility.yul\":4938:4956   */\n      add\n        /* \"#utility.yul\":4930:4956   */\n      swap1\n      pop\n        /* \"#utility.yul\":4966:5037   */\n      tag_245\n        /* \"#utility.yul\":5034:5035   */\n      0x00\n        /* \"#utility.yul\":5023:5032   */\n      dup4\n        /* \"#utility.yul\":5019:5036   */\n      add\n        /* \"#utility.yul\":5010:5016   */\n      dup6\n        /* \"#utility.yul\":4966:5037   */\n      tag_143\n      jump\t// in\n    tag_245:\n        /* \"#utility.yul\":5047:5119   */\n      tag_246\n        /* \"#utility.yul\":5115:5117   */\n      0x20\n        /* \"#utility.yul\":5104:5113   */\n      dup4\n        /* \"#utility.yul\":5100:5118   */\n      add\n        /* \"#utility.yul\":5091:5097   */\n      dup5\n        /* \"#utility.yul\":5047:5119   */\n      tag_143\n      jump\t// in\n    tag_246:\n        /* \"#utility.yul\":4794:5126   */\n      swap4\n      swap3\n      pop\n      pop\n      pop\n      jump\t// out\n        /* \"#utility.yul\":5132:5297   */\n    tag_158:\n        /* \"#utility.yul\":5272:5289   */\n      0x4f6e6c79206f776e65722063616e200000000000000000000000000000000000\n        /* \"#utility.yul\":5268:5269   */\n      0x00\n        /* \"#utility.yul\":5260:5266   */\n      dup3\n        /* \"#utility.yul\":5256:5270   */\n      add\n        /* \"#utility.yul\":5249:5290   */\n      mstore\n        /* \"#utility.yul\":5132:5297   */\n      pop\n      jump\t// out\n        /* \"#utility.yul\":5303:5669   */\n    tag_159:\n        /* \"#utility.yul\":5445:5448   */\n      0x00\n        /* \"#utility.yul\":5466:5533   */\n      tag_249\n        /* \"#utility.yul\":5530:5532   */\n      0x0f\n        /* \"#utility.yul\":5525:5528   */\n      dup4\n        /* \"#utility.yul\":5466:5533   */\n      tag_154\n      jump\t// in\n    tag_249:\n        /* \"#utility.yul\":5459:5533   */\n      swap2\n      pop\n        /* \"#utility.yul\":5542:5635   */\n      tag_250\n        /* \"#utility.yul\":5631:5634   */\n      dup3\n        /* \"#utility.yul\":5542:5635   */\n      tag_158\n      jump\t// in\n    tag_250:\n        /* \"#utility.yul\":5660:5662   */\n      0x20\n        /* \"#utility.yul\":5655:5658   */\n      dup3\n        /* \"#utility.yul\":5651:5663   */\n      add\n        /* \"#utility.yul\":5644:5663   */\n      swap1\n      pop\n        /* \"#utility.yul\":5303:5669   */\n      swap2\n      swap1\n      pop\n      jump\t// out\n        /* \"#utility.yul\":5675:6094   */\n    tag_55:\n        /* \"#utility.yul\":5841:5845   */\n      0x00\n        /* \"#utility.yul\":5879:5881   */\n      0x20\n        /* \"#utility.yul\":5868:5877   */\n      dup3\n        /* \"#utility.yul\":5864:5882   */\n      add\n        /* \"#utility.yul\":5856:5882   */\n      swap1\n      pop\n        /* \"#utility.yul\":5928:5937   */\n      dup2\n        /* \"#utility.yul\":5922:5926   */\n      dup2\n        /* \"#utility.yul\":5918:5938   */\n      sub\n        /* \"#utility.yul\":5914:5915   */\n      0x00\n        /* \"#utility.yul\":5903:5912   */\n      dup4\n        /* \"#utility.yul\":5899:5916   */\n      add\n        /* \"#utility.yul\":5892:5939   */\n      mstore\n        /* \"#utility.yul\":5956:6087   */\n      tag_252\n        /* \"#utility.yul\":6082:6086   */\n      dup2\n        /* \"#utility.yul\":5956:6087   */\n      tag_159\n      jump\t// in\n    tag_252:\n        /* \"#utility.yul\":5948:6087   */\n      swap1\n      pop\n        /* \"#utility.yul\":5675:6094   */\n      swap2\n      swap1\n      pop\n      jump\t// out\n        /* \"#utility.yul\":6100:6320   */\n    tag_160:\n        /* \"#utility.yul\":6240:6274   */\n      0x4f6e6c79206f776e65722063616e2063616c6c20746869732066756e6374696f\n        /* \"#utility.yul\":6236:6237   */\n      0x00\n        /* \"#utility.yul\":6228:6234   */\n      dup3\n        /* \"#utility.yul\":6224:6238   */\n      add\n        /* \"#utility.yul\":6217:6275   */\n      mstore\n        /* \"#utility.yul\":6309:6312   */\n      0x6e00000000000000000000000000000000000000000000000000000000000000\n        /* \"#utility.yul\":6304:6306   */\n      0x20\n        /* \"#utility.yul\":6296:6302   */\n      dup3\n        /* \"#utility.yul\":6292:6307   */\n      add\n        /* \"#utility.yul\":6285:6313   */\n      mstore\n        /* \"#utility.yul\":6100:6320   */\n      pop\n      jump\t// out\n        /* \"#utility.yul\":6326:6692   */\n    tag_161:\n        /* \"#utility.yul\":6468:6471   */\n      0x00\n        /* \"#utility.yul\":6489:6556   */\n      tag_255\n        /* \"#utility.yul\":6553:6555   */\n      0x21\n        /* \"#utility.yul\":6548:6551   */\n      dup4\n        /* \"#utility.yul\":6489:6556   */\n      tag_154\n      jump\t// in\n    tag_255:\n        /* \"#utility.yul\":6482:6556   */\n      swap2\n      pop\n        /* \"#utility.yul\":6565:6658   */\n      tag_256\n        /* \"#utility.yul\":6654:6657   */\n      dup3\n        /* \"#utility.yul\":6565:6658   */\n      tag_160\n      jump\t// in\n    tag_256:\n        /* \"#utility.yul\":6683:6685   */\n      0x40\n        /* \"#utility.yul\":6678:6681   */\n      dup3\n        /* \"#utility.yul\":6674:6686   */\n      add\n        /* \"#utility.yul\":6667:6686   */\n      swap1\n      pop\n        /* \"#utility.yul\":6326:6692   */\n      swap2\n      swap1\n      pop\n      jump\t// out\n        /* \"#utility.yul\":6698:7117   */\n    tag_59:\n        /* \"#utility.yul\":6864:6868   */\n      0x00\n        /* \"#utility.yul\":6902:6904   */\n      0x20\n        /* \"#utility.yul\":6891:6900   */\n      dup3\n        /* \"#utility.yul\":6887:6905   */\n      add\n        /* \"#utility.yul\":6879:6905   */\n      swap1\n      pop\n        /* \"#utility.yul\":6951:6960   */\n      dup2\n        /* \"#utility.yul\":6945:6949   */\n      dup2\n        /* \"#utility.yul\":6941:6961   */\n      sub\n        /* \"#utility.yul\":6937:6938   */\n      0x00\n        /* \"#utility.yul\":6926:6935   */\n      dup4\n        /* \"#utility.yul\":6922:6939   */\n      add\n        /* \"#utility.yul\":6915:6962   */\n      mstore\n        /* \"#utility.yul\":6979:7110   */\n      tag_258\n        /* \"#utility.yul\":7105:7109   */\n      dup2\n        /* \"#utility.yul\":6979:7110   */\n      tag_161\n      jump\t// in\n    tag_258:\n        /* \"#utility.yul\":6971:7110   */\n      swap1\n      pop\n        /* \"#utility.yul\":6698:7117   */\n      swap2\n      swap1\n      pop\n      jump\t// out\n        /* \"#utility.yul\":7123:7304   */\n    tag_162:\n        /* \"#utility.yul\":7263:7296   */\n      0x5265656e7472616e637947756172643a207265656e7472616e742063616c6c00\n        /* \"#utility.yul\":7259:7260   */\n      0x00\n        /* \"#utility.yul\":7251:7257   */\n      dup3\n        /* \"#utility.yul\":7247:7261   */\n      add\n        /* \"#utility.yul\":7240:7297   */\n      mstore\n        /* \"#utility.yul\":7123:7304   */\n      pop\n      jump\t// out\n        /* \"#utility.yul\":7310:7676   */\n    tag_163:\n        /* \"#utility.yul\":7452:7455   */\n      0x00\n        /* \"#utility.yul\":7473:7540   */\n      tag_261\n        /* \"#utility.yul\":7537:7539   */\n      0x1f\n        /* \"#utility.yul\":7532:7535   */\n      dup4\n        /* \"#utility.yul\":7473:7540   */\n      tag_154\n      jump\t// in\n    tag_261:\n        /* \"#utility.yul\":7466:7540   */\n      swap2\n      pop\n        /* \"#utility.yul\":7549:7642   */\n      tag_262\n        /* \"#utility.yul\":7638:7641   */\n      dup3\n        /* \"#utility.yul\":7549:7642   */\n      tag_162\n      jump\t// in\n    tag_262:\n        /* \"#utility.yul\":7667:7669   */\n      0x20\n        /* \"#utility.yul\":7662:7665   */\n      dup3\n        /* \"#utility.yul\":7658:7670   */\n      add\n        /* \"#utility.yul\":7651:7670   */\n      swap1\n      pop\n        /* \"#utility.yul\":7310:7676   */\n      swap2\n      swap1\n      pop\n      jump\t// out\n        /* \"#utility.yul\":7682:8101   */\n    tag_63:\n        /* \"#utility.yul\":7848:7852   */\n      0x00\n        /* \"#utility.yul\":7886:7888   */\n      0x20\n        /* \"#utility.yul\":7875:7884   */\n      dup3\n        /* \"#utility.yul\":7871:7889   */\n      add\n        /* \"#utility.yul\":7863:7889   */\n      swap1\n      pop\n        /* \"#utility.yul\":7935:7944   */\n      dup2\n        /* \"#utility.yul\":7929:7933   */\n      dup2\n        /* \"#utility.yul\":7925:7945   */\n      sub\n        /* \"#utility.yul\":7921:7922   */\n      0x00\n        /* \"#utility.yul\":7910:7919   */\n      dup4\n        /* \"#utility.yul\":7906:7923   */\n      add\n        /* \"#utility.yul\":7899:7946   */\n      mstore\n        /* \"#utility.yul\":7963:8094   */\n      tag_264\n        /* \"#utility.yul\":8089:8093   */\n      dup2\n        /* \"#utility.yul\":7963:8094   */\n      tag_163\n      jump\t// in\n    tag_264:\n        /* \"#utility.yul\":7955:8094   */\n      swap1\n      pop\n        /* \"#utility.yul\":7682:8101   */\n      swap2\n      swap1\n      pop\n      jump\t// out\n        /* \"#utility.yul\":8107:8276   */\n    tag_164:\n        /* \"#utility.yul\":8247:8268   */\n      0x49444f20686173206e6f74207374617274656400000000000000000000000000\n        /* \"#utility.yul\":8243:8244   */\n      0x00\n        /* \"#utility.yul\":8235:8241   */\n      dup3\n        /* \"#utility.yul\":8231:8245   */\n      add\n        /* \"#utility.yul\":8224:8269   */\n      mstore\n        /* \"#utility.yul\":8107:8276   */\n      pop\n      jump\t// out\n        /* \"#utility.yul\":8282:8648   */\n    tag_165:\n        /* \"#utility.yul\":8424:8427   */\n      0x00\n        /* \"#utility.yul\":8445:8512   */\n      tag_267\n        /* \"#utility.yul\":8509:8511   */\n      0x13\n        /* \"#utility.yul\":8504:8507   */\n      dup4\n        /* \"#utility.yul\":8445:8512   */\n      tag_154\n      jump\t// in\n    tag_267:\n        /* \"#utility.yul\":8438:8512   */\n      swap2\n      pop\n        /* \"#utility.yul\":8521:8614   */\n      tag_268\n        /* \"#utility.yul\":8610:8613   */\n      dup3\n        /* \"#utility.yul\":8521:8614   */\n      tag_164\n      jump\t// in\n    tag_268:\n        /* \"#utility.yul\":8639:8641   */\n      0x20\n        /* \"#utility.yul\":8634:8637   */\n      dup3\n        /* \"#utility.yul\":8630:8642   */\n      add\n        /* \"#utility.yul\":8623:8642   */\n      swap1\n      pop\n        /* \"#utility.yul\":8282:8648   */\n      swap2\n      swap1\n      pop\n      jump\t// out\n        /* \"#utility.yul\":8654:9073   */\n    tag_67:\n        /* \"#utility.yul\":8820:8824   */\n      0x00\n        /* \"#utility.yul\":8858:8860   */\n      0x20\n        /* \"#utility.yul\":8847:8856   */\n      dup3\n        /* \"#utility.yul\":8843:8861   */\n      add\n        /* \"#utility.yul\":8835:8861   */\n      swap1\n      pop\n        /* \"#utility.yul\":8907:8916   */\n      dup2\n        /* \"#utility.yul\":8901:8905   */\n      dup2\n        /* \"#utility.yul\":8897:8917   */\n      sub\n        /* \"#utility.yul\":8893:8894   */\n      0x00\n        /* \"#utility.yul\":8882:8891   */\n      dup4\n        /* \"#utility.yul\":8878:8895   */\n      add\n        /* \"#utility.yul\":8871:8918   */\n      mstore\n        /* \"#utility.yul\":8935:9066   */\n      tag_270\n        /* \"#utility.yul\":9061:9065   */\n      dup2\n        /* \"#utility.yul\":8935:9066   */\n      tag_165\n      jump\t// in\n    tag_270:\n        /* \"#utility.yul\":8927:9066   */\n      swap1\n      pop\n        /* \"#utility.yul\":8654:9073   */\n      swap2\n      swap1\n      pop\n      jump\t// out\n        /* \"#utility.yul\":9079:9270   */\n    tag_69:\n        /* \"#utility.yul\":9119:9122   */\n      0x00\n        /* \"#utility.yul\":9138:9158   */\n      tag_272\n        /* \"#utility.yul\":9156:9157   */\n      dup3\n        /* \"#utility.yul\":9138:9158   */\n      tag_142\n      jump\t// in\n    tag_272:\n        /* \"#utility.yul\":9133:9158   */\n      swap2\n      pop\n        /* \"#utility.yul\":9172:9192   */\n      tag_273\n        /* \"#utility.yul\":9190:9191   */\n      dup4\n        /* \"#utility.yul\":9172:9192   */\n      tag_142\n      jump\t// in\n    tag_273:\n        /* \"#utility.yul\":9167:9192   */\n      swap3\n      pop\n        /* \"#utility.yul\":9215:9216   */\n      dup3\n        /* \"#utility.yul\":9212:9213   */\n      dup3\n        /* \"#utility.yul\":9208:9217   */\n      add\n        /* \"#utility.yul\":9201:9217   */\n      swap1\n      pop\n        /* \"#utility.yul\":9236:9239   */\n      dup1\n        /* \"#utility.yul\":9233:9234   */\n      dup3\n        /* \"#utility.yul\":9230:9240   */\n      gt\n        /* \"#utility.yul\":9227:9263   */\n      iszero\n      tag_274\n      jumpi\n        /* \"#utility.yul\":9243:9261   */\n      tag_275\n      tag_157\n      jump\t// in\n    tag_275:\n        /* \"#utility.yul\":9227:9263   */\n    tag_274:\n        /* \"#utility.yul\":9079:9270   */\n      swap3\n      swap2\n      pop\n      pop\n      jump\t// out\n        /* \"#utility.yul\":9276:9450   */\n    tag_166:\n        /* \"#utility.yul\":9416:9442   */\n      0x416c6c20746f6b656e7320686173206265656e20736f6c640000000000000000\n        /* \"#utility.yul\":9412:9413   */\n      0x00\n        /* \"#utility.yul\":9404:9410   */\n      dup3\n        /* \"#utility.yul\":9400:9414   */\n      add\n        /* \"#utility.yul\":9393:9443   */\n      mstore\n        /* \"#utility.yul\":9276:9450   */\n      pop\n      jump\t// out\n        /* \"#utility.yul\":9456:9822   */\n    tag_167:\n        /* \"#utility.yul\":9598:9601   */\n      0x00\n        /* \"#utility.yul\":9619:9686   */\n      tag_278\n        /* \"#utility.yul\":9683:9685   */\n      0x18\n        /* \"#utility.yul\":9678:9681   */\n      dup4\n        /* \"#utility.yul\":9619:9686   */\n      tag_154\n      jump\t// in\n    tag_278:\n        /* \"#utility.yul\":9612:9686   */\n      swap2\n      pop\n        /* \"#utility.yul\":9695:9788   */\n      tag_279\n        /* \"#utility.yul\":9784:9787   */\n      dup3\n        /* \"#utility.yul\":9695:9788   */\n      tag_166\n      jump\t// in\n    tag_279:\n        /* \"#utility.yul\":9813:9815   */\n      0x20\n        /* \"#utility.yul\":9808:9811   */\n      dup3\n        /* \"#utility.yul\":9804:9816   */\n      add\n        /* \"#utility.yul\":9797:9816   */\n      swap1\n      pop\n        /* \"#utility.yul\":9456:9822   */\n      swap2\n      swap1\n      pop\n      jump\t// out\n        /* \"#utility.yul\":9828:10247   */\n    tag_72:\n        /* \"#utility.yul\":9994:9998   */\n      0x00\n        /* \"#utility.yul\":10032:10034   */\n      0x20\n        /* \"#utility.yul\":10021:10030   */\n      dup3\n        /* \"#utility.yul\":10017:10035   */\n      add\n        /* \"#utility.yul\":10009:10035   */\n      swap1\n      pop\n        /* \"#utility.yul\":10081:10090   */\n      dup2\n        /* \"#utility.yul\":10075:10079   */\n      dup2\n        /* \"#utility.yul\":10071:10091   */\n      sub\n        /* \"#utility.yul\":10067:10068   */\n      0x00\n        /* \"#utility.yul\":10056:10065   */\n      dup4\n        /* \"#utility.yul\":10052:10069   */\n      add\n        /* \"#utility.yul\":10045:10092   */\n      mstore\n        /* \"#utility.yul\":10109:10240   */\n      tag_281\n        /* \"#utility.yul\":10235:10239   */\n      dup2\n        /* \"#utility.yul\":10109:10240   */\n      tag_167\n      jump\t// in\n    tag_281:\n        /* \"#utility.yul\":10101:10240   */\n      swap1\n      pop\n        /* \"#utility.yul\":9828:10247   */\n      swap2\n      swap1\n      pop\n      jump\t// out\n        /* \"#utility.yul\":10253:10477   */\n    tag_168:\n        /* \"#utility.yul\":10393:10427   */\n      0x49444f2048617320206e6f7420656e6465642c20636c61696d20756e61766169\n        /* \"#utility.yul\":10389:10390   */\n      0x00\n        /* \"#utility.yul\":10381:10387   */\n      dup3\n        /* \"#utility.yul\":10377:10391   */\n      add\n        /* \"#utility.yul\":10370:10428   */\n      mstore\n        /* \"#utility.yul\":10462:10469   */\n      0x6c61626c65000000000000000000000000000000000000000000000000000000\n        /* \"#utility.yul\":10457:10459   */\n      0x20\n        /* \"#utility.yul\":10449:10455   */\n      dup3\n        /* \"#utility.yul\":10445:10460   */\n      add\n        /* \"#utility.yul\":10438:10470   */\n      mstore\n        /* \"#utility.yul\":10253:10477   */\n      pop\n      jump\t// out\n        /* \"#utility.yul\":10483:10849   */\n    tag_169:\n        /* \"#utility.yul\":10625:10628   */\n      0x00\n        /* \"#utility.yul\":10646:10713   */\n      tag_284\n        /* \"#utility.yul\":10710:10712   */\n      0x25\n        /* \"#utility.yul\":10705:10708   */\n      dup4\n        /* \"#utility.yul\":10646:10713   */\n      tag_154\n      jump\t// in\n    tag_284:\n        /* \"#utility.yul\":10639:10713   */\n      swap2\n      pop\n        /* \"#utility.yul\":10722:10815   */\n      tag_285\n        /* \"#utility.yul\":10811:10814   */\n      dup3\n        /* \"#utility.yul\":10722:10815   */\n      tag_168\n      jump\t// in\n    tag_285:\n        /* \"#utility.yul\":10840:10842   */\n      0x40\n        /* \"#utility.yul\":10835:10838   */\n      dup3\n        /* \"#utility.yul\":10831:10843   */\n      add\n        /* \"#utility.yul\":10824:10843   */\n      swap1\n      pop\n        /* \"#utility.yul\":10483:10849   */\n      swap2\n      swap1\n      pop\n      jump\t// out\n        /* \"#utility.yul\":10855:11274   */\n    tag_84:\n        /* \"#utility.yul\":11021:11025   */\n      0x00\n        /* \"#utility.yul\":11059:11061   */\n      0x20\n        /* \"#utility.yul\":11048:11057   */\n      dup3\n        /* \"#utility.yul\":11044:11062   */\n      add\n        /* \"#utility.yul\":11036:11062   */\n      swap1\n      pop\n        /* \"#utility.yul\":11108:11117   */\n      dup2\n        /* \"#utility.yul\":11102:11106   */\n      dup2\n        /* \"#utility.yul\":11098:11118   */\n      sub\n        /* \"#utility.yul\":11094:11095   */\n      0x00\n        /* \"#utility.yul\":11083:11092   */\n      dup4\n        /* \"#utility.yul\":11079:11096   */\n      add\n        /* \"#utility.yul\":11072:11119   */\n      mstore\n        /* \"#utility.yul\":11136:11267   */\n      tag_287\n        /* \"#utility.yul\":11262:11266   */\n      dup2\n        /* \"#utility.yul\":11136:11267   */\n      tag_169\n      jump\t// in\n    tag_287:\n        /* \"#utility.yul\":11128:11267   */\n      swap1\n      pop\n        /* \"#utility.yul\":10855:11274   */\n      swap2\n      swap1\n      pop\n      jump\t// out\n        /* \"#utility.yul\":11280:11453   */\n    tag_170:\n        /* \"#utility.yul\":11420:11445   */\n      0x796f7520646964206e6f74207061727469636970617465000000000000000000\n        /* \"#utility.yul\":11416:11417   */\n      0x00\n        /* \"#utility.yul\":11408:11414   */\n      dup3\n        /* \"#utility.yul\":11404:11418   */\n      add\n        /* \"#utility.yul\":11397:11446   */\n      mstore\n        /* \"#utility.yul\":11280:11453   */\n      pop\n      jump\t// out\n        /* \"#utility.yul\":11459:11825   */\n    tag_171:\n        /* \"#utility.yul\":11601:11604   */\n      0x00\n        /* \"#utility.yul\":11622:11689   */\n      tag_290\n        /* \"#utility.yul\":11686:11688   */\n      0x17\n        /* \"#utility.yul\":11681:11684   */\n      dup4\n        /* \"#utility.yul\":11622:11689   */\n      tag_154\n      jump\t// in\n    tag_290:\n        /* \"#utility.yul\":11615:11689   */\n      swap2\n      pop\n        /* \"#utility.yul\":11698:11791   */\n      tag_291\n        /* \"#utility.yul\":11787:11790   */\n      dup3\n        /* \"#utility.yul\":11698:11791   */\n      tag_170\n      jump\t// in\n    tag_291:\n        /* \"#utility.yul\":11816:11818   */\n      0x20\n        /* \"#utility.yul\":11811:11814   */\n      dup3\n        /* \"#utility.yul\":11807:11819   */\n      add\n        /* \"#utility.yul\":11800:11819   */\n      swap1\n      pop\n        /* \"#utility.yul\":11459:11825   */\n      swap2\n      swap1\n      pop\n      jump\t// out\n        /* \"#utility.yul\":11831:12250   */\n    tag_87:\n        /* \"#utility.yul\":11997:12001   */\n      0x00\n        /* \"#utility.yul\":12035:12037   */\n      0x20\n        /* \"#utility.yul\":12024:12033   */\n      dup3\n        /* \"#utility.yul\":12020:12038   */\n      add\n        /* \"#utility.yul\":12012:12038   */\n      swap1\n      pop\n        /* \"#utility.yul\":12084:12093   */\n      dup2\n        /* \"#utility.yul\":12078:12082   */\n      dup2\n        /* \"#utility.yul\":12074:12094   */\n      sub\n        /* \"#utility.yul\":12070:12071   */\n      0x00\n        /* \"#utility.yul\":12059:12068   */\n      dup4\n        /* \"#utility.yul\":12055:12072   */\n      add\n        /* \"#utility.yul\":12048:12095   */\n      mstore\n        /* \"#utility.yul\":12112:12243   */\n      tag_293\n        /* \"#utility.yul\":12238:12242   */\n      dup2\n        /* \"#utility.yul\":12112:12243   */\n      tag_171\n      jump\t// in\n    tag_293:\n        /* \"#utility.yul\":12104:12243   */\n      swap1\n      pop\n        /* \"#utility.yul\":11831:12250   */\n      swap2\n      swap1\n      pop\n      jump\t// out\n        /* \"#utility.yul\":12256:12436   */\n    tag_172:\n        /* \"#utility.yul\":12304:12381   */\n      0x4e487b7100000000000000000000000000000000000000000000000000000000\n        /* \"#utility.yul\":12301:12302   */\n      0x00\n        /* \"#utility.yul\":12294:12382   */\n      mstore\n        /* \"#utility.yul\":12401:12405   */\n      0x12\n        /* \"#utility.yul\":12398:12399   */\n      0x04\n        /* \"#utility.yul\":12391:12406   */\n      mstore\n        /* \"#utility.yul\":12425:12429   */\n      0x24\n        /* \"#utility.yul\":12422:12423   */\n      0x00\n        /* \"#utility.yul\":12415:12430   */\n      revert\n        /* \"#utility.yul\":12442:12627   */\n    tag_89:\n        /* \"#utility.yul\":12482:12483   */\n      0x00\n        /* \"#utility.yul\":12499:12519   */\n      tag_296\n        /* \"#utility.yul\":12517:12518   */\n      dup3\n        /* \"#utility.yul\":12499:12519   */\n      tag_142\n      jump\t// in\n    tag_296:\n        /* \"#utility.yul\":12494:12519   */\n      swap2\n      pop\n        /* \"#utility.yul\":12533:12553   */\n      tag_297\n        /* \"#utility.yul\":12551:12552   */\n      dup4\n        /* \"#utility.yul\":12533:12553   */\n      tag_142\n      jump\t// in\n    tag_297:\n        /* \"#utility.yul\":12528:12553   */\n      swap3\n      pop\n        /* \"#utility.yul\":12572:12573   */\n      dup3\n        /* \"#utility.yul\":12562:12597   */\n      tag_298\n      jumpi\n        /* \"#utility.yul\":12577:12595   */\n      tag_299\n      tag_172\n      jump\t// in\n    tag_299:\n        /* \"#utility.yul\":12562:12597   */\n    tag_298:\n        /* \"#utility.yul\":12619:12620   */\n      dup3\n        /* \"#utility.yul\":12616:12617   */\n      dup3\n        /* \"#utility.yul\":12612:12621   */\n      div\n        /* \"#utility.yul\":12607:12621   */\n      swap1\n      pop\n        /* \"#utility.yul\":12442:12627   */\n      swap3\n      swap2\n      pop\n      pop\n      jump\t// out\n        /* \"#utility.yul\":12633:13075   */\n    tag_92:\n        /* \"#utility.yul\":12782:12786   */\n      0x00\n        /* \"#utility.yul\":12820:12822   */\n      0x60\n        /* \"#utility.yul\":12809:12818   */\n      dup3\n        /* \"#utility.yul\":12805:12823   */\n      add\n        /* \"#utility.yul\":12797:12823   */\n      swap1\n      pop\n        /* \"#utility.yul\":12833:12904   */\n      tag_301\n        /* \"#utility.yul\":12901:12902   */\n      0x00\n        /* \"#utility.yul\":12890:12899   */\n      dup4\n        /* \"#utility.yul\":12886:12903   */\n      add\n        /* \"#utility.yul\":12877:12883   */\n      dup7\n        /* \"#utility.yul\":12833:12904   */\n      tag_153\n      jump\t// in\n    tag_301:\n        /* \"#utility.yul\":12914:12986   */\n      tag_302\n        /* \"#utility.yul\":12982:12984   */\n      0x20\n        /* \"#utility.yul\":12971:12980   */\n      dup4\n        /* \"#utility.yul\":12967:12985   */\n      add\n        /* \"#utility.yul\":12958:12964   */\n      dup6\n        /* \"#utility.yul\":12914:12986   */\n      tag_153\n      jump\t// in\n    tag_302:\n        /* \"#utility.yul\":12996:13068   */\n      tag_303\n        /* \"#utility.yul\":13064:13066   */\n      0x40\n        /* \"#utility.yul\":13053:13062   */\n      dup4\n        /* \"#utility.yul\":13049:13067   */\n      add\n        /* \"#utility.yul\":13040:13046   */\n      dup5\n        /* \"#utility.yul\":12996:13068   */\n      tag_143\n      jump\t// in\n    tag_303:\n        /* \"#utility.yul\":12633:13075   */\n      swap5\n      swap4\n      pop\n      pop\n      pop\n      pop\n      jump\t// out\n        /* \"#utility.yul\":13081:13171   */\n    tag_173:\n        /* \"#utility.yul\":13115:13122   */\n      0x00\n        /* \"#utility.yul\":13158:13163   */\n      dup2\n        /* \"#utility.yul\":13151:13164   */\n      iszero\n        /* \"#utility.yul\":13144:13165   */\n      iszero\n        /* \"#utility.yul\":13133:13165   */\n      swap1\n      pop\n        /* \"#utility.yul\":13081:13171   */\n      swap2\n      swap1\n      pop\n      jump\t// out\n        /* \"#utility.yul\":13177:13293   */\n    tag_174:\n        /* \"#utility.yul\":13247:13268   */\n      tag_306\n        /* \"#utility.yul\":13262:13267   */\n      dup2\n        /* \"#utility.yul\":13247:13268   */\n      tag_173\n      jump\t// in\n    tag_306:\n        /* \"#utility.yul\":13240:13245   */\n      dup2\n        /* \"#utility.yul\":13237:13269   */\n      eq\n        /* \"#utility.yul\":13227:13287   */\n      tag_307\n      jumpi\n        /* \"#utility.yul\":13283:13284   */\n      0x00\n        /* \"#utility.yul\":13280:13281   */\n      dup1\n        /* \"#utility.yul\":13273:13285   */\n      revert\n        /* \"#utility.yul\":13227:13287   */\n    tag_307:\n        /* \"#utility.yul\":13177:13293   */\n      pop\n      jump\t// out\n        /* \"#utility.yul\":13299:13436   */\n    tag_175:\n        /* \"#utility.yul\":13353:13358   */\n      0x00\n        /* \"#utility.yul\":13384:13390   */\n      dup2\n        /* \"#utility.yul\":13378:13391   */\n      mload\n        /* \"#utility.yul\":13369:13391   */\n      swap1\n      pop\n        /* \"#utility.yul\":13400:13430   */\n      tag_309\n        /* \"#utility.yul\":13424:13429   */\n      dup2\n        /* \"#utility.yul\":13400:13430   */\n      tag_174\n      jump\t// in\n    tag_309:\n        /* \"#utility.yul\":13299:13436   */\n      swap3\n      swap2\n      pop\n      pop\n      jump\t// out\n        /* \"#utility.yul\":13442:13787   */\n    tag_96:\n        /* \"#utility.yul\":13509:13515   */\n      0x00\n        /* \"#utility.yul\":13558:13560   */\n      0x20\n        /* \"#utility.yul\":13546:13555   */\n      dup3\n        /* \"#utility.yul\":13537:13544   */\n      dup5\n        /* \"#utility.yul\":13533:13556   */\n      sub\n        /* \"#utility.yul\":13529:13561   */\n      slt\n        /* \"#utility.yul\":13526:13645   */\n      iszero\n      tag_311\n      jumpi\n        /* \"#utility.yul\":13564:13643   */\n      tag_312\n      tag_145\n      jump\t// in\n    tag_312:\n        /* \"#utility.yul\":13526:13645   */\n    tag_311:\n        /* \"#utility.yul\":13684:13685   */\n      0x00\n        /* \"#utility.yul\":13709:13770   */\n      tag_313\n        /* \"#utility.yul\":13762:13769   */\n      dup5\n        /* \"#utility.yul\":13753:13759   */\n      dup3\n        /* \"#utility.yul\":13742:13751   */\n      dup6\n        /* \"#utility.yul\":13738:13760   */\n      add\n        /* \"#utility.yul\":13709:13770   */\n      tag_175\n      jump\t// in\n    tag_313:\n        /* \"#utility.yul\":13699:13770   */\n      swap2\n      pop\n        /* \"#utility.yul\":13655:13780   */\n      pop\n        /* \"#utility.yul\":13442:13787   */\n      swap3\n      swap2\n      pop\n      pop\n      jump\t// out\n        /* \"#utility.yul\":13793:14125   */\n    tag_98:\n        /* \"#utility.yul\":13914:13918   */\n      0x00\n        /* \"#utility.yul\":13952:13954   */\n      0x40\n        /* \"#utility.yul\":13941:13950   */\n      dup3\n        /* \"#utility.yul\":13937:13955   */\n      add\n        /* \"#utility.yul\":13929:13955   */\n      swap1\n      pop\n        /* \"#utility.yul\":13965:14036   */\n      tag_315\n        /* \"#utility.yul\":14033:14034   */\n      0x00\n        /* \"#utility.yul\":14022:14031   */\n      dup4\n        /* \"#utility.yul\":14018:14035   */\n      add\n        /* \"#utility.yul\":14009:14015   */\n      dup6\n        /* \"#utility.yul\":13965:14036   */\n      tag_153\n      jump\t// in\n    tag_315:\n        /* \"#utility.yul\":14046:14118   */\n      tag_316\n        /* \"#utility.yul\":14114:14116   */\n      0x20\n        /* \"#utility.yul\":14103:14112   */\n      dup4\n        /* \"#utility.yul\":14099:14117   */\n      add\n        /* \"#utility.yul\":14090:14096   */\n      dup5\n        /* \"#utility.yul\":14046:14118   */\n      tag_143\n      jump\t// in\n    tag_316:\n        /* \"#utility.yul\":13793:14125   */\n      swap4\n      swap3\n      pop\n      pop\n      pop\n      jump\t// out\n        /* \"#utility.yul\":14131:14290   */\n    tag_176:\n        /* \"#utility.yul\":14271:14282   */\n      0x49434f206973206f6e0000000000000000000000000000000000000000000000\n        /* \"#utility.yul\":14267:14268   */\n      0x00\n        /* \"#utility.yul\":14259:14265   */\n      dup3\n        /* \"#utility.yul\":14255:14269   */\n      add\n        /* \"#utility.yul\":14248:14283   */\n      mstore\n        /* \"#utility.yul\":14131:14290   */\n      pop\n      jump\t// out\n        /* \"#utility.yul\":14296:14661   */\n    tag_177:\n        /* \"#utility.yul\":14438:14441   */\n      0x00\n        /* \"#utility.yul\":14459:14525   */\n      tag_319\n        /* \"#utility.yul\":14523:14524   */\n      0x09\n        /* \"#utility.yul\":14518:14521   */\n      dup4\n        /* \"#utility.yul\":14459:14525   */\n      tag_154\n      jump\t// in\n    tag_319:\n        /* \"#utility.yul\":14452:14525   */\n      swap2\n      pop\n        /* \"#utility.yul\":14534:14627   */\n      tag_320\n        /* \"#utility.yul\":14623:14626   */\n      dup3\n        /* \"#utility.yul\":14534:14627   */\n      tag_176\n      jump\t// in\n    tag_320:\n        /* \"#utility.yul\":14652:14654   */\n      0x20\n        /* \"#utility.yul\":14647:14650   */\n      dup3\n        /* \"#utility.yul\":14643:14655   */\n      add\n        /* \"#utility.yul\":14636:14655   */\n      swap1\n      pop\n        /* \"#utility.yul\":14296:14661   */\n      swap2\n      swap1\n      pop\n      jump\t// out\n        /* \"#utility.yul\":14667:15086   */\n    tag_102:\n        /* \"#utility.yul\":14833:14837   */\n      0x00\n        /* \"#utility.yul\":14871:14873   */\n      0x20\n        /* \"#utility.yul\":14860:14869   */\n      dup3\n        /* \"#utility.yul\":14856:14874   */\n      add\n        /* \"#utility.yul\":14848:14874   */\n      swap1\n      pop\n        /* \"#utility.yul\":14920:14929   */\n      dup2\n        /* \"#utility.yul\":14914:14918   */\n      dup2\n        /* \"#utility.yul\":14910:14930   */\n      sub\n        /* \"#utility.yul\":14906:14907   */\n      0x00\n        /* \"#utility.yul\":14895:14904   */\n      dup4\n        /* \"#utility.yul\":14891:14908   */\n      add\n        /* \"#utility.yul\":14884:14931   */\n      mstore\n        /* \"#utility.yul\":14948:15079   */\n      tag_322\n        /* \"#utility.yul\":15074:15078   */\n      dup2\n        /* \"#utility.yul\":14948:15079   */\n      tag_177\n      jump\t// in\n    tag_322:\n        /* \"#utility.yul\":14940:15079   */\n      swap1\n      pop\n        /* \"#utility.yul\":14667:15086   */\n      swap2\n      swap1\n      pop\n      jump\t// out\n        /* \"#utility.yul\":15092:15321   */\n    tag_178:\n        /* \"#utility.yul\":15232:15266   */\n      0x5361666545524332303a204552433230206f7065726174696f6e20646964206e\n        /* \"#utility.yul\":15228:15229   */\n      0x00\n        /* \"#utility.yul\":15220:15226   */\n      dup3\n        /* \"#utility.yul\":15216:15230   */\n      add\n        /* \"#utility.yul\":15209:15267   */\n      mstore\n        /* \"#utility.yul\":15301:15313   */\n      0x6f74207375636365656400000000000000000000000000000000000000000000\n        /* \"#utility.yul\":15296:15298   */\n      0x20\n        /* \"#utility.yul\":15288:15294   */\n      dup3\n        /* \"#utility.yul\":15284:15299   */\n      add\n        /* \"#utility.yul\":15277:15314   */\n      mstore\n        /* \"#utility.yul\":15092:15321   */\n      pop\n      jump\t// out\n        /* \"#utility.yul\":15327:15693   */\n    tag_179:\n        /* \"#utility.yul\":15469:15472   */\n      0x00\n        /* \"#utility.yul\":15490:15557   */\n      tag_325\n        /* \"#utility.yul\":15554:15556   */\n      0x2a\n        /* \"#utility.yul\":15549:15552   */\n      dup4\n        /* \"#utility.yul\":15490:15557   */\n      tag_154\n      jump\t// in\n    tag_325:\n        /* \"#utility.yul\":15483:15557   */\n      swap2\n      pop\n        /* \"#utility.yul\":15566:15659   */\n      tag_326\n        /* \"#utility.yul\":15655:15658   */\n      dup3\n        /* \"#utility.yul\":15566:15659   */\n      tag_178\n      jump\t// in\n    tag_326:\n        /* \"#utility.yul\":15684:15686   */\n      0x40\n        /* \"#utility.yul\":15679:15682   */\n      dup3\n        /* \"#utility.yul\":15675:15687   */\n      add\n        /* \"#utility.yul\":15668:15687   */\n      swap1\n      pop\n        /* \"#utility.yul\":15327:15693   */\n      swap2\n      swap1\n      pop\n      jump\t// out\n        /* \"#utility.yul\":15699:16118   */\n    tag_114:\n        /* \"#utility.yul\":15865:15869   */\n      0x00\n        /* \"#utility.yul\":15903:15905   */\n      0x20\n        /* \"#utility.yul\":15892:15901   */\n      dup3\n        /* \"#utility.yul\":15888:15906   */\n      add\n        /* \"#utility.yul\":15880:15906   */\n      swap1\n      pop\n        /* \"#utility.yul\":15952:15961   */\n      dup2\n        /* \"#utility.yul\":15946:15950   */\n      dup2\n        /* \"#utility.yul\":15942:15962   */\n      sub\n        /* \"#utility.yul\":15938:15939   */\n      0x00\n        /* \"#utility.yul\":15927:15936   */\n      dup4\n        /* \"#utility.yul\":15923:15940   */\n      add\n        /* \"#utility.yul\":15916:15963   */\n      mstore\n        /* \"#utility.yul\":15980:16111   */\n      tag_328\n        /* \"#utility.yul\":16106:16110   */\n      dup2\n        /* \"#utility.yul\":15980:16111   */\n      tag_179\n      jump\t// in\n    tag_328:\n        /* \"#utility.yul\":15972:16111   */\n      swap1\n      pop\n        /* \"#utility.yul\":15699:16118   */\n      swap2\n      swap1\n      pop\n      jump\t// out\n        /* \"#utility.yul\":16124:16349   */\n    tag_180:\n        /* \"#utility.yul\":16264:16298   */\n      0x416464726573733a20696e73756666696369656e742062616c616e636520666f\n        /* \"#utility.yul\":16260:16261   */\n      0x00\n        /* \"#utility.yul\":16252:16258   */\n      dup3\n        /* \"#utility.yul\":16248:16262   */\n      add\n        /* \"#utility.yul\":16241:16299   */\n      mstore\n        /* \"#utility.yul\":16333:16341   */\n      0x722063616c6c0000000000000000000000000000000000000000000000000000\n        /* \"#utility.yul\":16328:16330   */\n      0x20\n        /* \"#utility.yul\":16320:16326   */\n      dup3\n        /* \"#utility.yul\":16316:16331   */\n      add\n        /* \"#utility.yul\":16309:16342   */\n      mstore\n        /* \"#utility.yul\":16124:16349   */\n      pop\n      jump\t// out\n        /* \"#utility.yul\":16355:16721   */\n    tag_181:\n        /* \"#utility.yul\":16497:16500   */\n      0x00\n        /* \"#utility.yul\":16518:16585   */\n      tag_331\n        /* \"#utility.yul\":16582:16584   */\n      0x26\n        /* \"#utility.yul\":16577:16580   */\n      dup4\n        /* \"#utility.yul\":16518:16585   */\n      tag_154\n      jump\t// in\n    tag_331:\n        /* \"#utility.yul\":16511:16585   */\n      swap2\n      pop\n        /* \"#utility.yul\":16594:16687   */\n      tag_332\n        /* \"#utility.yul\":16683:16686   */\n      dup3\n        /* \"#utility.yul\":16594:16687   */\n      tag_180\n      jump\t// in\n    tag_332:\n        /* \"#utility.yul\":16712:16714   */\n      0x40\n        /* \"#utility.yul\":16707:16710   */\n      dup3\n        /* \"#utility.yul\":16703:16715   */\n      add\n        /* \"#utility.yul\":16696:16715   */\n      swap1\n      pop\n        /* \"#utility.yul\":16355:16721   */\n      swap2\n      swap1\n      pop\n      jump\t// out\n        /* \"#utility.yul\":16727:17146   */\n    tag_121:\n        /* \"#utility.yul\":16893:16897   */\n      0x00\n        /* \"#utility.yul\":16931:16933   */\n      0x20\n        /* \"#utility.yul\":16920:16929   */\n      dup3\n        /* \"#utility.yul\":16916:16934   */\n      add\n        /* \"#utility.yul\":16908:16934   */\n      swap1\n      pop\n        /* \"#utility.yul\":16980:16989   */\n      dup2\n        /* \"#utility.yul\":16974:16978   */\n      dup2\n        /* \"#utility.yul\":16970:16990   */\n      sub\n        /* \"#utility.yul\":16966:16967   */\n      0x00\n        /* \"#utility.yul\":16955:16964   */\n      dup4\n        /* \"#utility.yul\":16951:16968   */\n      add\n        /* \"#utility.yul\":16944:16991   */\n      mstore\n        /* \"#utility.yul\":17008:17139   */\n      tag_334\n        /* \"#utility.yul\":17134:17138   */\n      dup2\n        /* \"#utility.yul\":17008:17139   */\n      tag_181\n      jump\t// in\n    tag_334:\n        /* \"#utility.yul\":17000:17139   */\n      swap1\n      pop\n        /* \"#utility.yul\":16727:17146   */\n      swap2\n      swap1\n      pop\n      jump\t// out\n        /* \"#utility.yul\":17152:17331   */\n    tag_182:\n        /* \"#utility.yul\":17292:17323   */\n      0x416464726573733a2063616c6c20746f206e6f6e2d636f6e7472616374000000\n        /* \"#utility.yul\":17288:17289   */\n      0x00\n        /* \"#utility.yul\":17280:17286   */\n      dup3\n        /* \"#utility.yul\":17276:17290   */\n      add\n        /* \"#utility.yul\":17269:17324   */\n      mstore\n        /* \"#utility.yul\":17152:17331   */\n      pop\n      jump\t// out\n        /* \"#utility.yul\":17337:17703   */\n    tag_183:\n        /* \"#utility.yul\":17479:17482   */\n      0x00\n        /* \"#utility.yul\":17500:17567   */\n      tag_337\n        /* \"#utility.yul\":17564:17566   */\n      0x1d\n        /* \"#utility.yul\":17559:17562   */\n      dup4\n        /* \"#utility.yul\":17500:17567   */\n      tag_154\n      jump\t// in\n    tag_337:\n        /* \"#utility.yul\":17493:17567   */\n      swap2\n      pop\n        /* \"#utility.yul\":17576:17669   */\n      tag_338\n        /* \"#utility.yul\":17665:17668   */\n      dup3\n        /* \"#utility.yul\":17576:17669   */\n      tag_182\n      jump\t// in\n    tag_338:\n        /* \"#utility.yul\":17694:17696   */\n      0x20\n        /* \"#utility.yul\":17689:17692   */\n      dup3\n        /* \"#utility.yul\":17685:17697   */\n      add\n        /* \"#utility.yul\":17678:17697   */\n      swap1\n      pop\n        /* \"#utility.yul\":17337:17703   */\n      swap2\n      swap1\n      pop\n      jump\t// out\n        /* \"#utility.yul\":17709:18128   */\n    tag_126:\n        /* \"#utility.yul\":17875:17879   */\n      0x00\n        /* \"#utility.yul\":17913:17915   */\n      0x20\n        /* \"#utility.yul\":17902:17911   */\n      dup3\n        /* \"#utility.yul\":17898:17916   */\n      add\n        /* \"#utility.yul\":17890:17916   */\n      swap1\n      pop\n        /* \"#utility.yul\":17962:17971   */\n      dup2\n        /* \"#utility.yul\":17956:17960   */\n      dup2\n        /* \"#utility.yul\":17952:17972   */\n      sub\n        /* \"#utility.yul\":17948:17949   */\n      0x00\n        /* \"#utility.yul\":17937:17946   */\n      dup4\n        /* \"#utility.yul\":17933:17950   */\n      add\n        /* \"#utility.yul\":17926:17973   */\n      mstore\n        /* \"#utility.yul\":17990:18121   */\n      tag_340\n        /* \"#utility.yul\":18116:18120   */\n      dup2\n        /* \"#utility.yul\":17990:18121   */\n      tag_183\n      jump\t// in\n    tag_340:\n        /* \"#utility.yul\":17982:18121   */\n      swap1\n      pop\n        /* \"#utility.yul\":17709:18128   */\n      swap2\n      swap1\n      pop\n      jump\t// out\n        /* \"#utility.yul\":18134:18232   */\n    tag_184:\n        /* \"#utility.yul\":18185:18191   */\n      0x00\n        /* \"#utility.yul\":18219:18224   */\n      dup2\n        /* \"#utility.yul\":18213:18225   */\n      mload\n        /* \"#utility.yul\":18203:18225   */\n      swap1\n      pop\n        /* \"#utility.yul\":18134:18232   */\n      swap2\n      swap1\n      pop\n      jump\t// out\n        /* \"#utility.yul\":18238:18385   */\n    tag_185:\n        /* \"#utility.yul\":18339:18350   */\n      0x00\n        /* \"#utility.yul\":18376:18379   */\n      dup2\n        /* \"#utility.yul\":18361:18379   */\n      swap1\n      pop\n        /* \"#utility.yul\":18238:18385   */\n      swap3\n      swap2\n      pop\n      pop\n      jump\t// out\n        /* \"#utility.yul\":18391:18637   */\n    tag_186:\n        /* \"#utility.yul\":18472:18473   */\n      0x00\n        /* \"#utility.yul\":18482:18595   */\n    tag_344:\n        /* \"#utility.yul\":18496:18502   */\n      dup4\n        /* \"#utility.yul\":18493:18494   */\n      dup2\n        /* \"#utility.yul\":18490:18503   */\n      lt\n        /* \"#utility.yul\":18482:18595   */\n      iszero\n      tag_346\n      jumpi\n        /* \"#utility.yul\":18581:18582   */\n      dup1\n        /* \"#utility.yul\":18576:18579   */\n      dup3\n        /* \"#utility.yul\":18572:18583   */\n      add\n        /* \"#utility.yul\":18566:18584   */\n      mload\n        /* \"#utility.yul\":18562:18563   */\n      dup2\n        /* \"#utility.yul\":18557:18560   */\n      dup5\n        /* \"#utility.yul\":18553:18564   */\n      add\n        /* \"#utility.yul\":18546:18585   */\n      mstore\n        /* \"#utility.yul\":18518:18520   */\n      0x20\n        /* \"#utility.yul\":18515:18516   */\n      dup2\n        /* \"#utility.yul\":18511:18521   */\n      add\n        /* \"#utility.yul\":18506:18521   */\n      swap1\n      pop\n        /* \"#utility.yul\":18482:18595   */\n      jump(tag_344)\n    tag_346:\n        /* \"#utility.yul\":18629:18630   */\n      0x00\n        /* \"#utility.yul\":18620:18626   */\n      dup5\n        /* \"#utility.yul\":18615:18618   */\n      dup5\n        /* \"#utility.yul\":18611:18627   */\n      add\n        /* \"#utility.yul\":18604:18631   */\n      mstore\n        /* \"#utility.yul\":18453:18637   */\n      pop\n        /* \"#utility.yul\":18391:18637   */\n      pop\n      pop\n      pop\n      jump\t// out\n        /* \"#utility.yul\":18643:19029   */\n    tag_187:\n        /* \"#utility.yul\":18747:18750   */\n      0x00\n        /* \"#utility.yul\":18775:18813   */\n      tag_348\n        /* \"#utility.yul\":18807:18812   */\n      dup3\n        /* \"#utility.yul\":18775:18813   */\n      tag_184\n      jump\t// in\n    tag_348:\n        /* \"#utility.yul\":18829:18917   */\n      tag_349\n        /* \"#utility.yul\":18910:18916   */\n      dup2\n        /* \"#utility.yul\":18905:18908   */\n      dup6\n        /* \"#utility.yul\":18829:18917   */\n      tag_185\n      jump\t// in\n    tag_349:\n        /* \"#utility.yul\":18822:18917   */\n      swap4\n      pop\n        /* \"#utility.yul\":18926:18991   */\n      tag_350\n        /* \"#utility.yul\":18984:18990   */\n      dup2\n        /* \"#utility.yul\":18979:18982   */\n      dup6\n        /* \"#utility.yul\":18972:18976   */\n      0x20\n        /* \"#utility.yul\":18965:18970   */\n      dup7\n        /* \"#utility.yul\":18961:18977   */\n      add\n        /* \"#utility.yul\":18926:18991   */\n      tag_186\n      jump\t// in\n    tag_350:\n        /* \"#utility.yul\":19016:19022   */\n      dup1\n        /* \"#utility.yul\":19011:19014   */\n      dup5\n        /* \"#utility.yul\":19007:19023   */\n      add\n        /* \"#utility.yul\":19000:19023   */\n      swap2\n      pop\n        /* \"#utility.yul\":18751:19029   */\n      pop\n        /* \"#utility.yul\":18643:19029   */\n      swap3\n      swap2\n      pop\n      pop\n      jump\t// out\n        /* \"#utility.yul\":19035:19306   */\n    tag_128:\n        /* \"#utility.yul\":19165:19168   */\n      0x00\n        /* \"#utility.yul\":19187:19280   */\n      tag_352\n        /* \"#utility.yul\":19276:19279   */\n      dup3\n        /* \"#utility.yul\":19267:19273   */\n      dup5\n        /* \"#utility.yul\":19187:19280   */\n      tag_187\n      jump\t// in\n    tag_352:\n        /* \"#utility.yul\":19180:19280   */\n      swap2\n      pop\n        /* \"#utility.yul\":19297:19300   */\n      dup2\n        /* \"#utility.yul\":19290:19300   */\n      swap1\n      pop\n        /* \"#utility.yul\":19035:19306   */\n      swap3\n      swap2\n      pop\n      pop\n      jump\t// out\n        /* \"#utility.yul\":19312:19411   */\n    tag_188:\n        /* \"#utility.yul\":19364:19370   */\n      0x00\n        /* \"#utility.yul\":19398:19403   */\n      dup2\n        /* \"#utility.yul\":19392:19404   */\n      mload\n        /* \"#utility.yul\":19382:19404   */\n      swap1\n      pop\n        /* \"#utility.yul\":19312:19411   */\n      swap2\n      swap1\n      pop\n      jump\t// out\n        /* \"#utility.yul\":19417:19519   */\n    tag_189:\n        /* \"#utility.yul\":19458:19464   */\n      0x00\n        /* \"#utility.yul\":19509:19511   */\n      0x1f\n        /* \"#utility.yul\":19505:19512   */\n      not\n        /* \"#utility.yul\":19500:19502   */\n      0x1f\n        /* \"#utility.yul\":19493:19498   */\n      dup4\n        /* \"#utility.yul\":19489:19503   */\n      add\n        /* \"#utility.yul\":19485:19513   */\n      and\n        /* \"#utility.yul\":19475:19513   */\n      swap1\n      pop\n        /* \"#utility.yul\":19417:19519   */\n      swap2\n      swap1\n      pop\n      jump\t// out\n        /* \"#utility.yul\":19525:19902   */\n    tag_190:\n        /* \"#utility.yul\":19613:19616   */\n      0x00\n        /* \"#utility.yul\":19641:19680   */\n      tag_356\n        /* \"#utility.yul\":19674:19679   */\n      dup3\n        /* \"#utility.yul\":19641:19680   */\n      tag_188\n      jump\t// in\n    tag_356:\n        /* \"#utility.yul\":19696:19767   */\n      tag_357\n        /* \"#utility.yul\":19760:19766   */\n      dup2\n        /* \"#utility.yul\":19755:19758   */\n      dup6\n        /* \"#utility.yul\":19696:19767   */\n      tag_154\n      jump\t// in\n    tag_357:\n        /* \"#utility.yul\":19689:19767   */\n      swap4\n      pop\n        /* \"#utility.yul\":19776:19841   */\n      tag_358\n        /* \"#utility.yul\":19834:19840   */\n      dup2\n        /* \"#utility.yul\":19829:19832   */\n      dup6\n        /* \"#utility.yul\":19822:19826   */\n      0x20\n        /* \"#utility.yul\":19815:19820   */\n      dup7\n        /* \"#utility.yul\":19811:19827   */\n      add\n        /* \"#utility.yul\":19776:19841   */\n      tag_186\n      jump\t// in\n    tag_358:\n        /* \"#utility.yul\":19866:19895   */\n      tag_359\n        /* \"#utility.yul\":19888:19894   */\n      dup2\n        /* \"#utility.yul\":19866:19895   */\n      tag_189\n      jump\t// in\n    tag_359:\n        /* \"#utility.yul\":19861:19864   */\n      dup5\n        /* \"#utility.yul\":19857:19896   */\n      add\n        /* \"#utility.yul\":19850:19896   */\n      swap2\n      pop\n        /* \"#utility.yul\":19617:19902   */\n      pop\n        /* \"#utility.yul\":19525:19902   */\n      swap3\n      swap2\n      pop\n      pop\n      jump\t// out\n        /* \"#utility.yul\":19908:20221   */\n    tag_141:\n        /* \"#utility.yul\":20021:20025   */\n      0x00\n        /* \"#utility.yul\":20059:20061   */\n      0x20\n        /* \"#utility.yul\":20048:20057   */\n      dup3\n        /* \"#utility.yul\":20044:20062   */\n      add\n        /* \"#utility.yul\":20036:20062   */\n      swap1\n      pop\n        /* \"#utility.yul\":20108:20117   */\n      dup2\n        /* \"#utility.yul\":20102:20106   */\n      dup2\n        /* \"#utility.yul\":20098:20118   */\n      sub\n        /* \"#utility.yul\":20094:20095   */\n      0x00\n        /* \"#utility.yul\":20083:20092   */\n      dup4\n        /* \"#utility.yul\":20079:20096   */\n      add\n        /* \"#utility.yul\":20072:20119   */\n      mstore\n        /* \"#utility.yul\":20136:20214   */\n      tag_361\n        /* \"#utility.yul\":20209:20213   */\n      dup2\n        /* \"#utility.yul\":20200:20206   */\n      dup5\n        /* \"#utility.yul\":20136:20214   */\n      tag_190\n      jump\t// in\n    tag_361:\n        /* \"#utility.yul\":20128:20214   */\n      swap1\n      pop\n        /* \"#utility.yul\":19908:20221   */\n      swap3\n      swap2\n      pop\n      pop\n      jump\t// out\n\n    auxdata: 0xa2646970667358221220561ae6d7a1a8352c9244c01822becc9ae79ed1dbfa6cc2a86ac6195f22ed83d964736f6c63430008110033\n}\n",
				"bytecode": {
					"linkReferences": {},
					"object": "60a06040523480156200001157600080fd5b5060405162001a0a38038062001a0a83398181016040528101906200003791906200019a565b600160008190555033600360006101000a81548173ffffffffffffffffffffffffffffffffffffffff021916908373ffffffffffffffffffffffffffffffffffffffff160217905550670de0b6b3a76400008362000096919062000225565b6002819055508173ffffffffffffffffffffffffffffffffffffffff1660808173ffffffffffffffffffffffffffffffffffffffff1681525050670de0b6b3a764000081620000e6919062000225565b60048190555050505062000270565b600080fd5b6000819050919050565b6200010f81620000fa565b81146200011b57600080fd5b50565b6000815190506200012f8162000104565b92915050565b600073ffffffffffffffffffffffffffffffffffffffff82169050919050565b6000620001628262000135565b9050919050565b620001748162000155565b81146200018057600080fd5b50565b600081519050620001948162000169565b92915050565b600080600060608486031215620001b657620001b5620000f5565b5b6000620001c6868287016200011e565b9350506020620001d98682870162000183565b9250506040620001ec868287016200011e565b9150509250925092565b7f4e487b7100000000000000000000000000000000000000000000000000000000600052601160045260246000fd5b60006200023282620000fa565b91506200023f83620000fa565b92508282026200024f81620000fa565b91508282048414831517620002695762000268620001f6565b5b5092915050565b608051611777620002936000396000818161054f015261065f01526117776000f3fe608060405234801561001057600080fd5b50600436106100935760003560e01c8063c2bb8b1511610066578063c2bb8b15146100e6578063c2db2c4214610102578063c54e44eb1461011e578063d7997f7e1461013c578063dc55920f1461014657610093565b806376d812ea146100985780637ff9b596146100a2578063890e63e7146100c0578063b392972d146100dc575b600080fd5b6100a0610150565b005b6100aa6101fc565b6040516100b79190610d28565b60405180910390f35b6100da60048036038101906100d59190610d74565b610202565b005b6100e46102cd565b005b61010060048036038101906100fb9190610e12565b61035f565b005b61011c60048036038101906101179190610e3f565b61044e565b005b61012661065d565b6040516101339190610e7b565b60405180910390f35b610144610681565b005b61014e610942565b005b600360009054906101000a900473ffffffffffffffffffffffffffffffffffffffff1673ffffffffffffffffffffffffffffffffffffffff163373ffffffffffffffffffffffffffffffffffffffff16146101aa57600080fd5b6000600360146101000a81548160ff0219169083151502179055507f71002079ab3de7feb03ee30c84baf1d2350d4ffe16709d3dacb5e1037a0fe1cc6040516101f290610ef3565b60405180910390a1565b60025481565b600360009054906101000a900473ffffffffffffffffffffffffffffffffffffffff1673ffffffffffffffffffffffffffffffffffffffff163373ffffffffffffffffffffffffffffffffffffffff161461025c57600080fd5b670de0b6b3a7640000826102709190610f42565b600281905550670de0b6b3a76400008161028a9190610f42565b6004819055507f314bf1ccc32c608a6175053b0da1933b3a745b3f799011003a4c39aab0c518a382826040516102c1929190610f84565b60405180910390a15050565b600360009054906101000a900473ffffffffffffffffffffffffffffffffffffffff1673ffffffffffffffffffffffffffffffffffffffff163373ffffffffffffffffffffffffffffffffffffffff161461035d576040517f08c379a000000000000000000000000000000000000000000000000000000000815260040161035490610ff9565b60405180910390fd5b565b600360009054906101000a900473ffffffffffffffffffffffffffffffffffffffff1673ffffffffffffffffffffffffffffffffffffffff163373ffffffffffffffffffffffffffffffffffffffff16146103ef576040517f08c379a00000000000000000000000000000000000000000000000000000000081526004016103e69061108b565b60405180910390fd5b80600160006101000a81548173ffffffffffffffffffffffffffffffffffffffff021916908373ffffffffffffffffffffffffffffffffffffffff1602179055506001600360156101000a81548160ff02191690831515021790555050565b600260005403610493576040517f08c379a000000000000000000000000000000000000000000000000000000000815260040161048a906110f7565b60405180910390fd5b600260008190555060011515600360149054906101000a900460ff161515146104f1576040517f08c379a00000000000000000000000000000000000000000000000000000000081526004016104e890611163565b60405180910390fd5b6000816005546105019190611183565b90506004548110610547576040517f08c379a000000000000000000000000000000000000000000000000000000000815260040161053e90611203565b60405180910390fd5b6105943330847f000000000000000000000000000000000000000000000000000000000000000073ffffffffffffffffffffffffffffffffffffffff16610a09909392919063ffffffff16565b81600660003373ffffffffffffffffffffffffffffffffffffffff1673ffffffffffffffffffffffffffffffffffffffff16815260200190815260200160002060008282546105e39190611183565b9250508190555081600560008282546105fc9190611183565b925050819055503373ffffffffffffffffffffffffffffffffffffffff167fda4cadf0d4383cb43c8249e3cc678f6690bdbaa01421c99fd9b14edac62cde80836040516106499190610d28565b60405180910390a250600160008190555050565b7f000000000000000000000000000000000000000000000000000000000000000081565b6002600054036106c6576040517f08c379a00000000000000000000000000000000000000000000000000000000081526004016106bd906110f7565b60405180910390fd5b600260008190555060001515600360149054906101000a900460ff16151514610724576040517f08c379a000000000000000000000000000000000000000000000000000000000815260040161071b90611295565b60405180910390fd5b6000600660003373ffffffffffffffffffffffffffffffffffffffff1673ffffffffffffffffffffffffffffffffffffffff16815260200190815260200160002054116107a6576040517f08c379a000000000000000000000000000000000000000000000000000000000815260040161079d90611301565b60405180910390fd5b6000600660003373ffffffffffffffffffffffffffffffffffffffff1673ffffffffffffffffffffffffffffffffffffffff1681526020019081526020016000205490506000600254826107fa9190611350565b90506000670de0b6b3a7640000826108129190610f42565b90506000600660003373ffffffffffffffffffffffffffffffffffffffff1673ffffffffffffffffffffffffffffffffffffffff16815260200190815260200160002081905550600160009054906101000a900473ffffffffffffffffffffffffffffffffffffffff1673ffffffffffffffffffffffffffffffffffffffff166323b872dd3033846040518463ffffffff1660e01b81526004016108b893929190611381565b6020604051808303816000875af11580156108d7573d6000803e3d6000fd5b505050506040513d601f19601f820116820180604052508101906108fb91906113f0565b507f1698755f2f63264c31ca84d930df9dd8ca3ac92d33a0dd64d10154f95e4203ef338360405161092d92919061141d565b60405180910390a15050506001600081905550565b600360009054906101000a900473ffffffffffffffffffffffffffffffffffffffff1673ffffffffffffffffffffffffffffffffffffffff163373ffffffffffffffffffffffffffffffffffffffff161461099c57600080fd5b6001600360146101000a81548160ff0219169083151502179055506000600360156101000a81548160ff0219169083151502179055507f71002079ab3de7feb03ee30c84baf1d2350d4ffe16709d3dacb5e1037a0fe1cc6040516109ff90611492565b60405180910390a1565b610a8c846323b872dd60e01b858585604051602401610a2a93929190611381565b604051602081830303815290604052907bffffffffffffffffffffffffffffffffffffffffffffffffffffffff19166020820180517bffffffffffffffffffffffffffffffffffffffffffffffffffffffff8381831617835250505050610a92565b50505050565b6000610af4826040518060400160405280602081526020017f5361666545524332303a206c6f772d6c6576656c2063616c6c206661696c65648152508573ffffffffffffffffffffffffffffffffffffffff16610b599092919063ffffffff16565b9050600081511115610b545780806020019051810190610b1491906113f0565b610b53576040517f08c379a0000000000000000000000000000000000000000000000000000000008152600401610b4a90611524565b60405180910390fd5b5b505050565b6060610b688484600085610b71565b90509392505050565b606082471015610bb6576040517f08c379a0000000000000000000000000000000000000000000000000000000008152600401610bad906115b6565b60405180910390fd5b610bbf85610c85565b610bfe576040517f08c379a0000000000000000000000000000000000000000000000000000000008152600401610bf590611622565b60405180910390fd5b6000808673ffffffffffffffffffffffffffffffffffffffff168587604051610c2791906116b3565b60006040518083038185875af1925050503d8060008114610c64576040519150601f19603f3d011682016040523d82523d6000602084013e610c69565b606091505b5091509150610c79828286610ca8565b92505050949350505050565b6000808273ffffffffffffffffffffffffffffffffffffffff163b119050919050565b60608315610cb857829050610d08565b600083511115610ccb5782518084602001fd5b816040517f08c379a0000000000000000000000000000000000000000000000000000000008152600401610cff919061171f565b60405180910390fd5b9392505050565b6000819050919050565b610d2281610d0f565b82525050565b6000602082019050610d3d6000830184610d19565b92915050565b600080fd5b610d5181610d0f565b8114610d5c57600080fd5b50565b600081359050610d6e81610d48565b92915050565b60008060408385031215610d8b57610d8a610d43565b5b6000610d9985828601610d5f565b9250506020610daa85828601610d5f565b9150509250929050565b600073ffffffffffffffffffffffffffffffffffffffff82169050919050565b6000610ddf82610db4565b9050919050565b610def81610dd4565b8114610dfa57600080fd5b50565b600081359050610e0c81610de6565b92915050565b600060208284031215610e2857610e27610d43565b5b6000610e3684828501610dfd565b91505092915050565b600060208284031215610e5557610e54610d43565b5b6000610e6384828501610d5f565b91505092915050565b610e7581610dd4565b82525050565b6000602082019050610e906000830184610e6c565b92915050565b600082825260208201905092915050565b7f49434f2069732070617573656400000000000000000000000000000000000000600082015250565b6000610edd600d83610e96565b9150610ee882610ea7565b602082019050919050565b60006020820190508181036000830152610f0c81610ed0565b9050919050565b7f4e487b7100000000000000000000000000000000000000000000000000000000600052601160045260246000fd5b6000610f4d82610d0f565b9150610f5883610d0f565b9250828202610f6681610d0f565b91508282048414831517610f7d57610f7c610f13565b5b5092915050565b6000604082019050610f996000830185610d19565b610fa66020830184610d19565b9392505050565b7f4f6e6c79206f776e65722063616e200000000000000000000000000000000000600082015250565b6000610fe3600f83610e96565b9150610fee82610fad565b602082019050919050565b6000602082019050818103600083015261101281610fd6565b9050919050565b7f4f6e6c79206f776e65722063616e2063616c6c20746869732066756e6374696f60008201527f6e00000000000000000000000000000000000000000000000000000000000000602082015250565b6000611075602183610e96565b915061108082611019565b604082019050919050565b600060208201905081810360008301526110a481611068565b9050919050565b7f5265656e7472616e637947756172643a207265656e7472616e742063616c6c00600082015250565b60006110e1601f83610e96565b91506110ec826110ab565b602082019050919050565b60006020820190508181036000830152611110816110d4565b9050919050565b7f49444f20686173206e6f74207374617274656400000000000000000000000000600082015250565b600061114d601383610e96565b915061115882611117565b602082019050919050565b6000602082019050818103600083015261117c81611140565b9050919050565b600061118e82610d0f565b915061119983610d0f565b92508282019050808211156111b1576111b0610f13565b5b92915050565b7f416c6c20746f6b656e7320686173206265656e20736f6c640000000000000000600082015250565b60006111ed601883610e96565b91506111f8826111b7565b602082019050919050565b6000602082019050818103600083015261121c816111e0565b9050919050565b7f49444f2048617320206e6f7420656e6465642c20636c61696d20756e6176616960008201527f6c61626c65000000000000000000000000000000000000000000000000000000602082015250565b600061127f602583610e96565b915061128a82611223565b604082019050919050565b600060208201905081810360008301526112ae81611272565b9050919050565b7f796f7520646964206e6f74207061727469636970617465000000000000000000600082015250565b60006112eb601783610e96565b91506112f6826112b5565b602082019050919050565b6000602082019050818103600083015261131a816112de565b9050919050565b7f4e487b7100000000000000000000000000000000000000000000000000000000600052601260045260246000fd5b600061135b82610d0f565b915061136683610d0f565b92508261137657611375611321565b5b828204905092915050565b60006060820190506113966000830186610e6c565b6113a36020830185610e6c565b6113b06040830184610d19565b949350505050565b60008115159050919050565b6113cd816113b8565b81146113d857600080fd5b50565b6000815190506113ea816113c4565b92915050565b60006020828403121561140657611405610d43565b5b6000611414848285016113db565b91505092915050565b60006040820190506114326000830185610e6c565b61143f6020830184610d19565b9392505050565b7f49434f206973206f6e0000000000000000000000000000000000000000000000600082015250565b600061147c600983610e96565b915061148782611446565b602082019050919050565b600060208201905081810360008301526114ab8161146f565b9050919050565b7f5361666545524332303a204552433230206f7065726174696f6e20646964206e60008201527f6f74207375636365656400000000000000000000000000000000000000000000602082015250565b600061150e602a83610e96565b9150611519826114b2565b604082019050919050565b6000602082019050818103600083015261153d81611501565b9050919050565b7f416464726573733a20696e73756666696369656e742062616c616e636520666f60008201527f722063616c6c0000000000000000000000000000000000000000000000000000602082015250565b60006115a0602683610e96565b91506115ab82611544565b604082019050919050565b600060208201905081810360008301526115cf81611593565b9050919050565b7f416464726573733a2063616c6c20746f206e6f6e2d636f6e7472616374000000600082015250565b600061160c601d83610e96565b9150611617826115d6565b602082019050919050565b6000602082019050818103600083015261163b816115ff565b9050919050565b600081519050919050565b600081905092915050565b60005b8381101561167657808201518184015260208101905061165b565b60008484015250505050565b600061168d82611642565b611697818561164d565b93506116a7818560208601611658565b80840191505092915050565b60006116bf8284611682565b915081905092915050565b600081519050919050565b6000601f19601f8301169050919050565b60006116f1826116ca565b6116fb8185610e96565b935061170b818560208601611658565b611714816116d5565b840191505092915050565b6000602082019050818103600083015261173981846116e6565b90509291505056fea2646970667358221220561ae6d7a1a8352c9244c01822becc9ae79ed1dbfa6cc2a86ac6195f22ed83d964736f6c63430008110033",
					"opcodes": "PUSH1 0xA0 PUSH1 0x40 MSTORE CALLVALUE DUP1 ISZERO PUSH3 0x11 JUMPI PUSH1 0x0 DUP1 REVERT JUMPDEST POP PUSH1 0x40 MLOAD PUSH3 0x1A0A CODESIZE SUB DUP1 PUSH3 0x1A0A DUP4 CODECOPY DUP2 DUP2 ADD PUSH1 0x40 MSTORE DUP2 ADD SWAP1 PUSH3 0x37 SWAP2 SWAP1 PUSH3 0x19A JUMP JUMPDEST PUSH1 0x1 PUSH1 0x0 DUP2 SWAP1 SSTORE POP CALLER PUSH1 0x3 PUSH1 0x0 PUSH2 0x100 EXP DUP2 SLOAD DUP2 PUSH20 0xFFFFFFFFFFFFFFFFFFFFFFFFFFFFFFFFFFFFFFFF MUL NOT AND SWAP1 DUP4 PUSH20 0xFFFFFFFFFFFFFFFFFFFFFFFFFFFFFFFFFFFFFFFF AND MUL OR SWAP1 SSTORE POP PUSH8 0xDE0B6B3A7640000 DUP4 PUSH3 0x96 SWAP2 SWAP1 PUSH3 0x225 JUMP JUMPDEST PUSH1 0x2 DUP2 SWAP1 SSTORE POP DUP2 PUSH20 0xFFFFFFFFFFFFFFFFFFFFFFFFFFFFFFFFFFFFFFFF AND PUSH1 0x80 DUP2 PUSH20 0xFFFFFFFFFFFFFFFFFFFFFFFFFFFFFFFFFFFFFFFF AND DUP2 MSTORE POP POP PUSH8 0xDE0B6B3A7640000 DUP2 PUSH3 0xE6 SWAP2 SWAP1 PUSH3 0x225 JUMP JUMPDEST PUSH1 0x4 DUP2 SWAP1 SSTORE POP POP POP POP PUSH3 0x270 JUMP JUMPDEST PUSH1 0x0 DUP1 REVERT JUMPDEST PUSH1 0x0 DUP2 SWAP1 POP SWAP2 SWAP1 POP JUMP JUMPDEST PUSH3 0x10F DUP2 PUSH3 0xFA JUMP JUMPDEST DUP2 EQ PUSH3 0x11B JUMPI PUSH1 0x0 DUP1 REVERT JUMPDEST POP JUMP JUMPDEST PUSH1 0x0 DUP2 MLOAD SWAP1 POP PUSH3 0x12F DUP2 PUSH3 0x104 JUMP JUMPDEST SWAP3 SWAP2 POP POP JUMP JUMPDEST PUSH1 0x0 PUSH20 0xFFFFFFFFFFFFFFFFFFFFFFFFFFFFFFFFFFFFFFFF DUP3 AND SWAP1 POP SWAP2 SWAP1 POP JUMP JUMPDEST PUSH1 0x0 PUSH3 0x162 DUP3 PUSH3 0x135 JUMP JUMPDEST SWAP1 POP SWAP2 SWAP1 POP JUMP JUMPDEST PUSH3 0x174 DUP2 PUSH3 0x155 JUMP JUMPDEST DUP2 EQ PUSH3 0x180 JUMPI PUSH1 0x0 DUP1 REVERT JUMPDEST POP JUMP JUMPDEST PUSH1 0x0 DUP2 MLOAD SWAP1 POP PUSH3 0x194 DUP2 PUSH3 0x169 JUMP JUMPDEST SWAP3 SWAP2 POP POP JUMP JUMPDEST PUSH1 0x0 DUP1 PUSH1 0x0 PUSH1 0x60 DUP5 DUP7 SUB SLT ISZERO PUSH3 0x1B6 JUMPI PUSH3 0x1B5 PUSH3 0xF5 JUMP JUMPDEST JUMPDEST PUSH1 0x0 PUSH3 0x1C6 DUP7 DUP3 DUP8 ADD PUSH3 0x11E JUMP JUMPDEST SWAP4 POP POP PUSH1 0x20 PUSH3 0x1D9 DUP7 DUP3 DUP8 ADD PUSH3 0x183 JUMP JUMPDEST SWAP3 POP POP PUSH1 0x40 PUSH3 0x1EC DUP7 DUP3 DUP8 ADD PUSH3 0x11E JUMP JUMPDEST SWAP2 POP POP SWAP3 POP SWAP3 POP SWAP3 JUMP JUMPDEST PUSH32 0x4E487B7100000000000000000000000000000000000000000000000000000000 PUSH1 0x0 MSTORE PUSH1 0x11 PUSH1 0x4 MSTORE PUSH1 0x24 PUSH1 0x0 REVERT JUMPDEST PUSH1 0x0 PUSH3 0x232 DUP3 PUSH3 0xFA JUMP JUMPDEST SWAP2 POP PUSH3 0x23F DUP4 PUSH3 0xFA JUMP JUMPDEST SWAP3 POP DUP3 DUP3 MUL PUSH3 0x24F DUP2 PUSH3 0xFA JUMP JUMPDEST SWAP2 POP DUP3 DUP3 DIV DUP5 EQ DUP4 ISZERO OR PUSH3 0x269 JUMPI PUSH3 0x268 PUSH3 0x1F6 JUMP JUMPDEST JUMPDEST POP SWAP3 SWAP2 POP POP JUMP JUMPDEST PUSH1 0x80 MLOAD PUSH2 0x1777 PUSH3 0x293 PUSH1 0x0 CODECOPY PUSH1 0x0 DUP2 DUP2 PUSH2 0x54F ADD MSTORE PUSH2 0x65F ADD MSTORE PUSH2 0x1777 PUSH1 0x0 RETURN INVALID PUSH1 0x80 PUSH1 0x40 MSTORE CALLVALUE DUP1 ISZERO PUSH2 0x10 JUMPI PUSH1 0x0 DUP1 REVERT JUMPDEST POP PUSH1 0x4 CALLDATASIZE LT PUSH2 0x93 JUMPI PUSH1 0x0 CALLDATALOAD PUSH1 0xE0 SHR DUP1 PUSH4 0xC2BB8B15 GT PUSH2 0x66 JUMPI DUP1 PUSH4 0xC2BB8B15 EQ PUSH2 0xE6 JUMPI DUP1 PUSH4 0xC2DB2C42 EQ PUSH2 0x102 JUMPI DUP1 PUSH4 0xC54E44EB EQ PUSH2 0x11E JUMPI DUP1 PUSH4 0xD7997F7E EQ PUSH2 0x13C JUMPI DUP1 PUSH4 0xDC55920F EQ PUSH2 0x146 JUMPI PUSH2 0x93 JUMP JUMPDEST DUP1 PUSH4 0x76D812EA EQ PUSH2 0x98 JUMPI DUP1 PUSH4 0x7FF9B596 EQ PUSH2 0xA2 JUMPI DUP1 PUSH4 0x890E63E7 EQ PUSH2 0xC0 JUMPI DUP1 PUSH4 0xB392972D EQ PUSH2 0xDC JUMPI JUMPDEST PUSH1 0x0 DUP1 REVERT JUMPDEST PUSH2 0xA0 PUSH2 0x150 JUMP JUMPDEST STOP JUMPDEST PUSH2 0xAA PUSH2 0x1FC JUMP JUMPDEST PUSH1 0x40 MLOAD PUSH2 0xB7 SWAP2 SWAP1 PUSH2 0xD28 JUMP JUMPDEST PUSH1 0x40 MLOAD DUP1 SWAP2 SUB SWAP1 RETURN JUMPDEST PUSH2 0xDA PUSH1 0x4 DUP1 CALLDATASIZE SUB DUP2 ADD SWAP1 PUSH2 0xD5 SWAP2 SWAP1 PUSH2 0xD74 JUMP JUMPDEST PUSH2 0x202 JUMP JUMPDEST STOP JUMPDEST PUSH2 0xE4 PUSH2 0x2CD JUMP JUMPDEST STOP JUMPDEST PUSH2 0x100 PUSH1 0x4 DUP1 CALLDATASIZE SUB DUP2 ADD SWAP1 PUSH2 0xFB SWAP2 SWAP1 PUSH2 0xE12 JUMP JUMPDEST PUSH2 0x35F JUMP JUMPDEST STOP JUMPDEST PUSH2 0x11C PUSH1 0x4 DUP1 CALLDATASIZE SUB DUP2 ADD SWAP1 PUSH2 0x117 SWAP2 SWAP1 PUSH2 0xE3F JUMP JUMPDEST PUSH2 0x44E JUMP JUMPDEST STOP JUMPDEST PUSH2 0x126 PUSH2 0x65D JUMP JUMPDEST PUSH1 0x40 MLOAD PUSH2 0x133 SWAP2 SWAP1 PUSH2 0xE7B JUMP JUMPDEST PUSH1 0x40 MLOAD DUP1 SWAP2 SUB SWAP1 RETURN JUMPDEST PUSH2 0x144 PUSH2 0x681 JUMP JUMPDEST STOP JUMPDEST PUSH2 0x14E PUSH2 0x942 JUMP JUMPDEST STOP JUMPDEST PUSH1 0x3 PUSH1 0x0 SWAP1 SLOAD SWAP1 PUSH2 0x100 EXP SWAP1 DIV PUSH20 0xFFFFFFFFFFFFFFFFFFFFFFFFFFFFFFFFFFFFFFFF AND PUSH20 0xFFFFFFFFFFFFFFFFFFFFFFFFFFFFFFFFFFFFFFFF AND CALLER PUSH20 0xFFFFFFFFFFFFFFFFFFFFFFFFFFFFFFFFFFFFFFFF AND EQ PUSH2 0x1AA JUMPI PUSH1 0x0 DUP1 REVERT JUMPDEST PUSH1 0x0 PUSH1 0x3 PUSH1 0x14 PUSH2 0x100 EXP DUP2 SLOAD DUP2 PUSH1 0xFF MUL NOT AND SWAP1 DUP4 ISZERO ISZERO MUL OR SWAP1 SSTORE POP PUSH32 0x71002079AB3DE7FEB03EE30C84BAF1D2350D4FFE16709D3DACB5E1037A0FE1CC PUSH1 0x40 MLOAD PUSH2 0x1F2 SWAP1 PUSH2 0xEF3 JUMP JUMPDEST PUSH1 0x40 MLOAD DUP1 SWAP2 SUB SWAP1 LOG1 JUMP JUMPDEST PUSH1 0x2 SLOAD DUP2 JUMP JUMPDEST PUSH1 0x3 PUSH1 0x0 SWAP1 SLOAD SWAP1 PUSH2 0x100 EXP SWAP1 DIV PUSH20 0xFFFFFFFFFFFFFFFFFFFFFFFFFFFFFFFFFFFFFFFF AND PUSH20 0xFFFFFFFFFFFFFFFFFFFFFFFFFFFFFFFFFFFFFFFF AND CALLER PUSH20 0xFFFFFFFFFFFFFFFFFFFFFFFFFFFFFFFFFFFFFFFF AND EQ PUSH2 0x25C JUMPI PUSH1 0x0 DUP1 REVERT JUMPDEST PUSH8 0xDE0B6B3A7640000 DUP3 PUSH2 0x270 SWAP2 SWAP1 PUSH2 0xF42 JUMP JUMPDEST PUSH1 0x2 DUP2 SWAP1 SSTORE POP PUSH8 0xDE0B6B3A7640000 DUP2 PUSH2 0x28A SWAP2 SWAP1 PUSH2 0xF42 JUMP JUMPDEST PUSH1 0x4 DUP2 SWAP1 SSTORE POP PUSH32 0x314BF1CCC32C608A6175053B0DA1933B3A745B3F799011003A4C39AAB0C518A3 DUP3 DUP3 PUSH1 0x40 MLOAD PUSH2 0x2C1 SWAP3 SWAP2 SWAP1 PUSH2 0xF84 JUMP JUMPDEST PUSH1 0x40 MLOAD DUP1 SWAP2 SUB SWAP1 LOG1 POP POP JUMP JUMPDEST PUSH1 0x3 PUSH1 0x0 SWAP1 SLOAD SWAP1 PUSH2 0x100 EXP SWAP1 DIV PUSH20 0xFFFFFFFFFFFFFFFFFFFFFFFFFFFFFFFFFFFFFFFF AND PUSH20 0xFFFFFFFFFFFFFFFFFFFFFFFFFFFFFFFFFFFFFFFF AND CALLER PUSH20 0xFFFFFFFFFFFFFFFFFFFFFFFFFFFFFFFFFFFFFFFF AND EQ PUSH2 0x35D JUMPI PUSH1 0x40 MLOAD PUSH32 0x8C379A000000000000000000000000000000000000000000000000000000000 DUP2 MSTORE PUSH1 0x4 ADD PUSH2 0x354 SWAP1 PUSH2 0xFF9 JUMP JUMPDEST PUSH1 0x40 MLOAD DUP1 SWAP2 SUB SWAP1 REVERT JUMPDEST JUMP JUMPDEST PUSH1 0x3 PUSH1 0x0 SWAP1 SLOAD SWAP1 PUSH2 0x100 EXP SWAP1 DIV PUSH20 0xFFFFFFFFFFFFFFFFFFFFFFFFFFFFFFFFFFFFFFFF AND PUSH20 0xFFFFFFFFFFFFFFFFFFFFFFFFFFFFFFFFFFFFFFFF AND CALLER PUSH20 0xFFFFFFFFFFFFFFFFFFFFFFFFFFFFFFFFFFFFFFFF AND EQ PUSH2 0x3EF JUMPI PUSH1 0x40 MLOAD PUSH32 0x8C379A000000000000000000000000000000000000000000000000000000000 DUP2 MSTORE PUSH1 0x4 ADD PUSH2 0x3E6 SWAP1 PUSH2 0x108B JUMP JUMPDEST PUSH1 0x40 MLOAD DUP1 SWAP2 SUB SWAP1 REVERT JUMPDEST DUP1 PUSH1 0x1 PUSH1 0x0 PUSH2 0x100 EXP DUP2 SLOAD DUP2 PUSH20 0xFFFFFFFFFFFFFFFFFFFFFFFFFFFFFFFFFFFFFFFF MUL NOT AND SWAP1 DUP4 PUSH20 0xFFFFFFFFFFFFFFFFFFFFFFFFFFFFFFFFFFFFFFFF AND MUL OR SWAP1 SSTORE POP PUSH1 0x1 PUSH1 0x3 PUSH1 0x15 PUSH2 0x100 EXP DUP2 SLOAD DUP2 PUSH1 0xFF MUL NOT AND SWAP1 DUP4 ISZERO ISZERO MUL OR SWAP1 SSTORE POP POP JUMP JUMPDEST PUSH1 0x2 PUSH1 0x0 SLOAD SUB PUSH2 0x493 JUMPI PUSH1 0x40 MLOAD PUSH32 0x8C379A000000000000000000000000000000000000000000000000000000000 DUP2 MSTORE PUSH1 0x4 ADD PUSH2 0x48A SWAP1 PUSH2 0x10F7 JUMP JUMPDEST PUSH1 0x40 MLOAD DUP1 SWAP2 SUB SWAP1 REVERT JUMPDEST PUSH1 0x2 PUSH1 0x0 DUP2 SWAP1 SSTORE POP PUSH1 0x1 ISZERO ISZERO PUSH1 0x3 PUSH1 0x14 SWAP1 SLOAD SWAP1 PUSH2 0x100 EXP SWAP1 DIV PUSH1 0xFF AND ISZERO ISZERO EQ PUSH2 0x4F1 JUMPI PUSH1 0x40 MLOAD PUSH32 0x8C379A000000000000000000000000000000000000000000000000000000000 DUP2 MSTORE PUSH1 0x4 ADD PUSH2 0x4E8 SWAP1 PUSH2 0x1163 JUMP JUMPDEST PUSH1 0x40 MLOAD DUP1 SWAP2 SUB SWAP1 REVERT JUMPDEST PUSH1 0x0 DUP2 PUSH1 0x5 SLOAD PUSH2 0x501 SWAP2 SWAP1 PUSH2 0x1183 JUMP JUMPDEST SWAP1 POP PUSH1 0x4 SLOAD DUP2 LT PUSH2 0x547 JUMPI PUSH1 0x40 MLOAD PUSH32 0x8C379A000000000000000000000000000000000000000000000000000000000 DUP2 MSTORE PUSH1 0x4 ADD PUSH2 0x53E SWAP1 PUSH2 0x1203 JUMP JUMPDEST PUSH1 0x40 MLOAD DUP1 SWAP2 SUB SWAP1 REVERT JUMPDEST PUSH2 0x594 CALLER ADDRESS DUP5 PUSH32 0x0 PUSH20 0xFFFFFFFFFFFFFFFFFFFFFFFFFFFFFFFFFFFFFFFF AND PUSH2 0xA09 SWAP1 SWAP4 SWAP3 SWAP2 SWAP1 PUSH4 0xFFFFFFFF AND JUMP JUMPDEST DUP2 PUSH1 0x6 PUSH1 0x0 CALLER PUSH20 0xFFFFFFFFFFFFFFFFFFFFFFFFFFFFFFFFFFFFFFFF AND PUSH20 0xFFFFFFFFFFFFFFFFFFFFFFFFFFFFFFFFFFFFFFFF AND DUP2 MSTORE PUSH1 0x20 ADD SWAP1 DUP2 MSTORE PUSH1 0x20 ADD PUSH1 0x0 KECCAK256 PUSH1 0x0 DUP3 DUP3 SLOAD PUSH2 0x5E3 SWAP2 SWAP1 PUSH2 0x1183 JUMP JUMPDEST SWAP3 POP POP DUP2 SWAP1 SSTORE POP DUP2 PUSH1 0x5 PUSH1 0x0 DUP3 DUP3 SLOAD PUSH2 0x5FC SWAP2 SWAP1 PUSH2 0x1183 JUMP JUMPDEST SWAP3 POP POP DUP2 SWAP1 SSTORE POP CALLER PUSH20 0xFFFFFFFFFFFFFFFFFFFFFFFFFFFFFFFFFFFFFFFF AND PUSH32 0xDA4CADF0D4383CB43C8249E3CC678F6690BDBAA01421C99FD9B14EDAC62CDE80 DUP4 PUSH1 0x40 MLOAD PUSH2 0x649 SWAP2 SWAP1 PUSH2 0xD28 JUMP JUMPDEST PUSH1 0x40 MLOAD DUP1 SWAP2 SUB SWAP1 LOG2 POP PUSH1 0x1 PUSH1 0x0 DUP2 SWAP1 SSTORE POP POP JUMP JUMPDEST PUSH32 0x0 DUP2 JUMP JUMPDEST PUSH1 0x2 PUSH1 0x0 SLOAD SUB PUSH2 0x6C6 JUMPI PUSH1 0x40 MLOAD PUSH32 0x8C379A000000000000000000000000000000000000000000000000000000000 DUP2 MSTORE PUSH1 0x4 ADD PUSH2 0x6BD SWAP1 PUSH2 0x10F7 JUMP JUMPDEST PUSH1 0x40 MLOAD DUP1 SWAP2 SUB SWAP1 REVERT JUMPDEST PUSH1 0x2 PUSH1 0x0 DUP2 SWAP1 SSTORE POP PUSH1 0x0 ISZERO ISZERO PUSH1 0x3 PUSH1 0x14 SWAP1 SLOAD SWAP1 PUSH2 0x100 EXP SWAP1 DIV PUSH1 0xFF AND ISZERO ISZERO EQ PUSH2 0x724 JUMPI PUSH1 0x40 MLOAD PUSH32 0x8C379A000000000000000000000000000000000000000000000000000000000 DUP2 MSTORE PUSH1 0x4 ADD PUSH2 0x71B SWAP1 PUSH2 0x1295 JUMP JUMPDEST PUSH1 0x40 MLOAD DUP1 SWAP2 SUB SWAP1 REVERT JUMPDEST PUSH1 0x0 PUSH1 0x6 PUSH1 0x0 CALLER PUSH20 0xFFFFFFFFFFFFFFFFFFFFFFFFFFFFFFFFFFFFFFFF AND PUSH20 0xFFFFFFFFFFFFFFFFFFFFFFFFFFFFFFFFFFFFFFFF AND DUP2 MSTORE PUSH1 0x20 ADD SWAP1 DUP2 MSTORE PUSH1 0x20 ADD PUSH1 0x0 KECCAK256 SLOAD GT PUSH2 0x7A6 JUMPI PUSH1 0x40 MLOAD PUSH32 0x8C379A000000000000000000000000000000000000000000000000000000000 DUP2 MSTORE PUSH1 0x4 ADD PUSH2 0x79D SWAP1 PUSH2 0x1301 JUMP JUMPDEST PUSH1 0x40 MLOAD DUP1 SWAP2 SUB SWAP1 REVERT JUMPDEST PUSH1 0x0 PUSH1 0x6 PUSH1 0x0 CALLER PUSH20 0xFFFFFFFFFFFFFFFFFFFFFFFFFFFFFFFFFFFFFFFF AND PUSH20 0xFFFFFFFFFFFFFFFFFFFFFFFFFFFFFFFFFFFFFFFF AND DUP2 MSTORE PUSH1 0x20 ADD SWAP1 DUP2 MSTORE PUSH1 0x20 ADD PUSH1 0x0 KECCAK256 SLOAD SWAP1 POP PUSH1 0x0 PUSH1 0x2 SLOAD DUP3 PUSH2 0x7FA SWAP2 SWAP1 PUSH2 0x1350 JUMP JUMPDEST SWAP1 POP PUSH1 0x0 PUSH8 0xDE0B6B3A7640000 DUP3 PUSH2 0x812 SWAP2 SWAP1 PUSH2 0xF42 JUMP JUMPDEST SWAP1 POP PUSH1 0x0 PUSH1 0x6 PUSH1 0x0 CALLER PUSH20 0xFFFFFFFFFFFFFFFFFFFFFFFFFFFFFFFFFFFFFFFF AND PUSH20 0xFFFFFFFFFFFFFFFFFFFFFFFFFFFFFFFFFFFFFFFF AND DUP2 MSTORE PUSH1 0x20 ADD SWAP1 DUP2 MSTORE PUSH1 0x20 ADD PUSH1 0x0 KECCAK256 DUP2 SWAP1 SSTORE POP PUSH1 0x1 PUSH1 0x0 SWAP1 SLOAD SWAP1 PUSH2 0x100 EXP SWAP1 DIV PUSH20 0xFFFFFFFFFFFFFFFFFFFFFFFFFFFFFFFFFFFFFFFF AND PUSH20 0xFFFFFFFFFFFFFFFFFFFFFFFFFFFFFFFFFFFFFFFF AND PUSH4 0x23B872DD ADDRESS CALLER DUP5 PUSH1 0x40 MLOAD DUP5 PUSH4 0xFFFFFFFF AND PUSH1 0xE0 SHL DUP2 MSTORE PUSH1 0x4 ADD PUSH2 0x8B8 SWAP4 SWAP3 SWAP2 SWAP1 PUSH2 0x1381 JUMP JUMPDEST PUSH1 0x20 PUSH1 0x40 MLOAD DUP1 DUP4 SUB DUP2 PUSH1 0x0 DUP8 GAS CALL ISZERO DUP1 ISZERO PUSH2 0x8D7 JUMPI RETURNDATASIZE PUSH1 0x0 DUP1 RETURNDATACOPY RETURNDATASIZE PUSH1 0x0 REVERT JUMPDEST POP POP POP POP PUSH1 0x40 MLOAD RETURNDATASIZE PUSH1 0x1F NOT PUSH1 0x1F DUP3 ADD AND DUP3 ADD DUP1 PUSH1 0x40 MSTORE POP DUP2 ADD SWAP1 PUSH2 0x8FB SWAP2 SWAP1 PUSH2 0x13F0 JUMP JUMPDEST POP PUSH32 0x1698755F2F63264C31CA84D930DF9DD8CA3AC92D33A0DD64D10154F95E4203EF CALLER DUP4 PUSH1 0x40 MLOAD PUSH2 0x92D SWAP3 SWAP2 SWAP1 PUSH2 0x141D JUMP JUMPDEST PUSH1 0x40 MLOAD DUP1 SWAP2 SUB SWAP1 LOG1 POP POP POP PUSH1 0x1 PUSH1 0x0 DUP2 SWAP1 SSTORE POP JUMP JUMPDEST PUSH1 0x3 PUSH1 0x0 SWAP1 SLOAD SWAP1 PUSH2 0x100 EXP SWAP1 DIV PUSH20 0xFFFFFFFFFFFFFFFFFFFFFFFFFFFFFFFFFFFFFFFF AND PUSH20 0xFFFFFFFFFFFFFFFFFFFFFFFFFFFFFFFFFFFFFFFF AND CALLER PUSH20 0xFFFFFFFFFFFFFFFFFFFFFFFFFFFFFFFFFFFFFFFF AND EQ PUSH2 0x99C JUMPI PUSH1 0x0 DUP1 REVERT JUMPDEST PUSH1 0x1 PUSH1 0x3 PUSH1 0x14 PUSH2 0x100 EXP DUP2 SLOAD DUP2 PUSH1 0xFF MUL NOT AND SWAP1 DUP4 ISZERO ISZERO MUL OR SWAP1 SSTORE POP PUSH1 0x0 PUSH1 0x3 PUSH1 0x15 PUSH2 0x100 EXP DUP2 SLOAD DUP2 PUSH1 0xFF MUL NOT AND SWAP1 DUP4 ISZERO ISZERO MUL OR SWAP1 SSTORE POP PUSH32 0x71002079AB3DE7FEB03EE30C84BAF1D2350D4FFE16709D3DACB5E1037A0FE1CC PUSH1 0x40 MLOAD PUSH2 0x9FF SWAP1 PUSH2 0x1492 JUMP JUMPDEST PUSH1 0x40 MLOAD DUP1 SWAP2 SUB SWAP1 LOG1 JUMP JUMPDEST PUSH2 0xA8C DUP5 PUSH4 0x23B872DD PUSH1 0xE0 SHL DUP6 DUP6 DUP6 PUSH1 0x40 MLOAD PUSH1 0x24 ADD PUSH2 0xA2A SWAP4 SWAP3 SWAP2 SWAP1 PUSH2 0x1381 JUMP JUMPDEST PUSH1 0x40 MLOAD PUSH1 0x20 DUP2 DUP4 SUB SUB DUP2 MSTORE SWAP1 PUSH1 0x40 MSTORE SWAP1 PUSH28 0xFFFFFFFFFFFFFFFFFFFFFFFFFFFFFFFFFFFFFFFFFFFFFFFFFFFFFFFF NOT AND PUSH1 0x20 DUP3 ADD DUP1 MLOAD PUSH28 0xFFFFFFFFFFFFFFFFFFFFFFFFFFFFFFFFFFFFFFFFFFFFFFFFFFFFFFFF DUP4 DUP2 DUP4 AND OR DUP4 MSTORE POP POP POP POP PUSH2 0xA92 JUMP JUMPDEST POP POP POP POP JUMP JUMPDEST PUSH1 0x0 PUSH2 0xAF4 DUP3 PUSH1 0x40 MLOAD DUP1 PUSH1 0x40 ADD PUSH1 0x40 MSTORE DUP1 PUSH1 0x20 DUP2 MSTORE PUSH1 0x20 ADD PUSH32 0x5361666545524332303A206C6F772D6C6576656C2063616C6C206661696C6564 DUP2 MSTORE POP DUP6 PUSH20 0xFFFFFFFFFFFFFFFFFFFFFFFFFFFFFFFFFFFFFFFF AND PUSH2 0xB59 SWAP1 SWAP3 SWAP2 SWAP1 PUSH4 0xFFFFFFFF AND JUMP JUMPDEST SWAP1 POP PUSH1 0x0 DUP2 MLOAD GT ISZERO PUSH2 0xB54 JUMPI DUP1 DUP1 PUSH1 0x20 ADD SWAP1 MLOAD DUP2 ADD SWAP1 PUSH2 0xB14 SWAP2 SWAP1 PUSH2 0x13F0 JUMP JUMPDEST PUSH2 0xB53 JUMPI PUSH1 0x40 MLOAD PUSH32 0x8C379A000000000000000000000000000000000000000000000000000000000 DUP2 MSTORE PUSH1 0x4 ADD PUSH2 0xB4A SWAP1 PUSH2 0x1524 JUMP JUMPDEST PUSH1 0x40 MLOAD DUP1 SWAP2 SUB SWAP1 REVERT JUMPDEST JUMPDEST POP POP POP JUMP JUMPDEST PUSH1 0x60 PUSH2 0xB68 DUP5 DUP5 PUSH1 0x0 DUP6 PUSH2 0xB71 JUMP JUMPDEST SWAP1 POP SWAP4 SWAP3 POP POP POP JUMP JUMPDEST PUSH1 0x60 DUP3 SELFBALANCE LT ISZERO PUSH2 0xBB6 JUMPI PUSH1 0x40 MLOAD PUSH32 0x8C379A000000000000000000000000000000000000000000000000000000000 DUP2 MSTORE PUSH1 0x4 ADD PUSH2 0xBAD SWAP1 PUSH2 0x15B6 JUMP JUMPDEST PUSH1 0x40 MLOAD DUP1 SWAP2 SUB SWAP1 REVERT JUMPDEST PUSH2 0xBBF DUP6 PUSH2 0xC85 JUMP JUMPDEST PUSH2 0xBFE JUMPI PUSH1 0x40 MLOAD PUSH32 0x8C379A000000000000000000000000000000000000000000000000000000000 DUP2 MSTORE PUSH1 0x4 ADD PUSH2 0xBF5 SWAP1 PUSH2 0x1622 JUMP JUMPDEST PUSH1 0x40 MLOAD DUP1 SWAP2 SUB SWAP1 REVERT JUMPDEST PUSH1 0x0 DUP1 DUP7 PUSH20 0xFFFFFFFFFFFFFFFFFFFFFFFFFFFFFFFFFFFFFFFF AND DUP6 DUP8 PUSH1 0x40 MLOAD PUSH2 0xC27 SWAP2 SWAP1 PUSH2 0x16B3 JUMP JUMPDEST PUSH1 0x0 PUSH1 0x40 MLOAD DUP1 DUP4 SUB DUP2 DUP6 DUP8 GAS CALL SWAP3 POP POP POP RETURNDATASIZE DUP1 PUSH1 0x0 DUP2 EQ PUSH2 0xC64 JUMPI PUSH1 0x40 MLOAD SWAP2 POP PUSH1 0x1F NOT PUSH1 0x3F RETURNDATASIZE ADD AND DUP3 ADD PUSH1 0x40 MSTORE RETURNDATASIZE DUP3 MSTORE RETURNDATASIZE PUSH1 0x0 PUSH1 0x20 DUP5 ADD RETURNDATACOPY PUSH2 0xC69 JUMP JUMPDEST PUSH1 0x60 SWAP2 POP JUMPDEST POP SWAP2 POP SWAP2 POP PUSH2 0xC79 DUP3 DUP3 DUP7 PUSH2 0xCA8 JUMP JUMPDEST SWAP3 POP POP POP SWAP5 SWAP4 POP POP POP POP JUMP JUMPDEST PUSH1 0x0 DUP1 DUP3 PUSH20 0xFFFFFFFFFFFFFFFFFFFFFFFFFFFFFFFFFFFFFFFF AND EXTCODESIZE GT SWAP1 POP SWAP2 SWAP1 POP JUMP JUMPDEST PUSH1 0x60 DUP4 ISZERO PUSH2 0xCB8 JUMPI DUP3 SWAP1 POP PUSH2 0xD08 JUMP JUMPDEST PUSH1 0x0 DUP4 MLOAD GT ISZERO PUSH2 0xCCB JUMPI DUP3 MLOAD DUP1 DUP5 PUSH1 0x20 ADD REVERT JUMPDEST DUP2 PUSH1 0x40 MLOAD PUSH32 0x8C379A000000000000000000000000000000000000000000000000000000000 DUP2 MSTORE PUSH1 0x4 ADD PUSH2 0xCFF SWAP2 SWAP1 PUSH2 0x171F JUMP JUMPDEST PUSH1 0x40 MLOAD DUP1 SWAP2 SUB SWAP1 REVERT JUMPDEST SWAP4 SWAP3 POP POP POP JUMP JUMPDEST PUSH1 0x0 DUP2 SWAP1 POP SWAP2 SWAP1 POP JUMP JUMPDEST PUSH2 0xD22 DUP2 PUSH2 0xD0F JUMP JUMPDEST DUP3 MSTORE POP POP JUMP JUMPDEST PUSH1 0x0 PUSH1 0x20 DUP3 ADD SWAP1 POP PUSH2 0xD3D PUSH1 0x0 DUP4 ADD DUP5 PUSH2 0xD19 JUMP JUMPDEST SWAP3 SWAP2 POP POP JUMP JUMPDEST PUSH1 0x0 DUP1 REVERT JUMPDEST PUSH2 0xD51 DUP2 PUSH2 0xD0F JUMP JUMPDEST DUP2 EQ PUSH2 0xD5C JUMPI PUSH1 0x0 DUP1 REVERT JUMPDEST POP JUMP JUMPDEST PUSH1 0x0 DUP2 CALLDATALOAD SWAP1 POP PUSH2 0xD6E DUP2 PUSH2 0xD48 JUMP JUMPDEST SWAP3 SWAP2 POP POP JUMP JUMPDEST PUSH1 0x0 DUP1 PUSH1 0x40 DUP4 DUP6 SUB SLT ISZERO PUSH2 0xD8B JUMPI PUSH2 0xD8A PUSH2 0xD43 JUMP JUMPDEST JUMPDEST PUSH1 0x0 PUSH2 0xD99 DUP6 DUP3 DUP7 ADD PUSH2 0xD5F JUMP JUMPDEST SWAP3 POP POP PUSH1 0x20 PUSH2 0xDAA DUP6 DUP3 DUP7 ADD PUSH2 0xD5F JUMP JUMPDEST SWAP2 POP POP SWAP3 POP SWAP3 SWAP1 POP JUMP JUMPDEST PUSH1 0x0 PUSH20 0xFFFFFFFFFFFFFFFFFFFFFFFFFFFFFFFFFFFFFFFF DUP3 AND SWAP1 POP SWAP2 SWAP1 POP JUMP JUMPDEST PUSH1 0x0 PUSH2 0xDDF DUP3 PUSH2 0xDB4 JUMP JUMPDEST SWAP1 POP SWAP2 SWAP1 POP JUMP JUMPDEST PUSH2 0xDEF DUP2 PUSH2 0xDD4 JUMP JUMPDEST DUP2 EQ PUSH2 0xDFA JUMPI PUSH1 0x0 DUP1 REVERT JUMPDEST POP JUMP JUMPDEST PUSH1 0x0 DUP2 CALLDATALOAD SWAP1 POP PUSH2 0xE0C DUP2 PUSH2 0xDE6 JUMP JUMPDEST SWAP3 SWAP2 POP POP JUMP JUMPDEST PUSH1 0x0 PUSH1 0x20 DUP3 DUP5 SUB SLT ISZERO PUSH2 0xE28 JUMPI PUSH2 0xE27 PUSH2 0xD43 JUMP JUMPDEST JUMPDEST PUSH1 0x0 PUSH2 0xE36 DUP5 DUP3 DUP6 ADD PUSH2 0xDFD JUMP JUMPDEST SWAP2 POP POP SWAP3 SWAP2 POP POP JUMP JUMPDEST PUSH1 0x0 PUSH1 0x20 DUP3 DUP5 SUB SLT ISZERO PUSH2 0xE55 JUMPI PUSH2 0xE54 PUSH2 0xD43 JUMP JUMPDEST JUMPDEST PUSH1 0x0 PUSH2 0xE63 DUP5 DUP3 DUP6 ADD PUSH2 0xD5F JUMP JUMPDEST SWAP2 POP POP SWAP3 SWAP2 POP POP JUMP JUMPDEST PUSH2 0xE75 DUP2 PUSH2 0xDD4 JUMP JUMPDEST DUP3 MSTORE POP POP JUMP JUMPDEST PUSH1 0x0 PUSH1 0x20 DUP3 ADD SWAP1 POP PUSH2 0xE90 PUSH1 0x0 DUP4 ADD DUP5 PUSH2 0xE6C JUMP JUMPDEST SWAP3 SWAP2 POP POP JUMP JUMPDEST PUSH1 0x0 DUP3 DUP3 MSTORE PUSH1 0x20 DUP3 ADD SWAP1 POP SWAP3 SWAP2 POP POP JUMP JUMPDEST PUSH32 0x49434F2069732070617573656400000000000000000000000000000000000000 PUSH1 0x0 DUP3 ADD MSTORE POP JUMP JUMPDEST PUSH1 0x0 PUSH2 0xEDD PUSH1 0xD DUP4 PUSH2 0xE96 JUMP JUMPDEST SWAP2 POP PUSH2 0xEE8 DUP3 PUSH2 0xEA7 JUMP JUMPDEST PUSH1 0x20 DUP3 ADD SWAP1 POP SWAP2 SWAP1 POP JUMP JUMPDEST PUSH1 0x0 PUSH1 0x20 DUP3 ADD SWAP1 POP DUP2 DUP2 SUB PUSH1 0x0 DUP4 ADD MSTORE PUSH2 0xF0C DUP2 PUSH2 0xED0 JUMP JUMPDEST SWAP1 POP SWAP2 SWAP1 POP JUMP JUMPDEST PUSH32 0x4E487B7100000000000000000000000000000000000000000000000000000000 PUSH1 0x0 MSTORE PUSH1 0x11 PUSH1 0x4 MSTORE PUSH1 0x24 PUSH1 0x0 REVERT JUMPDEST PUSH1 0x0 PUSH2 0xF4D DUP3 PUSH2 0xD0F JUMP JUMPDEST SWAP2 POP PUSH2 0xF58 DUP4 PUSH2 0xD0F JUMP JUMPDEST SWAP3 POP DUP3 DUP3 MUL PUSH2 0xF66 DUP2 PUSH2 0xD0F JUMP JUMPDEST SWAP2 POP DUP3 DUP3 DIV DUP5 EQ DUP4 ISZERO OR PUSH2 0xF7D JUMPI PUSH2 0xF7C PUSH2 0xF13 JUMP JUMPDEST JUMPDEST POP SWAP3 SWAP2 POP POP JUMP JUMPDEST PUSH1 0x0 PUSH1 0x40 DUP3 ADD SWAP1 POP PUSH2 0xF99 PUSH1 0x0 DUP4 ADD DUP6 PUSH2 0xD19 JUMP JUMPDEST PUSH2 0xFA6 PUSH1 0x20 DUP4 ADD DUP5 PUSH2 0xD19 JUMP JUMPDEST SWAP4 SWAP3 POP POP POP JUMP JUMPDEST PUSH32 0x4F6E6C79206F776E65722063616E200000000000000000000000000000000000 PUSH1 0x0 DUP3 ADD MSTORE POP JUMP JUMPDEST PUSH1 0x0 PUSH2 0xFE3 PUSH1 0xF DUP4 PUSH2 0xE96 JUMP JUMPDEST SWAP2 POP PUSH2 0xFEE DUP3 PUSH2 0xFAD JUMP JUMPDEST PUSH1 0x20 DUP3 ADD SWAP1 POP SWAP2 SWAP1 POP JUMP JUMPDEST PUSH1 0x0 PUSH1 0x20 DUP3 ADD SWAP1 POP DUP2 DUP2 SUB PUSH1 0x0 DUP4 ADD MSTORE PUSH2 0x1012 DUP2 PUSH2 0xFD6 JUMP JUMPDEST SWAP1 POP SWAP2 SWAP1 POP JUMP JUMPDEST PUSH32 0x4F6E6C79206F776E65722063616E2063616C6C20746869732066756E6374696F PUSH1 0x0 DUP3 ADD MSTORE PUSH32 0x6E00000000000000000000000000000000000000000000000000000000000000 PUSH1 0x20 DUP3 ADD MSTORE POP JUMP JUMPDEST PUSH1 0x0 PUSH2 0x1075 PUSH1 0x21 DUP4 PUSH2 0xE96 JUMP JUMPDEST SWAP2 POP PUSH2 0x1080 DUP3 PUSH2 0x1019 JUMP JUMPDEST PUSH1 0x40 DUP3 ADD SWAP1 POP SWAP2 SWAP1 POP JUMP JUMPDEST PUSH1 0x0 PUSH1 0x20 DUP3 ADD SWAP1 POP DUP2 DUP2 SUB PUSH1 0x0 DUP4 ADD MSTORE PUSH2 0x10A4 DUP2 PUSH2 0x1068 JUMP JUMPDEST SWAP1 POP SWAP2 SWAP1 POP JUMP JUMPDEST PUSH32 0x5265656E7472616E637947756172643A207265656E7472616E742063616C6C00 PUSH1 0x0 DUP3 ADD MSTORE POP JUMP JUMPDEST PUSH1 0x0 PUSH2 0x10E1 PUSH1 0x1F DUP4 PUSH2 0xE96 JUMP JUMPDEST SWAP2 POP PUSH2 0x10EC DUP3 PUSH2 0x10AB JUMP JUMPDEST PUSH1 0x20 DUP3 ADD SWAP1 POP SWAP2 SWAP1 POP JUMP JUMPDEST PUSH1 0x0 PUSH1 0x20 DUP3 ADD SWAP1 POP DUP2 DUP2 SUB PUSH1 0x0 DUP4 ADD MSTORE PUSH2 0x1110 DUP2 PUSH2 0x10D4 JUMP JUMPDEST SWAP1 POP SWAP2 SWAP1 POP JUMP JUMPDEST PUSH32 0x49444F20686173206E6F74207374617274656400000000000000000000000000 PUSH1 0x0 DUP3 ADD MSTORE POP JUMP JUMPDEST PUSH1 0x0 PUSH2 0x114D PUSH1 0x13 DUP4 PUSH2 0xE96 JUMP JUMPDEST SWAP2 POP PUSH2 0x1158 DUP3 PUSH2 0x1117 JUMP JUMPDEST PUSH1 0x20 DUP3 ADD SWAP1 POP SWAP2 SWAP1 POP JUMP JUMPDEST PUSH1 0x0 PUSH1 0x20 DUP3 ADD SWAP1 POP DUP2 DUP2 SUB PUSH1 0x0 DUP4 ADD MSTORE PUSH2 0x117C DUP2 PUSH2 0x1140 JUMP JUMPDEST SWAP1 POP SWAP2 SWAP1 POP JUMP JUMPDEST PUSH1 0x0 PUSH2 0x118E DUP3 PUSH2 0xD0F JUMP JUMPDEST SWAP2 POP PUSH2 0x1199 DUP4 PUSH2 0xD0F JUMP JUMPDEST SWAP3 POP DUP3 DUP3 ADD SWAP1 POP DUP1 DUP3 GT ISZERO PUSH2 0x11B1 JUMPI PUSH2 0x11B0 PUSH2 0xF13 JUMP JUMPDEST JUMPDEST SWAP3 SWAP2 POP POP JUMP JUMPDEST PUSH32 0x416C6C20746F6B656E7320686173206265656E20736F6C640000000000000000 PUSH1 0x0 DUP3 ADD MSTORE POP JUMP JUMPDEST PUSH1 0x0 PUSH2 0x11ED PUSH1 0x18 DUP4 PUSH2 0xE96 JUMP JUMPDEST SWAP2 POP PUSH2 0x11F8 DUP3 PUSH2 0x11B7 JUMP JUMPDEST PUSH1 0x20 DUP3 ADD SWAP1 POP SWAP2 SWAP1 POP JUMP JUMPDEST PUSH1 0x0 PUSH1 0x20 DUP3 ADD SWAP1 POP DUP2 DUP2 SUB PUSH1 0x0 DUP4 ADD MSTORE PUSH2 0x121C DUP2 PUSH2 0x11E0 JUMP JUMPDEST SWAP1 POP SWAP2 SWAP1 POP JUMP JUMPDEST PUSH32 0x49444F2048617320206E6F7420656E6465642C20636C61696D20756E61766169 PUSH1 0x0 DUP3 ADD MSTORE PUSH32 0x6C61626C65000000000000000000000000000000000000000000000000000000 PUSH1 0x20 DUP3 ADD MSTORE POP JUMP JUMPDEST PUSH1 0x0 PUSH2 0x127F PUSH1 0x25 DUP4 PUSH2 0xE96 JUMP JUMPDEST SWAP2 POP PUSH2 0x128A DUP3 PUSH2 0x1223 JUMP JUMPDEST PUSH1 0x40 DUP3 ADD SWAP1 POP SWAP2 SWAP1 POP JUMP JUMPDEST PUSH1 0x0 PUSH1 0x20 DUP3 ADD SWAP1 POP DUP2 DUP2 SUB PUSH1 0x0 DUP4 ADD MSTORE PUSH2 0x12AE DUP2 PUSH2 0x1272 JUMP JUMPDEST SWAP1 POP SWAP2 SWAP1 POP JUMP JUMPDEST PUSH32 0x796F7520646964206E6F74207061727469636970617465000000000000000000 PUSH1 0x0 DUP3 ADD MSTORE POP JUMP JUMPDEST PUSH1 0x0 PUSH2 0x12EB PUSH1 0x17 DUP4 PUSH2 0xE96 JUMP JUMPDEST SWAP2 POP PUSH2 0x12F6 DUP3 PUSH2 0x12B5 JUMP JUMPDEST PUSH1 0x20 DUP3 ADD SWAP1 POP SWAP2 SWAP1 POP JUMP JUMPDEST PUSH1 0x0 PUSH1 0x20 DUP3 ADD SWAP1 POP DUP2 DUP2 SUB PUSH1 0x0 DUP4 ADD MSTORE PUSH2 0x131A DUP2 PUSH2 0x12DE JUMP JUMPDEST SWAP1 POP SWAP2 SWAP1 POP JUMP JUMPDEST PUSH32 0x4E487B7100000000000000000000000000000000000000000000000000000000 PUSH1 0x0 MSTORE PUSH1 0x12 PUSH1 0x4 MSTORE PUSH1 0x24 PUSH1 0x0 REVERT JUMPDEST PUSH1 0x0 PUSH2 0x135B DUP3 PUSH2 0xD0F JUMP JUMPDEST SWAP2 POP PUSH2 0x1366 DUP4 PUSH2 0xD0F JUMP JUMPDEST SWAP3 POP DUP3 PUSH2 0x1376 JUMPI PUSH2 0x1375 PUSH2 0x1321 JUMP JUMPDEST JUMPDEST DUP3 DUP3 DIV SWAP1 POP SWAP3 SWAP2 POP POP JUMP JUMPDEST PUSH1 0x0 PUSH1 0x60 DUP3 ADD SWAP1 POP PUSH2 0x1396 PUSH1 0x0 DUP4 ADD DUP7 PUSH2 0xE6C JUMP JUMPDEST PUSH2 0x13A3 PUSH1 0x20 DUP4 ADD DUP6 PUSH2 0xE6C JUMP JUMPDEST PUSH2 0x13B0 PUSH1 0x40 DUP4 ADD DUP5 PUSH2 0xD19 JUMP JUMPDEST SWAP5 SWAP4 POP POP POP POP JUMP JUMPDEST PUSH1 0x0 DUP2 ISZERO ISZERO SWAP1 POP SWAP2 SWAP1 POP JUMP JUMPDEST PUSH2 0x13CD DUP2 PUSH2 0x13B8 JUMP JUMPDEST DUP2 EQ PUSH2 0x13D8 JUMPI PUSH1 0x0 DUP1 REVERT JUMPDEST POP JUMP JUMPDEST PUSH1 0x0 DUP2 MLOAD SWAP1 POP PUSH2 0x13EA DUP2 PUSH2 0x13C4 JUMP JUMPDEST SWAP3 SWAP2 POP POP JUMP JUMPDEST PUSH1 0x0 PUSH1 0x20 DUP3 DUP5 SUB SLT ISZERO PUSH2 0x1406 JUMPI PUSH2 0x1405 PUSH2 0xD43 JUMP JUMPDEST JUMPDEST PUSH1 0x0 PUSH2 0x1414 DUP5 DUP3 DUP6 ADD PUSH2 0x13DB JUMP JUMPDEST SWAP2 POP POP SWAP3 SWAP2 POP POP JUMP JUMPDEST PUSH1 0x0 PUSH1 0x40 DUP3 ADD SWAP1 POP PUSH2 0x1432 PUSH1 0x0 DUP4 ADD DUP6 PUSH2 0xE6C JUMP JUMPDEST PUSH2 0x143F PUSH1 0x20 DUP4 ADD DUP5 PUSH2 0xD19 JUMP JUMPDEST SWAP4 SWAP3 POP POP POP JUMP JUMPDEST PUSH32 0x49434F206973206F6E0000000000000000000000000000000000000000000000 PUSH1 0x0 DUP3 ADD MSTORE POP JUMP JUMPDEST PUSH1 0x0 PUSH2 0x147C PUSH1 0x9 DUP4 PUSH2 0xE96 JUMP JUMPDEST SWAP2 POP PUSH2 0x1487 DUP3 PUSH2 0x1446 JUMP JUMPDEST PUSH1 0x20 DUP3 ADD SWAP1 POP SWAP2 SWAP1 POP JUMP JUMPDEST PUSH1 0x0 PUSH1 0x20 DUP3 ADD SWAP1 POP DUP2 DUP2 SUB PUSH1 0x0 DUP4 ADD MSTORE PUSH2 0x14AB DUP2 PUSH2 0x146F JUMP JUMPDEST SWAP1 POP SWAP2 SWAP1 POP JUMP JUMPDEST PUSH32 0x5361666545524332303A204552433230206F7065726174696F6E20646964206E PUSH1 0x0 DUP3 ADD MSTORE PUSH32 0x6F74207375636365656400000000000000000000000000000000000000000000 PUSH1 0x20 DUP3 ADD MSTORE POP JUMP JUMPDEST PUSH1 0x0 PUSH2 0x150E PUSH1 0x2A DUP4 PUSH2 0xE96 JUMP JUMPDEST SWAP2 POP PUSH2 0x1519 DUP3 PUSH2 0x14B2 JUMP JUMPDEST PUSH1 0x40 DUP3 ADD SWAP1 POP SWAP2 SWAP1 POP JUMP JUMPDEST PUSH1 0x0 PUSH1 0x20 DUP3 ADD SWAP1 POP DUP2 DUP2 SUB PUSH1 0x0 DUP4 ADD MSTORE PUSH2 0x153D DUP2 PUSH2 0x1501 JUMP JUMPDEST SWAP1 POP SWAP2 SWAP1 POP JUMP JUMPDEST PUSH32 0x416464726573733A20696E73756666696369656E742062616C616E636520666F PUSH1 0x0 DUP3 ADD MSTORE PUSH32 0x722063616C6C0000000000000000000000000000000000000000000000000000 PUSH1 0x20 DUP3 ADD MSTORE POP JUMP JUMPDEST PUSH1 0x0 PUSH2 0x15A0 PUSH1 0x26 DUP4 PUSH2 0xE96 JUMP JUMPDEST SWAP2 POP PUSH2 0x15AB DUP3 PUSH2 0x1544 JUMP JUMPDEST PUSH1 0x40 DUP3 ADD SWAP1 POP SWAP2 SWAP1 POP JUMP JUMPDEST PUSH1 0x0 PUSH1 0x20 DUP3 ADD SWAP1 POP DUP2 DUP2 SUB PUSH1 0x0 DUP4 ADD MSTORE PUSH2 0x15CF DUP2 PUSH2 0x1593 JUMP JUMPDEST SWAP1 POP SWAP2 SWAP1 POP JUMP JUMPDEST PUSH32 0x416464726573733A2063616C6C20746F206E6F6E2D636F6E7472616374000000 PUSH1 0x0 DUP3 ADD MSTORE POP JUMP JUMPDEST PUSH1 0x0 PUSH2 0x160C PUSH1 0x1D DUP4 PUSH2 0xE96 JUMP JUMPDEST SWAP2 POP PUSH2 0x1617 DUP3 PUSH2 0x15D6 JUMP JUMPDEST PUSH1 0x20 DUP3 ADD SWAP1 POP SWAP2 SWAP1 POP JUMP JUMPDEST PUSH1 0x0 PUSH1 0x20 DUP3 ADD SWAP1 POP DUP2 DUP2 SUB PUSH1 0x0 DUP4 ADD MSTORE PUSH2 0x163B DUP2 PUSH2 0x15FF JUMP JUMPDEST SWAP1 POP SWAP2 SWAP1 POP JUMP JUMPDEST PUSH1 0x0 DUP2 MLOAD SWAP1 POP SWAP2 SWAP1 POP JUMP JUMPDEST PUSH1 0x0 DUP2 SWAP1 POP SWAP3 SWAP2 POP POP JUMP JUMPDEST PUSH1 0x0 JUMPDEST DUP4 DUP2 LT ISZERO PUSH2 0x1676 JUMPI DUP1 DUP3 ADD MLOAD DUP2 DUP5 ADD MSTORE PUSH1 0x20 DUP2 ADD SWAP1 POP PUSH2 0x165B JUMP JUMPDEST PUSH1 0x0 DUP5 DUP5 ADD MSTORE POP POP POP POP JUMP JUMPDEST PUSH1 0x0 PUSH2 0x168D DUP3 PUSH2 0x1642 JUMP JUMPDEST PUSH2 0x1697 DUP2 DUP6 PUSH2 0x164D JUMP JUMPDEST SWAP4 POP PUSH2 0x16A7 DUP2 DUP6 PUSH1 0x20 DUP7 ADD PUSH2 0x1658 JUMP JUMPDEST DUP1 DUP5 ADD SWAP2 POP POP SWAP3 SWAP2 POP POP JUMP JUMPDEST PUSH1 0x0 PUSH2 0x16BF DUP3 DUP5 PUSH2 0x1682 JUMP JUMPDEST SWAP2 POP DUP2 SWAP1 POP SWAP3 SWAP2 POP POP JUMP JUMPDEST PUSH1 0x0 DUP2 MLOAD SWAP1 POP SWAP2 SWAP1 POP JUMP JUMPDEST PUSH1 0x0 PUSH1 0x1F NOT PUSH1 0x1F DUP4 ADD AND SWAP1 POP SWAP2 SWAP1 POP JUMP JUMPDEST PUSH1 0x0 PUSH2 0x16F1 DUP3 PUSH2 0x16CA JUMP JUMPDEST PUSH2 0x16FB DUP2 DUP6 PUSH2 0xE96 JUMP JUMPDEST SWAP4 POP PUSH2 0x170B DUP2 DUP6 PUSH1 0x20 DUP7 ADD PUSH2 0x1658 JUMP JUMPDEST PUSH2 0x1714 DUP2 PUSH2 0x16D5 JUMP JUMPDEST DUP5 ADD SWAP2 POP POP SWAP3 SWAP2 POP POP JUMP JUMPDEST PUSH1 0x0 PUSH1 0x20 DUP3 ADD SWAP1 POP DUP2 DUP2 SUB PUSH1 0x0 DUP4 ADD MSTORE PUSH2 0x1739 DUP2 DUP5 PUSH2 0x16E6 JUMP JUMPDEST SWAP1 POP SWAP3 SWAP2 POP POP JUMP INVALID LOG2 PUSH5 0x6970667358 0x22 SLT KECCAK256 JUMP BYTE 0xE6 0xD7 LOG1 0xA8 CALLDATALOAD 0x2C SWAP3 DIFFICULTY 0xC0 XOR 0x22 0xBE 0xCC SWAP11 0xE7 SWAP15 0xD1 0xDB STATICCALL PUSH13 0xC2A86AC6195F22ED83D964736F PUSH13 0x63430008110033000000000000 "
				},
				"gasEstimates": {
					"creation": {
						"codeDepositCost": "1201400",
						"executionCost": "infinite",
						"totalCost": "infinite"
					},
					"external": {
						"BeginIDO()": "52838",
						"StopIDO()": "28434",
						"USDT()": "infinite",
						"claimPurchasedToken()": "infinite",
						"claimRaisedFunds()": "2670",
						"editIDO(uint256,uint256)": "infinite",
						"purchaseToken(uint256)": "infinite",
						"startClaim(address)": "51209",
						"tokenPrice()": "2452"
					}
				},
				"methodIdentifiers": {
					"BeginIDO()": "dc55920f",
					"StopIDO()": "76d812ea",
					"USDT()": "c54e44eb",
					"claimPurchasedToken()": "d7997f7e",
					"claimRaisedFunds()": "b392972d",
					"editIDO(uint256,uint256)": "890e63e7",
					"purchaseToken(uint256)": "c2db2c42",
					"startClaim(address)": "c2bb8b15",
					"tokenPrice()": "7ff9b596"
				}
			},
			"storageLayout": {
				"storage": [
					{
						"astId": 10,
						"contract": "contracts/ico.sol:Amestarter",
						"label": "_status",
						"offset": 0,
						"slot": "0",
						"type": "t_uint256"
					},
					{
						"astId": 1471,
						"contract": "contracts/ico.sol:Amestarter",
						"label": "DAZ",
						"offset": 0,
						"slot": "1",
						"type": "t_address"
					},
					{
						"astId": 1473,
						"contract": "contracts/ico.sol:Amestarter",
						"label": "tokenPrice",
						"offset": 0,
						"slot": "2",
						"type": "t_uint256"
					},
					{
						"astId": 1475,
						"contract": "contracts/ico.sol:Amestarter",
						"label": "owner",
						"offset": 0,
						"slot": "3",
						"type": "t_address"
					},
					{
						"astId": 1477,
						"contract": "contracts/ico.sol:Amestarter",
						"label": "IDOStarted",
						"offset": 20,
						"slot": "3",
						"type": "t_bool"
					},
					{
						"astId": 1479,
						"contract": "contracts/ico.sol:Amestarter",
						"label": "claimStarted",
						"offset": 21,
						"slot": "3",
						"type": "t_bool"
					},
					{
						"astId": 1481,
						"contract": "contracts/ico.sol:Amestarter",
						"label": "targetSale",
						"offset": 0,
						"slot": "4",
						"type": "t_uint256"
					},
					{
						"astId": 1483,
						"contract": "contracts/ico.sol:Amestarter",
						"label": "totalRaised",
						"offset": 0,
						"slot": "5",
						"type": "t_uint256"
					},
					{
						"astId": 1487,
						"contract": "contracts/ico.sol:Amestarter",
						"label": "purchase",
						"offset": 0,
						"slot": "6",
						"type": "t_mapping(t_address,t_uint256)"
					}
				],
				"types": {
					"t_address": {
						"encoding": "inplace",
						"label": "address",
						"numberOfBytes": "20"
					},
					"t_bool": {
						"encoding": "inplace",
						"label": "bool",
						"numberOfBytes": "1"
					},
					"t_mapping(t_address,t_uint256)": {
						"encoding": "mapping",
						"key": "t_address",
						"label": "mapping(address => uint256)",
						"numberOfBytes": "32",
						"value": "t_uint256"
					},
					"t_uint256": {
						"encoding": "inplace",
						"label": "uint256",
						"numberOfBytes": "32"
					}
				}
			},
			"userdoc": {
				"kind": "user",
				"methods": {},
				"version": 1
			}
		}
	}
}