{
	"contracts/ico.sol": {
		"Amestarter": {
			"abi": [
				{
					"inputs": [
						{
							"internalType": "uint256",
							"name": "_tokenPrice",
							"type": "uint256"
						},
						{
							"internalType": "address",
							"name": "_IUSDT",
							"type": "address"
						},
						{
							"internalType": "address",
							"name": "_IDAZ",
							"type": "address"
						},
						{
							"internalType": "uint256",
							"name": "_targetSale",
							"type": "uint256"
						}
					],
					"stateMutability": "nonpayable",
					"type": "constructor"
				},
				{
					"anonymous": false,
					"inputs": [
						{
							"indexed": false,
							"internalType": "string",
							"name": "icoAlert",
							"type": "string"
						}
					],
					"name": "ICOStartAlert",
					"type": "event"
				},
				{
					"anonymous": false,
					"inputs": [
						{
							"indexed": false,
							"internalType": "address",
							"name": "buyuer",
							"type": "address"
						},
						{
							"indexed": false,
							"internalType": "uint256",
							"name": "tokenBought",
							"type": "uint256"
						}
					],
					"name": "claimToken",
					"type": "event"
				},
				{
					"anonymous": false,
					"inputs": [
						{
							"indexed": false,
							"internalType": "uint256",
							"name": "newTokenprice",
							"type": "uint256"
						},
						{
							"indexed": false,
							"internalType": "uint256",
							"name": "target",
							"type": "uint256"
						}
					],
					"name": "icoUpdate",
					"type": "event"
				},
				{
					"anonymous": false,
					"inputs": [
						{
							"indexed": true,
							"internalType": "address",
							"name": "buyer",
							"type": "address"
						},
						{
							"indexed": false,
							"internalType": "uint256",
							"name": "amount",
							"type": "uint256"
						}
					],
					"name": "latestPurchased",
					"type": "event"
				},
				{
					"inputs": [],
					"name": "BeginIDO",
					"outputs": [],
					"stateMutability": "nonpayable",
					"type": "function"
				},
				{
					"inputs": [],
					"name": "DAZ",
					"outputs": [
						{
							"internalType": "address",
							"name": "",
							"type": "address"
						}
					],
					"stateMutability": "view",
					"type": "function"
				},
				{
					"inputs": [],
					"name": "StopIDO",
					"outputs": [],
					"stateMutability": "nonpayable",
					"type": "function"
				},
				{
					"inputs": [],
					"name": "USDT",
					"outputs": [
						{
							"internalType": "address",
							"name": "",
							"type": "address"
						}
					],
					"stateMutability": "view",
					"type": "function"
				},
				{
					"inputs": [],
					"name": "claimPurchasedToken",
					"outputs": [],
					"stateMutability": "nonpayable",
					"type": "function"
				},
				{
					"inputs": [
						{
							"internalType": "uint256",
							"name": "_tokenPrice",
							"type": "uint256"
						},
						{
							"internalType": "uint256",
							"name": "_targetSale",
							"type": "uint256"
						}
					],
					"name": "editIco",
					"outputs": [],
					"stateMutability": "nonpayable",
					"type": "function"
				},
				{
					"inputs": [
						{
							"internalType": "uint256",
							"name": "_amount",
							"type": "uint256"
						}
					],
					"name": "purchaseToken",
					"outputs": [],
					"stateMutability": "nonpayable",
					"type": "function"
				},
				{
					"inputs": [],
					"name": "tokenPrice",
					"outputs": [
						{
							"internalType": "uint256",
							"name": "",
							"type": "uint256"
						}
					],
					"stateMutability": "view",
					"type": "function"
				}
			],
			"devdoc": {
				"kind": "dev",
				"methods": {},
				"version": 1
			},
			"evm": {
				"assembly": "    /* \"contracts/ico.sol\":1245:3746  contract Amestarter is ReentrancyGuard {... */\n  mstore(0x40, 0xc0)\n    /* \"contracts/ico.sol\":1946:2203  constructor(uint _tokenPrice, address _IUSDT, address _IDAZ, uint256 _targetSale){... */\n  callvalue\n  dup1\n  iszero\n  tag_1\n  jumpi\n  0x00\n  dup1\n  revert\ntag_1:\n  pop\n  mload(0x40)\n  sub(codesize, bytecodeSize)\n  dup1\n  bytecodeSize\n  dup4\n  codecopy\n  dup2\n  dup2\n  add\n  0x40\n  mstore\n  dup2\n  add\n  swap1\n  tag_2\n  swap2\n  swap1\n  tag_3\n  jump\t// in\ntag_2:\n    /* \"@openzeppelin/contracts/security/ReentrancyGuard.sol\":1701:1702  1 */\n  0x01\n    /* \"@openzeppelin/contracts/security/ReentrancyGuard.sol\":1806:1813  _status */\n  0x00\n    /* \"@openzeppelin/contracts/security/ReentrancyGuard.sol\":1806:1828  _status = _NOT_ENTERED */\n  dup2\n  swap1\n  sstore\n  pop\n    /* \"contracts/ico.sol\":2046:2056  msg.sender */\n  caller\n    /* \"contracts/ico.sol\":2038:2043  owner */\n  0x02\n  0x00\n    /* \"contracts/ico.sol\":2038:2056  owner = msg.sender */\n  0x0100\n  exp\n  dup2\n  sload\n  dup2\n  0xffffffffffffffffffffffffffffffffffffffff\n  mul\n  not\n  and\n  swap1\n  dup4\n  0xffffffffffffffffffffffffffffffffffffffff\n  and\n  mul\n  or\n  swap1\n  sstore\n  pop\n    /* \"contracts/ico.sol\":2094:2102  10 ** 18 */\n  0x0de0b6b3a7640000\n    /* \"contracts/ico.sol\":2080:2091  _tokenPrice */\n  dup5\n    /* \"contracts/ico.sol\":2080:2102  _tokenPrice * 10 ** 18 */\n  tag_8\n  swap2\n  swap1\n  tag_9\n  jump\t// in\ntag_8:\n    /* \"contracts/ico.sol\":2067:2077  tokenPrice */\n  0x01\n    /* \"contracts/ico.sol\":2067:2102  tokenPrice = _tokenPrice * 10 ** 18 */\n  dup2\n  swap1\n  sstore\n  pop\n    /* \"contracts/ico.sol\":2120:2126  _IUSDT */\n  dup3\n    /* \"contracts/ico.sol\":2113:2126  USDT = _IUSDT */\n  0xffffffffffffffffffffffffffffffffffffffff\n  and\n  0x80\n  dup2\n  0xffffffffffffffffffffffffffffffffffffffff\n  and\n  dup2\n  mstore\n  pop\n  pop\n    /* \"contracts/ico.sol\":2144:2149  _IDAZ */\n  dup2\n    /* \"contracts/ico.sol\":2137:2149  DAZ =  _IDAZ */\n  0xffffffffffffffffffffffffffffffffffffffff\n  and\n  0xa0\n  dup2\n  0xffffffffffffffffffffffffffffffffffffffff\n  and\n  dup2\n  mstore\n  pop\n  pop\n    /* \"contracts/ico.sol\":2187:2195  10 ** 18 */\n  0x0de0b6b3a7640000\n    /* \"contracts/ico.sol\":2173:2184  _targetSale */\n  dup2\n    /* \"contracts/ico.sol\":2173:2195  _targetSale * 10 ** 18 */\n  tag_10\n  swap2\n  swap1\n  tag_9\n  jump\t// in\ntag_10:\n    /* \"contracts/ico.sol\":2160:2170  targetSale */\n  0x03\n    /* \"contracts/ico.sol\":2160:2195  targetSale = _targetSale * 10 ** 18 */\n  dup2\n  swap1\n  sstore\n  pop\n    /* \"contracts/ico.sol\":1946:2203  constructor(uint _tokenPrice, address _IUSDT, address _IDAZ, uint256 _targetSale){... */\n  pop\n  pop\n  pop\n  pop\n    /* \"contracts/ico.sol\":1245:3746  contract Amestarter is ReentrancyGuard {... */\n  jump(tag_11)\n    /* \"#utility.yul\":88:205   */\ntag_13:\n    /* \"#utility.yul\":197:198   */\n  0x00\n    /* \"#utility.yul\":194:195   */\n  dup1\n    /* \"#utility.yul\":187:199   */\n  revert\n    /* \"#utility.yul\":334:411   */\ntag_15:\n    /* \"#utility.yul\":371:378   */\n  0x00\n    /* \"#utility.yul\":400:405   */\n  dup2\n    /* \"#utility.yul\":389:405   */\n  swap1\n  pop\n    /* \"#utility.yul\":334:411   */\n  swap2\n  swap1\n  pop\n  jump\t// out\n    /* \"#utility.yul\":417:539   */\ntag_16:\n    /* \"#utility.yul\":490:514   */\n  tag_29\n    /* \"#utility.yul\":508:513   */\n  dup2\n    /* \"#utility.yul\":490:514   */\n  tag_15\n  jump\t// in\ntag_29:\n    /* \"#utility.yul\":483:488   */\n  dup2\n    /* \"#utility.yul\":480:515   */\n  eq\n    /* \"#utility.yul\":470:533   */\n  tag_30\n  jumpi\n    /* \"#utility.yul\":529:530   */\n  0x00\n    /* \"#utility.yul\":526:527   */\n  dup1\n    /* \"#utility.yul\":519:531   */\n  revert\n    /* \"#utility.yul\":470:533   */\ntag_30:\n    /* \"#utility.yul\":417:539   */\n  pop\n  jump\t// out\n    /* \"#utility.yul\":545:688   */\ntag_17:\n    /* \"#utility.yul\":602:607   */\n  0x00\n    /* \"#utility.yul\":633:639   */\n  dup2\n    /* \"#utility.yul\":627:640   */\n  mload\n    /* \"#utility.yul\":618:640   */\n  swap1\n  pop\n    /* \"#utility.yul\":649:682   */\n  tag_32\n    /* \"#utility.yul\":676:681   */\n  dup2\n    /* \"#utility.yul\":649:682   */\n  tag_16\n  jump\t// in\ntag_32:\n    /* \"#utility.yul\":545:688   */\n  swap3\n  swap2\n  pop\n  pop\n  jump\t// out\n    /* \"#utility.yul\":694:820   */\ntag_18:\n    /* \"#utility.yul\":731:738   */\n  0x00\n    /* \"#utility.yul\":771:813   */\n  0xffffffffffffffffffffffffffffffffffffffff\n    /* \"#utility.yul\":764:769   */\n  dup3\n    /* \"#utility.yul\":760:814   */\n  and\n    /* \"#utility.yul\":749:814   */\n  swap1\n  pop\n    /* \"#utility.yul\":694:820   */\n  swap2\n  swap1\n  pop\n  jump\t// out\n    /* \"#utility.yul\":826:922   */\ntag_19:\n    /* \"#utility.yul\":863:870   */\n  0x00\n    /* \"#utility.yul\":892:916   */\n  tag_35\n    /* \"#utility.yul\":910:915   */\n  dup3\n    /* \"#utility.yul\":892:916   */\n  tag_18\n  jump\t// in\ntag_35:\n    /* \"#utility.yul\":881:916   */\n  swap1\n  pop\n    /* \"#utility.yul\":826:922   */\n  swap2\n  swap1\n  pop\n  jump\t// out\n    /* \"#utility.yul\":928:1050   */\ntag_20:\n    /* \"#utility.yul\":1001:1025   */\n  tag_37\n    /* \"#utility.yul\":1019:1024   */\n  dup2\n    /* \"#utility.yul\":1001:1025   */\n  tag_19\n  jump\t// in\ntag_37:\n    /* \"#utility.yul\":994:999   */\n  dup2\n    /* \"#utility.yul\":991:1026   */\n  eq\n    /* \"#utility.yul\":981:1044   */\n  tag_38\n  jumpi\n    /* \"#utility.yul\":1040:1041   */\n  0x00\n    /* \"#utility.yul\":1037:1038   */\n  dup1\n    /* \"#utility.yul\":1030:1042   */\n  revert\n    /* \"#utility.yul\":981:1044   */\ntag_38:\n    /* \"#utility.yul\":928:1050   */\n  pop\n  jump\t// out\n    /* \"#utility.yul\":1056:1199   */\ntag_21:\n    /* \"#utility.yul\":1113:1118   */\n  0x00\n    /* \"#utility.yul\":1144:1150   */\n  dup2\n    /* \"#utility.yul\":1138:1151   */\n  mload\n    /* \"#utility.yul\":1129:1151   */\n  swap1\n  pop\n    /* \"#utility.yul\":1160:1193   */\n  tag_40\n    /* \"#utility.yul\":1187:1192   */\n  dup2\n    /* \"#utility.yul\":1160:1193   */\n  tag_20\n  jump\t// in\ntag_40:\n    /* \"#utility.yul\":1056:1199   */\n  swap3\n  swap2\n  pop\n  pop\n  jump\t// out\n    /* \"#utility.yul\":1205:2025   */\ntag_3:\n    /* \"#utility.yul\":1302:1308   */\n  0x00\n    /* \"#utility.yul\":1310:1316   */\n  dup1\n    /* \"#utility.yul\":1318:1324   */\n  0x00\n    /* \"#utility.yul\":1326:1332   */\n  dup1\n    /* \"#utility.yul\":1375:1378   */\n  0x80\n    /* \"#utility.yul\":1363:1372   */\n  dup6\n    /* \"#utility.yul\":1354:1361   */\n  dup8\n    /* \"#utility.yul\":1350:1373   */\n  sub\n    /* \"#utility.yul\":1346:1379   */\n  slt\n    /* \"#utility.yul\":1343:1463   */\n  iszero\n  tag_42\n  jumpi\n    /* \"#utility.yul\":1382:1461   */\n  tag_43\n  tag_13\n  jump\t// in\ntag_43:\n    /* \"#utility.yul\":1343:1463   */\ntag_42:\n    /* \"#utility.yul\":1502:1503   */\n  0x00\n    /* \"#utility.yul\":1527:1591   */\n  tag_44\n    /* \"#utility.yul\":1583:1590   */\n  dup8\n    /* \"#utility.yul\":1574:1580   */\n  dup3\n    /* \"#utility.yul\":1563:1572   */\n  dup9\n    /* \"#utility.yul\":1559:1581   */\n  add\n    /* \"#utility.yul\":1527:1591   */\n  tag_17\n  jump\t// in\ntag_44:\n    /* \"#utility.yul\":1517:1591   */\n  swap5\n  pop\n    /* \"#utility.yul\":1473:1601   */\n  pop\n    /* \"#utility.yul\":1640:1642   */\n  0x20\n    /* \"#utility.yul\":1666:1730   */\n  tag_45\n    /* \"#utility.yul\":1722:1729   */\n  dup8\n    /* \"#utility.yul\":1713:1719   */\n  dup3\n    /* \"#utility.yul\":1702:1711   */\n  dup9\n    /* \"#utility.yul\":1698:1720   */\n  add\n    /* \"#utility.yul\":1666:1730   */\n  tag_21\n  jump\t// in\ntag_45:\n    /* \"#utility.yul\":1656:1730   */\n  swap4\n  pop\n    /* \"#utility.yul\":1611:1740   */\n  pop\n    /* \"#utility.yul\":1779:1781   */\n  0x40\n    /* \"#utility.yul\":1805:1869   */\n  tag_46\n    /* \"#utility.yul\":1861:1868   */\n  dup8\n    /* \"#utility.yul\":1852:1858   */\n  dup3\n    /* \"#utility.yul\":1841:1850   */\n  dup9\n    /* \"#utility.yul\":1837:1859   */\n  add\n    /* \"#utility.yul\":1805:1869   */\n  tag_21\n  jump\t// in\ntag_46:\n    /* \"#utility.yul\":1795:1869   */\n  swap3\n  pop\n    /* \"#utility.yul\":1750:1879   */\n  pop\n    /* \"#utility.yul\":1918:1920   */\n  0x60\n    /* \"#utility.yul\":1944:2008   */\n  tag_47\n    /* \"#utility.yul\":2000:2007   */\n  dup8\n    /* \"#utility.yul\":1991:1997   */\n  dup3\n    /* \"#utility.yul\":1980:1989   */\n  dup9\n    /* \"#utility.yul\":1976:1998   */\n  add\n    /* \"#utility.yul\":1944:2008   */\n  tag_17\n  jump\t// in\ntag_47:\n    /* \"#utility.yul\":1934:2008   */\n  swap2\n  pop\n    /* \"#utility.yul\":1889:2018   */\n  pop\n    /* \"#utility.yul\":1205:2025   */\n  swap3\n  swap6\n  swap2\n  swap5\n  pop\n  swap3\n  pop\n  jump\t// out\n    /* \"#utility.yul\":2031:2211   */\ntag_22:\n    /* \"#utility.yul\":2079:2156   */\n  0x4e487b7100000000000000000000000000000000000000000000000000000000\n    /* \"#utility.yul\":2076:2077   */\n  0x00\n    /* \"#utility.yul\":2069:2157   */\n  mstore\n    /* \"#utility.yul\":2176:2180   */\n  0x11\n    /* \"#utility.yul\":2173:2174   */\n  0x04\n    /* \"#utility.yul\":2166:2181   */\n  mstore\n    /* \"#utility.yul\":2200:2204   */\n  0x24\n    /* \"#utility.yul\":2197:2198   */\n  0x00\n    /* \"#utility.yul\":2190:2205   */\n  revert\n    /* \"#utility.yul\":2217:2627   */\ntag_9:\n    /* \"#utility.yul\":2257:2264   */\n  0x00\n    /* \"#utility.yul\":2280:2300   */\n  tag_50\n    /* \"#utility.yul\":2298:2299   */\n  dup3\n    /* \"#utility.yul\":2280:2300   */\n  tag_15\n  jump\t// in\ntag_50:\n    /* \"#utility.yul\":2275:2300   */\n  swap2\n  pop\n    /* \"#utility.yul\":2314:2334   */\n  tag_51\n    /* \"#utility.yul\":2332:2333   */\n  dup4\n    /* \"#utility.yul\":2314:2334   */\n  tag_15\n  jump\t// in\ntag_51:\n    /* \"#utility.yul\":2309:2334   */\n  swap3\n  pop\n    /* \"#utility.yul\":2369:2370   */\n  dup3\n    /* \"#utility.yul\":2366:2367   */\n  dup3\n    /* \"#utility.yul\":2362:2371   */\n  mul\n    /* \"#utility.yul\":2391:2421   */\n  tag_52\n    /* \"#utility.yul\":2409:2420   */\n  dup2\n    /* \"#utility.yul\":2391:2421   */\n  tag_15\n  jump\t// in\ntag_52:\n    /* \"#utility.yul\":2380:2421   */\n  swap2\n  pop\n    /* \"#utility.yul\":2570:2571   */\n  dup3\n    /* \"#utility.yul\":2561:2568   */\n  dup3\n    /* \"#utility.yul\":2557:2572   */\n  div\n    /* \"#utility.yul\":2554:2555   */\n  dup5\n    /* \"#utility.yul\":2551:2573   */\n  eq\n    /* \"#utility.yul\":2531:2532   */\n  dup4\n    /* \"#utility.yul\":2524:2533   */\n  iszero\n    /* \"#utility.yul\":2504:2587   */\n  or\n    /* \"#utility.yul\":2481:2620   */\n  tag_53\n  jumpi\n    /* \"#utility.yul\":2600:2618   */\n  tag_54\n  tag_22\n  jump\t// in\ntag_54:\n    /* \"#utility.yul\":2481:2620   */\ntag_53:\n    /* \"#utility.yul\":2265:2627   */\n  pop\n    /* \"#utility.yul\":2217:2627   */\n  swap3\n  swap2\n  pop\n  pop\n  jump\t// out\n    /* \"contracts/ico.sol\":1245:3746  contract Amestarter is ReentrancyGuard {... */\ntag_11:\n  mload(0x80)\n  mload(0xa0)\n  codecopy(0x00, dataOffset(sub_0), dataSize(sub_0))\n  0x00\n  assignImmutable(\"0xb2defa75886dc68fff8e07e15f8c710632f536eafc1958aaf9db286a05b10ca2\")\n  0x00\n  assignImmutable(\"0xc8a6f112e7620748ca3ae6a49a58464897133c24b6f43e9fa71155cd2626380a\")\n  return(0x00, dataSize(sub_0))\nstop\n\nsub_0: assembly {\n        /* \"contracts/ico.sol\":1245:3746  contract Amestarter is ReentrancyGuard {... */\n      mstore(0x40, 0x80)\n      callvalue\n      dup1\n      iszero\n      tag_1\n      jumpi\n      0x00\n      dup1\n      revert\n    tag_1:\n      pop\n      jumpi(tag_2, lt(calldatasize, 0x04))\n      shr(0xe0, calldataload(0x00))\n      dup1\n      0xc3a17441\n      gt\n      tag_11\n      jumpi\n      dup1\n      0xc3a17441\n      eq\n      tag_7\n      jumpi\n      dup1\n      0xc54e44eb\n      eq\n      tag_8\n      jumpi\n      dup1\n      0xd7997f7e\n      eq\n      tag_9\n      jumpi\n      dup1\n      0xdc55920f\n      eq\n      tag_10\n      jumpi\n      jump(tag_2)\n    tag_11:\n      dup1\n      0x6385f2fb\n      eq\n      tag_3\n      jumpi\n      dup1\n      0x76d812ea\n      eq\n      tag_4\n      jumpi\n      dup1\n      0x7ff9b596\n      eq\n      tag_5\n      jumpi\n      dup1\n      0xc2db2c42\n      eq\n      tag_6\n      jumpi\n    tag_2:\n      0x00\n      dup1\n      revert\n        /* \"contracts/ico.sol\":1368:1396  address public immutable DAZ */\n    tag_3:\n      tag_12\n      tag_13\n      jump\t// in\n    tag_12:\n      mload(0x40)\n      tag_14\n      swap2\n      swap1\n      tag_15\n      jump\t// in\n    tag_14:\n      mload(0x40)\n      dup1\n      swap2\n      sub\n      swap1\n      return\n        /* \"contracts/ico.sol\":3585:3735  function StopIDO() public {... */\n    tag_4:\n      tag_16\n      tag_17\n      jump\t// in\n    tag_16:\n      stop\n        /* \"contracts/ico.sol\":1403:1425  uint public tokenPrice */\n    tag_5:\n      tag_18\n      tag_19\n      jump\t// in\n    tag_18:\n      mload(0x40)\n      tag_20\n      swap2\n      swap1\n      tag_21\n      jump\t// in\n    tag_20:\n      mload(0x40)\n      dup1\n      swap2\n      sub\n      swap1\n      return\n        /* \"contracts/ico.sol\":2211:2655  function purchaseToken(uint _amount)  public nonReentrant{... */\n    tag_6:\n      tag_22\n      0x04\n      dup1\n      calldatasize\n      sub\n      dup2\n      add\n      swap1\n      tag_23\n      swap2\n      swap1\n      tag_24\n      jump\t// in\n    tag_23:\n      tag_25\n      jump\t// in\n    tag_22:\n      stop\n        /* \"contracts/ico.sol\":3166:3423  function editIco(uint _tokenPrice, uint256 _targetSale) public{... */\n    tag_7:\n      tag_26\n      0x04\n      dup1\n      calldatasize\n      sub\n      dup2\n      add\n      swap1\n      tag_27\n      swap2\n      swap1\n      tag_28\n      jump\t// in\n    tag_27:\n      tag_29\n      jump\t// in\n    tag_26:\n      stop\n        /* \"contracts/ico.sol\":1332:1361  address public immutable USDT */\n    tag_8:\n      tag_30\n      tag_31\n      jump\t// in\n    tag_30:\n      mload(0x40)\n      tag_32\n      swap2\n      swap1\n      tag_15\n      jump\t// in\n    tag_32:\n      mload(0x40)\n      dup1\n      swap2\n      sub\n      swap1\n      return\n        /* \"contracts/ico.sol\":2663:3158  function claimPurchasedToken() external nonReentrant {... */\n    tag_9:\n      tag_33\n      tag_34\n      jump\t// in\n    tag_33:\n      stop\n        /* \"contracts/ico.sol\":3431:3577  function BeginIDO() public {... */\n    tag_10:\n      tag_35\n      tag_36\n      jump\t// in\n    tag_35:\n      stop\n        /* \"contracts/ico.sol\":1368:1396  address public immutable DAZ */\n    tag_13:\n      immutable(\"0xb2defa75886dc68fff8e07e15f8c710632f536eafc1958aaf9db286a05b10ca2\")\n      dup2\n      jump\t// out\n        /* \"contracts/ico.sol\":3585:3735  function StopIDO() public {... */\n    tag_17:\n        /* \"contracts/ico.sol\":3644:3649  owner */\n      0x02\n      0x00\n      swap1\n      sload\n      swap1\n      0x0100\n      exp\n      swap1\n      div\n      0xffffffffffffffffffffffffffffffffffffffff\n      and\n        /* \"contracts/ico.sol\":3630:3649  msg.sender == owner */\n      0xffffffffffffffffffffffffffffffffffffffff\n      and\n        /* \"contracts/ico.sol\":3630:3640  msg.sender */\n      caller\n        /* \"contracts/ico.sol\":3630:3649  msg.sender == owner */\n      0xffffffffffffffffffffffffffffffffffffffff\n      and\n      eq\n        /* \"contracts/ico.sol\":3622:3650  require(msg.sender == owner) */\n      tag_38\n      jumpi\n      0x00\n      dup1\n      revert\n    tag_38:\n        /* \"contracts/ico.sol\":3676:3681  false */\n      0x00\n        /* \"contracts/ico.sol\":3663:3673  IDOStarted */\n      0x02\n      0x14\n        /* \"contracts/ico.sol\":3663:3681  IDOStarted = false */\n      0x0100\n      exp\n      dup2\n      sload\n      dup2\n      0xff\n      mul\n      not\n      and\n      swap1\n      dup4\n      iszero\n      iszero\n      mul\n      or\n      swap1\n      sstore\n      pop\n        /* \"contracts/ico.sol\":3697:3727  ICOStartAlert(\"ICO is paused\") */\n      0x71002079ab3de7feb03ee30c84baf1d2350d4ffe16709d3dacb5e1037a0fe1cc\n      mload(0x40)\n      tag_39\n      swap1\n      tag_40\n      jump\t// in\n    tag_39:\n      mload(0x40)\n      dup1\n      swap2\n      sub\n      swap1\n      log1\n        /* \"contracts/ico.sol\":3585:3735  function StopIDO() public {... */\n      jump\t// out\n        /* \"contracts/ico.sol\":1403:1425  uint public tokenPrice */\n    tag_19:\n      sload(0x01)\n      dup2\n      jump\t// out\n        /* \"contracts/ico.sol\":2211:2655  function purchaseToken(uint _amount)  public nonReentrant{... */\n    tag_25:\n        /* \"@openzeppelin/contracts/security/ReentrancyGuard.sol\":1744:1745  2 */\n      0x02\n        /* \"@openzeppelin/contracts/security/ReentrancyGuard.sol\":2325:2332  _status */\n      sload(0x00)\n        /* \"@openzeppelin/contracts/security/ReentrancyGuard.sol\":2325:2344  _status != _ENTERED */\n      sub\n        /* \"@openzeppelin/contracts/security/ReentrancyGuard.sol\":2317:2380  require(_status != _ENTERED, \"ReentrancyGuard: reentrant call\") */\n      tag_42\n      jumpi\n      mload(0x40)\n      0x08c379a000000000000000000000000000000000000000000000000000000000\n      dup2\n      mstore\n      0x04\n      add\n      tag_43\n      swap1\n      tag_44\n      jump\t// in\n    tag_43:\n      mload(0x40)\n      dup1\n      swap2\n      sub\n      swap1\n      revert\n    tag_42:\n        /* \"@openzeppelin/contracts/security/ReentrancyGuard.sol\":1744:1745  2 */\n      0x02\n        /* \"@openzeppelin/contracts/security/ReentrancyGuard.sol\":2455:2462  _status */\n      0x00\n        /* \"@openzeppelin/contracts/security/ReentrancyGuard.sol\":2455:2473  _status = _ENTERED */\n      dup2\n      swap1\n      sstore\n      pop\n        /* \"contracts/ico.sol\":2301:2305  true */\n      0x01\n        /* \"contracts/ico.sol\":2287:2305  IDOStarted == true */\n      iszero\n      iszero\n        /* \"contracts/ico.sol\":2287:2297  IDOStarted */\n      0x02\n      0x14\n      swap1\n      sload\n      swap1\n      0x0100\n      exp\n      swap1\n      div\n      0xff\n      and\n        /* \"contracts/ico.sol\":2287:2305  IDOStarted == true */\n      iszero\n      iszero\n      eq\n        /* \"contracts/ico.sol\":2279:2329  require(IDOStarted == true, \"IDO has not started\") */\n      tag_46\n      jumpi\n      mload(0x40)\n      0x08c379a000000000000000000000000000000000000000000000000000000000\n      dup2\n      mstore\n      0x04\n      add\n      tag_47\n      swap1\n      tag_48\n      jump\t// in\n    tag_47:\n      mload(0x40)\n      dup1\n      swap2\n      sub\n      swap1\n      revert\n    tag_46:\n        /* \"contracts/ico.sol\":2340:2353  uint256 value */\n      0x00\n        /* \"contracts/ico.sol\":2370:2377  _amount */\n      dup2\n        /* \"contracts/ico.sol\":2356:2367  totalRaised */\n      sload(0x04)\n        /* \"contracts/ico.sol\":2356:2377  totalRaised + _amount */\n      tag_49\n      swap2\n      swap1\n      tag_50\n      jump\t// in\n    tag_49:\n        /* \"contracts/ico.sol\":2340:2377  uint256 value = totalRaised + _amount */\n      swap1\n      pop\n        /* \"contracts/ico.sol\":2404:2414  targetSale */\n      sload(0x03)\n        /* \"contracts/ico.sol\":2396:2401  value */\n      dup2\n        /* \"contracts/ico.sol\":2396:2414  value < targetSale */\n      lt\n        /* \"contracts/ico.sol\":2388:2443  require(value < targetSale, \"All tokens has been sold\") */\n      tag_51\n      jumpi\n      mload(0x40)\n      0x08c379a000000000000000000000000000000000000000000000000000000000\n      dup2\n      mstore\n      0x04\n      add\n      tag_52\n      swap1\n      tag_53\n      jump\t// in\n    tag_52:\n      mload(0x40)\n      dup1\n      swap2\n      sub\n      swap1\n      revert\n    tag_51:\n        /* \"contracts/ico.sol\":2454:2519  IKRC20(USDT).safeTransferFrom(msg.sender, address(this), _amount) */\n      tag_54\n        /* \"contracts/ico.sol\":2484:2494  msg.sender */\n      caller\n        /* \"contracts/ico.sol\":2504:2508  this */\n      address\n        /* \"contracts/ico.sol\":2511:2518  _amount */\n      dup5\n        /* \"contracts/ico.sol\":2461:2465  USDT */\n      immutable(\"0xc8a6f112e7620748ca3ae6a49a58464897133c24b6f43e9fa71155cd2626380a\")\n        /* \"contracts/ico.sol\":2454:2483  IKRC20(USDT).safeTransferFrom */\n      0xffffffffffffffffffffffffffffffffffffffff\n      and\n      tag_55\n      swap1\n        /* \"contracts/ico.sol\":2454:2519  IKRC20(USDT).safeTransferFrom(msg.sender, address(this), _amount) */\n      swap4\n      swap3\n      swap2\n      swap1\n      0xffffffff\n      and\n      jump\t// in\n    tag_54:\n        /* \"contracts/ico.sol\":2555:2562  _amount */\n      dup2\n        /* \"contracts/ico.sol\":2530:2538  purchase */\n      0x05\n        /* \"contracts/ico.sol\":2530:2550  purchase[msg.sender] */\n      0x00\n        /* \"contracts/ico.sol\":2539:2549  msg.sender */\n      caller\n        /* \"contracts/ico.sol\":2530:2550  purchase[msg.sender] */\n      0xffffffffffffffffffffffffffffffffffffffff\n      and\n      0xffffffffffffffffffffffffffffffffffffffff\n      and\n      dup2\n      mstore\n      0x20\n      add\n      swap1\n      dup2\n      mstore\n      0x20\n      add\n      0x00\n      keccak256\n      0x00\n        /* \"contracts/ico.sol\":2530:2562  purchase[msg.sender]  += _amount */\n      dup3\n      dup3\n      sload\n      tag_56\n      swap2\n      swap1\n      tag_50\n      jump\t// in\n    tag_56:\n      swap3\n      pop\n      pop\n      dup2\n      swap1\n      sstore\n      pop\n        /* \"contracts/ico.sol\":2588:2595  _amount */\n      dup2\n        /* \"contracts/ico.sol\":2573:2584  totalRaised */\n      0x04\n      0x00\n        /* \"contracts/ico.sol\":2573:2595  totalRaised += _amount */\n      dup3\n      dup3\n      sload\n      tag_57\n      swap2\n      swap1\n      tag_50\n      jump\t// in\n    tag_57:\n      swap3\n      pop\n      pop\n      dup2\n      swap1\n      sstore\n      pop\n        /* \"contracts/ico.sol\":2627:2637  msg.sender */\n      caller\n        /* \"contracts/ico.sol\":2611:2647  latestPurchased(msg.sender, _amount) */\n      0xffffffffffffffffffffffffffffffffffffffff\n      and\n      0xda4cadf0d4383cb43c8249e3cc678f6690bdbaa01421c99fd9b14edac62cde80\n        /* \"contracts/ico.sol\":2639:2646  _amount */\n      dup4\n        /* \"contracts/ico.sol\":2611:2647  latestPurchased(msg.sender, _amount) */\n      mload(0x40)\n      tag_58\n      swap2\n      swap1\n      tag_21\n      jump\t// in\n    tag_58:\n      mload(0x40)\n      dup1\n      swap2\n      sub\n      swap1\n      log2\n        /* \"contracts/ico.sol\":2268:2655  {... */\n      pop\n        /* \"@openzeppelin/contracts/security/ReentrancyGuard.sol\":1701:1702  1 */\n      0x01\n        /* \"@openzeppelin/contracts/security/ReentrancyGuard.sol\":2628:2635  _status */\n      0x00\n        /* \"@openzeppelin/contracts/security/ReentrancyGuard.sol\":2628:2650  _status = _NOT_ENTERED */\n      dup2\n      swap1\n      sstore\n      pop\n        /* \"contracts/ico.sol\":2211:2655  function purchaseToken(uint _amount)  public nonReentrant{... */\n      pop\n      jump\t// out\n        /* \"contracts/ico.sol\":3166:3423  function editIco(uint _tokenPrice, uint256 _targetSale) public{... */\n    tag_29:\n        /* \"contracts/ico.sol\":3261:3266  owner */\n      0x02\n      0x00\n      swap1\n      sload\n      swap1\n      0x0100\n      exp\n      swap1\n      div\n      0xffffffffffffffffffffffffffffffffffffffff\n      and\n        /* \"contracts/ico.sol\":3247:3266  msg.sender == owner */\n      0xffffffffffffffffffffffffffffffffffffffff\n      and\n        /* \"contracts/ico.sol\":3247:3257  msg.sender */\n      caller\n        /* \"contracts/ico.sol\":3247:3266  msg.sender == owner */\n      0xffffffffffffffffffffffffffffffffffffffff\n      and\n      eq\n        /* \"contracts/ico.sol\":3239:3267  require(msg.sender == owner) */\n      tag_60\n      jumpi\n      0x00\n      dup1\n      revert\n    tag_60:\n        /* \"contracts/ico.sol\":3307:3315  10 ** 18 */\n      0x0de0b6b3a7640000\n        /* \"contracts/ico.sol\":3293:3304  _tokenPrice */\n      dup3\n        /* \"contracts/ico.sol\":3293:3315  _tokenPrice * 10 ** 18 */\n      tag_61\n      swap2\n      swap1\n      tag_62\n      jump\t// in\n    tag_61:\n        /* \"contracts/ico.sol\":3280:3290  tokenPrice */\n      0x01\n        /* \"contracts/ico.sol\":3280:3315  tokenPrice = _tokenPrice * 10 ** 18 */\n      dup2\n      swap1\n      sstore\n      pop\n        /* \"contracts/ico.sol\":3353:3361  10 ** 18 */\n      0x0de0b6b3a7640000\n        /* \"contracts/ico.sol\":3339:3350  _targetSale */\n      dup2\n        /* \"contracts/ico.sol\":3339:3361  _targetSale * 10 ** 18 */\n      tag_63\n      swap2\n      swap1\n      tag_62\n      jump\t// in\n    tag_63:\n        /* \"contracts/ico.sol\":3326:3336  targetSale */\n      0x03\n        /* \"contracts/ico.sol\":3326:3361  targetSale = _targetSale * 10 ** 18 */\n      dup2\n      swap1\n      sstore\n      pop\n        /* \"contracts/ico.sol\":3379:3415  icoUpdate( _tokenPrice, _targetSale) */\n      0x314bf1ccc32c608a6175053b0da1933b3a745b3f799011003a4c39aab0c518a3\n        /* \"contracts/ico.sol\":3390:3401  _tokenPrice */\n      dup3\n        /* \"contracts/ico.sol\":3403:3414  _targetSale */\n      dup3\n        /* \"contracts/ico.sol\":3379:3415  icoUpdate( _tokenPrice, _targetSale) */\n      mload(0x40)\n      tag_64\n      swap3\n      swap2\n      swap1\n      tag_65\n      jump\t// in\n    tag_64:\n      mload(0x40)\n      dup1\n      swap2\n      sub\n      swap1\n      log1\n        /* \"contracts/ico.sol\":3166:3423  function editIco(uint _tokenPrice, uint256 _targetSale) public{... */\n      pop\n      pop\n      jump\t// out\n        /* \"contracts/ico.sol\":1332:1361  address public immutable USDT */\n    tag_31:\n      immutable(\"0xc8a6f112e7620748ca3ae6a49a58464897133c24b6f43e9fa71155cd2626380a\")\n      dup2\n      jump\t// out\n        /* \"contracts/ico.sol\":2663:3158  function claimPurchasedToken() external nonReentrant {... */\n    tag_34:\n        /* \"@openzeppelin/contracts/security/ReentrancyGuard.sol\":1744:1745  2 */\n      0x02\n        /* \"@openzeppelin/contracts/security/ReentrancyGuard.sol\":2325:2332  _status */\n      sload(0x00)\n        /* \"@openzeppelin/contracts/security/ReentrancyGuard.sol\":2325:2344  _status != _ENTERED */\n      sub\n        /* \"@openzeppelin/contracts/security/ReentrancyGuard.sol\":2317:2380  require(_status != _ENTERED, \"ReentrancyGuard: reentrant call\") */\n      tag_67\n      jumpi\n      mload(0x40)\n      0x08c379a000000000000000000000000000000000000000000000000000000000\n      dup2\n      mstore\n      0x04\n      add\n      tag_68\n      swap1\n      tag_44\n      jump\t// in\n    tag_68:\n      mload(0x40)\n      dup1\n      swap2\n      sub\n      swap1\n      revert\n    tag_67:\n        /* \"@openzeppelin/contracts/security/ReentrancyGuard.sol\":1744:1745  2 */\n      0x02\n        /* \"@openzeppelin/contracts/security/ReentrancyGuard.sol\":2455:2462  _status */\n      0x00\n        /* \"@openzeppelin/contracts/security/ReentrancyGuard.sol\":2455:2473  _status = _ENTERED */\n      dup2\n      swap1\n      sstore\n      pop\n        /* \"contracts/ico.sol\":2749:2754  false */\n      0x00\n        /* \"contracts/ico.sol\":2735:2754  IDOStarted == false */\n      iszero\n      iszero\n        /* \"contracts/ico.sol\":2735:2745  IDOStarted */\n      0x02\n      0x14\n      swap1\n      sload\n      swap1\n      0x0100\n      exp\n      swap1\n      div\n      0xff\n      and\n        /* \"contracts/ico.sol\":2735:2754  IDOStarted == false */\n      iszero\n      iszero\n      eq\n        /* \"contracts/ico.sol\":2727:2796  require(IDOStarted == false, \"IDO Has  not ended, claim unavailable\") */\n      tag_70\n      jumpi\n      mload(0x40)\n      0x08c379a000000000000000000000000000000000000000000000000000000000\n      dup2\n      mstore\n      0x04\n      add\n      tag_71\n      swap1\n      tag_72\n      jump\t// in\n    tag_71:\n      mload(0x40)\n      dup1\n      swap2\n      sub\n      swap1\n      revert\n    tag_70:\n        /* \"contracts/ico.sol\":2838:2839  0 */\n      0x00\n        /* \"contracts/ico.sol\":2815:2823  purchase */\n      0x05\n        /* \"contracts/ico.sol\":2815:2835  purchase[msg.sender] */\n      0x00\n        /* \"contracts/ico.sol\":2824:2834  msg.sender */\n      caller\n        /* \"contracts/ico.sol\":2815:2835  purchase[msg.sender] */\n      0xffffffffffffffffffffffffffffffffffffffff\n      and\n      0xffffffffffffffffffffffffffffffffffffffff\n      and\n      dup2\n      mstore\n      0x20\n      add\n      swap1\n      dup2\n      mstore\n      0x20\n      add\n      0x00\n      keccak256\n      sload\n        /* \"contracts/ico.sol\":2815:2839  purchase[msg.sender] > 0 */\n      gt\n        /* \"contracts/ico.sol\":2807:2867  require(purchase[msg.sender] > 0, \"you did not participate\") */\n      tag_73\n      jumpi\n      mload(0x40)\n      0x08c379a000000000000000000000000000000000000000000000000000000000\n      dup2\n      mstore\n      0x04\n      add\n      tag_74\n      swap1\n      tag_75\n      jump\t// in\n    tag_74:\n      mload(0x40)\n      dup1\n      swap2\n      sub\n      swap1\n      revert\n    tag_73:\n        /* \"contracts/ico.sol\":2878:2902  uint256  claimableAmount */\n      0x00\n        /* \"contracts/ico.sol\":2929:2935  10**18 */\n      0x0de0b6b3a7640000\n        /* \"contracts/ico.sol\":2905:2913  purchase */\n      0x05\n        /* \"contracts/ico.sol\":2905:2925  purchase[msg.sender] */\n      0x00\n        /* \"contracts/ico.sol\":2914:2924  msg.sender */\n      caller\n        /* \"contracts/ico.sol\":2905:2925  purchase[msg.sender] */\n      0xffffffffffffffffffffffffffffffffffffffff\n      and\n      0xffffffffffffffffffffffffffffffffffffffff\n      and\n      dup2\n      mstore\n      0x20\n      add\n      swap1\n      dup2\n      mstore\n      0x20\n      add\n      0x00\n      keccak256\n      sload\n        /* \"contracts/ico.sol\":2905:2935  purchase[msg.sender]  * 10**18 */\n      tag_76\n      swap2\n      swap1\n      tag_62\n      jump\t// in\n    tag_76:\n        /* \"contracts/ico.sol\":2878:2935  uint256  claimableAmount = purchase[msg.sender]  * 10**18 */\n      swap1\n      pop\n        /* \"contracts/ico.sol\":2946:2960  uint256  token */\n      0x00\n        /* \"contracts/ico.sol\":2995:3001  10**18 */\n      0x0de0b6b3a7640000\n        /* \"contracts/ico.sol\":2982:2992  tokenPrice */\n      sload(0x01)\n        /* \"contracts/ico.sol\":2964:2979  claimableAmount */\n      dup4\n        /* \"contracts/ico.sol\":2964:2992  claimableAmount / tokenPrice */\n      tag_77\n      swap2\n      swap1\n      tag_78\n      jump\t// in\n    tag_77:\n        /* \"contracts/ico.sol\":2963:3001  (claimableAmount / tokenPrice)* 10**18 */\n      tag_79\n      swap2\n      swap1\n      tag_62\n      jump\t// in\n    tag_79:\n        /* \"contracts/ico.sol\":2946:3001  uint256  token = (claimableAmount / tokenPrice)* 10**18 */\n      swap1\n      pop\n        /* \"contracts/ico.sol\":3035:3036  0 */\n      0x00\n        /* \"contracts/ico.sol\":3012:3020  purchase */\n      0x05\n        /* \"contracts/ico.sol\":3012:3032  purchase[msg.sender] */\n      0x00\n        /* \"contracts/ico.sol\":3021:3031  msg.sender */\n      caller\n        /* \"contracts/ico.sol\":3012:3032  purchase[msg.sender] */\n      0xffffffffffffffffffffffffffffffffffffffff\n      and\n      0xffffffffffffffffffffffffffffffffffffffff\n      and\n      dup2\n      mstore\n      0x20\n      add\n      swap1\n      dup2\n      mstore\n      0x20\n      add\n      0x00\n      keccak256\n        /* \"contracts/ico.sol\":3012:3036  purchase[msg.sender] = 0 */\n      dup2\n      swap1\n      sstore\n      pop\n        /* \"contracts/ico.sol\":3054:3057  DAZ */\n      immutable(\"0xb2defa75886dc68fff8e07e15f8c710632f536eafc1958aaf9db286a05b10ca2\")\n        /* \"contracts/ico.sol\":3047:3071  IKRC20(DAZ).transferFrom */\n      0xffffffffffffffffffffffffffffffffffffffff\n      and\n      0x23b872dd\n        /* \"contracts/ico.sol\":3080:3084  this */\n      address\n        /* \"contracts/ico.sol\":3087:3097  msg.sender */\n      caller\n        /* \"contracts/ico.sol\":3099:3104  token */\n      dup5\n        /* \"contracts/ico.sol\":3047:3105  IKRC20(DAZ).transferFrom(address(this), msg.sender, token) */\n      mload(0x40)\n      dup5\n      0xffffffff\n      and\n      0xe0\n      shl\n      dup2\n      mstore\n      0x04\n      add\n      tag_80\n      swap4\n      swap3\n      swap2\n      swap1\n      tag_81\n      jump\t// in\n    tag_80:\n      0x20\n      mload(0x40)\n      dup1\n      dup4\n      sub\n      dup2\n      0x00\n      dup8\n      gas\n      call\n      iszero\n      dup1\n      iszero\n      tag_83\n      jumpi\n      returndatasize\n      0x00\n      dup1\n      returndatacopy\n      revert(0x00, returndatasize)\n    tag_83:\n      pop\n      pop\n      pop\n      pop\n      mload(0x40)\n      returndatasize\n      not(0x1f)\n      0x1f\n      dup3\n      add\n      and\n      dup3\n      add\n      dup1\n      0x40\n      mstore\n      pop\n      dup2\n      add\n      swap1\n      tag_84\n      swap2\n      swap1\n      tag_85\n      jump\t// in\n    tag_84:\n      pop\n        /* \"contracts/ico.sol\":3121:3150  claimToken(msg.sender, token) */\n      0x1698755f2f63264c31ca84d930df9dd8ca3ac92d33a0dd64d10154f95e4203ef\n        /* \"contracts/ico.sol\":3132:3142  msg.sender */\n      caller\n        /* \"contracts/ico.sol\":3144:3149  token */\n      dup3\n        /* \"contracts/ico.sol\":3121:3150  claimToken(msg.sender, token) */\n      mload(0x40)\n      tag_86\n      swap3\n      swap2\n      swap1\n      tag_87\n      jump\t// in\n    tag_86:\n      mload(0x40)\n      dup1\n      swap2\n      sub\n      swap1\n      log1\n        /* \"contracts/ico.sol\":2716:3158  {... */\n      pop\n      pop\n        /* \"@openzeppelin/contracts/security/ReentrancyGuard.sol\":1701:1702  1 */\n      0x01\n        /* \"@openzeppelin/contracts/security/ReentrancyGuard.sol\":2628:2635  _status */\n      0x00\n        /* \"@openzeppelin/contracts/security/ReentrancyGuard.sol\":2628:2650  _status = _NOT_ENTERED */\n      dup2\n      swap1\n      sstore\n      pop\n        /* \"contracts/ico.sol\":2663:3158  function claimPurchasedToken() external nonReentrant {... */\n      jump\t// out\n        /* \"contracts/ico.sol\":3431:3577  function BeginIDO() public {... */\n    tag_36:\n        /* \"contracts/ico.sol\":3491:3496  owner */\n      0x02\n      0x00\n      swap1\n      sload\n      swap1\n      0x0100\n      exp\n      swap1\n      div\n      0xffffffffffffffffffffffffffffffffffffffff\n      and\n        /* \"contracts/ico.sol\":3477:3496  msg.sender == owner */\n      0xffffffffffffffffffffffffffffffffffffffff\n      and\n        /* \"contracts/ico.sol\":3477:3487  msg.sender */\n      caller\n        /* \"contracts/ico.sol\":3477:3496  msg.sender == owner */\n      0xffffffffffffffffffffffffffffffffffffffff\n      and\n      eq\n        /* \"contracts/ico.sol\":3469:3497  require(msg.sender == owner) */\n      tag_89\n      jumpi\n      0x00\n      dup1\n      revert\n    tag_89:\n        /* \"contracts/ico.sol\":3523:3527  true */\n      0x01\n        /* \"contracts/ico.sol\":3510:3520  IDOStarted */\n      0x02\n      0x14\n        /* \"contracts/ico.sol\":3510:3527  IDOStarted = true */\n      0x0100\n      exp\n      dup2\n      sload\n      dup2\n      0xff\n      mul\n      not\n      and\n      swap1\n      dup4\n      iszero\n      iszero\n      mul\n      or\n      swap1\n      sstore\n      pop\n        /* \"contracts/ico.sol\":3543:3569  ICOStartAlert(\"ICO is on\") */\n      0x71002079ab3de7feb03ee30c84baf1d2350d4ffe16709d3dacb5e1037a0fe1cc\n      mload(0x40)\n      tag_90\n      swap1\n      tag_91\n      jump\t// in\n    tag_90:\n      mload(0x40)\n      dup1\n      swap2\n      sub\n      swap1\n      log1\n        /* \"contracts/ico.sol\":3431:3577  function BeginIDO() public {... */\n      jump\t// out\n        /* \"@openzeppelin/contracts/token/ERC20/utils/SafeERC20.sol\":974:1215  function safeTransferFrom(... */\n    tag_55:\n        /* \"@openzeppelin/contracts/token/ERC20/utils/SafeERC20.sol\":1112:1208  _callOptionalReturn(token, abi.encodeWithSelector(token.transferFrom.selector, from, to, value)) */\n      tag_93\n        /* \"@openzeppelin/contracts/token/ERC20/utils/SafeERC20.sol\":1132:1137  token */\n      dup5\n        /* \"@openzeppelin/contracts/token/ERC20/utils/SafeERC20.sol\":1162:1189  token.transferFrom.selector */\n      shl(0xe0, 0x23b872dd)\n        /* \"@openzeppelin/contracts/token/ERC20/utils/SafeERC20.sol\":1191:1195  from */\n      dup6\n        /* \"@openzeppelin/contracts/token/ERC20/utils/SafeERC20.sol\":1197:1199  to */\n      dup6\n        /* \"@openzeppelin/contracts/token/ERC20/utils/SafeERC20.sol\":1201:1206  value */\n      dup6\n        /* \"@openzeppelin/contracts/token/ERC20/utils/SafeERC20.sol\":1139:1207  abi.encodeWithSelector(token.transferFrom.selector, from, to, value) */\n      add(0x24, mload(0x40))\n      tag_94\n      swap4\n      swap3\n      swap2\n      swap1\n      tag_81\n      jump\t// in\n    tag_94:\n      mload(0x40)\n      0x20\n      dup2\n      dup4\n      sub\n      sub\n      dup2\n      mstore\n      swap1\n      0x40\n      mstore\n      swap1\n      not(0xffffffffffffffffffffffffffffffffffffffffffffffffffffffff)\n      and\n      0x20\n      dup3\n      add\n      dup1\n      mload\n      0xffffffffffffffffffffffffffffffffffffffffffffffffffffffff\n      dup4\n      dup2\n      dup4\n      and\n      or\n      dup4\n      mstore\n      pop\n      pop\n      pop\n      pop\n        /* \"@openzeppelin/contracts/token/ERC20/utils/SafeERC20.sol\":1112:1131  _callOptionalReturn */\n      tag_95\n        /* \"@openzeppelin/contracts/token/ERC20/utils/SafeERC20.sol\":1112:1208  _callOptionalReturn(token, abi.encodeWithSelector(token.transferFrom.selector, from, to, value)) */\n      jump\t// in\n    tag_93:\n        /* \"@openzeppelin/contracts/token/ERC20/utils/SafeERC20.sol\":974:1215  function safeTransferFrom(... */\n      pop\n      pop\n      pop\n      pop\n      jump\t// out\n        /* \"@openzeppelin/contracts/token/ERC20/utils/SafeERC20.sol\":3747:4453  function _callOptionalReturn(IERC20 token, bytes memory data) private {... */\n    tag_95:\n        /* \"@openzeppelin/contracts/token/ERC20/utils/SafeERC20.sol\":4166:4189  bytes memory returndata */\n      0x00\n        /* \"@openzeppelin/contracts/token/ERC20/utils/SafeERC20.sol\":4192:4261  address(token).functionCall(data, \"SafeERC20: low-level call failed\") */\n      tag_97\n        /* \"@openzeppelin/contracts/token/ERC20/utils/SafeERC20.sol\":4220:4224  data */\n      dup3\n        /* \"@openzeppelin/contracts/token/ERC20/utils/SafeERC20.sol\":4192:4261  address(token).functionCall(data, \"SafeERC20: low-level call failed\") */\n      mload(0x40)\n      dup1\n      0x40\n      add\n      0x40\n      mstore\n      dup1\n      0x20\n      dup2\n      mstore\n      0x20\n      add\n      0x5361666545524332303a206c6f772d6c6576656c2063616c6c206661696c6564\n      dup2\n      mstore\n      pop\n        /* \"@openzeppelin/contracts/token/ERC20/utils/SafeERC20.sol\":4200:4205  token */\n      dup6\n        /* \"@openzeppelin/contracts/token/ERC20/utils/SafeERC20.sol\":4192:4219  address(token).functionCall */\n      0xffffffffffffffffffffffffffffffffffffffff\n      and\n      tag_98\n      swap1\n        /* \"@openzeppelin/contracts/token/ERC20/utils/SafeERC20.sol\":4192:4261  address(token).functionCall(data, \"SafeERC20: low-level call failed\") */\n      swap3\n      swap2\n      swap1\n      0xffffffff\n      and\n      jump\t// in\n    tag_97:\n        /* \"@openzeppelin/contracts/token/ERC20/utils/SafeERC20.sol\":4166:4261  bytes memory returndata = address(token).functionCall(data, \"SafeERC20: low-level call failed\") */\n      swap1\n      pop\n        /* \"@openzeppelin/contracts/token/ERC20/utils/SafeERC20.sol\":4295:4296  0 */\n      0x00\n        /* \"@openzeppelin/contracts/token/ERC20/utils/SafeERC20.sol\":4275:4285  returndata */\n      dup2\n        /* \"@openzeppelin/contracts/token/ERC20/utils/SafeERC20.sol\":4275:4292  returndata.length */\n      mload\n        /* \"@openzeppelin/contracts/token/ERC20/utils/SafeERC20.sol\":4275:4296  returndata.length > 0 */\n      gt\n        /* \"@openzeppelin/contracts/token/ERC20/utils/SafeERC20.sol\":4271:4447  if (returndata.length > 0) {... */\n      iszero\n      tag_99\n      jumpi\n        /* \"@openzeppelin/contracts/token/ERC20/utils/SafeERC20.sol\":4370:4380  returndata */\n      dup1\n        /* \"@openzeppelin/contracts/token/ERC20/utils/SafeERC20.sol\":4359:4389  abi.decode(returndata, (bool)) */\n      dup1\n      0x20\n      add\n      swap1\n      mload\n      dup2\n      add\n      swap1\n      tag_100\n      swap2\n      swap1\n      tag_85\n      jump\t// in\n    tag_100:\n        /* \"@openzeppelin/contracts/token/ERC20/utils/SafeERC20.sol\":4351:4436  require(abi.decode(returndata, (bool)), \"SafeERC20: ERC20 operation did not succeed\") */\n      tag_101\n      jumpi\n      mload(0x40)\n      0x08c379a000000000000000000000000000000000000000000000000000000000\n      dup2\n      mstore\n      0x04\n      add\n      tag_102\n      swap1\n      tag_103\n      jump\t// in\n    tag_102:\n      mload(0x40)\n      dup1\n      swap2\n      sub\n      swap1\n      revert\n    tag_101:\n        /* \"@openzeppelin/contracts/token/ERC20/utils/SafeERC20.sol\":4271:4447  if (returndata.length > 0) {... */\n    tag_99:\n        /* \"@openzeppelin/contracts/token/ERC20/utils/SafeERC20.sol\":3817:4453  {... */\n      pop\n        /* \"@openzeppelin/contracts/token/ERC20/utils/SafeERC20.sol\":3747:4453  function _callOptionalReturn(IERC20 token, bytes memory data) private {... */\n      pop\n      pop\n      jump\t// out\n        /* \"@openzeppelin/contracts/utils/Address.sol\":3861:4084  function functionCall(... */\n    tag_98:\n        /* \"@openzeppelin/contracts/utils/Address.sol\":3994:4006  bytes memory */\n      0x60\n        /* \"@openzeppelin/contracts/utils/Address.sol\":4025:4077  functionCallWithValue(target, data, 0, errorMessage) */\n      tag_105\n        /* \"@openzeppelin/contracts/utils/Address.sol\":4047:4053  target */\n      dup5\n        /* \"@openzeppelin/contracts/utils/Address.sol\":4055:4059  data */\n      dup5\n        /* \"@openzeppelin/contracts/utils/Address.sol\":4061:4062  0 */\n      0x00\n        /* \"@openzeppelin/contracts/utils/Address.sol\":4064:4076  errorMessage */\n      dup6\n        /* \"@openzeppelin/contracts/utils/Address.sol\":4025:4046  functionCallWithValue */\n      tag_106\n        /* \"@openzeppelin/contracts/utils/Address.sol\":4025:4077  functionCallWithValue(target, data, 0, errorMessage) */\n      jump\t// in\n    tag_105:\n        /* \"@openzeppelin/contracts/utils/Address.sol\":4018:4077  return functionCallWithValue(target, data, 0, errorMessage) */\n      swap1\n      pop\n        /* \"@openzeppelin/contracts/utils/Address.sol\":3861:4084  function functionCall(... */\n      swap4\n      swap3\n      pop\n      pop\n      pop\n      jump\t// out\n        /* \"@openzeppelin/contracts/utils/Address.sol\":4948:5447  function functionCallWithValue(... */\n    tag_106:\n        /* \"@openzeppelin/contracts/utils/Address.sol\":5113:5125  bytes memory */\n      0x60\n        /* \"@openzeppelin/contracts/utils/Address.sol\":5170:5175  value */\n      dup3\n        /* \"@openzeppelin/contracts/utils/Address.sol\":5145:5166  address(this).balance */\n      selfbalance\n        /* \"@openzeppelin/contracts/utils/Address.sol\":5145:5175  address(this).balance >= value */\n      lt\n      iszero\n        /* \"@openzeppelin/contracts/utils/Address.sol\":5137:5218  require(address(this).balance >= value, \"Address: insufficient balance for call\") */\n      tag_108\n      jumpi\n      mload(0x40)\n      0x08c379a000000000000000000000000000000000000000000000000000000000\n      dup2\n      mstore\n      0x04\n      add\n      tag_109\n      swap1\n      tag_110\n      jump\t// in\n    tag_109:\n      mload(0x40)\n      dup1\n      swap2\n      sub\n      swap1\n      revert\n    tag_108:\n        /* \"@openzeppelin/contracts/utils/Address.sol\":5236:5254  isContract(target) */\n      tag_111\n        /* \"@openzeppelin/contracts/utils/Address.sol\":5247:5253  target */\n      dup6\n        /* \"@openzeppelin/contracts/utils/Address.sol\":5236:5246  isContract */\n      tag_112\n        /* \"@openzeppelin/contracts/utils/Address.sol\":5236:5254  isContract(target) */\n      jump\t// in\n    tag_111:\n        /* \"@openzeppelin/contracts/utils/Address.sol\":5228:5288  require(isContract(target), \"Address: call to non-contract\") */\n      tag_113\n      jumpi\n      mload(0x40)\n      0x08c379a000000000000000000000000000000000000000000000000000000000\n      dup2\n      mstore\n      0x04\n      add\n      tag_114\n      swap1\n      tag_115\n      jump\t// in\n    tag_114:\n      mload(0x40)\n      dup1\n      swap2\n      sub\n      swap1\n      revert\n    tag_113:\n        /* \"@openzeppelin/contracts/utils/Address.sol\":5300:5312  bool success */\n      0x00\n        /* \"@openzeppelin/contracts/utils/Address.sol\":5314:5337  bytes memory returndata */\n      dup1\n        /* \"@openzeppelin/contracts/utils/Address.sol\":5341:5347  target */\n      dup7\n        /* \"@openzeppelin/contracts/utils/Address.sol\":5341:5352  target.call */\n      0xffffffffffffffffffffffffffffffffffffffff\n      and\n        /* \"@openzeppelin/contracts/utils/Address.sol\":5360:5365  value */\n      dup6\n        /* \"@openzeppelin/contracts/utils/Address.sol\":5367:5371  data */\n      dup8\n        /* \"@openzeppelin/contracts/utils/Address.sol\":5341:5372  target.call{value: value}(data) */\n      mload(0x40)\n      tag_116\n      swap2\n      swap1\n      tag_117\n      jump\t// in\n    tag_116:\n      0x00\n      mload(0x40)\n      dup1\n      dup4\n      sub\n      dup2\n      dup6\n      dup8\n      gas\n      call\n      swap3\n      pop\n      pop\n      pop\n      returndatasize\n      dup1\n      0x00\n      dup2\n      eq\n      tag_120\n      jumpi\n      mload(0x40)\n      swap2\n      pop\n      and(add(returndatasize, 0x3f), not(0x1f))\n      dup3\n      add\n      0x40\n      mstore\n      returndatasize\n      dup3\n      mstore\n      returndatasize\n      0x00\n      0x20\n      dup5\n      add\n      returndatacopy\n      jump(tag_119)\n    tag_120:\n      0x60\n      swap2\n      pop\n    tag_119:\n      pop\n        /* \"@openzeppelin/contracts/utils/Address.sol\":5299:5372  (bool success, bytes memory returndata) = target.call{value: value}(data) */\n      swap2\n      pop\n      swap2\n      pop\n        /* \"@openzeppelin/contracts/utils/Address.sol\":5389:5440  verifyCallResult(success, returndata, errorMessage) */\n      tag_121\n        /* \"@openzeppelin/contracts/utils/Address.sol\":5406:5413  success */\n      dup3\n        /* \"@openzeppelin/contracts/utils/Address.sol\":5415:5425  returndata */\n      dup3\n        /* \"@openzeppelin/contracts/utils/Address.sol\":5427:5439  errorMessage */\n      dup7\n        /* \"@openzeppelin/contracts/utils/Address.sol\":5389:5405  verifyCallResult */\n      tag_122\n        /* \"@openzeppelin/contracts/utils/Address.sol\":5389:5440  verifyCallResult(success, returndata, errorMessage) */\n      jump\t// in\n    tag_121:\n        /* \"@openzeppelin/contracts/utils/Address.sol\":5382:5440  return verifyCallResult(success, returndata, errorMessage) */\n      swap3\n      pop\n      pop\n      pop\n        /* \"@openzeppelin/contracts/utils/Address.sol\":4948:5447  function functionCallWithValue(... */\n      swap5\n      swap4\n      pop\n      pop\n      pop\n      pop\n      jump\t// out\n        /* \"@openzeppelin/contracts/utils/Address.sol\":1175:1495  function isContract(address account) internal view returns (bool) {... */\n    tag_112:\n        /* \"@openzeppelin/contracts/utils/Address.sol\":1235:1239  bool */\n      0x00\n        /* \"@openzeppelin/contracts/utils/Address.sol\":1487:1488  0 */\n      dup1\n        /* \"@openzeppelin/contracts/utils/Address.sol\":1465:1472  account */\n      dup3\n        /* \"@openzeppelin/contracts/utils/Address.sol\":1465:1484  account.code.length */\n      0xffffffffffffffffffffffffffffffffffffffff\n      and\n      extcodesize\n        /* \"@openzeppelin/contracts/utils/Address.sol\":1465:1488  account.code.length > 0 */\n      gt\n        /* \"@openzeppelin/contracts/utils/Address.sol\":1458:1488  return account.code.length > 0 */\n      swap1\n      pop\n        /* \"@openzeppelin/contracts/utils/Address.sol\":1175:1495  function isContract(address account) internal view returns (bool) {... */\n      swap2\n      swap1\n      pop\n      jump\t// out\n        /* \"@openzeppelin/contracts/utils/Address.sol\":7561:8303  function verifyCallResult(... */\n    tag_122:\n        /* \"@openzeppelin/contracts/utils/Address.sol\":7707:7719  bytes memory */\n      0x60\n        /* \"@openzeppelin/contracts/utils/Address.sol\":7735:7742  success */\n      dup4\n        /* \"@openzeppelin/contracts/utils/Address.sol\":7731:8297  if (success) {... */\n      iszero\n      tag_125\n      jumpi\n        /* \"@openzeppelin/contracts/utils/Address.sol\":7765:7775  returndata */\n      dup3\n        /* \"@openzeppelin/contracts/utils/Address.sol\":7758:7775  return returndata */\n      swap1\n      pop\n      jump(tag_124)\n        /* \"@openzeppelin/contracts/utils/Address.sol\":7731:8297  if (success) {... */\n    tag_125:\n        /* \"@openzeppelin/contracts/utils/Address.sol\":7896:7897  0 */\n      0x00\n        /* \"@openzeppelin/contracts/utils/Address.sol\":7876:7886  returndata */\n      dup4\n        /* \"@openzeppelin/contracts/utils/Address.sol\":7876:7893  returndata.length */\n      mload\n        /* \"@openzeppelin/contracts/utils/Address.sol\":7876:7897  returndata.length > 0 */\n      gt\n        /* \"@openzeppelin/contracts/utils/Address.sol\":7872:8287  if (returndata.length > 0) {... */\n      iszero\n      tag_127\n      jumpi\n        /* \"@openzeppelin/contracts/utils/Address.sol\":8120:8130  returndata */\n      dup3\n        /* \"@openzeppelin/contracts/utils/Address.sol\":8114:8131  mload(returndata) */\n      mload\n        /* \"@openzeppelin/contracts/utils/Address.sol\":8180:8195  returndata_size */\n      dup1\n        /* \"@openzeppelin/contracts/utils/Address.sol\":8167:8177  returndata */\n      dup5\n        /* \"@openzeppelin/contracts/utils/Address.sol\":8163:8165  32 */\n      0x20\n        /* \"@openzeppelin/contracts/utils/Address.sol\":8159:8178  add(32, returndata) */\n      add\n        /* \"@openzeppelin/contracts/utils/Address.sol\":8152:8196  revert(add(32, returndata), returndata_size) */\n      revert\n        /* \"@openzeppelin/contracts/utils/Address.sol\":7872:8287  if (returndata.length > 0) {... */\n    tag_127:\n        /* \"@openzeppelin/contracts/utils/Address.sol\":8259:8271  errorMessage */\n      dup2\n        /* \"@openzeppelin/contracts/utils/Address.sol\":8252:8272  revert(errorMessage) */\n      mload(0x40)\n      0x08c379a000000000000000000000000000000000000000000000000000000000\n      dup2\n      mstore\n      0x04\n      add\n      tag_129\n      swap2\n      swap1\n      tag_130\n      jump\t// in\n    tag_129:\n      mload(0x40)\n      dup1\n      swap2\n      sub\n      swap1\n      revert\n        /* \"@openzeppelin/contracts/utils/Address.sol\":7561:8303  function verifyCallResult(... */\n    tag_124:\n      swap4\n      swap3\n      pop\n      pop\n      pop\n      jump\t// out\n        /* \"#utility.yul\":7:133   */\n    tag_131:\n        /* \"#utility.yul\":44:51   */\n      0x00\n        /* \"#utility.yul\":84:126   */\n      0xffffffffffffffffffffffffffffffffffffffff\n        /* \"#utility.yul\":77:82   */\n      dup3\n        /* \"#utility.yul\":73:127   */\n      and\n        /* \"#utility.yul\":62:127   */\n      swap1\n      pop\n        /* \"#utility.yul\":7:133   */\n      swap2\n      swap1\n      pop\n      jump\t// out\n        /* \"#utility.yul\":139:235   */\n    tag_132:\n        /* \"#utility.yul\":176:183   */\n      0x00\n        /* \"#utility.yul\":205:229   */\n      tag_177\n        /* \"#utility.yul\":223:228   */\n      dup3\n        /* \"#utility.yul\":205:229   */\n      tag_131\n      jump\t// in\n    tag_177:\n        /* \"#utility.yul\":194:229   */\n      swap1\n      pop\n        /* \"#utility.yul\":139:235   */\n      swap2\n      swap1\n      pop\n      jump\t// out\n        /* \"#utility.yul\":241:359   */\n    tag_133:\n        /* \"#utility.yul\":328:352   */\n      tag_179\n        /* \"#utility.yul\":346:351   */\n      dup2\n        /* \"#utility.yul\":328:352   */\n      tag_132\n      jump\t// in\n    tag_179:\n        /* \"#utility.yul\":323:326   */\n      dup3\n        /* \"#utility.yul\":316:353   */\n      mstore\n        /* \"#utility.yul\":241:359   */\n      pop\n      pop\n      jump\t// out\n        /* \"#utility.yul\":365:587   */\n    tag_15:\n        /* \"#utility.yul\":458:462   */\n      0x00\n        /* \"#utility.yul\":496:498   */\n      0x20\n        /* \"#utility.yul\":485:494   */\n      dup3\n        /* \"#utility.yul\":481:499   */\n      add\n        /* \"#utility.yul\":473:499   */\n      swap1\n      pop\n        /* \"#utility.yul\":509:580   */\n      tag_181\n        /* \"#utility.yul\":577:578   */\n      0x00\n        /* \"#utility.yul\":566:575   */\n      dup4\n        /* \"#utility.yul\":562:579   */\n      add\n        /* \"#utility.yul\":553:559   */\n      dup5\n        /* \"#utility.yul\":509:580   */\n      tag_133\n      jump\t// in\n    tag_181:\n        /* \"#utility.yul\":365:587   */\n      swap3\n      swap2\n      pop\n      pop\n      jump\t// out\n        /* \"#utility.yul\":593:670   */\n    tag_134:\n        /* \"#utility.yul\":630:637   */\n      0x00\n        /* \"#utility.yul\":659:664   */\n      dup2\n        /* \"#utility.yul\":648:664   */\n      swap1\n      pop\n        /* \"#utility.yul\":593:670   */\n      swap2\n      swap1\n      pop\n      jump\t// out\n        /* \"#utility.yul\":676:794   */\n    tag_135:\n        /* \"#utility.yul\":763:787   */\n      tag_184\n        /* \"#utility.yul\":781:786   */\n      dup2\n        /* \"#utility.yul\":763:787   */\n      tag_134\n      jump\t// in\n    tag_184:\n        /* \"#utility.yul\":758:761   */\n      dup3\n        /* \"#utility.yul\":751:788   */\n      mstore\n        /* \"#utility.yul\":676:794   */\n      pop\n      pop\n      jump\t// out\n        /* \"#utility.yul\":800:1022   */\n    tag_21:\n        /* \"#utility.yul\":893:897   */\n      0x00\n        /* \"#utility.yul\":931:933   */\n      0x20\n        /* \"#utility.yul\":920:929   */\n      dup3\n        /* \"#utility.yul\":916:934   */\n      add\n        /* \"#utility.yul\":908:934   */\n      swap1\n      pop\n        /* \"#utility.yul\":944:1015   */\n      tag_186\n        /* \"#utility.yul\":1012:1013   */\n      0x00\n        /* \"#utility.yul\":1001:1010   */\n      dup4\n        /* \"#utility.yul\":997:1014   */\n      add\n        /* \"#utility.yul\":988:994   */\n      dup5\n        /* \"#utility.yul\":944:1015   */\n      tag_135\n      jump\t// in\n    tag_186:\n        /* \"#utility.yul\":800:1022   */\n      swap3\n      swap2\n      pop\n      pop\n      jump\t// out\n        /* \"#utility.yul\":1109:1226   */\n    tag_137:\n        /* \"#utility.yul\":1218:1219   */\n      0x00\n        /* \"#utility.yul\":1215:1216   */\n      dup1\n        /* \"#utility.yul\":1208:1220   */\n      revert\n        /* \"#utility.yul\":1355:1477   */\n    tag_139:\n        /* \"#utility.yul\":1428:1452   */\n      tag_191\n        /* \"#utility.yul\":1446:1451   */\n      dup2\n        /* \"#utility.yul\":1428:1452   */\n      tag_134\n      jump\t// in\n    tag_191:\n        /* \"#utility.yul\":1421:1426   */\n      dup2\n        /* \"#utility.yul\":1418:1453   */\n      eq\n        /* \"#utility.yul\":1408:1471   */\n      tag_192\n      jumpi\n        /* \"#utility.yul\":1467:1468   */\n      0x00\n        /* \"#utility.yul\":1464:1465   */\n      dup1\n        /* \"#utility.yul\":1457:1469   */\n      revert\n        /* \"#utility.yul\":1408:1471   */\n    tag_192:\n        /* \"#utility.yul\":1355:1477   */\n      pop\n      jump\t// out\n        /* \"#utility.yul\":1483:1622   */\n    tag_140:\n        /* \"#utility.yul\":1529:1534   */\n      0x00\n        /* \"#utility.yul\":1567:1573   */\n      dup2\n        /* \"#utility.yul\":1554:1574   */\n      calldataload\n        /* \"#utility.yul\":1545:1574   */\n      swap1\n      pop\n        /* \"#utility.yul\":1583:1616   */\n      tag_194\n        /* \"#utility.yul\":1610:1615   */\n      dup2\n        /* \"#utility.yul\":1583:1616   */\n      tag_139\n      jump\t// in\n    tag_194:\n        /* \"#utility.yul\":1483:1622   */\n      swap3\n      swap2\n      pop\n      pop\n      jump\t// out\n        /* \"#utility.yul\":1628:1957   */\n    tag_24:\n        /* \"#utility.yul\":1687:1693   */\n      0x00\n        /* \"#utility.yul\":1736:1738   */\n      0x20\n        /* \"#utility.yul\":1724:1733   */\n      dup3\n        /* \"#utility.yul\":1715:1722   */\n      dup5\n        /* \"#utility.yul\":1711:1734   */\n      sub\n        /* \"#utility.yul\":1707:1739   */\n      slt\n        /* \"#utility.yul\":1704:1823   */\n      iszero\n      tag_196\n      jumpi\n        /* \"#utility.yul\":1742:1821   */\n      tag_197\n      tag_137\n      jump\t// in\n    tag_197:\n        /* \"#utility.yul\":1704:1823   */\n    tag_196:\n        /* \"#utility.yul\":1862:1863   */\n      0x00\n        /* \"#utility.yul\":1887:1940   */\n      tag_198\n        /* \"#utility.yul\":1932:1939   */\n      dup5\n        /* \"#utility.yul\":1923:1929   */\n      dup3\n        /* \"#utility.yul\":1912:1921   */\n      dup6\n        /* \"#utility.yul\":1908:1930   */\n      add\n        /* \"#utility.yul\":1887:1940   */\n      tag_140\n      jump\t// in\n    tag_198:\n        /* \"#utility.yul\":1877:1940   */\n      swap2\n      pop\n        /* \"#utility.yul\":1833:1950   */\n      pop\n        /* \"#utility.yul\":1628:1957   */\n      swap3\n      swap2\n      pop\n      pop\n      jump\t// out\n        /* \"#utility.yul\":1963:2437   */\n    tag_28:\n        /* \"#utility.yul\":2031:2037   */\n      0x00\n        /* \"#utility.yul\":2039:2045   */\n      dup1\n        /* \"#utility.yul\":2088:2090   */\n      0x40\n        /* \"#utility.yul\":2076:2085   */\n      dup4\n        /* \"#utility.yul\":2067:2074   */\n      dup6\n        /* \"#utility.yul\":2063:2086   */\n      sub\n        /* \"#utility.yul\":2059:2091   */\n      slt\n        /* \"#utility.yul\":2056:2175   */\n      iszero\n      tag_200\n      jumpi\n        /* \"#utility.yul\":2094:2173   */\n      tag_201\n      tag_137\n      jump\t// in\n    tag_201:\n        /* \"#utility.yul\":2056:2175   */\n    tag_200:\n        /* \"#utility.yul\":2214:2215   */\n      0x00\n        /* \"#utility.yul\":2239:2292   */\n      tag_202\n        /* \"#utility.yul\":2284:2291   */\n      dup6\n        /* \"#utility.yul\":2275:2281   */\n      dup3\n        /* \"#utility.yul\":2264:2273   */\n      dup7\n        /* \"#utility.yul\":2260:2282   */\n      add\n        /* \"#utility.yul\":2239:2292   */\n      tag_140\n      jump\t// in\n    tag_202:\n        /* \"#utility.yul\":2229:2292   */\n      swap3\n      pop\n        /* \"#utility.yul\":2185:2302   */\n      pop\n        /* \"#utility.yul\":2341:2343   */\n      0x20\n        /* \"#utility.yul\":2367:2420   */\n      tag_203\n        /* \"#utility.yul\":2412:2419   */\n      dup6\n        /* \"#utility.yul\":2403:2409   */\n      dup3\n        /* \"#utility.yul\":2392:2401   */\n      dup7\n        /* \"#utility.yul\":2388:2410   */\n      add\n        /* \"#utility.yul\":2367:2420   */\n      tag_140\n      jump\t// in\n    tag_203:\n        /* \"#utility.yul\":2357:2420   */\n      swap2\n      pop\n        /* \"#utility.yul\":2312:2430   */\n      pop\n        /* \"#utility.yul\":1963:2437   */\n      swap3\n      pop\n      swap3\n      swap1\n      pop\n      jump\t// out\n        /* \"#utility.yul\":2443:2612   */\n    tag_141:\n        /* \"#utility.yul\":2527:2538   */\n      0x00\n        /* \"#utility.yul\":2561:2567   */\n      dup3\n        /* \"#utility.yul\":2556:2559   */\n      dup3\n        /* \"#utility.yul\":2549:2568   */\n      mstore\n        /* \"#utility.yul\":2601:2605   */\n      0x20\n        /* \"#utility.yul\":2596:2599   */\n      dup3\n        /* \"#utility.yul\":2592:2606   */\n      add\n        /* \"#utility.yul\":2577:2606   */\n      swap1\n      pop\n        /* \"#utility.yul\":2443:2612   */\n      swap3\n      swap2\n      pop\n      pop\n      jump\t// out\n        /* \"#utility.yul\":2618:2781   */\n    tag_142:\n        /* \"#utility.yul\":2758:2773   */\n      0x49434f2069732070617573656400000000000000000000000000000000000000\n        /* \"#utility.yul\":2754:2755   */\n      0x00\n        /* \"#utility.yul\":2746:2752   */\n      dup3\n        /* \"#utility.yul\":2742:2756   */\n      add\n        /* \"#utility.yul\":2735:2774   */\n      mstore\n        /* \"#utility.yul\":2618:2781   */\n      pop\n      jump\t// out\n        /* \"#utility.yul\":2787:3153   */\n    tag_143:\n        /* \"#utility.yul\":2929:2932   */\n      0x00\n        /* \"#utility.yul\":2950:3017   */\n      tag_207\n        /* \"#utility.yul\":3014:3016   */\n      0x0d\n        /* \"#utility.yul\":3009:3012   */\n      dup4\n        /* \"#utility.yul\":2950:3017   */\n      tag_141\n      jump\t// in\n    tag_207:\n        /* \"#utility.yul\":2943:3017   */\n      swap2\n      pop\n        /* \"#utility.yul\":3026:3119   */\n      tag_208\n        /* \"#utility.yul\":3115:3118   */\n      dup3\n        /* \"#utility.yul\":3026:3119   */\n      tag_142\n      jump\t// in\n    tag_208:\n        /* \"#utility.yul\":3144:3146   */\n      0x20\n        /* \"#utility.yul\":3139:3142   */\n      dup3\n        /* \"#utility.yul\":3135:3147   */\n      add\n        /* \"#utility.yul\":3128:3147   */\n      swap1\n      pop\n        /* \"#utility.yul\":2787:3153   */\n      swap2\n      swap1\n      pop\n      jump\t// out\n        /* \"#utility.yul\":3159:3578   */\n    tag_40:\n        /* \"#utility.yul\":3325:3329   */\n      0x00\n        /* \"#utility.yul\":3363:3365   */\n      0x20\n        /* \"#utility.yul\":3352:3361   */\n      dup3\n        /* \"#utility.yul\":3348:3366   */\n      add\n        /* \"#utility.yul\":3340:3366   */\n      swap1\n      pop\n        /* \"#utility.yul\":3412:3421   */\n      dup2\n        /* \"#utility.yul\":3406:3410   */\n      dup2\n        /* \"#utility.yul\":3402:3422   */\n      sub\n        /* \"#utility.yul\":3398:3399   */\n      0x00\n        /* \"#utility.yul\":3387:3396   */\n      dup4\n        /* \"#utility.yul\":3383:3400   */\n      add\n        /* \"#utility.yul\":3376:3423   */\n      mstore\n        /* \"#utility.yul\":3440:3571   */\n      tag_210\n        /* \"#utility.yul\":3566:3570   */\n      dup2\n        /* \"#utility.yul\":3440:3571   */\n      tag_143\n      jump\t// in\n    tag_210:\n        /* \"#utility.yul\":3432:3571   */\n      swap1\n      pop\n        /* \"#utility.yul\":3159:3578   */\n      swap2\n      swap1\n      pop\n      jump\t// out\n        /* \"#utility.yul\":3584:3765   */\n    tag_144:\n        /* \"#utility.yul\":3724:3757   */\n      0x5265656e7472616e637947756172643a207265656e7472616e742063616c6c00\n        /* \"#utility.yul\":3720:3721   */\n      0x00\n        /* \"#utility.yul\":3712:3718   */\n      dup3\n        /* \"#utility.yul\":3708:3722   */\n      add\n        /* \"#utility.yul\":3701:3758   */\n      mstore\n        /* \"#utility.yul\":3584:3765   */\n      pop\n      jump\t// out\n        /* \"#utility.yul\":3771:4137   */\n    tag_145:\n        /* \"#utility.yul\":3913:3916   */\n      0x00\n        /* \"#utility.yul\":3934:4001   */\n      tag_213\n        /* \"#utility.yul\":3998:4000   */\n      0x1f\n        /* \"#utility.yul\":3993:3996   */\n      dup4\n        /* \"#utility.yul\":3934:4001   */\n      tag_141\n      jump\t// in\n    tag_213:\n        /* \"#utility.yul\":3927:4001   */\n      swap2\n      pop\n        /* \"#utility.yul\":4010:4103   */\n      tag_214\n        /* \"#utility.yul\":4099:4102   */\n      dup3\n        /* \"#utility.yul\":4010:4103   */\n      tag_144\n      jump\t// in\n    tag_214:\n        /* \"#utility.yul\":4128:4130   */\n      0x20\n        /* \"#utility.yul\":4123:4126   */\n      dup3\n        /* \"#utility.yul\":4119:4131   */\n      add\n        /* \"#utility.yul\":4112:4131   */\n      swap1\n      pop\n        /* \"#utility.yul\":3771:4137   */\n      swap2\n      swap1\n      pop\n      jump\t// out\n        /* \"#utility.yul\":4143:4562   */\n    tag_44:\n        /* \"#utility.yul\":4309:4313   */\n      0x00\n        /* \"#utility.yul\":4347:4349   */\n      0x20\n        /* \"#utility.yul\":4336:4345   */\n      dup3\n        /* \"#utility.yul\":4332:4350   */\n      add\n        /* \"#utility.yul\":4324:4350   */\n      swap1\n      pop\n        /* \"#utility.yul\":4396:4405   */\n      dup2\n        /* \"#utility.yul\":4390:4394   */\n      dup2\n        /* \"#utility.yul\":4386:4406   */\n      sub\n        /* \"#utility.yul\":4382:4383   */\n      0x00\n        /* \"#utility.yul\":4371:4380   */\n      dup4\n        /* \"#utility.yul\":4367:4384   */\n      add\n        /* \"#utility.yul\":4360:4407   */\n      mstore\n        /* \"#utility.yul\":4424:4555   */\n      tag_216\n        /* \"#utility.yul\":4550:4554   */\n      dup2\n        /* \"#utility.yul\":4424:4555   */\n      tag_145\n      jump\t// in\n    tag_216:\n        /* \"#utility.yul\":4416:4555   */\n      swap1\n      pop\n        /* \"#utility.yul\":4143:4562   */\n      swap2\n      swap1\n      pop\n      jump\t// out\n        /* \"#utility.yul\":4568:4737   */\n    tag_146:\n        /* \"#utility.yul\":4708:4729   */\n      0x49444f20686173206e6f74207374617274656400000000000000000000000000\n        /* \"#utility.yul\":4704:4705   */\n      0x00\n        /* \"#utility.yul\":4696:4702   */\n      dup3\n        /* \"#utility.yul\":4692:4706   */\n      add\n        /* \"#utility.yul\":4685:4730   */\n      mstore\n        /* \"#utility.yul\":4568:4737   */\n      pop\n      jump\t// out\n        /* \"#utility.yul\":4743:5109   */\n    tag_147:\n        /* \"#utility.yul\":4885:4888   */\n      0x00\n        /* \"#utility.yul\":4906:4973   */\n      tag_219\n        /* \"#utility.yul\":4970:4972   */\n      0x13\n        /* \"#utility.yul\":4965:4968   */\n      dup4\n        /* \"#utility.yul\":4906:4973   */\n      tag_141\n      jump\t// in\n    tag_219:\n        /* \"#utility.yul\":4899:4973   */\n      swap2\n      pop\n        /* \"#utility.yul\":4982:5075   */\n      tag_220\n        /* \"#utility.yul\":5071:5074   */\n      dup3\n        /* \"#utility.yul\":4982:5075   */\n      tag_146\n      jump\t// in\n    tag_220:\n        /* \"#utility.yul\":5100:5102   */\n      0x20\n        /* \"#utility.yul\":5095:5098   */\n      dup3\n        /* \"#utility.yul\":5091:5103   */\n      add\n        /* \"#utility.yul\":5084:5103   */\n      swap1\n      pop\n        /* \"#utility.yul\":4743:5109   */\n      swap2\n      swap1\n      pop\n      jump\t// out\n        /* \"#utility.yul\":5115:5534   */\n    tag_48:\n        /* \"#utility.yul\":5281:5285   */\n      0x00\n        /* \"#utility.yul\":5319:5321   */\n      0x20\n        /* \"#utility.yul\":5308:5317   */\n      dup3\n        /* \"#utility.yul\":5304:5322   */\n      add\n        /* \"#utility.yul\":5296:5322   */\n      swap1\n      pop\n        /* \"#utility.yul\":5368:5377   */\n      dup2\n        /* \"#utility.yul\":5362:5366   */\n      dup2\n        /* \"#utility.yul\":5358:5378   */\n      sub\n        /* \"#utility.yul\":5354:5355   */\n      0x00\n        /* \"#utility.yul\":5343:5352   */\n      dup4\n        /* \"#utility.yul\":5339:5356   */\n      add\n        /* \"#utility.yul\":5332:5379   */\n      mstore\n        /* \"#utility.yul\":5396:5527   */\n      tag_222\n        /* \"#utility.yul\":5522:5526   */\n      dup2\n        /* \"#utility.yul\":5396:5527   */\n      tag_147\n      jump\t// in\n    tag_222:\n        /* \"#utility.yul\":5388:5527   */\n      swap1\n      pop\n        /* \"#utility.yul\":5115:5534   */\n      swap2\n      swap1\n      pop\n      jump\t// out\n        /* \"#utility.yul\":5540:5720   */\n    tag_148:\n        /* \"#utility.yul\":5588:5665   */\n      0x4e487b7100000000000000000000000000000000000000000000000000000000\n        /* \"#utility.yul\":5585:5586   */\n      0x00\n        /* \"#utility.yul\":5578:5666   */\n      mstore\n        /* \"#utility.yul\":5685:5689   */\n      0x11\n        /* \"#utility.yul\":5682:5683   */\n      0x04\n        /* \"#utility.yul\":5675:5690   */\n      mstore\n        /* \"#utility.yul\":5709:5713   */\n      0x24\n        /* \"#utility.yul\":5706:5707   */\n      0x00\n        /* \"#utility.yul\":5699:5714   */\n      revert\n        /* \"#utility.yul\":5726:5917   */\n    tag_50:\n        /* \"#utility.yul\":5766:5769   */\n      0x00\n        /* \"#utility.yul\":5785:5805   */\n      tag_225\n        /* \"#utility.yul\":5803:5804   */\n      dup3\n        /* \"#utility.yul\":5785:5805   */\n      tag_134\n      jump\t// in\n    tag_225:\n        /* \"#utility.yul\":5780:5805   */\n      swap2\n      pop\n        /* \"#utility.yul\":5819:5839   */\n      tag_226\n        /* \"#utility.yul\":5837:5838   */\n      dup4\n        /* \"#utility.yul\":5819:5839   */\n      tag_134\n      jump\t// in\n    tag_226:\n        /* \"#utility.yul\":5814:5839   */\n      swap3\n      pop\n        /* \"#utility.yul\":5862:5863   */\n      dup3\n        /* \"#utility.yul\":5859:5860   */\n      dup3\n        /* \"#utility.yul\":5855:5864   */\n      add\n        /* \"#utility.yul\":5848:5864   */\n      swap1\n      pop\n        /* \"#utility.yul\":5883:5886   */\n      dup1\n        /* \"#utility.yul\":5880:5881   */\n      dup3\n        /* \"#utility.yul\":5877:5887   */\n      gt\n        /* \"#utility.yul\":5874:5910   */\n      iszero\n      tag_227\n      jumpi\n        /* \"#utility.yul\":5890:5908   */\n      tag_228\n      tag_148\n      jump\t// in\n    tag_228:\n        /* \"#utility.yul\":5874:5910   */\n    tag_227:\n        /* \"#utility.yul\":5726:5917   */\n      swap3\n      swap2\n      pop\n      pop\n      jump\t// out\n        /* \"#utility.yul\":5923:6097   */\n    tag_149:\n        /* \"#utility.yul\":6063:6089   */\n      0x416c6c20746f6b656e7320686173206265656e20736f6c640000000000000000\n        /* \"#utility.yul\":6059:6060   */\n      0x00\n        /* \"#utility.yul\":6051:6057   */\n      dup3\n        /* \"#utility.yul\":6047:6061   */\n      add\n        /* \"#utility.yul\":6040:6090   */\n      mstore\n        /* \"#utility.yul\":5923:6097   */\n      pop\n      jump\t// out\n        /* \"#utility.yul\":6103:6469   */\n    tag_150:\n        /* \"#utility.yul\":6245:6248   */\n      0x00\n        /* \"#utility.yul\":6266:6333   */\n      tag_231\n        /* \"#utility.yul\":6330:6332   */\n      0x18\n        /* \"#utility.yul\":6325:6328   */\n      dup4\n        /* \"#utility.yul\":6266:6333   */\n      tag_141\n      jump\t// in\n    tag_231:\n        /* \"#utility.yul\":6259:6333   */\n      swap2\n      pop\n        /* \"#utility.yul\":6342:6435   */\n      tag_232\n        /* \"#utility.yul\":6431:6434   */\n      dup3\n        /* \"#utility.yul\":6342:6435   */\n      tag_149\n      jump\t// in\n    tag_232:\n        /* \"#utility.yul\":6460:6462   */\n      0x20\n        /* \"#utility.yul\":6455:6458   */\n      dup3\n        /* \"#utility.yul\":6451:6463   */\n      add\n        /* \"#utility.yul\":6444:6463   */\n      swap1\n      pop\n        /* \"#utility.yul\":6103:6469   */\n      swap2\n      swap1\n      pop\n      jump\t// out\n        /* \"#utility.yul\":6475:6894   */\n    tag_53:\n        /* \"#utility.yul\":6641:6645   */\n      0x00\n        /* \"#utility.yul\":6679:6681   */\n      0x20\n        /* \"#utility.yul\":6668:6677   */\n      dup3\n        /* \"#utility.yul\":6664:6682   */\n      add\n        /* \"#utility.yul\":6656:6682   */\n      swap1\n      pop\n        /* \"#utility.yul\":6728:6737   */\n      dup2\n        /* \"#utility.yul\":6722:6726   */\n      dup2\n        /* \"#utility.yul\":6718:6738   */\n      sub\n        /* \"#utility.yul\":6714:6715   */\n      0x00\n        /* \"#utility.yul\":6703:6712   */\n      dup4\n        /* \"#utility.yul\":6699:6716   */\n      add\n        /* \"#utility.yul\":6692:6739   */\n      mstore\n        /* \"#utility.yul\":6756:6887   */\n      tag_234\n        /* \"#utility.yul\":6882:6886   */\n      dup2\n        /* \"#utility.yul\":6756:6887   */\n      tag_150\n      jump\t// in\n    tag_234:\n        /* \"#utility.yul\":6748:6887   */\n      swap1\n      pop\n        /* \"#utility.yul\":6475:6894   */\n      swap2\n      swap1\n      pop\n      jump\t// out\n        /* \"#utility.yul\":6900:7310   */\n    tag_62:\n        /* \"#utility.yul\":6940:6947   */\n      0x00\n        /* \"#utility.yul\":6963:6983   */\n      tag_236\n        /* \"#utility.yul\":6981:6982   */\n      dup3\n        /* \"#utility.yul\":6963:6983   */\n      tag_134\n      jump\t// in\n    tag_236:\n        /* \"#utility.yul\":6958:6983   */\n      swap2\n      pop\n        /* \"#utility.yul\":6997:7017   */\n      tag_237\n        /* \"#utility.yul\":7015:7016   */\n      dup4\n        /* \"#utility.yul\":6997:7017   */\n      tag_134\n      jump\t// in\n    tag_237:\n        /* \"#utility.yul\":6992:7017   */\n      swap3\n      pop\n        /* \"#utility.yul\":7052:7053   */\n      dup3\n        /* \"#utility.yul\":7049:7050   */\n      dup3\n        /* \"#utility.yul\":7045:7054   */\n      mul\n        /* \"#utility.yul\":7074:7104   */\n      tag_238\n        /* \"#utility.yul\":7092:7103   */\n      dup2\n        /* \"#utility.yul\":7074:7104   */\n      tag_134\n      jump\t// in\n    tag_238:\n        /* \"#utility.yul\":7063:7104   */\n      swap2\n      pop\n        /* \"#utility.yul\":7253:7254   */\n      dup3\n        /* \"#utility.yul\":7244:7251   */\n      dup3\n        /* \"#utility.yul\":7240:7255   */\n      div\n        /* \"#utility.yul\":7237:7238   */\n      dup5\n        /* \"#utility.yul\":7234:7256   */\n      eq\n        /* \"#utility.yul\":7214:7215   */\n      dup4\n        /* \"#utility.yul\":7207:7216   */\n      iszero\n        /* \"#utility.yul\":7187:7270   */\n      or\n        /* \"#utility.yul\":7164:7303   */\n      tag_239\n      jumpi\n        /* \"#utility.yul\":7283:7301   */\n      tag_240\n      tag_148\n      jump\t// in\n    tag_240:\n        /* \"#utility.yul\":7164:7303   */\n    tag_239:\n        /* \"#utility.yul\":6948:7310   */\n      pop\n        /* \"#utility.yul\":6900:7310   */\n      swap3\n      swap2\n      pop\n      pop\n      jump\t// out\n        /* \"#utility.yul\":7316:7648   */\n    tag_65:\n        /* \"#utility.yul\":7437:7441   */\n      0x00\n        /* \"#utility.yul\":7475:7477   */\n      0x40\n        /* \"#utility.yul\":7464:7473   */\n      dup3\n        /* \"#utility.yul\":7460:7478   */\n      add\n        /* \"#utility.yul\":7452:7478   */\n      swap1\n      pop\n        /* \"#utility.yul\":7488:7559   */\n      tag_242\n        /* \"#utility.yul\":7556:7557   */\n      0x00\n        /* \"#utility.yul\":7545:7554   */\n      dup4\n        /* \"#utility.yul\":7541:7558   */\n      add\n        /* \"#utility.yul\":7532:7538   */\n      dup6\n        /* \"#utility.yul\":7488:7559   */\n      tag_135\n      jump\t// in\n    tag_242:\n        /* \"#utility.yul\":7569:7641   */\n      tag_243\n        /* \"#utility.yul\":7637:7639   */\n      0x20\n        /* \"#utility.yul\":7626:7635   */\n      dup4\n        /* \"#utility.yul\":7622:7640   */\n      add\n        /* \"#utility.yul\":7613:7619   */\n      dup5\n        /* \"#utility.yul\":7569:7641   */\n      tag_135\n      jump\t// in\n    tag_243:\n        /* \"#utility.yul\":7316:7648   */\n      swap4\n      swap3\n      pop\n      pop\n      pop\n      jump\t// out\n        /* \"#utility.yul\":7654:7878   */\n    tag_151:\n        /* \"#utility.yul\":7794:7828   */\n      0x49444f2048617320206e6f7420656e6465642c20636c61696d20756e61766169\n        /* \"#utility.yul\":7790:7791   */\n      0x00\n        /* \"#utility.yul\":7782:7788   */\n      dup3\n        /* \"#utility.yul\":7778:7792   */\n      add\n        /* \"#utility.yul\":7771:7829   */\n      mstore\n        /* \"#utility.yul\":7863:7870   */\n      0x6c61626c65000000000000000000000000000000000000000000000000000000\n        /* \"#utility.yul\":7858:7860   */\n      0x20\n        /* \"#utility.yul\":7850:7856   */\n      dup3\n        /* \"#utility.yul\":7846:7861   */\n      add\n        /* \"#utility.yul\":7839:7871   */\n      mstore\n        /* \"#utility.yul\":7654:7878   */\n      pop\n      jump\t// out\n        /* \"#utility.yul\":7884:8250   */\n    tag_152:\n        /* \"#utility.yul\":8026:8029   */\n      0x00\n        /* \"#utility.yul\":8047:8114   */\n      tag_246\n        /* \"#utility.yul\":8111:8113   */\n      0x25\n        /* \"#utility.yul\":8106:8109   */\n      dup4\n        /* \"#utility.yul\":8047:8114   */\n      tag_141\n      jump\t// in\n    tag_246:\n        /* \"#utility.yul\":8040:8114   */\n      swap2\n      pop\n        /* \"#utility.yul\":8123:8216   */\n      tag_247\n        /* \"#utility.yul\":8212:8215   */\n      dup3\n        /* \"#utility.yul\":8123:8216   */\n      tag_151\n      jump\t// in\n    tag_247:\n        /* \"#utility.yul\":8241:8243   */\n      0x40\n        /* \"#utility.yul\":8236:8239   */\n      dup3\n        /* \"#utility.yul\":8232:8244   */\n      add\n        /* \"#utility.yul\":8225:8244   */\n      swap1\n      pop\n        /* \"#utility.yul\":7884:8250   */\n      swap2\n      swap1\n      pop\n      jump\t// out\n        /* \"#utility.yul\":8256:8675   */\n    tag_72:\n        /* \"#utility.yul\":8422:8426   */\n      0x00\n        /* \"#utility.yul\":8460:8462   */\n      0x20\n        /* \"#utility.yul\":8449:8458   */\n      dup3\n        /* \"#utility.yul\":8445:8463   */\n      add\n        /* \"#utility.yul\":8437:8463   */\n      swap1\n      pop\n        /* \"#utility.yul\":8509:8518   */\n      dup2\n        /* \"#utility.yul\":8503:8507   */\n      dup2\n        /* \"#utility.yul\":8499:8519   */\n      sub\n        /* \"#utility.yul\":8495:8496   */\n      0x00\n        /* \"#utility.yul\":8484:8493   */\n      dup4\n        /* \"#utility.yul\":8480:8497   */\n      add\n        /* \"#utility.yul\":8473:8520   */\n      mstore\n        /* \"#utility.yul\":8537:8668   */\n      tag_249\n        /* \"#utility.yul\":8663:8667   */\n      dup2\n        /* \"#utility.yul\":8537:8668   */\n      tag_152\n      jump\t// in\n    tag_249:\n        /* \"#utility.yul\":8529:8668   */\n      swap1\n      pop\n        /* \"#utility.yul\":8256:8675   */\n      swap2\n      swap1\n      pop\n      jump\t// out\n        /* \"#utility.yul\":8681:8854   */\n    tag_153:\n        /* \"#utility.yul\":8821:8846   */\n      0x796f7520646964206e6f74207061727469636970617465000000000000000000\n        /* \"#utility.yul\":8817:8818   */\n      0x00\n        /* \"#utility.yul\":8809:8815   */\n      dup3\n        /* \"#utility.yul\":8805:8819   */\n      add\n        /* \"#utility.yul\":8798:8847   */\n      mstore\n        /* \"#utility.yul\":8681:8854   */\n      pop\n      jump\t// out\n        /* \"#utility.yul\":8860:9226   */\n    tag_154:\n        /* \"#utility.yul\":9002:9005   */\n      0x00\n        /* \"#utility.yul\":9023:9090   */\n      tag_252\n        /* \"#utility.yul\":9087:9089   */\n      0x17\n        /* \"#utility.yul\":9082:9085   */\n      dup4\n        /* \"#utility.yul\":9023:9090   */\n      tag_141\n      jump\t// in\n    tag_252:\n        /* \"#utility.yul\":9016:9090   */\n      swap2\n      pop\n        /* \"#utility.yul\":9099:9192   */\n      tag_253\n        /* \"#utility.yul\":9188:9191   */\n      dup3\n        /* \"#utility.yul\":9099:9192   */\n      tag_153\n      jump\t// in\n    tag_253:\n        /* \"#utility.yul\":9217:9219   */\n      0x20\n        /* \"#utility.yul\":9212:9215   */\n      dup3\n        /* \"#utility.yul\":9208:9220   */\n      add\n        /* \"#utility.yul\":9201:9220   */\n      swap1\n      pop\n        /* \"#utility.yul\":8860:9226   */\n      swap2\n      swap1\n      pop\n      jump\t// out\n        /* \"#utility.yul\":9232:9651   */\n    tag_75:\n        /* \"#utility.yul\":9398:9402   */\n      0x00\n        /* \"#utility.yul\":9436:9438   */\n      0x20\n        /* \"#utility.yul\":9425:9434   */\n      dup3\n        /* \"#utility.yul\":9421:9439   */\n      add\n        /* \"#utility.yul\":9413:9439   */\n      swap1\n      pop\n        /* \"#utility.yul\":9485:9494   */\n      dup2\n        /* \"#utility.yul\":9479:9483   */\n      dup2\n        /* \"#utility.yul\":9475:9495   */\n      sub\n        /* \"#utility.yul\":9471:9472   */\n      0x00\n        /* \"#utility.yul\":9460:9469   */\n      dup4\n        /* \"#utility.yul\":9456:9473   */\n      add\n        /* \"#utility.yul\":9449:9496   */\n      mstore\n        /* \"#utility.yul\":9513:9644   */\n      tag_255\n        /* \"#utility.yul\":9639:9643   */\n      dup2\n        /* \"#utility.yul\":9513:9644   */\n      tag_154\n      jump\t// in\n    tag_255:\n        /* \"#utility.yul\":9505:9644   */\n      swap1\n      pop\n        /* \"#utility.yul\":9232:9651   */\n      swap2\n      swap1\n      pop\n      jump\t// out\n        /* \"#utility.yul\":9657:9837   */\n    tag_155:\n        /* \"#utility.yul\":9705:9782   */\n      0x4e487b7100000000000000000000000000000000000000000000000000000000\n        /* \"#utility.yul\":9702:9703   */\n      0x00\n        /* \"#utility.yul\":9695:9783   */\n      mstore\n        /* \"#utility.yul\":9802:9806   */\n      0x12\n        /* \"#utility.yul\":9799:9800   */\n      0x04\n        /* \"#utility.yul\":9792:9807   */\n      mstore\n        /* \"#utility.yul\":9826:9830   */\n      0x24\n        /* \"#utility.yul\":9823:9824   */\n      0x00\n        /* \"#utility.yul\":9816:9831   */\n      revert\n        /* \"#utility.yul\":9843:10028   */\n    tag_78:\n        /* \"#utility.yul\":9883:9884   */\n      0x00\n        /* \"#utility.yul\":9900:9920   */\n      tag_258\n        /* \"#utility.yul\":9918:9919   */\n      dup3\n        /* \"#utility.yul\":9900:9920   */\n      tag_134\n      jump\t// in\n    tag_258:\n        /* \"#utility.yul\":9895:9920   */\n      swap2\n      pop\n        /* \"#utility.yul\":9934:9954   */\n      tag_259\n        /* \"#utility.yul\":9952:9953   */\n      dup4\n        /* \"#utility.yul\":9934:9954   */\n      tag_134\n      jump\t// in\n    tag_259:\n        /* \"#utility.yul\":9929:9954   */\n      swap3\n      pop\n        /* \"#utility.yul\":9973:9974   */\n      dup3\n        /* \"#utility.yul\":9963:9998   */\n      tag_260\n      jumpi\n        /* \"#utility.yul\":9978:9996   */\n      tag_261\n      tag_155\n      jump\t// in\n    tag_261:\n        /* \"#utility.yul\":9963:9998   */\n    tag_260:\n        /* \"#utility.yul\":10020:10021   */\n      dup3\n        /* \"#utility.yul\":10017:10018   */\n      dup3\n        /* \"#utility.yul\":10013:10022   */\n      div\n        /* \"#utility.yul\":10008:10022   */\n      swap1\n      pop\n        /* \"#utility.yul\":9843:10028   */\n      swap3\n      swap2\n      pop\n      pop\n      jump\t// out\n        /* \"#utility.yul\":10034:10476   */\n    tag_81:\n        /* \"#utility.yul\":10183:10187   */\n      0x00\n        /* \"#utility.yul\":10221:10223   */\n      0x60\n        /* \"#utility.yul\":10210:10219   */\n      dup3\n        /* \"#utility.yul\":10206:10224   */\n      add\n        /* \"#utility.yul\":10198:10224   */\n      swap1\n      pop\n        /* \"#utility.yul\":10234:10305   */\n      tag_263\n        /* \"#utility.yul\":10302:10303   */\n      0x00\n        /* \"#utility.yul\":10291:10300   */\n      dup4\n        /* \"#utility.yul\":10287:10304   */\n      add\n        /* \"#utility.yul\":10278:10284   */\n      dup7\n        /* \"#utility.yul\":10234:10305   */\n      tag_133\n      jump\t// in\n    tag_263:\n        /* \"#utility.yul\":10315:10387   */\n      tag_264\n        /* \"#utility.yul\":10383:10385   */\n      0x20\n        /* \"#utility.yul\":10372:10381   */\n      dup4\n        /* \"#utility.yul\":10368:10386   */\n      add\n        /* \"#utility.yul\":10359:10365   */\n      dup6\n        /* \"#utility.yul\":10315:10387   */\n      tag_133\n      jump\t// in\n    tag_264:\n        /* \"#utility.yul\":10397:10469   */\n      tag_265\n        /* \"#utility.yul\":10465:10467   */\n      0x40\n        /* \"#utility.yul\":10454:10463   */\n      dup4\n        /* \"#utility.yul\":10450:10468   */\n      add\n        /* \"#utility.yul\":10441:10447   */\n      dup5\n        /* \"#utility.yul\":10397:10469   */\n      tag_135\n      jump\t// in\n    tag_265:\n        /* \"#utility.yul\":10034:10476   */\n      swap5\n      swap4\n      pop\n      pop\n      pop\n      pop\n      jump\t// out\n        /* \"#utility.yul\":10482:10572   */\n    tag_156:\n        /* \"#utility.yul\":10516:10523   */\n      0x00\n        /* \"#utility.yul\":10559:10564   */\n      dup2\n        /* \"#utility.yul\":10552:10565   */\n      iszero\n        /* \"#utility.yul\":10545:10566   */\n      iszero\n        /* \"#utility.yul\":10534:10566   */\n      swap1\n      pop\n        /* \"#utility.yul\":10482:10572   */\n      swap2\n      swap1\n      pop\n      jump\t// out\n        /* \"#utility.yul\":10578:10694   */\n    tag_157:\n        /* \"#utility.yul\":10648:10669   */\n      tag_268\n        /* \"#utility.yul\":10663:10668   */\n      dup2\n        /* \"#utility.yul\":10648:10669   */\n      tag_156\n      jump\t// in\n    tag_268:\n        /* \"#utility.yul\":10641:10646   */\n      dup2\n        /* \"#utility.yul\":10638:10670   */\n      eq\n        /* \"#utility.yul\":10628:10688   */\n      tag_269\n      jumpi\n        /* \"#utility.yul\":10684:10685   */\n      0x00\n        /* \"#utility.yul\":10681:10682   */\n      dup1\n        /* \"#utility.yul\":10674:10686   */\n      revert\n        /* \"#utility.yul\":10628:10688   */\n    tag_269:\n        /* \"#utility.yul\":10578:10694   */\n      pop\n      jump\t// out\n        /* \"#utility.yul\":10700:10837   */\n    tag_158:\n        /* \"#utility.yul\":10754:10759   */\n      0x00\n        /* \"#utility.yul\":10785:10791   */\n      dup2\n        /* \"#utility.yul\":10779:10792   */\n      mload\n        /* \"#utility.yul\":10770:10792   */\n      swap1\n      pop\n        /* \"#utility.yul\":10801:10831   */\n      tag_271\n        /* \"#utility.yul\":10825:10830   */\n      dup2\n        /* \"#utility.yul\":10801:10831   */\n      tag_157\n      jump\t// in\n    tag_271:\n        /* \"#utility.yul\":10700:10837   */\n      swap3\n      swap2\n      pop\n      pop\n      jump\t// out\n        /* \"#utility.yul\":10843:11188   */\n    tag_85:\n        /* \"#utility.yul\":10910:10916   */\n      0x00\n        /* \"#utility.yul\":10959:10961   */\n      0x20\n        /* \"#utility.yul\":10947:10956   */\n      dup3\n        /* \"#utility.yul\":10938:10945   */\n      dup5\n        /* \"#utility.yul\":10934:10957   */\n      sub\n        /* \"#utility.yul\":10930:10962   */\n      slt\n        /* \"#utility.yul\":10927:11046   */\n      iszero\n      tag_273\n      jumpi\n        /* \"#utility.yul\":10965:11044   */\n      tag_274\n      tag_137\n      jump\t// in\n    tag_274:\n        /* \"#utility.yul\":10927:11046   */\n    tag_273:\n        /* \"#utility.yul\":11085:11086   */\n      0x00\n        /* \"#utility.yul\":11110:11171   */\n      tag_275\n        /* \"#utility.yul\":11163:11170   */\n      dup5\n        /* \"#utility.yul\":11154:11160   */\n      dup3\n        /* \"#utility.yul\":11143:11152   */\n      dup6\n        /* \"#utility.yul\":11139:11161   */\n      add\n        /* \"#utility.yul\":11110:11171   */\n      tag_158\n      jump\t// in\n    tag_275:\n        /* \"#utility.yul\":11100:11171   */\n      swap2\n      pop\n        /* \"#utility.yul\":11056:11181   */\n      pop\n        /* \"#utility.yul\":10843:11188   */\n      swap3\n      swap2\n      pop\n      pop\n      jump\t// out\n        /* \"#utility.yul\":11194:11526   */\n    tag_87:\n        /* \"#utility.yul\":11315:11319   */\n      0x00\n        /* \"#utility.yul\":11353:11355   */\n      0x40\n        /* \"#utility.yul\":11342:11351   */\n      dup3\n        /* \"#utility.yul\":11338:11356   */\n      add\n        /* \"#utility.yul\":11330:11356   */\n      swap1\n      pop\n        /* \"#utility.yul\":11366:11437   */\n      tag_277\n        /* \"#utility.yul\":11434:11435   */\n      0x00\n        /* \"#utility.yul\":11423:11432   */\n      dup4\n        /* \"#utility.yul\":11419:11436   */\n      add\n        /* \"#utility.yul\":11410:11416   */\n      dup6\n        /* \"#utility.yul\":11366:11437   */\n      tag_133\n      jump\t// in\n    tag_277:\n        /* \"#utility.yul\":11447:11519   */\n      tag_278\n        /* \"#utility.yul\":11515:11517   */\n      0x20\n        /* \"#utility.yul\":11504:11513   */\n      dup4\n        /* \"#utility.yul\":11500:11518   */\n      add\n        /* \"#utility.yul\":11491:11497   */\n      dup5\n        /* \"#utility.yul\":11447:11519   */\n      tag_135\n      jump\t// in\n    tag_278:\n        /* \"#utility.yul\":11194:11526   */\n      swap4\n      swap3\n      pop\n      pop\n      pop\n      jump\t// out\n        /* \"#utility.yul\":11532:11691   */\n    tag_159:\n        /* \"#utility.yul\":11672:11683   */\n      0x49434f206973206f6e0000000000000000000000000000000000000000000000\n        /* \"#utility.yul\":11668:11669   */\n      0x00\n        /* \"#utility.yul\":11660:11666   */\n      dup3\n        /* \"#utility.yul\":11656:11670   */\n      add\n        /* \"#utility.yul\":11649:11684   */\n      mstore\n        /* \"#utility.yul\":11532:11691   */\n      pop\n      jump\t// out\n        /* \"#utility.yul\":11697:12062   */\n    tag_160:\n        /* \"#utility.yul\":11839:11842   */\n      0x00\n        /* \"#utility.yul\":11860:11926   */\n      tag_281\n        /* \"#utility.yul\":11924:11925   */\n      0x09\n        /* \"#utility.yul\":11919:11922   */\n      dup4\n        /* \"#utility.yul\":11860:11926   */\n      tag_141\n      jump\t// in\n    tag_281:\n        /* \"#utility.yul\":11853:11926   */\n      swap2\n      pop\n        /* \"#utility.yul\":11935:12028   */\n      tag_282\n        /* \"#utility.yul\":12024:12027   */\n      dup3\n        /* \"#utility.yul\":11935:12028   */\n      tag_159\n      jump\t// in\n    tag_282:\n        /* \"#utility.yul\":12053:12055   */\n      0x20\n        /* \"#utility.yul\":12048:12051   */\n      dup3\n        /* \"#utility.yul\":12044:12056   */\n      add\n        /* \"#utility.yul\":12037:12056   */\n      swap1\n      pop\n        /* \"#utility.yul\":11697:12062   */\n      swap2\n      swap1\n      pop\n      jump\t// out\n        /* \"#utility.yul\":12068:12487   */\n    tag_91:\n        /* \"#utility.yul\":12234:12238   */\n      0x00\n        /* \"#utility.yul\":12272:12274   */\n      0x20\n        /* \"#utility.yul\":12261:12270   */\n      dup3\n        /* \"#utility.yul\":12257:12275   */\n      add\n        /* \"#utility.yul\":12249:12275   */\n      swap1\n      pop\n        /* \"#utility.yul\":12321:12330   */\n      dup2\n        /* \"#utility.yul\":12315:12319   */\n      dup2\n        /* \"#utility.yul\":12311:12331   */\n      sub\n        /* \"#utility.yul\":12307:12308   */\n      0x00\n        /* \"#utility.yul\":12296:12305   */\n      dup4\n        /* \"#utility.yul\":12292:12309   */\n      add\n        /* \"#utility.yul\":12285:12332   */\n      mstore\n        /* \"#utility.yul\":12349:12480   */\n      tag_284\n        /* \"#utility.yul\":12475:12479   */\n      dup2\n        /* \"#utility.yul\":12349:12480   */\n      tag_160\n      jump\t// in\n    tag_284:\n        /* \"#utility.yul\":12341:12480   */\n      swap1\n      pop\n        /* \"#utility.yul\":12068:12487   */\n      swap2\n      swap1\n      pop\n      jump\t// out\n        /* \"#utility.yul\":12493:12722   */\n    tag_161:\n        /* \"#utility.yul\":12633:12667   */\n      0x5361666545524332303a204552433230206f7065726174696f6e20646964206e\n        /* \"#utility.yul\":12629:12630   */\n      0x00\n        /* \"#utility.yul\":12621:12627   */\n      dup3\n        /* \"#utility.yul\":12617:12631   */\n      add\n        /* \"#utility.yul\":12610:12668   */\n      mstore\n        /* \"#utility.yul\":12702:12714   */\n      0x6f74207375636365656400000000000000000000000000000000000000000000\n        /* \"#utility.yul\":12697:12699   */\n      0x20\n        /* \"#utility.yul\":12689:12695   */\n      dup3\n        /* \"#utility.yul\":12685:12700   */\n      add\n        /* \"#utility.yul\":12678:12715   */\n      mstore\n        /* \"#utility.yul\":12493:12722   */\n      pop\n      jump\t// out\n        /* \"#utility.yul\":12728:13094   */\n    tag_162:\n        /* \"#utility.yul\":12870:12873   */\n      0x00\n        /* \"#utility.yul\":12891:12958   */\n      tag_287\n        /* \"#utility.yul\":12955:12957   */\n      0x2a\n        /* \"#utility.yul\":12950:12953   */\n      dup4\n        /* \"#utility.yul\":12891:12958   */\n      tag_141\n      jump\t// in\n    tag_287:\n        /* \"#utility.yul\":12884:12958   */\n      swap2\n      pop\n        /* \"#utility.yul\":12967:13060   */\n      tag_288\n        /* \"#utility.yul\":13056:13059   */\n      dup3\n        /* \"#utility.yul\":12967:13060   */\n      tag_161\n      jump\t// in\n    tag_288:\n        /* \"#utility.yul\":13085:13087   */\n      0x40\n        /* \"#utility.yul\":13080:13083   */\n      dup3\n        /* \"#utility.yul\":13076:13088   */\n      add\n        /* \"#utility.yul\":13069:13088   */\n      swap1\n      pop\n        /* \"#utility.yul\":12728:13094   */\n      swap2\n      swap1\n      pop\n      jump\t// out\n        /* \"#utility.yul\":13100:13519   */\n    tag_103:\n        /* \"#utility.yul\":13266:13270   */\n      0x00\n        /* \"#utility.yul\":13304:13306   */\n      0x20\n        /* \"#utility.yul\":13293:13302   */\n      dup3\n        /* \"#utility.yul\":13289:13307   */\n      add\n        /* \"#utility.yul\":13281:13307   */\n      swap1\n      pop\n        /* \"#utility.yul\":13353:13362   */\n      dup2\n        /* \"#utility.yul\":13347:13351   */\n      dup2\n        /* \"#utility.yul\":13343:13363   */\n      sub\n        /* \"#utility.yul\":13339:13340   */\n      0x00\n        /* \"#utility.yul\":13328:13337   */\n      dup4\n        /* \"#utility.yul\":13324:13341   */\n      add\n        /* \"#utility.yul\":13317:13364   */\n      mstore\n        /* \"#utility.yul\":13381:13512   */\n      tag_290\n        /* \"#utility.yul\":13507:13511   */\n      dup2\n        /* \"#utility.yul\":13381:13512   */\n      tag_162\n      jump\t// in\n    tag_290:\n        /* \"#utility.yul\":13373:13512   */\n      swap1\n      pop\n        /* \"#utility.yul\":13100:13519   */\n      swap2\n      swap1\n      pop\n      jump\t// out\n        /* \"#utility.yul\":13525:13750   */\n    tag_163:\n        /* \"#utility.yul\":13665:13699   */\n      0x416464726573733a20696e73756666696369656e742062616c616e636520666f\n        /* \"#utility.yul\":13661:13662   */\n      0x00\n        /* \"#utility.yul\":13653:13659   */\n      dup3\n        /* \"#utility.yul\":13649:13663   */\n      add\n        /* \"#utility.yul\":13642:13700   */\n      mstore\n        /* \"#utility.yul\":13734:13742   */\n      0x722063616c6c0000000000000000000000000000000000000000000000000000\n        /* \"#utility.yul\":13729:13731   */\n      0x20\n        /* \"#utility.yul\":13721:13727   */\n      dup3\n        /* \"#utility.yul\":13717:13732   */\n      add\n        /* \"#utility.yul\":13710:13743   */\n      mstore\n        /* \"#utility.yul\":13525:13750   */\n      pop\n      jump\t// out\n        /* \"#utility.yul\":13756:14122   */\n    tag_164:\n        /* \"#utility.yul\":13898:13901   */\n      0x00\n        /* \"#utility.yul\":13919:13986   */\n      tag_293\n        /* \"#utility.yul\":13983:13985   */\n      0x26\n        /* \"#utility.yul\":13978:13981   */\n      dup4\n        /* \"#utility.yul\":13919:13986   */\n      tag_141\n      jump\t// in\n    tag_293:\n        /* \"#utility.yul\":13912:13986   */\n      swap2\n      pop\n        /* \"#utility.yul\":13995:14088   */\n      tag_294\n        /* \"#utility.yul\":14084:14087   */\n      dup3\n        /* \"#utility.yul\":13995:14088   */\n      tag_163\n      jump\t// in\n    tag_294:\n        /* \"#utility.yul\":14113:14115   */\n      0x40\n        /* \"#utility.yul\":14108:14111   */\n      dup3\n        /* \"#utility.yul\":14104:14116   */\n      add\n        /* \"#utility.yul\":14097:14116   */\n      swap1\n      pop\n        /* \"#utility.yul\":13756:14122   */\n      swap2\n      swap1\n      pop\n      jump\t// out\n        /* \"#utility.yul\":14128:14547   */\n    tag_110:\n        /* \"#utility.yul\":14294:14298   */\n      0x00\n        /* \"#utility.yul\":14332:14334   */\n      0x20\n        /* \"#utility.yul\":14321:14330   */\n      dup3\n        /* \"#utility.yul\":14317:14335   */\n      add\n        /* \"#utility.yul\":14309:14335   */\n      swap1\n      pop\n        /* \"#utility.yul\":14381:14390   */\n      dup2\n        /* \"#utility.yul\":14375:14379   */\n      dup2\n        /* \"#utility.yul\":14371:14391   */\n      sub\n        /* \"#utility.yul\":14367:14368   */\n      0x00\n        /* \"#utility.yul\":14356:14365   */\n      dup4\n        /* \"#utility.yul\":14352:14369   */\n      add\n        /* \"#utility.yul\":14345:14392   */\n      mstore\n        /* \"#utility.yul\":14409:14540   */\n      tag_296\n        /* \"#utility.yul\":14535:14539   */\n      dup2\n        /* \"#utility.yul\":14409:14540   */\n      tag_164\n      jump\t// in\n    tag_296:\n        /* \"#utility.yul\":14401:14540   */\n      swap1\n      pop\n        /* \"#utility.yul\":14128:14547   */\n      swap2\n      swap1\n      pop\n      jump\t// out\n        /* \"#utility.yul\":14553:14732   */\n    tag_165:\n        /* \"#utility.yul\":14693:14724   */\n      0x416464726573733a2063616c6c20746f206e6f6e2d636f6e7472616374000000\n        /* \"#utility.yul\":14689:14690   */\n      0x00\n        /* \"#utility.yul\":14681:14687   */\n      dup3\n        /* \"#utility.yul\":14677:14691   */\n      add\n        /* \"#utility.yul\":14670:14725   */\n      mstore\n        /* \"#utility.yul\":14553:14732   */\n      pop\n      jump\t// out\n        /* \"#utility.yul\":14738:15104   */\n    tag_166:\n        /* \"#utility.yul\":14880:14883   */\n      0x00\n        /* \"#utility.yul\":14901:14968   */\n      tag_299\n        /* \"#utility.yul\":14965:14967   */\n      0x1d\n        /* \"#utility.yul\":14960:14963   */\n      dup4\n        /* \"#utility.yul\":14901:14968   */\n      tag_141\n      jump\t// in\n    tag_299:\n        /* \"#utility.yul\":14894:14968   */\n      swap2\n      pop\n        /* \"#utility.yul\":14977:15070   */\n      tag_300\n        /* \"#utility.yul\":15066:15069   */\n      dup3\n        /* \"#utility.yul\":14977:15070   */\n      tag_165\n      jump\t// in\n    tag_300:\n        /* \"#utility.yul\":15095:15097   */\n      0x20\n        /* \"#utility.yul\":15090:15093   */\n      dup3\n        /* \"#utility.yul\":15086:15098   */\n      add\n        /* \"#utility.yul\":15079:15098   */\n      swap1\n      pop\n        /* \"#utility.yul\":14738:15104   */\n      swap2\n      swap1\n      pop\n      jump\t// out\n        /* \"#utility.yul\":15110:15529   */\n    tag_115:\n        /* \"#utility.yul\":15276:15280   */\n      0x00\n        /* \"#utility.yul\":15314:15316   */\n      0x20\n        /* \"#utility.yul\":15303:15312   */\n      dup3\n        /* \"#utility.yul\":15299:15317   */\n      add\n        /* \"#utility.yul\":15291:15317   */\n      swap1\n      pop\n        /* \"#utility.yul\":15363:15372   */\n      dup2\n        /* \"#utility.yul\":15357:15361   */\n      dup2\n        /* \"#utility.yul\":15353:15373   */\n      sub\n        /* \"#utility.yul\":15349:15350   */\n      0x00\n        /* \"#utility.yul\":15338:15347   */\n      dup4\n        /* \"#utility.yul\":15334:15351   */\n      add\n        /* \"#utility.yul\":15327:15374   */\n      mstore\n        /* \"#utility.yul\":15391:15522   */\n      tag_302\n        /* \"#utility.yul\":15517:15521   */\n      dup2\n        /* \"#utility.yul\":15391:15522   */\n      tag_166\n      jump\t// in\n    tag_302:\n        /* \"#utility.yul\":15383:15522   */\n      swap1\n      pop\n        /* \"#utility.yul\":15110:15529   */\n      swap2\n      swap1\n      pop\n      jump\t// out\n        /* \"#utility.yul\":15535:15633   */\n    tag_167:\n        /* \"#utility.yul\":15586:15592   */\n      0x00\n        /* \"#utility.yul\":15620:15625   */\n      dup2\n        /* \"#utility.yul\":15614:15626   */\n      mload\n        /* \"#utility.yul\":15604:15626   */\n      swap1\n      pop\n        /* \"#utility.yul\":15535:15633   */\n      swap2\n      swap1\n      pop\n      jump\t// out\n        /* \"#utility.yul\":15639:15786   */\n    tag_168:\n        /* \"#utility.yul\":15740:15751   */\n      0x00\n        /* \"#utility.yul\":15777:15780   */\n      dup2\n        /* \"#utility.yul\":15762:15780   */\n      swap1\n      pop\n        /* \"#utility.yul\":15639:15786   */\n      swap3\n      swap2\n      pop\n      pop\n      jump\t// out\n        /* \"#utility.yul\":15792:16038   */\n    tag_169:\n        /* \"#utility.yul\":15873:15874   */\n      0x00\n        /* \"#utility.yul\":15883:15996   */\n    tag_306:\n        /* \"#utility.yul\":15897:15903   */\n      dup4\n        /* \"#utility.yul\":15894:15895   */\n      dup2\n        /* \"#utility.yul\":15891:15904   */\n      lt\n        /* \"#utility.yul\":15883:15996   */\n      iszero\n      tag_308\n      jumpi\n        /* \"#utility.yul\":15982:15983   */\n      dup1\n        /* \"#utility.yul\":15977:15980   */\n      dup3\n        /* \"#utility.yul\":15973:15984   */\n      add\n        /* \"#utility.yul\":15967:15985   */\n      mload\n        /* \"#utility.yul\":15963:15964   */\n      dup2\n        /* \"#utility.yul\":15958:15961   */\n      dup5\n        /* \"#utility.yul\":15954:15965   */\n      add\n        /* \"#utility.yul\":15947:15986   */\n      mstore\n        /* \"#utility.yul\":15919:15921   */\n      0x20\n        /* \"#utility.yul\":15916:15917   */\n      dup2\n        /* \"#utility.yul\":15912:15922   */\n      add\n        /* \"#utility.yul\":15907:15922   */\n      swap1\n      pop\n        /* \"#utility.yul\":15883:15996   */\n      jump(tag_306)\n    tag_308:\n        /* \"#utility.yul\":16030:16031   */\n      0x00\n        /* \"#utility.yul\":16021:16027   */\n      dup5\n        /* \"#utility.yul\":16016:16019   */\n      dup5\n        /* \"#utility.yul\":16012:16028   */\n      add\n        /* \"#utility.yul\":16005:16032   */\n      mstore\n        /* \"#utility.yul\":15854:16038   */\n      pop\n        /* \"#utility.yul\":15792:16038   */\n      pop\n      pop\n      pop\n      jump\t// out\n        /* \"#utility.yul\":16044:16430   */\n    tag_170:\n        /* \"#utility.yul\":16148:16151   */\n      0x00\n        /* \"#utility.yul\":16176:16214   */\n      tag_310\n        /* \"#utility.yul\":16208:16213   */\n      dup3\n        /* \"#utility.yul\":16176:16214   */\n      tag_167\n      jump\t// in\n    tag_310:\n        /* \"#utility.yul\":16230:16318   */\n      tag_311\n        /* \"#utility.yul\":16311:16317   */\n      dup2\n        /* \"#utility.yul\":16306:16309   */\n      dup6\n        /* \"#utility.yul\":16230:16318   */\n      tag_168\n      jump\t// in\n    tag_311:\n        /* \"#utility.yul\":16223:16318   */\n      swap4\n      pop\n        /* \"#utility.yul\":16327:16392   */\n      tag_312\n        /* \"#utility.yul\":16385:16391   */\n      dup2\n        /* \"#utility.yul\":16380:16383   */\n      dup6\n        /* \"#utility.yul\":16373:16377   */\n      0x20\n        /* \"#utility.yul\":16366:16371   */\n      dup7\n        /* \"#utility.yul\":16362:16378   */\n      add\n        /* \"#utility.yul\":16327:16392   */\n      tag_169\n      jump\t// in\n    tag_312:\n        /* \"#utility.yul\":16417:16423   */\n      dup1\n        /* \"#utility.yul\":16412:16415   */\n      dup5\n        /* \"#utility.yul\":16408:16424   */\n      add\n        /* \"#utility.yul\":16401:16424   */\n      swap2\n      pop\n        /* \"#utility.yul\":16152:16430   */\n      pop\n        /* \"#utility.yul\":16044:16430   */\n      swap3\n      swap2\n      pop\n      pop\n      jump\t// out\n        /* \"#utility.yul\":16436:16707   */\n    tag_117:\n        /* \"#utility.yul\":16566:16569   */\n      0x00\n        /* \"#utility.yul\":16588:16681   */\n      tag_314\n        /* \"#utility.yul\":16677:16680   */\n      dup3\n        /* \"#utility.yul\":16668:16674   */\n      dup5\n        /* \"#utility.yul\":16588:16681   */\n      tag_170\n      jump\t// in\n    tag_314:\n        /* \"#utility.yul\":16581:16681   */\n      swap2\n      pop\n        /* \"#utility.yul\":16698:16701   */\n      dup2\n        /* \"#utility.yul\":16691:16701   */\n      swap1\n      pop\n        /* \"#utility.yul\":16436:16707   */\n      swap3\n      swap2\n      pop\n      pop\n      jump\t// out\n        /* \"#utility.yul\":16713:16812   */\n    tag_171:\n        /* \"#utility.yul\":16765:16771   */\n      0x00\n        /* \"#utility.yul\":16799:16804   */\n      dup2\n        /* \"#utility.yul\":16793:16805   */\n      mload\n        /* \"#utility.yul\":16783:16805   */\n      swap1\n      pop\n        /* \"#utility.yul\":16713:16812   */\n      swap2\n      swap1\n      pop\n      jump\t// out\n        /* \"#utility.yul\":16818:16920   */\n    tag_172:\n        /* \"#utility.yul\":16859:16865   */\n      0x00\n        /* \"#utility.yul\":16910:16912   */\n      0x1f\n        /* \"#utility.yul\":16906:16913   */\n      not\n        /* \"#utility.yul\":16901:16903   */\n      0x1f\n        /* \"#utility.yul\":16894:16899   */\n      dup4\n        /* \"#utility.yul\":16890:16904   */\n      add\n        /* \"#utility.yul\":16886:16914   */\n      and\n        /* \"#utility.yul\":16876:16914   */\n      swap1\n      pop\n        /* \"#utility.yul\":16818:16920   */\n      swap2\n      swap1\n      pop\n      jump\t// out\n        /* \"#utility.yul\":16926:17303   */\n    tag_173:\n        /* \"#utility.yul\":17014:17017   */\n      0x00\n        /* \"#utility.yul\":17042:17081   */\n      tag_318\n        /* \"#utility.yul\":17075:17080   */\n      dup3\n        /* \"#utility.yul\":17042:17081   */\n      tag_171\n      jump\t// in\n    tag_318:\n        /* \"#utility.yul\":17097:17168   */\n      tag_319\n        /* \"#utility.yul\":17161:17167   */\n      dup2\n        /* \"#utility.yul\":17156:17159   */\n      dup6\n        /* \"#utility.yul\":17097:17168   */\n      tag_141\n      jump\t// in\n    tag_319:\n        /* \"#utility.yul\":17090:17168   */\n      swap4\n      pop\n        /* \"#utility.yul\":17177:17242   */\n      tag_320\n        /* \"#utility.yul\":17235:17241   */\n      dup2\n        /* \"#utility.yul\":17230:17233   */\n      dup6\n        /* \"#utility.yul\":17223:17227   */\n      0x20\n        /* \"#utility.yul\":17216:17221   */\n      dup7\n        /* \"#utility.yul\":17212:17228   */\n      add\n        /* \"#utility.yul\":17177:17242   */\n      tag_169\n      jump\t// in\n    tag_320:\n        /* \"#utility.yul\":17267:17296   */\n      tag_321\n        /* \"#utility.yul\":17289:17295   */\n      dup2\n        /* \"#utility.yul\":17267:17296   */\n      tag_172\n      jump\t// in\n    tag_321:\n        /* \"#utility.yul\":17262:17265   */\n      dup5\n        /* \"#utility.yul\":17258:17297   */\n      add\n        /* \"#utility.yul\":17251:17297   */\n      swap2\n      pop\n        /* \"#utility.yul\":17018:17303   */\n      pop\n        /* \"#utility.yul\":16926:17303   */\n      swap3\n      swap2\n      pop\n      pop\n      jump\t// out\n        /* \"#utility.yul\":17309:17622   */\n    tag_130:\n        /* \"#utility.yul\":17422:17426   */\n      0x00\n        /* \"#utility.yul\":17460:17462   */\n      0x20\n        /* \"#utility.yul\":17449:17458   */\n      dup3\n        /* \"#utility.yul\":17445:17463   */\n      add\n        /* \"#utility.yul\":17437:17463   */\n      swap1\n      pop\n        /* \"#utility.yul\":17509:17518   */\n      dup2\n        /* \"#utility.yul\":17503:17507   */\n      dup2\n        /* \"#utility.yul\":17499:17519   */\n      sub\n        /* \"#utility.yul\":17495:17496   */\n      0x00\n        /* \"#utility.yul\":17484:17493   */\n      dup4\n        /* \"#utility.yul\":17480:17497   */\n      add\n        /* \"#utility.yul\":17473:17520   */\n      mstore\n        /* \"#utility.yul\":17537:17615   */\n      tag_323\n        /* \"#utility.yul\":17610:17614   */\n      dup2\n        /* \"#utility.yul\":17601:17607   */\n      dup5\n        /* \"#utility.yul\":17537:17615   */\n      tag_173\n      jump\t// in\n    tag_323:\n        /* \"#utility.yul\":17529:17615   */\n      swap1\n      pop\n        /* \"#utility.yul\":17309:17622   */\n      swap3\n      swap2\n      pop\n      pop\n      jump\t// out\n\n    auxdata: 0xa2646970667358221220e96e7a2bec8fb432594a3647f6a98d99fd96f913f3aa2bb24812c424757a477464736f6c63430008110033\n}\n",
				"bytecode": {
					"linkReferences": {},
					"object": "60c06040523480156200001157600080fd5b506040516200178f3803806200178f8339818101604052810190620000379190620001cf565b600160008190555033600260006101000a81548173ffffffffffffffffffffffffffffffffffffffff021916908373ffffffffffffffffffffffffffffffffffffffff160217905550670de0b6b3a76400008462000096919062000270565b6001819055508273ffffffffffffffffffffffffffffffffffffffff1660808173ffffffffffffffffffffffffffffffffffffffff16815250508173ffffffffffffffffffffffffffffffffffffffff1660a08173ffffffffffffffffffffffffffffffffffffffff1681525050670de0b6b3a7640000816200011a919062000270565b60038190555050505050620002bb565b600080fd5b6000819050919050565b62000144816200012f565b81146200015057600080fd5b50565b600081519050620001648162000139565b92915050565b600073ffffffffffffffffffffffffffffffffffffffff82169050919050565b600062000197826200016a565b9050919050565b620001a9816200018a565b8114620001b557600080fd5b50565b600081519050620001c9816200019e565b92915050565b60008060008060808587031215620001ec57620001eb6200012a565b5b6000620001fc8782880162000153565b94505060206200020f87828801620001b8565b93505060406200022287828801620001b8565b9250506060620002358782880162000153565b91505092959194509250565b7f4e487b7100000000000000000000000000000000000000000000000000000000600052601160045260246000fd5b60006200027d826200012f565b91506200028a836200012f565b92508282026200029a816200012f565b91508282048414831517620002b457620002b362000241565b5b5092915050565b60805160a0516114a0620002ef6000396000818161013f01526106f901526000818161031401526104ef01526114a06000f3fe608060405234801561001057600080fd5b50600436106100885760003560e01c8063c3a174411161005b578063c3a17441146100ef578063c54e44eb1461010b578063d7997f7e14610129578063dc55920f1461013357610088565b80636385f2fb1461008d57806376d812ea146100ab5780637ff9b596146100b5578063c2db2c42146100d3575b600080fd5b61009561013d565b6040516100a29190610bd0565b60405180910390f35b6100b3610161565b005b6100bd61020d565b6040516100ca9190610c04565b60405180910390f35b6100ed60048036038101906100e89190610c50565b610213565b005b61010960048036038101906101049190610c7d565b610422565b005b6101136104ed565b6040516101209190610bd0565b60405180910390f35b610131610511565b005b61013b6107dd565b005b7f000000000000000000000000000000000000000000000000000000000000000081565b600260009054906101000a900473ffffffffffffffffffffffffffffffffffffffff1673ffffffffffffffffffffffffffffffffffffffff163373ffffffffffffffffffffffffffffffffffffffff16146101bb57600080fd5b6000600260146101000a81548160ff0219169083151502179055507f71002079ab3de7feb03ee30c84baf1d2350d4ffe16709d3dacb5e1037a0fe1cc60405161020390610d1a565b60405180910390a1565b60015481565b600260005403610258576040517f08c379a000000000000000000000000000000000000000000000000000000000815260040161024f90610d86565b60405180910390fd5b600260008190555060011515600260149054906101000a900460ff161515146102b6576040517f08c379a00000000000000000000000000000000000000000000000000000000081526004016102ad90610df2565b60405180910390fd5b6000816004546102c69190610e41565b9050600354811061030c576040517f08c379a000000000000000000000000000000000000000000000000000000000815260040161030390610ec1565b60405180910390fd5b6103593330847f000000000000000000000000000000000000000000000000000000000000000073ffffffffffffffffffffffffffffffffffffffff16610889909392919063ffffffff16565b81600560003373ffffffffffffffffffffffffffffffffffffffff1673ffffffffffffffffffffffffffffffffffffffff16815260200190815260200160002060008282546103a89190610e41565b9250508190555081600460008282546103c19190610e41565b925050819055503373ffffffffffffffffffffffffffffffffffffffff167fda4cadf0d4383cb43c8249e3cc678f6690bdbaa01421c99fd9b14edac62cde808360405161040e9190610c04565b60405180910390a250600160008190555050565b600260009054906101000a900473ffffffffffffffffffffffffffffffffffffffff1673ffffffffffffffffffffffffffffffffffffffff163373ffffffffffffffffffffffffffffffffffffffff161461047c57600080fd5b670de0b6b3a7640000826104909190610ee1565b600181905550670de0b6b3a7640000816104aa9190610ee1565b6003819055507f314bf1ccc32c608a6175053b0da1933b3a745b3f799011003a4c39aab0c518a382826040516104e1929190610f23565b60405180910390a15050565b7f000000000000000000000000000000000000000000000000000000000000000081565b600260005403610556576040517f08c379a000000000000000000000000000000000000000000000000000000000815260040161054d90610d86565b60405180910390fd5b600260008190555060001515600260149054906101000a900460ff161515146105b4576040517f08c379a00000000000000000000000000000000000000000000000000000000081526004016105ab90610fbe565b60405180910390fd5b6000600560003373ffffffffffffffffffffffffffffffffffffffff1673ffffffffffffffffffffffffffffffffffffffff1681526020019081526020016000205411610636576040517f08c379a000000000000000000000000000000000000000000000000000000000815260040161062d9061102a565b60405180910390fd5b6000670de0b6b3a7640000600560003373ffffffffffffffffffffffffffffffffffffffff1673ffffffffffffffffffffffffffffffffffffffff1681526020019081526020016000205461068b9190610ee1565b90506000670de0b6b3a7640000600154836106a69190611079565b6106b09190610ee1565b90506000600560003373ffffffffffffffffffffffffffffffffffffffff1673ffffffffffffffffffffffffffffffffffffffff168152602001908152602001600020819055507f000000000000000000000000000000000000000000000000000000000000000073ffffffffffffffffffffffffffffffffffffffff166323b872dd3033846040518463ffffffff1660e01b8152600401610754939291906110aa565b6020604051808303816000875af1158015610773573d6000803e3d6000fd5b505050506040513d601f19601f820116820180604052508101906107979190611119565b507f1698755f2f63264c31ca84d930df9dd8ca3ac92d33a0dd64d10154f95e4203ef33826040516107c9929190611146565b60405180910390a150506001600081905550565b600260009054906101000a900473ffffffffffffffffffffffffffffffffffffffff1673ffffffffffffffffffffffffffffffffffffffff163373ffffffffffffffffffffffffffffffffffffffff161461083757600080fd5b6001600260146101000a81548160ff0219169083151502179055507f71002079ab3de7feb03ee30c84baf1d2350d4ffe16709d3dacb5e1037a0fe1cc60405161087f906111bb565b60405180910390a1565b61090c846323b872dd60e01b8585856040516024016108aa939291906110aa565b604051602081830303815290604052907bffffffffffffffffffffffffffffffffffffffffffffffffffffffff19166020820180517bffffffffffffffffffffffffffffffffffffffffffffffffffffffff8381831617835250505050610912565b50505050565b6000610974826040518060400160405280602081526020017f5361666545524332303a206c6f772d6c6576656c2063616c6c206661696c65648152508573ffffffffffffffffffffffffffffffffffffffff166109d99092919063ffffffff16565b90506000815111156109d457808060200190518101906109949190611119565b6109d3576040517f08c379a00000000000000000000000000000000000000000000000000000000081526004016109ca9061124d565b60405180910390fd5b5b505050565b60606109e884846000856109f1565b90509392505050565b606082471015610a36576040517f08c379a0000000000000000000000000000000000000000000000000000000008152600401610a2d906112df565b60405180910390fd5b610a3f85610b05565b610a7e576040517f08c379a0000000000000000000000000000000000000000000000000000000008152600401610a759061134b565b60405180910390fd5b6000808673ffffffffffffffffffffffffffffffffffffffff168587604051610aa791906113dc565b60006040518083038185875af1925050503d8060008114610ae4576040519150601f19603f3d011682016040523d82523d6000602084013e610ae9565b606091505b5091509150610af9828286610b28565b92505050949350505050565b6000808273ffffffffffffffffffffffffffffffffffffffff163b119050919050565b60608315610b3857829050610b88565b600083511115610b4b5782518084602001fd5b816040517f08c379a0000000000000000000000000000000000000000000000000000000008152600401610b7f9190611448565b60405180910390fd5b9392505050565b600073ffffffffffffffffffffffffffffffffffffffff82169050919050565b6000610bba82610b8f565b9050919050565b610bca81610baf565b82525050565b6000602082019050610be56000830184610bc1565b92915050565b6000819050919050565b610bfe81610beb565b82525050565b6000602082019050610c196000830184610bf5565b92915050565b600080fd5b610c2d81610beb565b8114610c3857600080fd5b50565b600081359050610c4a81610c24565b92915050565b600060208284031215610c6657610c65610c1f565b5b6000610c7484828501610c3b565b91505092915050565b60008060408385031215610c9457610c93610c1f565b5b6000610ca285828601610c3b565b9250506020610cb385828601610c3b565b9150509250929050565b600082825260208201905092915050565b7f49434f2069732070617573656400000000000000000000000000000000000000600082015250565b6000610d04600d83610cbd565b9150610d0f82610cce565b602082019050919050565b60006020820190508181036000830152610d3381610cf7565b9050919050565b7f5265656e7472616e637947756172643a207265656e7472616e742063616c6c00600082015250565b6000610d70601f83610cbd565b9150610d7b82610d3a565b602082019050919050565b60006020820190508181036000830152610d9f81610d63565b9050919050565b7f49444f20686173206e6f74207374617274656400000000000000000000000000600082015250565b6000610ddc601383610cbd565b9150610de782610da6565b602082019050919050565b60006020820190508181036000830152610e0b81610dcf565b9050919050565b7f4e487b7100000000000000000000000000000000000000000000000000000000600052601160045260246000fd5b6000610e4c82610beb565b9150610e5783610beb565b9250828201905080821115610e6f57610e6e610e12565b5b92915050565b7f416c6c20746f6b656e7320686173206265656e20736f6c640000000000000000600082015250565b6000610eab601883610cbd565b9150610eb682610e75565b602082019050919050565b60006020820190508181036000830152610eda81610e9e565b9050919050565b6000610eec82610beb565b9150610ef783610beb565b9250828202610f0581610beb565b91508282048414831517610f1c57610f1b610e12565b5b5092915050565b6000604082019050610f386000830185610bf5565b610f456020830184610bf5565b9392505050565b7f49444f2048617320206e6f7420656e6465642c20636c61696d20756e6176616960008201527f6c61626c65000000000000000000000000000000000000000000000000000000602082015250565b6000610fa8602583610cbd565b9150610fb382610f4c565b604082019050919050565b60006020820190508181036000830152610fd781610f9b565b9050919050565b7f796f7520646964206e6f74207061727469636970617465000000000000000000600082015250565b6000611014601783610cbd565b915061101f82610fde565b602082019050919050565b6000602082019050818103600083015261104381611007565b9050919050565b7f4e487b7100000000000000000000000000000000000000000000000000000000600052601260045260246000fd5b600061108482610beb565b915061108f83610beb565b92508261109f5761109e61104a565b5b828204905092915050565b60006060820190506110bf6000830186610bc1565b6110cc6020830185610bc1565b6110d96040830184610bf5565b949350505050565b60008115159050919050565b6110f6816110e1565b811461110157600080fd5b50565b600081519050611113816110ed565b92915050565b60006020828403121561112f5761112e610c1f565b5b600061113d84828501611104565b91505092915050565b600060408201905061115b6000830185610bc1565b6111686020830184610bf5565b9392505050565b7f49434f206973206f6e0000000000000000000000000000000000000000000000600082015250565b60006111a5600983610cbd565b91506111b08261116f565b602082019050919050565b600060208201905081810360008301526111d481611198565b9050919050565b7f5361666545524332303a204552433230206f7065726174696f6e20646964206e60008201527f6f74207375636365656400000000000000000000000000000000000000000000602082015250565b6000611237602a83610cbd565b9150611242826111db565b604082019050919050565b600060208201905081810360008301526112668161122a565b9050919050565b7f416464726573733a20696e73756666696369656e742062616c616e636520666f60008201527f722063616c6c0000000000000000000000000000000000000000000000000000602082015250565b60006112c9602683610cbd565b91506112d48261126d565b604082019050919050565b600060208201905081810360008301526112f8816112bc565b9050919050565b7f416464726573733a2063616c6c20746f206e6f6e2d636f6e7472616374000000600082015250565b6000611335601d83610cbd565b9150611340826112ff565b602082019050919050565b6000602082019050818103600083015261136481611328565b9050919050565b600081519050919050565b600081905092915050565b60005b8381101561139f578082015181840152602081019050611384565b60008484015250505050565b60006113b68261136b565b6113c08185611376565b93506113d0818560208601611381565b80840191505092915050565b60006113e882846113ab565b915081905092915050565b600081519050919050565b6000601f19601f8301169050919050565b600061141a826113f3565b6114248185610cbd565b9350611434818560208601611381565b61143d816113fe565b840191505092915050565b60006020820190508181036000830152611462818461140f565b90509291505056fea2646970667358221220e96e7a2bec8fb432594a3647f6a98d99fd96f913f3aa2bb24812c424757a477464736f6c63430008110033",
					"opcodes": "PUSH1 0xC0 PUSH1 0x40 MSTORE CALLVALUE DUP1 ISZERO PUSH3 0x11 JUMPI PUSH1 0x0 DUP1 REVERT JUMPDEST POP PUSH1 0x40 MLOAD PUSH3 0x178F CODESIZE SUB DUP1 PUSH3 0x178F DUP4 CODECOPY DUP2 DUP2 ADD PUSH1 0x40 MSTORE DUP2 ADD SWAP1 PUSH3 0x37 SWAP2 SWAP1 PUSH3 0x1CF JUMP JUMPDEST PUSH1 0x1 PUSH1 0x0 DUP2 SWAP1 SSTORE POP CALLER PUSH1 0x2 PUSH1 0x0 PUSH2 0x100 EXP DUP2 SLOAD DUP2 PUSH20 0xFFFFFFFFFFFFFFFFFFFFFFFFFFFFFFFFFFFFFFFF MUL NOT AND SWAP1 DUP4 PUSH20 0xFFFFFFFFFFFFFFFFFFFFFFFFFFFFFFFFFFFFFFFF AND MUL OR SWAP1 SSTORE POP PUSH8 0xDE0B6B3A7640000 DUP5 PUSH3 0x96 SWAP2 SWAP1 PUSH3 0x270 JUMP JUMPDEST PUSH1 0x1 DUP2 SWAP1 SSTORE POP DUP3 PUSH20 0xFFFFFFFFFFFFFFFFFFFFFFFFFFFFFFFFFFFFFFFF AND PUSH1 0x80 DUP2 PUSH20 0xFFFFFFFFFFFFFFFFFFFFFFFFFFFFFFFFFFFFFFFF AND DUP2 MSTORE POP POP DUP2 PUSH20 0xFFFFFFFFFFFFFFFFFFFFFFFFFFFFFFFFFFFFFFFF AND PUSH1 0xA0 DUP2 PUSH20 0xFFFFFFFFFFFFFFFFFFFFFFFFFFFFFFFFFFFFFFFF AND DUP2 MSTORE POP POP PUSH8 0xDE0B6B3A7640000 DUP2 PUSH3 0x11A SWAP2 SWAP1 PUSH3 0x270 JUMP JUMPDEST PUSH1 0x3 DUP2 SWAP1 SSTORE POP POP POP POP POP PUSH3 0x2BB JUMP JUMPDEST PUSH1 0x0 DUP1 REVERT JUMPDEST PUSH1 0x0 DUP2 SWAP1 POP SWAP2 SWAP1 POP JUMP JUMPDEST PUSH3 0x144 DUP2 PUSH3 0x12F JUMP JUMPDEST DUP2 EQ PUSH3 0x150 JUMPI PUSH1 0x0 DUP1 REVERT JUMPDEST POP JUMP JUMPDEST PUSH1 0x0 DUP2 MLOAD SWAP1 POP PUSH3 0x164 DUP2 PUSH3 0x139 JUMP JUMPDEST SWAP3 SWAP2 POP POP JUMP JUMPDEST PUSH1 0x0 PUSH20 0xFFFFFFFFFFFFFFFFFFFFFFFFFFFFFFFFFFFFFFFF DUP3 AND SWAP1 POP SWAP2 SWAP1 POP JUMP JUMPDEST PUSH1 0x0 PUSH3 0x197 DUP3 PUSH3 0x16A JUMP JUMPDEST SWAP1 POP SWAP2 SWAP1 POP JUMP JUMPDEST PUSH3 0x1A9 DUP2 PUSH3 0x18A JUMP JUMPDEST DUP2 EQ PUSH3 0x1B5 JUMPI PUSH1 0x0 DUP1 REVERT JUMPDEST POP JUMP JUMPDEST PUSH1 0x0 DUP2 MLOAD SWAP1 POP PUSH3 0x1C9 DUP2 PUSH3 0x19E JUMP JUMPDEST SWAP3 SWAP2 POP POP JUMP JUMPDEST PUSH1 0x0 DUP1 PUSH1 0x0 DUP1 PUSH1 0x80 DUP6 DUP8 SUB SLT ISZERO PUSH3 0x1EC JUMPI PUSH3 0x1EB PUSH3 0x12A JUMP JUMPDEST JUMPDEST PUSH1 0x0 PUSH3 0x1FC DUP8 DUP3 DUP9 ADD PUSH3 0x153 JUMP JUMPDEST SWAP5 POP POP PUSH1 0x20 PUSH3 0x20F DUP8 DUP3 DUP9 ADD PUSH3 0x1B8 JUMP JUMPDEST SWAP4 POP POP PUSH1 0x40 PUSH3 0x222 DUP8 DUP3 DUP9 ADD PUSH3 0x1B8 JUMP JUMPDEST SWAP3 POP POP PUSH1 0x60 PUSH3 0x235 DUP8 DUP3 DUP9 ADD PUSH3 0x153 JUMP JUMPDEST SWAP2 POP POP SWAP3 SWAP6 SWAP2 SWAP5 POP SWAP3 POP JUMP JUMPDEST PUSH32 0x4E487B7100000000000000000000000000000000000000000000000000000000 PUSH1 0x0 MSTORE PUSH1 0x11 PUSH1 0x4 MSTORE PUSH1 0x24 PUSH1 0x0 REVERT JUMPDEST PUSH1 0x0 PUSH3 0x27D DUP3 PUSH3 0x12F JUMP JUMPDEST SWAP2 POP PUSH3 0x28A DUP4 PUSH3 0x12F JUMP JUMPDEST SWAP3 POP DUP3 DUP3 MUL PUSH3 0x29A DUP2 PUSH3 0x12F JUMP JUMPDEST SWAP2 POP DUP3 DUP3 DIV DUP5 EQ DUP4 ISZERO OR PUSH3 0x2B4 JUMPI PUSH3 0x2B3 PUSH3 0x241 JUMP JUMPDEST JUMPDEST POP SWAP3 SWAP2 POP POP JUMP JUMPDEST PUSH1 0x80 MLOAD PUSH1 0xA0 MLOAD PUSH2 0x14A0 PUSH3 0x2EF PUSH1 0x0 CODECOPY PUSH1 0x0 DUP2 DUP2 PUSH2 0x13F ADD MSTORE PUSH2 0x6F9 ADD MSTORE PUSH1 0x0 DUP2 DUP2 PUSH2 0x314 ADD MSTORE PUSH2 0x4EF ADD MSTORE PUSH2 0x14A0 PUSH1 0x0 RETURN INVALID PUSH1 0x80 PUSH1 0x40 MSTORE CALLVALUE DUP1 ISZERO PUSH2 0x10 JUMPI PUSH1 0x0 DUP1 REVERT JUMPDEST POP PUSH1 0x4 CALLDATASIZE LT PUSH2 0x88 JUMPI PUSH1 0x0 CALLDATALOAD PUSH1 0xE0 SHR DUP1 PUSH4 0xC3A17441 GT PUSH2 0x5B JUMPI DUP1 PUSH4 0xC3A17441 EQ PUSH2 0xEF JUMPI DUP1 PUSH4 0xC54E44EB EQ PUSH2 0x10B JUMPI DUP1 PUSH4 0xD7997F7E EQ PUSH2 0x129 JUMPI DUP1 PUSH4 0xDC55920F EQ PUSH2 0x133 JUMPI PUSH2 0x88 JUMP JUMPDEST DUP1 PUSH4 0x6385F2FB EQ PUSH2 0x8D JUMPI DUP1 PUSH4 0x76D812EA EQ PUSH2 0xAB JUMPI DUP1 PUSH4 0x7FF9B596 EQ PUSH2 0xB5 JUMPI DUP1 PUSH4 0xC2DB2C42 EQ PUSH2 0xD3 JUMPI JUMPDEST PUSH1 0x0 DUP1 REVERT JUMPDEST PUSH2 0x95 PUSH2 0x13D JUMP JUMPDEST PUSH1 0x40 MLOAD PUSH2 0xA2 SWAP2 SWAP1 PUSH2 0xBD0 JUMP JUMPDEST PUSH1 0x40 MLOAD DUP1 SWAP2 SUB SWAP1 RETURN JUMPDEST PUSH2 0xB3 PUSH2 0x161 JUMP JUMPDEST STOP JUMPDEST PUSH2 0xBD PUSH2 0x20D JUMP JUMPDEST PUSH1 0x40 MLOAD PUSH2 0xCA SWAP2 SWAP1 PUSH2 0xC04 JUMP JUMPDEST PUSH1 0x40 MLOAD DUP1 SWAP2 SUB SWAP1 RETURN JUMPDEST PUSH2 0xED PUSH1 0x4 DUP1 CALLDATASIZE SUB DUP2 ADD SWAP1 PUSH2 0xE8 SWAP2 SWAP1 PUSH2 0xC50 JUMP JUMPDEST PUSH2 0x213 JUMP JUMPDEST STOP JUMPDEST PUSH2 0x109 PUSH1 0x4 DUP1 CALLDATASIZE SUB DUP2 ADD SWAP1 PUSH2 0x104 SWAP2 SWAP1 PUSH2 0xC7D JUMP JUMPDEST PUSH2 0x422 JUMP JUMPDEST STOP JUMPDEST PUSH2 0x113 PUSH2 0x4ED JUMP JUMPDEST PUSH1 0x40 MLOAD PUSH2 0x120 SWAP2 SWAP1 PUSH2 0xBD0 JUMP JUMPDEST PUSH1 0x40 MLOAD DUP1 SWAP2 SUB SWAP1 RETURN JUMPDEST PUSH2 0x131 PUSH2 0x511 JUMP JUMPDEST STOP JUMPDEST PUSH2 0x13B PUSH2 0x7DD JUMP JUMPDEST STOP JUMPDEST PUSH32 0x0 DUP2 JUMP JUMPDEST PUSH1 0x2 PUSH1 0x0 SWAP1 SLOAD SWAP1 PUSH2 0x100 EXP SWAP1 DIV PUSH20 0xFFFFFFFFFFFFFFFFFFFFFFFFFFFFFFFFFFFFFFFF AND PUSH20 0xFFFFFFFFFFFFFFFFFFFFFFFFFFFFFFFFFFFFFFFF AND CALLER PUSH20 0xFFFFFFFFFFFFFFFFFFFFFFFFFFFFFFFFFFFFFFFF AND EQ PUSH2 0x1BB JUMPI PUSH1 0x0 DUP1 REVERT JUMPDEST PUSH1 0x0 PUSH1 0x2 PUSH1 0x14 PUSH2 0x100 EXP DUP2 SLOAD DUP2 PUSH1 0xFF MUL NOT AND SWAP1 DUP4 ISZERO ISZERO MUL OR SWAP1 SSTORE POP PUSH32 0x71002079AB3DE7FEB03EE30C84BAF1D2350D4FFE16709D3DACB5E1037A0FE1CC PUSH1 0x40 MLOAD PUSH2 0x203 SWAP1 PUSH2 0xD1A JUMP JUMPDEST PUSH1 0x40 MLOAD DUP1 SWAP2 SUB SWAP1 LOG1 JUMP JUMPDEST PUSH1 0x1 SLOAD DUP2 JUMP JUMPDEST PUSH1 0x2 PUSH1 0x0 SLOAD SUB PUSH2 0x258 JUMPI PUSH1 0x40 MLOAD PUSH32 0x8C379A000000000000000000000000000000000000000000000000000000000 DUP2 MSTORE PUSH1 0x4 ADD PUSH2 0x24F SWAP1 PUSH2 0xD86 JUMP JUMPDEST PUSH1 0x40 MLOAD DUP1 SWAP2 SUB SWAP1 REVERT JUMPDEST PUSH1 0x2 PUSH1 0x0 DUP2 SWAP1 SSTORE POP PUSH1 0x1 ISZERO ISZERO PUSH1 0x2 PUSH1 0x14 SWAP1 SLOAD SWAP1 PUSH2 0x100 EXP SWAP1 DIV PUSH1 0xFF AND ISZERO ISZERO EQ PUSH2 0x2B6 JUMPI PUSH1 0x40 MLOAD PUSH32 0x8C379A000000000000000000000000000000000000000000000000000000000 DUP2 MSTORE PUSH1 0x4 ADD PUSH2 0x2AD SWAP1 PUSH2 0xDF2 JUMP JUMPDEST PUSH1 0x40 MLOAD DUP1 SWAP2 SUB SWAP1 REVERT JUMPDEST PUSH1 0x0 DUP2 PUSH1 0x4 SLOAD PUSH2 0x2C6 SWAP2 SWAP1 PUSH2 0xE41 JUMP JUMPDEST SWAP1 POP PUSH1 0x3 SLOAD DUP2 LT PUSH2 0x30C JUMPI PUSH1 0x40 MLOAD PUSH32 0x8C379A000000000000000000000000000000000000000000000000000000000 DUP2 MSTORE PUSH1 0x4 ADD PUSH2 0x303 SWAP1 PUSH2 0xEC1 JUMP JUMPDEST PUSH1 0x40 MLOAD DUP1 SWAP2 SUB SWAP1 REVERT JUMPDEST PUSH2 0x359 CALLER ADDRESS DUP5 PUSH32 0x0 PUSH20 0xFFFFFFFFFFFFFFFFFFFFFFFFFFFFFFFFFFFFFFFF AND PUSH2 0x889 SWAP1 SWAP4 SWAP3 SWAP2 SWAP1 PUSH4 0xFFFFFFFF AND JUMP JUMPDEST DUP2 PUSH1 0x5 PUSH1 0x0 CALLER PUSH20 0xFFFFFFFFFFFFFFFFFFFFFFFFFFFFFFFFFFFFFFFF AND PUSH20 0xFFFFFFFFFFFFFFFFFFFFFFFFFFFFFFFFFFFFFFFF AND DUP2 MSTORE PUSH1 0x20 ADD SWAP1 DUP2 MSTORE PUSH1 0x20 ADD PUSH1 0x0 KECCAK256 PUSH1 0x0 DUP3 DUP3 SLOAD PUSH2 0x3A8 SWAP2 SWAP1 PUSH2 0xE41 JUMP JUMPDEST SWAP3 POP POP DUP2 SWAP1 SSTORE POP DUP2 PUSH1 0x4 PUSH1 0x0 DUP3 DUP3 SLOAD PUSH2 0x3C1 SWAP2 SWAP1 PUSH2 0xE41 JUMP JUMPDEST SWAP3 POP POP DUP2 SWAP1 SSTORE POP CALLER PUSH20 0xFFFFFFFFFFFFFFFFFFFFFFFFFFFFFFFFFFFFFFFF AND PUSH32 0xDA4CADF0D4383CB43C8249E3CC678F6690BDBAA01421C99FD9B14EDAC62CDE80 DUP4 PUSH1 0x40 MLOAD PUSH2 0x40E SWAP2 SWAP1 PUSH2 0xC04 JUMP JUMPDEST PUSH1 0x40 MLOAD DUP1 SWAP2 SUB SWAP1 LOG2 POP PUSH1 0x1 PUSH1 0x0 DUP2 SWAP1 SSTORE POP POP JUMP JUMPDEST PUSH1 0x2 PUSH1 0x0 SWAP1 SLOAD SWAP1 PUSH2 0x100 EXP SWAP1 DIV PUSH20 0xFFFFFFFFFFFFFFFFFFFFFFFFFFFFFFFFFFFFFFFF AND PUSH20 0xFFFFFFFFFFFFFFFFFFFFFFFFFFFFFFFFFFFFFFFF AND CALLER PUSH20 0xFFFFFFFFFFFFFFFFFFFFFFFFFFFFFFFFFFFFFFFF AND EQ PUSH2 0x47C JUMPI PUSH1 0x0 DUP1 REVERT JUMPDEST PUSH8 0xDE0B6B3A7640000 DUP3 PUSH2 0x490 SWAP2 SWAP1 PUSH2 0xEE1 JUMP JUMPDEST PUSH1 0x1 DUP2 SWAP1 SSTORE POP PUSH8 0xDE0B6B3A7640000 DUP2 PUSH2 0x4AA SWAP2 SWAP1 PUSH2 0xEE1 JUMP JUMPDEST PUSH1 0x3 DUP2 SWAP1 SSTORE POP PUSH32 0x314BF1CCC32C608A6175053B0DA1933B3A745B3F799011003A4C39AAB0C518A3 DUP3 DUP3 PUSH1 0x40 MLOAD PUSH2 0x4E1 SWAP3 SWAP2 SWAP1 PUSH2 0xF23 JUMP JUMPDEST PUSH1 0x40 MLOAD DUP1 SWAP2 SUB SWAP1 LOG1 POP POP JUMP JUMPDEST PUSH32 0x0 DUP2 JUMP JUMPDEST PUSH1 0x2 PUSH1 0x0 SLOAD SUB PUSH2 0x556 JUMPI PUSH1 0x40 MLOAD PUSH32 0x8C379A000000000000000000000000000000000000000000000000000000000 DUP2 MSTORE PUSH1 0x4 ADD PUSH2 0x54D SWAP1 PUSH2 0xD86 JUMP JUMPDEST PUSH1 0x40 MLOAD DUP1 SWAP2 SUB SWAP1 REVERT JUMPDEST PUSH1 0x2 PUSH1 0x0 DUP2 SWAP1 SSTORE POP PUSH1 0x0 ISZERO ISZERO PUSH1 0x2 PUSH1 0x14 SWAP1 SLOAD SWAP1 PUSH2 0x100 EXP SWAP1 DIV PUSH1 0xFF AND ISZERO ISZERO EQ PUSH2 0x5B4 JUMPI PUSH1 0x40 MLOAD PUSH32 0x8C379A000000000000000000000000000000000000000000000000000000000 DUP2 MSTORE PUSH1 0x4 ADD PUSH2 0x5AB SWAP1 PUSH2 0xFBE JUMP JUMPDEST PUSH1 0x40 MLOAD DUP1 SWAP2 SUB SWAP1 REVERT JUMPDEST PUSH1 0x0 PUSH1 0x5 PUSH1 0x0 CALLER PUSH20 0xFFFFFFFFFFFFFFFFFFFFFFFFFFFFFFFFFFFFFFFF AND PUSH20 0xFFFFFFFFFFFFFFFFFFFFFFFFFFFFFFFFFFFFFFFF AND DUP2 MSTORE PUSH1 0x20 ADD SWAP1 DUP2 MSTORE PUSH1 0x20 ADD PUSH1 0x0 KECCAK256 SLOAD GT PUSH2 0x636 JUMPI PUSH1 0x40 MLOAD PUSH32 0x8C379A000000000000000000000000000000000000000000000000000000000 DUP2 MSTORE PUSH1 0x4 ADD PUSH2 0x62D SWAP1 PUSH2 0x102A JUMP JUMPDEST PUSH1 0x40 MLOAD DUP1 SWAP2 SUB SWAP1 REVERT JUMPDEST PUSH1 0x0 PUSH8 0xDE0B6B3A7640000 PUSH1 0x5 PUSH1 0x0 CALLER PUSH20 0xFFFFFFFFFFFFFFFFFFFFFFFFFFFFFFFFFFFFFFFF AND PUSH20 0xFFFFFFFFFFFFFFFFFFFFFFFFFFFFFFFFFFFFFFFF AND DUP2 MSTORE PUSH1 0x20 ADD SWAP1 DUP2 MSTORE PUSH1 0x20 ADD PUSH1 0x0 KECCAK256 SLOAD PUSH2 0x68B SWAP2 SWAP1 PUSH2 0xEE1 JUMP JUMPDEST SWAP1 POP PUSH1 0x0 PUSH8 0xDE0B6B3A7640000 PUSH1 0x1 SLOAD DUP4 PUSH2 0x6A6 SWAP2 SWAP1 PUSH2 0x1079 JUMP JUMPDEST PUSH2 0x6B0 SWAP2 SWAP1 PUSH2 0xEE1 JUMP JUMPDEST SWAP1 POP PUSH1 0x0 PUSH1 0x5 PUSH1 0x0 CALLER PUSH20 0xFFFFFFFFFFFFFFFFFFFFFFFFFFFFFFFFFFFFFFFF AND PUSH20 0xFFFFFFFFFFFFFFFFFFFFFFFFFFFFFFFFFFFFFFFF AND DUP2 MSTORE PUSH1 0x20 ADD SWAP1 DUP2 MSTORE PUSH1 0x20 ADD PUSH1 0x0 KECCAK256 DUP2 SWAP1 SSTORE POP PUSH32 0x0 PUSH20 0xFFFFFFFFFFFFFFFFFFFFFFFFFFFFFFFFFFFFFFFF AND PUSH4 0x23B872DD ADDRESS CALLER DUP5 PUSH1 0x40 MLOAD DUP5 PUSH4 0xFFFFFFFF AND PUSH1 0xE0 SHL DUP2 MSTORE PUSH1 0x4 ADD PUSH2 0x754 SWAP4 SWAP3 SWAP2 SWAP1 PUSH2 0x10AA JUMP JUMPDEST PUSH1 0x20 PUSH1 0x40 MLOAD DUP1 DUP4 SUB DUP2 PUSH1 0x0 DUP8 GAS CALL ISZERO DUP1 ISZERO PUSH2 0x773 JUMPI RETURNDATASIZE PUSH1 0x0 DUP1 RETURNDATACOPY RETURNDATASIZE PUSH1 0x0 REVERT JUMPDEST POP POP POP POP PUSH1 0x40 MLOAD RETURNDATASIZE PUSH1 0x1F NOT PUSH1 0x1F DUP3 ADD AND DUP3 ADD DUP1 PUSH1 0x40 MSTORE POP DUP2 ADD SWAP1 PUSH2 0x797 SWAP2 SWAP1 PUSH2 0x1119 JUMP JUMPDEST POP PUSH32 0x1698755F2F63264C31CA84D930DF9DD8CA3AC92D33A0DD64D10154F95E4203EF CALLER DUP3 PUSH1 0x40 MLOAD PUSH2 0x7C9 SWAP3 SWAP2 SWAP1 PUSH2 0x1146 JUMP JUMPDEST PUSH1 0x40 MLOAD DUP1 SWAP2 SUB SWAP1 LOG1 POP POP PUSH1 0x1 PUSH1 0x0 DUP2 SWAP1 SSTORE POP JUMP JUMPDEST PUSH1 0x2 PUSH1 0x0 SWAP1 SLOAD SWAP1 PUSH2 0x100 EXP SWAP1 DIV PUSH20 0xFFFFFFFFFFFFFFFFFFFFFFFFFFFFFFFFFFFFFFFF AND PUSH20 0xFFFFFFFFFFFFFFFFFFFFFFFFFFFFFFFFFFFFFFFF AND CALLER PUSH20 0xFFFFFFFFFFFFFFFFFFFFFFFFFFFFFFFFFFFFFFFF AND EQ PUSH2 0x837 JUMPI PUSH1 0x0 DUP1 REVERT JUMPDEST PUSH1 0x1 PUSH1 0x2 PUSH1 0x14 PUSH2 0x100 EXP DUP2 SLOAD DUP2 PUSH1 0xFF MUL NOT AND SWAP1 DUP4 ISZERO ISZERO MUL OR SWAP1 SSTORE POP PUSH32 0x71002079AB3DE7FEB03EE30C84BAF1D2350D4FFE16709D3DACB5E1037A0FE1CC PUSH1 0x40 MLOAD PUSH2 0x87F SWAP1 PUSH2 0x11BB JUMP JUMPDEST PUSH1 0x40 MLOAD DUP1 SWAP2 SUB SWAP1 LOG1 JUMP JUMPDEST PUSH2 0x90C DUP5 PUSH4 0x23B872DD PUSH1 0xE0 SHL DUP6 DUP6 DUP6 PUSH1 0x40 MLOAD PUSH1 0x24 ADD PUSH2 0x8AA SWAP4 SWAP3 SWAP2 SWAP1 PUSH2 0x10AA JUMP JUMPDEST PUSH1 0x40 MLOAD PUSH1 0x20 DUP2 DUP4 SUB SUB DUP2 MSTORE SWAP1 PUSH1 0x40 MSTORE SWAP1 PUSH28 0xFFFFFFFFFFFFFFFFFFFFFFFFFFFFFFFFFFFFFFFFFFFFFFFFFFFFFFFF NOT AND PUSH1 0x20 DUP3 ADD DUP1 MLOAD PUSH28 0xFFFFFFFFFFFFFFFFFFFFFFFFFFFFFFFFFFFFFFFFFFFFFFFFFFFFFFFF DUP4 DUP2 DUP4 AND OR DUP4 MSTORE POP POP POP POP PUSH2 0x912 JUMP JUMPDEST POP POP POP POP JUMP JUMPDEST PUSH1 0x0 PUSH2 0x974 DUP3 PUSH1 0x40 MLOAD DUP1 PUSH1 0x40 ADD PUSH1 0x40 MSTORE DUP1 PUSH1 0x20 DUP2 MSTORE PUSH1 0x20 ADD PUSH32 0x5361666545524332303A206C6F772D6C6576656C2063616C6C206661696C6564 DUP2 MSTORE POP DUP6 PUSH20 0xFFFFFFFFFFFFFFFFFFFFFFFFFFFFFFFFFFFFFFFF AND PUSH2 0x9D9 SWAP1 SWAP3 SWAP2 SWAP1 PUSH4 0xFFFFFFFF AND JUMP JUMPDEST SWAP1 POP PUSH1 0x0 DUP2 MLOAD GT ISZERO PUSH2 0x9D4 JUMPI DUP1 DUP1 PUSH1 0x20 ADD SWAP1 MLOAD DUP2 ADD SWAP1 PUSH2 0x994 SWAP2 SWAP1 PUSH2 0x1119 JUMP JUMPDEST PUSH2 0x9D3 JUMPI PUSH1 0x40 MLOAD PUSH32 0x8C379A000000000000000000000000000000000000000000000000000000000 DUP2 MSTORE PUSH1 0x4 ADD PUSH2 0x9CA SWAP1 PUSH2 0x124D JUMP JUMPDEST PUSH1 0x40 MLOAD DUP1 SWAP2 SUB SWAP1 REVERT JUMPDEST JUMPDEST POP POP POP JUMP JUMPDEST PUSH1 0x60 PUSH2 0x9E8 DUP5 DUP5 PUSH1 0x0 DUP6 PUSH2 0x9F1 JUMP JUMPDEST SWAP1 POP SWAP4 SWAP3 POP POP POP JUMP JUMPDEST PUSH1 0x60 DUP3 SELFBALANCE LT ISZERO PUSH2 0xA36 JUMPI PUSH1 0x40 MLOAD PUSH32 0x8C379A000000000000000000000000000000000000000000000000000000000 DUP2 MSTORE PUSH1 0x4 ADD PUSH2 0xA2D SWAP1 PUSH2 0x12DF JUMP JUMPDEST PUSH1 0x40 MLOAD DUP1 SWAP2 SUB SWAP1 REVERT JUMPDEST PUSH2 0xA3F DUP6 PUSH2 0xB05 JUMP JUMPDEST PUSH2 0xA7E JUMPI PUSH1 0x40 MLOAD PUSH32 0x8C379A000000000000000000000000000000000000000000000000000000000 DUP2 MSTORE PUSH1 0x4 ADD PUSH2 0xA75 SWAP1 PUSH2 0x134B JUMP JUMPDEST PUSH1 0x40 MLOAD DUP1 SWAP2 SUB SWAP1 REVERT JUMPDEST PUSH1 0x0 DUP1 DUP7 PUSH20 0xFFFFFFFFFFFFFFFFFFFFFFFFFFFFFFFFFFFFFFFF AND DUP6 DUP8 PUSH1 0x40 MLOAD PUSH2 0xAA7 SWAP2 SWAP1 PUSH2 0x13DC JUMP JUMPDEST PUSH1 0x0 PUSH1 0x40 MLOAD DUP1 DUP4 SUB DUP2 DUP6 DUP8 GAS CALL SWAP3 POP POP POP RETURNDATASIZE DUP1 PUSH1 0x0 DUP2 EQ PUSH2 0xAE4 JUMPI PUSH1 0x40 MLOAD SWAP2 POP PUSH1 0x1F NOT PUSH1 0x3F RETURNDATASIZE ADD AND DUP3 ADD PUSH1 0x40 MSTORE RETURNDATASIZE DUP3 MSTORE RETURNDATASIZE PUSH1 0x0 PUSH1 0x20 DUP5 ADD RETURNDATACOPY PUSH2 0xAE9 JUMP JUMPDEST PUSH1 0x60 SWAP2 POP JUMPDEST POP SWAP2 POP SWAP2 POP PUSH2 0xAF9 DUP3 DUP3 DUP7 PUSH2 0xB28 JUMP JUMPDEST SWAP3 POP POP POP SWAP5 SWAP4 POP POP POP POP JUMP JUMPDEST PUSH1 0x0 DUP1 DUP3 PUSH20 0xFFFFFFFFFFFFFFFFFFFFFFFFFFFFFFFFFFFFFFFF AND EXTCODESIZE GT SWAP1 POP SWAP2 SWAP1 POP JUMP JUMPDEST PUSH1 0x60 DUP4 ISZERO PUSH2 0xB38 JUMPI DUP3 SWAP1 POP PUSH2 0xB88 JUMP JUMPDEST PUSH1 0x0 DUP4 MLOAD GT ISZERO PUSH2 0xB4B JUMPI DUP3 MLOAD DUP1 DUP5 PUSH1 0x20 ADD REVERT JUMPDEST DUP2 PUSH1 0x40 MLOAD PUSH32 0x8C379A000000000000000000000000000000000000000000000000000000000 DUP2 MSTORE PUSH1 0x4 ADD PUSH2 0xB7F SWAP2 SWAP1 PUSH2 0x1448 JUMP JUMPDEST PUSH1 0x40 MLOAD DUP1 SWAP2 SUB SWAP1 REVERT JUMPDEST SWAP4 SWAP3 POP POP POP JUMP JUMPDEST PUSH1 0x0 PUSH20 0xFFFFFFFFFFFFFFFFFFFFFFFFFFFFFFFFFFFFFFFF DUP3 AND SWAP1 POP SWAP2 SWAP1 POP JUMP JUMPDEST PUSH1 0x0 PUSH2 0xBBA DUP3 PUSH2 0xB8F JUMP JUMPDEST SWAP1 POP SWAP2 SWAP1 POP JUMP JUMPDEST PUSH2 0xBCA DUP2 PUSH2 0xBAF JUMP JUMPDEST DUP3 MSTORE POP POP JUMP JUMPDEST PUSH1 0x0 PUSH1 0x20 DUP3 ADD SWAP1 POP PUSH2 0xBE5 PUSH1 0x0 DUP4 ADD DUP5 PUSH2 0xBC1 JUMP JUMPDEST SWAP3 SWAP2 POP POP JUMP JUMPDEST PUSH1 0x0 DUP2 SWAP1 POP SWAP2 SWAP1 POP JUMP JUMPDEST PUSH2 0xBFE DUP2 PUSH2 0xBEB JUMP JUMPDEST DUP3 MSTORE POP POP JUMP JUMPDEST PUSH1 0x0 PUSH1 0x20 DUP3 ADD SWAP1 POP PUSH2 0xC19 PUSH1 0x0 DUP4 ADD DUP5 PUSH2 0xBF5 JUMP JUMPDEST SWAP3 SWAP2 POP POP JUMP JUMPDEST PUSH1 0x0 DUP1 REVERT JUMPDEST PUSH2 0xC2D DUP2 PUSH2 0xBEB JUMP JUMPDEST DUP2 EQ PUSH2 0xC38 JUMPI PUSH1 0x0 DUP1 REVERT JUMPDEST POP JUMP JUMPDEST PUSH1 0x0 DUP2 CALLDATALOAD SWAP1 POP PUSH2 0xC4A DUP2 PUSH2 0xC24 JUMP JUMPDEST SWAP3 SWAP2 POP POP JUMP JUMPDEST PUSH1 0x0 PUSH1 0x20 DUP3 DUP5 SUB SLT ISZERO PUSH2 0xC66 JUMPI PUSH2 0xC65 PUSH2 0xC1F JUMP JUMPDEST JUMPDEST PUSH1 0x0 PUSH2 0xC74 DUP5 DUP3 DUP6 ADD PUSH2 0xC3B JUMP JUMPDEST SWAP2 POP POP SWAP3 SWAP2 POP POP JUMP JUMPDEST PUSH1 0x0 DUP1 PUSH1 0x40 DUP4 DUP6 SUB SLT ISZERO PUSH2 0xC94 JUMPI PUSH2 0xC93 PUSH2 0xC1F JUMP JUMPDEST JUMPDEST PUSH1 0x0 PUSH2 0xCA2 DUP6 DUP3 DUP7 ADD PUSH2 0xC3B JUMP JUMPDEST SWAP3 POP POP PUSH1 0x20 PUSH2 0xCB3 DUP6 DUP3 DUP7 ADD PUSH2 0xC3B JUMP JUMPDEST SWAP2 POP POP SWAP3 POP SWAP3 SWAP1 POP JUMP JUMPDEST PUSH1 0x0 DUP3 DUP3 MSTORE PUSH1 0x20 DUP3 ADD SWAP1 POP SWAP3 SWAP2 POP POP JUMP JUMPDEST PUSH32 0x49434F2069732070617573656400000000000000000000000000000000000000 PUSH1 0x0 DUP3 ADD MSTORE POP JUMP JUMPDEST PUSH1 0x0 PUSH2 0xD04 PUSH1 0xD DUP4 PUSH2 0xCBD JUMP JUMPDEST SWAP2 POP PUSH2 0xD0F DUP3 PUSH2 0xCCE JUMP JUMPDEST PUSH1 0x20 DUP3 ADD SWAP1 POP SWAP2 SWAP1 POP JUMP JUMPDEST PUSH1 0x0 PUSH1 0x20 DUP3 ADD SWAP1 POP DUP2 DUP2 SUB PUSH1 0x0 DUP4 ADD MSTORE PUSH2 0xD33 DUP2 PUSH2 0xCF7 JUMP JUMPDEST SWAP1 POP SWAP2 SWAP1 POP JUMP JUMPDEST PUSH32 0x5265656E7472616E637947756172643A207265656E7472616E742063616C6C00 PUSH1 0x0 DUP3 ADD MSTORE POP JUMP JUMPDEST PUSH1 0x0 PUSH2 0xD70 PUSH1 0x1F DUP4 PUSH2 0xCBD JUMP JUMPDEST SWAP2 POP PUSH2 0xD7B DUP3 PUSH2 0xD3A JUMP JUMPDEST PUSH1 0x20 DUP3 ADD SWAP1 POP SWAP2 SWAP1 POP JUMP JUMPDEST PUSH1 0x0 PUSH1 0x20 DUP3 ADD SWAP1 POP DUP2 DUP2 SUB PUSH1 0x0 DUP4 ADD MSTORE PUSH2 0xD9F DUP2 PUSH2 0xD63 JUMP JUMPDEST SWAP1 POP SWAP2 SWAP1 POP JUMP JUMPDEST PUSH32 0x49444F20686173206E6F74207374617274656400000000000000000000000000 PUSH1 0x0 DUP3 ADD MSTORE POP JUMP JUMPDEST PUSH1 0x0 PUSH2 0xDDC PUSH1 0x13 DUP4 PUSH2 0xCBD JUMP JUMPDEST SWAP2 POP PUSH2 0xDE7 DUP3 PUSH2 0xDA6 JUMP JUMPDEST PUSH1 0x20 DUP3 ADD SWAP1 POP SWAP2 SWAP1 POP JUMP JUMPDEST PUSH1 0x0 PUSH1 0x20 DUP3 ADD SWAP1 POP DUP2 DUP2 SUB PUSH1 0x0 DUP4 ADD MSTORE PUSH2 0xE0B DUP2 PUSH2 0xDCF JUMP JUMPDEST SWAP1 POP SWAP2 SWAP1 POP JUMP JUMPDEST PUSH32 0x4E487B7100000000000000000000000000000000000000000000000000000000 PUSH1 0x0 MSTORE PUSH1 0x11 PUSH1 0x4 MSTORE PUSH1 0x24 PUSH1 0x0 REVERT JUMPDEST PUSH1 0x0 PUSH2 0xE4C DUP3 PUSH2 0xBEB JUMP JUMPDEST SWAP2 POP PUSH2 0xE57 DUP4 PUSH2 0xBEB JUMP JUMPDEST SWAP3 POP DUP3 DUP3 ADD SWAP1 POP DUP1 DUP3 GT ISZERO PUSH2 0xE6F JUMPI PUSH2 0xE6E PUSH2 0xE12 JUMP JUMPDEST JUMPDEST SWAP3 SWAP2 POP POP JUMP JUMPDEST PUSH32 0x416C6C20746F6B656E7320686173206265656E20736F6C640000000000000000 PUSH1 0x0 DUP3 ADD MSTORE POP JUMP JUMPDEST PUSH1 0x0 PUSH2 0xEAB PUSH1 0x18 DUP4 PUSH2 0xCBD JUMP JUMPDEST SWAP2 POP PUSH2 0xEB6 DUP3 PUSH2 0xE75 JUMP JUMPDEST PUSH1 0x20 DUP3 ADD SWAP1 POP SWAP2 SWAP1 POP JUMP JUMPDEST PUSH1 0x0 PUSH1 0x20 DUP3 ADD SWAP1 POP DUP2 DUP2 SUB PUSH1 0x0 DUP4 ADD MSTORE PUSH2 0xEDA DUP2 PUSH2 0xE9E JUMP JUMPDEST SWAP1 POP SWAP2 SWAP1 POP JUMP JUMPDEST PUSH1 0x0 PUSH2 0xEEC DUP3 PUSH2 0xBEB JUMP JUMPDEST SWAP2 POP PUSH2 0xEF7 DUP4 PUSH2 0xBEB JUMP JUMPDEST SWAP3 POP DUP3 DUP3 MUL PUSH2 0xF05 DUP2 PUSH2 0xBEB JUMP JUMPDEST SWAP2 POP DUP3 DUP3 DIV DUP5 EQ DUP4 ISZERO OR PUSH2 0xF1C JUMPI PUSH2 0xF1B PUSH2 0xE12 JUMP JUMPDEST JUMPDEST POP SWAP3 SWAP2 POP POP JUMP JUMPDEST PUSH1 0x0 PUSH1 0x40 DUP3 ADD SWAP1 POP PUSH2 0xF38 PUSH1 0x0 DUP4 ADD DUP6 PUSH2 0xBF5 JUMP JUMPDEST PUSH2 0xF45 PUSH1 0x20 DUP4 ADD DUP5 PUSH2 0xBF5 JUMP JUMPDEST SWAP4 SWAP3 POP POP POP JUMP JUMPDEST PUSH32 0x49444F2048617320206E6F7420656E6465642C20636C61696D20756E61766169 PUSH1 0x0 DUP3 ADD MSTORE PUSH32 0x6C61626C65000000000000000000000000000000000000000000000000000000 PUSH1 0x20 DUP3 ADD MSTORE POP JUMP JUMPDEST PUSH1 0x0 PUSH2 0xFA8 PUSH1 0x25 DUP4 PUSH2 0xCBD JUMP JUMPDEST SWAP2 POP PUSH2 0xFB3 DUP3 PUSH2 0xF4C JUMP JUMPDEST PUSH1 0x40 DUP3 ADD SWAP1 POP SWAP2 SWAP1 POP JUMP JUMPDEST PUSH1 0x0 PUSH1 0x20 DUP3 ADD SWAP1 POP DUP2 DUP2 SUB PUSH1 0x0 DUP4 ADD MSTORE PUSH2 0xFD7 DUP2 PUSH2 0xF9B JUMP JUMPDEST SWAP1 POP SWAP2 SWAP1 POP JUMP JUMPDEST PUSH32 0x796F7520646964206E6F74207061727469636970617465000000000000000000 PUSH1 0x0 DUP3 ADD MSTORE POP JUMP JUMPDEST PUSH1 0x0 PUSH2 0x1014 PUSH1 0x17 DUP4 PUSH2 0xCBD JUMP JUMPDEST SWAP2 POP PUSH2 0x101F DUP3 PUSH2 0xFDE JUMP JUMPDEST PUSH1 0x20 DUP3 ADD SWAP1 POP SWAP2 SWAP1 POP JUMP JUMPDEST PUSH1 0x0 PUSH1 0x20 DUP3 ADD SWAP1 POP DUP2 DUP2 SUB PUSH1 0x0 DUP4 ADD MSTORE PUSH2 0x1043 DUP2 PUSH2 0x1007 JUMP JUMPDEST SWAP1 POP SWAP2 SWAP1 POP JUMP JUMPDEST PUSH32 0x4E487B7100000000000000000000000000000000000000000000000000000000 PUSH1 0x0 MSTORE PUSH1 0x12 PUSH1 0x4 MSTORE PUSH1 0x24 PUSH1 0x0 REVERT JUMPDEST PUSH1 0x0 PUSH2 0x1084 DUP3 PUSH2 0xBEB JUMP JUMPDEST SWAP2 POP PUSH2 0x108F DUP4 PUSH2 0xBEB JUMP JUMPDEST SWAP3 POP DUP3 PUSH2 0x109F JUMPI PUSH2 0x109E PUSH2 0x104A JUMP JUMPDEST JUMPDEST DUP3 DUP3 DIV SWAP1 POP SWAP3 SWAP2 POP POP JUMP JUMPDEST PUSH1 0x0 PUSH1 0x60 DUP3 ADD SWAP1 POP PUSH2 0x10BF PUSH1 0x0 DUP4 ADD DUP7 PUSH2 0xBC1 JUMP JUMPDEST PUSH2 0x10CC PUSH1 0x20 DUP4 ADD DUP6 PUSH2 0xBC1 JUMP JUMPDEST PUSH2 0x10D9 PUSH1 0x40 DUP4 ADD DUP5 PUSH2 0xBF5 JUMP JUMPDEST SWAP5 SWAP4 POP POP POP POP JUMP JUMPDEST PUSH1 0x0 DUP2 ISZERO ISZERO SWAP1 POP SWAP2 SWAP1 POP JUMP JUMPDEST PUSH2 0x10F6 DUP2 PUSH2 0x10E1 JUMP JUMPDEST DUP2 EQ PUSH2 0x1101 JUMPI PUSH1 0x0 DUP1 REVERT JUMPDEST POP JUMP JUMPDEST PUSH1 0x0 DUP2 MLOAD SWAP1 POP PUSH2 0x1113 DUP2 PUSH2 0x10ED JUMP JUMPDEST SWAP3 SWAP2 POP POP JUMP JUMPDEST PUSH1 0x0 PUSH1 0x20 DUP3 DUP5 SUB SLT ISZERO PUSH2 0x112F JUMPI PUSH2 0x112E PUSH2 0xC1F JUMP JUMPDEST JUMPDEST PUSH1 0x0 PUSH2 0x113D DUP5 DUP3 DUP6 ADD PUSH2 0x1104 JUMP JUMPDEST SWAP2 POP POP SWAP3 SWAP2 POP POP JUMP JUMPDEST PUSH1 0x0 PUSH1 0x40 DUP3 ADD SWAP1 POP PUSH2 0x115B PUSH1 0x0 DUP4 ADD DUP6 PUSH2 0xBC1 JUMP JUMPDEST PUSH2 0x1168 PUSH1 0x20 DUP4 ADD DUP5 PUSH2 0xBF5 JUMP JUMPDEST SWAP4 SWAP3 POP POP POP JUMP JUMPDEST PUSH32 0x49434F206973206F6E0000000000000000000000000000000000000000000000 PUSH1 0x0 DUP3 ADD MSTORE POP JUMP JUMPDEST PUSH1 0x0 PUSH2 0x11A5 PUSH1 0x9 DUP4 PUSH2 0xCBD JUMP JUMPDEST SWAP2 POP PUSH2 0x11B0 DUP3 PUSH2 0x116F JUMP JUMPDEST PUSH1 0x20 DUP3 ADD SWAP1 POP SWAP2 SWAP1 POP JUMP JUMPDEST PUSH1 0x0 PUSH1 0x20 DUP3 ADD SWAP1 POP DUP2 DUP2 SUB PUSH1 0x0 DUP4 ADD MSTORE PUSH2 0x11D4 DUP2 PUSH2 0x1198 JUMP JUMPDEST SWAP1 POP SWAP2 SWAP1 POP JUMP JUMPDEST PUSH32 0x5361666545524332303A204552433230206F7065726174696F6E20646964206E PUSH1 0x0 DUP3 ADD MSTORE PUSH32 0x6F74207375636365656400000000000000000000000000000000000000000000 PUSH1 0x20 DUP3 ADD MSTORE POP JUMP JUMPDEST PUSH1 0x0 PUSH2 0x1237 PUSH1 0x2A DUP4 PUSH2 0xCBD JUMP JUMPDEST SWAP2 POP PUSH2 0x1242 DUP3 PUSH2 0x11DB JUMP JUMPDEST PUSH1 0x40 DUP3 ADD SWAP1 POP SWAP2 SWAP1 POP JUMP JUMPDEST PUSH1 0x0 PUSH1 0x20 DUP3 ADD SWAP1 POP DUP2 DUP2 SUB PUSH1 0x0 DUP4 ADD MSTORE PUSH2 0x1266 DUP2 PUSH2 0x122A JUMP JUMPDEST SWAP1 POP SWAP2 SWAP1 POP JUMP JUMPDEST PUSH32 0x416464726573733A20696E73756666696369656E742062616C616E636520666F PUSH1 0x0 DUP3 ADD MSTORE PUSH32 0x722063616C6C0000000000000000000000000000000000000000000000000000 PUSH1 0x20 DUP3 ADD MSTORE POP JUMP JUMPDEST PUSH1 0x0 PUSH2 0x12C9 PUSH1 0x26 DUP4 PUSH2 0xCBD JUMP JUMPDEST SWAP2 POP PUSH2 0x12D4 DUP3 PUSH2 0x126D JUMP JUMPDEST PUSH1 0x40 DUP3 ADD SWAP1 POP SWAP2 SWAP1 POP JUMP JUMPDEST PUSH1 0x0 PUSH1 0x20 DUP3 ADD SWAP1 POP DUP2 DUP2 SUB PUSH1 0x0 DUP4 ADD MSTORE PUSH2 0x12F8 DUP2 PUSH2 0x12BC JUMP JUMPDEST SWAP1 POP SWAP2 SWAP1 POP JUMP JUMPDEST PUSH32 0x416464726573733A2063616C6C20746F206E6F6E2D636F6E7472616374000000 PUSH1 0x0 DUP3 ADD MSTORE POP JUMP JUMPDEST PUSH1 0x0 PUSH2 0x1335 PUSH1 0x1D DUP4 PUSH2 0xCBD JUMP JUMPDEST SWAP2 POP PUSH2 0x1340 DUP3 PUSH2 0x12FF JUMP JUMPDEST PUSH1 0x20 DUP3 ADD SWAP1 POP SWAP2 SWAP1 POP JUMP JUMPDEST PUSH1 0x0 PUSH1 0x20 DUP3 ADD SWAP1 POP DUP2 DUP2 SUB PUSH1 0x0 DUP4 ADD MSTORE PUSH2 0x1364 DUP2 PUSH2 0x1328 JUMP JUMPDEST SWAP1 POP SWAP2 SWAP1 POP JUMP JUMPDEST PUSH1 0x0 DUP2 MLOAD SWAP1 POP SWAP2 SWAP1 POP JUMP JUMPDEST PUSH1 0x0 DUP2 SWAP1 POP SWAP3 SWAP2 POP POP JUMP JUMPDEST PUSH1 0x0 JUMPDEST DUP4 DUP2 LT ISZERO PUSH2 0x139F JUMPI DUP1 DUP3 ADD MLOAD DUP2 DUP5 ADD MSTORE PUSH1 0x20 DUP2 ADD SWAP1 POP PUSH2 0x1384 JUMP JUMPDEST PUSH1 0x0 DUP5 DUP5 ADD MSTORE POP POP POP POP JUMP JUMPDEST PUSH1 0x0 PUSH2 0x13B6 DUP3 PUSH2 0x136B JUMP JUMPDEST PUSH2 0x13C0 DUP2 DUP6 PUSH2 0x1376 JUMP JUMPDEST SWAP4 POP PUSH2 0x13D0 DUP2 DUP6 PUSH1 0x20 DUP7 ADD PUSH2 0x1381 JUMP JUMPDEST DUP1 DUP5 ADD SWAP2 POP POP SWAP3 SWAP2 POP POP JUMP JUMPDEST PUSH1 0x0 PUSH2 0x13E8 DUP3 DUP5 PUSH2 0x13AB JUMP JUMPDEST SWAP2 POP DUP2 SWAP1 POP SWAP3 SWAP2 POP POP JUMP JUMPDEST PUSH1 0x0 DUP2 MLOAD SWAP1 POP SWAP2 SWAP1 POP JUMP JUMPDEST PUSH1 0x0 PUSH1 0x1F NOT PUSH1 0x1F DUP4 ADD AND SWAP1 POP SWAP2 SWAP1 POP JUMP JUMPDEST PUSH1 0x0 PUSH2 0x141A DUP3 PUSH2 0x13F3 JUMP JUMPDEST PUSH2 0x1424 DUP2 DUP6 PUSH2 0xCBD JUMP JUMPDEST SWAP4 POP PUSH2 0x1434 DUP2 DUP6 PUSH1 0x20 DUP7 ADD PUSH2 0x1381 JUMP JUMPDEST PUSH2 0x143D DUP2 PUSH2 0x13FE JUMP JUMPDEST DUP5 ADD SWAP2 POP POP SWAP3 SWAP2 POP POP JUMP JUMPDEST PUSH1 0x0 PUSH1 0x20 DUP3 ADD SWAP1 POP DUP2 DUP2 SUB PUSH1 0x0 DUP4 ADD MSTORE PUSH2 0x1462 DUP2 DUP5 PUSH2 0x140F JUMP JUMPDEST SWAP1 POP SWAP3 SWAP2 POP POP JUMP INVALID LOG2 PUSH5 0x6970667358 0x22 SLT KECCAK256 0xE9 PUSH15 0x7A2BEC8FB432594A3647F6A98D99FD SWAP7 0xF9 SGT RETURN 0xAA 0x2B 0xB2 BASEFEE SLT 0xC4 0x24 PUSH22 0x7A477464736F6C634300081100330000000000000000 "
				},
				"gasEstimates": {
					"creation": {
						"codeDepositCost": "1056000",
						"executionCost": "infinite",
						"totalCost": "infinite"
					},
					"external": {
						"BeginIDO()": "28499",
						"DAZ()": "infinite",
						"StopIDO()": "28456",
						"USDT()": "infinite",
						"claimPurchasedToken()": "infinite",
						"editIco(uint256,uint256)": "infinite",
						"purchaseToken(uint256)": "infinite",
						"tokenPrice()": "2474"
					}
				},
				"methodIdentifiers": {
					"BeginIDO()": "dc55920f",
					"DAZ()": "6385f2fb",
					"StopIDO()": "76d812ea",
					"USDT()": "c54e44eb",
					"claimPurchasedToken()": "d7997f7e",
					"editIco(uint256,uint256)": "c3a17441",
					"purchaseToken(uint256)": "c2db2c42",
					"tokenPrice()": "7ff9b596"
				}
			},
			"storageLayout": {
				"storage": [
					{
						"astId": 10,
						"contract": "contracts/ico.sol:Amestarter",
						"label": "_status",
						"offset": 0,
						"slot": "0",
						"type": "t_uint256"
					},
					{
						"astId": 1473,
						"contract": "contracts/ico.sol:Amestarter",
						"label": "tokenPrice",
						"offset": 0,
						"slot": "1",
						"type": "t_uint256"
					},
					{
						"astId": 1475,
						"contract": "contracts/ico.sol:Amestarter",
						"label": "owner",
						"offset": 0,
						"slot": "2",
						"type": "t_address"
					},
					{
						"astId": 1477,
						"contract": "contracts/ico.sol:Amestarter",
						"label": "IDOStarted",
						"offset": 20,
						"slot": "2",
						"type": "t_bool"
					},
					{
						"astId": 1479,
						"contract": "contracts/ico.sol:Amestarter",
						"label": "targetSale",
						"offset": 0,
						"slot": "3",
						"type": "t_uint256"
					},
					{
						"astId": 1481,
						"contract": "contracts/ico.sol:Amestarter",
						"label": "totalRaised",
						"offset": 0,
						"slot": "4",
						"type": "t_uint256"
					},
					{
						"astId": 1485,
						"contract": "contracts/ico.sol:Amestarter",
						"label": "purchase",
						"offset": 0,
						"slot": "5",
						"type": "t_mapping(t_address,t_uint256)"
					}
				],
				"types": {
					"t_address": {
						"encoding": "inplace",
						"label": "address",
						"numberOfBytes": "20"
					},
					"t_bool": {
						"encoding": "inplace",
						"label": "bool",
						"numberOfBytes": "1"
					},
					"t_mapping(t_address,t_uint256)": {
						"encoding": "mapping",
						"key": "t_address",
						"label": "mapping(address => uint256)",
						"numberOfBytes": "32",
						"value": "t_uint256"
					},
					"t_uint256": {
						"encoding": "inplace",
						"label": "uint256",
						"numberOfBytes": "32"
					}
				}
			},
			"userdoc": {
				"kind": "user",
				"methods": {},
				"version": 1
			}
		}
	}
}