{
	"contracts/betting.sol": {
		"DistanceFiBET": {
			"abi": [
				{
					"inputs": [],
					"name": "admin",
					"outputs": [
						{
							"internalType": "address",
							"name": "",
							"type": "address"
						}
					],
					"stateMutability": "view",
					"type": "function"
				},
				{
					"inputs": [
						{
							"internalType": "uint256",
							"name": "",
							"type": "uint256"
						}
					],
					"name": "allMatch",
					"outputs": [
						{
							"internalType": "string",
							"name": "HomeTeam",
							"type": "string"
						},
						{
							"internalType": "string",
							"name": "AwayTeam",
							"type": "string"
						},
						{
							"internalType": "uint256",
							"name": "startTime",
							"type": "uint256"
						},
						{
							"internalType": "uint256",
							"name": "endTime",
							"type": "uint256"
						},
						{
							"components": [
								{
									"internalType": "uint256",
									"name": "Home_score",
									"type": "uint256"
								},
								{
									"internalType": "uint256",
									"name": "Away_score",
									"type": "uint256"
								}
							],
							"internalType": "struct DistanceFiBET.Results",
							"name": "results",
							"type": "tuple"
						}
					],
					"stateMutability": "view",
					"type": "function"
				},
				{
					"inputs": [
						{
							"internalType": "string",
							"name": "_HomeTeam",
							"type": "string"
						},
						{
							"internalType": "string",
							"name": "_AwayTeam",
							"type": "string"
						},
						{
							"internalType": "uint256",
							"name": "_startTime",
							"type": "uint256"
						}
					],
					"name": "instantiateMatch",
					"outputs": [
						{
							"internalType": "bool",
							"name": "",
							"type": "bool"
						}
					],
					"stateMutability": "nonpayable",
					"type": "function"
				}
			],
			"devdoc": {
				"kind": "dev",
				"methods": {},
				"version": 1
			},
			"evm": {
				"assembly": "    /* \"contracts/betting.sol\":63:1047  contract DistanceFiBET{... */\n  mstore(0x40, 0x80)\n  callvalue\n  dup1\n  iszero\n  tag_1\n  jumpi\n  0x00\n  dup1\n  revert\ntag_1:\n  pop\n  dataSize(sub_0)\n  dup1\n  dataOffset(sub_0)\n  0x00\n  codecopy\n  0x00\n  return\nstop\n\nsub_0: assembly {\n        /* \"contracts/betting.sol\":63:1047  contract DistanceFiBET{... */\n      mstore(0x40, 0x80)\n      callvalue\n      dup1\n      iszero\n      tag_1\n      jumpi\n      0x00\n      dup1\n      revert\n    tag_1:\n      pop\n      jumpi(tag_2, lt(calldatasize, 0x04))\n      shr(0xe0, calldataload(0x00))\n      dup1\n      0xb2edb39f\n      eq\n      tag_3\n      jumpi\n      dup1\n      0xbc9e6e2c\n      eq\n      tag_4\n      jumpi\n      dup1\n      0xf851a440\n      eq\n      tag_5\n      jumpi\n    tag_2:\n      0x00\n      dup1\n      revert\n        /* \"contracts/betting.sol\":357:381  Match [] public allMatch */\n    tag_3:\n      tag_6\n      0x04\n      dup1\n      calldatasize\n      sub\n      dup2\n      add\n      swap1\n      tag_7\n      swap2\n      swap1\n      tag_8\n      jump\t// in\n    tag_7:\n      tag_9\n      jump\t// in\n    tag_6:\n      mload(0x40)\n      tag_10\n      swap6\n      swap5\n      swap4\n      swap3\n      swap2\n      swap1\n      tag_11\n      jump\t// in\n    tag_10:\n      mload(0x40)\n      dup1\n      swap2\n      sub\n      swap1\n      return\n        /* \"contracts/betting.sol\":396:798  function instantiateMatch(string calldata _HomeTeam, string calldata _AwayTeam, uint _startTime) external returns (bool) {... */\n    tag_4:\n      tag_12\n      0x04\n      dup1\n      calldatasize\n      sub\n      dup2\n      add\n      swap1\n      tag_13\n      swap2\n      swap1\n      tag_14\n      jump\t// in\n    tag_13:\n      tag_15\n      jump\t// in\n    tag_12:\n      mload(0x40)\n      tag_16\n      swap2\n      swap1\n      tag_17\n      jump\t// in\n    tag_16:\n      mload(0x40)\n      dup1\n      swap2\n      sub\n      swap1\n      return\n        /* \"contracts/betting.sol\":94:114  address public admin */\n    tag_5:\n      tag_18\n      tag_19\n      jump\t// in\n    tag_18:\n      mload(0x40)\n      tag_20\n      swap2\n      swap1\n      tag_21\n      jump\t// in\n    tag_20:\n      mload(0x40)\n      dup1\n      swap2\n      sub\n      swap1\n      return\n        /* \"contracts/betting.sol\":357:381  Match [] public allMatch */\n    tag_9:\n      0x01\n      dup2\n      dup2\n      sload\n      dup2\n      lt\n      tag_22\n      jumpi\n      0x00\n      dup1\n      revert\n    tag_22:\n      swap1\n      0x00\n      mstore\n      keccak256(0x00, 0x20)\n      swap1\n      0x06\n      mul\n      add\n      0x00\n      swap2\n      pop\n      swap1\n      pop\n      dup1\n      0x00\n      add\n      dup1\n      sload\n      tag_24\n      swap1\n      tag_25\n      jump\t// in\n    tag_24:\n      dup1\n      0x1f\n      add\n      0x20\n      dup1\n      swap2\n      div\n      mul\n      0x20\n      add\n      mload(0x40)\n      swap1\n      dup2\n      add\n      0x40\n      mstore\n      dup1\n      swap3\n      swap2\n      swap1\n      dup2\n      dup2\n      mstore\n      0x20\n      add\n      dup3\n      dup1\n      sload\n      tag_26\n      swap1\n      tag_25\n      jump\t// in\n    tag_26:\n      dup1\n      iszero\n      tag_27\n      jumpi\n      dup1\n      0x1f\n      lt\n      tag_28\n      jumpi\n      0x0100\n      dup1\n      dup4\n      sload\n      div\n      mul\n      dup4\n      mstore\n      swap2\n      0x20\n      add\n      swap2\n      jump(tag_27)\n    tag_28:\n      dup3\n      add\n      swap2\n      swap1\n      0x00\n      mstore\n      keccak256(0x00, 0x20)\n      swap1\n    tag_29:\n      dup2\n      sload\n      dup2\n      mstore\n      swap1\n      0x01\n      add\n      swap1\n      0x20\n      add\n      dup1\n      dup4\n      gt\n      tag_29\n      jumpi\n      dup3\n      swap1\n      sub\n      0x1f\n      and\n      dup3\n      add\n      swap2\n    tag_27:\n      pop\n      pop\n      pop\n      pop\n      pop\n      swap1\n      dup1\n      0x01\n      add\n      dup1\n      sload\n      tag_30\n      swap1\n      tag_25\n      jump\t// in\n    tag_30:\n      dup1\n      0x1f\n      add\n      0x20\n      dup1\n      swap2\n      div\n      mul\n      0x20\n      add\n      mload(0x40)\n      swap1\n      dup2\n      add\n      0x40\n      mstore\n      dup1\n      swap3\n      swap2\n      swap1\n      dup2\n      dup2\n      mstore\n      0x20\n      add\n      dup3\n      dup1\n      sload\n      tag_31\n      swap1\n      tag_25\n      jump\t// in\n    tag_31:\n      dup1\n      iszero\n      tag_32\n      jumpi\n      dup1\n      0x1f\n      lt\n      tag_33\n      jumpi\n      0x0100\n      dup1\n      dup4\n      sload\n      div\n      mul\n      dup4\n      mstore\n      swap2\n      0x20\n      add\n      swap2\n      jump(tag_32)\n    tag_33:\n      dup3\n      add\n      swap2\n      swap1\n      0x00\n      mstore\n      keccak256(0x00, 0x20)\n      swap1\n    tag_34:\n      dup2\n      sload\n      dup2\n      mstore\n      swap1\n      0x01\n      add\n      swap1\n      0x20\n      add\n      dup1\n      dup4\n      gt\n      tag_34\n      jumpi\n      dup3\n      swap1\n      sub\n      0x1f\n      and\n      dup3\n      add\n      swap2\n    tag_32:\n      pop\n      pop\n      pop\n      pop\n      pop\n      swap1\n      dup1\n      0x02\n      add\n      sload\n      swap1\n      dup1\n      0x03\n      add\n      sload\n      swap1\n      dup1\n      0x04\n      add\n      mload(0x40)\n      dup1\n      0x40\n      add\n      0x40\n      mstore\n      swap1\n      dup2\n      0x00\n      dup3\n      add\n      sload\n      dup2\n      mstore\n      0x20\n      add\n      0x01\n      dup3\n      add\n      sload\n      dup2\n      mstore\n      pop\n      pop\n      swap1\n      pop\n      dup6\n      jump\t// out\n        /* \"contracts/betting.sol\":396:798  function instantiateMatch(string calldata _HomeTeam, string calldata _AwayTeam, uint _startTime) external returns (bool) {... */\n    tag_15:\n        /* \"contracts/betting.sol\":511:515  bool */\n      0x00\n        /* \"contracts/betting.sol\":545:555  msg.sender */\n      caller\n        /* \"contracts/betting.sol\":536:555  admin == msg.sender */\n      0xffffffffffffffffffffffffffffffffffffffff\n      and\n        /* \"contracts/betting.sol\":536:541  admin */\n      0x00\n      dup1\n      sload\n      swap1\n      0x0100\n      exp\n      swap1\n      div\n      0xffffffffffffffffffffffffffffffffffffffff\n      and\n        /* \"contracts/betting.sol\":536:555  admin == msg.sender */\n      0xffffffffffffffffffffffffffffffffffffffff\n      and\n      eq\n        /* \"contracts/betting.sol\":528:569  require(admin == msg.sender, \"Not Owner\") */\n      tag_36\n      jumpi\n      mload(0x40)\n      0x08c379a000000000000000000000000000000000000000000000000000000000\n      dup2\n      mstore\n      0x04\n      add\n      tag_37\n      swap1\n      tag_38\n      jump\t// in\n    tag_37:\n      mload(0x40)\n      dup1\n      swap2\n      sub\n      swap1\n      revert\n    tag_36:\n        /* \"contracts/betting.sol\":580:593  uint matchEnd */\n      0x00\n        /* \"contracts/betting.sol\":609:619  95 minutes */\n      0x1644\n        /* \"contracts/betting.sol\":596:606  _startTime */\n      dup4\n        /* \"contracts/betting.sol\":596:619  _startTime + 95 minutes */\n      tag_39\n      swap2\n      swap1\n      tag_40\n      jump\t// in\n    tag_39:\n        /* \"contracts/betting.sol\":580:619  uint matchEnd = _startTime + 95 minutes */\n      swap1\n      pop\n        /* \"contracts/betting.sol\":630:660  Results memory startingResults */\n      0x00\n        /* \"contracts/betting.sol\":663:676  Results(0, 0) */\n      mload(0x40)\n      dup1\n      0x40\n      add\n      0x40\n      mstore\n      dup1\n        /* \"contracts/betting.sol\":671:672  0 */\n      0x00\n        /* \"contracts/betting.sol\":663:676  Results(0, 0) */\n      dup2\n      mstore\n      0x20\n      add\n        /* \"contracts/betting.sol\":674:675  0 */\n      0x00\n        /* \"contracts/betting.sol\":663:676  Results(0, 0) */\n      dup2\n      mstore\n      pop\n        /* \"contracts/betting.sol\":630:676  Results memory startingResults = Results(0, 0) */\n      swap1\n      pop\n        /* \"contracts/betting.sol\":687:695  allMatch */\n      0x01\n        /* \"contracts/betting.sol\":701:767  Match(_HomeTeam, _AwayTeam, _startTime, matchEnd, startingResults) */\n      mload(0x40)\n      dup1\n      0xa0\n      add\n      0x40\n      mstore\n      dup1\n        /* \"contracts/betting.sol\":707:716  _HomeTeam */\n      dup11\n      dup11\n        /* \"contracts/betting.sol\":701:767  Match(_HomeTeam, _AwayTeam, _startTime, matchEnd, startingResults) */\n      dup1\n      dup1\n      0x1f\n      add\n      0x20\n      dup1\n      swap2\n      div\n      mul\n      0x20\n      add\n      mload(0x40)\n      swap1\n      dup2\n      add\n      0x40\n      mstore\n      dup1\n      swap4\n      swap3\n      swap2\n      swap1\n      dup2\n      dup2\n      mstore\n      0x20\n      add\n      dup4\n      dup4\n      dup1\n      dup3\n      dup5\n      calldatacopy\n      0x00\n      dup2\n      dup5\n      add\n      mstore\n      not(0x1f)\n      0x1f\n      dup3\n      add\n      and\n      swap1\n      pop\n      dup1\n      dup4\n      add\n      swap3\n      pop\n      pop\n      pop\n      pop\n      pop\n      pop\n      pop\n      dup2\n      mstore\n      0x20\n      add\n        /* \"contracts/betting.sol\":718:727  _AwayTeam */\n      dup9\n      dup9\n        /* \"contracts/betting.sol\":701:767  Match(_HomeTeam, _AwayTeam, _startTime, matchEnd, startingResults) */\n      dup1\n      dup1\n      0x1f\n      add\n      0x20\n      dup1\n      swap2\n      div\n      mul\n      0x20\n      add\n      mload(0x40)\n      swap1\n      dup2\n      add\n      0x40\n      mstore\n      dup1\n      swap4\n      swap3\n      swap2\n      swap1\n      dup2\n      dup2\n      mstore\n      0x20\n      add\n      dup4\n      dup4\n      dup1\n      dup3\n      dup5\n      calldatacopy\n      0x00\n      dup2\n      dup5\n      add\n      mstore\n      not(0x1f)\n      0x1f\n      dup3\n      add\n      and\n      swap1\n      pop\n      dup1\n      dup4\n      add\n      swap3\n      pop\n      pop\n      pop\n      pop\n      pop\n      pop\n      pop\n      dup2\n      mstore\n      0x20\n      add\n        /* \"contracts/betting.sol\":729:739  _startTime */\n      dup7\n        /* \"contracts/betting.sol\":701:767  Match(_HomeTeam, _AwayTeam, _startTime, matchEnd, startingResults) */\n      dup2\n      mstore\n      0x20\n      add\n        /* \"contracts/betting.sol\":741:749  matchEnd */\n      dup5\n        /* \"contracts/betting.sol\":701:767  Match(_HomeTeam, _AwayTeam, _startTime, matchEnd, startingResults) */\n      dup2\n      mstore\n      0x20\n      add\n        /* \"contracts/betting.sol\":751:766  startingResults */\n      dup4\n        /* \"contracts/betting.sol\":701:767  Match(_HomeTeam, _AwayTeam, _startTime, matchEnd, startingResults) */\n      dup2\n      mstore\n      pop\n        /* \"contracts/betting.sol\":687:768  allMatch.push(Match(_HomeTeam, _AwayTeam, _startTime, matchEnd, startingResults)) */\n      swap1\n      dup1\n      0x01\n      dup2\n      sload\n      add\n      dup1\n      dup3\n      sstore\n      dup1\n      swap2\n      pop\n      pop\n      0x01\n      swap1\n      sub\n      swap1\n      0x00\n      mstore\n      keccak256(0x00, 0x20)\n      swap1\n      0x06\n      mul\n      add\n      0x00\n      swap1\n      swap2\n      swap1\n      swap2\n      swap1\n      swap2\n      pop\n      0x00\n      dup3\n      add\n      mload\n      dup2\n      0x00\n      add\n      swap1\n      dup2\n      tag_42\n      swap2\n      swap1\n      tag_43\n      jump\t// in\n    tag_42:\n      pop\n      0x20\n      dup3\n      add\n      mload\n      dup2\n      0x01\n      add\n      swap1\n      dup2\n      tag_44\n      swap2\n      swap1\n      tag_43\n      jump\t// in\n    tag_44:\n      pop\n      0x40\n      dup3\n      add\n      mload\n      dup2\n      0x02\n      add\n      sstore\n      0x60\n      dup3\n      add\n      mload\n      dup2\n      0x03\n      add\n      sstore\n      0x80\n      dup3\n      add\n      mload\n      dup2\n      0x04\n      add\n      0x00\n      dup3\n      add\n      mload\n      dup2\n      0x00\n      add\n      sstore\n      0x20\n      dup3\n      add\n      mload\n      dup2\n      0x01\n      add\n      sstore\n      pop\n      pop\n      pop\n      pop\n        /* \"contracts/betting.sol\":786:790  true */\n      0x01\n        /* \"contracts/betting.sol\":779:790  return true */\n      swap3\n      pop\n      pop\n      pop\n        /* \"contracts/betting.sol\":396:798  function instantiateMatch(string calldata _HomeTeam, string calldata _AwayTeam, uint _startTime) external returns (bool) {... */\n      swap6\n      swap5\n      pop\n      pop\n      pop\n      pop\n      pop\n      jump\t// out\n        /* \"contracts/betting.sol\":94:114  address public admin */\n    tag_19:\n      0x00\n      dup1\n      sload\n      swap1\n      0x0100\n      exp\n      swap1\n      div\n      0xffffffffffffffffffffffffffffffffffffffff\n      and\n      dup2\n      jump\t// out\n        /* \"#utility.yul\":88:205   */\n    tag_46:\n        /* \"#utility.yul\":197:198   */\n      0x00\n        /* \"#utility.yul\":194:195   */\n      dup1\n        /* \"#utility.yul\":187:199   */\n      revert\n        /* \"#utility.yul\":211:328   */\n    tag_47:\n        /* \"#utility.yul\":320:321   */\n      0x00\n        /* \"#utility.yul\":317:318   */\n      dup1\n        /* \"#utility.yul\":310:322   */\n      revert\n        /* \"#utility.yul\":334:411   */\n    tag_48:\n        /* \"#utility.yul\":371:378   */\n      0x00\n        /* \"#utility.yul\":400:405   */\n      dup2\n        /* \"#utility.yul\":389:405   */\n      swap1\n      pop\n        /* \"#utility.yul\":334:411   */\n      swap2\n      swap1\n      pop\n      jump\t// out\n        /* \"#utility.yul\":417:539   */\n    tag_49:\n        /* \"#utility.yul\":490:514   */\n      tag_94\n        /* \"#utility.yul\":508:513   */\n      dup2\n        /* \"#utility.yul\":490:514   */\n      tag_48\n      jump\t// in\n    tag_94:\n        /* \"#utility.yul\":483:488   */\n      dup2\n        /* \"#utility.yul\":480:515   */\n      eq\n        /* \"#utility.yul\":470:533   */\n      tag_95\n      jumpi\n        /* \"#utility.yul\":529:530   */\n      0x00\n        /* \"#utility.yul\":526:527   */\n      dup1\n        /* \"#utility.yul\":519:531   */\n      revert\n        /* \"#utility.yul\":470:533   */\n    tag_95:\n        /* \"#utility.yul\":417:539   */\n      pop\n      jump\t// out\n        /* \"#utility.yul\":545:684   */\n    tag_50:\n        /* \"#utility.yul\":591:596   */\n      0x00\n        /* \"#utility.yul\":629:635   */\n      dup2\n        /* \"#utility.yul\":616:636   */\n      calldataload\n        /* \"#utility.yul\":607:636   */\n      swap1\n      pop\n        /* \"#utility.yul\":645:678   */\n      tag_97\n        /* \"#utility.yul\":672:677   */\n      dup2\n        /* \"#utility.yul\":645:678   */\n      tag_49\n      jump\t// in\n    tag_97:\n        /* \"#utility.yul\":545:684   */\n      swap3\n      swap2\n      pop\n      pop\n      jump\t// out\n        /* \"#utility.yul\":690:1019   */\n    tag_8:\n        /* \"#utility.yul\":749:755   */\n      0x00\n        /* \"#utility.yul\":798:800   */\n      0x20\n        /* \"#utility.yul\":786:795   */\n      dup3\n        /* \"#utility.yul\":777:784   */\n      dup5\n        /* \"#utility.yul\":773:796   */\n      sub\n        /* \"#utility.yul\":769:801   */\n      slt\n        /* \"#utility.yul\":766:885   */\n      iszero\n      tag_99\n      jumpi\n        /* \"#utility.yul\":804:883   */\n      tag_100\n      tag_46\n      jump\t// in\n    tag_100:\n        /* \"#utility.yul\":766:885   */\n    tag_99:\n        /* \"#utility.yul\":924:925   */\n      0x00\n        /* \"#utility.yul\":949:1002   */\n      tag_101\n        /* \"#utility.yul\":994:1001   */\n      dup5\n        /* \"#utility.yul\":985:991   */\n      dup3\n        /* \"#utility.yul\":974:983   */\n      dup6\n        /* \"#utility.yul\":970:992   */\n      add\n        /* \"#utility.yul\":949:1002   */\n      tag_50\n      jump\t// in\n    tag_101:\n        /* \"#utility.yul\":939:1002   */\n      swap2\n      pop\n        /* \"#utility.yul\":895:1012   */\n      pop\n        /* \"#utility.yul\":690:1019   */\n      swap3\n      swap2\n      pop\n      pop\n      jump\t// out\n        /* \"#utility.yul\":1025:1124   */\n    tag_51:\n        /* \"#utility.yul\":1077:1083   */\n      0x00\n        /* \"#utility.yul\":1111:1116   */\n      dup2\n        /* \"#utility.yul\":1105:1117   */\n      mload\n        /* \"#utility.yul\":1095:1117   */\n      swap1\n      pop\n        /* \"#utility.yul\":1025:1124   */\n      swap2\n      swap1\n      pop\n      jump\t// out\n        /* \"#utility.yul\":1130:1299   */\n    tag_52:\n        /* \"#utility.yul\":1214:1225   */\n      0x00\n        /* \"#utility.yul\":1248:1254   */\n      dup3\n        /* \"#utility.yul\":1243:1246   */\n      dup3\n        /* \"#utility.yul\":1236:1255   */\n      mstore\n        /* \"#utility.yul\":1288:1292   */\n      0x20\n        /* \"#utility.yul\":1283:1286   */\n      dup3\n        /* \"#utility.yul\":1279:1293   */\n      add\n        /* \"#utility.yul\":1264:1293   */\n      swap1\n      pop\n        /* \"#utility.yul\":1130:1299   */\n      swap3\n      swap2\n      pop\n      pop\n      jump\t// out\n        /* \"#utility.yul\":1305:1551   */\n    tag_53:\n        /* \"#utility.yul\":1386:1387   */\n      0x00\n        /* \"#utility.yul\":1396:1509   */\n    tag_105:\n        /* \"#utility.yul\":1410:1416   */\n      dup4\n        /* \"#utility.yul\":1407:1408   */\n      dup2\n        /* \"#utility.yul\":1404:1417   */\n      lt\n        /* \"#utility.yul\":1396:1509   */\n      iszero\n      tag_107\n      jumpi\n        /* \"#utility.yul\":1495:1496   */\n      dup1\n        /* \"#utility.yul\":1490:1493   */\n      dup3\n        /* \"#utility.yul\":1486:1497   */\n      add\n        /* \"#utility.yul\":1480:1498   */\n      mload\n        /* \"#utility.yul\":1476:1477   */\n      dup2\n        /* \"#utility.yul\":1471:1474   */\n      dup5\n        /* \"#utility.yul\":1467:1478   */\n      add\n        /* \"#utility.yul\":1460:1499   */\n      mstore\n        /* \"#utility.yul\":1432:1434   */\n      0x20\n        /* \"#utility.yul\":1429:1430   */\n      dup2\n        /* \"#utility.yul\":1425:1435   */\n      add\n        /* \"#utility.yul\":1420:1435   */\n      swap1\n      pop\n        /* \"#utility.yul\":1396:1509   */\n      jump(tag_105)\n    tag_107:\n        /* \"#utility.yul\":1543:1544   */\n      0x00\n        /* \"#utility.yul\":1534:1540   */\n      dup5\n        /* \"#utility.yul\":1529:1532   */\n      dup5\n        /* \"#utility.yul\":1525:1541   */\n      add\n        /* \"#utility.yul\":1518:1545   */\n      mstore\n        /* \"#utility.yul\":1367:1551   */\n      pop\n        /* \"#utility.yul\":1305:1551   */\n      pop\n      pop\n      pop\n      jump\t// out\n        /* \"#utility.yul\":1557:1659   */\n    tag_54:\n        /* \"#utility.yul\":1598:1604   */\n      0x00\n        /* \"#utility.yul\":1649:1651   */\n      0x1f\n        /* \"#utility.yul\":1645:1652   */\n      not\n        /* \"#utility.yul\":1640:1642   */\n      0x1f\n        /* \"#utility.yul\":1633:1638   */\n      dup4\n        /* \"#utility.yul\":1629:1643   */\n      add\n        /* \"#utility.yul\":1625:1653   */\n      and\n        /* \"#utility.yul\":1615:1653   */\n      swap1\n      pop\n        /* \"#utility.yul\":1557:1659   */\n      swap2\n      swap1\n      pop\n      jump\t// out\n        /* \"#utility.yul\":1665:2042   */\n    tag_55:\n        /* \"#utility.yul\":1753:1756   */\n      0x00\n        /* \"#utility.yul\":1781:1820   */\n      tag_110\n        /* \"#utility.yul\":1814:1819   */\n      dup3\n        /* \"#utility.yul\":1781:1820   */\n      tag_51\n      jump\t// in\n    tag_110:\n        /* \"#utility.yul\":1836:1907   */\n      tag_111\n        /* \"#utility.yul\":1900:1906   */\n      dup2\n        /* \"#utility.yul\":1895:1898   */\n      dup6\n        /* \"#utility.yul\":1836:1907   */\n      tag_52\n      jump\t// in\n    tag_111:\n        /* \"#utility.yul\":1829:1907   */\n      swap4\n      pop\n        /* \"#utility.yul\":1916:1981   */\n      tag_112\n        /* \"#utility.yul\":1974:1980   */\n      dup2\n        /* \"#utility.yul\":1969:1972   */\n      dup6\n        /* \"#utility.yul\":1962:1966   */\n      0x20\n        /* \"#utility.yul\":1955:1960   */\n      dup7\n        /* \"#utility.yul\":1951:1967   */\n      add\n        /* \"#utility.yul\":1916:1981   */\n      tag_53\n      jump\t// in\n    tag_112:\n        /* \"#utility.yul\":2006:2035   */\n      tag_113\n        /* \"#utility.yul\":2028:2034   */\n      dup2\n        /* \"#utility.yul\":2006:2035   */\n      tag_54\n      jump\t// in\n    tag_113:\n        /* \"#utility.yul\":2001:2004   */\n      dup5\n        /* \"#utility.yul\":1997:2036   */\n      add\n        /* \"#utility.yul\":1990:2036   */\n      swap2\n      pop\n        /* \"#utility.yul\":1757:2042   */\n      pop\n        /* \"#utility.yul\":1665:2042   */\n      swap3\n      swap2\n      pop\n      pop\n      jump\t// out\n        /* \"#utility.yul\":2048:2166   */\n    tag_56:\n        /* \"#utility.yul\":2135:2159   */\n      tag_115\n        /* \"#utility.yul\":2153:2158   */\n      dup2\n        /* \"#utility.yul\":2135:2159   */\n      tag_48\n      jump\t// in\n    tag_115:\n        /* \"#utility.yul\":2130:2133   */\n      dup3\n        /* \"#utility.yul\":2123:2160   */\n      mstore\n        /* \"#utility.yul\":2048:2166   */\n      pop\n      pop\n      jump\t// out\n        /* \"#utility.yul\":2172:2280   */\n    tag_57:\n        /* \"#utility.yul\":2249:2273   */\n      tag_117\n        /* \"#utility.yul\":2267:2272   */\n      dup2\n        /* \"#utility.yul\":2249:2273   */\n      tag_48\n      jump\t// in\n    tag_117:\n        /* \"#utility.yul\":2244:2247   */\n      dup3\n        /* \"#utility.yul\":2237:2274   */\n      mstore\n        /* \"#utility.yul\":2172:2280   */\n      pop\n      pop\n      jump\t// out\n        /* \"#utility.yul\":2354:2867   */\n    tag_58:\n        /* \"#utility.yul\":2495:2499   */\n      0x40\n        /* \"#utility.yul\":2490:2493   */\n      dup3\n        /* \"#utility.yul\":2486:2500   */\n      add\n        /* \"#utility.yul\":2588:2592   */\n      0x00\n        /* \"#utility.yul\":2581:2586   */\n      dup3\n        /* \"#utility.yul\":2577:2593   */\n      add\n        /* \"#utility.yul\":2571:2594   */\n      mload\n        /* \"#utility.yul\":2607:2670   */\n      tag_119\n        /* \"#utility.yul\":2664:2668   */\n      0x00\n        /* \"#utility.yul\":2659:2662   */\n      dup6\n        /* \"#utility.yul\":2655:2669   */\n      add\n        /* \"#utility.yul\":2641:2653   */\n      dup3\n        /* \"#utility.yul\":2607:2670   */\n      tag_57\n      jump\t// in\n    tag_119:\n        /* \"#utility.yul\":2510:2680   */\n      pop\n        /* \"#utility.yul\":2768:2772   */\n      0x20\n        /* \"#utility.yul\":2761:2766   */\n      dup3\n        /* \"#utility.yul\":2757:2773   */\n      add\n        /* \"#utility.yul\":2751:2774   */\n      mload\n        /* \"#utility.yul\":2787:2850   */\n      tag_120\n        /* \"#utility.yul\":2844:2848   */\n      0x20\n        /* \"#utility.yul\":2839:2842   */\n      dup6\n        /* \"#utility.yul\":2835:2849   */\n      add\n        /* \"#utility.yul\":2821:2833   */\n      dup3\n        /* \"#utility.yul\":2787:2850   */\n      tag_57\n      jump\t// in\n    tag_120:\n        /* \"#utility.yul\":2690:2860   */\n      pop\n        /* \"#utility.yul\":2464:2867   */\n      pop\n        /* \"#utility.yul\":2354:2867   */\n      pop\n      pop\n      jump\t// out\n        /* \"#utility.yul\":2873:3807   */\n    tag_11:\n        /* \"#utility.yul\":3162:3166   */\n      0x00\n        /* \"#utility.yul\":3200:3203   */\n      0xc0\n        /* \"#utility.yul\":3189:3198   */\n      dup3\n        /* \"#utility.yul\":3185:3204   */\n      add\n        /* \"#utility.yul\":3177:3204   */\n      swap1\n      pop\n        /* \"#utility.yul\":3250:3259   */\n      dup2\n        /* \"#utility.yul\":3244:3248   */\n      dup2\n        /* \"#utility.yul\":3240:3260   */\n      sub\n        /* \"#utility.yul\":3236:3237   */\n      0x00\n        /* \"#utility.yul\":3225:3234   */\n      dup4\n        /* \"#utility.yul\":3221:3238   */\n      add\n        /* \"#utility.yul\":3214:3261   */\n      mstore\n        /* \"#utility.yul\":3278:3356   */\n      tag_122\n        /* \"#utility.yul\":3351:3355   */\n      dup2\n        /* \"#utility.yul\":3342:3348   */\n      dup9\n        /* \"#utility.yul\":3278:3356   */\n      tag_55\n      jump\t// in\n    tag_122:\n        /* \"#utility.yul\":3270:3356   */\n      swap1\n      pop\n        /* \"#utility.yul\":3403:3412   */\n      dup2\n        /* \"#utility.yul\":3397:3401   */\n      dup2\n        /* \"#utility.yul\":3393:3413   */\n      sub\n        /* \"#utility.yul\":3388:3390   */\n      0x20\n        /* \"#utility.yul\":3377:3386   */\n      dup4\n        /* \"#utility.yul\":3373:3391   */\n      add\n        /* \"#utility.yul\":3366:3414   */\n      mstore\n        /* \"#utility.yul\":3431:3509   */\n      tag_123\n        /* \"#utility.yul\":3504:3508   */\n      dup2\n        /* \"#utility.yul\":3495:3501   */\n      dup8\n        /* \"#utility.yul\":3431:3509   */\n      tag_55\n      jump\t// in\n    tag_123:\n        /* \"#utility.yul\":3423:3509   */\n      swap1\n      pop\n        /* \"#utility.yul\":3519:3591   */\n      tag_124\n        /* \"#utility.yul\":3587:3589   */\n      0x40\n        /* \"#utility.yul\":3576:3585   */\n      dup4\n        /* \"#utility.yul\":3572:3590   */\n      add\n        /* \"#utility.yul\":3563:3569   */\n      dup7\n        /* \"#utility.yul\":3519:3591   */\n      tag_56\n      jump\t// in\n    tag_124:\n        /* \"#utility.yul\":3601:3673   */\n      tag_125\n        /* \"#utility.yul\":3669:3671   */\n      0x60\n        /* \"#utility.yul\":3658:3667   */\n      dup4\n        /* \"#utility.yul\":3654:3672   */\n      add\n        /* \"#utility.yul\":3645:3651   */\n      dup6\n        /* \"#utility.yul\":3601:3673   */\n      tag_56\n      jump\t// in\n    tag_125:\n        /* \"#utility.yul\":3683:3800   */\n      tag_126\n        /* \"#utility.yul\":3795:3798   */\n      0x80\n        /* \"#utility.yul\":3784:3793   */\n      dup4\n        /* \"#utility.yul\":3780:3799   */\n      add\n        /* \"#utility.yul\":3771:3777   */\n      dup5\n        /* \"#utility.yul\":3683:3800   */\n      tag_58\n      jump\t// in\n    tag_126:\n        /* \"#utility.yul\":2873:3807   */\n      swap7\n      swap6\n      pop\n      pop\n      pop\n      pop\n      pop\n      pop\n      jump\t// out\n        /* \"#utility.yul\":3813:3930   */\n    tag_59:\n        /* \"#utility.yul\":3922:3923   */\n      0x00\n        /* \"#utility.yul\":3919:3920   */\n      dup1\n        /* \"#utility.yul\":3912:3924   */\n      revert\n        /* \"#utility.yul\":3936:4053   */\n    tag_60:\n        /* \"#utility.yul\":4045:4046   */\n      0x00\n        /* \"#utility.yul\":4042:4043   */\n      dup1\n        /* \"#utility.yul\":4035:4047   */\n      revert\n        /* \"#utility.yul\":4059:4176   */\n    tag_61:\n        /* \"#utility.yul\":4168:4169   */\n      0x00\n        /* \"#utility.yul\":4165:4166   */\n      dup1\n        /* \"#utility.yul\":4158:4170   */\n      revert\n        /* \"#utility.yul\":4196:4749   */\n    tag_62:\n        /* \"#utility.yul\":4254:4262   */\n      0x00\n        /* \"#utility.yul\":4264:4270   */\n      dup1\n        /* \"#utility.yul\":4314:4317   */\n      dup4\n        /* \"#utility.yul\":4307:4311   */\n      0x1f\n        /* \"#utility.yul\":4299:4305   */\n      dup5\n        /* \"#utility.yul\":4295:4312   */\n      add\n        /* \"#utility.yul\":4291:4318   */\n      slt\n        /* \"#utility.yul\":4281:4403   */\n      tag_131\n      jumpi\n        /* \"#utility.yul\":4322:4401   */\n      tag_132\n      tag_59\n      jump\t// in\n    tag_132:\n        /* \"#utility.yul\":4281:4403   */\n    tag_131:\n        /* \"#utility.yul\":4435:4441   */\n      dup3\n        /* \"#utility.yul\":4422:4442   */\n      calldataload\n        /* \"#utility.yul\":4412:4442   */\n      swap1\n      pop\n        /* \"#utility.yul\":4465:4483   */\n      0xffffffffffffffff\n        /* \"#utility.yul\":4457:4463   */\n      dup2\n        /* \"#utility.yul\":4454:4484   */\n      gt\n        /* \"#utility.yul\":4451:4568   */\n      iszero\n      tag_133\n      jumpi\n        /* \"#utility.yul\":4487:4566   */\n      tag_134\n      tag_60\n      jump\t// in\n    tag_134:\n        /* \"#utility.yul\":4451:4568   */\n    tag_133:\n        /* \"#utility.yul\":4601:4605   */\n      0x20\n        /* \"#utility.yul\":4593:4599   */\n      dup4\n        /* \"#utility.yul\":4589:4606   */\n      add\n        /* \"#utility.yul\":4577:4606   */\n      swap2\n      pop\n        /* \"#utility.yul\":4655:4658   */\n      dup4\n        /* \"#utility.yul\":4647:4651   */\n      0x01\n        /* \"#utility.yul\":4639:4645   */\n      dup3\n        /* \"#utility.yul\":4635:4652   */\n      mul\n        /* \"#utility.yul\":4625:4633   */\n      dup4\n        /* \"#utility.yul\":4621:4653   */\n      add\n        /* \"#utility.yul\":4618:4659   */\n      gt\n        /* \"#utility.yul\":4615:4743   */\n      iszero\n      tag_135\n      jumpi\n        /* \"#utility.yul\":4662:4741   */\n      tag_136\n      tag_61\n      jump\t// in\n    tag_136:\n        /* \"#utility.yul\":4615:4743   */\n    tag_135:\n        /* \"#utility.yul\":4196:4749   */\n      swap3\n      pop\n      swap3\n      swap1\n      pop\n      jump\t// out\n        /* \"#utility.yul\":4755:5774   */\n    tag_14:\n        /* \"#utility.yul\":4856:4862   */\n      0x00\n        /* \"#utility.yul\":4864:4870   */\n      dup1\n        /* \"#utility.yul\":4872:4878   */\n      0x00\n        /* \"#utility.yul\":4880:4886   */\n      dup1\n        /* \"#utility.yul\":4888:4894   */\n      0x00\n        /* \"#utility.yul\":4937:4939   */\n      0x60\n        /* \"#utility.yul\":4925:4934   */\n      dup7\n        /* \"#utility.yul\":4916:4923   */\n      dup9\n        /* \"#utility.yul\":4912:4935   */\n      sub\n        /* \"#utility.yul\":4908:4940   */\n      slt\n        /* \"#utility.yul\":4905:5024   */\n      iszero\n      tag_138\n      jumpi\n        /* \"#utility.yul\":4943:5022   */\n      tag_139\n      tag_46\n      jump\t// in\n    tag_139:\n        /* \"#utility.yul\":4905:5024   */\n    tag_138:\n        /* \"#utility.yul\":5091:5092   */\n      0x00\n        /* \"#utility.yul\":5080:5089   */\n      dup7\n        /* \"#utility.yul\":5076:5093   */\n      add\n        /* \"#utility.yul\":5063:5094   */\n      calldataload\n        /* \"#utility.yul\":5121:5139   */\n      0xffffffffffffffff\n        /* \"#utility.yul\":5113:5119   */\n      dup2\n        /* \"#utility.yul\":5110:5140   */\n      gt\n        /* \"#utility.yul\":5107:5224   */\n      iszero\n      tag_140\n      jumpi\n        /* \"#utility.yul\":5143:5222   */\n      tag_141\n      tag_47\n      jump\t// in\n    tag_141:\n        /* \"#utility.yul\":5107:5224   */\n    tag_140:\n        /* \"#utility.yul\":5256:5321   */\n      tag_142\n        /* \"#utility.yul\":5313:5320   */\n      dup9\n        /* \"#utility.yul\":5304:5310   */\n      dup3\n        /* \"#utility.yul\":5293:5302   */\n      dup10\n        /* \"#utility.yul\":5289:5311   */\n      add\n        /* \"#utility.yul\":5256:5321   */\n      tag_62\n      jump\t// in\n    tag_142:\n        /* \"#utility.yul\":5238:5321   */\n      swap6\n      pop\n      swap6\n      pop\n        /* \"#utility.yul\":5034:5331   */\n      pop\n        /* \"#utility.yul\":5398:5400   */\n      0x20\n        /* \"#utility.yul\":5387:5396   */\n      dup7\n        /* \"#utility.yul\":5383:5401   */\n      add\n        /* \"#utility.yul\":5370:5402   */\n      calldataload\n        /* \"#utility.yul\":5429:5447   */\n      0xffffffffffffffff\n        /* \"#utility.yul\":5421:5427   */\n      dup2\n        /* \"#utility.yul\":5418:5448   */\n      gt\n        /* \"#utility.yul\":5415:5532   */\n      iszero\n      tag_143\n      jumpi\n        /* \"#utility.yul\":5451:5530   */\n      tag_144\n      tag_47\n      jump\t// in\n    tag_144:\n        /* \"#utility.yul\":5415:5532   */\n    tag_143:\n        /* \"#utility.yul\":5564:5629   */\n      tag_145\n        /* \"#utility.yul\":5621:5628   */\n      dup9\n        /* \"#utility.yul\":5612:5618   */\n      dup3\n        /* \"#utility.yul\":5601:5610   */\n      dup10\n        /* \"#utility.yul\":5597:5619   */\n      add\n        /* \"#utility.yul\":5564:5629   */\n      tag_62\n      jump\t// in\n    tag_145:\n        /* \"#utility.yul\":5546:5629   */\n      swap4\n      pop\n      swap4\n      pop\n        /* \"#utility.yul\":5341:5639   */\n      pop\n        /* \"#utility.yul\":5678:5680   */\n      0x40\n        /* \"#utility.yul\":5704:5757   */\n      tag_146\n        /* \"#utility.yul\":5749:5756   */\n      dup9\n        /* \"#utility.yul\":5740:5746   */\n      dup3\n        /* \"#utility.yul\":5729:5738   */\n      dup10\n        /* \"#utility.yul\":5725:5747   */\n      add\n        /* \"#utility.yul\":5704:5757   */\n      tag_50\n      jump\t// in\n    tag_146:\n        /* \"#utility.yul\":5694:5757   */\n      swap2\n      pop\n        /* \"#utility.yul\":5649:5767   */\n      pop\n        /* \"#utility.yul\":4755:5774   */\n      swap3\n      swap6\n      pop\n      swap3\n      swap6\n      swap1\n      swap4\n      pop\n      jump\t// out\n        /* \"#utility.yul\":5780:5870   */\n    tag_63:\n        /* \"#utility.yul\":5814:5821   */\n      0x00\n        /* \"#utility.yul\":5857:5862   */\n      dup2\n        /* \"#utility.yul\":5850:5863   */\n      iszero\n        /* \"#utility.yul\":5843:5864   */\n      iszero\n        /* \"#utility.yul\":5832:5864   */\n      swap1\n      pop\n        /* \"#utility.yul\":5780:5870   */\n      swap2\n      swap1\n      pop\n      jump\t// out\n        /* \"#utility.yul\":5876:5985   */\n    tag_64:\n        /* \"#utility.yul\":5957:5978   */\n      tag_149\n        /* \"#utility.yul\":5972:5977   */\n      dup2\n        /* \"#utility.yul\":5957:5978   */\n      tag_63\n      jump\t// in\n    tag_149:\n        /* \"#utility.yul\":5952:5955   */\n      dup3\n        /* \"#utility.yul\":5945:5979   */\n      mstore\n        /* \"#utility.yul\":5876:5985   */\n      pop\n      pop\n      jump\t// out\n        /* \"#utility.yul\":5991:6201   */\n    tag_17:\n        /* \"#utility.yul\":6078:6082   */\n      0x00\n        /* \"#utility.yul\":6116:6118   */\n      0x20\n        /* \"#utility.yul\":6105:6114   */\n      dup3\n        /* \"#utility.yul\":6101:6119   */\n      add\n        /* \"#utility.yul\":6093:6119   */\n      swap1\n      pop\n        /* \"#utility.yul\":6129:6194   */\n      tag_151\n        /* \"#utility.yul\":6191:6192   */\n      0x00\n        /* \"#utility.yul\":6180:6189   */\n      dup4\n        /* \"#utility.yul\":6176:6193   */\n      add\n        /* \"#utility.yul\":6167:6173   */\n      dup5\n        /* \"#utility.yul\":6129:6194   */\n      tag_64\n      jump\t// in\n    tag_151:\n        /* \"#utility.yul\":5991:6201   */\n      swap3\n      swap2\n      pop\n      pop\n      jump\t// out\n        /* \"#utility.yul\":6207:6333   */\n    tag_65:\n        /* \"#utility.yul\":6244:6251   */\n      0x00\n        /* \"#utility.yul\":6284:6326   */\n      0xffffffffffffffffffffffffffffffffffffffff\n        /* \"#utility.yul\":6277:6282   */\n      dup3\n        /* \"#utility.yul\":6273:6327   */\n      and\n        /* \"#utility.yul\":6262:6327   */\n      swap1\n      pop\n        /* \"#utility.yul\":6207:6333   */\n      swap2\n      swap1\n      pop\n      jump\t// out\n        /* \"#utility.yul\":6339:6435   */\n    tag_66:\n        /* \"#utility.yul\":6376:6383   */\n      0x00\n        /* \"#utility.yul\":6405:6429   */\n      tag_154\n        /* \"#utility.yul\":6423:6428   */\n      dup3\n        /* \"#utility.yul\":6405:6429   */\n      tag_65\n      jump\t// in\n    tag_154:\n        /* \"#utility.yul\":6394:6429   */\n      swap1\n      pop\n        /* \"#utility.yul\":6339:6435   */\n      swap2\n      swap1\n      pop\n      jump\t// out\n        /* \"#utility.yul\":6441:6559   */\n    tag_67:\n        /* \"#utility.yul\":6528:6552   */\n      tag_156\n        /* \"#utility.yul\":6546:6551   */\n      dup2\n        /* \"#utility.yul\":6528:6552   */\n      tag_66\n      jump\t// in\n    tag_156:\n        /* \"#utility.yul\":6523:6526   */\n      dup3\n        /* \"#utility.yul\":6516:6553   */\n      mstore\n        /* \"#utility.yul\":6441:6559   */\n      pop\n      pop\n      jump\t// out\n        /* \"#utility.yul\":6565:6787   */\n    tag_21:\n        /* \"#utility.yul\":6658:6662   */\n      0x00\n        /* \"#utility.yul\":6696:6698   */\n      0x20\n        /* \"#utility.yul\":6685:6694   */\n      dup3\n        /* \"#utility.yul\":6681:6699   */\n      add\n        /* \"#utility.yul\":6673:6699   */\n      swap1\n      pop\n        /* \"#utility.yul\":6709:6780   */\n      tag_158\n        /* \"#utility.yul\":6777:6778   */\n      0x00\n        /* \"#utility.yul\":6766:6775   */\n      dup4\n        /* \"#utility.yul\":6762:6779   */\n      add\n        /* \"#utility.yul\":6753:6759   */\n      dup5\n        /* \"#utility.yul\":6709:6780   */\n      tag_67\n      jump\t// in\n    tag_158:\n        /* \"#utility.yul\":6565:6787   */\n      swap3\n      swap2\n      pop\n      pop\n      jump\t// out\n        /* \"#utility.yul\":6793:6973   */\n    tag_68:\n        /* \"#utility.yul\":6841:6918   */\n      0x4e487b7100000000000000000000000000000000000000000000000000000000\n        /* \"#utility.yul\":6838:6839   */\n      0x00\n        /* \"#utility.yul\":6831:6919   */\n      mstore\n        /* \"#utility.yul\":6938:6942   */\n      0x22\n        /* \"#utility.yul\":6935:6936   */\n      0x04\n        /* \"#utility.yul\":6928:6943   */\n      mstore\n        /* \"#utility.yul\":6962:6966   */\n      0x24\n        /* \"#utility.yul\":6959:6960   */\n      0x00\n        /* \"#utility.yul\":6952:6967   */\n      revert\n        /* \"#utility.yul\":6979:7299   */\n    tag_25:\n        /* \"#utility.yul\":7023:7029   */\n      0x00\n        /* \"#utility.yul\":7060:7061   */\n      0x02\n        /* \"#utility.yul\":7054:7058   */\n      dup3\n        /* \"#utility.yul\":7050:7062   */\n      div\n        /* \"#utility.yul\":7040:7062   */\n      swap1\n      pop\n        /* \"#utility.yul\":7107:7108   */\n      0x01\n        /* \"#utility.yul\":7101:7105   */\n      dup3\n        /* \"#utility.yul\":7097:7109   */\n      and\n        /* \"#utility.yul\":7128:7146   */\n      dup1\n        /* \"#utility.yul\":7118:7199   */\n      tag_161\n      jumpi\n        /* \"#utility.yul\":7184:7188   */\n      0x7f\n        /* \"#utility.yul\":7176:7182   */\n      dup3\n        /* \"#utility.yul\":7172:7189   */\n      and\n        /* \"#utility.yul\":7162:7189   */\n      swap2\n      pop\n        /* \"#utility.yul\":7118:7199   */\n    tag_161:\n        /* \"#utility.yul\":7246:7248   */\n      0x20\n        /* \"#utility.yul\":7238:7244   */\n      dup3\n        /* \"#utility.yul\":7235:7249   */\n      lt\n        /* \"#utility.yul\":7215:7233   */\n      dup2\n        /* \"#utility.yul\":7212:7250   */\n      sub\n        /* \"#utility.yul\":7209:7293   */\n      tag_162\n      jumpi\n        /* \"#utility.yul\":7265:7283   */\n      tag_163\n      tag_68\n      jump\t// in\n    tag_163:\n        /* \"#utility.yul\":7209:7293   */\n    tag_162:\n        /* \"#utility.yul\":7030:7299   */\n      pop\n        /* \"#utility.yul\":6979:7299   */\n      swap2\n      swap1\n      pop\n      jump\t// out\n        /* \"#utility.yul\":7305:7464   */\n    tag_69:\n        /* \"#utility.yul\":7445:7456   */\n      0x4e6f74204f776e65720000000000000000000000000000000000000000000000\n        /* \"#utility.yul\":7441:7442   */\n      0x00\n        /* \"#utility.yul\":7433:7439   */\n      dup3\n        /* \"#utility.yul\":7429:7443   */\n      add\n        /* \"#utility.yul\":7422:7457   */\n      mstore\n        /* \"#utility.yul\":7305:7464   */\n      pop\n      jump\t// out\n        /* \"#utility.yul\":7470:7835   */\n    tag_70:\n        /* \"#utility.yul\":7612:7615   */\n      0x00\n        /* \"#utility.yul\":7633:7699   */\n      tag_166\n        /* \"#utility.yul\":7697:7698   */\n      0x09\n        /* \"#utility.yul\":7692:7695   */\n      dup4\n        /* \"#utility.yul\":7633:7699   */\n      tag_52\n      jump\t// in\n    tag_166:\n        /* \"#utility.yul\":7626:7699   */\n      swap2\n      pop\n        /* \"#utility.yul\":7708:7801   */\n      tag_167\n        /* \"#utility.yul\":7797:7800   */\n      dup3\n        /* \"#utility.yul\":7708:7801   */\n      tag_69\n      jump\t// in\n    tag_167:\n        /* \"#utility.yul\":7826:7828   */\n      0x20\n        /* \"#utility.yul\":7821:7824   */\n      dup3\n        /* \"#utility.yul\":7817:7829   */\n      add\n        /* \"#utility.yul\":7810:7829   */\n      swap1\n      pop\n        /* \"#utility.yul\":7470:7835   */\n      swap2\n      swap1\n      pop\n      jump\t// out\n        /* \"#utility.yul\":7841:8260   */\n    tag_38:\n        /* \"#utility.yul\":8007:8011   */\n      0x00\n        /* \"#utility.yul\":8045:8047   */\n      0x20\n        /* \"#utility.yul\":8034:8043   */\n      dup3\n        /* \"#utility.yul\":8030:8048   */\n      add\n        /* \"#utility.yul\":8022:8048   */\n      swap1\n      pop\n        /* \"#utility.yul\":8094:8103   */\n      dup2\n        /* \"#utility.yul\":8088:8092   */\n      dup2\n        /* \"#utility.yul\":8084:8104   */\n      sub\n        /* \"#utility.yul\":8080:8081   */\n      0x00\n        /* \"#utility.yul\":8069:8078   */\n      dup4\n        /* \"#utility.yul\":8065:8082   */\n      add\n        /* \"#utility.yul\":8058:8105   */\n      mstore\n        /* \"#utility.yul\":8122:8253   */\n      tag_169\n        /* \"#utility.yul\":8248:8252   */\n      dup2\n        /* \"#utility.yul\":8122:8253   */\n      tag_70\n      jump\t// in\n    tag_169:\n        /* \"#utility.yul\":8114:8253   */\n      swap1\n      pop\n        /* \"#utility.yul\":7841:8260   */\n      swap2\n      swap1\n      pop\n      jump\t// out\n        /* \"#utility.yul\":8266:8446   */\n    tag_71:\n        /* \"#utility.yul\":8314:8391   */\n      0x4e487b7100000000000000000000000000000000000000000000000000000000\n        /* \"#utility.yul\":8311:8312   */\n      0x00\n        /* \"#utility.yul\":8304:8392   */\n      mstore\n        /* \"#utility.yul\":8411:8415   */\n      0x11\n        /* \"#utility.yul\":8408:8409   */\n      0x04\n        /* \"#utility.yul\":8401:8416   */\n      mstore\n        /* \"#utility.yul\":8435:8439   */\n      0x24\n        /* \"#utility.yul\":8432:8433   */\n      0x00\n        /* \"#utility.yul\":8425:8440   */\n      revert\n        /* \"#utility.yul\":8452:8643   */\n    tag_40:\n        /* \"#utility.yul\":8492:8495   */\n      0x00\n        /* \"#utility.yul\":8511:8531   */\n      tag_172\n        /* \"#utility.yul\":8529:8530   */\n      dup3\n        /* \"#utility.yul\":8511:8531   */\n      tag_48\n      jump\t// in\n    tag_172:\n        /* \"#utility.yul\":8506:8531   */\n      swap2\n      pop\n        /* \"#utility.yul\":8545:8565   */\n      tag_173\n        /* \"#utility.yul\":8563:8564   */\n      dup4\n        /* \"#utility.yul\":8545:8565   */\n      tag_48\n      jump\t// in\n    tag_173:\n        /* \"#utility.yul\":8540:8565   */\n      swap3\n      pop\n        /* \"#utility.yul\":8588:8589   */\n      dup3\n        /* \"#utility.yul\":8585:8586   */\n      dup3\n        /* \"#utility.yul\":8581:8590   */\n      add\n        /* \"#utility.yul\":8574:8590   */\n      swap1\n      pop\n        /* \"#utility.yul\":8609:8612   */\n      dup1\n        /* \"#utility.yul\":8606:8607   */\n      dup3\n        /* \"#utility.yul\":8603:8613   */\n      gt\n        /* \"#utility.yul\":8600:8636   */\n      iszero\n      tag_174\n      jumpi\n        /* \"#utility.yul\":8616:8634   */\n      tag_175\n      tag_71\n      jump\t// in\n    tag_175:\n        /* \"#utility.yul\":8600:8636   */\n    tag_174:\n        /* \"#utility.yul\":8452:8643   */\n      swap3\n      swap2\n      pop\n      pop\n      jump\t// out\n        /* \"#utility.yul\":8649:8829   */\n    tag_72:\n        /* \"#utility.yul\":8697:8774   */\n      0x4e487b7100000000000000000000000000000000000000000000000000000000\n        /* \"#utility.yul\":8694:8695   */\n      0x00\n        /* \"#utility.yul\":8687:8775   */\n      mstore\n        /* \"#utility.yul\":8794:8798   */\n      0x41\n        /* \"#utility.yul\":8791:8792   */\n      0x04\n        /* \"#utility.yul\":8784:8799   */\n      mstore\n        /* \"#utility.yul\":8818:8822   */\n      0x24\n        /* \"#utility.yul\":8815:8816   */\n      0x00\n        /* \"#utility.yul\":8808:8823   */\n      revert\n        /* \"#utility.yul\":8835:8976   */\n    tag_73:\n        /* \"#utility.yul\":8884:8888   */\n      0x00\n        /* \"#utility.yul\":8907:8910   */\n      dup2\n        /* \"#utility.yul\":8899:8910   */\n      swap1\n      pop\n        /* \"#utility.yul\":8930:8933   */\n      dup2\n        /* \"#utility.yul\":8927:8928   */\n      0x00\n        /* \"#utility.yul\":8920:8934   */\n      mstore\n        /* \"#utility.yul\":8964:8968   */\n      0x20\n        /* \"#utility.yul\":8961:8962   */\n      0x00\n        /* \"#utility.yul\":8951:8969   */\n      keccak256\n        /* \"#utility.yul\":8943:8969   */\n      swap1\n      pop\n        /* \"#utility.yul\":8835:8976   */\n      swap2\n      swap1\n      pop\n      jump\t// out\n        /* \"#utility.yul\":8982:9075   */\n    tag_74:\n        /* \"#utility.yul\":9019:9025   */\n      0x00\n        /* \"#utility.yul\":9066:9068   */\n      0x20\n        /* \"#utility.yul\":9061:9063   */\n      0x1f\n        /* \"#utility.yul\":9054:9059   */\n      dup4\n        /* \"#utility.yul\":9050:9064   */\n      add\n        /* \"#utility.yul\":9046:9069   */\n      div\n        /* \"#utility.yul\":9036:9069   */\n      swap1\n      pop\n        /* \"#utility.yul\":8982:9075   */\n      swap2\n      swap1\n      pop\n      jump\t// out\n        /* \"#utility.yul\":9081:9188   */\n    tag_75:\n        /* \"#utility.yul\":9125:9133   */\n      0x00\n        /* \"#utility.yul\":9175:9180   */\n      dup3\n        /* \"#utility.yul\":9169:9173   */\n      dup3\n        /* \"#utility.yul\":9165:9181   */\n      shl\n        /* \"#utility.yul\":9144:9181   */\n      swap1\n      pop\n        /* \"#utility.yul\":9081:9188   */\n      swap3\n      swap2\n      pop\n      pop\n      jump\t// out\n        /* \"#utility.yul\":9194:9587   */\n    tag_76:\n        /* \"#utility.yul\":9263:9269   */\n      0x00\n        /* \"#utility.yul\":9313:9314   */\n      0x08\n        /* \"#utility.yul\":9301:9311   */\n      dup4\n        /* \"#utility.yul\":9297:9315   */\n      mul\n        /* \"#utility.yul\":9336:9433   */\n      tag_181\n        /* \"#utility.yul\":9366:9432   */\n      0xffffffffffffffffffffffffffffffffffffffffffffffffffffffffffffffff\n        /* \"#utility.yul\":9355:9364   */\n      dup3\n        /* \"#utility.yul\":9336:9433   */\n      tag_75\n      jump\t// in\n    tag_181:\n        /* \"#utility.yul\":9454:9493   */\n      tag_182\n        /* \"#utility.yul\":9484:9492   */\n      dup7\n        /* \"#utility.yul\":9473:9482   */\n      dup4\n        /* \"#utility.yul\":9454:9493   */\n      tag_75\n      jump\t// in\n    tag_182:\n        /* \"#utility.yul\":9442:9493   */\n      swap6\n      pop\n        /* \"#utility.yul\":9526:9530   */\n      dup1\n        /* \"#utility.yul\":9522:9531   */\n      not\n        /* \"#utility.yul\":9515:9520   */\n      dup5\n        /* \"#utility.yul\":9511:9532   */\n      and\n        /* \"#utility.yul\":9502:9532   */\n      swap4\n      pop\n        /* \"#utility.yul\":9575:9579   */\n      dup1\n        /* \"#utility.yul\":9565:9573   */\n      dup7\n        /* \"#utility.yul\":9561:9580   */\n      and\n        /* \"#utility.yul\":9554:9559   */\n      dup5\n        /* \"#utility.yul\":9551:9581   */\n      or\n        /* \"#utility.yul\":9541:9581   */\n      swap3\n      pop\n        /* \"#utility.yul\":9270:9587   */\n      pop\n      pop\n        /* \"#utility.yul\":9194:9587   */\n      swap4\n      swap3\n      pop\n      pop\n      pop\n      jump\t// out\n        /* \"#utility.yul\":9593:9653   */\n    tag_77:\n        /* \"#utility.yul\":9621:9624   */\n      0x00\n        /* \"#utility.yul\":9642:9647   */\n      dup2\n        /* \"#utility.yul\":9635:9647   */\n      swap1\n      pop\n        /* \"#utility.yul\":9593:9653   */\n      swap2\n      swap1\n      pop\n      jump\t// out\n        /* \"#utility.yul\":9659:9801   */\n    tag_78:\n        /* \"#utility.yul\":9709:9718   */\n      0x00\n        /* \"#utility.yul\":9742:9795   */\n      tag_185\n        /* \"#utility.yul\":9760:9794   */\n      tag_186\n        /* \"#utility.yul\":9769:9793   */\n      tag_187\n        /* \"#utility.yul\":9787:9792   */\n      dup5\n        /* \"#utility.yul\":9769:9793   */\n      tag_48\n      jump\t// in\n    tag_187:\n        /* \"#utility.yul\":9760:9794   */\n      tag_77\n      jump\t// in\n    tag_186:\n        /* \"#utility.yul\":9742:9795   */\n      tag_48\n      jump\t// in\n    tag_185:\n        /* \"#utility.yul\":9729:9795   */\n      swap1\n      pop\n        /* \"#utility.yul\":9659:9801   */\n      swap2\n      swap1\n      pop\n      jump\t// out\n        /* \"#utility.yul\":9807:9882   */\n    tag_79:\n        /* \"#utility.yul\":9850:9853   */\n      0x00\n        /* \"#utility.yul\":9871:9876   */\n      dup2\n        /* \"#utility.yul\":9864:9876   */\n      swap1\n      pop\n        /* \"#utility.yul\":9807:9882   */\n      swap2\n      swap1\n      pop\n      jump\t// out\n        /* \"#utility.yul\":9888:10157   */\n    tag_80:\n        /* \"#utility.yul\":9998:10037   */\n      tag_190\n        /* \"#utility.yul\":10029:10036   */\n      dup4\n        /* \"#utility.yul\":9998:10037   */\n      tag_78\n      jump\t// in\n    tag_190:\n        /* \"#utility.yul\":10059:10150   */\n      tag_191\n        /* \"#utility.yul\":10108:10149   */\n      tag_192\n        /* \"#utility.yul\":10132:10148   */\n      dup3\n        /* \"#utility.yul\":10108:10149   */\n      tag_79\n      jump\t// in\n    tag_192:\n        /* \"#utility.yul\":10100:10106   */\n      dup5\n        /* \"#utility.yul\":10093:10097   */\n      dup5\n        /* \"#utility.yul\":10087:10098   */\n      sload\n        /* \"#utility.yul\":10059:10150   */\n      tag_76\n      jump\t// in\n    tag_191:\n        /* \"#utility.yul\":10053:10057   */\n      dup3\n        /* \"#utility.yul\":10046:10151   */\n      sstore\n        /* \"#utility.yul\":9964:10157   */\n      pop\n        /* \"#utility.yul\":9888:10157   */\n      pop\n      pop\n      pop\n      jump\t// out\n        /* \"#utility.yul\":10163:10236   */\n    tag_81:\n        /* \"#utility.yul\":10208:10211   */\n      0x00\n        /* \"#utility.yul\":10163:10236   */\n      swap1\n      jump\t// out\n        /* \"#utility.yul\":10242:10431   */\n    tag_82:\n        /* \"#utility.yul\":10319:10351   */\n      tag_195\n      tag_81\n      jump\t// in\n    tag_195:\n        /* \"#utility.yul\":10360:10425   */\n      tag_196\n        /* \"#utility.yul\":10418:10424   */\n      dup2\n        /* \"#utility.yul\":10410:10416   */\n      dup5\n        /* \"#utility.yul\":10404:10408   */\n      dup5\n        /* \"#utility.yul\":10360:10425   */\n      tag_80\n      jump\t// in\n    tag_196:\n        /* \"#utility.yul\":10295:10431   */\n      pop\n        /* \"#utility.yul\":10242:10431   */\n      pop\n      pop\n      jump\t// out\n        /* \"#utility.yul\":10437:10623   */\n    tag_83:\n        /* \"#utility.yul\":10497:10617   */\n    tag_198:\n        /* \"#utility.yul\":10514:10517   */\n      dup2\n        /* \"#utility.yul\":10507:10512   */\n      dup2\n        /* \"#utility.yul\":10504:10518   */\n      lt\n        /* \"#utility.yul\":10497:10617   */\n      iszero\n      tag_200\n      jumpi\n        /* \"#utility.yul\":10568:10607   */\n      tag_201\n        /* \"#utility.yul\":10605:10606   */\n      0x00\n        /* \"#utility.yul\":10598:10603   */\n      dup3\n        /* \"#utility.yul\":10568:10607   */\n      tag_82\n      jump\t// in\n    tag_201:\n        /* \"#utility.yul\":10541:10542   */\n      0x01\n        /* \"#utility.yul\":10534:10539   */\n      dup2\n        /* \"#utility.yul\":10530:10543   */\n      add\n        /* \"#utility.yul\":10521:10543   */\n      swap1\n      pop\n        /* \"#utility.yul\":10497:10617   */\n      jump(tag_198)\n    tag_200:\n        /* \"#utility.yul\":10437:10623   */\n      pop\n      pop\n      jump\t// out\n        /* \"#utility.yul\":10629:11172   */\n    tag_84:\n        /* \"#utility.yul\":10730:10732   */\n      0x1f\n        /* \"#utility.yul\":10725:10728   */\n      dup3\n        /* \"#utility.yul\":10722:10733   */\n      gt\n        /* \"#utility.yul\":10719:11165   */\n      iszero\n      tag_203\n      jumpi\n        /* \"#utility.yul\":10764:10802   */\n      tag_204\n        /* \"#utility.yul\":10796:10801   */\n      dup2\n        /* \"#utility.yul\":10764:10802   */\n      tag_73\n      jump\t// in\n    tag_204:\n        /* \"#utility.yul\":10848:10877   */\n      tag_205\n        /* \"#utility.yul\":10866:10876   */\n      dup5\n        /* \"#utility.yul\":10848:10877   */\n      tag_74\n      jump\t// in\n    tag_205:\n        /* \"#utility.yul\":10838:10846   */\n      dup2\n        /* \"#utility.yul\":10834:10878   */\n      add\n        /* \"#utility.yul\":11031:11033   */\n      0x20\n        /* \"#utility.yul\":11019:11029   */\n      dup6\n        /* \"#utility.yul\":11016:11034   */\n      lt\n        /* \"#utility.yul\":11013:11062   */\n      iszero\n      tag_206\n      jumpi\n        /* \"#utility.yul\":11052:11060   */\n      dup2\n        /* \"#utility.yul\":11037:11060   */\n      swap1\n      pop\n        /* \"#utility.yul\":11013:11062   */\n    tag_206:\n        /* \"#utility.yul\":11075:11155   */\n      tag_207\n        /* \"#utility.yul\":11131:11153   */\n      tag_208\n        /* \"#utility.yul\":11149:11152   */\n      dup6\n        /* \"#utility.yul\":11131:11153   */\n      tag_74\n      jump\t// in\n    tag_208:\n        /* \"#utility.yul\":11121:11129   */\n      dup4\n        /* \"#utility.yul\":11117:11154   */\n      add\n        /* \"#utility.yul\":11104:11115   */\n      dup3\n        /* \"#utility.yul\":11075:11155   */\n      tag_83\n      jump\t// in\n    tag_207:\n        /* \"#utility.yul\":10734:11165   */\n      pop\n      pop\n        /* \"#utility.yul\":10719:11165   */\n    tag_203:\n        /* \"#utility.yul\":10629:11172   */\n      pop\n      pop\n      pop\n      jump\t// out\n        /* \"#utility.yul\":11178:11295   */\n    tag_85:\n        /* \"#utility.yul\":11232:11240   */\n      0x00\n        /* \"#utility.yul\":11282:11287   */\n      dup3\n        /* \"#utility.yul\":11276:11280   */\n      dup3\n        /* \"#utility.yul\":11272:11288   */\n      shr\n        /* \"#utility.yul\":11251:11288   */\n      swap1\n      pop\n        /* \"#utility.yul\":11178:11295   */\n      swap3\n      swap2\n      pop\n      pop\n      jump\t// out\n        /* \"#utility.yul\":11301:11470   */\n    tag_86:\n        /* \"#utility.yul\":11345:11351   */\n      0x00\n        /* \"#utility.yul\":11378:11429   */\n      tag_211\n        /* \"#utility.yul\":11426:11427   */\n      0x00\n        /* \"#utility.yul\":11422:11428   */\n      not\n        /* \"#utility.yul\":11414:11419   */\n      dup5\n        /* \"#utility.yul\":11411:11412   */\n      0x08\n        /* \"#utility.yul\":11407:11420   */\n      mul\n        /* \"#utility.yul\":11378:11429   */\n      tag_85\n      jump\t// in\n    tag_211:\n        /* \"#utility.yul\":11374:11430   */\n      not\n        /* \"#utility.yul\":11459:11463   */\n      dup1\n        /* \"#utility.yul\":11453:11457   */\n      dup4\n        /* \"#utility.yul\":11449:11464   */\n      and\n        /* \"#utility.yul\":11439:11464   */\n      swap2\n      pop\n        /* \"#utility.yul\":11352:11470   */\n      pop\n        /* \"#utility.yul\":11301:11470   */\n      swap3\n      swap2\n      pop\n      pop\n      jump\t// out\n        /* \"#utility.yul\":11475:11770   */\n    tag_87:\n        /* \"#utility.yul\":11551:11555   */\n      0x00\n        /* \"#utility.yul\":11697:11726   */\n      tag_213\n        /* \"#utility.yul\":11722:11725   */\n      dup4\n        /* \"#utility.yul\":11716:11720   */\n      dup4\n        /* \"#utility.yul\":11697:11726   */\n      tag_86\n      jump\t// in\n    tag_213:\n        /* \"#utility.yul\":11689:11726   */\n      swap2\n      pop\n        /* \"#utility.yul\":11759:11762   */\n      dup3\n        /* \"#utility.yul\":11756:11757   */\n      0x02\n        /* \"#utility.yul\":11752:11763   */\n      mul\n        /* \"#utility.yul\":11746:11750   */\n      dup3\n        /* \"#utility.yul\":11743:11764   */\n      or\n        /* \"#utility.yul\":11735:11764   */\n      swap1\n      pop\n        /* \"#utility.yul\":11475:11770   */\n      swap3\n      swap2\n      pop\n      pop\n      jump\t// out\n        /* \"#utility.yul\":11775:13170   */\n    tag_43:\n        /* \"#utility.yul\":11892:11929   */\n      tag_215\n        /* \"#utility.yul\":11925:11928   */\n      dup3\n        /* \"#utility.yul\":11892:11929   */\n      tag_51\n      jump\t// in\n    tag_215:\n        /* \"#utility.yul\":11994:12012   */\n      0xffffffffffffffff\n        /* \"#utility.yul\":11986:11992   */\n      dup2\n        /* \"#utility.yul\":11983:12013   */\n      gt\n        /* \"#utility.yul\":11980:12036   */\n      iszero\n      tag_216\n      jumpi\n        /* \"#utility.yul\":12016:12034   */\n      tag_217\n      tag_72\n      jump\t// in\n    tag_217:\n        /* \"#utility.yul\":11980:12036   */\n    tag_216:\n        /* \"#utility.yul\":12060:12098   */\n      tag_218\n        /* \"#utility.yul\":12092:12096   */\n      dup3\n        /* \"#utility.yul\":12086:12097   */\n      sload\n        /* \"#utility.yul\":12060:12098   */\n      tag_25\n      jump\t// in\n    tag_218:\n        /* \"#utility.yul\":12145:12212   */\n      tag_219\n        /* \"#utility.yul\":12205:12211   */\n      dup3\n        /* \"#utility.yul\":12197:12203   */\n      dup3\n        /* \"#utility.yul\":12191:12195   */\n      dup6\n        /* \"#utility.yul\":12145:12212   */\n      tag_84\n      jump\t// in\n    tag_219:\n        /* \"#utility.yul\":12239:12240   */\n      0x00\n        /* \"#utility.yul\":12263:12267   */\n      0x20\n        /* \"#utility.yul\":12250:12267   */\n      swap1\n      pop\n        /* \"#utility.yul\":12295:12297   */\n      0x1f\n        /* \"#utility.yul\":12287:12293   */\n      dup4\n        /* \"#utility.yul\":12284:12298   */\n      gt\n        /* \"#utility.yul\":12312:12313   */\n      0x01\n        /* \"#utility.yul\":12307:12925   */\n      dup2\n      eq\n      tag_221\n      jumpi\n        /* \"#utility.yul\":12969:12970   */\n      0x00\n        /* \"#utility.yul\":12986:12992   */\n      dup5\n        /* \"#utility.yul\":12983:13060   */\n      iszero\n      tag_222\n      jumpi\n        /* \"#utility.yul\":13035:13044   */\n      dup3\n        /* \"#utility.yul\":13030:13033   */\n      dup8\n        /* \"#utility.yul\":13026:13045   */\n      add\n        /* \"#utility.yul\":13020:13046   */\n      mload\n        /* \"#utility.yul\":13011:13046   */\n      swap1\n      pop\n        /* \"#utility.yul\":12983:13060   */\n    tag_222:\n        /* \"#utility.yul\":13086:13153   */\n      tag_223\n        /* \"#utility.yul\":13146:13152   */\n      dup6\n        /* \"#utility.yul\":13139:13144   */\n      dup3\n        /* \"#utility.yul\":13086:13153   */\n      tag_87\n      jump\t// in\n    tag_223:\n        /* \"#utility.yul\":13080:13084   */\n      dup7\n        /* \"#utility.yul\":13073:13154   */\n      sstore\n        /* \"#utility.yul\":12942:13164   */\n      pop\n        /* \"#utility.yul\":12277:13164   */\n      jump(tag_220)\n        /* \"#utility.yul\":12307:12925   */\n    tag_221:\n        /* \"#utility.yul\":12359:12363   */\n      0x1f\n        /* \"#utility.yul\":12355:12364   */\n      not\n        /* \"#utility.yul\":12347:12353   */\n      dup5\n        /* \"#utility.yul\":12343:12365   */\n      and\n        /* \"#utility.yul\":12393:12430   */\n      tag_224\n        /* \"#utility.yul\":12425:12429   */\n      dup7\n        /* \"#utility.yul\":12393:12430   */\n      tag_73\n      jump\t// in\n    tag_224:\n        /* \"#utility.yul\":12452:12453   */\n      0x00\n        /* \"#utility.yul\":12466:12674   */\n    tag_225:\n        /* \"#utility.yul\":12480:12487   */\n      dup3\n        /* \"#utility.yul\":12477:12478   */\n      dup2\n        /* \"#utility.yul\":12474:12488   */\n      lt\n        /* \"#utility.yul\":12466:12674   */\n      iszero\n      tag_227\n      jumpi\n        /* \"#utility.yul\":12559:12568   */\n      dup5\n        /* \"#utility.yul\":12554:12557   */\n      dup10\n        /* \"#utility.yul\":12550:12569   */\n      add\n        /* \"#utility.yul\":12544:12570   */\n      mload\n        /* \"#utility.yul\":12536:12542   */\n      dup3\n        /* \"#utility.yul\":12529:12571   */\n      sstore\n        /* \"#utility.yul\":12610:12611   */\n      0x01\n        /* \"#utility.yul\":12602:12608   */\n      dup3\n        /* \"#utility.yul\":12598:12612   */\n      add\n        /* \"#utility.yul\":12588:12612   */\n      swap2\n      pop\n        /* \"#utility.yul\":12657:12659   */\n      0x20\n        /* \"#utility.yul\":12646:12655   */\n      dup6\n        /* \"#utility.yul\":12642:12660   */\n      add\n        /* \"#utility.yul\":12629:12660   */\n      swap5\n      pop\n        /* \"#utility.yul\":12503:12507   */\n      0x20\n        /* \"#utility.yul\":12500:12501   */\n      dup2\n        /* \"#utility.yul\":12496:12508   */\n      add\n        /* \"#utility.yul\":12491:12508   */\n      swap1\n      pop\n        /* \"#utility.yul\":12466:12674   */\n      jump(tag_225)\n    tag_227:\n        /* \"#utility.yul\":12702:12708   */\n      dup7\n        /* \"#utility.yul\":12693:12700   */\n      dup4\n        /* \"#utility.yul\":12690:12709   */\n      lt\n        /* \"#utility.yul\":12687:12866   */\n      iszero\n      tag_228\n      jumpi\n        /* \"#utility.yul\":12760:12769   */\n      dup5\n        /* \"#utility.yul\":12755:12758   */\n      dup10\n        /* \"#utility.yul\":12751:12770   */\n      add\n        /* \"#utility.yul\":12745:12771   */\n      mload\n        /* \"#utility.yul\":12803:12851   */\n      tag_229\n        /* \"#utility.yul\":12845:12849   */\n      0x1f\n        /* \"#utility.yul\":12837:12843   */\n      dup10\n        /* \"#utility.yul\":12833:12850   */\n      and\n        /* \"#utility.yul\":12822:12831   */\n      dup3\n        /* \"#utility.yul\":12803:12851   */\n      tag_86\n      jump\t// in\n    tag_229:\n        /* \"#utility.yul\":12795:12801   */\n      dup4\n        /* \"#utility.yul\":12788:12852   */\n      sstore\n        /* \"#utility.yul\":12710:12866   */\n      pop\n        /* \"#utility.yul\":12687:12866   */\n    tag_228:\n        /* \"#utility.yul\":12912:12913   */\n      0x01\n        /* \"#utility.yul\":12908:12909   */\n      0x02\n        /* \"#utility.yul\":12900:12906   */\n      dup9\n        /* \"#utility.yul\":12896:12910   */\n      mul\n        /* \"#utility.yul\":12892:12914   */\n      add\n        /* \"#utility.yul\":12886:12890   */\n      dup9\n        /* \"#utility.yul\":12879:12915   */\n      sstore\n        /* \"#utility.yul\":12314:12925   */\n      pop\n      pop\n      pop\n        /* \"#utility.yul\":12277:13164   */\n    tag_220:\n      pop\n        /* \"#utility.yul\":11867:13170   */\n      pop\n      pop\n      pop\n        /* \"#utility.yul\":11775:13170   */\n      pop\n      pop\n      jump\t// out\n\n    auxdata: 0xa26469706673582212206fb0c3a745998b630cad417f6ca44da267db378e72e754d576c906d6929aec4e64736f6c63430008110033\n}\n",
				"bytecode": {
					"linkReferences": {},
					"object": "608060405234801561001057600080fd5b50610bb0806100206000396000f3fe608060405234801561001057600080fd5b50600436106100415760003560e01c8063b2edb39f14610046578063bc9e6e2c1461007a578063f851a440146100aa575b600080fd5b610060600480360381019061005b91906104a7565b6100c8565b6040516100719594939291906105b1565b60405180910390f35b610094600480360381019061008f9190610677565b61023c565b6040516100a19190610727565b60405180910390f35b6100b2610443565b6040516100bf9190610783565b60405180910390f35b600181815481106100d857600080fd5b90600052602060002090600602016000915090508060000180546100fb906107cd565b80601f0160208091040260200160405190810160405280929190818152602001828054610127906107cd565b80156101745780601f1061014957610100808354040283529160200191610174565b820191906000526020600020905b81548152906001019060200180831161015757829003601f168201915b505050505090806001018054610189906107cd565b80601f01602080910402602001604051908101604052809291908181526020018280546101b5906107cd565b80156102025780601f106101d757610100808354040283529160200191610202565b820191906000526020600020905b8154815290600101906020018083116101e557829003601f168201915b5050505050908060020154908060030154908060040160405180604001604052908160008201548152602001600182015481525050905085565b60003373ffffffffffffffffffffffffffffffffffffffff1660008054906101000a900473ffffffffffffffffffffffffffffffffffffffff1673ffffffffffffffffffffffffffffffffffffffff16146102cc576040517f08c379a00000000000000000000000000000000000000000000000000000000081526004016102c39061084a565b60405180910390fd5b6000611644836102dc9190610899565b905060006040518060400160405280600081526020016000815250905060016040518060a001604052808a8a8080601f016020809104026020016040519081016040528093929190818152602001838380828437600081840152601f19601f82011690508083019250505050505050815260200188888080601f016020809104026020016040519081016040528093929190818152602001838380828437600081840152601f19601f82011690508083019250505050505050815260200186815260200184815260200183815250908060018154018082558091505060019003906000526020600020906006020160009091909190915060008201518160000190816103e89190610aa8565b5060208201518160010190816103fe9190610aa8565b50604082015181600201556060820151816003015560808201518160040160008201518160000155602082015181600101555050505060019250505095945050505050565b60008054906101000a900473ffffffffffffffffffffffffffffffffffffffff1681565b600080fd5b600080fd5b6000819050919050565b61048481610471565b811461048f57600080fd5b50565b6000813590506104a18161047b565b92915050565b6000602082840312156104bd576104bc610467565b5b60006104cb84828501610492565b91505092915050565b600081519050919050565b600082825260208201905092915050565b60005b8381101561050e5780820151818401526020810190506104f3565b60008484015250505050565b6000601f19601f8301169050919050565b6000610536826104d4565b61054081856104df565b93506105508185602086016104f0565b6105598161051a565b840191505092915050565b61056d81610471565b82525050565b61057c81610471565b82525050565b6040820160008201516105986000850182610573565b5060208201516105ab6020850182610573565b50505050565b600060c08201905081810360008301526105cb818861052b565b905081810360208301526105df818761052b565b90506105ee6040830186610564565b6105fb6060830185610564565b6106086080830184610582565b9695505050505050565b600080fd5b600080fd5b600080fd5b60008083601f84011261063757610636610612565b5b8235905067ffffffffffffffff81111561065457610653610617565b5b6020830191508360018202830111156106705761066f61061c565b5b9250929050565b60008060008060006060868803121561069357610692610467565b5b600086013567ffffffffffffffff8111156106b1576106b061046c565b5b6106bd88828901610621565b9550955050602086013567ffffffffffffffff8111156106e0576106df61046c565b5b6106ec88828901610621565b935093505060406106ff88828901610492565b9150509295509295909350565b60008115159050919050565b6107218161070c565b82525050565b600060208201905061073c6000830184610718565b92915050565b600073ffffffffffffffffffffffffffffffffffffffff82169050919050565b600061076d82610742565b9050919050565b61077d81610762565b82525050565b60006020820190506107986000830184610774565b92915050565b7f4e487b7100000000000000000000000000000000000000000000000000000000600052602260045260246000fd5b600060028204905060018216806107e557607f821691505b6020821081036107f8576107f761079e565b5b50919050565b7f4e6f74204f776e65720000000000000000000000000000000000000000000000600082015250565b60006108346009836104df565b915061083f826107fe565b602082019050919050565b6000602082019050818103600083015261086381610827565b9050919050565b7f4e487b7100000000000000000000000000000000000000000000000000000000600052601160045260246000fd5b60006108a482610471565b91506108af83610471565b92508282019050808211156108c7576108c661086a565b5b92915050565b7f4e487b7100000000000000000000000000000000000000000000000000000000600052604160045260246000fd5b60008190508160005260206000209050919050565b60006020601f8301049050919050565b600082821b905092915050565b60006008830261095e7fffffffffffffffffffffffffffffffffffffffffffffffffffffffffffffffff82610921565b6109688683610921565b95508019841693508086168417925050509392505050565b6000819050919050565b60006109a56109a061099b84610471565b610980565b610471565b9050919050565b6000819050919050565b6109bf8361098a565b6109d36109cb826109ac565b84845461092e565b825550505050565b600090565b6109e86109db565b6109f38184846109b6565b505050565b5b81811015610a1757610a0c6000826109e0565b6001810190506109f9565b5050565b601f821115610a5c57610a2d816108fc565b610a3684610911565b81016020851015610a45578190505b610a59610a5185610911565b8301826109f8565b50505b505050565b600082821c905092915050565b6000610a7f60001984600802610a61565b1980831691505092915050565b6000610a988383610a6e565b9150826002028217905092915050565b610ab1826104d4565b67ffffffffffffffff811115610aca57610ac96108cd565b5b610ad482546107cd565b610adf828285610a1b565b600060209050601f831160018114610b125760008415610b00578287015190505b610b0a8582610a8c565b865550610b72565b601f198416610b20866108fc565b60005b82811015610b4857848901518255600182019150602085019450602081019050610b23565b86831015610b655784890151610b61601f891682610a6e565b8355505b6001600288020188555050505b50505050505056fea26469706673582212206fb0c3a745998b630cad417f6ca44da267db378e72e754d576c906d6929aec4e64736f6c63430008110033",
					"opcodes": "PUSH1 0x80 PUSH1 0x40 MSTORE CALLVALUE DUP1 ISZERO PUSH2 0x10 JUMPI PUSH1 0x0 DUP1 REVERT JUMPDEST POP PUSH2 0xBB0 DUP1 PUSH2 0x20 PUSH1 0x0 CODECOPY PUSH1 0x0 RETURN INVALID PUSH1 0x80 PUSH1 0x40 MSTORE CALLVALUE DUP1 ISZERO PUSH2 0x10 JUMPI PUSH1 0x0 DUP1 REVERT JUMPDEST POP PUSH1 0x4 CALLDATASIZE LT PUSH2 0x41 JUMPI PUSH1 0x0 CALLDATALOAD PUSH1 0xE0 SHR DUP1 PUSH4 0xB2EDB39F EQ PUSH2 0x46 JUMPI DUP1 PUSH4 0xBC9E6E2C EQ PUSH2 0x7A JUMPI DUP1 PUSH4 0xF851A440 EQ PUSH2 0xAA JUMPI JUMPDEST PUSH1 0x0 DUP1 REVERT JUMPDEST PUSH2 0x60 PUSH1 0x4 DUP1 CALLDATASIZE SUB DUP2 ADD SWAP1 PUSH2 0x5B SWAP2 SWAP1 PUSH2 0x4A7 JUMP JUMPDEST PUSH2 0xC8 JUMP JUMPDEST PUSH1 0x40 MLOAD PUSH2 0x71 SWAP6 SWAP5 SWAP4 SWAP3 SWAP2 SWAP1 PUSH2 0x5B1 JUMP JUMPDEST PUSH1 0x40 MLOAD DUP1 SWAP2 SUB SWAP1 RETURN JUMPDEST PUSH2 0x94 PUSH1 0x4 DUP1 CALLDATASIZE SUB DUP2 ADD SWAP1 PUSH2 0x8F SWAP2 SWAP1 PUSH2 0x677 JUMP JUMPDEST PUSH2 0x23C JUMP JUMPDEST PUSH1 0x40 MLOAD PUSH2 0xA1 SWAP2 SWAP1 PUSH2 0x727 JUMP JUMPDEST PUSH1 0x40 MLOAD DUP1 SWAP2 SUB SWAP1 RETURN JUMPDEST PUSH2 0xB2 PUSH2 0x443 JUMP JUMPDEST PUSH1 0x40 MLOAD PUSH2 0xBF SWAP2 SWAP1 PUSH2 0x783 JUMP JUMPDEST PUSH1 0x40 MLOAD DUP1 SWAP2 SUB SWAP1 RETURN JUMPDEST PUSH1 0x1 DUP2 DUP2 SLOAD DUP2 LT PUSH2 0xD8 JUMPI PUSH1 0x0 DUP1 REVERT JUMPDEST SWAP1 PUSH1 0x0 MSTORE PUSH1 0x20 PUSH1 0x0 KECCAK256 SWAP1 PUSH1 0x6 MUL ADD PUSH1 0x0 SWAP2 POP SWAP1 POP DUP1 PUSH1 0x0 ADD DUP1 SLOAD PUSH2 0xFB SWAP1 PUSH2 0x7CD JUMP JUMPDEST DUP1 PUSH1 0x1F ADD PUSH1 0x20 DUP1 SWAP2 DIV MUL PUSH1 0x20 ADD PUSH1 0x40 MLOAD SWAP1 DUP2 ADD PUSH1 0x40 MSTORE DUP1 SWAP3 SWAP2 SWAP1 DUP2 DUP2 MSTORE PUSH1 0x20 ADD DUP3 DUP1 SLOAD PUSH2 0x127 SWAP1 PUSH2 0x7CD JUMP JUMPDEST DUP1 ISZERO PUSH2 0x174 JUMPI DUP1 PUSH1 0x1F LT PUSH2 0x149 JUMPI PUSH2 0x100 DUP1 DUP4 SLOAD DIV MUL DUP4 MSTORE SWAP2 PUSH1 0x20 ADD SWAP2 PUSH2 0x174 JUMP JUMPDEST DUP3 ADD SWAP2 SWAP1 PUSH1 0x0 MSTORE PUSH1 0x20 PUSH1 0x0 KECCAK256 SWAP1 JUMPDEST DUP2 SLOAD DUP2 MSTORE SWAP1 PUSH1 0x1 ADD SWAP1 PUSH1 0x20 ADD DUP1 DUP4 GT PUSH2 0x157 JUMPI DUP3 SWAP1 SUB PUSH1 0x1F AND DUP3 ADD SWAP2 JUMPDEST POP POP POP POP POP SWAP1 DUP1 PUSH1 0x1 ADD DUP1 SLOAD PUSH2 0x189 SWAP1 PUSH2 0x7CD JUMP JUMPDEST DUP1 PUSH1 0x1F ADD PUSH1 0x20 DUP1 SWAP2 DIV MUL PUSH1 0x20 ADD PUSH1 0x40 MLOAD SWAP1 DUP2 ADD PUSH1 0x40 MSTORE DUP1 SWAP3 SWAP2 SWAP1 DUP2 DUP2 MSTORE PUSH1 0x20 ADD DUP3 DUP1 SLOAD PUSH2 0x1B5 SWAP1 PUSH2 0x7CD JUMP JUMPDEST DUP1 ISZERO PUSH2 0x202 JUMPI DUP1 PUSH1 0x1F LT PUSH2 0x1D7 JUMPI PUSH2 0x100 DUP1 DUP4 SLOAD DIV MUL DUP4 MSTORE SWAP2 PUSH1 0x20 ADD SWAP2 PUSH2 0x202 JUMP JUMPDEST DUP3 ADD SWAP2 SWAP1 PUSH1 0x0 MSTORE PUSH1 0x20 PUSH1 0x0 KECCAK256 SWAP1 JUMPDEST DUP2 SLOAD DUP2 MSTORE SWAP1 PUSH1 0x1 ADD SWAP1 PUSH1 0x20 ADD DUP1 DUP4 GT PUSH2 0x1E5 JUMPI DUP3 SWAP1 SUB PUSH1 0x1F AND DUP3 ADD SWAP2 JUMPDEST POP POP POP POP POP SWAP1 DUP1 PUSH1 0x2 ADD SLOAD SWAP1 DUP1 PUSH1 0x3 ADD SLOAD SWAP1 DUP1 PUSH1 0x4 ADD PUSH1 0x40 MLOAD DUP1 PUSH1 0x40 ADD PUSH1 0x40 MSTORE SWAP1 DUP2 PUSH1 0x0 DUP3 ADD SLOAD DUP2 MSTORE PUSH1 0x20 ADD PUSH1 0x1 DUP3 ADD SLOAD DUP2 MSTORE POP POP SWAP1 POP DUP6 JUMP JUMPDEST PUSH1 0x0 CALLER PUSH20 0xFFFFFFFFFFFFFFFFFFFFFFFFFFFFFFFFFFFFFFFF AND PUSH1 0x0 DUP1 SLOAD SWAP1 PUSH2 0x100 EXP SWAP1 DIV PUSH20 0xFFFFFFFFFFFFFFFFFFFFFFFFFFFFFFFFFFFFFFFF AND PUSH20 0xFFFFFFFFFFFFFFFFFFFFFFFFFFFFFFFFFFFFFFFF AND EQ PUSH2 0x2CC JUMPI PUSH1 0x40 MLOAD PUSH32 0x8C379A000000000000000000000000000000000000000000000000000000000 DUP2 MSTORE PUSH1 0x4 ADD PUSH2 0x2C3 SWAP1 PUSH2 0x84A JUMP JUMPDEST PUSH1 0x40 MLOAD DUP1 SWAP2 SUB SWAP1 REVERT JUMPDEST PUSH1 0x0 PUSH2 0x1644 DUP4 PUSH2 0x2DC SWAP2 SWAP1 PUSH2 0x899 JUMP JUMPDEST SWAP1 POP PUSH1 0x0 PUSH1 0x40 MLOAD DUP1 PUSH1 0x40 ADD PUSH1 0x40 MSTORE DUP1 PUSH1 0x0 DUP2 MSTORE PUSH1 0x20 ADD PUSH1 0x0 DUP2 MSTORE POP SWAP1 POP PUSH1 0x1 PUSH1 0x40 MLOAD DUP1 PUSH1 0xA0 ADD PUSH1 0x40 MSTORE DUP1 DUP11 DUP11 DUP1 DUP1 PUSH1 0x1F ADD PUSH1 0x20 DUP1 SWAP2 DIV MUL PUSH1 0x20 ADD PUSH1 0x40 MLOAD SWAP1 DUP2 ADD PUSH1 0x40 MSTORE DUP1 SWAP4 SWAP3 SWAP2 SWAP1 DUP2 DUP2 MSTORE PUSH1 0x20 ADD DUP4 DUP4 DUP1 DUP3 DUP5 CALLDATACOPY PUSH1 0x0 DUP2 DUP5 ADD MSTORE PUSH1 0x1F NOT PUSH1 0x1F DUP3 ADD AND SWAP1 POP DUP1 DUP4 ADD SWAP3 POP POP POP POP POP POP POP DUP2 MSTORE PUSH1 0x20 ADD DUP9 DUP9 DUP1 DUP1 PUSH1 0x1F ADD PUSH1 0x20 DUP1 SWAP2 DIV MUL PUSH1 0x20 ADD PUSH1 0x40 MLOAD SWAP1 DUP2 ADD PUSH1 0x40 MSTORE DUP1 SWAP4 SWAP3 SWAP2 SWAP1 DUP2 DUP2 MSTORE PUSH1 0x20 ADD DUP4 DUP4 DUP1 DUP3 DUP5 CALLDATACOPY PUSH1 0x0 DUP2 DUP5 ADD MSTORE PUSH1 0x1F NOT PUSH1 0x1F DUP3 ADD AND SWAP1 POP DUP1 DUP4 ADD SWAP3 POP POP POP POP POP POP POP DUP2 MSTORE PUSH1 0x20 ADD DUP7 DUP2 MSTORE PUSH1 0x20 ADD DUP5 DUP2 MSTORE PUSH1 0x20 ADD DUP4 DUP2 MSTORE POP SWAP1 DUP1 PUSH1 0x1 DUP2 SLOAD ADD DUP1 DUP3 SSTORE DUP1 SWAP2 POP POP PUSH1 0x1 SWAP1 SUB SWAP1 PUSH1 0x0 MSTORE PUSH1 0x20 PUSH1 0x0 KECCAK256 SWAP1 PUSH1 0x6 MUL ADD PUSH1 0x0 SWAP1 SWAP2 SWAP1 SWAP2 SWAP1 SWAP2 POP PUSH1 0x0 DUP3 ADD MLOAD DUP2 PUSH1 0x0 ADD SWAP1 DUP2 PUSH2 0x3E8 SWAP2 SWAP1 PUSH2 0xAA8 JUMP JUMPDEST POP PUSH1 0x20 DUP3 ADD MLOAD DUP2 PUSH1 0x1 ADD SWAP1 DUP2 PUSH2 0x3FE SWAP2 SWAP1 PUSH2 0xAA8 JUMP JUMPDEST POP PUSH1 0x40 DUP3 ADD MLOAD DUP2 PUSH1 0x2 ADD SSTORE PUSH1 0x60 DUP3 ADD MLOAD DUP2 PUSH1 0x3 ADD SSTORE PUSH1 0x80 DUP3 ADD MLOAD DUP2 PUSH1 0x4 ADD PUSH1 0x0 DUP3 ADD MLOAD DUP2 PUSH1 0x0 ADD SSTORE PUSH1 0x20 DUP3 ADD MLOAD DUP2 PUSH1 0x1 ADD SSTORE POP POP POP POP PUSH1 0x1 SWAP3 POP POP POP SWAP6 SWAP5 POP POP POP POP POP JUMP JUMPDEST PUSH1 0x0 DUP1 SLOAD SWAP1 PUSH2 0x100 EXP SWAP1 DIV PUSH20 0xFFFFFFFFFFFFFFFFFFFFFFFFFFFFFFFFFFFFFFFF AND DUP2 JUMP JUMPDEST PUSH1 0x0 DUP1 REVERT JUMPDEST PUSH1 0x0 DUP1 REVERT JUMPDEST PUSH1 0x0 DUP2 SWAP1 POP SWAP2 SWAP1 POP JUMP JUMPDEST PUSH2 0x484 DUP2 PUSH2 0x471 JUMP JUMPDEST DUP2 EQ PUSH2 0x48F JUMPI PUSH1 0x0 DUP1 REVERT JUMPDEST POP JUMP JUMPDEST PUSH1 0x0 DUP2 CALLDATALOAD SWAP1 POP PUSH2 0x4A1 DUP2 PUSH2 0x47B JUMP JUMPDEST SWAP3 SWAP2 POP POP JUMP JUMPDEST PUSH1 0x0 PUSH1 0x20 DUP3 DUP5 SUB SLT ISZERO PUSH2 0x4BD JUMPI PUSH2 0x4BC PUSH2 0x467 JUMP JUMPDEST JUMPDEST PUSH1 0x0 PUSH2 0x4CB DUP5 DUP3 DUP6 ADD PUSH2 0x492 JUMP JUMPDEST SWAP2 POP POP SWAP3 SWAP2 POP POP JUMP JUMPDEST PUSH1 0x0 DUP2 MLOAD SWAP1 POP SWAP2 SWAP1 POP JUMP JUMPDEST PUSH1 0x0 DUP3 DUP3 MSTORE PUSH1 0x20 DUP3 ADD SWAP1 POP SWAP3 SWAP2 POP POP JUMP JUMPDEST PUSH1 0x0 JUMPDEST DUP4 DUP2 LT ISZERO PUSH2 0x50E JUMPI DUP1 DUP3 ADD MLOAD DUP2 DUP5 ADD MSTORE PUSH1 0x20 DUP2 ADD SWAP1 POP PUSH2 0x4F3 JUMP JUMPDEST PUSH1 0x0 DUP5 DUP5 ADD MSTORE POP POP POP POP JUMP JUMPDEST PUSH1 0x0 PUSH1 0x1F NOT PUSH1 0x1F DUP4 ADD AND SWAP1 POP SWAP2 SWAP1 POP JUMP JUMPDEST PUSH1 0x0 PUSH2 0x536 DUP3 PUSH2 0x4D4 JUMP JUMPDEST PUSH2 0x540 DUP2 DUP6 PUSH2 0x4DF JUMP JUMPDEST SWAP4 POP PUSH2 0x550 DUP2 DUP6 PUSH1 0x20 DUP7 ADD PUSH2 0x4F0 JUMP JUMPDEST PUSH2 0x559 DUP2 PUSH2 0x51A JUMP JUMPDEST DUP5 ADD SWAP2 POP POP SWAP3 SWAP2 POP POP JUMP JUMPDEST PUSH2 0x56D DUP2 PUSH2 0x471 JUMP JUMPDEST DUP3 MSTORE POP POP JUMP JUMPDEST PUSH2 0x57C DUP2 PUSH2 0x471 JUMP JUMPDEST DUP3 MSTORE POP POP JUMP JUMPDEST PUSH1 0x40 DUP3 ADD PUSH1 0x0 DUP3 ADD MLOAD PUSH2 0x598 PUSH1 0x0 DUP6 ADD DUP3 PUSH2 0x573 JUMP JUMPDEST POP PUSH1 0x20 DUP3 ADD MLOAD PUSH2 0x5AB PUSH1 0x20 DUP6 ADD DUP3 PUSH2 0x573 JUMP JUMPDEST POP POP POP POP JUMP JUMPDEST PUSH1 0x0 PUSH1 0xC0 DUP3 ADD SWAP1 POP DUP2 DUP2 SUB PUSH1 0x0 DUP4 ADD MSTORE PUSH2 0x5CB DUP2 DUP9 PUSH2 0x52B JUMP JUMPDEST SWAP1 POP DUP2 DUP2 SUB PUSH1 0x20 DUP4 ADD MSTORE PUSH2 0x5DF DUP2 DUP8 PUSH2 0x52B JUMP JUMPDEST SWAP1 POP PUSH2 0x5EE PUSH1 0x40 DUP4 ADD DUP7 PUSH2 0x564 JUMP JUMPDEST PUSH2 0x5FB PUSH1 0x60 DUP4 ADD DUP6 PUSH2 0x564 JUMP JUMPDEST PUSH2 0x608 PUSH1 0x80 DUP4 ADD DUP5 PUSH2 0x582 JUMP JUMPDEST SWAP7 SWAP6 POP POP POP POP POP POP JUMP JUMPDEST PUSH1 0x0 DUP1 REVERT JUMPDEST PUSH1 0x0 DUP1 REVERT JUMPDEST PUSH1 0x0 DUP1 REVERT JUMPDEST PUSH1 0x0 DUP1 DUP4 PUSH1 0x1F DUP5 ADD SLT PUSH2 0x637 JUMPI PUSH2 0x636 PUSH2 0x612 JUMP JUMPDEST JUMPDEST DUP3 CALLDATALOAD SWAP1 POP PUSH8 0xFFFFFFFFFFFFFFFF DUP2 GT ISZERO PUSH2 0x654 JUMPI PUSH2 0x653 PUSH2 0x617 JUMP JUMPDEST JUMPDEST PUSH1 0x20 DUP4 ADD SWAP2 POP DUP4 PUSH1 0x1 DUP3 MUL DUP4 ADD GT ISZERO PUSH2 0x670 JUMPI PUSH2 0x66F PUSH2 0x61C JUMP JUMPDEST JUMPDEST SWAP3 POP SWAP3 SWAP1 POP JUMP JUMPDEST PUSH1 0x0 DUP1 PUSH1 0x0 DUP1 PUSH1 0x0 PUSH1 0x60 DUP7 DUP9 SUB SLT ISZERO PUSH2 0x693 JUMPI PUSH2 0x692 PUSH2 0x467 JUMP JUMPDEST JUMPDEST PUSH1 0x0 DUP7 ADD CALLDATALOAD PUSH8 0xFFFFFFFFFFFFFFFF DUP2 GT ISZERO PUSH2 0x6B1 JUMPI PUSH2 0x6B0 PUSH2 0x46C JUMP JUMPDEST JUMPDEST PUSH2 0x6BD DUP9 DUP3 DUP10 ADD PUSH2 0x621 JUMP JUMPDEST SWAP6 POP SWAP6 POP POP PUSH1 0x20 DUP7 ADD CALLDATALOAD PUSH8 0xFFFFFFFFFFFFFFFF DUP2 GT ISZERO PUSH2 0x6E0 JUMPI PUSH2 0x6DF PUSH2 0x46C JUMP JUMPDEST JUMPDEST PUSH2 0x6EC DUP9 DUP3 DUP10 ADD PUSH2 0x621 JUMP JUMPDEST SWAP4 POP SWAP4 POP POP PUSH1 0x40 PUSH2 0x6FF DUP9 DUP3 DUP10 ADD PUSH2 0x492 JUMP JUMPDEST SWAP2 POP POP SWAP3 SWAP6 POP SWAP3 SWAP6 SWAP1 SWAP4 POP JUMP JUMPDEST PUSH1 0x0 DUP2 ISZERO ISZERO SWAP1 POP SWAP2 SWAP1 POP JUMP JUMPDEST PUSH2 0x721 DUP2 PUSH2 0x70C JUMP JUMPDEST DUP3 MSTORE POP POP JUMP JUMPDEST PUSH1 0x0 PUSH1 0x20 DUP3 ADD SWAP1 POP PUSH2 0x73C PUSH1 0x0 DUP4 ADD DUP5 PUSH2 0x718 JUMP JUMPDEST SWAP3 SWAP2 POP POP JUMP JUMPDEST PUSH1 0x0 PUSH20 0xFFFFFFFFFFFFFFFFFFFFFFFFFFFFFFFFFFFFFFFF DUP3 AND SWAP1 POP SWAP2 SWAP1 POP JUMP JUMPDEST PUSH1 0x0 PUSH2 0x76D DUP3 PUSH2 0x742 JUMP JUMPDEST SWAP1 POP SWAP2 SWAP1 POP JUMP JUMPDEST PUSH2 0x77D DUP2 PUSH2 0x762 JUMP JUMPDEST DUP3 MSTORE POP POP JUMP JUMPDEST PUSH1 0x0 PUSH1 0x20 DUP3 ADD SWAP1 POP PUSH2 0x798 PUSH1 0x0 DUP4 ADD DUP5 PUSH2 0x774 JUMP JUMPDEST SWAP3 SWAP2 POP POP JUMP JUMPDEST PUSH32 0x4E487B7100000000000000000000000000000000000000000000000000000000 PUSH1 0x0 MSTORE PUSH1 0x22 PUSH1 0x4 MSTORE PUSH1 0x24 PUSH1 0x0 REVERT JUMPDEST PUSH1 0x0 PUSH1 0x2 DUP3 DIV SWAP1 POP PUSH1 0x1 DUP3 AND DUP1 PUSH2 0x7E5 JUMPI PUSH1 0x7F DUP3 AND SWAP2 POP JUMPDEST PUSH1 0x20 DUP3 LT DUP2 SUB PUSH2 0x7F8 JUMPI PUSH2 0x7F7 PUSH2 0x79E JUMP JUMPDEST JUMPDEST POP SWAP2 SWAP1 POP JUMP JUMPDEST PUSH32 0x4E6F74204F776E65720000000000000000000000000000000000000000000000 PUSH1 0x0 DUP3 ADD MSTORE POP JUMP JUMPDEST PUSH1 0x0 PUSH2 0x834 PUSH1 0x9 DUP4 PUSH2 0x4DF JUMP JUMPDEST SWAP2 POP PUSH2 0x83F DUP3 PUSH2 0x7FE JUMP JUMPDEST PUSH1 0x20 DUP3 ADD SWAP1 POP SWAP2 SWAP1 POP JUMP JUMPDEST PUSH1 0x0 PUSH1 0x20 DUP3 ADD SWAP1 POP DUP2 DUP2 SUB PUSH1 0x0 DUP4 ADD MSTORE PUSH2 0x863 DUP2 PUSH2 0x827 JUMP JUMPDEST SWAP1 POP SWAP2 SWAP1 POP JUMP JUMPDEST PUSH32 0x4E487B7100000000000000000000000000000000000000000000000000000000 PUSH1 0x0 MSTORE PUSH1 0x11 PUSH1 0x4 MSTORE PUSH1 0x24 PUSH1 0x0 REVERT JUMPDEST PUSH1 0x0 PUSH2 0x8A4 DUP3 PUSH2 0x471 JUMP JUMPDEST SWAP2 POP PUSH2 0x8AF DUP4 PUSH2 0x471 JUMP JUMPDEST SWAP3 POP DUP3 DUP3 ADD SWAP1 POP DUP1 DUP3 GT ISZERO PUSH2 0x8C7 JUMPI PUSH2 0x8C6 PUSH2 0x86A JUMP JUMPDEST JUMPDEST SWAP3 SWAP2 POP POP JUMP JUMPDEST PUSH32 0x4E487B7100000000000000000000000000000000000000000000000000000000 PUSH1 0x0 MSTORE PUSH1 0x41 PUSH1 0x4 MSTORE PUSH1 0x24 PUSH1 0x0 REVERT JUMPDEST PUSH1 0x0 DUP2 SWAP1 POP DUP2 PUSH1 0x0 MSTORE PUSH1 0x20 PUSH1 0x0 KECCAK256 SWAP1 POP SWAP2 SWAP1 POP JUMP JUMPDEST PUSH1 0x0 PUSH1 0x20 PUSH1 0x1F DUP4 ADD DIV SWAP1 POP SWAP2 SWAP1 POP JUMP JUMPDEST PUSH1 0x0 DUP3 DUP3 SHL SWAP1 POP SWAP3 SWAP2 POP POP JUMP JUMPDEST PUSH1 0x0 PUSH1 0x8 DUP4 MUL PUSH2 0x95E PUSH32 0xFFFFFFFFFFFFFFFFFFFFFFFFFFFFFFFFFFFFFFFFFFFFFFFFFFFFFFFFFFFFFFFF DUP3 PUSH2 0x921 JUMP JUMPDEST PUSH2 0x968 DUP7 DUP4 PUSH2 0x921 JUMP JUMPDEST SWAP6 POP DUP1 NOT DUP5 AND SWAP4 POP DUP1 DUP7 AND DUP5 OR SWAP3 POP POP POP SWAP4 SWAP3 POP POP POP JUMP JUMPDEST PUSH1 0x0 DUP2 SWAP1 POP SWAP2 SWAP1 POP JUMP JUMPDEST PUSH1 0x0 PUSH2 0x9A5 PUSH2 0x9A0 PUSH2 0x99B DUP5 PUSH2 0x471 JUMP JUMPDEST PUSH2 0x980 JUMP JUMPDEST PUSH2 0x471 JUMP JUMPDEST SWAP1 POP SWAP2 SWAP1 POP JUMP JUMPDEST PUSH1 0x0 DUP2 SWAP1 POP SWAP2 SWAP1 POP JUMP JUMPDEST PUSH2 0x9BF DUP4 PUSH2 0x98A JUMP JUMPDEST PUSH2 0x9D3 PUSH2 0x9CB DUP3 PUSH2 0x9AC JUMP JUMPDEST DUP5 DUP5 SLOAD PUSH2 0x92E JUMP JUMPDEST DUP3 SSTORE POP POP POP POP JUMP JUMPDEST PUSH1 0x0 SWAP1 JUMP JUMPDEST PUSH2 0x9E8 PUSH2 0x9DB JUMP JUMPDEST PUSH2 0x9F3 DUP2 DUP5 DUP5 PUSH2 0x9B6 JUMP JUMPDEST POP POP POP JUMP JUMPDEST JUMPDEST DUP2 DUP2 LT ISZERO PUSH2 0xA17 JUMPI PUSH2 0xA0C PUSH1 0x0 DUP3 PUSH2 0x9E0 JUMP JUMPDEST PUSH1 0x1 DUP2 ADD SWAP1 POP PUSH2 0x9F9 JUMP JUMPDEST POP POP JUMP JUMPDEST PUSH1 0x1F DUP3 GT ISZERO PUSH2 0xA5C JUMPI PUSH2 0xA2D DUP2 PUSH2 0x8FC JUMP JUMPDEST PUSH2 0xA36 DUP5 PUSH2 0x911 JUMP JUMPDEST DUP2 ADD PUSH1 0x20 DUP6 LT ISZERO PUSH2 0xA45 JUMPI DUP2 SWAP1 POP JUMPDEST PUSH2 0xA59 PUSH2 0xA51 DUP6 PUSH2 0x911 JUMP JUMPDEST DUP4 ADD DUP3 PUSH2 0x9F8 JUMP JUMPDEST POP POP JUMPDEST POP POP POP JUMP JUMPDEST PUSH1 0x0 DUP3 DUP3 SHR SWAP1 POP SWAP3 SWAP2 POP POP JUMP JUMPDEST PUSH1 0x0 PUSH2 0xA7F PUSH1 0x0 NOT DUP5 PUSH1 0x8 MUL PUSH2 0xA61 JUMP JUMPDEST NOT DUP1 DUP4 AND SWAP2 POP POP SWAP3 SWAP2 POP POP JUMP JUMPDEST PUSH1 0x0 PUSH2 0xA98 DUP4 DUP4 PUSH2 0xA6E JUMP JUMPDEST SWAP2 POP DUP3 PUSH1 0x2 MUL DUP3 OR SWAP1 POP SWAP3 SWAP2 POP POP JUMP JUMPDEST PUSH2 0xAB1 DUP3 PUSH2 0x4D4 JUMP JUMPDEST PUSH8 0xFFFFFFFFFFFFFFFF DUP2 GT ISZERO PUSH2 0xACA JUMPI PUSH2 0xAC9 PUSH2 0x8CD JUMP JUMPDEST JUMPDEST PUSH2 0xAD4 DUP3 SLOAD PUSH2 0x7CD JUMP JUMPDEST PUSH2 0xADF DUP3 DUP3 DUP6 PUSH2 0xA1B JUMP JUMPDEST PUSH1 0x0 PUSH1 0x20 SWAP1 POP PUSH1 0x1F DUP4 GT PUSH1 0x1 DUP2 EQ PUSH2 0xB12 JUMPI PUSH1 0x0 DUP5 ISZERO PUSH2 0xB00 JUMPI DUP3 DUP8 ADD MLOAD SWAP1 POP JUMPDEST PUSH2 0xB0A DUP6 DUP3 PUSH2 0xA8C JUMP JUMPDEST DUP7 SSTORE POP PUSH2 0xB72 JUMP JUMPDEST PUSH1 0x1F NOT DUP5 AND PUSH2 0xB20 DUP7 PUSH2 0x8FC JUMP JUMPDEST PUSH1 0x0 JUMPDEST DUP3 DUP2 LT ISZERO PUSH2 0xB48 JUMPI DUP5 DUP10 ADD MLOAD DUP3 SSTORE PUSH1 0x1 DUP3 ADD SWAP2 POP PUSH1 0x20 DUP6 ADD SWAP5 POP PUSH1 0x20 DUP2 ADD SWAP1 POP PUSH2 0xB23 JUMP JUMPDEST DUP7 DUP4 LT ISZERO PUSH2 0xB65 JUMPI DUP5 DUP10 ADD MLOAD PUSH2 0xB61 PUSH1 0x1F DUP10 AND DUP3 PUSH2 0xA6E JUMP JUMPDEST DUP4 SSTORE POP JUMPDEST PUSH1 0x1 PUSH1 0x2 DUP9 MUL ADD DUP9 SSTORE POP POP POP JUMPDEST POP POP POP POP POP POP JUMP INVALID LOG2 PUSH5 0x6970667358 0x22 SLT KECCAK256 PUSH16 0xB0C3A745998B630CAD417F6CA44DA267 0xDB CALLDATACOPY DUP15 PUSH19 0xE754D576C906D6929AEC4E64736F6C63430008 GT STOP CALLER "
				},
				"gasEstimates": {
					"creation": {
						"codeDepositCost": "598400",
						"executionCost": "632",
						"totalCost": "599032"
					},
					"external": {
						"admin()": "2533",
						"allMatch(uint256)": "infinite",
						"instantiateMatch(string,string,uint256)": "infinite"
					}
				},
				"methodIdentifiers": {
					"admin()": "f851a440",
					"allMatch(uint256)": "b2edb39f",
					"instantiateMatch(string,string,uint256)": "bc9e6e2c"
				}
			},
			"storageLayout": {
				"storage": [
					{
						"astId": 3,
						"contract": "contracts/betting.sol:DistanceFiBET",
						"label": "admin",
						"offset": 0,
						"slot": "0",
						"type": "t_address"
					},
					{
						"astId": 24,
						"contract": "contracts/betting.sol:DistanceFiBET",
						"label": "allMatch",
						"offset": 0,
						"slot": "1",
						"type": "t_array(t_struct(Match)20_storage)dyn_storage"
					}
				],
				"types": {
					"t_address": {
						"encoding": "inplace",
						"label": "address",
						"numberOfBytes": "20"
					},
					"t_array(t_struct(Match)20_storage)dyn_storage": {
						"base": "t_struct(Match)20_storage",
						"encoding": "dynamic_array",
						"label": "struct DistanceFiBET.Match[]",
						"numberOfBytes": "32"
					},
					"t_string_storage": {
						"encoding": "bytes",
						"label": "string",
						"numberOfBytes": "32"
					},
					"t_struct(Match)20_storage": {
						"encoding": "inplace",
						"label": "struct DistanceFiBET.Match",
						"members": [
							{
								"astId": 10,
								"contract": "contracts/betting.sol:DistanceFiBET",
								"label": "HomeTeam",
								"offset": 0,
								"slot": "0",
								"type": "t_string_storage"
							},
							{
								"astId": 12,
								"contract": "contracts/betting.sol:DistanceFiBET",
								"label": "AwayTeam",
								"offset": 0,
								"slot": "1",
								"type": "t_string_storage"
							},
							{
								"astId": 14,
								"contract": "contracts/betting.sol:DistanceFiBET",
								"label": "startTime",
								"offset": 0,
								"slot": "2",
								"type": "t_uint256"
							},
							{
								"astId": 16,
								"contract": "contracts/betting.sol:DistanceFiBET",
								"label": "endTime",
								"offset": 0,
								"slot": "3",
								"type": "t_uint256"
							},
							{
								"astId": 19,
								"contract": "contracts/betting.sol:DistanceFiBET",
								"label": "results",
								"offset": 0,
								"slot": "4",
								"type": "t_struct(Results)8_storage"
							}
						],
						"numberOfBytes": "192"
					},
					"t_struct(Results)8_storage": {
						"encoding": "inplace",
						"label": "struct DistanceFiBET.Results",
						"members": [
							{
								"astId": 5,
								"contract": "contracts/betting.sol:DistanceFiBET",
								"label": "Home_score",
								"offset": 0,
								"slot": "0",
								"type": "t_uint256"
							},
							{
								"astId": 7,
								"contract": "contracts/betting.sol:DistanceFiBET",
								"label": "Away_score",
								"offset": 0,
								"slot": "1",
								"type": "t_uint256"
							}
						],
						"numberOfBytes": "64"
					},
					"t_uint256": {
						"encoding": "inplace",
						"label": "uint256",
						"numberOfBytes": "32"
					}
				}
			},
			"userdoc": {
				"kind": "user",
				"methods": {},
				"version": 1
			}
		}
	}
}