{
	"contracts/distantauction.sol": {
		"DistantFiAuction": {
			"abi": [
				{
					"inputs": [
						{
							"internalType": "address",
							"name": "_collectionAddress",
							"type": "address"
						},
						{
							"internalType": "uint256",
							"name": "_tokenId",
							"type": "uint256"
						},
						{
							"internalType": "uint256",
							"name": "_duration",
							"type": "uint256"
						},
						{
							"internalType": "uint256",
							"name": "curPrice",
							"type": "uint256"
						},
						{
							"internalType": "address",
							"name": "_highestBidder",
							"type": "address"
						}
					],
					"name": "Auction",
					"outputs": [],
					"stateMutability": "nonpayable",
					"type": "function"
				},
				{
					"inputs": [
						{
							"internalType": "uint256",
							"name": "",
							"type": "uint256"
						}
					],
					"name": "AuctionedNFTs",
					"outputs": [
						{
							"internalType": "address",
							"name": "seller",
							"type": "address"
						},
						{
							"internalType": "address",
							"name": "nftCollectionAddress",
							"type": "address"
						},
						{
							"internalType": "uint256",
							"name": "tokenId",
							"type": "uint256"
						},
						{
							"internalType": "uint256",
							"name": "startTime",
							"type": "uint256"
						},
						{
							"internalType": "uint256",
							"name": "Duration",
							"type": "uint256"
						},
						{
							"internalType": "uint256",
							"name": "Currentprice",
							"type": "uint256"
						},
						{
							"internalType": "address",
							"name": "highestBidder",
							"type": "address"
						}
					],
					"stateMutability": "view",
					"type": "function"
				},
				{
					"inputs": [
						{
							"internalType": "address",
							"name": "_collectionAddress",
							"type": "address"
						},
						{
							"internalType": "uint256",
							"name": "_tokenId",
							"type": "uint256"
						},
						{
							"internalType": "uint256",
							"name": "_auctionId",
							"type": "uint256"
						}
					],
					"name": "EndAuction",
					"outputs": [],
					"stateMutability": "nonpayable",
					"type": "function"
				},
				{
					"inputs": [
						{
							"internalType": "uint256",
							"name": "_bidAmout",
							"type": "uint256"
						},
						{
							"internalType": "uint256",
							"name": "_auctionId",
							"type": "uint256"
						}
					],
					"name": "PlaceBid",
					"outputs": [],
					"stateMutability": "nonpayable",
					"type": "function"
				},
				{
					"inputs": [
						{
							"internalType": "uint256",
							"name": "",
							"type": "uint256"
						},
						{
							"internalType": "uint256",
							"name": "",
							"type": "uint256"
						}
					],
					"name": "bidders",
					"outputs": [
						{
							"internalType": "address",
							"name": "bidder",
							"type": "address"
						},
						{
							"internalType": "uint256",
							"name": "price",
							"type": "uint256"
						}
					],
					"stateMutability": "view",
					"type": "function"
				},
				{
					"inputs": [
						{
							"internalType": "uint256",
							"name": "",
							"type": "uint256"
						}
					],
					"name": "biddersInfo",
					"outputs": [
						{
							"internalType": "address",
							"name": "bidder",
							"type": "address"
						},
						{
							"internalType": "uint256",
							"name": "price",
							"type": "uint256"
						}
					],
					"stateMutability": "view",
					"type": "function"
				}
			],
			"devdoc": {
				"kind": "dev",
				"methods": {},
				"version": 1
			},
			"evm": {
				"assembly": "    /* \"contracts/distantauction.sol\":1029:3005  contract DistantFiAuction {... */\n  mstore(0x40, 0x80)\n  callvalue\n  dup1\n  iszero\n  tag_1\n  jumpi\n  0x00\n  dup1\n  revert\ntag_1:\n  pop\n  dataSize(sub_0)\n  dup1\n  dataOffset(sub_0)\n  0x00\n  codecopy\n  0x00\n  return\nstop\n\nsub_0: assembly {\n        /* \"contracts/distantauction.sol\":1029:3005  contract DistantFiAuction {... */\n      mstore(0x40, 0x80)\n      callvalue\n      dup1\n      iszero\n      tag_1\n      jumpi\n      0x00\n      dup1\n      revert\n    tag_1:\n      pop\n      jumpi(tag_2, lt(calldatasize, 0x04))\n      shr(0xe0, calldataload(0x00))\n      dup1\n      0x036f40a3\n      eq\n      tag_3\n      jumpi\n      dup1\n      0x3e9add40\n      eq\n      tag_4\n      jumpi\n      dup1\n      0x95873d62\n      eq\n      tag_5\n      jumpi\n      dup1\n      0xd1c11205\n      eq\n      tag_6\n      jumpi\n      dup1\n      0xe99da2a5\n      eq\n      tag_7\n      jumpi\n      dup1\n      0xee7a4197\n      eq\n      tag_8\n      jumpi\n    tag_2:\n      0x00\n      dup1\n      revert\n        /* \"contracts/distantauction.sol\":1539:1565  bids [] public biddersInfo */\n    tag_3:\n      tag_9\n      0x04\n      dup1\n      calldatasize\n      sub\n      dup2\n      add\n      swap1\n      tag_10\n      swap2\n      swap1\n      tag_11\n      jump\t// in\n    tag_10:\n      tag_12\n      jump\t// in\n    tag_9:\n      mload(0x40)\n      tag_13\n      swap3\n      swap2\n      swap1\n      tag_14\n      jump\t// in\n    tag_13:\n      mload(0x40)\n      dup1\n      swap2\n      sub\n      swap1\n      return\n        /* \"contracts/distantauction.sol\":1748:2339  function Auction (... */\n    tag_4:\n      tag_15\n      0x04\n      dup1\n      calldatasize\n      sub\n      dup2\n      add\n      swap1\n      tag_16\n      swap2\n      swap1\n      tag_17\n      jump\t// in\n    tag_16:\n      tag_18\n      jump\t// in\n    tag_15:\n      stop\n        /* \"contracts/distantauction.sol\":1572:1624  mapping(uint => auctionDetails) public AuctionedNFTs */\n    tag_5:\n      tag_19\n      0x04\n      dup1\n      calldatasize\n      sub\n      dup2\n      add\n      swap1\n      tag_20\n      swap2\n      swap1\n      tag_11\n      jump\t// in\n    tag_20:\n      tag_21\n      jump\t// in\n    tag_19:\n      mload(0x40)\n      tag_22\n      swap8\n      swap7\n      swap6\n      swap5\n      swap4\n      swap3\n      swap2\n      swap1\n      tag_23\n      jump\t// in\n    tag_22:\n      mload(0x40)\n      dup1\n      swap2\n      sub\n      swap1\n      return\n        /* \"contracts/distantauction.sol\":1700:1739  mapping(uint => bids[] ) public bidders */\n    tag_6:\n      tag_24\n      0x04\n      dup1\n      calldatasize\n      sub\n      dup2\n      add\n      swap1\n      tag_25\n      swap2\n      swap1\n      tag_26\n      jump\t// in\n    tag_25:\n      tag_27\n      jump\t// in\n    tag_24:\n      mload(0x40)\n      tag_28\n      swap3\n      swap2\n      swap1\n      tag_14\n      jump\t// in\n    tag_28:\n      mload(0x40)\n      dup1\n      swap2\n      sub\n      swap1\n      return\n        /* \"contracts/distantauction.sol\":2639:3002  function EndAuction (... */\n    tag_7:\n      tag_29\n      0x04\n      dup1\n      calldatasize\n      sub\n      dup2\n      add\n      swap1\n      tag_30\n      swap2\n      swap1\n      tag_31\n      jump\t// in\n    tag_30:\n      tag_32\n      jump\t// in\n    tag_29:\n      stop\n        /* \"contracts/distantauction.sol\":2345:2631  function PlaceBid (... */\n    tag_8:\n      tag_33\n      0x04\n      dup1\n      calldatasize\n      sub\n      dup2\n      add\n      swap1\n      tag_34\n      swap2\n      swap1\n      tag_26\n      jump\t// in\n    tag_34:\n      tag_35\n      jump\t// in\n    tag_33:\n      stop\n        /* \"contracts/distantauction.sol\":1539:1565  bids [] public biddersInfo */\n    tag_12:\n      0x00\n      dup2\n      dup2\n      sload\n      dup2\n      lt\n      tag_36\n      jumpi\n      0x00\n      dup1\n      revert\n    tag_36:\n      swap1\n      0x00\n      mstore\n      keccak256(0x00, 0x20)\n      swap1\n      0x02\n      mul\n      add\n      0x00\n      swap2\n      pop\n      swap1\n      pop\n      dup1\n      0x00\n      add\n      0x00\n      swap1\n      sload\n      swap1\n      0x0100\n      exp\n      swap1\n      div\n      0xffffffffffffffffffffffffffffffffffffffff\n      and\n      swap1\n      dup1\n      0x01\n      add\n      sload\n      swap1\n      pop\n      dup3\n      jump\t// out\n        /* \"contracts/distantauction.sol\":1748:2339  function Auction (... */\n    tag_18:\n        /* \"contracts/distantauction.sol\":1972:1989  uint realduration */\n      0x00\n        /* \"contracts/distantauction.sol\":2004:2006  60 */\n      0x3c\n        /* \"contracts/distantauction.sol\":1992:2001  _duration */\n      dup5\n        /* \"contracts/distantauction.sol\":1992:2006  _duration * 60 */\n      tag_39\n      swap2\n      swap1\n      tag_40\n      jump\t// in\n    tag_39:\n        /* \"contracts/distantauction.sol\":1972:2006  uint realduration = _duration * 60 */\n      swap1\n      pop\n        /* \"contracts/distantauction.sol\":2017:2029  uint endTime */\n      0x00\n        /* \"contracts/distantauction.sol\":2050:2062  realduration */\n      dup2\n        /* \"contracts/distantauction.sol\":2032:2047  block.timestamp */\n      timestamp\n        /* \"contracts/distantauction.sol\":2032:2062  block.timestamp + realduration */\n      tag_41\n      swap2\n      swap1\n      tag_42\n      jump\t// in\n    tag_41:\n        /* \"contracts/distantauction.sol\":2017:2062  uint endTime = block.timestamp + realduration */\n      swap1\n      pop\n        /* \"contracts/distantauction.sol\":2136:2274  auctionDetails(msg.sender, _collectionAddress,... */\n      mload(0x40)\n      dup1\n      0xe0\n      add\n      0x40\n      mstore\n      dup1\n        /* \"contracts/distantauction.sol\":2151:2161  msg.sender */\n      caller\n        /* \"contracts/distantauction.sol\":2136:2274  auctionDetails(msg.sender, _collectionAddress,... */\n      0xffffffffffffffffffffffffffffffffffffffff\n      and\n      dup2\n      mstore\n      0x20\n      add\n        /* \"contracts/distantauction.sol\":2163:2181  _collectionAddress */\n      dup9\n        /* \"contracts/distantauction.sol\":2136:2274  auctionDetails(msg.sender, _collectionAddress,... */\n      0xffffffffffffffffffffffffffffffffffffffff\n      and\n      dup2\n      mstore\n      0x20\n      add\n        /* \"contracts/distantauction.sol\":2213:2221  _tokenId */\n      dup8\n        /* \"contracts/distantauction.sol\":2136:2274  auctionDetails(msg.sender, _collectionAddress,... */\n      dup2\n      mstore\n      0x20\n      add\n        /* \"contracts/distantauction.sol\":2223:2238  block.timestamp */\n      timestamp\n        /* \"contracts/distantauction.sol\":2136:2274  auctionDetails(msg.sender, _collectionAddress,... */\n      dup2\n      mstore\n      0x20\n      add\n        /* \"contracts/distantauction.sol\":2240:2247  endTime */\n      dup3\n        /* \"contracts/distantauction.sol\":2136:2274  auctionDetails(msg.sender, _collectionAddress,... */\n      dup2\n      mstore\n      0x20\n      add\n        /* \"contracts/distantauction.sol\":2249:2257  curPrice */\n      dup6\n        /* \"contracts/distantauction.sol\":2136:2274  auctionDetails(msg.sender, _collectionAddress,... */\n      dup2\n      mstore\n      0x20\n      add\n        /* \"contracts/distantauction.sol\":2259:2273  _highestBidder */\n      dup5\n        /* \"contracts/distantauction.sol\":2136:2274  auctionDetails(msg.sender, _collectionAddress,... */\n      0xffffffffffffffffffffffffffffffffffffffff\n      and\n      dup2\n      mstore\n      pop\n        /* \"contracts/distantauction.sol\":2073:2086  AuctionedNFTs */\n      0x01\n        /* \"contracts/distantauction.sol\":2073:2103  AuctionedNFTs[block.timestamp] */\n      0x00\n        /* \"contracts/distantauction.sol\":2087:2102  block.timestamp */\n      timestamp\n        /* \"contracts/distantauction.sol\":2073:2103  AuctionedNFTs[block.timestamp] */\n      dup2\n      mstore\n      0x20\n      add\n      swap1\n      dup2\n      mstore\n      0x20\n      add\n      0x00\n      keccak256\n        /* \"contracts/distantauction.sol\":2073:2274  AuctionedNFTs[block.timestamp] = ... */\n      0x00\n      dup3\n      add\n      mload\n      dup2\n      0x00\n      add\n      exp(0x0100, 0x00)\n      dup2\n      sload\n      dup2\n      0xffffffffffffffffffffffffffffffffffffffff\n      mul\n      not\n      and\n      swap1\n      dup4\n      0xffffffffffffffffffffffffffffffffffffffff\n      and\n      mul\n      or\n      swap1\n      sstore\n      pop\n      0x20\n      dup3\n      add\n      mload\n      dup2\n      0x01\n      add\n      exp(0x0100, 0x00)\n      dup2\n      sload\n      dup2\n      0xffffffffffffffffffffffffffffffffffffffff\n      mul\n      not\n      and\n      swap1\n      dup4\n      0xffffffffffffffffffffffffffffffffffffffff\n      and\n      mul\n      or\n      swap1\n      sstore\n      pop\n      0x40\n      dup3\n      add\n      mload\n      dup2\n      0x02\n      add\n      sstore\n      0x60\n      dup3\n      add\n      mload\n      dup2\n      0x03\n      add\n      sstore\n      0x80\n      dup3\n      add\n      mload\n      dup2\n      0x04\n      add\n      sstore\n      0xa0\n      dup3\n      add\n      mload\n      dup2\n      0x05\n      add\n      sstore\n      0xc0\n      dup3\n      add\n      mload\n      dup2\n      0x06\n      add\n      exp(0x0100, 0x00)\n      dup2\n      sload\n      dup2\n      0xffffffffffffffffffffffffffffffffffffffff\n      mul\n      not\n      and\n      swap1\n      dup4\n      0xffffffffffffffffffffffffffffffffffffffff\n      and\n      mul\n      or\n      swap1\n      sstore\n      pop\n      swap1\n      pop\n      pop\n        /* \"contracts/distantauction.sol\":2285:2331  AuctionCheck[_collectionAddress].add(_tokenId) */\n      tag_43\n        /* \"contracts/distantauction.sol\":2322:2330  _tokenId */\n      dup7\n        /* \"contracts/distantauction.sol\":2285:2297  AuctionCheck */\n      0x02\n        /* \"contracts/distantauction.sol\":2285:2317  AuctionCheck[_collectionAddress] */\n      0x00\n        /* \"contracts/distantauction.sol\":2298:2316  _collectionAddress */\n      dup11\n        /* \"contracts/distantauction.sol\":2285:2317  AuctionCheck[_collectionAddress] */\n      0xffffffffffffffffffffffffffffffffffffffff\n      and\n      0xffffffffffffffffffffffffffffffffffffffff\n      and\n      dup2\n      mstore\n      0x20\n      add\n      swap1\n      dup2\n      mstore\n      0x20\n      add\n      0x00\n      keccak256\n        /* \"contracts/distantauction.sol\":2285:2321  AuctionCheck[_collectionAddress].add */\n      tag_44\n      swap1\n        /* \"contracts/distantauction.sol\":2285:2331  AuctionCheck[_collectionAddress].add(_tokenId) */\n      swap2\n      swap1\n      0xffffffff\n      and\n      jump\t// in\n    tag_43:\n      pop\n        /* \"contracts/distantauction.sol\":1961:2339  {... */\n      pop\n      pop\n        /* \"contracts/distantauction.sol\":1748:2339  function Auction (... */\n      pop\n      pop\n      pop\n      pop\n      pop\n      jump\t// out\n        /* \"contracts/distantauction.sol\":1572:1624  mapping(uint => auctionDetails) public AuctionedNFTs */\n    tag_21:\n      mstore(0x20, 0x01)\n      dup1\n      0x00\n      mstore\n      keccak256(0x00, 0x40)\n      0x00\n      swap2\n      pop\n      swap1\n      pop\n      dup1\n      0x00\n      add\n      0x00\n      swap1\n      sload\n      swap1\n      0x0100\n      exp\n      swap1\n      div\n      0xffffffffffffffffffffffffffffffffffffffff\n      and\n      swap1\n      dup1\n      0x01\n      add\n      0x00\n      swap1\n      sload\n      swap1\n      0x0100\n      exp\n      swap1\n      div\n      0xffffffffffffffffffffffffffffffffffffffff\n      and\n      swap1\n      dup1\n      0x02\n      add\n      sload\n      swap1\n      dup1\n      0x03\n      add\n      sload\n      swap1\n      dup1\n      0x04\n      add\n      sload\n      swap1\n      dup1\n      0x05\n      add\n      sload\n      swap1\n      dup1\n      0x06\n      add\n      0x00\n      swap1\n      sload\n      swap1\n      0x0100\n      exp\n      swap1\n      div\n      0xffffffffffffffffffffffffffffffffffffffff\n      and\n      swap1\n      pop\n      dup8\n      jump\t// out\n        /* \"contracts/distantauction.sol\":1700:1739  mapping(uint => bids[] ) public bidders */\n    tag_27:\n      mstore(0x20, 0x03)\n      dup2\n      0x00\n      mstore\n      keccak256(0x00, 0x40)\n      dup2\n      dup2\n      sload\n      dup2\n      lt\n      tag_45\n      jumpi\n      0x00\n      dup1\n      revert\n    tag_45:\n      swap1\n      0x00\n      mstore\n      keccak256(0x00, 0x20)\n      swap1\n      0x02\n      mul\n      add\n      0x00\n      swap2\n      pop\n      swap2\n      pop\n      pop\n      dup1\n      0x00\n      add\n      0x00\n      swap1\n      sload\n      swap1\n      0x0100\n      exp\n      swap1\n      div\n      0xffffffffffffffffffffffffffffffffffffffff\n      and\n      swap1\n      dup1\n      0x01\n      add\n      sload\n      swap1\n      pop\n      dup3\n      jump\t// out\n        /* \"contracts/distantauction.sol\":2639:3002  function EndAuction (... */\n    tag_32:\n        /* \"contracts/distantauction.sol\":2775:2786  IERC721 nft */\n      0x00\n        /* \"contracts/distantauction.sol\":2797:2815  _collectionAddress */\n      dup4\n        /* \"contracts/distantauction.sol\":2775:2816  IERC721 nft = IERC721(_collectionAddress) */\n      swap1\n      pop\n        /* \"contracts/distantauction.sol\":2827:2876  AuctionCheck[_collectionAddress].remove(_tokenId) */\n      tag_48\n        /* \"contracts/distantauction.sol\":2867:2875  _tokenId */\n      dup4\n        /* \"contracts/distantauction.sol\":2827:2839  AuctionCheck */\n      0x02\n        /* \"contracts/distantauction.sol\":2827:2859  AuctionCheck[_collectionAddress] */\n      0x00\n        /* \"contracts/distantauction.sol\":2840:2858  _collectionAddress */\n      dup8\n        /* \"contracts/distantauction.sol\":2827:2859  AuctionCheck[_collectionAddress] */\n      0xffffffffffffffffffffffffffffffffffffffff\n      and\n      0xffffffffffffffffffffffffffffffffffffffff\n      and\n      dup2\n      mstore\n      0x20\n      add\n      swap1\n      dup2\n      mstore\n      0x20\n      add\n      0x00\n      keccak256\n        /* \"contracts/distantauction.sol\":2827:2866  AuctionCheck[_collectionAddress].remove */\n      tag_49\n      swap1\n        /* \"contracts/distantauction.sol\":2827:2876  AuctionCheck[_collectionAddress].remove(_tokenId) */\n      swap2\n      swap1\n      0xffffffff\n      and\n      jump\t// in\n    tag_48:\n      pop\n        /* \"contracts/distantauction.sol\":2888:2891  nft */\n      dup1\n        /* \"contracts/distantauction.sol\":2888:2908  nft.safeTransferFrom */\n      0xffffffffffffffffffffffffffffffffffffffff\n      and\n      0x42842e0e\n        /* \"contracts/distantauction.sol\":2909:2922  AuctionedNFTs */\n      0x01\n        /* \"contracts/distantauction.sol\":2909:2934  AuctionedNFTs[_auctionId] */\n      0x00\n        /* \"contracts/distantauction.sol\":2923:2933  _auctionId */\n      dup6\n        /* \"contracts/distantauction.sol\":2909:2934  AuctionedNFTs[_auctionId] */\n      dup2\n      mstore\n      0x20\n      add\n      swap1\n      dup2\n      mstore\n      0x20\n      add\n      0x00\n      keccak256\n        /* \"contracts/distantauction.sol\":2909:2941  AuctionedNFTs[_auctionId].seller */\n      0x00\n      add\n      0x00\n      swap1\n      sload\n      swap1\n      0x0100\n      exp\n      swap1\n      div\n      0xffffffffffffffffffffffffffffffffffffffff\n      and\n        /* \"contracts/distantauction.sol\":2944:2957  AuctionedNFTs */\n      0x01\n        /* \"contracts/distantauction.sol\":2944:2969  AuctionedNFTs[_auctionId] */\n      0x00\n        /* \"contracts/distantauction.sol\":2958:2968  _auctionId */\n      dup7\n        /* \"contracts/distantauction.sol\":2944:2969  AuctionedNFTs[_auctionId] */\n      dup2\n      mstore\n      0x20\n      add\n      swap1\n      dup2\n      mstore\n      0x20\n      add\n      0x00\n      keccak256\n        /* \"contracts/distantauction.sol\":2944:2983  AuctionedNFTs[_auctionId].highestBidder */\n      0x06\n      add\n      0x00\n      swap1\n      sload\n      swap1\n      0x0100\n      exp\n      swap1\n      div\n      0xffffffffffffffffffffffffffffffffffffffff\n      and\n        /* \"contracts/distantauction.sol\":2985:2993  _tokenId */\n      dup7\n        /* \"contracts/distantauction.sol\":2888:2994  nft.safeTransferFrom(AuctionedNFTs[_auctionId].seller , AuctionedNFTs[_auctionId].highestBidder, _tokenId) */\n      mload(0x40)\n      dup5\n      0xffffffff\n      and\n      0xe0\n      shl\n      dup2\n      mstore\n      0x04\n      add\n      tag_50\n      swap4\n      swap3\n      swap2\n      swap1\n      tag_51\n      jump\t// in\n    tag_50:\n      0x00\n      mload(0x40)\n      dup1\n      dup4\n      sub\n      dup2\n      0x00\n      dup8\n      dup1\n      extcodesize\n      iszero\n      dup1\n      iszero\n      tag_52\n      jumpi\n      0x00\n      dup1\n      revert\n    tag_52:\n      pop\n      gas\n      call\n      iszero\n      dup1\n      iszero\n      tag_54\n      jumpi\n      returndatasize\n      0x00\n      dup1\n      returndatacopy\n      revert(0x00, returndatasize)\n    tag_54:\n      pop\n      pop\n      pop\n      pop\n        /* \"contracts/distantauction.sol\":2764:3002  {... */\n      pop\n        /* \"contracts/distantauction.sol\":2639:3002  function EndAuction (... */\n      pop\n      pop\n      pop\n      jump\t// out\n        /* \"contracts/distantauction.sol\":2345:2631  function PlaceBid (... */\n    tag_35:\n        /* \"contracts/distantauction.sol\":2444:2451  bidders */\n      0x03\n        /* \"contracts/distantauction.sol\":2444:2463  bidders[_auctionId] */\n      0x00\n        /* \"contracts/distantauction.sol\":2452:2462  _auctionId */\n      dup3\n        /* \"contracts/distantauction.sol\":2444:2463  bidders[_auctionId] */\n      dup2\n      mstore\n      0x20\n      add\n      swap1\n      dup2\n      mstore\n      0x20\n      add\n      0x00\n      keccak256\n        /* \"contracts/distantauction.sol\":2469:2497  bids(msg.sender, _bidAmout ) */\n      mload(0x40)\n      dup1\n      0x40\n      add\n      0x40\n      mstore\n      dup1\n        /* \"contracts/distantauction.sol\":2474:2484  msg.sender */\n      caller\n        /* \"contracts/distantauction.sol\":2469:2497  bids(msg.sender, _bidAmout ) */\n      0xffffffffffffffffffffffffffffffffffffffff\n      and\n      dup2\n      mstore\n      0x20\n      add\n        /* \"contracts/distantauction.sol\":2486:2495  _bidAmout */\n      dup5\n        /* \"contracts/distantauction.sol\":2469:2497  bids(msg.sender, _bidAmout ) */\n      dup2\n      mstore\n      pop\n        /* \"contracts/distantauction.sol\":2444:2498  bidders[_auctionId].push(bids(msg.sender, _bidAmout )) */\n      swap1\n      dup1\n      0x01\n      dup2\n      sload\n      add\n      dup1\n      dup3\n      sstore\n      dup1\n      swap2\n      pop\n      pop\n      0x01\n      swap1\n      sub\n      swap1\n      0x00\n      mstore\n      keccak256(0x00, 0x20)\n      swap1\n      0x02\n      mul\n      add\n      0x00\n      swap1\n      swap2\n      swap1\n      swap2\n      swap1\n      swap2\n      pop\n      0x00\n      dup3\n      add\n      mload\n      dup2\n      0x00\n      add\n      exp(0x0100, 0x00)\n      dup2\n      sload\n      dup2\n      0xffffffffffffffffffffffffffffffffffffffff\n      mul\n      not\n      and\n      swap1\n      dup4\n      0xffffffffffffffffffffffffffffffffffffffff\n      and\n      mul\n      or\n      swap1\n      sstore\n      pop\n      0x20\n      dup3\n      add\n      mload\n      dup2\n      0x01\n      add\n      sstore\n      pop\n      pop\n        /* \"contracts/distantauction.sol\":2551:2560  _bidAmout */\n      dup2\n        /* \"contracts/distantauction.sol\":2509:2522  AuctionedNFTs */\n      0x01\n        /* \"contracts/distantauction.sol\":2509:2534  AuctionedNFTs[_auctionId] */\n      0x00\n        /* \"contracts/distantauction.sol\":2523:2533  _auctionId */\n      dup4\n        /* \"contracts/distantauction.sol\":2509:2534  AuctionedNFTs[_auctionId] */\n      dup2\n      mstore\n      0x20\n      add\n      swap1\n      dup2\n      mstore\n      0x20\n      add\n      0x00\n      keccak256\n        /* \"contracts/distantauction.sol\":2509:2547  AuctionedNFTs[_auctionId].Currentprice */\n      0x05\n      add\n        /* \"contracts/distantauction.sol\":2509:2560  AuctionedNFTs[_auctionId].Currentprice  = _bidAmout */\n      dup2\n      swap1\n      sstore\n      pop\n        /* \"contracts/distantauction.sol\":2613:2623  msg.sender */\n      caller\n        /* \"contracts/distantauction.sol\":2571:2584  AuctionedNFTs */\n      0x01\n        /* \"contracts/distantauction.sol\":2571:2596  AuctionedNFTs[_auctionId] */\n      0x00\n        /* \"contracts/distantauction.sol\":2585:2595  _auctionId */\n      dup4\n        /* \"contracts/distantauction.sol\":2571:2596  AuctionedNFTs[_auctionId] */\n      dup2\n      mstore\n      0x20\n      add\n      swap1\n      dup2\n      mstore\n      0x20\n      add\n      0x00\n      keccak256\n        /* \"contracts/distantauction.sol\":2571:2610  AuctionedNFTs[_auctionId].highestBidder */\n      0x06\n      add\n      0x00\n        /* \"contracts/distantauction.sol\":2571:2623  AuctionedNFTs[_auctionId].highestBidder = msg.sender */\n      0x0100\n      exp\n      dup2\n      sload\n      dup2\n      0xffffffffffffffffffffffffffffffffffffffff\n      mul\n      not\n      and\n      swap1\n      dup4\n      0xffffffffffffffffffffffffffffffffffffffff\n      and\n      mul\n      or\n      swap1\n      sstore\n      pop\n        /* \"contracts/distantauction.sol\":2345:2631  function PlaceBid (... */\n      pop\n      pop\n      jump\t// out\n        /* \"@openzeppelin/contracts/utils/structs/EnumerableSet.sol\":10516:10645  function add(UintSet storage set, uint256 value) internal returns (bool) {... */\n    tag_44:\n        /* \"@openzeppelin/contracts/utils/structs/EnumerableSet.sol\":10583:10587  bool */\n      0x00\n        /* \"@openzeppelin/contracts/utils/structs/EnumerableSet.sol\":10606:10638  _add(set._inner, bytes32(value)) */\n      tag_58\n        /* \"@openzeppelin/contracts/utils/structs/EnumerableSet.sol\":10611:10614  set */\n      dup4\n        /* \"@openzeppelin/contracts/utils/structs/EnumerableSet.sol\":10611:10621  set._inner */\n      0x00\n      add\n        /* \"@openzeppelin/contracts/utils/structs/EnumerableSet.sol\":10631:10636  value */\n      dup4\n        /* \"@openzeppelin/contracts/utils/structs/EnumerableSet.sol\":10623:10637  bytes32(value) */\n      0x00\n      shl\n        /* \"@openzeppelin/contracts/utils/structs/EnumerableSet.sol\":10606:10610  _add */\n      tag_59\n        /* \"@openzeppelin/contracts/utils/structs/EnumerableSet.sol\":10606:10638  _add(set._inner, bytes32(value)) */\n      jump\t// in\n    tag_58:\n        /* \"@openzeppelin/contracts/utils/structs/EnumerableSet.sol\":10599:10638  return _add(set._inner, bytes32(value)) */\n      swap1\n      pop\n        /* \"@openzeppelin/contracts/utils/structs/EnumerableSet.sol\":10516:10645  function add(UintSet storage set, uint256 value) internal returns (bool) {... */\n      swap3\n      swap2\n      pop\n      pop\n      jump\t// out\n        /* \"@openzeppelin/contracts/utils/structs/EnumerableSet.sol\":10813:10948  function remove(UintSet storage set, uint256 value) internal returns (bool) {... */\n    tag_49:\n        /* \"@openzeppelin/contracts/utils/structs/EnumerableSet.sol\":10883:10887  bool */\n      0x00\n        /* \"@openzeppelin/contracts/utils/structs/EnumerableSet.sol\":10906:10941  _remove(set._inner, bytes32(value)) */\n      tag_61\n        /* \"@openzeppelin/contracts/utils/structs/EnumerableSet.sol\":10914:10917  set */\n      dup4\n        /* \"@openzeppelin/contracts/utils/structs/EnumerableSet.sol\":10914:10924  set._inner */\n      0x00\n      add\n        /* \"@openzeppelin/contracts/utils/structs/EnumerableSet.sol\":10934:10939  value */\n      dup4\n        /* \"@openzeppelin/contracts/utils/structs/EnumerableSet.sol\":10926:10940  bytes32(value) */\n      0x00\n      shl\n        /* \"@openzeppelin/contracts/utils/structs/EnumerableSet.sol\":10906:10913  _remove */\n      tag_62\n        /* \"@openzeppelin/contracts/utils/structs/EnumerableSet.sol\":10906:10941  _remove(set._inner, bytes32(value)) */\n      jump\t// in\n    tag_61:\n        /* \"@openzeppelin/contracts/utils/structs/EnumerableSet.sol\":10899:10941  return _remove(set._inner, bytes32(value)) */\n      swap1\n      pop\n        /* \"@openzeppelin/contracts/utils/structs/EnumerableSet.sol\":10813:10948  function remove(UintSet storage set, uint256 value) internal returns (bool) {... */\n      swap3\n      swap2\n      pop\n      pop\n      jump\t// out\n        /* \"@openzeppelin/contracts/utils/structs/EnumerableSet.sol\":2113:2517  function _add(Set storage set, bytes32 value) private returns (bool) {... */\n    tag_59:\n        /* \"@openzeppelin/contracts/utils/structs/EnumerableSet.sol\":2176:2180  bool */\n      0x00\n        /* \"@openzeppelin/contracts/utils/structs/EnumerableSet.sol\":2197:2218  _contains(set, value) */\n      tag_64\n        /* \"@openzeppelin/contracts/utils/structs/EnumerableSet.sol\":2207:2210  set */\n      dup4\n        /* \"@openzeppelin/contracts/utils/structs/EnumerableSet.sol\":2212:2217  value */\n      dup4\n        /* \"@openzeppelin/contracts/utils/structs/EnumerableSet.sol\":2197:2206  _contains */\n      tag_65\n        /* \"@openzeppelin/contracts/utils/structs/EnumerableSet.sol\":2197:2218  _contains(set, value) */\n      jump\t// in\n    tag_64:\n        /* \"@openzeppelin/contracts/utils/structs/EnumerableSet.sol\":2192:2511  if (!_contains(set, value)) {... */\n      tag_66\n      jumpi\n        /* \"@openzeppelin/contracts/utils/structs/EnumerableSet.sol\":2234:2237  set */\n      dup3\n        /* \"@openzeppelin/contracts/utils/structs/EnumerableSet.sol\":2234:2245  set._values */\n      0x00\n      add\n        /* \"@openzeppelin/contracts/utils/structs/EnumerableSet.sol\":2251:2256  value */\n      dup3\n        /* \"@openzeppelin/contracts/utils/structs/EnumerableSet.sol\":2234:2257  set._values.push(value) */\n      swap1\n      dup1\n      0x01\n      dup2\n      sload\n      add\n      dup1\n      dup3\n      sstore\n      dup1\n      swap2\n      pop\n      pop\n      0x01\n      swap1\n      sub\n      swap1\n      0x00\n      mstore\n      keccak256(0x00, 0x20)\n      add\n      0x00\n      swap1\n      swap2\n      swap1\n      swap2\n      swap1\n      swap2\n      pop\n      sstore\n        /* \"@openzeppelin/contracts/utils/structs/EnumerableSet.sol\":2414:2417  set */\n      dup3\n        /* \"@openzeppelin/contracts/utils/structs/EnumerableSet.sol\":2414:2425  set._values */\n      0x00\n      add\n        /* \"@openzeppelin/contracts/utils/structs/EnumerableSet.sol\":2414:2432  set._values.length */\n      dup1\n      sload\n      swap1\n      pop\n        /* \"@openzeppelin/contracts/utils/structs/EnumerableSet.sol\":2392:2395  set */\n      dup4\n        /* \"@openzeppelin/contracts/utils/structs/EnumerableSet.sol\":2392:2404  set._indexes */\n      0x01\n      add\n        /* \"@openzeppelin/contracts/utils/structs/EnumerableSet.sol\":2392:2411  set._indexes[value] */\n      0x00\n        /* \"@openzeppelin/contracts/utils/structs/EnumerableSet.sol\":2405:2410  value */\n      dup5\n        /* \"@openzeppelin/contracts/utils/structs/EnumerableSet.sol\":2392:2411  set._indexes[value] */\n      dup2\n      mstore\n      0x20\n      add\n      swap1\n      dup2\n      mstore\n      0x20\n      add\n      0x00\n      keccak256\n        /* \"@openzeppelin/contracts/utils/structs/EnumerableSet.sol\":2392:2432  set._indexes[value] = set._values.length */\n      dup2\n      swap1\n      sstore\n      pop\n        /* \"@openzeppelin/contracts/utils/structs/EnumerableSet.sol\":2453:2457  true */\n      0x01\n        /* \"@openzeppelin/contracts/utils/structs/EnumerableSet.sol\":2446:2457  return true */\n      swap1\n      pop\n      jump(tag_63)\n        /* \"@openzeppelin/contracts/utils/structs/EnumerableSet.sol\":2192:2511  if (!_contains(set, value)) {... */\n    tag_66:\n        /* \"@openzeppelin/contracts/utils/structs/EnumerableSet.sol\":2495:2500  false */\n      0x00\n        /* \"@openzeppelin/contracts/utils/structs/EnumerableSet.sol\":2488:2500  return false */\n      swap1\n      pop\n        /* \"@openzeppelin/contracts/utils/structs/EnumerableSet.sol\":2113:2517  function _add(Set storage set, bytes32 value) private returns (bool) {... */\n    tag_63:\n      swap3\n      swap2\n      pop\n      pop\n      jump\t// out\n        /* \"@openzeppelin/contracts/utils/structs/EnumerableSet.sol\":2685:4073  function _remove(Set storage set, bytes32 value) private returns (bool) {... */\n    tag_62:\n        /* \"@openzeppelin/contracts/utils/structs/EnumerableSet.sol\":2751:2755  bool */\n      0x00\n        /* \"@openzeppelin/contracts/utils/structs/EnumerableSet.sol\":2867:2885  uint256 valueIndex */\n      dup1\n        /* \"@openzeppelin/contracts/utils/structs/EnumerableSet.sol\":2888:2891  set */\n      dup4\n        /* \"@openzeppelin/contracts/utils/structs/EnumerableSet.sol\":2888:2900  set._indexes */\n      0x01\n      add\n        /* \"@openzeppelin/contracts/utils/structs/EnumerableSet.sol\":2888:2907  set._indexes[value] */\n      0x00\n        /* \"@openzeppelin/contracts/utils/structs/EnumerableSet.sol\":2901:2906  value */\n      dup5\n        /* \"@openzeppelin/contracts/utils/structs/EnumerableSet.sol\":2888:2907  set._indexes[value] */\n      dup2\n      mstore\n      0x20\n      add\n      swap1\n      dup2\n      mstore\n      0x20\n      add\n      0x00\n      keccak256\n      sload\n        /* \"@openzeppelin/contracts/utils/structs/EnumerableSet.sol\":2867:2907  uint256 valueIndex = set._indexes[value] */\n      swap1\n      pop\n        /* \"@openzeppelin/contracts/utils/structs/EnumerableSet.sol\":2936:2937  0 */\n      0x00\n        /* \"@openzeppelin/contracts/utils/structs/EnumerableSet.sol\":2922:2932  valueIndex */\n      dup2\n        /* \"@openzeppelin/contracts/utils/structs/EnumerableSet.sol\":2922:2937  valueIndex != 0 */\n      eq\n        /* \"@openzeppelin/contracts/utils/structs/EnumerableSet.sol\":2918:4067  if (valueIndex != 0) {... */\n      tag_70\n      jumpi\n        /* \"@openzeppelin/contracts/utils/structs/EnumerableSet.sol\":3291:3312  uint256 toDeleteIndex */\n      0x00\n        /* \"@openzeppelin/contracts/utils/structs/EnumerableSet.sol\":3328:3329  1 */\n      0x01\n        /* \"@openzeppelin/contracts/utils/structs/EnumerableSet.sol\":3315:3325  valueIndex */\n      dup3\n        /* \"@openzeppelin/contracts/utils/structs/EnumerableSet.sol\":3315:3329  valueIndex - 1 */\n      tag_71\n      swap2\n      swap1\n      tag_72\n      jump\t// in\n    tag_71:\n        /* \"@openzeppelin/contracts/utils/structs/EnumerableSet.sol\":3291:3329  uint256 toDeleteIndex = valueIndex - 1 */\n      swap1\n      pop\n        /* \"@openzeppelin/contracts/utils/structs/EnumerableSet.sol\":3343:3360  uint256 lastIndex */\n      0x00\n        /* \"@openzeppelin/contracts/utils/structs/EnumerableSet.sol\":3384:3385  1 */\n      0x01\n        /* \"@openzeppelin/contracts/utils/structs/EnumerableSet.sol\":3363:3366  set */\n      dup7\n        /* \"@openzeppelin/contracts/utils/structs/EnumerableSet.sol\":3363:3374  set._values */\n      0x00\n      add\n        /* \"@openzeppelin/contracts/utils/structs/EnumerableSet.sol\":3363:3381  set._values.length */\n      dup1\n      sload\n      swap1\n      pop\n        /* \"@openzeppelin/contracts/utils/structs/EnumerableSet.sol\":3363:3385  set._values.length - 1 */\n      tag_73\n      swap2\n      swap1\n      tag_72\n      jump\t// in\n    tag_73:\n        /* \"@openzeppelin/contracts/utils/structs/EnumerableSet.sol\":3343:3385  uint256 lastIndex = set._values.length - 1 */\n      swap1\n      pop\n        /* \"@openzeppelin/contracts/utils/structs/EnumerableSet.sol\":3417:3430  toDeleteIndex */\n      dup2\n        /* \"@openzeppelin/contracts/utils/structs/EnumerableSet.sol\":3404:3413  lastIndex */\n      dup2\n        /* \"@openzeppelin/contracts/utils/structs/EnumerableSet.sol\":3404:3430  lastIndex != toDeleteIndex */\n      eq\n        /* \"@openzeppelin/contracts/utils/structs/EnumerableSet.sol\":3400:3798  if (lastIndex != toDeleteIndex) {... */\n      tag_74\n      jumpi\n        /* \"@openzeppelin/contracts/utils/structs/EnumerableSet.sol\":3450:3467  bytes32 lastValue */\n      0x00\n        /* \"@openzeppelin/contracts/utils/structs/EnumerableSet.sol\":3470:3473  set */\n      dup7\n        /* \"@openzeppelin/contracts/utils/structs/EnumerableSet.sol\":3470:3481  set._values */\n      0x00\n      add\n        /* \"@openzeppelin/contracts/utils/structs/EnumerableSet.sol\":3482:3491  lastIndex */\n      dup3\n        /* \"@openzeppelin/contracts/utils/structs/EnumerableSet.sol\":3470:3492  set._values[lastIndex] */\n      dup2\n      sload\n      dup2\n      lt\n      tag_75\n      jumpi\n      tag_76\n      tag_77\n      jump\t// in\n    tag_76:\n    tag_75:\n      swap1\n      0x00\n      mstore\n      keccak256(0x00, 0x20)\n      add\n      sload\n        /* \"@openzeppelin/contracts/utils/structs/EnumerableSet.sol\":3450:3492  bytes32 lastValue = set._values[lastIndex] */\n      swap1\n      pop\n        /* \"@openzeppelin/contracts/utils/structs/EnumerableSet.sol\":3621:3630  lastValue */\n      dup1\n        /* \"@openzeppelin/contracts/utils/structs/EnumerableSet.sol\":3592:3595  set */\n      dup8\n        /* \"@openzeppelin/contracts/utils/structs/EnumerableSet.sol\":3592:3603  set._values */\n      0x00\n      add\n        /* \"@openzeppelin/contracts/utils/structs/EnumerableSet.sol\":3604:3617  toDeleteIndex */\n      dup5\n        /* \"@openzeppelin/contracts/utils/structs/EnumerableSet.sol\":3592:3618  set._values[toDeleteIndex] */\n      dup2\n      sload\n      dup2\n      lt\n      tag_79\n      jumpi\n      tag_80\n      tag_77\n      jump\t// in\n    tag_80:\n    tag_79:\n      swap1\n      0x00\n      mstore\n      keccak256(0x00, 0x20)\n      add\n        /* \"@openzeppelin/contracts/utils/structs/EnumerableSet.sol\":3592:3630  set._values[toDeleteIndex] = lastValue */\n      dup2\n      swap1\n      sstore\n      pop\n        /* \"@openzeppelin/contracts/utils/structs/EnumerableSet.sol\":3730:3740  valueIndex */\n      dup4\n        /* \"@openzeppelin/contracts/utils/structs/EnumerableSet.sol\":3704:3707  set */\n      dup8\n        /* \"@openzeppelin/contracts/utils/structs/EnumerableSet.sol\":3704:3716  set._indexes */\n      0x01\n      add\n        /* \"@openzeppelin/contracts/utils/structs/EnumerableSet.sol\":3704:3727  set._indexes[lastValue] */\n      0x00\n        /* \"@openzeppelin/contracts/utils/structs/EnumerableSet.sol\":3717:3726  lastValue */\n      dup4\n        /* \"@openzeppelin/contracts/utils/structs/EnumerableSet.sol\":3704:3727  set._indexes[lastValue] */\n      dup2\n      mstore\n      0x20\n      add\n      swap1\n      dup2\n      mstore\n      0x20\n      add\n      0x00\n      keccak256\n        /* \"@openzeppelin/contracts/utils/structs/EnumerableSet.sol\":3704:3740  set._indexes[lastValue] = valueIndex */\n      dup2\n      swap1\n      sstore\n      pop\n        /* \"@openzeppelin/contracts/utils/structs/EnumerableSet.sol\":3432:3798  {... */\n      pop\n        /* \"@openzeppelin/contracts/utils/structs/EnumerableSet.sol\":3400:3798  if (lastIndex != toDeleteIndex) {... */\n    tag_74:\n        /* \"@openzeppelin/contracts/utils/structs/EnumerableSet.sol\":3876:3879  set */\n      dup6\n        /* \"@openzeppelin/contracts/utils/structs/EnumerableSet.sol\":3876:3887  set._values */\n      0x00\n      add\n        /* \"@openzeppelin/contracts/utils/structs/EnumerableSet.sol\":3876:3893  set._values.pop() */\n      dup1\n      sload\n      dup1\n      tag_82\n      jumpi\n      tag_83\n      tag_84\n      jump\t// in\n    tag_83:\n    tag_82:\n      0x01\n      swap1\n      sub\n      dup2\n      dup2\n      swap1\n      0x00\n      mstore\n      keccak256(0x00, 0x20)\n      add\n      0x00\n      swap1\n      sstore\n      swap1\n      sstore\n        /* \"@openzeppelin/contracts/utils/structs/EnumerableSet.sol\":3968:3971  set */\n      dup6\n        /* \"@openzeppelin/contracts/utils/structs/EnumerableSet.sol\":3968:3980  set._indexes */\n      0x01\n      add\n        /* \"@openzeppelin/contracts/utils/structs/EnumerableSet.sol\":3968:3987  set._indexes[value] */\n      0x00\n        /* \"@openzeppelin/contracts/utils/structs/EnumerableSet.sol\":3981:3986  value */\n      dup7\n        /* \"@openzeppelin/contracts/utils/structs/EnumerableSet.sol\":3968:3987  set._indexes[value] */\n      dup2\n      mstore\n      0x20\n      add\n      swap1\n      dup2\n      mstore\n      0x20\n      add\n      0x00\n      keccak256\n        /* \"@openzeppelin/contracts/utils/structs/EnumerableSet.sol\":3961:3987  delete set._indexes[value] */\n      0x00\n      swap1\n      sstore\n        /* \"@openzeppelin/contracts/utils/structs/EnumerableSet.sol\":4009:4013  true */\n      0x01\n        /* \"@openzeppelin/contracts/utils/structs/EnumerableSet.sol\":4002:4013  return true */\n      swap4\n      pop\n      pop\n      pop\n      pop\n      jump(tag_69)\n        /* \"@openzeppelin/contracts/utils/structs/EnumerableSet.sol\":2918:4067  if (valueIndex != 0) {... */\n    tag_70:\n        /* \"@openzeppelin/contracts/utils/structs/EnumerableSet.sol\":4051:4056  false */\n      0x00\n        /* \"@openzeppelin/contracts/utils/structs/EnumerableSet.sol\":4044:4056  return false */\n      swap2\n      pop\n      pop\n        /* \"@openzeppelin/contracts/utils/structs/EnumerableSet.sol\":2685:4073  function _remove(Set storage set, bytes32 value) private returns (bool) {... */\n    tag_69:\n      swap3\n      swap2\n      pop\n      pop\n      jump\t// out\n        /* \"@openzeppelin/contracts/utils/structs/EnumerableSet.sol\":4154:4281  function _contains(Set storage set, bytes32 value) private view returns (bool) {... */\n    tag_65:\n        /* \"@openzeppelin/contracts/utils/structs/EnumerableSet.sol\":4227:4231  bool */\n      0x00\n        /* \"@openzeppelin/contracts/utils/structs/EnumerableSet.sol\":4273:4274  0 */\n      dup1\n        /* \"@openzeppelin/contracts/utils/structs/EnumerableSet.sol\":4250:4253  set */\n      dup4\n        /* \"@openzeppelin/contracts/utils/structs/EnumerableSet.sol\":4250:4262  set._indexes */\n      0x01\n      add\n        /* \"@openzeppelin/contracts/utils/structs/EnumerableSet.sol\":4250:4269  set._indexes[value] */\n      0x00\n        /* \"@openzeppelin/contracts/utils/structs/EnumerableSet.sol\":4263:4268  value */\n      dup5\n        /* \"@openzeppelin/contracts/utils/structs/EnumerableSet.sol\":4250:4269  set._indexes[value] */\n      dup2\n      mstore\n      0x20\n      add\n      swap1\n      dup2\n      mstore\n      0x20\n      add\n      0x00\n      keccak256\n      sload\n        /* \"@openzeppelin/contracts/utils/structs/EnumerableSet.sol\":4250:4274  set._indexes[value] != 0 */\n      eq\n      iszero\n        /* \"@openzeppelin/contracts/utils/structs/EnumerableSet.sol\":4243:4274  return set._indexes[value] != 0 */\n      swap1\n      pop\n        /* \"@openzeppelin/contracts/utils/structs/EnumerableSet.sol\":4154:4281  function _contains(Set storage set, bytes32 value) private view returns (bool) {... */\n      swap3\n      swap2\n      pop\n      pop\n      jump\t// out\n        /* \"#utility.yul\":88:205   */\n    tag_89:\n        /* \"#utility.yul\":197:198   */\n      0x00\n        /* \"#utility.yul\":194:195   */\n      dup1\n        /* \"#utility.yul\":187:199   */\n      revert\n        /* \"#utility.yul\":334:411   */\n    tag_91:\n        /* \"#utility.yul\":371:378   */\n      0x00\n        /* \"#utility.yul\":400:405   */\n      dup2\n        /* \"#utility.yul\":389:405   */\n      swap1\n      pop\n        /* \"#utility.yul\":334:411   */\n      swap2\n      swap1\n      pop\n      jump\t// out\n        /* \"#utility.yul\":417:539   */\n    tag_92:\n        /* \"#utility.yul\":490:514   */\n      tag_107\n        /* \"#utility.yul\":508:513   */\n      dup2\n        /* \"#utility.yul\":490:514   */\n      tag_91\n      jump\t// in\n    tag_107:\n        /* \"#utility.yul\":483:488   */\n      dup2\n        /* \"#utility.yul\":480:515   */\n      eq\n        /* \"#utility.yul\":470:533   */\n      tag_108\n      jumpi\n        /* \"#utility.yul\":529:530   */\n      0x00\n        /* \"#utility.yul\":526:527   */\n      dup1\n        /* \"#utility.yul\":519:531   */\n      revert\n        /* \"#utility.yul\":470:533   */\n    tag_108:\n        /* \"#utility.yul\":417:539   */\n      pop\n      jump\t// out\n        /* \"#utility.yul\":545:684   */\n    tag_93:\n        /* \"#utility.yul\":591:596   */\n      0x00\n        /* \"#utility.yul\":629:635   */\n      dup2\n        /* \"#utility.yul\":616:636   */\n      calldataload\n        /* \"#utility.yul\":607:636   */\n      swap1\n      pop\n        /* \"#utility.yul\":645:678   */\n      tag_110\n        /* \"#utility.yul\":672:677   */\n      dup2\n        /* \"#utility.yul\":645:678   */\n      tag_92\n      jump\t// in\n    tag_110:\n        /* \"#utility.yul\":545:684   */\n      swap3\n      swap2\n      pop\n      pop\n      jump\t// out\n        /* \"#utility.yul\":690:1019   */\n    tag_11:\n        /* \"#utility.yul\":749:755   */\n      0x00\n        /* \"#utility.yul\":798:800   */\n      0x20\n        /* \"#utility.yul\":786:795   */\n      dup3\n        /* \"#utility.yul\":777:784   */\n      dup5\n        /* \"#utility.yul\":773:796   */\n      sub\n        /* \"#utility.yul\":769:801   */\n      slt\n        /* \"#utility.yul\":766:885   */\n      iszero\n      tag_112\n      jumpi\n        /* \"#utility.yul\":804:883   */\n      tag_113\n      tag_89\n      jump\t// in\n    tag_113:\n        /* \"#utility.yul\":766:885   */\n    tag_112:\n        /* \"#utility.yul\":924:925   */\n      0x00\n        /* \"#utility.yul\":949:1002   */\n      tag_114\n        /* \"#utility.yul\":994:1001   */\n      dup5\n        /* \"#utility.yul\":985:991   */\n      dup3\n        /* \"#utility.yul\":974:983   */\n      dup6\n        /* \"#utility.yul\":970:992   */\n      add\n        /* \"#utility.yul\":949:1002   */\n      tag_93\n      jump\t// in\n    tag_114:\n        /* \"#utility.yul\":939:1002   */\n      swap2\n      pop\n        /* \"#utility.yul\":895:1012   */\n      pop\n        /* \"#utility.yul\":690:1019   */\n      swap3\n      swap2\n      pop\n      pop\n      jump\t// out\n        /* \"#utility.yul\":1025:1151   */\n    tag_94:\n        /* \"#utility.yul\":1062:1069   */\n      0x00\n        /* \"#utility.yul\":1102:1144   */\n      0xffffffffffffffffffffffffffffffffffffffff\n        /* \"#utility.yul\":1095:1100   */\n      dup3\n        /* \"#utility.yul\":1091:1145   */\n      and\n        /* \"#utility.yul\":1080:1145   */\n      swap1\n      pop\n        /* \"#utility.yul\":1025:1151   */\n      swap2\n      swap1\n      pop\n      jump\t// out\n        /* \"#utility.yul\":1157:1253   */\n    tag_95:\n        /* \"#utility.yul\":1194:1201   */\n      0x00\n        /* \"#utility.yul\":1223:1247   */\n      tag_117\n        /* \"#utility.yul\":1241:1246   */\n      dup3\n        /* \"#utility.yul\":1223:1247   */\n      tag_94\n      jump\t// in\n    tag_117:\n        /* \"#utility.yul\":1212:1247   */\n      swap1\n      pop\n        /* \"#utility.yul\":1157:1253   */\n      swap2\n      swap1\n      pop\n      jump\t// out\n        /* \"#utility.yul\":1259:1377   */\n    tag_96:\n        /* \"#utility.yul\":1346:1370   */\n      tag_119\n        /* \"#utility.yul\":1364:1369   */\n      dup2\n        /* \"#utility.yul\":1346:1370   */\n      tag_95\n      jump\t// in\n    tag_119:\n        /* \"#utility.yul\":1341:1344   */\n      dup3\n        /* \"#utility.yul\":1334:1371   */\n      mstore\n        /* \"#utility.yul\":1259:1377   */\n      pop\n      pop\n      jump\t// out\n        /* \"#utility.yul\":1383:1501   */\n    tag_97:\n        /* \"#utility.yul\":1470:1494   */\n      tag_121\n        /* \"#utility.yul\":1488:1493   */\n      dup2\n        /* \"#utility.yul\":1470:1494   */\n      tag_91\n      jump\t// in\n    tag_121:\n        /* \"#utility.yul\":1465:1468   */\n      dup3\n        /* \"#utility.yul\":1458:1495   */\n      mstore\n        /* \"#utility.yul\":1383:1501   */\n      pop\n      pop\n      jump\t// out\n        /* \"#utility.yul\":1507:1839   */\n    tag_14:\n        /* \"#utility.yul\":1628:1632   */\n      0x00\n        /* \"#utility.yul\":1666:1668   */\n      0x40\n        /* \"#utility.yul\":1655:1664   */\n      dup3\n        /* \"#utility.yul\":1651:1669   */\n      add\n        /* \"#utility.yul\":1643:1669   */\n      swap1\n      pop\n        /* \"#utility.yul\":1679:1750   */\n      tag_123\n        /* \"#utility.yul\":1747:1748   */\n      0x00\n        /* \"#utility.yul\":1736:1745   */\n      dup4\n        /* \"#utility.yul\":1732:1749   */\n      add\n        /* \"#utility.yul\":1723:1729   */\n      dup6\n        /* \"#utility.yul\":1679:1750   */\n      tag_96\n      jump\t// in\n    tag_123:\n        /* \"#utility.yul\":1760:1832   */\n      tag_124\n        /* \"#utility.yul\":1828:1830   */\n      0x20\n        /* \"#utility.yul\":1817:1826   */\n      dup4\n        /* \"#utility.yul\":1813:1831   */\n      add\n        /* \"#utility.yul\":1804:1810   */\n      dup5\n        /* \"#utility.yul\":1760:1832   */\n      tag_97\n      jump\t// in\n    tag_124:\n        /* \"#utility.yul\":1507:1839   */\n      swap4\n      swap3\n      pop\n      pop\n      pop\n      jump\t// out\n        /* \"#utility.yul\":1845:1967   */\n    tag_98:\n        /* \"#utility.yul\":1918:1942   */\n      tag_126\n        /* \"#utility.yul\":1936:1941   */\n      dup2\n        /* \"#utility.yul\":1918:1942   */\n      tag_95\n      jump\t// in\n    tag_126:\n        /* \"#utility.yul\":1911:1916   */\n      dup2\n        /* \"#utility.yul\":1908:1943   */\n      eq\n        /* \"#utility.yul\":1898:1961   */\n      tag_127\n      jumpi\n        /* \"#utility.yul\":1957:1958   */\n      0x00\n        /* \"#utility.yul\":1954:1955   */\n      dup1\n        /* \"#utility.yul\":1947:1959   */\n      revert\n        /* \"#utility.yul\":1898:1961   */\n    tag_127:\n        /* \"#utility.yul\":1845:1967   */\n      pop\n      jump\t// out\n        /* \"#utility.yul\":1973:2112   */\n    tag_99:\n        /* \"#utility.yul\":2019:2024   */\n      0x00\n        /* \"#utility.yul\":2057:2063   */\n      dup2\n        /* \"#utility.yul\":2044:2064   */\n      calldataload\n        /* \"#utility.yul\":2035:2064   */\n      swap1\n      pop\n        /* \"#utility.yul\":2073:2106   */\n      tag_129\n        /* \"#utility.yul\":2100:2105   */\n      dup2\n        /* \"#utility.yul\":2073:2106   */\n      tag_98\n      jump\t// in\n    tag_129:\n        /* \"#utility.yul\":1973:2112   */\n      swap3\n      swap2\n      pop\n      pop\n      jump\t// out\n        /* \"#utility.yul\":2118:3029   */\n    tag_17:\n        /* \"#utility.yul\":2213:2219   */\n      0x00\n        /* \"#utility.yul\":2221:2227   */\n      dup1\n        /* \"#utility.yul\":2229:2235   */\n      0x00\n        /* \"#utility.yul\":2237:2243   */\n      dup1\n        /* \"#utility.yul\":2245:2251   */\n      0x00\n        /* \"#utility.yul\":2294:2297   */\n      0xa0\n        /* \"#utility.yul\":2282:2291   */\n      dup7\n        /* \"#utility.yul\":2273:2280   */\n      dup9\n        /* \"#utility.yul\":2269:2292   */\n      sub\n        /* \"#utility.yul\":2265:2298   */\n      slt\n        /* \"#utility.yul\":2262:2382   */\n      iszero\n      tag_131\n      jumpi\n        /* \"#utility.yul\":2301:2380   */\n      tag_132\n      tag_89\n      jump\t// in\n    tag_132:\n        /* \"#utility.yul\":2262:2382   */\n    tag_131:\n        /* \"#utility.yul\":2421:2422   */\n      0x00\n        /* \"#utility.yul\":2446:2499   */\n      tag_133\n        /* \"#utility.yul\":2491:2498   */\n      dup9\n        /* \"#utility.yul\":2482:2488   */\n      dup3\n        /* \"#utility.yul\":2471:2480   */\n      dup10\n        /* \"#utility.yul\":2467:2489   */\n      add\n        /* \"#utility.yul\":2446:2499   */\n      tag_99\n      jump\t// in\n    tag_133:\n        /* \"#utility.yul\":2436:2499   */\n      swap6\n      pop\n        /* \"#utility.yul\":2392:2509   */\n      pop\n        /* \"#utility.yul\":2548:2550   */\n      0x20\n        /* \"#utility.yul\":2574:2627   */\n      tag_134\n        /* \"#utility.yul\":2619:2626   */\n      dup9\n        /* \"#utility.yul\":2610:2616   */\n      dup3\n        /* \"#utility.yul\":2599:2608   */\n      dup10\n        /* \"#utility.yul\":2595:2617   */\n      add\n        /* \"#utility.yul\":2574:2627   */\n      tag_93\n      jump\t// in\n    tag_134:\n        /* \"#utility.yul\":2564:2627   */\n      swap5\n      pop\n        /* \"#utility.yul\":2519:2637   */\n      pop\n        /* \"#utility.yul\":2676:2678   */\n      0x40\n        /* \"#utility.yul\":2702:2755   */\n      tag_135\n        /* \"#utility.yul\":2747:2754   */\n      dup9\n        /* \"#utility.yul\":2738:2744   */\n      dup3\n        /* \"#utility.yul\":2727:2736   */\n      dup10\n        /* \"#utility.yul\":2723:2745   */\n      add\n        /* \"#utility.yul\":2702:2755   */\n      tag_93\n      jump\t// in\n    tag_135:\n        /* \"#utility.yul\":2692:2755   */\n      swap4\n      pop\n        /* \"#utility.yul\":2647:2765   */\n      pop\n        /* \"#utility.yul\":2804:2806   */\n      0x60\n        /* \"#utility.yul\":2830:2883   */\n      tag_136\n        /* \"#utility.yul\":2875:2882   */\n      dup9\n        /* \"#utility.yul\":2866:2872   */\n      dup3\n        /* \"#utility.yul\":2855:2864   */\n      dup10\n        /* \"#utility.yul\":2851:2873   */\n      add\n        /* \"#utility.yul\":2830:2883   */\n      tag_93\n      jump\t// in\n    tag_136:\n        /* \"#utility.yul\":2820:2883   */\n      swap3\n      pop\n        /* \"#utility.yul\":2775:2893   */\n      pop\n        /* \"#utility.yul\":2932:2935   */\n      0x80\n        /* \"#utility.yul\":2959:3012   */\n      tag_137\n        /* \"#utility.yul\":3004:3011   */\n      dup9\n        /* \"#utility.yul\":2995:3001   */\n      dup3\n        /* \"#utility.yul\":2984:2993   */\n      dup10\n        /* \"#utility.yul\":2980:3002   */\n      add\n        /* \"#utility.yul\":2959:3012   */\n      tag_99\n      jump\t// in\n    tag_137:\n        /* \"#utility.yul\":2949:3012   */\n      swap2\n      pop\n        /* \"#utility.yul\":2903:3022   */\n      pop\n        /* \"#utility.yul\":2118:3029   */\n      swap3\n      swap6\n      pop\n      swap3\n      swap6\n      swap1\n      swap4\n      pop\n      jump\t// out\n        /* \"#utility.yul\":3035:3921   */\n    tag_23:\n        /* \"#utility.yul\":3296:3300   */\n      0x00\n        /* \"#utility.yul\":3334:3337   */\n      0xe0\n        /* \"#utility.yul\":3323:3332   */\n      dup3\n        /* \"#utility.yul\":3319:3338   */\n      add\n        /* \"#utility.yul\":3311:3338   */\n      swap1\n      pop\n        /* \"#utility.yul\":3348:3419   */\n      tag_139\n        /* \"#utility.yul\":3416:3417   */\n      0x00\n        /* \"#utility.yul\":3405:3414   */\n      dup4\n        /* \"#utility.yul\":3401:3418   */\n      add\n        /* \"#utility.yul\":3392:3398   */\n      dup11\n        /* \"#utility.yul\":3348:3419   */\n      tag_96\n      jump\t// in\n    tag_139:\n        /* \"#utility.yul\":3429:3501   */\n      tag_140\n        /* \"#utility.yul\":3497:3499   */\n      0x20\n        /* \"#utility.yul\":3486:3495   */\n      dup4\n        /* \"#utility.yul\":3482:3500   */\n      add\n        /* \"#utility.yul\":3473:3479   */\n      dup10\n        /* \"#utility.yul\":3429:3501   */\n      tag_96\n      jump\t// in\n    tag_140:\n        /* \"#utility.yul\":3511:3583   */\n      tag_141\n        /* \"#utility.yul\":3579:3581   */\n      0x40\n        /* \"#utility.yul\":3568:3577   */\n      dup4\n        /* \"#utility.yul\":3564:3582   */\n      add\n        /* \"#utility.yul\":3555:3561   */\n      dup9\n        /* \"#utility.yul\":3511:3583   */\n      tag_97\n      jump\t// in\n    tag_141:\n        /* \"#utility.yul\":3593:3665   */\n      tag_142\n        /* \"#utility.yul\":3661:3663   */\n      0x60\n        /* \"#utility.yul\":3650:3659   */\n      dup4\n        /* \"#utility.yul\":3646:3664   */\n      add\n        /* \"#utility.yul\":3637:3643   */\n      dup8\n        /* \"#utility.yul\":3593:3665   */\n      tag_97\n      jump\t// in\n    tag_142:\n        /* \"#utility.yul\":3675:3748   */\n      tag_143\n        /* \"#utility.yul\":3743:3746   */\n      0x80\n        /* \"#utility.yul\":3732:3741   */\n      dup4\n        /* \"#utility.yul\":3728:3747   */\n      add\n        /* \"#utility.yul\":3719:3725   */\n      dup7\n        /* \"#utility.yul\":3675:3748   */\n      tag_97\n      jump\t// in\n    tag_143:\n        /* \"#utility.yul\":3758:3831   */\n      tag_144\n        /* \"#utility.yul\":3826:3829   */\n      0xa0\n        /* \"#utility.yul\":3815:3824   */\n      dup4\n        /* \"#utility.yul\":3811:3830   */\n      add\n        /* \"#utility.yul\":3802:3808   */\n      dup6\n        /* \"#utility.yul\":3758:3831   */\n      tag_97\n      jump\t// in\n    tag_144:\n        /* \"#utility.yul\":3841:3914   */\n      tag_145\n        /* \"#utility.yul\":3909:3912   */\n      0xc0\n        /* \"#utility.yul\":3898:3907   */\n      dup4\n        /* \"#utility.yul\":3894:3913   */\n      add\n        /* \"#utility.yul\":3885:3891   */\n      dup5\n        /* \"#utility.yul\":3841:3914   */\n      tag_96\n      jump\t// in\n    tag_145:\n        /* \"#utility.yul\":3035:3921   */\n      swap9\n      swap8\n      pop\n      pop\n      pop\n      pop\n      pop\n      pop\n      pop\n      pop\n      jump\t// out\n        /* \"#utility.yul\":3927:4401   */\n    tag_26:\n        /* \"#utility.yul\":3995:4001   */\n      0x00\n        /* \"#utility.yul\":4003:4009   */\n      dup1\n        /* \"#utility.yul\":4052:4054   */\n      0x40\n        /* \"#utility.yul\":4040:4049   */\n      dup4\n        /* \"#utility.yul\":4031:4038   */\n      dup6\n        /* \"#utility.yul\":4027:4050   */\n      sub\n        /* \"#utility.yul\":4023:4055   */\n      slt\n        /* \"#utility.yul\":4020:4139   */\n      iszero\n      tag_147\n      jumpi\n        /* \"#utility.yul\":4058:4137   */\n      tag_148\n      tag_89\n      jump\t// in\n    tag_148:\n        /* \"#utility.yul\":4020:4139   */\n    tag_147:\n        /* \"#utility.yul\":4178:4179   */\n      0x00\n        /* \"#utility.yul\":4203:4256   */\n      tag_149\n        /* \"#utility.yul\":4248:4255   */\n      dup6\n        /* \"#utility.yul\":4239:4245   */\n      dup3\n        /* \"#utility.yul\":4228:4237   */\n      dup7\n        /* \"#utility.yul\":4224:4246   */\n      add\n        /* \"#utility.yul\":4203:4256   */\n      tag_93\n      jump\t// in\n    tag_149:\n        /* \"#utility.yul\":4193:4256   */\n      swap3\n      pop\n        /* \"#utility.yul\":4149:4266   */\n      pop\n        /* \"#utility.yul\":4305:4307   */\n      0x20\n        /* \"#utility.yul\":4331:4384   */\n      tag_150\n        /* \"#utility.yul\":4376:4383   */\n      dup6\n        /* \"#utility.yul\":4367:4373   */\n      dup3\n        /* \"#utility.yul\":4356:4365   */\n      dup7\n        /* \"#utility.yul\":4352:4374   */\n      add\n        /* \"#utility.yul\":4331:4384   */\n      tag_93\n      jump\t// in\n    tag_150:\n        /* \"#utility.yul\":4321:4384   */\n      swap2\n      pop\n        /* \"#utility.yul\":4276:4394   */\n      pop\n        /* \"#utility.yul\":3927:4401   */\n      swap3\n      pop\n      swap3\n      swap1\n      pop\n      jump\t// out\n        /* \"#utility.yul\":4407:5026   */\n    tag_31:\n        /* \"#utility.yul\":4484:4490   */\n      0x00\n        /* \"#utility.yul\":4492:4498   */\n      dup1\n        /* \"#utility.yul\":4500:4506   */\n      0x00\n        /* \"#utility.yul\":4549:4551   */\n      0x60\n        /* \"#utility.yul\":4537:4546   */\n      dup5\n        /* \"#utility.yul\":4528:4535   */\n      dup7\n        /* \"#utility.yul\":4524:4547   */\n      sub\n        /* \"#utility.yul\":4520:4552   */\n      slt\n        /* \"#utility.yul\":4517:4636   */\n      iszero\n      tag_152\n      jumpi\n        /* \"#utility.yul\":4555:4634   */\n      tag_153\n      tag_89\n      jump\t// in\n    tag_153:\n        /* \"#utility.yul\":4517:4636   */\n    tag_152:\n        /* \"#utility.yul\":4675:4676   */\n      0x00\n        /* \"#utility.yul\":4700:4753   */\n      tag_154\n        /* \"#utility.yul\":4745:4752   */\n      dup7\n        /* \"#utility.yul\":4736:4742   */\n      dup3\n        /* \"#utility.yul\":4725:4734   */\n      dup8\n        /* \"#utility.yul\":4721:4743   */\n      add\n        /* \"#utility.yul\":4700:4753   */\n      tag_99\n      jump\t// in\n    tag_154:\n        /* \"#utility.yul\":4690:4753   */\n      swap4\n      pop\n        /* \"#utility.yul\":4646:4763   */\n      pop\n        /* \"#utility.yul\":4802:4804   */\n      0x20\n        /* \"#utility.yul\":4828:4881   */\n      tag_155\n        /* \"#utility.yul\":4873:4880   */\n      dup7\n        /* \"#utility.yul\":4864:4870   */\n      dup3\n        /* \"#utility.yul\":4853:4862   */\n      dup8\n        /* \"#utility.yul\":4849:4871   */\n      add\n        /* \"#utility.yul\":4828:4881   */\n      tag_93\n      jump\t// in\n    tag_155:\n        /* \"#utility.yul\":4818:4881   */\n      swap3\n      pop\n        /* \"#utility.yul\":4773:4891   */\n      pop\n        /* \"#utility.yul\":4930:4932   */\n      0x40\n        /* \"#utility.yul\":4956:5009   */\n      tag_156\n        /* \"#utility.yul\":5001:5008   */\n      dup7\n        /* \"#utility.yul\":4992:4998   */\n      dup3\n        /* \"#utility.yul\":4981:4990   */\n      dup8\n        /* \"#utility.yul\":4977:4999   */\n      add\n        /* \"#utility.yul\":4956:5009   */\n      tag_93\n      jump\t// in\n    tag_156:\n        /* \"#utility.yul\":4946:5009   */\n      swap2\n      pop\n        /* \"#utility.yul\":4901:5019   */\n      pop\n        /* \"#utility.yul\":4407:5026   */\n      swap3\n      pop\n      swap3\n      pop\n      swap3\n      jump\t// out\n        /* \"#utility.yul\":5032:5212   */\n    tag_100:\n        /* \"#utility.yul\":5080:5157   */\n      0x4e487b7100000000000000000000000000000000000000000000000000000000\n        /* \"#utility.yul\":5077:5078   */\n      0x00\n        /* \"#utility.yul\":5070:5158   */\n      mstore\n        /* \"#utility.yul\":5177:5181   */\n      0x11\n        /* \"#utility.yul\":5174:5175   */\n      0x04\n        /* \"#utility.yul\":5167:5182   */\n      mstore\n        /* \"#utility.yul\":5201:5205   */\n      0x24\n        /* \"#utility.yul\":5198:5199   */\n      0x00\n        /* \"#utility.yul\":5191:5206   */\n      revert\n        /* \"#utility.yul\":5218:5628   */\n    tag_40:\n        /* \"#utility.yul\":5258:5265   */\n      0x00\n        /* \"#utility.yul\":5281:5301   */\n      tag_159\n        /* \"#utility.yul\":5299:5300   */\n      dup3\n        /* \"#utility.yul\":5281:5301   */\n      tag_91\n      jump\t// in\n    tag_159:\n        /* \"#utility.yul\":5276:5301   */\n      swap2\n      pop\n        /* \"#utility.yul\":5315:5335   */\n      tag_160\n        /* \"#utility.yul\":5333:5334   */\n      dup4\n        /* \"#utility.yul\":5315:5335   */\n      tag_91\n      jump\t// in\n    tag_160:\n        /* \"#utility.yul\":5310:5335   */\n      swap3\n      pop\n        /* \"#utility.yul\":5370:5371   */\n      dup3\n        /* \"#utility.yul\":5367:5368   */\n      dup3\n        /* \"#utility.yul\":5363:5372   */\n      mul\n        /* \"#utility.yul\":5392:5422   */\n      tag_161\n        /* \"#utility.yul\":5410:5421   */\n      dup2\n        /* \"#utility.yul\":5392:5422   */\n      tag_91\n      jump\t// in\n    tag_161:\n        /* \"#utility.yul\":5381:5422   */\n      swap2\n      pop\n        /* \"#utility.yul\":5571:5572   */\n      dup3\n        /* \"#utility.yul\":5562:5569   */\n      dup3\n        /* \"#utility.yul\":5558:5573   */\n      div\n        /* \"#utility.yul\":5555:5556   */\n      dup5\n        /* \"#utility.yul\":5552:5574   */\n      eq\n        /* \"#utility.yul\":5532:5533   */\n      dup4\n        /* \"#utility.yul\":5525:5534   */\n      iszero\n        /* \"#utility.yul\":5505:5588   */\n      or\n        /* \"#utility.yul\":5482:5621   */\n      tag_162\n      jumpi\n        /* \"#utility.yul\":5601:5619   */\n      tag_163\n      tag_100\n      jump\t// in\n    tag_163:\n        /* \"#utility.yul\":5482:5621   */\n    tag_162:\n        /* \"#utility.yul\":5266:5628   */\n      pop\n        /* \"#utility.yul\":5218:5628   */\n      swap3\n      swap2\n      pop\n      pop\n      jump\t// out\n        /* \"#utility.yul\":5634:5825   */\n    tag_42:\n        /* \"#utility.yul\":5674:5677   */\n      0x00\n        /* \"#utility.yul\":5693:5713   */\n      tag_165\n        /* \"#utility.yul\":5711:5712   */\n      dup3\n        /* \"#utility.yul\":5693:5713   */\n      tag_91\n      jump\t// in\n    tag_165:\n        /* \"#utility.yul\":5688:5713   */\n      swap2\n      pop\n        /* \"#utility.yul\":5727:5747   */\n      tag_166\n        /* \"#utility.yul\":5745:5746   */\n      dup4\n        /* \"#utility.yul\":5727:5747   */\n      tag_91\n      jump\t// in\n    tag_166:\n        /* \"#utility.yul\":5722:5747   */\n      swap3\n      pop\n        /* \"#utility.yul\":5770:5771   */\n      dup3\n        /* \"#utility.yul\":5767:5768   */\n      dup3\n        /* \"#utility.yul\":5763:5772   */\n      add\n        /* \"#utility.yul\":5756:5772   */\n      swap1\n      pop\n        /* \"#utility.yul\":5791:5794   */\n      dup1\n        /* \"#utility.yul\":5788:5789   */\n      dup3\n        /* \"#utility.yul\":5785:5795   */\n      gt\n        /* \"#utility.yul\":5782:5818   */\n      iszero\n      tag_167\n      jumpi\n        /* \"#utility.yul\":5798:5816   */\n      tag_168\n      tag_100\n      jump\t// in\n    tag_168:\n        /* \"#utility.yul\":5782:5818   */\n    tag_167:\n        /* \"#utility.yul\":5634:5825   */\n      swap3\n      swap2\n      pop\n      pop\n      jump\t// out\n        /* \"#utility.yul\":5831:6273   */\n    tag_51:\n        /* \"#utility.yul\":5980:5984   */\n      0x00\n        /* \"#utility.yul\":6018:6020   */\n      0x60\n        /* \"#utility.yul\":6007:6016   */\n      dup3\n        /* \"#utility.yul\":6003:6021   */\n      add\n        /* \"#utility.yul\":5995:6021   */\n      swap1\n      pop\n        /* \"#utility.yul\":6031:6102   */\n      tag_170\n        /* \"#utility.yul\":6099:6100   */\n      0x00\n        /* \"#utility.yul\":6088:6097   */\n      dup4\n        /* \"#utility.yul\":6084:6101   */\n      add\n        /* \"#utility.yul\":6075:6081   */\n      dup7\n        /* \"#utility.yul\":6031:6102   */\n      tag_96\n      jump\t// in\n    tag_170:\n        /* \"#utility.yul\":6112:6184   */\n      tag_171\n        /* \"#utility.yul\":6180:6182   */\n      0x20\n        /* \"#utility.yul\":6169:6178   */\n      dup4\n        /* \"#utility.yul\":6165:6183   */\n      add\n        /* \"#utility.yul\":6156:6162   */\n      dup6\n        /* \"#utility.yul\":6112:6184   */\n      tag_96\n      jump\t// in\n    tag_171:\n        /* \"#utility.yul\":6194:6266   */\n      tag_172\n        /* \"#utility.yul\":6262:6264   */\n      0x40\n        /* \"#utility.yul\":6251:6260   */\n      dup4\n        /* \"#utility.yul\":6247:6265   */\n      add\n        /* \"#utility.yul\":6238:6244   */\n      dup5\n        /* \"#utility.yul\":6194:6266   */\n      tag_97\n      jump\t// in\n    tag_172:\n        /* \"#utility.yul\":5831:6273   */\n      swap5\n      swap4\n      pop\n      pop\n      pop\n      pop\n      jump\t// out\n        /* \"#utility.yul\":6279:6473   */\n    tag_72:\n        /* \"#utility.yul\":6319:6323   */\n      0x00\n        /* \"#utility.yul\":6339:6359   */\n      tag_174\n        /* \"#utility.yul\":6357:6358   */\n      dup3\n        /* \"#utility.yul\":6339:6359   */\n      tag_91\n      jump\t// in\n    tag_174:\n        /* \"#utility.yul\":6334:6359   */\n      swap2\n      pop\n        /* \"#utility.yul\":6373:6393   */\n      tag_175\n        /* \"#utility.yul\":6391:6392   */\n      dup4\n        /* \"#utility.yul\":6373:6393   */\n      tag_91\n      jump\t// in\n    tag_175:\n        /* \"#utility.yul\":6368:6393   */\n      swap3\n      pop\n        /* \"#utility.yul\":6417:6418   */\n      dup3\n        /* \"#utility.yul\":6414:6415   */\n      dup3\n        /* \"#utility.yul\":6410:6419   */\n      sub\n        /* \"#utility.yul\":6402:6419   */\n      swap1\n      pop\n        /* \"#utility.yul\":6441:6442   */\n      dup2\n        /* \"#utility.yul\":6435:6439   */\n      dup2\n        /* \"#utility.yul\":6432:6443   */\n      gt\n        /* \"#utility.yul\":6429:6466   */\n      iszero\n      tag_176\n      jumpi\n        /* \"#utility.yul\":6446:6464   */\n      tag_177\n      tag_100\n      jump\t// in\n    tag_177:\n        /* \"#utility.yul\":6429:6466   */\n    tag_176:\n        /* \"#utility.yul\":6279:6473   */\n      swap3\n      swap2\n      pop\n      pop\n      jump\t// out\n        /* \"#utility.yul\":6479:6659   */\n    tag_77:\n        /* \"#utility.yul\":6527:6604   */\n      0x4e487b7100000000000000000000000000000000000000000000000000000000\n        /* \"#utility.yul\":6524:6525   */\n      0x00\n        /* \"#utility.yul\":6517:6605   */\n      mstore\n        /* \"#utility.yul\":6624:6628   */\n      0x32\n        /* \"#utility.yul\":6621:6622   */\n      0x04\n        /* \"#utility.yul\":6614:6629   */\n      mstore\n        /* \"#utility.yul\":6648:6652   */\n      0x24\n        /* \"#utility.yul\":6645:6646   */\n      0x00\n        /* \"#utility.yul\":6638:6653   */\n      revert\n        /* \"#utility.yul\":6665:6845   */\n    tag_84:\n        /* \"#utility.yul\":6713:6790   */\n      0x4e487b7100000000000000000000000000000000000000000000000000000000\n        /* \"#utility.yul\":6710:6711   */\n      0x00\n        /* \"#utility.yul\":6703:6791   */\n      mstore\n        /* \"#utility.yul\":6810:6814   */\n      0x31\n        /* \"#utility.yul\":6807:6808   */\n      0x04\n        /* \"#utility.yul\":6800:6815   */\n      mstore\n        /* \"#utility.yul\":6834:6838   */\n      0x24\n        /* \"#utility.yul\":6831:6832   */\n      0x00\n        /* \"#utility.yul\":6824:6839   */\n      revert\n\n    auxdata: 0xa2646970667358221220709e39d08febfa9b20ca262f95c7f4d48384b6504cb55df1be93ba50814a46af64736f6c63430008110033\n}\n",
				"bytecode": {
					"linkReferences": {},
					"object": "608060405234801561001057600080fd5b50610d1d806100206000396000f3fe608060405234801561001057600080fd5b50600436106100625760003560e01c8063036f40a3146100675780633e9add401461009857806395873d62146100b4578063d1c11205146100ea578063e99da2a51461011b578063ee7a419714610137575b600080fd5b610081600480360381019061007c919061092a565b610153565b60405161008f9291906109a7565b60405180910390f35b6100b260048036038101906100ad91906109fc565b6101a7565b005b6100ce60048036038101906100c9919061092a565b6103ab565b6040516100e19796959493929190610a77565b60405180910390f35b61010460048036038101906100ff9190610ae6565b61044d565b6040516101129291906109a7565b60405180910390f35b61013560048036038101906101309190610b26565b6104ae565b005b610151600480360381019061014c9190610ae6565b6105e6565b005b6000818154811061016357600080fd5b90600052602060002090600202016000915090508060000160009054906101000a900473ffffffffffffffffffffffffffffffffffffffff16908060010154905082565b6000603c846101b69190610ba8565b9050600081426101c69190610bea565b90506040518060e001604052803373ffffffffffffffffffffffffffffffffffffffff1681526020018873ffffffffffffffffffffffffffffffffffffffff1681526020018781526020014281526020018281526020018581526020018473ffffffffffffffffffffffffffffffffffffffff168152506001600042815260200190815260200160002060008201518160000160006101000a81548173ffffffffffffffffffffffffffffffffffffffff021916908373ffffffffffffffffffffffffffffffffffffffff16021790555060208201518160010160006101000a81548173ffffffffffffffffffffffffffffffffffffffff021916908373ffffffffffffffffffffffffffffffffffffffff16021790555060408201518160020155606082015181600301556080820151816004015560a0820151816005015560c08201518160060160006101000a81548173ffffffffffffffffffffffffffffffffffffffff021916908373ffffffffffffffffffffffffffffffffffffffff1602179055509050506103a186600260008a73ffffffffffffffffffffffffffffffffffffffff1673ffffffffffffffffffffffffffffffffffffffff16815260200190815260200160002061071490919063ffffffff16565b5050505050505050565b60016020528060005260406000206000915090508060000160009054906101000a900473ffffffffffffffffffffffffffffffffffffffff16908060010160009054906101000a900473ffffffffffffffffffffffffffffffffffffffff16908060020154908060030154908060040154908060050154908060060160009054906101000a900473ffffffffffffffffffffffffffffffffffffffff16905087565b6003602052816000526040600020818154811061046957600080fd5b9060005260206000209060020201600091509150508060000160009054906101000a900473ffffffffffffffffffffffffffffffffffffffff16908060010154905082565b600083905061050483600260008773ffffffffffffffffffffffffffffffffffffffff1673ffffffffffffffffffffffffffffffffffffffff16815260200190815260200160002061072e90919063ffffffff16565b508073ffffffffffffffffffffffffffffffffffffffff166342842e0e6001600085815260200190815260200160002060000160009054906101000a900473ffffffffffffffffffffffffffffffffffffffff166001600086815260200190815260200160002060060160009054906101000a900473ffffffffffffffffffffffffffffffffffffffff16866040518463ffffffff1660e01b81526004016105ae93929190610c1e565b600060405180830381600087803b1580156105c857600080fd5b505af11580156105dc573d6000803e3d6000fd5b5050505050505050565b6003600082815260200190815260200160002060405180604001604052803373ffffffffffffffffffffffffffffffffffffffff16815260200184815250908060018154018082558091505060019003906000526020600020906002020160009091909190915060008201518160000160006101000a81548173ffffffffffffffffffffffffffffffffffffffff021916908373ffffffffffffffffffffffffffffffffffffffff160217905550602082015181600101555050816001600083815260200190815260200160002060050181905550336001600083815260200190815260200160002060060160006101000a81548173ffffffffffffffffffffffffffffffffffffffff021916908373ffffffffffffffffffffffffffffffffffffffff1602179055505050565b6000610726836000018360001b610748565b905092915050565b6000610740836000018360001b6107b8565b905092915050565b600061075483836108cc565b6107ad5782600001829080600181540180825580915050600190039060005260206000200160009091909190915055826000018054905083600101600084815260200190815260200160002081905550600190506107b2565b600090505b92915050565b600080836001016000848152602001908152602001600020549050600081146108c05760006001826107ea9190610c55565b90506000600186600001805490506108029190610c55565b905081811461087157600086600001828154811061082357610822610c89565b5b906000526020600020015490508087600001848154811061084757610846610c89565b5b90600052602060002001819055508387600101600083815260200190815260200160002081905550505b8560000180548061088557610884610cb8565b5b6001900381819060005260206000200160009055905585600101600086815260200190815260200160002060009055600193505050506108c6565b60009150505b92915050565b600080836001016000848152602001908152602001600020541415905092915050565b600080fd5b6000819050919050565b610907816108f4565b811461091257600080fd5b50565b600081359050610924816108fe565b92915050565b6000602082840312156109405761093f6108ef565b5b600061094e84828501610915565b91505092915050565b600073ffffffffffffffffffffffffffffffffffffffff82169050919050565b600061098282610957565b9050919050565b61099281610977565b82525050565b6109a1816108f4565b82525050565b60006040820190506109bc6000830185610989565b6109c96020830184610998565b9392505050565b6109d981610977565b81146109e457600080fd5b50565b6000813590506109f6816109d0565b92915050565b600080600080600060a08688031215610a1857610a176108ef565b5b6000610a26888289016109e7565b9550506020610a3788828901610915565b9450506040610a4888828901610915565b9350506060610a5988828901610915565b9250506080610a6a888289016109e7565b9150509295509295909350565b600060e082019050610a8c600083018a610989565b610a996020830189610989565b610aa66040830188610998565b610ab36060830187610998565b610ac06080830186610998565b610acd60a0830185610998565b610ada60c0830184610989565b98975050505050505050565b60008060408385031215610afd57610afc6108ef565b5b6000610b0b85828601610915565b9250506020610b1c85828601610915565b9150509250929050565b600080600060608486031215610b3f57610b3e6108ef565b5b6000610b4d868287016109e7565b9350506020610b5e86828701610915565b9250506040610b6f86828701610915565b9150509250925092565b7f4e487b7100000000000000000000000000000000000000000000000000000000600052601160045260246000fd5b6000610bb3826108f4565b9150610bbe836108f4565b9250828202610bcc816108f4565b91508282048414831517610be357610be2610b79565b5b5092915050565b6000610bf5826108f4565b9150610c00836108f4565b9250828201905080821115610c1857610c17610b79565b5b92915050565b6000606082019050610c336000830186610989565b610c406020830185610989565b610c4d6040830184610998565b949350505050565b6000610c60826108f4565b9150610c6b836108f4565b9250828203905081811115610c8357610c82610b79565b5b92915050565b7f4e487b7100000000000000000000000000000000000000000000000000000000600052603260045260246000fd5b7f4e487b7100000000000000000000000000000000000000000000000000000000600052603160045260246000fdfea2646970667358221220709e39d08febfa9b20ca262f95c7f4d48384b6504cb55df1be93ba50814a46af64736f6c63430008110033",
					"opcodes": "PUSH1 0x80 PUSH1 0x40 MSTORE CALLVALUE DUP1 ISZERO PUSH2 0x10 JUMPI PUSH1 0x0 DUP1 REVERT JUMPDEST POP PUSH2 0xD1D DUP1 PUSH2 0x20 PUSH1 0x0 CODECOPY PUSH1 0x0 RETURN INVALID PUSH1 0x80 PUSH1 0x40 MSTORE CALLVALUE DUP1 ISZERO PUSH2 0x10 JUMPI PUSH1 0x0 DUP1 REVERT JUMPDEST POP PUSH1 0x4 CALLDATASIZE LT PUSH2 0x62 JUMPI PUSH1 0x0 CALLDATALOAD PUSH1 0xE0 SHR DUP1 PUSH4 0x36F40A3 EQ PUSH2 0x67 JUMPI DUP1 PUSH4 0x3E9ADD40 EQ PUSH2 0x98 JUMPI DUP1 PUSH4 0x95873D62 EQ PUSH2 0xB4 JUMPI DUP1 PUSH4 0xD1C11205 EQ PUSH2 0xEA JUMPI DUP1 PUSH4 0xE99DA2A5 EQ PUSH2 0x11B JUMPI DUP1 PUSH4 0xEE7A4197 EQ PUSH2 0x137 JUMPI JUMPDEST PUSH1 0x0 DUP1 REVERT JUMPDEST PUSH2 0x81 PUSH1 0x4 DUP1 CALLDATASIZE SUB DUP2 ADD SWAP1 PUSH2 0x7C SWAP2 SWAP1 PUSH2 0x92A JUMP JUMPDEST PUSH2 0x153 JUMP JUMPDEST PUSH1 0x40 MLOAD PUSH2 0x8F SWAP3 SWAP2 SWAP1 PUSH2 0x9A7 JUMP JUMPDEST PUSH1 0x40 MLOAD DUP1 SWAP2 SUB SWAP1 RETURN JUMPDEST PUSH2 0xB2 PUSH1 0x4 DUP1 CALLDATASIZE SUB DUP2 ADD SWAP1 PUSH2 0xAD SWAP2 SWAP1 PUSH2 0x9FC JUMP JUMPDEST PUSH2 0x1A7 JUMP JUMPDEST STOP JUMPDEST PUSH2 0xCE PUSH1 0x4 DUP1 CALLDATASIZE SUB DUP2 ADD SWAP1 PUSH2 0xC9 SWAP2 SWAP1 PUSH2 0x92A JUMP JUMPDEST PUSH2 0x3AB JUMP JUMPDEST PUSH1 0x40 MLOAD PUSH2 0xE1 SWAP8 SWAP7 SWAP6 SWAP5 SWAP4 SWAP3 SWAP2 SWAP1 PUSH2 0xA77 JUMP JUMPDEST PUSH1 0x40 MLOAD DUP1 SWAP2 SUB SWAP1 RETURN JUMPDEST PUSH2 0x104 PUSH1 0x4 DUP1 CALLDATASIZE SUB DUP2 ADD SWAP1 PUSH2 0xFF SWAP2 SWAP1 PUSH2 0xAE6 JUMP JUMPDEST PUSH2 0x44D JUMP JUMPDEST PUSH1 0x40 MLOAD PUSH2 0x112 SWAP3 SWAP2 SWAP1 PUSH2 0x9A7 JUMP JUMPDEST PUSH1 0x40 MLOAD DUP1 SWAP2 SUB SWAP1 RETURN JUMPDEST PUSH2 0x135 PUSH1 0x4 DUP1 CALLDATASIZE SUB DUP2 ADD SWAP1 PUSH2 0x130 SWAP2 SWAP1 PUSH2 0xB26 JUMP JUMPDEST PUSH2 0x4AE JUMP JUMPDEST STOP JUMPDEST PUSH2 0x151 PUSH1 0x4 DUP1 CALLDATASIZE SUB DUP2 ADD SWAP1 PUSH2 0x14C SWAP2 SWAP1 PUSH2 0xAE6 JUMP JUMPDEST PUSH2 0x5E6 JUMP JUMPDEST STOP JUMPDEST PUSH1 0x0 DUP2 DUP2 SLOAD DUP2 LT PUSH2 0x163 JUMPI PUSH1 0x0 DUP1 REVERT JUMPDEST SWAP1 PUSH1 0x0 MSTORE PUSH1 0x20 PUSH1 0x0 KECCAK256 SWAP1 PUSH1 0x2 MUL ADD PUSH1 0x0 SWAP2 POP SWAP1 POP DUP1 PUSH1 0x0 ADD PUSH1 0x0 SWAP1 SLOAD SWAP1 PUSH2 0x100 EXP SWAP1 DIV PUSH20 0xFFFFFFFFFFFFFFFFFFFFFFFFFFFFFFFFFFFFFFFF AND SWAP1 DUP1 PUSH1 0x1 ADD SLOAD SWAP1 POP DUP3 JUMP JUMPDEST PUSH1 0x0 PUSH1 0x3C DUP5 PUSH2 0x1B6 SWAP2 SWAP1 PUSH2 0xBA8 JUMP JUMPDEST SWAP1 POP PUSH1 0x0 DUP2 TIMESTAMP PUSH2 0x1C6 SWAP2 SWAP1 PUSH2 0xBEA JUMP JUMPDEST SWAP1 POP PUSH1 0x40 MLOAD DUP1 PUSH1 0xE0 ADD PUSH1 0x40 MSTORE DUP1 CALLER PUSH20 0xFFFFFFFFFFFFFFFFFFFFFFFFFFFFFFFFFFFFFFFF AND DUP2 MSTORE PUSH1 0x20 ADD DUP9 PUSH20 0xFFFFFFFFFFFFFFFFFFFFFFFFFFFFFFFFFFFFFFFF AND DUP2 MSTORE PUSH1 0x20 ADD DUP8 DUP2 MSTORE PUSH1 0x20 ADD TIMESTAMP DUP2 MSTORE PUSH1 0x20 ADD DUP3 DUP2 MSTORE PUSH1 0x20 ADD DUP6 DUP2 MSTORE PUSH1 0x20 ADD DUP5 PUSH20 0xFFFFFFFFFFFFFFFFFFFFFFFFFFFFFFFFFFFFFFFF AND DUP2 MSTORE POP PUSH1 0x1 PUSH1 0x0 TIMESTAMP DUP2 MSTORE PUSH1 0x20 ADD SWAP1 DUP2 MSTORE PUSH1 0x20 ADD PUSH1 0x0 KECCAK256 PUSH1 0x0 DUP3 ADD MLOAD DUP2 PUSH1 0x0 ADD PUSH1 0x0 PUSH2 0x100 EXP DUP2 SLOAD DUP2 PUSH20 0xFFFFFFFFFFFFFFFFFFFFFFFFFFFFFFFFFFFFFFFF MUL NOT AND SWAP1 DUP4 PUSH20 0xFFFFFFFFFFFFFFFFFFFFFFFFFFFFFFFFFFFFFFFF AND MUL OR SWAP1 SSTORE POP PUSH1 0x20 DUP3 ADD MLOAD DUP2 PUSH1 0x1 ADD PUSH1 0x0 PUSH2 0x100 EXP DUP2 SLOAD DUP2 PUSH20 0xFFFFFFFFFFFFFFFFFFFFFFFFFFFFFFFFFFFFFFFF MUL NOT AND SWAP1 DUP4 PUSH20 0xFFFFFFFFFFFFFFFFFFFFFFFFFFFFFFFFFFFFFFFF AND MUL OR SWAP1 SSTORE POP PUSH1 0x40 DUP3 ADD MLOAD DUP2 PUSH1 0x2 ADD SSTORE PUSH1 0x60 DUP3 ADD MLOAD DUP2 PUSH1 0x3 ADD SSTORE PUSH1 0x80 DUP3 ADD MLOAD DUP2 PUSH1 0x4 ADD SSTORE PUSH1 0xA0 DUP3 ADD MLOAD DUP2 PUSH1 0x5 ADD SSTORE PUSH1 0xC0 DUP3 ADD MLOAD DUP2 PUSH1 0x6 ADD PUSH1 0x0 PUSH2 0x100 EXP DUP2 SLOAD DUP2 PUSH20 0xFFFFFFFFFFFFFFFFFFFFFFFFFFFFFFFFFFFFFFFF MUL NOT AND SWAP1 DUP4 PUSH20 0xFFFFFFFFFFFFFFFFFFFFFFFFFFFFFFFFFFFFFFFF AND MUL OR SWAP1 SSTORE POP SWAP1 POP POP PUSH2 0x3A1 DUP7 PUSH1 0x2 PUSH1 0x0 DUP11 PUSH20 0xFFFFFFFFFFFFFFFFFFFFFFFFFFFFFFFFFFFFFFFF AND PUSH20 0xFFFFFFFFFFFFFFFFFFFFFFFFFFFFFFFFFFFFFFFF AND DUP2 MSTORE PUSH1 0x20 ADD SWAP1 DUP2 MSTORE PUSH1 0x20 ADD PUSH1 0x0 KECCAK256 PUSH2 0x714 SWAP1 SWAP2 SWAP1 PUSH4 0xFFFFFFFF AND JUMP JUMPDEST POP POP POP POP POP POP POP POP JUMP JUMPDEST PUSH1 0x1 PUSH1 0x20 MSTORE DUP1 PUSH1 0x0 MSTORE PUSH1 0x40 PUSH1 0x0 KECCAK256 PUSH1 0x0 SWAP2 POP SWAP1 POP DUP1 PUSH1 0x0 ADD PUSH1 0x0 SWAP1 SLOAD SWAP1 PUSH2 0x100 EXP SWAP1 DIV PUSH20 0xFFFFFFFFFFFFFFFFFFFFFFFFFFFFFFFFFFFFFFFF AND SWAP1 DUP1 PUSH1 0x1 ADD PUSH1 0x0 SWAP1 SLOAD SWAP1 PUSH2 0x100 EXP SWAP1 DIV PUSH20 0xFFFFFFFFFFFFFFFFFFFFFFFFFFFFFFFFFFFFFFFF AND SWAP1 DUP1 PUSH1 0x2 ADD SLOAD SWAP1 DUP1 PUSH1 0x3 ADD SLOAD SWAP1 DUP1 PUSH1 0x4 ADD SLOAD SWAP1 DUP1 PUSH1 0x5 ADD SLOAD SWAP1 DUP1 PUSH1 0x6 ADD PUSH1 0x0 SWAP1 SLOAD SWAP1 PUSH2 0x100 EXP SWAP1 DIV PUSH20 0xFFFFFFFFFFFFFFFFFFFFFFFFFFFFFFFFFFFFFFFF AND SWAP1 POP DUP8 JUMP JUMPDEST PUSH1 0x3 PUSH1 0x20 MSTORE DUP2 PUSH1 0x0 MSTORE PUSH1 0x40 PUSH1 0x0 KECCAK256 DUP2 DUP2 SLOAD DUP2 LT PUSH2 0x469 JUMPI PUSH1 0x0 DUP1 REVERT JUMPDEST SWAP1 PUSH1 0x0 MSTORE PUSH1 0x20 PUSH1 0x0 KECCAK256 SWAP1 PUSH1 0x2 MUL ADD PUSH1 0x0 SWAP2 POP SWAP2 POP POP DUP1 PUSH1 0x0 ADD PUSH1 0x0 SWAP1 SLOAD SWAP1 PUSH2 0x100 EXP SWAP1 DIV PUSH20 0xFFFFFFFFFFFFFFFFFFFFFFFFFFFFFFFFFFFFFFFF AND SWAP1 DUP1 PUSH1 0x1 ADD SLOAD SWAP1 POP DUP3 JUMP JUMPDEST PUSH1 0x0 DUP4 SWAP1 POP PUSH2 0x504 DUP4 PUSH1 0x2 PUSH1 0x0 DUP8 PUSH20 0xFFFFFFFFFFFFFFFFFFFFFFFFFFFFFFFFFFFFFFFF AND PUSH20 0xFFFFFFFFFFFFFFFFFFFFFFFFFFFFFFFFFFFFFFFF AND DUP2 MSTORE PUSH1 0x20 ADD SWAP1 DUP2 MSTORE PUSH1 0x20 ADD PUSH1 0x0 KECCAK256 PUSH2 0x72E SWAP1 SWAP2 SWAP1 PUSH4 0xFFFFFFFF AND JUMP JUMPDEST POP DUP1 PUSH20 0xFFFFFFFFFFFFFFFFFFFFFFFFFFFFFFFFFFFFFFFF AND PUSH4 0x42842E0E PUSH1 0x1 PUSH1 0x0 DUP6 DUP2 MSTORE PUSH1 0x20 ADD SWAP1 DUP2 MSTORE PUSH1 0x20 ADD PUSH1 0x0 KECCAK256 PUSH1 0x0 ADD PUSH1 0x0 SWAP1 SLOAD SWAP1 PUSH2 0x100 EXP SWAP1 DIV PUSH20 0xFFFFFFFFFFFFFFFFFFFFFFFFFFFFFFFFFFFFFFFF AND PUSH1 0x1 PUSH1 0x0 DUP7 DUP2 MSTORE PUSH1 0x20 ADD SWAP1 DUP2 MSTORE PUSH1 0x20 ADD PUSH1 0x0 KECCAK256 PUSH1 0x6 ADD PUSH1 0x0 SWAP1 SLOAD SWAP1 PUSH2 0x100 EXP SWAP1 DIV PUSH20 0xFFFFFFFFFFFFFFFFFFFFFFFFFFFFFFFFFFFFFFFF AND DUP7 PUSH1 0x40 MLOAD DUP5 PUSH4 0xFFFFFFFF AND PUSH1 0xE0 SHL DUP2 MSTORE PUSH1 0x4 ADD PUSH2 0x5AE SWAP4 SWAP3 SWAP2 SWAP1 PUSH2 0xC1E JUMP JUMPDEST PUSH1 0x0 PUSH1 0x40 MLOAD DUP1 DUP4 SUB DUP2 PUSH1 0x0 DUP8 DUP1 EXTCODESIZE ISZERO DUP1 ISZERO PUSH2 0x5C8 JUMPI PUSH1 0x0 DUP1 REVERT JUMPDEST POP GAS CALL ISZERO DUP1 ISZERO PUSH2 0x5DC JUMPI RETURNDATASIZE PUSH1 0x0 DUP1 RETURNDATACOPY RETURNDATASIZE PUSH1 0x0 REVERT JUMPDEST POP POP POP POP POP POP POP POP JUMP JUMPDEST PUSH1 0x3 PUSH1 0x0 DUP3 DUP2 MSTORE PUSH1 0x20 ADD SWAP1 DUP2 MSTORE PUSH1 0x20 ADD PUSH1 0x0 KECCAK256 PUSH1 0x40 MLOAD DUP1 PUSH1 0x40 ADD PUSH1 0x40 MSTORE DUP1 CALLER PUSH20 0xFFFFFFFFFFFFFFFFFFFFFFFFFFFFFFFFFFFFFFFF AND DUP2 MSTORE PUSH1 0x20 ADD DUP5 DUP2 MSTORE POP SWAP1 DUP1 PUSH1 0x1 DUP2 SLOAD ADD DUP1 DUP3 SSTORE DUP1 SWAP2 POP POP PUSH1 0x1 SWAP1 SUB SWAP1 PUSH1 0x0 MSTORE PUSH1 0x20 PUSH1 0x0 KECCAK256 SWAP1 PUSH1 0x2 MUL ADD PUSH1 0x0 SWAP1 SWAP2 SWAP1 SWAP2 SWAP1 SWAP2 POP PUSH1 0x0 DUP3 ADD MLOAD DUP2 PUSH1 0x0 ADD PUSH1 0x0 PUSH2 0x100 EXP DUP2 SLOAD DUP2 PUSH20 0xFFFFFFFFFFFFFFFFFFFFFFFFFFFFFFFFFFFFFFFF MUL NOT AND SWAP1 DUP4 PUSH20 0xFFFFFFFFFFFFFFFFFFFFFFFFFFFFFFFFFFFFFFFF AND MUL OR SWAP1 SSTORE POP PUSH1 0x20 DUP3 ADD MLOAD DUP2 PUSH1 0x1 ADD SSTORE POP POP DUP2 PUSH1 0x1 PUSH1 0x0 DUP4 DUP2 MSTORE PUSH1 0x20 ADD SWAP1 DUP2 MSTORE PUSH1 0x20 ADD PUSH1 0x0 KECCAK256 PUSH1 0x5 ADD DUP2 SWAP1 SSTORE POP CALLER PUSH1 0x1 PUSH1 0x0 DUP4 DUP2 MSTORE PUSH1 0x20 ADD SWAP1 DUP2 MSTORE PUSH1 0x20 ADD PUSH1 0x0 KECCAK256 PUSH1 0x6 ADD PUSH1 0x0 PUSH2 0x100 EXP DUP2 SLOAD DUP2 PUSH20 0xFFFFFFFFFFFFFFFFFFFFFFFFFFFFFFFFFFFFFFFF MUL NOT AND SWAP1 DUP4 PUSH20 0xFFFFFFFFFFFFFFFFFFFFFFFFFFFFFFFFFFFFFFFF AND MUL OR SWAP1 SSTORE POP POP POP JUMP JUMPDEST PUSH1 0x0 PUSH2 0x726 DUP4 PUSH1 0x0 ADD DUP4 PUSH1 0x0 SHL PUSH2 0x748 JUMP JUMPDEST SWAP1 POP SWAP3 SWAP2 POP POP JUMP JUMPDEST PUSH1 0x0 PUSH2 0x740 DUP4 PUSH1 0x0 ADD DUP4 PUSH1 0x0 SHL PUSH2 0x7B8 JUMP JUMPDEST SWAP1 POP SWAP3 SWAP2 POP POP JUMP JUMPDEST PUSH1 0x0 PUSH2 0x754 DUP4 DUP4 PUSH2 0x8CC JUMP JUMPDEST PUSH2 0x7AD JUMPI DUP3 PUSH1 0x0 ADD DUP3 SWAP1 DUP1 PUSH1 0x1 DUP2 SLOAD ADD DUP1 DUP3 SSTORE DUP1 SWAP2 POP POP PUSH1 0x1 SWAP1 SUB SWAP1 PUSH1 0x0 MSTORE PUSH1 0x20 PUSH1 0x0 KECCAK256 ADD PUSH1 0x0 SWAP1 SWAP2 SWAP1 SWAP2 SWAP1 SWAP2 POP SSTORE DUP3 PUSH1 0x0 ADD DUP1 SLOAD SWAP1 POP DUP4 PUSH1 0x1 ADD PUSH1 0x0 DUP5 DUP2 MSTORE PUSH1 0x20 ADD SWAP1 DUP2 MSTORE PUSH1 0x20 ADD PUSH1 0x0 KECCAK256 DUP2 SWAP1 SSTORE POP PUSH1 0x1 SWAP1 POP PUSH2 0x7B2 JUMP JUMPDEST PUSH1 0x0 SWAP1 POP JUMPDEST SWAP3 SWAP2 POP POP JUMP JUMPDEST PUSH1 0x0 DUP1 DUP4 PUSH1 0x1 ADD PUSH1 0x0 DUP5 DUP2 MSTORE PUSH1 0x20 ADD SWAP1 DUP2 MSTORE PUSH1 0x20 ADD PUSH1 0x0 KECCAK256 SLOAD SWAP1 POP PUSH1 0x0 DUP2 EQ PUSH2 0x8C0 JUMPI PUSH1 0x0 PUSH1 0x1 DUP3 PUSH2 0x7EA SWAP2 SWAP1 PUSH2 0xC55 JUMP JUMPDEST SWAP1 POP PUSH1 0x0 PUSH1 0x1 DUP7 PUSH1 0x0 ADD DUP1 SLOAD SWAP1 POP PUSH2 0x802 SWAP2 SWAP1 PUSH2 0xC55 JUMP JUMPDEST SWAP1 POP DUP2 DUP2 EQ PUSH2 0x871 JUMPI PUSH1 0x0 DUP7 PUSH1 0x0 ADD DUP3 DUP2 SLOAD DUP2 LT PUSH2 0x823 JUMPI PUSH2 0x822 PUSH2 0xC89 JUMP JUMPDEST JUMPDEST SWAP1 PUSH1 0x0 MSTORE PUSH1 0x20 PUSH1 0x0 KECCAK256 ADD SLOAD SWAP1 POP DUP1 DUP8 PUSH1 0x0 ADD DUP5 DUP2 SLOAD DUP2 LT PUSH2 0x847 JUMPI PUSH2 0x846 PUSH2 0xC89 JUMP JUMPDEST JUMPDEST SWAP1 PUSH1 0x0 MSTORE PUSH1 0x20 PUSH1 0x0 KECCAK256 ADD DUP2 SWAP1 SSTORE POP DUP4 DUP8 PUSH1 0x1 ADD PUSH1 0x0 DUP4 DUP2 MSTORE PUSH1 0x20 ADD SWAP1 DUP2 MSTORE PUSH1 0x20 ADD PUSH1 0x0 KECCAK256 DUP2 SWAP1 SSTORE POP POP JUMPDEST DUP6 PUSH1 0x0 ADD DUP1 SLOAD DUP1 PUSH2 0x885 JUMPI PUSH2 0x884 PUSH2 0xCB8 JUMP JUMPDEST JUMPDEST PUSH1 0x1 SWAP1 SUB DUP2 DUP2 SWAP1 PUSH1 0x0 MSTORE PUSH1 0x20 PUSH1 0x0 KECCAK256 ADD PUSH1 0x0 SWAP1 SSTORE SWAP1 SSTORE DUP6 PUSH1 0x1 ADD PUSH1 0x0 DUP7 DUP2 MSTORE PUSH1 0x20 ADD SWAP1 DUP2 MSTORE PUSH1 0x20 ADD PUSH1 0x0 KECCAK256 PUSH1 0x0 SWAP1 SSTORE PUSH1 0x1 SWAP4 POP POP POP POP PUSH2 0x8C6 JUMP JUMPDEST PUSH1 0x0 SWAP2 POP POP JUMPDEST SWAP3 SWAP2 POP POP JUMP JUMPDEST PUSH1 0x0 DUP1 DUP4 PUSH1 0x1 ADD PUSH1 0x0 DUP5 DUP2 MSTORE PUSH1 0x20 ADD SWAP1 DUP2 MSTORE PUSH1 0x20 ADD PUSH1 0x0 KECCAK256 SLOAD EQ ISZERO SWAP1 POP SWAP3 SWAP2 POP POP JUMP JUMPDEST PUSH1 0x0 DUP1 REVERT JUMPDEST PUSH1 0x0 DUP2 SWAP1 POP SWAP2 SWAP1 POP JUMP JUMPDEST PUSH2 0x907 DUP2 PUSH2 0x8F4 JUMP JUMPDEST DUP2 EQ PUSH2 0x912 JUMPI PUSH1 0x0 DUP1 REVERT JUMPDEST POP JUMP JUMPDEST PUSH1 0x0 DUP2 CALLDATALOAD SWAP1 POP PUSH2 0x924 DUP2 PUSH2 0x8FE JUMP JUMPDEST SWAP3 SWAP2 POP POP JUMP JUMPDEST PUSH1 0x0 PUSH1 0x20 DUP3 DUP5 SUB SLT ISZERO PUSH2 0x940 JUMPI PUSH2 0x93F PUSH2 0x8EF JUMP JUMPDEST JUMPDEST PUSH1 0x0 PUSH2 0x94E DUP5 DUP3 DUP6 ADD PUSH2 0x915 JUMP JUMPDEST SWAP2 POP POP SWAP3 SWAP2 POP POP JUMP JUMPDEST PUSH1 0x0 PUSH20 0xFFFFFFFFFFFFFFFFFFFFFFFFFFFFFFFFFFFFFFFF DUP3 AND SWAP1 POP SWAP2 SWAP1 POP JUMP JUMPDEST PUSH1 0x0 PUSH2 0x982 DUP3 PUSH2 0x957 JUMP JUMPDEST SWAP1 POP SWAP2 SWAP1 POP JUMP JUMPDEST PUSH2 0x992 DUP2 PUSH2 0x977 JUMP JUMPDEST DUP3 MSTORE POP POP JUMP JUMPDEST PUSH2 0x9A1 DUP2 PUSH2 0x8F4 JUMP JUMPDEST DUP3 MSTORE POP POP JUMP JUMPDEST PUSH1 0x0 PUSH1 0x40 DUP3 ADD SWAP1 POP PUSH2 0x9BC PUSH1 0x0 DUP4 ADD DUP6 PUSH2 0x989 JUMP JUMPDEST PUSH2 0x9C9 PUSH1 0x20 DUP4 ADD DUP5 PUSH2 0x998 JUMP JUMPDEST SWAP4 SWAP3 POP POP POP JUMP JUMPDEST PUSH2 0x9D9 DUP2 PUSH2 0x977 JUMP JUMPDEST DUP2 EQ PUSH2 0x9E4 JUMPI PUSH1 0x0 DUP1 REVERT JUMPDEST POP JUMP JUMPDEST PUSH1 0x0 DUP2 CALLDATALOAD SWAP1 POP PUSH2 0x9F6 DUP2 PUSH2 0x9D0 JUMP JUMPDEST SWAP3 SWAP2 POP POP JUMP JUMPDEST PUSH1 0x0 DUP1 PUSH1 0x0 DUP1 PUSH1 0x0 PUSH1 0xA0 DUP7 DUP9 SUB SLT ISZERO PUSH2 0xA18 JUMPI PUSH2 0xA17 PUSH2 0x8EF JUMP JUMPDEST JUMPDEST PUSH1 0x0 PUSH2 0xA26 DUP9 DUP3 DUP10 ADD PUSH2 0x9E7 JUMP JUMPDEST SWAP6 POP POP PUSH1 0x20 PUSH2 0xA37 DUP9 DUP3 DUP10 ADD PUSH2 0x915 JUMP JUMPDEST SWAP5 POP POP PUSH1 0x40 PUSH2 0xA48 DUP9 DUP3 DUP10 ADD PUSH2 0x915 JUMP JUMPDEST SWAP4 POP POP PUSH1 0x60 PUSH2 0xA59 DUP9 DUP3 DUP10 ADD PUSH2 0x915 JUMP JUMPDEST SWAP3 POP POP PUSH1 0x80 PUSH2 0xA6A DUP9 DUP3 DUP10 ADD PUSH2 0x9E7 JUMP JUMPDEST SWAP2 POP POP SWAP3 SWAP6 POP SWAP3 SWAP6 SWAP1 SWAP4 POP JUMP JUMPDEST PUSH1 0x0 PUSH1 0xE0 DUP3 ADD SWAP1 POP PUSH2 0xA8C PUSH1 0x0 DUP4 ADD DUP11 PUSH2 0x989 JUMP JUMPDEST PUSH2 0xA99 PUSH1 0x20 DUP4 ADD DUP10 PUSH2 0x989 JUMP JUMPDEST PUSH2 0xAA6 PUSH1 0x40 DUP4 ADD DUP9 PUSH2 0x998 JUMP JUMPDEST PUSH2 0xAB3 PUSH1 0x60 DUP4 ADD DUP8 PUSH2 0x998 JUMP JUMPDEST PUSH2 0xAC0 PUSH1 0x80 DUP4 ADD DUP7 PUSH2 0x998 JUMP JUMPDEST PUSH2 0xACD PUSH1 0xA0 DUP4 ADD DUP6 PUSH2 0x998 JUMP JUMPDEST PUSH2 0xADA PUSH1 0xC0 DUP4 ADD DUP5 PUSH2 0x989 JUMP JUMPDEST SWAP9 SWAP8 POP POP POP POP POP POP POP POP JUMP JUMPDEST PUSH1 0x0 DUP1 PUSH1 0x40 DUP4 DUP6 SUB SLT ISZERO PUSH2 0xAFD JUMPI PUSH2 0xAFC PUSH2 0x8EF JUMP JUMPDEST JUMPDEST PUSH1 0x0 PUSH2 0xB0B DUP6 DUP3 DUP7 ADD PUSH2 0x915 JUMP JUMPDEST SWAP3 POP POP PUSH1 0x20 PUSH2 0xB1C DUP6 DUP3 DUP7 ADD PUSH2 0x915 JUMP JUMPDEST SWAP2 POP POP SWAP3 POP SWAP3 SWAP1 POP JUMP JUMPDEST PUSH1 0x0 DUP1 PUSH1 0x0 PUSH1 0x60 DUP5 DUP7 SUB SLT ISZERO PUSH2 0xB3F JUMPI PUSH2 0xB3E PUSH2 0x8EF JUMP JUMPDEST JUMPDEST PUSH1 0x0 PUSH2 0xB4D DUP7 DUP3 DUP8 ADD PUSH2 0x9E7 JUMP JUMPDEST SWAP4 POP POP PUSH1 0x20 PUSH2 0xB5E DUP7 DUP3 DUP8 ADD PUSH2 0x915 JUMP JUMPDEST SWAP3 POP POP PUSH1 0x40 PUSH2 0xB6F DUP7 DUP3 DUP8 ADD PUSH2 0x915 JUMP JUMPDEST SWAP2 POP POP SWAP3 POP SWAP3 POP SWAP3 JUMP JUMPDEST PUSH32 0x4E487B7100000000000000000000000000000000000000000000000000000000 PUSH1 0x0 MSTORE PUSH1 0x11 PUSH1 0x4 MSTORE PUSH1 0x24 PUSH1 0x0 REVERT JUMPDEST PUSH1 0x0 PUSH2 0xBB3 DUP3 PUSH2 0x8F4 JUMP JUMPDEST SWAP2 POP PUSH2 0xBBE DUP4 PUSH2 0x8F4 JUMP JUMPDEST SWAP3 POP DUP3 DUP3 MUL PUSH2 0xBCC DUP2 PUSH2 0x8F4 JUMP JUMPDEST SWAP2 POP DUP3 DUP3 DIV DUP5 EQ DUP4 ISZERO OR PUSH2 0xBE3 JUMPI PUSH2 0xBE2 PUSH2 0xB79 JUMP JUMPDEST JUMPDEST POP SWAP3 SWAP2 POP POP JUMP JUMPDEST PUSH1 0x0 PUSH2 0xBF5 DUP3 PUSH2 0x8F4 JUMP JUMPDEST SWAP2 POP PUSH2 0xC00 DUP4 PUSH2 0x8F4 JUMP JUMPDEST SWAP3 POP DUP3 DUP3 ADD SWAP1 POP DUP1 DUP3 GT ISZERO PUSH2 0xC18 JUMPI PUSH2 0xC17 PUSH2 0xB79 JUMP JUMPDEST JUMPDEST SWAP3 SWAP2 POP POP JUMP JUMPDEST PUSH1 0x0 PUSH1 0x60 DUP3 ADD SWAP1 POP PUSH2 0xC33 PUSH1 0x0 DUP4 ADD DUP7 PUSH2 0x989 JUMP JUMPDEST PUSH2 0xC40 PUSH1 0x20 DUP4 ADD DUP6 PUSH2 0x989 JUMP JUMPDEST PUSH2 0xC4D PUSH1 0x40 DUP4 ADD DUP5 PUSH2 0x998 JUMP JUMPDEST SWAP5 SWAP4 POP POP POP POP JUMP JUMPDEST PUSH1 0x0 PUSH2 0xC60 DUP3 PUSH2 0x8F4 JUMP JUMPDEST SWAP2 POP PUSH2 0xC6B DUP4 PUSH2 0x8F4 JUMP JUMPDEST SWAP3 POP DUP3 DUP3 SUB SWAP1 POP DUP2 DUP2 GT ISZERO PUSH2 0xC83 JUMPI PUSH2 0xC82 PUSH2 0xB79 JUMP JUMPDEST JUMPDEST SWAP3 SWAP2 POP POP JUMP JUMPDEST PUSH32 0x4E487B7100000000000000000000000000000000000000000000000000000000 PUSH1 0x0 MSTORE PUSH1 0x32 PUSH1 0x4 MSTORE PUSH1 0x24 PUSH1 0x0 REVERT JUMPDEST PUSH32 0x4E487B7100000000000000000000000000000000000000000000000000000000 PUSH1 0x0 MSTORE PUSH1 0x31 PUSH1 0x4 MSTORE PUSH1 0x24 PUSH1 0x0 REVERT INVALID LOG2 PUSH5 0x6970667358 0x22 SLT KECCAK256 PUSH17 0x9E39D08FEBFA9B20CA262F95C7F4D48384 0xB6 POP 0x4C 0xB5 0x5D CALL 0xBE SWAP4 0xBA POP DUP2 0x4A CHAINID 0xAF PUSH5 0x736F6C6343 STOP ADDMOD GT STOP CALLER "
				},
				"gasEstimates": {
					"creation": {
						"codeDepositCost": "671400",
						"executionCost": "702",
						"totalCost": "672102"
					},
					"external": {
						"Auction(address,uint256,uint256,uint256,address)": "infinite",
						"AuctionedNFTs(uint256)": "infinite",
						"EndAuction(address,uint256,uint256)": "infinite",
						"PlaceBid(uint256,uint256)": "infinite",
						"bidders(uint256,uint256)": "infinite",
						"biddersInfo(uint256)": "infinite"
					}
				},
				"methodIdentifiers": {
					"Auction(address,uint256,uint256,uint256,address)": "3e9add40",
					"AuctionedNFTs(uint256)": "95873d62",
					"EndAuction(address,uint256,uint256)": "e99da2a5",
					"PlaceBid(uint256,uint256)": "ee7a4197",
					"bidders(uint256,uint256)": "d1c11205",
					"biddersInfo(uint256)": "036f40a3"
				}
			},
			"storageLayout": {
				"storage": [
					{
						"astId": 2265,
						"contract": "contracts/distantauction.sol:DistantFiAuction",
						"label": "biddersInfo",
						"offset": 0,
						"slot": "0",
						"type": "t_array(t_struct(bids)2246_storage)dyn_storage"
					},
					{
						"astId": 2270,
						"contract": "contracts/distantauction.sol:DistantFiAuction",
						"label": "AuctionedNFTs",
						"offset": 0,
						"slot": "1",
						"type": "t_mapping(t_uint256,t_struct(auctionDetails)2261_storage)"
					},
					{
						"astId": 2275,
						"contract": "contracts/distantauction.sol:DistantFiAuction",
						"label": "AuctionCheck",
						"offset": 0,
						"slot": "2",
						"type": "t_mapping(t_address,t_struct(UintSet)2032_storage)"
					},
					{
						"astId": 2281,
						"contract": "contracts/distantauction.sol:DistantFiAuction",
						"label": "bidders",
						"offset": 0,
						"slot": "3",
						"type": "t_mapping(t_uint256,t_array(t_struct(bids)2246_storage)dyn_storage)"
					}
				],
				"types": {
					"t_address": {
						"encoding": "inplace",
						"label": "address",
						"numberOfBytes": "20"
					},
					"t_array(t_bytes32)dyn_storage": {
						"base": "t_bytes32",
						"encoding": "dynamic_array",
						"label": "bytes32[]",
						"numberOfBytes": "32"
					},
					"t_array(t_struct(bids)2246_storage)dyn_storage": {
						"base": "t_struct(bids)2246_storage",
						"encoding": "dynamic_array",
						"label": "struct DistantFiAuction.bids[]",
						"numberOfBytes": "32"
					},
					"t_bytes32": {
						"encoding": "inplace",
						"label": "bytes32",
						"numberOfBytes": "32"
					},
					"t_mapping(t_address,t_struct(UintSet)2032_storage)": {
						"encoding": "mapping",
						"key": "t_address",
						"label": "mapping(address => struct EnumerableSet.UintSet)",
						"numberOfBytes": "32",
						"value": "t_struct(UintSet)2032_storage"
					},
					"t_mapping(t_bytes32,t_uint256)": {
						"encoding": "mapping",
						"key": "t_bytes32",
						"label": "mapping(bytes32 => uint256)",
						"numberOfBytes": "32",
						"value": "t_uint256"
					},
					"t_mapping(t_uint256,t_array(t_struct(bids)2246_storage)dyn_storage)": {
						"encoding": "mapping",
						"key": "t_uint256",
						"label": "mapping(uint256 => struct DistantFiAuction.bids[])",
						"numberOfBytes": "32",
						"value": "t_array(t_struct(bids)2246_storage)dyn_storage"
					},
					"t_mapping(t_uint256,t_struct(auctionDetails)2261_storage)": {
						"encoding": "mapping",
						"key": "t_uint256",
						"label": "mapping(uint256 => struct DistantFiAuction.auctionDetails)",
						"numberOfBytes": "32",
						"value": "t_struct(auctionDetails)2261_storage"
					},
					"t_struct(Set)1574_storage": {
						"encoding": "inplace",
						"label": "struct EnumerableSet.Set",
						"members": [
							{
								"astId": 1569,
								"contract": "contracts/distantauction.sol:DistantFiAuction",
								"label": "_values",
								"offset": 0,
								"slot": "0",
								"type": "t_array(t_bytes32)dyn_storage"
							},
							{
								"astId": 1573,
								"contract": "contracts/distantauction.sol:DistantFiAuction",
								"label": "_indexes",
								"offset": 0,
								"slot": "1",
								"type": "t_mapping(t_bytes32,t_uint256)"
							}
						],
						"numberOfBytes": "64"
					},
					"t_struct(UintSet)2032_storage": {
						"encoding": "inplace",
						"label": "struct EnumerableSet.UintSet",
						"members": [
							{
								"astId": 2031,
								"contract": "contracts/distantauction.sol:DistantFiAuction",
								"label": "_inner",
								"offset": 0,
								"slot": "0",
								"type": "t_struct(Set)1574_storage"
							}
						],
						"numberOfBytes": "64"
					},
					"t_struct(auctionDetails)2261_storage": {
						"encoding": "inplace",
						"label": "struct DistantFiAuction.auctionDetails",
						"members": [
							{
								"astId": 2248,
								"contract": "contracts/distantauction.sol:DistantFiAuction",
								"label": "seller",
								"offset": 0,
								"slot": "0",
								"type": "t_address"
							},
							{
								"astId": 2250,
								"contract": "contracts/distantauction.sol:DistantFiAuction",
								"label": "nftCollectionAddress",
								"offset": 0,
								"slot": "1",
								"type": "t_address"
							},
							{
								"astId": 2252,
								"contract": "contracts/distantauction.sol:DistantFiAuction",
								"label": "tokenId",
								"offset": 0,
								"slot": "2",
								"type": "t_uint256"
							},
							{
								"astId": 2254,
								"contract": "contracts/distantauction.sol:DistantFiAuction",
								"label": "startTime",
								"offset": 0,
								"slot": "3",
								"type": "t_uint256"
							},
							{
								"astId": 2256,
								"contract": "contracts/distantauction.sol:DistantFiAuction",
								"label": "Duration",
								"offset": 0,
								"slot": "4",
								"type": "t_uint256"
							},
							{
								"astId": 2258,
								"contract": "contracts/distantauction.sol:DistantFiAuction",
								"label": "Currentprice",
								"offset": 0,
								"slot": "5",
								"type": "t_uint256"
							},
							{
								"astId": 2260,
								"contract": "contracts/distantauction.sol:DistantFiAuction",
								"label": "highestBidder",
								"offset": 0,
								"slot": "6",
								"type": "t_address"
							}
						],
						"numberOfBytes": "224"
					},
					"t_struct(bids)2246_storage": {
						"encoding": "inplace",
						"label": "struct DistantFiAuction.bids",
						"members": [
							{
								"astId": 2243,
								"contract": "contracts/distantauction.sol:DistantFiAuction",
								"label": "bidder",
								"offset": 0,
								"slot": "0",
								"type": "t_address"
							},
							{
								"astId": 2245,
								"contract": "contracts/distantauction.sol:DistantFiAuction",
								"label": "price",
								"offset": 0,
								"slot": "1",
								"type": "t_uint256"
							}
						],
						"numberOfBytes": "64"
					},
					"t_uint256": {
						"encoding": "inplace",
						"label": "uint256",
						"numberOfBytes": "32"
					}
				}
			},
			"userdoc": {
				"kind": "user",
				"methods": {},
				"version": 1
			}
		}
	}
}