{
	"contracts/betting.sol": {
		"DistanceFiBET": {
			"abi": [
				{
					"inputs": [],
					"stateMutability": "nonpayable",
					"type": "constructor"
				},
				{
					"inputs": [
						{
							"internalType": "uint256",
							"name": "",
							"type": "uint256"
						}
					],
					"name": "Game",
					"outputs": [
						{
							"internalType": "string",
							"name": "HomeTeam",
							"type": "string"
						},
						{
							"internalType": "string",
							"name": "AwayTeam",
							"type": "string"
						},
						{
							"internalType": "uint256",
							"name": "startTime",
							"type": "uint256"
						},
						{
							"internalType": "uint256",
							"name": "endTime",
							"type": "uint256"
						},
						{
							"components": [
								{
									"internalType": "uint256",
									"name": "Home_score",
									"type": "uint256"
								},
								{
									"internalType": "uint256",
									"name": "Away_score",
									"type": "uint256"
								}
							],
							"internalType": "struct DistanceFiBET.Results",
							"name": "results",
							"type": "tuple"
						}
					],
					"stateMutability": "view",
					"type": "function"
				},
				{
					"inputs": [],
					"name": "admin",
					"outputs": [
						{
							"internalType": "address",
							"name": "",
							"type": "address"
						}
					],
					"stateMutability": "view",
					"type": "function"
				},
				{
					"inputs": [
						{
							"internalType": "uint256",
							"name": "",
							"type": "uint256"
						}
					],
					"name": "allMatch",
					"outputs": [
						{
							"internalType": "string",
							"name": "HomeTeam",
							"type": "string"
						},
						{
							"internalType": "string",
							"name": "AwayTeam",
							"type": "string"
						},
						{
							"internalType": "uint256",
							"name": "startTime",
							"type": "uint256"
						},
						{
							"internalType": "uint256",
							"name": "endTime",
							"type": "uint256"
						},
						{
							"components": [
								{
									"internalType": "uint256",
									"name": "Home_score",
									"type": "uint256"
								},
								{
									"internalType": "uint256",
									"name": "Away_score",
									"type": "uint256"
								}
							],
							"internalType": "struct DistanceFiBET.Results",
							"name": "results",
							"type": "tuple"
						}
					],
					"stateMutability": "view",
					"type": "function"
				},
				{
					"inputs": [
						{
							"internalType": "uint256",
							"name": "epoch",
							"type": "uint256"
						},
						{
							"internalType": "uint256",
							"name": "_homeScore",
							"type": "uint256"
						},
						{
							"internalType": "uint256",
							"name": "_awayScore",
							"type": "uint256"
						}
					],
					"name": "closeMatch",
					"outputs": [],
					"stateMutability": "nonpayable",
					"type": "function"
				},
				{
					"inputs": [
						{
							"internalType": "string",
							"name": "_HomeTeam",
							"type": "string"
						},
						{
							"internalType": "string",
							"name": "_AwayTeam",
							"type": "string"
						},
						{
							"internalType": "uint256",
							"name": "_startTime",
							"type": "uint256"
						}
					],
					"name": "instantiateMatch",
					"outputs": [
						{
							"internalType": "bool",
							"name": "",
							"type": "bool"
						}
					],
					"stateMutability": "nonpayable",
					"type": "function"
				},
				{
					"inputs": [
						{
							"internalType": "uint256",
							"name": "epoch",
							"type": "uint256"
						},
						{
							"internalType": "enum DistanceFiBET.Choices",
							"name": "_betChoice",
							"type": "uint8"
						}
					],
					"name": "placeBet",
					"outputs": [],
					"stateMutability": "payable",
					"type": "function"
				},
				{
					"inputs": [
						{
							"internalType": "uint256",
							"name": "",
							"type": "uint256"
						}
					],
					"name": "specificMatchBets",
					"outputs": [
						{
							"internalType": "address",
							"name": "bettor",
							"type": "address"
						},
						{
							"internalType": "uint256",
							"name": "amount",
							"type": "uint256"
						},
						{
							"internalType": "enum DistanceFiBET.Choices",
							"name": "choice",
							"type": "uint8"
						}
					],
					"stateMutability": "view",
					"type": "function"
				},
				{
					"inputs": [
						{
							"internalType": "address",
							"name": "",
							"type": "address"
						},
						{
							"internalType": "uint256",
							"name": "",
							"type": "uint256"
						}
					],
					"name": "userBet",
					"outputs": [
						{
							"internalType": "enum DistanceFiBET.Choices",
							"name": "bet",
							"type": "uint8"
						},
						{
							"internalType": "uint256",
							"name": "winAmounts",
							"type": "uint256"
						},
						{
							"internalType": "uint256",
							"name": "betAmount",
							"type": "uint256"
						},
						{
							"internalType": "bool",
							"name": "played",
							"type": "bool"
						}
					],
					"stateMutability": "view",
					"type": "function"
				}
			],
			"devdoc": {
				"kind": "dev",
				"methods": {},
				"version": 1
			},
			"evm": {
				"assembly": "    /* \"contracts/betting.sol\":63:2479  contract DistanceFiBET{... */\n  mstore(0x40, 0x80)\n    /* \"contracts/betting.sol\":817:867  constructor(){... */\n  callvalue\n  dup1\n  iszero\n  tag_1\n  jumpi\n  0x00\n  dup1\n  revert\ntag_1:\n  pop\n    /* \"contracts/betting.sol\":849:859  msg.sender */\n  caller\n    /* \"contracts/betting.sol\":841:846  admin */\n  0x00\n  dup1\n    /* \"contracts/betting.sol\":841:859  admin = msg.sender */\n  0x0100\n  exp\n  dup2\n  sload\n  dup2\n  0xffffffffffffffffffffffffffffffffffffffff\n  mul\n  not\n  and\n  swap1\n  dup4\n  0xffffffffffffffffffffffffffffffffffffffff\n  and\n  mul\n  or\n  swap1\n  sstore\n  pop\n    /* \"contracts/betting.sol\":63:2479  contract DistanceFiBET{... */\n  dataSize(sub_0)\n  dup1\n  dataOffset(sub_0)\n  0x00\n  codecopy\n  0x00\n  return\nstop\n\nsub_0: assembly {\n        /* \"contracts/betting.sol\":63:2479  contract DistanceFiBET{... */\n      mstore(0x40, 0x80)\n      jumpi(tag_1, lt(calldatasize, 0x04))\n      shr(0xe0, calldataload(0x00))\n      dup1\n      0xb2edb39f\n      gt\n      tag_10\n      jumpi\n      dup1\n      0xb2edb39f\n      eq\n      tag_6\n      jumpi\n      dup1\n      0xbc9e6e2c\n      eq\n      tag_7\n      jumpi\n      dup1\n      0xec7361a8\n      eq\n      tag_8\n      jumpi\n      dup1\n      0xf851a440\n      eq\n      tag_9\n      jumpi\n      jump(tag_1)\n    tag_10:\n      dup1\n      0x03edf914\n      eq\n      tag_2\n      jumpi\n      dup1\n      0x15a3ae71\n      eq\n      tag_3\n      jumpi\n      dup1\n      0x2172ff16\n      eq\n      tag_4\n      jumpi\n      dup1\n      0x4195ab8e\n      eq\n      tag_5\n      jumpi\n    tag_1:\n      0x00\n      dup1\n      revert\n        /* \"contracts/betting.sol\":1852:2271  function placeBet(uint epoch, Choices _betChoice) payable external {... */\n    tag_2:\n      tag_11\n      0x04\n      dup1\n      calldatasize\n      sub\n      dup2\n      add\n      swap1\n      tag_12\n      swap2\n      swap1\n      tag_13\n      jump\t// in\n    tag_12:\n      tag_14\n      jump\t// in\n    tag_11:\n      stop\n        /* \"contracts/betting.sol\":771:805  allBets[] public specificMatchBets */\n    tag_3:\n      callvalue\n      dup1\n      iszero\n      tag_15\n      jumpi\n      0x00\n      dup1\n      revert\n    tag_15:\n      pop\n      tag_16\n      0x04\n      dup1\n      calldatasize\n      sub\n      dup2\n      add\n      swap1\n      tag_17\n      swap2\n      swap1\n      tag_18\n      jump\t// in\n    tag_17:\n      tag_19\n      jump\t// in\n    tag_16:\n      mload(0x40)\n      tag_20\n      swap4\n      swap3\n      swap2\n      swap1\n      tag_21\n      jump\t// in\n    tag_20:\n      mload(0x40)\n      dup1\n      swap2\n      sub\n      swap1\n      return\n        /* \"contracts/betting.sol\":531:566  mapping (uint => Match) public Game */\n    tag_4:\n      callvalue\n      dup1\n      iszero\n      tag_22\n      jumpi\n      0x00\n      dup1\n      revert\n    tag_22:\n      pop\n      tag_23\n      0x04\n      dup1\n      calldatasize\n      sub\n      dup2\n      add\n      swap1\n      tag_24\n      swap2\n      swap1\n      tag_18\n      jump\t// in\n    tag_24:\n      tag_25\n      jump\t// in\n    tag_23:\n      mload(0x40)\n      tag_26\n      swap6\n      swap5\n      swap4\n      swap3\n      swap2\n      swap1\n      tag_27\n      jump\t// in\n    tag_26:\n      mload(0x40)\n      dup1\n      swap2\n      sub\n      swap1\n      return\n        /* \"contracts/betting.sol\":573:633  mapping (address => mapping (uint => Bettor)) public userBet */\n    tag_5:\n      callvalue\n      dup1\n      iszero\n      tag_28\n      jumpi\n      0x00\n      dup1\n      revert\n    tag_28:\n      pop\n      tag_29\n      0x04\n      dup1\n      calldatasize\n      sub\n      dup2\n      add\n      swap1\n      tag_30\n      swap2\n      swap1\n      tag_31\n      jump\t// in\n    tag_30:\n      tag_32\n      jump\t// in\n    tag_29:\n      mload(0x40)\n      tag_33\n      swap5\n      swap4\n      swap3\n      swap2\n      swap1\n      tag_34\n      jump\t// in\n    tag_33:\n      mload(0x40)\n      dup1\n      swap2\n      sub\n      swap1\n      return\n        /* \"contracts/betting.sol\":640:664  Match [] public allMatch */\n    tag_6:\n      callvalue\n      dup1\n      iszero\n      tag_35\n      jumpi\n      0x00\n      dup1\n      revert\n    tag_35:\n      pop\n      tag_36\n      0x04\n      dup1\n      calldatasize\n      sub\n      dup2\n      add\n      swap1\n      tag_37\n      swap2\n      swap1\n      tag_18\n      jump\t// in\n    tag_37:\n      tag_38\n      jump\t// in\n    tag_36:\n      mload(0x40)\n      tag_39\n      swap6\n      swap5\n      swap4\n      swap3\n      swap2\n      swap1\n      tag_27\n      jump\t// in\n    tag_39:\n      mload(0x40)\n      dup1\n      swap2\n      sub\n      swap1\n      return\n        /* \"contracts/betting.sol\":875:1405  function instantiateMatch(string calldata _HomeTeam, string calldata _AwayTeam, uint _startTime) external returns (bool) {... */\n    tag_7:\n      callvalue\n      dup1\n      iszero\n      tag_40\n      jumpi\n      0x00\n      dup1\n      revert\n    tag_40:\n      pop\n      tag_41\n      0x04\n      dup1\n      calldatasize\n      sub\n      dup2\n      add\n      swap1\n      tag_42\n      swap2\n      swap1\n      tag_43\n      jump\t// in\n    tag_42:\n      tag_44\n      jump\t// in\n    tag_41:\n      mload(0x40)\n      tag_45\n      swap2\n      swap1\n      tag_46\n      jump\t// in\n    tag_45:\n      mload(0x40)\n      dup1\n      swap2\n      sub\n      swap1\n      return\n        /* \"contracts/betting.sol\":1413:1844  function closeMatch(uint epoch, uint _homeScore, uint _awayScore) external {... */\n    tag_8:\n      callvalue\n      dup1\n      iszero\n      tag_47\n      jumpi\n      0x00\n      dup1\n      revert\n    tag_47:\n      pop\n      tag_48\n      0x04\n      dup1\n      calldatasize\n      sub\n      dup2\n      add\n      swap1\n      tag_49\n      swap2\n      swap1\n      tag_50\n      jump\t// in\n    tag_49:\n      tag_51\n      jump\t// in\n    tag_48:\n      stop\n        /* \"contracts/betting.sol\":148:168  address public admin */\n    tag_9:\n      callvalue\n      dup1\n      iszero\n      tag_52\n      jumpi\n      0x00\n      dup1\n      revert\n    tag_52:\n      pop\n      tag_53\n      tag_54\n      jump\t// in\n    tag_53:\n      mload(0x40)\n      tag_55\n      swap2\n      swap1\n      tag_56\n      jump\t// in\n    tag_55:\n      mload(0x40)\n      dup1\n      swap2\n      sub\n      swap1\n      return\n        /* \"contracts/betting.sol\":1852:2271  function placeBet(uint epoch, Choices _betChoice) payable external {... */\n    tag_14:\n        /* \"contracts/betting.sol\":1975:1980  false */\n      0x00\n        /* \"contracts/betting.sol\":1938:1980  userBet[msg.sender][epoch].played == false */\n      iszero\n      iszero\n        /* \"contracts/betting.sol\":1938:1945  userBet */\n      0x02\n        /* \"contracts/betting.sol\":1938:1957  userBet[msg.sender] */\n      0x00\n        /* \"contracts/betting.sol\":1946:1956  msg.sender */\n      caller\n        /* \"contracts/betting.sol\":1938:1957  userBet[msg.sender] */\n      0xffffffffffffffffffffffffffffffffffffffff\n      and\n      0xffffffffffffffffffffffffffffffffffffffff\n      and\n      dup2\n      mstore\n      0x20\n      add\n      swap1\n      dup2\n      mstore\n      0x20\n      add\n      0x00\n      keccak256\n        /* \"contracts/betting.sol\":1938:1964  userBet[msg.sender][epoch] */\n      0x00\n        /* \"contracts/betting.sol\":1958:1963  epoch */\n      dup5\n        /* \"contracts/betting.sol\":1938:1964  userBet[msg.sender][epoch] */\n      dup2\n      mstore\n      0x20\n      add\n      swap1\n      dup2\n      mstore\n      0x20\n      add\n      0x00\n      keccak256\n        /* \"contracts/betting.sol\":1938:1971  userBet[msg.sender][epoch].played */\n      0x03\n      add\n      0x00\n      swap1\n      sload\n      swap1\n      0x0100\n      exp\n      swap1\n      div\n      0xff\n      and\n        /* \"contracts/betting.sol\":1938:1980  userBet[msg.sender][epoch].played == false */\n      iszero\n      iszero\n      eq\n        /* \"contracts/betting.sol\":1930:1989  require(userBet[msg.sender][epoch].played == false, \"You \") */\n      tag_58\n      jumpi\n      mload(0x40)\n      0x08c379a000000000000000000000000000000000000000000000000000000000\n      dup2\n      mstore\n      0x04\n      add\n      tag_59\n      swap1\n      tag_60\n      jump\t// in\n    tag_59:\n      mload(0x40)\n      dup1\n      swap2\n      sub\n      swap1\n      revert\n    tag_58:\n        /* \"contracts/betting.sol\":2021:2028  1 ether */\n      0x0de0b6b3a7640000\n        /* \"contracts/betting.sol\":2008:2017  msg.value */\n      callvalue\n        /* \"contracts/betting.sol\":2008:2028  msg.value == 1 ether */\n      eq\n        /* \"contracts/betting.sol\":2000:2065  require(msg.value == 1 ether, \"Bet Amount is less than required\") */\n      tag_61\n      jumpi\n      mload(0x40)\n      0x08c379a000000000000000000000000000000000000000000000000000000000\n      dup2\n      mstore\n      0x04\n      add\n      tag_62\n      swap1\n      tag_63\n      jump\t// in\n    tag_62:\n      mload(0x40)\n      dup1\n      swap2\n      sub\n      swap1\n      revert\n    tag_61:\n        /* \"contracts/betting.sol\":2076:2091  uint _betAmount */\n      0x00\n        /* \"contracts/betting.sol\":2094:2103  msg.value */\n      callvalue\n        /* \"contracts/betting.sol\":2076:2103  uint _betAmount = msg.value */\n      swap1\n      pop\n        /* \"contracts/betting.sol\":2143:2182  Bettor(_betChoice, 0, _betAmount, true) */\n      mload(0x40)\n      dup1\n      0x80\n      add\n      0x40\n      mstore\n      dup1\n        /* \"contracts/betting.sol\":2150:2160  _betChoice */\n      dup4\n        /* \"contracts/betting.sol\":2143:2182  Bettor(_betChoice, 0, _betAmount, true) */\n      0x03\n      dup2\n      gt\n      iszero\n      tag_64\n      jumpi\n      tag_65\n      tag_66\n      jump\t// in\n    tag_65:\n    tag_64:\n      dup2\n      mstore\n      0x20\n      add\n        /* \"contracts/betting.sol\":2162:2163  0 */\n      0x00\n        /* \"contracts/betting.sol\":2143:2182  Bettor(_betChoice, 0, _betAmount, true) */\n      dup2\n      mstore\n      0x20\n      add\n        /* \"contracts/betting.sol\":2165:2175  _betAmount */\n      dup3\n        /* \"contracts/betting.sol\":2143:2182  Bettor(_betChoice, 0, _betAmount, true) */\n      dup2\n      mstore\n      0x20\n      add\n        /* \"contracts/betting.sol\":2177:2181  true */\n      0x01\n        /* \"contracts/betting.sol\":2143:2182  Bettor(_betChoice, 0, _betAmount, true) */\n      iszero\n      iszero\n      dup2\n      mstore\n      pop\n        /* \"contracts/betting.sol\":2114:2121  userBet */\n      0x02\n        /* \"contracts/betting.sol\":2114:2133  userBet[msg.sender] */\n      0x00\n        /* \"contracts/betting.sol\":2122:2132  msg.sender */\n      caller\n        /* \"contracts/betting.sol\":2114:2133  userBet[msg.sender] */\n      0xffffffffffffffffffffffffffffffffffffffff\n      and\n      0xffffffffffffffffffffffffffffffffffffffff\n      and\n      dup2\n      mstore\n      0x20\n      add\n      swap1\n      dup2\n      mstore\n      0x20\n      add\n      0x00\n      keccak256\n        /* \"contracts/betting.sol\":2114:2140  userBet[msg.sender][epoch] */\n      0x00\n        /* \"contracts/betting.sol\":2134:2139  epoch */\n      dup6\n        /* \"contracts/betting.sol\":2114:2140  userBet[msg.sender][epoch] */\n      dup2\n      mstore\n      0x20\n      add\n      swap1\n      dup2\n      mstore\n      0x20\n      add\n      0x00\n      keccak256\n        /* \"contracts/betting.sol\":2114:2182  userBet[msg.sender][epoch] = Bettor(_betChoice, 0, _betAmount, true) */\n      0x00\n      dup3\n      add\n      mload\n      dup2\n      0x00\n      add\n      exp(0x0100, 0x00)\n      dup2\n      sload\n      dup2\n      0xff\n      mul\n      not\n      and\n      swap1\n      dup4\n      0x03\n      dup2\n      gt\n      iszero\n      tag_67\n      jumpi\n      tag_68\n      tag_66\n      jump\t// in\n    tag_68:\n    tag_67:\n      mul\n      or\n      swap1\n      sstore\n      pop\n      0x20\n      dup3\n      add\n      mload\n      dup2\n      0x01\n      add\n      sstore\n      0x40\n      dup3\n      add\n      mload\n      dup2\n      0x02\n      add\n      sstore\n      0x60\n      dup3\n      add\n      mload\n      dup2\n      0x03\n      add\n      exp(0x0100, 0x00)\n      dup2\n      sload\n      dup2\n      0xff\n      mul\n      not\n      and\n      swap1\n      dup4\n      iszero\n      iszero\n      mul\n      or\n      swap1\n      sstore\n      pop\n      swap1\n      pop\n      pop\n        /* \"contracts/betting.sol\":2220:2263  allBets(msg.sender, _betAmount, _betChoice) */\n      mload(0x40)\n      dup1\n      0x60\n      add\n      0x40\n      mstore\n      dup1\n        /* \"contracts/betting.sol\":2228:2238  msg.sender */\n      caller\n        /* \"contracts/betting.sol\":2220:2263  allBets(msg.sender, _betAmount, _betChoice) */\n      0xffffffffffffffffffffffffffffffffffffffff\n      and\n      dup2\n      mstore\n      0x20\n      add\n        /* \"contracts/betting.sol\":2240:2250  _betAmount */\n      dup3\n        /* \"contracts/betting.sol\":2220:2263  allBets(msg.sender, _betAmount, _betChoice) */\n      dup2\n      mstore\n      0x20\n      add\n        /* \"contracts/betting.sol\":2252:2262  _betChoice */\n      dup4\n        /* \"contracts/betting.sol\":2220:2263  allBets(msg.sender, _betAmount, _betChoice) */\n      0x03\n      dup2\n      gt\n      iszero\n      tag_69\n      jumpi\n      tag_70\n      tag_66\n      jump\t// in\n    tag_70:\n    tag_69:\n      dup2\n      mstore\n      pop\n        /* \"contracts/betting.sol\":2193:2210  specificMatchBets */\n      0x04\n        /* \"contracts/betting.sol\":2211:2216  epoch */\n      dup5\n        /* \"contracts/betting.sol\":2193:2217  specificMatchBets[epoch] */\n      dup2\n      sload\n      dup2\n      lt\n      tag_71\n      jumpi\n      tag_72\n      tag_73\n      jump\t// in\n    tag_72:\n    tag_71:\n      swap1\n      0x00\n      mstore\n      keccak256(0x00, 0x20)\n      swap1\n      0x03\n      mul\n      add\n        /* \"contracts/betting.sol\":2193:2263  specificMatchBets[epoch] = allBets(msg.sender, _betAmount, _betChoice) */\n      0x00\n      dup3\n      add\n      mload\n      dup2\n      0x00\n      add\n      exp(0x0100, 0x00)\n      dup2\n      sload\n      dup2\n      0xffffffffffffffffffffffffffffffffffffffff\n      mul\n      not\n      and\n      swap1\n      dup4\n      0xffffffffffffffffffffffffffffffffffffffff\n      and\n      mul\n      or\n      swap1\n      sstore\n      pop\n      0x20\n      dup3\n      add\n      mload\n      dup2\n      0x01\n      add\n      sstore\n      0x40\n      dup3\n      add\n      mload\n      dup2\n      0x02\n      add\n      exp(0x0100, 0x00)\n      dup2\n      sload\n      dup2\n      0xff\n      mul\n      not\n      and\n      swap1\n      dup4\n      0x03\n      dup2\n      gt\n      iszero\n      tag_75\n      jumpi\n      tag_76\n      tag_66\n      jump\t// in\n    tag_76:\n    tag_75:\n      mul\n      or\n      swap1\n      sstore\n      pop\n      swap1\n      pop\n      pop\n        /* \"contracts/betting.sol\":1919:2271  {... */\n      pop\n        /* \"contracts/betting.sol\":1852:2271  function placeBet(uint epoch, Choices _betChoice) payable external {... */\n      pop\n      pop\n      jump\t// out\n        /* \"contracts/betting.sol\":771:805  allBets[] public specificMatchBets */\n    tag_19:\n      0x04\n      dup2\n      dup2\n      sload\n      dup2\n      lt\n      tag_77\n      jumpi\n      0x00\n      dup1\n      revert\n    tag_77:\n      swap1\n      0x00\n      mstore\n      keccak256(0x00, 0x20)\n      swap1\n      0x03\n      mul\n      add\n      0x00\n      swap2\n      pop\n      swap1\n      pop\n      dup1\n      0x00\n      add\n      0x00\n      swap1\n      sload\n      swap1\n      0x0100\n      exp\n      swap1\n      div\n      0xffffffffffffffffffffffffffffffffffffffff\n      and\n      swap1\n      dup1\n      0x01\n      add\n      sload\n      swap1\n      dup1\n      0x02\n      add\n      0x00\n      swap1\n      sload\n      swap1\n      0x0100\n      exp\n      swap1\n      div\n      0xff\n      and\n      swap1\n      pop\n      dup4\n      jump\t// out\n        /* \"contracts/betting.sol\":531:566  mapping (uint => Match) public Game */\n    tag_25:\n      mstore(0x20, 0x01)\n      dup1\n      0x00\n      mstore\n      keccak256(0x00, 0x40)\n      0x00\n      swap2\n      pop\n      swap1\n      pop\n      dup1\n      0x00\n      add\n      dup1\n      sload\n      tag_79\n      swap1\n      tag_80\n      jump\t// in\n    tag_79:\n      dup1\n      0x1f\n      add\n      0x20\n      dup1\n      swap2\n      div\n      mul\n      0x20\n      add\n      mload(0x40)\n      swap1\n      dup2\n      add\n      0x40\n      mstore\n      dup1\n      swap3\n      swap2\n      swap1\n      dup2\n      dup2\n      mstore\n      0x20\n      add\n      dup3\n      dup1\n      sload\n      tag_81\n      swap1\n      tag_80\n      jump\t// in\n    tag_81:\n      dup1\n      iszero\n      tag_82\n      jumpi\n      dup1\n      0x1f\n      lt\n      tag_83\n      jumpi\n      0x0100\n      dup1\n      dup4\n      sload\n      div\n      mul\n      dup4\n      mstore\n      swap2\n      0x20\n      add\n      swap2\n      jump(tag_82)\n    tag_83:\n      dup3\n      add\n      swap2\n      swap1\n      0x00\n      mstore\n      keccak256(0x00, 0x20)\n      swap1\n    tag_84:\n      dup2\n      sload\n      dup2\n      mstore\n      swap1\n      0x01\n      add\n      swap1\n      0x20\n      add\n      dup1\n      dup4\n      gt\n      tag_84\n      jumpi\n      dup3\n      swap1\n      sub\n      0x1f\n      and\n      dup3\n      add\n      swap2\n    tag_82:\n      pop\n      pop\n      pop\n      pop\n      pop\n      swap1\n      dup1\n      0x01\n      add\n      dup1\n      sload\n      tag_85\n      swap1\n      tag_80\n      jump\t// in\n    tag_85:\n      dup1\n      0x1f\n      add\n      0x20\n      dup1\n      swap2\n      div\n      mul\n      0x20\n      add\n      mload(0x40)\n      swap1\n      dup2\n      add\n      0x40\n      mstore\n      dup1\n      swap3\n      swap2\n      swap1\n      dup2\n      dup2\n      mstore\n      0x20\n      add\n      dup3\n      dup1\n      sload\n      tag_86\n      swap1\n      tag_80\n      jump\t// in\n    tag_86:\n      dup1\n      iszero\n      tag_87\n      jumpi\n      dup1\n      0x1f\n      lt\n      tag_88\n      jumpi\n      0x0100\n      dup1\n      dup4\n      sload\n      div\n      mul\n      dup4\n      mstore\n      swap2\n      0x20\n      add\n      swap2\n      jump(tag_87)\n    tag_88:\n      dup3\n      add\n      swap2\n      swap1\n      0x00\n      mstore\n      keccak256(0x00, 0x20)\n      swap1\n    tag_89:\n      dup2\n      sload\n      dup2\n      mstore\n      swap1\n      0x01\n      add\n      swap1\n      0x20\n      add\n      dup1\n      dup4\n      gt\n      tag_89\n      jumpi\n      dup3\n      swap1\n      sub\n      0x1f\n      and\n      dup3\n      add\n      swap2\n    tag_87:\n      pop\n      pop\n      pop\n      pop\n      pop\n      swap1\n      dup1\n      0x02\n      add\n      sload\n      swap1\n      dup1\n      0x03\n      add\n      sload\n      swap1\n      dup1\n      0x04\n      add\n      mload(0x40)\n      dup1\n      0x40\n      add\n      0x40\n      mstore\n      swap1\n      dup2\n      0x00\n      dup3\n      add\n      sload\n      dup2\n      mstore\n      0x20\n      add\n      0x01\n      dup3\n      add\n      sload\n      dup2\n      mstore\n      pop\n      pop\n      swap1\n      pop\n      dup6\n      jump\t// out\n        /* \"contracts/betting.sol\":573:633  mapping (address => mapping (uint => Bettor)) public userBet */\n    tag_32:\n      mstore(0x20, 0x02)\n      dup2\n      0x00\n      mstore\n      mstore(0x20, keccak256(0x00, 0x40))\n      dup1\n      0x00\n      mstore\n      keccak256(0x00, 0x40)\n      0x00\n      swap2\n      pop\n      swap2\n      pop\n      pop\n      dup1\n      0x00\n      add\n      0x00\n      swap1\n      sload\n      swap1\n      0x0100\n      exp\n      swap1\n      div\n      0xff\n      and\n      swap1\n      dup1\n      0x01\n      add\n      sload\n      swap1\n      dup1\n      0x02\n      add\n      sload\n      swap1\n      dup1\n      0x03\n      add\n      0x00\n      swap1\n      sload\n      swap1\n      0x0100\n      exp\n      swap1\n      div\n      0xff\n      and\n      swap1\n      pop\n      dup5\n      jump\t// out\n        /* \"contracts/betting.sol\":640:664  Match [] public allMatch */\n    tag_38:\n      0x03\n      dup2\n      dup2\n      sload\n      dup2\n      lt\n      tag_90\n      jumpi\n      0x00\n      dup1\n      revert\n    tag_90:\n      swap1\n      0x00\n      mstore\n      keccak256(0x00, 0x20)\n      swap1\n      0x06\n      mul\n      add\n      0x00\n      swap2\n      pop\n      swap1\n      pop\n      dup1\n      0x00\n      add\n      dup1\n      sload\n      tag_92\n      swap1\n      tag_80\n      jump\t// in\n    tag_92:\n      dup1\n      0x1f\n      add\n      0x20\n      dup1\n      swap2\n      div\n      mul\n      0x20\n      add\n      mload(0x40)\n      swap1\n      dup2\n      add\n      0x40\n      mstore\n      dup1\n      swap3\n      swap2\n      swap1\n      dup2\n      dup2\n      mstore\n      0x20\n      add\n      dup3\n      dup1\n      sload\n      tag_93\n      swap1\n      tag_80\n      jump\t// in\n    tag_93:\n      dup1\n      iszero\n      tag_94\n      jumpi\n      dup1\n      0x1f\n      lt\n      tag_95\n      jumpi\n      0x0100\n      dup1\n      dup4\n      sload\n      div\n      mul\n      dup4\n      mstore\n      swap2\n      0x20\n      add\n      swap2\n      jump(tag_94)\n    tag_95:\n      dup3\n      add\n      swap2\n      swap1\n      0x00\n      mstore\n      keccak256(0x00, 0x20)\n      swap1\n    tag_96:\n      dup2\n      sload\n      dup2\n      mstore\n      swap1\n      0x01\n      add\n      swap1\n      0x20\n      add\n      dup1\n      dup4\n      gt\n      tag_96\n      jumpi\n      dup3\n      swap1\n      sub\n      0x1f\n      and\n      dup3\n      add\n      swap2\n    tag_94:\n      pop\n      pop\n      pop\n      pop\n      pop\n      swap1\n      dup1\n      0x01\n      add\n      dup1\n      sload\n      tag_97\n      swap1\n      tag_80\n      jump\t// in\n    tag_97:\n      dup1\n      0x1f\n      add\n      0x20\n      dup1\n      swap2\n      div\n      mul\n      0x20\n      add\n      mload(0x40)\n      swap1\n      dup2\n      add\n      0x40\n      mstore\n      dup1\n      swap3\n      swap2\n      swap1\n      dup2\n      dup2\n      mstore\n      0x20\n      add\n      dup3\n      dup1\n      sload\n      tag_98\n      swap1\n      tag_80\n      jump\t// in\n    tag_98:\n      dup1\n      iszero\n      tag_99\n      jumpi\n      dup1\n      0x1f\n      lt\n      tag_100\n      jumpi\n      0x0100\n      dup1\n      dup4\n      sload\n      div\n      mul\n      dup4\n      mstore\n      swap2\n      0x20\n      add\n      swap2\n      jump(tag_99)\n    tag_100:\n      dup3\n      add\n      swap2\n      swap1\n      0x00\n      mstore\n      keccak256(0x00, 0x20)\n      swap1\n    tag_101:\n      dup2\n      sload\n      dup2\n      mstore\n      swap1\n      0x01\n      add\n      swap1\n      0x20\n      add\n      dup1\n      dup4\n      gt\n      tag_101\n      jumpi\n      dup3\n      swap1\n      sub\n      0x1f\n      and\n      dup3\n      add\n      swap2\n    tag_99:\n      pop\n      pop\n      pop\n      pop\n      pop\n      swap1\n      dup1\n      0x02\n      add\n      sload\n      swap1\n      dup1\n      0x03\n      add\n      sload\n      swap1\n      dup1\n      0x04\n      add\n      mload(0x40)\n      dup1\n      0x40\n      add\n      0x40\n      mstore\n      swap1\n      dup2\n      0x00\n      dup3\n      add\n      sload\n      dup2\n      mstore\n      0x20\n      add\n      0x01\n      dup3\n      add\n      sload\n      dup2\n      mstore\n      pop\n      pop\n      swap1\n      pop\n      dup6\n      jump\t// out\n        /* \"contracts/betting.sol\":875:1405  function instantiateMatch(string calldata _HomeTeam, string calldata _AwayTeam, uint _startTime) external returns (bool) {... */\n    tag_44:\n        /* \"contracts/betting.sol\":990:994  bool */\n      0x00\n        /* \"contracts/betting.sol\":1024:1034  msg.sender */\n      caller\n        /* \"contracts/betting.sol\":1015:1034  admin == msg.sender */\n      0xffffffffffffffffffffffffffffffffffffffff\n      and\n        /* \"contracts/betting.sol\":1015:1020  admin */\n      0x00\n      dup1\n      sload\n      swap1\n      0x0100\n      exp\n      swap1\n      div\n      0xffffffffffffffffffffffffffffffffffffffff\n      and\n        /* \"contracts/betting.sol\":1015:1034  admin == msg.sender */\n      0xffffffffffffffffffffffffffffffffffffffff\n      and\n      eq\n        /* \"contracts/betting.sol\":1007:1048  require(admin == msg.sender, \"Not Owner\") */\n      tag_103\n      jumpi\n      mload(0x40)\n      0x08c379a000000000000000000000000000000000000000000000000000000000\n      dup2\n      mstore\n      0x04\n      add\n      tag_104\n      swap1\n      tag_105\n      jump\t// in\n    tag_104:\n      mload(0x40)\n      dup1\n      swap2\n      sub\n      swap1\n      revert\n    tag_103:\n        /* \"contracts/betting.sol\":1059:1072  uint matchEnd */\n      0x00\n        /* \"contracts/betting.sol\":1088:1098  95 seconds */\n      0x5f\n        /* \"contracts/betting.sol\":1075:1085  _startTime */\n      dup4\n        /* \"contracts/betting.sol\":1075:1098  _startTime + 95 seconds */\n      tag_106\n      swap2\n      swap1\n      tag_107\n      jump\t// in\n    tag_106:\n        /* \"contracts/betting.sol\":1059:1098  uint matchEnd = _startTime + 95 seconds */\n      swap1\n      pop\n        /* \"contracts/betting.sol\":1109:1139  Results memory startingResults */\n      0x00\n        /* \"contracts/betting.sol\":1142:1155  Results(0, 0) */\n      mload(0x40)\n      dup1\n      0x40\n      add\n      0x40\n      mstore\n      dup1\n        /* \"contracts/betting.sol\":1150:1151  0 */\n      0x00\n        /* \"contracts/betting.sol\":1142:1155  Results(0, 0) */\n      dup2\n      mstore\n      0x20\n      add\n        /* \"contracts/betting.sol\":1153:1154  0 */\n      0x00\n        /* \"contracts/betting.sol\":1142:1155  Results(0, 0) */\n      dup2\n      mstore\n      pop\n        /* \"contracts/betting.sol\":1109:1155  Results memory startingResults = Results(0, 0) */\n      swap1\n      pop\n        /* \"contracts/betting.sol\":1166:1175  uint game */\n      0x00\n        /* \"contracts/betting.sol\":1178:1186  allMatch */\n      0x03\n        /* \"contracts/betting.sol\":1178:1193  allMatch.length */\n      dup1\n      sload\n      swap1\n      pop\n        /* \"contracts/betting.sol\":1166:1193  uint game = allMatch.length */\n      swap1\n      pop\n        /* \"contracts/betting.sol\":1217:1283  Match(_HomeTeam, _AwayTeam, _startTime, matchEnd, startingResults) */\n      mload(0x40)\n      dup1\n      0xa0\n      add\n      0x40\n      mstore\n      dup1\n        /* \"contracts/betting.sol\":1223:1232  _HomeTeam */\n      dup11\n      dup11\n        /* \"contracts/betting.sol\":1217:1283  Match(_HomeTeam, _AwayTeam, _startTime, matchEnd, startingResults) */\n      dup1\n      dup1\n      0x1f\n      add\n      0x20\n      dup1\n      swap2\n      div\n      mul\n      0x20\n      add\n      mload(0x40)\n      swap1\n      dup2\n      add\n      0x40\n      mstore\n      dup1\n      swap4\n      swap3\n      swap2\n      swap1\n      dup2\n      dup2\n      mstore\n      0x20\n      add\n      dup4\n      dup4\n      dup1\n      dup3\n      dup5\n      calldatacopy\n      0x00\n      dup2\n      dup5\n      add\n      mstore\n      not(0x1f)\n      0x1f\n      dup3\n      add\n      and\n      swap1\n      pop\n      dup1\n      dup4\n      add\n      swap3\n      pop\n      pop\n      pop\n      pop\n      pop\n      pop\n      pop\n      dup2\n      mstore\n      0x20\n      add\n        /* \"contracts/betting.sol\":1234:1243  _AwayTeam */\n      dup9\n      dup9\n        /* \"contracts/betting.sol\":1217:1283  Match(_HomeTeam, _AwayTeam, _startTime, matchEnd, startingResults) */\n      dup1\n      dup1\n      0x1f\n      add\n      0x20\n      dup1\n      swap2\n      div\n      mul\n      0x20\n      add\n      mload(0x40)\n      swap1\n      dup2\n      add\n      0x40\n      mstore\n      dup1\n      swap4\n      swap3\n      swap2\n      swap1\n      dup2\n      dup2\n      mstore\n      0x20\n      add\n      dup4\n      dup4\n      dup1\n      dup3\n      dup5\n      calldatacopy\n      0x00\n      dup2\n      dup5\n      add\n      mstore\n      not(0x1f)\n      0x1f\n      dup3\n      add\n      and\n      swap1\n      pop\n      dup1\n      dup4\n      add\n      swap3\n      pop\n      pop\n      pop\n      pop\n      pop\n      pop\n      pop\n      dup2\n      mstore\n      0x20\n      add\n        /* \"contracts/betting.sol\":1245:1255  _startTime */\n      dup7\n        /* \"contracts/betting.sol\":1217:1283  Match(_HomeTeam, _AwayTeam, _startTime, matchEnd, startingResults) */\n      dup2\n      mstore\n      0x20\n      add\n        /* \"contracts/betting.sol\":1257:1265  matchEnd */\n      dup5\n        /* \"contracts/betting.sol\":1217:1283  Match(_HomeTeam, _AwayTeam, _startTime, matchEnd, startingResults) */\n      dup2\n      mstore\n      0x20\n      add\n        /* \"contracts/betting.sol\":1267:1282  startingResults */\n      dup4\n        /* \"contracts/betting.sol\":1217:1283  Match(_HomeTeam, _AwayTeam, _startTime, matchEnd, startingResults) */\n      dup2\n      mstore\n      pop\n        /* \"contracts/betting.sol\":1204:1208  Game */\n      0x01\n        /* \"contracts/betting.sol\":1204:1214  Game[game] */\n      0x00\n        /* \"contracts/betting.sol\":1209:1213  game */\n      dup4\n        /* \"contracts/betting.sol\":1204:1214  Game[game] */\n      dup2\n      mstore\n      0x20\n      add\n      swap1\n      dup2\n      mstore\n      0x20\n      add\n      0x00\n      keccak256\n        /* \"contracts/betting.sol\":1204:1283  Game[game] = Match(_HomeTeam, _AwayTeam, _startTime, matchEnd, startingResults) */\n      0x00\n      dup3\n      add\n      mload\n      dup2\n      0x00\n      add\n      swap1\n      dup2\n      tag_108\n      swap2\n      swap1\n      tag_109\n      jump\t// in\n    tag_108:\n      pop\n      0x20\n      dup3\n      add\n      mload\n      dup2\n      0x01\n      add\n      swap1\n      dup2\n      tag_110\n      swap2\n      swap1\n      tag_109\n      jump\t// in\n    tag_110:\n      pop\n      0x40\n      dup3\n      add\n      mload\n      dup2\n      0x02\n      add\n      sstore\n      0x60\n      dup3\n      add\n      mload\n      dup2\n      0x03\n      add\n      sstore\n      0x80\n      dup3\n      add\n      mload\n      dup2\n      0x04\n      add\n      0x00\n      dup3\n      add\n      mload\n      dup2\n      0x00\n      add\n      sstore\n      0x20\n      dup3\n      add\n      mload\n      dup2\n      0x01\n      add\n      sstore\n      pop\n      pop\n      swap1\n      pop\n      pop\n        /* \"contracts/betting.sol\":1294:1302  allMatch */\n      0x03\n        /* \"contracts/betting.sol\":1308:1374  Match(_HomeTeam, _AwayTeam, _startTime, matchEnd, startingResults) */\n      mload(0x40)\n      dup1\n      0xa0\n      add\n      0x40\n      mstore\n      dup1\n        /* \"contracts/betting.sol\":1314:1323  _HomeTeam */\n      dup12\n      dup12\n        /* \"contracts/betting.sol\":1308:1374  Match(_HomeTeam, _AwayTeam, _startTime, matchEnd, startingResults) */\n      dup1\n      dup1\n      0x1f\n      add\n      0x20\n      dup1\n      swap2\n      div\n      mul\n      0x20\n      add\n      mload(0x40)\n      swap1\n      dup2\n      add\n      0x40\n      mstore\n      dup1\n      swap4\n      swap3\n      swap2\n      swap1\n      dup2\n      dup2\n      mstore\n      0x20\n      add\n      dup4\n      dup4\n      dup1\n      dup3\n      dup5\n      calldatacopy\n      0x00\n      dup2\n      dup5\n      add\n      mstore\n      not(0x1f)\n      0x1f\n      dup3\n      add\n      and\n      swap1\n      pop\n      dup1\n      dup4\n      add\n      swap3\n      pop\n      pop\n      pop\n      pop\n      pop\n      pop\n      pop\n      dup2\n      mstore\n      0x20\n      add\n        /* \"contracts/betting.sol\":1325:1334  _AwayTeam */\n      dup10\n      dup10\n        /* \"contracts/betting.sol\":1308:1374  Match(_HomeTeam, _AwayTeam, _startTime, matchEnd, startingResults) */\n      dup1\n      dup1\n      0x1f\n      add\n      0x20\n      dup1\n      swap2\n      div\n      mul\n      0x20\n      add\n      mload(0x40)\n      swap1\n      dup2\n      add\n      0x40\n      mstore\n      dup1\n      swap4\n      swap3\n      swap2\n      swap1\n      dup2\n      dup2\n      mstore\n      0x20\n      add\n      dup4\n      dup4\n      dup1\n      dup3\n      dup5\n      calldatacopy\n      0x00\n      dup2\n      dup5\n      add\n      mstore\n      not(0x1f)\n      0x1f\n      dup3\n      add\n      and\n      swap1\n      pop\n      dup1\n      dup4\n      add\n      swap3\n      pop\n      pop\n      pop\n      pop\n      pop\n      pop\n      pop\n      dup2\n      mstore\n      0x20\n      add\n        /* \"contracts/betting.sol\":1336:1346  _startTime */\n      dup8\n        /* \"contracts/betting.sol\":1308:1374  Match(_HomeTeam, _AwayTeam, _startTime, matchEnd, startingResults) */\n      dup2\n      mstore\n      0x20\n      add\n        /* \"contracts/betting.sol\":1348:1356  matchEnd */\n      dup6\n        /* \"contracts/betting.sol\":1308:1374  Match(_HomeTeam, _AwayTeam, _startTime, matchEnd, startingResults) */\n      dup2\n      mstore\n      0x20\n      add\n        /* \"contracts/betting.sol\":1358:1373  startingResults */\n      dup5\n        /* \"contracts/betting.sol\":1308:1374  Match(_HomeTeam, _AwayTeam, _startTime, matchEnd, startingResults) */\n      dup2\n      mstore\n      pop\n        /* \"contracts/betting.sol\":1294:1375  allMatch.push(Match(_HomeTeam, _AwayTeam, _startTime, matchEnd, startingResults)) */\n      swap1\n      dup1\n      0x01\n      dup2\n      sload\n      add\n      dup1\n      dup3\n      sstore\n      dup1\n      swap2\n      pop\n      pop\n      0x01\n      swap1\n      sub\n      swap1\n      0x00\n      mstore\n      keccak256(0x00, 0x20)\n      swap1\n      0x06\n      mul\n      add\n      0x00\n      swap1\n      swap2\n      swap1\n      swap2\n      swap1\n      swap2\n      pop\n      0x00\n      dup3\n      add\n      mload\n      dup2\n      0x00\n      add\n      swap1\n      dup2\n      tag_112\n      swap2\n      swap1\n      tag_109\n      jump\t// in\n    tag_112:\n      pop\n      0x20\n      dup3\n      add\n      mload\n      dup2\n      0x01\n      add\n      swap1\n      dup2\n      tag_113\n      swap2\n      swap1\n      tag_109\n      jump\t// in\n    tag_113:\n      pop\n      0x40\n      dup3\n      add\n      mload\n      dup2\n      0x02\n      add\n      sstore\n      0x60\n      dup3\n      add\n      mload\n      dup2\n      0x03\n      add\n      sstore\n      0x80\n      dup3\n      add\n      mload\n      dup2\n      0x04\n      add\n      0x00\n      dup3\n      add\n      mload\n      dup2\n      0x00\n      add\n      sstore\n      0x20\n      dup3\n      add\n      mload\n      dup2\n      0x01\n      add\n      sstore\n      pop\n      pop\n      pop\n      pop\n        /* \"contracts/betting.sol\":1393:1397  true */\n      0x01\n        /* \"contracts/betting.sol\":1386:1397  return true */\n      swap4\n      pop\n      pop\n      pop\n      pop\n        /* \"contracts/betting.sol\":875:1405  function instantiateMatch(string calldata _HomeTeam, string calldata _AwayTeam, uint _startTime) external returns (bool) {... */\n      swap6\n      swap5\n      pop\n      pop\n      pop\n      pop\n      pop\n      jump\t// out\n        /* \"contracts/betting.sol\":1413:1844  function closeMatch(uint epoch, uint _homeScore, uint _awayScore) external {... */\n    tag_51:\n        /* \"contracts/betting.sol\":1516:1526  msg.sender */\n      caller\n        /* \"contracts/betting.sol\":1507:1526  admin == msg.sender */\n      0xffffffffffffffffffffffffffffffffffffffff\n      and\n        /* \"contracts/betting.sol\":1507:1512  admin */\n      0x00\n      dup1\n      sload\n      swap1\n      0x0100\n      exp\n      swap1\n      div\n      0xffffffffffffffffffffffffffffffffffffffff\n      and\n        /* \"contracts/betting.sol\":1507:1526  admin == msg.sender */\n      0xffffffffffffffffffffffffffffffffffffffff\n      and\n      eq\n        /* \"contracts/betting.sol\":1499:1540  require(admin == msg.sender, \"Not Owner\") */\n      tag_115\n      jumpi\n      mload(0x40)\n      0x08c379a000000000000000000000000000000000000000000000000000000000\n      dup2\n      mstore\n      0x04\n      add\n      tag_116\n      swap1\n      tag_105\n      jump\t// in\n    tag_116:\n      mload(0x40)\n      dup1\n      swap2\n      sub\n      swap1\n      revert\n    tag_115:\n        /* \"contracts/betting.sol\":1551:1567  uint currentTime */\n      0x00\n        /* \"contracts/betting.sol\":1570:1585  block.timestamp */\n      timestamp\n        /* \"contracts/betting.sol\":1551:1585  uint currentTime = block.timestamp */\n      swap1\n      pop\n        /* \"contracts/betting.sol\":1619:1627  allMatch */\n      0x03\n        /* \"contracts/betting.sol\":1628:1633  epoch */\n      dup5\n        /* \"contracts/betting.sol\":1619:1634  allMatch[epoch] */\n      dup2\n      sload\n      dup2\n      lt\n      tag_117\n      jumpi\n      tag_118\n      tag_73\n      jump\t// in\n    tag_118:\n    tag_117:\n      swap1\n      0x00\n      mstore\n      keccak256(0x00, 0x20)\n      swap1\n      0x06\n      mul\n      add\n        /* \"contracts/betting.sol\":1619:1642  allMatch[epoch].endTime */\n      0x03\n      add\n      sload\n        /* \"contracts/betting.sol\":1604:1615  currentTime */\n      dup2\n        /* \"contracts/betting.sol\":1604:1642  currentTime >= allMatch[epoch].endTime */\n      lt\n      iszero\n        /* \"contracts/betting.sol\":1596:1664  require(currentTime >= allMatch[epoch].endTime, \"Match is still on\") */\n      tag_120\n      jumpi\n      mload(0x40)\n      0x08c379a000000000000000000000000000000000000000000000000000000000\n      dup2\n      mstore\n      0x04\n      add\n      tag_121\n      swap1\n      tag_122\n      jump\t// in\n    tag_121:\n      mload(0x40)\n      dup1\n      swap2\n      sub\n      swap1\n      revert\n    tag_120:\n        /* \"contracts/betting.sol\":1675:1704  Results memory closingResults */\n      0x00\n        /* \"contracts/betting.sol\":1707:1738  Results(_homeScore, _awayScore) */\n      mload(0x40)\n      dup1\n      0x40\n      add\n      0x40\n      mstore\n      dup1\n        /* \"contracts/betting.sol\":1715:1725  _homeScore */\n      dup6\n        /* \"contracts/betting.sol\":1707:1738  Results(_homeScore, _awayScore) */\n      dup2\n      mstore\n      0x20\n      add\n        /* \"contracts/betting.sol\":1727:1737  _awayScore */\n      dup5\n        /* \"contracts/betting.sol\":1707:1738  Results(_homeScore, _awayScore) */\n      dup2\n      mstore\n      pop\n        /* \"contracts/betting.sol\":1675:1738  Results memory closingResults = Results(_homeScore, _awayScore) */\n      swap1\n      pop\n        /* \"contracts/betting.sol\":1775:1789  closingResults */\n      dup1\n        /* \"contracts/betting.sol\":1749:1757  allMatch */\n      0x03\n        /* \"contracts/betting.sol\":1758:1763  epoch */\n      dup7\n        /* \"contracts/betting.sol\":1749:1764  allMatch[epoch] */\n      dup2\n      sload\n      dup2\n      lt\n      tag_123\n      jumpi\n      tag_124\n      tag_73\n      jump\t// in\n    tag_124:\n    tag_123:\n      swap1\n      0x00\n      mstore\n      keccak256(0x00, 0x20)\n      swap1\n      0x06\n      mul\n      add\n        /* \"contracts/betting.sol\":1749:1772  allMatch[epoch].results */\n      0x04\n      add\n        /* \"contracts/betting.sol\":1749:1789  allMatch[epoch].results = closingResults */\n      0x00\n      dup3\n      add\n      mload\n      dup2\n      0x00\n      add\n      sstore\n      0x20\n      dup3\n      add\n      mload\n      dup2\n      0x01\n      add\n      sstore\n      swap1\n      pop\n      pop\n        /* \"contracts/betting.sol\":1822:1836  closingResults */\n      dup1\n        /* \"contracts/betting.sol\":1800:1804  Game */\n      0x01\n        /* \"contracts/betting.sol\":1800:1811  Game[epoch] */\n      0x00\n        /* \"contracts/betting.sol\":1805:1810  epoch */\n      dup8\n        /* \"contracts/betting.sol\":1800:1811  Game[epoch] */\n      dup2\n      mstore\n      0x20\n      add\n      swap1\n      dup2\n      mstore\n      0x20\n      add\n      0x00\n      keccak256\n        /* \"contracts/betting.sol\":1800:1819  Game[epoch].results */\n      0x04\n      add\n        /* \"contracts/betting.sol\":1800:1836  Game[epoch].results = closingResults */\n      0x00\n      dup3\n      add\n      mload\n      dup2\n      0x00\n      add\n      sstore\n      0x20\n      dup3\n      add\n      mload\n      dup2\n      0x01\n      add\n      sstore\n      swap1\n      pop\n      pop\n        /* \"contracts/betting.sol\":1488:1844  {... */\n      pop\n      pop\n        /* \"contracts/betting.sol\":1413:1844  function closeMatch(uint epoch, uint _homeScore, uint _awayScore) external {... */\n      pop\n      pop\n      pop\n      jump\t// out\n        /* \"contracts/betting.sol\":148:168  address public admin */\n    tag_54:\n      0x00\n      dup1\n      sload\n      swap1\n      0x0100\n      exp\n      swap1\n      div\n      0xffffffffffffffffffffffffffffffffffffffff\n      and\n      dup2\n      jump\t// out\n        /* \"#utility.yul\":88:205   */\n    tag_127:\n        /* \"#utility.yul\":197:198   */\n      0x00\n        /* \"#utility.yul\":194:195   */\n      dup1\n        /* \"#utility.yul\":187:199   */\n      revert\n        /* \"#utility.yul\":211:328   */\n    tag_128:\n        /* \"#utility.yul\":320:321   */\n      0x00\n        /* \"#utility.yul\":317:318   */\n      dup1\n        /* \"#utility.yul\":310:322   */\n      revert\n        /* \"#utility.yul\":334:411   */\n    tag_129:\n        /* \"#utility.yul\":371:378   */\n      0x00\n        /* \"#utility.yul\":400:405   */\n      dup2\n        /* \"#utility.yul\":389:405   */\n      swap1\n      pop\n        /* \"#utility.yul\":334:411   */\n      swap2\n      swap1\n      pop\n      jump\t// out\n        /* \"#utility.yul\":417:539   */\n    tag_130:\n        /* \"#utility.yul\":490:514   */\n      tag_189\n        /* \"#utility.yul\":508:513   */\n      dup2\n        /* \"#utility.yul\":490:514   */\n      tag_129\n      jump\t// in\n    tag_189:\n        /* \"#utility.yul\":483:488   */\n      dup2\n        /* \"#utility.yul\":480:515   */\n      eq\n        /* \"#utility.yul\":470:533   */\n      tag_190\n      jumpi\n        /* \"#utility.yul\":529:530   */\n      0x00\n        /* \"#utility.yul\":526:527   */\n      dup1\n        /* \"#utility.yul\":519:531   */\n      revert\n        /* \"#utility.yul\":470:533   */\n    tag_190:\n        /* \"#utility.yul\":417:539   */\n      pop\n      jump\t// out\n        /* \"#utility.yul\":545:684   */\n    tag_131:\n        /* \"#utility.yul\":591:596   */\n      0x00\n        /* \"#utility.yul\":629:635   */\n      dup2\n        /* \"#utility.yul\":616:636   */\n      calldataload\n        /* \"#utility.yul\":607:636   */\n      swap1\n      pop\n        /* \"#utility.yul\":645:678   */\n      tag_192\n        /* \"#utility.yul\":672:677   */\n      dup2\n        /* \"#utility.yul\":645:678   */\n      tag_130\n      jump\t// in\n    tag_192:\n        /* \"#utility.yul\":545:684   */\n      swap3\n      swap2\n      pop\n      pop\n      jump\t// out\n        /* \"#utility.yul\":690:798   */\n    tag_132:\n        /* \"#utility.yul\":772:773   */\n      0x04\n        /* \"#utility.yul\":765:770   */\n      dup2\n        /* \"#utility.yul\":762:774   */\n      lt\n        /* \"#utility.yul\":752:792   */\n      tag_194\n      jumpi\n        /* \"#utility.yul\":788:789   */\n      0x00\n        /* \"#utility.yul\":785:786   */\n      dup1\n        /* \"#utility.yul\":778:790   */\n      revert\n        /* \"#utility.yul\":752:792   */\n    tag_194:\n        /* \"#utility.yul\":690:798   */\n      pop\n      jump\t// out\n        /* \"#utility.yul\":804:961   */\n    tag_133:\n        /* \"#utility.yul\":859:864   */\n      0x00\n        /* \"#utility.yul\":897:903   */\n      dup2\n        /* \"#utility.yul\":884:904   */\n      calldataload\n        /* \"#utility.yul\":875:904   */\n      swap1\n      pop\n        /* \"#utility.yul\":913:955   */\n      tag_196\n        /* \"#utility.yul\":949:954   */\n      dup2\n        /* \"#utility.yul\":913:955   */\n      tag_132\n      jump\t// in\n    tag_196:\n        /* \"#utility.yul\":804:961   */\n      swap3\n      swap2\n      pop\n      pop\n      jump\t// out\n        /* \"#utility.yul\":967:1459   */\n    tag_13:\n        /* \"#utility.yul\":1044:1050   */\n      0x00\n        /* \"#utility.yul\":1052:1058   */\n      dup1\n        /* \"#utility.yul\":1101:1103   */\n      0x40\n        /* \"#utility.yul\":1089:1098   */\n      dup4\n        /* \"#utility.yul\":1080:1087   */\n      dup6\n        /* \"#utility.yul\":1076:1099   */\n      sub\n        /* \"#utility.yul\":1072:1104   */\n      slt\n        /* \"#utility.yul\":1069:1188   */\n      iszero\n      tag_198\n      jumpi\n        /* \"#utility.yul\":1107:1186   */\n      tag_199\n      tag_127\n      jump\t// in\n    tag_199:\n        /* \"#utility.yul\":1069:1188   */\n    tag_198:\n        /* \"#utility.yul\":1227:1228   */\n      0x00\n        /* \"#utility.yul\":1252:1305   */\n      tag_200\n        /* \"#utility.yul\":1297:1304   */\n      dup6\n        /* \"#utility.yul\":1288:1294   */\n      dup3\n        /* \"#utility.yul\":1277:1286   */\n      dup7\n        /* \"#utility.yul\":1273:1295   */\n      add\n        /* \"#utility.yul\":1252:1305   */\n      tag_131\n      jump\t// in\n    tag_200:\n        /* \"#utility.yul\":1242:1305   */\n      swap3\n      pop\n        /* \"#utility.yul\":1198:1315   */\n      pop\n        /* \"#utility.yul\":1354:1356   */\n      0x20\n        /* \"#utility.yul\":1380:1442   */\n      tag_201\n        /* \"#utility.yul\":1434:1441   */\n      dup6\n        /* \"#utility.yul\":1425:1431   */\n      dup3\n        /* \"#utility.yul\":1414:1423   */\n      dup7\n        /* \"#utility.yul\":1410:1432   */\n      add\n        /* \"#utility.yul\":1380:1442   */\n      tag_133\n      jump\t// in\n    tag_201:\n        /* \"#utility.yul\":1370:1442   */\n      swap2\n      pop\n        /* \"#utility.yul\":1325:1452   */\n      pop\n        /* \"#utility.yul\":967:1459   */\n      swap3\n      pop\n      swap3\n      swap1\n      pop\n      jump\t// out\n        /* \"#utility.yul\":1465:1794   */\n    tag_18:\n        /* \"#utility.yul\":1524:1530   */\n      0x00\n        /* \"#utility.yul\":1573:1575   */\n      0x20\n        /* \"#utility.yul\":1561:1570   */\n      dup3\n        /* \"#utility.yul\":1552:1559   */\n      dup5\n        /* \"#utility.yul\":1548:1571   */\n      sub\n        /* \"#utility.yul\":1544:1576   */\n      slt\n        /* \"#utility.yul\":1541:1660   */\n      iszero\n      tag_203\n      jumpi\n        /* \"#utility.yul\":1579:1658   */\n      tag_204\n      tag_127\n      jump\t// in\n    tag_204:\n        /* \"#utility.yul\":1541:1660   */\n    tag_203:\n        /* \"#utility.yul\":1699:1700   */\n      0x00\n        /* \"#utility.yul\":1724:1777   */\n      tag_205\n        /* \"#utility.yul\":1769:1776   */\n      dup5\n        /* \"#utility.yul\":1760:1766   */\n      dup3\n        /* \"#utility.yul\":1749:1758   */\n      dup6\n        /* \"#utility.yul\":1745:1767   */\n      add\n        /* \"#utility.yul\":1724:1777   */\n      tag_131\n      jump\t// in\n    tag_205:\n        /* \"#utility.yul\":1714:1777   */\n      swap2\n      pop\n        /* \"#utility.yul\":1670:1787   */\n      pop\n        /* \"#utility.yul\":1465:1794   */\n      swap3\n      swap2\n      pop\n      pop\n      jump\t// out\n        /* \"#utility.yul\":1800:1926   */\n    tag_134:\n        /* \"#utility.yul\":1837:1844   */\n      0x00\n        /* \"#utility.yul\":1877:1919   */\n      0xffffffffffffffffffffffffffffffffffffffff\n        /* \"#utility.yul\":1870:1875   */\n      dup3\n        /* \"#utility.yul\":1866:1920   */\n      and\n        /* \"#utility.yul\":1855:1920   */\n      swap1\n      pop\n        /* \"#utility.yul\":1800:1926   */\n      swap2\n      swap1\n      pop\n      jump\t// out\n        /* \"#utility.yul\":1932:2028   */\n    tag_135:\n        /* \"#utility.yul\":1969:1976   */\n      0x00\n        /* \"#utility.yul\":1998:2022   */\n      tag_208\n        /* \"#utility.yul\":2016:2021   */\n      dup3\n        /* \"#utility.yul\":1998:2022   */\n      tag_134\n      jump\t// in\n    tag_208:\n        /* \"#utility.yul\":1987:2022   */\n      swap1\n      pop\n        /* \"#utility.yul\":1932:2028   */\n      swap2\n      swap1\n      pop\n      jump\t// out\n        /* \"#utility.yul\":2034:2152   */\n    tag_136:\n        /* \"#utility.yul\":2121:2145   */\n      tag_210\n        /* \"#utility.yul\":2139:2144   */\n      dup2\n        /* \"#utility.yul\":2121:2145   */\n      tag_135\n      jump\t// in\n    tag_210:\n        /* \"#utility.yul\":2116:2119   */\n      dup3\n        /* \"#utility.yul\":2109:2146   */\n      mstore\n        /* \"#utility.yul\":2034:2152   */\n      pop\n      pop\n      jump\t// out\n        /* \"#utility.yul\":2158:2276   */\n    tag_137:\n        /* \"#utility.yul\":2245:2269   */\n      tag_212\n        /* \"#utility.yul\":2263:2268   */\n      dup2\n        /* \"#utility.yul\":2245:2269   */\n      tag_129\n      jump\t// in\n    tag_212:\n        /* \"#utility.yul\":2240:2243   */\n      dup3\n        /* \"#utility.yul\":2233:2270   */\n      mstore\n        /* \"#utility.yul\":2158:2276   */\n      pop\n      pop\n      jump\t// out\n        /* \"#utility.yul\":2282:2462   */\n    tag_66:\n        /* \"#utility.yul\":2330:2407   */\n      0x4e487b7100000000000000000000000000000000000000000000000000000000\n        /* \"#utility.yul\":2327:2328   */\n      0x00\n        /* \"#utility.yul\":2320:2408   */\n      mstore\n        /* \"#utility.yul\":2427:2431   */\n      0x21\n        /* \"#utility.yul\":2424:2425   */\n      0x04\n        /* \"#utility.yul\":2417:2432   */\n      mstore\n        /* \"#utility.yul\":2451:2455   */\n      0x24\n        /* \"#utility.yul\":2448:2449   */\n      0x00\n        /* \"#utility.yul\":2441:2456   */\n      revert\n        /* \"#utility.yul\":2468:2582   */\n    tag_138:\n        /* \"#utility.yul\":2550:2551   */\n      0x04\n        /* \"#utility.yul\":2543:2548   */\n      dup2\n        /* \"#utility.yul\":2540:2552   */\n      lt\n        /* \"#utility.yul\":2530:2576   */\n      tag_215\n      jumpi\n        /* \"#utility.yul\":2556:2574   */\n      tag_216\n      tag_66\n      jump\t// in\n    tag_216:\n        /* \"#utility.yul\":2530:2576   */\n    tag_215:\n        /* \"#utility.yul\":2468:2582   */\n      pop\n      jump\t// out\n        /* \"#utility.yul\":2588:2717   */\n    tag_139:\n        /* \"#utility.yul\":2634:2641   */\n      0x00\n        /* \"#utility.yul\":2663:2668   */\n      dup2\n        /* \"#utility.yul\":2652:2668   */\n      swap1\n      pop\n        /* \"#utility.yul\":2669:2711   */\n      tag_218\n        /* \"#utility.yul\":2705:2710   */\n      dup3\n        /* \"#utility.yul\":2669:2711   */\n      tag_138\n      jump\t// in\n    tag_218:\n        /* \"#utility.yul\":2588:2717   */\n      swap2\n      swap1\n      pop\n      jump\t// out\n        /* \"#utility.yul\":2723:2852   */\n    tag_140:\n        /* \"#utility.yul\":2780:2789   */\n      0x00\n        /* \"#utility.yul\":2813:2846   */\n      tag_220\n        /* \"#utility.yul\":2840:2845   */\n      dup3\n        /* \"#utility.yul\":2813:2846   */\n      tag_139\n      jump\t// in\n    tag_220:\n        /* \"#utility.yul\":2800:2846   */\n      swap1\n      pop\n        /* \"#utility.yul\":2723:2852   */\n      swap2\n      swap1\n      pop\n      jump\t// out\n        /* \"#utility.yul\":2858:3003   */\n    tag_141:\n        /* \"#utility.yul\":2952:2996   */\n      tag_222\n        /* \"#utility.yul\":2990:2995   */\n      dup2\n        /* \"#utility.yul\":2952:2996   */\n      tag_140\n      jump\t// in\n    tag_222:\n        /* \"#utility.yul\":2947:2950   */\n      dup3\n        /* \"#utility.yul\":2940:2997   */\n      mstore\n        /* \"#utility.yul\":2858:3003   */\n      pop\n      pop\n      jump\t// out\n        /* \"#utility.yul\":3009:3465   */\n    tag_21:\n        /* \"#utility.yul\":3165:3169   */\n      0x00\n        /* \"#utility.yul\":3203:3205   */\n      0x60\n        /* \"#utility.yul\":3192:3201   */\n      dup3\n        /* \"#utility.yul\":3188:3206   */\n      add\n        /* \"#utility.yul\":3180:3206   */\n      swap1\n      pop\n        /* \"#utility.yul\":3216:3287   */\n      tag_224\n        /* \"#utility.yul\":3284:3285   */\n      0x00\n        /* \"#utility.yul\":3273:3282   */\n      dup4\n        /* \"#utility.yul\":3269:3286   */\n      add\n        /* \"#utility.yul\":3260:3266   */\n      dup7\n        /* \"#utility.yul\":3216:3287   */\n      tag_136\n      jump\t// in\n    tag_224:\n        /* \"#utility.yul\":3297:3369   */\n      tag_225\n        /* \"#utility.yul\":3365:3367   */\n      0x20\n        /* \"#utility.yul\":3354:3363   */\n      dup4\n        /* \"#utility.yul\":3350:3368   */\n      add\n        /* \"#utility.yul\":3341:3347   */\n      dup6\n        /* \"#utility.yul\":3297:3369   */\n      tag_137\n      jump\t// in\n    tag_225:\n        /* \"#utility.yul\":3379:3458   */\n      tag_226\n        /* \"#utility.yul\":3454:3456   */\n      0x40\n        /* \"#utility.yul\":3443:3452   */\n      dup4\n        /* \"#utility.yul\":3439:3457   */\n      add\n        /* \"#utility.yul\":3430:3436   */\n      dup5\n        /* \"#utility.yul\":3379:3458   */\n      tag_141\n      jump\t// in\n    tag_226:\n        /* \"#utility.yul\":3009:3465   */\n      swap5\n      swap4\n      pop\n      pop\n      pop\n      pop\n      jump\t// out\n        /* \"#utility.yul\":3471:3570   */\n    tag_142:\n        /* \"#utility.yul\":3523:3529   */\n      0x00\n        /* \"#utility.yul\":3557:3562   */\n      dup2\n        /* \"#utility.yul\":3551:3563   */\n      mload\n        /* \"#utility.yul\":3541:3563   */\n      swap1\n      pop\n        /* \"#utility.yul\":3471:3570   */\n      swap2\n      swap1\n      pop\n      jump\t// out\n        /* \"#utility.yul\":3576:3745   */\n    tag_143:\n        /* \"#utility.yul\":3660:3671   */\n      0x00\n        /* \"#utility.yul\":3694:3700   */\n      dup3\n        /* \"#utility.yul\":3689:3692   */\n      dup3\n        /* \"#utility.yul\":3682:3701   */\n      mstore\n        /* \"#utility.yul\":3734:3738   */\n      0x20\n        /* \"#utility.yul\":3729:3732   */\n      dup3\n        /* \"#utility.yul\":3725:3739   */\n      add\n        /* \"#utility.yul\":3710:3739   */\n      swap1\n      pop\n        /* \"#utility.yul\":3576:3745   */\n      swap3\n      swap2\n      pop\n      pop\n      jump\t// out\n        /* \"#utility.yul\":3751:3997   */\n    tag_144:\n        /* \"#utility.yul\":3832:3833   */\n      0x00\n        /* \"#utility.yul\":3842:3955   */\n    tag_230:\n        /* \"#utility.yul\":3856:3862   */\n      dup4\n        /* \"#utility.yul\":3853:3854   */\n      dup2\n        /* \"#utility.yul\":3850:3863   */\n      lt\n        /* \"#utility.yul\":3842:3955   */\n      iszero\n      tag_232\n      jumpi\n        /* \"#utility.yul\":3941:3942   */\n      dup1\n        /* \"#utility.yul\":3936:3939   */\n      dup3\n        /* \"#utility.yul\":3932:3943   */\n      add\n        /* \"#utility.yul\":3926:3944   */\n      mload\n        /* \"#utility.yul\":3922:3923   */\n      dup2\n        /* \"#utility.yul\":3917:3920   */\n      dup5\n        /* \"#utility.yul\":3913:3924   */\n      add\n        /* \"#utility.yul\":3906:3945   */\n      mstore\n        /* \"#utility.yul\":3878:3880   */\n      0x20\n        /* \"#utility.yul\":3875:3876   */\n      dup2\n        /* \"#utility.yul\":3871:3881   */\n      add\n        /* \"#utility.yul\":3866:3881   */\n      swap1\n      pop\n        /* \"#utility.yul\":3842:3955   */\n      jump(tag_230)\n    tag_232:\n        /* \"#utility.yul\":3989:3990   */\n      0x00\n        /* \"#utility.yul\":3980:3986   */\n      dup5\n        /* \"#utility.yul\":3975:3978   */\n      dup5\n        /* \"#utility.yul\":3971:3987   */\n      add\n        /* \"#utility.yul\":3964:3991   */\n      mstore\n        /* \"#utility.yul\":3813:3997   */\n      pop\n        /* \"#utility.yul\":3751:3997   */\n      pop\n      pop\n      pop\n      jump\t// out\n        /* \"#utility.yul\":4003:4105   */\n    tag_145:\n        /* \"#utility.yul\":4044:4050   */\n      0x00\n        /* \"#utility.yul\":4095:4097   */\n      0x1f\n        /* \"#utility.yul\":4091:4098   */\n      not\n        /* \"#utility.yul\":4086:4088   */\n      0x1f\n        /* \"#utility.yul\":4079:4084   */\n      dup4\n        /* \"#utility.yul\":4075:4089   */\n      add\n        /* \"#utility.yul\":4071:4099   */\n      and\n        /* \"#utility.yul\":4061:4099   */\n      swap1\n      pop\n        /* \"#utility.yul\":4003:4105   */\n      swap2\n      swap1\n      pop\n      jump\t// out\n        /* \"#utility.yul\":4111:4488   */\n    tag_146:\n        /* \"#utility.yul\":4199:4202   */\n      0x00\n        /* \"#utility.yul\":4227:4266   */\n      tag_235\n        /* \"#utility.yul\":4260:4265   */\n      dup3\n        /* \"#utility.yul\":4227:4266   */\n      tag_142\n      jump\t// in\n    tag_235:\n        /* \"#utility.yul\":4282:4353   */\n      tag_236\n        /* \"#utility.yul\":4346:4352   */\n      dup2\n        /* \"#utility.yul\":4341:4344   */\n      dup6\n        /* \"#utility.yul\":4282:4353   */\n      tag_143\n      jump\t// in\n    tag_236:\n        /* \"#utility.yul\":4275:4353   */\n      swap4\n      pop\n        /* \"#utility.yul\":4362:4427   */\n      tag_237\n        /* \"#utility.yul\":4420:4426   */\n      dup2\n        /* \"#utility.yul\":4415:4418   */\n      dup6\n        /* \"#utility.yul\":4408:4412   */\n      0x20\n        /* \"#utility.yul\":4401:4406   */\n      dup7\n        /* \"#utility.yul\":4397:4413   */\n      add\n        /* \"#utility.yul\":4362:4427   */\n      tag_144\n      jump\t// in\n    tag_237:\n        /* \"#utility.yul\":4452:4481   */\n      tag_238\n        /* \"#utility.yul\":4474:4480   */\n      dup2\n        /* \"#utility.yul\":4452:4481   */\n      tag_145\n      jump\t// in\n    tag_238:\n        /* \"#utility.yul\":4447:4450   */\n      dup5\n        /* \"#utility.yul\":4443:4482   */\n      add\n        /* \"#utility.yul\":4436:4482   */\n      swap2\n      pop\n        /* \"#utility.yul\":4203:4488   */\n      pop\n        /* \"#utility.yul\":4111:4488   */\n      swap3\n      swap2\n      pop\n      pop\n      jump\t// out\n        /* \"#utility.yul\":4494:4602   */\n    tag_147:\n        /* \"#utility.yul\":4571:4595   */\n      tag_240\n        /* \"#utility.yul\":4589:4594   */\n      dup2\n        /* \"#utility.yul\":4571:4595   */\n      tag_129\n      jump\t// in\n    tag_240:\n        /* \"#utility.yul\":4566:4569   */\n      dup3\n        /* \"#utility.yul\":4559:4596   */\n      mstore\n        /* \"#utility.yul\":4494:4602   */\n      pop\n      pop\n      jump\t// out\n        /* \"#utility.yul\":4676:5191   */\n    tag_148:\n        /* \"#utility.yul\":4819:4823   */\n      0x40\n        /* \"#utility.yul\":4814:4817   */\n      dup3\n        /* \"#utility.yul\":4810:4824   */\n      add\n        /* \"#utility.yul\":4912:4916   */\n      0x00\n        /* \"#utility.yul\":4905:4910   */\n      dup3\n        /* \"#utility.yul\":4901:4917   */\n      add\n        /* \"#utility.yul\":4895:4918   */\n      mload\n        /* \"#utility.yul\":4931:4994   */\n      tag_242\n        /* \"#utility.yul\":4988:4992   */\n      0x00\n        /* \"#utility.yul\":4983:4986   */\n      dup6\n        /* \"#utility.yul\":4979:4993   */\n      add\n        /* \"#utility.yul\":4965:4977   */\n      dup3\n        /* \"#utility.yul\":4931:4994   */\n      tag_147\n      jump\t// in\n    tag_242:\n        /* \"#utility.yul\":4834:5004   */\n      pop\n        /* \"#utility.yul\":5092:5096   */\n      0x20\n        /* \"#utility.yul\":5085:5090   */\n      dup3\n        /* \"#utility.yul\":5081:5097   */\n      add\n        /* \"#utility.yul\":5075:5098   */\n      mload\n        /* \"#utility.yul\":5111:5174   */\n      tag_243\n        /* \"#utility.yul\":5168:5172   */\n      0x20\n        /* \"#utility.yul\":5163:5166   */\n      dup6\n        /* \"#utility.yul\":5159:5173   */\n      add\n        /* \"#utility.yul\":5145:5157   */\n      dup3\n        /* \"#utility.yul\":5111:5174   */\n      tag_147\n      jump\t// in\n    tag_243:\n        /* \"#utility.yul\":5014:5184   */\n      pop\n        /* \"#utility.yul\":4788:5191   */\n      pop\n        /* \"#utility.yul\":4676:5191   */\n      pop\n      pop\n      jump\t// out\n        /* \"#utility.yul\":5197:6135   */\n    tag_27:\n        /* \"#utility.yul\":5488:5492   */\n      0x00\n        /* \"#utility.yul\":5526:5529   */\n      0xc0\n        /* \"#utility.yul\":5515:5524   */\n      dup3\n        /* \"#utility.yul\":5511:5530   */\n      add\n        /* \"#utility.yul\":5503:5530   */\n      swap1\n      pop\n        /* \"#utility.yul\":5576:5585   */\n      dup2\n        /* \"#utility.yul\":5570:5574   */\n      dup2\n        /* \"#utility.yul\":5566:5586   */\n      sub\n        /* \"#utility.yul\":5562:5563   */\n      0x00\n        /* \"#utility.yul\":5551:5560   */\n      dup4\n        /* \"#utility.yul\":5547:5564   */\n      add\n        /* \"#utility.yul\":5540:5587   */\n      mstore\n        /* \"#utility.yul\":5604:5682   */\n      tag_245\n        /* \"#utility.yul\":5677:5681   */\n      dup2\n        /* \"#utility.yul\":5668:5674   */\n      dup9\n        /* \"#utility.yul\":5604:5682   */\n      tag_146\n      jump\t// in\n    tag_245:\n        /* \"#utility.yul\":5596:5682   */\n      swap1\n      pop\n        /* \"#utility.yul\":5729:5738   */\n      dup2\n        /* \"#utility.yul\":5723:5727   */\n      dup2\n        /* \"#utility.yul\":5719:5739   */\n      sub\n        /* \"#utility.yul\":5714:5716   */\n      0x20\n        /* \"#utility.yul\":5703:5712   */\n      dup4\n        /* \"#utility.yul\":5699:5717   */\n      add\n        /* \"#utility.yul\":5692:5740   */\n      mstore\n        /* \"#utility.yul\":5757:5835   */\n      tag_246\n        /* \"#utility.yul\":5830:5834   */\n      dup2\n        /* \"#utility.yul\":5821:5827   */\n      dup8\n        /* \"#utility.yul\":5757:5835   */\n      tag_146\n      jump\t// in\n    tag_246:\n        /* \"#utility.yul\":5749:5835   */\n      swap1\n      pop\n        /* \"#utility.yul\":5845:5917   */\n      tag_247\n        /* \"#utility.yul\":5913:5915   */\n      0x40\n        /* \"#utility.yul\":5902:5911   */\n      dup4\n        /* \"#utility.yul\":5898:5916   */\n      add\n        /* \"#utility.yul\":5889:5895   */\n      dup7\n        /* \"#utility.yul\":5845:5917   */\n      tag_137\n      jump\t// in\n    tag_247:\n        /* \"#utility.yul\":5927:5999   */\n      tag_248\n        /* \"#utility.yul\":5995:5997   */\n      0x60\n        /* \"#utility.yul\":5984:5993   */\n      dup4\n        /* \"#utility.yul\":5980:5998   */\n      add\n        /* \"#utility.yul\":5971:5977   */\n      dup6\n        /* \"#utility.yul\":5927:5999   */\n      tag_137\n      jump\t// in\n    tag_248:\n        /* \"#utility.yul\":6009:6128   */\n      tag_249\n        /* \"#utility.yul\":6123:6126   */\n      0x80\n        /* \"#utility.yul\":6112:6121   */\n      dup4\n        /* \"#utility.yul\":6108:6127   */\n      add\n        /* \"#utility.yul\":6099:6105   */\n      dup5\n        /* \"#utility.yul\":6009:6128   */\n      tag_148\n      jump\t// in\n    tag_249:\n        /* \"#utility.yul\":5197:6135   */\n      swap7\n      swap6\n      pop\n      pop\n      pop\n      pop\n      pop\n      pop\n      jump\t// out\n        /* \"#utility.yul\":6141:6263   */\n    tag_149:\n        /* \"#utility.yul\":6214:6238   */\n      tag_251\n        /* \"#utility.yul\":6232:6237   */\n      dup2\n        /* \"#utility.yul\":6214:6238   */\n      tag_135\n      jump\t// in\n    tag_251:\n        /* \"#utility.yul\":6207:6212   */\n      dup2\n        /* \"#utility.yul\":6204:6239   */\n      eq\n        /* \"#utility.yul\":6194:6257   */\n      tag_252\n      jumpi\n        /* \"#utility.yul\":6253:6254   */\n      0x00\n        /* \"#utility.yul\":6250:6251   */\n      dup1\n        /* \"#utility.yul\":6243:6255   */\n      revert\n        /* \"#utility.yul\":6194:6257   */\n    tag_252:\n        /* \"#utility.yul\":6141:6263   */\n      pop\n      jump\t// out\n        /* \"#utility.yul\":6269:6408   */\n    tag_150:\n        /* \"#utility.yul\":6315:6320   */\n      0x00\n        /* \"#utility.yul\":6353:6359   */\n      dup2\n        /* \"#utility.yul\":6340:6360   */\n      calldataload\n        /* \"#utility.yul\":6331:6360   */\n      swap1\n      pop\n        /* \"#utility.yul\":6369:6402   */\n      tag_254\n        /* \"#utility.yul\":6396:6401   */\n      dup2\n        /* \"#utility.yul\":6369:6402   */\n      tag_149\n      jump\t// in\n    tag_254:\n        /* \"#utility.yul\":6269:6408   */\n      swap3\n      swap2\n      pop\n      pop\n      jump\t// out\n        /* \"#utility.yul\":6414:6888   */\n    tag_31:\n        /* \"#utility.yul\":6482:6488   */\n      0x00\n        /* \"#utility.yul\":6490:6496   */\n      dup1\n        /* \"#utility.yul\":6539:6541   */\n      0x40\n        /* \"#utility.yul\":6527:6536   */\n      dup4\n        /* \"#utility.yul\":6518:6525   */\n      dup6\n        /* \"#utility.yul\":6514:6537   */\n      sub\n        /* \"#utility.yul\":6510:6542   */\n      slt\n        /* \"#utility.yul\":6507:6626   */\n      iszero\n      tag_256\n      jumpi\n        /* \"#utility.yul\":6545:6624   */\n      tag_257\n      tag_127\n      jump\t// in\n    tag_257:\n        /* \"#utility.yul\":6507:6626   */\n    tag_256:\n        /* \"#utility.yul\":6665:6666   */\n      0x00\n        /* \"#utility.yul\":6690:6743   */\n      tag_258\n        /* \"#utility.yul\":6735:6742   */\n      dup6\n        /* \"#utility.yul\":6726:6732   */\n      dup3\n        /* \"#utility.yul\":6715:6724   */\n      dup7\n        /* \"#utility.yul\":6711:6733   */\n      add\n        /* \"#utility.yul\":6690:6743   */\n      tag_150\n      jump\t// in\n    tag_258:\n        /* \"#utility.yul\":6680:6743   */\n      swap3\n      pop\n        /* \"#utility.yul\":6636:6753   */\n      pop\n        /* \"#utility.yul\":6792:6794   */\n      0x20\n        /* \"#utility.yul\":6818:6871   */\n      tag_259\n        /* \"#utility.yul\":6863:6870   */\n      dup6\n        /* \"#utility.yul\":6854:6860   */\n      dup3\n        /* \"#utility.yul\":6843:6852   */\n      dup7\n        /* \"#utility.yul\":6839:6861   */\n      add\n        /* \"#utility.yul\":6818:6871   */\n      tag_131\n      jump\t// in\n    tag_259:\n        /* \"#utility.yul\":6808:6871   */\n      swap2\n      pop\n        /* \"#utility.yul\":6763:6881   */\n      pop\n        /* \"#utility.yul\":6414:6888   */\n      swap3\n      pop\n      swap3\n      swap1\n      pop\n      jump\t// out\n        /* \"#utility.yul\":6894:6984   */\n    tag_151:\n        /* \"#utility.yul\":6928:6935   */\n      0x00\n        /* \"#utility.yul\":6971:6976   */\n      dup2\n        /* \"#utility.yul\":6964:6977   */\n      iszero\n        /* \"#utility.yul\":6957:6978   */\n      iszero\n        /* \"#utility.yul\":6946:6978   */\n      swap1\n      pop\n        /* \"#utility.yul\":6894:6984   */\n      swap2\n      swap1\n      pop\n      jump\t// out\n        /* \"#utility.yul\":6990:7099   */\n    tag_152:\n        /* \"#utility.yul\":7071:7092   */\n      tag_262\n        /* \"#utility.yul\":7086:7091   */\n      dup2\n        /* \"#utility.yul\":7071:7092   */\n      tag_151\n      jump\t// in\n    tag_262:\n        /* \"#utility.yul\":7066:7069   */\n      dup3\n        /* \"#utility.yul\":7059:7093   */\n      mstore\n        /* \"#utility.yul\":6990:7099   */\n      pop\n      pop\n      jump\t// out\n        /* \"#utility.yul\":7105:7660   */\n    tag_34:\n        /* \"#utility.yul\":7283:7287   */\n      0x00\n        /* \"#utility.yul\":7321:7324   */\n      0x80\n        /* \"#utility.yul\":7310:7319   */\n      dup3\n        /* \"#utility.yul\":7306:7325   */\n      add\n        /* \"#utility.yul\":7298:7325   */\n      swap1\n      pop\n        /* \"#utility.yul\":7335:7413   */\n      tag_264\n        /* \"#utility.yul\":7410:7411   */\n      0x00\n        /* \"#utility.yul\":7399:7408   */\n      dup4\n        /* \"#utility.yul\":7395:7412   */\n      add\n        /* \"#utility.yul\":7386:7392   */\n      dup8\n        /* \"#utility.yul\":7335:7413   */\n      tag_141\n      jump\t// in\n    tag_264:\n        /* \"#utility.yul\":7423:7495   */\n      tag_265\n        /* \"#utility.yul\":7491:7493   */\n      0x20\n        /* \"#utility.yul\":7480:7489   */\n      dup4\n        /* \"#utility.yul\":7476:7494   */\n      add\n        /* \"#utility.yul\":7467:7473   */\n      dup7\n        /* \"#utility.yul\":7423:7495   */\n      tag_137\n      jump\t// in\n    tag_265:\n        /* \"#utility.yul\":7505:7577   */\n      tag_266\n        /* \"#utility.yul\":7573:7575   */\n      0x40\n        /* \"#utility.yul\":7562:7571   */\n      dup4\n        /* \"#utility.yul\":7558:7576   */\n      add\n        /* \"#utility.yul\":7549:7555   */\n      dup6\n        /* \"#utility.yul\":7505:7577   */\n      tag_137\n      jump\t// in\n    tag_266:\n        /* \"#utility.yul\":7587:7653   */\n      tag_267\n        /* \"#utility.yul\":7649:7651   */\n      0x60\n        /* \"#utility.yul\":7638:7647   */\n      dup4\n        /* \"#utility.yul\":7634:7652   */\n      add\n        /* \"#utility.yul\":7625:7631   */\n      dup5\n        /* \"#utility.yul\":7587:7653   */\n      tag_152\n      jump\t// in\n    tag_267:\n        /* \"#utility.yul\":7105:7660   */\n      swap6\n      swap5\n      pop\n      pop\n      pop\n      pop\n      pop\n      jump\t// out\n        /* \"#utility.yul\":7666:7783   */\n    tag_153:\n        /* \"#utility.yul\":7775:7776   */\n      0x00\n        /* \"#utility.yul\":7772:7773   */\n      dup1\n        /* \"#utility.yul\":7765:7777   */\n      revert\n        /* \"#utility.yul\":7789:7906   */\n    tag_154:\n        /* \"#utility.yul\":7898:7899   */\n      0x00\n        /* \"#utility.yul\":7895:7896   */\n      dup1\n        /* \"#utility.yul\":7888:7900   */\n      revert\n        /* \"#utility.yul\":7912:8029   */\n    tag_155:\n        /* \"#utility.yul\":8021:8022   */\n      0x00\n        /* \"#utility.yul\":8018:8019   */\n      dup1\n        /* \"#utility.yul\":8011:8023   */\n      revert\n        /* \"#utility.yul\":8049:8602   */\n    tag_156:\n        /* \"#utility.yul\":8107:8115   */\n      0x00\n        /* \"#utility.yul\":8117:8123   */\n      dup1\n        /* \"#utility.yul\":8167:8170   */\n      dup4\n        /* \"#utility.yul\":8160:8164   */\n      0x1f\n        /* \"#utility.yul\":8152:8158   */\n      dup5\n        /* \"#utility.yul\":8148:8165   */\n      add\n        /* \"#utility.yul\":8144:8171   */\n      slt\n        /* \"#utility.yul\":8134:8256   */\n      tag_272\n      jumpi\n        /* \"#utility.yul\":8175:8254   */\n      tag_273\n      tag_153\n      jump\t// in\n    tag_273:\n        /* \"#utility.yul\":8134:8256   */\n    tag_272:\n        /* \"#utility.yul\":8288:8294   */\n      dup3\n        /* \"#utility.yul\":8275:8295   */\n      calldataload\n        /* \"#utility.yul\":8265:8295   */\n      swap1\n      pop\n        /* \"#utility.yul\":8318:8336   */\n      0xffffffffffffffff\n        /* \"#utility.yul\":8310:8316   */\n      dup2\n        /* \"#utility.yul\":8307:8337   */\n      gt\n        /* \"#utility.yul\":8304:8421   */\n      iszero\n      tag_274\n      jumpi\n        /* \"#utility.yul\":8340:8419   */\n      tag_275\n      tag_154\n      jump\t// in\n    tag_275:\n        /* \"#utility.yul\":8304:8421   */\n    tag_274:\n        /* \"#utility.yul\":8454:8458   */\n      0x20\n        /* \"#utility.yul\":8446:8452   */\n      dup4\n        /* \"#utility.yul\":8442:8459   */\n      add\n        /* \"#utility.yul\":8430:8459   */\n      swap2\n      pop\n        /* \"#utility.yul\":8508:8511   */\n      dup4\n        /* \"#utility.yul\":8500:8504   */\n      0x01\n        /* \"#utility.yul\":8492:8498   */\n      dup3\n        /* \"#utility.yul\":8488:8505   */\n      mul\n        /* \"#utility.yul\":8478:8486   */\n      dup4\n        /* \"#utility.yul\":8474:8506   */\n      add\n        /* \"#utility.yul\":8471:8512   */\n      gt\n        /* \"#utility.yul\":8468:8596   */\n      iszero\n      tag_276\n      jumpi\n        /* \"#utility.yul\":8515:8594   */\n      tag_277\n      tag_155\n      jump\t// in\n    tag_277:\n        /* \"#utility.yul\":8468:8596   */\n    tag_276:\n        /* \"#utility.yul\":8049:8602   */\n      swap3\n      pop\n      swap3\n      swap1\n      pop\n      jump\t// out\n        /* \"#utility.yul\":8608:9627   */\n    tag_43:\n        /* \"#utility.yul\":8709:8715   */\n      0x00\n        /* \"#utility.yul\":8717:8723   */\n      dup1\n        /* \"#utility.yul\":8725:8731   */\n      0x00\n        /* \"#utility.yul\":8733:8739   */\n      dup1\n        /* \"#utility.yul\":8741:8747   */\n      0x00\n        /* \"#utility.yul\":8790:8792   */\n      0x60\n        /* \"#utility.yul\":8778:8787   */\n      dup7\n        /* \"#utility.yul\":8769:8776   */\n      dup9\n        /* \"#utility.yul\":8765:8788   */\n      sub\n        /* \"#utility.yul\":8761:8793   */\n      slt\n        /* \"#utility.yul\":8758:8877   */\n      iszero\n      tag_279\n      jumpi\n        /* \"#utility.yul\":8796:8875   */\n      tag_280\n      tag_127\n      jump\t// in\n    tag_280:\n        /* \"#utility.yul\":8758:8877   */\n    tag_279:\n        /* \"#utility.yul\":8944:8945   */\n      0x00\n        /* \"#utility.yul\":8933:8942   */\n      dup7\n        /* \"#utility.yul\":8929:8946   */\n      add\n        /* \"#utility.yul\":8916:8947   */\n      calldataload\n        /* \"#utility.yul\":8974:8992   */\n      0xffffffffffffffff\n        /* \"#utility.yul\":8966:8972   */\n      dup2\n        /* \"#utility.yul\":8963:8993   */\n      gt\n        /* \"#utility.yul\":8960:9077   */\n      iszero\n      tag_281\n      jumpi\n        /* \"#utility.yul\":8996:9075   */\n      tag_282\n      tag_128\n      jump\t// in\n    tag_282:\n        /* \"#utility.yul\":8960:9077   */\n    tag_281:\n        /* \"#utility.yul\":9109:9174   */\n      tag_283\n        /* \"#utility.yul\":9166:9173   */\n      dup9\n        /* \"#utility.yul\":9157:9163   */\n      dup3\n        /* \"#utility.yul\":9146:9155   */\n      dup10\n        /* \"#utility.yul\":9142:9164   */\n      add\n        /* \"#utility.yul\":9109:9174   */\n      tag_156\n      jump\t// in\n    tag_283:\n        /* \"#utility.yul\":9091:9174   */\n      swap6\n      pop\n      swap6\n      pop\n        /* \"#utility.yul\":8887:9184   */\n      pop\n        /* \"#utility.yul\":9251:9253   */\n      0x20\n        /* \"#utility.yul\":9240:9249   */\n      dup7\n        /* \"#utility.yul\":9236:9254   */\n      add\n        /* \"#utility.yul\":9223:9255   */\n      calldataload\n        /* \"#utility.yul\":9282:9300   */\n      0xffffffffffffffff\n        /* \"#utility.yul\":9274:9280   */\n      dup2\n        /* \"#utility.yul\":9271:9301   */\n      gt\n        /* \"#utility.yul\":9268:9385   */\n      iszero\n      tag_284\n      jumpi\n        /* \"#utility.yul\":9304:9383   */\n      tag_285\n      tag_128\n      jump\t// in\n    tag_285:\n        /* \"#utility.yul\":9268:9385   */\n    tag_284:\n        /* \"#utility.yul\":9417:9482   */\n      tag_286\n        /* \"#utility.yul\":9474:9481   */\n      dup9\n        /* \"#utility.yul\":9465:9471   */\n      dup3\n        /* \"#utility.yul\":9454:9463   */\n      dup10\n        /* \"#utility.yul\":9450:9472   */\n      add\n        /* \"#utility.yul\":9417:9482   */\n      tag_156\n      jump\t// in\n    tag_286:\n        /* \"#utility.yul\":9399:9482   */\n      swap4\n      pop\n      swap4\n      pop\n        /* \"#utility.yul\":9194:9492   */\n      pop\n        /* \"#utility.yul\":9531:9533   */\n      0x40\n        /* \"#utility.yul\":9557:9610   */\n      tag_287\n        /* \"#utility.yul\":9602:9609   */\n      dup9\n        /* \"#utility.yul\":9593:9599   */\n      dup3\n        /* \"#utility.yul\":9582:9591   */\n      dup10\n        /* \"#utility.yul\":9578:9600   */\n      add\n        /* \"#utility.yul\":9557:9610   */\n      tag_131\n      jump\t// in\n    tag_287:\n        /* \"#utility.yul\":9547:9610   */\n      swap2\n      pop\n        /* \"#utility.yul\":9502:9620   */\n      pop\n        /* \"#utility.yul\":8608:9627   */\n      swap3\n      swap6\n      pop\n      swap3\n      swap6\n      swap1\n      swap4\n      pop\n      jump\t// out\n        /* \"#utility.yul\":9633:9843   */\n    tag_46:\n        /* \"#utility.yul\":9720:9724   */\n      0x00\n        /* \"#utility.yul\":9758:9760   */\n      0x20\n        /* \"#utility.yul\":9747:9756   */\n      dup3\n        /* \"#utility.yul\":9743:9761   */\n      add\n        /* \"#utility.yul\":9735:9761   */\n      swap1\n      pop\n        /* \"#utility.yul\":9771:9836   */\n      tag_289\n        /* \"#utility.yul\":9833:9834   */\n      0x00\n        /* \"#utility.yul\":9822:9831   */\n      dup4\n        /* \"#utility.yul\":9818:9835   */\n      add\n        /* \"#utility.yul\":9809:9815   */\n      dup5\n        /* \"#utility.yul\":9771:9836   */\n      tag_152\n      jump\t// in\n    tag_289:\n        /* \"#utility.yul\":9633:9843   */\n      swap3\n      swap2\n      pop\n      pop\n      jump\t// out\n        /* \"#utility.yul\":9849:10468   */\n    tag_50:\n        /* \"#utility.yul\":9926:9932   */\n      0x00\n        /* \"#utility.yul\":9934:9940   */\n      dup1\n        /* \"#utility.yul\":9942:9948   */\n      0x00\n        /* \"#utility.yul\":9991:9993   */\n      0x60\n        /* \"#utility.yul\":9979:9988   */\n      dup5\n        /* \"#utility.yul\":9970:9977   */\n      dup7\n        /* \"#utility.yul\":9966:9989   */\n      sub\n        /* \"#utility.yul\":9962:9994   */\n      slt\n        /* \"#utility.yul\":9959:10078   */\n      iszero\n      tag_291\n      jumpi\n        /* \"#utility.yul\":9997:10076   */\n      tag_292\n      tag_127\n      jump\t// in\n    tag_292:\n        /* \"#utility.yul\":9959:10078   */\n    tag_291:\n        /* \"#utility.yul\":10117:10118   */\n      0x00\n        /* \"#utility.yul\":10142:10195   */\n      tag_293\n        /* \"#utility.yul\":10187:10194   */\n      dup7\n        /* \"#utility.yul\":10178:10184   */\n      dup3\n        /* \"#utility.yul\":10167:10176   */\n      dup8\n        /* \"#utility.yul\":10163:10185   */\n      add\n        /* \"#utility.yul\":10142:10195   */\n      tag_131\n      jump\t// in\n    tag_293:\n        /* \"#utility.yul\":10132:10195   */\n      swap4\n      pop\n        /* \"#utility.yul\":10088:10205   */\n      pop\n        /* \"#utility.yul\":10244:10246   */\n      0x20\n        /* \"#utility.yul\":10270:10323   */\n      tag_294\n        /* \"#utility.yul\":10315:10322   */\n      dup7\n        /* \"#utility.yul\":10306:10312   */\n      dup3\n        /* \"#utility.yul\":10295:10304   */\n      dup8\n        /* \"#utility.yul\":10291:10313   */\n      add\n        /* \"#utility.yul\":10270:10323   */\n      tag_131\n      jump\t// in\n    tag_294:\n        /* \"#utility.yul\":10260:10323   */\n      swap3\n      pop\n        /* \"#utility.yul\":10215:10333   */\n      pop\n        /* \"#utility.yul\":10372:10374   */\n      0x40\n        /* \"#utility.yul\":10398:10451   */\n      tag_295\n        /* \"#utility.yul\":10443:10450   */\n      dup7\n        /* \"#utility.yul\":10434:10440   */\n      dup3\n        /* \"#utility.yul\":10423:10432   */\n      dup8\n        /* \"#utility.yul\":10419:10441   */\n      add\n        /* \"#utility.yul\":10398:10451   */\n      tag_131\n      jump\t// in\n    tag_295:\n        /* \"#utility.yul\":10388:10451   */\n      swap2\n      pop\n        /* \"#utility.yul\":10343:10461   */\n      pop\n        /* \"#utility.yul\":9849:10468   */\n      swap3\n      pop\n      swap3\n      pop\n      swap3\n      jump\t// out\n        /* \"#utility.yul\":10474:10696   */\n    tag_56:\n        /* \"#utility.yul\":10567:10571   */\n      0x00\n        /* \"#utility.yul\":10605:10607   */\n      0x20\n        /* \"#utility.yul\":10594:10603   */\n      dup3\n        /* \"#utility.yul\":10590:10608   */\n      add\n        /* \"#utility.yul\":10582:10608   */\n      swap1\n      pop\n        /* \"#utility.yul\":10618:10689   */\n      tag_297\n        /* \"#utility.yul\":10686:10687   */\n      0x00\n        /* \"#utility.yul\":10675:10684   */\n      dup4\n        /* \"#utility.yul\":10671:10688   */\n      add\n        /* \"#utility.yul\":10662:10668   */\n      dup5\n        /* \"#utility.yul\":10618:10689   */\n      tag_136\n      jump\t// in\n    tag_297:\n        /* \"#utility.yul\":10474:10696   */\n      swap3\n      swap2\n      pop\n      pop\n      jump\t// out\n        /* \"#utility.yul\":10702:10856   */\n    tag_157:\n        /* \"#utility.yul\":10842:10848   */\n      0x596f752000000000000000000000000000000000000000000000000000000000\n        /* \"#utility.yul\":10838:10839   */\n      0x00\n        /* \"#utility.yul\":10830:10836   */\n      dup3\n        /* \"#utility.yul\":10826:10840   */\n      add\n        /* \"#utility.yul\":10819:10849   */\n      mstore\n        /* \"#utility.yul\":10702:10856   */\n      pop\n      jump\t// out\n        /* \"#utility.yul\":10862:11227   */\n    tag_158:\n        /* \"#utility.yul\":11004:11007   */\n      0x00\n        /* \"#utility.yul\":11025:11091   */\n      tag_300\n        /* \"#utility.yul\":11089:11090   */\n      0x04\n        /* \"#utility.yul\":11084:11087   */\n      dup4\n        /* \"#utility.yul\":11025:11091   */\n      tag_143\n      jump\t// in\n    tag_300:\n        /* \"#utility.yul\":11018:11091   */\n      swap2\n      pop\n        /* \"#utility.yul\":11100:11193   */\n      tag_301\n        /* \"#utility.yul\":11189:11192   */\n      dup3\n        /* \"#utility.yul\":11100:11193   */\n      tag_157\n      jump\t// in\n    tag_301:\n        /* \"#utility.yul\":11218:11220   */\n      0x20\n        /* \"#utility.yul\":11213:11216   */\n      dup3\n        /* \"#utility.yul\":11209:11221   */\n      add\n        /* \"#utility.yul\":11202:11221   */\n      swap1\n      pop\n        /* \"#utility.yul\":10862:11227   */\n      swap2\n      swap1\n      pop\n      jump\t// out\n        /* \"#utility.yul\":11233:11652   */\n    tag_60:\n        /* \"#utility.yul\":11399:11403   */\n      0x00\n        /* \"#utility.yul\":11437:11439   */\n      0x20\n        /* \"#utility.yul\":11426:11435   */\n      dup3\n        /* \"#utility.yul\":11422:11440   */\n      add\n        /* \"#utility.yul\":11414:11440   */\n      swap1\n      pop\n        /* \"#utility.yul\":11486:11495   */\n      dup2\n        /* \"#utility.yul\":11480:11484   */\n      dup2\n        /* \"#utility.yul\":11476:11496   */\n      sub\n        /* \"#utility.yul\":11472:11473   */\n      0x00\n        /* \"#utility.yul\":11461:11470   */\n      dup4\n        /* \"#utility.yul\":11457:11474   */\n      add\n        /* \"#utility.yul\":11450:11497   */\n      mstore\n        /* \"#utility.yul\":11514:11645   */\n      tag_303\n        /* \"#utility.yul\":11640:11644   */\n      dup2\n        /* \"#utility.yul\":11514:11645   */\n      tag_158\n      jump\t// in\n    tag_303:\n        /* \"#utility.yul\":11506:11645   */\n      swap1\n      pop\n        /* \"#utility.yul\":11233:11652   */\n      swap2\n      swap1\n      pop\n      jump\t// out\n        /* \"#utility.yul\":11658:11840   */\n    tag_159:\n        /* \"#utility.yul\":11798:11832   */\n      0x42657420416d6f756e74206973206c657373207468616e207265717569726564\n        /* \"#utility.yul\":11794:11795   */\n      0x00\n        /* \"#utility.yul\":11786:11792   */\n      dup3\n        /* \"#utility.yul\":11782:11796   */\n      add\n        /* \"#utility.yul\":11775:11833   */\n      mstore\n        /* \"#utility.yul\":11658:11840   */\n      pop\n      jump\t// out\n        /* \"#utility.yul\":11846:12212   */\n    tag_160:\n        /* \"#utility.yul\":11988:11991   */\n      0x00\n        /* \"#utility.yul\":12009:12076   */\n      tag_306\n        /* \"#utility.yul\":12073:12075   */\n      0x20\n        /* \"#utility.yul\":12068:12071   */\n      dup4\n        /* \"#utility.yul\":12009:12076   */\n      tag_143\n      jump\t// in\n    tag_306:\n        /* \"#utility.yul\":12002:12076   */\n      swap2\n      pop\n        /* \"#utility.yul\":12085:12178   */\n      tag_307\n        /* \"#utility.yul\":12174:12177   */\n      dup3\n        /* \"#utility.yul\":12085:12178   */\n      tag_159\n      jump\t// in\n    tag_307:\n        /* \"#utility.yul\":12203:12205   */\n      0x20\n        /* \"#utility.yul\":12198:12201   */\n      dup3\n        /* \"#utility.yul\":12194:12206   */\n      add\n        /* \"#utility.yul\":12187:12206   */\n      swap1\n      pop\n        /* \"#utility.yul\":11846:12212   */\n      swap2\n      swap1\n      pop\n      jump\t// out\n        /* \"#utility.yul\":12218:12637   */\n    tag_63:\n        /* \"#utility.yul\":12384:12388   */\n      0x00\n        /* \"#utility.yul\":12422:12424   */\n      0x20\n        /* \"#utility.yul\":12411:12420   */\n      dup3\n        /* \"#utility.yul\":12407:12425   */\n      add\n        /* \"#utility.yul\":12399:12425   */\n      swap1\n      pop\n        /* \"#utility.yul\":12471:12480   */\n      dup2\n        /* \"#utility.yul\":12465:12469   */\n      dup2\n        /* \"#utility.yul\":12461:12481   */\n      sub\n        /* \"#utility.yul\":12457:12458   */\n      0x00\n        /* \"#utility.yul\":12446:12455   */\n      dup4\n        /* \"#utility.yul\":12442:12459   */\n      add\n        /* \"#utility.yul\":12435:12482   */\n      mstore\n        /* \"#utility.yul\":12499:12630   */\n      tag_309\n        /* \"#utility.yul\":12625:12629   */\n      dup2\n        /* \"#utility.yul\":12499:12630   */\n      tag_160\n      jump\t// in\n    tag_309:\n        /* \"#utility.yul\":12491:12630   */\n      swap1\n      pop\n        /* \"#utility.yul\":12218:12637   */\n      swap2\n      swap1\n      pop\n      jump\t// out\n        /* \"#utility.yul\":12643:12823   */\n    tag_73:\n        /* \"#utility.yul\":12691:12768   */\n      0x4e487b7100000000000000000000000000000000000000000000000000000000\n        /* \"#utility.yul\":12688:12689   */\n      0x00\n        /* \"#utility.yul\":12681:12769   */\n      mstore\n        /* \"#utility.yul\":12788:12792   */\n      0x32\n        /* \"#utility.yul\":12785:12786   */\n      0x04\n        /* \"#utility.yul\":12778:12793   */\n      mstore\n        /* \"#utility.yul\":12812:12816   */\n      0x24\n        /* \"#utility.yul\":12809:12810   */\n      0x00\n        /* \"#utility.yul\":12802:12817   */\n      revert\n        /* \"#utility.yul\":12829:13009   */\n    tag_161:\n        /* \"#utility.yul\":12877:12954   */\n      0x4e487b7100000000000000000000000000000000000000000000000000000000\n        /* \"#utility.yul\":12874:12875   */\n      0x00\n        /* \"#utility.yul\":12867:12955   */\n      mstore\n        /* \"#utility.yul\":12974:12978   */\n      0x22\n        /* \"#utility.yul\":12971:12972   */\n      0x04\n        /* \"#utility.yul\":12964:12979   */\n      mstore\n        /* \"#utility.yul\":12998:13002   */\n      0x24\n        /* \"#utility.yul\":12995:12996   */\n      0x00\n        /* \"#utility.yul\":12988:13003   */\n      revert\n        /* \"#utility.yul\":13015:13335   */\n    tag_80:\n        /* \"#utility.yul\":13059:13065   */\n      0x00\n        /* \"#utility.yul\":13096:13097   */\n      0x02\n        /* \"#utility.yul\":13090:13094   */\n      dup3\n        /* \"#utility.yul\":13086:13098   */\n      div\n        /* \"#utility.yul\":13076:13098   */\n      swap1\n      pop\n        /* \"#utility.yul\":13143:13144   */\n      0x01\n        /* \"#utility.yul\":13137:13141   */\n      dup3\n        /* \"#utility.yul\":13133:13145   */\n      and\n        /* \"#utility.yul\":13164:13182   */\n      dup1\n        /* \"#utility.yul\":13154:13235   */\n      tag_313\n      jumpi\n        /* \"#utility.yul\":13220:13224   */\n      0x7f\n        /* \"#utility.yul\":13212:13218   */\n      dup3\n        /* \"#utility.yul\":13208:13225   */\n      and\n        /* \"#utility.yul\":13198:13225   */\n      swap2\n      pop\n        /* \"#utility.yul\":13154:13235   */\n    tag_313:\n        /* \"#utility.yul\":13282:13284   */\n      0x20\n        /* \"#utility.yul\":13274:13280   */\n      dup3\n        /* \"#utility.yul\":13271:13285   */\n      lt\n        /* \"#utility.yul\":13251:13269   */\n      dup2\n        /* \"#utility.yul\":13248:13286   */\n      sub\n        /* \"#utility.yul\":13245:13329   */\n      tag_314\n      jumpi\n        /* \"#utility.yul\":13301:13319   */\n      tag_315\n      tag_161\n      jump\t// in\n    tag_315:\n        /* \"#utility.yul\":13245:13329   */\n    tag_314:\n        /* \"#utility.yul\":13066:13335   */\n      pop\n        /* \"#utility.yul\":13015:13335   */\n      swap2\n      swap1\n      pop\n      jump\t// out\n        /* \"#utility.yul\":13341:13500   */\n    tag_162:\n        /* \"#utility.yul\":13481:13492   */\n      0x4e6f74204f776e65720000000000000000000000000000000000000000000000\n        /* \"#utility.yul\":13477:13478   */\n      0x00\n        /* \"#utility.yul\":13469:13475   */\n      dup3\n        /* \"#utility.yul\":13465:13479   */\n      add\n        /* \"#utility.yul\":13458:13493   */\n      mstore\n        /* \"#utility.yul\":13341:13500   */\n      pop\n      jump\t// out\n        /* \"#utility.yul\":13506:13871   */\n    tag_163:\n        /* \"#utility.yul\":13648:13651   */\n      0x00\n        /* \"#utility.yul\":13669:13735   */\n      tag_318\n        /* \"#utility.yul\":13733:13734   */\n      0x09\n        /* \"#utility.yul\":13728:13731   */\n      dup4\n        /* \"#utility.yul\":13669:13735   */\n      tag_143\n      jump\t// in\n    tag_318:\n        /* \"#utility.yul\":13662:13735   */\n      swap2\n      pop\n        /* \"#utility.yul\":13744:13837   */\n      tag_319\n        /* \"#utility.yul\":13833:13836   */\n      dup3\n        /* \"#utility.yul\":13744:13837   */\n      tag_162\n      jump\t// in\n    tag_319:\n        /* \"#utility.yul\":13862:13864   */\n      0x20\n        /* \"#utility.yul\":13857:13860   */\n      dup3\n        /* \"#utility.yul\":13853:13865   */\n      add\n        /* \"#utility.yul\":13846:13865   */\n      swap1\n      pop\n        /* \"#utility.yul\":13506:13871   */\n      swap2\n      swap1\n      pop\n      jump\t// out\n        /* \"#utility.yul\":13877:14296   */\n    tag_105:\n        /* \"#utility.yul\":14043:14047   */\n      0x00\n        /* \"#utility.yul\":14081:14083   */\n      0x20\n        /* \"#utility.yul\":14070:14079   */\n      dup3\n        /* \"#utility.yul\":14066:14084   */\n      add\n        /* \"#utility.yul\":14058:14084   */\n      swap1\n      pop\n        /* \"#utility.yul\":14130:14139   */\n      dup2\n        /* \"#utility.yul\":14124:14128   */\n      dup2\n        /* \"#utility.yul\":14120:14140   */\n      sub\n        /* \"#utility.yul\":14116:14117   */\n      0x00\n        /* \"#utility.yul\":14105:14114   */\n      dup4\n        /* \"#utility.yul\":14101:14118   */\n      add\n        /* \"#utility.yul\":14094:14141   */\n      mstore\n        /* \"#utility.yul\":14158:14289   */\n      tag_321\n        /* \"#utility.yul\":14284:14288   */\n      dup2\n        /* \"#utility.yul\":14158:14289   */\n      tag_163\n      jump\t// in\n    tag_321:\n        /* \"#utility.yul\":14150:14289   */\n      swap1\n      pop\n        /* \"#utility.yul\":13877:14296   */\n      swap2\n      swap1\n      pop\n      jump\t// out\n        /* \"#utility.yul\":14302:14482   */\n    tag_164:\n        /* \"#utility.yul\":14350:14427   */\n      0x4e487b7100000000000000000000000000000000000000000000000000000000\n        /* \"#utility.yul\":14347:14348   */\n      0x00\n        /* \"#utility.yul\":14340:14428   */\n      mstore\n        /* \"#utility.yul\":14447:14451   */\n      0x11\n        /* \"#utility.yul\":14444:14445   */\n      0x04\n        /* \"#utility.yul\":14437:14452   */\n      mstore\n        /* \"#utility.yul\":14471:14475   */\n      0x24\n        /* \"#utility.yul\":14468:14469   */\n      0x00\n        /* \"#utility.yul\":14461:14476   */\n      revert\n        /* \"#utility.yul\":14488:14679   */\n    tag_107:\n        /* \"#utility.yul\":14528:14531   */\n      0x00\n        /* \"#utility.yul\":14547:14567   */\n      tag_324\n        /* \"#utility.yul\":14565:14566   */\n      dup3\n        /* \"#utility.yul\":14547:14567   */\n      tag_129\n      jump\t// in\n    tag_324:\n        /* \"#utility.yul\":14542:14567   */\n      swap2\n      pop\n        /* \"#utility.yul\":14581:14601   */\n      tag_325\n        /* \"#utility.yul\":14599:14600   */\n      dup4\n        /* \"#utility.yul\":14581:14601   */\n      tag_129\n      jump\t// in\n    tag_325:\n        /* \"#utility.yul\":14576:14601   */\n      swap3\n      pop\n        /* \"#utility.yul\":14624:14625   */\n      dup3\n        /* \"#utility.yul\":14621:14622   */\n      dup3\n        /* \"#utility.yul\":14617:14626   */\n      add\n        /* \"#utility.yul\":14610:14626   */\n      swap1\n      pop\n        /* \"#utility.yul\":14645:14648   */\n      dup1\n        /* \"#utility.yul\":14642:14643   */\n      dup3\n        /* \"#utility.yul\":14639:14649   */\n      gt\n        /* \"#utility.yul\":14636:14672   */\n      iszero\n      tag_326\n      jumpi\n        /* \"#utility.yul\":14652:14670   */\n      tag_327\n      tag_164\n      jump\t// in\n    tag_327:\n        /* \"#utility.yul\":14636:14672   */\n    tag_326:\n        /* \"#utility.yul\":14488:14679   */\n      swap3\n      swap2\n      pop\n      pop\n      jump\t// out\n        /* \"#utility.yul\":14685:14865   */\n    tag_165:\n        /* \"#utility.yul\":14733:14810   */\n      0x4e487b7100000000000000000000000000000000000000000000000000000000\n        /* \"#utility.yul\":14730:14731   */\n      0x00\n        /* \"#utility.yul\":14723:14811   */\n      mstore\n        /* \"#utility.yul\":14830:14834   */\n      0x41\n        /* \"#utility.yul\":14827:14828   */\n      0x04\n        /* \"#utility.yul\":14820:14835   */\n      mstore\n        /* \"#utility.yul\":14854:14858   */\n      0x24\n        /* \"#utility.yul\":14851:14852   */\n      0x00\n        /* \"#utility.yul\":14844:14859   */\n      revert\n        /* \"#utility.yul\":14871:15012   */\n    tag_166:\n        /* \"#utility.yul\":14920:14924   */\n      0x00\n        /* \"#utility.yul\":14943:14946   */\n      dup2\n        /* \"#utility.yul\":14935:14946   */\n      swap1\n      pop\n        /* \"#utility.yul\":14966:14969   */\n      dup2\n        /* \"#utility.yul\":14963:14964   */\n      0x00\n        /* \"#utility.yul\":14956:14970   */\n      mstore\n        /* \"#utility.yul\":15000:15004   */\n      0x20\n        /* \"#utility.yul\":14997:14998   */\n      0x00\n        /* \"#utility.yul\":14987:15005   */\n      keccak256\n        /* \"#utility.yul\":14979:15005   */\n      swap1\n      pop\n        /* \"#utility.yul\":14871:15012   */\n      swap2\n      swap1\n      pop\n      jump\t// out\n        /* \"#utility.yul\":15018:15111   */\n    tag_167:\n        /* \"#utility.yul\":15055:15061   */\n      0x00\n        /* \"#utility.yul\":15102:15104   */\n      0x20\n        /* \"#utility.yul\":15097:15099   */\n      0x1f\n        /* \"#utility.yul\":15090:15095   */\n      dup4\n        /* \"#utility.yul\":15086:15100   */\n      add\n        /* \"#utility.yul\":15082:15105   */\n      div\n        /* \"#utility.yul\":15072:15105   */\n      swap1\n      pop\n        /* \"#utility.yul\":15018:15111   */\n      swap2\n      swap1\n      pop\n      jump\t// out\n        /* \"#utility.yul\":15117:15224   */\n    tag_168:\n        /* \"#utility.yul\":15161:15169   */\n      0x00\n        /* \"#utility.yul\":15211:15216   */\n      dup3\n        /* \"#utility.yul\":15205:15209   */\n      dup3\n        /* \"#utility.yul\":15201:15217   */\n      shl\n        /* \"#utility.yul\":15180:15217   */\n      swap1\n      pop\n        /* \"#utility.yul\":15117:15224   */\n      swap3\n      swap2\n      pop\n      pop\n      jump\t// out\n        /* \"#utility.yul\":15230:15623   */\n    tag_169:\n        /* \"#utility.yul\":15299:15305   */\n      0x00\n        /* \"#utility.yul\":15349:15350   */\n      0x08\n        /* \"#utility.yul\":15337:15347   */\n      dup4\n        /* \"#utility.yul\":15333:15351   */\n      mul\n        /* \"#utility.yul\":15372:15469   */\n      tag_333\n        /* \"#utility.yul\":15402:15468   */\n      0xffffffffffffffffffffffffffffffffffffffffffffffffffffffffffffffff\n        /* \"#utility.yul\":15391:15400   */\n      dup3\n        /* \"#utility.yul\":15372:15469   */\n      tag_168\n      jump\t// in\n    tag_333:\n        /* \"#utility.yul\":15490:15529   */\n      tag_334\n        /* \"#utility.yul\":15520:15528   */\n      dup7\n        /* \"#utility.yul\":15509:15518   */\n      dup4\n        /* \"#utility.yul\":15490:15529   */\n      tag_168\n      jump\t// in\n    tag_334:\n        /* \"#utility.yul\":15478:15529   */\n      swap6\n      pop\n        /* \"#utility.yul\":15562:15566   */\n      dup1\n        /* \"#utility.yul\":15558:15567   */\n      not\n        /* \"#utility.yul\":15551:15556   */\n      dup5\n        /* \"#utility.yul\":15547:15568   */\n      and\n        /* \"#utility.yul\":15538:15568   */\n      swap4\n      pop\n        /* \"#utility.yul\":15611:15615   */\n      dup1\n        /* \"#utility.yul\":15601:15609   */\n      dup7\n        /* \"#utility.yul\":15597:15616   */\n      and\n        /* \"#utility.yul\":15590:15595   */\n      dup5\n        /* \"#utility.yul\":15587:15617   */\n      or\n        /* \"#utility.yul\":15577:15617   */\n      swap3\n      pop\n        /* \"#utility.yul\":15306:15623   */\n      pop\n      pop\n        /* \"#utility.yul\":15230:15623   */\n      swap4\n      swap3\n      pop\n      pop\n      pop\n      jump\t// out\n        /* \"#utility.yul\":15629:15689   */\n    tag_170:\n        /* \"#utility.yul\":15657:15660   */\n      0x00\n        /* \"#utility.yul\":15678:15683   */\n      dup2\n        /* \"#utility.yul\":15671:15683   */\n      swap1\n      pop\n        /* \"#utility.yul\":15629:15689   */\n      swap2\n      swap1\n      pop\n      jump\t// out\n        /* \"#utility.yul\":15695:15837   */\n    tag_171:\n        /* \"#utility.yul\":15745:15754   */\n      0x00\n        /* \"#utility.yul\":15778:15831   */\n      tag_337\n        /* \"#utility.yul\":15796:15830   */\n      tag_338\n        /* \"#utility.yul\":15805:15829   */\n      tag_339\n        /* \"#utility.yul\":15823:15828   */\n      dup5\n        /* \"#utility.yul\":15805:15829   */\n      tag_129\n      jump\t// in\n    tag_339:\n        /* \"#utility.yul\":15796:15830   */\n      tag_170\n      jump\t// in\n    tag_338:\n        /* \"#utility.yul\":15778:15831   */\n      tag_129\n      jump\t// in\n    tag_337:\n        /* \"#utility.yul\":15765:15831   */\n      swap1\n      pop\n        /* \"#utility.yul\":15695:15837   */\n      swap2\n      swap1\n      pop\n      jump\t// out\n        /* \"#utility.yul\":15843:15918   */\n    tag_172:\n        /* \"#utility.yul\":15886:15889   */\n      0x00\n        /* \"#utility.yul\":15907:15912   */\n      dup2\n        /* \"#utility.yul\":15900:15912   */\n      swap1\n      pop\n        /* \"#utility.yul\":15843:15918   */\n      swap2\n      swap1\n      pop\n      jump\t// out\n        /* \"#utility.yul\":15924:16193   */\n    tag_173:\n        /* \"#utility.yul\":16034:16073   */\n      tag_342\n        /* \"#utility.yul\":16065:16072   */\n      dup4\n        /* \"#utility.yul\":16034:16073   */\n      tag_171\n      jump\t// in\n    tag_342:\n        /* \"#utility.yul\":16095:16186   */\n      tag_343\n        /* \"#utility.yul\":16144:16185   */\n      tag_344\n        /* \"#utility.yul\":16168:16184   */\n      dup3\n        /* \"#utility.yul\":16144:16185   */\n      tag_172\n      jump\t// in\n    tag_344:\n        /* \"#utility.yul\":16136:16142   */\n      dup5\n        /* \"#utility.yul\":16129:16133   */\n      dup5\n        /* \"#utility.yul\":16123:16134   */\n      sload\n        /* \"#utility.yul\":16095:16186   */\n      tag_169\n      jump\t// in\n    tag_343:\n        /* \"#utility.yul\":16089:16093   */\n      dup3\n        /* \"#utility.yul\":16082:16187   */\n      sstore\n        /* \"#utility.yul\":16000:16193   */\n      pop\n        /* \"#utility.yul\":15924:16193   */\n      pop\n      pop\n      pop\n      jump\t// out\n        /* \"#utility.yul\":16199:16272   */\n    tag_174:\n        /* \"#utility.yul\":16244:16247   */\n      0x00\n        /* \"#utility.yul\":16199:16272   */\n      swap1\n      jump\t// out\n        /* \"#utility.yul\":16278:16467   */\n    tag_175:\n        /* \"#utility.yul\":16355:16387   */\n      tag_347\n      tag_174\n      jump\t// in\n    tag_347:\n        /* \"#utility.yul\":16396:16461   */\n      tag_348\n        /* \"#utility.yul\":16454:16460   */\n      dup2\n        /* \"#utility.yul\":16446:16452   */\n      dup5\n        /* \"#utility.yul\":16440:16444   */\n      dup5\n        /* \"#utility.yul\":16396:16461   */\n      tag_173\n      jump\t// in\n    tag_348:\n        /* \"#utility.yul\":16331:16467   */\n      pop\n        /* \"#utility.yul\":16278:16467   */\n      pop\n      pop\n      jump\t// out\n        /* \"#utility.yul\":16473:16659   */\n    tag_176:\n        /* \"#utility.yul\":16533:16653   */\n    tag_350:\n        /* \"#utility.yul\":16550:16553   */\n      dup2\n        /* \"#utility.yul\":16543:16548   */\n      dup2\n        /* \"#utility.yul\":16540:16554   */\n      lt\n        /* \"#utility.yul\":16533:16653   */\n      iszero\n      tag_352\n      jumpi\n        /* \"#utility.yul\":16604:16643   */\n      tag_353\n        /* \"#utility.yul\":16641:16642   */\n      0x00\n        /* \"#utility.yul\":16634:16639   */\n      dup3\n        /* \"#utility.yul\":16604:16643   */\n      tag_175\n      jump\t// in\n    tag_353:\n        /* \"#utility.yul\":16577:16578   */\n      0x01\n        /* \"#utility.yul\":16570:16575   */\n      dup2\n        /* \"#utility.yul\":16566:16579   */\n      add\n        /* \"#utility.yul\":16557:16579   */\n      swap1\n      pop\n        /* \"#utility.yul\":16533:16653   */\n      jump(tag_350)\n    tag_352:\n        /* \"#utility.yul\":16473:16659   */\n      pop\n      pop\n      jump\t// out\n        /* \"#utility.yul\":16665:17208   */\n    tag_177:\n        /* \"#utility.yul\":16766:16768   */\n      0x1f\n        /* \"#utility.yul\":16761:16764   */\n      dup3\n        /* \"#utility.yul\":16758:16769   */\n      gt\n        /* \"#utility.yul\":16755:17201   */\n      iszero\n      tag_355\n      jumpi\n        /* \"#utility.yul\":16800:16838   */\n      tag_356\n        /* \"#utility.yul\":16832:16837   */\n      dup2\n        /* \"#utility.yul\":16800:16838   */\n      tag_166\n      jump\t// in\n    tag_356:\n        /* \"#utility.yul\":16884:16913   */\n      tag_357\n        /* \"#utility.yul\":16902:16912   */\n      dup5\n        /* \"#utility.yul\":16884:16913   */\n      tag_167\n      jump\t// in\n    tag_357:\n        /* \"#utility.yul\":16874:16882   */\n      dup2\n        /* \"#utility.yul\":16870:16914   */\n      add\n        /* \"#utility.yul\":17067:17069   */\n      0x20\n        /* \"#utility.yul\":17055:17065   */\n      dup6\n        /* \"#utility.yul\":17052:17070   */\n      lt\n        /* \"#utility.yul\":17049:17098   */\n      iszero\n      tag_358\n      jumpi\n        /* \"#utility.yul\":17088:17096   */\n      dup2\n        /* \"#utility.yul\":17073:17096   */\n      swap1\n      pop\n        /* \"#utility.yul\":17049:17098   */\n    tag_358:\n        /* \"#utility.yul\":17111:17191   */\n      tag_359\n        /* \"#utility.yul\":17167:17189   */\n      tag_360\n        /* \"#utility.yul\":17185:17188   */\n      dup6\n        /* \"#utility.yul\":17167:17189   */\n      tag_167\n      jump\t// in\n    tag_360:\n        /* \"#utility.yul\":17157:17165   */\n      dup4\n        /* \"#utility.yul\":17153:17190   */\n      add\n        /* \"#utility.yul\":17140:17151   */\n      dup3\n        /* \"#utility.yul\":17111:17191   */\n      tag_176\n      jump\t// in\n    tag_359:\n        /* \"#utility.yul\":16770:17201   */\n      pop\n      pop\n        /* \"#utility.yul\":16755:17201   */\n    tag_355:\n        /* \"#utility.yul\":16665:17208   */\n      pop\n      pop\n      pop\n      jump\t// out\n        /* \"#utility.yul\":17214:17331   */\n    tag_178:\n        /* \"#utility.yul\":17268:17276   */\n      0x00\n        /* \"#utility.yul\":17318:17323   */\n      dup3\n        /* \"#utility.yul\":17312:17316   */\n      dup3\n        /* \"#utility.yul\":17308:17324   */\n      shr\n        /* \"#utility.yul\":17287:17324   */\n      swap1\n      pop\n        /* \"#utility.yul\":17214:17331   */\n      swap3\n      swap2\n      pop\n      pop\n      jump\t// out\n        /* \"#utility.yul\":17337:17506   */\n    tag_179:\n        /* \"#utility.yul\":17381:17387   */\n      0x00\n        /* \"#utility.yul\":17414:17465   */\n      tag_363\n        /* \"#utility.yul\":17462:17463   */\n      0x00\n        /* \"#utility.yul\":17458:17464   */\n      not\n        /* \"#utility.yul\":17450:17455   */\n      dup5\n        /* \"#utility.yul\":17447:17448   */\n      0x08\n        /* \"#utility.yul\":17443:17456   */\n      mul\n        /* \"#utility.yul\":17414:17465   */\n      tag_178\n      jump\t// in\n    tag_363:\n        /* \"#utility.yul\":17410:17466   */\n      not\n        /* \"#utility.yul\":17495:17499   */\n      dup1\n        /* \"#utility.yul\":17489:17493   */\n      dup4\n        /* \"#utility.yul\":17485:17500   */\n      and\n        /* \"#utility.yul\":17475:17500   */\n      swap2\n      pop\n        /* \"#utility.yul\":17388:17506   */\n      pop\n        /* \"#utility.yul\":17337:17506   */\n      swap3\n      swap2\n      pop\n      pop\n      jump\t// out\n        /* \"#utility.yul\":17511:17806   */\n    tag_180:\n        /* \"#utility.yul\":17587:17591   */\n      0x00\n        /* \"#utility.yul\":17733:17762   */\n      tag_365\n        /* \"#utility.yul\":17758:17761   */\n      dup4\n        /* \"#utility.yul\":17752:17756   */\n      dup4\n        /* \"#utility.yul\":17733:17762   */\n      tag_179\n      jump\t// in\n    tag_365:\n        /* \"#utility.yul\":17725:17762   */\n      swap2\n      pop\n        /* \"#utility.yul\":17795:17798   */\n      dup3\n        /* \"#utility.yul\":17792:17793   */\n      0x02\n        /* \"#utility.yul\":17788:17799   */\n      mul\n        /* \"#utility.yul\":17782:17786   */\n      dup3\n        /* \"#utility.yul\":17779:17800   */\n      or\n        /* \"#utility.yul\":17771:17800   */\n      swap1\n      pop\n        /* \"#utility.yul\":17511:17806   */\n      swap3\n      swap2\n      pop\n      pop\n      jump\t// out\n        /* \"#utility.yul\":17811:19206   */\n    tag_109:\n        /* \"#utility.yul\":17928:17965   */\n      tag_367\n        /* \"#utility.yul\":17961:17964   */\n      dup3\n        /* \"#utility.yul\":17928:17965   */\n      tag_142\n      jump\t// in\n    tag_367:\n        /* \"#utility.yul\":18030:18048   */\n      0xffffffffffffffff\n        /* \"#utility.yul\":18022:18028   */\n      dup2\n        /* \"#utility.yul\":18019:18049   */\n      gt\n        /* \"#utility.yul\":18016:18072   */\n      iszero\n      tag_368\n      jumpi\n        /* \"#utility.yul\":18052:18070   */\n      tag_369\n      tag_165\n      jump\t// in\n    tag_369:\n        /* \"#utility.yul\":18016:18072   */\n    tag_368:\n        /* \"#utility.yul\":18096:18134   */\n      tag_370\n        /* \"#utility.yul\":18128:18132   */\n      dup3\n        /* \"#utility.yul\":18122:18133   */\n      sload\n        /* \"#utility.yul\":18096:18134   */\n      tag_80\n      jump\t// in\n    tag_370:\n        /* \"#utility.yul\":18181:18248   */\n      tag_371\n        /* \"#utility.yul\":18241:18247   */\n      dup3\n        /* \"#utility.yul\":18233:18239   */\n      dup3\n        /* \"#utility.yul\":18227:18231   */\n      dup6\n        /* \"#utility.yul\":18181:18248   */\n      tag_177\n      jump\t// in\n    tag_371:\n        /* \"#utility.yul\":18275:18276   */\n      0x00\n        /* \"#utility.yul\":18299:18303   */\n      0x20\n        /* \"#utility.yul\":18286:18303   */\n      swap1\n      pop\n        /* \"#utility.yul\":18331:18333   */\n      0x1f\n        /* \"#utility.yul\":18323:18329   */\n      dup4\n        /* \"#utility.yul\":18320:18334   */\n      gt\n        /* \"#utility.yul\":18348:18349   */\n      0x01\n        /* \"#utility.yul\":18343:18961   */\n      dup2\n      eq\n      tag_373\n      jumpi\n        /* \"#utility.yul\":19005:19006   */\n      0x00\n        /* \"#utility.yul\":19022:19028   */\n      dup5\n        /* \"#utility.yul\":19019:19096   */\n      iszero\n      tag_374\n      jumpi\n        /* \"#utility.yul\":19071:19080   */\n      dup3\n        /* \"#utility.yul\":19066:19069   */\n      dup8\n        /* \"#utility.yul\":19062:19081   */\n      add\n        /* \"#utility.yul\":19056:19082   */\n      mload\n        /* \"#utility.yul\":19047:19082   */\n      swap1\n      pop\n        /* \"#utility.yul\":19019:19096   */\n    tag_374:\n        /* \"#utility.yul\":19122:19189   */\n      tag_375\n        /* \"#utility.yul\":19182:19188   */\n      dup6\n        /* \"#utility.yul\":19175:19180   */\n      dup3\n        /* \"#utility.yul\":19122:19189   */\n      tag_180\n      jump\t// in\n    tag_375:\n        /* \"#utility.yul\":19116:19120   */\n      dup7\n        /* \"#utility.yul\":19109:19190   */\n      sstore\n        /* \"#utility.yul\":18978:19200   */\n      pop\n        /* \"#utility.yul\":18313:19200   */\n      jump(tag_372)\n        /* \"#utility.yul\":18343:18961   */\n    tag_373:\n        /* \"#utility.yul\":18395:18399   */\n      0x1f\n        /* \"#utility.yul\":18391:18400   */\n      not\n        /* \"#utility.yul\":18383:18389   */\n      dup5\n        /* \"#utility.yul\":18379:18401   */\n      and\n        /* \"#utility.yul\":18429:18466   */\n      tag_376\n        /* \"#utility.yul\":18461:18465   */\n      dup7\n        /* \"#utility.yul\":18429:18466   */\n      tag_166\n      jump\t// in\n    tag_376:\n        /* \"#utility.yul\":18488:18489   */\n      0x00\n        /* \"#utility.yul\":18502:18710   */\n    tag_377:\n        /* \"#utility.yul\":18516:18523   */\n      dup3\n        /* \"#utility.yul\":18513:18514   */\n      dup2\n        /* \"#utility.yul\":18510:18524   */\n      lt\n        /* \"#utility.yul\":18502:18710   */\n      iszero\n      tag_379\n      jumpi\n        /* \"#utility.yul\":18595:18604   */\n      dup5\n        /* \"#utility.yul\":18590:18593   */\n      dup10\n        /* \"#utility.yul\":18586:18605   */\n      add\n        /* \"#utility.yul\":18580:18606   */\n      mload\n        /* \"#utility.yul\":18572:18578   */\n      dup3\n        /* \"#utility.yul\":18565:18607   */\n      sstore\n        /* \"#utility.yul\":18646:18647   */\n      0x01\n        /* \"#utility.yul\":18638:18644   */\n      dup3\n        /* \"#utility.yul\":18634:18648   */\n      add\n        /* \"#utility.yul\":18624:18648   */\n      swap2\n      pop\n        /* \"#utility.yul\":18693:18695   */\n      0x20\n        /* \"#utility.yul\":18682:18691   */\n      dup6\n        /* \"#utility.yul\":18678:18696   */\n      add\n        /* \"#utility.yul\":18665:18696   */\n      swap5\n      pop\n        /* \"#utility.yul\":18539:18543   */\n      0x20\n        /* \"#utility.yul\":18536:18537   */\n      dup2\n        /* \"#utility.yul\":18532:18544   */\n      add\n        /* \"#utility.yul\":18527:18544   */\n      swap1\n      pop\n        /* \"#utility.yul\":18502:18710   */\n      jump(tag_377)\n    tag_379:\n        /* \"#utility.yul\":18738:18744   */\n      dup7\n        /* \"#utility.yul\":18729:18736   */\n      dup4\n        /* \"#utility.yul\":18726:18745   */\n      lt\n        /* \"#utility.yul\":18723:18902   */\n      iszero\n      tag_380\n      jumpi\n        /* \"#utility.yul\":18796:18805   */\n      dup5\n        /* \"#utility.yul\":18791:18794   */\n      dup10\n        /* \"#utility.yul\":18787:18806   */\n      add\n        /* \"#utility.yul\":18781:18807   */\n      mload\n        /* \"#utility.yul\":18839:18887   */\n      tag_381\n        /* \"#utility.yul\":18881:18885   */\n      0x1f\n        /* \"#utility.yul\":18873:18879   */\n      dup10\n        /* \"#utility.yul\":18869:18886   */\n      and\n        /* \"#utility.yul\":18858:18867   */\n      dup3\n        /* \"#utility.yul\":18839:18887   */\n      tag_179\n      jump\t// in\n    tag_381:\n        /* \"#utility.yul\":18831:18837   */\n      dup4\n        /* \"#utility.yul\":18824:18888   */\n      sstore\n        /* \"#utility.yul\":18746:18902   */\n      pop\n        /* \"#utility.yul\":18723:18902   */\n    tag_380:\n        /* \"#utility.yul\":18948:18949   */\n      0x01\n        /* \"#utility.yul\":18944:18945   */\n      0x02\n        /* \"#utility.yul\":18936:18942   */\n      dup9\n        /* \"#utility.yul\":18932:18946   */\n      mul\n        /* \"#utility.yul\":18928:18950   */\n      add\n        /* \"#utility.yul\":18922:18926   */\n      dup9\n        /* \"#utility.yul\":18915:18951   */\n      sstore\n        /* \"#utility.yul\":18350:18961   */\n      pop\n      pop\n      pop\n        /* \"#utility.yul\":18313:19200   */\n    tag_372:\n      pop\n        /* \"#utility.yul\":17903:19206   */\n      pop\n      pop\n      pop\n        /* \"#utility.yul\":17811:19206   */\n      pop\n      pop\n      jump\t// out\n        /* \"#utility.yul\":19212:19379   */\n    tag_181:\n        /* \"#utility.yul\":19352:19371   */\n      0x4d61746368206973207374696c6c206f6e000000000000000000000000000000\n        /* \"#utility.yul\":19348:19349   */\n      0x00\n        /* \"#utility.yul\":19340:19346   */\n      dup3\n        /* \"#utility.yul\":19336:19350   */\n      add\n        /* \"#utility.yul\":19329:19372   */\n      mstore\n        /* \"#utility.yul\":19212:19379   */\n      pop\n      jump\t// out\n        /* \"#utility.yul\":19385:19751   */\n    tag_182:\n        /* \"#utility.yul\":19527:19530   */\n      0x00\n        /* \"#utility.yul\":19548:19615   */\n      tag_384\n        /* \"#utility.yul\":19612:19614   */\n      0x11\n        /* \"#utility.yul\":19607:19610   */\n      dup4\n        /* \"#utility.yul\":19548:19615   */\n      tag_143\n      jump\t// in\n    tag_384:\n        /* \"#utility.yul\":19541:19615   */\n      swap2\n      pop\n        /* \"#utility.yul\":19624:19717   */\n      tag_385\n        /* \"#utility.yul\":19713:19716   */\n      dup3\n        /* \"#utility.yul\":19624:19717   */\n      tag_181\n      jump\t// in\n    tag_385:\n        /* \"#utility.yul\":19742:19744   */\n      0x20\n        /* \"#utility.yul\":19737:19740   */\n      dup3\n        /* \"#utility.yul\":19733:19745   */\n      add\n        /* \"#utility.yul\":19726:19745   */\n      swap1\n      pop\n        /* \"#utility.yul\":19385:19751   */\n      swap2\n      swap1\n      pop\n      jump\t// out\n        /* \"#utility.yul\":19757:20176   */\n    tag_122:\n        /* \"#utility.yul\":19923:19927   */\n      0x00\n        /* \"#utility.yul\":19961:19963   */\n      0x20\n        /* \"#utility.yul\":19950:19959   */\n      dup3\n        /* \"#utility.yul\":19946:19964   */\n      add\n        /* \"#utility.yul\":19938:19964   */\n      swap1\n      pop\n        /* \"#utility.yul\":20010:20019   */\n      dup2\n        /* \"#utility.yul\":20004:20008   */\n      dup2\n        /* \"#utility.yul\":20000:20020   */\n      sub\n        /* \"#utility.yul\":19996:19997   */\n      0x00\n        /* \"#utility.yul\":19985:19994   */\n      dup4\n        /* \"#utility.yul\":19981:19998   */\n      add\n        /* \"#utility.yul\":19974:20021   */\n      mstore\n        /* \"#utility.yul\":20038:20169   */\n      tag_387\n        /* \"#utility.yul\":20164:20168   */\n      dup2\n        /* \"#utility.yul\":20038:20169   */\n      tag_182\n      jump\t// in\n    tag_387:\n        /* \"#utility.yul\":20030:20169   */\n      swap1\n      pop\n        /* \"#utility.yul\":19757:20176   */\n      swap2\n      swap1\n      pop\n      jump\t// out\n\n    auxdata: 0xa264697066735822122040297ad91f3a057f4c9cbf7684a2e80980e790d5bf0aca7d432e7cded7a7bd4464736f6c63430008110033\n}\n",
				"bytecode": {
					"linkReferences": {},
					"object": "608060405234801561001057600080fd5b50336000806101000a81548173ffffffffffffffffffffffffffffffffffffffff021916908373ffffffffffffffffffffffffffffffffffffffff160217905550611848806100606000396000f3fe60806040526004361061007b5760003560e01c8063b2edb39f1161004e578063b2edb39f1461015c578063bc9e6e2c1461019d578063ec7361a8146101da578063f851a440146102035761007b565b806303edf9141461008057806315a3ae711461009c5780632172ff16146100db5780634195ab8e1461011c575b600080fd5b61009a60048036038101906100959190610dda565b61022e565b005b3480156100a857600080fd5b506100c360048036038101906100be9190610e1a565b610500565b6040516100d293929190610f0e565b60405180910390f35b3480156100e757600080fd5b5061010260048036038101906100fd9190610e1a565b610567565b604051610113959493929190611013565b60405180910390f35b34801561012857600080fd5b50610143600480360381019061013e91906110a0565b6106cb565b60405161015394939291906110fb565b60405180910390f35b34801561016857600080fd5b50610183600480360381019061017e9190610e1a565b610722565b604051610194959493929190611013565b60405180910390f35b3480156101a957600080fd5b506101c460048036038101906101bf91906111a5565b610896565b6040516101d1919061123a565b60405180910390f35b3480156101e657600080fd5b5061020160048036038101906101fc9190611255565b610bcb565b005b34801561020f57600080fd5b50610218610d51565b60405161022591906112a8565b60405180910390f35b60001515600260003373ffffffffffffffffffffffffffffffffffffffff1673ffffffffffffffffffffffffffffffffffffffff168152602001908152602001600020600084815260200190815260200160002060030160009054906101000a900460ff161515146102d5576040517f08c379a00000000000000000000000000000000000000000000000000000000081526004016102cc9061130f565b60405180910390fd5b670de0b6b3a7640000341461031f576040517f08c379a00000000000000000000000000000000000000000000000000000000081526004016103169061137b565b60405180910390fd5b6000349050604051806080016040528083600381111561034257610341610e97565b5b81526020016000815260200182815260200160011515815250600260003373ffffffffffffffffffffffffffffffffffffffff1673ffffffffffffffffffffffffffffffffffffffff168152602001908152602001600020600085815260200190815260200160002060008201518160000160006101000a81548160ff021916908360038111156103d6576103d5610e97565b5b0217905550602082015181600101556040820151816002015560608201518160030160006101000a81548160ff02191690831515021790555090505060405180606001604052803373ffffffffffffffffffffffffffffffffffffffff16815260200182815260200183600381111561045257610451610e97565b5b815250600484815481106104695761046861139b565b5b906000526020600020906003020160008201518160000160006101000a81548173ffffffffffffffffffffffffffffffffffffffff021916908373ffffffffffffffffffffffffffffffffffffffff1602179055506020820151816001015560408201518160020160006101000a81548160ff021916908360038111156104f3576104f2610e97565b5b0217905550905050505050565b6004818154811061051057600080fd5b90600052602060002090600302016000915090508060000160009054906101000a900473ffffffffffffffffffffffffffffffffffffffff16908060010154908060020160009054906101000a900460ff16905083565b600160205280600052604060002060009150905080600001805461058a906113f9565b80601f01602080910402602001604051908101604052809291908181526020018280546105b6906113f9565b80156106035780601f106105d857610100808354040283529160200191610603565b820191906000526020600020905b8154815290600101906020018083116105e657829003601f168201915b505050505090806001018054610618906113f9565b80601f0160208091040260200160405190810160405280929190818152602001828054610644906113f9565b80156106915780601f1061066657610100808354040283529160200191610691565b820191906000526020600020905b81548152906001019060200180831161067457829003601f168201915b5050505050908060020154908060030154908060040160405180604001604052908160008201548152602001600182015481525050905085565b6002602052816000526040600020602052806000526040600020600091509150508060000160009054906101000a900460ff16908060010154908060020154908060030160009054906101000a900460ff16905084565b6003818154811061073257600080fd5b9060005260206000209060060201600091509050806000018054610755906113f9565b80601f0160208091040260200160405190810160405280929190818152602001828054610781906113f9565b80156107ce5780601f106107a3576101008083540402835291602001916107ce565b820191906000526020600020905b8154815290600101906020018083116107b157829003601f168201915b5050505050908060010180546107e3906113f9565b80601f016020809104026020016040519081016040528092919081815260200182805461080f906113f9565b801561085c5780601f106108315761010080835404028352916020019161085c565b820191906000526020600020905b81548152906001019060200180831161083f57829003601f168201915b5050505050908060020154908060030154908060040160405180604001604052908160008201548152602001600182015481525050905085565b60003373ffffffffffffffffffffffffffffffffffffffff1660008054906101000a900473ffffffffffffffffffffffffffffffffffffffff1673ffffffffffffffffffffffffffffffffffffffff1614610926576040517f08c379a000000000000000000000000000000000000000000000000000000000815260040161091d90611476565b60405180910390fd5b6000605f8361093591906114c5565b9050600060405180604001604052806000815260200160008152509050600060038054905090506040518060a001604052808a8a8080601f016020809104026020016040519081016040528093929190818152602001838380828437600081840152601f19601f82011690508083019250505050505050815260200188888080601f016020809104026020016040519081016040528093929190818152602001838380828437600081840152601f19601f82011690508083019250505050505050815260200186815260200184815260200183815250600160008381526020019081526020016000206000820151816000019081610a3391906116d4565b506020820151816001019081610a4991906116d4565b5060408201518160020155606082015181600301556080820151816004016000820151816000015560208201518160010155505090505060036040518060a001604052808b8b8080601f016020809104026020016040519081016040528093929190818152602001838380828437600081840152601f19601f82011690508083019250505050505050815260200189898080601f016020809104026020016040519081016040528093929190818152602001838380828437600081840152601f19601f8201169050808301925050505050505081526020018781526020018581526020018481525090806001815401808255809150506001900390600052602060002090600602016000909190919091506000820151816000019081610b6f91906116d4565b506020820151816001019081610b8591906116d4565b5060408201518160020155606082015181600301556080820151816004016000820151816000015560208201518160010155505050506001935050505095945050505050565b3373ffffffffffffffffffffffffffffffffffffffff1660008054906101000a900473ffffffffffffffffffffffffffffffffffffffff1673ffffffffffffffffffffffffffffffffffffffff1614610c59576040517f08c379a0000000000000000000000000000000000000000000000000000000008152600401610c5090611476565b60405180910390fd5b600042905060038481548110610c7257610c7161139b565b5b906000526020600020906006020160030154811015610cc6576040517f08c379a0000000000000000000000000000000000000000000000000000000008152600401610cbd906117f2565b60405180910390fd5b600060405180604001604052808581526020018481525090508060038681548110610cf457610cf361139b565b5b90600052602060002090600602016004016000820151816000015560208201518160010155905050806001600087815260200190815260200160002060040160008201518160000155602082015181600101559050505050505050565b60008054906101000a900473ffffffffffffffffffffffffffffffffffffffff1681565b600080fd5b600080fd5b6000819050919050565b610d9281610d7f565b8114610d9d57600080fd5b50565b600081359050610daf81610d89565b92915050565b60048110610dc257600080fd5b50565b600081359050610dd481610db5565b92915050565b60008060408385031215610df157610df0610d75565b5b6000610dff85828601610da0565b9250506020610e1085828601610dc5565b9150509250929050565b600060208284031215610e3057610e2f610d75565b5b6000610e3e84828501610da0565b91505092915050565b600073ffffffffffffffffffffffffffffffffffffffff82169050919050565b6000610e7282610e47565b9050919050565b610e8281610e67565b82525050565b610e9181610d7f565b82525050565b7f4e487b7100000000000000000000000000000000000000000000000000000000600052602160045260246000fd5b60048110610ed757610ed6610e97565b5b50565b6000819050610ee882610ec6565b919050565b6000610ef882610eda565b9050919050565b610f0881610eed565b82525050565b6000606082019050610f236000830186610e79565b610f306020830185610e88565b610f3d6040830184610eff565b949350505050565b600081519050919050565b600082825260208201905092915050565b60005b83811015610f7f578082015181840152602081019050610f64565b60008484015250505050565b6000601f19601f8301169050919050565b6000610fa782610f45565b610fb18185610f50565b9350610fc1818560208601610f61565b610fca81610f8b565b840191505092915050565b610fde81610d7f565b82525050565b604082016000820151610ffa6000850182610fd5565b50602082015161100d6020850182610fd5565b50505050565b600060c082019050818103600083015261102d8188610f9c565b905081810360208301526110418187610f9c565b90506110506040830186610e88565b61105d6060830185610e88565b61106a6080830184610fe4565b9695505050505050565b61107d81610e67565b811461108857600080fd5b50565b60008135905061109a81611074565b92915050565b600080604083850312156110b7576110b6610d75565b5b60006110c58582860161108b565b92505060206110d685828601610da0565b9150509250929050565b60008115159050919050565b6110f5816110e0565b82525050565b60006080820190506111106000830187610eff565b61111d6020830186610e88565b61112a6040830185610e88565b61113760608301846110ec565b95945050505050565b600080fd5b600080fd5b600080fd5b60008083601f84011261116557611164611140565b5b8235905067ffffffffffffffff81111561118257611181611145565b5b60208301915083600182028301111561119e5761119d61114a565b5b9250929050565b6000806000806000606086880312156111c1576111c0610d75565b5b600086013567ffffffffffffffff8111156111df576111de610d7a565b5b6111eb8882890161114f565b9550955050602086013567ffffffffffffffff81111561120e5761120d610d7a565b5b61121a8882890161114f565b9350935050604061122d88828901610da0565b9150509295509295909350565b600060208201905061124f60008301846110ec565b92915050565b60008060006060848603121561126e5761126d610d75565b5b600061127c86828701610da0565b935050602061128d86828701610da0565b925050604061129e86828701610da0565b9150509250925092565b60006020820190506112bd6000830184610e79565b92915050565b7f596f752000000000000000000000000000000000000000000000000000000000600082015250565b60006112f9600483610f50565b9150611304826112c3565b602082019050919050565b60006020820190508181036000830152611328816112ec565b9050919050565b7f42657420416d6f756e74206973206c657373207468616e207265717569726564600082015250565b6000611365602083610f50565b91506113708261132f565b602082019050919050565b6000602082019050818103600083015261139481611358565b9050919050565b7f4e487b7100000000000000000000000000000000000000000000000000000000600052603260045260246000fd5b7f4e487b7100000000000000000000000000000000000000000000000000000000600052602260045260246000fd5b6000600282049050600182168061141157607f821691505b602082108103611424576114236113ca565b5b50919050565b7f4e6f74204f776e65720000000000000000000000000000000000000000000000600082015250565b6000611460600983610f50565b915061146b8261142a565b602082019050919050565b6000602082019050818103600083015261148f81611453565b9050919050565b7f4e487b7100000000000000000000000000000000000000000000000000000000600052601160045260246000fd5b60006114d082610d7f565b91506114db83610d7f565b92508282019050808211156114f3576114f2611496565b5b92915050565b7f4e487b7100000000000000000000000000000000000000000000000000000000600052604160045260246000fd5b60008190508160005260206000209050919050565b60006020601f8301049050919050565b600082821b905092915050565b60006008830261158a7fffffffffffffffffffffffffffffffffffffffffffffffffffffffffffffffff8261154d565b611594868361154d565b95508019841693508086168417925050509392505050565b6000819050919050565b60006115d16115cc6115c784610d7f565b6115ac565b610d7f565b9050919050565b6000819050919050565b6115eb836115b6565b6115ff6115f7826115d8565b84845461155a565b825550505050565b600090565b611614611607565b61161f8184846115e2565b505050565b5b818110156116435761163860008261160c565b600181019050611625565b5050565b601f8211156116885761165981611528565b6116628461153d565b81016020851015611671578190505b61168561167d8561153d565b830182611624565b50505b505050565b600082821c905092915050565b60006116ab6000198460080261168d565b1980831691505092915050565b60006116c4838361169a565b9150826002028217905092915050565b6116dd82610f45565b67ffffffffffffffff8111156116f6576116f56114f9565b5b61170082546113f9565b61170b828285611647565b600060209050601f83116001811461173e576000841561172c578287015190505b61173685826116b8565b86555061179e565b601f19841661174c86611528565b60005b828110156117745784890151825560018201915060208501945060208101905061174f565b86831015611791578489015161178d601f89168261169a565b8355505b6001600288020188555050505b505050505050565b7f4d61746368206973207374696c6c206f6e000000000000000000000000000000600082015250565b60006117dc601183610f50565b91506117e7826117a6565b602082019050919050565b6000602082019050818103600083015261180b816117cf565b905091905056fea264697066735822122040297ad91f3a057f4c9cbf7684a2e80980e790d5bf0aca7d432e7cded7a7bd4464736f6c63430008110033",
					"opcodes": "PUSH1 0x80 PUSH1 0x40 MSTORE CALLVALUE DUP1 ISZERO PUSH2 0x10 JUMPI PUSH1 0x0 DUP1 REVERT JUMPDEST POP CALLER PUSH1 0x0 DUP1 PUSH2 0x100 EXP DUP2 SLOAD DUP2 PUSH20 0xFFFFFFFFFFFFFFFFFFFFFFFFFFFFFFFFFFFFFFFF MUL NOT AND SWAP1 DUP4 PUSH20 0xFFFFFFFFFFFFFFFFFFFFFFFFFFFFFFFFFFFFFFFF AND MUL OR SWAP1 SSTORE POP PUSH2 0x1848 DUP1 PUSH2 0x60 PUSH1 0x0 CODECOPY PUSH1 0x0 RETURN INVALID PUSH1 0x80 PUSH1 0x40 MSTORE PUSH1 0x4 CALLDATASIZE LT PUSH2 0x7B JUMPI PUSH1 0x0 CALLDATALOAD PUSH1 0xE0 SHR DUP1 PUSH4 0xB2EDB39F GT PUSH2 0x4E JUMPI DUP1 PUSH4 0xB2EDB39F EQ PUSH2 0x15C JUMPI DUP1 PUSH4 0xBC9E6E2C EQ PUSH2 0x19D JUMPI DUP1 PUSH4 0xEC7361A8 EQ PUSH2 0x1DA JUMPI DUP1 PUSH4 0xF851A440 EQ PUSH2 0x203 JUMPI PUSH2 0x7B JUMP JUMPDEST DUP1 PUSH4 0x3EDF914 EQ PUSH2 0x80 JUMPI DUP1 PUSH4 0x15A3AE71 EQ PUSH2 0x9C JUMPI DUP1 PUSH4 0x2172FF16 EQ PUSH2 0xDB JUMPI DUP1 PUSH4 0x4195AB8E EQ PUSH2 0x11C JUMPI JUMPDEST PUSH1 0x0 DUP1 REVERT JUMPDEST PUSH2 0x9A PUSH1 0x4 DUP1 CALLDATASIZE SUB DUP2 ADD SWAP1 PUSH2 0x95 SWAP2 SWAP1 PUSH2 0xDDA JUMP JUMPDEST PUSH2 0x22E JUMP JUMPDEST STOP JUMPDEST CALLVALUE DUP1 ISZERO PUSH2 0xA8 JUMPI PUSH1 0x0 DUP1 REVERT JUMPDEST POP PUSH2 0xC3 PUSH1 0x4 DUP1 CALLDATASIZE SUB DUP2 ADD SWAP1 PUSH2 0xBE SWAP2 SWAP1 PUSH2 0xE1A JUMP JUMPDEST PUSH2 0x500 JUMP JUMPDEST PUSH1 0x40 MLOAD PUSH2 0xD2 SWAP4 SWAP3 SWAP2 SWAP1 PUSH2 0xF0E JUMP JUMPDEST PUSH1 0x40 MLOAD DUP1 SWAP2 SUB SWAP1 RETURN JUMPDEST CALLVALUE DUP1 ISZERO PUSH2 0xE7 JUMPI PUSH1 0x0 DUP1 REVERT JUMPDEST POP PUSH2 0x102 PUSH1 0x4 DUP1 CALLDATASIZE SUB DUP2 ADD SWAP1 PUSH2 0xFD SWAP2 SWAP1 PUSH2 0xE1A JUMP JUMPDEST PUSH2 0x567 JUMP JUMPDEST PUSH1 0x40 MLOAD PUSH2 0x113 SWAP6 SWAP5 SWAP4 SWAP3 SWAP2 SWAP1 PUSH2 0x1013 JUMP JUMPDEST PUSH1 0x40 MLOAD DUP1 SWAP2 SUB SWAP1 RETURN JUMPDEST CALLVALUE DUP1 ISZERO PUSH2 0x128 JUMPI PUSH1 0x0 DUP1 REVERT JUMPDEST POP PUSH2 0x143 PUSH1 0x4 DUP1 CALLDATASIZE SUB DUP2 ADD SWAP1 PUSH2 0x13E SWAP2 SWAP1 PUSH2 0x10A0 JUMP JUMPDEST PUSH2 0x6CB JUMP JUMPDEST PUSH1 0x40 MLOAD PUSH2 0x153 SWAP5 SWAP4 SWAP3 SWAP2 SWAP1 PUSH2 0x10FB JUMP JUMPDEST PUSH1 0x40 MLOAD DUP1 SWAP2 SUB SWAP1 RETURN JUMPDEST CALLVALUE DUP1 ISZERO PUSH2 0x168 JUMPI PUSH1 0x0 DUP1 REVERT JUMPDEST POP PUSH2 0x183 PUSH1 0x4 DUP1 CALLDATASIZE SUB DUP2 ADD SWAP1 PUSH2 0x17E SWAP2 SWAP1 PUSH2 0xE1A JUMP JUMPDEST PUSH2 0x722 JUMP JUMPDEST PUSH1 0x40 MLOAD PUSH2 0x194 SWAP6 SWAP5 SWAP4 SWAP3 SWAP2 SWAP1 PUSH2 0x1013 JUMP JUMPDEST PUSH1 0x40 MLOAD DUP1 SWAP2 SUB SWAP1 RETURN JUMPDEST CALLVALUE DUP1 ISZERO PUSH2 0x1A9 JUMPI PUSH1 0x0 DUP1 REVERT JUMPDEST POP PUSH2 0x1C4 PUSH1 0x4 DUP1 CALLDATASIZE SUB DUP2 ADD SWAP1 PUSH2 0x1BF SWAP2 SWAP1 PUSH2 0x11A5 JUMP JUMPDEST PUSH2 0x896 JUMP JUMPDEST PUSH1 0x40 MLOAD PUSH2 0x1D1 SWAP2 SWAP1 PUSH2 0x123A JUMP JUMPDEST PUSH1 0x40 MLOAD DUP1 SWAP2 SUB SWAP1 RETURN JUMPDEST CALLVALUE DUP1 ISZERO PUSH2 0x1E6 JUMPI PUSH1 0x0 DUP1 REVERT JUMPDEST POP PUSH2 0x201 PUSH1 0x4 DUP1 CALLDATASIZE SUB DUP2 ADD SWAP1 PUSH2 0x1FC SWAP2 SWAP1 PUSH2 0x1255 JUMP JUMPDEST PUSH2 0xBCB JUMP JUMPDEST STOP JUMPDEST CALLVALUE DUP1 ISZERO PUSH2 0x20F JUMPI PUSH1 0x0 DUP1 REVERT JUMPDEST POP PUSH2 0x218 PUSH2 0xD51 JUMP JUMPDEST PUSH1 0x40 MLOAD PUSH2 0x225 SWAP2 SWAP1 PUSH2 0x12A8 JUMP JUMPDEST PUSH1 0x40 MLOAD DUP1 SWAP2 SUB SWAP1 RETURN JUMPDEST PUSH1 0x0 ISZERO ISZERO PUSH1 0x2 PUSH1 0x0 CALLER PUSH20 0xFFFFFFFFFFFFFFFFFFFFFFFFFFFFFFFFFFFFFFFF AND PUSH20 0xFFFFFFFFFFFFFFFFFFFFFFFFFFFFFFFFFFFFFFFF AND DUP2 MSTORE PUSH1 0x20 ADD SWAP1 DUP2 MSTORE PUSH1 0x20 ADD PUSH1 0x0 KECCAK256 PUSH1 0x0 DUP5 DUP2 MSTORE PUSH1 0x20 ADD SWAP1 DUP2 MSTORE PUSH1 0x20 ADD PUSH1 0x0 KECCAK256 PUSH1 0x3 ADD PUSH1 0x0 SWAP1 SLOAD SWAP1 PUSH2 0x100 EXP SWAP1 DIV PUSH1 0xFF AND ISZERO ISZERO EQ PUSH2 0x2D5 JUMPI PUSH1 0x40 MLOAD PUSH32 0x8C379A000000000000000000000000000000000000000000000000000000000 DUP2 MSTORE PUSH1 0x4 ADD PUSH2 0x2CC SWAP1 PUSH2 0x130F JUMP JUMPDEST PUSH1 0x40 MLOAD DUP1 SWAP2 SUB SWAP1 REVERT JUMPDEST PUSH8 0xDE0B6B3A7640000 CALLVALUE EQ PUSH2 0x31F JUMPI PUSH1 0x40 MLOAD PUSH32 0x8C379A000000000000000000000000000000000000000000000000000000000 DUP2 MSTORE PUSH1 0x4 ADD PUSH2 0x316 SWAP1 PUSH2 0x137B JUMP JUMPDEST PUSH1 0x40 MLOAD DUP1 SWAP2 SUB SWAP1 REVERT JUMPDEST PUSH1 0x0 CALLVALUE SWAP1 POP PUSH1 0x40 MLOAD DUP1 PUSH1 0x80 ADD PUSH1 0x40 MSTORE DUP1 DUP4 PUSH1 0x3 DUP2 GT ISZERO PUSH2 0x342 JUMPI PUSH2 0x341 PUSH2 0xE97 JUMP JUMPDEST JUMPDEST DUP2 MSTORE PUSH1 0x20 ADD PUSH1 0x0 DUP2 MSTORE PUSH1 0x20 ADD DUP3 DUP2 MSTORE PUSH1 0x20 ADD PUSH1 0x1 ISZERO ISZERO DUP2 MSTORE POP PUSH1 0x2 PUSH1 0x0 CALLER PUSH20 0xFFFFFFFFFFFFFFFFFFFFFFFFFFFFFFFFFFFFFFFF AND PUSH20 0xFFFFFFFFFFFFFFFFFFFFFFFFFFFFFFFFFFFFFFFF AND DUP2 MSTORE PUSH1 0x20 ADD SWAP1 DUP2 MSTORE PUSH1 0x20 ADD PUSH1 0x0 KECCAK256 PUSH1 0x0 DUP6 DUP2 MSTORE PUSH1 0x20 ADD SWAP1 DUP2 MSTORE PUSH1 0x20 ADD PUSH1 0x0 KECCAK256 PUSH1 0x0 DUP3 ADD MLOAD DUP2 PUSH1 0x0 ADD PUSH1 0x0 PUSH2 0x100 EXP DUP2 SLOAD DUP2 PUSH1 0xFF MUL NOT AND SWAP1 DUP4 PUSH1 0x3 DUP2 GT ISZERO PUSH2 0x3D6 JUMPI PUSH2 0x3D5 PUSH2 0xE97 JUMP JUMPDEST JUMPDEST MUL OR SWAP1 SSTORE POP PUSH1 0x20 DUP3 ADD MLOAD DUP2 PUSH1 0x1 ADD SSTORE PUSH1 0x40 DUP3 ADD MLOAD DUP2 PUSH1 0x2 ADD SSTORE PUSH1 0x60 DUP3 ADD MLOAD DUP2 PUSH1 0x3 ADD PUSH1 0x0 PUSH2 0x100 EXP DUP2 SLOAD DUP2 PUSH1 0xFF MUL NOT AND SWAP1 DUP4 ISZERO ISZERO MUL OR SWAP1 SSTORE POP SWAP1 POP POP PUSH1 0x40 MLOAD DUP1 PUSH1 0x60 ADD PUSH1 0x40 MSTORE DUP1 CALLER PUSH20 0xFFFFFFFFFFFFFFFFFFFFFFFFFFFFFFFFFFFFFFFF AND DUP2 MSTORE PUSH1 0x20 ADD DUP3 DUP2 MSTORE PUSH1 0x20 ADD DUP4 PUSH1 0x3 DUP2 GT ISZERO PUSH2 0x452 JUMPI PUSH2 0x451 PUSH2 0xE97 JUMP JUMPDEST JUMPDEST DUP2 MSTORE POP PUSH1 0x4 DUP5 DUP2 SLOAD DUP2 LT PUSH2 0x469 JUMPI PUSH2 0x468 PUSH2 0x139B JUMP JUMPDEST JUMPDEST SWAP1 PUSH1 0x0 MSTORE PUSH1 0x20 PUSH1 0x0 KECCAK256 SWAP1 PUSH1 0x3 MUL ADD PUSH1 0x0 DUP3 ADD MLOAD DUP2 PUSH1 0x0 ADD PUSH1 0x0 PUSH2 0x100 EXP DUP2 SLOAD DUP2 PUSH20 0xFFFFFFFFFFFFFFFFFFFFFFFFFFFFFFFFFFFFFFFF MUL NOT AND SWAP1 DUP4 PUSH20 0xFFFFFFFFFFFFFFFFFFFFFFFFFFFFFFFFFFFFFFFF AND MUL OR SWAP1 SSTORE POP PUSH1 0x20 DUP3 ADD MLOAD DUP2 PUSH1 0x1 ADD SSTORE PUSH1 0x40 DUP3 ADD MLOAD DUP2 PUSH1 0x2 ADD PUSH1 0x0 PUSH2 0x100 EXP DUP2 SLOAD DUP2 PUSH1 0xFF MUL NOT AND SWAP1 DUP4 PUSH1 0x3 DUP2 GT ISZERO PUSH2 0x4F3 JUMPI PUSH2 0x4F2 PUSH2 0xE97 JUMP JUMPDEST JUMPDEST MUL OR SWAP1 SSTORE POP SWAP1 POP POP POP POP POP JUMP JUMPDEST PUSH1 0x4 DUP2 DUP2 SLOAD DUP2 LT PUSH2 0x510 JUMPI PUSH1 0x0 DUP1 REVERT JUMPDEST SWAP1 PUSH1 0x0 MSTORE PUSH1 0x20 PUSH1 0x0 KECCAK256 SWAP1 PUSH1 0x3 MUL ADD PUSH1 0x0 SWAP2 POP SWAP1 POP DUP1 PUSH1 0x0 ADD PUSH1 0x0 SWAP1 SLOAD SWAP1 PUSH2 0x100 EXP SWAP1 DIV PUSH20 0xFFFFFFFFFFFFFFFFFFFFFFFFFFFFFFFFFFFFFFFF AND SWAP1 DUP1 PUSH1 0x1 ADD SLOAD SWAP1 DUP1 PUSH1 0x2 ADD PUSH1 0x0 SWAP1 SLOAD SWAP1 PUSH2 0x100 EXP SWAP1 DIV PUSH1 0xFF AND SWAP1 POP DUP4 JUMP JUMPDEST PUSH1 0x1 PUSH1 0x20 MSTORE DUP1 PUSH1 0x0 MSTORE PUSH1 0x40 PUSH1 0x0 KECCAK256 PUSH1 0x0 SWAP2 POP SWAP1 POP DUP1 PUSH1 0x0 ADD DUP1 SLOAD PUSH2 0x58A SWAP1 PUSH2 0x13F9 JUMP JUMPDEST DUP1 PUSH1 0x1F ADD PUSH1 0x20 DUP1 SWAP2 DIV MUL PUSH1 0x20 ADD PUSH1 0x40 MLOAD SWAP1 DUP2 ADD PUSH1 0x40 MSTORE DUP1 SWAP3 SWAP2 SWAP1 DUP2 DUP2 MSTORE PUSH1 0x20 ADD DUP3 DUP1 SLOAD PUSH2 0x5B6 SWAP1 PUSH2 0x13F9 JUMP JUMPDEST DUP1 ISZERO PUSH2 0x603 JUMPI DUP1 PUSH1 0x1F LT PUSH2 0x5D8 JUMPI PUSH2 0x100 DUP1 DUP4 SLOAD DIV MUL DUP4 MSTORE SWAP2 PUSH1 0x20 ADD SWAP2 PUSH2 0x603 JUMP JUMPDEST DUP3 ADD SWAP2 SWAP1 PUSH1 0x0 MSTORE PUSH1 0x20 PUSH1 0x0 KECCAK256 SWAP1 JUMPDEST DUP2 SLOAD DUP2 MSTORE SWAP1 PUSH1 0x1 ADD SWAP1 PUSH1 0x20 ADD DUP1 DUP4 GT PUSH2 0x5E6 JUMPI DUP3 SWAP1 SUB PUSH1 0x1F AND DUP3 ADD SWAP2 JUMPDEST POP POP POP POP POP SWAP1 DUP1 PUSH1 0x1 ADD DUP1 SLOAD PUSH2 0x618 SWAP1 PUSH2 0x13F9 JUMP JUMPDEST DUP1 PUSH1 0x1F ADD PUSH1 0x20 DUP1 SWAP2 DIV MUL PUSH1 0x20 ADD PUSH1 0x40 MLOAD SWAP1 DUP2 ADD PUSH1 0x40 MSTORE DUP1 SWAP3 SWAP2 SWAP1 DUP2 DUP2 MSTORE PUSH1 0x20 ADD DUP3 DUP1 SLOAD PUSH2 0x644 SWAP1 PUSH2 0x13F9 JUMP JUMPDEST DUP1 ISZERO PUSH2 0x691 JUMPI DUP1 PUSH1 0x1F LT PUSH2 0x666 JUMPI PUSH2 0x100 DUP1 DUP4 SLOAD DIV MUL DUP4 MSTORE SWAP2 PUSH1 0x20 ADD SWAP2 PUSH2 0x691 JUMP JUMPDEST DUP3 ADD SWAP2 SWAP1 PUSH1 0x0 MSTORE PUSH1 0x20 PUSH1 0x0 KECCAK256 SWAP1 JUMPDEST DUP2 SLOAD DUP2 MSTORE SWAP1 PUSH1 0x1 ADD SWAP1 PUSH1 0x20 ADD DUP1 DUP4 GT PUSH2 0x674 JUMPI DUP3 SWAP1 SUB PUSH1 0x1F AND DUP3 ADD SWAP2 JUMPDEST POP POP POP POP POP SWAP1 DUP1 PUSH1 0x2 ADD SLOAD SWAP1 DUP1 PUSH1 0x3 ADD SLOAD SWAP1 DUP1 PUSH1 0x4 ADD PUSH1 0x40 MLOAD DUP1 PUSH1 0x40 ADD PUSH1 0x40 MSTORE SWAP1 DUP2 PUSH1 0x0 DUP3 ADD SLOAD DUP2 MSTORE PUSH1 0x20 ADD PUSH1 0x1 DUP3 ADD SLOAD DUP2 MSTORE POP POP SWAP1 POP DUP6 JUMP JUMPDEST PUSH1 0x2 PUSH1 0x20 MSTORE DUP2 PUSH1 0x0 MSTORE PUSH1 0x40 PUSH1 0x0 KECCAK256 PUSH1 0x20 MSTORE DUP1 PUSH1 0x0 MSTORE PUSH1 0x40 PUSH1 0x0 KECCAK256 PUSH1 0x0 SWAP2 POP SWAP2 POP POP DUP1 PUSH1 0x0 ADD PUSH1 0x0 SWAP1 SLOAD SWAP1 PUSH2 0x100 EXP SWAP1 DIV PUSH1 0xFF AND SWAP1 DUP1 PUSH1 0x1 ADD SLOAD SWAP1 DUP1 PUSH1 0x2 ADD SLOAD SWAP1 DUP1 PUSH1 0x3 ADD PUSH1 0x0 SWAP1 SLOAD SWAP1 PUSH2 0x100 EXP SWAP1 DIV PUSH1 0xFF AND SWAP1 POP DUP5 JUMP JUMPDEST PUSH1 0x3 DUP2 DUP2 SLOAD DUP2 LT PUSH2 0x732 JUMPI PUSH1 0x0 DUP1 REVERT JUMPDEST SWAP1 PUSH1 0x0 MSTORE PUSH1 0x20 PUSH1 0x0 KECCAK256 SWAP1 PUSH1 0x6 MUL ADD PUSH1 0x0 SWAP2 POP SWAP1 POP DUP1 PUSH1 0x0 ADD DUP1 SLOAD PUSH2 0x755 SWAP1 PUSH2 0x13F9 JUMP JUMPDEST DUP1 PUSH1 0x1F ADD PUSH1 0x20 DUP1 SWAP2 DIV MUL PUSH1 0x20 ADD PUSH1 0x40 MLOAD SWAP1 DUP2 ADD PUSH1 0x40 MSTORE DUP1 SWAP3 SWAP2 SWAP1 DUP2 DUP2 MSTORE PUSH1 0x20 ADD DUP3 DUP1 SLOAD PUSH2 0x781 SWAP1 PUSH2 0x13F9 JUMP JUMPDEST DUP1 ISZERO PUSH2 0x7CE JUMPI DUP1 PUSH1 0x1F LT PUSH2 0x7A3 JUMPI PUSH2 0x100 DUP1 DUP4 SLOAD DIV MUL DUP4 MSTORE SWAP2 PUSH1 0x20 ADD SWAP2 PUSH2 0x7CE JUMP JUMPDEST DUP3 ADD SWAP2 SWAP1 PUSH1 0x0 MSTORE PUSH1 0x20 PUSH1 0x0 KECCAK256 SWAP1 JUMPDEST DUP2 SLOAD DUP2 MSTORE SWAP1 PUSH1 0x1 ADD SWAP1 PUSH1 0x20 ADD DUP1 DUP4 GT PUSH2 0x7B1 JUMPI DUP3 SWAP1 SUB PUSH1 0x1F AND DUP3 ADD SWAP2 JUMPDEST POP POP POP POP POP SWAP1 DUP1 PUSH1 0x1 ADD DUP1 SLOAD PUSH2 0x7E3 SWAP1 PUSH2 0x13F9 JUMP JUMPDEST DUP1 PUSH1 0x1F ADD PUSH1 0x20 DUP1 SWAP2 DIV MUL PUSH1 0x20 ADD PUSH1 0x40 MLOAD SWAP1 DUP2 ADD PUSH1 0x40 MSTORE DUP1 SWAP3 SWAP2 SWAP1 DUP2 DUP2 MSTORE PUSH1 0x20 ADD DUP3 DUP1 SLOAD PUSH2 0x80F SWAP1 PUSH2 0x13F9 JUMP JUMPDEST DUP1 ISZERO PUSH2 0x85C JUMPI DUP1 PUSH1 0x1F LT PUSH2 0x831 JUMPI PUSH2 0x100 DUP1 DUP4 SLOAD DIV MUL DUP4 MSTORE SWAP2 PUSH1 0x20 ADD SWAP2 PUSH2 0x85C JUMP JUMPDEST DUP3 ADD SWAP2 SWAP1 PUSH1 0x0 MSTORE PUSH1 0x20 PUSH1 0x0 KECCAK256 SWAP1 JUMPDEST DUP2 SLOAD DUP2 MSTORE SWAP1 PUSH1 0x1 ADD SWAP1 PUSH1 0x20 ADD DUP1 DUP4 GT PUSH2 0x83F JUMPI DUP3 SWAP1 SUB PUSH1 0x1F AND DUP3 ADD SWAP2 JUMPDEST POP POP POP POP POP SWAP1 DUP1 PUSH1 0x2 ADD SLOAD SWAP1 DUP1 PUSH1 0x3 ADD SLOAD SWAP1 DUP1 PUSH1 0x4 ADD PUSH1 0x40 MLOAD DUP1 PUSH1 0x40 ADD PUSH1 0x40 MSTORE SWAP1 DUP2 PUSH1 0x0 DUP3 ADD SLOAD DUP2 MSTORE PUSH1 0x20 ADD PUSH1 0x1 DUP3 ADD SLOAD DUP2 MSTORE POP POP SWAP1 POP DUP6 JUMP JUMPDEST PUSH1 0x0 CALLER PUSH20 0xFFFFFFFFFFFFFFFFFFFFFFFFFFFFFFFFFFFFFFFF AND PUSH1 0x0 DUP1 SLOAD SWAP1 PUSH2 0x100 EXP SWAP1 DIV PUSH20 0xFFFFFFFFFFFFFFFFFFFFFFFFFFFFFFFFFFFFFFFF AND PUSH20 0xFFFFFFFFFFFFFFFFFFFFFFFFFFFFFFFFFFFFFFFF AND EQ PUSH2 0x926 JUMPI PUSH1 0x40 MLOAD PUSH32 0x8C379A000000000000000000000000000000000000000000000000000000000 DUP2 MSTORE PUSH1 0x4 ADD PUSH2 0x91D SWAP1 PUSH2 0x1476 JUMP JUMPDEST PUSH1 0x40 MLOAD DUP1 SWAP2 SUB SWAP1 REVERT JUMPDEST PUSH1 0x0 PUSH1 0x5F DUP4 PUSH2 0x935 SWAP2 SWAP1 PUSH2 0x14C5 JUMP JUMPDEST SWAP1 POP PUSH1 0x0 PUSH1 0x40 MLOAD DUP1 PUSH1 0x40 ADD PUSH1 0x40 MSTORE DUP1 PUSH1 0x0 DUP2 MSTORE PUSH1 0x20 ADD PUSH1 0x0 DUP2 MSTORE POP SWAP1 POP PUSH1 0x0 PUSH1 0x3 DUP1 SLOAD SWAP1 POP SWAP1 POP PUSH1 0x40 MLOAD DUP1 PUSH1 0xA0 ADD PUSH1 0x40 MSTORE DUP1 DUP11 DUP11 DUP1 DUP1 PUSH1 0x1F ADD PUSH1 0x20 DUP1 SWAP2 DIV MUL PUSH1 0x20 ADD PUSH1 0x40 MLOAD SWAP1 DUP2 ADD PUSH1 0x40 MSTORE DUP1 SWAP4 SWAP3 SWAP2 SWAP1 DUP2 DUP2 MSTORE PUSH1 0x20 ADD DUP4 DUP4 DUP1 DUP3 DUP5 CALLDATACOPY PUSH1 0x0 DUP2 DUP5 ADD MSTORE PUSH1 0x1F NOT PUSH1 0x1F DUP3 ADD AND SWAP1 POP DUP1 DUP4 ADD SWAP3 POP POP POP POP POP POP POP DUP2 MSTORE PUSH1 0x20 ADD DUP9 DUP9 DUP1 DUP1 PUSH1 0x1F ADD PUSH1 0x20 DUP1 SWAP2 DIV MUL PUSH1 0x20 ADD PUSH1 0x40 MLOAD SWAP1 DUP2 ADD PUSH1 0x40 MSTORE DUP1 SWAP4 SWAP3 SWAP2 SWAP1 DUP2 DUP2 MSTORE PUSH1 0x20 ADD DUP4 DUP4 DUP1 DUP3 DUP5 CALLDATACOPY PUSH1 0x0 DUP2 DUP5 ADD MSTORE PUSH1 0x1F NOT PUSH1 0x1F DUP3 ADD AND SWAP1 POP DUP1 DUP4 ADD SWAP3 POP POP POP POP POP POP POP DUP2 MSTORE PUSH1 0x20 ADD DUP7 DUP2 MSTORE PUSH1 0x20 ADD DUP5 DUP2 MSTORE PUSH1 0x20 ADD DUP4 DUP2 MSTORE POP PUSH1 0x1 PUSH1 0x0 DUP4 DUP2 MSTORE PUSH1 0x20 ADD SWAP1 DUP2 MSTORE PUSH1 0x20 ADD PUSH1 0x0 KECCAK256 PUSH1 0x0 DUP3 ADD MLOAD DUP2 PUSH1 0x0 ADD SWAP1 DUP2 PUSH2 0xA33 SWAP2 SWAP1 PUSH2 0x16D4 JUMP JUMPDEST POP PUSH1 0x20 DUP3 ADD MLOAD DUP2 PUSH1 0x1 ADD SWAP1 DUP2 PUSH2 0xA49 SWAP2 SWAP1 PUSH2 0x16D4 JUMP JUMPDEST POP PUSH1 0x40 DUP3 ADD MLOAD DUP2 PUSH1 0x2 ADD SSTORE PUSH1 0x60 DUP3 ADD MLOAD DUP2 PUSH1 0x3 ADD SSTORE PUSH1 0x80 DUP3 ADD MLOAD DUP2 PUSH1 0x4 ADD PUSH1 0x0 DUP3 ADD MLOAD DUP2 PUSH1 0x0 ADD SSTORE PUSH1 0x20 DUP3 ADD MLOAD DUP2 PUSH1 0x1 ADD SSTORE POP POP SWAP1 POP POP PUSH1 0x3 PUSH1 0x40 MLOAD DUP1 PUSH1 0xA0 ADD PUSH1 0x40 MSTORE DUP1 DUP12 DUP12 DUP1 DUP1 PUSH1 0x1F ADD PUSH1 0x20 DUP1 SWAP2 DIV MUL PUSH1 0x20 ADD PUSH1 0x40 MLOAD SWAP1 DUP2 ADD PUSH1 0x40 MSTORE DUP1 SWAP4 SWAP3 SWAP2 SWAP1 DUP2 DUP2 MSTORE PUSH1 0x20 ADD DUP4 DUP4 DUP1 DUP3 DUP5 CALLDATACOPY PUSH1 0x0 DUP2 DUP5 ADD MSTORE PUSH1 0x1F NOT PUSH1 0x1F DUP3 ADD AND SWAP1 POP DUP1 DUP4 ADD SWAP3 POP POP POP POP POP POP POP DUP2 MSTORE PUSH1 0x20 ADD DUP10 DUP10 DUP1 DUP1 PUSH1 0x1F ADD PUSH1 0x20 DUP1 SWAP2 DIV MUL PUSH1 0x20 ADD PUSH1 0x40 MLOAD SWAP1 DUP2 ADD PUSH1 0x40 MSTORE DUP1 SWAP4 SWAP3 SWAP2 SWAP1 DUP2 DUP2 MSTORE PUSH1 0x20 ADD DUP4 DUP4 DUP1 DUP3 DUP5 CALLDATACOPY PUSH1 0x0 DUP2 DUP5 ADD MSTORE PUSH1 0x1F NOT PUSH1 0x1F DUP3 ADD AND SWAP1 POP DUP1 DUP4 ADD SWAP3 POP POP POP POP POP POP POP DUP2 MSTORE PUSH1 0x20 ADD DUP8 DUP2 MSTORE PUSH1 0x20 ADD DUP6 DUP2 MSTORE PUSH1 0x20 ADD DUP5 DUP2 MSTORE POP SWAP1 DUP1 PUSH1 0x1 DUP2 SLOAD ADD DUP1 DUP3 SSTORE DUP1 SWAP2 POP POP PUSH1 0x1 SWAP1 SUB SWAP1 PUSH1 0x0 MSTORE PUSH1 0x20 PUSH1 0x0 KECCAK256 SWAP1 PUSH1 0x6 MUL ADD PUSH1 0x0 SWAP1 SWAP2 SWAP1 SWAP2 SWAP1 SWAP2 POP PUSH1 0x0 DUP3 ADD MLOAD DUP2 PUSH1 0x0 ADD SWAP1 DUP2 PUSH2 0xB6F SWAP2 SWAP1 PUSH2 0x16D4 JUMP JUMPDEST POP PUSH1 0x20 DUP3 ADD MLOAD DUP2 PUSH1 0x1 ADD SWAP1 DUP2 PUSH2 0xB85 SWAP2 SWAP1 PUSH2 0x16D4 JUMP JUMPDEST POP PUSH1 0x40 DUP3 ADD MLOAD DUP2 PUSH1 0x2 ADD SSTORE PUSH1 0x60 DUP3 ADD MLOAD DUP2 PUSH1 0x3 ADD SSTORE PUSH1 0x80 DUP3 ADD MLOAD DUP2 PUSH1 0x4 ADD PUSH1 0x0 DUP3 ADD MLOAD DUP2 PUSH1 0x0 ADD SSTORE PUSH1 0x20 DUP3 ADD MLOAD DUP2 PUSH1 0x1 ADD SSTORE POP POP POP POP PUSH1 0x1 SWAP4 POP POP POP POP SWAP6 SWAP5 POP POP POP POP POP JUMP JUMPDEST CALLER PUSH20 0xFFFFFFFFFFFFFFFFFFFFFFFFFFFFFFFFFFFFFFFF AND PUSH1 0x0 DUP1 SLOAD SWAP1 PUSH2 0x100 EXP SWAP1 DIV PUSH20 0xFFFFFFFFFFFFFFFFFFFFFFFFFFFFFFFFFFFFFFFF AND PUSH20 0xFFFFFFFFFFFFFFFFFFFFFFFFFFFFFFFFFFFFFFFF AND EQ PUSH2 0xC59 JUMPI PUSH1 0x40 MLOAD PUSH32 0x8C379A000000000000000000000000000000000000000000000000000000000 DUP2 MSTORE PUSH1 0x4 ADD PUSH2 0xC50 SWAP1 PUSH2 0x1476 JUMP JUMPDEST PUSH1 0x40 MLOAD DUP1 SWAP2 SUB SWAP1 REVERT JUMPDEST PUSH1 0x0 TIMESTAMP SWAP1 POP PUSH1 0x3 DUP5 DUP2 SLOAD DUP2 LT PUSH2 0xC72 JUMPI PUSH2 0xC71 PUSH2 0x139B JUMP JUMPDEST JUMPDEST SWAP1 PUSH1 0x0 MSTORE PUSH1 0x20 PUSH1 0x0 KECCAK256 SWAP1 PUSH1 0x6 MUL ADD PUSH1 0x3 ADD SLOAD DUP2 LT ISZERO PUSH2 0xCC6 JUMPI PUSH1 0x40 MLOAD PUSH32 0x8C379A000000000000000000000000000000000000000000000000000000000 DUP2 MSTORE PUSH1 0x4 ADD PUSH2 0xCBD SWAP1 PUSH2 0x17F2 JUMP JUMPDEST PUSH1 0x40 MLOAD DUP1 SWAP2 SUB SWAP1 REVERT JUMPDEST PUSH1 0x0 PUSH1 0x40 MLOAD DUP1 PUSH1 0x40 ADD PUSH1 0x40 MSTORE DUP1 DUP6 DUP2 MSTORE PUSH1 0x20 ADD DUP5 DUP2 MSTORE POP SWAP1 POP DUP1 PUSH1 0x3 DUP7 DUP2 SLOAD DUP2 LT PUSH2 0xCF4 JUMPI PUSH2 0xCF3 PUSH2 0x139B JUMP JUMPDEST JUMPDEST SWAP1 PUSH1 0x0 MSTORE PUSH1 0x20 PUSH1 0x0 KECCAK256 SWAP1 PUSH1 0x6 MUL ADD PUSH1 0x4 ADD PUSH1 0x0 DUP3 ADD MLOAD DUP2 PUSH1 0x0 ADD SSTORE PUSH1 0x20 DUP3 ADD MLOAD DUP2 PUSH1 0x1 ADD SSTORE SWAP1 POP POP DUP1 PUSH1 0x1 PUSH1 0x0 DUP8 DUP2 MSTORE PUSH1 0x20 ADD SWAP1 DUP2 MSTORE PUSH1 0x20 ADD PUSH1 0x0 KECCAK256 PUSH1 0x4 ADD PUSH1 0x0 DUP3 ADD MLOAD DUP2 PUSH1 0x0 ADD SSTORE PUSH1 0x20 DUP3 ADD MLOAD DUP2 PUSH1 0x1 ADD SSTORE SWAP1 POP POP POP POP POP POP POP JUMP JUMPDEST PUSH1 0x0 DUP1 SLOAD SWAP1 PUSH2 0x100 EXP SWAP1 DIV PUSH20 0xFFFFFFFFFFFFFFFFFFFFFFFFFFFFFFFFFFFFFFFF AND DUP2 JUMP JUMPDEST PUSH1 0x0 DUP1 REVERT JUMPDEST PUSH1 0x0 DUP1 REVERT JUMPDEST PUSH1 0x0 DUP2 SWAP1 POP SWAP2 SWAP1 POP JUMP JUMPDEST PUSH2 0xD92 DUP2 PUSH2 0xD7F JUMP JUMPDEST DUP2 EQ PUSH2 0xD9D JUMPI PUSH1 0x0 DUP1 REVERT JUMPDEST POP JUMP JUMPDEST PUSH1 0x0 DUP2 CALLDATALOAD SWAP1 POP PUSH2 0xDAF DUP2 PUSH2 0xD89 JUMP JUMPDEST SWAP3 SWAP2 POP POP JUMP JUMPDEST PUSH1 0x4 DUP2 LT PUSH2 0xDC2 JUMPI PUSH1 0x0 DUP1 REVERT JUMPDEST POP JUMP JUMPDEST PUSH1 0x0 DUP2 CALLDATALOAD SWAP1 POP PUSH2 0xDD4 DUP2 PUSH2 0xDB5 JUMP JUMPDEST SWAP3 SWAP2 POP POP JUMP JUMPDEST PUSH1 0x0 DUP1 PUSH1 0x40 DUP4 DUP6 SUB SLT ISZERO PUSH2 0xDF1 JUMPI PUSH2 0xDF0 PUSH2 0xD75 JUMP JUMPDEST JUMPDEST PUSH1 0x0 PUSH2 0xDFF DUP6 DUP3 DUP7 ADD PUSH2 0xDA0 JUMP JUMPDEST SWAP3 POP POP PUSH1 0x20 PUSH2 0xE10 DUP6 DUP3 DUP7 ADD PUSH2 0xDC5 JUMP JUMPDEST SWAP2 POP POP SWAP3 POP SWAP3 SWAP1 POP JUMP JUMPDEST PUSH1 0x0 PUSH1 0x20 DUP3 DUP5 SUB SLT ISZERO PUSH2 0xE30 JUMPI PUSH2 0xE2F PUSH2 0xD75 JUMP JUMPDEST JUMPDEST PUSH1 0x0 PUSH2 0xE3E DUP5 DUP3 DUP6 ADD PUSH2 0xDA0 JUMP JUMPDEST SWAP2 POP POP SWAP3 SWAP2 POP POP JUMP JUMPDEST PUSH1 0x0 PUSH20 0xFFFFFFFFFFFFFFFFFFFFFFFFFFFFFFFFFFFFFFFF DUP3 AND SWAP1 POP SWAP2 SWAP1 POP JUMP JUMPDEST PUSH1 0x0 PUSH2 0xE72 DUP3 PUSH2 0xE47 JUMP JUMPDEST SWAP1 POP SWAP2 SWAP1 POP JUMP JUMPDEST PUSH2 0xE82 DUP2 PUSH2 0xE67 JUMP JUMPDEST DUP3 MSTORE POP POP JUMP JUMPDEST PUSH2 0xE91 DUP2 PUSH2 0xD7F JUMP JUMPDEST DUP3 MSTORE POP POP JUMP JUMPDEST PUSH32 0x4E487B7100000000000000000000000000000000000000000000000000000000 PUSH1 0x0 MSTORE PUSH1 0x21 PUSH1 0x4 MSTORE PUSH1 0x24 PUSH1 0x0 REVERT JUMPDEST PUSH1 0x4 DUP2 LT PUSH2 0xED7 JUMPI PUSH2 0xED6 PUSH2 0xE97 JUMP JUMPDEST JUMPDEST POP JUMP JUMPDEST PUSH1 0x0 DUP2 SWAP1 POP PUSH2 0xEE8 DUP3 PUSH2 0xEC6 JUMP JUMPDEST SWAP2 SWAP1 POP JUMP JUMPDEST PUSH1 0x0 PUSH2 0xEF8 DUP3 PUSH2 0xEDA JUMP JUMPDEST SWAP1 POP SWAP2 SWAP1 POP JUMP JUMPDEST PUSH2 0xF08 DUP2 PUSH2 0xEED JUMP JUMPDEST DUP3 MSTORE POP POP JUMP JUMPDEST PUSH1 0x0 PUSH1 0x60 DUP3 ADD SWAP1 POP PUSH2 0xF23 PUSH1 0x0 DUP4 ADD DUP7 PUSH2 0xE79 JUMP JUMPDEST PUSH2 0xF30 PUSH1 0x20 DUP4 ADD DUP6 PUSH2 0xE88 JUMP JUMPDEST PUSH2 0xF3D PUSH1 0x40 DUP4 ADD DUP5 PUSH2 0xEFF JUMP JUMPDEST SWAP5 SWAP4 POP POP POP POP JUMP JUMPDEST PUSH1 0x0 DUP2 MLOAD SWAP1 POP SWAP2 SWAP1 POP JUMP JUMPDEST PUSH1 0x0 DUP3 DUP3 MSTORE PUSH1 0x20 DUP3 ADD SWAP1 POP SWAP3 SWAP2 POP POP JUMP JUMPDEST PUSH1 0x0 JUMPDEST DUP4 DUP2 LT ISZERO PUSH2 0xF7F JUMPI DUP1 DUP3 ADD MLOAD DUP2 DUP5 ADD MSTORE PUSH1 0x20 DUP2 ADD SWAP1 POP PUSH2 0xF64 JUMP JUMPDEST PUSH1 0x0 DUP5 DUP5 ADD MSTORE POP POP POP POP JUMP JUMPDEST PUSH1 0x0 PUSH1 0x1F NOT PUSH1 0x1F DUP4 ADD AND SWAP1 POP SWAP2 SWAP1 POP JUMP JUMPDEST PUSH1 0x0 PUSH2 0xFA7 DUP3 PUSH2 0xF45 JUMP JUMPDEST PUSH2 0xFB1 DUP2 DUP6 PUSH2 0xF50 JUMP JUMPDEST SWAP4 POP PUSH2 0xFC1 DUP2 DUP6 PUSH1 0x20 DUP7 ADD PUSH2 0xF61 JUMP JUMPDEST PUSH2 0xFCA DUP2 PUSH2 0xF8B JUMP JUMPDEST DUP5 ADD SWAP2 POP POP SWAP3 SWAP2 POP POP JUMP JUMPDEST PUSH2 0xFDE DUP2 PUSH2 0xD7F JUMP JUMPDEST DUP3 MSTORE POP POP JUMP JUMPDEST PUSH1 0x40 DUP3 ADD PUSH1 0x0 DUP3 ADD MLOAD PUSH2 0xFFA PUSH1 0x0 DUP6 ADD DUP3 PUSH2 0xFD5 JUMP JUMPDEST POP PUSH1 0x20 DUP3 ADD MLOAD PUSH2 0x100D PUSH1 0x20 DUP6 ADD DUP3 PUSH2 0xFD5 JUMP JUMPDEST POP POP POP POP JUMP JUMPDEST PUSH1 0x0 PUSH1 0xC0 DUP3 ADD SWAP1 POP DUP2 DUP2 SUB PUSH1 0x0 DUP4 ADD MSTORE PUSH2 0x102D DUP2 DUP9 PUSH2 0xF9C JUMP JUMPDEST SWAP1 POP DUP2 DUP2 SUB PUSH1 0x20 DUP4 ADD MSTORE PUSH2 0x1041 DUP2 DUP8 PUSH2 0xF9C JUMP JUMPDEST SWAP1 POP PUSH2 0x1050 PUSH1 0x40 DUP4 ADD DUP7 PUSH2 0xE88 JUMP JUMPDEST PUSH2 0x105D PUSH1 0x60 DUP4 ADD DUP6 PUSH2 0xE88 JUMP JUMPDEST PUSH2 0x106A PUSH1 0x80 DUP4 ADD DUP5 PUSH2 0xFE4 JUMP JUMPDEST SWAP7 SWAP6 POP POP POP POP POP POP JUMP JUMPDEST PUSH2 0x107D DUP2 PUSH2 0xE67 JUMP JUMPDEST DUP2 EQ PUSH2 0x1088 JUMPI PUSH1 0x0 DUP1 REVERT JUMPDEST POP JUMP JUMPDEST PUSH1 0x0 DUP2 CALLDATALOAD SWAP1 POP PUSH2 0x109A DUP2 PUSH2 0x1074 JUMP JUMPDEST SWAP3 SWAP2 POP POP JUMP JUMPDEST PUSH1 0x0 DUP1 PUSH1 0x40 DUP4 DUP6 SUB SLT ISZERO PUSH2 0x10B7 JUMPI PUSH2 0x10B6 PUSH2 0xD75 JUMP JUMPDEST JUMPDEST PUSH1 0x0 PUSH2 0x10C5 DUP6 DUP3 DUP7 ADD PUSH2 0x108B JUMP JUMPDEST SWAP3 POP POP PUSH1 0x20 PUSH2 0x10D6 DUP6 DUP3 DUP7 ADD PUSH2 0xDA0 JUMP JUMPDEST SWAP2 POP POP SWAP3 POP SWAP3 SWAP1 POP JUMP JUMPDEST PUSH1 0x0 DUP2 ISZERO ISZERO SWAP1 POP SWAP2 SWAP1 POP JUMP JUMPDEST PUSH2 0x10F5 DUP2 PUSH2 0x10E0 JUMP JUMPDEST DUP3 MSTORE POP POP JUMP JUMPDEST PUSH1 0x0 PUSH1 0x80 DUP3 ADD SWAP1 POP PUSH2 0x1110 PUSH1 0x0 DUP4 ADD DUP8 PUSH2 0xEFF JUMP JUMPDEST PUSH2 0x111D PUSH1 0x20 DUP4 ADD DUP7 PUSH2 0xE88 JUMP JUMPDEST PUSH2 0x112A PUSH1 0x40 DUP4 ADD DUP6 PUSH2 0xE88 JUMP JUMPDEST PUSH2 0x1137 PUSH1 0x60 DUP4 ADD DUP5 PUSH2 0x10EC JUMP JUMPDEST SWAP6 SWAP5 POP POP POP POP POP JUMP JUMPDEST PUSH1 0x0 DUP1 REVERT JUMPDEST PUSH1 0x0 DUP1 REVERT JUMPDEST PUSH1 0x0 DUP1 REVERT JUMPDEST PUSH1 0x0 DUP1 DUP4 PUSH1 0x1F DUP5 ADD SLT PUSH2 0x1165 JUMPI PUSH2 0x1164 PUSH2 0x1140 JUMP JUMPDEST JUMPDEST DUP3 CALLDATALOAD SWAP1 POP PUSH8 0xFFFFFFFFFFFFFFFF DUP2 GT ISZERO PUSH2 0x1182 JUMPI PUSH2 0x1181 PUSH2 0x1145 JUMP JUMPDEST JUMPDEST PUSH1 0x20 DUP4 ADD SWAP2 POP DUP4 PUSH1 0x1 DUP3 MUL DUP4 ADD GT ISZERO PUSH2 0x119E JUMPI PUSH2 0x119D PUSH2 0x114A JUMP JUMPDEST JUMPDEST SWAP3 POP SWAP3 SWAP1 POP JUMP JUMPDEST PUSH1 0x0 DUP1 PUSH1 0x0 DUP1 PUSH1 0x0 PUSH1 0x60 DUP7 DUP9 SUB SLT ISZERO PUSH2 0x11C1 JUMPI PUSH2 0x11C0 PUSH2 0xD75 JUMP JUMPDEST JUMPDEST PUSH1 0x0 DUP7 ADD CALLDATALOAD PUSH8 0xFFFFFFFFFFFFFFFF DUP2 GT ISZERO PUSH2 0x11DF JUMPI PUSH2 0x11DE PUSH2 0xD7A JUMP JUMPDEST JUMPDEST PUSH2 0x11EB DUP9 DUP3 DUP10 ADD PUSH2 0x114F JUMP JUMPDEST SWAP6 POP SWAP6 POP POP PUSH1 0x20 DUP7 ADD CALLDATALOAD PUSH8 0xFFFFFFFFFFFFFFFF DUP2 GT ISZERO PUSH2 0x120E JUMPI PUSH2 0x120D PUSH2 0xD7A JUMP JUMPDEST JUMPDEST PUSH2 0x121A DUP9 DUP3 DUP10 ADD PUSH2 0x114F JUMP JUMPDEST SWAP4 POP SWAP4 POP POP PUSH1 0x40 PUSH2 0x122D DUP9 DUP3 DUP10 ADD PUSH2 0xDA0 JUMP JUMPDEST SWAP2 POP POP SWAP3 SWAP6 POP SWAP3 SWAP6 SWAP1 SWAP4 POP JUMP JUMPDEST PUSH1 0x0 PUSH1 0x20 DUP3 ADD SWAP1 POP PUSH2 0x124F PUSH1 0x0 DUP4 ADD DUP5 PUSH2 0x10EC JUMP JUMPDEST SWAP3 SWAP2 POP POP JUMP JUMPDEST PUSH1 0x0 DUP1 PUSH1 0x0 PUSH1 0x60 DUP5 DUP7 SUB SLT ISZERO PUSH2 0x126E JUMPI PUSH2 0x126D PUSH2 0xD75 JUMP JUMPDEST JUMPDEST PUSH1 0x0 PUSH2 0x127C DUP7 DUP3 DUP8 ADD PUSH2 0xDA0 JUMP JUMPDEST SWAP4 POP POP PUSH1 0x20 PUSH2 0x128D DUP7 DUP3 DUP8 ADD PUSH2 0xDA0 JUMP JUMPDEST SWAP3 POP POP PUSH1 0x40 PUSH2 0x129E DUP7 DUP3 DUP8 ADD PUSH2 0xDA0 JUMP JUMPDEST SWAP2 POP POP SWAP3 POP SWAP3 POP SWAP3 JUMP JUMPDEST PUSH1 0x0 PUSH1 0x20 DUP3 ADD SWAP1 POP PUSH2 0x12BD PUSH1 0x0 DUP4 ADD DUP5 PUSH2 0xE79 JUMP JUMPDEST SWAP3 SWAP2 POP POP JUMP JUMPDEST PUSH32 0x596F752000000000000000000000000000000000000000000000000000000000 PUSH1 0x0 DUP3 ADD MSTORE POP JUMP JUMPDEST PUSH1 0x0 PUSH2 0x12F9 PUSH1 0x4 DUP4 PUSH2 0xF50 JUMP JUMPDEST SWAP2 POP PUSH2 0x1304 DUP3 PUSH2 0x12C3 JUMP JUMPDEST PUSH1 0x20 DUP3 ADD SWAP1 POP SWAP2 SWAP1 POP JUMP JUMPDEST PUSH1 0x0 PUSH1 0x20 DUP3 ADD SWAP1 POP DUP2 DUP2 SUB PUSH1 0x0 DUP4 ADD MSTORE PUSH2 0x1328 DUP2 PUSH2 0x12EC JUMP JUMPDEST SWAP1 POP SWAP2 SWAP1 POP JUMP JUMPDEST PUSH32 0x42657420416D6F756E74206973206C657373207468616E207265717569726564 PUSH1 0x0 DUP3 ADD MSTORE POP JUMP JUMPDEST PUSH1 0x0 PUSH2 0x1365 PUSH1 0x20 DUP4 PUSH2 0xF50 JUMP JUMPDEST SWAP2 POP PUSH2 0x1370 DUP3 PUSH2 0x132F JUMP JUMPDEST PUSH1 0x20 DUP3 ADD SWAP1 POP SWAP2 SWAP1 POP JUMP JUMPDEST PUSH1 0x0 PUSH1 0x20 DUP3 ADD SWAP1 POP DUP2 DUP2 SUB PUSH1 0x0 DUP4 ADD MSTORE PUSH2 0x1394 DUP2 PUSH2 0x1358 JUMP JUMPDEST SWAP1 POP SWAP2 SWAP1 POP JUMP JUMPDEST PUSH32 0x4E487B7100000000000000000000000000000000000000000000000000000000 PUSH1 0x0 MSTORE PUSH1 0x32 PUSH1 0x4 MSTORE PUSH1 0x24 PUSH1 0x0 REVERT JUMPDEST PUSH32 0x4E487B7100000000000000000000000000000000000000000000000000000000 PUSH1 0x0 MSTORE PUSH1 0x22 PUSH1 0x4 MSTORE PUSH1 0x24 PUSH1 0x0 REVERT JUMPDEST PUSH1 0x0 PUSH1 0x2 DUP3 DIV SWAP1 POP PUSH1 0x1 DUP3 AND DUP1 PUSH2 0x1411 JUMPI PUSH1 0x7F DUP3 AND SWAP2 POP JUMPDEST PUSH1 0x20 DUP3 LT DUP2 SUB PUSH2 0x1424 JUMPI PUSH2 0x1423 PUSH2 0x13CA JUMP JUMPDEST JUMPDEST POP SWAP2 SWAP1 POP JUMP JUMPDEST PUSH32 0x4E6F74204F776E65720000000000000000000000000000000000000000000000 PUSH1 0x0 DUP3 ADD MSTORE POP JUMP JUMPDEST PUSH1 0x0 PUSH2 0x1460 PUSH1 0x9 DUP4 PUSH2 0xF50 JUMP JUMPDEST SWAP2 POP PUSH2 0x146B DUP3 PUSH2 0x142A JUMP JUMPDEST PUSH1 0x20 DUP3 ADD SWAP1 POP SWAP2 SWAP1 POP JUMP JUMPDEST PUSH1 0x0 PUSH1 0x20 DUP3 ADD SWAP1 POP DUP2 DUP2 SUB PUSH1 0x0 DUP4 ADD MSTORE PUSH2 0x148F DUP2 PUSH2 0x1453 JUMP JUMPDEST SWAP1 POP SWAP2 SWAP1 POP JUMP JUMPDEST PUSH32 0x4E487B7100000000000000000000000000000000000000000000000000000000 PUSH1 0x0 MSTORE PUSH1 0x11 PUSH1 0x4 MSTORE PUSH1 0x24 PUSH1 0x0 REVERT JUMPDEST PUSH1 0x0 PUSH2 0x14D0 DUP3 PUSH2 0xD7F JUMP JUMPDEST SWAP2 POP PUSH2 0x14DB DUP4 PUSH2 0xD7F JUMP JUMPDEST SWAP3 POP DUP3 DUP3 ADD SWAP1 POP DUP1 DUP3 GT ISZERO PUSH2 0x14F3 JUMPI PUSH2 0x14F2 PUSH2 0x1496 JUMP JUMPDEST JUMPDEST SWAP3 SWAP2 POP POP JUMP JUMPDEST PUSH32 0x4E487B7100000000000000000000000000000000000000000000000000000000 PUSH1 0x0 MSTORE PUSH1 0x41 PUSH1 0x4 MSTORE PUSH1 0x24 PUSH1 0x0 REVERT JUMPDEST PUSH1 0x0 DUP2 SWAP1 POP DUP2 PUSH1 0x0 MSTORE PUSH1 0x20 PUSH1 0x0 KECCAK256 SWAP1 POP SWAP2 SWAP1 POP JUMP JUMPDEST PUSH1 0x0 PUSH1 0x20 PUSH1 0x1F DUP4 ADD DIV SWAP1 POP SWAP2 SWAP1 POP JUMP JUMPDEST PUSH1 0x0 DUP3 DUP3 SHL SWAP1 POP SWAP3 SWAP2 POP POP JUMP JUMPDEST PUSH1 0x0 PUSH1 0x8 DUP4 MUL PUSH2 0x158A PUSH32 0xFFFFFFFFFFFFFFFFFFFFFFFFFFFFFFFFFFFFFFFFFFFFFFFFFFFFFFFFFFFFFFFF DUP3 PUSH2 0x154D JUMP JUMPDEST PUSH2 0x1594 DUP7 DUP4 PUSH2 0x154D JUMP JUMPDEST SWAP6 POP DUP1 NOT DUP5 AND SWAP4 POP DUP1 DUP7 AND DUP5 OR SWAP3 POP POP POP SWAP4 SWAP3 POP POP POP JUMP JUMPDEST PUSH1 0x0 DUP2 SWAP1 POP SWAP2 SWAP1 POP JUMP JUMPDEST PUSH1 0x0 PUSH2 0x15D1 PUSH2 0x15CC PUSH2 0x15C7 DUP5 PUSH2 0xD7F JUMP JUMPDEST PUSH2 0x15AC JUMP JUMPDEST PUSH2 0xD7F JUMP JUMPDEST SWAP1 POP SWAP2 SWAP1 POP JUMP JUMPDEST PUSH1 0x0 DUP2 SWAP1 POP SWAP2 SWAP1 POP JUMP JUMPDEST PUSH2 0x15EB DUP4 PUSH2 0x15B6 JUMP JUMPDEST PUSH2 0x15FF PUSH2 0x15F7 DUP3 PUSH2 0x15D8 JUMP JUMPDEST DUP5 DUP5 SLOAD PUSH2 0x155A JUMP JUMPDEST DUP3 SSTORE POP POP POP POP JUMP JUMPDEST PUSH1 0x0 SWAP1 JUMP JUMPDEST PUSH2 0x1614 PUSH2 0x1607 JUMP JUMPDEST PUSH2 0x161F DUP2 DUP5 DUP5 PUSH2 0x15E2 JUMP JUMPDEST POP POP POP JUMP JUMPDEST JUMPDEST DUP2 DUP2 LT ISZERO PUSH2 0x1643 JUMPI PUSH2 0x1638 PUSH1 0x0 DUP3 PUSH2 0x160C JUMP JUMPDEST PUSH1 0x1 DUP2 ADD SWAP1 POP PUSH2 0x1625 JUMP JUMPDEST POP POP JUMP JUMPDEST PUSH1 0x1F DUP3 GT ISZERO PUSH2 0x1688 JUMPI PUSH2 0x1659 DUP2 PUSH2 0x1528 JUMP JUMPDEST PUSH2 0x1662 DUP5 PUSH2 0x153D JUMP JUMPDEST DUP2 ADD PUSH1 0x20 DUP6 LT ISZERO PUSH2 0x1671 JUMPI DUP2 SWAP1 POP JUMPDEST PUSH2 0x1685 PUSH2 0x167D DUP6 PUSH2 0x153D JUMP JUMPDEST DUP4 ADD DUP3 PUSH2 0x1624 JUMP JUMPDEST POP POP JUMPDEST POP POP POP JUMP JUMPDEST PUSH1 0x0 DUP3 DUP3 SHR SWAP1 POP SWAP3 SWAP2 POP POP JUMP JUMPDEST PUSH1 0x0 PUSH2 0x16AB PUSH1 0x0 NOT DUP5 PUSH1 0x8 MUL PUSH2 0x168D JUMP JUMPDEST NOT DUP1 DUP4 AND SWAP2 POP POP SWAP3 SWAP2 POP POP JUMP JUMPDEST PUSH1 0x0 PUSH2 0x16C4 DUP4 DUP4 PUSH2 0x169A JUMP JUMPDEST SWAP2 POP DUP3 PUSH1 0x2 MUL DUP3 OR SWAP1 POP SWAP3 SWAP2 POP POP JUMP JUMPDEST PUSH2 0x16DD DUP3 PUSH2 0xF45 JUMP JUMPDEST PUSH8 0xFFFFFFFFFFFFFFFF DUP2 GT ISZERO PUSH2 0x16F6 JUMPI PUSH2 0x16F5 PUSH2 0x14F9 JUMP JUMPDEST JUMPDEST PUSH2 0x1700 DUP3 SLOAD PUSH2 0x13F9 JUMP JUMPDEST PUSH2 0x170B DUP3 DUP3 DUP6 PUSH2 0x1647 JUMP JUMPDEST PUSH1 0x0 PUSH1 0x20 SWAP1 POP PUSH1 0x1F DUP4 GT PUSH1 0x1 DUP2 EQ PUSH2 0x173E JUMPI PUSH1 0x0 DUP5 ISZERO PUSH2 0x172C JUMPI DUP3 DUP8 ADD MLOAD SWAP1 POP JUMPDEST PUSH2 0x1736 DUP6 DUP3 PUSH2 0x16B8 JUMP JUMPDEST DUP7 SSTORE POP PUSH2 0x179E JUMP JUMPDEST PUSH1 0x1F NOT DUP5 AND PUSH2 0x174C DUP7 PUSH2 0x1528 JUMP JUMPDEST PUSH1 0x0 JUMPDEST DUP3 DUP2 LT ISZERO PUSH2 0x1774 JUMPI DUP5 DUP10 ADD MLOAD DUP3 SSTORE PUSH1 0x1 DUP3 ADD SWAP2 POP PUSH1 0x20 DUP6 ADD SWAP5 POP PUSH1 0x20 DUP2 ADD SWAP1 POP PUSH2 0x174F JUMP JUMPDEST DUP7 DUP4 LT ISZERO PUSH2 0x1791 JUMPI DUP5 DUP10 ADD MLOAD PUSH2 0x178D PUSH1 0x1F DUP10 AND DUP3 PUSH2 0x169A JUMP JUMPDEST DUP4 SSTORE POP JUMPDEST PUSH1 0x1 PUSH1 0x2 DUP9 MUL ADD DUP9 SSTORE POP POP POP JUMPDEST POP POP POP POP POP POP JUMP JUMPDEST PUSH32 0x4D61746368206973207374696C6C206F6E000000000000000000000000000000 PUSH1 0x0 DUP3 ADD MSTORE POP JUMP JUMPDEST PUSH1 0x0 PUSH2 0x17DC PUSH1 0x11 DUP4 PUSH2 0xF50 JUMP JUMPDEST SWAP2 POP PUSH2 0x17E7 DUP3 PUSH2 0x17A6 JUMP JUMPDEST PUSH1 0x20 DUP3 ADD SWAP1 POP SWAP2 SWAP1 POP JUMP JUMPDEST PUSH1 0x0 PUSH1 0x20 DUP3 ADD SWAP1 POP DUP2 DUP2 SUB PUSH1 0x0 DUP4 ADD MSTORE PUSH2 0x180B DUP2 PUSH2 0x17CF JUMP JUMPDEST SWAP1 POP SWAP2 SWAP1 POP JUMP INVALID LOG2 PUSH5 0x6970667358 0x22 SLT KECCAK256 BLOCKHASH 0x29 PUSH27 0xD91F3A057F4C9CBF7684A2E80980E790D5BF0ACA7D432E7CDED7A7 0xBD DIFFICULTY PUSH5 0x736F6C6343 STOP ADDMOD GT STOP CALLER "
				},
				"gasEstimates": {
					"creation": {
						"codeDepositCost": "1243200",
						"executionCost": "25561",
						"totalCost": "1268761"
					},
					"external": {
						"Game(uint256)": "infinite",
						"admin()": "2577",
						"allMatch(uint256)": "infinite",
						"closeMatch(uint256,uint256,uint256)": "infinite",
						"instantiateMatch(string,string,uint256)": "infinite",
						"placeBet(uint256,uint8)": "151932",
						"specificMatchBets(uint256)": "infinite",
						"userBet(address,uint256)": "infinite"
					}
				},
				"methodIdentifiers": {
					"Game(uint256)": "2172ff16",
					"admin()": "f851a440",
					"allMatch(uint256)": "b2edb39f",
					"closeMatch(uint256,uint256,uint256)": "ec7361a8",
					"instantiateMatch(string,string,uint256)": "bc9e6e2c",
					"placeBet(uint256,uint8)": "03edf914",
					"specificMatchBets(uint256)": "15a3ae71",
					"userBet(address,uint256)": "4195ab8e"
				}
			},
			"storageLayout": {
				"storage": [
					{
						"astId": 8,
						"contract": "contracts/betting.sol:DistanceFiBET",
						"label": "admin",
						"offset": 0,
						"slot": "0",
						"type": "t_address"
					},
					{
						"astId": 40,
						"contract": "contracts/betting.sol:DistanceFiBET",
						"label": "Game",
						"offset": 0,
						"slot": "1",
						"type": "t_mapping(t_uint256,t_struct(Match)25_storage)"
					},
					{
						"astId": 47,
						"contract": "contracts/betting.sol:DistanceFiBET",
						"label": "userBet",
						"offset": 0,
						"slot": "2",
						"type": "t_mapping(t_address,t_mapping(t_uint256,t_struct(Bettor)35_storage))"
					},
					{
						"astId": 51,
						"contract": "contracts/betting.sol:DistanceFiBET",
						"label": "allMatch",
						"offset": 0,
						"slot": "3",
						"type": "t_array(t_struct(Match)25_storage)dyn_storage"
					},
					{
						"astId": 63,
						"contract": "contracts/betting.sol:DistanceFiBET",
						"label": "specificMatchBets",
						"offset": 0,
						"slot": "4",
						"type": "t_array(t_struct(allBets)59_storage)dyn_storage"
					}
				],
				"types": {
					"t_address": {
						"encoding": "inplace",
						"label": "address",
						"numberOfBytes": "20"
					},
					"t_array(t_struct(Match)25_storage)dyn_storage": {
						"base": "t_struct(Match)25_storage",
						"encoding": "dynamic_array",
						"label": "struct DistanceFiBET.Match[]",
						"numberOfBytes": "32"
					},
					"t_array(t_struct(allBets)59_storage)dyn_storage": {
						"base": "t_struct(allBets)59_storage",
						"encoding": "dynamic_array",
						"label": "struct DistanceFiBET.allBets[]",
						"numberOfBytes": "32"
					},
					"t_bool": {
						"encoding": "inplace",
						"label": "bool",
						"numberOfBytes": "1"
					},
					"t_enum(Choices)6": {
						"encoding": "inplace",
						"label": "enum DistanceFiBET.Choices",
						"numberOfBytes": "1"
					},
					"t_mapping(t_address,t_mapping(t_uint256,t_struct(Bettor)35_storage))": {
						"encoding": "mapping",
						"key": "t_address",
						"label": "mapping(address => mapping(uint256 => struct DistanceFiBET.Bettor))",
						"numberOfBytes": "32",
						"value": "t_mapping(t_uint256,t_struct(Bettor)35_storage)"
					},
					"t_mapping(t_uint256,t_struct(Bettor)35_storage)": {
						"encoding": "mapping",
						"key": "t_uint256",
						"label": "mapping(uint256 => struct DistanceFiBET.Bettor)",
						"numberOfBytes": "32",
						"value": "t_struct(Bettor)35_storage"
					},
					"t_mapping(t_uint256,t_struct(Match)25_storage)": {
						"encoding": "mapping",
						"key": "t_uint256",
						"label": "mapping(uint256 => struct DistanceFiBET.Match)",
						"numberOfBytes": "32",
						"value": "t_struct(Match)25_storage"
					},
					"t_string_storage": {
						"encoding": "bytes",
						"label": "string",
						"numberOfBytes": "32"
					},
					"t_struct(Bettor)35_storage": {
						"encoding": "inplace",
						"label": "struct DistanceFiBET.Bettor",
						"members": [
							{
								"astId": 28,
								"contract": "contracts/betting.sol:DistanceFiBET",
								"label": "bet",
								"offset": 0,
								"slot": "0",
								"type": "t_enum(Choices)6"
							},
							{
								"astId": 30,
								"contract": "contracts/betting.sol:DistanceFiBET",
								"label": "winAmounts",
								"offset": 0,
								"slot": "1",
								"type": "t_uint256"
							},
							{
								"astId": 32,
								"contract": "contracts/betting.sol:DistanceFiBET",
								"label": "betAmount",
								"offset": 0,
								"slot": "2",
								"type": "t_uint256"
							},
							{
								"astId": 34,
								"contract": "contracts/betting.sol:DistanceFiBET",
								"label": "played",
								"offset": 0,
								"slot": "3",
								"type": "t_bool"
							}
						],
						"numberOfBytes": "128"
					},
					"t_struct(Match)25_storage": {
						"encoding": "inplace",
						"label": "struct DistanceFiBET.Match",
						"members": [
							{
								"astId": 15,
								"contract": "contracts/betting.sol:DistanceFiBET",
								"label": "HomeTeam",
								"offset": 0,
								"slot": "0",
								"type": "t_string_storage"
							},
							{
								"astId": 17,
								"contract": "contracts/betting.sol:DistanceFiBET",
								"label": "AwayTeam",
								"offset": 0,
								"slot": "1",
								"type": "t_string_storage"
							},
							{
								"astId": 19,
								"contract": "contracts/betting.sol:DistanceFiBET",
								"label": "startTime",
								"offset": 0,
								"slot": "2",
								"type": "t_uint256"
							},
							{
								"astId": 21,
								"contract": "contracts/betting.sol:DistanceFiBET",
								"label": "endTime",
								"offset": 0,
								"slot": "3",
								"type": "t_uint256"
							},
							{
								"astId": 24,
								"contract": "contracts/betting.sol:DistanceFiBET",
								"label": "results",
								"offset": 0,
								"slot": "4",
								"type": "t_struct(Results)13_storage"
							}
						],
						"numberOfBytes": "192"
					},
					"t_struct(Results)13_storage": {
						"encoding": "inplace",
						"label": "struct DistanceFiBET.Results",
						"members": [
							{
								"astId": 10,
								"contract": "contracts/betting.sol:DistanceFiBET",
								"label": "Home_score",
								"offset": 0,
								"slot": "0",
								"type": "t_uint256"
							},
							{
								"astId": 12,
								"contract": "contracts/betting.sol:DistanceFiBET",
								"label": "Away_score",
								"offset": 0,
								"slot": "1",
								"type": "t_uint256"
							}
						],
						"numberOfBytes": "64"
					},
					"t_struct(allBets)59_storage": {
						"encoding": "inplace",
						"label": "struct DistanceFiBET.allBets",
						"members": [
							{
								"astId": 53,
								"contract": "contracts/betting.sol:DistanceFiBET",
								"label": "bettor",
								"offset": 0,
								"slot": "0",
								"type": "t_address"
							},
							{
								"astId": 55,
								"contract": "contracts/betting.sol:DistanceFiBET",
								"label": "amount",
								"offset": 0,
								"slot": "1",
								"type": "t_uint256"
							},
							{
								"astId": 58,
								"contract": "contracts/betting.sol:DistanceFiBET",
								"label": "choice",
								"offset": 0,
								"slot": "2",
								"type": "t_enum(Choices)6"
							}
						],
						"numberOfBytes": "96"
					},
					"t_uint256": {
						"encoding": "inplace",
						"label": "uint256",
						"numberOfBytes": "32"
					}
				}
			},
			"userdoc": {
				"kind": "user",
				"methods": {},
				"version": 1
			}
		}
	}
}