{
	"contracts/ico.sol": {
		"Amestarter": {
			"abi": [
				{
					"inputs": [
						{
							"internalType": "uint256",
							"name": "_tokenPrice",
							"type": "uint256"
						},
						{
							"internalType": "address",
							"name": "_IUSDT",
							"type": "address"
						},
						{
							"internalType": "address",
							"name": "_IDAZ",
							"type": "address"
						},
						{
							"internalType": "uint256",
							"name": "_targetSale",
							"type": "uint256"
						}
					],
					"stateMutability": "nonpayable",
					"type": "constructor"
				},
				{
					"anonymous": false,
					"inputs": [
						{
							"indexed": false,
							"internalType": "string",
							"name": "icoAlert",
							"type": "string"
						}
					],
					"name": "ICOStartAlert",
					"type": "event"
				},
				{
					"anonymous": false,
					"inputs": [
						{
							"indexed": false,
							"internalType": "uint256",
							"name": "newTokenprice",
							"type": "uint256"
						},
						{
							"indexed": false,
							"internalType": "uint256",
							"name": "target",
							"type": "uint256"
						}
					],
					"name": "icoUpdate",
					"type": "event"
				},
				{
					"anonymous": false,
					"inputs": [
						{
							"indexed": true,
							"internalType": "address",
							"name": "buyer",
							"type": "address"
						},
						{
							"indexed": false,
							"internalType": "uint256",
							"name": "amount",
							"type": "uint256"
						}
					],
					"name": "latestPurchased",
					"type": "event"
				},
				{
					"inputs": [],
					"name": "BeginIDO",
					"outputs": [],
					"stateMutability": "nonpayable",
					"type": "function"
				},
				{
					"inputs": [],
					"name": "DAZ",
					"outputs": [
						{
							"internalType": "address",
							"name": "",
							"type": "address"
						}
					],
					"stateMutability": "view",
					"type": "function"
				},
				{
					"inputs": [],
					"name": "StopIDO",
					"outputs": [],
					"stateMutability": "nonpayable",
					"type": "function"
				},
				{
					"inputs": [],
					"name": "USDT",
					"outputs": [
						{
							"internalType": "address",
							"name": "",
							"type": "address"
						}
					],
					"stateMutability": "view",
					"type": "function"
				},
				{
					"inputs": [],
					"name": "claimPurchasedToken",
					"outputs": [],
					"stateMutability": "nonpayable",
					"type": "function"
				},
				{
					"inputs": [
						{
							"internalType": "uint256",
							"name": "_tokenPrice",
							"type": "uint256"
						},
						{
							"internalType": "uint256",
							"name": "_targetSale",
							"type": "uint256"
						}
					],
					"name": "editIco",
					"outputs": [],
					"stateMutability": "nonpayable",
					"type": "function"
				},
				{
					"inputs": [
						{
							"internalType": "uint256",
							"name": "_amount",
							"type": "uint256"
						}
					],
					"name": "purchaseToken",
					"outputs": [],
					"stateMutability": "nonpayable",
					"type": "function"
				},
				{
					"inputs": [],
					"name": "tokenPrice",
					"outputs": [
						{
							"internalType": "uint256",
							"name": "",
							"type": "uint256"
						}
					],
					"stateMutability": "view",
					"type": "function"
				}
			],
			"devdoc": {
				"kind": "dev",
				"methods": {},
				"version": 1
			},
			"evm": {
				"assembly": "    /* \"contracts/ico.sol\":1245:3419  contract Amestarter is ReentrancyGuard {... */\n  mstore(0x40, 0xc0)\n    /* \"contracts/ico.sol\":1857:2114  constructor(uint _tokenPrice, address _IUSDT, address _IDAZ, uint256 _targetSale){... */\n  callvalue\n  dup1\n  iszero\n  tag_1\n  jumpi\n  0x00\n  dup1\n  revert\ntag_1:\n  pop\n  mload(0x40)\n  sub(codesize, bytecodeSize)\n  dup1\n  bytecodeSize\n  dup4\n  codecopy\n  dup2\n  dup2\n  add\n  0x40\n  mstore\n  dup2\n  add\n  swap1\n  tag_2\n  swap2\n  swap1\n  tag_3\n  jump\t// in\ntag_2:\n    /* \"@openzeppelin/contracts/security/ReentrancyGuard.sol\":1701:1702  1 */\n  0x01\n    /* \"@openzeppelin/contracts/security/ReentrancyGuard.sol\":1806:1813  _status */\n  0x00\n    /* \"@openzeppelin/contracts/security/ReentrancyGuard.sol\":1806:1828  _status = _NOT_ENTERED */\n  dup2\n  swap1\n  sstore\n  pop\n    /* \"contracts/ico.sol\":1957:1967  msg.sender */\n  caller\n    /* \"contracts/ico.sol\":1949:1954  owner */\n  0x02\n  0x00\n    /* \"contracts/ico.sol\":1949:1967  owner = msg.sender */\n  0x0100\n  exp\n  dup2\n  sload\n  dup2\n  0xffffffffffffffffffffffffffffffffffffffff\n  mul\n  not\n  and\n  swap1\n  dup4\n  0xffffffffffffffffffffffffffffffffffffffff\n  and\n  mul\n  or\n  swap1\n  sstore\n  pop\n    /* \"contracts/ico.sol\":2005:2013  10 ** 18 */\n  0x0de0b6b3a7640000\n    /* \"contracts/ico.sol\":1991:2002  _tokenPrice */\n  dup5\n    /* \"contracts/ico.sol\":1991:2013  _tokenPrice * 10 ** 18 */\n  tag_8\n  swap2\n  swap1\n  tag_9\n  jump\t// in\ntag_8:\n    /* \"contracts/ico.sol\":1978:1988  tokenPrice */\n  0x01\n    /* \"contracts/ico.sol\":1978:2013  tokenPrice = _tokenPrice * 10 ** 18 */\n  dup2\n  swap1\n  sstore\n  pop\n    /* \"contracts/ico.sol\":2031:2037  _IUSDT */\n  dup3\n    /* \"contracts/ico.sol\":2024:2037  USDT = _IUSDT */\n  0xffffffffffffffffffffffffffffffffffffffff\n  and\n  0x80\n  dup2\n  0xffffffffffffffffffffffffffffffffffffffff\n  and\n  dup2\n  mstore\n  pop\n  pop\n    /* \"contracts/ico.sol\":2055:2060  _IDAZ */\n  dup2\n    /* \"contracts/ico.sol\":2048:2060  DAZ =  _IDAZ */\n  0xffffffffffffffffffffffffffffffffffffffff\n  and\n  0xa0\n  dup2\n  0xffffffffffffffffffffffffffffffffffffffff\n  and\n  dup2\n  mstore\n  pop\n  pop\n    /* \"contracts/ico.sol\":2098:2106  10 ** 18 */\n  0x0de0b6b3a7640000\n    /* \"contracts/ico.sol\":2084:2095  _targetSale */\n  dup2\n    /* \"contracts/ico.sol\":2084:2106  _targetSale * 10 ** 18 */\n  tag_10\n  swap2\n  swap1\n  tag_9\n  jump\t// in\ntag_10:\n    /* \"contracts/ico.sol\":2071:2081  targetSale */\n  0x03\n    /* \"contracts/ico.sol\":2071:2106  targetSale = _targetSale * 10 ** 18 */\n  dup2\n  swap1\n  sstore\n  pop\n    /* \"contracts/ico.sol\":1857:2114  constructor(uint _tokenPrice, address _IUSDT, address _IDAZ, uint256 _targetSale){... */\n  pop\n  pop\n  pop\n  pop\n    /* \"contracts/ico.sol\":1245:3419  contract Amestarter is ReentrancyGuard {... */\n  jump(tag_11)\n    /* \"#utility.yul\":88:205   */\ntag_13:\n    /* \"#utility.yul\":197:198   */\n  0x00\n    /* \"#utility.yul\":194:195   */\n  dup1\n    /* \"#utility.yul\":187:199   */\n  revert\n    /* \"#utility.yul\":334:411   */\ntag_15:\n    /* \"#utility.yul\":371:378   */\n  0x00\n    /* \"#utility.yul\":400:405   */\n  dup2\n    /* \"#utility.yul\":389:405   */\n  swap1\n  pop\n    /* \"#utility.yul\":334:411   */\n  swap2\n  swap1\n  pop\n  jump\t// out\n    /* \"#utility.yul\":417:539   */\ntag_16:\n    /* \"#utility.yul\":490:514   */\n  tag_29\n    /* \"#utility.yul\":508:513   */\n  dup2\n    /* \"#utility.yul\":490:514   */\n  tag_15\n  jump\t// in\ntag_29:\n    /* \"#utility.yul\":483:488   */\n  dup2\n    /* \"#utility.yul\":480:515   */\n  eq\n    /* \"#utility.yul\":470:533   */\n  tag_30\n  jumpi\n    /* \"#utility.yul\":529:530   */\n  0x00\n    /* \"#utility.yul\":526:527   */\n  dup1\n    /* \"#utility.yul\":519:531   */\n  revert\n    /* \"#utility.yul\":470:533   */\ntag_30:\n    /* \"#utility.yul\":417:539   */\n  pop\n  jump\t// out\n    /* \"#utility.yul\":545:688   */\ntag_17:\n    /* \"#utility.yul\":602:607   */\n  0x00\n    /* \"#utility.yul\":633:639   */\n  dup2\n    /* \"#utility.yul\":627:640   */\n  mload\n    /* \"#utility.yul\":618:640   */\n  swap1\n  pop\n    /* \"#utility.yul\":649:682   */\n  tag_32\n    /* \"#utility.yul\":676:681   */\n  dup2\n    /* \"#utility.yul\":649:682   */\n  tag_16\n  jump\t// in\ntag_32:\n    /* \"#utility.yul\":545:688   */\n  swap3\n  swap2\n  pop\n  pop\n  jump\t// out\n    /* \"#utility.yul\":694:820   */\ntag_18:\n    /* \"#utility.yul\":731:738   */\n  0x00\n    /* \"#utility.yul\":771:813   */\n  0xffffffffffffffffffffffffffffffffffffffff\n    /* \"#utility.yul\":764:769   */\n  dup3\n    /* \"#utility.yul\":760:814   */\n  and\n    /* \"#utility.yul\":749:814   */\n  swap1\n  pop\n    /* \"#utility.yul\":694:820   */\n  swap2\n  swap1\n  pop\n  jump\t// out\n    /* \"#utility.yul\":826:922   */\ntag_19:\n    /* \"#utility.yul\":863:870   */\n  0x00\n    /* \"#utility.yul\":892:916   */\n  tag_35\n    /* \"#utility.yul\":910:915   */\n  dup3\n    /* \"#utility.yul\":892:916   */\n  tag_18\n  jump\t// in\ntag_35:\n    /* \"#utility.yul\":881:916   */\n  swap1\n  pop\n    /* \"#utility.yul\":826:922   */\n  swap2\n  swap1\n  pop\n  jump\t// out\n    /* \"#utility.yul\":928:1050   */\ntag_20:\n    /* \"#utility.yul\":1001:1025   */\n  tag_37\n    /* \"#utility.yul\":1019:1024   */\n  dup2\n    /* \"#utility.yul\":1001:1025   */\n  tag_19\n  jump\t// in\ntag_37:\n    /* \"#utility.yul\":994:999   */\n  dup2\n    /* \"#utility.yul\":991:1026   */\n  eq\n    /* \"#utility.yul\":981:1044   */\n  tag_38\n  jumpi\n    /* \"#utility.yul\":1040:1041   */\n  0x00\n    /* \"#utility.yul\":1037:1038   */\n  dup1\n    /* \"#utility.yul\":1030:1042   */\n  revert\n    /* \"#utility.yul\":981:1044   */\ntag_38:\n    /* \"#utility.yul\":928:1050   */\n  pop\n  jump\t// out\n    /* \"#utility.yul\":1056:1199   */\ntag_21:\n    /* \"#utility.yul\":1113:1118   */\n  0x00\n    /* \"#utility.yul\":1144:1150   */\n  dup2\n    /* \"#utility.yul\":1138:1151   */\n  mload\n    /* \"#utility.yul\":1129:1151   */\n  swap1\n  pop\n    /* \"#utility.yul\":1160:1193   */\n  tag_40\n    /* \"#utility.yul\":1187:1192   */\n  dup2\n    /* \"#utility.yul\":1160:1193   */\n  tag_20\n  jump\t// in\ntag_40:\n    /* \"#utility.yul\":1056:1199   */\n  swap3\n  swap2\n  pop\n  pop\n  jump\t// out\n    /* \"#utility.yul\":1205:2025   */\ntag_3:\n    /* \"#utility.yul\":1302:1308   */\n  0x00\n    /* \"#utility.yul\":1310:1316   */\n  dup1\n    /* \"#utility.yul\":1318:1324   */\n  0x00\n    /* \"#utility.yul\":1326:1332   */\n  dup1\n    /* \"#utility.yul\":1375:1378   */\n  0x80\n    /* \"#utility.yul\":1363:1372   */\n  dup6\n    /* \"#utility.yul\":1354:1361   */\n  dup8\n    /* \"#utility.yul\":1350:1373   */\n  sub\n    /* \"#utility.yul\":1346:1379   */\n  slt\n    /* \"#utility.yul\":1343:1463   */\n  iszero\n  tag_42\n  jumpi\n    /* \"#utility.yul\":1382:1461   */\n  tag_43\n  tag_13\n  jump\t// in\ntag_43:\n    /* \"#utility.yul\":1343:1463   */\ntag_42:\n    /* \"#utility.yul\":1502:1503   */\n  0x00\n    /* \"#utility.yul\":1527:1591   */\n  tag_44\n    /* \"#utility.yul\":1583:1590   */\n  dup8\n    /* \"#utility.yul\":1574:1580   */\n  dup3\n    /* \"#utility.yul\":1563:1572   */\n  dup9\n    /* \"#utility.yul\":1559:1581   */\n  add\n    /* \"#utility.yul\":1527:1591   */\n  tag_17\n  jump\t// in\ntag_44:\n    /* \"#utility.yul\":1517:1591   */\n  swap5\n  pop\n    /* \"#utility.yul\":1473:1601   */\n  pop\n    /* \"#utility.yul\":1640:1642   */\n  0x20\n    /* \"#utility.yul\":1666:1730   */\n  tag_45\n    /* \"#utility.yul\":1722:1729   */\n  dup8\n    /* \"#utility.yul\":1713:1719   */\n  dup3\n    /* \"#utility.yul\":1702:1711   */\n  dup9\n    /* \"#utility.yul\":1698:1720   */\n  add\n    /* \"#utility.yul\":1666:1730   */\n  tag_21\n  jump\t// in\ntag_45:\n    /* \"#utility.yul\":1656:1730   */\n  swap4\n  pop\n    /* \"#utility.yul\":1611:1740   */\n  pop\n    /* \"#utility.yul\":1779:1781   */\n  0x40\n    /* \"#utility.yul\":1805:1869   */\n  tag_46\n    /* \"#utility.yul\":1861:1868   */\n  dup8\n    /* \"#utility.yul\":1852:1858   */\n  dup3\n    /* \"#utility.yul\":1841:1850   */\n  dup9\n    /* \"#utility.yul\":1837:1859   */\n  add\n    /* \"#utility.yul\":1805:1869   */\n  tag_21\n  jump\t// in\ntag_46:\n    /* \"#utility.yul\":1795:1869   */\n  swap3\n  pop\n    /* \"#utility.yul\":1750:1879   */\n  pop\n    /* \"#utility.yul\":1918:1920   */\n  0x60\n    /* \"#utility.yul\":1944:2008   */\n  tag_47\n    /* \"#utility.yul\":2000:2007   */\n  dup8\n    /* \"#utility.yul\":1991:1997   */\n  dup3\n    /* \"#utility.yul\":1980:1989   */\n  dup9\n    /* \"#utility.yul\":1976:1998   */\n  add\n    /* \"#utility.yul\":1944:2008   */\n  tag_17\n  jump\t// in\ntag_47:\n    /* \"#utility.yul\":1934:2008   */\n  swap2\n  pop\n    /* \"#utility.yul\":1889:2018   */\n  pop\n    /* \"#utility.yul\":1205:2025   */\n  swap3\n  swap6\n  swap2\n  swap5\n  pop\n  swap3\n  pop\n  jump\t// out\n    /* \"#utility.yul\":2031:2211   */\ntag_22:\n    /* \"#utility.yul\":2079:2156   */\n  0x4e487b7100000000000000000000000000000000000000000000000000000000\n    /* \"#utility.yul\":2076:2077   */\n  0x00\n    /* \"#utility.yul\":2069:2157   */\n  mstore\n    /* \"#utility.yul\":2176:2180   */\n  0x11\n    /* \"#utility.yul\":2173:2174   */\n  0x04\n    /* \"#utility.yul\":2166:2181   */\n  mstore\n    /* \"#utility.yul\":2200:2204   */\n  0x24\n    /* \"#utility.yul\":2197:2198   */\n  0x00\n    /* \"#utility.yul\":2190:2205   */\n  revert\n    /* \"#utility.yul\":2217:2565   */\ntag_9:\n    /* \"#utility.yul\":2257:2264   */\n  0x00\n    /* \"#utility.yul\":2280:2300   */\n  tag_50\n    /* \"#utility.yul\":2298:2299   */\n  dup3\n    /* \"#utility.yul\":2280:2300   */\n  tag_15\n  jump\t// in\ntag_50:\n    /* \"#utility.yul\":2275:2300   */\n  swap2\n  pop\n    /* \"#utility.yul\":2314:2334   */\n  tag_51\n    /* \"#utility.yul\":2332:2333   */\n  dup4\n    /* \"#utility.yul\":2314:2334   */\n  tag_15\n  jump\t// in\ntag_51:\n    /* \"#utility.yul\":2309:2334   */\n  swap3\n  pop\n    /* \"#utility.yul\":2502:2503   */\n  dup2\n    /* \"#utility.yul\":2434:2500   */\n  0xffffffffffffffffffffffffffffffffffffffffffffffffffffffffffffffff\n    /* \"#utility.yul\":2430:2504   */\n  div\n    /* \"#utility.yul\":2427:2428   */\n  dup4\n    /* \"#utility.yul\":2424:2505   */\n  gt\n    /* \"#utility.yul\":2419:2420   */\n  dup3\n    /* \"#utility.yul\":2412:2421   */\n  iszero\n    /* \"#utility.yul\":2405:2422   */\n  iszero\n    /* \"#utility.yul\":2401:2506   */\n  and\n    /* \"#utility.yul\":2398:2529   */\n  iszero\n  tag_52\n  jumpi\n    /* \"#utility.yul\":2509:2527   */\n  tag_53\n  tag_22\n  jump\t// in\ntag_53:\n    /* \"#utility.yul\":2398:2529   */\ntag_52:\n    /* \"#utility.yul\":2557:2558   */\n  dup3\n    /* \"#utility.yul\":2554:2555   */\n  dup3\n    /* \"#utility.yul\":2550:2559   */\n  mul\n    /* \"#utility.yul\":2539:2559   */\n  swap1\n  pop\n    /* \"#utility.yul\":2217:2565   */\n  swap3\n  swap2\n  pop\n  pop\n  jump\t// out\n    /* \"contracts/ico.sol\":1245:3419  contract Amestarter is ReentrancyGuard {... */\ntag_11:\n  mload(0x80)\n  mload(0xa0)\n  codecopy(0x00, dataOffset(sub_0), dataSize(sub_0))\n  0x00\n  assignImmutable(\"0xb2defa75886dc68fff8e07e15f8c710632f536eafc1958aaf9db286a05b10ca2\")\n  0x00\n  assignImmutable(\"0xc8a6f112e7620748ca3ae6a49a58464897133c24b6f43e9fa71155cd2626380a\")\n  return(0x00, dataSize(sub_0))\nstop\n\nsub_0: assembly {\n        /* \"contracts/ico.sol\":1245:3419  contract Amestarter is ReentrancyGuard {... */\n      mstore(0x40, 0x80)\n      callvalue\n      dup1\n      iszero\n      tag_1\n      jumpi\n      0x00\n      dup1\n      revert\n    tag_1:\n      pop\n      jumpi(tag_2, lt(calldatasize, 0x04))\n      shr(0xe0, calldataload(0x00))\n      dup1\n      0xc3a17441\n      gt\n      tag_11\n      jumpi\n      dup1\n      0xc3a17441\n      eq\n      tag_7\n      jumpi\n      dup1\n      0xc54e44eb\n      eq\n      tag_8\n      jumpi\n      dup1\n      0xd7997f7e\n      eq\n      tag_9\n      jumpi\n      dup1\n      0xdc55920f\n      eq\n      tag_10\n      jumpi\n      jump(tag_2)\n    tag_11:\n      dup1\n      0x6385f2fb\n      eq\n      tag_3\n      jumpi\n      dup1\n      0x76d812ea\n      eq\n      tag_4\n      jumpi\n      dup1\n      0x7ff9b596\n      eq\n      tag_5\n      jumpi\n      dup1\n      0xc2db2c42\n      eq\n      tag_6\n      jumpi\n    tag_2:\n      0x00\n      dup1\n      revert\n        /* \"contracts/ico.sol\":1368:1396  address public immutable DAZ */\n    tag_3:\n      tag_12\n      tag_13\n      jump\t// in\n    tag_12:\n      mload(0x40)\n      tag_14\n      swap2\n      swap1\n      tag_15\n      jump\t// in\n    tag_14:\n      mload(0x40)\n      dup1\n      swap2\n      sub\n      swap1\n      return\n        /* \"contracts/ico.sol\":3258:3408  function StopIDO() public {... */\n    tag_4:\n      tag_16\n      tag_17\n      jump\t// in\n    tag_16:\n      stop\n        /* \"contracts/ico.sol\":1403:1425  uint public tokenPrice */\n    tag_5:\n      tag_18\n      tag_19\n      jump\t// in\n    tag_18:\n      mload(0x40)\n      tag_20\n      swap2\n      swap1\n      tag_21\n      jump\t// in\n    tag_20:\n      mload(0x40)\n      dup1\n      swap2\n      sub\n      swap1\n      return\n        /* \"contracts/ico.sol\":2122:2624  function purchaseToken(uint _amount) external nonReentrant{... */\n    tag_6:\n      tag_22\n      0x04\n      dup1\n      calldatasize\n      sub\n      dup2\n      add\n      swap1\n      tag_23\n      swap2\n      swap1\n      tag_24\n      jump\t// in\n    tag_23:\n      tag_25\n      jump\t// in\n    tag_22:\n      stop\n        /* \"contracts/ico.sol\":2837:3096  function editIco(uint _tokenPrice, uint256 _targetSale) public{... */\n    tag_7:\n      tag_26\n      0x04\n      dup1\n      calldatasize\n      sub\n      dup2\n      add\n      swap1\n      tag_27\n      swap2\n      swap1\n      tag_28\n      jump\t// in\n    tag_27:\n      tag_29\n      jump\t// in\n    tag_26:\n      stop\n        /* \"contracts/ico.sol\":1332:1361  address public immutable USDT */\n    tag_8:\n      tag_30\n      tag_31\n      jump\t// in\n    tag_30:\n      mload(0x40)\n      tag_32\n      swap2\n      swap1\n      tag_15\n      jump\t// in\n    tag_32:\n      mload(0x40)\n      dup1\n      swap2\n      sub\n      swap1\n      return\n        /* \"contracts/ico.sol\":2632:2829  function claimPurchasedToken() external nonReentrant {... */\n    tag_9:\n      tag_33\n      tag_34\n      jump\t// in\n    tag_33:\n      stop\n        /* \"contracts/ico.sol\":3104:3250  function BeginIDO() public {... */\n    tag_10:\n      tag_35\n      tag_36\n      jump\t// in\n    tag_35:\n      stop\n        /* \"contracts/ico.sol\":1368:1396  address public immutable DAZ */\n    tag_13:\n      immutable(\"0xb2defa75886dc68fff8e07e15f8c710632f536eafc1958aaf9db286a05b10ca2\")\n      dup2\n      jump\t// out\n        /* \"contracts/ico.sol\":3258:3408  function StopIDO() public {... */\n    tag_17:\n        /* \"contracts/ico.sol\":3317:3322  owner */\n      0x02\n      0x00\n      swap1\n      sload\n      swap1\n      0x0100\n      exp\n      swap1\n      div\n      0xffffffffffffffffffffffffffffffffffffffff\n      and\n        /* \"contracts/ico.sol\":3303:3322  msg.sender == owner */\n      0xffffffffffffffffffffffffffffffffffffffff\n      and\n        /* \"contracts/ico.sol\":3303:3313  msg.sender */\n      caller\n        /* \"contracts/ico.sol\":3303:3322  msg.sender == owner */\n      0xffffffffffffffffffffffffffffffffffffffff\n      and\n      eq\n        /* \"contracts/ico.sol\":3295:3323  require(msg.sender == owner) */\n      tag_38\n      jumpi\n      0x00\n      dup1\n      revert\n    tag_38:\n        /* \"contracts/ico.sol\":3349:3354  false */\n      0x00\n        /* \"contracts/ico.sol\":3336:3346  IDOStarted */\n      0x02\n      0x14\n        /* \"contracts/ico.sol\":3336:3354  IDOStarted = false */\n      0x0100\n      exp\n      dup2\n      sload\n      dup2\n      0xff\n      mul\n      not\n      and\n      swap1\n      dup4\n      iszero\n      iszero\n      mul\n      or\n      swap1\n      sstore\n      pop\n        /* \"contracts/ico.sol\":3370:3400  ICOStartAlert(\"ICO is paused\") */\n      0x71002079ab3de7feb03ee30c84baf1d2350d4ffe16709d3dacb5e1037a0fe1cc\n      mload(0x40)\n      tag_39\n      swap1\n      tag_40\n      jump\t// in\n    tag_39:\n      mload(0x40)\n      dup1\n      swap2\n      sub\n      swap1\n      log1\n        /* \"contracts/ico.sol\":3258:3408  function StopIDO() public {... */\n      jump\t// out\n        /* \"contracts/ico.sol\":1403:1425  uint public tokenPrice */\n    tag_19:\n      sload(0x01)\n      dup2\n      jump\t// out\n        /* \"contracts/ico.sol\":2122:2624  function purchaseToken(uint _amount) external nonReentrant{... */\n    tag_25:\n        /* \"@openzeppelin/contracts/security/ReentrancyGuard.sol\":1744:1745  2 */\n      0x02\n        /* \"@openzeppelin/contracts/security/ReentrancyGuard.sol\":2325:2332  _status */\n      sload(0x00)\n        /* \"@openzeppelin/contracts/security/ReentrancyGuard.sol\":2325:2344  _status != _ENTERED */\n      sub\n        /* \"@openzeppelin/contracts/security/ReentrancyGuard.sol\":2317:2380  require(_status != _ENTERED, \"ReentrancyGuard: reentrant call\") */\n      tag_42\n      jumpi\n      mload(0x40)\n      0x08c379a000000000000000000000000000000000000000000000000000000000\n      dup2\n      mstore\n      0x04\n      add\n      tag_43\n      swap1\n      tag_44\n      jump\t// in\n    tag_43:\n      mload(0x40)\n      dup1\n      swap2\n      sub\n      swap1\n      revert\n    tag_42:\n        /* \"@openzeppelin/contracts/security/ReentrancyGuard.sol\":1744:1745  2 */\n      0x02\n        /* \"@openzeppelin/contracts/security/ReentrancyGuard.sol\":2455:2462  _status */\n      0x00\n        /* \"@openzeppelin/contracts/security/ReentrancyGuard.sol\":2455:2473  _status = _ENTERED */\n      dup2\n      swap1\n      sstore\n      pop\n        /* \"contracts/ico.sol\":2213:2217  true */\n      0x01\n        /* \"contracts/ico.sol\":2199:2217  IDOStarted == true */\n      iszero\n      iszero\n        /* \"contracts/ico.sol\":2199:2209  IDOStarted */\n      0x02\n      0x14\n      swap1\n      sload\n      swap1\n      0x0100\n      exp\n      swap1\n      div\n      0xff\n      and\n        /* \"contracts/ico.sol\":2199:2217  IDOStarted == true */\n      iszero\n      iszero\n      eq\n        /* \"contracts/ico.sol\":2191:2241  require(IDOStarted == true, \"IDO has not started\") */\n      tag_46\n      jumpi\n      mload(0x40)\n      0x08c379a000000000000000000000000000000000000000000000000000000000\n      dup2\n      mstore\n      0x04\n      add\n      tag_47\n      swap1\n      tag_48\n      jump\t// in\n    tag_47:\n      mload(0x40)\n      dup1\n      swap2\n      sub\n      swap1\n      revert\n    tag_46:\n        /* \"contracts/ico.sol\":2252:2265  uint256 value */\n      0x00\n        /* \"contracts/ico.sol\":2282:2289  _amount */\n      dup2\n        /* \"contracts/ico.sol\":2268:2279  totalRaised */\n      sload(0x04)\n        /* \"contracts/ico.sol\":2268:2289  totalRaised + _amount */\n      tag_49\n      swap2\n      swap1\n      tag_50\n      jump\t// in\n    tag_49:\n        /* \"contracts/ico.sol\":2252:2289  uint256 value = totalRaised + _amount */\n      swap1\n      pop\n        /* \"contracts/ico.sol\":2316:2326  targetSale */\n      sload(0x03)\n        /* \"contracts/ico.sol\":2308:2313  value */\n      dup2\n        /* \"contracts/ico.sol\":2308:2326  value < targetSale */\n      lt\n        /* \"contracts/ico.sol\":2300:2355  require(value < targetSale, \"All tokens has been sold\") */\n      tag_51\n      jumpi\n      mload(0x40)\n      0x08c379a000000000000000000000000000000000000000000000000000000000\n      dup2\n      mstore\n      0x04\n      add\n      tag_52\n      swap1\n      tag_53\n      jump\t// in\n    tag_52:\n      mload(0x40)\n      dup1\n      swap2\n      sub\n      swap1\n      revert\n    tag_51:\n        /* \"contracts/ico.sol\":2373:2377  USDT */\n      immutable(\"0xc8a6f112e7620748ca3ae6a49a58464897133c24b6f43e9fa71155cd2626380a\")\n        /* \"contracts/ico.sol\":2366:2386  IKRC20(USDT).approve */\n      0xffffffffffffffffffffffffffffffffffffffff\n      and\n      0x095ea7b3\n        /* \"contracts/ico.sol\":2395:2399  this */\n      address\n        /* \"contracts/ico.sol\":2402:2409  _amount */\n      dup5\n        /* \"contracts/ico.sol\":2366:2410  IKRC20(USDT).approve(address(this), _amount) */\n      mload(0x40)\n      dup4\n      0xffffffff\n      and\n      0xe0\n      shl\n      dup2\n      mstore\n      0x04\n      add\n      tag_54\n      swap3\n      swap2\n      swap1\n      tag_55\n      jump\t// in\n    tag_54:\n      0x20\n      mload(0x40)\n      dup1\n      dup4\n      sub\n      dup2\n      0x00\n      dup8\n      gas\n      call\n      iszero\n      dup1\n      iszero\n      tag_57\n      jumpi\n      returndatasize\n      0x00\n      dup1\n      returndatacopy\n      revert(0x00, returndatasize)\n    tag_57:\n      pop\n      pop\n      pop\n      pop\n      mload(0x40)\n      returndatasize\n      not(0x1f)\n      0x1f\n      dup3\n      add\n      and\n      dup3\n      add\n      dup1\n      0x40\n      mstore\n      pop\n      dup2\n      add\n      swap1\n      tag_58\n      swap2\n      swap1\n      tag_59\n      jump\t// in\n    tag_58:\n      pop\n        /* \"contracts/ico.sol\":2421:2486  IKRC20(USDT).safeTransferFrom(msg.sender, address(this), _amount) */\n      tag_60\n        /* \"contracts/ico.sol\":2451:2461  msg.sender */\n      caller\n        /* \"contracts/ico.sol\":2471:2475  this */\n      address\n        /* \"contracts/ico.sol\":2478:2485  _amount */\n      dup5\n        /* \"contracts/ico.sol\":2428:2432  USDT */\n      immutable(\"0xc8a6f112e7620748ca3ae6a49a58464897133c24b6f43e9fa71155cd2626380a\")\n        /* \"contracts/ico.sol\":2421:2450  IKRC20(USDT).safeTransferFrom */\n      0xffffffffffffffffffffffffffffffffffffffff\n      and\n      tag_61\n      swap1\n        /* \"contracts/ico.sol\":2421:2486  IKRC20(USDT).safeTransferFrom(msg.sender, address(this), _amount) */\n      swap4\n      swap3\n      swap2\n      swap1\n      0xffffffff\n      and\n      jump\t// in\n    tag_60:\n        /* \"contracts/ico.sol\":2522:2529  _amount */\n      dup2\n        /* \"contracts/ico.sol\":2497:2505  purchase */\n      0x05\n        /* \"contracts/ico.sol\":2497:2517  purchase[msg.sender] */\n      0x00\n        /* \"contracts/ico.sol\":2506:2516  msg.sender */\n      caller\n        /* \"contracts/ico.sol\":2497:2517  purchase[msg.sender] */\n      0xffffffffffffffffffffffffffffffffffffffff\n      and\n      0xffffffffffffffffffffffffffffffffffffffff\n      and\n      dup2\n      mstore\n      0x20\n      add\n      swap1\n      dup2\n      mstore\n      0x20\n      add\n      0x00\n      keccak256\n      0x00\n        /* \"contracts/ico.sol\":2497:2529  purchase[msg.sender]  += _amount */\n      dup3\n      dup3\n      sload\n      tag_62\n      swap2\n      swap1\n      tag_50\n      jump\t// in\n    tag_62:\n      swap3\n      pop\n      pop\n      dup2\n      swap1\n      sstore\n      pop\n        /* \"contracts/ico.sol\":2555:2562  _amount */\n      dup2\n        /* \"contracts/ico.sol\":2540:2551  totalRaised */\n      0x04\n      0x00\n        /* \"contracts/ico.sol\":2540:2562  totalRaised += _amount */\n      dup3\n      dup3\n      sload\n      tag_63\n      swap2\n      swap1\n      tag_50\n      jump\t// in\n    tag_63:\n      swap3\n      pop\n      pop\n      dup2\n      swap1\n      sstore\n      pop\n        /* \"contracts/ico.sol\":2596:2606  msg.sender */\n      caller\n        /* \"contracts/ico.sol\":2580:2616  latestPurchased(msg.sender, _amount) */\n      0xffffffffffffffffffffffffffffffffffffffff\n      and\n      0xda4cadf0d4383cb43c8249e3cc678f6690bdbaa01421c99fd9b14edac62cde80\n        /* \"contracts/ico.sol\":2608:2615  _amount */\n      dup4\n        /* \"contracts/ico.sol\":2580:2616  latestPurchased(msg.sender, _amount) */\n      mload(0x40)\n      tag_64\n      swap2\n      swap1\n      tag_21\n      jump\t// in\n    tag_64:\n      mload(0x40)\n      dup1\n      swap2\n      sub\n      swap1\n      log2\n        /* \"contracts/ico.sol\":2180:2624  {... */\n      pop\n        /* \"@openzeppelin/contracts/security/ReentrancyGuard.sol\":1701:1702  1 */\n      0x01\n        /* \"@openzeppelin/contracts/security/ReentrancyGuard.sol\":2628:2635  _status */\n      0x00\n        /* \"@openzeppelin/contracts/security/ReentrancyGuard.sol\":2628:2650  _status = _NOT_ENTERED */\n      dup2\n      swap1\n      sstore\n      pop\n        /* \"contracts/ico.sol\":2122:2624  function purchaseToken(uint _amount) external nonReentrant{... */\n      pop\n      jump\t// out\n        /* \"contracts/ico.sol\":2837:3096  function editIco(uint _tokenPrice, uint256 _targetSale) public{... */\n    tag_29:\n        /* \"contracts/ico.sol\":2932:2937  owner */\n      0x02\n      0x00\n      swap1\n      sload\n      swap1\n      0x0100\n      exp\n      swap1\n      div\n      0xffffffffffffffffffffffffffffffffffffffff\n      and\n        /* \"contracts/ico.sol\":2918:2937  msg.sender == owner */\n      0xffffffffffffffffffffffffffffffffffffffff\n      and\n        /* \"contracts/ico.sol\":2918:2928  msg.sender */\n      caller\n        /* \"contracts/ico.sol\":2918:2937  msg.sender == owner */\n      0xffffffffffffffffffffffffffffffffffffffff\n      and\n      eq\n        /* \"contracts/ico.sol\":2910:2938  require(msg.sender == owner) */\n      tag_66\n      jumpi\n      0x00\n      dup1\n      revert\n    tag_66:\n        /* \"contracts/ico.sol\":2978:2986  10 ** 18 */\n      0x0de0b6b3a7640000\n        /* \"contracts/ico.sol\":2964:2975  _tokenPrice */\n      dup3\n        /* \"contracts/ico.sol\":2964:2986  _tokenPrice * 10 ** 18 */\n      tag_67\n      swap2\n      swap1\n      tag_68\n      jump\t// in\n    tag_67:\n        /* \"contracts/ico.sol\":2951:2961  tokenPrice */\n      0x01\n        /* \"contracts/ico.sol\":2951:2986  tokenPrice = _tokenPrice * 10 ** 18 */\n      dup2\n      swap1\n      sstore\n      pop\n        /* \"contracts/ico.sol\":3024:3032  10 ** 18 */\n      0x0de0b6b3a7640000\n        /* \"contracts/ico.sol\":3010:3021  _targetSale */\n      dup2\n        /* \"contracts/ico.sol\":3010:3032  _targetSale * 10 ** 18 */\n      tag_69\n      swap2\n      swap1\n      tag_68\n      jump\t// in\n    tag_69:\n        /* \"contracts/ico.sol\":2997:3007  targetSale */\n      0x03\n        /* \"contracts/ico.sol\":2997:3032  targetSale = _targetSale * 10 ** 18 */\n      dup2\n      swap1\n      sstore\n      pop\n        /* \"contracts/ico.sol\":3050:3086  icoUpdate( _tokenPrice, _targetSale) */\n      0x314bf1ccc32c608a6175053b0da1933b3a745b3f799011003a4c39aab0c518a3\n        /* \"contracts/ico.sol\":3061:3072  _tokenPrice */\n      dup3\n        /* \"contracts/ico.sol\":3074:3085  _targetSale */\n      dup3\n        /* \"contracts/ico.sol\":3050:3086  icoUpdate( _tokenPrice, _targetSale) */\n      mload(0x40)\n      tag_70\n      swap3\n      swap2\n      swap1\n      tag_71\n      jump\t// in\n    tag_70:\n      mload(0x40)\n      dup1\n      swap2\n      sub\n      swap1\n      log1\n        /* \"contracts/ico.sol\":2837:3096  function editIco(uint _tokenPrice, uint256 _targetSale) public{... */\n      pop\n      pop\n      jump\t// out\n        /* \"contracts/ico.sol\":1332:1361  address public immutable USDT */\n    tag_31:\n      immutable(\"0xc8a6f112e7620748ca3ae6a49a58464897133c24b6f43e9fa71155cd2626380a\")\n      dup2\n      jump\t// out\n        /* \"contracts/ico.sol\":2632:2829  function claimPurchasedToken() external nonReentrant {... */\n    tag_34:\n        /* \"@openzeppelin/contracts/security/ReentrancyGuard.sol\":1744:1745  2 */\n      0x02\n        /* \"@openzeppelin/contracts/security/ReentrancyGuard.sol\":2325:2332  _status */\n      sload(0x00)\n        /* \"@openzeppelin/contracts/security/ReentrancyGuard.sol\":2325:2344  _status != _ENTERED */\n      sub\n        /* \"@openzeppelin/contracts/security/ReentrancyGuard.sol\":2317:2380  require(_status != _ENTERED, \"ReentrancyGuard: reentrant call\") */\n      tag_73\n      jumpi\n      mload(0x40)\n      0x08c379a000000000000000000000000000000000000000000000000000000000\n      dup2\n      mstore\n      0x04\n      add\n      tag_74\n      swap1\n      tag_44\n      jump\t// in\n    tag_74:\n      mload(0x40)\n      dup1\n      swap2\n      sub\n      swap1\n      revert\n    tag_73:\n        /* \"@openzeppelin/contracts/security/ReentrancyGuard.sol\":1744:1745  2 */\n      0x02\n        /* \"@openzeppelin/contracts/security/ReentrancyGuard.sol\":2455:2462  _status */\n      0x00\n        /* \"@openzeppelin/contracts/security/ReentrancyGuard.sol\":2455:2473  _status = _ENTERED */\n      dup2\n      swap1\n      sstore\n      pop\n        /* \"contracts/ico.sol\":2718:2723  false */\n      0x00\n        /* \"contracts/ico.sol\":2704:2723  IDOStarted == false */\n      iszero\n      iszero\n        /* \"contracts/ico.sol\":2704:2714  IDOStarted */\n      0x02\n      0x14\n      swap1\n      sload\n      swap1\n      0x0100\n      exp\n      swap1\n      div\n      0xff\n      and\n        /* \"contracts/ico.sol\":2704:2723  IDOStarted == false */\n      iszero\n      iszero\n      eq\n        /* \"contracts/ico.sol\":2696:2765  require(IDOStarted == false, \"IDO Has  not ended, claim unavailable\") */\n      tag_76\n      jumpi\n      mload(0x40)\n      0x08c379a000000000000000000000000000000000000000000000000000000000\n      dup2\n      mstore\n      0x04\n      add\n      tag_77\n      swap1\n      tag_78\n      jump\t// in\n    tag_77:\n      mload(0x40)\n      dup1\n      swap2\n      sub\n      swap1\n      revert\n    tag_76:\n        /* \"contracts/ico.sol\":2807:2808  0 */\n      0x00\n        /* \"contracts/ico.sol\":2784:2792  purchase */\n      0x05\n        /* \"contracts/ico.sol\":2784:2804  purchase[msg.sender] */\n      0x00\n        /* \"contracts/ico.sol\":2793:2803  msg.sender */\n      caller\n        /* \"contracts/ico.sol\":2784:2804  purchase[msg.sender] */\n      0xffffffffffffffffffffffffffffffffffffffff\n      and\n      0xffffffffffffffffffffffffffffffffffffffff\n      and\n      dup2\n      mstore\n      0x20\n      add\n      swap1\n      dup2\n      mstore\n      0x20\n      add\n      0x00\n      keccak256\n      sload\n        /* \"contracts/ico.sol\":2784:2808  purchase[msg.sender] > 0 */\n      gt\n        /* \"contracts/ico.sol\":2776:2821  require(purchase[msg.sender] > 0, \"you did \") */\n      tag_79\n      jumpi\n      mload(0x40)\n      0x08c379a000000000000000000000000000000000000000000000000000000000\n      dup2\n      mstore\n      0x04\n      add\n      tag_80\n      swap1\n      tag_81\n      jump\t// in\n    tag_80:\n      mload(0x40)\n      dup1\n      swap2\n      sub\n      swap1\n      revert\n    tag_79:\n        /* \"@openzeppelin/contracts/security/ReentrancyGuard.sol\":1701:1702  1 */\n      0x01\n        /* \"@openzeppelin/contracts/security/ReentrancyGuard.sol\":2628:2635  _status */\n      0x00\n        /* \"@openzeppelin/contracts/security/ReentrancyGuard.sol\":2628:2650  _status = _NOT_ENTERED */\n      dup2\n      swap1\n      sstore\n      pop\n        /* \"contracts/ico.sol\":2632:2829  function claimPurchasedToken() external nonReentrant {... */\n      jump\t// out\n        /* \"contracts/ico.sol\":3104:3250  function BeginIDO() public {... */\n    tag_36:\n        /* \"contracts/ico.sol\":3164:3169  owner */\n      0x02\n      0x00\n      swap1\n      sload\n      swap1\n      0x0100\n      exp\n      swap1\n      div\n      0xffffffffffffffffffffffffffffffffffffffff\n      and\n        /* \"contracts/ico.sol\":3150:3169  msg.sender == owner */\n      0xffffffffffffffffffffffffffffffffffffffff\n      and\n        /* \"contracts/ico.sol\":3150:3160  msg.sender */\n      caller\n        /* \"contracts/ico.sol\":3150:3169  msg.sender == owner */\n      0xffffffffffffffffffffffffffffffffffffffff\n      and\n      eq\n        /* \"contracts/ico.sol\":3142:3170  require(msg.sender == owner) */\n      tag_83\n      jumpi\n      0x00\n      dup1\n      revert\n    tag_83:\n        /* \"contracts/ico.sol\":3196:3200  true */\n      0x01\n        /* \"contracts/ico.sol\":3183:3193  IDOStarted */\n      0x02\n      0x14\n        /* \"contracts/ico.sol\":3183:3200  IDOStarted = true */\n      0x0100\n      exp\n      dup2\n      sload\n      dup2\n      0xff\n      mul\n      not\n      and\n      swap1\n      dup4\n      iszero\n      iszero\n      mul\n      or\n      swap1\n      sstore\n      pop\n        /* \"contracts/ico.sol\":3216:3242  ICOStartAlert(\"ICO is on\") */\n      0x71002079ab3de7feb03ee30c84baf1d2350d4ffe16709d3dacb5e1037a0fe1cc\n      mload(0x40)\n      tag_84\n      swap1\n      tag_85\n      jump\t// in\n    tag_84:\n      mload(0x40)\n      dup1\n      swap2\n      sub\n      swap1\n      log1\n        /* \"contracts/ico.sol\":3104:3250  function BeginIDO() public {... */\n      jump\t// out\n        /* \"@openzeppelin/contracts/token/ERC20/utils/SafeERC20.sol\":974:1215  function safeTransferFrom(... */\n    tag_61:\n        /* \"@openzeppelin/contracts/token/ERC20/utils/SafeERC20.sol\":1112:1208  _callOptionalReturn(token, abi.encodeWithSelector(token.transferFrom.selector, from, to, value)) */\n      tag_87\n        /* \"@openzeppelin/contracts/token/ERC20/utils/SafeERC20.sol\":1132:1137  token */\n      dup5\n        /* \"@openzeppelin/contracts/token/ERC20/utils/SafeERC20.sol\":1162:1189  token.transferFrom.selector */\n      shl(0xe0, 0x23b872dd)\n        /* \"@openzeppelin/contracts/token/ERC20/utils/SafeERC20.sol\":1191:1195  from */\n      dup6\n        /* \"@openzeppelin/contracts/token/ERC20/utils/SafeERC20.sol\":1197:1199  to */\n      dup6\n        /* \"@openzeppelin/contracts/token/ERC20/utils/SafeERC20.sol\":1201:1206  value */\n      dup6\n        /* \"@openzeppelin/contracts/token/ERC20/utils/SafeERC20.sol\":1139:1207  abi.encodeWithSelector(token.transferFrom.selector, from, to, value) */\n      add(0x24, mload(0x40))\n      tag_88\n      swap4\n      swap3\n      swap2\n      swap1\n      tag_89\n      jump\t// in\n    tag_88:\n      mload(0x40)\n      0x20\n      dup2\n      dup4\n      sub\n      sub\n      dup2\n      mstore\n      swap1\n      0x40\n      mstore\n      swap1\n      not(0xffffffffffffffffffffffffffffffffffffffffffffffffffffffff)\n      and\n      0x20\n      dup3\n      add\n      dup1\n      mload\n      0xffffffffffffffffffffffffffffffffffffffffffffffffffffffff\n      dup4\n      dup2\n      dup4\n      and\n      or\n      dup4\n      mstore\n      pop\n      pop\n      pop\n      pop\n        /* \"@openzeppelin/contracts/token/ERC20/utils/SafeERC20.sol\":1112:1131  _callOptionalReturn */\n      tag_90\n        /* \"@openzeppelin/contracts/token/ERC20/utils/SafeERC20.sol\":1112:1208  _callOptionalReturn(token, abi.encodeWithSelector(token.transferFrom.selector, from, to, value)) */\n      jump\t// in\n    tag_87:\n        /* \"@openzeppelin/contracts/token/ERC20/utils/SafeERC20.sol\":974:1215  function safeTransferFrom(... */\n      pop\n      pop\n      pop\n      pop\n      jump\t// out\n        /* \"@openzeppelin/contracts/token/ERC20/utils/SafeERC20.sol\":3747:4453  function _callOptionalReturn(IERC20 token, bytes memory data) private {... */\n    tag_90:\n        /* \"@openzeppelin/contracts/token/ERC20/utils/SafeERC20.sol\":4166:4189  bytes memory returndata */\n      0x00\n        /* \"@openzeppelin/contracts/token/ERC20/utils/SafeERC20.sol\":4192:4261  address(token).functionCall(data, \"SafeERC20: low-level call failed\") */\n      tag_92\n        /* \"@openzeppelin/contracts/token/ERC20/utils/SafeERC20.sol\":4220:4224  data */\n      dup3\n        /* \"@openzeppelin/contracts/token/ERC20/utils/SafeERC20.sol\":4192:4261  address(token).functionCall(data, \"SafeERC20: low-level call failed\") */\n      mload(0x40)\n      dup1\n      0x40\n      add\n      0x40\n      mstore\n      dup1\n      0x20\n      dup2\n      mstore\n      0x20\n      add\n      0x5361666545524332303a206c6f772d6c6576656c2063616c6c206661696c6564\n      dup2\n      mstore\n      pop\n        /* \"@openzeppelin/contracts/token/ERC20/utils/SafeERC20.sol\":4200:4205  token */\n      dup6\n        /* \"@openzeppelin/contracts/token/ERC20/utils/SafeERC20.sol\":4192:4219  address(token).functionCall */\n      0xffffffffffffffffffffffffffffffffffffffff\n      and\n      tag_93\n      swap1\n        /* \"@openzeppelin/contracts/token/ERC20/utils/SafeERC20.sol\":4192:4261  address(token).functionCall(data, \"SafeERC20: low-level call failed\") */\n      swap3\n      swap2\n      swap1\n      0xffffffff\n      and\n      jump\t// in\n    tag_92:\n        /* \"@openzeppelin/contracts/token/ERC20/utils/SafeERC20.sol\":4166:4261  bytes memory returndata = address(token).functionCall(data, \"SafeERC20: low-level call failed\") */\n      swap1\n      pop\n        /* \"@openzeppelin/contracts/token/ERC20/utils/SafeERC20.sol\":4295:4296  0 */\n      0x00\n        /* \"@openzeppelin/contracts/token/ERC20/utils/SafeERC20.sol\":4275:4285  returndata */\n      dup2\n        /* \"@openzeppelin/contracts/token/ERC20/utils/SafeERC20.sol\":4275:4292  returndata.length */\n      mload\n        /* \"@openzeppelin/contracts/token/ERC20/utils/SafeERC20.sol\":4275:4296  returndata.length > 0 */\n      gt\n        /* \"@openzeppelin/contracts/token/ERC20/utils/SafeERC20.sol\":4271:4447  if (returndata.length > 0) {... */\n      iszero\n      tag_94\n      jumpi\n        /* \"@openzeppelin/contracts/token/ERC20/utils/SafeERC20.sol\":4370:4380  returndata */\n      dup1\n        /* \"@openzeppelin/contracts/token/ERC20/utils/SafeERC20.sol\":4359:4389  abi.decode(returndata, (bool)) */\n      dup1\n      0x20\n      add\n      swap1\n      mload\n      dup2\n      add\n      swap1\n      tag_95\n      swap2\n      swap1\n      tag_59\n      jump\t// in\n    tag_95:\n        /* \"@openzeppelin/contracts/token/ERC20/utils/SafeERC20.sol\":4351:4436  require(abi.decode(returndata, (bool)), \"SafeERC20: ERC20 operation did not succeed\") */\n      tag_96\n      jumpi\n      mload(0x40)\n      0x08c379a000000000000000000000000000000000000000000000000000000000\n      dup2\n      mstore\n      0x04\n      add\n      tag_97\n      swap1\n      tag_98\n      jump\t// in\n    tag_97:\n      mload(0x40)\n      dup1\n      swap2\n      sub\n      swap1\n      revert\n    tag_96:\n        /* \"@openzeppelin/contracts/token/ERC20/utils/SafeERC20.sol\":4271:4447  if (returndata.length > 0) {... */\n    tag_94:\n        /* \"@openzeppelin/contracts/token/ERC20/utils/SafeERC20.sol\":3817:4453  {... */\n      pop\n        /* \"@openzeppelin/contracts/token/ERC20/utils/SafeERC20.sol\":3747:4453  function _callOptionalReturn(IERC20 token, bytes memory data) private {... */\n      pop\n      pop\n      jump\t// out\n        /* \"@openzeppelin/contracts/utils/Address.sol\":3861:4084  function functionCall(... */\n    tag_93:\n        /* \"@openzeppelin/contracts/utils/Address.sol\":3994:4006  bytes memory */\n      0x60\n        /* \"@openzeppelin/contracts/utils/Address.sol\":4025:4077  functionCallWithValue(target, data, 0, errorMessage) */\n      tag_100\n        /* \"@openzeppelin/contracts/utils/Address.sol\":4047:4053  target */\n      dup5\n        /* \"@openzeppelin/contracts/utils/Address.sol\":4055:4059  data */\n      dup5\n        /* \"@openzeppelin/contracts/utils/Address.sol\":4061:4062  0 */\n      0x00\n        /* \"@openzeppelin/contracts/utils/Address.sol\":4064:4076  errorMessage */\n      dup6\n        /* \"@openzeppelin/contracts/utils/Address.sol\":4025:4046  functionCallWithValue */\n      tag_101\n        /* \"@openzeppelin/contracts/utils/Address.sol\":4025:4077  functionCallWithValue(target, data, 0, errorMessage) */\n      jump\t// in\n    tag_100:\n        /* \"@openzeppelin/contracts/utils/Address.sol\":4018:4077  return functionCallWithValue(target, data, 0, errorMessage) */\n      swap1\n      pop\n        /* \"@openzeppelin/contracts/utils/Address.sol\":3861:4084  function functionCall(... */\n      swap4\n      swap3\n      pop\n      pop\n      pop\n      jump\t// out\n        /* \"@openzeppelin/contracts/utils/Address.sol\":4948:5447  function functionCallWithValue(... */\n    tag_101:\n        /* \"@openzeppelin/contracts/utils/Address.sol\":5113:5125  bytes memory */\n      0x60\n        /* \"@openzeppelin/contracts/utils/Address.sol\":5170:5175  value */\n      dup3\n        /* \"@openzeppelin/contracts/utils/Address.sol\":5145:5166  address(this).balance */\n      selfbalance\n        /* \"@openzeppelin/contracts/utils/Address.sol\":5145:5175  address(this).balance >= value */\n      lt\n      iszero\n        /* \"@openzeppelin/contracts/utils/Address.sol\":5137:5218  require(address(this).balance >= value, \"Address: insufficient balance for call\") */\n      tag_103\n      jumpi\n      mload(0x40)\n      0x08c379a000000000000000000000000000000000000000000000000000000000\n      dup2\n      mstore\n      0x04\n      add\n      tag_104\n      swap1\n      tag_105\n      jump\t// in\n    tag_104:\n      mload(0x40)\n      dup1\n      swap2\n      sub\n      swap1\n      revert\n    tag_103:\n        /* \"@openzeppelin/contracts/utils/Address.sol\":5236:5254  isContract(target) */\n      tag_106\n        /* \"@openzeppelin/contracts/utils/Address.sol\":5247:5253  target */\n      dup6\n        /* \"@openzeppelin/contracts/utils/Address.sol\":5236:5246  isContract */\n      tag_107\n        /* \"@openzeppelin/contracts/utils/Address.sol\":5236:5254  isContract(target) */\n      jump\t// in\n    tag_106:\n        /* \"@openzeppelin/contracts/utils/Address.sol\":5228:5288  require(isContract(target), \"Address: call to non-contract\") */\n      tag_108\n      jumpi\n      mload(0x40)\n      0x08c379a000000000000000000000000000000000000000000000000000000000\n      dup2\n      mstore\n      0x04\n      add\n      tag_109\n      swap1\n      tag_110\n      jump\t// in\n    tag_109:\n      mload(0x40)\n      dup1\n      swap2\n      sub\n      swap1\n      revert\n    tag_108:\n        /* \"@openzeppelin/contracts/utils/Address.sol\":5300:5312  bool success */\n      0x00\n        /* \"@openzeppelin/contracts/utils/Address.sol\":5314:5337  bytes memory returndata */\n      dup1\n        /* \"@openzeppelin/contracts/utils/Address.sol\":5341:5347  target */\n      dup7\n        /* \"@openzeppelin/contracts/utils/Address.sol\":5341:5352  target.call */\n      0xffffffffffffffffffffffffffffffffffffffff\n      and\n        /* \"@openzeppelin/contracts/utils/Address.sol\":5360:5365  value */\n      dup6\n        /* \"@openzeppelin/contracts/utils/Address.sol\":5367:5371  data */\n      dup8\n        /* \"@openzeppelin/contracts/utils/Address.sol\":5341:5372  target.call{value: value}(data) */\n      mload(0x40)\n      tag_111\n      swap2\n      swap1\n      tag_112\n      jump\t// in\n    tag_111:\n      0x00\n      mload(0x40)\n      dup1\n      dup4\n      sub\n      dup2\n      dup6\n      dup8\n      gas\n      call\n      swap3\n      pop\n      pop\n      pop\n      returndatasize\n      dup1\n      0x00\n      dup2\n      eq\n      tag_115\n      jumpi\n      mload(0x40)\n      swap2\n      pop\n      and(add(returndatasize, 0x3f), not(0x1f))\n      dup3\n      add\n      0x40\n      mstore\n      returndatasize\n      dup3\n      mstore\n      returndatasize\n      0x00\n      0x20\n      dup5\n      add\n      returndatacopy\n      jump(tag_114)\n    tag_115:\n      0x60\n      swap2\n      pop\n    tag_114:\n      pop\n        /* \"@openzeppelin/contracts/utils/Address.sol\":5299:5372  (bool success, bytes memory returndata) = target.call{value: value}(data) */\n      swap2\n      pop\n      swap2\n      pop\n        /* \"@openzeppelin/contracts/utils/Address.sol\":5389:5440  verifyCallResult(success, returndata, errorMessage) */\n      tag_116\n        /* \"@openzeppelin/contracts/utils/Address.sol\":5406:5413  success */\n      dup3\n        /* \"@openzeppelin/contracts/utils/Address.sol\":5415:5425  returndata */\n      dup3\n        /* \"@openzeppelin/contracts/utils/Address.sol\":5427:5439  errorMessage */\n      dup7\n        /* \"@openzeppelin/contracts/utils/Address.sol\":5389:5405  verifyCallResult */\n      tag_117\n        /* \"@openzeppelin/contracts/utils/Address.sol\":5389:5440  verifyCallResult(success, returndata, errorMessage) */\n      jump\t// in\n    tag_116:\n        /* \"@openzeppelin/contracts/utils/Address.sol\":5382:5440  return verifyCallResult(success, returndata, errorMessage) */\n      swap3\n      pop\n      pop\n      pop\n        /* \"@openzeppelin/contracts/utils/Address.sol\":4948:5447  function functionCallWithValue(... */\n      swap5\n      swap4\n      pop\n      pop\n      pop\n      pop\n      jump\t// out\n        /* \"@openzeppelin/contracts/utils/Address.sol\":1175:1495  function isContract(address account) internal view returns (bool) {... */\n    tag_107:\n        /* \"@openzeppelin/contracts/utils/Address.sol\":1235:1239  bool */\n      0x00\n        /* \"@openzeppelin/contracts/utils/Address.sol\":1487:1488  0 */\n      dup1\n        /* \"@openzeppelin/contracts/utils/Address.sol\":1465:1472  account */\n      dup3\n        /* \"@openzeppelin/contracts/utils/Address.sol\":1465:1484  account.code.length */\n      0xffffffffffffffffffffffffffffffffffffffff\n      and\n      extcodesize\n        /* \"@openzeppelin/contracts/utils/Address.sol\":1465:1488  account.code.length > 0 */\n      gt\n        /* \"@openzeppelin/contracts/utils/Address.sol\":1458:1488  return account.code.length > 0 */\n      swap1\n      pop\n        /* \"@openzeppelin/contracts/utils/Address.sol\":1175:1495  function isContract(address account) internal view returns (bool) {... */\n      swap2\n      swap1\n      pop\n      jump\t// out\n        /* \"@openzeppelin/contracts/utils/Address.sol\":7561:8303  function verifyCallResult(... */\n    tag_117:\n        /* \"@openzeppelin/contracts/utils/Address.sol\":7707:7719  bytes memory */\n      0x60\n        /* \"@openzeppelin/contracts/utils/Address.sol\":7735:7742  success */\n      dup4\n        /* \"@openzeppelin/contracts/utils/Address.sol\":7731:8297  if (success) {... */\n      iszero\n      tag_120\n      jumpi\n        /* \"@openzeppelin/contracts/utils/Address.sol\":7765:7775  returndata */\n      dup3\n        /* \"@openzeppelin/contracts/utils/Address.sol\":7758:7775  return returndata */\n      swap1\n      pop\n      jump(tag_119)\n        /* \"@openzeppelin/contracts/utils/Address.sol\":7731:8297  if (success) {... */\n    tag_120:\n        /* \"@openzeppelin/contracts/utils/Address.sol\":7896:7897  0 */\n      0x00\n        /* \"@openzeppelin/contracts/utils/Address.sol\":7876:7886  returndata */\n      dup4\n        /* \"@openzeppelin/contracts/utils/Address.sol\":7876:7893  returndata.length */\n      mload\n        /* \"@openzeppelin/contracts/utils/Address.sol\":7876:7897  returndata.length > 0 */\n      gt\n        /* \"@openzeppelin/contracts/utils/Address.sol\":7872:8287  if (returndata.length > 0) {... */\n      iszero\n      tag_122\n      jumpi\n        /* \"@openzeppelin/contracts/utils/Address.sol\":8120:8130  returndata */\n      dup3\n        /* \"@openzeppelin/contracts/utils/Address.sol\":8114:8131  mload(returndata) */\n      mload\n        /* \"@openzeppelin/contracts/utils/Address.sol\":8180:8195  returndata_size */\n      dup1\n        /* \"@openzeppelin/contracts/utils/Address.sol\":8167:8177  returndata */\n      dup5\n        /* \"@openzeppelin/contracts/utils/Address.sol\":8163:8165  32 */\n      0x20\n        /* \"@openzeppelin/contracts/utils/Address.sol\":8159:8178  add(32, returndata) */\n      add\n        /* \"@openzeppelin/contracts/utils/Address.sol\":8152:8196  revert(add(32, returndata), returndata_size) */\n      revert\n        /* \"@openzeppelin/contracts/utils/Address.sol\":7872:8287  if (returndata.length > 0) {... */\n    tag_122:\n        /* \"@openzeppelin/contracts/utils/Address.sol\":8259:8271  errorMessage */\n      dup2\n        /* \"@openzeppelin/contracts/utils/Address.sol\":8252:8272  revert(errorMessage) */\n      mload(0x40)\n      0x08c379a000000000000000000000000000000000000000000000000000000000\n      dup2\n      mstore\n      0x04\n      add\n      tag_124\n      swap2\n      swap1\n      tag_125\n      jump\t// in\n    tag_124:\n      mload(0x40)\n      dup1\n      swap2\n      sub\n      swap1\n      revert\n        /* \"@openzeppelin/contracts/utils/Address.sol\":7561:8303  function verifyCallResult(... */\n    tag_119:\n      swap4\n      swap3\n      pop\n      pop\n      pop\n      jump\t// out\n        /* \"#utility.yul\":7:133   */\n    tag_126:\n        /* \"#utility.yul\":44:51   */\n      0x00\n        /* \"#utility.yul\":84:126   */\n      0xffffffffffffffffffffffffffffffffffffffff\n        /* \"#utility.yul\":77:82   */\n      dup3\n        /* \"#utility.yul\":73:127   */\n      and\n        /* \"#utility.yul\":62:127   */\n      swap1\n      pop\n        /* \"#utility.yul\":7:133   */\n      swap2\n      swap1\n      pop\n      jump\t// out\n        /* \"#utility.yul\":139:235   */\n    tag_127:\n        /* \"#utility.yul\":176:183   */\n      0x00\n        /* \"#utility.yul\":205:229   */\n      tag_171\n        /* \"#utility.yul\":223:228   */\n      dup3\n        /* \"#utility.yul\":205:229   */\n      tag_126\n      jump\t// in\n    tag_171:\n        /* \"#utility.yul\":194:229   */\n      swap1\n      pop\n        /* \"#utility.yul\":139:235   */\n      swap2\n      swap1\n      pop\n      jump\t// out\n        /* \"#utility.yul\":241:359   */\n    tag_128:\n        /* \"#utility.yul\":328:352   */\n      tag_173\n        /* \"#utility.yul\":346:351   */\n      dup2\n        /* \"#utility.yul\":328:352   */\n      tag_127\n      jump\t// in\n    tag_173:\n        /* \"#utility.yul\":323:326   */\n      dup3\n        /* \"#utility.yul\":316:353   */\n      mstore\n        /* \"#utility.yul\":241:359   */\n      pop\n      pop\n      jump\t// out\n        /* \"#utility.yul\":365:587   */\n    tag_15:\n        /* \"#utility.yul\":458:462   */\n      0x00\n        /* \"#utility.yul\":496:498   */\n      0x20\n        /* \"#utility.yul\":485:494   */\n      dup3\n        /* \"#utility.yul\":481:499   */\n      add\n        /* \"#utility.yul\":473:499   */\n      swap1\n      pop\n        /* \"#utility.yul\":509:580   */\n      tag_175\n        /* \"#utility.yul\":577:578   */\n      0x00\n        /* \"#utility.yul\":566:575   */\n      dup4\n        /* \"#utility.yul\":562:579   */\n      add\n        /* \"#utility.yul\":553:559   */\n      dup5\n        /* \"#utility.yul\":509:580   */\n      tag_128\n      jump\t// in\n    tag_175:\n        /* \"#utility.yul\":365:587   */\n      swap3\n      swap2\n      pop\n      pop\n      jump\t// out\n        /* \"#utility.yul\":593:670   */\n    tag_129:\n        /* \"#utility.yul\":630:637   */\n      0x00\n        /* \"#utility.yul\":659:664   */\n      dup2\n        /* \"#utility.yul\":648:664   */\n      swap1\n      pop\n        /* \"#utility.yul\":593:670   */\n      swap2\n      swap1\n      pop\n      jump\t// out\n        /* \"#utility.yul\":676:794   */\n    tag_130:\n        /* \"#utility.yul\":763:787   */\n      tag_178\n        /* \"#utility.yul\":781:786   */\n      dup2\n        /* \"#utility.yul\":763:787   */\n      tag_129\n      jump\t// in\n    tag_178:\n        /* \"#utility.yul\":758:761   */\n      dup3\n        /* \"#utility.yul\":751:788   */\n      mstore\n        /* \"#utility.yul\":676:794   */\n      pop\n      pop\n      jump\t// out\n        /* \"#utility.yul\":800:1022   */\n    tag_21:\n        /* \"#utility.yul\":893:897   */\n      0x00\n        /* \"#utility.yul\":931:933   */\n      0x20\n        /* \"#utility.yul\":920:929   */\n      dup3\n        /* \"#utility.yul\":916:934   */\n      add\n        /* \"#utility.yul\":908:934   */\n      swap1\n      pop\n        /* \"#utility.yul\":944:1015   */\n      tag_180\n        /* \"#utility.yul\":1012:1013   */\n      0x00\n        /* \"#utility.yul\":1001:1010   */\n      dup4\n        /* \"#utility.yul\":997:1014   */\n      add\n        /* \"#utility.yul\":988:994   */\n      dup5\n        /* \"#utility.yul\":944:1015   */\n      tag_130\n      jump\t// in\n    tag_180:\n        /* \"#utility.yul\":800:1022   */\n      swap3\n      swap2\n      pop\n      pop\n      jump\t// out\n        /* \"#utility.yul\":1109:1226   */\n    tag_132:\n        /* \"#utility.yul\":1218:1219   */\n      0x00\n        /* \"#utility.yul\":1215:1216   */\n      dup1\n        /* \"#utility.yul\":1208:1220   */\n      revert\n        /* \"#utility.yul\":1355:1477   */\n    tag_134:\n        /* \"#utility.yul\":1428:1452   */\n      tag_185\n        /* \"#utility.yul\":1446:1451   */\n      dup2\n        /* \"#utility.yul\":1428:1452   */\n      tag_129\n      jump\t// in\n    tag_185:\n        /* \"#utility.yul\":1421:1426   */\n      dup2\n        /* \"#utility.yul\":1418:1453   */\n      eq\n        /* \"#utility.yul\":1408:1471   */\n      tag_186\n      jumpi\n        /* \"#utility.yul\":1467:1468   */\n      0x00\n        /* \"#utility.yul\":1464:1465   */\n      dup1\n        /* \"#utility.yul\":1457:1469   */\n      revert\n        /* \"#utility.yul\":1408:1471   */\n    tag_186:\n        /* \"#utility.yul\":1355:1477   */\n      pop\n      jump\t// out\n        /* \"#utility.yul\":1483:1622   */\n    tag_135:\n        /* \"#utility.yul\":1529:1534   */\n      0x00\n        /* \"#utility.yul\":1567:1573   */\n      dup2\n        /* \"#utility.yul\":1554:1574   */\n      calldataload\n        /* \"#utility.yul\":1545:1574   */\n      swap1\n      pop\n        /* \"#utility.yul\":1583:1616   */\n      tag_188\n        /* \"#utility.yul\":1610:1615   */\n      dup2\n        /* \"#utility.yul\":1583:1616   */\n      tag_134\n      jump\t// in\n    tag_188:\n        /* \"#utility.yul\":1483:1622   */\n      swap3\n      swap2\n      pop\n      pop\n      jump\t// out\n        /* \"#utility.yul\":1628:1957   */\n    tag_24:\n        /* \"#utility.yul\":1687:1693   */\n      0x00\n        /* \"#utility.yul\":1736:1738   */\n      0x20\n        /* \"#utility.yul\":1724:1733   */\n      dup3\n        /* \"#utility.yul\":1715:1722   */\n      dup5\n        /* \"#utility.yul\":1711:1734   */\n      sub\n        /* \"#utility.yul\":1707:1739   */\n      slt\n        /* \"#utility.yul\":1704:1823   */\n      iszero\n      tag_190\n      jumpi\n        /* \"#utility.yul\":1742:1821   */\n      tag_191\n      tag_132\n      jump\t// in\n    tag_191:\n        /* \"#utility.yul\":1704:1823   */\n    tag_190:\n        /* \"#utility.yul\":1862:1863   */\n      0x00\n        /* \"#utility.yul\":1887:1940   */\n      tag_192\n        /* \"#utility.yul\":1932:1939   */\n      dup5\n        /* \"#utility.yul\":1923:1929   */\n      dup3\n        /* \"#utility.yul\":1912:1921   */\n      dup6\n        /* \"#utility.yul\":1908:1930   */\n      add\n        /* \"#utility.yul\":1887:1940   */\n      tag_135\n      jump\t// in\n    tag_192:\n        /* \"#utility.yul\":1877:1940   */\n      swap2\n      pop\n        /* \"#utility.yul\":1833:1950   */\n      pop\n        /* \"#utility.yul\":1628:1957   */\n      swap3\n      swap2\n      pop\n      pop\n      jump\t// out\n        /* \"#utility.yul\":1963:2437   */\n    tag_28:\n        /* \"#utility.yul\":2031:2037   */\n      0x00\n        /* \"#utility.yul\":2039:2045   */\n      dup1\n        /* \"#utility.yul\":2088:2090   */\n      0x40\n        /* \"#utility.yul\":2076:2085   */\n      dup4\n        /* \"#utility.yul\":2067:2074   */\n      dup6\n        /* \"#utility.yul\":2063:2086   */\n      sub\n        /* \"#utility.yul\":2059:2091   */\n      slt\n        /* \"#utility.yul\":2056:2175   */\n      iszero\n      tag_194\n      jumpi\n        /* \"#utility.yul\":2094:2173   */\n      tag_195\n      tag_132\n      jump\t// in\n    tag_195:\n        /* \"#utility.yul\":2056:2175   */\n    tag_194:\n        /* \"#utility.yul\":2214:2215   */\n      0x00\n        /* \"#utility.yul\":2239:2292   */\n      tag_196\n        /* \"#utility.yul\":2284:2291   */\n      dup6\n        /* \"#utility.yul\":2275:2281   */\n      dup3\n        /* \"#utility.yul\":2264:2273   */\n      dup7\n        /* \"#utility.yul\":2260:2282   */\n      add\n        /* \"#utility.yul\":2239:2292   */\n      tag_135\n      jump\t// in\n    tag_196:\n        /* \"#utility.yul\":2229:2292   */\n      swap3\n      pop\n        /* \"#utility.yul\":2185:2302   */\n      pop\n        /* \"#utility.yul\":2341:2343   */\n      0x20\n        /* \"#utility.yul\":2367:2420   */\n      tag_197\n        /* \"#utility.yul\":2412:2419   */\n      dup6\n        /* \"#utility.yul\":2403:2409   */\n      dup3\n        /* \"#utility.yul\":2392:2401   */\n      dup7\n        /* \"#utility.yul\":2388:2410   */\n      add\n        /* \"#utility.yul\":2367:2420   */\n      tag_135\n      jump\t// in\n    tag_197:\n        /* \"#utility.yul\":2357:2420   */\n      swap2\n      pop\n        /* \"#utility.yul\":2312:2430   */\n      pop\n        /* \"#utility.yul\":1963:2437   */\n      swap3\n      pop\n      swap3\n      swap1\n      pop\n      jump\t// out\n        /* \"#utility.yul\":2443:2612   */\n    tag_136:\n        /* \"#utility.yul\":2527:2538   */\n      0x00\n        /* \"#utility.yul\":2561:2567   */\n      dup3\n        /* \"#utility.yul\":2556:2559   */\n      dup3\n        /* \"#utility.yul\":2549:2568   */\n      mstore\n        /* \"#utility.yul\":2601:2605   */\n      0x20\n        /* \"#utility.yul\":2596:2599   */\n      dup3\n        /* \"#utility.yul\":2592:2606   */\n      add\n        /* \"#utility.yul\":2577:2606   */\n      swap1\n      pop\n        /* \"#utility.yul\":2443:2612   */\n      swap3\n      swap2\n      pop\n      pop\n      jump\t// out\n        /* \"#utility.yul\":2618:2781   */\n    tag_137:\n        /* \"#utility.yul\":2758:2773   */\n      0x49434f2069732070617573656400000000000000000000000000000000000000\n        /* \"#utility.yul\":2754:2755   */\n      0x00\n        /* \"#utility.yul\":2746:2752   */\n      dup3\n        /* \"#utility.yul\":2742:2756   */\n      add\n        /* \"#utility.yul\":2735:2774   */\n      mstore\n        /* \"#utility.yul\":2618:2781   */\n      pop\n      jump\t// out\n        /* \"#utility.yul\":2787:3153   */\n    tag_138:\n        /* \"#utility.yul\":2929:2932   */\n      0x00\n        /* \"#utility.yul\":2950:3017   */\n      tag_201\n        /* \"#utility.yul\":3014:3016   */\n      0x0d\n        /* \"#utility.yul\":3009:3012   */\n      dup4\n        /* \"#utility.yul\":2950:3017   */\n      tag_136\n      jump\t// in\n    tag_201:\n        /* \"#utility.yul\":2943:3017   */\n      swap2\n      pop\n        /* \"#utility.yul\":3026:3119   */\n      tag_202\n        /* \"#utility.yul\":3115:3118   */\n      dup3\n        /* \"#utility.yul\":3026:3119   */\n      tag_137\n      jump\t// in\n    tag_202:\n        /* \"#utility.yul\":3144:3146   */\n      0x20\n        /* \"#utility.yul\":3139:3142   */\n      dup3\n        /* \"#utility.yul\":3135:3147   */\n      add\n        /* \"#utility.yul\":3128:3147   */\n      swap1\n      pop\n        /* \"#utility.yul\":2787:3153   */\n      swap2\n      swap1\n      pop\n      jump\t// out\n        /* \"#utility.yul\":3159:3578   */\n    tag_40:\n        /* \"#utility.yul\":3325:3329   */\n      0x00\n        /* \"#utility.yul\":3363:3365   */\n      0x20\n        /* \"#utility.yul\":3352:3361   */\n      dup3\n        /* \"#utility.yul\":3348:3366   */\n      add\n        /* \"#utility.yul\":3340:3366   */\n      swap1\n      pop\n        /* \"#utility.yul\":3412:3421   */\n      dup2\n        /* \"#utility.yul\":3406:3410   */\n      dup2\n        /* \"#utility.yul\":3402:3422   */\n      sub\n        /* \"#utility.yul\":3398:3399   */\n      0x00\n        /* \"#utility.yul\":3387:3396   */\n      dup4\n        /* \"#utility.yul\":3383:3400   */\n      add\n        /* \"#utility.yul\":3376:3423   */\n      mstore\n        /* \"#utility.yul\":3440:3571   */\n      tag_204\n        /* \"#utility.yul\":3566:3570   */\n      dup2\n        /* \"#utility.yul\":3440:3571   */\n      tag_138\n      jump\t// in\n    tag_204:\n        /* \"#utility.yul\":3432:3571   */\n      swap1\n      pop\n        /* \"#utility.yul\":3159:3578   */\n      swap2\n      swap1\n      pop\n      jump\t// out\n        /* \"#utility.yul\":3584:3765   */\n    tag_139:\n        /* \"#utility.yul\":3724:3757   */\n      0x5265656e7472616e637947756172643a207265656e7472616e742063616c6c00\n        /* \"#utility.yul\":3720:3721   */\n      0x00\n        /* \"#utility.yul\":3712:3718   */\n      dup3\n        /* \"#utility.yul\":3708:3722   */\n      add\n        /* \"#utility.yul\":3701:3758   */\n      mstore\n        /* \"#utility.yul\":3584:3765   */\n      pop\n      jump\t// out\n        /* \"#utility.yul\":3771:4137   */\n    tag_140:\n        /* \"#utility.yul\":3913:3916   */\n      0x00\n        /* \"#utility.yul\":3934:4001   */\n      tag_207\n        /* \"#utility.yul\":3998:4000   */\n      0x1f\n        /* \"#utility.yul\":3993:3996   */\n      dup4\n        /* \"#utility.yul\":3934:4001   */\n      tag_136\n      jump\t// in\n    tag_207:\n        /* \"#utility.yul\":3927:4001   */\n      swap2\n      pop\n        /* \"#utility.yul\":4010:4103   */\n      tag_208\n        /* \"#utility.yul\":4099:4102   */\n      dup3\n        /* \"#utility.yul\":4010:4103   */\n      tag_139\n      jump\t// in\n    tag_208:\n        /* \"#utility.yul\":4128:4130   */\n      0x20\n        /* \"#utility.yul\":4123:4126   */\n      dup3\n        /* \"#utility.yul\":4119:4131   */\n      add\n        /* \"#utility.yul\":4112:4131   */\n      swap1\n      pop\n        /* \"#utility.yul\":3771:4137   */\n      swap2\n      swap1\n      pop\n      jump\t// out\n        /* \"#utility.yul\":4143:4562   */\n    tag_44:\n        /* \"#utility.yul\":4309:4313   */\n      0x00\n        /* \"#utility.yul\":4347:4349   */\n      0x20\n        /* \"#utility.yul\":4336:4345   */\n      dup3\n        /* \"#utility.yul\":4332:4350   */\n      add\n        /* \"#utility.yul\":4324:4350   */\n      swap1\n      pop\n        /* \"#utility.yul\":4396:4405   */\n      dup2\n        /* \"#utility.yul\":4390:4394   */\n      dup2\n        /* \"#utility.yul\":4386:4406   */\n      sub\n        /* \"#utility.yul\":4382:4383   */\n      0x00\n        /* \"#utility.yul\":4371:4380   */\n      dup4\n        /* \"#utility.yul\":4367:4384   */\n      add\n        /* \"#utility.yul\":4360:4407   */\n      mstore\n        /* \"#utility.yul\":4424:4555   */\n      tag_210\n        /* \"#utility.yul\":4550:4554   */\n      dup2\n        /* \"#utility.yul\":4424:4555   */\n      tag_140\n      jump\t// in\n    tag_210:\n        /* \"#utility.yul\":4416:4555   */\n      swap1\n      pop\n        /* \"#utility.yul\":4143:4562   */\n      swap2\n      swap1\n      pop\n      jump\t// out\n        /* \"#utility.yul\":4568:4737   */\n    tag_141:\n        /* \"#utility.yul\":4708:4729   */\n      0x49444f20686173206e6f74207374617274656400000000000000000000000000\n        /* \"#utility.yul\":4704:4705   */\n      0x00\n        /* \"#utility.yul\":4696:4702   */\n      dup3\n        /* \"#utility.yul\":4692:4706   */\n      add\n        /* \"#utility.yul\":4685:4730   */\n      mstore\n        /* \"#utility.yul\":4568:4737   */\n      pop\n      jump\t// out\n        /* \"#utility.yul\":4743:5109   */\n    tag_142:\n        /* \"#utility.yul\":4885:4888   */\n      0x00\n        /* \"#utility.yul\":4906:4973   */\n      tag_213\n        /* \"#utility.yul\":4970:4972   */\n      0x13\n        /* \"#utility.yul\":4965:4968   */\n      dup4\n        /* \"#utility.yul\":4906:4973   */\n      tag_136\n      jump\t// in\n    tag_213:\n        /* \"#utility.yul\":4899:4973   */\n      swap2\n      pop\n        /* \"#utility.yul\":4982:5075   */\n      tag_214\n        /* \"#utility.yul\":5071:5074   */\n      dup3\n        /* \"#utility.yul\":4982:5075   */\n      tag_141\n      jump\t// in\n    tag_214:\n        /* \"#utility.yul\":5100:5102   */\n      0x20\n        /* \"#utility.yul\":5095:5098   */\n      dup3\n        /* \"#utility.yul\":5091:5103   */\n      add\n        /* \"#utility.yul\":5084:5103   */\n      swap1\n      pop\n        /* \"#utility.yul\":4743:5109   */\n      swap2\n      swap1\n      pop\n      jump\t// out\n        /* \"#utility.yul\":5115:5534   */\n    tag_48:\n        /* \"#utility.yul\":5281:5285   */\n      0x00\n        /* \"#utility.yul\":5319:5321   */\n      0x20\n        /* \"#utility.yul\":5308:5317   */\n      dup3\n        /* \"#utility.yul\":5304:5322   */\n      add\n        /* \"#utility.yul\":5296:5322   */\n      swap1\n      pop\n        /* \"#utility.yul\":5368:5377   */\n      dup2\n        /* \"#utility.yul\":5362:5366   */\n      dup2\n        /* \"#utility.yul\":5358:5378   */\n      sub\n        /* \"#utility.yul\":5354:5355   */\n      0x00\n        /* \"#utility.yul\":5343:5352   */\n      dup4\n        /* \"#utility.yul\":5339:5356   */\n      add\n        /* \"#utility.yul\":5332:5379   */\n      mstore\n        /* \"#utility.yul\":5396:5527   */\n      tag_216\n        /* \"#utility.yul\":5522:5526   */\n      dup2\n        /* \"#utility.yul\":5396:5527   */\n      tag_142\n      jump\t// in\n    tag_216:\n        /* \"#utility.yul\":5388:5527   */\n      swap1\n      pop\n        /* \"#utility.yul\":5115:5534   */\n      swap2\n      swap1\n      pop\n      jump\t// out\n        /* \"#utility.yul\":5540:5720   */\n    tag_143:\n        /* \"#utility.yul\":5588:5665   */\n      0x4e487b7100000000000000000000000000000000000000000000000000000000\n        /* \"#utility.yul\":5585:5586   */\n      0x00\n        /* \"#utility.yul\":5578:5666   */\n      mstore\n        /* \"#utility.yul\":5685:5689   */\n      0x11\n        /* \"#utility.yul\":5682:5683   */\n      0x04\n        /* \"#utility.yul\":5675:5690   */\n      mstore\n        /* \"#utility.yul\":5709:5713   */\n      0x24\n        /* \"#utility.yul\":5706:5707   */\n      0x00\n        /* \"#utility.yul\":5699:5714   */\n      revert\n        /* \"#utility.yul\":5726:6031   */\n    tag_50:\n        /* \"#utility.yul\":5766:5769   */\n      0x00\n        /* \"#utility.yul\":5785:5805   */\n      tag_219\n        /* \"#utility.yul\":5803:5804   */\n      dup3\n        /* \"#utility.yul\":5785:5805   */\n      tag_129\n      jump\t// in\n    tag_219:\n        /* \"#utility.yul\":5780:5805   */\n      swap2\n      pop\n        /* \"#utility.yul\":5819:5839   */\n      tag_220\n        /* \"#utility.yul\":5837:5838   */\n      dup4\n        /* \"#utility.yul\":5819:5839   */\n      tag_129\n      jump\t// in\n    tag_220:\n        /* \"#utility.yul\":5814:5839   */\n      swap3\n      pop\n        /* \"#utility.yul\":5973:5974   */\n      dup3\n        /* \"#utility.yul\":5905:5971   */\n      0xffffffffffffffffffffffffffffffffffffffffffffffffffffffffffffffff\n        /* \"#utility.yul\":5901:5975   */\n      sub\n        /* \"#utility.yul\":5898:5899   */\n      dup3\n        /* \"#utility.yul\":5895:5976   */\n      gt\n        /* \"#utility.yul\":5892:5999   */\n      iszero\n      tag_221\n      jumpi\n        /* \"#utility.yul\":5979:5997   */\n      tag_222\n      tag_143\n      jump\t// in\n    tag_222:\n        /* \"#utility.yul\":5892:5999   */\n    tag_221:\n        /* \"#utility.yul\":6023:6024   */\n      dup3\n        /* \"#utility.yul\":6020:6021   */\n      dup3\n        /* \"#utility.yul\":6016:6025   */\n      add\n        /* \"#utility.yul\":6009:6025   */\n      swap1\n      pop\n        /* \"#utility.yul\":5726:6031   */\n      swap3\n      swap2\n      pop\n      pop\n      jump\t// out\n        /* \"#utility.yul\":6037:6211   */\n    tag_144:\n        /* \"#utility.yul\":6177:6203   */\n      0x416c6c20746f6b656e7320686173206265656e20736f6c640000000000000000\n        /* \"#utility.yul\":6173:6174   */\n      0x00\n        /* \"#utility.yul\":6165:6171   */\n      dup3\n        /* \"#utility.yul\":6161:6175   */\n      add\n        /* \"#utility.yul\":6154:6204   */\n      mstore\n        /* \"#utility.yul\":6037:6211   */\n      pop\n      jump\t// out\n        /* \"#utility.yul\":6217:6583   */\n    tag_145:\n        /* \"#utility.yul\":6359:6362   */\n      0x00\n        /* \"#utility.yul\":6380:6447   */\n      tag_225\n        /* \"#utility.yul\":6444:6446   */\n      0x18\n        /* \"#utility.yul\":6439:6442   */\n      dup4\n        /* \"#utility.yul\":6380:6447   */\n      tag_136\n      jump\t// in\n    tag_225:\n        /* \"#utility.yul\":6373:6447   */\n      swap2\n      pop\n        /* \"#utility.yul\":6456:6549   */\n      tag_226\n        /* \"#utility.yul\":6545:6548   */\n      dup3\n        /* \"#utility.yul\":6456:6549   */\n      tag_144\n      jump\t// in\n    tag_226:\n        /* \"#utility.yul\":6574:6576   */\n      0x20\n        /* \"#utility.yul\":6569:6572   */\n      dup3\n        /* \"#utility.yul\":6565:6577   */\n      add\n        /* \"#utility.yul\":6558:6577   */\n      swap1\n      pop\n        /* \"#utility.yul\":6217:6583   */\n      swap2\n      swap1\n      pop\n      jump\t// out\n        /* \"#utility.yul\":6589:7008   */\n    tag_53:\n        /* \"#utility.yul\":6755:6759   */\n      0x00\n        /* \"#utility.yul\":6793:6795   */\n      0x20\n        /* \"#utility.yul\":6782:6791   */\n      dup3\n        /* \"#utility.yul\":6778:6796   */\n      add\n        /* \"#utility.yul\":6770:6796   */\n      swap1\n      pop\n        /* \"#utility.yul\":6842:6851   */\n      dup2\n        /* \"#utility.yul\":6836:6840   */\n      dup2\n        /* \"#utility.yul\":6832:6852   */\n      sub\n        /* \"#utility.yul\":6828:6829   */\n      0x00\n        /* \"#utility.yul\":6817:6826   */\n      dup4\n        /* \"#utility.yul\":6813:6830   */\n      add\n        /* \"#utility.yul\":6806:6853   */\n      mstore\n        /* \"#utility.yul\":6870:7001   */\n      tag_228\n        /* \"#utility.yul\":6996:7000   */\n      dup2\n        /* \"#utility.yul\":6870:7001   */\n      tag_145\n      jump\t// in\n    tag_228:\n        /* \"#utility.yul\":6862:7001   */\n      swap1\n      pop\n        /* \"#utility.yul\":6589:7008   */\n      swap2\n      swap1\n      pop\n      jump\t// out\n        /* \"#utility.yul\":7014:7346   */\n    tag_55:\n        /* \"#utility.yul\":7135:7139   */\n      0x00\n        /* \"#utility.yul\":7173:7175   */\n      0x40\n        /* \"#utility.yul\":7162:7171   */\n      dup3\n        /* \"#utility.yul\":7158:7176   */\n      add\n        /* \"#utility.yul\":7150:7176   */\n      swap1\n      pop\n        /* \"#utility.yul\":7186:7257   */\n      tag_230\n        /* \"#utility.yul\":7254:7255   */\n      0x00\n        /* \"#utility.yul\":7243:7252   */\n      dup4\n        /* \"#utility.yul\":7239:7256   */\n      add\n        /* \"#utility.yul\":7230:7236   */\n      dup6\n        /* \"#utility.yul\":7186:7257   */\n      tag_128\n      jump\t// in\n    tag_230:\n        /* \"#utility.yul\":7267:7339   */\n      tag_231\n        /* \"#utility.yul\":7335:7337   */\n      0x20\n        /* \"#utility.yul\":7324:7333   */\n      dup4\n        /* \"#utility.yul\":7320:7338   */\n      add\n        /* \"#utility.yul\":7311:7317   */\n      dup5\n        /* \"#utility.yul\":7267:7339   */\n      tag_130\n      jump\t// in\n    tag_231:\n        /* \"#utility.yul\":7014:7346   */\n      swap4\n      swap3\n      pop\n      pop\n      pop\n      jump\t// out\n        /* \"#utility.yul\":7352:7442   */\n    tag_146:\n        /* \"#utility.yul\":7386:7393   */\n      0x00\n        /* \"#utility.yul\":7429:7434   */\n      dup2\n        /* \"#utility.yul\":7422:7435   */\n      iszero\n        /* \"#utility.yul\":7415:7436   */\n      iszero\n        /* \"#utility.yul\":7404:7436   */\n      swap1\n      pop\n        /* \"#utility.yul\":7352:7442   */\n      swap2\n      swap1\n      pop\n      jump\t// out\n        /* \"#utility.yul\":7448:7564   */\n    tag_147:\n        /* \"#utility.yul\":7518:7539   */\n      tag_234\n        /* \"#utility.yul\":7533:7538   */\n      dup2\n        /* \"#utility.yul\":7518:7539   */\n      tag_146\n      jump\t// in\n    tag_234:\n        /* \"#utility.yul\":7511:7516   */\n      dup2\n        /* \"#utility.yul\":7508:7540   */\n      eq\n        /* \"#utility.yul\":7498:7558   */\n      tag_235\n      jumpi\n        /* \"#utility.yul\":7554:7555   */\n      0x00\n        /* \"#utility.yul\":7551:7552   */\n      dup1\n        /* \"#utility.yul\":7544:7556   */\n      revert\n        /* \"#utility.yul\":7498:7558   */\n    tag_235:\n        /* \"#utility.yul\":7448:7564   */\n      pop\n      jump\t// out\n        /* \"#utility.yul\":7570:7707   */\n    tag_148:\n        /* \"#utility.yul\":7624:7629   */\n      0x00\n        /* \"#utility.yul\":7655:7661   */\n      dup2\n        /* \"#utility.yul\":7649:7662   */\n      mload\n        /* \"#utility.yul\":7640:7662   */\n      swap1\n      pop\n        /* \"#utility.yul\":7671:7701   */\n      tag_237\n        /* \"#utility.yul\":7695:7700   */\n      dup2\n        /* \"#utility.yul\":7671:7701   */\n      tag_147\n      jump\t// in\n    tag_237:\n        /* \"#utility.yul\":7570:7707   */\n      swap3\n      swap2\n      pop\n      pop\n      jump\t// out\n        /* \"#utility.yul\":7713:8058   */\n    tag_59:\n        /* \"#utility.yul\":7780:7786   */\n      0x00\n        /* \"#utility.yul\":7829:7831   */\n      0x20\n        /* \"#utility.yul\":7817:7826   */\n      dup3\n        /* \"#utility.yul\":7808:7815   */\n      dup5\n        /* \"#utility.yul\":7804:7827   */\n      sub\n        /* \"#utility.yul\":7800:7832   */\n      slt\n        /* \"#utility.yul\":7797:7916   */\n      iszero\n      tag_239\n      jumpi\n        /* \"#utility.yul\":7835:7914   */\n      tag_240\n      tag_132\n      jump\t// in\n    tag_240:\n        /* \"#utility.yul\":7797:7916   */\n    tag_239:\n        /* \"#utility.yul\":7955:7956   */\n      0x00\n        /* \"#utility.yul\":7980:8041   */\n      tag_241\n        /* \"#utility.yul\":8033:8040   */\n      dup5\n        /* \"#utility.yul\":8024:8030   */\n      dup3\n        /* \"#utility.yul\":8013:8022   */\n      dup6\n        /* \"#utility.yul\":8009:8031   */\n      add\n        /* \"#utility.yul\":7980:8041   */\n      tag_148\n      jump\t// in\n    tag_241:\n        /* \"#utility.yul\":7970:8041   */\n      swap2\n      pop\n        /* \"#utility.yul\":7926:8051   */\n      pop\n        /* \"#utility.yul\":7713:8058   */\n      swap3\n      swap2\n      pop\n      pop\n      jump\t// out\n        /* \"#utility.yul\":8064:8412   */\n    tag_68:\n        /* \"#utility.yul\":8104:8111   */\n      0x00\n        /* \"#utility.yul\":8127:8147   */\n      tag_243\n        /* \"#utility.yul\":8145:8146   */\n      dup3\n        /* \"#utility.yul\":8127:8147   */\n      tag_129\n      jump\t// in\n    tag_243:\n        /* \"#utility.yul\":8122:8147   */\n      swap2\n      pop\n        /* \"#utility.yul\":8161:8181   */\n      tag_244\n        /* \"#utility.yul\":8179:8180   */\n      dup4\n        /* \"#utility.yul\":8161:8181   */\n      tag_129\n      jump\t// in\n    tag_244:\n        /* \"#utility.yul\":8156:8181   */\n      swap3\n      pop\n        /* \"#utility.yul\":8349:8350   */\n      dup2\n        /* \"#utility.yul\":8281:8347   */\n      0xffffffffffffffffffffffffffffffffffffffffffffffffffffffffffffffff\n        /* \"#utility.yul\":8277:8351   */\n      div\n        /* \"#utility.yul\":8274:8275   */\n      dup4\n        /* \"#utility.yul\":8271:8352   */\n      gt\n        /* \"#utility.yul\":8266:8267   */\n      dup3\n        /* \"#utility.yul\":8259:8268   */\n      iszero\n        /* \"#utility.yul\":8252:8269   */\n      iszero\n        /* \"#utility.yul\":8248:8353   */\n      and\n        /* \"#utility.yul\":8245:8376   */\n      iszero\n      tag_245\n      jumpi\n        /* \"#utility.yul\":8356:8374   */\n      tag_246\n      tag_143\n      jump\t// in\n    tag_246:\n        /* \"#utility.yul\":8245:8376   */\n    tag_245:\n        /* \"#utility.yul\":8404:8405   */\n      dup3\n        /* \"#utility.yul\":8401:8402   */\n      dup3\n        /* \"#utility.yul\":8397:8406   */\n      mul\n        /* \"#utility.yul\":8386:8406   */\n      swap1\n      pop\n        /* \"#utility.yul\":8064:8412   */\n      swap3\n      swap2\n      pop\n      pop\n      jump\t// out\n        /* \"#utility.yul\":8418:8750   */\n    tag_71:\n        /* \"#utility.yul\":8539:8543   */\n      0x00\n        /* \"#utility.yul\":8577:8579   */\n      0x40\n        /* \"#utility.yul\":8566:8575   */\n      dup3\n        /* \"#utility.yul\":8562:8580   */\n      add\n        /* \"#utility.yul\":8554:8580   */\n      swap1\n      pop\n        /* \"#utility.yul\":8590:8661   */\n      tag_248\n        /* \"#utility.yul\":8658:8659   */\n      0x00\n        /* \"#utility.yul\":8647:8656   */\n      dup4\n        /* \"#utility.yul\":8643:8660   */\n      add\n        /* \"#utility.yul\":8634:8640   */\n      dup6\n        /* \"#utility.yul\":8590:8661   */\n      tag_130\n      jump\t// in\n    tag_248:\n        /* \"#utility.yul\":8671:8743   */\n      tag_249\n        /* \"#utility.yul\":8739:8741   */\n      0x20\n        /* \"#utility.yul\":8728:8737   */\n      dup4\n        /* \"#utility.yul\":8724:8742   */\n      add\n        /* \"#utility.yul\":8715:8721   */\n      dup5\n        /* \"#utility.yul\":8671:8743   */\n      tag_130\n      jump\t// in\n    tag_249:\n        /* \"#utility.yul\":8418:8750   */\n      swap4\n      swap3\n      pop\n      pop\n      pop\n      jump\t// out\n        /* \"#utility.yul\":8756:8980   */\n    tag_149:\n        /* \"#utility.yul\":8896:8930   */\n      0x49444f2048617320206e6f7420656e6465642c20636c61696d20756e61766169\n        /* \"#utility.yul\":8892:8893   */\n      0x00\n        /* \"#utility.yul\":8884:8890   */\n      dup3\n        /* \"#utility.yul\":8880:8894   */\n      add\n        /* \"#utility.yul\":8873:8931   */\n      mstore\n        /* \"#utility.yul\":8965:8972   */\n      0x6c61626c65000000000000000000000000000000000000000000000000000000\n        /* \"#utility.yul\":8960:8962   */\n      0x20\n        /* \"#utility.yul\":8952:8958   */\n      dup3\n        /* \"#utility.yul\":8948:8963   */\n      add\n        /* \"#utility.yul\":8941:8973   */\n      mstore\n        /* \"#utility.yul\":8756:8980   */\n      pop\n      jump\t// out\n        /* \"#utility.yul\":8986:9352   */\n    tag_150:\n        /* \"#utility.yul\":9128:9131   */\n      0x00\n        /* \"#utility.yul\":9149:9216   */\n      tag_252\n        /* \"#utility.yul\":9213:9215   */\n      0x25\n        /* \"#utility.yul\":9208:9211   */\n      dup4\n        /* \"#utility.yul\":9149:9216   */\n      tag_136\n      jump\t// in\n    tag_252:\n        /* \"#utility.yul\":9142:9216   */\n      swap2\n      pop\n        /* \"#utility.yul\":9225:9318   */\n      tag_253\n        /* \"#utility.yul\":9314:9317   */\n      dup3\n        /* \"#utility.yul\":9225:9318   */\n      tag_149\n      jump\t// in\n    tag_253:\n        /* \"#utility.yul\":9343:9345   */\n      0x40\n        /* \"#utility.yul\":9338:9341   */\n      dup3\n        /* \"#utility.yul\":9334:9346   */\n      add\n        /* \"#utility.yul\":9327:9346   */\n      swap1\n      pop\n        /* \"#utility.yul\":8986:9352   */\n      swap2\n      swap1\n      pop\n      jump\t// out\n        /* \"#utility.yul\":9358:9777   */\n    tag_78:\n        /* \"#utility.yul\":9524:9528   */\n      0x00\n        /* \"#utility.yul\":9562:9564   */\n      0x20\n        /* \"#utility.yul\":9551:9560   */\n      dup3\n        /* \"#utility.yul\":9547:9565   */\n      add\n        /* \"#utility.yul\":9539:9565   */\n      swap1\n      pop\n        /* \"#utility.yul\":9611:9620   */\n      dup2\n        /* \"#utility.yul\":9605:9609   */\n      dup2\n        /* \"#utility.yul\":9601:9621   */\n      sub\n        /* \"#utility.yul\":9597:9598   */\n      0x00\n        /* \"#utility.yul\":9586:9595   */\n      dup4\n        /* \"#utility.yul\":9582:9599   */\n      add\n        /* \"#utility.yul\":9575:9622   */\n      mstore\n        /* \"#utility.yul\":9639:9770   */\n      tag_255\n        /* \"#utility.yul\":9765:9769   */\n      dup2\n        /* \"#utility.yul\":9639:9770   */\n      tag_150\n      jump\t// in\n    tag_255:\n        /* \"#utility.yul\":9631:9770   */\n      swap1\n      pop\n        /* \"#utility.yul\":9358:9777   */\n      swap2\n      swap1\n      pop\n      jump\t// out\n        /* \"#utility.yul\":9783:9941   */\n    tag_151:\n        /* \"#utility.yul\":9923:9933   */\n      0x796f752064696420000000000000000000000000000000000000000000000000\n        /* \"#utility.yul\":9919:9920   */\n      0x00\n        /* \"#utility.yul\":9911:9917   */\n      dup3\n        /* \"#utility.yul\":9907:9921   */\n      add\n        /* \"#utility.yul\":9900:9934   */\n      mstore\n        /* \"#utility.yul\":9783:9941   */\n      pop\n      jump\t// out\n        /* \"#utility.yul\":9947:10312   */\n    tag_152:\n        /* \"#utility.yul\":10089:10092   */\n      0x00\n        /* \"#utility.yul\":10110:10176   */\n      tag_258\n        /* \"#utility.yul\":10174:10175   */\n      0x08\n        /* \"#utility.yul\":10169:10172   */\n      dup4\n        /* \"#utility.yul\":10110:10176   */\n      tag_136\n      jump\t// in\n    tag_258:\n        /* \"#utility.yul\":10103:10176   */\n      swap2\n      pop\n        /* \"#utility.yul\":10185:10278   */\n      tag_259\n        /* \"#utility.yul\":10274:10277   */\n      dup3\n        /* \"#utility.yul\":10185:10278   */\n      tag_151\n      jump\t// in\n    tag_259:\n        /* \"#utility.yul\":10303:10305   */\n      0x20\n        /* \"#utility.yul\":10298:10301   */\n      dup3\n        /* \"#utility.yul\":10294:10306   */\n      add\n        /* \"#utility.yul\":10287:10306   */\n      swap1\n      pop\n        /* \"#utility.yul\":9947:10312   */\n      swap2\n      swap1\n      pop\n      jump\t// out\n        /* \"#utility.yul\":10318:10737   */\n    tag_81:\n        /* \"#utility.yul\":10484:10488   */\n      0x00\n        /* \"#utility.yul\":10522:10524   */\n      0x20\n        /* \"#utility.yul\":10511:10520   */\n      dup3\n        /* \"#utility.yul\":10507:10525   */\n      add\n        /* \"#utility.yul\":10499:10525   */\n      swap1\n      pop\n        /* \"#utility.yul\":10571:10580   */\n      dup2\n        /* \"#utility.yul\":10565:10569   */\n      dup2\n        /* \"#utility.yul\":10561:10581   */\n      sub\n        /* \"#utility.yul\":10557:10558   */\n      0x00\n        /* \"#utility.yul\":10546:10555   */\n      dup4\n        /* \"#utility.yul\":10542:10559   */\n      add\n        /* \"#utility.yul\":10535:10582   */\n      mstore\n        /* \"#utility.yul\":10599:10730   */\n      tag_261\n        /* \"#utility.yul\":10725:10729   */\n      dup2\n        /* \"#utility.yul\":10599:10730   */\n      tag_152\n      jump\t// in\n    tag_261:\n        /* \"#utility.yul\":10591:10730   */\n      swap1\n      pop\n        /* \"#utility.yul\":10318:10737   */\n      swap2\n      swap1\n      pop\n      jump\t// out\n        /* \"#utility.yul\":10743:10902   */\n    tag_153:\n        /* \"#utility.yul\":10883:10894   */\n      0x49434f206973206f6e0000000000000000000000000000000000000000000000\n        /* \"#utility.yul\":10879:10880   */\n      0x00\n        /* \"#utility.yul\":10871:10877   */\n      dup3\n        /* \"#utility.yul\":10867:10881   */\n      add\n        /* \"#utility.yul\":10860:10895   */\n      mstore\n        /* \"#utility.yul\":10743:10902   */\n      pop\n      jump\t// out\n        /* \"#utility.yul\":10908:11273   */\n    tag_154:\n        /* \"#utility.yul\":11050:11053   */\n      0x00\n        /* \"#utility.yul\":11071:11137   */\n      tag_264\n        /* \"#utility.yul\":11135:11136   */\n      0x09\n        /* \"#utility.yul\":11130:11133   */\n      dup4\n        /* \"#utility.yul\":11071:11137   */\n      tag_136\n      jump\t// in\n    tag_264:\n        /* \"#utility.yul\":11064:11137   */\n      swap2\n      pop\n        /* \"#utility.yul\":11146:11239   */\n      tag_265\n        /* \"#utility.yul\":11235:11238   */\n      dup3\n        /* \"#utility.yul\":11146:11239   */\n      tag_153\n      jump\t// in\n    tag_265:\n        /* \"#utility.yul\":11264:11266   */\n      0x20\n        /* \"#utility.yul\":11259:11262   */\n      dup3\n        /* \"#utility.yul\":11255:11267   */\n      add\n        /* \"#utility.yul\":11248:11267   */\n      swap1\n      pop\n        /* \"#utility.yul\":10908:11273   */\n      swap2\n      swap1\n      pop\n      jump\t// out\n        /* \"#utility.yul\":11279:11698   */\n    tag_85:\n        /* \"#utility.yul\":11445:11449   */\n      0x00\n        /* \"#utility.yul\":11483:11485   */\n      0x20\n        /* \"#utility.yul\":11472:11481   */\n      dup3\n        /* \"#utility.yul\":11468:11486   */\n      add\n        /* \"#utility.yul\":11460:11486   */\n      swap1\n      pop\n        /* \"#utility.yul\":11532:11541   */\n      dup2\n        /* \"#utility.yul\":11526:11530   */\n      dup2\n        /* \"#utility.yul\":11522:11542   */\n      sub\n        /* \"#utility.yul\":11518:11519   */\n      0x00\n        /* \"#utility.yul\":11507:11516   */\n      dup4\n        /* \"#utility.yul\":11503:11520   */\n      add\n        /* \"#utility.yul\":11496:11543   */\n      mstore\n        /* \"#utility.yul\":11560:11691   */\n      tag_267\n        /* \"#utility.yul\":11686:11690   */\n      dup2\n        /* \"#utility.yul\":11560:11691   */\n      tag_154\n      jump\t// in\n    tag_267:\n        /* \"#utility.yul\":11552:11691   */\n      swap1\n      pop\n        /* \"#utility.yul\":11279:11698   */\n      swap2\n      swap1\n      pop\n      jump\t// out\n        /* \"#utility.yul\":11704:12146   */\n    tag_89:\n        /* \"#utility.yul\":11853:11857   */\n      0x00\n        /* \"#utility.yul\":11891:11893   */\n      0x60\n        /* \"#utility.yul\":11880:11889   */\n      dup3\n        /* \"#utility.yul\":11876:11894   */\n      add\n        /* \"#utility.yul\":11868:11894   */\n      swap1\n      pop\n        /* \"#utility.yul\":11904:11975   */\n      tag_269\n        /* \"#utility.yul\":11972:11973   */\n      0x00\n        /* \"#utility.yul\":11961:11970   */\n      dup4\n        /* \"#utility.yul\":11957:11974   */\n      add\n        /* \"#utility.yul\":11948:11954   */\n      dup7\n        /* \"#utility.yul\":11904:11975   */\n      tag_128\n      jump\t// in\n    tag_269:\n        /* \"#utility.yul\":11985:12057   */\n      tag_270\n        /* \"#utility.yul\":12053:12055   */\n      0x20\n        /* \"#utility.yul\":12042:12051   */\n      dup4\n        /* \"#utility.yul\":12038:12056   */\n      add\n        /* \"#utility.yul\":12029:12035   */\n      dup6\n        /* \"#utility.yul\":11985:12057   */\n      tag_128\n      jump\t// in\n    tag_270:\n        /* \"#utility.yul\":12067:12139   */\n      tag_271\n        /* \"#utility.yul\":12135:12137   */\n      0x40\n        /* \"#utility.yul\":12124:12133   */\n      dup4\n        /* \"#utility.yul\":12120:12138   */\n      add\n        /* \"#utility.yul\":12111:12117   */\n      dup5\n        /* \"#utility.yul\":12067:12139   */\n      tag_130\n      jump\t// in\n    tag_271:\n        /* \"#utility.yul\":11704:12146   */\n      swap5\n      swap4\n      pop\n      pop\n      pop\n      pop\n      jump\t// out\n        /* \"#utility.yul\":12152:12381   */\n    tag_155:\n        /* \"#utility.yul\":12292:12326   */\n      0x5361666545524332303a204552433230206f7065726174696f6e20646964206e\n        /* \"#utility.yul\":12288:12289   */\n      0x00\n        /* \"#utility.yul\":12280:12286   */\n      dup3\n        /* \"#utility.yul\":12276:12290   */\n      add\n        /* \"#utility.yul\":12269:12327   */\n      mstore\n        /* \"#utility.yul\":12361:12373   */\n      0x6f74207375636365656400000000000000000000000000000000000000000000\n        /* \"#utility.yul\":12356:12358   */\n      0x20\n        /* \"#utility.yul\":12348:12354   */\n      dup3\n        /* \"#utility.yul\":12344:12359   */\n      add\n        /* \"#utility.yul\":12337:12374   */\n      mstore\n        /* \"#utility.yul\":12152:12381   */\n      pop\n      jump\t// out\n        /* \"#utility.yul\":12387:12753   */\n    tag_156:\n        /* \"#utility.yul\":12529:12532   */\n      0x00\n        /* \"#utility.yul\":12550:12617   */\n      tag_274\n        /* \"#utility.yul\":12614:12616   */\n      0x2a\n        /* \"#utility.yul\":12609:12612   */\n      dup4\n        /* \"#utility.yul\":12550:12617   */\n      tag_136\n      jump\t// in\n    tag_274:\n        /* \"#utility.yul\":12543:12617   */\n      swap2\n      pop\n        /* \"#utility.yul\":12626:12719   */\n      tag_275\n        /* \"#utility.yul\":12715:12718   */\n      dup3\n        /* \"#utility.yul\":12626:12719   */\n      tag_155\n      jump\t// in\n    tag_275:\n        /* \"#utility.yul\":12744:12746   */\n      0x40\n        /* \"#utility.yul\":12739:12742   */\n      dup3\n        /* \"#utility.yul\":12735:12747   */\n      add\n        /* \"#utility.yul\":12728:12747   */\n      swap1\n      pop\n        /* \"#utility.yul\":12387:12753   */\n      swap2\n      swap1\n      pop\n      jump\t// out\n        /* \"#utility.yul\":12759:13178   */\n    tag_98:\n        /* \"#utility.yul\":12925:12929   */\n      0x00\n        /* \"#utility.yul\":12963:12965   */\n      0x20\n        /* \"#utility.yul\":12952:12961   */\n      dup3\n        /* \"#utility.yul\":12948:12966   */\n      add\n        /* \"#utility.yul\":12940:12966   */\n      swap1\n      pop\n        /* \"#utility.yul\":13012:13021   */\n      dup2\n        /* \"#utility.yul\":13006:13010   */\n      dup2\n        /* \"#utility.yul\":13002:13022   */\n      sub\n        /* \"#utility.yul\":12998:12999   */\n      0x00\n        /* \"#utility.yul\":12987:12996   */\n      dup4\n        /* \"#utility.yul\":12983:13000   */\n      add\n        /* \"#utility.yul\":12976:13023   */\n      mstore\n        /* \"#utility.yul\":13040:13171   */\n      tag_277\n        /* \"#utility.yul\":13166:13170   */\n      dup2\n        /* \"#utility.yul\":13040:13171   */\n      tag_156\n      jump\t// in\n    tag_277:\n        /* \"#utility.yul\":13032:13171   */\n      swap1\n      pop\n        /* \"#utility.yul\":12759:13178   */\n      swap2\n      swap1\n      pop\n      jump\t// out\n        /* \"#utility.yul\":13184:13409   */\n    tag_157:\n        /* \"#utility.yul\":13324:13358   */\n      0x416464726573733a20696e73756666696369656e742062616c616e636520666f\n        /* \"#utility.yul\":13320:13321   */\n      0x00\n        /* \"#utility.yul\":13312:13318   */\n      dup3\n        /* \"#utility.yul\":13308:13322   */\n      add\n        /* \"#utility.yul\":13301:13359   */\n      mstore\n        /* \"#utility.yul\":13393:13401   */\n      0x722063616c6c0000000000000000000000000000000000000000000000000000\n        /* \"#utility.yul\":13388:13390   */\n      0x20\n        /* \"#utility.yul\":13380:13386   */\n      dup3\n        /* \"#utility.yul\":13376:13391   */\n      add\n        /* \"#utility.yul\":13369:13402   */\n      mstore\n        /* \"#utility.yul\":13184:13409   */\n      pop\n      jump\t// out\n        /* \"#utility.yul\":13415:13781   */\n    tag_158:\n        /* \"#utility.yul\":13557:13560   */\n      0x00\n        /* \"#utility.yul\":13578:13645   */\n      tag_280\n        /* \"#utility.yul\":13642:13644   */\n      0x26\n        /* \"#utility.yul\":13637:13640   */\n      dup4\n        /* \"#utility.yul\":13578:13645   */\n      tag_136\n      jump\t// in\n    tag_280:\n        /* \"#utility.yul\":13571:13645   */\n      swap2\n      pop\n        /* \"#utility.yul\":13654:13747   */\n      tag_281\n        /* \"#utility.yul\":13743:13746   */\n      dup3\n        /* \"#utility.yul\":13654:13747   */\n      tag_157\n      jump\t// in\n    tag_281:\n        /* \"#utility.yul\":13772:13774   */\n      0x40\n        /* \"#utility.yul\":13767:13770   */\n      dup3\n        /* \"#utility.yul\":13763:13775   */\n      add\n        /* \"#utility.yul\":13756:13775   */\n      swap1\n      pop\n        /* \"#utility.yul\":13415:13781   */\n      swap2\n      swap1\n      pop\n      jump\t// out\n        /* \"#utility.yul\":13787:14206   */\n    tag_105:\n        /* \"#utility.yul\":13953:13957   */\n      0x00\n        /* \"#utility.yul\":13991:13993   */\n      0x20\n        /* \"#utility.yul\":13980:13989   */\n      dup3\n        /* \"#utility.yul\":13976:13994   */\n      add\n        /* \"#utility.yul\":13968:13994   */\n      swap1\n      pop\n        /* \"#utility.yul\":14040:14049   */\n      dup2\n        /* \"#utility.yul\":14034:14038   */\n      dup2\n        /* \"#utility.yul\":14030:14050   */\n      sub\n        /* \"#utility.yul\":14026:14027   */\n      0x00\n        /* \"#utility.yul\":14015:14024   */\n      dup4\n        /* \"#utility.yul\":14011:14028   */\n      add\n        /* \"#utility.yul\":14004:14051   */\n      mstore\n        /* \"#utility.yul\":14068:14199   */\n      tag_283\n        /* \"#utility.yul\":14194:14198   */\n      dup2\n        /* \"#utility.yul\":14068:14199   */\n      tag_158\n      jump\t// in\n    tag_283:\n        /* \"#utility.yul\":14060:14199   */\n      swap1\n      pop\n        /* \"#utility.yul\":13787:14206   */\n      swap2\n      swap1\n      pop\n      jump\t// out\n        /* \"#utility.yul\":14212:14391   */\n    tag_159:\n        /* \"#utility.yul\":14352:14383   */\n      0x416464726573733a2063616c6c20746f206e6f6e2d636f6e7472616374000000\n        /* \"#utility.yul\":14348:14349   */\n      0x00\n        /* \"#utility.yul\":14340:14346   */\n      dup3\n        /* \"#utility.yul\":14336:14350   */\n      add\n        /* \"#utility.yul\":14329:14384   */\n      mstore\n        /* \"#utility.yul\":14212:14391   */\n      pop\n      jump\t// out\n        /* \"#utility.yul\":14397:14763   */\n    tag_160:\n        /* \"#utility.yul\":14539:14542   */\n      0x00\n        /* \"#utility.yul\":14560:14627   */\n      tag_286\n        /* \"#utility.yul\":14624:14626   */\n      0x1d\n        /* \"#utility.yul\":14619:14622   */\n      dup4\n        /* \"#utility.yul\":14560:14627   */\n      tag_136\n      jump\t// in\n    tag_286:\n        /* \"#utility.yul\":14553:14627   */\n      swap2\n      pop\n        /* \"#utility.yul\":14636:14729   */\n      tag_287\n        /* \"#utility.yul\":14725:14728   */\n      dup3\n        /* \"#utility.yul\":14636:14729   */\n      tag_159\n      jump\t// in\n    tag_287:\n        /* \"#utility.yul\":14754:14756   */\n      0x20\n        /* \"#utility.yul\":14749:14752   */\n      dup3\n        /* \"#utility.yul\":14745:14757   */\n      add\n        /* \"#utility.yul\":14738:14757   */\n      swap1\n      pop\n        /* \"#utility.yul\":14397:14763   */\n      swap2\n      swap1\n      pop\n      jump\t// out\n        /* \"#utility.yul\":14769:15188   */\n    tag_110:\n        /* \"#utility.yul\":14935:14939   */\n      0x00\n        /* \"#utility.yul\":14973:14975   */\n      0x20\n        /* \"#utility.yul\":14962:14971   */\n      dup3\n        /* \"#utility.yul\":14958:14976   */\n      add\n        /* \"#utility.yul\":14950:14976   */\n      swap1\n      pop\n        /* \"#utility.yul\":15022:15031   */\n      dup2\n        /* \"#utility.yul\":15016:15020   */\n      dup2\n        /* \"#utility.yul\":15012:15032   */\n      sub\n        /* \"#utility.yul\":15008:15009   */\n      0x00\n        /* \"#utility.yul\":14997:15006   */\n      dup4\n        /* \"#utility.yul\":14993:15010   */\n      add\n        /* \"#utility.yul\":14986:15033   */\n      mstore\n        /* \"#utility.yul\":15050:15181   */\n      tag_289\n        /* \"#utility.yul\":15176:15180   */\n      dup2\n        /* \"#utility.yul\":15050:15181   */\n      tag_160\n      jump\t// in\n    tag_289:\n        /* \"#utility.yul\":15042:15181   */\n      swap1\n      pop\n        /* \"#utility.yul\":14769:15188   */\n      swap2\n      swap1\n      pop\n      jump\t// out\n        /* \"#utility.yul\":15194:15292   */\n    tag_161:\n        /* \"#utility.yul\":15245:15251   */\n      0x00\n        /* \"#utility.yul\":15279:15284   */\n      dup2\n        /* \"#utility.yul\":15273:15285   */\n      mload\n        /* \"#utility.yul\":15263:15285   */\n      swap1\n      pop\n        /* \"#utility.yul\":15194:15292   */\n      swap2\n      swap1\n      pop\n      jump\t// out\n        /* \"#utility.yul\":15298:15445   */\n    tag_162:\n        /* \"#utility.yul\":15399:15410   */\n      0x00\n        /* \"#utility.yul\":15436:15439   */\n      dup2\n        /* \"#utility.yul\":15421:15439   */\n      swap1\n      pop\n        /* \"#utility.yul\":15298:15445   */\n      swap3\n      swap2\n      pop\n      pop\n      jump\t// out\n        /* \"#utility.yul\":15451:15758   */\n    tag_163:\n        /* \"#utility.yul\":15519:15520   */\n      0x00\n        /* \"#utility.yul\":15529:15642   */\n    tag_293:\n        /* \"#utility.yul\":15543:15549   */\n      dup4\n        /* \"#utility.yul\":15540:15541   */\n      dup2\n        /* \"#utility.yul\":15537:15550   */\n      lt\n        /* \"#utility.yul\":15529:15642   */\n      iszero\n      tag_295\n      jumpi\n        /* \"#utility.yul\":15628:15629   */\n      dup1\n        /* \"#utility.yul\":15623:15626   */\n      dup3\n        /* \"#utility.yul\":15619:15630   */\n      add\n        /* \"#utility.yul\":15613:15631   */\n      mload\n        /* \"#utility.yul\":15609:15610   */\n      dup2\n        /* \"#utility.yul\":15604:15607   */\n      dup5\n        /* \"#utility.yul\":15600:15611   */\n      add\n        /* \"#utility.yul\":15593:15632   */\n      mstore\n        /* \"#utility.yul\":15565:15567   */\n      0x20\n        /* \"#utility.yul\":15562:15563   */\n      dup2\n        /* \"#utility.yul\":15558:15568   */\n      add\n        /* \"#utility.yul\":15553:15568   */\n      swap1\n      pop\n        /* \"#utility.yul\":15529:15642   */\n      jump(tag_293)\n    tag_295:\n        /* \"#utility.yul\":15660:15666   */\n      dup4\n        /* \"#utility.yul\":15657:15658   */\n      dup2\n        /* \"#utility.yul\":15654:15667   */\n      gt\n        /* \"#utility.yul\":15651:15752   */\n      iszero\n      tag_296\n      jumpi\n        /* \"#utility.yul\":15740:15741   */\n      0x00\n        /* \"#utility.yul\":15731:15737   */\n      dup5\n        /* \"#utility.yul\":15726:15729   */\n      dup5\n        /* \"#utility.yul\":15722:15738   */\n      add\n        /* \"#utility.yul\":15715:15742   */\n      mstore\n        /* \"#utility.yul\":15651:15752   */\n    tag_296:\n        /* \"#utility.yul\":15500:15758   */\n      pop\n        /* \"#utility.yul\":15451:15758   */\n      pop\n      pop\n      pop\n      jump\t// out\n        /* \"#utility.yul\":15764:16137   */\n    tag_164:\n        /* \"#utility.yul\":15868:15871   */\n      0x00\n        /* \"#utility.yul\":15896:15934   */\n      tag_298\n        /* \"#utility.yul\":15928:15933   */\n      dup3\n        /* \"#utility.yul\":15896:15934   */\n      tag_161\n      jump\t// in\n    tag_298:\n        /* \"#utility.yul\":15950:16038   */\n      tag_299\n        /* \"#utility.yul\":16031:16037   */\n      dup2\n        /* \"#utility.yul\":16026:16029   */\n      dup6\n        /* \"#utility.yul\":15950:16038   */\n      tag_162\n      jump\t// in\n    tag_299:\n        /* \"#utility.yul\":15943:16038   */\n      swap4\n      pop\n        /* \"#utility.yul\":16047:16099   */\n      tag_300\n        /* \"#utility.yul\":16092:16098   */\n      dup2\n        /* \"#utility.yul\":16087:16090   */\n      dup6\n        /* \"#utility.yul\":16080:16084   */\n      0x20\n        /* \"#utility.yul\":16073:16078   */\n      dup7\n        /* \"#utility.yul\":16069:16085   */\n      add\n        /* \"#utility.yul\":16047:16099   */\n      tag_163\n      jump\t// in\n    tag_300:\n        /* \"#utility.yul\":16124:16130   */\n      dup1\n        /* \"#utility.yul\":16119:16122   */\n      dup5\n        /* \"#utility.yul\":16115:16131   */\n      add\n        /* \"#utility.yul\":16108:16131   */\n      swap2\n      pop\n        /* \"#utility.yul\":15872:16137   */\n      pop\n        /* \"#utility.yul\":15764:16137   */\n      swap3\n      swap2\n      pop\n      pop\n      jump\t// out\n        /* \"#utility.yul\":16143:16414   */\n    tag_112:\n        /* \"#utility.yul\":16273:16276   */\n      0x00\n        /* \"#utility.yul\":16295:16388   */\n      tag_302\n        /* \"#utility.yul\":16384:16387   */\n      dup3\n        /* \"#utility.yul\":16375:16381   */\n      dup5\n        /* \"#utility.yul\":16295:16388   */\n      tag_164\n      jump\t// in\n    tag_302:\n        /* \"#utility.yul\":16288:16388   */\n      swap2\n      pop\n        /* \"#utility.yul\":16405:16408   */\n      dup2\n        /* \"#utility.yul\":16398:16408   */\n      swap1\n      pop\n        /* \"#utility.yul\":16143:16414   */\n      swap3\n      swap2\n      pop\n      pop\n      jump\t// out\n        /* \"#utility.yul\":16420:16519   */\n    tag_165:\n        /* \"#utility.yul\":16472:16478   */\n      0x00\n        /* \"#utility.yul\":16506:16511   */\n      dup2\n        /* \"#utility.yul\":16500:16512   */\n      mload\n        /* \"#utility.yul\":16490:16512   */\n      swap1\n      pop\n        /* \"#utility.yul\":16420:16519   */\n      swap2\n      swap1\n      pop\n      jump\t// out\n        /* \"#utility.yul\":16525:16627   */\n    tag_166:\n        /* \"#utility.yul\":16566:16572   */\n      0x00\n        /* \"#utility.yul\":16617:16619   */\n      0x1f\n        /* \"#utility.yul\":16613:16620   */\n      not\n        /* \"#utility.yul\":16608:16610   */\n      0x1f\n        /* \"#utility.yul\":16601:16606   */\n      dup4\n        /* \"#utility.yul\":16597:16611   */\n      add\n        /* \"#utility.yul\":16593:16621   */\n      and\n        /* \"#utility.yul\":16583:16621   */\n      swap1\n      pop\n        /* \"#utility.yul\":16525:16627   */\n      swap2\n      swap1\n      pop\n      jump\t// out\n        /* \"#utility.yul\":16633:16997   */\n    tag_167:\n        /* \"#utility.yul\":16721:16724   */\n      0x00\n        /* \"#utility.yul\":16749:16788   */\n      tag_306\n        /* \"#utility.yul\":16782:16787   */\n      dup3\n        /* \"#utility.yul\":16749:16788   */\n      tag_165\n      jump\t// in\n    tag_306:\n        /* \"#utility.yul\":16804:16875   */\n      tag_307\n        /* \"#utility.yul\":16868:16874   */\n      dup2\n        /* \"#utility.yul\":16863:16866   */\n      dup6\n        /* \"#utility.yul\":16804:16875   */\n      tag_136\n      jump\t// in\n    tag_307:\n        /* \"#utility.yul\":16797:16875   */\n      swap4\n      pop\n        /* \"#utility.yul\":16884:16936   */\n      tag_308\n        /* \"#utility.yul\":16929:16935   */\n      dup2\n        /* \"#utility.yul\":16924:16927   */\n      dup6\n        /* \"#utility.yul\":16917:16921   */\n      0x20\n        /* \"#utility.yul\":16910:16915   */\n      dup7\n        /* \"#utility.yul\":16906:16922   */\n      add\n        /* \"#utility.yul\":16884:16936   */\n      tag_163\n      jump\t// in\n    tag_308:\n        /* \"#utility.yul\":16961:16990   */\n      tag_309\n        /* \"#utility.yul\":16983:16989   */\n      dup2\n        /* \"#utility.yul\":16961:16990   */\n      tag_166\n      jump\t// in\n    tag_309:\n        /* \"#utility.yul\":16956:16959   */\n      dup5\n        /* \"#utility.yul\":16952:16991   */\n      add\n        /* \"#utility.yul\":16945:16991   */\n      swap2\n      pop\n        /* \"#utility.yul\":16725:16997   */\n      pop\n        /* \"#utility.yul\":16633:16997   */\n      swap3\n      swap2\n      pop\n      pop\n      jump\t// out\n        /* \"#utility.yul\":17003:17316   */\n    tag_125:\n        /* \"#utility.yul\":17116:17120   */\n      0x00\n        /* \"#utility.yul\":17154:17156   */\n      0x20\n        /* \"#utility.yul\":17143:17152   */\n      dup3\n        /* \"#utility.yul\":17139:17157   */\n      add\n        /* \"#utility.yul\":17131:17157   */\n      swap1\n      pop\n        /* \"#utility.yul\":17203:17212   */\n      dup2\n        /* \"#utility.yul\":17197:17201   */\n      dup2\n        /* \"#utility.yul\":17193:17213   */\n      sub\n        /* \"#utility.yul\":17189:17190   */\n      0x00\n        /* \"#utility.yul\":17178:17187   */\n      dup4\n        /* \"#utility.yul\":17174:17191   */\n      add\n        /* \"#utility.yul\":17167:17214   */\n      mstore\n        /* \"#utility.yul\":17231:17309   */\n      tag_311\n        /* \"#utility.yul\":17304:17308   */\n      dup2\n        /* \"#utility.yul\":17295:17301   */\n      dup5\n        /* \"#utility.yul\":17231:17309   */\n      tag_167\n      jump\t// in\n    tag_311:\n        /* \"#utility.yul\":17223:17309   */\n      swap1\n      pop\n        /* \"#utility.yul\":17003:17316   */\n      swap3\n      swap2\n      pop\n      pop\n      jump\t// out\n\n    auxdata: 0xa2646970667358221220ff0cd9cfff8760ade8802bfa2000e81d067d168839916fc2ccfb01a2f15f9a9464736f6c634300080d0033\n}\n",
				"bytecode": {
					"linkReferences": {},
					"object": "60c06040523480156200001157600080fd5b506040516200168a3803806200168a8339818101604052810190620000379190620001cf565b600160008190555033600260006101000a81548173ffffffffffffffffffffffffffffffffffffffff021916908373ffffffffffffffffffffffffffffffffffffffff160217905550670de0b6b3a76400008462000096919062000270565b6001819055508273ffffffffffffffffffffffffffffffffffffffff1660808173ffffffffffffffffffffffffffffffffffffffff16815250508173ffffffffffffffffffffffffffffffffffffffff1660a08173ffffffffffffffffffffffffffffffffffffffff1681525050670de0b6b3a7640000816200011a919062000270565b60038190555050505050620002d1565b600080fd5b6000819050919050565b62000144816200012f565b81146200015057600080fd5b50565b600081519050620001648162000139565b92915050565b600073ffffffffffffffffffffffffffffffffffffffff82169050919050565b600062000197826200016a565b9050919050565b620001a9816200018a565b8114620001b557600080fd5b50565b600081519050620001c9816200019e565b92915050565b60008060008060808587031215620001ec57620001eb6200012a565b5b6000620001fc8782880162000153565b94505060206200020f87828801620001b8565b93505060406200022287828801620001b8565b9250506060620002358782880162000153565b91505092959194509250565b7f4e487b7100000000000000000000000000000000000000000000000000000000600052601160045260246000fd5b60006200027d826200012f565b91506200028a836200012f565b9250817fffffffffffffffffffffffffffffffffffffffffffffffffffffffffffffffff0483118215151615620002c657620002c562000241565b5b828202905092915050565b60805160a05161138562000305600039600061013f01526000818161030e015281816103b3015261058e01526113856000f3fe608060405234801561001057600080fd5b50600436106100885760003560e01c8063c3a174411161005b578063c3a17441146100ef578063c54e44eb1461010b578063d7997f7e14610129578063dc55920f1461013357610088565b80636385f2fb1461008d57806376d812ea146100ab5780637ff9b596146100b5578063c2db2c42146100d3575b600080fd5b61009561013d565b6040516100a29190610ad2565b60405180910390f35b6100b3610161565b005b6100bd61020d565b6040516100ca9190610b06565b60405180910390f35b6100ed60048036038101906100e89190610b52565b610213565b005b61010960048036038101906101049190610b7f565b6104c1565b005b61011361058c565b6040516101209190610ad2565b60405180910390f35b6101316105b0565b005b61013b6106df565b005b7f000000000000000000000000000000000000000000000000000000000000000081565b600260009054906101000a900473ffffffffffffffffffffffffffffffffffffffff1673ffffffffffffffffffffffffffffffffffffffff163373ffffffffffffffffffffffffffffffffffffffff16146101bb57600080fd5b6000600260146101000a81548160ff0219169083151502179055507f71002079ab3de7feb03ee30c84baf1d2350d4ffe16709d3dacb5e1037a0fe1cc60405161020390610c1c565b60405180910390a1565b60015481565b600260005403610258576040517f08c379a000000000000000000000000000000000000000000000000000000000815260040161024f90610c88565b60405180910390fd5b600260008190555060011515600260149054906101000a900460ff161515146102b6576040517f08c379a00000000000000000000000000000000000000000000000000000000081526004016102ad90610cf4565b60405180910390fd5b6000816004546102c69190610d43565b9050600354811061030c576040517f08c379a000000000000000000000000000000000000000000000000000000000815260040161030390610de5565b60405180910390fd5b7f000000000000000000000000000000000000000000000000000000000000000073ffffffffffffffffffffffffffffffffffffffff1663095ea7b330846040518363ffffffff1660e01b8152600401610367929190610e05565b6020604051808303816000875af1158015610386573d6000803e3d6000fd5b505050506040513d601f19601f820116820180604052508101906103aa9190610e66565b506103f83330847f000000000000000000000000000000000000000000000000000000000000000073ffffffffffffffffffffffffffffffffffffffff1661078b909392919063ffffffff16565b81600560003373ffffffffffffffffffffffffffffffffffffffff1673ffffffffffffffffffffffffffffffffffffffff16815260200190815260200160002060008282546104479190610d43565b9250508190555081600460008282546104609190610d43565b925050819055503373ffffffffffffffffffffffffffffffffffffffff167fda4cadf0d4383cb43c8249e3cc678f6690bdbaa01421c99fd9b14edac62cde80836040516104ad9190610b06565b60405180910390a250600160008190555050565b600260009054906101000a900473ffffffffffffffffffffffffffffffffffffffff1673ffffffffffffffffffffffffffffffffffffffff163373ffffffffffffffffffffffffffffffffffffffff161461051b57600080fd5b670de0b6b3a76400008261052f9190610e93565b600181905550670de0b6b3a7640000816105499190610e93565b6003819055507f314bf1ccc32c608a6175053b0da1933b3a745b3f799011003a4c39aab0c518a38282604051610580929190610eed565b60405180910390a15050565b7f000000000000000000000000000000000000000000000000000000000000000081565b6002600054036105f5576040517f08c379a00000000000000000000000000000000000000000000000000000000081526004016105ec90610c88565b60405180910390fd5b600260008190555060001515600260149054906101000a900460ff16151514610653576040517f08c379a000000000000000000000000000000000000000000000000000000000815260040161064a90610f88565b60405180910390fd5b6000600560003373ffffffffffffffffffffffffffffffffffffffff1673ffffffffffffffffffffffffffffffffffffffff16815260200190815260200160002054116106d5576040517f08c379a00000000000000000000000000000000000000000000000000000000081526004016106cc90610ff4565b60405180910390fd5b6001600081905550565b600260009054906101000a900473ffffffffffffffffffffffffffffffffffffffff1673ffffffffffffffffffffffffffffffffffffffff163373ffffffffffffffffffffffffffffffffffffffff161461073957600080fd5b6001600260146101000a81548160ff0219169083151502179055507f71002079ab3de7feb03ee30c84baf1d2350d4ffe16709d3dacb5e1037a0fe1cc60405161078190611060565b60405180910390a1565b61080e846323b872dd60e01b8585856040516024016107ac93929190611080565b604051602081830303815290604052907bffffffffffffffffffffffffffffffffffffffffffffffffffffffff19166020820180517bffffffffffffffffffffffffffffffffffffffffffffffffffffffff8381831617835250505050610814565b50505050565b6000610876826040518060400160405280602081526020017f5361666545524332303a206c6f772d6c6576656c2063616c6c206661696c65648152508573ffffffffffffffffffffffffffffffffffffffff166108db9092919063ffffffff16565b90506000815111156108d657808060200190518101906108969190610e66565b6108d5576040517f08c379a00000000000000000000000000000000000000000000000000000000081526004016108cc90611129565b60405180910390fd5b5b505050565b60606108ea84846000856108f3565b90509392505050565b606082471015610938576040517f08c379a000000000000000000000000000000000000000000000000000000000815260040161092f906111bb565b60405180910390fd5b61094185610a07565b610980576040517f08c379a000000000000000000000000000000000000000000000000000000000815260040161097790611227565b60405180910390fd5b6000808673ffffffffffffffffffffffffffffffffffffffff1685876040516109a991906112c1565b60006040518083038185875af1925050503d80600081146109e6576040519150601f19603f3d011682016040523d82523d6000602084013e6109eb565b606091505b50915091506109fb828286610a2a565b92505050949350505050565b6000808273ffffffffffffffffffffffffffffffffffffffff163b119050919050565b60608315610a3a57829050610a8a565b600083511115610a4d5782518084602001fd5b816040517f08c379a0000000000000000000000000000000000000000000000000000000008152600401610a81919061132d565b60405180910390fd5b9392505050565b600073ffffffffffffffffffffffffffffffffffffffff82169050919050565b6000610abc82610a91565b9050919050565b610acc81610ab1565b82525050565b6000602082019050610ae76000830184610ac3565b92915050565b6000819050919050565b610b0081610aed565b82525050565b6000602082019050610b1b6000830184610af7565b92915050565b600080fd5b610b2f81610aed565b8114610b3a57600080fd5b50565b600081359050610b4c81610b26565b92915050565b600060208284031215610b6857610b67610b21565b5b6000610b7684828501610b3d565b91505092915050565b60008060408385031215610b9657610b95610b21565b5b6000610ba485828601610b3d565b9250506020610bb585828601610b3d565b9150509250929050565b600082825260208201905092915050565b7f49434f2069732070617573656400000000000000000000000000000000000000600082015250565b6000610c06600d83610bbf565b9150610c1182610bd0565b602082019050919050565b60006020820190508181036000830152610c3581610bf9565b9050919050565b7f5265656e7472616e637947756172643a207265656e7472616e742063616c6c00600082015250565b6000610c72601f83610bbf565b9150610c7d82610c3c565b602082019050919050565b60006020820190508181036000830152610ca181610c65565b9050919050565b7f49444f20686173206e6f74207374617274656400000000000000000000000000600082015250565b6000610cde601383610bbf565b9150610ce982610ca8565b602082019050919050565b60006020820190508181036000830152610d0d81610cd1565b9050919050565b7f4e487b7100000000000000000000000000000000000000000000000000000000600052601160045260246000fd5b6000610d4e82610aed565b9150610d5983610aed565b9250827fffffffffffffffffffffffffffffffffffffffffffffffffffffffffffffffff03821115610d8e57610d8d610d14565b5b828201905092915050565b7f416c6c20746f6b656e7320686173206265656e20736f6c640000000000000000600082015250565b6000610dcf601883610bbf565b9150610dda82610d99565b602082019050919050565b60006020820190508181036000830152610dfe81610dc2565b9050919050565b6000604082019050610e1a6000830185610ac3565b610e276020830184610af7565b9392505050565b60008115159050919050565b610e4381610e2e565b8114610e4e57600080fd5b50565b600081519050610e6081610e3a565b92915050565b600060208284031215610e7c57610e7b610b21565b5b6000610e8a84828501610e51565b91505092915050565b6000610e9e82610aed565b9150610ea983610aed565b9250817fffffffffffffffffffffffffffffffffffffffffffffffffffffffffffffffff0483118215151615610ee257610ee1610d14565b5b828202905092915050565b6000604082019050610f026000830185610af7565b610f0f6020830184610af7565b9392505050565b7f49444f2048617320206e6f7420656e6465642c20636c61696d20756e6176616960008201527f6c61626c65000000000000000000000000000000000000000000000000000000602082015250565b6000610f72602583610bbf565b9150610f7d82610f16565b604082019050919050565b60006020820190508181036000830152610fa181610f65565b9050919050565b7f796f752064696420000000000000000000000000000000000000000000000000600082015250565b6000610fde600883610bbf565b9150610fe982610fa8565b602082019050919050565b6000602082019050818103600083015261100d81610fd1565b9050919050565b7f49434f206973206f6e0000000000000000000000000000000000000000000000600082015250565b600061104a600983610bbf565b915061105582611014565b602082019050919050565b600060208201905081810360008301526110798161103d565b9050919050565b60006060820190506110956000830186610ac3565b6110a26020830185610ac3565b6110af6040830184610af7565b949350505050565b7f5361666545524332303a204552433230206f7065726174696f6e20646964206e60008201527f6f74207375636365656400000000000000000000000000000000000000000000602082015250565b6000611113602a83610bbf565b915061111e826110b7565b604082019050919050565b6000602082019050818103600083015261114281611106565b9050919050565b7f416464726573733a20696e73756666696369656e742062616c616e636520666f60008201527f722063616c6c0000000000000000000000000000000000000000000000000000602082015250565b60006111a5602683610bbf565b91506111b082611149565b604082019050919050565b600060208201905081810360008301526111d481611198565b9050919050565b7f416464726573733a2063616c6c20746f206e6f6e2d636f6e7472616374000000600082015250565b6000611211601d83610bbf565b915061121c826111db565b602082019050919050565b6000602082019050818103600083015261124081611204565b9050919050565b600081519050919050565b600081905092915050565b60005b8381101561127b578082015181840152602081019050611260565b8381111561128a576000848401525b50505050565b600061129b82611247565b6112a58185611252565b93506112b581856020860161125d565b80840191505092915050565b60006112cd8284611290565b915081905092915050565b600081519050919050565b6000601f19601f8301169050919050565b60006112ff826112d8565b6113098185610bbf565b935061131981856020860161125d565b611322816112e3565b840191505092915050565b6000602082019050818103600083015261134781846112f4565b90509291505056fea2646970667358221220ff0cd9cfff8760ade8802bfa2000e81d067d168839916fc2ccfb01a2f15f9a9464736f6c634300080d0033",
					"opcodes": "PUSH1 0xC0 PUSH1 0x40 MSTORE CALLVALUE DUP1 ISZERO PUSH3 0x11 JUMPI PUSH1 0x0 DUP1 REVERT JUMPDEST POP PUSH1 0x40 MLOAD PUSH3 0x168A CODESIZE SUB DUP1 PUSH3 0x168A DUP4 CODECOPY DUP2 DUP2 ADD PUSH1 0x40 MSTORE DUP2 ADD SWAP1 PUSH3 0x37 SWAP2 SWAP1 PUSH3 0x1CF JUMP JUMPDEST PUSH1 0x1 PUSH1 0x0 DUP2 SWAP1 SSTORE POP CALLER PUSH1 0x2 PUSH1 0x0 PUSH2 0x100 EXP DUP2 SLOAD DUP2 PUSH20 0xFFFFFFFFFFFFFFFFFFFFFFFFFFFFFFFFFFFFFFFF MUL NOT AND SWAP1 DUP4 PUSH20 0xFFFFFFFFFFFFFFFFFFFFFFFFFFFFFFFFFFFFFFFF AND MUL OR SWAP1 SSTORE POP PUSH8 0xDE0B6B3A7640000 DUP5 PUSH3 0x96 SWAP2 SWAP1 PUSH3 0x270 JUMP JUMPDEST PUSH1 0x1 DUP2 SWAP1 SSTORE POP DUP3 PUSH20 0xFFFFFFFFFFFFFFFFFFFFFFFFFFFFFFFFFFFFFFFF AND PUSH1 0x80 DUP2 PUSH20 0xFFFFFFFFFFFFFFFFFFFFFFFFFFFFFFFFFFFFFFFF AND DUP2 MSTORE POP POP DUP2 PUSH20 0xFFFFFFFFFFFFFFFFFFFFFFFFFFFFFFFFFFFFFFFF AND PUSH1 0xA0 DUP2 PUSH20 0xFFFFFFFFFFFFFFFFFFFFFFFFFFFFFFFFFFFFFFFF AND DUP2 MSTORE POP POP PUSH8 0xDE0B6B3A7640000 DUP2 PUSH3 0x11A SWAP2 SWAP1 PUSH3 0x270 JUMP JUMPDEST PUSH1 0x3 DUP2 SWAP1 SSTORE POP POP POP POP POP PUSH3 0x2D1 JUMP JUMPDEST PUSH1 0x0 DUP1 REVERT JUMPDEST PUSH1 0x0 DUP2 SWAP1 POP SWAP2 SWAP1 POP JUMP JUMPDEST PUSH3 0x144 DUP2 PUSH3 0x12F JUMP JUMPDEST DUP2 EQ PUSH3 0x150 JUMPI PUSH1 0x0 DUP1 REVERT JUMPDEST POP JUMP JUMPDEST PUSH1 0x0 DUP2 MLOAD SWAP1 POP PUSH3 0x164 DUP2 PUSH3 0x139 JUMP JUMPDEST SWAP3 SWAP2 POP POP JUMP JUMPDEST PUSH1 0x0 PUSH20 0xFFFFFFFFFFFFFFFFFFFFFFFFFFFFFFFFFFFFFFFF DUP3 AND SWAP1 POP SWAP2 SWAP1 POP JUMP JUMPDEST PUSH1 0x0 PUSH3 0x197 DUP3 PUSH3 0x16A JUMP JUMPDEST SWAP1 POP SWAP2 SWAP1 POP JUMP JUMPDEST PUSH3 0x1A9 DUP2 PUSH3 0x18A JUMP JUMPDEST DUP2 EQ PUSH3 0x1B5 JUMPI PUSH1 0x0 DUP1 REVERT JUMPDEST POP JUMP JUMPDEST PUSH1 0x0 DUP2 MLOAD SWAP1 POP PUSH3 0x1C9 DUP2 PUSH3 0x19E JUMP JUMPDEST SWAP3 SWAP2 POP POP JUMP JUMPDEST PUSH1 0x0 DUP1 PUSH1 0x0 DUP1 PUSH1 0x80 DUP6 DUP8 SUB SLT ISZERO PUSH3 0x1EC JUMPI PUSH3 0x1EB PUSH3 0x12A JUMP JUMPDEST JUMPDEST PUSH1 0x0 PUSH3 0x1FC DUP8 DUP3 DUP9 ADD PUSH3 0x153 JUMP JUMPDEST SWAP5 POP POP PUSH1 0x20 PUSH3 0x20F DUP8 DUP3 DUP9 ADD PUSH3 0x1B8 JUMP JUMPDEST SWAP4 POP POP PUSH1 0x40 PUSH3 0x222 DUP8 DUP3 DUP9 ADD PUSH3 0x1B8 JUMP JUMPDEST SWAP3 POP POP PUSH1 0x60 PUSH3 0x235 DUP8 DUP3 DUP9 ADD PUSH3 0x153 JUMP JUMPDEST SWAP2 POP POP SWAP3 SWAP6 SWAP2 SWAP5 POP SWAP3 POP JUMP JUMPDEST PUSH32 0x4E487B7100000000000000000000000000000000000000000000000000000000 PUSH1 0x0 MSTORE PUSH1 0x11 PUSH1 0x4 MSTORE PUSH1 0x24 PUSH1 0x0 REVERT JUMPDEST PUSH1 0x0 PUSH3 0x27D DUP3 PUSH3 0x12F JUMP JUMPDEST SWAP2 POP PUSH3 0x28A DUP4 PUSH3 0x12F JUMP JUMPDEST SWAP3 POP DUP2 PUSH32 0xFFFFFFFFFFFFFFFFFFFFFFFFFFFFFFFFFFFFFFFFFFFFFFFFFFFFFFFFFFFFFFFF DIV DUP4 GT DUP3 ISZERO ISZERO AND ISZERO PUSH3 0x2C6 JUMPI PUSH3 0x2C5 PUSH3 0x241 JUMP JUMPDEST JUMPDEST DUP3 DUP3 MUL SWAP1 POP SWAP3 SWAP2 POP POP JUMP JUMPDEST PUSH1 0x80 MLOAD PUSH1 0xA0 MLOAD PUSH2 0x1385 PUSH3 0x305 PUSH1 0x0 CODECOPY PUSH1 0x0 PUSH2 0x13F ADD MSTORE PUSH1 0x0 DUP2 DUP2 PUSH2 0x30E ADD MSTORE DUP2 DUP2 PUSH2 0x3B3 ADD MSTORE PUSH2 0x58E ADD MSTORE PUSH2 0x1385 PUSH1 0x0 RETURN INVALID PUSH1 0x80 PUSH1 0x40 MSTORE CALLVALUE DUP1 ISZERO PUSH2 0x10 JUMPI PUSH1 0x0 DUP1 REVERT JUMPDEST POP PUSH1 0x4 CALLDATASIZE LT PUSH2 0x88 JUMPI PUSH1 0x0 CALLDATALOAD PUSH1 0xE0 SHR DUP1 PUSH4 0xC3A17441 GT PUSH2 0x5B JUMPI DUP1 PUSH4 0xC3A17441 EQ PUSH2 0xEF JUMPI DUP1 PUSH4 0xC54E44EB EQ PUSH2 0x10B JUMPI DUP1 PUSH4 0xD7997F7E EQ PUSH2 0x129 JUMPI DUP1 PUSH4 0xDC55920F EQ PUSH2 0x133 JUMPI PUSH2 0x88 JUMP JUMPDEST DUP1 PUSH4 0x6385F2FB EQ PUSH2 0x8D JUMPI DUP1 PUSH4 0x76D812EA EQ PUSH2 0xAB JUMPI DUP1 PUSH4 0x7FF9B596 EQ PUSH2 0xB5 JUMPI DUP1 PUSH4 0xC2DB2C42 EQ PUSH2 0xD3 JUMPI JUMPDEST PUSH1 0x0 DUP1 REVERT JUMPDEST PUSH2 0x95 PUSH2 0x13D JUMP JUMPDEST PUSH1 0x40 MLOAD PUSH2 0xA2 SWAP2 SWAP1 PUSH2 0xAD2 JUMP JUMPDEST PUSH1 0x40 MLOAD DUP1 SWAP2 SUB SWAP1 RETURN JUMPDEST PUSH2 0xB3 PUSH2 0x161 JUMP JUMPDEST STOP JUMPDEST PUSH2 0xBD PUSH2 0x20D JUMP JUMPDEST PUSH1 0x40 MLOAD PUSH2 0xCA SWAP2 SWAP1 PUSH2 0xB06 JUMP JUMPDEST PUSH1 0x40 MLOAD DUP1 SWAP2 SUB SWAP1 RETURN JUMPDEST PUSH2 0xED PUSH1 0x4 DUP1 CALLDATASIZE SUB DUP2 ADD SWAP1 PUSH2 0xE8 SWAP2 SWAP1 PUSH2 0xB52 JUMP JUMPDEST PUSH2 0x213 JUMP JUMPDEST STOP JUMPDEST PUSH2 0x109 PUSH1 0x4 DUP1 CALLDATASIZE SUB DUP2 ADD SWAP1 PUSH2 0x104 SWAP2 SWAP1 PUSH2 0xB7F JUMP JUMPDEST PUSH2 0x4C1 JUMP JUMPDEST STOP JUMPDEST PUSH2 0x113 PUSH2 0x58C JUMP JUMPDEST PUSH1 0x40 MLOAD PUSH2 0x120 SWAP2 SWAP1 PUSH2 0xAD2 JUMP JUMPDEST PUSH1 0x40 MLOAD DUP1 SWAP2 SUB SWAP1 RETURN JUMPDEST PUSH2 0x131 PUSH2 0x5B0 JUMP JUMPDEST STOP JUMPDEST PUSH2 0x13B PUSH2 0x6DF JUMP JUMPDEST STOP JUMPDEST PUSH32 0x0 DUP2 JUMP JUMPDEST PUSH1 0x2 PUSH1 0x0 SWAP1 SLOAD SWAP1 PUSH2 0x100 EXP SWAP1 DIV PUSH20 0xFFFFFFFFFFFFFFFFFFFFFFFFFFFFFFFFFFFFFFFF AND PUSH20 0xFFFFFFFFFFFFFFFFFFFFFFFFFFFFFFFFFFFFFFFF AND CALLER PUSH20 0xFFFFFFFFFFFFFFFFFFFFFFFFFFFFFFFFFFFFFFFF AND EQ PUSH2 0x1BB JUMPI PUSH1 0x0 DUP1 REVERT JUMPDEST PUSH1 0x0 PUSH1 0x2 PUSH1 0x14 PUSH2 0x100 EXP DUP2 SLOAD DUP2 PUSH1 0xFF MUL NOT AND SWAP1 DUP4 ISZERO ISZERO MUL OR SWAP1 SSTORE POP PUSH32 0x71002079AB3DE7FEB03EE30C84BAF1D2350D4FFE16709D3DACB5E1037A0FE1CC PUSH1 0x40 MLOAD PUSH2 0x203 SWAP1 PUSH2 0xC1C JUMP JUMPDEST PUSH1 0x40 MLOAD DUP1 SWAP2 SUB SWAP1 LOG1 JUMP JUMPDEST PUSH1 0x1 SLOAD DUP2 JUMP JUMPDEST PUSH1 0x2 PUSH1 0x0 SLOAD SUB PUSH2 0x258 JUMPI PUSH1 0x40 MLOAD PUSH32 0x8C379A000000000000000000000000000000000000000000000000000000000 DUP2 MSTORE PUSH1 0x4 ADD PUSH2 0x24F SWAP1 PUSH2 0xC88 JUMP JUMPDEST PUSH1 0x40 MLOAD DUP1 SWAP2 SUB SWAP1 REVERT JUMPDEST PUSH1 0x2 PUSH1 0x0 DUP2 SWAP1 SSTORE POP PUSH1 0x1 ISZERO ISZERO PUSH1 0x2 PUSH1 0x14 SWAP1 SLOAD SWAP1 PUSH2 0x100 EXP SWAP1 DIV PUSH1 0xFF AND ISZERO ISZERO EQ PUSH2 0x2B6 JUMPI PUSH1 0x40 MLOAD PUSH32 0x8C379A000000000000000000000000000000000000000000000000000000000 DUP2 MSTORE PUSH1 0x4 ADD PUSH2 0x2AD SWAP1 PUSH2 0xCF4 JUMP JUMPDEST PUSH1 0x40 MLOAD DUP1 SWAP2 SUB SWAP1 REVERT JUMPDEST PUSH1 0x0 DUP2 PUSH1 0x4 SLOAD PUSH2 0x2C6 SWAP2 SWAP1 PUSH2 0xD43 JUMP JUMPDEST SWAP1 POP PUSH1 0x3 SLOAD DUP2 LT PUSH2 0x30C JUMPI PUSH1 0x40 MLOAD PUSH32 0x8C379A000000000000000000000000000000000000000000000000000000000 DUP2 MSTORE PUSH1 0x4 ADD PUSH2 0x303 SWAP1 PUSH2 0xDE5 JUMP JUMPDEST PUSH1 0x40 MLOAD DUP1 SWAP2 SUB SWAP1 REVERT JUMPDEST PUSH32 0x0 PUSH20 0xFFFFFFFFFFFFFFFFFFFFFFFFFFFFFFFFFFFFFFFF AND PUSH4 0x95EA7B3 ADDRESS DUP5 PUSH1 0x40 MLOAD DUP4 PUSH4 0xFFFFFFFF AND PUSH1 0xE0 SHL DUP2 MSTORE PUSH1 0x4 ADD PUSH2 0x367 SWAP3 SWAP2 SWAP1 PUSH2 0xE05 JUMP JUMPDEST PUSH1 0x20 PUSH1 0x40 MLOAD DUP1 DUP4 SUB DUP2 PUSH1 0x0 DUP8 GAS CALL ISZERO DUP1 ISZERO PUSH2 0x386 JUMPI RETURNDATASIZE PUSH1 0x0 DUP1 RETURNDATACOPY RETURNDATASIZE PUSH1 0x0 REVERT JUMPDEST POP POP POP POP PUSH1 0x40 MLOAD RETURNDATASIZE PUSH1 0x1F NOT PUSH1 0x1F DUP3 ADD AND DUP3 ADD DUP1 PUSH1 0x40 MSTORE POP DUP2 ADD SWAP1 PUSH2 0x3AA SWAP2 SWAP1 PUSH2 0xE66 JUMP JUMPDEST POP PUSH2 0x3F8 CALLER ADDRESS DUP5 PUSH32 0x0 PUSH20 0xFFFFFFFFFFFFFFFFFFFFFFFFFFFFFFFFFFFFFFFF AND PUSH2 0x78B SWAP1 SWAP4 SWAP3 SWAP2 SWAP1 PUSH4 0xFFFFFFFF AND JUMP JUMPDEST DUP2 PUSH1 0x5 PUSH1 0x0 CALLER PUSH20 0xFFFFFFFFFFFFFFFFFFFFFFFFFFFFFFFFFFFFFFFF AND PUSH20 0xFFFFFFFFFFFFFFFFFFFFFFFFFFFFFFFFFFFFFFFF AND DUP2 MSTORE PUSH1 0x20 ADD SWAP1 DUP2 MSTORE PUSH1 0x20 ADD PUSH1 0x0 KECCAK256 PUSH1 0x0 DUP3 DUP3 SLOAD PUSH2 0x447 SWAP2 SWAP1 PUSH2 0xD43 JUMP JUMPDEST SWAP3 POP POP DUP2 SWAP1 SSTORE POP DUP2 PUSH1 0x4 PUSH1 0x0 DUP3 DUP3 SLOAD PUSH2 0x460 SWAP2 SWAP1 PUSH2 0xD43 JUMP JUMPDEST SWAP3 POP POP DUP2 SWAP1 SSTORE POP CALLER PUSH20 0xFFFFFFFFFFFFFFFFFFFFFFFFFFFFFFFFFFFFFFFF AND PUSH32 0xDA4CADF0D4383CB43C8249E3CC678F6690BDBAA01421C99FD9B14EDAC62CDE80 DUP4 PUSH1 0x40 MLOAD PUSH2 0x4AD SWAP2 SWAP1 PUSH2 0xB06 JUMP JUMPDEST PUSH1 0x40 MLOAD DUP1 SWAP2 SUB SWAP1 LOG2 POP PUSH1 0x1 PUSH1 0x0 DUP2 SWAP1 SSTORE POP POP JUMP JUMPDEST PUSH1 0x2 PUSH1 0x0 SWAP1 SLOAD SWAP1 PUSH2 0x100 EXP SWAP1 DIV PUSH20 0xFFFFFFFFFFFFFFFFFFFFFFFFFFFFFFFFFFFFFFFF AND PUSH20 0xFFFFFFFFFFFFFFFFFFFFFFFFFFFFFFFFFFFFFFFF AND CALLER PUSH20 0xFFFFFFFFFFFFFFFFFFFFFFFFFFFFFFFFFFFFFFFF AND EQ PUSH2 0x51B JUMPI PUSH1 0x0 DUP1 REVERT JUMPDEST PUSH8 0xDE0B6B3A7640000 DUP3 PUSH2 0x52F SWAP2 SWAP1 PUSH2 0xE93 JUMP JUMPDEST PUSH1 0x1 DUP2 SWAP1 SSTORE POP PUSH8 0xDE0B6B3A7640000 DUP2 PUSH2 0x549 SWAP2 SWAP1 PUSH2 0xE93 JUMP JUMPDEST PUSH1 0x3 DUP2 SWAP1 SSTORE POP PUSH32 0x314BF1CCC32C608A6175053B0DA1933B3A745B3F799011003A4C39AAB0C518A3 DUP3 DUP3 PUSH1 0x40 MLOAD PUSH2 0x580 SWAP3 SWAP2 SWAP1 PUSH2 0xEED JUMP JUMPDEST PUSH1 0x40 MLOAD DUP1 SWAP2 SUB SWAP1 LOG1 POP POP JUMP JUMPDEST PUSH32 0x0 DUP2 JUMP JUMPDEST PUSH1 0x2 PUSH1 0x0 SLOAD SUB PUSH2 0x5F5 JUMPI PUSH1 0x40 MLOAD PUSH32 0x8C379A000000000000000000000000000000000000000000000000000000000 DUP2 MSTORE PUSH1 0x4 ADD PUSH2 0x5EC SWAP1 PUSH2 0xC88 JUMP JUMPDEST PUSH1 0x40 MLOAD DUP1 SWAP2 SUB SWAP1 REVERT JUMPDEST PUSH1 0x2 PUSH1 0x0 DUP2 SWAP1 SSTORE POP PUSH1 0x0 ISZERO ISZERO PUSH1 0x2 PUSH1 0x14 SWAP1 SLOAD SWAP1 PUSH2 0x100 EXP SWAP1 DIV PUSH1 0xFF AND ISZERO ISZERO EQ PUSH2 0x653 JUMPI PUSH1 0x40 MLOAD PUSH32 0x8C379A000000000000000000000000000000000000000000000000000000000 DUP2 MSTORE PUSH1 0x4 ADD PUSH2 0x64A SWAP1 PUSH2 0xF88 JUMP JUMPDEST PUSH1 0x40 MLOAD DUP1 SWAP2 SUB SWAP1 REVERT JUMPDEST PUSH1 0x0 PUSH1 0x5 PUSH1 0x0 CALLER PUSH20 0xFFFFFFFFFFFFFFFFFFFFFFFFFFFFFFFFFFFFFFFF AND PUSH20 0xFFFFFFFFFFFFFFFFFFFFFFFFFFFFFFFFFFFFFFFF AND DUP2 MSTORE PUSH1 0x20 ADD SWAP1 DUP2 MSTORE PUSH1 0x20 ADD PUSH1 0x0 KECCAK256 SLOAD GT PUSH2 0x6D5 JUMPI PUSH1 0x40 MLOAD PUSH32 0x8C379A000000000000000000000000000000000000000000000000000000000 DUP2 MSTORE PUSH1 0x4 ADD PUSH2 0x6CC SWAP1 PUSH2 0xFF4 JUMP JUMPDEST PUSH1 0x40 MLOAD DUP1 SWAP2 SUB SWAP1 REVERT JUMPDEST PUSH1 0x1 PUSH1 0x0 DUP2 SWAP1 SSTORE POP JUMP JUMPDEST PUSH1 0x2 PUSH1 0x0 SWAP1 SLOAD SWAP1 PUSH2 0x100 EXP SWAP1 DIV PUSH20 0xFFFFFFFFFFFFFFFFFFFFFFFFFFFFFFFFFFFFFFFF AND PUSH20 0xFFFFFFFFFFFFFFFFFFFFFFFFFFFFFFFFFFFFFFFF AND CALLER PUSH20 0xFFFFFFFFFFFFFFFFFFFFFFFFFFFFFFFFFFFFFFFF AND EQ PUSH2 0x739 JUMPI PUSH1 0x0 DUP1 REVERT JUMPDEST PUSH1 0x1 PUSH1 0x2 PUSH1 0x14 PUSH2 0x100 EXP DUP2 SLOAD DUP2 PUSH1 0xFF MUL NOT AND SWAP1 DUP4 ISZERO ISZERO MUL OR SWAP1 SSTORE POP PUSH32 0x71002079AB3DE7FEB03EE30C84BAF1D2350D4FFE16709D3DACB5E1037A0FE1CC PUSH1 0x40 MLOAD PUSH2 0x781 SWAP1 PUSH2 0x1060 JUMP JUMPDEST PUSH1 0x40 MLOAD DUP1 SWAP2 SUB SWAP1 LOG1 JUMP JUMPDEST PUSH2 0x80E DUP5 PUSH4 0x23B872DD PUSH1 0xE0 SHL DUP6 DUP6 DUP6 PUSH1 0x40 MLOAD PUSH1 0x24 ADD PUSH2 0x7AC SWAP4 SWAP3 SWAP2 SWAP1 PUSH2 0x1080 JUMP JUMPDEST PUSH1 0x40 MLOAD PUSH1 0x20 DUP2 DUP4 SUB SUB DUP2 MSTORE SWAP1 PUSH1 0x40 MSTORE SWAP1 PUSH28 0xFFFFFFFFFFFFFFFFFFFFFFFFFFFFFFFFFFFFFFFFFFFFFFFFFFFFFFFF NOT AND PUSH1 0x20 DUP3 ADD DUP1 MLOAD PUSH28 0xFFFFFFFFFFFFFFFFFFFFFFFFFFFFFFFFFFFFFFFFFFFFFFFFFFFFFFFF DUP4 DUP2 DUP4 AND OR DUP4 MSTORE POP POP POP POP PUSH2 0x814 JUMP JUMPDEST POP POP POP POP JUMP JUMPDEST PUSH1 0x0 PUSH2 0x876 DUP3 PUSH1 0x40 MLOAD DUP1 PUSH1 0x40 ADD PUSH1 0x40 MSTORE DUP1 PUSH1 0x20 DUP2 MSTORE PUSH1 0x20 ADD PUSH32 0x5361666545524332303A206C6F772D6C6576656C2063616C6C206661696C6564 DUP2 MSTORE POP DUP6 PUSH20 0xFFFFFFFFFFFFFFFFFFFFFFFFFFFFFFFFFFFFFFFF AND PUSH2 0x8DB SWAP1 SWAP3 SWAP2 SWAP1 PUSH4 0xFFFFFFFF AND JUMP JUMPDEST SWAP1 POP PUSH1 0x0 DUP2 MLOAD GT ISZERO PUSH2 0x8D6 JUMPI DUP1 DUP1 PUSH1 0x20 ADD SWAP1 MLOAD DUP2 ADD SWAP1 PUSH2 0x896 SWAP2 SWAP1 PUSH2 0xE66 JUMP JUMPDEST PUSH2 0x8D5 JUMPI PUSH1 0x40 MLOAD PUSH32 0x8C379A000000000000000000000000000000000000000000000000000000000 DUP2 MSTORE PUSH1 0x4 ADD PUSH2 0x8CC SWAP1 PUSH2 0x1129 JUMP JUMPDEST PUSH1 0x40 MLOAD DUP1 SWAP2 SUB SWAP1 REVERT JUMPDEST JUMPDEST POP POP POP JUMP JUMPDEST PUSH1 0x60 PUSH2 0x8EA DUP5 DUP5 PUSH1 0x0 DUP6 PUSH2 0x8F3 JUMP JUMPDEST SWAP1 POP SWAP4 SWAP3 POP POP POP JUMP JUMPDEST PUSH1 0x60 DUP3 SELFBALANCE LT ISZERO PUSH2 0x938 JUMPI PUSH1 0x40 MLOAD PUSH32 0x8C379A000000000000000000000000000000000000000000000000000000000 DUP2 MSTORE PUSH1 0x4 ADD PUSH2 0x92F SWAP1 PUSH2 0x11BB JUMP JUMPDEST PUSH1 0x40 MLOAD DUP1 SWAP2 SUB SWAP1 REVERT JUMPDEST PUSH2 0x941 DUP6 PUSH2 0xA07 JUMP JUMPDEST PUSH2 0x980 JUMPI PUSH1 0x40 MLOAD PUSH32 0x8C379A000000000000000000000000000000000000000000000000000000000 DUP2 MSTORE PUSH1 0x4 ADD PUSH2 0x977 SWAP1 PUSH2 0x1227 JUMP JUMPDEST PUSH1 0x40 MLOAD DUP1 SWAP2 SUB SWAP1 REVERT JUMPDEST PUSH1 0x0 DUP1 DUP7 PUSH20 0xFFFFFFFFFFFFFFFFFFFFFFFFFFFFFFFFFFFFFFFF AND DUP6 DUP8 PUSH1 0x40 MLOAD PUSH2 0x9A9 SWAP2 SWAP1 PUSH2 0x12C1 JUMP JUMPDEST PUSH1 0x0 PUSH1 0x40 MLOAD DUP1 DUP4 SUB DUP2 DUP6 DUP8 GAS CALL SWAP3 POP POP POP RETURNDATASIZE DUP1 PUSH1 0x0 DUP2 EQ PUSH2 0x9E6 JUMPI PUSH1 0x40 MLOAD SWAP2 POP PUSH1 0x1F NOT PUSH1 0x3F RETURNDATASIZE ADD AND DUP3 ADD PUSH1 0x40 MSTORE RETURNDATASIZE DUP3 MSTORE RETURNDATASIZE PUSH1 0x0 PUSH1 0x20 DUP5 ADD RETURNDATACOPY PUSH2 0x9EB JUMP JUMPDEST PUSH1 0x60 SWAP2 POP JUMPDEST POP SWAP2 POP SWAP2 POP PUSH2 0x9FB DUP3 DUP3 DUP7 PUSH2 0xA2A JUMP JUMPDEST SWAP3 POP POP POP SWAP5 SWAP4 POP POP POP POP JUMP JUMPDEST PUSH1 0x0 DUP1 DUP3 PUSH20 0xFFFFFFFFFFFFFFFFFFFFFFFFFFFFFFFFFFFFFFFF AND EXTCODESIZE GT SWAP1 POP SWAP2 SWAP1 POP JUMP JUMPDEST PUSH1 0x60 DUP4 ISZERO PUSH2 0xA3A JUMPI DUP3 SWAP1 POP PUSH2 0xA8A JUMP JUMPDEST PUSH1 0x0 DUP4 MLOAD GT ISZERO PUSH2 0xA4D JUMPI DUP3 MLOAD DUP1 DUP5 PUSH1 0x20 ADD REVERT JUMPDEST DUP2 PUSH1 0x40 MLOAD PUSH32 0x8C379A000000000000000000000000000000000000000000000000000000000 DUP2 MSTORE PUSH1 0x4 ADD PUSH2 0xA81 SWAP2 SWAP1 PUSH2 0x132D JUMP JUMPDEST PUSH1 0x40 MLOAD DUP1 SWAP2 SUB SWAP1 REVERT JUMPDEST SWAP4 SWAP3 POP POP POP JUMP JUMPDEST PUSH1 0x0 PUSH20 0xFFFFFFFFFFFFFFFFFFFFFFFFFFFFFFFFFFFFFFFF DUP3 AND SWAP1 POP SWAP2 SWAP1 POP JUMP JUMPDEST PUSH1 0x0 PUSH2 0xABC DUP3 PUSH2 0xA91 JUMP JUMPDEST SWAP1 POP SWAP2 SWAP1 POP JUMP JUMPDEST PUSH2 0xACC DUP2 PUSH2 0xAB1 JUMP JUMPDEST DUP3 MSTORE POP POP JUMP JUMPDEST PUSH1 0x0 PUSH1 0x20 DUP3 ADD SWAP1 POP PUSH2 0xAE7 PUSH1 0x0 DUP4 ADD DUP5 PUSH2 0xAC3 JUMP JUMPDEST SWAP3 SWAP2 POP POP JUMP JUMPDEST PUSH1 0x0 DUP2 SWAP1 POP SWAP2 SWAP1 POP JUMP JUMPDEST PUSH2 0xB00 DUP2 PUSH2 0xAED JUMP JUMPDEST DUP3 MSTORE POP POP JUMP JUMPDEST PUSH1 0x0 PUSH1 0x20 DUP3 ADD SWAP1 POP PUSH2 0xB1B PUSH1 0x0 DUP4 ADD DUP5 PUSH2 0xAF7 JUMP JUMPDEST SWAP3 SWAP2 POP POP JUMP JUMPDEST PUSH1 0x0 DUP1 REVERT JUMPDEST PUSH2 0xB2F DUP2 PUSH2 0xAED JUMP JUMPDEST DUP2 EQ PUSH2 0xB3A JUMPI PUSH1 0x0 DUP1 REVERT JUMPDEST POP JUMP JUMPDEST PUSH1 0x0 DUP2 CALLDATALOAD SWAP1 POP PUSH2 0xB4C DUP2 PUSH2 0xB26 JUMP JUMPDEST SWAP3 SWAP2 POP POP JUMP JUMPDEST PUSH1 0x0 PUSH1 0x20 DUP3 DUP5 SUB SLT ISZERO PUSH2 0xB68 JUMPI PUSH2 0xB67 PUSH2 0xB21 JUMP JUMPDEST JUMPDEST PUSH1 0x0 PUSH2 0xB76 DUP5 DUP3 DUP6 ADD PUSH2 0xB3D JUMP JUMPDEST SWAP2 POP POP SWAP3 SWAP2 POP POP JUMP JUMPDEST PUSH1 0x0 DUP1 PUSH1 0x40 DUP4 DUP6 SUB SLT ISZERO PUSH2 0xB96 JUMPI PUSH2 0xB95 PUSH2 0xB21 JUMP JUMPDEST JUMPDEST PUSH1 0x0 PUSH2 0xBA4 DUP6 DUP3 DUP7 ADD PUSH2 0xB3D JUMP JUMPDEST SWAP3 POP POP PUSH1 0x20 PUSH2 0xBB5 DUP6 DUP3 DUP7 ADD PUSH2 0xB3D JUMP JUMPDEST SWAP2 POP POP SWAP3 POP SWAP3 SWAP1 POP JUMP JUMPDEST PUSH1 0x0 DUP3 DUP3 MSTORE PUSH1 0x20 DUP3 ADD SWAP1 POP SWAP3 SWAP2 POP POP JUMP JUMPDEST PUSH32 0x49434F2069732070617573656400000000000000000000000000000000000000 PUSH1 0x0 DUP3 ADD MSTORE POP JUMP JUMPDEST PUSH1 0x0 PUSH2 0xC06 PUSH1 0xD DUP4 PUSH2 0xBBF JUMP JUMPDEST SWAP2 POP PUSH2 0xC11 DUP3 PUSH2 0xBD0 JUMP JUMPDEST PUSH1 0x20 DUP3 ADD SWAP1 POP SWAP2 SWAP1 POP JUMP JUMPDEST PUSH1 0x0 PUSH1 0x20 DUP3 ADD SWAP1 POP DUP2 DUP2 SUB PUSH1 0x0 DUP4 ADD MSTORE PUSH2 0xC35 DUP2 PUSH2 0xBF9 JUMP JUMPDEST SWAP1 POP SWAP2 SWAP1 POP JUMP JUMPDEST PUSH32 0x5265656E7472616E637947756172643A207265656E7472616E742063616C6C00 PUSH1 0x0 DUP3 ADD MSTORE POP JUMP JUMPDEST PUSH1 0x0 PUSH2 0xC72 PUSH1 0x1F DUP4 PUSH2 0xBBF JUMP JUMPDEST SWAP2 POP PUSH2 0xC7D DUP3 PUSH2 0xC3C JUMP JUMPDEST PUSH1 0x20 DUP3 ADD SWAP1 POP SWAP2 SWAP1 POP JUMP JUMPDEST PUSH1 0x0 PUSH1 0x20 DUP3 ADD SWAP1 POP DUP2 DUP2 SUB PUSH1 0x0 DUP4 ADD MSTORE PUSH2 0xCA1 DUP2 PUSH2 0xC65 JUMP JUMPDEST SWAP1 POP SWAP2 SWAP1 POP JUMP JUMPDEST PUSH32 0x49444F20686173206E6F74207374617274656400000000000000000000000000 PUSH1 0x0 DUP3 ADD MSTORE POP JUMP JUMPDEST PUSH1 0x0 PUSH2 0xCDE PUSH1 0x13 DUP4 PUSH2 0xBBF JUMP JUMPDEST SWAP2 POP PUSH2 0xCE9 DUP3 PUSH2 0xCA8 JUMP JUMPDEST PUSH1 0x20 DUP3 ADD SWAP1 POP SWAP2 SWAP1 POP JUMP JUMPDEST PUSH1 0x0 PUSH1 0x20 DUP3 ADD SWAP1 POP DUP2 DUP2 SUB PUSH1 0x0 DUP4 ADD MSTORE PUSH2 0xD0D DUP2 PUSH2 0xCD1 JUMP JUMPDEST SWAP1 POP SWAP2 SWAP1 POP JUMP JUMPDEST PUSH32 0x4E487B7100000000000000000000000000000000000000000000000000000000 PUSH1 0x0 MSTORE PUSH1 0x11 PUSH1 0x4 MSTORE PUSH1 0x24 PUSH1 0x0 REVERT JUMPDEST PUSH1 0x0 PUSH2 0xD4E DUP3 PUSH2 0xAED JUMP JUMPDEST SWAP2 POP PUSH2 0xD59 DUP4 PUSH2 0xAED JUMP JUMPDEST SWAP3 POP DUP3 PUSH32 0xFFFFFFFFFFFFFFFFFFFFFFFFFFFFFFFFFFFFFFFFFFFFFFFFFFFFFFFFFFFFFFFF SUB DUP3 GT ISZERO PUSH2 0xD8E JUMPI PUSH2 0xD8D PUSH2 0xD14 JUMP JUMPDEST JUMPDEST DUP3 DUP3 ADD SWAP1 POP SWAP3 SWAP2 POP POP JUMP JUMPDEST PUSH32 0x416C6C20746F6B656E7320686173206265656E20736F6C640000000000000000 PUSH1 0x0 DUP3 ADD MSTORE POP JUMP JUMPDEST PUSH1 0x0 PUSH2 0xDCF PUSH1 0x18 DUP4 PUSH2 0xBBF JUMP JUMPDEST SWAP2 POP PUSH2 0xDDA DUP3 PUSH2 0xD99 JUMP JUMPDEST PUSH1 0x20 DUP3 ADD SWAP1 POP SWAP2 SWAP1 POP JUMP JUMPDEST PUSH1 0x0 PUSH1 0x20 DUP3 ADD SWAP1 POP DUP2 DUP2 SUB PUSH1 0x0 DUP4 ADD MSTORE PUSH2 0xDFE DUP2 PUSH2 0xDC2 JUMP JUMPDEST SWAP1 POP SWAP2 SWAP1 POP JUMP JUMPDEST PUSH1 0x0 PUSH1 0x40 DUP3 ADD SWAP1 POP PUSH2 0xE1A PUSH1 0x0 DUP4 ADD DUP6 PUSH2 0xAC3 JUMP JUMPDEST PUSH2 0xE27 PUSH1 0x20 DUP4 ADD DUP5 PUSH2 0xAF7 JUMP JUMPDEST SWAP4 SWAP3 POP POP POP JUMP JUMPDEST PUSH1 0x0 DUP2 ISZERO ISZERO SWAP1 POP SWAP2 SWAP1 POP JUMP JUMPDEST PUSH2 0xE43 DUP2 PUSH2 0xE2E JUMP JUMPDEST DUP2 EQ PUSH2 0xE4E JUMPI PUSH1 0x0 DUP1 REVERT JUMPDEST POP JUMP JUMPDEST PUSH1 0x0 DUP2 MLOAD SWAP1 POP PUSH2 0xE60 DUP2 PUSH2 0xE3A JUMP JUMPDEST SWAP3 SWAP2 POP POP JUMP JUMPDEST PUSH1 0x0 PUSH1 0x20 DUP3 DUP5 SUB SLT ISZERO PUSH2 0xE7C JUMPI PUSH2 0xE7B PUSH2 0xB21 JUMP JUMPDEST JUMPDEST PUSH1 0x0 PUSH2 0xE8A DUP5 DUP3 DUP6 ADD PUSH2 0xE51 JUMP JUMPDEST SWAP2 POP POP SWAP3 SWAP2 POP POP JUMP JUMPDEST PUSH1 0x0 PUSH2 0xE9E DUP3 PUSH2 0xAED JUMP JUMPDEST SWAP2 POP PUSH2 0xEA9 DUP4 PUSH2 0xAED JUMP JUMPDEST SWAP3 POP DUP2 PUSH32 0xFFFFFFFFFFFFFFFFFFFFFFFFFFFFFFFFFFFFFFFFFFFFFFFFFFFFFFFFFFFFFFFF DIV DUP4 GT DUP3 ISZERO ISZERO AND ISZERO PUSH2 0xEE2 JUMPI PUSH2 0xEE1 PUSH2 0xD14 JUMP JUMPDEST JUMPDEST DUP3 DUP3 MUL SWAP1 POP SWAP3 SWAP2 POP POP JUMP JUMPDEST PUSH1 0x0 PUSH1 0x40 DUP3 ADD SWAP1 POP PUSH2 0xF02 PUSH1 0x0 DUP4 ADD DUP6 PUSH2 0xAF7 JUMP JUMPDEST PUSH2 0xF0F PUSH1 0x20 DUP4 ADD DUP5 PUSH2 0xAF7 JUMP JUMPDEST SWAP4 SWAP3 POP POP POP JUMP JUMPDEST PUSH32 0x49444F2048617320206E6F7420656E6465642C20636C61696D20756E61766169 PUSH1 0x0 DUP3 ADD MSTORE PUSH32 0x6C61626C65000000000000000000000000000000000000000000000000000000 PUSH1 0x20 DUP3 ADD MSTORE POP JUMP JUMPDEST PUSH1 0x0 PUSH2 0xF72 PUSH1 0x25 DUP4 PUSH2 0xBBF JUMP JUMPDEST SWAP2 POP PUSH2 0xF7D DUP3 PUSH2 0xF16 JUMP JUMPDEST PUSH1 0x40 DUP3 ADD SWAP1 POP SWAP2 SWAP1 POP JUMP JUMPDEST PUSH1 0x0 PUSH1 0x20 DUP3 ADD SWAP1 POP DUP2 DUP2 SUB PUSH1 0x0 DUP4 ADD MSTORE PUSH2 0xFA1 DUP2 PUSH2 0xF65 JUMP JUMPDEST SWAP1 POP SWAP2 SWAP1 POP JUMP JUMPDEST PUSH32 0x796F752064696420000000000000000000000000000000000000000000000000 PUSH1 0x0 DUP3 ADD MSTORE POP JUMP JUMPDEST PUSH1 0x0 PUSH2 0xFDE PUSH1 0x8 DUP4 PUSH2 0xBBF JUMP JUMPDEST SWAP2 POP PUSH2 0xFE9 DUP3 PUSH2 0xFA8 JUMP JUMPDEST PUSH1 0x20 DUP3 ADD SWAP1 POP SWAP2 SWAP1 POP JUMP JUMPDEST PUSH1 0x0 PUSH1 0x20 DUP3 ADD SWAP1 POP DUP2 DUP2 SUB PUSH1 0x0 DUP4 ADD MSTORE PUSH2 0x100D DUP2 PUSH2 0xFD1 JUMP JUMPDEST SWAP1 POP SWAP2 SWAP1 POP JUMP JUMPDEST PUSH32 0x49434F206973206F6E0000000000000000000000000000000000000000000000 PUSH1 0x0 DUP3 ADD MSTORE POP JUMP JUMPDEST PUSH1 0x0 PUSH2 0x104A PUSH1 0x9 DUP4 PUSH2 0xBBF JUMP JUMPDEST SWAP2 POP PUSH2 0x1055 DUP3 PUSH2 0x1014 JUMP JUMPDEST PUSH1 0x20 DUP3 ADD SWAP1 POP SWAP2 SWAP1 POP JUMP JUMPDEST PUSH1 0x0 PUSH1 0x20 DUP3 ADD SWAP1 POP DUP2 DUP2 SUB PUSH1 0x0 DUP4 ADD MSTORE PUSH2 0x1079 DUP2 PUSH2 0x103D JUMP JUMPDEST SWAP1 POP SWAP2 SWAP1 POP JUMP JUMPDEST PUSH1 0x0 PUSH1 0x60 DUP3 ADD SWAP1 POP PUSH2 0x1095 PUSH1 0x0 DUP4 ADD DUP7 PUSH2 0xAC3 JUMP JUMPDEST PUSH2 0x10A2 PUSH1 0x20 DUP4 ADD DUP6 PUSH2 0xAC3 JUMP JUMPDEST PUSH2 0x10AF PUSH1 0x40 DUP4 ADD DUP5 PUSH2 0xAF7 JUMP JUMPDEST SWAP5 SWAP4 POP POP POP POP JUMP JUMPDEST PUSH32 0x5361666545524332303A204552433230206F7065726174696F6E20646964206E PUSH1 0x0 DUP3 ADD MSTORE PUSH32 0x6F74207375636365656400000000000000000000000000000000000000000000 PUSH1 0x20 DUP3 ADD MSTORE POP JUMP JUMPDEST PUSH1 0x0 PUSH2 0x1113 PUSH1 0x2A DUP4 PUSH2 0xBBF JUMP JUMPDEST SWAP2 POP PUSH2 0x111E DUP3 PUSH2 0x10B7 JUMP JUMPDEST PUSH1 0x40 DUP3 ADD SWAP1 POP SWAP2 SWAP1 POP JUMP JUMPDEST PUSH1 0x0 PUSH1 0x20 DUP3 ADD SWAP1 POP DUP2 DUP2 SUB PUSH1 0x0 DUP4 ADD MSTORE PUSH2 0x1142 DUP2 PUSH2 0x1106 JUMP JUMPDEST SWAP1 POP SWAP2 SWAP1 POP JUMP JUMPDEST PUSH32 0x416464726573733A20696E73756666696369656E742062616C616E636520666F PUSH1 0x0 DUP3 ADD MSTORE PUSH32 0x722063616C6C0000000000000000000000000000000000000000000000000000 PUSH1 0x20 DUP3 ADD MSTORE POP JUMP JUMPDEST PUSH1 0x0 PUSH2 0x11A5 PUSH1 0x26 DUP4 PUSH2 0xBBF JUMP JUMPDEST SWAP2 POP PUSH2 0x11B0 DUP3 PUSH2 0x1149 JUMP JUMPDEST PUSH1 0x40 DUP3 ADD SWAP1 POP SWAP2 SWAP1 POP JUMP JUMPDEST PUSH1 0x0 PUSH1 0x20 DUP3 ADD SWAP1 POP DUP2 DUP2 SUB PUSH1 0x0 DUP4 ADD MSTORE PUSH2 0x11D4 DUP2 PUSH2 0x1198 JUMP JUMPDEST SWAP1 POP SWAP2 SWAP1 POP JUMP JUMPDEST PUSH32 0x416464726573733A2063616C6C20746F206E6F6E2D636F6E7472616374000000 PUSH1 0x0 DUP3 ADD MSTORE POP JUMP JUMPDEST PUSH1 0x0 PUSH2 0x1211 PUSH1 0x1D DUP4 PUSH2 0xBBF JUMP JUMPDEST SWAP2 POP PUSH2 0x121C DUP3 PUSH2 0x11DB JUMP JUMPDEST PUSH1 0x20 DUP3 ADD SWAP1 POP SWAP2 SWAP1 POP JUMP JUMPDEST PUSH1 0x0 PUSH1 0x20 DUP3 ADD SWAP1 POP DUP2 DUP2 SUB PUSH1 0x0 DUP4 ADD MSTORE PUSH2 0x1240 DUP2 PUSH2 0x1204 JUMP JUMPDEST SWAP1 POP SWAP2 SWAP1 POP JUMP JUMPDEST PUSH1 0x0 DUP2 MLOAD SWAP1 POP SWAP2 SWAP1 POP JUMP JUMPDEST PUSH1 0x0 DUP2 SWAP1 POP SWAP3 SWAP2 POP POP JUMP JUMPDEST PUSH1 0x0 JUMPDEST DUP4 DUP2 LT ISZERO PUSH2 0x127B JUMPI DUP1 DUP3 ADD MLOAD DUP2 DUP5 ADD MSTORE PUSH1 0x20 DUP2 ADD SWAP1 POP PUSH2 0x1260 JUMP JUMPDEST DUP4 DUP2 GT ISZERO PUSH2 0x128A JUMPI PUSH1 0x0 DUP5 DUP5 ADD MSTORE JUMPDEST POP POP POP POP JUMP JUMPDEST PUSH1 0x0 PUSH2 0x129B DUP3 PUSH2 0x1247 JUMP JUMPDEST PUSH2 0x12A5 DUP2 DUP6 PUSH2 0x1252 JUMP JUMPDEST SWAP4 POP PUSH2 0x12B5 DUP2 DUP6 PUSH1 0x20 DUP7 ADD PUSH2 0x125D JUMP JUMPDEST DUP1 DUP5 ADD SWAP2 POP POP SWAP3 SWAP2 POP POP JUMP JUMPDEST PUSH1 0x0 PUSH2 0x12CD DUP3 DUP5 PUSH2 0x1290 JUMP JUMPDEST SWAP2 POP DUP2 SWAP1 POP SWAP3 SWAP2 POP POP JUMP JUMPDEST PUSH1 0x0 DUP2 MLOAD SWAP1 POP SWAP2 SWAP1 POP JUMP JUMPDEST PUSH1 0x0 PUSH1 0x1F NOT PUSH1 0x1F DUP4 ADD AND SWAP1 POP SWAP2 SWAP1 POP JUMP JUMPDEST PUSH1 0x0 PUSH2 0x12FF DUP3 PUSH2 0x12D8 JUMP JUMPDEST PUSH2 0x1309 DUP2 DUP6 PUSH2 0xBBF JUMP JUMPDEST SWAP4 POP PUSH2 0x1319 DUP2 DUP6 PUSH1 0x20 DUP7 ADD PUSH2 0x125D JUMP JUMPDEST PUSH2 0x1322 DUP2 PUSH2 0x12E3 JUMP JUMPDEST DUP5 ADD SWAP2 POP POP SWAP3 SWAP2 POP POP JUMP JUMPDEST PUSH1 0x0 PUSH1 0x20 DUP3 ADD SWAP1 POP DUP2 DUP2 SUB PUSH1 0x0 DUP4 ADD MSTORE PUSH2 0x1347 DUP2 DUP5 PUSH2 0x12F4 JUMP JUMPDEST SWAP1 POP SWAP3 SWAP2 POP POP JUMP INVALID LOG2 PUSH5 0x6970667358 0x22 SLT KECCAK256 SELFDESTRUCT 0xC 0xD9 0xCF SELFDESTRUCT DUP8 PUSH1 0xAD 0xE8 DUP1 0x2B STATICCALL KECCAK256 STOP 0xE8 SAR MOD PUSH30 0x168839916FC2CCFB01A2F15F9A9464736F6C634300080D00330000000000 "
				},
				"gasEstimates": {
					"creation": {
						"codeDepositCost": "999400",
						"executionCost": "infinite",
						"totalCost": "infinite"
					},
					"external": {
						"BeginIDO()": "28499",
						"DAZ()": "infinite",
						"StopIDO()": "28456",
						"USDT()": "infinite",
						"claimPurchasedToken()": "33872",
						"editIco(uint256,uint256)": "infinite",
						"purchaseToken(uint256)": "infinite",
						"tokenPrice()": "2474"
					}
				},
				"methodIdentifiers": {
					"BeginIDO()": "dc55920f",
					"DAZ()": "6385f2fb",
					"StopIDO()": "76d812ea",
					"USDT()": "c54e44eb",
					"claimPurchasedToken()": "d7997f7e",
					"editIco(uint256,uint256)": "c3a17441",
					"purchaseToken(uint256)": "c2db2c42",
					"tokenPrice()": "7ff9b596"
				}
			},
			"storageLayout": {
				"storage": [
					{
						"astId": 10,
						"contract": "contracts/ico.sol:Amestarter",
						"label": "_status",
						"offset": 0,
						"slot": "0",
						"type": "t_uint256"
					},
					{
						"astId": 1473,
						"contract": "contracts/ico.sol:Amestarter",
						"label": "tokenPrice",
						"offset": 0,
						"slot": "1",
						"type": "t_uint256"
					},
					{
						"astId": 1475,
						"contract": "contracts/ico.sol:Amestarter",
						"label": "owner",
						"offset": 0,
						"slot": "2",
						"type": "t_address"
					},
					{
						"astId": 1477,
						"contract": "contracts/ico.sol:Amestarter",
						"label": "IDOStarted",
						"offset": 20,
						"slot": "2",
						"type": "t_bool"
					},
					{
						"astId": 1479,
						"contract": "contracts/ico.sol:Amestarter",
						"label": "targetSale",
						"offset": 0,
						"slot": "3",
						"type": "t_uint256"
					},
					{
						"astId": 1481,
						"contract": "contracts/ico.sol:Amestarter",
						"label": "totalRaised",
						"offset": 0,
						"slot": "4",
						"type": "t_uint256"
					},
					{
						"astId": 1485,
						"contract": "contracts/ico.sol:Amestarter",
						"label": "purchase",
						"offset": 0,
						"slot": "5",
						"type": "t_mapping(t_address,t_uint256)"
					}
				],
				"types": {
					"t_address": {
						"encoding": "inplace",
						"label": "address",
						"numberOfBytes": "20"
					},
					"t_bool": {
						"encoding": "inplace",
						"label": "bool",
						"numberOfBytes": "1"
					},
					"t_mapping(t_address,t_uint256)": {
						"encoding": "mapping",
						"key": "t_address",
						"label": "mapping(address => uint256)",
						"numberOfBytes": "32",
						"value": "t_uint256"
					},
					"t_uint256": {
						"encoding": "inplace",
						"label": "uint256",
						"numberOfBytes": "32"
					}
				}
			},
			"userdoc": {
				"kind": "user",
				"methods": {},
				"version": 1
			}
		}
	}
}