{
	"contracts/betting.sol": {
		"DistanceFiBET": {
			"abi": [
				{
					"inputs": [],
					"stateMutability": "nonpayable",
					"type": "constructor"
				},
				{
					"inputs": [
						{
							"internalType": "uint256",
							"name": "",
							"type": "uint256"
						}
					],
					"name": "Game",
					"outputs": [
						{
							"internalType": "string",
							"name": "HomeTeam",
							"type": "string"
						},
						{
							"internalType": "string",
							"name": "AwayTeam",
							"type": "string"
						},
						{
							"internalType": "uint256",
							"name": "startTime",
							"type": "uint256"
						},
						{
							"internalType": "uint256",
							"name": "endTime",
							"type": "uint256"
						},
						{
							"components": [
								{
									"internalType": "uint256",
									"name": "Home_score",
									"type": "uint256"
								},
								{
									"internalType": "uint256",
									"name": "Away_score",
									"type": "uint256"
								}
							],
							"internalType": "struct DistanceFiBET.Results",
							"name": "results",
							"type": "tuple"
						}
					],
					"stateMutability": "view",
					"type": "function"
				},
				{
					"inputs": [],
					"name": "admin",
					"outputs": [
						{
							"internalType": "address",
							"name": "",
							"type": "address"
						}
					],
					"stateMutability": "view",
					"type": "function"
				},
				{
					"inputs": [
						{
							"internalType": "uint256",
							"name": "",
							"type": "uint256"
						}
					],
					"name": "allMatch",
					"outputs": [
						{
							"internalType": "string",
							"name": "HomeTeam",
							"type": "string"
						},
						{
							"internalType": "string",
							"name": "AwayTeam",
							"type": "string"
						},
						{
							"internalType": "uint256",
							"name": "startTime",
							"type": "uint256"
						},
						{
							"internalType": "uint256",
							"name": "endTime",
							"type": "uint256"
						},
						{
							"components": [
								{
									"internalType": "uint256",
									"name": "Home_score",
									"type": "uint256"
								},
								{
									"internalType": "uint256",
									"name": "Away_score",
									"type": "uint256"
								}
							],
							"internalType": "struct DistanceFiBET.Results",
							"name": "results",
							"type": "tuple"
						}
					],
					"stateMutability": "view",
					"type": "function"
				},
				{
					"inputs": [
						{
							"internalType": "uint256",
							"name": "epoch",
							"type": "uint256"
						},
						{
							"internalType": "uint256",
							"name": "_homeScore",
							"type": "uint256"
						},
						{
							"internalType": "uint256",
							"name": "_awayScore",
							"type": "uint256"
						}
					],
					"name": "closeMatch",
					"outputs": [],
					"stateMutability": "nonpayable",
					"type": "function"
				},
				{
					"inputs": [
						{
							"internalType": "string",
							"name": "_HomeTeam",
							"type": "string"
						},
						{
							"internalType": "string",
							"name": "_AwayTeam",
							"type": "string"
						},
						{
							"internalType": "uint256",
							"name": "_startTime",
							"type": "uint256"
						}
					],
					"name": "instantiateMatch",
					"outputs": [
						{
							"internalType": "bool",
							"name": "",
							"type": "bool"
						}
					],
					"stateMutability": "nonpayable",
					"type": "function"
				},
				{
					"inputs": [
						{
							"internalType": "uint256",
							"name": "epoch",
							"type": "uint256"
						},
						{
							"internalType": "enum DistanceFiBET.Choices",
							"name": "_betChoice",
							"type": "uint8"
						}
					],
					"name": "placeBet",
					"outputs": [],
					"stateMutability": "payable",
					"type": "function"
				},
				{
					"inputs": [
						{
							"internalType": "uint256",
							"name": "",
							"type": "uint256"
						}
					],
					"name": "specificMatchBets",
					"outputs": [
						{
							"internalType": "address",
							"name": "bettor",
							"type": "address"
						},
						{
							"internalType": "uint256",
							"name": "amount",
							"type": "uint256"
						},
						{
							"internalType": "enum DistanceFiBET.Choices",
							"name": "choice",
							"type": "uint8"
						}
					],
					"stateMutability": "view",
					"type": "function"
				},
				{
					"inputs": [
						{
							"internalType": "uint256",
							"name": "epoch",
							"type": "uint256"
						},
						{
							"internalType": "enum DistanceFiBET.Choices",
							"name": "_betChoice",
							"type": "uint8"
						}
					],
					"name": "updateBet",
					"outputs": [],
					"stateMutability": "nonpayable",
					"type": "function"
				},
				{
					"inputs": [
						{
							"internalType": "address",
							"name": "",
							"type": "address"
						},
						{
							"internalType": "uint256",
							"name": "",
							"type": "uint256"
						}
					],
					"name": "userBet",
					"outputs": [
						{
							"internalType": "enum DistanceFiBET.Choices",
							"name": "bet",
							"type": "uint8"
						},
						{
							"internalType": "uint256",
							"name": "winAmounts",
							"type": "uint256"
						},
						{
							"internalType": "uint256",
							"name": "betAmount",
							"type": "uint256"
						},
						{
							"internalType": "bool",
							"name": "played",
							"type": "bool"
						}
					],
					"stateMutability": "view",
					"type": "function"
				}
			],
			"devdoc": {
				"kind": "dev",
				"methods": {},
				"version": 1
			},
			"evm": {
				"assembly": "    /* \"contracts/betting.sol\":63:2818  contract DistanceFiBET{... */\n  mstore(0x40, 0x80)\n    /* \"contracts/betting.sol\":817:867  constructor(){... */\n  callvalue\n  dup1\n  iszero\n  tag_1\n  jumpi\n  0x00\n  dup1\n  revert\ntag_1:\n  pop\n    /* \"contracts/betting.sol\":849:859  msg.sender */\n  caller\n    /* \"contracts/betting.sol\":841:846  admin */\n  0x00\n  dup1\n    /* \"contracts/betting.sol\":841:859  admin = msg.sender */\n  0x0100\n  exp\n  dup2\n  sload\n  dup2\n  0xffffffffffffffffffffffffffffffffffffffff\n  mul\n  not\n  and\n  swap1\n  dup4\n  0xffffffffffffffffffffffffffffffffffffffff\n  and\n  mul\n  or\n  swap1\n  sstore\n  pop\n    /* \"contracts/betting.sol\":63:2818  contract DistanceFiBET{... */\n  dataSize(sub_0)\n  dup1\n  dataOffset(sub_0)\n  0x00\n  codecopy\n  0x00\n  return\nstop\n\nsub_0: assembly {\n        /* \"contracts/betting.sol\":63:2818  contract DistanceFiBET{... */\n      mstore(0x40, 0x80)\n      jumpi(tag_1, lt(calldatasize, 0x04))\n      shr(0xe0, calldataload(0x00))\n      dup1\n      0x5fbc88ad\n      gt\n      tag_11\n      jumpi\n      dup1\n      0x5fbc88ad\n      eq\n      tag_6\n      jumpi\n      dup1\n      0xb2edb39f\n      eq\n      tag_7\n      jumpi\n      dup1\n      0xbc9e6e2c\n      eq\n      tag_8\n      jumpi\n      dup1\n      0xec7361a8\n      eq\n      tag_9\n      jumpi\n      dup1\n      0xf851a440\n      eq\n      tag_10\n      jumpi\n      jump(tag_1)\n    tag_11:\n      dup1\n      0x03edf914\n      eq\n      tag_2\n      jumpi\n      dup1\n      0x15a3ae71\n      eq\n      tag_3\n      jumpi\n      dup1\n      0x2172ff16\n      eq\n      tag_4\n      jumpi\n      dup1\n      0x4195ab8e\n      eq\n      tag_5\n      jumpi\n    tag_1:\n      0x00\n      dup1\n      revert\n        /* \"contracts/betting.sol\":1852:2305  function placeBet(uint epoch, Choices _betChoice) payable external {... */\n    tag_2:\n      tag_12\n      0x04\n      dup1\n      calldatasize\n      sub\n      dup2\n      add\n      swap1\n      tag_13\n      swap2\n      swap1\n      tag_14\n      jump\t// in\n    tag_13:\n      tag_15\n      jump\t// in\n    tag_12:\n      stop\n        /* \"contracts/betting.sol\":771:805  allBets[] public specificMatchBets */\n    tag_3:\n      callvalue\n      dup1\n      iszero\n      tag_16\n      jumpi\n      0x00\n      dup1\n      revert\n    tag_16:\n      pop\n      tag_17\n      0x04\n      dup1\n      calldatasize\n      sub\n      dup2\n      add\n      swap1\n      tag_18\n      swap2\n      swap1\n      tag_19\n      jump\t// in\n    tag_18:\n      tag_20\n      jump\t// in\n    tag_17:\n      mload(0x40)\n      tag_21\n      swap4\n      swap3\n      swap2\n      swap1\n      tag_22\n      jump\t// in\n    tag_21:\n      mload(0x40)\n      dup1\n      swap2\n      sub\n      swap1\n      return\n        /* \"contracts/betting.sol\":531:566  mapping (uint => Match) public Game */\n    tag_4:\n      callvalue\n      dup1\n      iszero\n      tag_23\n      jumpi\n      0x00\n      dup1\n      revert\n    tag_23:\n      pop\n      tag_24\n      0x04\n      dup1\n      calldatasize\n      sub\n      dup2\n      add\n      swap1\n      tag_25\n      swap2\n      swap1\n      tag_19\n      jump\t// in\n    tag_25:\n      tag_26\n      jump\t// in\n    tag_24:\n      mload(0x40)\n      tag_27\n      swap6\n      swap5\n      swap4\n      swap3\n      swap2\n      swap1\n      tag_28\n      jump\t// in\n    tag_27:\n      mload(0x40)\n      dup1\n      swap2\n      sub\n      swap1\n      return\n        /* \"contracts/betting.sol\":573:633  mapping (address => mapping (uint => Bettor)) public userBet */\n    tag_5:\n      callvalue\n      dup1\n      iszero\n      tag_29\n      jumpi\n      0x00\n      dup1\n      revert\n    tag_29:\n      pop\n      tag_30\n      0x04\n      dup1\n      calldatasize\n      sub\n      dup2\n      add\n      swap1\n      tag_31\n      swap2\n      swap1\n      tag_32\n      jump\t// in\n    tag_31:\n      tag_33\n      jump\t// in\n    tag_30:\n      mload(0x40)\n      tag_34\n      swap5\n      swap4\n      swap3\n      swap2\n      swap1\n      tag_35\n      jump\t// in\n    tag_34:\n      mload(0x40)\n      dup1\n      swap2\n      sub\n      swap1\n      return\n        /* \"contracts/betting.sol\":2313:2610  function updateBet(uint epoch, Choices _betChoice) external  {... */\n    tag_6:\n      callvalue\n      dup1\n      iszero\n      tag_36\n      jumpi\n      0x00\n      dup1\n      revert\n    tag_36:\n      pop\n      tag_37\n      0x04\n      dup1\n      calldatasize\n      sub\n      dup2\n      add\n      swap1\n      tag_38\n      swap2\n      swap1\n      tag_14\n      jump\t// in\n    tag_38:\n      tag_39\n      jump\t// in\n    tag_37:\n      stop\n        /* \"contracts/betting.sol\":640:664  Match [] public allMatch */\n    tag_7:\n      callvalue\n      dup1\n      iszero\n      tag_40\n      jumpi\n      0x00\n      dup1\n      revert\n    tag_40:\n      pop\n      tag_41\n      0x04\n      dup1\n      calldatasize\n      sub\n      dup2\n      add\n      swap1\n      tag_42\n      swap2\n      swap1\n      tag_19\n      jump\t// in\n    tag_42:\n      tag_43\n      jump\t// in\n    tag_41:\n      mload(0x40)\n      tag_44\n      swap6\n      swap5\n      swap4\n      swap3\n      swap2\n      swap1\n      tag_28\n      jump\t// in\n    tag_44:\n      mload(0x40)\n      dup1\n      swap2\n      sub\n      swap1\n      return\n        /* \"contracts/betting.sol\":875:1405  function instantiateMatch(string calldata _HomeTeam, string calldata _AwayTeam, uint _startTime) external returns (bool) {... */\n    tag_8:\n      callvalue\n      dup1\n      iszero\n      tag_45\n      jumpi\n      0x00\n      dup1\n      revert\n    tag_45:\n      pop\n      tag_46\n      0x04\n      dup1\n      calldatasize\n      sub\n      dup2\n      add\n      swap1\n      tag_47\n      swap2\n      swap1\n      tag_48\n      jump\t// in\n    tag_47:\n      tag_49\n      jump\t// in\n    tag_46:\n      mload(0x40)\n      tag_50\n      swap2\n      swap1\n      tag_51\n      jump\t// in\n    tag_50:\n      mload(0x40)\n      dup1\n      swap2\n      sub\n      swap1\n      return\n        /* \"contracts/betting.sol\":1413:1844  function closeMatch(uint epoch, uint _homeScore, uint _awayScore) external {... */\n    tag_9:\n      callvalue\n      dup1\n      iszero\n      tag_52\n      jumpi\n      0x00\n      dup1\n      revert\n    tag_52:\n      pop\n      tag_53\n      0x04\n      dup1\n      calldatasize\n      sub\n      dup2\n      add\n      swap1\n      tag_54\n      swap2\n      swap1\n      tag_55\n      jump\t// in\n    tag_54:\n      tag_56\n      jump\t// in\n    tag_53:\n      stop\n        /* \"contracts/betting.sol\":148:168  address public admin */\n    tag_10:\n      callvalue\n      dup1\n      iszero\n      tag_57\n      jumpi\n      0x00\n      dup1\n      revert\n    tag_57:\n      pop\n      tag_58\n      tag_59\n      jump\t// in\n    tag_58:\n      mload(0x40)\n      tag_60\n      swap2\n      swap1\n      tag_61\n      jump\t// in\n    tag_60:\n      mload(0x40)\n      dup1\n      swap2\n      sub\n      swap1\n      return\n        /* \"contracts/betting.sol\":1852:2305  function placeBet(uint epoch, Choices _betChoice) payable external {... */\n    tag_15:\n        /* \"contracts/betting.sol\":1975:1980  false */\n      0x00\n        /* \"contracts/betting.sol\":1938:1980  userBet[msg.sender][epoch].played == false */\n      iszero\n      iszero\n        /* \"contracts/betting.sol\":1938:1945  userBet */\n      0x02\n        /* \"contracts/betting.sol\":1938:1957  userBet[msg.sender] */\n      0x00\n        /* \"contracts/betting.sol\":1946:1956  msg.sender */\n      caller\n        /* \"contracts/betting.sol\":1938:1957  userBet[msg.sender] */\n      0xffffffffffffffffffffffffffffffffffffffff\n      and\n      0xffffffffffffffffffffffffffffffffffffffff\n      and\n      dup2\n      mstore\n      0x20\n      add\n      swap1\n      dup2\n      mstore\n      0x20\n      add\n      0x00\n      keccak256\n        /* \"contracts/betting.sol\":1938:1964  userBet[msg.sender][epoch] */\n      0x00\n        /* \"contracts/betting.sol\":1958:1963  epoch */\n      dup5\n        /* \"contracts/betting.sol\":1938:1964  userBet[msg.sender][epoch] */\n      dup2\n      mstore\n      0x20\n      add\n      swap1\n      dup2\n      mstore\n      0x20\n      add\n      0x00\n      keccak256\n        /* \"contracts/betting.sol\":1938:1971  userBet[msg.sender][epoch].played */\n      0x03\n      add\n      0x00\n      swap1\n      sload\n      swap1\n      0x0100\n      exp\n      swap1\n      div\n      0xff\n      and\n        /* \"contracts/betting.sol\":1938:1980  userBet[msg.sender][epoch].played == false */\n      iszero\n      iszero\n      eq\n        /* \"contracts/betting.sol\":1930:2023  require(userBet[msg.sender][epoch].played == false, \"You can only play once! Update instead\") */\n      tag_63\n      jumpi\n      mload(0x40)\n      0x08c379a000000000000000000000000000000000000000000000000000000000\n      dup2\n      mstore\n      0x04\n      add\n      tag_64\n      swap1\n      tag_65\n      jump\t// in\n    tag_64:\n      mload(0x40)\n      dup1\n      swap2\n      sub\n      swap1\n      revert\n    tag_63:\n        /* \"contracts/betting.sol\":2055:2062  1 ether */\n      0x0de0b6b3a7640000\n        /* \"contracts/betting.sol\":2042:2051  msg.value */\n      callvalue\n        /* \"contracts/betting.sol\":2042:2062  msg.value == 1 ether */\n      eq\n        /* \"contracts/betting.sol\":2034:2099  require(msg.value == 1 ether, \"Bet Amount is less than required\") */\n      tag_66\n      jumpi\n      mload(0x40)\n      0x08c379a000000000000000000000000000000000000000000000000000000000\n      dup2\n      mstore\n      0x04\n      add\n      tag_67\n      swap1\n      tag_68\n      jump\t// in\n    tag_67:\n      mload(0x40)\n      dup1\n      swap2\n      sub\n      swap1\n      revert\n    tag_66:\n        /* \"contracts/betting.sol\":2110:2125  uint _betAmount */\n      0x00\n        /* \"contracts/betting.sol\":2128:2137  msg.value */\n      callvalue\n        /* \"contracts/betting.sol\":2110:2137  uint _betAmount = msg.value */\n      swap1\n      pop\n        /* \"contracts/betting.sol\":2177:2216  Bettor(_betChoice, 0, _betAmount, true) */\n      mload(0x40)\n      dup1\n      0x80\n      add\n      0x40\n      mstore\n      dup1\n        /* \"contracts/betting.sol\":2184:2194  _betChoice */\n      dup4\n        /* \"contracts/betting.sol\":2177:2216  Bettor(_betChoice, 0, _betAmount, true) */\n      0x03\n      dup2\n      gt\n      iszero\n      tag_69\n      jumpi\n      tag_70\n      tag_71\n      jump\t// in\n    tag_70:\n    tag_69:\n      dup2\n      mstore\n      0x20\n      add\n        /* \"contracts/betting.sol\":2196:2197  0 */\n      0x00\n        /* \"contracts/betting.sol\":2177:2216  Bettor(_betChoice, 0, _betAmount, true) */\n      dup2\n      mstore\n      0x20\n      add\n        /* \"contracts/betting.sol\":2199:2209  _betAmount */\n      dup3\n        /* \"contracts/betting.sol\":2177:2216  Bettor(_betChoice, 0, _betAmount, true) */\n      dup2\n      mstore\n      0x20\n      add\n        /* \"contracts/betting.sol\":2211:2215  true */\n      0x01\n        /* \"contracts/betting.sol\":2177:2216  Bettor(_betChoice, 0, _betAmount, true) */\n      iszero\n      iszero\n      dup2\n      mstore\n      pop\n        /* \"contracts/betting.sol\":2148:2155  userBet */\n      0x02\n        /* \"contracts/betting.sol\":2148:2167  userBet[msg.sender] */\n      0x00\n        /* \"contracts/betting.sol\":2156:2166  msg.sender */\n      caller\n        /* \"contracts/betting.sol\":2148:2167  userBet[msg.sender] */\n      0xffffffffffffffffffffffffffffffffffffffff\n      and\n      0xffffffffffffffffffffffffffffffffffffffff\n      and\n      dup2\n      mstore\n      0x20\n      add\n      swap1\n      dup2\n      mstore\n      0x20\n      add\n      0x00\n      keccak256\n        /* \"contracts/betting.sol\":2148:2174  userBet[msg.sender][epoch] */\n      0x00\n        /* \"contracts/betting.sol\":2168:2173  epoch */\n      dup6\n        /* \"contracts/betting.sol\":2148:2174  userBet[msg.sender][epoch] */\n      dup2\n      mstore\n      0x20\n      add\n      swap1\n      dup2\n      mstore\n      0x20\n      add\n      0x00\n      keccak256\n        /* \"contracts/betting.sol\":2148:2216  userBet[msg.sender][epoch] = Bettor(_betChoice, 0, _betAmount, true) */\n      0x00\n      dup3\n      add\n      mload\n      dup2\n      0x00\n      add\n      exp(0x0100, 0x00)\n      dup2\n      sload\n      dup2\n      0xff\n      mul\n      not\n      and\n      swap1\n      dup4\n      0x03\n      dup2\n      gt\n      iszero\n      tag_72\n      jumpi\n      tag_73\n      tag_71\n      jump\t// in\n    tag_73:\n    tag_72:\n      mul\n      or\n      swap1\n      sstore\n      pop\n      0x20\n      dup3\n      add\n      mload\n      dup2\n      0x01\n      add\n      sstore\n      0x40\n      dup3\n      add\n      mload\n      dup2\n      0x02\n      add\n      sstore\n      0x60\n      dup3\n      add\n      mload\n      dup2\n      0x03\n      add\n      exp(0x0100, 0x00)\n      dup2\n      sload\n      dup2\n      0xff\n      mul\n      not\n      and\n      swap1\n      dup4\n      iszero\n      iszero\n      mul\n      or\n      swap1\n      sstore\n      pop\n      swap1\n      pop\n      pop\n        /* \"contracts/betting.sol\":2254:2297  allBets(msg.sender, _betAmount, _betChoice) */\n      mload(0x40)\n      dup1\n      0x60\n      add\n      0x40\n      mstore\n      dup1\n        /* \"contracts/betting.sol\":2262:2272  msg.sender */\n      caller\n        /* \"contracts/betting.sol\":2254:2297  allBets(msg.sender, _betAmount, _betChoice) */\n      0xffffffffffffffffffffffffffffffffffffffff\n      and\n      dup2\n      mstore\n      0x20\n      add\n        /* \"contracts/betting.sol\":2274:2284  _betAmount */\n      dup3\n        /* \"contracts/betting.sol\":2254:2297  allBets(msg.sender, _betAmount, _betChoice) */\n      dup2\n      mstore\n      0x20\n      add\n        /* \"contracts/betting.sol\":2286:2296  _betChoice */\n      dup4\n        /* \"contracts/betting.sol\":2254:2297  allBets(msg.sender, _betAmount, _betChoice) */\n      0x03\n      dup2\n      gt\n      iszero\n      tag_74\n      jumpi\n      tag_75\n      tag_71\n      jump\t// in\n    tag_75:\n    tag_74:\n      dup2\n      mstore\n      pop\n        /* \"contracts/betting.sol\":2227:2244  specificMatchBets */\n      0x04\n        /* \"contracts/betting.sol\":2245:2250  epoch */\n      dup5\n        /* \"contracts/betting.sol\":2227:2251  specificMatchBets[epoch] */\n      dup2\n      sload\n      dup2\n      lt\n      tag_76\n      jumpi\n      tag_77\n      tag_78\n      jump\t// in\n    tag_77:\n    tag_76:\n      swap1\n      0x00\n      mstore\n      keccak256(0x00, 0x20)\n      swap1\n      0x03\n      mul\n      add\n        /* \"contracts/betting.sol\":2227:2297  specificMatchBets[epoch] = allBets(msg.sender, _betAmount, _betChoice) */\n      0x00\n      dup3\n      add\n      mload\n      dup2\n      0x00\n      add\n      exp(0x0100, 0x00)\n      dup2\n      sload\n      dup2\n      0xffffffffffffffffffffffffffffffffffffffff\n      mul\n      not\n      and\n      swap1\n      dup4\n      0xffffffffffffffffffffffffffffffffffffffff\n      and\n      mul\n      or\n      swap1\n      sstore\n      pop\n      0x20\n      dup3\n      add\n      mload\n      dup2\n      0x01\n      add\n      sstore\n      0x40\n      dup3\n      add\n      mload\n      dup2\n      0x02\n      add\n      exp(0x0100, 0x00)\n      dup2\n      sload\n      dup2\n      0xff\n      mul\n      not\n      and\n      swap1\n      dup4\n      0x03\n      dup2\n      gt\n      iszero\n      tag_80\n      jumpi\n      tag_81\n      tag_71\n      jump\t// in\n    tag_81:\n    tag_80:\n      mul\n      or\n      swap1\n      sstore\n      pop\n      swap1\n      pop\n      pop\n        /* \"contracts/betting.sol\":1919:2305  {... */\n      pop\n        /* \"contracts/betting.sol\":1852:2305  function placeBet(uint epoch, Choices _betChoice) payable external {... */\n      pop\n      pop\n      jump\t// out\n        /* \"contracts/betting.sol\":771:805  allBets[] public specificMatchBets */\n    tag_20:\n      0x04\n      dup2\n      dup2\n      sload\n      dup2\n      lt\n      tag_82\n      jumpi\n      0x00\n      dup1\n      revert\n    tag_82:\n      swap1\n      0x00\n      mstore\n      keccak256(0x00, 0x20)\n      swap1\n      0x03\n      mul\n      add\n      0x00\n      swap2\n      pop\n      swap1\n      pop\n      dup1\n      0x00\n      add\n      0x00\n      swap1\n      sload\n      swap1\n      0x0100\n      exp\n      swap1\n      div\n      0xffffffffffffffffffffffffffffffffffffffff\n      and\n      swap1\n      dup1\n      0x01\n      add\n      sload\n      swap1\n      dup1\n      0x02\n      add\n      0x00\n      swap1\n      sload\n      swap1\n      0x0100\n      exp\n      swap1\n      div\n      0xff\n      and\n      swap1\n      pop\n      dup4\n      jump\t// out\n        /* \"contracts/betting.sol\":531:566  mapping (uint => Match) public Game */\n    tag_26:\n      mstore(0x20, 0x01)\n      dup1\n      0x00\n      mstore\n      keccak256(0x00, 0x40)\n      0x00\n      swap2\n      pop\n      swap1\n      pop\n      dup1\n      0x00\n      add\n      dup1\n      sload\n      tag_84\n      swap1\n      tag_85\n      jump\t// in\n    tag_84:\n      dup1\n      0x1f\n      add\n      0x20\n      dup1\n      swap2\n      div\n      mul\n      0x20\n      add\n      mload(0x40)\n      swap1\n      dup2\n      add\n      0x40\n      mstore\n      dup1\n      swap3\n      swap2\n      swap1\n      dup2\n      dup2\n      mstore\n      0x20\n      add\n      dup3\n      dup1\n      sload\n      tag_86\n      swap1\n      tag_85\n      jump\t// in\n    tag_86:\n      dup1\n      iszero\n      tag_87\n      jumpi\n      dup1\n      0x1f\n      lt\n      tag_88\n      jumpi\n      0x0100\n      dup1\n      dup4\n      sload\n      div\n      mul\n      dup4\n      mstore\n      swap2\n      0x20\n      add\n      swap2\n      jump(tag_87)\n    tag_88:\n      dup3\n      add\n      swap2\n      swap1\n      0x00\n      mstore\n      keccak256(0x00, 0x20)\n      swap1\n    tag_89:\n      dup2\n      sload\n      dup2\n      mstore\n      swap1\n      0x01\n      add\n      swap1\n      0x20\n      add\n      dup1\n      dup4\n      gt\n      tag_89\n      jumpi\n      dup3\n      swap1\n      sub\n      0x1f\n      and\n      dup3\n      add\n      swap2\n    tag_87:\n      pop\n      pop\n      pop\n      pop\n      pop\n      swap1\n      dup1\n      0x01\n      add\n      dup1\n      sload\n      tag_90\n      swap1\n      tag_85\n      jump\t// in\n    tag_90:\n      dup1\n      0x1f\n      add\n      0x20\n      dup1\n      swap2\n      div\n      mul\n      0x20\n      add\n      mload(0x40)\n      swap1\n      dup2\n      add\n      0x40\n      mstore\n      dup1\n      swap3\n      swap2\n      swap1\n      dup2\n      dup2\n      mstore\n      0x20\n      add\n      dup3\n      dup1\n      sload\n      tag_91\n      swap1\n      tag_85\n      jump\t// in\n    tag_91:\n      dup1\n      iszero\n      tag_92\n      jumpi\n      dup1\n      0x1f\n      lt\n      tag_93\n      jumpi\n      0x0100\n      dup1\n      dup4\n      sload\n      div\n      mul\n      dup4\n      mstore\n      swap2\n      0x20\n      add\n      swap2\n      jump(tag_92)\n    tag_93:\n      dup3\n      add\n      swap2\n      swap1\n      0x00\n      mstore\n      keccak256(0x00, 0x20)\n      swap1\n    tag_94:\n      dup2\n      sload\n      dup2\n      mstore\n      swap1\n      0x01\n      add\n      swap1\n      0x20\n      add\n      dup1\n      dup4\n      gt\n      tag_94\n      jumpi\n      dup3\n      swap1\n      sub\n      0x1f\n      and\n      dup3\n      add\n      swap2\n    tag_92:\n      pop\n      pop\n      pop\n      pop\n      pop\n      swap1\n      dup1\n      0x02\n      add\n      sload\n      swap1\n      dup1\n      0x03\n      add\n      sload\n      swap1\n      dup1\n      0x04\n      add\n      mload(0x40)\n      dup1\n      0x40\n      add\n      0x40\n      mstore\n      swap1\n      dup2\n      0x00\n      dup3\n      add\n      sload\n      dup2\n      mstore\n      0x20\n      add\n      0x01\n      dup3\n      add\n      sload\n      dup2\n      mstore\n      pop\n      pop\n      swap1\n      pop\n      dup6\n      jump\t// out\n        /* \"contracts/betting.sol\":573:633  mapping (address => mapping (uint => Bettor)) public userBet */\n    tag_33:\n      mstore(0x20, 0x02)\n      dup2\n      0x00\n      mstore\n      mstore(0x20, keccak256(0x00, 0x40))\n      dup1\n      0x00\n      mstore\n      keccak256(0x00, 0x40)\n      0x00\n      swap2\n      pop\n      swap2\n      pop\n      pop\n      dup1\n      0x00\n      add\n      0x00\n      swap1\n      sload\n      swap1\n      0x0100\n      exp\n      swap1\n      div\n      0xff\n      and\n      swap1\n      dup1\n      0x01\n      add\n      sload\n      swap1\n      dup1\n      0x02\n      add\n      sload\n      swap1\n      dup1\n      0x03\n      add\n      0x00\n      swap1\n      sload\n      swap1\n      0x0100\n      exp\n      swap1\n      div\n      0xff\n      and\n      swap1\n      pop\n      dup5\n      jump\t// out\n        /* \"contracts/betting.sol\":2313:2610  function updateBet(uint epoch, Choices _betChoice) external  {... */\n    tag_39:\n        /* \"contracts/betting.sol\":2385:2401  uint currentTime */\n      0x00\n        /* \"contracts/betting.sol\":2404:2419  block.timestamp */\n      timestamp\n        /* \"contracts/betting.sol\":2385:2419  uint currentTime = block.timestamp */\n      swap1\n      pop\n        /* \"contracts/betting.sol\":2452:2456  Game */\n      0x01\n        /* \"contracts/betting.sol\":2452:2463  Game[epoch] */\n      0x00\n        /* \"contracts/betting.sol\":2457:2462  epoch */\n      dup5\n        /* \"contracts/betting.sol\":2452:2463  Game[epoch] */\n      dup2\n      mstore\n      0x20\n      add\n      swap1\n      dup2\n      mstore\n      0x20\n      add\n      0x00\n      keccak256\n        /* \"contracts/betting.sol\":2452:2471  Game[epoch].endTime */\n      0x03\n      add\n      sload\n        /* \"contracts/betting.sol\":2438:2449  currentTime */\n      dup2\n        /* \"contracts/betting.sol\":2438:2471  currentTime < Game[epoch].endTime */\n      lt\n        /* \"contracts/betting.sol\":2430:2498  require(currentTime < Game[epoch].endTime, \"Game has already begun\") */\n      tag_96\n      jumpi\n      mload(0x40)\n      0x08c379a000000000000000000000000000000000000000000000000000000000\n      dup2\n      mstore\n      0x04\n      add\n      tag_97\n      swap1\n      tag_98\n      jump\t// in\n    tag_97:\n      mload(0x40)\n      dup1\n      swap2\n      sub\n      swap1\n      revert\n    tag_96:\n        /* \"contracts/betting.sol\":2555:2559  true */\n      0x01\n        /* \"contracts/betting.sol\":2518:2559  userBet[msg.sender][epoch].played == true */\n      iszero\n      iszero\n        /* \"contracts/betting.sol\":2518:2525  userBet */\n      0x02\n        /* \"contracts/betting.sol\":2518:2537  userBet[msg.sender] */\n      0x00\n        /* \"contracts/betting.sol\":2526:2536  msg.sender */\n      caller\n        /* \"contracts/betting.sol\":2518:2537  userBet[msg.sender] */\n      0xffffffffffffffffffffffffffffffffffffffff\n      and\n      0xffffffffffffffffffffffffffffffffffffffff\n      and\n      dup2\n      mstore\n      0x20\n      add\n      swap1\n      dup2\n      mstore\n      0x20\n      add\n      0x00\n      keccak256\n        /* \"contracts/betting.sol\":2518:2544  userBet[msg.sender][epoch] */\n      0x00\n        /* \"contracts/betting.sol\":2538:2543  epoch */\n      dup6\n        /* \"contracts/betting.sol\":2518:2544  userBet[msg.sender][epoch] */\n      dup2\n      mstore\n      0x20\n      add\n      swap1\n      dup2\n      mstore\n      0x20\n      add\n      0x00\n      keccak256\n        /* \"contracts/betting.sol\":2518:2551  userBet[msg.sender][epoch].played */\n      0x03\n      add\n      0x00\n      swap1\n      sload\n      swap1\n      0x0100\n      exp\n      swap1\n      div\n      0xff\n      and\n        /* \"contracts/betting.sol\":2518:2559  userBet[msg.sender][epoch].played == true */\n      iszero\n      iszero\n      eq\n        /* \"contracts/betting.sol\":2510:2591  require(userBet[msg.sender][epoch].played == true, \"You can only update once pl\") */\n      tag_99\n      jumpi\n      mload(0x40)\n      0x08c379a000000000000000000000000000000000000000000000000000000000\n      dup2\n      mstore\n      0x04\n      add\n      tag_100\n      swap1\n      tag_101\n      jump\t// in\n    tag_100:\n      mload(0x40)\n      dup1\n      swap2\n      sub\n      swap1\n      revert\n    tag_99:\n        /* \"contracts/betting.sol\":2374:2610  {... */\n      pop\n        /* \"contracts/betting.sol\":2313:2610  function updateBet(uint epoch, Choices _betChoice) external  {... */\n      pop\n      pop\n      jump\t// out\n        /* \"contracts/betting.sol\":640:664  Match [] public allMatch */\n    tag_43:\n      0x03\n      dup2\n      dup2\n      sload\n      dup2\n      lt\n      tag_102\n      jumpi\n      0x00\n      dup1\n      revert\n    tag_102:\n      swap1\n      0x00\n      mstore\n      keccak256(0x00, 0x20)\n      swap1\n      0x06\n      mul\n      add\n      0x00\n      swap2\n      pop\n      swap1\n      pop\n      dup1\n      0x00\n      add\n      dup1\n      sload\n      tag_104\n      swap1\n      tag_85\n      jump\t// in\n    tag_104:\n      dup1\n      0x1f\n      add\n      0x20\n      dup1\n      swap2\n      div\n      mul\n      0x20\n      add\n      mload(0x40)\n      swap1\n      dup2\n      add\n      0x40\n      mstore\n      dup1\n      swap3\n      swap2\n      swap1\n      dup2\n      dup2\n      mstore\n      0x20\n      add\n      dup3\n      dup1\n      sload\n      tag_105\n      swap1\n      tag_85\n      jump\t// in\n    tag_105:\n      dup1\n      iszero\n      tag_106\n      jumpi\n      dup1\n      0x1f\n      lt\n      tag_107\n      jumpi\n      0x0100\n      dup1\n      dup4\n      sload\n      div\n      mul\n      dup4\n      mstore\n      swap2\n      0x20\n      add\n      swap2\n      jump(tag_106)\n    tag_107:\n      dup3\n      add\n      swap2\n      swap1\n      0x00\n      mstore\n      keccak256(0x00, 0x20)\n      swap1\n    tag_108:\n      dup2\n      sload\n      dup2\n      mstore\n      swap1\n      0x01\n      add\n      swap1\n      0x20\n      add\n      dup1\n      dup4\n      gt\n      tag_108\n      jumpi\n      dup3\n      swap1\n      sub\n      0x1f\n      and\n      dup3\n      add\n      swap2\n    tag_106:\n      pop\n      pop\n      pop\n      pop\n      pop\n      swap1\n      dup1\n      0x01\n      add\n      dup1\n      sload\n      tag_109\n      swap1\n      tag_85\n      jump\t// in\n    tag_109:\n      dup1\n      0x1f\n      add\n      0x20\n      dup1\n      swap2\n      div\n      mul\n      0x20\n      add\n      mload(0x40)\n      swap1\n      dup2\n      add\n      0x40\n      mstore\n      dup1\n      swap3\n      swap2\n      swap1\n      dup2\n      dup2\n      mstore\n      0x20\n      add\n      dup3\n      dup1\n      sload\n      tag_110\n      swap1\n      tag_85\n      jump\t// in\n    tag_110:\n      dup1\n      iszero\n      tag_111\n      jumpi\n      dup1\n      0x1f\n      lt\n      tag_112\n      jumpi\n      0x0100\n      dup1\n      dup4\n      sload\n      div\n      mul\n      dup4\n      mstore\n      swap2\n      0x20\n      add\n      swap2\n      jump(tag_111)\n    tag_112:\n      dup3\n      add\n      swap2\n      swap1\n      0x00\n      mstore\n      keccak256(0x00, 0x20)\n      swap1\n    tag_113:\n      dup2\n      sload\n      dup2\n      mstore\n      swap1\n      0x01\n      add\n      swap1\n      0x20\n      add\n      dup1\n      dup4\n      gt\n      tag_113\n      jumpi\n      dup3\n      swap1\n      sub\n      0x1f\n      and\n      dup3\n      add\n      swap2\n    tag_111:\n      pop\n      pop\n      pop\n      pop\n      pop\n      swap1\n      dup1\n      0x02\n      add\n      sload\n      swap1\n      dup1\n      0x03\n      add\n      sload\n      swap1\n      dup1\n      0x04\n      add\n      mload(0x40)\n      dup1\n      0x40\n      add\n      0x40\n      mstore\n      swap1\n      dup2\n      0x00\n      dup3\n      add\n      sload\n      dup2\n      mstore\n      0x20\n      add\n      0x01\n      dup3\n      add\n      sload\n      dup2\n      mstore\n      pop\n      pop\n      swap1\n      pop\n      dup6\n      jump\t// out\n        /* \"contracts/betting.sol\":875:1405  function instantiateMatch(string calldata _HomeTeam, string calldata _AwayTeam, uint _startTime) external returns (bool) {... */\n    tag_49:\n        /* \"contracts/betting.sol\":990:994  bool */\n      0x00\n        /* \"contracts/betting.sol\":1024:1034  msg.sender */\n      caller\n        /* \"contracts/betting.sol\":1015:1034  admin == msg.sender */\n      0xffffffffffffffffffffffffffffffffffffffff\n      and\n        /* \"contracts/betting.sol\":1015:1020  admin */\n      0x00\n      dup1\n      sload\n      swap1\n      0x0100\n      exp\n      swap1\n      div\n      0xffffffffffffffffffffffffffffffffffffffff\n      and\n        /* \"contracts/betting.sol\":1015:1034  admin == msg.sender */\n      0xffffffffffffffffffffffffffffffffffffffff\n      and\n      eq\n        /* \"contracts/betting.sol\":1007:1048  require(admin == msg.sender, \"Not Owner\") */\n      tag_115\n      jumpi\n      mload(0x40)\n      0x08c379a000000000000000000000000000000000000000000000000000000000\n      dup2\n      mstore\n      0x04\n      add\n      tag_116\n      swap1\n      tag_117\n      jump\t// in\n    tag_116:\n      mload(0x40)\n      dup1\n      swap2\n      sub\n      swap1\n      revert\n    tag_115:\n        /* \"contracts/betting.sol\":1059:1072  uint matchEnd */\n      0x00\n        /* \"contracts/betting.sol\":1088:1098  95 seconds */\n      0x5f\n        /* \"contracts/betting.sol\":1075:1085  _startTime */\n      dup4\n        /* \"contracts/betting.sol\":1075:1098  _startTime + 95 seconds */\n      tag_118\n      swap2\n      swap1\n      tag_119\n      jump\t// in\n    tag_118:\n        /* \"contracts/betting.sol\":1059:1098  uint matchEnd = _startTime + 95 seconds */\n      swap1\n      pop\n        /* \"contracts/betting.sol\":1109:1139  Results memory startingResults */\n      0x00\n        /* \"contracts/betting.sol\":1142:1155  Results(0, 0) */\n      mload(0x40)\n      dup1\n      0x40\n      add\n      0x40\n      mstore\n      dup1\n        /* \"contracts/betting.sol\":1150:1151  0 */\n      0x00\n        /* \"contracts/betting.sol\":1142:1155  Results(0, 0) */\n      dup2\n      mstore\n      0x20\n      add\n        /* \"contracts/betting.sol\":1153:1154  0 */\n      0x00\n        /* \"contracts/betting.sol\":1142:1155  Results(0, 0) */\n      dup2\n      mstore\n      pop\n        /* \"contracts/betting.sol\":1109:1155  Results memory startingResults = Results(0, 0) */\n      swap1\n      pop\n        /* \"contracts/betting.sol\":1166:1175  uint game */\n      0x00\n        /* \"contracts/betting.sol\":1178:1186  allMatch */\n      0x03\n        /* \"contracts/betting.sol\":1178:1193  allMatch.length */\n      dup1\n      sload\n      swap1\n      pop\n        /* \"contracts/betting.sol\":1166:1193  uint game = allMatch.length */\n      swap1\n      pop\n        /* \"contracts/betting.sol\":1217:1283  Match(_HomeTeam, _AwayTeam, _startTime, matchEnd, startingResults) */\n      mload(0x40)\n      dup1\n      0xa0\n      add\n      0x40\n      mstore\n      dup1\n        /* \"contracts/betting.sol\":1223:1232  _HomeTeam */\n      dup11\n      dup11\n        /* \"contracts/betting.sol\":1217:1283  Match(_HomeTeam, _AwayTeam, _startTime, matchEnd, startingResults) */\n      dup1\n      dup1\n      0x1f\n      add\n      0x20\n      dup1\n      swap2\n      div\n      mul\n      0x20\n      add\n      mload(0x40)\n      swap1\n      dup2\n      add\n      0x40\n      mstore\n      dup1\n      swap4\n      swap3\n      swap2\n      swap1\n      dup2\n      dup2\n      mstore\n      0x20\n      add\n      dup4\n      dup4\n      dup1\n      dup3\n      dup5\n      calldatacopy\n      0x00\n      dup2\n      dup5\n      add\n      mstore\n      not(0x1f)\n      0x1f\n      dup3\n      add\n      and\n      swap1\n      pop\n      dup1\n      dup4\n      add\n      swap3\n      pop\n      pop\n      pop\n      pop\n      pop\n      pop\n      pop\n      dup2\n      mstore\n      0x20\n      add\n        /* \"contracts/betting.sol\":1234:1243  _AwayTeam */\n      dup9\n      dup9\n        /* \"contracts/betting.sol\":1217:1283  Match(_HomeTeam, _AwayTeam, _startTime, matchEnd, startingResults) */\n      dup1\n      dup1\n      0x1f\n      add\n      0x20\n      dup1\n      swap2\n      div\n      mul\n      0x20\n      add\n      mload(0x40)\n      swap1\n      dup2\n      add\n      0x40\n      mstore\n      dup1\n      swap4\n      swap3\n      swap2\n      swap1\n      dup2\n      dup2\n      mstore\n      0x20\n      add\n      dup4\n      dup4\n      dup1\n      dup3\n      dup5\n      calldatacopy\n      0x00\n      dup2\n      dup5\n      add\n      mstore\n      not(0x1f)\n      0x1f\n      dup3\n      add\n      and\n      swap1\n      pop\n      dup1\n      dup4\n      add\n      swap3\n      pop\n      pop\n      pop\n      pop\n      pop\n      pop\n      pop\n      dup2\n      mstore\n      0x20\n      add\n        /* \"contracts/betting.sol\":1245:1255  _startTime */\n      dup7\n        /* \"contracts/betting.sol\":1217:1283  Match(_HomeTeam, _AwayTeam, _startTime, matchEnd, startingResults) */\n      dup2\n      mstore\n      0x20\n      add\n        /* \"contracts/betting.sol\":1257:1265  matchEnd */\n      dup5\n        /* \"contracts/betting.sol\":1217:1283  Match(_HomeTeam, _AwayTeam, _startTime, matchEnd, startingResults) */\n      dup2\n      mstore\n      0x20\n      add\n        /* \"contracts/betting.sol\":1267:1282  startingResults */\n      dup4\n        /* \"contracts/betting.sol\":1217:1283  Match(_HomeTeam, _AwayTeam, _startTime, matchEnd, startingResults) */\n      dup2\n      mstore\n      pop\n        /* \"contracts/betting.sol\":1204:1208  Game */\n      0x01\n        /* \"contracts/betting.sol\":1204:1214  Game[game] */\n      0x00\n        /* \"contracts/betting.sol\":1209:1213  game */\n      dup4\n        /* \"contracts/betting.sol\":1204:1214  Game[game] */\n      dup2\n      mstore\n      0x20\n      add\n      swap1\n      dup2\n      mstore\n      0x20\n      add\n      0x00\n      keccak256\n        /* \"contracts/betting.sol\":1204:1283  Game[game] = Match(_HomeTeam, _AwayTeam, _startTime, matchEnd, startingResults) */\n      0x00\n      dup3\n      add\n      mload\n      dup2\n      0x00\n      add\n      swap1\n      dup2\n      tag_120\n      swap2\n      swap1\n      tag_121\n      jump\t// in\n    tag_120:\n      pop\n      0x20\n      dup3\n      add\n      mload\n      dup2\n      0x01\n      add\n      swap1\n      dup2\n      tag_122\n      swap2\n      swap1\n      tag_121\n      jump\t// in\n    tag_122:\n      pop\n      0x40\n      dup3\n      add\n      mload\n      dup2\n      0x02\n      add\n      sstore\n      0x60\n      dup3\n      add\n      mload\n      dup2\n      0x03\n      add\n      sstore\n      0x80\n      dup3\n      add\n      mload\n      dup2\n      0x04\n      add\n      0x00\n      dup3\n      add\n      mload\n      dup2\n      0x00\n      add\n      sstore\n      0x20\n      dup3\n      add\n      mload\n      dup2\n      0x01\n      add\n      sstore\n      pop\n      pop\n      swap1\n      pop\n      pop\n        /* \"contracts/betting.sol\":1294:1302  allMatch */\n      0x03\n        /* \"contracts/betting.sol\":1308:1374  Match(_HomeTeam, _AwayTeam, _startTime, matchEnd, startingResults) */\n      mload(0x40)\n      dup1\n      0xa0\n      add\n      0x40\n      mstore\n      dup1\n        /* \"contracts/betting.sol\":1314:1323  _HomeTeam */\n      dup12\n      dup12\n        /* \"contracts/betting.sol\":1308:1374  Match(_HomeTeam, _AwayTeam, _startTime, matchEnd, startingResults) */\n      dup1\n      dup1\n      0x1f\n      add\n      0x20\n      dup1\n      swap2\n      div\n      mul\n      0x20\n      add\n      mload(0x40)\n      swap1\n      dup2\n      add\n      0x40\n      mstore\n      dup1\n      swap4\n      swap3\n      swap2\n      swap1\n      dup2\n      dup2\n      mstore\n      0x20\n      add\n      dup4\n      dup4\n      dup1\n      dup3\n      dup5\n      calldatacopy\n      0x00\n      dup2\n      dup5\n      add\n      mstore\n      not(0x1f)\n      0x1f\n      dup3\n      add\n      and\n      swap1\n      pop\n      dup1\n      dup4\n      add\n      swap3\n      pop\n      pop\n      pop\n      pop\n      pop\n      pop\n      pop\n      dup2\n      mstore\n      0x20\n      add\n        /* \"contracts/betting.sol\":1325:1334  _AwayTeam */\n      dup10\n      dup10\n        /* \"contracts/betting.sol\":1308:1374  Match(_HomeTeam, _AwayTeam, _startTime, matchEnd, startingResults) */\n      dup1\n      dup1\n      0x1f\n      add\n      0x20\n      dup1\n      swap2\n      div\n      mul\n      0x20\n      add\n      mload(0x40)\n      swap1\n      dup2\n      add\n      0x40\n      mstore\n      dup1\n      swap4\n      swap3\n      swap2\n      swap1\n      dup2\n      dup2\n      mstore\n      0x20\n      add\n      dup4\n      dup4\n      dup1\n      dup3\n      dup5\n      calldatacopy\n      0x00\n      dup2\n      dup5\n      add\n      mstore\n      not(0x1f)\n      0x1f\n      dup3\n      add\n      and\n      swap1\n      pop\n      dup1\n      dup4\n      add\n      swap3\n      pop\n      pop\n      pop\n      pop\n      pop\n      pop\n      pop\n      dup2\n      mstore\n      0x20\n      add\n        /* \"contracts/betting.sol\":1336:1346  _startTime */\n      dup8\n        /* \"contracts/betting.sol\":1308:1374  Match(_HomeTeam, _AwayTeam, _startTime, matchEnd, startingResults) */\n      dup2\n      mstore\n      0x20\n      add\n        /* \"contracts/betting.sol\":1348:1356  matchEnd */\n      dup6\n        /* \"contracts/betting.sol\":1308:1374  Match(_HomeTeam, _AwayTeam, _startTime, matchEnd, startingResults) */\n      dup2\n      mstore\n      0x20\n      add\n        /* \"contracts/betting.sol\":1358:1373  startingResults */\n      dup5\n        /* \"contracts/betting.sol\":1308:1374  Match(_HomeTeam, _AwayTeam, _startTime, matchEnd, startingResults) */\n      dup2\n      mstore\n      pop\n        /* \"contracts/betting.sol\":1294:1375  allMatch.push(Match(_HomeTeam, _AwayTeam, _startTime, matchEnd, startingResults)) */\n      swap1\n      dup1\n      0x01\n      dup2\n      sload\n      add\n      dup1\n      dup3\n      sstore\n      dup1\n      swap2\n      pop\n      pop\n      0x01\n      swap1\n      sub\n      swap1\n      0x00\n      mstore\n      keccak256(0x00, 0x20)\n      swap1\n      0x06\n      mul\n      add\n      0x00\n      swap1\n      swap2\n      swap1\n      swap2\n      swap1\n      swap2\n      pop\n      0x00\n      dup3\n      add\n      mload\n      dup2\n      0x00\n      add\n      swap1\n      dup2\n      tag_124\n      swap2\n      swap1\n      tag_121\n      jump\t// in\n    tag_124:\n      pop\n      0x20\n      dup3\n      add\n      mload\n      dup2\n      0x01\n      add\n      swap1\n      dup2\n      tag_125\n      swap2\n      swap1\n      tag_121\n      jump\t// in\n    tag_125:\n      pop\n      0x40\n      dup3\n      add\n      mload\n      dup2\n      0x02\n      add\n      sstore\n      0x60\n      dup3\n      add\n      mload\n      dup2\n      0x03\n      add\n      sstore\n      0x80\n      dup3\n      add\n      mload\n      dup2\n      0x04\n      add\n      0x00\n      dup3\n      add\n      mload\n      dup2\n      0x00\n      add\n      sstore\n      0x20\n      dup3\n      add\n      mload\n      dup2\n      0x01\n      add\n      sstore\n      pop\n      pop\n      pop\n      pop\n        /* \"contracts/betting.sol\":1393:1397  true */\n      0x01\n        /* \"contracts/betting.sol\":1386:1397  return true */\n      swap4\n      pop\n      pop\n      pop\n      pop\n        /* \"contracts/betting.sol\":875:1405  function instantiateMatch(string calldata _HomeTeam, string calldata _AwayTeam, uint _startTime) external returns (bool) {... */\n      swap6\n      swap5\n      pop\n      pop\n      pop\n      pop\n      pop\n      jump\t// out\n        /* \"contracts/betting.sol\":1413:1844  function closeMatch(uint epoch, uint _homeScore, uint _awayScore) external {... */\n    tag_56:\n        /* \"contracts/betting.sol\":1516:1526  msg.sender */\n      caller\n        /* \"contracts/betting.sol\":1507:1526  admin == msg.sender */\n      0xffffffffffffffffffffffffffffffffffffffff\n      and\n        /* \"contracts/betting.sol\":1507:1512  admin */\n      0x00\n      dup1\n      sload\n      swap1\n      0x0100\n      exp\n      swap1\n      div\n      0xffffffffffffffffffffffffffffffffffffffff\n      and\n        /* \"contracts/betting.sol\":1507:1526  admin == msg.sender */\n      0xffffffffffffffffffffffffffffffffffffffff\n      and\n      eq\n        /* \"contracts/betting.sol\":1499:1540  require(admin == msg.sender, \"Not Owner\") */\n      tag_127\n      jumpi\n      mload(0x40)\n      0x08c379a000000000000000000000000000000000000000000000000000000000\n      dup2\n      mstore\n      0x04\n      add\n      tag_128\n      swap1\n      tag_117\n      jump\t// in\n    tag_128:\n      mload(0x40)\n      dup1\n      swap2\n      sub\n      swap1\n      revert\n    tag_127:\n        /* \"contracts/betting.sol\":1551:1567  uint currentTime */\n      0x00\n        /* \"contracts/betting.sol\":1570:1585  block.timestamp */\n      timestamp\n        /* \"contracts/betting.sol\":1551:1585  uint currentTime = block.timestamp */\n      swap1\n      pop\n        /* \"contracts/betting.sol\":1619:1627  allMatch */\n      0x03\n        /* \"contracts/betting.sol\":1628:1633  epoch */\n      dup5\n        /* \"contracts/betting.sol\":1619:1634  allMatch[epoch] */\n      dup2\n      sload\n      dup2\n      lt\n      tag_129\n      jumpi\n      tag_130\n      tag_78\n      jump\t// in\n    tag_130:\n    tag_129:\n      swap1\n      0x00\n      mstore\n      keccak256(0x00, 0x20)\n      swap1\n      0x06\n      mul\n      add\n        /* \"contracts/betting.sol\":1619:1642  allMatch[epoch].endTime */\n      0x03\n      add\n      sload\n        /* \"contracts/betting.sol\":1604:1615  currentTime */\n      dup2\n        /* \"contracts/betting.sol\":1604:1642  currentTime >= allMatch[epoch].endTime */\n      lt\n      iszero\n        /* \"contracts/betting.sol\":1596:1664  require(currentTime >= allMatch[epoch].endTime, \"Match is still on\") */\n      tag_132\n      jumpi\n      mload(0x40)\n      0x08c379a000000000000000000000000000000000000000000000000000000000\n      dup2\n      mstore\n      0x04\n      add\n      tag_133\n      swap1\n      tag_134\n      jump\t// in\n    tag_133:\n      mload(0x40)\n      dup1\n      swap2\n      sub\n      swap1\n      revert\n    tag_132:\n        /* \"contracts/betting.sol\":1675:1704  Results memory closingResults */\n      0x00\n        /* \"contracts/betting.sol\":1707:1738  Results(_homeScore, _awayScore) */\n      mload(0x40)\n      dup1\n      0x40\n      add\n      0x40\n      mstore\n      dup1\n        /* \"contracts/betting.sol\":1715:1725  _homeScore */\n      dup6\n        /* \"contracts/betting.sol\":1707:1738  Results(_homeScore, _awayScore) */\n      dup2\n      mstore\n      0x20\n      add\n        /* \"contracts/betting.sol\":1727:1737  _awayScore */\n      dup5\n        /* \"contracts/betting.sol\":1707:1738  Results(_homeScore, _awayScore) */\n      dup2\n      mstore\n      pop\n        /* \"contracts/betting.sol\":1675:1738  Results memory closingResults = Results(_homeScore, _awayScore) */\n      swap1\n      pop\n        /* \"contracts/betting.sol\":1775:1789  closingResults */\n      dup1\n        /* \"contracts/betting.sol\":1749:1757  allMatch */\n      0x03\n        /* \"contracts/betting.sol\":1758:1763  epoch */\n      dup7\n        /* \"contracts/betting.sol\":1749:1764  allMatch[epoch] */\n      dup2\n      sload\n      dup2\n      lt\n      tag_135\n      jumpi\n      tag_136\n      tag_78\n      jump\t// in\n    tag_136:\n    tag_135:\n      swap1\n      0x00\n      mstore\n      keccak256(0x00, 0x20)\n      swap1\n      0x06\n      mul\n      add\n        /* \"contracts/betting.sol\":1749:1772  allMatch[epoch].results */\n      0x04\n      add\n        /* \"contracts/betting.sol\":1749:1789  allMatch[epoch].results = closingResults */\n      0x00\n      dup3\n      add\n      mload\n      dup2\n      0x00\n      add\n      sstore\n      0x20\n      dup3\n      add\n      mload\n      dup2\n      0x01\n      add\n      sstore\n      swap1\n      pop\n      pop\n        /* \"contracts/betting.sol\":1822:1836  closingResults */\n      dup1\n        /* \"contracts/betting.sol\":1800:1804  Game */\n      0x01\n        /* \"contracts/betting.sol\":1800:1811  Game[epoch] */\n      0x00\n        /* \"contracts/betting.sol\":1805:1810  epoch */\n      dup8\n        /* \"contracts/betting.sol\":1800:1811  Game[epoch] */\n      dup2\n      mstore\n      0x20\n      add\n      swap1\n      dup2\n      mstore\n      0x20\n      add\n      0x00\n      keccak256\n        /* \"contracts/betting.sol\":1800:1819  Game[epoch].results */\n      0x04\n      add\n        /* \"contracts/betting.sol\":1800:1836  Game[epoch].results = closingResults */\n      0x00\n      dup3\n      add\n      mload\n      dup2\n      0x00\n      add\n      sstore\n      0x20\n      dup3\n      add\n      mload\n      dup2\n      0x01\n      add\n      sstore\n      swap1\n      pop\n      pop\n        /* \"contracts/betting.sol\":1488:1844  {... */\n      pop\n      pop\n        /* \"contracts/betting.sol\":1413:1844  function closeMatch(uint epoch, uint _homeScore, uint _awayScore) external {... */\n      pop\n      pop\n      pop\n      jump\t// out\n        /* \"contracts/betting.sol\":148:168  address public admin */\n    tag_59:\n      0x00\n      dup1\n      sload\n      swap1\n      0x0100\n      exp\n      swap1\n      div\n      0xffffffffffffffffffffffffffffffffffffffff\n      and\n      dup2\n      jump\t// out\n        /* \"#utility.yul\":88:205   */\n    tag_139:\n        /* \"#utility.yul\":197:198   */\n      0x00\n        /* \"#utility.yul\":194:195   */\n      dup1\n        /* \"#utility.yul\":187:199   */\n      revert\n        /* \"#utility.yul\":211:328   */\n    tag_140:\n        /* \"#utility.yul\":320:321   */\n      0x00\n        /* \"#utility.yul\":317:318   */\n      dup1\n        /* \"#utility.yul\":310:322   */\n      revert\n        /* \"#utility.yul\":334:411   */\n    tag_141:\n        /* \"#utility.yul\":371:378   */\n      0x00\n        /* \"#utility.yul\":400:405   */\n      dup2\n        /* \"#utility.yul\":389:405   */\n      swap1\n      pop\n        /* \"#utility.yul\":334:411   */\n      swap2\n      swap1\n      pop\n      jump\t// out\n        /* \"#utility.yul\":417:539   */\n    tag_142:\n        /* \"#utility.yul\":490:514   */\n      tag_205\n        /* \"#utility.yul\":508:513   */\n      dup2\n        /* \"#utility.yul\":490:514   */\n      tag_141\n      jump\t// in\n    tag_205:\n        /* \"#utility.yul\":483:488   */\n      dup2\n        /* \"#utility.yul\":480:515   */\n      eq\n        /* \"#utility.yul\":470:533   */\n      tag_206\n      jumpi\n        /* \"#utility.yul\":529:530   */\n      0x00\n        /* \"#utility.yul\":526:527   */\n      dup1\n        /* \"#utility.yul\":519:531   */\n      revert\n        /* \"#utility.yul\":470:533   */\n    tag_206:\n        /* \"#utility.yul\":417:539   */\n      pop\n      jump\t// out\n        /* \"#utility.yul\":545:684   */\n    tag_143:\n        /* \"#utility.yul\":591:596   */\n      0x00\n        /* \"#utility.yul\":629:635   */\n      dup2\n        /* \"#utility.yul\":616:636   */\n      calldataload\n        /* \"#utility.yul\":607:636   */\n      swap1\n      pop\n        /* \"#utility.yul\":645:678   */\n      tag_208\n        /* \"#utility.yul\":672:677   */\n      dup2\n        /* \"#utility.yul\":645:678   */\n      tag_142\n      jump\t// in\n    tag_208:\n        /* \"#utility.yul\":545:684   */\n      swap3\n      swap2\n      pop\n      pop\n      jump\t// out\n        /* \"#utility.yul\":690:798   */\n    tag_144:\n        /* \"#utility.yul\":772:773   */\n      0x04\n        /* \"#utility.yul\":765:770   */\n      dup2\n        /* \"#utility.yul\":762:774   */\n      lt\n        /* \"#utility.yul\":752:792   */\n      tag_210\n      jumpi\n        /* \"#utility.yul\":788:789   */\n      0x00\n        /* \"#utility.yul\":785:786   */\n      dup1\n        /* \"#utility.yul\":778:790   */\n      revert\n        /* \"#utility.yul\":752:792   */\n    tag_210:\n        /* \"#utility.yul\":690:798   */\n      pop\n      jump\t// out\n        /* \"#utility.yul\":804:961   */\n    tag_145:\n        /* \"#utility.yul\":859:864   */\n      0x00\n        /* \"#utility.yul\":897:903   */\n      dup2\n        /* \"#utility.yul\":884:904   */\n      calldataload\n        /* \"#utility.yul\":875:904   */\n      swap1\n      pop\n        /* \"#utility.yul\":913:955   */\n      tag_212\n        /* \"#utility.yul\":949:954   */\n      dup2\n        /* \"#utility.yul\":913:955   */\n      tag_144\n      jump\t// in\n    tag_212:\n        /* \"#utility.yul\":804:961   */\n      swap3\n      swap2\n      pop\n      pop\n      jump\t// out\n        /* \"#utility.yul\":967:1459   */\n    tag_14:\n        /* \"#utility.yul\":1044:1050   */\n      0x00\n        /* \"#utility.yul\":1052:1058   */\n      dup1\n        /* \"#utility.yul\":1101:1103   */\n      0x40\n        /* \"#utility.yul\":1089:1098   */\n      dup4\n        /* \"#utility.yul\":1080:1087   */\n      dup6\n        /* \"#utility.yul\":1076:1099   */\n      sub\n        /* \"#utility.yul\":1072:1104   */\n      slt\n        /* \"#utility.yul\":1069:1188   */\n      iszero\n      tag_214\n      jumpi\n        /* \"#utility.yul\":1107:1186   */\n      tag_215\n      tag_139\n      jump\t// in\n    tag_215:\n        /* \"#utility.yul\":1069:1188   */\n    tag_214:\n        /* \"#utility.yul\":1227:1228   */\n      0x00\n        /* \"#utility.yul\":1252:1305   */\n      tag_216\n        /* \"#utility.yul\":1297:1304   */\n      dup6\n        /* \"#utility.yul\":1288:1294   */\n      dup3\n        /* \"#utility.yul\":1277:1286   */\n      dup7\n        /* \"#utility.yul\":1273:1295   */\n      add\n        /* \"#utility.yul\":1252:1305   */\n      tag_143\n      jump\t// in\n    tag_216:\n        /* \"#utility.yul\":1242:1305   */\n      swap3\n      pop\n        /* \"#utility.yul\":1198:1315   */\n      pop\n        /* \"#utility.yul\":1354:1356   */\n      0x20\n        /* \"#utility.yul\":1380:1442   */\n      tag_217\n        /* \"#utility.yul\":1434:1441   */\n      dup6\n        /* \"#utility.yul\":1425:1431   */\n      dup3\n        /* \"#utility.yul\":1414:1423   */\n      dup7\n        /* \"#utility.yul\":1410:1432   */\n      add\n        /* \"#utility.yul\":1380:1442   */\n      tag_145\n      jump\t// in\n    tag_217:\n        /* \"#utility.yul\":1370:1442   */\n      swap2\n      pop\n        /* \"#utility.yul\":1325:1452   */\n      pop\n        /* \"#utility.yul\":967:1459   */\n      swap3\n      pop\n      swap3\n      swap1\n      pop\n      jump\t// out\n        /* \"#utility.yul\":1465:1794   */\n    tag_19:\n        /* \"#utility.yul\":1524:1530   */\n      0x00\n        /* \"#utility.yul\":1573:1575   */\n      0x20\n        /* \"#utility.yul\":1561:1570   */\n      dup3\n        /* \"#utility.yul\":1552:1559   */\n      dup5\n        /* \"#utility.yul\":1548:1571   */\n      sub\n        /* \"#utility.yul\":1544:1576   */\n      slt\n        /* \"#utility.yul\":1541:1660   */\n      iszero\n      tag_219\n      jumpi\n        /* \"#utility.yul\":1579:1658   */\n      tag_220\n      tag_139\n      jump\t// in\n    tag_220:\n        /* \"#utility.yul\":1541:1660   */\n    tag_219:\n        /* \"#utility.yul\":1699:1700   */\n      0x00\n        /* \"#utility.yul\":1724:1777   */\n      tag_221\n        /* \"#utility.yul\":1769:1776   */\n      dup5\n        /* \"#utility.yul\":1760:1766   */\n      dup3\n        /* \"#utility.yul\":1749:1758   */\n      dup6\n        /* \"#utility.yul\":1745:1767   */\n      add\n        /* \"#utility.yul\":1724:1777   */\n      tag_143\n      jump\t// in\n    tag_221:\n        /* \"#utility.yul\":1714:1777   */\n      swap2\n      pop\n        /* \"#utility.yul\":1670:1787   */\n      pop\n        /* \"#utility.yul\":1465:1794   */\n      swap3\n      swap2\n      pop\n      pop\n      jump\t// out\n        /* \"#utility.yul\":1800:1926   */\n    tag_146:\n        /* \"#utility.yul\":1837:1844   */\n      0x00\n        /* \"#utility.yul\":1877:1919   */\n      0xffffffffffffffffffffffffffffffffffffffff\n        /* \"#utility.yul\":1870:1875   */\n      dup3\n        /* \"#utility.yul\":1866:1920   */\n      and\n        /* \"#utility.yul\":1855:1920   */\n      swap1\n      pop\n        /* \"#utility.yul\":1800:1926   */\n      swap2\n      swap1\n      pop\n      jump\t// out\n        /* \"#utility.yul\":1932:2028   */\n    tag_147:\n        /* \"#utility.yul\":1969:1976   */\n      0x00\n        /* \"#utility.yul\":1998:2022   */\n      tag_224\n        /* \"#utility.yul\":2016:2021   */\n      dup3\n        /* \"#utility.yul\":1998:2022   */\n      tag_146\n      jump\t// in\n    tag_224:\n        /* \"#utility.yul\":1987:2022   */\n      swap1\n      pop\n        /* \"#utility.yul\":1932:2028   */\n      swap2\n      swap1\n      pop\n      jump\t// out\n        /* \"#utility.yul\":2034:2152   */\n    tag_148:\n        /* \"#utility.yul\":2121:2145   */\n      tag_226\n        /* \"#utility.yul\":2139:2144   */\n      dup2\n        /* \"#utility.yul\":2121:2145   */\n      tag_147\n      jump\t// in\n    tag_226:\n        /* \"#utility.yul\":2116:2119   */\n      dup3\n        /* \"#utility.yul\":2109:2146   */\n      mstore\n        /* \"#utility.yul\":2034:2152   */\n      pop\n      pop\n      jump\t// out\n        /* \"#utility.yul\":2158:2276   */\n    tag_149:\n        /* \"#utility.yul\":2245:2269   */\n      tag_228\n        /* \"#utility.yul\":2263:2268   */\n      dup2\n        /* \"#utility.yul\":2245:2269   */\n      tag_141\n      jump\t// in\n    tag_228:\n        /* \"#utility.yul\":2240:2243   */\n      dup3\n        /* \"#utility.yul\":2233:2270   */\n      mstore\n        /* \"#utility.yul\":2158:2276   */\n      pop\n      pop\n      jump\t// out\n        /* \"#utility.yul\":2282:2462   */\n    tag_71:\n        /* \"#utility.yul\":2330:2407   */\n      0x4e487b7100000000000000000000000000000000000000000000000000000000\n        /* \"#utility.yul\":2327:2328   */\n      0x00\n        /* \"#utility.yul\":2320:2408   */\n      mstore\n        /* \"#utility.yul\":2427:2431   */\n      0x21\n        /* \"#utility.yul\":2424:2425   */\n      0x04\n        /* \"#utility.yul\":2417:2432   */\n      mstore\n        /* \"#utility.yul\":2451:2455   */\n      0x24\n        /* \"#utility.yul\":2448:2449   */\n      0x00\n        /* \"#utility.yul\":2441:2456   */\n      revert\n        /* \"#utility.yul\":2468:2582   */\n    tag_150:\n        /* \"#utility.yul\":2550:2551   */\n      0x04\n        /* \"#utility.yul\":2543:2548   */\n      dup2\n        /* \"#utility.yul\":2540:2552   */\n      lt\n        /* \"#utility.yul\":2530:2576   */\n      tag_231\n      jumpi\n        /* \"#utility.yul\":2556:2574   */\n      tag_232\n      tag_71\n      jump\t// in\n    tag_232:\n        /* \"#utility.yul\":2530:2576   */\n    tag_231:\n        /* \"#utility.yul\":2468:2582   */\n      pop\n      jump\t// out\n        /* \"#utility.yul\":2588:2717   */\n    tag_151:\n        /* \"#utility.yul\":2634:2641   */\n      0x00\n        /* \"#utility.yul\":2663:2668   */\n      dup2\n        /* \"#utility.yul\":2652:2668   */\n      swap1\n      pop\n        /* \"#utility.yul\":2669:2711   */\n      tag_234\n        /* \"#utility.yul\":2705:2710   */\n      dup3\n        /* \"#utility.yul\":2669:2711   */\n      tag_150\n      jump\t// in\n    tag_234:\n        /* \"#utility.yul\":2588:2717   */\n      swap2\n      swap1\n      pop\n      jump\t// out\n        /* \"#utility.yul\":2723:2852   */\n    tag_152:\n        /* \"#utility.yul\":2780:2789   */\n      0x00\n        /* \"#utility.yul\":2813:2846   */\n      tag_236\n        /* \"#utility.yul\":2840:2845   */\n      dup3\n        /* \"#utility.yul\":2813:2846   */\n      tag_151\n      jump\t// in\n    tag_236:\n        /* \"#utility.yul\":2800:2846   */\n      swap1\n      pop\n        /* \"#utility.yul\":2723:2852   */\n      swap2\n      swap1\n      pop\n      jump\t// out\n        /* \"#utility.yul\":2858:3003   */\n    tag_153:\n        /* \"#utility.yul\":2952:2996   */\n      tag_238\n        /* \"#utility.yul\":2990:2995   */\n      dup2\n        /* \"#utility.yul\":2952:2996   */\n      tag_152\n      jump\t// in\n    tag_238:\n        /* \"#utility.yul\":2947:2950   */\n      dup3\n        /* \"#utility.yul\":2940:2997   */\n      mstore\n        /* \"#utility.yul\":2858:3003   */\n      pop\n      pop\n      jump\t// out\n        /* \"#utility.yul\":3009:3465   */\n    tag_22:\n        /* \"#utility.yul\":3165:3169   */\n      0x00\n        /* \"#utility.yul\":3203:3205   */\n      0x60\n        /* \"#utility.yul\":3192:3201   */\n      dup3\n        /* \"#utility.yul\":3188:3206   */\n      add\n        /* \"#utility.yul\":3180:3206   */\n      swap1\n      pop\n        /* \"#utility.yul\":3216:3287   */\n      tag_240\n        /* \"#utility.yul\":3284:3285   */\n      0x00\n        /* \"#utility.yul\":3273:3282   */\n      dup4\n        /* \"#utility.yul\":3269:3286   */\n      add\n        /* \"#utility.yul\":3260:3266   */\n      dup7\n        /* \"#utility.yul\":3216:3287   */\n      tag_148\n      jump\t// in\n    tag_240:\n        /* \"#utility.yul\":3297:3369   */\n      tag_241\n        /* \"#utility.yul\":3365:3367   */\n      0x20\n        /* \"#utility.yul\":3354:3363   */\n      dup4\n        /* \"#utility.yul\":3350:3368   */\n      add\n        /* \"#utility.yul\":3341:3347   */\n      dup6\n        /* \"#utility.yul\":3297:3369   */\n      tag_149\n      jump\t// in\n    tag_241:\n        /* \"#utility.yul\":3379:3458   */\n      tag_242\n        /* \"#utility.yul\":3454:3456   */\n      0x40\n        /* \"#utility.yul\":3443:3452   */\n      dup4\n        /* \"#utility.yul\":3439:3457   */\n      add\n        /* \"#utility.yul\":3430:3436   */\n      dup5\n        /* \"#utility.yul\":3379:3458   */\n      tag_153\n      jump\t// in\n    tag_242:\n        /* \"#utility.yul\":3009:3465   */\n      swap5\n      swap4\n      pop\n      pop\n      pop\n      pop\n      jump\t// out\n        /* \"#utility.yul\":3471:3570   */\n    tag_154:\n        /* \"#utility.yul\":3523:3529   */\n      0x00\n        /* \"#utility.yul\":3557:3562   */\n      dup2\n        /* \"#utility.yul\":3551:3563   */\n      mload\n        /* \"#utility.yul\":3541:3563   */\n      swap1\n      pop\n        /* \"#utility.yul\":3471:3570   */\n      swap2\n      swap1\n      pop\n      jump\t// out\n        /* \"#utility.yul\":3576:3745   */\n    tag_155:\n        /* \"#utility.yul\":3660:3671   */\n      0x00\n        /* \"#utility.yul\":3694:3700   */\n      dup3\n        /* \"#utility.yul\":3689:3692   */\n      dup3\n        /* \"#utility.yul\":3682:3701   */\n      mstore\n        /* \"#utility.yul\":3734:3738   */\n      0x20\n        /* \"#utility.yul\":3729:3732   */\n      dup3\n        /* \"#utility.yul\":3725:3739   */\n      add\n        /* \"#utility.yul\":3710:3739   */\n      swap1\n      pop\n        /* \"#utility.yul\":3576:3745   */\n      swap3\n      swap2\n      pop\n      pop\n      jump\t// out\n        /* \"#utility.yul\":3751:3997   */\n    tag_156:\n        /* \"#utility.yul\":3832:3833   */\n      0x00\n        /* \"#utility.yul\":3842:3955   */\n    tag_246:\n        /* \"#utility.yul\":3856:3862   */\n      dup4\n        /* \"#utility.yul\":3853:3854   */\n      dup2\n        /* \"#utility.yul\":3850:3863   */\n      lt\n        /* \"#utility.yul\":3842:3955   */\n      iszero\n      tag_248\n      jumpi\n        /* \"#utility.yul\":3941:3942   */\n      dup1\n        /* \"#utility.yul\":3936:3939   */\n      dup3\n        /* \"#utility.yul\":3932:3943   */\n      add\n        /* \"#utility.yul\":3926:3944   */\n      mload\n        /* \"#utility.yul\":3922:3923   */\n      dup2\n        /* \"#utility.yul\":3917:3920   */\n      dup5\n        /* \"#utility.yul\":3913:3924   */\n      add\n        /* \"#utility.yul\":3906:3945   */\n      mstore\n        /* \"#utility.yul\":3878:3880   */\n      0x20\n        /* \"#utility.yul\":3875:3876   */\n      dup2\n        /* \"#utility.yul\":3871:3881   */\n      add\n        /* \"#utility.yul\":3866:3881   */\n      swap1\n      pop\n        /* \"#utility.yul\":3842:3955   */\n      jump(tag_246)\n    tag_248:\n        /* \"#utility.yul\":3989:3990   */\n      0x00\n        /* \"#utility.yul\":3980:3986   */\n      dup5\n        /* \"#utility.yul\":3975:3978   */\n      dup5\n        /* \"#utility.yul\":3971:3987   */\n      add\n        /* \"#utility.yul\":3964:3991   */\n      mstore\n        /* \"#utility.yul\":3813:3997   */\n      pop\n        /* \"#utility.yul\":3751:3997   */\n      pop\n      pop\n      pop\n      jump\t// out\n        /* \"#utility.yul\":4003:4105   */\n    tag_157:\n        /* \"#utility.yul\":4044:4050   */\n      0x00\n        /* \"#utility.yul\":4095:4097   */\n      0x1f\n        /* \"#utility.yul\":4091:4098   */\n      not\n        /* \"#utility.yul\":4086:4088   */\n      0x1f\n        /* \"#utility.yul\":4079:4084   */\n      dup4\n        /* \"#utility.yul\":4075:4089   */\n      add\n        /* \"#utility.yul\":4071:4099   */\n      and\n        /* \"#utility.yul\":4061:4099   */\n      swap1\n      pop\n        /* \"#utility.yul\":4003:4105   */\n      swap2\n      swap1\n      pop\n      jump\t// out\n        /* \"#utility.yul\":4111:4488   */\n    tag_158:\n        /* \"#utility.yul\":4199:4202   */\n      0x00\n        /* \"#utility.yul\":4227:4266   */\n      tag_251\n        /* \"#utility.yul\":4260:4265   */\n      dup3\n        /* \"#utility.yul\":4227:4266   */\n      tag_154\n      jump\t// in\n    tag_251:\n        /* \"#utility.yul\":4282:4353   */\n      tag_252\n        /* \"#utility.yul\":4346:4352   */\n      dup2\n        /* \"#utility.yul\":4341:4344   */\n      dup6\n        /* \"#utility.yul\":4282:4353   */\n      tag_155\n      jump\t// in\n    tag_252:\n        /* \"#utility.yul\":4275:4353   */\n      swap4\n      pop\n        /* \"#utility.yul\":4362:4427   */\n      tag_253\n        /* \"#utility.yul\":4420:4426   */\n      dup2\n        /* \"#utility.yul\":4415:4418   */\n      dup6\n        /* \"#utility.yul\":4408:4412   */\n      0x20\n        /* \"#utility.yul\":4401:4406   */\n      dup7\n        /* \"#utility.yul\":4397:4413   */\n      add\n        /* \"#utility.yul\":4362:4427   */\n      tag_156\n      jump\t// in\n    tag_253:\n        /* \"#utility.yul\":4452:4481   */\n      tag_254\n        /* \"#utility.yul\":4474:4480   */\n      dup2\n        /* \"#utility.yul\":4452:4481   */\n      tag_157\n      jump\t// in\n    tag_254:\n        /* \"#utility.yul\":4447:4450   */\n      dup5\n        /* \"#utility.yul\":4443:4482   */\n      add\n        /* \"#utility.yul\":4436:4482   */\n      swap2\n      pop\n        /* \"#utility.yul\":4203:4488   */\n      pop\n        /* \"#utility.yul\":4111:4488   */\n      swap3\n      swap2\n      pop\n      pop\n      jump\t// out\n        /* \"#utility.yul\":4494:4602   */\n    tag_159:\n        /* \"#utility.yul\":4571:4595   */\n      tag_256\n        /* \"#utility.yul\":4589:4594   */\n      dup2\n        /* \"#utility.yul\":4571:4595   */\n      tag_141\n      jump\t// in\n    tag_256:\n        /* \"#utility.yul\":4566:4569   */\n      dup3\n        /* \"#utility.yul\":4559:4596   */\n      mstore\n        /* \"#utility.yul\":4494:4602   */\n      pop\n      pop\n      jump\t// out\n        /* \"#utility.yul\":4676:5191   */\n    tag_160:\n        /* \"#utility.yul\":4819:4823   */\n      0x40\n        /* \"#utility.yul\":4814:4817   */\n      dup3\n        /* \"#utility.yul\":4810:4824   */\n      add\n        /* \"#utility.yul\":4912:4916   */\n      0x00\n        /* \"#utility.yul\":4905:4910   */\n      dup3\n        /* \"#utility.yul\":4901:4917   */\n      add\n        /* \"#utility.yul\":4895:4918   */\n      mload\n        /* \"#utility.yul\":4931:4994   */\n      tag_258\n        /* \"#utility.yul\":4988:4992   */\n      0x00\n        /* \"#utility.yul\":4983:4986   */\n      dup6\n        /* \"#utility.yul\":4979:4993   */\n      add\n        /* \"#utility.yul\":4965:4977   */\n      dup3\n        /* \"#utility.yul\":4931:4994   */\n      tag_159\n      jump\t// in\n    tag_258:\n        /* \"#utility.yul\":4834:5004   */\n      pop\n        /* \"#utility.yul\":5092:5096   */\n      0x20\n        /* \"#utility.yul\":5085:5090   */\n      dup3\n        /* \"#utility.yul\":5081:5097   */\n      add\n        /* \"#utility.yul\":5075:5098   */\n      mload\n        /* \"#utility.yul\":5111:5174   */\n      tag_259\n        /* \"#utility.yul\":5168:5172   */\n      0x20\n        /* \"#utility.yul\":5163:5166   */\n      dup6\n        /* \"#utility.yul\":5159:5173   */\n      add\n        /* \"#utility.yul\":5145:5157   */\n      dup3\n        /* \"#utility.yul\":5111:5174   */\n      tag_159\n      jump\t// in\n    tag_259:\n        /* \"#utility.yul\":5014:5184   */\n      pop\n        /* \"#utility.yul\":4788:5191   */\n      pop\n        /* \"#utility.yul\":4676:5191   */\n      pop\n      pop\n      jump\t// out\n        /* \"#utility.yul\":5197:6135   */\n    tag_28:\n        /* \"#utility.yul\":5488:5492   */\n      0x00\n        /* \"#utility.yul\":5526:5529   */\n      0xc0\n        /* \"#utility.yul\":5515:5524   */\n      dup3\n        /* \"#utility.yul\":5511:5530   */\n      add\n        /* \"#utility.yul\":5503:5530   */\n      swap1\n      pop\n        /* \"#utility.yul\":5576:5585   */\n      dup2\n        /* \"#utility.yul\":5570:5574   */\n      dup2\n        /* \"#utility.yul\":5566:5586   */\n      sub\n        /* \"#utility.yul\":5562:5563   */\n      0x00\n        /* \"#utility.yul\":5551:5560   */\n      dup4\n        /* \"#utility.yul\":5547:5564   */\n      add\n        /* \"#utility.yul\":5540:5587   */\n      mstore\n        /* \"#utility.yul\":5604:5682   */\n      tag_261\n        /* \"#utility.yul\":5677:5681   */\n      dup2\n        /* \"#utility.yul\":5668:5674   */\n      dup9\n        /* \"#utility.yul\":5604:5682   */\n      tag_158\n      jump\t// in\n    tag_261:\n        /* \"#utility.yul\":5596:5682   */\n      swap1\n      pop\n        /* \"#utility.yul\":5729:5738   */\n      dup2\n        /* \"#utility.yul\":5723:5727   */\n      dup2\n        /* \"#utility.yul\":5719:5739   */\n      sub\n        /* \"#utility.yul\":5714:5716   */\n      0x20\n        /* \"#utility.yul\":5703:5712   */\n      dup4\n        /* \"#utility.yul\":5699:5717   */\n      add\n        /* \"#utility.yul\":5692:5740   */\n      mstore\n        /* \"#utility.yul\":5757:5835   */\n      tag_262\n        /* \"#utility.yul\":5830:5834   */\n      dup2\n        /* \"#utility.yul\":5821:5827   */\n      dup8\n        /* \"#utility.yul\":5757:5835   */\n      tag_158\n      jump\t// in\n    tag_262:\n        /* \"#utility.yul\":5749:5835   */\n      swap1\n      pop\n        /* \"#utility.yul\":5845:5917   */\n      tag_263\n        /* \"#utility.yul\":5913:5915   */\n      0x40\n        /* \"#utility.yul\":5902:5911   */\n      dup4\n        /* \"#utility.yul\":5898:5916   */\n      add\n        /* \"#utility.yul\":5889:5895   */\n      dup7\n        /* \"#utility.yul\":5845:5917   */\n      tag_149\n      jump\t// in\n    tag_263:\n        /* \"#utility.yul\":5927:5999   */\n      tag_264\n        /* \"#utility.yul\":5995:5997   */\n      0x60\n        /* \"#utility.yul\":5984:5993   */\n      dup4\n        /* \"#utility.yul\":5980:5998   */\n      add\n        /* \"#utility.yul\":5971:5977   */\n      dup6\n        /* \"#utility.yul\":5927:5999   */\n      tag_149\n      jump\t// in\n    tag_264:\n        /* \"#utility.yul\":6009:6128   */\n      tag_265\n        /* \"#utility.yul\":6123:6126   */\n      0x80\n        /* \"#utility.yul\":6112:6121   */\n      dup4\n        /* \"#utility.yul\":6108:6127   */\n      add\n        /* \"#utility.yul\":6099:6105   */\n      dup5\n        /* \"#utility.yul\":6009:6128   */\n      tag_160\n      jump\t// in\n    tag_265:\n        /* \"#utility.yul\":5197:6135   */\n      swap7\n      swap6\n      pop\n      pop\n      pop\n      pop\n      pop\n      pop\n      jump\t// out\n        /* \"#utility.yul\":6141:6263   */\n    tag_161:\n        /* \"#utility.yul\":6214:6238   */\n      tag_267\n        /* \"#utility.yul\":6232:6237   */\n      dup2\n        /* \"#utility.yul\":6214:6238   */\n      tag_147\n      jump\t// in\n    tag_267:\n        /* \"#utility.yul\":6207:6212   */\n      dup2\n        /* \"#utility.yul\":6204:6239   */\n      eq\n        /* \"#utility.yul\":6194:6257   */\n      tag_268\n      jumpi\n        /* \"#utility.yul\":6253:6254   */\n      0x00\n        /* \"#utility.yul\":6250:6251   */\n      dup1\n        /* \"#utility.yul\":6243:6255   */\n      revert\n        /* \"#utility.yul\":6194:6257   */\n    tag_268:\n        /* \"#utility.yul\":6141:6263   */\n      pop\n      jump\t// out\n        /* \"#utility.yul\":6269:6408   */\n    tag_162:\n        /* \"#utility.yul\":6315:6320   */\n      0x00\n        /* \"#utility.yul\":6353:6359   */\n      dup2\n        /* \"#utility.yul\":6340:6360   */\n      calldataload\n        /* \"#utility.yul\":6331:6360   */\n      swap1\n      pop\n        /* \"#utility.yul\":6369:6402   */\n      tag_270\n        /* \"#utility.yul\":6396:6401   */\n      dup2\n        /* \"#utility.yul\":6369:6402   */\n      tag_161\n      jump\t// in\n    tag_270:\n        /* \"#utility.yul\":6269:6408   */\n      swap3\n      swap2\n      pop\n      pop\n      jump\t// out\n        /* \"#utility.yul\":6414:6888   */\n    tag_32:\n        /* \"#utility.yul\":6482:6488   */\n      0x00\n        /* \"#utility.yul\":6490:6496   */\n      dup1\n        /* \"#utility.yul\":6539:6541   */\n      0x40\n        /* \"#utility.yul\":6527:6536   */\n      dup4\n        /* \"#utility.yul\":6518:6525   */\n      dup6\n        /* \"#utility.yul\":6514:6537   */\n      sub\n        /* \"#utility.yul\":6510:6542   */\n      slt\n        /* \"#utility.yul\":6507:6626   */\n      iszero\n      tag_272\n      jumpi\n        /* \"#utility.yul\":6545:6624   */\n      tag_273\n      tag_139\n      jump\t// in\n    tag_273:\n        /* \"#utility.yul\":6507:6626   */\n    tag_272:\n        /* \"#utility.yul\":6665:6666   */\n      0x00\n        /* \"#utility.yul\":6690:6743   */\n      tag_274\n        /* \"#utility.yul\":6735:6742   */\n      dup6\n        /* \"#utility.yul\":6726:6732   */\n      dup3\n        /* \"#utility.yul\":6715:6724   */\n      dup7\n        /* \"#utility.yul\":6711:6733   */\n      add\n        /* \"#utility.yul\":6690:6743   */\n      tag_162\n      jump\t// in\n    tag_274:\n        /* \"#utility.yul\":6680:6743   */\n      swap3\n      pop\n        /* \"#utility.yul\":6636:6753   */\n      pop\n        /* \"#utility.yul\":6792:6794   */\n      0x20\n        /* \"#utility.yul\":6818:6871   */\n      tag_275\n        /* \"#utility.yul\":6863:6870   */\n      dup6\n        /* \"#utility.yul\":6854:6860   */\n      dup3\n        /* \"#utility.yul\":6843:6852   */\n      dup7\n        /* \"#utility.yul\":6839:6861   */\n      add\n        /* \"#utility.yul\":6818:6871   */\n      tag_143\n      jump\t// in\n    tag_275:\n        /* \"#utility.yul\":6808:6871   */\n      swap2\n      pop\n        /* \"#utility.yul\":6763:6881   */\n      pop\n        /* \"#utility.yul\":6414:6888   */\n      swap3\n      pop\n      swap3\n      swap1\n      pop\n      jump\t// out\n        /* \"#utility.yul\":6894:6984   */\n    tag_163:\n        /* \"#utility.yul\":6928:6935   */\n      0x00\n        /* \"#utility.yul\":6971:6976   */\n      dup2\n        /* \"#utility.yul\":6964:6977   */\n      iszero\n        /* \"#utility.yul\":6957:6978   */\n      iszero\n        /* \"#utility.yul\":6946:6978   */\n      swap1\n      pop\n        /* \"#utility.yul\":6894:6984   */\n      swap2\n      swap1\n      pop\n      jump\t// out\n        /* \"#utility.yul\":6990:7099   */\n    tag_164:\n        /* \"#utility.yul\":7071:7092   */\n      tag_278\n        /* \"#utility.yul\":7086:7091   */\n      dup2\n        /* \"#utility.yul\":7071:7092   */\n      tag_163\n      jump\t// in\n    tag_278:\n        /* \"#utility.yul\":7066:7069   */\n      dup3\n        /* \"#utility.yul\":7059:7093   */\n      mstore\n        /* \"#utility.yul\":6990:7099   */\n      pop\n      pop\n      jump\t// out\n        /* \"#utility.yul\":7105:7660   */\n    tag_35:\n        /* \"#utility.yul\":7283:7287   */\n      0x00\n        /* \"#utility.yul\":7321:7324   */\n      0x80\n        /* \"#utility.yul\":7310:7319   */\n      dup3\n        /* \"#utility.yul\":7306:7325   */\n      add\n        /* \"#utility.yul\":7298:7325   */\n      swap1\n      pop\n        /* \"#utility.yul\":7335:7413   */\n      tag_280\n        /* \"#utility.yul\":7410:7411   */\n      0x00\n        /* \"#utility.yul\":7399:7408   */\n      dup4\n        /* \"#utility.yul\":7395:7412   */\n      add\n        /* \"#utility.yul\":7386:7392   */\n      dup8\n        /* \"#utility.yul\":7335:7413   */\n      tag_153\n      jump\t// in\n    tag_280:\n        /* \"#utility.yul\":7423:7495   */\n      tag_281\n        /* \"#utility.yul\":7491:7493   */\n      0x20\n        /* \"#utility.yul\":7480:7489   */\n      dup4\n        /* \"#utility.yul\":7476:7494   */\n      add\n        /* \"#utility.yul\":7467:7473   */\n      dup7\n        /* \"#utility.yul\":7423:7495   */\n      tag_149\n      jump\t// in\n    tag_281:\n        /* \"#utility.yul\":7505:7577   */\n      tag_282\n        /* \"#utility.yul\":7573:7575   */\n      0x40\n        /* \"#utility.yul\":7562:7571   */\n      dup4\n        /* \"#utility.yul\":7558:7576   */\n      add\n        /* \"#utility.yul\":7549:7555   */\n      dup6\n        /* \"#utility.yul\":7505:7577   */\n      tag_149\n      jump\t// in\n    tag_282:\n        /* \"#utility.yul\":7587:7653   */\n      tag_283\n        /* \"#utility.yul\":7649:7651   */\n      0x60\n        /* \"#utility.yul\":7638:7647   */\n      dup4\n        /* \"#utility.yul\":7634:7652   */\n      add\n        /* \"#utility.yul\":7625:7631   */\n      dup5\n        /* \"#utility.yul\":7587:7653   */\n      tag_164\n      jump\t// in\n    tag_283:\n        /* \"#utility.yul\":7105:7660   */\n      swap6\n      swap5\n      pop\n      pop\n      pop\n      pop\n      pop\n      jump\t// out\n        /* \"#utility.yul\":7666:7783   */\n    tag_165:\n        /* \"#utility.yul\":7775:7776   */\n      0x00\n        /* \"#utility.yul\":7772:7773   */\n      dup1\n        /* \"#utility.yul\":7765:7777   */\n      revert\n        /* \"#utility.yul\":7789:7906   */\n    tag_166:\n        /* \"#utility.yul\":7898:7899   */\n      0x00\n        /* \"#utility.yul\":7895:7896   */\n      dup1\n        /* \"#utility.yul\":7888:7900   */\n      revert\n        /* \"#utility.yul\":7912:8029   */\n    tag_167:\n        /* \"#utility.yul\":8021:8022   */\n      0x00\n        /* \"#utility.yul\":8018:8019   */\n      dup1\n        /* \"#utility.yul\":8011:8023   */\n      revert\n        /* \"#utility.yul\":8049:8602   */\n    tag_168:\n        /* \"#utility.yul\":8107:8115   */\n      0x00\n        /* \"#utility.yul\":8117:8123   */\n      dup1\n        /* \"#utility.yul\":8167:8170   */\n      dup4\n        /* \"#utility.yul\":8160:8164   */\n      0x1f\n        /* \"#utility.yul\":8152:8158   */\n      dup5\n        /* \"#utility.yul\":8148:8165   */\n      add\n        /* \"#utility.yul\":8144:8171   */\n      slt\n        /* \"#utility.yul\":8134:8256   */\n      tag_288\n      jumpi\n        /* \"#utility.yul\":8175:8254   */\n      tag_289\n      tag_165\n      jump\t// in\n    tag_289:\n        /* \"#utility.yul\":8134:8256   */\n    tag_288:\n        /* \"#utility.yul\":8288:8294   */\n      dup3\n        /* \"#utility.yul\":8275:8295   */\n      calldataload\n        /* \"#utility.yul\":8265:8295   */\n      swap1\n      pop\n        /* \"#utility.yul\":8318:8336   */\n      0xffffffffffffffff\n        /* \"#utility.yul\":8310:8316   */\n      dup2\n        /* \"#utility.yul\":8307:8337   */\n      gt\n        /* \"#utility.yul\":8304:8421   */\n      iszero\n      tag_290\n      jumpi\n        /* \"#utility.yul\":8340:8419   */\n      tag_291\n      tag_166\n      jump\t// in\n    tag_291:\n        /* \"#utility.yul\":8304:8421   */\n    tag_290:\n        /* \"#utility.yul\":8454:8458   */\n      0x20\n        /* \"#utility.yul\":8446:8452   */\n      dup4\n        /* \"#utility.yul\":8442:8459   */\n      add\n        /* \"#utility.yul\":8430:8459   */\n      swap2\n      pop\n        /* \"#utility.yul\":8508:8511   */\n      dup4\n        /* \"#utility.yul\":8500:8504   */\n      0x01\n        /* \"#utility.yul\":8492:8498   */\n      dup3\n        /* \"#utility.yul\":8488:8505   */\n      mul\n        /* \"#utility.yul\":8478:8486   */\n      dup4\n        /* \"#utility.yul\":8474:8506   */\n      add\n        /* \"#utility.yul\":8471:8512   */\n      gt\n        /* \"#utility.yul\":8468:8596   */\n      iszero\n      tag_292\n      jumpi\n        /* \"#utility.yul\":8515:8594   */\n      tag_293\n      tag_167\n      jump\t// in\n    tag_293:\n        /* \"#utility.yul\":8468:8596   */\n    tag_292:\n        /* \"#utility.yul\":8049:8602   */\n      swap3\n      pop\n      swap3\n      swap1\n      pop\n      jump\t// out\n        /* \"#utility.yul\":8608:9627   */\n    tag_48:\n        /* \"#utility.yul\":8709:8715   */\n      0x00\n        /* \"#utility.yul\":8717:8723   */\n      dup1\n        /* \"#utility.yul\":8725:8731   */\n      0x00\n        /* \"#utility.yul\":8733:8739   */\n      dup1\n        /* \"#utility.yul\":8741:8747   */\n      0x00\n        /* \"#utility.yul\":8790:8792   */\n      0x60\n        /* \"#utility.yul\":8778:8787   */\n      dup7\n        /* \"#utility.yul\":8769:8776   */\n      dup9\n        /* \"#utility.yul\":8765:8788   */\n      sub\n        /* \"#utility.yul\":8761:8793   */\n      slt\n        /* \"#utility.yul\":8758:8877   */\n      iszero\n      tag_295\n      jumpi\n        /* \"#utility.yul\":8796:8875   */\n      tag_296\n      tag_139\n      jump\t// in\n    tag_296:\n        /* \"#utility.yul\":8758:8877   */\n    tag_295:\n        /* \"#utility.yul\":8944:8945   */\n      0x00\n        /* \"#utility.yul\":8933:8942   */\n      dup7\n        /* \"#utility.yul\":8929:8946   */\n      add\n        /* \"#utility.yul\":8916:8947   */\n      calldataload\n        /* \"#utility.yul\":8974:8992   */\n      0xffffffffffffffff\n        /* \"#utility.yul\":8966:8972   */\n      dup2\n        /* \"#utility.yul\":8963:8993   */\n      gt\n        /* \"#utility.yul\":8960:9077   */\n      iszero\n      tag_297\n      jumpi\n        /* \"#utility.yul\":8996:9075   */\n      tag_298\n      tag_140\n      jump\t// in\n    tag_298:\n        /* \"#utility.yul\":8960:9077   */\n    tag_297:\n        /* \"#utility.yul\":9109:9174   */\n      tag_299\n        /* \"#utility.yul\":9166:9173   */\n      dup9\n        /* \"#utility.yul\":9157:9163   */\n      dup3\n        /* \"#utility.yul\":9146:9155   */\n      dup10\n        /* \"#utility.yul\":9142:9164   */\n      add\n        /* \"#utility.yul\":9109:9174   */\n      tag_168\n      jump\t// in\n    tag_299:\n        /* \"#utility.yul\":9091:9174   */\n      swap6\n      pop\n      swap6\n      pop\n        /* \"#utility.yul\":8887:9184   */\n      pop\n        /* \"#utility.yul\":9251:9253   */\n      0x20\n        /* \"#utility.yul\":9240:9249   */\n      dup7\n        /* \"#utility.yul\":9236:9254   */\n      add\n        /* \"#utility.yul\":9223:9255   */\n      calldataload\n        /* \"#utility.yul\":9282:9300   */\n      0xffffffffffffffff\n        /* \"#utility.yul\":9274:9280   */\n      dup2\n        /* \"#utility.yul\":9271:9301   */\n      gt\n        /* \"#utility.yul\":9268:9385   */\n      iszero\n      tag_300\n      jumpi\n        /* \"#utility.yul\":9304:9383   */\n      tag_301\n      tag_140\n      jump\t// in\n    tag_301:\n        /* \"#utility.yul\":9268:9385   */\n    tag_300:\n        /* \"#utility.yul\":9417:9482   */\n      tag_302\n        /* \"#utility.yul\":9474:9481   */\n      dup9\n        /* \"#utility.yul\":9465:9471   */\n      dup3\n        /* \"#utility.yul\":9454:9463   */\n      dup10\n        /* \"#utility.yul\":9450:9472   */\n      add\n        /* \"#utility.yul\":9417:9482   */\n      tag_168\n      jump\t// in\n    tag_302:\n        /* \"#utility.yul\":9399:9482   */\n      swap4\n      pop\n      swap4\n      pop\n        /* \"#utility.yul\":9194:9492   */\n      pop\n        /* \"#utility.yul\":9531:9533   */\n      0x40\n        /* \"#utility.yul\":9557:9610   */\n      tag_303\n        /* \"#utility.yul\":9602:9609   */\n      dup9\n        /* \"#utility.yul\":9593:9599   */\n      dup3\n        /* \"#utility.yul\":9582:9591   */\n      dup10\n        /* \"#utility.yul\":9578:9600   */\n      add\n        /* \"#utility.yul\":9557:9610   */\n      tag_143\n      jump\t// in\n    tag_303:\n        /* \"#utility.yul\":9547:9610   */\n      swap2\n      pop\n        /* \"#utility.yul\":9502:9620   */\n      pop\n        /* \"#utility.yul\":8608:9627   */\n      swap3\n      swap6\n      pop\n      swap3\n      swap6\n      swap1\n      swap4\n      pop\n      jump\t// out\n        /* \"#utility.yul\":9633:9843   */\n    tag_51:\n        /* \"#utility.yul\":9720:9724   */\n      0x00\n        /* \"#utility.yul\":9758:9760   */\n      0x20\n        /* \"#utility.yul\":9747:9756   */\n      dup3\n        /* \"#utility.yul\":9743:9761   */\n      add\n        /* \"#utility.yul\":9735:9761   */\n      swap1\n      pop\n        /* \"#utility.yul\":9771:9836   */\n      tag_305\n        /* \"#utility.yul\":9833:9834   */\n      0x00\n        /* \"#utility.yul\":9822:9831   */\n      dup4\n        /* \"#utility.yul\":9818:9835   */\n      add\n        /* \"#utility.yul\":9809:9815   */\n      dup5\n        /* \"#utility.yul\":9771:9836   */\n      tag_164\n      jump\t// in\n    tag_305:\n        /* \"#utility.yul\":9633:9843   */\n      swap3\n      swap2\n      pop\n      pop\n      jump\t// out\n        /* \"#utility.yul\":9849:10468   */\n    tag_55:\n        /* \"#utility.yul\":9926:9932   */\n      0x00\n        /* \"#utility.yul\":9934:9940   */\n      dup1\n        /* \"#utility.yul\":9942:9948   */\n      0x00\n        /* \"#utility.yul\":9991:9993   */\n      0x60\n        /* \"#utility.yul\":9979:9988   */\n      dup5\n        /* \"#utility.yul\":9970:9977   */\n      dup7\n        /* \"#utility.yul\":9966:9989   */\n      sub\n        /* \"#utility.yul\":9962:9994   */\n      slt\n        /* \"#utility.yul\":9959:10078   */\n      iszero\n      tag_307\n      jumpi\n        /* \"#utility.yul\":9997:10076   */\n      tag_308\n      tag_139\n      jump\t// in\n    tag_308:\n        /* \"#utility.yul\":9959:10078   */\n    tag_307:\n        /* \"#utility.yul\":10117:10118   */\n      0x00\n        /* \"#utility.yul\":10142:10195   */\n      tag_309\n        /* \"#utility.yul\":10187:10194   */\n      dup7\n        /* \"#utility.yul\":10178:10184   */\n      dup3\n        /* \"#utility.yul\":10167:10176   */\n      dup8\n        /* \"#utility.yul\":10163:10185   */\n      add\n        /* \"#utility.yul\":10142:10195   */\n      tag_143\n      jump\t// in\n    tag_309:\n        /* \"#utility.yul\":10132:10195   */\n      swap4\n      pop\n        /* \"#utility.yul\":10088:10205   */\n      pop\n        /* \"#utility.yul\":10244:10246   */\n      0x20\n        /* \"#utility.yul\":10270:10323   */\n      tag_310\n        /* \"#utility.yul\":10315:10322   */\n      dup7\n        /* \"#utility.yul\":10306:10312   */\n      dup3\n        /* \"#utility.yul\":10295:10304   */\n      dup8\n        /* \"#utility.yul\":10291:10313   */\n      add\n        /* \"#utility.yul\":10270:10323   */\n      tag_143\n      jump\t// in\n    tag_310:\n        /* \"#utility.yul\":10260:10323   */\n      swap3\n      pop\n        /* \"#utility.yul\":10215:10333   */\n      pop\n        /* \"#utility.yul\":10372:10374   */\n      0x40\n        /* \"#utility.yul\":10398:10451   */\n      tag_311\n        /* \"#utility.yul\":10443:10450   */\n      dup7\n        /* \"#utility.yul\":10434:10440   */\n      dup3\n        /* \"#utility.yul\":10423:10432   */\n      dup8\n        /* \"#utility.yul\":10419:10441   */\n      add\n        /* \"#utility.yul\":10398:10451   */\n      tag_143\n      jump\t// in\n    tag_311:\n        /* \"#utility.yul\":10388:10451   */\n      swap2\n      pop\n        /* \"#utility.yul\":10343:10461   */\n      pop\n        /* \"#utility.yul\":9849:10468   */\n      swap3\n      pop\n      swap3\n      pop\n      swap3\n      jump\t// out\n        /* \"#utility.yul\":10474:10696   */\n    tag_61:\n        /* \"#utility.yul\":10567:10571   */\n      0x00\n        /* \"#utility.yul\":10605:10607   */\n      0x20\n        /* \"#utility.yul\":10594:10603   */\n      dup3\n        /* \"#utility.yul\":10590:10608   */\n      add\n        /* \"#utility.yul\":10582:10608   */\n      swap1\n      pop\n        /* \"#utility.yul\":10618:10689   */\n      tag_313\n        /* \"#utility.yul\":10686:10687   */\n      0x00\n        /* \"#utility.yul\":10675:10684   */\n      dup4\n        /* \"#utility.yul\":10671:10688   */\n      add\n        /* \"#utility.yul\":10662:10668   */\n      dup5\n        /* \"#utility.yul\":10618:10689   */\n      tag_148\n      jump\t// in\n    tag_313:\n        /* \"#utility.yul\":10474:10696   */\n      swap3\n      swap2\n      pop\n      pop\n      jump\t// out\n        /* \"#utility.yul\":10702:10927   */\n    tag_169:\n        /* \"#utility.yul\":10842:10876   */\n      0x596f752063616e206f6e6c7920706c6179206f6e636521205570646174652069\n        /* \"#utility.yul\":10838:10839   */\n      0x00\n        /* \"#utility.yul\":10830:10836   */\n      dup3\n        /* \"#utility.yul\":10826:10840   */\n      add\n        /* \"#utility.yul\":10819:10877   */\n      mstore\n        /* \"#utility.yul\":10911:10919   */\n      0x6e73746561640000000000000000000000000000000000000000000000000000\n        /* \"#utility.yul\":10906:10908   */\n      0x20\n        /* \"#utility.yul\":10898:10904   */\n      dup3\n        /* \"#utility.yul\":10894:10909   */\n      add\n        /* \"#utility.yul\":10887:10920   */\n      mstore\n        /* \"#utility.yul\":10702:10927   */\n      pop\n      jump\t// out\n        /* \"#utility.yul\":10933:11299   */\n    tag_170:\n        /* \"#utility.yul\":11075:11078   */\n      0x00\n        /* \"#utility.yul\":11096:11163   */\n      tag_316\n        /* \"#utility.yul\":11160:11162   */\n      0x26\n        /* \"#utility.yul\":11155:11158   */\n      dup4\n        /* \"#utility.yul\":11096:11163   */\n      tag_155\n      jump\t// in\n    tag_316:\n        /* \"#utility.yul\":11089:11163   */\n      swap2\n      pop\n        /* \"#utility.yul\":11172:11265   */\n      tag_317\n        /* \"#utility.yul\":11261:11264   */\n      dup3\n        /* \"#utility.yul\":11172:11265   */\n      tag_169\n      jump\t// in\n    tag_317:\n        /* \"#utility.yul\":11290:11292   */\n      0x40\n        /* \"#utility.yul\":11285:11288   */\n      dup3\n        /* \"#utility.yul\":11281:11293   */\n      add\n        /* \"#utility.yul\":11274:11293   */\n      swap1\n      pop\n        /* \"#utility.yul\":10933:11299   */\n      swap2\n      swap1\n      pop\n      jump\t// out\n        /* \"#utility.yul\":11305:11724   */\n    tag_65:\n        /* \"#utility.yul\":11471:11475   */\n      0x00\n        /* \"#utility.yul\":11509:11511   */\n      0x20\n        /* \"#utility.yul\":11498:11507   */\n      dup3\n        /* \"#utility.yul\":11494:11512   */\n      add\n        /* \"#utility.yul\":11486:11512   */\n      swap1\n      pop\n        /* \"#utility.yul\":11558:11567   */\n      dup2\n        /* \"#utility.yul\":11552:11556   */\n      dup2\n        /* \"#utility.yul\":11548:11568   */\n      sub\n        /* \"#utility.yul\":11544:11545   */\n      0x00\n        /* \"#utility.yul\":11533:11542   */\n      dup4\n        /* \"#utility.yul\":11529:11546   */\n      add\n        /* \"#utility.yul\":11522:11569   */\n      mstore\n        /* \"#utility.yul\":11586:11717   */\n      tag_319\n        /* \"#utility.yul\":11712:11716   */\n      dup2\n        /* \"#utility.yul\":11586:11717   */\n      tag_170\n      jump\t// in\n    tag_319:\n        /* \"#utility.yul\":11578:11717   */\n      swap1\n      pop\n        /* \"#utility.yul\":11305:11724   */\n      swap2\n      swap1\n      pop\n      jump\t// out\n        /* \"#utility.yul\":11730:11912   */\n    tag_171:\n        /* \"#utility.yul\":11870:11904   */\n      0x42657420416d6f756e74206973206c657373207468616e207265717569726564\n        /* \"#utility.yul\":11866:11867   */\n      0x00\n        /* \"#utility.yul\":11858:11864   */\n      dup3\n        /* \"#utility.yul\":11854:11868   */\n      add\n        /* \"#utility.yul\":11847:11905   */\n      mstore\n        /* \"#utility.yul\":11730:11912   */\n      pop\n      jump\t// out\n        /* \"#utility.yul\":11918:12284   */\n    tag_172:\n        /* \"#utility.yul\":12060:12063   */\n      0x00\n        /* \"#utility.yul\":12081:12148   */\n      tag_322\n        /* \"#utility.yul\":12145:12147   */\n      0x20\n        /* \"#utility.yul\":12140:12143   */\n      dup4\n        /* \"#utility.yul\":12081:12148   */\n      tag_155\n      jump\t// in\n    tag_322:\n        /* \"#utility.yul\":12074:12148   */\n      swap2\n      pop\n        /* \"#utility.yul\":12157:12250   */\n      tag_323\n        /* \"#utility.yul\":12246:12249   */\n      dup3\n        /* \"#utility.yul\":12157:12250   */\n      tag_171\n      jump\t// in\n    tag_323:\n        /* \"#utility.yul\":12275:12277   */\n      0x20\n        /* \"#utility.yul\":12270:12273   */\n      dup3\n        /* \"#utility.yul\":12266:12278   */\n      add\n        /* \"#utility.yul\":12259:12278   */\n      swap1\n      pop\n        /* \"#utility.yul\":11918:12284   */\n      swap2\n      swap1\n      pop\n      jump\t// out\n        /* \"#utility.yul\":12290:12709   */\n    tag_68:\n        /* \"#utility.yul\":12456:12460   */\n      0x00\n        /* \"#utility.yul\":12494:12496   */\n      0x20\n        /* \"#utility.yul\":12483:12492   */\n      dup3\n        /* \"#utility.yul\":12479:12497   */\n      add\n        /* \"#utility.yul\":12471:12497   */\n      swap1\n      pop\n        /* \"#utility.yul\":12543:12552   */\n      dup2\n        /* \"#utility.yul\":12537:12541   */\n      dup2\n        /* \"#utility.yul\":12533:12553   */\n      sub\n        /* \"#utility.yul\":12529:12530   */\n      0x00\n        /* \"#utility.yul\":12518:12527   */\n      dup4\n        /* \"#utility.yul\":12514:12531   */\n      add\n        /* \"#utility.yul\":12507:12554   */\n      mstore\n        /* \"#utility.yul\":12571:12702   */\n      tag_325\n        /* \"#utility.yul\":12697:12701   */\n      dup2\n        /* \"#utility.yul\":12571:12702   */\n      tag_172\n      jump\t// in\n    tag_325:\n        /* \"#utility.yul\":12563:12702   */\n      swap1\n      pop\n        /* \"#utility.yul\":12290:12709   */\n      swap2\n      swap1\n      pop\n      jump\t// out\n        /* \"#utility.yul\":12715:12895   */\n    tag_78:\n        /* \"#utility.yul\":12763:12840   */\n      0x4e487b7100000000000000000000000000000000000000000000000000000000\n        /* \"#utility.yul\":12760:12761   */\n      0x00\n        /* \"#utility.yul\":12753:12841   */\n      mstore\n        /* \"#utility.yul\":12860:12864   */\n      0x32\n        /* \"#utility.yul\":12857:12858   */\n      0x04\n        /* \"#utility.yul\":12850:12865   */\n      mstore\n        /* \"#utility.yul\":12884:12888   */\n      0x24\n        /* \"#utility.yul\":12881:12882   */\n      0x00\n        /* \"#utility.yul\":12874:12889   */\n      revert\n        /* \"#utility.yul\":12901:13081   */\n    tag_173:\n        /* \"#utility.yul\":12949:13026   */\n      0x4e487b7100000000000000000000000000000000000000000000000000000000\n        /* \"#utility.yul\":12946:12947   */\n      0x00\n        /* \"#utility.yul\":12939:13027   */\n      mstore\n        /* \"#utility.yul\":13046:13050   */\n      0x22\n        /* \"#utility.yul\":13043:13044   */\n      0x04\n        /* \"#utility.yul\":13036:13051   */\n      mstore\n        /* \"#utility.yul\":13070:13074   */\n      0x24\n        /* \"#utility.yul\":13067:13068   */\n      0x00\n        /* \"#utility.yul\":13060:13075   */\n      revert\n        /* \"#utility.yul\":13087:13407   */\n    tag_85:\n        /* \"#utility.yul\":13131:13137   */\n      0x00\n        /* \"#utility.yul\":13168:13169   */\n      0x02\n        /* \"#utility.yul\":13162:13166   */\n      dup3\n        /* \"#utility.yul\":13158:13170   */\n      div\n        /* \"#utility.yul\":13148:13170   */\n      swap1\n      pop\n        /* \"#utility.yul\":13215:13216   */\n      0x01\n        /* \"#utility.yul\":13209:13213   */\n      dup3\n        /* \"#utility.yul\":13205:13217   */\n      and\n        /* \"#utility.yul\":13236:13254   */\n      dup1\n        /* \"#utility.yul\":13226:13307   */\n      tag_329\n      jumpi\n        /* \"#utility.yul\":13292:13296   */\n      0x7f\n        /* \"#utility.yul\":13284:13290   */\n      dup3\n        /* \"#utility.yul\":13280:13297   */\n      and\n        /* \"#utility.yul\":13270:13297   */\n      swap2\n      pop\n        /* \"#utility.yul\":13226:13307   */\n    tag_329:\n        /* \"#utility.yul\":13354:13356   */\n      0x20\n        /* \"#utility.yul\":13346:13352   */\n      dup3\n        /* \"#utility.yul\":13343:13357   */\n      lt\n        /* \"#utility.yul\":13323:13341   */\n      dup2\n        /* \"#utility.yul\":13320:13358   */\n      sub\n        /* \"#utility.yul\":13317:13401   */\n      tag_330\n      jumpi\n        /* \"#utility.yul\":13373:13391   */\n      tag_331\n      tag_173\n      jump\t// in\n    tag_331:\n        /* \"#utility.yul\":13317:13401   */\n    tag_330:\n        /* \"#utility.yul\":13138:13407   */\n      pop\n        /* \"#utility.yul\":13087:13407   */\n      swap2\n      swap1\n      pop\n      jump\t// out\n        /* \"#utility.yul\":13413:13585   */\n    tag_174:\n        /* \"#utility.yul\":13553:13577   */\n      0x47616d652068617320616c726561647920626567756e00000000000000000000\n        /* \"#utility.yul\":13549:13550   */\n      0x00\n        /* \"#utility.yul\":13541:13547   */\n      dup3\n        /* \"#utility.yul\":13537:13551   */\n      add\n        /* \"#utility.yul\":13530:13578   */\n      mstore\n        /* \"#utility.yul\":13413:13585   */\n      pop\n      jump\t// out\n        /* \"#utility.yul\":13591:13957   */\n    tag_175:\n        /* \"#utility.yul\":13733:13736   */\n      0x00\n        /* \"#utility.yul\":13754:13821   */\n      tag_334\n        /* \"#utility.yul\":13818:13820   */\n      0x16\n        /* \"#utility.yul\":13813:13816   */\n      dup4\n        /* \"#utility.yul\":13754:13821   */\n      tag_155\n      jump\t// in\n    tag_334:\n        /* \"#utility.yul\":13747:13821   */\n      swap2\n      pop\n        /* \"#utility.yul\":13830:13923   */\n      tag_335\n        /* \"#utility.yul\":13919:13922   */\n      dup3\n        /* \"#utility.yul\":13830:13923   */\n      tag_174\n      jump\t// in\n    tag_335:\n        /* \"#utility.yul\":13948:13950   */\n      0x20\n        /* \"#utility.yul\":13943:13946   */\n      dup3\n        /* \"#utility.yul\":13939:13951   */\n      add\n        /* \"#utility.yul\":13932:13951   */\n      swap1\n      pop\n        /* \"#utility.yul\":13591:13957   */\n      swap2\n      swap1\n      pop\n      jump\t// out\n        /* \"#utility.yul\":13963:14382   */\n    tag_98:\n        /* \"#utility.yul\":14129:14133   */\n      0x00\n        /* \"#utility.yul\":14167:14169   */\n      0x20\n        /* \"#utility.yul\":14156:14165   */\n      dup3\n        /* \"#utility.yul\":14152:14170   */\n      add\n        /* \"#utility.yul\":14144:14170   */\n      swap1\n      pop\n        /* \"#utility.yul\":14216:14225   */\n      dup2\n        /* \"#utility.yul\":14210:14214   */\n      dup2\n        /* \"#utility.yul\":14206:14226   */\n      sub\n        /* \"#utility.yul\":14202:14203   */\n      0x00\n        /* \"#utility.yul\":14191:14200   */\n      dup4\n        /* \"#utility.yul\":14187:14204   */\n      add\n        /* \"#utility.yul\":14180:14227   */\n      mstore\n        /* \"#utility.yul\":14244:14375   */\n      tag_337\n        /* \"#utility.yul\":14370:14374   */\n      dup2\n        /* \"#utility.yul\":14244:14375   */\n      tag_175\n      jump\t// in\n    tag_337:\n        /* \"#utility.yul\":14236:14375   */\n      swap1\n      pop\n        /* \"#utility.yul\":13963:14382   */\n      swap2\n      swap1\n      pop\n      jump\t// out\n        /* \"#utility.yul\":14388:14565   */\n    tag_176:\n        /* \"#utility.yul\":14528:14557   */\n      0x596f752063616e206f6e6c7920757064617465206f6e636520706c0000000000\n        /* \"#utility.yul\":14524:14525   */\n      0x00\n        /* \"#utility.yul\":14516:14522   */\n      dup3\n        /* \"#utility.yul\":14512:14526   */\n      add\n        /* \"#utility.yul\":14505:14558   */\n      mstore\n        /* \"#utility.yul\":14388:14565   */\n      pop\n      jump\t// out\n        /* \"#utility.yul\":14571:14937   */\n    tag_177:\n        /* \"#utility.yul\":14713:14716   */\n      0x00\n        /* \"#utility.yul\":14734:14801   */\n      tag_340\n        /* \"#utility.yul\":14798:14800   */\n      0x1b\n        /* \"#utility.yul\":14793:14796   */\n      dup4\n        /* \"#utility.yul\":14734:14801   */\n      tag_155\n      jump\t// in\n    tag_340:\n        /* \"#utility.yul\":14727:14801   */\n      swap2\n      pop\n        /* \"#utility.yul\":14810:14903   */\n      tag_341\n        /* \"#utility.yul\":14899:14902   */\n      dup3\n        /* \"#utility.yul\":14810:14903   */\n      tag_176\n      jump\t// in\n    tag_341:\n        /* \"#utility.yul\":14928:14930   */\n      0x20\n        /* \"#utility.yul\":14923:14926   */\n      dup3\n        /* \"#utility.yul\":14919:14931   */\n      add\n        /* \"#utility.yul\":14912:14931   */\n      swap1\n      pop\n        /* \"#utility.yul\":14571:14937   */\n      swap2\n      swap1\n      pop\n      jump\t// out\n        /* \"#utility.yul\":14943:15362   */\n    tag_101:\n        /* \"#utility.yul\":15109:15113   */\n      0x00\n        /* \"#utility.yul\":15147:15149   */\n      0x20\n        /* \"#utility.yul\":15136:15145   */\n      dup3\n        /* \"#utility.yul\":15132:15150   */\n      add\n        /* \"#utility.yul\":15124:15150   */\n      swap1\n      pop\n        /* \"#utility.yul\":15196:15205   */\n      dup2\n        /* \"#utility.yul\":15190:15194   */\n      dup2\n        /* \"#utility.yul\":15186:15206   */\n      sub\n        /* \"#utility.yul\":15182:15183   */\n      0x00\n        /* \"#utility.yul\":15171:15180   */\n      dup4\n        /* \"#utility.yul\":15167:15184   */\n      add\n        /* \"#utility.yul\":15160:15207   */\n      mstore\n        /* \"#utility.yul\":15224:15355   */\n      tag_343\n        /* \"#utility.yul\":15350:15354   */\n      dup2\n        /* \"#utility.yul\":15224:15355   */\n      tag_177\n      jump\t// in\n    tag_343:\n        /* \"#utility.yul\":15216:15355   */\n      swap1\n      pop\n        /* \"#utility.yul\":14943:15362   */\n      swap2\n      swap1\n      pop\n      jump\t// out\n        /* \"#utility.yul\":15368:15527   */\n    tag_178:\n        /* \"#utility.yul\":15508:15519   */\n      0x4e6f74204f776e65720000000000000000000000000000000000000000000000\n        /* \"#utility.yul\":15504:15505   */\n      0x00\n        /* \"#utility.yul\":15496:15502   */\n      dup3\n        /* \"#utility.yul\":15492:15506   */\n      add\n        /* \"#utility.yul\":15485:15520   */\n      mstore\n        /* \"#utility.yul\":15368:15527   */\n      pop\n      jump\t// out\n        /* \"#utility.yul\":15533:15898   */\n    tag_179:\n        /* \"#utility.yul\":15675:15678   */\n      0x00\n        /* \"#utility.yul\":15696:15762   */\n      tag_346\n        /* \"#utility.yul\":15760:15761   */\n      0x09\n        /* \"#utility.yul\":15755:15758   */\n      dup4\n        /* \"#utility.yul\":15696:15762   */\n      tag_155\n      jump\t// in\n    tag_346:\n        /* \"#utility.yul\":15689:15762   */\n      swap2\n      pop\n        /* \"#utility.yul\":15771:15864   */\n      tag_347\n        /* \"#utility.yul\":15860:15863   */\n      dup3\n        /* \"#utility.yul\":15771:15864   */\n      tag_178\n      jump\t// in\n    tag_347:\n        /* \"#utility.yul\":15889:15891   */\n      0x20\n        /* \"#utility.yul\":15884:15887   */\n      dup3\n        /* \"#utility.yul\":15880:15892   */\n      add\n        /* \"#utility.yul\":15873:15892   */\n      swap1\n      pop\n        /* \"#utility.yul\":15533:15898   */\n      swap2\n      swap1\n      pop\n      jump\t// out\n        /* \"#utility.yul\":15904:16323   */\n    tag_117:\n        /* \"#utility.yul\":16070:16074   */\n      0x00\n        /* \"#utility.yul\":16108:16110   */\n      0x20\n        /* \"#utility.yul\":16097:16106   */\n      dup3\n        /* \"#utility.yul\":16093:16111   */\n      add\n        /* \"#utility.yul\":16085:16111   */\n      swap1\n      pop\n        /* \"#utility.yul\":16157:16166   */\n      dup2\n        /* \"#utility.yul\":16151:16155   */\n      dup2\n        /* \"#utility.yul\":16147:16167   */\n      sub\n        /* \"#utility.yul\":16143:16144   */\n      0x00\n        /* \"#utility.yul\":16132:16141   */\n      dup4\n        /* \"#utility.yul\":16128:16145   */\n      add\n        /* \"#utility.yul\":16121:16168   */\n      mstore\n        /* \"#utility.yul\":16185:16316   */\n      tag_349\n        /* \"#utility.yul\":16311:16315   */\n      dup2\n        /* \"#utility.yul\":16185:16316   */\n      tag_179\n      jump\t// in\n    tag_349:\n        /* \"#utility.yul\":16177:16316   */\n      swap1\n      pop\n        /* \"#utility.yul\":15904:16323   */\n      swap2\n      swap1\n      pop\n      jump\t// out\n        /* \"#utility.yul\":16329:16509   */\n    tag_180:\n        /* \"#utility.yul\":16377:16454   */\n      0x4e487b7100000000000000000000000000000000000000000000000000000000\n        /* \"#utility.yul\":16374:16375   */\n      0x00\n        /* \"#utility.yul\":16367:16455   */\n      mstore\n        /* \"#utility.yul\":16474:16478   */\n      0x11\n        /* \"#utility.yul\":16471:16472   */\n      0x04\n        /* \"#utility.yul\":16464:16479   */\n      mstore\n        /* \"#utility.yul\":16498:16502   */\n      0x24\n        /* \"#utility.yul\":16495:16496   */\n      0x00\n        /* \"#utility.yul\":16488:16503   */\n      revert\n        /* \"#utility.yul\":16515:16706   */\n    tag_119:\n        /* \"#utility.yul\":16555:16558   */\n      0x00\n        /* \"#utility.yul\":16574:16594   */\n      tag_352\n        /* \"#utility.yul\":16592:16593   */\n      dup3\n        /* \"#utility.yul\":16574:16594   */\n      tag_141\n      jump\t// in\n    tag_352:\n        /* \"#utility.yul\":16569:16594   */\n      swap2\n      pop\n        /* \"#utility.yul\":16608:16628   */\n      tag_353\n        /* \"#utility.yul\":16626:16627   */\n      dup4\n        /* \"#utility.yul\":16608:16628   */\n      tag_141\n      jump\t// in\n    tag_353:\n        /* \"#utility.yul\":16603:16628   */\n      swap3\n      pop\n        /* \"#utility.yul\":16651:16652   */\n      dup3\n        /* \"#utility.yul\":16648:16649   */\n      dup3\n        /* \"#utility.yul\":16644:16653   */\n      add\n        /* \"#utility.yul\":16637:16653   */\n      swap1\n      pop\n        /* \"#utility.yul\":16672:16675   */\n      dup1\n        /* \"#utility.yul\":16669:16670   */\n      dup3\n        /* \"#utility.yul\":16666:16676   */\n      gt\n        /* \"#utility.yul\":16663:16699   */\n      iszero\n      tag_354\n      jumpi\n        /* \"#utility.yul\":16679:16697   */\n      tag_355\n      tag_180\n      jump\t// in\n    tag_355:\n        /* \"#utility.yul\":16663:16699   */\n    tag_354:\n        /* \"#utility.yul\":16515:16706   */\n      swap3\n      swap2\n      pop\n      pop\n      jump\t// out\n        /* \"#utility.yul\":16712:16892   */\n    tag_181:\n        /* \"#utility.yul\":16760:16837   */\n      0x4e487b7100000000000000000000000000000000000000000000000000000000\n        /* \"#utility.yul\":16757:16758   */\n      0x00\n        /* \"#utility.yul\":16750:16838   */\n      mstore\n        /* \"#utility.yul\":16857:16861   */\n      0x41\n        /* \"#utility.yul\":16854:16855   */\n      0x04\n        /* \"#utility.yul\":16847:16862   */\n      mstore\n        /* \"#utility.yul\":16881:16885   */\n      0x24\n        /* \"#utility.yul\":16878:16879   */\n      0x00\n        /* \"#utility.yul\":16871:16886   */\n      revert\n        /* \"#utility.yul\":16898:17039   */\n    tag_182:\n        /* \"#utility.yul\":16947:16951   */\n      0x00\n        /* \"#utility.yul\":16970:16973   */\n      dup2\n        /* \"#utility.yul\":16962:16973   */\n      swap1\n      pop\n        /* \"#utility.yul\":16993:16996   */\n      dup2\n        /* \"#utility.yul\":16990:16991   */\n      0x00\n        /* \"#utility.yul\":16983:16997   */\n      mstore\n        /* \"#utility.yul\":17027:17031   */\n      0x20\n        /* \"#utility.yul\":17024:17025   */\n      0x00\n        /* \"#utility.yul\":17014:17032   */\n      keccak256\n        /* \"#utility.yul\":17006:17032   */\n      swap1\n      pop\n        /* \"#utility.yul\":16898:17039   */\n      swap2\n      swap1\n      pop\n      jump\t// out\n        /* \"#utility.yul\":17045:17138   */\n    tag_183:\n        /* \"#utility.yul\":17082:17088   */\n      0x00\n        /* \"#utility.yul\":17129:17131   */\n      0x20\n        /* \"#utility.yul\":17124:17126   */\n      0x1f\n        /* \"#utility.yul\":17117:17122   */\n      dup4\n        /* \"#utility.yul\":17113:17127   */\n      add\n        /* \"#utility.yul\":17109:17132   */\n      div\n        /* \"#utility.yul\":17099:17132   */\n      swap1\n      pop\n        /* \"#utility.yul\":17045:17138   */\n      swap2\n      swap1\n      pop\n      jump\t// out\n        /* \"#utility.yul\":17144:17251   */\n    tag_184:\n        /* \"#utility.yul\":17188:17196   */\n      0x00\n        /* \"#utility.yul\":17238:17243   */\n      dup3\n        /* \"#utility.yul\":17232:17236   */\n      dup3\n        /* \"#utility.yul\":17228:17244   */\n      shl\n        /* \"#utility.yul\":17207:17244   */\n      swap1\n      pop\n        /* \"#utility.yul\":17144:17251   */\n      swap3\n      swap2\n      pop\n      pop\n      jump\t// out\n        /* \"#utility.yul\":17257:17650   */\n    tag_185:\n        /* \"#utility.yul\":17326:17332   */\n      0x00\n        /* \"#utility.yul\":17376:17377   */\n      0x08\n        /* \"#utility.yul\":17364:17374   */\n      dup4\n        /* \"#utility.yul\":17360:17378   */\n      mul\n        /* \"#utility.yul\":17399:17496   */\n      tag_361\n        /* \"#utility.yul\":17429:17495   */\n      0xffffffffffffffffffffffffffffffffffffffffffffffffffffffffffffffff\n        /* \"#utility.yul\":17418:17427   */\n      dup3\n        /* \"#utility.yul\":17399:17496   */\n      tag_184\n      jump\t// in\n    tag_361:\n        /* \"#utility.yul\":17517:17556   */\n      tag_362\n        /* \"#utility.yul\":17547:17555   */\n      dup7\n        /* \"#utility.yul\":17536:17545   */\n      dup4\n        /* \"#utility.yul\":17517:17556   */\n      tag_184\n      jump\t// in\n    tag_362:\n        /* \"#utility.yul\":17505:17556   */\n      swap6\n      pop\n        /* \"#utility.yul\":17589:17593   */\n      dup1\n        /* \"#utility.yul\":17585:17594   */\n      not\n        /* \"#utility.yul\":17578:17583   */\n      dup5\n        /* \"#utility.yul\":17574:17595   */\n      and\n        /* \"#utility.yul\":17565:17595   */\n      swap4\n      pop\n        /* \"#utility.yul\":17638:17642   */\n      dup1\n        /* \"#utility.yul\":17628:17636   */\n      dup7\n        /* \"#utility.yul\":17624:17643   */\n      and\n        /* \"#utility.yul\":17617:17622   */\n      dup5\n        /* \"#utility.yul\":17614:17644   */\n      or\n        /* \"#utility.yul\":17604:17644   */\n      swap3\n      pop\n        /* \"#utility.yul\":17333:17650   */\n      pop\n      pop\n        /* \"#utility.yul\":17257:17650   */\n      swap4\n      swap3\n      pop\n      pop\n      pop\n      jump\t// out\n        /* \"#utility.yul\":17656:17716   */\n    tag_186:\n        /* \"#utility.yul\":17684:17687   */\n      0x00\n        /* \"#utility.yul\":17705:17710   */\n      dup2\n        /* \"#utility.yul\":17698:17710   */\n      swap1\n      pop\n        /* \"#utility.yul\":17656:17716   */\n      swap2\n      swap1\n      pop\n      jump\t// out\n        /* \"#utility.yul\":17722:17864   */\n    tag_187:\n        /* \"#utility.yul\":17772:17781   */\n      0x00\n        /* \"#utility.yul\":17805:17858   */\n      tag_365\n        /* \"#utility.yul\":17823:17857   */\n      tag_366\n        /* \"#utility.yul\":17832:17856   */\n      tag_367\n        /* \"#utility.yul\":17850:17855   */\n      dup5\n        /* \"#utility.yul\":17832:17856   */\n      tag_141\n      jump\t// in\n    tag_367:\n        /* \"#utility.yul\":17823:17857   */\n      tag_186\n      jump\t// in\n    tag_366:\n        /* \"#utility.yul\":17805:17858   */\n      tag_141\n      jump\t// in\n    tag_365:\n        /* \"#utility.yul\":17792:17858   */\n      swap1\n      pop\n        /* \"#utility.yul\":17722:17864   */\n      swap2\n      swap1\n      pop\n      jump\t// out\n        /* \"#utility.yul\":17870:17945   */\n    tag_188:\n        /* \"#utility.yul\":17913:17916   */\n      0x00\n        /* \"#utility.yul\":17934:17939   */\n      dup2\n        /* \"#utility.yul\":17927:17939   */\n      swap1\n      pop\n        /* \"#utility.yul\":17870:17945   */\n      swap2\n      swap1\n      pop\n      jump\t// out\n        /* \"#utility.yul\":17951:18220   */\n    tag_189:\n        /* \"#utility.yul\":18061:18100   */\n      tag_370\n        /* \"#utility.yul\":18092:18099   */\n      dup4\n        /* \"#utility.yul\":18061:18100   */\n      tag_187\n      jump\t// in\n    tag_370:\n        /* \"#utility.yul\":18122:18213   */\n      tag_371\n        /* \"#utility.yul\":18171:18212   */\n      tag_372\n        /* \"#utility.yul\":18195:18211   */\n      dup3\n        /* \"#utility.yul\":18171:18212   */\n      tag_188\n      jump\t// in\n    tag_372:\n        /* \"#utility.yul\":18163:18169   */\n      dup5\n        /* \"#utility.yul\":18156:18160   */\n      dup5\n        /* \"#utility.yul\":18150:18161   */\n      sload\n        /* \"#utility.yul\":18122:18213   */\n      tag_185\n      jump\t// in\n    tag_371:\n        /* \"#utility.yul\":18116:18120   */\n      dup3\n        /* \"#utility.yul\":18109:18214   */\n      sstore\n        /* \"#utility.yul\":18027:18220   */\n      pop\n        /* \"#utility.yul\":17951:18220   */\n      pop\n      pop\n      pop\n      jump\t// out\n        /* \"#utility.yul\":18226:18299   */\n    tag_190:\n        /* \"#utility.yul\":18271:18274   */\n      0x00\n        /* \"#utility.yul\":18226:18299   */\n      swap1\n      jump\t// out\n        /* \"#utility.yul\":18305:18494   */\n    tag_191:\n        /* \"#utility.yul\":18382:18414   */\n      tag_375\n      tag_190\n      jump\t// in\n    tag_375:\n        /* \"#utility.yul\":18423:18488   */\n      tag_376\n        /* \"#utility.yul\":18481:18487   */\n      dup2\n        /* \"#utility.yul\":18473:18479   */\n      dup5\n        /* \"#utility.yul\":18467:18471   */\n      dup5\n        /* \"#utility.yul\":18423:18488   */\n      tag_189\n      jump\t// in\n    tag_376:\n        /* \"#utility.yul\":18358:18494   */\n      pop\n        /* \"#utility.yul\":18305:18494   */\n      pop\n      pop\n      jump\t// out\n        /* \"#utility.yul\":18500:18686   */\n    tag_192:\n        /* \"#utility.yul\":18560:18680   */\n    tag_378:\n        /* \"#utility.yul\":18577:18580   */\n      dup2\n        /* \"#utility.yul\":18570:18575   */\n      dup2\n        /* \"#utility.yul\":18567:18581   */\n      lt\n        /* \"#utility.yul\":18560:18680   */\n      iszero\n      tag_380\n      jumpi\n        /* \"#utility.yul\":18631:18670   */\n      tag_381\n        /* \"#utility.yul\":18668:18669   */\n      0x00\n        /* \"#utility.yul\":18661:18666   */\n      dup3\n        /* \"#utility.yul\":18631:18670   */\n      tag_191\n      jump\t// in\n    tag_381:\n        /* \"#utility.yul\":18604:18605   */\n      0x01\n        /* \"#utility.yul\":18597:18602   */\n      dup2\n        /* \"#utility.yul\":18593:18606   */\n      add\n        /* \"#utility.yul\":18584:18606   */\n      swap1\n      pop\n        /* \"#utility.yul\":18560:18680   */\n      jump(tag_378)\n    tag_380:\n        /* \"#utility.yul\":18500:18686   */\n      pop\n      pop\n      jump\t// out\n        /* \"#utility.yul\":18692:19235   */\n    tag_193:\n        /* \"#utility.yul\":18793:18795   */\n      0x1f\n        /* \"#utility.yul\":18788:18791   */\n      dup3\n        /* \"#utility.yul\":18785:18796   */\n      gt\n        /* \"#utility.yul\":18782:19228   */\n      iszero\n      tag_383\n      jumpi\n        /* \"#utility.yul\":18827:18865   */\n      tag_384\n        /* \"#utility.yul\":18859:18864   */\n      dup2\n        /* \"#utility.yul\":18827:18865   */\n      tag_182\n      jump\t// in\n    tag_384:\n        /* \"#utility.yul\":18911:18940   */\n      tag_385\n        /* \"#utility.yul\":18929:18939   */\n      dup5\n        /* \"#utility.yul\":18911:18940   */\n      tag_183\n      jump\t// in\n    tag_385:\n        /* \"#utility.yul\":18901:18909   */\n      dup2\n        /* \"#utility.yul\":18897:18941   */\n      add\n        /* \"#utility.yul\":19094:19096   */\n      0x20\n        /* \"#utility.yul\":19082:19092   */\n      dup6\n        /* \"#utility.yul\":19079:19097   */\n      lt\n        /* \"#utility.yul\":19076:19125   */\n      iszero\n      tag_386\n      jumpi\n        /* \"#utility.yul\":19115:19123   */\n      dup2\n        /* \"#utility.yul\":19100:19123   */\n      swap1\n      pop\n        /* \"#utility.yul\":19076:19125   */\n    tag_386:\n        /* \"#utility.yul\":19138:19218   */\n      tag_387\n        /* \"#utility.yul\":19194:19216   */\n      tag_388\n        /* \"#utility.yul\":19212:19215   */\n      dup6\n        /* \"#utility.yul\":19194:19216   */\n      tag_183\n      jump\t// in\n    tag_388:\n        /* \"#utility.yul\":19184:19192   */\n      dup4\n        /* \"#utility.yul\":19180:19217   */\n      add\n        /* \"#utility.yul\":19167:19178   */\n      dup3\n        /* \"#utility.yul\":19138:19218   */\n      tag_192\n      jump\t// in\n    tag_387:\n        /* \"#utility.yul\":18797:19228   */\n      pop\n      pop\n        /* \"#utility.yul\":18782:19228   */\n    tag_383:\n        /* \"#utility.yul\":18692:19235   */\n      pop\n      pop\n      pop\n      jump\t// out\n        /* \"#utility.yul\":19241:19358   */\n    tag_194:\n        /* \"#utility.yul\":19295:19303   */\n      0x00\n        /* \"#utility.yul\":19345:19350   */\n      dup3\n        /* \"#utility.yul\":19339:19343   */\n      dup3\n        /* \"#utility.yul\":19335:19351   */\n      shr\n        /* \"#utility.yul\":19314:19351   */\n      swap1\n      pop\n        /* \"#utility.yul\":19241:19358   */\n      swap3\n      swap2\n      pop\n      pop\n      jump\t// out\n        /* \"#utility.yul\":19364:19533   */\n    tag_195:\n        /* \"#utility.yul\":19408:19414   */\n      0x00\n        /* \"#utility.yul\":19441:19492   */\n      tag_391\n        /* \"#utility.yul\":19489:19490   */\n      0x00\n        /* \"#utility.yul\":19485:19491   */\n      not\n        /* \"#utility.yul\":19477:19482   */\n      dup5\n        /* \"#utility.yul\":19474:19475   */\n      0x08\n        /* \"#utility.yul\":19470:19483   */\n      mul\n        /* \"#utility.yul\":19441:19492   */\n      tag_194\n      jump\t// in\n    tag_391:\n        /* \"#utility.yul\":19437:19493   */\n      not\n        /* \"#utility.yul\":19522:19526   */\n      dup1\n        /* \"#utility.yul\":19516:19520   */\n      dup4\n        /* \"#utility.yul\":19512:19527   */\n      and\n        /* \"#utility.yul\":19502:19527   */\n      swap2\n      pop\n        /* \"#utility.yul\":19415:19533   */\n      pop\n        /* \"#utility.yul\":19364:19533   */\n      swap3\n      swap2\n      pop\n      pop\n      jump\t// out\n        /* \"#utility.yul\":19538:19833   */\n    tag_196:\n        /* \"#utility.yul\":19614:19618   */\n      0x00\n        /* \"#utility.yul\":19760:19789   */\n      tag_393\n        /* \"#utility.yul\":19785:19788   */\n      dup4\n        /* \"#utility.yul\":19779:19783   */\n      dup4\n        /* \"#utility.yul\":19760:19789   */\n      tag_195\n      jump\t// in\n    tag_393:\n        /* \"#utility.yul\":19752:19789   */\n      swap2\n      pop\n        /* \"#utility.yul\":19822:19825   */\n      dup3\n        /* \"#utility.yul\":19819:19820   */\n      0x02\n        /* \"#utility.yul\":19815:19826   */\n      mul\n        /* \"#utility.yul\":19809:19813   */\n      dup3\n        /* \"#utility.yul\":19806:19827   */\n      or\n        /* \"#utility.yul\":19798:19827   */\n      swap1\n      pop\n        /* \"#utility.yul\":19538:19833   */\n      swap3\n      swap2\n      pop\n      pop\n      jump\t// out\n        /* \"#utility.yul\":19838:21233   */\n    tag_121:\n        /* \"#utility.yul\":19955:19992   */\n      tag_395\n        /* \"#utility.yul\":19988:19991   */\n      dup3\n        /* \"#utility.yul\":19955:19992   */\n      tag_154\n      jump\t// in\n    tag_395:\n        /* \"#utility.yul\":20057:20075   */\n      0xffffffffffffffff\n        /* \"#utility.yul\":20049:20055   */\n      dup2\n        /* \"#utility.yul\":20046:20076   */\n      gt\n        /* \"#utility.yul\":20043:20099   */\n      iszero\n      tag_396\n      jumpi\n        /* \"#utility.yul\":20079:20097   */\n      tag_397\n      tag_181\n      jump\t// in\n    tag_397:\n        /* \"#utility.yul\":20043:20099   */\n    tag_396:\n        /* \"#utility.yul\":20123:20161   */\n      tag_398\n        /* \"#utility.yul\":20155:20159   */\n      dup3\n        /* \"#utility.yul\":20149:20160   */\n      sload\n        /* \"#utility.yul\":20123:20161   */\n      tag_85\n      jump\t// in\n    tag_398:\n        /* \"#utility.yul\":20208:20275   */\n      tag_399\n        /* \"#utility.yul\":20268:20274   */\n      dup3\n        /* \"#utility.yul\":20260:20266   */\n      dup3\n        /* \"#utility.yul\":20254:20258   */\n      dup6\n        /* \"#utility.yul\":20208:20275   */\n      tag_193\n      jump\t// in\n    tag_399:\n        /* \"#utility.yul\":20302:20303   */\n      0x00\n        /* \"#utility.yul\":20326:20330   */\n      0x20\n        /* \"#utility.yul\":20313:20330   */\n      swap1\n      pop\n        /* \"#utility.yul\":20358:20360   */\n      0x1f\n        /* \"#utility.yul\":20350:20356   */\n      dup4\n        /* \"#utility.yul\":20347:20361   */\n      gt\n        /* \"#utility.yul\":20375:20376   */\n      0x01\n        /* \"#utility.yul\":20370:20988   */\n      dup2\n      eq\n      tag_401\n      jumpi\n        /* \"#utility.yul\":21032:21033   */\n      0x00\n        /* \"#utility.yul\":21049:21055   */\n      dup5\n        /* \"#utility.yul\":21046:21123   */\n      iszero\n      tag_402\n      jumpi\n        /* \"#utility.yul\":21098:21107   */\n      dup3\n        /* \"#utility.yul\":21093:21096   */\n      dup8\n        /* \"#utility.yul\":21089:21108   */\n      add\n        /* \"#utility.yul\":21083:21109   */\n      mload\n        /* \"#utility.yul\":21074:21109   */\n      swap1\n      pop\n        /* \"#utility.yul\":21046:21123   */\n    tag_402:\n        /* \"#utility.yul\":21149:21216   */\n      tag_403\n        /* \"#utility.yul\":21209:21215   */\n      dup6\n        /* \"#utility.yul\":21202:21207   */\n      dup3\n        /* \"#utility.yul\":21149:21216   */\n      tag_196\n      jump\t// in\n    tag_403:\n        /* \"#utility.yul\":21143:21147   */\n      dup7\n        /* \"#utility.yul\":21136:21217   */\n      sstore\n        /* \"#utility.yul\":21005:21227   */\n      pop\n        /* \"#utility.yul\":20340:21227   */\n      jump(tag_400)\n        /* \"#utility.yul\":20370:20988   */\n    tag_401:\n        /* \"#utility.yul\":20422:20426   */\n      0x1f\n        /* \"#utility.yul\":20418:20427   */\n      not\n        /* \"#utility.yul\":20410:20416   */\n      dup5\n        /* \"#utility.yul\":20406:20428   */\n      and\n        /* \"#utility.yul\":20456:20493   */\n      tag_404\n        /* \"#utility.yul\":20488:20492   */\n      dup7\n        /* \"#utility.yul\":20456:20493   */\n      tag_182\n      jump\t// in\n    tag_404:\n        /* \"#utility.yul\":20515:20516   */\n      0x00\n        /* \"#utility.yul\":20529:20737   */\n    tag_405:\n        /* \"#utility.yul\":20543:20550   */\n      dup3\n        /* \"#utility.yul\":20540:20541   */\n      dup2\n        /* \"#utility.yul\":20537:20551   */\n      lt\n        /* \"#utility.yul\":20529:20737   */\n      iszero\n      tag_407\n      jumpi\n        /* \"#utility.yul\":20622:20631   */\n      dup5\n        /* \"#utility.yul\":20617:20620   */\n      dup10\n        /* \"#utility.yul\":20613:20632   */\n      add\n        /* \"#utility.yul\":20607:20633   */\n      mload\n        /* \"#utility.yul\":20599:20605   */\n      dup3\n        /* \"#utility.yul\":20592:20634   */\n      sstore\n        /* \"#utility.yul\":20673:20674   */\n      0x01\n        /* \"#utility.yul\":20665:20671   */\n      dup3\n        /* \"#utility.yul\":20661:20675   */\n      add\n        /* \"#utility.yul\":20651:20675   */\n      swap2\n      pop\n        /* \"#utility.yul\":20720:20722   */\n      0x20\n        /* \"#utility.yul\":20709:20718   */\n      dup6\n        /* \"#utility.yul\":20705:20723   */\n      add\n        /* \"#utility.yul\":20692:20723   */\n      swap5\n      pop\n        /* \"#utility.yul\":20566:20570   */\n      0x20\n        /* \"#utility.yul\":20563:20564   */\n      dup2\n        /* \"#utility.yul\":20559:20571   */\n      add\n        /* \"#utility.yul\":20554:20571   */\n      swap1\n      pop\n        /* \"#utility.yul\":20529:20737   */\n      jump(tag_405)\n    tag_407:\n        /* \"#utility.yul\":20765:20771   */\n      dup7\n        /* \"#utility.yul\":20756:20763   */\n      dup4\n        /* \"#utility.yul\":20753:20772   */\n      lt\n        /* \"#utility.yul\":20750:20929   */\n      iszero\n      tag_408\n      jumpi\n        /* \"#utility.yul\":20823:20832   */\n      dup5\n        /* \"#utility.yul\":20818:20821   */\n      dup10\n        /* \"#utility.yul\":20814:20833   */\n      add\n        /* \"#utility.yul\":20808:20834   */\n      mload\n        /* \"#utility.yul\":20866:20914   */\n      tag_409\n        /* \"#utility.yul\":20908:20912   */\n      0x1f\n        /* \"#utility.yul\":20900:20906   */\n      dup10\n        /* \"#utility.yul\":20896:20913   */\n      and\n        /* \"#utility.yul\":20885:20894   */\n      dup3\n        /* \"#utility.yul\":20866:20914   */\n      tag_195\n      jump\t// in\n    tag_409:\n        /* \"#utility.yul\":20858:20864   */\n      dup4\n        /* \"#utility.yul\":20851:20915   */\n      sstore\n        /* \"#utility.yul\":20773:20929   */\n      pop\n        /* \"#utility.yul\":20750:20929   */\n    tag_408:\n        /* \"#utility.yul\":20975:20976   */\n      0x01\n        /* \"#utility.yul\":20971:20972   */\n      0x02\n        /* \"#utility.yul\":20963:20969   */\n      dup9\n        /* \"#utility.yul\":20959:20973   */\n      mul\n        /* \"#utility.yul\":20955:20977   */\n      add\n        /* \"#utility.yul\":20949:20953   */\n      dup9\n        /* \"#utility.yul\":20942:20978   */\n      sstore\n        /* \"#utility.yul\":20377:20988   */\n      pop\n      pop\n      pop\n        /* \"#utility.yul\":20340:21227   */\n    tag_400:\n      pop\n        /* \"#utility.yul\":19930:21233   */\n      pop\n      pop\n      pop\n        /* \"#utility.yul\":19838:21233   */\n      pop\n      pop\n      jump\t// out\n        /* \"#utility.yul\":21239:21406   */\n    tag_197:\n        /* \"#utility.yul\":21379:21398   */\n      0x4d61746368206973207374696c6c206f6e000000000000000000000000000000\n        /* \"#utility.yul\":21375:21376   */\n      0x00\n        /* \"#utility.yul\":21367:21373   */\n      dup3\n        /* \"#utility.yul\":21363:21377   */\n      add\n        /* \"#utility.yul\":21356:21399   */\n      mstore\n        /* \"#utility.yul\":21239:21406   */\n      pop\n      jump\t// out\n        /* \"#utility.yul\":21412:21778   */\n    tag_198:\n        /* \"#utility.yul\":21554:21557   */\n      0x00\n        /* \"#utility.yul\":21575:21642   */\n      tag_412\n        /* \"#utility.yul\":21639:21641   */\n      0x11\n        /* \"#utility.yul\":21634:21637   */\n      dup4\n        /* \"#utility.yul\":21575:21642   */\n      tag_155\n      jump\t// in\n    tag_412:\n        /* \"#utility.yul\":21568:21642   */\n      swap2\n      pop\n        /* \"#utility.yul\":21651:21744   */\n      tag_413\n        /* \"#utility.yul\":21740:21743   */\n      dup3\n        /* \"#utility.yul\":21651:21744   */\n      tag_197\n      jump\t// in\n    tag_413:\n        /* \"#utility.yul\":21769:21771   */\n      0x20\n        /* \"#utility.yul\":21764:21767   */\n      dup3\n        /* \"#utility.yul\":21760:21772   */\n      add\n        /* \"#utility.yul\":21753:21772   */\n      swap1\n      pop\n        /* \"#utility.yul\":21412:21778   */\n      swap2\n      swap1\n      pop\n      jump\t// out\n        /* \"#utility.yul\":21784:22203   */\n    tag_134:\n        /* \"#utility.yul\":21950:21954   */\n      0x00\n        /* \"#utility.yul\":21988:21990   */\n      0x20\n        /* \"#utility.yul\":21977:21986   */\n      dup3\n        /* \"#utility.yul\":21973:21991   */\n      add\n        /* \"#utility.yul\":21965:21991   */\n      swap1\n      pop\n        /* \"#utility.yul\":22037:22046   */\n      dup2\n        /* \"#utility.yul\":22031:22035   */\n      dup2\n        /* \"#utility.yul\":22027:22047   */\n      sub\n        /* \"#utility.yul\":22023:22024   */\n      0x00\n        /* \"#utility.yul\":22012:22021   */\n      dup4\n        /* \"#utility.yul\":22008:22025   */\n      add\n        /* \"#utility.yul\":22001:22048   */\n      mstore\n        /* \"#utility.yul\":22065:22196   */\n      tag_415\n        /* \"#utility.yul\":22191:22195   */\n      dup2\n        /* \"#utility.yul\":22065:22196   */\n      tag_198\n      jump\t// in\n    tag_415:\n        /* \"#utility.yul\":22057:22196   */\n      swap1\n      pop\n        /* \"#utility.yul\":21784:22203   */\n      swap2\n      swap1\n      pop\n      jump\t// out\n\n    auxdata: 0xa26469706673582212200da308628de5e05e026c3f56ad7a1bba0ab6dc5e03c88f457e65ef2e09e0d38664736f6c63430008110033\n}\n",
				"bytecode": {
					"linkReferences": {},
					"object": "608060405234801561001057600080fd5b50336000806101000a81548173ffffffffffffffffffffffffffffffffffffffff021916908373ffffffffffffffffffffffffffffffffffffffff160217905550611a83806100606000396000f3fe6080604052600436106100865760003560e01c80635fbc88ad116100595780635fbc88ad14610167578063b2edb39f14610190578063bc9e6e2c146101d1578063ec7361a81461020e578063f851a4401461023757610086565b806303edf9141461008b57806315a3ae71146100a75780632172ff16146100e65780634195ab8e14610127575b600080fd5b6100a560048036038101906100a09190610f17565b610262565b005b3480156100b357600080fd5b506100ce60048036038101906100c99190610f57565b610534565b6040516100dd9392919061104b565b60405180910390f35b3480156100f257600080fd5b5061010d60048036038101906101089190610f57565b61059b565b60405161011e959493929190611150565b60405180910390f35b34801561013357600080fd5b5061014e600480360381019061014991906111dd565b6106ff565b60405161015e9493929190611238565b60405180910390f35b34801561017357600080fd5b5061018e60048036038101906101899190610f17565b610756565b005b34801561019c57600080fd5b506101b760048036038101906101b29190610f57565b61085f565b6040516101c8959493929190611150565b60405180910390f35b3480156101dd57600080fd5b506101f860048036038101906101f391906112e2565b6109d3565b6040516102059190611377565b60405180910390f35b34801561021a57600080fd5b5061023560048036038101906102309190611392565b610d08565b005b34801561024357600080fd5b5061024c610e8e565b60405161025991906113e5565b60405180910390f35b60001515600260003373ffffffffffffffffffffffffffffffffffffffff1673ffffffffffffffffffffffffffffffffffffffff168152602001908152602001600020600084815260200190815260200160002060030160009054906101000a900460ff16151514610309576040517f08c379a000000000000000000000000000000000000000000000000000000000815260040161030090611472565b60405180910390fd5b670de0b6b3a76400003414610353576040517f08c379a000000000000000000000000000000000000000000000000000000000815260040161034a906114de565b60405180910390fd5b6000349050604051806080016040528083600381111561037657610375610fd4565b5b81526020016000815260200182815260200160011515815250600260003373ffffffffffffffffffffffffffffffffffffffff1673ffffffffffffffffffffffffffffffffffffffff168152602001908152602001600020600085815260200190815260200160002060008201518160000160006101000a81548160ff0219169083600381111561040a57610409610fd4565b5b0217905550602082015181600101556040820151816002015560608201518160030160006101000a81548160ff02191690831515021790555090505060405180606001604052803373ffffffffffffffffffffffffffffffffffffffff16815260200182815260200183600381111561048657610485610fd4565b5b8152506004848154811061049d5761049c6114fe565b5b906000526020600020906003020160008201518160000160006101000a81548173ffffffffffffffffffffffffffffffffffffffff021916908373ffffffffffffffffffffffffffffffffffffffff1602179055506020820151816001015560408201518160020160006101000a81548160ff0219169083600381111561052757610526610fd4565b5b0217905550905050505050565b6004818154811061054457600080fd5b90600052602060002090600302016000915090508060000160009054906101000a900473ffffffffffffffffffffffffffffffffffffffff16908060010154908060020160009054906101000a900460ff16905083565b60016020528060005260406000206000915090508060000180546105be9061155c565b80601f01602080910402602001604051908101604052809291908181526020018280546105ea9061155c565b80156106375780601f1061060c57610100808354040283529160200191610637565b820191906000526020600020905b81548152906001019060200180831161061a57829003601f168201915b50505050509080600101805461064c9061155c565b80601f01602080910402602001604051908101604052809291908181526020018280546106789061155c565b80156106c55780601f1061069a576101008083540402835291602001916106c5565b820191906000526020600020905b8154815290600101906020018083116106a857829003601f168201915b5050505050908060020154908060030154908060040160405180604001604052908160008201548152602001600182015481525050905085565b6002602052816000526040600020602052806000526040600020600091509150508060000160009054906101000a900460ff16908060010154908060020154908060030160009054906101000a900460ff16905084565b6000429050600160008481526020019081526020016000206003015481106107b3576040517f08c379a00000000000000000000000000000000000000000000000000000000081526004016107aa906115d9565b60405180910390fd5b60011515600260003373ffffffffffffffffffffffffffffffffffffffff1673ffffffffffffffffffffffffffffffffffffffff168152602001908152602001600020600085815260200190815260200160002060030160009054906101000a900460ff1615151461085a576040517f08c379a000000000000000000000000000000000000000000000000000000000815260040161085190611645565b60405180910390fd5b505050565b6003818154811061086f57600080fd5b90600052602060002090600602016000915090508060000180546108929061155c565b80601f01602080910402602001604051908101604052809291908181526020018280546108be9061155c565b801561090b5780601f106108e05761010080835404028352916020019161090b565b820191906000526020600020905b8154815290600101906020018083116108ee57829003601f168201915b5050505050908060010180546109209061155c565b80601f016020809104026020016040519081016040528092919081815260200182805461094c9061155c565b80156109995780601f1061096e57610100808354040283529160200191610999565b820191906000526020600020905b81548152906001019060200180831161097c57829003601f168201915b5050505050908060020154908060030154908060040160405180604001604052908160008201548152602001600182015481525050905085565b60003373ffffffffffffffffffffffffffffffffffffffff1660008054906101000a900473ffffffffffffffffffffffffffffffffffffffff1673ffffffffffffffffffffffffffffffffffffffff1614610a63576040517f08c379a0000000000000000000000000000000000000000000000000000000008152600401610a5a906116b1565b60405180910390fd5b6000605f83610a729190611700565b9050600060405180604001604052806000815260200160008152509050600060038054905090506040518060a001604052808a8a8080601f016020809104026020016040519081016040528093929190818152602001838380828437600081840152601f19601f82011690508083019250505050505050815260200188888080601f016020809104026020016040519081016040528093929190818152602001838380828437600081840152601f19601f82011690508083019250505050505050815260200186815260200184815260200183815250600160008381526020019081526020016000206000820151816000019081610b70919061190f565b506020820151816001019081610b86919061190f565b5060408201518160020155606082015181600301556080820151816004016000820151816000015560208201518160010155505090505060036040518060a001604052808b8b8080601f016020809104026020016040519081016040528093929190818152602001838380828437600081840152601f19601f82011690508083019250505050505050815260200189898080601f016020809104026020016040519081016040528093929190818152602001838380828437600081840152601f19601f8201169050808301925050505050505081526020018781526020018581526020018481525090806001815401808255809150506001900390600052602060002090600602016000909190919091506000820151816000019081610cac919061190f565b506020820151816001019081610cc2919061190f565b5060408201518160020155606082015181600301556080820151816004016000820151816000015560208201518160010155505050506001935050505095945050505050565b3373ffffffffffffffffffffffffffffffffffffffff1660008054906101000a900473ffffffffffffffffffffffffffffffffffffffff1673ffffffffffffffffffffffffffffffffffffffff1614610d96576040517f08c379a0000000000000000000000000000000000000000000000000000000008152600401610d8d906116b1565b60405180910390fd5b600042905060038481548110610daf57610dae6114fe565b5b906000526020600020906006020160030154811015610e03576040517f08c379a0000000000000000000000000000000000000000000000000000000008152600401610dfa90611a2d565b60405180910390fd5b600060405180604001604052808581526020018481525090508060038681548110610e3157610e306114fe565b5b90600052602060002090600602016004016000820151816000015560208201518160010155905050806001600087815260200190815260200160002060040160008201518160000155602082015181600101559050505050505050565b60008054906101000a900473ffffffffffffffffffffffffffffffffffffffff1681565b600080fd5b600080fd5b6000819050919050565b610ecf81610ebc565b8114610eda57600080fd5b50565b600081359050610eec81610ec6565b92915050565b60048110610eff57600080fd5b50565b600081359050610f1181610ef2565b92915050565b60008060408385031215610f2e57610f2d610eb2565b5b6000610f3c85828601610edd565b9250506020610f4d85828601610f02565b9150509250929050565b600060208284031215610f6d57610f6c610eb2565b5b6000610f7b84828501610edd565b91505092915050565b600073ffffffffffffffffffffffffffffffffffffffff82169050919050565b6000610faf82610f84565b9050919050565b610fbf81610fa4565b82525050565b610fce81610ebc565b82525050565b7f4e487b7100000000000000000000000000000000000000000000000000000000600052602160045260246000fd5b6004811061101457611013610fd4565b5b50565b600081905061102582611003565b919050565b600061103582611017565b9050919050565b6110458161102a565b82525050565b60006060820190506110606000830186610fb6565b61106d6020830185610fc5565b61107a604083018461103c565b949350505050565b600081519050919050565b600082825260208201905092915050565b60005b838110156110bc5780820151818401526020810190506110a1565b60008484015250505050565b6000601f19601f8301169050919050565b60006110e482611082565b6110ee818561108d565b93506110fe81856020860161109e565b611107816110c8565b840191505092915050565b61111b81610ebc565b82525050565b6040820160008201516111376000850182611112565b50602082015161114a6020850182611112565b50505050565b600060c082019050818103600083015261116a81886110d9565b9050818103602083015261117e81876110d9565b905061118d6040830186610fc5565b61119a6060830185610fc5565b6111a76080830184611121565b9695505050505050565b6111ba81610fa4565b81146111c557600080fd5b50565b6000813590506111d7816111b1565b92915050565b600080604083850312156111f4576111f3610eb2565b5b6000611202858286016111c8565b925050602061121385828601610edd565b9150509250929050565b60008115159050919050565b6112328161121d565b82525050565b600060808201905061124d600083018761103c565b61125a6020830186610fc5565b6112676040830185610fc5565b6112746060830184611229565b95945050505050565b600080fd5b600080fd5b600080fd5b60008083601f8401126112a2576112a161127d565b5b8235905067ffffffffffffffff8111156112bf576112be611282565b5b6020830191508360018202830111156112db576112da611287565b5b9250929050565b6000806000806000606086880312156112fe576112fd610eb2565b5b600086013567ffffffffffffffff81111561131c5761131b610eb7565b5b6113288882890161128c565b9550955050602086013567ffffffffffffffff81111561134b5761134a610eb7565b5b6113578882890161128c565b9350935050604061136a88828901610edd565b9150509295509295909350565b600060208201905061138c6000830184611229565b92915050565b6000806000606084860312156113ab576113aa610eb2565b5b60006113b986828701610edd565b93505060206113ca86828701610edd565b92505060406113db86828701610edd565b9150509250925092565b60006020820190506113fa6000830184610fb6565b92915050565b7f596f752063616e206f6e6c7920706c6179206f6e63652120557064617465206960008201527f6e73746561640000000000000000000000000000000000000000000000000000602082015250565b600061145c60268361108d565b915061146782611400565b604082019050919050565b6000602082019050818103600083015261148b8161144f565b9050919050565b7f42657420416d6f756e74206973206c657373207468616e207265717569726564600082015250565b60006114c860208361108d565b91506114d382611492565b602082019050919050565b600060208201905081810360008301526114f7816114bb565b9050919050565b7f4e487b7100000000000000000000000000000000000000000000000000000000600052603260045260246000fd5b7f4e487b7100000000000000000000000000000000000000000000000000000000600052602260045260246000fd5b6000600282049050600182168061157457607f821691505b6020821081036115875761158661152d565b5b50919050565b7f47616d652068617320616c726561647920626567756e00000000000000000000600082015250565b60006115c360168361108d565b91506115ce8261158d565b602082019050919050565b600060208201905081810360008301526115f2816115b6565b9050919050565b7f596f752063616e206f6e6c7920757064617465206f6e636520706c0000000000600082015250565b600061162f601b8361108d565b915061163a826115f9565b602082019050919050565b6000602082019050818103600083015261165e81611622565b9050919050565b7f4e6f74204f776e65720000000000000000000000000000000000000000000000600082015250565b600061169b60098361108d565b91506116a682611665565b602082019050919050565b600060208201905081810360008301526116ca8161168e565b9050919050565b7f4e487b7100000000000000000000000000000000000000000000000000000000600052601160045260246000fd5b600061170b82610ebc565b915061171683610ebc565b925082820190508082111561172e5761172d6116d1565b5b92915050565b7f4e487b7100000000000000000000000000000000000000000000000000000000600052604160045260246000fd5b60008190508160005260206000209050919050565b60006020601f8301049050919050565b600082821b905092915050565b6000600883026117c57fffffffffffffffffffffffffffffffffffffffffffffffffffffffffffffffff82611788565b6117cf8683611788565b95508019841693508086168417925050509392505050565b6000819050919050565b600061180c61180761180284610ebc565b6117e7565b610ebc565b9050919050565b6000819050919050565b611826836117f1565b61183a61183282611813565b848454611795565b825550505050565b600090565b61184f611842565b61185a81848461181d565b505050565b5b8181101561187e57611873600082611847565b600181019050611860565b5050565b601f8211156118c35761189481611763565b61189d84611778565b810160208510156118ac578190505b6118c06118b885611778565b83018261185f565b50505b505050565b600082821c905092915050565b60006118e6600019846008026118c8565b1980831691505092915050565b60006118ff83836118d5565b9150826002028217905092915050565b61191882611082565b67ffffffffffffffff81111561193157611930611734565b5b61193b825461155c565b611946828285611882565b600060209050601f8311600181146119795760008415611967578287015190505b61197185826118f3565b8655506119d9565b601f19841661198786611763565b60005b828110156119af5784890151825560018201915060208501945060208101905061198a565b868310156119cc57848901516119c8601f8916826118d5565b8355505b6001600288020188555050505b505050505050565b7f4d61746368206973207374696c6c206f6e000000000000000000000000000000600082015250565b6000611a1760118361108d565b9150611a22826119e1565b602082019050919050565b60006020820190508181036000830152611a4681611a0a565b905091905056fea26469706673582212200da308628de5e05e026c3f56ad7a1bba0ab6dc5e03c88f457e65ef2e09e0d38664736f6c63430008110033",
					"opcodes": "PUSH1 0x80 PUSH1 0x40 MSTORE CALLVALUE DUP1 ISZERO PUSH2 0x10 JUMPI PUSH1 0x0 DUP1 REVERT JUMPDEST POP CALLER PUSH1 0x0 DUP1 PUSH2 0x100 EXP DUP2 SLOAD DUP2 PUSH20 0xFFFFFFFFFFFFFFFFFFFFFFFFFFFFFFFFFFFFFFFF MUL NOT AND SWAP1 DUP4 PUSH20 0xFFFFFFFFFFFFFFFFFFFFFFFFFFFFFFFFFFFFFFFF AND MUL OR SWAP1 SSTORE POP PUSH2 0x1A83 DUP1 PUSH2 0x60 PUSH1 0x0 CODECOPY PUSH1 0x0 RETURN INVALID PUSH1 0x80 PUSH1 0x40 MSTORE PUSH1 0x4 CALLDATASIZE LT PUSH2 0x86 JUMPI PUSH1 0x0 CALLDATALOAD PUSH1 0xE0 SHR DUP1 PUSH4 0x5FBC88AD GT PUSH2 0x59 JUMPI DUP1 PUSH4 0x5FBC88AD EQ PUSH2 0x167 JUMPI DUP1 PUSH4 0xB2EDB39F EQ PUSH2 0x190 JUMPI DUP1 PUSH4 0xBC9E6E2C EQ PUSH2 0x1D1 JUMPI DUP1 PUSH4 0xEC7361A8 EQ PUSH2 0x20E JUMPI DUP1 PUSH4 0xF851A440 EQ PUSH2 0x237 JUMPI PUSH2 0x86 JUMP JUMPDEST DUP1 PUSH4 0x3EDF914 EQ PUSH2 0x8B JUMPI DUP1 PUSH4 0x15A3AE71 EQ PUSH2 0xA7 JUMPI DUP1 PUSH4 0x2172FF16 EQ PUSH2 0xE6 JUMPI DUP1 PUSH4 0x4195AB8E EQ PUSH2 0x127 JUMPI JUMPDEST PUSH1 0x0 DUP1 REVERT JUMPDEST PUSH2 0xA5 PUSH1 0x4 DUP1 CALLDATASIZE SUB DUP2 ADD SWAP1 PUSH2 0xA0 SWAP2 SWAP1 PUSH2 0xF17 JUMP JUMPDEST PUSH2 0x262 JUMP JUMPDEST STOP JUMPDEST CALLVALUE DUP1 ISZERO PUSH2 0xB3 JUMPI PUSH1 0x0 DUP1 REVERT JUMPDEST POP PUSH2 0xCE PUSH1 0x4 DUP1 CALLDATASIZE SUB DUP2 ADD SWAP1 PUSH2 0xC9 SWAP2 SWAP1 PUSH2 0xF57 JUMP JUMPDEST PUSH2 0x534 JUMP JUMPDEST PUSH1 0x40 MLOAD PUSH2 0xDD SWAP4 SWAP3 SWAP2 SWAP1 PUSH2 0x104B JUMP JUMPDEST PUSH1 0x40 MLOAD DUP1 SWAP2 SUB SWAP1 RETURN JUMPDEST CALLVALUE DUP1 ISZERO PUSH2 0xF2 JUMPI PUSH1 0x0 DUP1 REVERT JUMPDEST POP PUSH2 0x10D PUSH1 0x4 DUP1 CALLDATASIZE SUB DUP2 ADD SWAP1 PUSH2 0x108 SWAP2 SWAP1 PUSH2 0xF57 JUMP JUMPDEST PUSH2 0x59B JUMP JUMPDEST PUSH1 0x40 MLOAD PUSH2 0x11E SWAP6 SWAP5 SWAP4 SWAP3 SWAP2 SWAP1 PUSH2 0x1150 JUMP JUMPDEST PUSH1 0x40 MLOAD DUP1 SWAP2 SUB SWAP1 RETURN JUMPDEST CALLVALUE DUP1 ISZERO PUSH2 0x133 JUMPI PUSH1 0x0 DUP1 REVERT JUMPDEST POP PUSH2 0x14E PUSH1 0x4 DUP1 CALLDATASIZE SUB DUP2 ADD SWAP1 PUSH2 0x149 SWAP2 SWAP1 PUSH2 0x11DD JUMP JUMPDEST PUSH2 0x6FF JUMP JUMPDEST PUSH1 0x40 MLOAD PUSH2 0x15E SWAP5 SWAP4 SWAP3 SWAP2 SWAP1 PUSH2 0x1238 JUMP JUMPDEST PUSH1 0x40 MLOAD DUP1 SWAP2 SUB SWAP1 RETURN JUMPDEST CALLVALUE DUP1 ISZERO PUSH2 0x173 JUMPI PUSH1 0x0 DUP1 REVERT JUMPDEST POP PUSH2 0x18E PUSH1 0x4 DUP1 CALLDATASIZE SUB DUP2 ADD SWAP1 PUSH2 0x189 SWAP2 SWAP1 PUSH2 0xF17 JUMP JUMPDEST PUSH2 0x756 JUMP JUMPDEST STOP JUMPDEST CALLVALUE DUP1 ISZERO PUSH2 0x19C JUMPI PUSH1 0x0 DUP1 REVERT JUMPDEST POP PUSH2 0x1B7 PUSH1 0x4 DUP1 CALLDATASIZE SUB DUP2 ADD SWAP1 PUSH2 0x1B2 SWAP2 SWAP1 PUSH2 0xF57 JUMP JUMPDEST PUSH2 0x85F JUMP JUMPDEST PUSH1 0x40 MLOAD PUSH2 0x1C8 SWAP6 SWAP5 SWAP4 SWAP3 SWAP2 SWAP1 PUSH2 0x1150 JUMP JUMPDEST PUSH1 0x40 MLOAD DUP1 SWAP2 SUB SWAP1 RETURN JUMPDEST CALLVALUE DUP1 ISZERO PUSH2 0x1DD JUMPI PUSH1 0x0 DUP1 REVERT JUMPDEST POP PUSH2 0x1F8 PUSH1 0x4 DUP1 CALLDATASIZE SUB DUP2 ADD SWAP1 PUSH2 0x1F3 SWAP2 SWAP1 PUSH2 0x12E2 JUMP JUMPDEST PUSH2 0x9D3 JUMP JUMPDEST PUSH1 0x40 MLOAD PUSH2 0x205 SWAP2 SWAP1 PUSH2 0x1377 JUMP JUMPDEST PUSH1 0x40 MLOAD DUP1 SWAP2 SUB SWAP1 RETURN JUMPDEST CALLVALUE DUP1 ISZERO PUSH2 0x21A JUMPI PUSH1 0x0 DUP1 REVERT JUMPDEST POP PUSH2 0x235 PUSH1 0x4 DUP1 CALLDATASIZE SUB DUP2 ADD SWAP1 PUSH2 0x230 SWAP2 SWAP1 PUSH2 0x1392 JUMP JUMPDEST PUSH2 0xD08 JUMP JUMPDEST STOP JUMPDEST CALLVALUE DUP1 ISZERO PUSH2 0x243 JUMPI PUSH1 0x0 DUP1 REVERT JUMPDEST POP PUSH2 0x24C PUSH2 0xE8E JUMP JUMPDEST PUSH1 0x40 MLOAD PUSH2 0x259 SWAP2 SWAP1 PUSH2 0x13E5 JUMP JUMPDEST PUSH1 0x40 MLOAD DUP1 SWAP2 SUB SWAP1 RETURN JUMPDEST PUSH1 0x0 ISZERO ISZERO PUSH1 0x2 PUSH1 0x0 CALLER PUSH20 0xFFFFFFFFFFFFFFFFFFFFFFFFFFFFFFFFFFFFFFFF AND PUSH20 0xFFFFFFFFFFFFFFFFFFFFFFFFFFFFFFFFFFFFFFFF AND DUP2 MSTORE PUSH1 0x20 ADD SWAP1 DUP2 MSTORE PUSH1 0x20 ADD PUSH1 0x0 KECCAK256 PUSH1 0x0 DUP5 DUP2 MSTORE PUSH1 0x20 ADD SWAP1 DUP2 MSTORE PUSH1 0x20 ADD PUSH1 0x0 KECCAK256 PUSH1 0x3 ADD PUSH1 0x0 SWAP1 SLOAD SWAP1 PUSH2 0x100 EXP SWAP1 DIV PUSH1 0xFF AND ISZERO ISZERO EQ PUSH2 0x309 JUMPI PUSH1 0x40 MLOAD PUSH32 0x8C379A000000000000000000000000000000000000000000000000000000000 DUP2 MSTORE PUSH1 0x4 ADD PUSH2 0x300 SWAP1 PUSH2 0x1472 JUMP JUMPDEST PUSH1 0x40 MLOAD DUP1 SWAP2 SUB SWAP1 REVERT JUMPDEST PUSH8 0xDE0B6B3A7640000 CALLVALUE EQ PUSH2 0x353 JUMPI PUSH1 0x40 MLOAD PUSH32 0x8C379A000000000000000000000000000000000000000000000000000000000 DUP2 MSTORE PUSH1 0x4 ADD PUSH2 0x34A SWAP1 PUSH2 0x14DE JUMP JUMPDEST PUSH1 0x40 MLOAD DUP1 SWAP2 SUB SWAP1 REVERT JUMPDEST PUSH1 0x0 CALLVALUE SWAP1 POP PUSH1 0x40 MLOAD DUP1 PUSH1 0x80 ADD PUSH1 0x40 MSTORE DUP1 DUP4 PUSH1 0x3 DUP2 GT ISZERO PUSH2 0x376 JUMPI PUSH2 0x375 PUSH2 0xFD4 JUMP JUMPDEST JUMPDEST DUP2 MSTORE PUSH1 0x20 ADD PUSH1 0x0 DUP2 MSTORE PUSH1 0x20 ADD DUP3 DUP2 MSTORE PUSH1 0x20 ADD PUSH1 0x1 ISZERO ISZERO DUP2 MSTORE POP PUSH1 0x2 PUSH1 0x0 CALLER PUSH20 0xFFFFFFFFFFFFFFFFFFFFFFFFFFFFFFFFFFFFFFFF AND PUSH20 0xFFFFFFFFFFFFFFFFFFFFFFFFFFFFFFFFFFFFFFFF AND DUP2 MSTORE PUSH1 0x20 ADD SWAP1 DUP2 MSTORE PUSH1 0x20 ADD PUSH1 0x0 KECCAK256 PUSH1 0x0 DUP6 DUP2 MSTORE PUSH1 0x20 ADD SWAP1 DUP2 MSTORE PUSH1 0x20 ADD PUSH1 0x0 KECCAK256 PUSH1 0x0 DUP3 ADD MLOAD DUP2 PUSH1 0x0 ADD PUSH1 0x0 PUSH2 0x100 EXP DUP2 SLOAD DUP2 PUSH1 0xFF MUL NOT AND SWAP1 DUP4 PUSH1 0x3 DUP2 GT ISZERO PUSH2 0x40A JUMPI PUSH2 0x409 PUSH2 0xFD4 JUMP JUMPDEST JUMPDEST MUL OR SWAP1 SSTORE POP PUSH1 0x20 DUP3 ADD MLOAD DUP2 PUSH1 0x1 ADD SSTORE PUSH1 0x40 DUP3 ADD MLOAD DUP2 PUSH1 0x2 ADD SSTORE PUSH1 0x60 DUP3 ADD MLOAD DUP2 PUSH1 0x3 ADD PUSH1 0x0 PUSH2 0x100 EXP DUP2 SLOAD DUP2 PUSH1 0xFF MUL NOT AND SWAP1 DUP4 ISZERO ISZERO MUL OR SWAP1 SSTORE POP SWAP1 POP POP PUSH1 0x40 MLOAD DUP1 PUSH1 0x60 ADD PUSH1 0x40 MSTORE DUP1 CALLER PUSH20 0xFFFFFFFFFFFFFFFFFFFFFFFFFFFFFFFFFFFFFFFF AND DUP2 MSTORE PUSH1 0x20 ADD DUP3 DUP2 MSTORE PUSH1 0x20 ADD DUP4 PUSH1 0x3 DUP2 GT ISZERO PUSH2 0x486 JUMPI PUSH2 0x485 PUSH2 0xFD4 JUMP JUMPDEST JUMPDEST DUP2 MSTORE POP PUSH1 0x4 DUP5 DUP2 SLOAD DUP2 LT PUSH2 0x49D JUMPI PUSH2 0x49C PUSH2 0x14FE JUMP JUMPDEST JUMPDEST SWAP1 PUSH1 0x0 MSTORE PUSH1 0x20 PUSH1 0x0 KECCAK256 SWAP1 PUSH1 0x3 MUL ADD PUSH1 0x0 DUP3 ADD MLOAD DUP2 PUSH1 0x0 ADD PUSH1 0x0 PUSH2 0x100 EXP DUP2 SLOAD DUP2 PUSH20 0xFFFFFFFFFFFFFFFFFFFFFFFFFFFFFFFFFFFFFFFF MUL NOT AND SWAP1 DUP4 PUSH20 0xFFFFFFFFFFFFFFFFFFFFFFFFFFFFFFFFFFFFFFFF AND MUL OR SWAP1 SSTORE POP PUSH1 0x20 DUP3 ADD MLOAD DUP2 PUSH1 0x1 ADD SSTORE PUSH1 0x40 DUP3 ADD MLOAD DUP2 PUSH1 0x2 ADD PUSH1 0x0 PUSH2 0x100 EXP DUP2 SLOAD DUP2 PUSH1 0xFF MUL NOT AND SWAP1 DUP4 PUSH1 0x3 DUP2 GT ISZERO PUSH2 0x527 JUMPI PUSH2 0x526 PUSH2 0xFD4 JUMP JUMPDEST JUMPDEST MUL OR SWAP1 SSTORE POP SWAP1 POP POP POP POP POP JUMP JUMPDEST PUSH1 0x4 DUP2 DUP2 SLOAD DUP2 LT PUSH2 0x544 JUMPI PUSH1 0x0 DUP1 REVERT JUMPDEST SWAP1 PUSH1 0x0 MSTORE PUSH1 0x20 PUSH1 0x0 KECCAK256 SWAP1 PUSH1 0x3 MUL ADD PUSH1 0x0 SWAP2 POP SWAP1 POP DUP1 PUSH1 0x0 ADD PUSH1 0x0 SWAP1 SLOAD SWAP1 PUSH2 0x100 EXP SWAP1 DIV PUSH20 0xFFFFFFFFFFFFFFFFFFFFFFFFFFFFFFFFFFFFFFFF AND SWAP1 DUP1 PUSH1 0x1 ADD SLOAD SWAP1 DUP1 PUSH1 0x2 ADD PUSH1 0x0 SWAP1 SLOAD SWAP1 PUSH2 0x100 EXP SWAP1 DIV PUSH1 0xFF AND SWAP1 POP DUP4 JUMP JUMPDEST PUSH1 0x1 PUSH1 0x20 MSTORE DUP1 PUSH1 0x0 MSTORE PUSH1 0x40 PUSH1 0x0 KECCAK256 PUSH1 0x0 SWAP2 POP SWAP1 POP DUP1 PUSH1 0x0 ADD DUP1 SLOAD PUSH2 0x5BE SWAP1 PUSH2 0x155C JUMP JUMPDEST DUP1 PUSH1 0x1F ADD PUSH1 0x20 DUP1 SWAP2 DIV MUL PUSH1 0x20 ADD PUSH1 0x40 MLOAD SWAP1 DUP2 ADD PUSH1 0x40 MSTORE DUP1 SWAP3 SWAP2 SWAP1 DUP2 DUP2 MSTORE PUSH1 0x20 ADD DUP3 DUP1 SLOAD PUSH2 0x5EA SWAP1 PUSH2 0x155C JUMP JUMPDEST DUP1 ISZERO PUSH2 0x637 JUMPI DUP1 PUSH1 0x1F LT PUSH2 0x60C JUMPI PUSH2 0x100 DUP1 DUP4 SLOAD DIV MUL DUP4 MSTORE SWAP2 PUSH1 0x20 ADD SWAP2 PUSH2 0x637 JUMP JUMPDEST DUP3 ADD SWAP2 SWAP1 PUSH1 0x0 MSTORE PUSH1 0x20 PUSH1 0x0 KECCAK256 SWAP1 JUMPDEST DUP2 SLOAD DUP2 MSTORE SWAP1 PUSH1 0x1 ADD SWAP1 PUSH1 0x20 ADD DUP1 DUP4 GT PUSH2 0x61A JUMPI DUP3 SWAP1 SUB PUSH1 0x1F AND DUP3 ADD SWAP2 JUMPDEST POP POP POP POP POP SWAP1 DUP1 PUSH1 0x1 ADD DUP1 SLOAD PUSH2 0x64C SWAP1 PUSH2 0x155C JUMP JUMPDEST DUP1 PUSH1 0x1F ADD PUSH1 0x20 DUP1 SWAP2 DIV MUL PUSH1 0x20 ADD PUSH1 0x40 MLOAD SWAP1 DUP2 ADD PUSH1 0x40 MSTORE DUP1 SWAP3 SWAP2 SWAP1 DUP2 DUP2 MSTORE PUSH1 0x20 ADD DUP3 DUP1 SLOAD PUSH2 0x678 SWAP1 PUSH2 0x155C JUMP JUMPDEST DUP1 ISZERO PUSH2 0x6C5 JUMPI DUP1 PUSH1 0x1F LT PUSH2 0x69A JUMPI PUSH2 0x100 DUP1 DUP4 SLOAD DIV MUL DUP4 MSTORE SWAP2 PUSH1 0x20 ADD SWAP2 PUSH2 0x6C5 JUMP JUMPDEST DUP3 ADD SWAP2 SWAP1 PUSH1 0x0 MSTORE PUSH1 0x20 PUSH1 0x0 KECCAK256 SWAP1 JUMPDEST DUP2 SLOAD DUP2 MSTORE SWAP1 PUSH1 0x1 ADD SWAP1 PUSH1 0x20 ADD DUP1 DUP4 GT PUSH2 0x6A8 JUMPI DUP3 SWAP1 SUB PUSH1 0x1F AND DUP3 ADD SWAP2 JUMPDEST POP POP POP POP POP SWAP1 DUP1 PUSH1 0x2 ADD SLOAD SWAP1 DUP1 PUSH1 0x3 ADD SLOAD SWAP1 DUP1 PUSH1 0x4 ADD PUSH1 0x40 MLOAD DUP1 PUSH1 0x40 ADD PUSH1 0x40 MSTORE SWAP1 DUP2 PUSH1 0x0 DUP3 ADD SLOAD DUP2 MSTORE PUSH1 0x20 ADD PUSH1 0x1 DUP3 ADD SLOAD DUP2 MSTORE POP POP SWAP1 POP DUP6 JUMP JUMPDEST PUSH1 0x2 PUSH1 0x20 MSTORE DUP2 PUSH1 0x0 MSTORE PUSH1 0x40 PUSH1 0x0 KECCAK256 PUSH1 0x20 MSTORE DUP1 PUSH1 0x0 MSTORE PUSH1 0x40 PUSH1 0x0 KECCAK256 PUSH1 0x0 SWAP2 POP SWAP2 POP POP DUP1 PUSH1 0x0 ADD PUSH1 0x0 SWAP1 SLOAD SWAP1 PUSH2 0x100 EXP SWAP1 DIV PUSH1 0xFF AND SWAP1 DUP1 PUSH1 0x1 ADD SLOAD SWAP1 DUP1 PUSH1 0x2 ADD SLOAD SWAP1 DUP1 PUSH1 0x3 ADD PUSH1 0x0 SWAP1 SLOAD SWAP1 PUSH2 0x100 EXP SWAP1 DIV PUSH1 0xFF AND SWAP1 POP DUP5 JUMP JUMPDEST PUSH1 0x0 TIMESTAMP SWAP1 POP PUSH1 0x1 PUSH1 0x0 DUP5 DUP2 MSTORE PUSH1 0x20 ADD SWAP1 DUP2 MSTORE PUSH1 0x20 ADD PUSH1 0x0 KECCAK256 PUSH1 0x3 ADD SLOAD DUP2 LT PUSH2 0x7B3 JUMPI PUSH1 0x40 MLOAD PUSH32 0x8C379A000000000000000000000000000000000000000000000000000000000 DUP2 MSTORE PUSH1 0x4 ADD PUSH2 0x7AA SWAP1 PUSH2 0x15D9 JUMP JUMPDEST PUSH1 0x40 MLOAD DUP1 SWAP2 SUB SWAP1 REVERT JUMPDEST PUSH1 0x1 ISZERO ISZERO PUSH1 0x2 PUSH1 0x0 CALLER PUSH20 0xFFFFFFFFFFFFFFFFFFFFFFFFFFFFFFFFFFFFFFFF AND PUSH20 0xFFFFFFFFFFFFFFFFFFFFFFFFFFFFFFFFFFFFFFFF AND DUP2 MSTORE PUSH1 0x20 ADD SWAP1 DUP2 MSTORE PUSH1 0x20 ADD PUSH1 0x0 KECCAK256 PUSH1 0x0 DUP6 DUP2 MSTORE PUSH1 0x20 ADD SWAP1 DUP2 MSTORE PUSH1 0x20 ADD PUSH1 0x0 KECCAK256 PUSH1 0x3 ADD PUSH1 0x0 SWAP1 SLOAD SWAP1 PUSH2 0x100 EXP SWAP1 DIV PUSH1 0xFF AND ISZERO ISZERO EQ PUSH2 0x85A JUMPI PUSH1 0x40 MLOAD PUSH32 0x8C379A000000000000000000000000000000000000000000000000000000000 DUP2 MSTORE PUSH1 0x4 ADD PUSH2 0x851 SWAP1 PUSH2 0x1645 JUMP JUMPDEST PUSH1 0x40 MLOAD DUP1 SWAP2 SUB SWAP1 REVERT JUMPDEST POP POP POP JUMP JUMPDEST PUSH1 0x3 DUP2 DUP2 SLOAD DUP2 LT PUSH2 0x86F JUMPI PUSH1 0x0 DUP1 REVERT JUMPDEST SWAP1 PUSH1 0x0 MSTORE PUSH1 0x20 PUSH1 0x0 KECCAK256 SWAP1 PUSH1 0x6 MUL ADD PUSH1 0x0 SWAP2 POP SWAP1 POP DUP1 PUSH1 0x0 ADD DUP1 SLOAD PUSH2 0x892 SWAP1 PUSH2 0x155C JUMP JUMPDEST DUP1 PUSH1 0x1F ADD PUSH1 0x20 DUP1 SWAP2 DIV MUL PUSH1 0x20 ADD PUSH1 0x40 MLOAD SWAP1 DUP2 ADD PUSH1 0x40 MSTORE DUP1 SWAP3 SWAP2 SWAP1 DUP2 DUP2 MSTORE PUSH1 0x20 ADD DUP3 DUP1 SLOAD PUSH2 0x8BE SWAP1 PUSH2 0x155C JUMP JUMPDEST DUP1 ISZERO PUSH2 0x90B JUMPI DUP1 PUSH1 0x1F LT PUSH2 0x8E0 JUMPI PUSH2 0x100 DUP1 DUP4 SLOAD DIV MUL DUP4 MSTORE SWAP2 PUSH1 0x20 ADD SWAP2 PUSH2 0x90B JUMP JUMPDEST DUP3 ADD SWAP2 SWAP1 PUSH1 0x0 MSTORE PUSH1 0x20 PUSH1 0x0 KECCAK256 SWAP1 JUMPDEST DUP2 SLOAD DUP2 MSTORE SWAP1 PUSH1 0x1 ADD SWAP1 PUSH1 0x20 ADD DUP1 DUP4 GT PUSH2 0x8EE JUMPI DUP3 SWAP1 SUB PUSH1 0x1F AND DUP3 ADD SWAP2 JUMPDEST POP POP POP POP POP SWAP1 DUP1 PUSH1 0x1 ADD DUP1 SLOAD PUSH2 0x920 SWAP1 PUSH2 0x155C JUMP JUMPDEST DUP1 PUSH1 0x1F ADD PUSH1 0x20 DUP1 SWAP2 DIV MUL PUSH1 0x20 ADD PUSH1 0x40 MLOAD SWAP1 DUP2 ADD PUSH1 0x40 MSTORE DUP1 SWAP3 SWAP2 SWAP1 DUP2 DUP2 MSTORE PUSH1 0x20 ADD DUP3 DUP1 SLOAD PUSH2 0x94C SWAP1 PUSH2 0x155C JUMP JUMPDEST DUP1 ISZERO PUSH2 0x999 JUMPI DUP1 PUSH1 0x1F LT PUSH2 0x96E JUMPI PUSH2 0x100 DUP1 DUP4 SLOAD DIV MUL DUP4 MSTORE SWAP2 PUSH1 0x20 ADD SWAP2 PUSH2 0x999 JUMP JUMPDEST DUP3 ADD SWAP2 SWAP1 PUSH1 0x0 MSTORE PUSH1 0x20 PUSH1 0x0 KECCAK256 SWAP1 JUMPDEST DUP2 SLOAD DUP2 MSTORE SWAP1 PUSH1 0x1 ADD SWAP1 PUSH1 0x20 ADD DUP1 DUP4 GT PUSH2 0x97C JUMPI DUP3 SWAP1 SUB PUSH1 0x1F AND DUP3 ADD SWAP2 JUMPDEST POP POP POP POP POP SWAP1 DUP1 PUSH1 0x2 ADD SLOAD SWAP1 DUP1 PUSH1 0x3 ADD SLOAD SWAP1 DUP1 PUSH1 0x4 ADD PUSH1 0x40 MLOAD DUP1 PUSH1 0x40 ADD PUSH1 0x40 MSTORE SWAP1 DUP2 PUSH1 0x0 DUP3 ADD SLOAD DUP2 MSTORE PUSH1 0x20 ADD PUSH1 0x1 DUP3 ADD SLOAD DUP2 MSTORE POP POP SWAP1 POP DUP6 JUMP JUMPDEST PUSH1 0x0 CALLER PUSH20 0xFFFFFFFFFFFFFFFFFFFFFFFFFFFFFFFFFFFFFFFF AND PUSH1 0x0 DUP1 SLOAD SWAP1 PUSH2 0x100 EXP SWAP1 DIV PUSH20 0xFFFFFFFFFFFFFFFFFFFFFFFFFFFFFFFFFFFFFFFF AND PUSH20 0xFFFFFFFFFFFFFFFFFFFFFFFFFFFFFFFFFFFFFFFF AND EQ PUSH2 0xA63 JUMPI PUSH1 0x40 MLOAD PUSH32 0x8C379A000000000000000000000000000000000000000000000000000000000 DUP2 MSTORE PUSH1 0x4 ADD PUSH2 0xA5A SWAP1 PUSH2 0x16B1 JUMP JUMPDEST PUSH1 0x40 MLOAD DUP1 SWAP2 SUB SWAP1 REVERT JUMPDEST PUSH1 0x0 PUSH1 0x5F DUP4 PUSH2 0xA72 SWAP2 SWAP1 PUSH2 0x1700 JUMP JUMPDEST SWAP1 POP PUSH1 0x0 PUSH1 0x40 MLOAD DUP1 PUSH1 0x40 ADD PUSH1 0x40 MSTORE DUP1 PUSH1 0x0 DUP2 MSTORE PUSH1 0x20 ADD PUSH1 0x0 DUP2 MSTORE POP SWAP1 POP PUSH1 0x0 PUSH1 0x3 DUP1 SLOAD SWAP1 POP SWAP1 POP PUSH1 0x40 MLOAD DUP1 PUSH1 0xA0 ADD PUSH1 0x40 MSTORE DUP1 DUP11 DUP11 DUP1 DUP1 PUSH1 0x1F ADD PUSH1 0x20 DUP1 SWAP2 DIV MUL PUSH1 0x20 ADD PUSH1 0x40 MLOAD SWAP1 DUP2 ADD PUSH1 0x40 MSTORE DUP1 SWAP4 SWAP3 SWAP2 SWAP1 DUP2 DUP2 MSTORE PUSH1 0x20 ADD DUP4 DUP4 DUP1 DUP3 DUP5 CALLDATACOPY PUSH1 0x0 DUP2 DUP5 ADD MSTORE PUSH1 0x1F NOT PUSH1 0x1F DUP3 ADD AND SWAP1 POP DUP1 DUP4 ADD SWAP3 POP POP POP POP POP POP POP DUP2 MSTORE PUSH1 0x20 ADD DUP9 DUP9 DUP1 DUP1 PUSH1 0x1F ADD PUSH1 0x20 DUP1 SWAP2 DIV MUL PUSH1 0x20 ADD PUSH1 0x40 MLOAD SWAP1 DUP2 ADD PUSH1 0x40 MSTORE DUP1 SWAP4 SWAP3 SWAP2 SWAP1 DUP2 DUP2 MSTORE PUSH1 0x20 ADD DUP4 DUP4 DUP1 DUP3 DUP5 CALLDATACOPY PUSH1 0x0 DUP2 DUP5 ADD MSTORE PUSH1 0x1F NOT PUSH1 0x1F DUP3 ADD AND SWAP1 POP DUP1 DUP4 ADD SWAP3 POP POP POP POP POP POP POP DUP2 MSTORE PUSH1 0x20 ADD DUP7 DUP2 MSTORE PUSH1 0x20 ADD DUP5 DUP2 MSTORE PUSH1 0x20 ADD DUP4 DUP2 MSTORE POP PUSH1 0x1 PUSH1 0x0 DUP4 DUP2 MSTORE PUSH1 0x20 ADD SWAP1 DUP2 MSTORE PUSH1 0x20 ADD PUSH1 0x0 KECCAK256 PUSH1 0x0 DUP3 ADD MLOAD DUP2 PUSH1 0x0 ADD SWAP1 DUP2 PUSH2 0xB70 SWAP2 SWAP1 PUSH2 0x190F JUMP JUMPDEST POP PUSH1 0x20 DUP3 ADD MLOAD DUP2 PUSH1 0x1 ADD SWAP1 DUP2 PUSH2 0xB86 SWAP2 SWAP1 PUSH2 0x190F JUMP JUMPDEST POP PUSH1 0x40 DUP3 ADD MLOAD DUP2 PUSH1 0x2 ADD SSTORE PUSH1 0x60 DUP3 ADD MLOAD DUP2 PUSH1 0x3 ADD SSTORE PUSH1 0x80 DUP3 ADD MLOAD DUP2 PUSH1 0x4 ADD PUSH1 0x0 DUP3 ADD MLOAD DUP2 PUSH1 0x0 ADD SSTORE PUSH1 0x20 DUP3 ADD MLOAD DUP2 PUSH1 0x1 ADD SSTORE POP POP SWAP1 POP POP PUSH1 0x3 PUSH1 0x40 MLOAD DUP1 PUSH1 0xA0 ADD PUSH1 0x40 MSTORE DUP1 DUP12 DUP12 DUP1 DUP1 PUSH1 0x1F ADD PUSH1 0x20 DUP1 SWAP2 DIV MUL PUSH1 0x20 ADD PUSH1 0x40 MLOAD SWAP1 DUP2 ADD PUSH1 0x40 MSTORE DUP1 SWAP4 SWAP3 SWAP2 SWAP1 DUP2 DUP2 MSTORE PUSH1 0x20 ADD DUP4 DUP4 DUP1 DUP3 DUP5 CALLDATACOPY PUSH1 0x0 DUP2 DUP5 ADD MSTORE PUSH1 0x1F NOT PUSH1 0x1F DUP3 ADD AND SWAP1 POP DUP1 DUP4 ADD SWAP3 POP POP POP POP POP POP POP DUP2 MSTORE PUSH1 0x20 ADD DUP10 DUP10 DUP1 DUP1 PUSH1 0x1F ADD PUSH1 0x20 DUP1 SWAP2 DIV MUL PUSH1 0x20 ADD PUSH1 0x40 MLOAD SWAP1 DUP2 ADD PUSH1 0x40 MSTORE DUP1 SWAP4 SWAP3 SWAP2 SWAP1 DUP2 DUP2 MSTORE PUSH1 0x20 ADD DUP4 DUP4 DUP1 DUP3 DUP5 CALLDATACOPY PUSH1 0x0 DUP2 DUP5 ADD MSTORE PUSH1 0x1F NOT PUSH1 0x1F DUP3 ADD AND SWAP1 POP DUP1 DUP4 ADD SWAP3 POP POP POP POP POP POP POP DUP2 MSTORE PUSH1 0x20 ADD DUP8 DUP2 MSTORE PUSH1 0x20 ADD DUP6 DUP2 MSTORE PUSH1 0x20 ADD DUP5 DUP2 MSTORE POP SWAP1 DUP1 PUSH1 0x1 DUP2 SLOAD ADD DUP1 DUP3 SSTORE DUP1 SWAP2 POP POP PUSH1 0x1 SWAP1 SUB SWAP1 PUSH1 0x0 MSTORE PUSH1 0x20 PUSH1 0x0 KECCAK256 SWAP1 PUSH1 0x6 MUL ADD PUSH1 0x0 SWAP1 SWAP2 SWAP1 SWAP2 SWAP1 SWAP2 POP PUSH1 0x0 DUP3 ADD MLOAD DUP2 PUSH1 0x0 ADD SWAP1 DUP2 PUSH2 0xCAC SWAP2 SWAP1 PUSH2 0x190F JUMP JUMPDEST POP PUSH1 0x20 DUP3 ADD MLOAD DUP2 PUSH1 0x1 ADD SWAP1 DUP2 PUSH2 0xCC2 SWAP2 SWAP1 PUSH2 0x190F JUMP JUMPDEST POP PUSH1 0x40 DUP3 ADD MLOAD DUP2 PUSH1 0x2 ADD SSTORE PUSH1 0x60 DUP3 ADD MLOAD DUP2 PUSH1 0x3 ADD SSTORE PUSH1 0x80 DUP3 ADD MLOAD DUP2 PUSH1 0x4 ADD PUSH1 0x0 DUP3 ADD MLOAD DUP2 PUSH1 0x0 ADD SSTORE PUSH1 0x20 DUP3 ADD MLOAD DUP2 PUSH1 0x1 ADD SSTORE POP POP POP POP PUSH1 0x1 SWAP4 POP POP POP POP SWAP6 SWAP5 POP POP POP POP POP JUMP JUMPDEST CALLER PUSH20 0xFFFFFFFFFFFFFFFFFFFFFFFFFFFFFFFFFFFFFFFF AND PUSH1 0x0 DUP1 SLOAD SWAP1 PUSH2 0x100 EXP SWAP1 DIV PUSH20 0xFFFFFFFFFFFFFFFFFFFFFFFFFFFFFFFFFFFFFFFF AND PUSH20 0xFFFFFFFFFFFFFFFFFFFFFFFFFFFFFFFFFFFFFFFF AND EQ PUSH2 0xD96 JUMPI PUSH1 0x40 MLOAD PUSH32 0x8C379A000000000000000000000000000000000000000000000000000000000 DUP2 MSTORE PUSH1 0x4 ADD PUSH2 0xD8D SWAP1 PUSH2 0x16B1 JUMP JUMPDEST PUSH1 0x40 MLOAD DUP1 SWAP2 SUB SWAP1 REVERT JUMPDEST PUSH1 0x0 TIMESTAMP SWAP1 POP PUSH1 0x3 DUP5 DUP2 SLOAD DUP2 LT PUSH2 0xDAF JUMPI PUSH2 0xDAE PUSH2 0x14FE JUMP JUMPDEST JUMPDEST SWAP1 PUSH1 0x0 MSTORE PUSH1 0x20 PUSH1 0x0 KECCAK256 SWAP1 PUSH1 0x6 MUL ADD PUSH1 0x3 ADD SLOAD DUP2 LT ISZERO PUSH2 0xE03 JUMPI PUSH1 0x40 MLOAD PUSH32 0x8C379A000000000000000000000000000000000000000000000000000000000 DUP2 MSTORE PUSH1 0x4 ADD PUSH2 0xDFA SWAP1 PUSH2 0x1A2D JUMP JUMPDEST PUSH1 0x40 MLOAD DUP1 SWAP2 SUB SWAP1 REVERT JUMPDEST PUSH1 0x0 PUSH1 0x40 MLOAD DUP1 PUSH1 0x40 ADD PUSH1 0x40 MSTORE DUP1 DUP6 DUP2 MSTORE PUSH1 0x20 ADD DUP5 DUP2 MSTORE POP SWAP1 POP DUP1 PUSH1 0x3 DUP7 DUP2 SLOAD DUP2 LT PUSH2 0xE31 JUMPI PUSH2 0xE30 PUSH2 0x14FE JUMP JUMPDEST JUMPDEST SWAP1 PUSH1 0x0 MSTORE PUSH1 0x20 PUSH1 0x0 KECCAK256 SWAP1 PUSH1 0x6 MUL ADD PUSH1 0x4 ADD PUSH1 0x0 DUP3 ADD MLOAD DUP2 PUSH1 0x0 ADD SSTORE PUSH1 0x20 DUP3 ADD MLOAD DUP2 PUSH1 0x1 ADD SSTORE SWAP1 POP POP DUP1 PUSH1 0x1 PUSH1 0x0 DUP8 DUP2 MSTORE PUSH1 0x20 ADD SWAP1 DUP2 MSTORE PUSH1 0x20 ADD PUSH1 0x0 KECCAK256 PUSH1 0x4 ADD PUSH1 0x0 DUP3 ADD MLOAD DUP2 PUSH1 0x0 ADD SSTORE PUSH1 0x20 DUP3 ADD MLOAD DUP2 PUSH1 0x1 ADD SSTORE SWAP1 POP POP POP POP POP POP POP JUMP JUMPDEST PUSH1 0x0 DUP1 SLOAD SWAP1 PUSH2 0x100 EXP SWAP1 DIV PUSH20 0xFFFFFFFFFFFFFFFFFFFFFFFFFFFFFFFFFFFFFFFF AND DUP2 JUMP JUMPDEST PUSH1 0x0 DUP1 REVERT JUMPDEST PUSH1 0x0 DUP1 REVERT JUMPDEST PUSH1 0x0 DUP2 SWAP1 POP SWAP2 SWAP1 POP JUMP JUMPDEST PUSH2 0xECF DUP2 PUSH2 0xEBC JUMP JUMPDEST DUP2 EQ PUSH2 0xEDA JUMPI PUSH1 0x0 DUP1 REVERT JUMPDEST POP JUMP JUMPDEST PUSH1 0x0 DUP2 CALLDATALOAD SWAP1 POP PUSH2 0xEEC DUP2 PUSH2 0xEC6 JUMP JUMPDEST SWAP3 SWAP2 POP POP JUMP JUMPDEST PUSH1 0x4 DUP2 LT PUSH2 0xEFF JUMPI PUSH1 0x0 DUP1 REVERT JUMPDEST POP JUMP JUMPDEST PUSH1 0x0 DUP2 CALLDATALOAD SWAP1 POP PUSH2 0xF11 DUP2 PUSH2 0xEF2 JUMP JUMPDEST SWAP3 SWAP2 POP POP JUMP JUMPDEST PUSH1 0x0 DUP1 PUSH1 0x40 DUP4 DUP6 SUB SLT ISZERO PUSH2 0xF2E JUMPI PUSH2 0xF2D PUSH2 0xEB2 JUMP JUMPDEST JUMPDEST PUSH1 0x0 PUSH2 0xF3C DUP6 DUP3 DUP7 ADD PUSH2 0xEDD JUMP JUMPDEST SWAP3 POP POP PUSH1 0x20 PUSH2 0xF4D DUP6 DUP3 DUP7 ADD PUSH2 0xF02 JUMP JUMPDEST SWAP2 POP POP SWAP3 POP SWAP3 SWAP1 POP JUMP JUMPDEST PUSH1 0x0 PUSH1 0x20 DUP3 DUP5 SUB SLT ISZERO PUSH2 0xF6D JUMPI PUSH2 0xF6C PUSH2 0xEB2 JUMP JUMPDEST JUMPDEST PUSH1 0x0 PUSH2 0xF7B DUP5 DUP3 DUP6 ADD PUSH2 0xEDD JUMP JUMPDEST SWAP2 POP POP SWAP3 SWAP2 POP POP JUMP JUMPDEST PUSH1 0x0 PUSH20 0xFFFFFFFFFFFFFFFFFFFFFFFFFFFFFFFFFFFFFFFF DUP3 AND SWAP1 POP SWAP2 SWAP1 POP JUMP JUMPDEST PUSH1 0x0 PUSH2 0xFAF DUP3 PUSH2 0xF84 JUMP JUMPDEST SWAP1 POP SWAP2 SWAP1 POP JUMP JUMPDEST PUSH2 0xFBF DUP2 PUSH2 0xFA4 JUMP JUMPDEST DUP3 MSTORE POP POP JUMP JUMPDEST PUSH2 0xFCE DUP2 PUSH2 0xEBC JUMP JUMPDEST DUP3 MSTORE POP POP JUMP JUMPDEST PUSH32 0x4E487B7100000000000000000000000000000000000000000000000000000000 PUSH1 0x0 MSTORE PUSH1 0x21 PUSH1 0x4 MSTORE PUSH1 0x24 PUSH1 0x0 REVERT JUMPDEST PUSH1 0x4 DUP2 LT PUSH2 0x1014 JUMPI PUSH2 0x1013 PUSH2 0xFD4 JUMP JUMPDEST JUMPDEST POP JUMP JUMPDEST PUSH1 0x0 DUP2 SWAP1 POP PUSH2 0x1025 DUP3 PUSH2 0x1003 JUMP JUMPDEST SWAP2 SWAP1 POP JUMP JUMPDEST PUSH1 0x0 PUSH2 0x1035 DUP3 PUSH2 0x1017 JUMP JUMPDEST SWAP1 POP SWAP2 SWAP1 POP JUMP JUMPDEST PUSH2 0x1045 DUP2 PUSH2 0x102A JUMP JUMPDEST DUP3 MSTORE POP POP JUMP JUMPDEST PUSH1 0x0 PUSH1 0x60 DUP3 ADD SWAP1 POP PUSH2 0x1060 PUSH1 0x0 DUP4 ADD DUP7 PUSH2 0xFB6 JUMP JUMPDEST PUSH2 0x106D PUSH1 0x20 DUP4 ADD DUP6 PUSH2 0xFC5 JUMP JUMPDEST PUSH2 0x107A PUSH1 0x40 DUP4 ADD DUP5 PUSH2 0x103C JUMP JUMPDEST SWAP5 SWAP4 POP POP POP POP JUMP JUMPDEST PUSH1 0x0 DUP2 MLOAD SWAP1 POP SWAP2 SWAP1 POP JUMP JUMPDEST PUSH1 0x0 DUP3 DUP3 MSTORE PUSH1 0x20 DUP3 ADD SWAP1 POP SWAP3 SWAP2 POP POP JUMP JUMPDEST PUSH1 0x0 JUMPDEST DUP4 DUP2 LT ISZERO PUSH2 0x10BC JUMPI DUP1 DUP3 ADD MLOAD DUP2 DUP5 ADD MSTORE PUSH1 0x20 DUP2 ADD SWAP1 POP PUSH2 0x10A1 JUMP JUMPDEST PUSH1 0x0 DUP5 DUP5 ADD MSTORE POP POP POP POP JUMP JUMPDEST PUSH1 0x0 PUSH1 0x1F NOT PUSH1 0x1F DUP4 ADD AND SWAP1 POP SWAP2 SWAP1 POP JUMP JUMPDEST PUSH1 0x0 PUSH2 0x10E4 DUP3 PUSH2 0x1082 JUMP JUMPDEST PUSH2 0x10EE DUP2 DUP6 PUSH2 0x108D JUMP JUMPDEST SWAP4 POP PUSH2 0x10FE DUP2 DUP6 PUSH1 0x20 DUP7 ADD PUSH2 0x109E JUMP JUMPDEST PUSH2 0x1107 DUP2 PUSH2 0x10C8 JUMP JUMPDEST DUP5 ADD SWAP2 POP POP SWAP3 SWAP2 POP POP JUMP JUMPDEST PUSH2 0x111B DUP2 PUSH2 0xEBC JUMP JUMPDEST DUP3 MSTORE POP POP JUMP JUMPDEST PUSH1 0x40 DUP3 ADD PUSH1 0x0 DUP3 ADD MLOAD PUSH2 0x1137 PUSH1 0x0 DUP6 ADD DUP3 PUSH2 0x1112 JUMP JUMPDEST POP PUSH1 0x20 DUP3 ADD MLOAD PUSH2 0x114A PUSH1 0x20 DUP6 ADD DUP3 PUSH2 0x1112 JUMP JUMPDEST POP POP POP POP JUMP JUMPDEST PUSH1 0x0 PUSH1 0xC0 DUP3 ADD SWAP1 POP DUP2 DUP2 SUB PUSH1 0x0 DUP4 ADD MSTORE PUSH2 0x116A DUP2 DUP9 PUSH2 0x10D9 JUMP JUMPDEST SWAP1 POP DUP2 DUP2 SUB PUSH1 0x20 DUP4 ADD MSTORE PUSH2 0x117E DUP2 DUP8 PUSH2 0x10D9 JUMP JUMPDEST SWAP1 POP PUSH2 0x118D PUSH1 0x40 DUP4 ADD DUP7 PUSH2 0xFC5 JUMP JUMPDEST PUSH2 0x119A PUSH1 0x60 DUP4 ADD DUP6 PUSH2 0xFC5 JUMP JUMPDEST PUSH2 0x11A7 PUSH1 0x80 DUP4 ADD DUP5 PUSH2 0x1121 JUMP JUMPDEST SWAP7 SWAP6 POP POP POP POP POP POP JUMP JUMPDEST PUSH2 0x11BA DUP2 PUSH2 0xFA4 JUMP JUMPDEST DUP2 EQ PUSH2 0x11C5 JUMPI PUSH1 0x0 DUP1 REVERT JUMPDEST POP JUMP JUMPDEST PUSH1 0x0 DUP2 CALLDATALOAD SWAP1 POP PUSH2 0x11D7 DUP2 PUSH2 0x11B1 JUMP JUMPDEST SWAP3 SWAP2 POP POP JUMP JUMPDEST PUSH1 0x0 DUP1 PUSH1 0x40 DUP4 DUP6 SUB SLT ISZERO PUSH2 0x11F4 JUMPI PUSH2 0x11F3 PUSH2 0xEB2 JUMP JUMPDEST JUMPDEST PUSH1 0x0 PUSH2 0x1202 DUP6 DUP3 DUP7 ADD PUSH2 0x11C8 JUMP JUMPDEST SWAP3 POP POP PUSH1 0x20 PUSH2 0x1213 DUP6 DUP3 DUP7 ADD PUSH2 0xEDD JUMP JUMPDEST SWAP2 POP POP SWAP3 POP SWAP3 SWAP1 POP JUMP JUMPDEST PUSH1 0x0 DUP2 ISZERO ISZERO SWAP1 POP SWAP2 SWAP1 POP JUMP JUMPDEST PUSH2 0x1232 DUP2 PUSH2 0x121D JUMP JUMPDEST DUP3 MSTORE POP POP JUMP JUMPDEST PUSH1 0x0 PUSH1 0x80 DUP3 ADD SWAP1 POP PUSH2 0x124D PUSH1 0x0 DUP4 ADD DUP8 PUSH2 0x103C JUMP JUMPDEST PUSH2 0x125A PUSH1 0x20 DUP4 ADD DUP7 PUSH2 0xFC5 JUMP JUMPDEST PUSH2 0x1267 PUSH1 0x40 DUP4 ADD DUP6 PUSH2 0xFC5 JUMP JUMPDEST PUSH2 0x1274 PUSH1 0x60 DUP4 ADD DUP5 PUSH2 0x1229 JUMP JUMPDEST SWAP6 SWAP5 POP POP POP POP POP JUMP JUMPDEST PUSH1 0x0 DUP1 REVERT JUMPDEST PUSH1 0x0 DUP1 REVERT JUMPDEST PUSH1 0x0 DUP1 REVERT JUMPDEST PUSH1 0x0 DUP1 DUP4 PUSH1 0x1F DUP5 ADD SLT PUSH2 0x12A2 JUMPI PUSH2 0x12A1 PUSH2 0x127D JUMP JUMPDEST JUMPDEST DUP3 CALLDATALOAD SWAP1 POP PUSH8 0xFFFFFFFFFFFFFFFF DUP2 GT ISZERO PUSH2 0x12BF JUMPI PUSH2 0x12BE PUSH2 0x1282 JUMP JUMPDEST JUMPDEST PUSH1 0x20 DUP4 ADD SWAP2 POP DUP4 PUSH1 0x1 DUP3 MUL DUP4 ADD GT ISZERO PUSH2 0x12DB JUMPI PUSH2 0x12DA PUSH2 0x1287 JUMP JUMPDEST JUMPDEST SWAP3 POP SWAP3 SWAP1 POP JUMP JUMPDEST PUSH1 0x0 DUP1 PUSH1 0x0 DUP1 PUSH1 0x0 PUSH1 0x60 DUP7 DUP9 SUB SLT ISZERO PUSH2 0x12FE JUMPI PUSH2 0x12FD PUSH2 0xEB2 JUMP JUMPDEST JUMPDEST PUSH1 0x0 DUP7 ADD CALLDATALOAD PUSH8 0xFFFFFFFFFFFFFFFF DUP2 GT ISZERO PUSH2 0x131C JUMPI PUSH2 0x131B PUSH2 0xEB7 JUMP JUMPDEST JUMPDEST PUSH2 0x1328 DUP9 DUP3 DUP10 ADD PUSH2 0x128C JUMP JUMPDEST SWAP6 POP SWAP6 POP POP PUSH1 0x20 DUP7 ADD CALLDATALOAD PUSH8 0xFFFFFFFFFFFFFFFF DUP2 GT ISZERO PUSH2 0x134B JUMPI PUSH2 0x134A PUSH2 0xEB7 JUMP JUMPDEST JUMPDEST PUSH2 0x1357 DUP9 DUP3 DUP10 ADD PUSH2 0x128C JUMP JUMPDEST SWAP4 POP SWAP4 POP POP PUSH1 0x40 PUSH2 0x136A DUP9 DUP3 DUP10 ADD PUSH2 0xEDD JUMP JUMPDEST SWAP2 POP POP SWAP3 SWAP6 POP SWAP3 SWAP6 SWAP1 SWAP4 POP JUMP JUMPDEST PUSH1 0x0 PUSH1 0x20 DUP3 ADD SWAP1 POP PUSH2 0x138C PUSH1 0x0 DUP4 ADD DUP5 PUSH2 0x1229 JUMP JUMPDEST SWAP3 SWAP2 POP POP JUMP JUMPDEST PUSH1 0x0 DUP1 PUSH1 0x0 PUSH1 0x60 DUP5 DUP7 SUB SLT ISZERO PUSH2 0x13AB JUMPI PUSH2 0x13AA PUSH2 0xEB2 JUMP JUMPDEST JUMPDEST PUSH1 0x0 PUSH2 0x13B9 DUP7 DUP3 DUP8 ADD PUSH2 0xEDD JUMP JUMPDEST SWAP4 POP POP PUSH1 0x20 PUSH2 0x13CA DUP7 DUP3 DUP8 ADD PUSH2 0xEDD JUMP JUMPDEST SWAP3 POP POP PUSH1 0x40 PUSH2 0x13DB DUP7 DUP3 DUP8 ADD PUSH2 0xEDD JUMP JUMPDEST SWAP2 POP POP SWAP3 POP SWAP3 POP SWAP3 JUMP JUMPDEST PUSH1 0x0 PUSH1 0x20 DUP3 ADD SWAP1 POP PUSH2 0x13FA PUSH1 0x0 DUP4 ADD DUP5 PUSH2 0xFB6 JUMP JUMPDEST SWAP3 SWAP2 POP POP JUMP JUMPDEST PUSH32 0x596F752063616E206F6E6C7920706C6179206F6E636521205570646174652069 PUSH1 0x0 DUP3 ADD MSTORE PUSH32 0x6E73746561640000000000000000000000000000000000000000000000000000 PUSH1 0x20 DUP3 ADD MSTORE POP JUMP JUMPDEST PUSH1 0x0 PUSH2 0x145C PUSH1 0x26 DUP4 PUSH2 0x108D JUMP JUMPDEST SWAP2 POP PUSH2 0x1467 DUP3 PUSH2 0x1400 JUMP JUMPDEST PUSH1 0x40 DUP3 ADD SWAP1 POP SWAP2 SWAP1 POP JUMP JUMPDEST PUSH1 0x0 PUSH1 0x20 DUP3 ADD SWAP1 POP DUP2 DUP2 SUB PUSH1 0x0 DUP4 ADD MSTORE PUSH2 0x148B DUP2 PUSH2 0x144F JUMP JUMPDEST SWAP1 POP SWAP2 SWAP1 POP JUMP JUMPDEST PUSH32 0x42657420416D6F756E74206973206C657373207468616E207265717569726564 PUSH1 0x0 DUP3 ADD MSTORE POP JUMP JUMPDEST PUSH1 0x0 PUSH2 0x14C8 PUSH1 0x20 DUP4 PUSH2 0x108D JUMP JUMPDEST SWAP2 POP PUSH2 0x14D3 DUP3 PUSH2 0x1492 JUMP JUMPDEST PUSH1 0x20 DUP3 ADD SWAP1 POP SWAP2 SWAP1 POP JUMP JUMPDEST PUSH1 0x0 PUSH1 0x20 DUP3 ADD SWAP1 POP DUP2 DUP2 SUB PUSH1 0x0 DUP4 ADD MSTORE PUSH2 0x14F7 DUP2 PUSH2 0x14BB JUMP JUMPDEST SWAP1 POP SWAP2 SWAP1 POP JUMP JUMPDEST PUSH32 0x4E487B7100000000000000000000000000000000000000000000000000000000 PUSH1 0x0 MSTORE PUSH1 0x32 PUSH1 0x4 MSTORE PUSH1 0x24 PUSH1 0x0 REVERT JUMPDEST PUSH32 0x4E487B7100000000000000000000000000000000000000000000000000000000 PUSH1 0x0 MSTORE PUSH1 0x22 PUSH1 0x4 MSTORE PUSH1 0x24 PUSH1 0x0 REVERT JUMPDEST PUSH1 0x0 PUSH1 0x2 DUP3 DIV SWAP1 POP PUSH1 0x1 DUP3 AND DUP1 PUSH2 0x1574 JUMPI PUSH1 0x7F DUP3 AND SWAP2 POP JUMPDEST PUSH1 0x20 DUP3 LT DUP2 SUB PUSH2 0x1587 JUMPI PUSH2 0x1586 PUSH2 0x152D JUMP JUMPDEST JUMPDEST POP SWAP2 SWAP1 POP JUMP JUMPDEST PUSH32 0x47616D652068617320616C726561647920626567756E00000000000000000000 PUSH1 0x0 DUP3 ADD MSTORE POP JUMP JUMPDEST PUSH1 0x0 PUSH2 0x15C3 PUSH1 0x16 DUP4 PUSH2 0x108D JUMP JUMPDEST SWAP2 POP PUSH2 0x15CE DUP3 PUSH2 0x158D JUMP JUMPDEST PUSH1 0x20 DUP3 ADD SWAP1 POP SWAP2 SWAP1 POP JUMP JUMPDEST PUSH1 0x0 PUSH1 0x20 DUP3 ADD SWAP1 POP DUP2 DUP2 SUB PUSH1 0x0 DUP4 ADD MSTORE PUSH2 0x15F2 DUP2 PUSH2 0x15B6 JUMP JUMPDEST SWAP1 POP SWAP2 SWAP1 POP JUMP JUMPDEST PUSH32 0x596F752063616E206F6E6C7920757064617465206F6E636520706C0000000000 PUSH1 0x0 DUP3 ADD MSTORE POP JUMP JUMPDEST PUSH1 0x0 PUSH2 0x162F PUSH1 0x1B DUP4 PUSH2 0x108D JUMP JUMPDEST SWAP2 POP PUSH2 0x163A DUP3 PUSH2 0x15F9 JUMP JUMPDEST PUSH1 0x20 DUP3 ADD SWAP1 POP SWAP2 SWAP1 POP JUMP JUMPDEST PUSH1 0x0 PUSH1 0x20 DUP3 ADD SWAP1 POP DUP2 DUP2 SUB PUSH1 0x0 DUP4 ADD MSTORE PUSH2 0x165E DUP2 PUSH2 0x1622 JUMP JUMPDEST SWAP1 POP SWAP2 SWAP1 POP JUMP JUMPDEST PUSH32 0x4E6F74204F776E65720000000000000000000000000000000000000000000000 PUSH1 0x0 DUP3 ADD MSTORE POP JUMP JUMPDEST PUSH1 0x0 PUSH2 0x169B PUSH1 0x9 DUP4 PUSH2 0x108D JUMP JUMPDEST SWAP2 POP PUSH2 0x16A6 DUP3 PUSH2 0x1665 JUMP JUMPDEST PUSH1 0x20 DUP3 ADD SWAP1 POP SWAP2 SWAP1 POP JUMP JUMPDEST PUSH1 0x0 PUSH1 0x20 DUP3 ADD SWAP1 POP DUP2 DUP2 SUB PUSH1 0x0 DUP4 ADD MSTORE PUSH2 0x16CA DUP2 PUSH2 0x168E JUMP JUMPDEST SWAP1 POP SWAP2 SWAP1 POP JUMP JUMPDEST PUSH32 0x4E487B7100000000000000000000000000000000000000000000000000000000 PUSH1 0x0 MSTORE PUSH1 0x11 PUSH1 0x4 MSTORE PUSH1 0x24 PUSH1 0x0 REVERT JUMPDEST PUSH1 0x0 PUSH2 0x170B DUP3 PUSH2 0xEBC JUMP JUMPDEST SWAP2 POP PUSH2 0x1716 DUP4 PUSH2 0xEBC JUMP JUMPDEST SWAP3 POP DUP3 DUP3 ADD SWAP1 POP DUP1 DUP3 GT ISZERO PUSH2 0x172E JUMPI PUSH2 0x172D PUSH2 0x16D1 JUMP JUMPDEST JUMPDEST SWAP3 SWAP2 POP POP JUMP JUMPDEST PUSH32 0x4E487B7100000000000000000000000000000000000000000000000000000000 PUSH1 0x0 MSTORE PUSH1 0x41 PUSH1 0x4 MSTORE PUSH1 0x24 PUSH1 0x0 REVERT JUMPDEST PUSH1 0x0 DUP2 SWAP1 POP DUP2 PUSH1 0x0 MSTORE PUSH1 0x20 PUSH1 0x0 KECCAK256 SWAP1 POP SWAP2 SWAP1 POP JUMP JUMPDEST PUSH1 0x0 PUSH1 0x20 PUSH1 0x1F DUP4 ADD DIV SWAP1 POP SWAP2 SWAP1 POP JUMP JUMPDEST PUSH1 0x0 DUP3 DUP3 SHL SWAP1 POP SWAP3 SWAP2 POP POP JUMP JUMPDEST PUSH1 0x0 PUSH1 0x8 DUP4 MUL PUSH2 0x17C5 PUSH32 0xFFFFFFFFFFFFFFFFFFFFFFFFFFFFFFFFFFFFFFFFFFFFFFFFFFFFFFFFFFFFFFFF DUP3 PUSH2 0x1788 JUMP JUMPDEST PUSH2 0x17CF DUP7 DUP4 PUSH2 0x1788 JUMP JUMPDEST SWAP6 POP DUP1 NOT DUP5 AND SWAP4 POP DUP1 DUP7 AND DUP5 OR SWAP3 POP POP POP SWAP4 SWAP3 POP POP POP JUMP JUMPDEST PUSH1 0x0 DUP2 SWAP1 POP SWAP2 SWAP1 POP JUMP JUMPDEST PUSH1 0x0 PUSH2 0x180C PUSH2 0x1807 PUSH2 0x1802 DUP5 PUSH2 0xEBC JUMP JUMPDEST PUSH2 0x17E7 JUMP JUMPDEST PUSH2 0xEBC JUMP JUMPDEST SWAP1 POP SWAP2 SWAP1 POP JUMP JUMPDEST PUSH1 0x0 DUP2 SWAP1 POP SWAP2 SWAP1 POP JUMP JUMPDEST PUSH2 0x1826 DUP4 PUSH2 0x17F1 JUMP JUMPDEST PUSH2 0x183A PUSH2 0x1832 DUP3 PUSH2 0x1813 JUMP JUMPDEST DUP5 DUP5 SLOAD PUSH2 0x1795 JUMP JUMPDEST DUP3 SSTORE POP POP POP POP JUMP JUMPDEST PUSH1 0x0 SWAP1 JUMP JUMPDEST PUSH2 0x184F PUSH2 0x1842 JUMP JUMPDEST PUSH2 0x185A DUP2 DUP5 DUP5 PUSH2 0x181D JUMP JUMPDEST POP POP POP JUMP JUMPDEST JUMPDEST DUP2 DUP2 LT ISZERO PUSH2 0x187E JUMPI PUSH2 0x1873 PUSH1 0x0 DUP3 PUSH2 0x1847 JUMP JUMPDEST PUSH1 0x1 DUP2 ADD SWAP1 POP PUSH2 0x1860 JUMP JUMPDEST POP POP JUMP JUMPDEST PUSH1 0x1F DUP3 GT ISZERO PUSH2 0x18C3 JUMPI PUSH2 0x1894 DUP2 PUSH2 0x1763 JUMP JUMPDEST PUSH2 0x189D DUP5 PUSH2 0x1778 JUMP JUMPDEST DUP2 ADD PUSH1 0x20 DUP6 LT ISZERO PUSH2 0x18AC JUMPI DUP2 SWAP1 POP JUMPDEST PUSH2 0x18C0 PUSH2 0x18B8 DUP6 PUSH2 0x1778 JUMP JUMPDEST DUP4 ADD DUP3 PUSH2 0x185F JUMP JUMPDEST POP POP JUMPDEST POP POP POP JUMP JUMPDEST PUSH1 0x0 DUP3 DUP3 SHR SWAP1 POP SWAP3 SWAP2 POP POP JUMP JUMPDEST PUSH1 0x0 PUSH2 0x18E6 PUSH1 0x0 NOT DUP5 PUSH1 0x8 MUL PUSH2 0x18C8 JUMP JUMPDEST NOT DUP1 DUP4 AND SWAP2 POP POP SWAP3 SWAP2 POP POP JUMP JUMPDEST PUSH1 0x0 PUSH2 0x18FF DUP4 DUP4 PUSH2 0x18D5 JUMP JUMPDEST SWAP2 POP DUP3 PUSH1 0x2 MUL DUP3 OR SWAP1 POP SWAP3 SWAP2 POP POP JUMP JUMPDEST PUSH2 0x1918 DUP3 PUSH2 0x1082 JUMP JUMPDEST PUSH8 0xFFFFFFFFFFFFFFFF DUP2 GT ISZERO PUSH2 0x1931 JUMPI PUSH2 0x1930 PUSH2 0x1734 JUMP JUMPDEST JUMPDEST PUSH2 0x193B DUP3 SLOAD PUSH2 0x155C JUMP JUMPDEST PUSH2 0x1946 DUP3 DUP3 DUP6 PUSH2 0x1882 JUMP JUMPDEST PUSH1 0x0 PUSH1 0x20 SWAP1 POP PUSH1 0x1F DUP4 GT PUSH1 0x1 DUP2 EQ PUSH2 0x1979 JUMPI PUSH1 0x0 DUP5 ISZERO PUSH2 0x1967 JUMPI DUP3 DUP8 ADD MLOAD SWAP1 POP JUMPDEST PUSH2 0x1971 DUP6 DUP3 PUSH2 0x18F3 JUMP JUMPDEST DUP7 SSTORE POP PUSH2 0x19D9 JUMP JUMPDEST PUSH1 0x1F NOT DUP5 AND PUSH2 0x1987 DUP7 PUSH2 0x1763 JUMP JUMPDEST PUSH1 0x0 JUMPDEST DUP3 DUP2 LT ISZERO PUSH2 0x19AF JUMPI DUP5 DUP10 ADD MLOAD DUP3 SSTORE PUSH1 0x1 DUP3 ADD SWAP2 POP PUSH1 0x20 DUP6 ADD SWAP5 POP PUSH1 0x20 DUP2 ADD SWAP1 POP PUSH2 0x198A JUMP JUMPDEST DUP7 DUP4 LT ISZERO PUSH2 0x19CC JUMPI DUP5 DUP10 ADD MLOAD PUSH2 0x19C8 PUSH1 0x1F DUP10 AND DUP3 PUSH2 0x18D5 JUMP JUMPDEST DUP4 SSTORE POP JUMPDEST PUSH1 0x1 PUSH1 0x2 DUP9 MUL ADD DUP9 SSTORE POP POP POP JUMPDEST POP POP POP POP POP POP JUMP JUMPDEST PUSH32 0x4D61746368206973207374696C6C206F6E000000000000000000000000000000 PUSH1 0x0 DUP3 ADD MSTORE POP JUMP JUMPDEST PUSH1 0x0 PUSH2 0x1A17 PUSH1 0x11 DUP4 PUSH2 0x108D JUMP JUMPDEST SWAP2 POP PUSH2 0x1A22 DUP3 PUSH2 0x19E1 JUMP JUMPDEST PUSH1 0x20 DUP3 ADD SWAP1 POP SWAP2 SWAP1 POP JUMP JUMPDEST PUSH1 0x0 PUSH1 0x20 DUP3 ADD SWAP1 POP DUP2 DUP2 SUB PUSH1 0x0 DUP4 ADD MSTORE PUSH2 0x1A46 DUP2 PUSH2 0x1A0A JUMP JUMPDEST SWAP1 POP SWAP2 SWAP1 POP JUMP INVALID LOG2 PUSH5 0x6970667358 0x22 SLT KECCAK256 0xD LOG3 ADDMOD PUSH3 0x8DE5E0 0x5E MUL PUSH13 0x3F56AD7A1BBA0AB6DC5E03C88F GASLIMIT PUSH31 0x65EF2E09E0D38664736F6C6343000811003300000000000000000000000000 "
				},
				"gasEstimates": {
					"creation": {
						"codeDepositCost": "1357400",
						"executionCost": "25683",
						"totalCost": "1383083"
					},
					"external": {
						"Game(uint256)": "infinite",
						"admin()": "2599",
						"allMatch(uint256)": "infinite",
						"closeMatch(uint256,uint256,uint256)": "infinite",
						"instantiateMatch(string,string,uint256)": "infinite",
						"placeBet(uint256,uint8)": "151932",
						"specificMatchBets(uint256)": "infinite",
						"updateBet(uint256,uint8)": "5382",
						"userBet(address,uint256)": "infinite"
					}
				},
				"methodIdentifiers": {
					"Game(uint256)": "2172ff16",
					"admin()": "f851a440",
					"allMatch(uint256)": "b2edb39f",
					"closeMatch(uint256,uint256,uint256)": "ec7361a8",
					"instantiateMatch(string,string,uint256)": "bc9e6e2c",
					"placeBet(uint256,uint8)": "03edf914",
					"specificMatchBets(uint256)": "15a3ae71",
					"updateBet(uint256,uint8)": "5fbc88ad",
					"userBet(address,uint256)": "4195ab8e"
				}
			},
			"storageLayout": {
				"storage": [
					{
						"astId": 8,
						"contract": "contracts/betting.sol:DistanceFiBET",
						"label": "admin",
						"offset": 0,
						"slot": "0",
						"type": "t_address"
					},
					{
						"astId": 40,
						"contract": "contracts/betting.sol:DistanceFiBET",
						"label": "Game",
						"offset": 0,
						"slot": "1",
						"type": "t_mapping(t_uint256,t_struct(Match)25_storage)"
					},
					{
						"astId": 47,
						"contract": "contracts/betting.sol:DistanceFiBET",
						"label": "userBet",
						"offset": 0,
						"slot": "2",
						"type": "t_mapping(t_address,t_mapping(t_uint256,t_struct(Bettor)35_storage))"
					},
					{
						"astId": 51,
						"contract": "contracts/betting.sol:DistanceFiBET",
						"label": "allMatch",
						"offset": 0,
						"slot": "3",
						"type": "t_array(t_struct(Match)25_storage)dyn_storage"
					},
					{
						"astId": 63,
						"contract": "contracts/betting.sol:DistanceFiBET",
						"label": "specificMatchBets",
						"offset": 0,
						"slot": "4",
						"type": "t_array(t_struct(allBets)59_storage)dyn_storage"
					}
				],
				"types": {
					"t_address": {
						"encoding": "inplace",
						"label": "address",
						"numberOfBytes": "20"
					},
					"t_array(t_struct(Match)25_storage)dyn_storage": {
						"base": "t_struct(Match)25_storage",
						"encoding": "dynamic_array",
						"label": "struct DistanceFiBET.Match[]",
						"numberOfBytes": "32"
					},
					"t_array(t_struct(allBets)59_storage)dyn_storage": {
						"base": "t_struct(allBets)59_storage",
						"encoding": "dynamic_array",
						"label": "struct DistanceFiBET.allBets[]",
						"numberOfBytes": "32"
					},
					"t_bool": {
						"encoding": "inplace",
						"label": "bool",
						"numberOfBytes": "1"
					},
					"t_enum(Choices)6": {
						"encoding": "inplace",
						"label": "enum DistanceFiBET.Choices",
						"numberOfBytes": "1"
					},
					"t_mapping(t_address,t_mapping(t_uint256,t_struct(Bettor)35_storage))": {
						"encoding": "mapping",
						"key": "t_address",
						"label": "mapping(address => mapping(uint256 => struct DistanceFiBET.Bettor))",
						"numberOfBytes": "32",
						"value": "t_mapping(t_uint256,t_struct(Bettor)35_storage)"
					},
					"t_mapping(t_uint256,t_struct(Bettor)35_storage)": {
						"encoding": "mapping",
						"key": "t_uint256",
						"label": "mapping(uint256 => struct DistanceFiBET.Bettor)",
						"numberOfBytes": "32",
						"value": "t_struct(Bettor)35_storage"
					},
					"t_mapping(t_uint256,t_struct(Match)25_storage)": {
						"encoding": "mapping",
						"key": "t_uint256",
						"label": "mapping(uint256 => struct DistanceFiBET.Match)",
						"numberOfBytes": "32",
						"value": "t_struct(Match)25_storage"
					},
					"t_string_storage": {
						"encoding": "bytes",
						"label": "string",
						"numberOfBytes": "32"
					},
					"t_struct(Bettor)35_storage": {
						"encoding": "inplace",
						"label": "struct DistanceFiBET.Bettor",
						"members": [
							{
								"astId": 28,
								"contract": "contracts/betting.sol:DistanceFiBET",
								"label": "bet",
								"offset": 0,
								"slot": "0",
								"type": "t_enum(Choices)6"
							},
							{
								"astId": 30,
								"contract": "contracts/betting.sol:DistanceFiBET",
								"label": "winAmounts",
								"offset": 0,
								"slot": "1",
								"type": "t_uint256"
							},
							{
								"astId": 32,
								"contract": "contracts/betting.sol:DistanceFiBET",
								"label": "betAmount",
								"offset": 0,
								"slot": "2",
								"type": "t_uint256"
							},
							{
								"astId": 34,
								"contract": "contracts/betting.sol:DistanceFiBET",
								"label": "played",
								"offset": 0,
								"slot": "3",
								"type": "t_bool"
							}
						],
						"numberOfBytes": "128"
					},
					"t_struct(Match)25_storage": {
						"encoding": "inplace",
						"label": "struct DistanceFiBET.Match",
						"members": [
							{
								"astId": 15,
								"contract": "contracts/betting.sol:DistanceFiBET",
								"label": "HomeTeam",
								"offset": 0,
								"slot": "0",
								"type": "t_string_storage"
							},
							{
								"astId": 17,
								"contract": "contracts/betting.sol:DistanceFiBET",
								"label": "AwayTeam",
								"offset": 0,
								"slot": "1",
								"type": "t_string_storage"
							},
							{
								"astId": 19,
								"contract": "contracts/betting.sol:DistanceFiBET",
								"label": "startTime",
								"offset": 0,
								"slot": "2",
								"type": "t_uint256"
							},
							{
								"astId": 21,
								"contract": "contracts/betting.sol:DistanceFiBET",
								"label": "endTime",
								"offset": 0,
								"slot": "3",
								"type": "t_uint256"
							},
							{
								"astId": 24,
								"contract": "contracts/betting.sol:DistanceFiBET",
								"label": "results",
								"offset": 0,
								"slot": "4",
								"type": "t_struct(Results)13_storage"
							}
						],
						"numberOfBytes": "192"
					},
					"t_struct(Results)13_storage": {
						"encoding": "inplace",
						"label": "struct DistanceFiBET.Results",
						"members": [
							{
								"astId": 10,
								"contract": "contracts/betting.sol:DistanceFiBET",
								"label": "Home_score",
								"offset": 0,
								"slot": "0",
								"type": "t_uint256"
							},
							{
								"astId": 12,
								"contract": "contracts/betting.sol:DistanceFiBET",
								"label": "Away_score",
								"offset": 0,
								"slot": "1",
								"type": "t_uint256"
							}
						],
						"numberOfBytes": "64"
					},
					"t_struct(allBets)59_storage": {
						"encoding": "inplace",
						"label": "struct DistanceFiBET.allBets",
						"members": [
							{
								"astId": 53,
								"contract": "contracts/betting.sol:DistanceFiBET",
								"label": "bettor",
								"offset": 0,
								"slot": "0",
								"type": "t_address"
							},
							{
								"astId": 55,
								"contract": "contracts/betting.sol:DistanceFiBET",
								"label": "amount",
								"offset": 0,
								"slot": "1",
								"type": "t_uint256"
							},
							{
								"astId": 58,
								"contract": "contracts/betting.sol:DistanceFiBET",
								"label": "choice",
								"offset": 0,
								"slot": "2",
								"type": "t_enum(Choices)6"
							}
						],
						"numberOfBytes": "96"
					},
					"t_uint256": {
						"encoding": "inplace",
						"label": "uint256",
						"numberOfBytes": "32"
					}
				}
			},
			"userdoc": {
				"kind": "user",
				"methods": {},
				"version": 1
			}
		}
	}
}