{
	"contracts/betting.sol": {
		"DistanceFiBET": {
			"abi": [
				{
					"inputs": [],
					"stateMutability": "nonpayable",
					"type": "constructor"
				},
				{
					"inputs": [],
					"name": "admin",
					"outputs": [
						{
							"internalType": "address",
							"name": "",
							"type": "address"
						}
					],
					"stateMutability": "view",
					"type": "function"
				},
				{
					"inputs": [
						{
							"internalType": "uint256",
							"name": "",
							"type": "uint256"
						}
					],
					"name": "allMatch",
					"outputs": [
						{
							"internalType": "string",
							"name": "HomeTeam",
							"type": "string"
						},
						{
							"internalType": "string",
							"name": "AwayTeam",
							"type": "string"
						},
						{
							"internalType": "uint256",
							"name": "startTime",
							"type": "uint256"
						},
						{
							"internalType": "uint256",
							"name": "endTime",
							"type": "uint256"
						},
						{
							"components": [
								{
									"internalType": "uint256",
									"name": "Home_score",
									"type": "uint256"
								},
								{
									"internalType": "uint256",
									"name": "Away_score",
									"type": "uint256"
								}
							],
							"internalType": "struct DistanceFiBET.Results",
							"name": "results",
							"type": "tuple"
						}
					],
					"stateMutability": "view",
					"type": "function"
				},
				{
					"inputs": [
						{
							"internalType": "uint256",
							"name": "epoch",
							"type": "uint256"
						},
						{
							"internalType": "uint256",
							"name": "_homeScore",
							"type": "uint256"
						},
						{
							"internalType": "uint256",
							"name": "_aw3ayScore",
							"type": "uint256"
						}
					],
					"name": "closeMatch",
					"outputs": [],
					"stateMutability": "nonpayable",
					"type": "function"
				},
				{
					"inputs": [
						{
							"internalType": "string",
							"name": "_HomeTeam",
							"type": "string"
						},
						{
							"internalType": "string",
							"name": "_AwayTeam",
							"type": "string"
						},
						{
							"internalType": "uint256",
							"name": "_startTime",
							"type": "uint256"
						}
					],
					"name": "instantiateMatch",
					"outputs": [
						{
							"internalType": "bool",
							"name": "",
							"type": "bool"
						}
					],
					"stateMutability": "nonpayable",
					"type": "function"
				}
			],
			"devdoc": {
				"kind": "dev",
				"methods": {},
				"version": 1
			},
			"evm": {
				"assembly": "    /* \"contracts/betting.sol\":63:1453  contract DistanceFiBET{... */\n  mstore(0x40, 0x80)\n    /* \"contracts/betting.sol\":388:438  constructor(){... */\n  callvalue\n  dup1\n  iszero\n  tag_1\n  jumpi\n  0x00\n  dup1\n  revert\ntag_1:\n  pop\n    /* \"contracts/betting.sol\":420:430  msg.sender */\n  caller\n    /* \"contracts/betting.sol\":412:417  admin */\n  0x00\n  dup1\n    /* \"contracts/betting.sol\":412:430  admin = msg.sender */\n  0x0100\n  exp\n  dup2\n  sload\n  dup2\n  0xffffffffffffffffffffffffffffffffffffffff\n  mul\n  not\n  and\n  swap1\n  dup4\n  0xffffffffffffffffffffffffffffffffffffffff\n  and\n  mul\n  or\n  swap1\n  sstore\n  pop\n    /* \"contracts/betting.sol\":63:1453  contract DistanceFiBET{... */\n  dataSize(sub_0)\n  dup1\n  dataOffset(sub_0)\n  0x00\n  codecopy\n  0x00\n  return\nstop\n\nsub_0: assembly {\n        /* \"contracts/betting.sol\":63:1453  contract DistanceFiBET{... */\n      mstore(0x40, 0x80)\n      callvalue\n      dup1\n      iszero\n      tag_1\n      jumpi\n      0x00\n      dup1\n      revert\n    tag_1:\n      pop\n      jumpi(tag_2, lt(calldatasize, 0x04))\n      shr(0xe0, calldataload(0x00))\n      dup1\n      0xb2edb39f\n      eq\n      tag_3\n      jumpi\n      dup1\n      0xbc9e6e2c\n      eq\n      tag_4\n      jumpi\n      dup1\n      0xec7361a8\n      eq\n      tag_5\n      jumpi\n      dup1\n      0xf851a440\n      eq\n      tag_6\n      jumpi\n    tag_2:\n      0x00\n      dup1\n      revert\n        /* \"contracts/betting.sol\":357:381  Match [] public allMatch */\n    tag_3:\n      tag_7\n      0x04\n      dup1\n      calldatasize\n      sub\n      dup2\n      add\n      swap1\n      tag_8\n      swap2\n      swap1\n      tag_9\n      jump\t// in\n    tag_8:\n      tag_10\n      jump\t// in\n    tag_7:\n      mload(0x40)\n      tag_11\n      swap6\n      swap5\n      swap4\n      swap3\n      swap2\n      swap1\n      tag_12\n      jump\t// in\n    tag_11:\n      mload(0x40)\n      dup1\n      swap2\n      sub\n      swap1\n      return\n        /* \"contracts/betting.sol\":446:848  function instantiateMatch(string calldata _HomeTeam, string calldata _AwayTeam, uint _startTime) external returns (bool) {... */\n    tag_4:\n      tag_13\n      0x04\n      dup1\n      calldatasize\n      sub\n      dup2\n      add\n      swap1\n      tag_14\n      swap2\n      swap1\n      tag_15\n      jump\t// in\n    tag_14:\n      tag_16\n      jump\t// in\n    tag_13:\n      mload(0x40)\n      tag_17\n      swap2\n      swap1\n      tag_18\n      jump\t// in\n    tag_17:\n      mload(0x40)\n      dup1\n      swap2\n      sub\n      swap1\n      return\n        /* \"contracts/betting.sol\":856:1204  function closeMatch(uint epoch, uint _homeScore, uint _aw3ayScore) external {... */\n    tag_5:\n      tag_19\n      0x04\n      dup1\n      calldatasize\n      sub\n      dup2\n      add\n      swap1\n      tag_20\n      swap2\n      swap1\n      tag_21\n      jump\t// in\n    tag_20:\n      tag_22\n      jump\t// in\n    tag_19:\n      stop\n        /* \"contracts/betting.sol\":94:114  address public admin */\n    tag_6:\n      tag_23\n      tag_24\n      jump\t// in\n    tag_23:\n      mload(0x40)\n      tag_25\n      swap2\n      swap1\n      tag_26\n      jump\t// in\n    tag_25:\n      mload(0x40)\n      dup1\n      swap2\n      sub\n      swap1\n      return\n        /* \"contracts/betting.sol\":357:381  Match [] public allMatch */\n    tag_10:\n      0x01\n      dup2\n      dup2\n      sload\n      dup2\n      lt\n      tag_27\n      jumpi\n      0x00\n      dup1\n      revert\n    tag_27:\n      swap1\n      0x00\n      mstore\n      keccak256(0x00, 0x20)\n      swap1\n      0x06\n      mul\n      add\n      0x00\n      swap2\n      pop\n      swap1\n      pop\n      dup1\n      0x00\n      add\n      dup1\n      sload\n      tag_29\n      swap1\n      tag_30\n      jump\t// in\n    tag_29:\n      dup1\n      0x1f\n      add\n      0x20\n      dup1\n      swap2\n      div\n      mul\n      0x20\n      add\n      mload(0x40)\n      swap1\n      dup2\n      add\n      0x40\n      mstore\n      dup1\n      swap3\n      swap2\n      swap1\n      dup2\n      dup2\n      mstore\n      0x20\n      add\n      dup3\n      dup1\n      sload\n      tag_31\n      swap1\n      tag_30\n      jump\t// in\n    tag_31:\n      dup1\n      iszero\n      tag_32\n      jumpi\n      dup1\n      0x1f\n      lt\n      tag_33\n      jumpi\n      0x0100\n      dup1\n      dup4\n      sload\n      div\n      mul\n      dup4\n      mstore\n      swap2\n      0x20\n      add\n      swap2\n      jump(tag_32)\n    tag_33:\n      dup3\n      add\n      swap2\n      swap1\n      0x00\n      mstore\n      keccak256(0x00, 0x20)\n      swap1\n    tag_34:\n      dup2\n      sload\n      dup2\n      mstore\n      swap1\n      0x01\n      add\n      swap1\n      0x20\n      add\n      dup1\n      dup4\n      gt\n      tag_34\n      jumpi\n      dup3\n      swap1\n      sub\n      0x1f\n      and\n      dup3\n      add\n      swap2\n    tag_32:\n      pop\n      pop\n      pop\n      pop\n      pop\n      swap1\n      dup1\n      0x01\n      add\n      dup1\n      sload\n      tag_35\n      swap1\n      tag_30\n      jump\t// in\n    tag_35:\n      dup1\n      0x1f\n      add\n      0x20\n      dup1\n      swap2\n      div\n      mul\n      0x20\n      add\n      mload(0x40)\n      swap1\n      dup2\n      add\n      0x40\n      mstore\n      dup1\n      swap3\n      swap2\n      swap1\n      dup2\n      dup2\n      mstore\n      0x20\n      add\n      dup3\n      dup1\n      sload\n      tag_36\n      swap1\n      tag_30\n      jump\t// in\n    tag_36:\n      dup1\n      iszero\n      tag_37\n      jumpi\n      dup1\n      0x1f\n      lt\n      tag_38\n      jumpi\n      0x0100\n      dup1\n      dup4\n      sload\n      div\n      mul\n      dup4\n      mstore\n      swap2\n      0x20\n      add\n      swap2\n      jump(tag_37)\n    tag_38:\n      dup3\n      add\n      swap2\n      swap1\n      0x00\n      mstore\n      keccak256(0x00, 0x20)\n      swap1\n    tag_39:\n      dup2\n      sload\n      dup2\n      mstore\n      swap1\n      0x01\n      add\n      swap1\n      0x20\n      add\n      dup1\n      dup4\n      gt\n      tag_39\n      jumpi\n      dup3\n      swap1\n      sub\n      0x1f\n      and\n      dup3\n      add\n      swap2\n    tag_37:\n      pop\n      pop\n      pop\n      pop\n      pop\n      swap1\n      dup1\n      0x02\n      add\n      sload\n      swap1\n      dup1\n      0x03\n      add\n      sload\n      swap1\n      dup1\n      0x04\n      add\n      mload(0x40)\n      dup1\n      0x40\n      add\n      0x40\n      mstore\n      swap1\n      dup2\n      0x00\n      dup3\n      add\n      sload\n      dup2\n      mstore\n      0x20\n      add\n      0x01\n      dup3\n      add\n      sload\n      dup2\n      mstore\n      pop\n      pop\n      swap1\n      pop\n      dup6\n      jump\t// out\n        /* \"contracts/betting.sol\":446:848  function instantiateMatch(string calldata _HomeTeam, string calldata _AwayTeam, uint _startTime) external returns (bool) {... */\n    tag_16:\n        /* \"contracts/betting.sol\":561:565  bool */\n      0x00\n        /* \"contracts/betting.sol\":595:605  msg.sender */\n      caller\n        /* \"contracts/betting.sol\":586:605  admin == msg.sender */\n      0xffffffffffffffffffffffffffffffffffffffff\n      and\n        /* \"contracts/betting.sol\":586:591  admin */\n      0x00\n      dup1\n      sload\n      swap1\n      0x0100\n      exp\n      swap1\n      div\n      0xffffffffffffffffffffffffffffffffffffffff\n      and\n        /* \"contracts/betting.sol\":586:605  admin == msg.sender */\n      0xffffffffffffffffffffffffffffffffffffffff\n      and\n      eq\n        /* \"contracts/betting.sol\":578:619  require(admin == msg.sender, \"Not Owner\") */\n      tag_41\n      jumpi\n      mload(0x40)\n      0x08c379a000000000000000000000000000000000000000000000000000000000\n      dup2\n      mstore\n      0x04\n      add\n      tag_42\n      swap1\n      tag_43\n      jump\t// in\n    tag_42:\n      mload(0x40)\n      dup1\n      swap2\n      sub\n      swap1\n      revert\n    tag_41:\n        /* \"contracts/betting.sol\":630:643  uint matchEnd */\n      0x00\n        /* \"contracts/betting.sol\":659:669  95 minutes */\n      0x1644\n        /* \"contracts/betting.sol\":646:656  _startTime */\n      dup4\n        /* \"contracts/betting.sol\":646:669  _startTime + 95 minutes */\n      tag_44\n      swap2\n      swap1\n      tag_45\n      jump\t// in\n    tag_44:\n        /* \"contracts/betting.sol\":630:669  uint matchEnd = _startTime + 95 minutes */\n      swap1\n      pop\n        /* \"contracts/betting.sol\":680:710  Results memory startingResults */\n      0x00\n        /* \"contracts/betting.sol\":713:726  Results(0, 0) */\n      mload(0x40)\n      dup1\n      0x40\n      add\n      0x40\n      mstore\n      dup1\n        /* \"contracts/betting.sol\":721:722  0 */\n      0x00\n        /* \"contracts/betting.sol\":713:726  Results(0, 0) */\n      dup2\n      mstore\n      0x20\n      add\n        /* \"contracts/betting.sol\":724:725  0 */\n      0x00\n        /* \"contracts/betting.sol\":713:726  Results(0, 0) */\n      dup2\n      mstore\n      pop\n        /* \"contracts/betting.sol\":680:726  Results memory startingResults = Results(0, 0) */\n      swap1\n      pop\n        /* \"contracts/betting.sol\":737:745  allMatch */\n      0x01\n        /* \"contracts/betting.sol\":751:817  Match(_HomeTeam, _AwayTeam, _startTime, matchEnd, startingResults) */\n      mload(0x40)\n      dup1\n      0xa0\n      add\n      0x40\n      mstore\n      dup1\n        /* \"contracts/betting.sol\":757:766  _HomeTeam */\n      dup11\n      dup11\n        /* \"contracts/betting.sol\":751:817  Match(_HomeTeam, _AwayTeam, _startTime, matchEnd, startingResults) */\n      dup1\n      dup1\n      0x1f\n      add\n      0x20\n      dup1\n      swap2\n      div\n      mul\n      0x20\n      add\n      mload(0x40)\n      swap1\n      dup2\n      add\n      0x40\n      mstore\n      dup1\n      swap4\n      swap3\n      swap2\n      swap1\n      dup2\n      dup2\n      mstore\n      0x20\n      add\n      dup4\n      dup4\n      dup1\n      dup3\n      dup5\n      calldatacopy\n      0x00\n      dup2\n      dup5\n      add\n      mstore\n      not(0x1f)\n      0x1f\n      dup3\n      add\n      and\n      swap1\n      pop\n      dup1\n      dup4\n      add\n      swap3\n      pop\n      pop\n      pop\n      pop\n      pop\n      pop\n      pop\n      dup2\n      mstore\n      0x20\n      add\n        /* \"contracts/betting.sol\":768:777  _AwayTeam */\n      dup9\n      dup9\n        /* \"contracts/betting.sol\":751:817  Match(_HomeTeam, _AwayTeam, _startTime, matchEnd, startingResults) */\n      dup1\n      dup1\n      0x1f\n      add\n      0x20\n      dup1\n      swap2\n      div\n      mul\n      0x20\n      add\n      mload(0x40)\n      swap1\n      dup2\n      add\n      0x40\n      mstore\n      dup1\n      swap4\n      swap3\n      swap2\n      swap1\n      dup2\n      dup2\n      mstore\n      0x20\n      add\n      dup4\n      dup4\n      dup1\n      dup3\n      dup5\n      calldatacopy\n      0x00\n      dup2\n      dup5\n      add\n      mstore\n      not(0x1f)\n      0x1f\n      dup3\n      add\n      and\n      swap1\n      pop\n      dup1\n      dup4\n      add\n      swap3\n      pop\n      pop\n      pop\n      pop\n      pop\n      pop\n      pop\n      dup2\n      mstore\n      0x20\n      add\n        /* \"contracts/betting.sol\":779:789  _startTime */\n      dup7\n        /* \"contracts/betting.sol\":751:817  Match(_HomeTeam, _AwayTeam, _startTime, matchEnd, startingResults) */\n      dup2\n      mstore\n      0x20\n      add\n        /* \"contracts/betting.sol\":791:799  matchEnd */\n      dup5\n        /* \"contracts/betting.sol\":751:817  Match(_HomeTeam, _AwayTeam, _startTime, matchEnd, startingResults) */\n      dup2\n      mstore\n      0x20\n      add\n        /* \"contracts/betting.sol\":801:816  startingResults */\n      dup4\n        /* \"contracts/betting.sol\":751:817  Match(_HomeTeam, _AwayTeam, _startTime, matchEnd, startingResults) */\n      dup2\n      mstore\n      pop\n        /* \"contracts/betting.sol\":737:818  allMatch.push(Match(_HomeTeam, _AwayTeam, _startTime, matchEnd, startingResults)) */\n      swap1\n      dup1\n      0x01\n      dup2\n      sload\n      add\n      dup1\n      dup3\n      sstore\n      dup1\n      swap2\n      pop\n      pop\n      0x01\n      swap1\n      sub\n      swap1\n      0x00\n      mstore\n      keccak256(0x00, 0x20)\n      swap1\n      0x06\n      mul\n      add\n      0x00\n      swap1\n      swap2\n      swap1\n      swap2\n      swap1\n      swap2\n      pop\n      0x00\n      dup3\n      add\n      mload\n      dup2\n      0x00\n      add\n      swap1\n      dup2\n      tag_47\n      swap2\n      swap1\n      tag_48\n      jump\t// in\n    tag_47:\n      pop\n      0x20\n      dup3\n      add\n      mload\n      dup2\n      0x01\n      add\n      swap1\n      dup2\n      tag_49\n      swap2\n      swap1\n      tag_48\n      jump\t// in\n    tag_49:\n      pop\n      0x40\n      dup3\n      add\n      mload\n      dup2\n      0x02\n      add\n      sstore\n      0x60\n      dup3\n      add\n      mload\n      dup2\n      0x03\n      add\n      sstore\n      0x80\n      dup3\n      add\n      mload\n      dup2\n      0x04\n      add\n      0x00\n      dup3\n      add\n      mload\n      dup2\n      0x00\n      add\n      sstore\n      0x20\n      dup3\n      add\n      mload\n      dup2\n      0x01\n      add\n      sstore\n      pop\n      pop\n      pop\n      pop\n        /* \"contracts/betting.sol\":836:840  true */\n      0x01\n        /* \"contracts/betting.sol\":829:840  return true */\n      swap3\n      pop\n      pop\n      pop\n        /* \"contracts/betting.sol\":446:848  function instantiateMatch(string calldata _HomeTeam, string calldata _AwayTeam, uint _startTime) external returns (bool) {... */\n      swap6\n      swap5\n      pop\n      pop\n      pop\n      pop\n      pop\n      jump\t// out\n        /* \"contracts/betting.sol\":856:1204  function closeMatch(uint epoch, uint _homeScore, uint _aw3ayScore) external {... */\n    tag_22:\n        /* \"contracts/betting.sol\":960:970  msg.sender */\n      caller\n        /* \"contracts/betting.sol\":951:970  admin == msg.sender */\n      0xffffffffffffffffffffffffffffffffffffffff\n      and\n        /* \"contracts/betting.sol\":951:956  admin */\n      0x00\n      dup1\n      sload\n      swap1\n      0x0100\n      exp\n      swap1\n      div\n      0xffffffffffffffffffffffffffffffffffffffff\n      and\n        /* \"contracts/betting.sol\":951:970  admin == msg.sender */\n      0xffffffffffffffffffffffffffffffffffffffff\n      and\n      eq\n        /* \"contracts/betting.sol\":943:984  require(admin == msg.sender, \"Not Owner\") */\n      tag_51\n      jumpi\n      mload(0x40)\n      0x08c379a000000000000000000000000000000000000000000000000000000000\n      dup2\n      mstore\n      0x04\n      add\n      tag_52\n      swap1\n      tag_43\n      jump\t// in\n    tag_52:\n      mload(0x40)\n      dup1\n      swap2\n      sub\n      swap1\n      revert\n    tag_51:\n        /* \"contracts/betting.sol\":995:1011  uint currentTime */\n      0x00\n        /* \"contracts/betting.sol\":1014:1029  block.timestamp */\n      timestamp\n        /* \"contracts/betting.sol\":995:1029  uint currentTime = block.timestamp */\n      swap1\n      pop\n        /* \"contracts/betting.sol\":1075:1086  currentTime */\n      dup1\n        /* \"contracts/betting.sol\":1048:1056  allMatch */\n      0x01\n        /* \"contracts/betting.sol\":1057:1062  epoch */\n      dup6\n        /* \"contracts/betting.sol\":1048:1063  allMatch[epoch] */\n      dup2\n      sload\n      dup2\n      lt\n      tag_53\n      jumpi\n      tag_54\n      tag_55\n      jump\t// in\n    tag_54:\n    tag_53:\n      swap1\n      0x00\n      mstore\n      keccak256(0x00, 0x20)\n      swap1\n      0x06\n      mul\n      add\n        /* \"contracts/betting.sol\":1048:1071  allMatch[epoch].endTime */\n      0x03\n      add\n      sload\n        /* \"contracts/betting.sol\":1048:1086  allMatch[epoch].endTime >= currentTime */\n      lt\n      iszero\n        /* \"contracts/betting.sol\":1040:1108  require(allMatch[epoch].endTime >= currentTime, \"Match is still on\") */\n      tag_57\n      jumpi\n      mload(0x40)\n      0x08c379a000000000000000000000000000000000000000000000000000000000\n      dup2\n      mstore\n      0x04\n      add\n      tag_58\n      swap1\n      tag_59\n      jump\t// in\n    tag_58:\n      mload(0x40)\n      dup1\n      swap2\n      sub\n      swap1\n      revert\n    tag_57:\n        /* \"contracts/betting.sol\":1119:1149  Results memory startingResults */\n      0x00\n        /* \"contracts/betting.sol\":1152:1184  Results(_homeScore, _aw3ayScore) */\n      mload(0x40)\n      dup1\n      0x40\n      add\n      0x40\n      mstore\n      dup1\n        /* \"contracts/betting.sol\":1160:1170  _homeScore */\n      dup6\n        /* \"contracts/betting.sol\":1152:1184  Results(_homeScore, _aw3ayScore) */\n      dup2\n      mstore\n      0x20\n      add\n        /* \"contracts/betting.sol\":1172:1183  _aw3ayScore */\n      dup5\n        /* \"contracts/betting.sol\":1152:1184  Results(_homeScore, _aw3ayScore) */\n      dup2\n      mstore\n      pop\n        /* \"contracts/betting.sol\":1119:1184  Results memory startingResults = Results(_homeScore, _aw3ayScore) */\n      swap1\n      pop\n        /* \"contracts/betting.sol\":932:1204  {... */\n      pop\n      pop\n        /* \"contracts/betting.sol\":856:1204  function closeMatch(uint epoch, uint _homeScore, uint _aw3ayScore) external {... */\n      pop\n      pop\n      pop\n      jump\t// out\n        /* \"contracts/betting.sol\":94:114  address public admin */\n    tag_24:\n      0x00\n      dup1\n      sload\n      swap1\n      0x0100\n      exp\n      swap1\n      div\n      0xffffffffffffffffffffffffffffffffffffffff\n      and\n      dup2\n      jump\t// out\n        /* \"#utility.yul\":88:205   */\n    tag_61:\n        /* \"#utility.yul\":197:198   */\n      0x00\n        /* \"#utility.yul\":194:195   */\n      dup1\n        /* \"#utility.yul\":187:199   */\n      revert\n        /* \"#utility.yul\":211:328   */\n    tag_62:\n        /* \"#utility.yul\":320:321   */\n      0x00\n        /* \"#utility.yul\":317:318   */\n      dup1\n        /* \"#utility.yul\":310:322   */\n      revert\n        /* \"#utility.yul\":334:411   */\n    tag_63:\n        /* \"#utility.yul\":371:378   */\n      0x00\n        /* \"#utility.yul\":400:405   */\n      dup2\n        /* \"#utility.yul\":389:405   */\n      swap1\n      pop\n        /* \"#utility.yul\":334:411   */\n      swap2\n      swap1\n      pop\n      jump\t// out\n        /* \"#utility.yul\":417:539   */\n    tag_64:\n        /* \"#utility.yul\":490:514   */\n      tag_111\n        /* \"#utility.yul\":508:513   */\n      dup2\n        /* \"#utility.yul\":490:514   */\n      tag_63\n      jump\t// in\n    tag_111:\n        /* \"#utility.yul\":483:488   */\n      dup2\n        /* \"#utility.yul\":480:515   */\n      eq\n        /* \"#utility.yul\":470:533   */\n      tag_112\n      jumpi\n        /* \"#utility.yul\":529:530   */\n      0x00\n        /* \"#utility.yul\":526:527   */\n      dup1\n        /* \"#utility.yul\":519:531   */\n      revert\n        /* \"#utility.yul\":470:533   */\n    tag_112:\n        /* \"#utility.yul\":417:539   */\n      pop\n      jump\t// out\n        /* \"#utility.yul\":545:684   */\n    tag_65:\n        /* \"#utility.yul\":591:596   */\n      0x00\n        /* \"#utility.yul\":629:635   */\n      dup2\n        /* \"#utility.yul\":616:636   */\n      calldataload\n        /* \"#utility.yul\":607:636   */\n      swap1\n      pop\n        /* \"#utility.yul\":645:678   */\n      tag_114\n        /* \"#utility.yul\":672:677   */\n      dup2\n        /* \"#utility.yul\":645:678   */\n      tag_64\n      jump\t// in\n    tag_114:\n        /* \"#utility.yul\":545:684   */\n      swap3\n      swap2\n      pop\n      pop\n      jump\t// out\n        /* \"#utility.yul\":690:1019   */\n    tag_9:\n        /* \"#utility.yul\":749:755   */\n      0x00\n        /* \"#utility.yul\":798:800   */\n      0x20\n        /* \"#utility.yul\":786:795   */\n      dup3\n        /* \"#utility.yul\":777:784   */\n      dup5\n        /* \"#utility.yul\":773:796   */\n      sub\n        /* \"#utility.yul\":769:801   */\n      slt\n        /* \"#utility.yul\":766:885   */\n      iszero\n      tag_116\n      jumpi\n        /* \"#utility.yul\":804:883   */\n      tag_117\n      tag_61\n      jump\t// in\n    tag_117:\n        /* \"#utility.yul\":766:885   */\n    tag_116:\n        /* \"#utility.yul\":924:925   */\n      0x00\n        /* \"#utility.yul\":949:1002   */\n      tag_118\n        /* \"#utility.yul\":994:1001   */\n      dup5\n        /* \"#utility.yul\":985:991   */\n      dup3\n        /* \"#utility.yul\":974:983   */\n      dup6\n        /* \"#utility.yul\":970:992   */\n      add\n        /* \"#utility.yul\":949:1002   */\n      tag_65\n      jump\t// in\n    tag_118:\n        /* \"#utility.yul\":939:1002   */\n      swap2\n      pop\n        /* \"#utility.yul\":895:1012   */\n      pop\n        /* \"#utility.yul\":690:1019   */\n      swap3\n      swap2\n      pop\n      pop\n      jump\t// out\n        /* \"#utility.yul\":1025:1124   */\n    tag_66:\n        /* \"#utility.yul\":1077:1083   */\n      0x00\n        /* \"#utility.yul\":1111:1116   */\n      dup2\n        /* \"#utility.yul\":1105:1117   */\n      mload\n        /* \"#utility.yul\":1095:1117   */\n      swap1\n      pop\n        /* \"#utility.yul\":1025:1124   */\n      swap2\n      swap1\n      pop\n      jump\t// out\n        /* \"#utility.yul\":1130:1299   */\n    tag_67:\n        /* \"#utility.yul\":1214:1225   */\n      0x00\n        /* \"#utility.yul\":1248:1254   */\n      dup3\n        /* \"#utility.yul\":1243:1246   */\n      dup3\n        /* \"#utility.yul\":1236:1255   */\n      mstore\n        /* \"#utility.yul\":1288:1292   */\n      0x20\n        /* \"#utility.yul\":1283:1286   */\n      dup3\n        /* \"#utility.yul\":1279:1293   */\n      add\n        /* \"#utility.yul\":1264:1293   */\n      swap1\n      pop\n        /* \"#utility.yul\":1130:1299   */\n      swap3\n      swap2\n      pop\n      pop\n      jump\t// out\n        /* \"#utility.yul\":1305:1551   */\n    tag_68:\n        /* \"#utility.yul\":1386:1387   */\n      0x00\n        /* \"#utility.yul\":1396:1509   */\n    tag_122:\n        /* \"#utility.yul\":1410:1416   */\n      dup4\n        /* \"#utility.yul\":1407:1408   */\n      dup2\n        /* \"#utility.yul\":1404:1417   */\n      lt\n        /* \"#utility.yul\":1396:1509   */\n      iszero\n      tag_124\n      jumpi\n        /* \"#utility.yul\":1495:1496   */\n      dup1\n        /* \"#utility.yul\":1490:1493   */\n      dup3\n        /* \"#utility.yul\":1486:1497   */\n      add\n        /* \"#utility.yul\":1480:1498   */\n      mload\n        /* \"#utility.yul\":1476:1477   */\n      dup2\n        /* \"#utility.yul\":1471:1474   */\n      dup5\n        /* \"#utility.yul\":1467:1478   */\n      add\n        /* \"#utility.yul\":1460:1499   */\n      mstore\n        /* \"#utility.yul\":1432:1434   */\n      0x20\n        /* \"#utility.yul\":1429:1430   */\n      dup2\n        /* \"#utility.yul\":1425:1435   */\n      add\n        /* \"#utility.yul\":1420:1435   */\n      swap1\n      pop\n        /* \"#utility.yul\":1396:1509   */\n      jump(tag_122)\n    tag_124:\n        /* \"#utility.yul\":1543:1544   */\n      0x00\n        /* \"#utility.yul\":1534:1540   */\n      dup5\n        /* \"#utility.yul\":1529:1532   */\n      dup5\n        /* \"#utility.yul\":1525:1541   */\n      add\n        /* \"#utility.yul\":1518:1545   */\n      mstore\n        /* \"#utility.yul\":1367:1551   */\n      pop\n        /* \"#utility.yul\":1305:1551   */\n      pop\n      pop\n      pop\n      jump\t// out\n        /* \"#utility.yul\":1557:1659   */\n    tag_69:\n        /* \"#utility.yul\":1598:1604   */\n      0x00\n        /* \"#utility.yul\":1649:1651   */\n      0x1f\n        /* \"#utility.yul\":1645:1652   */\n      not\n        /* \"#utility.yul\":1640:1642   */\n      0x1f\n        /* \"#utility.yul\":1633:1638   */\n      dup4\n        /* \"#utility.yul\":1629:1643   */\n      add\n        /* \"#utility.yul\":1625:1653   */\n      and\n        /* \"#utility.yul\":1615:1653   */\n      swap1\n      pop\n        /* \"#utility.yul\":1557:1659   */\n      swap2\n      swap1\n      pop\n      jump\t// out\n        /* \"#utility.yul\":1665:2042   */\n    tag_70:\n        /* \"#utility.yul\":1753:1756   */\n      0x00\n        /* \"#utility.yul\":1781:1820   */\n      tag_127\n        /* \"#utility.yul\":1814:1819   */\n      dup3\n        /* \"#utility.yul\":1781:1820   */\n      tag_66\n      jump\t// in\n    tag_127:\n        /* \"#utility.yul\":1836:1907   */\n      tag_128\n        /* \"#utility.yul\":1900:1906   */\n      dup2\n        /* \"#utility.yul\":1895:1898   */\n      dup6\n        /* \"#utility.yul\":1836:1907   */\n      tag_67\n      jump\t// in\n    tag_128:\n        /* \"#utility.yul\":1829:1907   */\n      swap4\n      pop\n        /* \"#utility.yul\":1916:1981   */\n      tag_129\n        /* \"#utility.yul\":1974:1980   */\n      dup2\n        /* \"#utility.yul\":1969:1972   */\n      dup6\n        /* \"#utility.yul\":1962:1966   */\n      0x20\n        /* \"#utility.yul\":1955:1960   */\n      dup7\n        /* \"#utility.yul\":1951:1967   */\n      add\n        /* \"#utility.yul\":1916:1981   */\n      tag_68\n      jump\t// in\n    tag_129:\n        /* \"#utility.yul\":2006:2035   */\n      tag_130\n        /* \"#utility.yul\":2028:2034   */\n      dup2\n        /* \"#utility.yul\":2006:2035   */\n      tag_69\n      jump\t// in\n    tag_130:\n        /* \"#utility.yul\":2001:2004   */\n      dup5\n        /* \"#utility.yul\":1997:2036   */\n      add\n        /* \"#utility.yul\":1990:2036   */\n      swap2\n      pop\n        /* \"#utility.yul\":1757:2042   */\n      pop\n        /* \"#utility.yul\":1665:2042   */\n      swap3\n      swap2\n      pop\n      pop\n      jump\t// out\n        /* \"#utility.yul\":2048:2166   */\n    tag_71:\n        /* \"#utility.yul\":2135:2159   */\n      tag_132\n        /* \"#utility.yul\":2153:2158   */\n      dup2\n        /* \"#utility.yul\":2135:2159   */\n      tag_63\n      jump\t// in\n    tag_132:\n        /* \"#utility.yul\":2130:2133   */\n      dup3\n        /* \"#utility.yul\":2123:2160   */\n      mstore\n        /* \"#utility.yul\":2048:2166   */\n      pop\n      pop\n      jump\t// out\n        /* \"#utility.yul\":2172:2280   */\n    tag_72:\n        /* \"#utility.yul\":2249:2273   */\n      tag_134\n        /* \"#utility.yul\":2267:2272   */\n      dup2\n        /* \"#utility.yul\":2249:2273   */\n      tag_63\n      jump\t// in\n    tag_134:\n        /* \"#utility.yul\":2244:2247   */\n      dup3\n        /* \"#utility.yul\":2237:2274   */\n      mstore\n        /* \"#utility.yul\":2172:2280   */\n      pop\n      pop\n      jump\t// out\n        /* \"#utility.yul\":2354:2867   */\n    tag_73:\n        /* \"#utility.yul\":2495:2499   */\n      0x40\n        /* \"#utility.yul\":2490:2493   */\n      dup3\n        /* \"#utility.yul\":2486:2500   */\n      add\n        /* \"#utility.yul\":2588:2592   */\n      0x00\n        /* \"#utility.yul\":2581:2586   */\n      dup3\n        /* \"#utility.yul\":2577:2593   */\n      add\n        /* \"#utility.yul\":2571:2594   */\n      mload\n        /* \"#utility.yul\":2607:2670   */\n      tag_136\n        /* \"#utility.yul\":2664:2668   */\n      0x00\n        /* \"#utility.yul\":2659:2662   */\n      dup6\n        /* \"#utility.yul\":2655:2669   */\n      add\n        /* \"#utility.yul\":2641:2653   */\n      dup3\n        /* \"#utility.yul\":2607:2670   */\n      tag_72\n      jump\t// in\n    tag_136:\n        /* \"#utility.yul\":2510:2680   */\n      pop\n        /* \"#utility.yul\":2768:2772   */\n      0x20\n        /* \"#utility.yul\":2761:2766   */\n      dup3\n        /* \"#utility.yul\":2757:2773   */\n      add\n        /* \"#utility.yul\":2751:2774   */\n      mload\n        /* \"#utility.yul\":2787:2850   */\n      tag_137\n        /* \"#utility.yul\":2844:2848   */\n      0x20\n        /* \"#utility.yul\":2839:2842   */\n      dup6\n        /* \"#utility.yul\":2835:2849   */\n      add\n        /* \"#utility.yul\":2821:2833   */\n      dup3\n        /* \"#utility.yul\":2787:2850   */\n      tag_72\n      jump\t// in\n    tag_137:\n        /* \"#utility.yul\":2690:2860   */\n      pop\n        /* \"#utility.yul\":2464:2867   */\n      pop\n        /* \"#utility.yul\":2354:2867   */\n      pop\n      pop\n      jump\t// out\n        /* \"#utility.yul\":2873:3807   */\n    tag_12:\n        /* \"#utility.yul\":3162:3166   */\n      0x00\n        /* \"#utility.yul\":3200:3203   */\n      0xc0\n        /* \"#utility.yul\":3189:3198   */\n      dup3\n        /* \"#utility.yul\":3185:3204   */\n      add\n        /* \"#utility.yul\":3177:3204   */\n      swap1\n      pop\n        /* \"#utility.yul\":3250:3259   */\n      dup2\n        /* \"#utility.yul\":3244:3248   */\n      dup2\n        /* \"#utility.yul\":3240:3260   */\n      sub\n        /* \"#utility.yul\":3236:3237   */\n      0x00\n        /* \"#utility.yul\":3225:3234   */\n      dup4\n        /* \"#utility.yul\":3221:3238   */\n      add\n        /* \"#utility.yul\":3214:3261   */\n      mstore\n        /* \"#utility.yul\":3278:3356   */\n      tag_139\n        /* \"#utility.yul\":3351:3355   */\n      dup2\n        /* \"#utility.yul\":3342:3348   */\n      dup9\n        /* \"#utility.yul\":3278:3356   */\n      tag_70\n      jump\t// in\n    tag_139:\n        /* \"#utility.yul\":3270:3356   */\n      swap1\n      pop\n        /* \"#utility.yul\":3403:3412   */\n      dup2\n        /* \"#utility.yul\":3397:3401   */\n      dup2\n        /* \"#utility.yul\":3393:3413   */\n      sub\n        /* \"#utility.yul\":3388:3390   */\n      0x20\n        /* \"#utility.yul\":3377:3386   */\n      dup4\n        /* \"#utility.yul\":3373:3391   */\n      add\n        /* \"#utility.yul\":3366:3414   */\n      mstore\n        /* \"#utility.yul\":3431:3509   */\n      tag_140\n        /* \"#utility.yul\":3504:3508   */\n      dup2\n        /* \"#utility.yul\":3495:3501   */\n      dup8\n        /* \"#utility.yul\":3431:3509   */\n      tag_70\n      jump\t// in\n    tag_140:\n        /* \"#utility.yul\":3423:3509   */\n      swap1\n      pop\n        /* \"#utility.yul\":3519:3591   */\n      tag_141\n        /* \"#utility.yul\":3587:3589   */\n      0x40\n        /* \"#utility.yul\":3576:3585   */\n      dup4\n        /* \"#utility.yul\":3572:3590   */\n      add\n        /* \"#utility.yul\":3563:3569   */\n      dup7\n        /* \"#utility.yul\":3519:3591   */\n      tag_71\n      jump\t// in\n    tag_141:\n        /* \"#utility.yul\":3601:3673   */\n      tag_142\n        /* \"#utility.yul\":3669:3671   */\n      0x60\n        /* \"#utility.yul\":3658:3667   */\n      dup4\n        /* \"#utility.yul\":3654:3672   */\n      add\n        /* \"#utility.yul\":3645:3651   */\n      dup6\n        /* \"#utility.yul\":3601:3673   */\n      tag_71\n      jump\t// in\n    tag_142:\n        /* \"#utility.yul\":3683:3800   */\n      tag_143\n        /* \"#utility.yul\":3795:3798   */\n      0x80\n        /* \"#utility.yul\":3784:3793   */\n      dup4\n        /* \"#utility.yul\":3780:3799   */\n      add\n        /* \"#utility.yul\":3771:3777   */\n      dup5\n        /* \"#utility.yul\":3683:3800   */\n      tag_73\n      jump\t// in\n    tag_143:\n        /* \"#utility.yul\":2873:3807   */\n      swap7\n      swap6\n      pop\n      pop\n      pop\n      pop\n      pop\n      pop\n      jump\t// out\n        /* \"#utility.yul\":3813:3930   */\n    tag_74:\n        /* \"#utility.yul\":3922:3923   */\n      0x00\n        /* \"#utility.yul\":3919:3920   */\n      dup1\n        /* \"#utility.yul\":3912:3924   */\n      revert\n        /* \"#utility.yul\":3936:4053   */\n    tag_75:\n        /* \"#utility.yul\":4045:4046   */\n      0x00\n        /* \"#utility.yul\":4042:4043   */\n      dup1\n        /* \"#utility.yul\":4035:4047   */\n      revert\n        /* \"#utility.yul\":4059:4176   */\n    tag_76:\n        /* \"#utility.yul\":4168:4169   */\n      0x00\n        /* \"#utility.yul\":4165:4166   */\n      dup1\n        /* \"#utility.yul\":4158:4170   */\n      revert\n        /* \"#utility.yul\":4196:4749   */\n    tag_77:\n        /* \"#utility.yul\":4254:4262   */\n      0x00\n        /* \"#utility.yul\":4264:4270   */\n      dup1\n        /* \"#utility.yul\":4314:4317   */\n      dup4\n        /* \"#utility.yul\":4307:4311   */\n      0x1f\n        /* \"#utility.yul\":4299:4305   */\n      dup5\n        /* \"#utility.yul\":4295:4312   */\n      add\n        /* \"#utility.yul\":4291:4318   */\n      slt\n        /* \"#utility.yul\":4281:4403   */\n      tag_148\n      jumpi\n        /* \"#utility.yul\":4322:4401   */\n      tag_149\n      tag_74\n      jump\t// in\n    tag_149:\n        /* \"#utility.yul\":4281:4403   */\n    tag_148:\n        /* \"#utility.yul\":4435:4441   */\n      dup3\n        /* \"#utility.yul\":4422:4442   */\n      calldataload\n        /* \"#utility.yul\":4412:4442   */\n      swap1\n      pop\n        /* \"#utility.yul\":4465:4483   */\n      0xffffffffffffffff\n        /* \"#utility.yul\":4457:4463   */\n      dup2\n        /* \"#utility.yul\":4454:4484   */\n      gt\n        /* \"#utility.yul\":4451:4568   */\n      iszero\n      tag_150\n      jumpi\n        /* \"#utility.yul\":4487:4566   */\n      tag_151\n      tag_75\n      jump\t// in\n    tag_151:\n        /* \"#utility.yul\":4451:4568   */\n    tag_150:\n        /* \"#utility.yul\":4601:4605   */\n      0x20\n        /* \"#utility.yul\":4593:4599   */\n      dup4\n        /* \"#utility.yul\":4589:4606   */\n      add\n        /* \"#utility.yul\":4577:4606   */\n      swap2\n      pop\n        /* \"#utility.yul\":4655:4658   */\n      dup4\n        /* \"#utility.yul\":4647:4651   */\n      0x01\n        /* \"#utility.yul\":4639:4645   */\n      dup3\n        /* \"#utility.yul\":4635:4652   */\n      mul\n        /* \"#utility.yul\":4625:4633   */\n      dup4\n        /* \"#utility.yul\":4621:4653   */\n      add\n        /* \"#utility.yul\":4618:4659   */\n      gt\n        /* \"#utility.yul\":4615:4743   */\n      iszero\n      tag_152\n      jumpi\n        /* \"#utility.yul\":4662:4741   */\n      tag_153\n      tag_76\n      jump\t// in\n    tag_153:\n        /* \"#utility.yul\":4615:4743   */\n    tag_152:\n        /* \"#utility.yul\":4196:4749   */\n      swap3\n      pop\n      swap3\n      swap1\n      pop\n      jump\t// out\n        /* \"#utility.yul\":4755:5774   */\n    tag_15:\n        /* \"#utility.yul\":4856:4862   */\n      0x00\n        /* \"#utility.yul\":4864:4870   */\n      dup1\n        /* \"#utility.yul\":4872:4878   */\n      0x00\n        /* \"#utility.yul\":4880:4886   */\n      dup1\n        /* \"#utility.yul\":4888:4894   */\n      0x00\n        /* \"#utility.yul\":4937:4939   */\n      0x60\n        /* \"#utility.yul\":4925:4934   */\n      dup7\n        /* \"#utility.yul\":4916:4923   */\n      dup9\n        /* \"#utility.yul\":4912:4935   */\n      sub\n        /* \"#utility.yul\":4908:4940   */\n      slt\n        /* \"#utility.yul\":4905:5024   */\n      iszero\n      tag_155\n      jumpi\n        /* \"#utility.yul\":4943:5022   */\n      tag_156\n      tag_61\n      jump\t// in\n    tag_156:\n        /* \"#utility.yul\":4905:5024   */\n    tag_155:\n        /* \"#utility.yul\":5091:5092   */\n      0x00\n        /* \"#utility.yul\":5080:5089   */\n      dup7\n        /* \"#utility.yul\":5076:5093   */\n      add\n        /* \"#utility.yul\":5063:5094   */\n      calldataload\n        /* \"#utility.yul\":5121:5139   */\n      0xffffffffffffffff\n        /* \"#utility.yul\":5113:5119   */\n      dup2\n        /* \"#utility.yul\":5110:5140   */\n      gt\n        /* \"#utility.yul\":5107:5224   */\n      iszero\n      tag_157\n      jumpi\n        /* \"#utility.yul\":5143:5222   */\n      tag_158\n      tag_62\n      jump\t// in\n    tag_158:\n        /* \"#utility.yul\":5107:5224   */\n    tag_157:\n        /* \"#utility.yul\":5256:5321   */\n      tag_159\n        /* \"#utility.yul\":5313:5320   */\n      dup9\n        /* \"#utility.yul\":5304:5310   */\n      dup3\n        /* \"#utility.yul\":5293:5302   */\n      dup10\n        /* \"#utility.yul\":5289:5311   */\n      add\n        /* \"#utility.yul\":5256:5321   */\n      tag_77\n      jump\t// in\n    tag_159:\n        /* \"#utility.yul\":5238:5321   */\n      swap6\n      pop\n      swap6\n      pop\n        /* \"#utility.yul\":5034:5331   */\n      pop\n        /* \"#utility.yul\":5398:5400   */\n      0x20\n        /* \"#utility.yul\":5387:5396   */\n      dup7\n        /* \"#utility.yul\":5383:5401   */\n      add\n        /* \"#utility.yul\":5370:5402   */\n      calldataload\n        /* \"#utility.yul\":5429:5447   */\n      0xffffffffffffffff\n        /* \"#utility.yul\":5421:5427   */\n      dup2\n        /* \"#utility.yul\":5418:5448   */\n      gt\n        /* \"#utility.yul\":5415:5532   */\n      iszero\n      tag_160\n      jumpi\n        /* \"#utility.yul\":5451:5530   */\n      tag_161\n      tag_62\n      jump\t// in\n    tag_161:\n        /* \"#utility.yul\":5415:5532   */\n    tag_160:\n        /* \"#utility.yul\":5564:5629   */\n      tag_162\n        /* \"#utility.yul\":5621:5628   */\n      dup9\n        /* \"#utility.yul\":5612:5618   */\n      dup3\n        /* \"#utility.yul\":5601:5610   */\n      dup10\n        /* \"#utility.yul\":5597:5619   */\n      add\n        /* \"#utility.yul\":5564:5629   */\n      tag_77\n      jump\t// in\n    tag_162:\n        /* \"#utility.yul\":5546:5629   */\n      swap4\n      pop\n      swap4\n      pop\n        /* \"#utility.yul\":5341:5639   */\n      pop\n        /* \"#utility.yul\":5678:5680   */\n      0x40\n        /* \"#utility.yul\":5704:5757   */\n      tag_163\n        /* \"#utility.yul\":5749:5756   */\n      dup9\n        /* \"#utility.yul\":5740:5746   */\n      dup3\n        /* \"#utility.yul\":5729:5738   */\n      dup10\n        /* \"#utility.yul\":5725:5747   */\n      add\n        /* \"#utility.yul\":5704:5757   */\n      tag_65\n      jump\t// in\n    tag_163:\n        /* \"#utility.yul\":5694:5757   */\n      swap2\n      pop\n        /* \"#utility.yul\":5649:5767   */\n      pop\n        /* \"#utility.yul\":4755:5774   */\n      swap3\n      swap6\n      pop\n      swap3\n      swap6\n      swap1\n      swap4\n      pop\n      jump\t// out\n        /* \"#utility.yul\":5780:5870   */\n    tag_78:\n        /* \"#utility.yul\":5814:5821   */\n      0x00\n        /* \"#utility.yul\":5857:5862   */\n      dup2\n        /* \"#utility.yul\":5850:5863   */\n      iszero\n        /* \"#utility.yul\":5843:5864   */\n      iszero\n        /* \"#utility.yul\":5832:5864   */\n      swap1\n      pop\n        /* \"#utility.yul\":5780:5870   */\n      swap2\n      swap1\n      pop\n      jump\t// out\n        /* \"#utility.yul\":5876:5985   */\n    tag_79:\n        /* \"#utility.yul\":5957:5978   */\n      tag_166\n        /* \"#utility.yul\":5972:5977   */\n      dup2\n        /* \"#utility.yul\":5957:5978   */\n      tag_78\n      jump\t// in\n    tag_166:\n        /* \"#utility.yul\":5952:5955   */\n      dup3\n        /* \"#utility.yul\":5945:5979   */\n      mstore\n        /* \"#utility.yul\":5876:5985   */\n      pop\n      pop\n      jump\t// out\n        /* \"#utility.yul\":5991:6201   */\n    tag_18:\n        /* \"#utility.yul\":6078:6082   */\n      0x00\n        /* \"#utility.yul\":6116:6118   */\n      0x20\n        /* \"#utility.yul\":6105:6114   */\n      dup3\n        /* \"#utility.yul\":6101:6119   */\n      add\n        /* \"#utility.yul\":6093:6119   */\n      swap1\n      pop\n        /* \"#utility.yul\":6129:6194   */\n      tag_168\n        /* \"#utility.yul\":6191:6192   */\n      0x00\n        /* \"#utility.yul\":6180:6189   */\n      dup4\n        /* \"#utility.yul\":6176:6193   */\n      add\n        /* \"#utility.yul\":6167:6173   */\n      dup5\n        /* \"#utility.yul\":6129:6194   */\n      tag_79\n      jump\t// in\n    tag_168:\n        /* \"#utility.yul\":5991:6201   */\n      swap3\n      swap2\n      pop\n      pop\n      jump\t// out\n        /* \"#utility.yul\":6207:6826   */\n    tag_21:\n        /* \"#utility.yul\":6284:6290   */\n      0x00\n        /* \"#utility.yul\":6292:6298   */\n      dup1\n        /* \"#utility.yul\":6300:6306   */\n      0x00\n        /* \"#utility.yul\":6349:6351   */\n      0x60\n        /* \"#utility.yul\":6337:6346   */\n      dup5\n        /* \"#utility.yul\":6328:6335   */\n      dup7\n        /* \"#utility.yul\":6324:6347   */\n      sub\n        /* \"#utility.yul\":6320:6352   */\n      slt\n        /* \"#utility.yul\":6317:6436   */\n      iszero\n      tag_170\n      jumpi\n        /* \"#utility.yul\":6355:6434   */\n      tag_171\n      tag_61\n      jump\t// in\n    tag_171:\n        /* \"#utility.yul\":6317:6436   */\n    tag_170:\n        /* \"#utility.yul\":6475:6476   */\n      0x00\n        /* \"#utility.yul\":6500:6553   */\n      tag_172\n        /* \"#utility.yul\":6545:6552   */\n      dup7\n        /* \"#utility.yul\":6536:6542   */\n      dup3\n        /* \"#utility.yul\":6525:6534   */\n      dup8\n        /* \"#utility.yul\":6521:6543   */\n      add\n        /* \"#utility.yul\":6500:6553   */\n      tag_65\n      jump\t// in\n    tag_172:\n        /* \"#utility.yul\":6490:6553   */\n      swap4\n      pop\n        /* \"#utility.yul\":6446:6563   */\n      pop\n        /* \"#utility.yul\":6602:6604   */\n      0x20\n        /* \"#utility.yul\":6628:6681   */\n      tag_173\n        /* \"#utility.yul\":6673:6680   */\n      dup7\n        /* \"#utility.yul\":6664:6670   */\n      dup3\n        /* \"#utility.yul\":6653:6662   */\n      dup8\n        /* \"#utility.yul\":6649:6671   */\n      add\n        /* \"#utility.yul\":6628:6681   */\n      tag_65\n      jump\t// in\n    tag_173:\n        /* \"#utility.yul\":6618:6681   */\n      swap3\n      pop\n        /* \"#utility.yul\":6573:6691   */\n      pop\n        /* \"#utility.yul\":6730:6732   */\n      0x40\n        /* \"#utility.yul\":6756:6809   */\n      tag_174\n        /* \"#utility.yul\":6801:6808   */\n      dup7\n        /* \"#utility.yul\":6792:6798   */\n      dup3\n        /* \"#utility.yul\":6781:6790   */\n      dup8\n        /* \"#utility.yul\":6777:6799   */\n      add\n        /* \"#utility.yul\":6756:6809   */\n      tag_65\n      jump\t// in\n    tag_174:\n        /* \"#utility.yul\":6746:6809   */\n      swap2\n      pop\n        /* \"#utility.yul\":6701:6819   */\n      pop\n        /* \"#utility.yul\":6207:6826   */\n      swap3\n      pop\n      swap3\n      pop\n      swap3\n      jump\t// out\n        /* \"#utility.yul\":6832:6958   */\n    tag_80:\n        /* \"#utility.yul\":6869:6876   */\n      0x00\n        /* \"#utility.yul\":6909:6951   */\n      0xffffffffffffffffffffffffffffffffffffffff\n        /* \"#utility.yul\":6902:6907   */\n      dup3\n        /* \"#utility.yul\":6898:6952   */\n      and\n        /* \"#utility.yul\":6887:6952   */\n      swap1\n      pop\n        /* \"#utility.yul\":6832:6958   */\n      swap2\n      swap1\n      pop\n      jump\t// out\n        /* \"#utility.yul\":6964:7060   */\n    tag_81:\n        /* \"#utility.yul\":7001:7008   */\n      0x00\n        /* \"#utility.yul\":7030:7054   */\n      tag_177\n        /* \"#utility.yul\":7048:7053   */\n      dup3\n        /* \"#utility.yul\":7030:7054   */\n      tag_80\n      jump\t// in\n    tag_177:\n        /* \"#utility.yul\":7019:7054   */\n      swap1\n      pop\n        /* \"#utility.yul\":6964:7060   */\n      swap2\n      swap1\n      pop\n      jump\t// out\n        /* \"#utility.yul\":7066:7184   */\n    tag_82:\n        /* \"#utility.yul\":7153:7177   */\n      tag_179\n        /* \"#utility.yul\":7171:7176   */\n      dup2\n        /* \"#utility.yul\":7153:7177   */\n      tag_81\n      jump\t// in\n    tag_179:\n        /* \"#utility.yul\":7148:7151   */\n      dup3\n        /* \"#utility.yul\":7141:7178   */\n      mstore\n        /* \"#utility.yul\":7066:7184   */\n      pop\n      pop\n      jump\t// out\n        /* \"#utility.yul\":7190:7412   */\n    tag_26:\n        /* \"#utility.yul\":7283:7287   */\n      0x00\n        /* \"#utility.yul\":7321:7323   */\n      0x20\n        /* \"#utility.yul\":7310:7319   */\n      dup3\n        /* \"#utility.yul\":7306:7324   */\n      add\n        /* \"#utility.yul\":7298:7324   */\n      swap1\n      pop\n        /* \"#utility.yul\":7334:7405   */\n      tag_181\n        /* \"#utility.yul\":7402:7403   */\n      0x00\n        /* \"#utility.yul\":7391:7400   */\n      dup4\n        /* \"#utility.yul\":7387:7404   */\n      add\n        /* \"#utility.yul\":7378:7384   */\n      dup5\n        /* \"#utility.yul\":7334:7405   */\n      tag_82\n      jump\t// in\n    tag_181:\n        /* \"#utility.yul\":7190:7412   */\n      swap3\n      swap2\n      pop\n      pop\n      jump\t// out\n        /* \"#utility.yul\":7418:7598   */\n    tag_83:\n        /* \"#utility.yul\":7466:7543   */\n      0x4e487b7100000000000000000000000000000000000000000000000000000000\n        /* \"#utility.yul\":7463:7464   */\n      0x00\n        /* \"#utility.yul\":7456:7544   */\n      mstore\n        /* \"#utility.yul\":7563:7567   */\n      0x22\n        /* \"#utility.yul\":7560:7561   */\n      0x04\n        /* \"#utility.yul\":7553:7568   */\n      mstore\n        /* \"#utility.yul\":7587:7591   */\n      0x24\n        /* \"#utility.yul\":7584:7585   */\n      0x00\n        /* \"#utility.yul\":7577:7592   */\n      revert\n        /* \"#utility.yul\":7604:7924   */\n    tag_30:\n        /* \"#utility.yul\":7648:7654   */\n      0x00\n        /* \"#utility.yul\":7685:7686   */\n      0x02\n        /* \"#utility.yul\":7679:7683   */\n      dup3\n        /* \"#utility.yul\":7675:7687   */\n      div\n        /* \"#utility.yul\":7665:7687   */\n      swap1\n      pop\n        /* \"#utility.yul\":7732:7733   */\n      0x01\n        /* \"#utility.yul\":7726:7730   */\n      dup3\n        /* \"#utility.yul\":7722:7734   */\n      and\n        /* \"#utility.yul\":7753:7771   */\n      dup1\n        /* \"#utility.yul\":7743:7824   */\n      tag_184\n      jumpi\n        /* \"#utility.yul\":7809:7813   */\n      0x7f\n        /* \"#utility.yul\":7801:7807   */\n      dup3\n        /* \"#utility.yul\":7797:7814   */\n      and\n        /* \"#utility.yul\":7787:7814   */\n      swap2\n      pop\n        /* \"#utility.yul\":7743:7824   */\n    tag_184:\n        /* \"#utility.yul\":7871:7873   */\n      0x20\n        /* \"#utility.yul\":7863:7869   */\n      dup3\n        /* \"#utility.yul\":7860:7874   */\n      lt\n        /* \"#utility.yul\":7840:7858   */\n      dup2\n        /* \"#utility.yul\":7837:7875   */\n      sub\n        /* \"#utility.yul\":7834:7918   */\n      tag_185\n      jumpi\n        /* \"#utility.yul\":7890:7908   */\n      tag_186\n      tag_83\n      jump\t// in\n    tag_186:\n        /* \"#utility.yul\":7834:7918   */\n    tag_185:\n        /* \"#utility.yul\":7655:7924   */\n      pop\n        /* \"#utility.yul\":7604:7924   */\n      swap2\n      swap1\n      pop\n      jump\t// out\n        /* \"#utility.yul\":7930:8089   */\n    tag_84:\n        /* \"#utility.yul\":8070:8081   */\n      0x4e6f74204f776e65720000000000000000000000000000000000000000000000\n        /* \"#utility.yul\":8066:8067   */\n      0x00\n        /* \"#utility.yul\":8058:8064   */\n      dup3\n        /* \"#utility.yul\":8054:8068   */\n      add\n        /* \"#utility.yul\":8047:8082   */\n      mstore\n        /* \"#utility.yul\":7930:8089   */\n      pop\n      jump\t// out\n        /* \"#utility.yul\":8095:8460   */\n    tag_85:\n        /* \"#utility.yul\":8237:8240   */\n      0x00\n        /* \"#utility.yul\":8258:8324   */\n      tag_189\n        /* \"#utility.yul\":8322:8323   */\n      0x09\n        /* \"#utility.yul\":8317:8320   */\n      dup4\n        /* \"#utility.yul\":8258:8324   */\n      tag_67\n      jump\t// in\n    tag_189:\n        /* \"#utility.yul\":8251:8324   */\n      swap2\n      pop\n        /* \"#utility.yul\":8333:8426   */\n      tag_190\n        /* \"#utility.yul\":8422:8425   */\n      dup3\n        /* \"#utility.yul\":8333:8426   */\n      tag_84\n      jump\t// in\n    tag_190:\n        /* \"#utility.yul\":8451:8453   */\n      0x20\n        /* \"#utility.yul\":8446:8449   */\n      dup3\n        /* \"#utility.yul\":8442:8454   */\n      add\n        /* \"#utility.yul\":8435:8454   */\n      swap1\n      pop\n        /* \"#utility.yul\":8095:8460   */\n      swap2\n      swap1\n      pop\n      jump\t// out\n        /* \"#utility.yul\":8466:8885   */\n    tag_43:\n        /* \"#utility.yul\":8632:8636   */\n      0x00\n        /* \"#utility.yul\":8670:8672   */\n      0x20\n        /* \"#utility.yul\":8659:8668   */\n      dup3\n        /* \"#utility.yul\":8655:8673   */\n      add\n        /* \"#utility.yul\":8647:8673   */\n      swap1\n      pop\n        /* \"#utility.yul\":8719:8728   */\n      dup2\n        /* \"#utility.yul\":8713:8717   */\n      dup2\n        /* \"#utility.yul\":8709:8729   */\n      sub\n        /* \"#utility.yul\":8705:8706   */\n      0x00\n        /* \"#utility.yul\":8694:8703   */\n      dup4\n        /* \"#utility.yul\":8690:8707   */\n      add\n        /* \"#utility.yul\":8683:8730   */\n      mstore\n        /* \"#utility.yul\":8747:8878   */\n      tag_192\n        /* \"#utility.yul\":8873:8877   */\n      dup2\n        /* \"#utility.yul\":8747:8878   */\n      tag_85\n      jump\t// in\n    tag_192:\n        /* \"#utility.yul\":8739:8878   */\n      swap1\n      pop\n        /* \"#utility.yul\":8466:8885   */\n      swap2\n      swap1\n      pop\n      jump\t// out\n        /* \"#utility.yul\":8891:9071   */\n    tag_86:\n        /* \"#utility.yul\":8939:9016   */\n      0x4e487b7100000000000000000000000000000000000000000000000000000000\n        /* \"#utility.yul\":8936:8937   */\n      0x00\n        /* \"#utility.yul\":8929:9017   */\n      mstore\n        /* \"#utility.yul\":9036:9040   */\n      0x11\n        /* \"#utility.yul\":9033:9034   */\n      0x04\n        /* \"#utility.yul\":9026:9041   */\n      mstore\n        /* \"#utility.yul\":9060:9064   */\n      0x24\n        /* \"#utility.yul\":9057:9058   */\n      0x00\n        /* \"#utility.yul\":9050:9065   */\n      revert\n        /* \"#utility.yul\":9077:9268   */\n    tag_45:\n        /* \"#utility.yul\":9117:9120   */\n      0x00\n        /* \"#utility.yul\":9136:9156   */\n      tag_195\n        /* \"#utility.yul\":9154:9155   */\n      dup3\n        /* \"#utility.yul\":9136:9156   */\n      tag_63\n      jump\t// in\n    tag_195:\n        /* \"#utility.yul\":9131:9156   */\n      swap2\n      pop\n        /* \"#utility.yul\":9170:9190   */\n      tag_196\n        /* \"#utility.yul\":9188:9189   */\n      dup4\n        /* \"#utility.yul\":9170:9190   */\n      tag_63\n      jump\t// in\n    tag_196:\n        /* \"#utility.yul\":9165:9190   */\n      swap3\n      pop\n        /* \"#utility.yul\":9213:9214   */\n      dup3\n        /* \"#utility.yul\":9210:9211   */\n      dup3\n        /* \"#utility.yul\":9206:9215   */\n      add\n        /* \"#utility.yul\":9199:9215   */\n      swap1\n      pop\n        /* \"#utility.yul\":9234:9237   */\n      dup1\n        /* \"#utility.yul\":9231:9232   */\n      dup3\n        /* \"#utility.yul\":9228:9238   */\n      gt\n        /* \"#utility.yul\":9225:9261   */\n      iszero\n      tag_197\n      jumpi\n        /* \"#utility.yul\":9241:9259   */\n      tag_198\n      tag_86\n      jump\t// in\n    tag_198:\n        /* \"#utility.yul\":9225:9261   */\n    tag_197:\n        /* \"#utility.yul\":9077:9268   */\n      swap3\n      swap2\n      pop\n      pop\n      jump\t// out\n        /* \"#utility.yul\":9274:9454   */\n    tag_87:\n        /* \"#utility.yul\":9322:9399   */\n      0x4e487b7100000000000000000000000000000000000000000000000000000000\n        /* \"#utility.yul\":9319:9320   */\n      0x00\n        /* \"#utility.yul\":9312:9400   */\n      mstore\n        /* \"#utility.yul\":9419:9423   */\n      0x41\n        /* \"#utility.yul\":9416:9417   */\n      0x04\n        /* \"#utility.yul\":9409:9424   */\n      mstore\n        /* \"#utility.yul\":9443:9447   */\n      0x24\n        /* \"#utility.yul\":9440:9441   */\n      0x00\n        /* \"#utility.yul\":9433:9448   */\n      revert\n        /* \"#utility.yul\":9460:9601   */\n    tag_88:\n        /* \"#utility.yul\":9509:9513   */\n      0x00\n        /* \"#utility.yul\":9532:9535   */\n      dup2\n        /* \"#utility.yul\":9524:9535   */\n      swap1\n      pop\n        /* \"#utility.yul\":9555:9558   */\n      dup2\n        /* \"#utility.yul\":9552:9553   */\n      0x00\n        /* \"#utility.yul\":9545:9559   */\n      mstore\n        /* \"#utility.yul\":9589:9593   */\n      0x20\n        /* \"#utility.yul\":9586:9587   */\n      0x00\n        /* \"#utility.yul\":9576:9594   */\n      keccak256\n        /* \"#utility.yul\":9568:9594   */\n      swap1\n      pop\n        /* \"#utility.yul\":9460:9601   */\n      swap2\n      swap1\n      pop\n      jump\t// out\n        /* \"#utility.yul\":9607:9700   */\n    tag_89:\n        /* \"#utility.yul\":9644:9650   */\n      0x00\n        /* \"#utility.yul\":9691:9693   */\n      0x20\n        /* \"#utility.yul\":9686:9688   */\n      0x1f\n        /* \"#utility.yul\":9679:9684   */\n      dup4\n        /* \"#utility.yul\":9675:9689   */\n      add\n        /* \"#utility.yul\":9671:9694   */\n      div\n        /* \"#utility.yul\":9661:9694   */\n      swap1\n      pop\n        /* \"#utility.yul\":9607:9700   */\n      swap2\n      swap1\n      pop\n      jump\t// out\n        /* \"#utility.yul\":9706:9813   */\n    tag_90:\n        /* \"#utility.yul\":9750:9758   */\n      0x00\n        /* \"#utility.yul\":9800:9805   */\n      dup3\n        /* \"#utility.yul\":9794:9798   */\n      dup3\n        /* \"#utility.yul\":9790:9806   */\n      shl\n        /* \"#utility.yul\":9769:9806   */\n      swap1\n      pop\n        /* \"#utility.yul\":9706:9813   */\n      swap3\n      swap2\n      pop\n      pop\n      jump\t// out\n        /* \"#utility.yul\":9819:10212   */\n    tag_91:\n        /* \"#utility.yul\":9888:9894   */\n      0x00\n        /* \"#utility.yul\":9938:9939   */\n      0x08\n        /* \"#utility.yul\":9926:9936   */\n      dup4\n        /* \"#utility.yul\":9922:9940   */\n      mul\n        /* \"#utility.yul\":9961:10058   */\n      tag_204\n        /* \"#utility.yul\":9991:10057   */\n      0xffffffffffffffffffffffffffffffffffffffffffffffffffffffffffffffff\n        /* \"#utility.yul\":9980:9989   */\n      dup3\n        /* \"#utility.yul\":9961:10058   */\n      tag_90\n      jump\t// in\n    tag_204:\n        /* \"#utility.yul\":10079:10118   */\n      tag_205\n        /* \"#utility.yul\":10109:10117   */\n      dup7\n        /* \"#utility.yul\":10098:10107   */\n      dup4\n        /* \"#utility.yul\":10079:10118   */\n      tag_90\n      jump\t// in\n    tag_205:\n        /* \"#utility.yul\":10067:10118   */\n      swap6\n      pop\n        /* \"#utility.yul\":10151:10155   */\n      dup1\n        /* \"#utility.yul\":10147:10156   */\n      not\n        /* \"#utility.yul\":10140:10145   */\n      dup5\n        /* \"#utility.yul\":10136:10157   */\n      and\n        /* \"#utility.yul\":10127:10157   */\n      swap4\n      pop\n        /* \"#utility.yul\":10200:10204   */\n      dup1\n        /* \"#utility.yul\":10190:10198   */\n      dup7\n        /* \"#utility.yul\":10186:10205   */\n      and\n        /* \"#utility.yul\":10179:10184   */\n      dup5\n        /* \"#utility.yul\":10176:10206   */\n      or\n        /* \"#utility.yul\":10166:10206   */\n      swap3\n      pop\n        /* \"#utility.yul\":9895:10212   */\n      pop\n      pop\n        /* \"#utility.yul\":9819:10212   */\n      swap4\n      swap3\n      pop\n      pop\n      pop\n      jump\t// out\n        /* \"#utility.yul\":10218:10278   */\n    tag_92:\n        /* \"#utility.yul\":10246:10249   */\n      0x00\n        /* \"#utility.yul\":10267:10272   */\n      dup2\n        /* \"#utility.yul\":10260:10272   */\n      swap1\n      pop\n        /* \"#utility.yul\":10218:10278   */\n      swap2\n      swap1\n      pop\n      jump\t// out\n        /* \"#utility.yul\":10284:10426   */\n    tag_93:\n        /* \"#utility.yul\":10334:10343   */\n      0x00\n        /* \"#utility.yul\":10367:10420   */\n      tag_208\n        /* \"#utility.yul\":10385:10419   */\n      tag_209\n        /* \"#utility.yul\":10394:10418   */\n      tag_210\n        /* \"#utility.yul\":10412:10417   */\n      dup5\n        /* \"#utility.yul\":10394:10418   */\n      tag_63\n      jump\t// in\n    tag_210:\n        /* \"#utility.yul\":10385:10419   */\n      tag_92\n      jump\t// in\n    tag_209:\n        /* \"#utility.yul\":10367:10420   */\n      tag_63\n      jump\t// in\n    tag_208:\n        /* \"#utility.yul\":10354:10420   */\n      swap1\n      pop\n        /* \"#utility.yul\":10284:10426   */\n      swap2\n      swap1\n      pop\n      jump\t// out\n        /* \"#utility.yul\":10432:10507   */\n    tag_94:\n        /* \"#utility.yul\":10475:10478   */\n      0x00\n        /* \"#utility.yul\":10496:10501   */\n      dup2\n        /* \"#utility.yul\":10489:10501   */\n      swap1\n      pop\n        /* \"#utility.yul\":10432:10507   */\n      swap2\n      swap1\n      pop\n      jump\t// out\n        /* \"#utility.yul\":10513:10782   */\n    tag_95:\n        /* \"#utility.yul\":10623:10662   */\n      tag_213\n        /* \"#utility.yul\":10654:10661   */\n      dup4\n        /* \"#utility.yul\":10623:10662   */\n      tag_93\n      jump\t// in\n    tag_213:\n        /* \"#utility.yul\":10684:10775   */\n      tag_214\n        /* \"#utility.yul\":10733:10774   */\n      tag_215\n        /* \"#utility.yul\":10757:10773   */\n      dup3\n        /* \"#utility.yul\":10733:10774   */\n      tag_94\n      jump\t// in\n    tag_215:\n        /* \"#utility.yul\":10725:10731   */\n      dup5\n        /* \"#utility.yul\":10718:10722   */\n      dup5\n        /* \"#utility.yul\":10712:10723   */\n      sload\n        /* \"#utility.yul\":10684:10775   */\n      tag_91\n      jump\t// in\n    tag_214:\n        /* \"#utility.yul\":10678:10682   */\n      dup3\n        /* \"#utility.yul\":10671:10776   */\n      sstore\n        /* \"#utility.yul\":10589:10782   */\n      pop\n        /* \"#utility.yul\":10513:10782   */\n      pop\n      pop\n      pop\n      jump\t// out\n        /* \"#utility.yul\":10788:10861   */\n    tag_96:\n        /* \"#utility.yul\":10833:10836   */\n      0x00\n        /* \"#utility.yul\":10788:10861   */\n      swap1\n      jump\t// out\n        /* \"#utility.yul\":10867:11056   */\n    tag_97:\n        /* \"#utility.yul\":10944:10976   */\n      tag_218\n      tag_96\n      jump\t// in\n    tag_218:\n        /* \"#utility.yul\":10985:11050   */\n      tag_219\n        /* \"#utility.yul\":11043:11049   */\n      dup2\n        /* \"#utility.yul\":11035:11041   */\n      dup5\n        /* \"#utility.yul\":11029:11033   */\n      dup5\n        /* \"#utility.yul\":10985:11050   */\n      tag_95\n      jump\t// in\n    tag_219:\n        /* \"#utility.yul\":10920:11056   */\n      pop\n        /* \"#utility.yul\":10867:11056   */\n      pop\n      pop\n      jump\t// out\n        /* \"#utility.yul\":11062:11248   */\n    tag_98:\n        /* \"#utility.yul\":11122:11242   */\n    tag_221:\n        /* \"#utility.yul\":11139:11142   */\n      dup2\n        /* \"#utility.yul\":11132:11137   */\n      dup2\n        /* \"#utility.yul\":11129:11143   */\n      lt\n        /* \"#utility.yul\":11122:11242   */\n      iszero\n      tag_223\n      jumpi\n        /* \"#utility.yul\":11193:11232   */\n      tag_224\n        /* \"#utility.yul\":11230:11231   */\n      0x00\n        /* \"#utility.yul\":11223:11228   */\n      dup3\n        /* \"#utility.yul\":11193:11232   */\n      tag_97\n      jump\t// in\n    tag_224:\n        /* \"#utility.yul\":11166:11167   */\n      0x01\n        /* \"#utility.yul\":11159:11164   */\n      dup2\n        /* \"#utility.yul\":11155:11168   */\n      add\n        /* \"#utility.yul\":11146:11168   */\n      swap1\n      pop\n        /* \"#utility.yul\":11122:11242   */\n      jump(tag_221)\n    tag_223:\n        /* \"#utility.yul\":11062:11248   */\n      pop\n      pop\n      jump\t// out\n        /* \"#utility.yul\":11254:11797   */\n    tag_99:\n        /* \"#utility.yul\":11355:11357   */\n      0x1f\n        /* \"#utility.yul\":11350:11353   */\n      dup3\n        /* \"#utility.yul\":11347:11358   */\n      gt\n        /* \"#utility.yul\":11344:11790   */\n      iszero\n      tag_226\n      jumpi\n        /* \"#utility.yul\":11389:11427   */\n      tag_227\n        /* \"#utility.yul\":11421:11426   */\n      dup2\n        /* \"#utility.yul\":11389:11427   */\n      tag_88\n      jump\t// in\n    tag_227:\n        /* \"#utility.yul\":11473:11502   */\n      tag_228\n        /* \"#utility.yul\":11491:11501   */\n      dup5\n        /* \"#utility.yul\":11473:11502   */\n      tag_89\n      jump\t// in\n    tag_228:\n        /* \"#utility.yul\":11463:11471   */\n      dup2\n        /* \"#utility.yul\":11459:11503   */\n      add\n        /* \"#utility.yul\":11656:11658   */\n      0x20\n        /* \"#utility.yul\":11644:11654   */\n      dup6\n        /* \"#utility.yul\":11641:11659   */\n      lt\n        /* \"#utility.yul\":11638:11687   */\n      iszero\n      tag_229\n      jumpi\n        /* \"#utility.yul\":11677:11685   */\n      dup2\n        /* \"#utility.yul\":11662:11685   */\n      swap1\n      pop\n        /* \"#utility.yul\":11638:11687   */\n    tag_229:\n        /* \"#utility.yul\":11700:11780   */\n      tag_230\n        /* \"#utility.yul\":11756:11778   */\n      tag_231\n        /* \"#utility.yul\":11774:11777   */\n      dup6\n        /* \"#utility.yul\":11756:11778   */\n      tag_89\n      jump\t// in\n    tag_231:\n        /* \"#utility.yul\":11746:11754   */\n      dup4\n        /* \"#utility.yul\":11742:11779   */\n      add\n        /* \"#utility.yul\":11729:11740   */\n      dup3\n        /* \"#utility.yul\":11700:11780   */\n      tag_98\n      jump\t// in\n    tag_230:\n        /* \"#utility.yul\":11359:11790   */\n      pop\n      pop\n        /* \"#utility.yul\":11344:11790   */\n    tag_226:\n        /* \"#utility.yul\":11254:11797   */\n      pop\n      pop\n      pop\n      jump\t// out\n        /* \"#utility.yul\":11803:11920   */\n    tag_100:\n        /* \"#utility.yul\":11857:11865   */\n      0x00\n        /* \"#utility.yul\":11907:11912   */\n      dup3\n        /* \"#utility.yul\":11901:11905   */\n      dup3\n        /* \"#utility.yul\":11897:11913   */\n      shr\n        /* \"#utility.yul\":11876:11913   */\n      swap1\n      pop\n        /* \"#utility.yul\":11803:11920   */\n      swap3\n      swap2\n      pop\n      pop\n      jump\t// out\n        /* \"#utility.yul\":11926:12095   */\n    tag_101:\n        /* \"#utility.yul\":11970:11976   */\n      0x00\n        /* \"#utility.yul\":12003:12054   */\n      tag_234\n        /* \"#utility.yul\":12051:12052   */\n      0x00\n        /* \"#utility.yul\":12047:12053   */\n      not\n        /* \"#utility.yul\":12039:12044   */\n      dup5\n        /* \"#utility.yul\":12036:12037   */\n      0x08\n        /* \"#utility.yul\":12032:12045   */\n      mul\n        /* \"#utility.yul\":12003:12054   */\n      tag_100\n      jump\t// in\n    tag_234:\n        /* \"#utility.yul\":11999:12055   */\n      not\n        /* \"#utility.yul\":12084:12088   */\n      dup1\n        /* \"#utility.yul\":12078:12082   */\n      dup4\n        /* \"#utility.yul\":12074:12089   */\n      and\n        /* \"#utility.yul\":12064:12089   */\n      swap2\n      pop\n        /* \"#utility.yul\":11977:12095   */\n      pop\n        /* \"#utility.yul\":11926:12095   */\n      swap3\n      swap2\n      pop\n      pop\n      jump\t// out\n        /* \"#utility.yul\":12100:12395   */\n    tag_102:\n        /* \"#utility.yul\":12176:12180   */\n      0x00\n        /* \"#utility.yul\":12322:12351   */\n      tag_236\n        /* \"#utility.yul\":12347:12350   */\n      dup4\n        /* \"#utility.yul\":12341:12345   */\n      dup4\n        /* \"#utility.yul\":12322:12351   */\n      tag_101\n      jump\t// in\n    tag_236:\n        /* \"#utility.yul\":12314:12351   */\n      swap2\n      pop\n        /* \"#utility.yul\":12384:12387   */\n      dup3\n        /* \"#utility.yul\":12381:12382   */\n      0x02\n        /* \"#utility.yul\":12377:12388   */\n      mul\n        /* \"#utility.yul\":12371:12375   */\n      dup3\n        /* \"#utility.yul\":12368:12389   */\n      or\n        /* \"#utility.yul\":12360:12389   */\n      swap1\n      pop\n        /* \"#utility.yul\":12100:12395   */\n      swap3\n      swap2\n      pop\n      pop\n      jump\t// out\n        /* \"#utility.yul\":12400:13795   */\n    tag_48:\n        /* \"#utility.yul\":12517:12554   */\n      tag_238\n        /* \"#utility.yul\":12550:12553   */\n      dup3\n        /* \"#utility.yul\":12517:12554   */\n      tag_66\n      jump\t// in\n    tag_238:\n        /* \"#utility.yul\":12619:12637   */\n      0xffffffffffffffff\n        /* \"#utility.yul\":12611:12617   */\n      dup2\n        /* \"#utility.yul\":12608:12638   */\n      gt\n        /* \"#utility.yul\":12605:12661   */\n      iszero\n      tag_239\n      jumpi\n        /* \"#utility.yul\":12641:12659   */\n      tag_240\n      tag_87\n      jump\t// in\n    tag_240:\n        /* \"#utility.yul\":12605:12661   */\n    tag_239:\n        /* \"#utility.yul\":12685:12723   */\n      tag_241\n        /* \"#utility.yul\":12717:12721   */\n      dup3\n        /* \"#utility.yul\":12711:12722   */\n      sload\n        /* \"#utility.yul\":12685:12723   */\n      tag_30\n      jump\t// in\n    tag_241:\n        /* \"#utility.yul\":12770:12837   */\n      tag_242\n        /* \"#utility.yul\":12830:12836   */\n      dup3\n        /* \"#utility.yul\":12822:12828   */\n      dup3\n        /* \"#utility.yul\":12816:12820   */\n      dup6\n        /* \"#utility.yul\":12770:12837   */\n      tag_99\n      jump\t// in\n    tag_242:\n        /* \"#utility.yul\":12864:12865   */\n      0x00\n        /* \"#utility.yul\":12888:12892   */\n      0x20\n        /* \"#utility.yul\":12875:12892   */\n      swap1\n      pop\n        /* \"#utility.yul\":12920:12922   */\n      0x1f\n        /* \"#utility.yul\":12912:12918   */\n      dup4\n        /* \"#utility.yul\":12909:12923   */\n      gt\n        /* \"#utility.yul\":12937:12938   */\n      0x01\n        /* \"#utility.yul\":12932:13550   */\n      dup2\n      eq\n      tag_244\n      jumpi\n        /* \"#utility.yul\":13594:13595   */\n      0x00\n        /* \"#utility.yul\":13611:13617   */\n      dup5\n        /* \"#utility.yul\":13608:13685   */\n      iszero\n      tag_245\n      jumpi\n        /* \"#utility.yul\":13660:13669   */\n      dup3\n        /* \"#utility.yul\":13655:13658   */\n      dup8\n        /* \"#utility.yul\":13651:13670   */\n      add\n        /* \"#utility.yul\":13645:13671   */\n      mload\n        /* \"#utility.yul\":13636:13671   */\n      swap1\n      pop\n        /* \"#utility.yul\":13608:13685   */\n    tag_245:\n        /* \"#utility.yul\":13711:13778   */\n      tag_246\n        /* \"#utility.yul\":13771:13777   */\n      dup6\n        /* \"#utility.yul\":13764:13769   */\n      dup3\n        /* \"#utility.yul\":13711:13778   */\n      tag_102\n      jump\t// in\n    tag_246:\n        /* \"#utility.yul\":13705:13709   */\n      dup7\n        /* \"#utility.yul\":13698:13779   */\n      sstore\n        /* \"#utility.yul\":13567:13789   */\n      pop\n        /* \"#utility.yul\":12902:13789   */\n      jump(tag_243)\n        /* \"#utility.yul\":12932:13550   */\n    tag_244:\n        /* \"#utility.yul\":12984:12988   */\n      0x1f\n        /* \"#utility.yul\":12980:12989   */\n      not\n        /* \"#utility.yul\":12972:12978   */\n      dup5\n        /* \"#utility.yul\":12968:12990   */\n      and\n        /* \"#utility.yul\":13018:13055   */\n      tag_247\n        /* \"#utility.yul\":13050:13054   */\n      dup7\n        /* \"#utility.yul\":13018:13055   */\n      tag_88\n      jump\t// in\n    tag_247:\n        /* \"#utility.yul\":13077:13078   */\n      0x00\n        /* \"#utility.yul\":13091:13299   */\n    tag_248:\n        /* \"#utility.yul\":13105:13112   */\n      dup3\n        /* \"#utility.yul\":13102:13103   */\n      dup2\n        /* \"#utility.yul\":13099:13113   */\n      lt\n        /* \"#utility.yul\":13091:13299   */\n      iszero\n      tag_250\n      jumpi\n        /* \"#utility.yul\":13184:13193   */\n      dup5\n        /* \"#utility.yul\":13179:13182   */\n      dup10\n        /* \"#utility.yul\":13175:13194   */\n      add\n        /* \"#utility.yul\":13169:13195   */\n      mload\n        /* \"#utility.yul\":13161:13167   */\n      dup3\n        /* \"#utility.yul\":13154:13196   */\n      sstore\n        /* \"#utility.yul\":13235:13236   */\n      0x01\n        /* \"#utility.yul\":13227:13233   */\n      dup3\n        /* \"#utility.yul\":13223:13237   */\n      add\n        /* \"#utility.yul\":13213:13237   */\n      swap2\n      pop\n        /* \"#utility.yul\":13282:13284   */\n      0x20\n        /* \"#utility.yul\":13271:13280   */\n      dup6\n        /* \"#utility.yul\":13267:13285   */\n      add\n        /* \"#utility.yul\":13254:13285   */\n      swap5\n      pop\n        /* \"#utility.yul\":13128:13132   */\n      0x20\n        /* \"#utility.yul\":13125:13126   */\n      dup2\n        /* \"#utility.yul\":13121:13133   */\n      add\n        /* \"#utility.yul\":13116:13133   */\n      swap1\n      pop\n        /* \"#utility.yul\":13091:13299   */\n      jump(tag_248)\n    tag_250:\n        /* \"#utility.yul\":13327:13333   */\n      dup7\n        /* \"#utility.yul\":13318:13325   */\n      dup4\n        /* \"#utility.yul\":13315:13334   */\n      lt\n        /* \"#utility.yul\":13312:13491   */\n      iszero\n      tag_251\n      jumpi\n        /* \"#utility.yul\":13385:13394   */\n      dup5\n        /* \"#utility.yul\":13380:13383   */\n      dup10\n        /* \"#utility.yul\":13376:13395   */\n      add\n        /* \"#utility.yul\":13370:13396   */\n      mload\n        /* \"#utility.yul\":13428:13476   */\n      tag_252\n        /* \"#utility.yul\":13470:13474   */\n      0x1f\n        /* \"#utility.yul\":13462:13468   */\n      dup10\n        /* \"#utility.yul\":13458:13475   */\n      and\n        /* \"#utility.yul\":13447:13456   */\n      dup3\n        /* \"#utility.yul\":13428:13476   */\n      tag_101\n      jump\t// in\n    tag_252:\n        /* \"#utility.yul\":13420:13426   */\n      dup4\n        /* \"#utility.yul\":13413:13477   */\n      sstore\n        /* \"#utility.yul\":13335:13491   */\n      pop\n        /* \"#utility.yul\":13312:13491   */\n    tag_251:\n        /* \"#utility.yul\":13537:13538   */\n      0x01\n        /* \"#utility.yul\":13533:13534   */\n      0x02\n        /* \"#utility.yul\":13525:13531   */\n      dup9\n        /* \"#utility.yul\":13521:13535   */\n      mul\n        /* \"#utility.yul\":13517:13539   */\n      add\n        /* \"#utility.yul\":13511:13515   */\n      dup9\n        /* \"#utility.yul\":13504:13540   */\n      sstore\n        /* \"#utility.yul\":12939:13550   */\n      pop\n      pop\n      pop\n        /* \"#utility.yul\":12902:13789   */\n    tag_243:\n      pop\n        /* \"#utility.yul\":12492:13795   */\n      pop\n      pop\n      pop\n        /* \"#utility.yul\":12400:13795   */\n      pop\n      pop\n      jump\t// out\n        /* \"#utility.yul\":13801:13981   */\n    tag_55:\n        /* \"#utility.yul\":13849:13926   */\n      0x4e487b7100000000000000000000000000000000000000000000000000000000\n        /* \"#utility.yul\":13846:13847   */\n      0x00\n        /* \"#utility.yul\":13839:13927   */\n      mstore\n        /* \"#utility.yul\":13946:13950   */\n      0x32\n        /* \"#utility.yul\":13943:13944   */\n      0x04\n        /* \"#utility.yul\":13936:13951   */\n      mstore\n        /* \"#utility.yul\":13970:13974   */\n      0x24\n        /* \"#utility.yul\":13967:13968   */\n      0x00\n        /* \"#utility.yul\":13960:13975   */\n      revert\n        /* \"#utility.yul\":13987:14154   */\n    tag_103:\n        /* \"#utility.yul\":14127:14146   */\n      0x4d61746368206973207374696c6c206f6e000000000000000000000000000000\n        /* \"#utility.yul\":14123:14124   */\n      0x00\n        /* \"#utility.yul\":14115:14121   */\n      dup3\n        /* \"#utility.yul\":14111:14125   */\n      add\n        /* \"#utility.yul\":14104:14147   */\n      mstore\n        /* \"#utility.yul\":13987:14154   */\n      pop\n      jump\t// out\n        /* \"#utility.yul\":14160:14526   */\n    tag_104:\n        /* \"#utility.yul\":14302:14305   */\n      0x00\n        /* \"#utility.yul\":14323:14390   */\n      tag_256\n        /* \"#utility.yul\":14387:14389   */\n      0x11\n        /* \"#utility.yul\":14382:14385   */\n      dup4\n        /* \"#utility.yul\":14323:14390   */\n      tag_67\n      jump\t// in\n    tag_256:\n        /* \"#utility.yul\":14316:14390   */\n      swap2\n      pop\n        /* \"#utility.yul\":14399:14492   */\n      tag_257\n        /* \"#utility.yul\":14488:14491   */\n      dup3\n        /* \"#utility.yul\":14399:14492   */\n      tag_103\n      jump\t// in\n    tag_257:\n        /* \"#utility.yul\":14517:14519   */\n      0x20\n        /* \"#utility.yul\":14512:14515   */\n      dup3\n        /* \"#utility.yul\":14508:14520   */\n      add\n        /* \"#utility.yul\":14501:14520   */\n      swap1\n      pop\n        /* \"#utility.yul\":14160:14526   */\n      swap2\n      swap1\n      pop\n      jump\t// out\n        /* \"#utility.yul\":14532:14951   */\n    tag_59:\n        /* \"#utility.yul\":14698:14702   */\n      0x00\n        /* \"#utility.yul\":14736:14738   */\n      0x20\n        /* \"#utility.yul\":14725:14734   */\n      dup3\n        /* \"#utility.yul\":14721:14739   */\n      add\n        /* \"#utility.yul\":14713:14739   */\n      swap1\n      pop\n        /* \"#utility.yul\":14785:14794   */\n      dup2\n        /* \"#utility.yul\":14779:14783   */\n      dup2\n        /* \"#utility.yul\":14775:14795   */\n      sub\n        /* \"#utility.yul\":14771:14772   */\n      0x00\n        /* \"#utility.yul\":14760:14769   */\n      dup4\n        /* \"#utility.yul\":14756:14773   */\n      add\n        /* \"#utility.yul\":14749:14796   */\n      mstore\n        /* \"#utility.yul\":14813:14944   */\n      tag_259\n        /* \"#utility.yul\":14939:14943   */\n      dup2\n        /* \"#utility.yul\":14813:14944   */\n      tag_104\n      jump\t// in\n    tag_259:\n        /* \"#utility.yul\":14805:14944   */\n      swap1\n      pop\n        /* \"#utility.yul\":14532:14951   */\n      swap2\n      swap1\n      pop\n      jump\t// out\n\n    auxdata: 0xa2646970667358221220e8a14909b4fe1ceef6ccc3978cba9cc02fda962e2051c4d163fe93e1e331baad64736f6c63430008110033\n}\n",
				"bytecode": {
					"linkReferences": {},
					"object": "608060405234801561001057600080fd5b50336000806101000a81548173ffffffffffffffffffffffffffffffffffffffff021916908373ffffffffffffffffffffffffffffffffffffffff160217905550610de0806100606000396000f3fe608060405234801561001057600080fd5b506004361061004c5760003560e01c8063b2edb39f14610051578063bc9e6e2c14610085578063ec7361a8146100b5578063f851a440146100d1575b600080fd5b61006b600480360381019061006691906105e9565b6100ef565b60405161007c9594939291906106f3565b60405180910390f35b61009f600480360381019061009a91906107b9565b610263565b6040516100ac9190610869565b60405180910390f35b6100cf60048036038101906100ca9190610884565b61046a565b005b6100d9610585565b6040516100e69190610918565b60405180910390f35b600181815481106100ff57600080fd5b906000526020600020906006020160009150905080600001805461012290610962565b80601f016020809104026020016040519081016040528092919081815260200182805461014e90610962565b801561019b5780601f106101705761010080835404028352916020019161019b565b820191906000526020600020905b81548152906001019060200180831161017e57829003601f168201915b5050505050908060010180546101b090610962565b80601f01602080910402602001604051908101604052809291908181526020018280546101dc90610962565b80156102295780601f106101fe57610100808354040283529160200191610229565b820191906000526020600020905b81548152906001019060200180831161020c57829003601f168201915b5050505050908060020154908060030154908060040160405180604001604052908160008201548152602001600182015481525050905085565b60003373ffffffffffffffffffffffffffffffffffffffff1660008054906101000a900473ffffffffffffffffffffffffffffffffffffffff1673ffffffffffffffffffffffffffffffffffffffff16146102f3576040517f08c379a00000000000000000000000000000000000000000000000000000000081526004016102ea906109df565b60405180910390fd5b6000611644836103039190610a2e565b905060006040518060400160405280600081526020016000815250905060016040518060a001604052808a8a8080601f016020809104026020016040519081016040528093929190818152602001838380828437600081840152601f19601f82011690508083019250505050505050815260200188888080601f016020809104026020016040519081016040528093929190818152602001838380828437600081840152601f19601f820116905080830192505050505050508152602001868152602001848152602001838152509080600181540180825580915050600190039060005260206000209060060201600090919091909150600082015181600001908161040f9190610c3d565b5060208201518160010190816104259190610c3d565b50604082015181600201556060820151816003015560808201518160040160008201518160000155602082015181600101555050505060019250505095945050505050565b3373ffffffffffffffffffffffffffffffffffffffff1660008054906101000a900473ffffffffffffffffffffffffffffffffffffffff1673ffffffffffffffffffffffffffffffffffffffff16146104f8576040517f08c379a00000000000000000000000000000000000000000000000000000000081526004016104ef906109df565b60405180910390fd5b6000429050806001858154811061051257610511610d0f565b5b9060005260206000209060060201600301541015610565576040517f08c379a000000000000000000000000000000000000000000000000000000000815260040161055c90610d8a565b60405180910390fd5b600060405180604001604052808581526020018481525090505050505050565b60008054906101000a900473ffffffffffffffffffffffffffffffffffffffff1681565b600080fd5b600080fd5b6000819050919050565b6105c6816105b3565b81146105d157600080fd5b50565b6000813590506105e3816105bd565b92915050565b6000602082840312156105ff576105fe6105a9565b5b600061060d848285016105d4565b91505092915050565b600081519050919050565b600082825260208201905092915050565b60005b83811015610650578082015181840152602081019050610635565b60008484015250505050565b6000601f19601f8301169050919050565b600061067882610616565b6106828185610621565b9350610692818560208601610632565b61069b8161065c565b840191505092915050565b6106af816105b3565b82525050565b6106be816105b3565b82525050565b6040820160008201516106da60008501826106b5565b5060208201516106ed60208501826106b5565b50505050565b600060c082019050818103600083015261070d818861066d565b90508181036020830152610721818761066d565b905061073060408301866106a6565b61073d60608301856106a6565b61074a60808301846106c4565b9695505050505050565b600080fd5b600080fd5b600080fd5b60008083601f84011261077957610778610754565b5b8235905067ffffffffffffffff81111561079657610795610759565b5b6020830191508360018202830111156107b2576107b161075e565b5b9250929050565b6000806000806000606086880312156107d5576107d46105a9565b5b600086013567ffffffffffffffff8111156107f3576107f26105ae565b5b6107ff88828901610763565b9550955050602086013567ffffffffffffffff811115610822576108216105ae565b5b61082e88828901610763565b93509350506040610841888289016105d4565b9150509295509295909350565b60008115159050919050565b6108638161084e565b82525050565b600060208201905061087e600083018461085a565b92915050565b60008060006060848603121561089d5761089c6105a9565b5b60006108ab868287016105d4565b93505060206108bc868287016105d4565b92505060406108cd868287016105d4565b9150509250925092565b600073ffffffffffffffffffffffffffffffffffffffff82169050919050565b6000610902826108d7565b9050919050565b610912816108f7565b82525050565b600060208201905061092d6000830184610909565b92915050565b7f4e487b7100000000000000000000000000000000000000000000000000000000600052602260045260246000fd5b6000600282049050600182168061097a57607f821691505b60208210810361098d5761098c610933565b5b50919050565b7f4e6f74204f776e65720000000000000000000000000000000000000000000000600082015250565b60006109c9600983610621565b91506109d482610993565b602082019050919050565b600060208201905081810360008301526109f8816109bc565b9050919050565b7f4e487b7100000000000000000000000000000000000000000000000000000000600052601160045260246000fd5b6000610a39826105b3565b9150610a44836105b3565b9250828201905080821115610a5c57610a5b6109ff565b5b92915050565b7f4e487b7100000000000000000000000000000000000000000000000000000000600052604160045260246000fd5b60008190508160005260206000209050919050565b60006020601f8301049050919050565b600082821b905092915050565b600060088302610af37fffffffffffffffffffffffffffffffffffffffffffffffffffffffffffffffff82610ab6565b610afd8683610ab6565b95508019841693508086168417925050509392505050565b6000819050919050565b6000610b3a610b35610b30846105b3565b610b15565b6105b3565b9050919050565b6000819050919050565b610b5483610b1f565b610b68610b6082610b41565b848454610ac3565b825550505050565b600090565b610b7d610b70565b610b88818484610b4b565b505050565b5b81811015610bac57610ba1600082610b75565b600181019050610b8e565b5050565b601f821115610bf157610bc281610a91565b610bcb84610aa6565b81016020851015610bda578190505b610bee610be685610aa6565b830182610b8d565b50505b505050565b600082821c905092915050565b6000610c1460001984600802610bf6565b1980831691505092915050565b6000610c2d8383610c03565b9150826002028217905092915050565b610c4682610616565b67ffffffffffffffff811115610c5f57610c5e610a62565b5b610c698254610962565b610c74828285610bb0565b600060209050601f831160018114610ca75760008415610c95578287015190505b610c9f8582610c21565b865550610d07565b601f198416610cb586610a91565b60005b82811015610cdd57848901518255600182019150602085019450602081019050610cb8565b86831015610cfa5784890151610cf6601f891682610c03565b8355505b6001600288020188555050505b505050505050565b7f4e487b7100000000000000000000000000000000000000000000000000000000600052603260045260246000fd5b7f4d61746368206973207374696c6c206f6e000000000000000000000000000000600082015250565b6000610d74601183610621565b9150610d7f82610d3e565b602082019050919050565b60006020820190508181036000830152610da381610d67565b905091905056fea2646970667358221220e8a14909b4fe1ceef6ccc3978cba9cc02fda962e2051c4d163fe93e1e331baad64736f6c63430008110033",
					"opcodes": "PUSH1 0x80 PUSH1 0x40 MSTORE CALLVALUE DUP1 ISZERO PUSH2 0x10 JUMPI PUSH1 0x0 DUP1 REVERT JUMPDEST POP CALLER PUSH1 0x0 DUP1 PUSH2 0x100 EXP DUP2 SLOAD DUP2 PUSH20 0xFFFFFFFFFFFFFFFFFFFFFFFFFFFFFFFFFFFFFFFF MUL NOT AND SWAP1 DUP4 PUSH20 0xFFFFFFFFFFFFFFFFFFFFFFFFFFFFFFFFFFFFFFFF AND MUL OR SWAP1 SSTORE POP PUSH2 0xDE0 DUP1 PUSH2 0x60 PUSH1 0x0 CODECOPY PUSH1 0x0 RETURN INVALID PUSH1 0x80 PUSH1 0x40 MSTORE CALLVALUE DUP1 ISZERO PUSH2 0x10 JUMPI PUSH1 0x0 DUP1 REVERT JUMPDEST POP PUSH1 0x4 CALLDATASIZE LT PUSH2 0x4C JUMPI PUSH1 0x0 CALLDATALOAD PUSH1 0xE0 SHR DUP1 PUSH4 0xB2EDB39F EQ PUSH2 0x51 JUMPI DUP1 PUSH4 0xBC9E6E2C EQ PUSH2 0x85 JUMPI DUP1 PUSH4 0xEC7361A8 EQ PUSH2 0xB5 JUMPI DUP1 PUSH4 0xF851A440 EQ PUSH2 0xD1 JUMPI JUMPDEST PUSH1 0x0 DUP1 REVERT JUMPDEST PUSH2 0x6B PUSH1 0x4 DUP1 CALLDATASIZE SUB DUP2 ADD SWAP1 PUSH2 0x66 SWAP2 SWAP1 PUSH2 0x5E9 JUMP JUMPDEST PUSH2 0xEF JUMP JUMPDEST PUSH1 0x40 MLOAD PUSH2 0x7C SWAP6 SWAP5 SWAP4 SWAP3 SWAP2 SWAP1 PUSH2 0x6F3 JUMP JUMPDEST PUSH1 0x40 MLOAD DUP1 SWAP2 SUB SWAP1 RETURN JUMPDEST PUSH2 0x9F PUSH1 0x4 DUP1 CALLDATASIZE SUB DUP2 ADD SWAP1 PUSH2 0x9A SWAP2 SWAP1 PUSH2 0x7B9 JUMP JUMPDEST PUSH2 0x263 JUMP JUMPDEST PUSH1 0x40 MLOAD PUSH2 0xAC SWAP2 SWAP1 PUSH2 0x869 JUMP JUMPDEST PUSH1 0x40 MLOAD DUP1 SWAP2 SUB SWAP1 RETURN JUMPDEST PUSH2 0xCF PUSH1 0x4 DUP1 CALLDATASIZE SUB DUP2 ADD SWAP1 PUSH2 0xCA SWAP2 SWAP1 PUSH2 0x884 JUMP JUMPDEST PUSH2 0x46A JUMP JUMPDEST STOP JUMPDEST PUSH2 0xD9 PUSH2 0x585 JUMP JUMPDEST PUSH1 0x40 MLOAD PUSH2 0xE6 SWAP2 SWAP1 PUSH2 0x918 JUMP JUMPDEST PUSH1 0x40 MLOAD DUP1 SWAP2 SUB SWAP1 RETURN JUMPDEST PUSH1 0x1 DUP2 DUP2 SLOAD DUP2 LT PUSH2 0xFF JUMPI PUSH1 0x0 DUP1 REVERT JUMPDEST SWAP1 PUSH1 0x0 MSTORE PUSH1 0x20 PUSH1 0x0 KECCAK256 SWAP1 PUSH1 0x6 MUL ADD PUSH1 0x0 SWAP2 POP SWAP1 POP DUP1 PUSH1 0x0 ADD DUP1 SLOAD PUSH2 0x122 SWAP1 PUSH2 0x962 JUMP JUMPDEST DUP1 PUSH1 0x1F ADD PUSH1 0x20 DUP1 SWAP2 DIV MUL PUSH1 0x20 ADD PUSH1 0x40 MLOAD SWAP1 DUP2 ADD PUSH1 0x40 MSTORE DUP1 SWAP3 SWAP2 SWAP1 DUP2 DUP2 MSTORE PUSH1 0x20 ADD DUP3 DUP1 SLOAD PUSH2 0x14E SWAP1 PUSH2 0x962 JUMP JUMPDEST DUP1 ISZERO PUSH2 0x19B JUMPI DUP1 PUSH1 0x1F LT PUSH2 0x170 JUMPI PUSH2 0x100 DUP1 DUP4 SLOAD DIV MUL DUP4 MSTORE SWAP2 PUSH1 0x20 ADD SWAP2 PUSH2 0x19B JUMP JUMPDEST DUP3 ADD SWAP2 SWAP1 PUSH1 0x0 MSTORE PUSH1 0x20 PUSH1 0x0 KECCAK256 SWAP1 JUMPDEST DUP2 SLOAD DUP2 MSTORE SWAP1 PUSH1 0x1 ADD SWAP1 PUSH1 0x20 ADD DUP1 DUP4 GT PUSH2 0x17E JUMPI DUP3 SWAP1 SUB PUSH1 0x1F AND DUP3 ADD SWAP2 JUMPDEST POP POP POP POP POP SWAP1 DUP1 PUSH1 0x1 ADD DUP1 SLOAD PUSH2 0x1B0 SWAP1 PUSH2 0x962 JUMP JUMPDEST DUP1 PUSH1 0x1F ADD PUSH1 0x20 DUP1 SWAP2 DIV MUL PUSH1 0x20 ADD PUSH1 0x40 MLOAD SWAP1 DUP2 ADD PUSH1 0x40 MSTORE DUP1 SWAP3 SWAP2 SWAP1 DUP2 DUP2 MSTORE PUSH1 0x20 ADD DUP3 DUP1 SLOAD PUSH2 0x1DC SWAP1 PUSH2 0x962 JUMP JUMPDEST DUP1 ISZERO PUSH2 0x229 JUMPI DUP1 PUSH1 0x1F LT PUSH2 0x1FE JUMPI PUSH2 0x100 DUP1 DUP4 SLOAD DIV MUL DUP4 MSTORE SWAP2 PUSH1 0x20 ADD SWAP2 PUSH2 0x229 JUMP JUMPDEST DUP3 ADD SWAP2 SWAP1 PUSH1 0x0 MSTORE PUSH1 0x20 PUSH1 0x0 KECCAK256 SWAP1 JUMPDEST DUP2 SLOAD DUP2 MSTORE SWAP1 PUSH1 0x1 ADD SWAP1 PUSH1 0x20 ADD DUP1 DUP4 GT PUSH2 0x20C JUMPI DUP3 SWAP1 SUB PUSH1 0x1F AND DUP3 ADD SWAP2 JUMPDEST POP POP POP POP POP SWAP1 DUP1 PUSH1 0x2 ADD SLOAD SWAP1 DUP1 PUSH1 0x3 ADD SLOAD SWAP1 DUP1 PUSH1 0x4 ADD PUSH1 0x40 MLOAD DUP1 PUSH1 0x40 ADD PUSH1 0x40 MSTORE SWAP1 DUP2 PUSH1 0x0 DUP3 ADD SLOAD DUP2 MSTORE PUSH1 0x20 ADD PUSH1 0x1 DUP3 ADD SLOAD DUP2 MSTORE POP POP SWAP1 POP DUP6 JUMP JUMPDEST PUSH1 0x0 CALLER PUSH20 0xFFFFFFFFFFFFFFFFFFFFFFFFFFFFFFFFFFFFFFFF AND PUSH1 0x0 DUP1 SLOAD SWAP1 PUSH2 0x100 EXP SWAP1 DIV PUSH20 0xFFFFFFFFFFFFFFFFFFFFFFFFFFFFFFFFFFFFFFFF AND PUSH20 0xFFFFFFFFFFFFFFFFFFFFFFFFFFFFFFFFFFFFFFFF AND EQ PUSH2 0x2F3 JUMPI PUSH1 0x40 MLOAD PUSH32 0x8C379A000000000000000000000000000000000000000000000000000000000 DUP2 MSTORE PUSH1 0x4 ADD PUSH2 0x2EA SWAP1 PUSH2 0x9DF JUMP JUMPDEST PUSH1 0x40 MLOAD DUP1 SWAP2 SUB SWAP1 REVERT JUMPDEST PUSH1 0x0 PUSH2 0x1644 DUP4 PUSH2 0x303 SWAP2 SWAP1 PUSH2 0xA2E JUMP JUMPDEST SWAP1 POP PUSH1 0x0 PUSH1 0x40 MLOAD DUP1 PUSH1 0x40 ADD PUSH1 0x40 MSTORE DUP1 PUSH1 0x0 DUP2 MSTORE PUSH1 0x20 ADD PUSH1 0x0 DUP2 MSTORE POP SWAP1 POP PUSH1 0x1 PUSH1 0x40 MLOAD DUP1 PUSH1 0xA0 ADD PUSH1 0x40 MSTORE DUP1 DUP11 DUP11 DUP1 DUP1 PUSH1 0x1F ADD PUSH1 0x20 DUP1 SWAP2 DIV MUL PUSH1 0x20 ADD PUSH1 0x40 MLOAD SWAP1 DUP2 ADD PUSH1 0x40 MSTORE DUP1 SWAP4 SWAP3 SWAP2 SWAP1 DUP2 DUP2 MSTORE PUSH1 0x20 ADD DUP4 DUP4 DUP1 DUP3 DUP5 CALLDATACOPY PUSH1 0x0 DUP2 DUP5 ADD MSTORE PUSH1 0x1F NOT PUSH1 0x1F DUP3 ADD AND SWAP1 POP DUP1 DUP4 ADD SWAP3 POP POP POP POP POP POP POP DUP2 MSTORE PUSH1 0x20 ADD DUP9 DUP9 DUP1 DUP1 PUSH1 0x1F ADD PUSH1 0x20 DUP1 SWAP2 DIV MUL PUSH1 0x20 ADD PUSH1 0x40 MLOAD SWAP1 DUP2 ADD PUSH1 0x40 MSTORE DUP1 SWAP4 SWAP3 SWAP2 SWAP1 DUP2 DUP2 MSTORE PUSH1 0x20 ADD DUP4 DUP4 DUP1 DUP3 DUP5 CALLDATACOPY PUSH1 0x0 DUP2 DUP5 ADD MSTORE PUSH1 0x1F NOT PUSH1 0x1F DUP3 ADD AND SWAP1 POP DUP1 DUP4 ADD SWAP3 POP POP POP POP POP POP POP DUP2 MSTORE PUSH1 0x20 ADD DUP7 DUP2 MSTORE PUSH1 0x20 ADD DUP5 DUP2 MSTORE PUSH1 0x20 ADD DUP4 DUP2 MSTORE POP SWAP1 DUP1 PUSH1 0x1 DUP2 SLOAD ADD DUP1 DUP3 SSTORE DUP1 SWAP2 POP POP PUSH1 0x1 SWAP1 SUB SWAP1 PUSH1 0x0 MSTORE PUSH1 0x20 PUSH1 0x0 KECCAK256 SWAP1 PUSH1 0x6 MUL ADD PUSH1 0x0 SWAP1 SWAP2 SWAP1 SWAP2 SWAP1 SWAP2 POP PUSH1 0x0 DUP3 ADD MLOAD DUP2 PUSH1 0x0 ADD SWAP1 DUP2 PUSH2 0x40F SWAP2 SWAP1 PUSH2 0xC3D JUMP JUMPDEST POP PUSH1 0x20 DUP3 ADD MLOAD DUP2 PUSH1 0x1 ADD SWAP1 DUP2 PUSH2 0x425 SWAP2 SWAP1 PUSH2 0xC3D JUMP JUMPDEST POP PUSH1 0x40 DUP3 ADD MLOAD DUP2 PUSH1 0x2 ADD SSTORE PUSH1 0x60 DUP3 ADD MLOAD DUP2 PUSH1 0x3 ADD SSTORE PUSH1 0x80 DUP3 ADD MLOAD DUP2 PUSH1 0x4 ADD PUSH1 0x0 DUP3 ADD MLOAD DUP2 PUSH1 0x0 ADD SSTORE PUSH1 0x20 DUP3 ADD MLOAD DUP2 PUSH1 0x1 ADD SSTORE POP POP POP POP PUSH1 0x1 SWAP3 POP POP POP SWAP6 SWAP5 POP POP POP POP POP JUMP JUMPDEST CALLER PUSH20 0xFFFFFFFFFFFFFFFFFFFFFFFFFFFFFFFFFFFFFFFF AND PUSH1 0x0 DUP1 SLOAD SWAP1 PUSH2 0x100 EXP SWAP1 DIV PUSH20 0xFFFFFFFFFFFFFFFFFFFFFFFFFFFFFFFFFFFFFFFF AND PUSH20 0xFFFFFFFFFFFFFFFFFFFFFFFFFFFFFFFFFFFFFFFF AND EQ PUSH2 0x4F8 JUMPI PUSH1 0x40 MLOAD PUSH32 0x8C379A000000000000000000000000000000000000000000000000000000000 DUP2 MSTORE PUSH1 0x4 ADD PUSH2 0x4EF SWAP1 PUSH2 0x9DF JUMP JUMPDEST PUSH1 0x40 MLOAD DUP1 SWAP2 SUB SWAP1 REVERT JUMPDEST PUSH1 0x0 TIMESTAMP SWAP1 POP DUP1 PUSH1 0x1 DUP6 DUP2 SLOAD DUP2 LT PUSH2 0x512 JUMPI PUSH2 0x511 PUSH2 0xD0F JUMP JUMPDEST JUMPDEST SWAP1 PUSH1 0x0 MSTORE PUSH1 0x20 PUSH1 0x0 KECCAK256 SWAP1 PUSH1 0x6 MUL ADD PUSH1 0x3 ADD SLOAD LT ISZERO PUSH2 0x565 JUMPI PUSH1 0x40 MLOAD PUSH32 0x8C379A000000000000000000000000000000000000000000000000000000000 DUP2 MSTORE PUSH1 0x4 ADD PUSH2 0x55C SWAP1 PUSH2 0xD8A JUMP JUMPDEST PUSH1 0x40 MLOAD DUP1 SWAP2 SUB SWAP1 REVERT JUMPDEST PUSH1 0x0 PUSH1 0x40 MLOAD DUP1 PUSH1 0x40 ADD PUSH1 0x40 MSTORE DUP1 DUP6 DUP2 MSTORE PUSH1 0x20 ADD DUP5 DUP2 MSTORE POP SWAP1 POP POP POP POP POP POP JUMP JUMPDEST PUSH1 0x0 DUP1 SLOAD SWAP1 PUSH2 0x100 EXP SWAP1 DIV PUSH20 0xFFFFFFFFFFFFFFFFFFFFFFFFFFFFFFFFFFFFFFFF AND DUP2 JUMP JUMPDEST PUSH1 0x0 DUP1 REVERT JUMPDEST PUSH1 0x0 DUP1 REVERT JUMPDEST PUSH1 0x0 DUP2 SWAP1 POP SWAP2 SWAP1 POP JUMP JUMPDEST PUSH2 0x5C6 DUP2 PUSH2 0x5B3 JUMP JUMPDEST DUP2 EQ PUSH2 0x5D1 JUMPI PUSH1 0x0 DUP1 REVERT JUMPDEST POP JUMP JUMPDEST PUSH1 0x0 DUP2 CALLDATALOAD SWAP1 POP PUSH2 0x5E3 DUP2 PUSH2 0x5BD JUMP JUMPDEST SWAP3 SWAP2 POP POP JUMP JUMPDEST PUSH1 0x0 PUSH1 0x20 DUP3 DUP5 SUB SLT ISZERO PUSH2 0x5FF JUMPI PUSH2 0x5FE PUSH2 0x5A9 JUMP JUMPDEST JUMPDEST PUSH1 0x0 PUSH2 0x60D DUP5 DUP3 DUP6 ADD PUSH2 0x5D4 JUMP JUMPDEST SWAP2 POP POP SWAP3 SWAP2 POP POP JUMP JUMPDEST PUSH1 0x0 DUP2 MLOAD SWAP1 POP SWAP2 SWAP1 POP JUMP JUMPDEST PUSH1 0x0 DUP3 DUP3 MSTORE PUSH1 0x20 DUP3 ADD SWAP1 POP SWAP3 SWAP2 POP POP JUMP JUMPDEST PUSH1 0x0 JUMPDEST DUP4 DUP2 LT ISZERO PUSH2 0x650 JUMPI DUP1 DUP3 ADD MLOAD DUP2 DUP5 ADD MSTORE PUSH1 0x20 DUP2 ADD SWAP1 POP PUSH2 0x635 JUMP JUMPDEST PUSH1 0x0 DUP5 DUP5 ADD MSTORE POP POP POP POP JUMP JUMPDEST PUSH1 0x0 PUSH1 0x1F NOT PUSH1 0x1F DUP4 ADD AND SWAP1 POP SWAP2 SWAP1 POP JUMP JUMPDEST PUSH1 0x0 PUSH2 0x678 DUP3 PUSH2 0x616 JUMP JUMPDEST PUSH2 0x682 DUP2 DUP6 PUSH2 0x621 JUMP JUMPDEST SWAP4 POP PUSH2 0x692 DUP2 DUP6 PUSH1 0x20 DUP7 ADD PUSH2 0x632 JUMP JUMPDEST PUSH2 0x69B DUP2 PUSH2 0x65C JUMP JUMPDEST DUP5 ADD SWAP2 POP POP SWAP3 SWAP2 POP POP JUMP JUMPDEST PUSH2 0x6AF DUP2 PUSH2 0x5B3 JUMP JUMPDEST DUP3 MSTORE POP POP JUMP JUMPDEST PUSH2 0x6BE DUP2 PUSH2 0x5B3 JUMP JUMPDEST DUP3 MSTORE POP POP JUMP JUMPDEST PUSH1 0x40 DUP3 ADD PUSH1 0x0 DUP3 ADD MLOAD PUSH2 0x6DA PUSH1 0x0 DUP6 ADD DUP3 PUSH2 0x6B5 JUMP JUMPDEST POP PUSH1 0x20 DUP3 ADD MLOAD PUSH2 0x6ED PUSH1 0x20 DUP6 ADD DUP3 PUSH2 0x6B5 JUMP JUMPDEST POP POP POP POP JUMP JUMPDEST PUSH1 0x0 PUSH1 0xC0 DUP3 ADD SWAP1 POP DUP2 DUP2 SUB PUSH1 0x0 DUP4 ADD MSTORE PUSH2 0x70D DUP2 DUP9 PUSH2 0x66D JUMP JUMPDEST SWAP1 POP DUP2 DUP2 SUB PUSH1 0x20 DUP4 ADD MSTORE PUSH2 0x721 DUP2 DUP8 PUSH2 0x66D JUMP JUMPDEST SWAP1 POP PUSH2 0x730 PUSH1 0x40 DUP4 ADD DUP7 PUSH2 0x6A6 JUMP JUMPDEST PUSH2 0x73D PUSH1 0x60 DUP4 ADD DUP6 PUSH2 0x6A6 JUMP JUMPDEST PUSH2 0x74A PUSH1 0x80 DUP4 ADD DUP5 PUSH2 0x6C4 JUMP JUMPDEST SWAP7 SWAP6 POP POP POP POP POP POP JUMP JUMPDEST PUSH1 0x0 DUP1 REVERT JUMPDEST PUSH1 0x0 DUP1 REVERT JUMPDEST PUSH1 0x0 DUP1 REVERT JUMPDEST PUSH1 0x0 DUP1 DUP4 PUSH1 0x1F DUP5 ADD SLT PUSH2 0x779 JUMPI PUSH2 0x778 PUSH2 0x754 JUMP JUMPDEST JUMPDEST DUP3 CALLDATALOAD SWAP1 POP PUSH8 0xFFFFFFFFFFFFFFFF DUP2 GT ISZERO PUSH2 0x796 JUMPI PUSH2 0x795 PUSH2 0x759 JUMP JUMPDEST JUMPDEST PUSH1 0x20 DUP4 ADD SWAP2 POP DUP4 PUSH1 0x1 DUP3 MUL DUP4 ADD GT ISZERO PUSH2 0x7B2 JUMPI PUSH2 0x7B1 PUSH2 0x75E JUMP JUMPDEST JUMPDEST SWAP3 POP SWAP3 SWAP1 POP JUMP JUMPDEST PUSH1 0x0 DUP1 PUSH1 0x0 DUP1 PUSH1 0x0 PUSH1 0x60 DUP7 DUP9 SUB SLT ISZERO PUSH2 0x7D5 JUMPI PUSH2 0x7D4 PUSH2 0x5A9 JUMP JUMPDEST JUMPDEST PUSH1 0x0 DUP7 ADD CALLDATALOAD PUSH8 0xFFFFFFFFFFFFFFFF DUP2 GT ISZERO PUSH2 0x7F3 JUMPI PUSH2 0x7F2 PUSH2 0x5AE JUMP JUMPDEST JUMPDEST PUSH2 0x7FF DUP9 DUP3 DUP10 ADD PUSH2 0x763 JUMP JUMPDEST SWAP6 POP SWAP6 POP POP PUSH1 0x20 DUP7 ADD CALLDATALOAD PUSH8 0xFFFFFFFFFFFFFFFF DUP2 GT ISZERO PUSH2 0x822 JUMPI PUSH2 0x821 PUSH2 0x5AE JUMP JUMPDEST JUMPDEST PUSH2 0x82E DUP9 DUP3 DUP10 ADD PUSH2 0x763 JUMP JUMPDEST SWAP4 POP SWAP4 POP POP PUSH1 0x40 PUSH2 0x841 DUP9 DUP3 DUP10 ADD PUSH2 0x5D4 JUMP JUMPDEST SWAP2 POP POP SWAP3 SWAP6 POP SWAP3 SWAP6 SWAP1 SWAP4 POP JUMP JUMPDEST PUSH1 0x0 DUP2 ISZERO ISZERO SWAP1 POP SWAP2 SWAP1 POP JUMP JUMPDEST PUSH2 0x863 DUP2 PUSH2 0x84E JUMP JUMPDEST DUP3 MSTORE POP POP JUMP JUMPDEST PUSH1 0x0 PUSH1 0x20 DUP3 ADD SWAP1 POP PUSH2 0x87E PUSH1 0x0 DUP4 ADD DUP5 PUSH2 0x85A JUMP JUMPDEST SWAP3 SWAP2 POP POP JUMP JUMPDEST PUSH1 0x0 DUP1 PUSH1 0x0 PUSH1 0x60 DUP5 DUP7 SUB SLT ISZERO PUSH2 0x89D JUMPI PUSH2 0x89C PUSH2 0x5A9 JUMP JUMPDEST JUMPDEST PUSH1 0x0 PUSH2 0x8AB DUP7 DUP3 DUP8 ADD PUSH2 0x5D4 JUMP JUMPDEST SWAP4 POP POP PUSH1 0x20 PUSH2 0x8BC DUP7 DUP3 DUP8 ADD PUSH2 0x5D4 JUMP JUMPDEST SWAP3 POP POP PUSH1 0x40 PUSH2 0x8CD DUP7 DUP3 DUP8 ADD PUSH2 0x5D4 JUMP JUMPDEST SWAP2 POP POP SWAP3 POP SWAP3 POP SWAP3 JUMP JUMPDEST PUSH1 0x0 PUSH20 0xFFFFFFFFFFFFFFFFFFFFFFFFFFFFFFFFFFFFFFFF DUP3 AND SWAP1 POP SWAP2 SWAP1 POP JUMP JUMPDEST PUSH1 0x0 PUSH2 0x902 DUP3 PUSH2 0x8D7 JUMP JUMPDEST SWAP1 POP SWAP2 SWAP1 POP JUMP JUMPDEST PUSH2 0x912 DUP2 PUSH2 0x8F7 JUMP JUMPDEST DUP3 MSTORE POP POP JUMP JUMPDEST PUSH1 0x0 PUSH1 0x20 DUP3 ADD SWAP1 POP PUSH2 0x92D PUSH1 0x0 DUP4 ADD DUP5 PUSH2 0x909 JUMP JUMPDEST SWAP3 SWAP2 POP POP JUMP JUMPDEST PUSH32 0x4E487B7100000000000000000000000000000000000000000000000000000000 PUSH1 0x0 MSTORE PUSH1 0x22 PUSH1 0x4 MSTORE PUSH1 0x24 PUSH1 0x0 REVERT JUMPDEST PUSH1 0x0 PUSH1 0x2 DUP3 DIV SWAP1 POP PUSH1 0x1 DUP3 AND DUP1 PUSH2 0x97A JUMPI PUSH1 0x7F DUP3 AND SWAP2 POP JUMPDEST PUSH1 0x20 DUP3 LT DUP2 SUB PUSH2 0x98D JUMPI PUSH2 0x98C PUSH2 0x933 JUMP JUMPDEST JUMPDEST POP SWAP2 SWAP1 POP JUMP JUMPDEST PUSH32 0x4E6F74204F776E65720000000000000000000000000000000000000000000000 PUSH1 0x0 DUP3 ADD MSTORE POP JUMP JUMPDEST PUSH1 0x0 PUSH2 0x9C9 PUSH1 0x9 DUP4 PUSH2 0x621 JUMP JUMPDEST SWAP2 POP PUSH2 0x9D4 DUP3 PUSH2 0x993 JUMP JUMPDEST PUSH1 0x20 DUP3 ADD SWAP1 POP SWAP2 SWAP1 POP JUMP JUMPDEST PUSH1 0x0 PUSH1 0x20 DUP3 ADD SWAP1 POP DUP2 DUP2 SUB PUSH1 0x0 DUP4 ADD MSTORE PUSH2 0x9F8 DUP2 PUSH2 0x9BC JUMP JUMPDEST SWAP1 POP SWAP2 SWAP1 POP JUMP JUMPDEST PUSH32 0x4E487B7100000000000000000000000000000000000000000000000000000000 PUSH1 0x0 MSTORE PUSH1 0x11 PUSH1 0x4 MSTORE PUSH1 0x24 PUSH1 0x0 REVERT JUMPDEST PUSH1 0x0 PUSH2 0xA39 DUP3 PUSH2 0x5B3 JUMP JUMPDEST SWAP2 POP PUSH2 0xA44 DUP4 PUSH2 0x5B3 JUMP JUMPDEST SWAP3 POP DUP3 DUP3 ADD SWAP1 POP DUP1 DUP3 GT ISZERO PUSH2 0xA5C JUMPI PUSH2 0xA5B PUSH2 0x9FF JUMP JUMPDEST JUMPDEST SWAP3 SWAP2 POP POP JUMP JUMPDEST PUSH32 0x4E487B7100000000000000000000000000000000000000000000000000000000 PUSH1 0x0 MSTORE PUSH1 0x41 PUSH1 0x4 MSTORE PUSH1 0x24 PUSH1 0x0 REVERT JUMPDEST PUSH1 0x0 DUP2 SWAP1 POP DUP2 PUSH1 0x0 MSTORE PUSH1 0x20 PUSH1 0x0 KECCAK256 SWAP1 POP SWAP2 SWAP1 POP JUMP JUMPDEST PUSH1 0x0 PUSH1 0x20 PUSH1 0x1F DUP4 ADD DIV SWAP1 POP SWAP2 SWAP1 POP JUMP JUMPDEST PUSH1 0x0 DUP3 DUP3 SHL SWAP1 POP SWAP3 SWAP2 POP POP JUMP JUMPDEST PUSH1 0x0 PUSH1 0x8 DUP4 MUL PUSH2 0xAF3 PUSH32 0xFFFFFFFFFFFFFFFFFFFFFFFFFFFFFFFFFFFFFFFFFFFFFFFFFFFFFFFFFFFFFFFF DUP3 PUSH2 0xAB6 JUMP JUMPDEST PUSH2 0xAFD DUP7 DUP4 PUSH2 0xAB6 JUMP JUMPDEST SWAP6 POP DUP1 NOT DUP5 AND SWAP4 POP DUP1 DUP7 AND DUP5 OR SWAP3 POP POP POP SWAP4 SWAP3 POP POP POP JUMP JUMPDEST PUSH1 0x0 DUP2 SWAP1 POP SWAP2 SWAP1 POP JUMP JUMPDEST PUSH1 0x0 PUSH2 0xB3A PUSH2 0xB35 PUSH2 0xB30 DUP5 PUSH2 0x5B3 JUMP JUMPDEST PUSH2 0xB15 JUMP JUMPDEST PUSH2 0x5B3 JUMP JUMPDEST SWAP1 POP SWAP2 SWAP1 POP JUMP JUMPDEST PUSH1 0x0 DUP2 SWAP1 POP SWAP2 SWAP1 POP JUMP JUMPDEST PUSH2 0xB54 DUP4 PUSH2 0xB1F JUMP JUMPDEST PUSH2 0xB68 PUSH2 0xB60 DUP3 PUSH2 0xB41 JUMP JUMPDEST DUP5 DUP5 SLOAD PUSH2 0xAC3 JUMP JUMPDEST DUP3 SSTORE POP POP POP POP JUMP JUMPDEST PUSH1 0x0 SWAP1 JUMP JUMPDEST PUSH2 0xB7D PUSH2 0xB70 JUMP JUMPDEST PUSH2 0xB88 DUP2 DUP5 DUP5 PUSH2 0xB4B JUMP JUMPDEST POP POP POP JUMP JUMPDEST JUMPDEST DUP2 DUP2 LT ISZERO PUSH2 0xBAC JUMPI PUSH2 0xBA1 PUSH1 0x0 DUP3 PUSH2 0xB75 JUMP JUMPDEST PUSH1 0x1 DUP2 ADD SWAP1 POP PUSH2 0xB8E JUMP JUMPDEST POP POP JUMP JUMPDEST PUSH1 0x1F DUP3 GT ISZERO PUSH2 0xBF1 JUMPI PUSH2 0xBC2 DUP2 PUSH2 0xA91 JUMP JUMPDEST PUSH2 0xBCB DUP5 PUSH2 0xAA6 JUMP JUMPDEST DUP2 ADD PUSH1 0x20 DUP6 LT ISZERO PUSH2 0xBDA JUMPI DUP2 SWAP1 POP JUMPDEST PUSH2 0xBEE PUSH2 0xBE6 DUP6 PUSH2 0xAA6 JUMP JUMPDEST DUP4 ADD DUP3 PUSH2 0xB8D JUMP JUMPDEST POP POP JUMPDEST POP POP POP JUMP JUMPDEST PUSH1 0x0 DUP3 DUP3 SHR SWAP1 POP SWAP3 SWAP2 POP POP JUMP JUMPDEST PUSH1 0x0 PUSH2 0xC14 PUSH1 0x0 NOT DUP5 PUSH1 0x8 MUL PUSH2 0xBF6 JUMP JUMPDEST NOT DUP1 DUP4 AND SWAP2 POP POP SWAP3 SWAP2 POP POP JUMP JUMPDEST PUSH1 0x0 PUSH2 0xC2D DUP4 DUP4 PUSH2 0xC03 JUMP JUMPDEST SWAP2 POP DUP3 PUSH1 0x2 MUL DUP3 OR SWAP1 POP SWAP3 SWAP2 POP POP JUMP JUMPDEST PUSH2 0xC46 DUP3 PUSH2 0x616 JUMP JUMPDEST PUSH8 0xFFFFFFFFFFFFFFFF DUP2 GT ISZERO PUSH2 0xC5F JUMPI PUSH2 0xC5E PUSH2 0xA62 JUMP JUMPDEST JUMPDEST PUSH2 0xC69 DUP3 SLOAD PUSH2 0x962 JUMP JUMPDEST PUSH2 0xC74 DUP3 DUP3 DUP6 PUSH2 0xBB0 JUMP JUMPDEST PUSH1 0x0 PUSH1 0x20 SWAP1 POP PUSH1 0x1F DUP4 GT PUSH1 0x1 DUP2 EQ PUSH2 0xCA7 JUMPI PUSH1 0x0 DUP5 ISZERO PUSH2 0xC95 JUMPI DUP3 DUP8 ADD MLOAD SWAP1 POP JUMPDEST PUSH2 0xC9F DUP6 DUP3 PUSH2 0xC21 JUMP JUMPDEST DUP7 SSTORE POP PUSH2 0xD07 JUMP JUMPDEST PUSH1 0x1F NOT DUP5 AND PUSH2 0xCB5 DUP7 PUSH2 0xA91 JUMP JUMPDEST PUSH1 0x0 JUMPDEST DUP3 DUP2 LT ISZERO PUSH2 0xCDD JUMPI DUP5 DUP10 ADD MLOAD DUP3 SSTORE PUSH1 0x1 DUP3 ADD SWAP2 POP PUSH1 0x20 DUP6 ADD SWAP5 POP PUSH1 0x20 DUP2 ADD SWAP1 POP PUSH2 0xCB8 JUMP JUMPDEST DUP7 DUP4 LT ISZERO PUSH2 0xCFA JUMPI DUP5 DUP10 ADD MLOAD PUSH2 0xCF6 PUSH1 0x1F DUP10 AND DUP3 PUSH2 0xC03 JUMP JUMPDEST DUP4 SSTORE POP JUMPDEST PUSH1 0x1 PUSH1 0x2 DUP9 MUL ADD DUP9 SSTORE POP POP POP JUMPDEST POP POP POP POP POP POP JUMP JUMPDEST PUSH32 0x4E487B7100000000000000000000000000000000000000000000000000000000 PUSH1 0x0 MSTORE PUSH1 0x32 PUSH1 0x4 MSTORE PUSH1 0x24 PUSH1 0x0 REVERT JUMPDEST PUSH32 0x4D61746368206973207374696C6C206F6E000000000000000000000000000000 PUSH1 0x0 DUP3 ADD MSTORE POP JUMP JUMPDEST PUSH1 0x0 PUSH2 0xD74 PUSH1 0x11 DUP4 PUSH2 0x621 JUMP JUMPDEST SWAP2 POP PUSH2 0xD7F DUP3 PUSH2 0xD3E JUMP JUMPDEST PUSH1 0x20 DUP3 ADD SWAP1 POP SWAP2 SWAP1 POP JUMP JUMPDEST PUSH1 0x0 PUSH1 0x20 DUP3 ADD SWAP1 POP DUP2 DUP2 SUB PUSH1 0x0 DUP4 ADD MSTORE PUSH2 0xDA3 DUP2 PUSH2 0xD67 JUMP JUMPDEST SWAP1 POP SWAP2 SWAP1 POP JUMP INVALID LOG2 PUSH5 0x6970667358 0x22 SLT KECCAK256 0xE8 LOG1 0x49 MULMOD 0xB4 INVALID SHR 0xEE 0xF6 0xCC 0xC3 SWAP8 DUP13 0xBA SWAP13 0xC0 0x2F 0xDA SWAP7 0x2E KECCAK256 MLOAD 0xC4 0xD1 PUSH4 0xFE93E1E3 BALANCE 0xBA 0xAD PUSH5 0x736F6C6343 STOP ADDMOD GT STOP CALLER "
				},
				"gasEstimates": {
					"creation": {
						"codeDepositCost": "710400",
						"executionCost": "25007",
						"totalCost": "735407"
					},
					"external": {
						"admin()": "2555",
						"allMatch(uint256)": "infinite",
						"closeMatch(uint256,uint256,uint256)": "infinite",
						"instantiateMatch(string,string,uint256)": "infinite"
					}
				},
				"methodIdentifiers": {
					"admin()": "f851a440",
					"allMatch(uint256)": "b2edb39f",
					"closeMatch(uint256,uint256,uint256)": "ec7361a8",
					"instantiateMatch(string,string,uint256)": "bc9e6e2c"
				}
			},
			"storageLayout": {
				"storage": [
					{
						"astId": 3,
						"contract": "contracts/betting.sol:DistanceFiBET",
						"label": "admin",
						"offset": 0,
						"slot": "0",
						"type": "t_address"
					},
					{
						"astId": 24,
						"contract": "contracts/betting.sol:DistanceFiBET",
						"label": "allMatch",
						"offset": 0,
						"slot": "1",
						"type": "t_array(t_struct(Match)20_storage)dyn_storage"
					}
				],
				"types": {
					"t_address": {
						"encoding": "inplace",
						"label": "address",
						"numberOfBytes": "20"
					},
					"t_array(t_struct(Match)20_storage)dyn_storage": {
						"base": "t_struct(Match)20_storage",
						"encoding": "dynamic_array",
						"label": "struct DistanceFiBET.Match[]",
						"numberOfBytes": "32"
					},
					"t_string_storage": {
						"encoding": "bytes",
						"label": "string",
						"numberOfBytes": "32"
					},
					"t_struct(Match)20_storage": {
						"encoding": "inplace",
						"label": "struct DistanceFiBET.Match",
						"members": [
							{
								"astId": 10,
								"contract": "contracts/betting.sol:DistanceFiBET",
								"label": "HomeTeam",
								"offset": 0,
								"slot": "0",
								"type": "t_string_storage"
							},
							{
								"astId": 12,
								"contract": "contracts/betting.sol:DistanceFiBET",
								"label": "AwayTeam",
								"offset": 0,
								"slot": "1",
								"type": "t_string_storage"
							},
							{
								"astId": 14,
								"contract": "contracts/betting.sol:DistanceFiBET",
								"label": "startTime",
								"offset": 0,
								"slot": "2",
								"type": "t_uint256"
							},
							{
								"astId": 16,
								"contract": "contracts/betting.sol:DistanceFiBET",
								"label": "endTime",
								"offset": 0,
								"slot": "3",
								"type": "t_uint256"
							},
							{
								"astId": 19,
								"contract": "contracts/betting.sol:DistanceFiBET",
								"label": "results",
								"offset": 0,
								"slot": "4",
								"type": "t_struct(Results)8_storage"
							}
						],
						"numberOfBytes": "192"
					},
					"t_struct(Results)8_storage": {
						"encoding": "inplace",
						"label": "struct DistanceFiBET.Results",
						"members": [
							{
								"astId": 5,
								"contract": "contracts/betting.sol:DistanceFiBET",
								"label": "Home_score",
								"offset": 0,
								"slot": "0",
								"type": "t_uint256"
							},
							{
								"astId": 7,
								"contract": "contracts/betting.sol:DistanceFiBET",
								"label": "Away_score",
								"offset": 0,
								"slot": "1",
								"type": "t_uint256"
							}
						],
						"numberOfBytes": "64"
					},
					"t_uint256": {
						"encoding": "inplace",
						"label": "uint256",
						"numberOfBytes": "32"
					}
				}
			},
			"userdoc": {
				"kind": "user",
				"methods": {},
				"version": 1
			}
		}
	}
}