{
	"contracts/betting.sol": {
		"DistanceFiBET": {
			"abi": [
				{
					"inputs": [],
					"stateMutability": "nonpayable",
					"type": "constructor"
				},
				{
					"inputs": [],
					"name": "admin",
					"outputs": [
						{
							"internalType": "address",
							"name": "",
							"type": "address"
						}
					],
					"stateMutability": "view",
					"type": "function"
				},
				{
					"inputs": [
						{
							"internalType": "uint256",
							"name": "",
							"type": "uint256"
						}
					],
					"name": "allMatch",
					"outputs": [
						{
							"internalType": "string",
							"name": "HomeTeam",
							"type": "string"
						},
						{
							"internalType": "string",
							"name": "AwayTeam",
							"type": "string"
						},
						{
							"internalType": "uint256",
							"name": "startTime",
							"type": "uint256"
						},
						{
							"internalType": "uint256",
							"name": "endTime",
							"type": "uint256"
						},
						{
							"components": [
								{
									"internalType": "uint256",
									"name": "Home_score",
									"type": "uint256"
								},
								{
									"internalType": "uint256",
									"name": "Away_score",
									"type": "uint256"
								}
							],
							"internalType": "struct DistanceFiBET.Results",
							"name": "results",
							"type": "tuple"
						}
					],
					"stateMutability": "view",
					"type": "function"
				},
				{
					"inputs": [
						{
							"internalType": "uint256",
							"name": "epoch",
							"type": "uint256"
						},
						{
							"internalType": "uint256",
							"name": "_homeScore",
							"type": "uint256"
						},
						{
							"internalType": "uint256",
							"name": "_awayScore",
							"type": "uint256"
						}
					],
					"name": "closeMatch",
					"outputs": [],
					"stateMutability": "nonpayable",
					"type": "function"
				},
				{
					"inputs": [
						{
							"internalType": "string",
							"name": "_HomeTeam",
							"type": "string"
						},
						{
							"internalType": "string",
							"name": "_AwayTeam",
							"type": "string"
						},
						{
							"internalType": "uint256",
							"name": "_startTime",
							"type": "uint256"
						}
					],
					"name": "instantiateMatch",
					"outputs": [
						{
							"internalType": "bool",
							"name": "",
							"type": "bool"
						}
					],
					"stateMutability": "nonpayable",
					"type": "function"
				},
				{
					"inputs": [
						{
							"internalType": "uint256",
							"name": "",
							"type": "uint256"
						}
					],
					"name": "specificGame",
					"outputs": [
						{
							"internalType": "string",
							"name": "HomeTeam",
							"type": "string"
						},
						{
							"internalType": "string",
							"name": "AwayTeam",
							"type": "string"
						},
						{
							"internalType": "uint256",
							"name": "startTime",
							"type": "uint256"
						},
						{
							"internalType": "uint256",
							"name": "endTime",
							"type": "uint256"
						},
						{
							"components": [
								{
									"internalType": "uint256",
									"name": "Home_score",
									"type": "uint256"
								},
								{
									"internalType": "uint256",
									"name": "Away_score",
									"type": "uint256"
								}
							],
							"internalType": "struct DistanceFiBET.Results",
							"name": "results",
							"type": "tuple"
						}
					],
					"stateMutability": "view",
					"type": "function"
				},
				{
					"inputs": [
						{
							"internalType": "uint256",
							"name": "",
							"type": "uint256"
						}
					],
					"name": "specificMatchBets",
					"outputs": [
						{
							"internalType": "address",
							"name": "bettor",
							"type": "address"
						},
						{
							"internalType": "uint256",
							"name": "amount",
							"type": "uint256"
						},
						{
							"internalType": "enum DistanceFiBET.Choices",
							"name": "choice",
							"type": "uint8"
						}
					],
					"stateMutability": "view",
					"type": "function"
				},
				{
					"inputs": [
						{
							"internalType": "address",
							"name": "",
							"type": "address"
						}
					],
					"name": "userBet",
					"outputs": [
						{
							"internalType": "enum DistanceFiBET.Choices",
							"name": "bet",
							"type": "uint8"
						},
						{
							"internalType": "uint256",
							"name": "winAmounts",
							"type": "uint256"
						},
						{
							"internalType": "uint256",
							"name": "betAmount",
							"type": "uint256"
						}
					],
					"stateMutability": "view",
					"type": "function"
				}
			],
			"devdoc": {
				"kind": "dev",
				"methods": {},
				"version": 1
			},
			"evm": {
				"assembly": "    /* \"contracts/betting.sol\":63:1970  contract DistanceFiBET{... */\n  mstore(0x40, 0x80)\n    /* \"contracts/betting.sol\":800:850  constructor(){... */\n  callvalue\n  dup1\n  iszero\n  tag_1\n  jumpi\n  0x00\n  dup1\n  revert\ntag_1:\n  pop\n    /* \"contracts/betting.sol\":832:842  msg.sender */\n  caller\n    /* \"contracts/betting.sol\":824:829  admin */\n  0x00\n  dup1\n    /* \"contracts/betting.sol\":824:842  admin = msg.sender */\n  0x0100\n  exp\n  dup2\n  sload\n  dup2\n  0xffffffffffffffffffffffffffffffffffffffff\n  mul\n  not\n  and\n  swap1\n  dup4\n  0xffffffffffffffffffffffffffffffffffffffff\n  and\n  mul\n  or\n  swap1\n  sstore\n  pop\n    /* \"contracts/betting.sol\":63:1970  contract DistanceFiBET{... */\n  dataSize(sub_0)\n  dup1\n  dataOffset(sub_0)\n  0x00\n  codecopy\n  0x00\n  return\nstop\n\nsub_0: assembly {\n        /* \"contracts/betting.sol\":63:1970  contract DistanceFiBET{... */\n      mstore(0x40, 0x80)\n      callvalue\n      dup1\n      iszero\n      tag_1\n      jumpi\n      0x00\n      dup1\n      revert\n    tag_1:\n      pop\n      jumpi(tag_2, lt(calldatasize, 0x04))\n      shr(0xe0, calldataload(0x00))\n      dup1\n      0xb2edb39f\n      gt\n      tag_10\n      jumpi\n      dup1\n      0xb2edb39f\n      eq\n      tag_6\n      jumpi\n      dup1\n      0xbc9e6e2c\n      eq\n      tag_7\n      jumpi\n      dup1\n      0xec7361a8\n      eq\n      tag_8\n      jumpi\n      dup1\n      0xf851a440\n      eq\n      tag_9\n      jumpi\n      jump(tag_2)\n    tag_10:\n      dup1\n      0x15a3ae71\n      eq\n      tag_3\n      jumpi\n      dup1\n      0x21749fa3\n      eq\n      tag_4\n      jumpi\n      dup1\n      0x67ad4ec2\n      eq\n      tag_5\n      jumpi\n    tag_2:\n      0x00\n      dup1\n      revert\n        /* \"contracts/betting.sol\":738:788  mapping (uint => allBets) public specificMatchBets */\n    tag_3:\n      tag_11\n      0x04\n      dup1\n      calldatasize\n      sub\n      dup2\n      add\n      swap1\n      tag_12\n      swap2\n      swap1\n      tag_13\n      jump\t// in\n    tag_12:\n      tag_14\n      jump\t// in\n    tag_11:\n      mload(0x40)\n      tag_15\n      swap4\n      swap3\n      swap2\n      swap1\n      tag_16\n      jump\t// in\n    tag_15:\n      mload(0x40)\n      dup1\n      swap2\n      sub\n      swap1\n      return\n        /* \"contracts/betting.sol\":409:452  mapping (uint => Match) public specificGame */\n    tag_4:\n      tag_17\n      0x04\n      dup1\n      calldatasize\n      sub\n      dup2\n      add\n      swap1\n      tag_18\n      swap2\n      swap1\n      tag_13\n      jump\t// in\n    tag_18:\n      tag_19\n      jump\t// in\n    tag_17:\n      mload(0x40)\n      tag_20\n      swap6\n      swap5\n      swap4\n      swap3\n      swap2\n      swap1\n      tag_21\n      jump\t// in\n    tag_20:\n      mload(0x40)\n      dup1\n      swap2\n      sub\n      swap1\n      return\n        /* \"contracts/betting.sol\":589:631  mapping (address => Bettor) public userBet */\n    tag_5:\n      tag_22\n      0x04\n      dup1\n      calldatasize\n      sub\n      dup2\n      add\n      swap1\n      tag_23\n      swap2\n      swap1\n      tag_24\n      jump\t// in\n    tag_23:\n      tag_25\n      jump\t// in\n    tag_22:\n      mload(0x40)\n      tag_26\n      swap4\n      swap3\n      swap2\n      swap1\n      tag_27\n      jump\t// in\n    tag_26:\n      mload(0x40)\n      dup1\n      swap2\n      sub\n      swap1\n      return\n        /* \"contracts/betting.sol\":458:482  Match [] public allMatch */\n    tag_6:\n      tag_28\n      0x04\n      dup1\n      calldatasize\n      sub\n      dup2\n      add\n      swap1\n      tag_29\n      swap2\n      swap1\n      tag_13\n      jump\t// in\n    tag_29:\n      tag_30\n      jump\t// in\n    tag_28:\n      mload(0x40)\n      tag_31\n      swap6\n      swap5\n      swap4\n      swap3\n      swap2\n      swap1\n      tag_21\n      jump\t// in\n    tag_31:\n      mload(0x40)\n      dup1\n      swap2\n      sub\n      swap1\n      return\n        /* \"contracts/betting.sol\":858:1260  function instantiateMatch(string calldata _HomeTeam, string calldata _AwayTeam, uint _startTime) external returns (bool) {... */\n    tag_7:\n      tag_32\n      0x04\n      dup1\n      calldatasize\n      sub\n      dup2\n      add\n      swap1\n      tag_33\n      swap2\n      swap1\n      tag_34\n      jump\t// in\n    tag_33:\n      tag_35\n      jump\t// in\n    tag_32:\n      mload(0x40)\n      tag_36\n      swap2\n      swap1\n      tag_37\n      jump\t// in\n    tag_36:\n      mload(0x40)\n      dup1\n      swap2\n      sub\n      swap1\n      return\n        /* \"contracts/betting.sol\":1268:1652  function closeMatch(uint epoch, uint _homeScore, uint _awayScore) external {... */\n    tag_8:\n      tag_38\n      0x04\n      dup1\n      calldatasize\n      sub\n      dup2\n      add\n      swap1\n      tag_39\n      swap2\n      swap1\n      tag_40\n      jump\t// in\n    tag_39:\n      tag_41\n      jump\t// in\n    tag_38:\n      stop\n        /* \"contracts/betting.sol\":148:168  address public admin */\n    tag_9:\n      tag_42\n      tag_43\n      jump\t// in\n    tag_42:\n      mload(0x40)\n      tag_44\n      swap2\n      swap1\n      tag_45\n      jump\t// in\n    tag_44:\n      mload(0x40)\n      dup1\n      swap2\n      sub\n      swap1\n      return\n        /* \"contracts/betting.sol\":738:788  mapping (uint => allBets) public specificMatchBets */\n    tag_14:\n      mstore(0x20, 0x04)\n      dup1\n      0x00\n      mstore\n      keccak256(0x00, 0x40)\n      0x00\n      swap2\n      pop\n      swap1\n      pop\n      dup1\n      0x00\n      add\n      0x00\n      swap1\n      sload\n      swap1\n      0x0100\n      exp\n      swap1\n      div\n      0xffffffffffffffffffffffffffffffffffffffff\n      and\n      swap1\n      dup1\n      0x01\n      add\n      sload\n      swap1\n      dup1\n      0x02\n      add\n      0x00\n      swap1\n      sload\n      swap1\n      0x0100\n      exp\n      swap1\n      div\n      0xff\n      and\n      swap1\n      pop\n      dup4\n      jump\t// out\n        /* \"contracts/betting.sol\":409:452  mapping (uint => Match) public specificGame */\n    tag_19:\n      mstore(0x20, 0x01)\n      dup1\n      0x00\n      mstore\n      keccak256(0x00, 0x40)\n      0x00\n      swap2\n      pop\n      swap1\n      pop\n      dup1\n      0x00\n      add\n      dup1\n      sload\n      tag_46\n      swap1\n      tag_47\n      jump\t// in\n    tag_46:\n      dup1\n      0x1f\n      add\n      0x20\n      dup1\n      swap2\n      div\n      mul\n      0x20\n      add\n      mload(0x40)\n      swap1\n      dup2\n      add\n      0x40\n      mstore\n      dup1\n      swap3\n      swap2\n      swap1\n      dup2\n      dup2\n      mstore\n      0x20\n      add\n      dup3\n      dup1\n      sload\n      tag_48\n      swap1\n      tag_47\n      jump\t// in\n    tag_48:\n      dup1\n      iszero\n      tag_49\n      jumpi\n      dup1\n      0x1f\n      lt\n      tag_50\n      jumpi\n      0x0100\n      dup1\n      dup4\n      sload\n      div\n      mul\n      dup4\n      mstore\n      swap2\n      0x20\n      add\n      swap2\n      jump(tag_49)\n    tag_50:\n      dup3\n      add\n      swap2\n      swap1\n      0x00\n      mstore\n      keccak256(0x00, 0x20)\n      swap1\n    tag_51:\n      dup2\n      sload\n      dup2\n      mstore\n      swap1\n      0x01\n      add\n      swap1\n      0x20\n      add\n      dup1\n      dup4\n      gt\n      tag_51\n      jumpi\n      dup3\n      swap1\n      sub\n      0x1f\n      and\n      dup3\n      add\n      swap2\n    tag_49:\n      pop\n      pop\n      pop\n      pop\n      pop\n      swap1\n      dup1\n      0x01\n      add\n      dup1\n      sload\n      tag_52\n      swap1\n      tag_47\n      jump\t// in\n    tag_52:\n      dup1\n      0x1f\n      add\n      0x20\n      dup1\n      swap2\n      div\n      mul\n      0x20\n      add\n      mload(0x40)\n      swap1\n      dup2\n      add\n      0x40\n      mstore\n      dup1\n      swap3\n      swap2\n      swap1\n      dup2\n      dup2\n      mstore\n      0x20\n      add\n      dup3\n      dup1\n      sload\n      tag_53\n      swap1\n      tag_47\n      jump\t// in\n    tag_53:\n      dup1\n      iszero\n      tag_54\n      jumpi\n      dup1\n      0x1f\n      lt\n      tag_55\n      jumpi\n      0x0100\n      dup1\n      dup4\n      sload\n      div\n      mul\n      dup4\n      mstore\n      swap2\n      0x20\n      add\n      swap2\n      jump(tag_54)\n    tag_55:\n      dup3\n      add\n      swap2\n      swap1\n      0x00\n      mstore\n      keccak256(0x00, 0x20)\n      swap1\n    tag_56:\n      dup2\n      sload\n      dup2\n      mstore\n      swap1\n      0x01\n      add\n      swap1\n      0x20\n      add\n      dup1\n      dup4\n      gt\n      tag_56\n      jumpi\n      dup3\n      swap1\n      sub\n      0x1f\n      and\n      dup3\n      add\n      swap2\n    tag_54:\n      pop\n      pop\n      pop\n      pop\n      pop\n      swap1\n      dup1\n      0x02\n      add\n      sload\n      swap1\n      dup1\n      0x03\n      add\n      sload\n      swap1\n      dup1\n      0x04\n      add\n      mload(0x40)\n      dup1\n      0x40\n      add\n      0x40\n      mstore\n      swap1\n      dup2\n      0x00\n      dup3\n      add\n      sload\n      dup2\n      mstore\n      0x20\n      add\n      0x01\n      dup3\n      add\n      sload\n      dup2\n      mstore\n      pop\n      pop\n      swap1\n      pop\n      dup6\n      jump\t// out\n        /* \"contracts/betting.sol\":589:631  mapping (address => Bettor) public userBet */\n    tag_25:\n      mstore(0x20, 0x03)\n      dup1\n      0x00\n      mstore\n      keccak256(0x00, 0x40)\n      0x00\n      swap2\n      pop\n      swap1\n      pop\n      dup1\n      0x00\n      add\n      0x00\n      swap1\n      sload\n      swap1\n      0x0100\n      exp\n      swap1\n      div\n      0xff\n      and\n      swap1\n      dup1\n      0x01\n      add\n      sload\n      swap1\n      dup1\n      0x02\n      add\n      sload\n      swap1\n      pop\n      dup4\n      jump\t// out\n        /* \"contracts/betting.sol\":458:482  Match [] public allMatch */\n    tag_30:\n      0x02\n      dup2\n      dup2\n      sload\n      dup2\n      lt\n      tag_57\n      jumpi\n      0x00\n      dup1\n      revert\n    tag_57:\n      swap1\n      0x00\n      mstore\n      keccak256(0x00, 0x20)\n      swap1\n      0x06\n      mul\n      add\n      0x00\n      swap2\n      pop\n      swap1\n      pop\n      dup1\n      0x00\n      add\n      dup1\n      sload\n      tag_59\n      swap1\n      tag_47\n      jump\t// in\n    tag_59:\n      dup1\n      0x1f\n      add\n      0x20\n      dup1\n      swap2\n      div\n      mul\n      0x20\n      add\n      mload(0x40)\n      swap1\n      dup2\n      add\n      0x40\n      mstore\n      dup1\n      swap3\n      swap2\n      swap1\n      dup2\n      dup2\n      mstore\n      0x20\n      add\n      dup3\n      dup1\n      sload\n      tag_60\n      swap1\n      tag_47\n      jump\t// in\n    tag_60:\n      dup1\n      iszero\n      tag_61\n      jumpi\n      dup1\n      0x1f\n      lt\n      tag_62\n      jumpi\n      0x0100\n      dup1\n      dup4\n      sload\n      div\n      mul\n      dup4\n      mstore\n      swap2\n      0x20\n      add\n      swap2\n      jump(tag_61)\n    tag_62:\n      dup3\n      add\n      swap2\n      swap1\n      0x00\n      mstore\n      keccak256(0x00, 0x20)\n      swap1\n    tag_63:\n      dup2\n      sload\n      dup2\n      mstore\n      swap1\n      0x01\n      add\n      swap1\n      0x20\n      add\n      dup1\n      dup4\n      gt\n      tag_63\n      jumpi\n      dup3\n      swap1\n      sub\n      0x1f\n      and\n      dup3\n      add\n      swap2\n    tag_61:\n      pop\n      pop\n      pop\n      pop\n      pop\n      swap1\n      dup1\n      0x01\n      add\n      dup1\n      sload\n      tag_64\n      swap1\n      tag_47\n      jump\t// in\n    tag_64:\n      dup1\n      0x1f\n      add\n      0x20\n      dup1\n      swap2\n      div\n      mul\n      0x20\n      add\n      mload(0x40)\n      swap1\n      dup2\n      add\n      0x40\n      mstore\n      dup1\n      swap3\n      swap2\n      swap1\n      dup2\n      dup2\n      mstore\n      0x20\n      add\n      dup3\n      dup1\n      sload\n      tag_65\n      swap1\n      tag_47\n      jump\t// in\n    tag_65:\n      dup1\n      iszero\n      tag_66\n      jumpi\n      dup1\n      0x1f\n      lt\n      tag_67\n      jumpi\n      0x0100\n      dup1\n      dup4\n      sload\n      div\n      mul\n      dup4\n      mstore\n      swap2\n      0x20\n      add\n      swap2\n      jump(tag_66)\n    tag_67:\n      dup3\n      add\n      swap2\n      swap1\n      0x00\n      mstore\n      keccak256(0x00, 0x20)\n      swap1\n    tag_68:\n      dup2\n      sload\n      dup2\n      mstore\n      swap1\n      0x01\n      add\n      swap1\n      0x20\n      add\n      dup1\n      dup4\n      gt\n      tag_68\n      jumpi\n      dup3\n      swap1\n      sub\n      0x1f\n      and\n      dup3\n      add\n      swap2\n    tag_66:\n      pop\n      pop\n      pop\n      pop\n      pop\n      swap1\n      dup1\n      0x02\n      add\n      sload\n      swap1\n      dup1\n      0x03\n      add\n      sload\n      swap1\n      dup1\n      0x04\n      add\n      mload(0x40)\n      dup1\n      0x40\n      add\n      0x40\n      mstore\n      swap1\n      dup2\n      0x00\n      dup3\n      add\n      sload\n      dup2\n      mstore\n      0x20\n      add\n      0x01\n      dup3\n      add\n      sload\n      dup2\n      mstore\n      pop\n      pop\n      swap1\n      pop\n      dup6\n      jump\t// out\n        /* \"contracts/betting.sol\":858:1260  function instantiateMatch(string calldata _HomeTeam, string calldata _AwayTeam, uint _startTime) external returns (bool) {... */\n    tag_35:\n        /* \"contracts/betting.sol\":973:977  bool */\n      0x00\n        /* \"contracts/betting.sol\":1007:1017  msg.sender */\n      caller\n        /* \"contracts/betting.sol\":998:1017  admin == msg.sender */\n      0xffffffffffffffffffffffffffffffffffffffff\n      and\n        /* \"contracts/betting.sol\":998:1003  admin */\n      0x00\n      dup1\n      sload\n      swap1\n      0x0100\n      exp\n      swap1\n      div\n      0xffffffffffffffffffffffffffffffffffffffff\n      and\n        /* \"contracts/betting.sol\":998:1017  admin == msg.sender */\n      0xffffffffffffffffffffffffffffffffffffffff\n      and\n      eq\n        /* \"contracts/betting.sol\":990:1031  require(admin == msg.sender, \"Not Owner\") */\n      tag_70\n      jumpi\n      mload(0x40)\n      0x08c379a000000000000000000000000000000000000000000000000000000000\n      dup2\n      mstore\n      0x04\n      add\n      tag_71\n      swap1\n      tag_72\n      jump\t// in\n    tag_71:\n      mload(0x40)\n      dup1\n      swap2\n      sub\n      swap1\n      revert\n    tag_70:\n        /* \"contracts/betting.sol\":1042:1055  uint matchEnd */\n      0x00\n        /* \"contracts/betting.sol\":1071:1081  95 seconds */\n      0x5f\n        /* \"contracts/betting.sol\":1058:1068  _startTime */\n      dup4\n        /* \"contracts/betting.sol\":1058:1081  _startTime + 95 seconds */\n      tag_73\n      swap2\n      swap1\n      tag_74\n      jump\t// in\n    tag_73:\n        /* \"contracts/betting.sol\":1042:1081  uint matchEnd = _startTime + 95 seconds */\n      swap1\n      pop\n        /* \"contracts/betting.sol\":1092:1122  Results memory startingResults */\n      0x00\n        /* \"contracts/betting.sol\":1125:1138  Results(0, 0) */\n      mload(0x40)\n      dup1\n      0x40\n      add\n      0x40\n      mstore\n      dup1\n        /* \"contracts/betting.sol\":1133:1134  0 */\n      0x00\n        /* \"contracts/betting.sol\":1125:1138  Results(0, 0) */\n      dup2\n      mstore\n      0x20\n      add\n        /* \"contracts/betting.sol\":1136:1137  0 */\n      0x00\n        /* \"contracts/betting.sol\":1125:1138  Results(0, 0) */\n      dup2\n      mstore\n      pop\n        /* \"contracts/betting.sol\":1092:1138  Results memory startingResults = Results(0, 0) */\n      swap1\n      pop\n        /* \"contracts/betting.sol\":1149:1157  allMatch */\n      0x02\n        /* \"contracts/betting.sol\":1163:1229  Match(_HomeTeam, _AwayTeam, _startTime, matchEnd, startingResults) */\n      mload(0x40)\n      dup1\n      0xa0\n      add\n      0x40\n      mstore\n      dup1\n        /* \"contracts/betting.sol\":1169:1178  _HomeTeam */\n      dup11\n      dup11\n        /* \"contracts/betting.sol\":1163:1229  Match(_HomeTeam, _AwayTeam, _startTime, matchEnd, startingResults) */\n      dup1\n      dup1\n      0x1f\n      add\n      0x20\n      dup1\n      swap2\n      div\n      mul\n      0x20\n      add\n      mload(0x40)\n      swap1\n      dup2\n      add\n      0x40\n      mstore\n      dup1\n      swap4\n      swap3\n      swap2\n      swap1\n      dup2\n      dup2\n      mstore\n      0x20\n      add\n      dup4\n      dup4\n      dup1\n      dup3\n      dup5\n      calldatacopy\n      0x00\n      dup2\n      dup5\n      add\n      mstore\n      not(0x1f)\n      0x1f\n      dup3\n      add\n      and\n      swap1\n      pop\n      dup1\n      dup4\n      add\n      swap3\n      pop\n      pop\n      pop\n      pop\n      pop\n      pop\n      pop\n      dup2\n      mstore\n      0x20\n      add\n        /* \"contracts/betting.sol\":1180:1189  _AwayTeam */\n      dup9\n      dup9\n        /* \"contracts/betting.sol\":1163:1229  Match(_HomeTeam, _AwayTeam, _startTime, matchEnd, startingResults) */\n      dup1\n      dup1\n      0x1f\n      add\n      0x20\n      dup1\n      swap2\n      div\n      mul\n      0x20\n      add\n      mload(0x40)\n      swap1\n      dup2\n      add\n      0x40\n      mstore\n      dup1\n      swap4\n      swap3\n      swap2\n      swap1\n      dup2\n      dup2\n      mstore\n      0x20\n      add\n      dup4\n      dup4\n      dup1\n      dup3\n      dup5\n      calldatacopy\n      0x00\n      dup2\n      dup5\n      add\n      mstore\n      not(0x1f)\n      0x1f\n      dup3\n      add\n      and\n      swap1\n      pop\n      dup1\n      dup4\n      add\n      swap3\n      pop\n      pop\n      pop\n      pop\n      pop\n      pop\n      pop\n      dup2\n      mstore\n      0x20\n      add\n        /* \"contracts/betting.sol\":1191:1201  _startTime */\n      dup7\n        /* \"contracts/betting.sol\":1163:1229  Match(_HomeTeam, _AwayTeam, _startTime, matchEnd, startingResults) */\n      dup2\n      mstore\n      0x20\n      add\n        /* \"contracts/betting.sol\":1203:1211  matchEnd */\n      dup5\n        /* \"contracts/betting.sol\":1163:1229  Match(_HomeTeam, _AwayTeam, _startTime, matchEnd, startingResults) */\n      dup2\n      mstore\n      0x20\n      add\n        /* \"contracts/betting.sol\":1213:1228  startingResults */\n      dup4\n        /* \"contracts/betting.sol\":1163:1229  Match(_HomeTeam, _AwayTeam, _startTime, matchEnd, startingResults) */\n      dup2\n      mstore\n      pop\n        /* \"contracts/betting.sol\":1149:1230  allMatch.push(Match(_HomeTeam, _AwayTeam, _startTime, matchEnd, startingResults)) */\n      swap1\n      dup1\n      0x01\n      dup2\n      sload\n      add\n      dup1\n      dup3\n      sstore\n      dup1\n      swap2\n      pop\n      pop\n      0x01\n      swap1\n      sub\n      swap1\n      0x00\n      mstore\n      keccak256(0x00, 0x20)\n      swap1\n      0x06\n      mul\n      add\n      0x00\n      swap1\n      swap2\n      swap1\n      swap2\n      swap1\n      swap2\n      pop\n      0x00\n      dup3\n      add\n      mload\n      dup2\n      0x00\n      add\n      swap1\n      dup2\n      tag_76\n      swap2\n      swap1\n      tag_77\n      jump\t// in\n    tag_76:\n      pop\n      0x20\n      dup3\n      add\n      mload\n      dup2\n      0x01\n      add\n      swap1\n      dup2\n      tag_78\n      swap2\n      swap1\n      tag_77\n      jump\t// in\n    tag_78:\n      pop\n      0x40\n      dup3\n      add\n      mload\n      dup2\n      0x02\n      add\n      sstore\n      0x60\n      dup3\n      add\n      mload\n      dup2\n      0x03\n      add\n      sstore\n      0x80\n      dup3\n      add\n      mload\n      dup2\n      0x04\n      add\n      0x00\n      dup3\n      add\n      mload\n      dup2\n      0x00\n      add\n      sstore\n      0x20\n      dup3\n      add\n      mload\n      dup2\n      0x01\n      add\n      sstore\n      pop\n      pop\n      pop\n      pop\n        /* \"contracts/betting.sol\":1248:1252  true */\n      0x01\n        /* \"contracts/betting.sol\":1241:1252  return true */\n      swap3\n      pop\n      pop\n      pop\n        /* \"contracts/betting.sol\":858:1260  function instantiateMatch(string calldata _HomeTeam, string calldata _AwayTeam, uint _startTime) external returns (bool) {... */\n      swap6\n      swap5\n      pop\n      pop\n      pop\n      pop\n      pop\n      jump\t// out\n        /* \"contracts/betting.sol\":1268:1652  function closeMatch(uint epoch, uint _homeScore, uint _awayScore) external {... */\n    tag_41:\n        /* \"contracts/betting.sol\":1371:1381  msg.sender */\n      caller\n        /* \"contracts/betting.sol\":1362:1381  admin == msg.sender */\n      0xffffffffffffffffffffffffffffffffffffffff\n      and\n        /* \"contracts/betting.sol\":1362:1367  admin */\n      0x00\n      dup1\n      sload\n      swap1\n      0x0100\n      exp\n      swap1\n      div\n      0xffffffffffffffffffffffffffffffffffffffff\n      and\n        /* \"contracts/betting.sol\":1362:1381  admin == msg.sender */\n      0xffffffffffffffffffffffffffffffffffffffff\n      and\n      eq\n        /* \"contracts/betting.sol\":1354:1395  require(admin == msg.sender, \"Not Owner\") */\n      tag_80\n      jumpi\n      mload(0x40)\n      0x08c379a000000000000000000000000000000000000000000000000000000000\n      dup2\n      mstore\n      0x04\n      add\n      tag_81\n      swap1\n      tag_72\n      jump\t// in\n    tag_81:\n      mload(0x40)\n      dup1\n      swap2\n      sub\n      swap1\n      revert\n    tag_80:\n        /* \"contracts/betting.sol\":1406:1422  uint currentTime */\n      0x00\n        /* \"contracts/betting.sol\":1425:1440  block.timestamp */\n      timestamp\n        /* \"contracts/betting.sol\":1406:1440  uint currentTime = block.timestamp */\n      swap1\n      pop\n        /* \"contracts/betting.sol\":1474:1482  allMatch */\n      0x02\n        /* \"contracts/betting.sol\":1483:1488  epoch */\n      dup5\n        /* \"contracts/betting.sol\":1474:1489  allMatch[epoch] */\n      dup2\n      sload\n      dup2\n      lt\n      tag_82\n      jumpi\n      tag_83\n      tag_84\n      jump\t// in\n    tag_83:\n    tag_82:\n      swap1\n      0x00\n      mstore\n      keccak256(0x00, 0x20)\n      swap1\n      0x06\n      mul\n      add\n        /* \"contracts/betting.sol\":1474:1497  allMatch[epoch].endTime */\n      0x03\n      add\n      sload\n        /* \"contracts/betting.sol\":1459:1470  currentTime */\n      dup2\n        /* \"contracts/betting.sol\":1459:1497  currentTime >= allMatch[epoch].endTime */\n      lt\n      iszero\n        /* \"contracts/betting.sol\":1451:1519  require(currentTime >= allMatch[epoch].endTime, \"Match is still on\") */\n      tag_86\n      jumpi\n      mload(0x40)\n      0x08c379a000000000000000000000000000000000000000000000000000000000\n      dup2\n      mstore\n      0x04\n      add\n      tag_87\n      swap1\n      tag_88\n      jump\t// in\n    tag_87:\n      mload(0x40)\n      dup1\n      swap2\n      sub\n      swap1\n      revert\n    tag_86:\n        /* \"contracts/betting.sol\":1530:1559  Results memory closingResults */\n      0x00\n        /* \"contracts/betting.sol\":1562:1593  Results(_homeScore, _awayScore) */\n      mload(0x40)\n      dup1\n      0x40\n      add\n      0x40\n      mstore\n      dup1\n        /* \"contracts/betting.sol\":1570:1580  _homeScore */\n      dup6\n        /* \"contracts/betting.sol\":1562:1593  Results(_homeScore, _awayScore) */\n      dup2\n      mstore\n      0x20\n      add\n        /* \"contracts/betting.sol\":1582:1592  _awayScore */\n      dup5\n        /* \"contracts/betting.sol\":1562:1593  Results(_homeScore, _awayScore) */\n      dup2\n      mstore\n      pop\n        /* \"contracts/betting.sol\":1530:1593  Results memory closingResults = Results(_homeScore, _awayScore) */\n      swap1\n      pop\n        /* \"contracts/betting.sol\":1630:1644  closingResults */\n      dup1\n        /* \"contracts/betting.sol\":1604:1612  allMatch */\n      0x02\n        /* \"contracts/betting.sol\":1613:1618  epoch */\n      dup7\n        /* \"contracts/betting.sol\":1604:1619  allMatch[epoch] */\n      dup2\n      sload\n      dup2\n      lt\n      tag_89\n      jumpi\n      tag_90\n      tag_84\n      jump\t// in\n    tag_90:\n    tag_89:\n      swap1\n      0x00\n      mstore\n      keccak256(0x00, 0x20)\n      swap1\n      0x06\n      mul\n      add\n        /* \"contracts/betting.sol\":1604:1627  allMatch[epoch].results */\n      0x04\n      add\n        /* \"contracts/betting.sol\":1604:1644  allMatch[epoch].results = closingResults */\n      0x00\n      dup3\n      add\n      mload\n      dup2\n      0x00\n      add\n      sstore\n      0x20\n      dup3\n      add\n      mload\n      dup2\n      0x01\n      add\n      sstore\n      swap1\n      pop\n      pop\n        /* \"contracts/betting.sol\":1343:1652  {... */\n      pop\n      pop\n        /* \"contracts/betting.sol\":1268:1652  function closeMatch(uint epoch, uint _homeScore, uint _awayScore) external {... */\n      pop\n      pop\n      pop\n      jump\t// out\n        /* \"contracts/betting.sol\":148:168  address public admin */\n    tag_43:\n      0x00\n      dup1\n      sload\n      swap1\n      0x0100\n      exp\n      swap1\n      div\n      0xffffffffffffffffffffffffffffffffffffffff\n      and\n      dup2\n      jump\t// out\n        /* \"#utility.yul\":88:205   */\n    tag_93:\n        /* \"#utility.yul\":197:198   */\n      0x00\n        /* \"#utility.yul\":194:195   */\n      dup1\n        /* \"#utility.yul\":187:199   */\n      revert\n        /* \"#utility.yul\":211:328   */\n    tag_94:\n        /* \"#utility.yul\":320:321   */\n      0x00\n        /* \"#utility.yul\":317:318   */\n      dup1\n        /* \"#utility.yul\":310:322   */\n      revert\n        /* \"#utility.yul\":334:411   */\n    tag_95:\n        /* \"#utility.yul\":371:378   */\n      0x00\n        /* \"#utility.yul\":400:405   */\n      dup2\n        /* \"#utility.yul\":389:405   */\n      swap1\n      pop\n        /* \"#utility.yul\":334:411   */\n      swap2\n      swap1\n      pop\n      jump\t// out\n        /* \"#utility.yul\":417:539   */\n    tag_96:\n        /* \"#utility.yul\":490:514   */\n      tag_150\n        /* \"#utility.yul\":508:513   */\n      dup2\n        /* \"#utility.yul\":490:514   */\n      tag_95\n      jump\t// in\n    tag_150:\n        /* \"#utility.yul\":483:488   */\n      dup2\n        /* \"#utility.yul\":480:515   */\n      eq\n        /* \"#utility.yul\":470:533   */\n      tag_151\n      jumpi\n        /* \"#utility.yul\":529:530   */\n      0x00\n        /* \"#utility.yul\":526:527   */\n      dup1\n        /* \"#utility.yul\":519:531   */\n      revert\n        /* \"#utility.yul\":470:533   */\n    tag_151:\n        /* \"#utility.yul\":417:539   */\n      pop\n      jump\t// out\n        /* \"#utility.yul\":545:684   */\n    tag_97:\n        /* \"#utility.yul\":591:596   */\n      0x00\n        /* \"#utility.yul\":629:635   */\n      dup2\n        /* \"#utility.yul\":616:636   */\n      calldataload\n        /* \"#utility.yul\":607:636   */\n      swap1\n      pop\n        /* \"#utility.yul\":645:678   */\n      tag_153\n        /* \"#utility.yul\":672:677   */\n      dup2\n        /* \"#utility.yul\":645:678   */\n      tag_96\n      jump\t// in\n    tag_153:\n        /* \"#utility.yul\":545:684   */\n      swap3\n      swap2\n      pop\n      pop\n      jump\t// out\n        /* \"#utility.yul\":690:1019   */\n    tag_13:\n        /* \"#utility.yul\":749:755   */\n      0x00\n        /* \"#utility.yul\":798:800   */\n      0x20\n        /* \"#utility.yul\":786:795   */\n      dup3\n        /* \"#utility.yul\":777:784   */\n      dup5\n        /* \"#utility.yul\":773:796   */\n      sub\n        /* \"#utility.yul\":769:801   */\n      slt\n        /* \"#utility.yul\":766:885   */\n      iszero\n      tag_155\n      jumpi\n        /* \"#utility.yul\":804:883   */\n      tag_156\n      tag_93\n      jump\t// in\n    tag_156:\n        /* \"#utility.yul\":766:885   */\n    tag_155:\n        /* \"#utility.yul\":924:925   */\n      0x00\n        /* \"#utility.yul\":949:1002   */\n      tag_157\n        /* \"#utility.yul\":994:1001   */\n      dup5\n        /* \"#utility.yul\":985:991   */\n      dup3\n        /* \"#utility.yul\":974:983   */\n      dup6\n        /* \"#utility.yul\":970:992   */\n      add\n        /* \"#utility.yul\":949:1002   */\n      tag_97\n      jump\t// in\n    tag_157:\n        /* \"#utility.yul\":939:1002   */\n      swap2\n      pop\n        /* \"#utility.yul\":895:1012   */\n      pop\n        /* \"#utility.yul\":690:1019   */\n      swap3\n      swap2\n      pop\n      pop\n      jump\t// out\n        /* \"#utility.yul\":1025:1151   */\n    tag_98:\n        /* \"#utility.yul\":1062:1069   */\n      0x00\n        /* \"#utility.yul\":1102:1144   */\n      0xffffffffffffffffffffffffffffffffffffffff\n        /* \"#utility.yul\":1095:1100   */\n      dup3\n        /* \"#utility.yul\":1091:1145   */\n      and\n        /* \"#utility.yul\":1080:1145   */\n      swap1\n      pop\n        /* \"#utility.yul\":1025:1151   */\n      swap2\n      swap1\n      pop\n      jump\t// out\n        /* \"#utility.yul\":1157:1253   */\n    tag_99:\n        /* \"#utility.yul\":1194:1201   */\n      0x00\n        /* \"#utility.yul\":1223:1247   */\n      tag_160\n        /* \"#utility.yul\":1241:1246   */\n      dup3\n        /* \"#utility.yul\":1223:1247   */\n      tag_98\n      jump\t// in\n    tag_160:\n        /* \"#utility.yul\":1212:1247   */\n      swap1\n      pop\n        /* \"#utility.yul\":1157:1253   */\n      swap2\n      swap1\n      pop\n      jump\t// out\n        /* \"#utility.yul\":1259:1377   */\n    tag_100:\n        /* \"#utility.yul\":1346:1370   */\n      tag_162\n        /* \"#utility.yul\":1364:1369   */\n      dup2\n        /* \"#utility.yul\":1346:1370   */\n      tag_99\n      jump\t// in\n    tag_162:\n        /* \"#utility.yul\":1341:1344   */\n      dup3\n        /* \"#utility.yul\":1334:1371   */\n      mstore\n        /* \"#utility.yul\":1259:1377   */\n      pop\n      pop\n      jump\t// out\n        /* \"#utility.yul\":1383:1501   */\n    tag_101:\n        /* \"#utility.yul\":1470:1494   */\n      tag_164\n        /* \"#utility.yul\":1488:1493   */\n      dup2\n        /* \"#utility.yul\":1470:1494   */\n      tag_95\n      jump\t// in\n    tag_164:\n        /* \"#utility.yul\":1465:1468   */\n      dup3\n        /* \"#utility.yul\":1458:1495   */\n      mstore\n        /* \"#utility.yul\":1383:1501   */\n      pop\n      pop\n      jump\t// out\n        /* \"#utility.yul\":1507:1687   */\n    tag_102:\n        /* \"#utility.yul\":1555:1632   */\n      0x4e487b7100000000000000000000000000000000000000000000000000000000\n        /* \"#utility.yul\":1552:1553   */\n      0x00\n        /* \"#utility.yul\":1545:1633   */\n      mstore\n        /* \"#utility.yul\":1652:1656   */\n      0x21\n        /* \"#utility.yul\":1649:1650   */\n      0x04\n        /* \"#utility.yul\":1642:1657   */\n      mstore\n        /* \"#utility.yul\":1676:1680   */\n      0x24\n        /* \"#utility.yul\":1673:1674   */\n      0x00\n        /* \"#utility.yul\":1666:1681   */\n      revert\n        /* \"#utility.yul\":1693:1807   */\n    tag_103:\n        /* \"#utility.yul\":1775:1776   */\n      0x04\n        /* \"#utility.yul\":1768:1773   */\n      dup2\n        /* \"#utility.yul\":1765:1777   */\n      lt\n        /* \"#utility.yul\":1755:1801   */\n      tag_167\n      jumpi\n        /* \"#utility.yul\":1781:1799   */\n      tag_168\n      tag_102\n      jump\t// in\n    tag_168:\n        /* \"#utility.yul\":1755:1801   */\n    tag_167:\n        /* \"#utility.yul\":1693:1807   */\n      pop\n      jump\t// out\n        /* \"#utility.yul\":1813:1942   */\n    tag_104:\n        /* \"#utility.yul\":1859:1866   */\n      0x00\n        /* \"#utility.yul\":1888:1893   */\n      dup2\n        /* \"#utility.yul\":1877:1893   */\n      swap1\n      pop\n        /* \"#utility.yul\":1894:1936   */\n      tag_170\n        /* \"#utility.yul\":1930:1935   */\n      dup3\n        /* \"#utility.yul\":1894:1936   */\n      tag_103\n      jump\t// in\n    tag_170:\n        /* \"#utility.yul\":1813:1942   */\n      swap2\n      swap1\n      pop\n      jump\t// out\n        /* \"#utility.yul\":1948:2077   */\n    tag_105:\n        /* \"#utility.yul\":2005:2014   */\n      0x00\n        /* \"#utility.yul\":2038:2071   */\n      tag_172\n        /* \"#utility.yul\":2065:2070   */\n      dup3\n        /* \"#utility.yul\":2038:2071   */\n      tag_104\n      jump\t// in\n    tag_172:\n        /* \"#utility.yul\":2025:2071   */\n      swap1\n      pop\n        /* \"#utility.yul\":1948:2077   */\n      swap2\n      swap1\n      pop\n      jump\t// out\n        /* \"#utility.yul\":2083:2228   */\n    tag_106:\n        /* \"#utility.yul\":2177:2221   */\n      tag_174\n        /* \"#utility.yul\":2215:2220   */\n      dup2\n        /* \"#utility.yul\":2177:2221   */\n      tag_105\n      jump\t// in\n    tag_174:\n        /* \"#utility.yul\":2172:2175   */\n      dup3\n        /* \"#utility.yul\":2165:2222   */\n      mstore\n        /* \"#utility.yul\":2083:2228   */\n      pop\n      pop\n      jump\t// out\n        /* \"#utility.yul\":2234:2690   */\n    tag_16:\n        /* \"#utility.yul\":2390:2394   */\n      0x00\n        /* \"#utility.yul\":2428:2430   */\n      0x60\n        /* \"#utility.yul\":2417:2426   */\n      dup3\n        /* \"#utility.yul\":2413:2431   */\n      add\n        /* \"#utility.yul\":2405:2431   */\n      swap1\n      pop\n        /* \"#utility.yul\":2441:2512   */\n      tag_176\n        /* \"#utility.yul\":2509:2510   */\n      0x00\n        /* \"#utility.yul\":2498:2507   */\n      dup4\n        /* \"#utility.yul\":2494:2511   */\n      add\n        /* \"#utility.yul\":2485:2491   */\n      dup7\n        /* \"#utility.yul\":2441:2512   */\n      tag_100\n      jump\t// in\n    tag_176:\n        /* \"#utility.yul\":2522:2594   */\n      tag_177\n        /* \"#utility.yul\":2590:2592   */\n      0x20\n        /* \"#utility.yul\":2579:2588   */\n      dup4\n        /* \"#utility.yul\":2575:2593   */\n      add\n        /* \"#utility.yul\":2566:2572   */\n      dup6\n        /* \"#utility.yul\":2522:2594   */\n      tag_101\n      jump\t// in\n    tag_177:\n        /* \"#utility.yul\":2604:2683   */\n      tag_178\n        /* \"#utility.yul\":2679:2681   */\n      0x40\n        /* \"#utility.yul\":2668:2677   */\n      dup4\n        /* \"#utility.yul\":2664:2682   */\n      add\n        /* \"#utility.yul\":2655:2661   */\n      dup5\n        /* \"#utility.yul\":2604:2683   */\n      tag_106\n      jump\t// in\n    tag_178:\n        /* \"#utility.yul\":2234:2690   */\n      swap5\n      swap4\n      pop\n      pop\n      pop\n      pop\n      jump\t// out\n        /* \"#utility.yul\":2696:2795   */\n    tag_107:\n        /* \"#utility.yul\":2748:2754   */\n      0x00\n        /* \"#utility.yul\":2782:2787   */\n      dup2\n        /* \"#utility.yul\":2776:2788   */\n      mload\n        /* \"#utility.yul\":2766:2788   */\n      swap1\n      pop\n        /* \"#utility.yul\":2696:2795   */\n      swap2\n      swap1\n      pop\n      jump\t// out\n        /* \"#utility.yul\":2801:2970   */\n    tag_108:\n        /* \"#utility.yul\":2885:2896   */\n      0x00\n        /* \"#utility.yul\":2919:2925   */\n      dup3\n        /* \"#utility.yul\":2914:2917   */\n      dup3\n        /* \"#utility.yul\":2907:2926   */\n      mstore\n        /* \"#utility.yul\":2959:2963   */\n      0x20\n        /* \"#utility.yul\":2954:2957   */\n      dup3\n        /* \"#utility.yul\":2950:2964   */\n      add\n        /* \"#utility.yul\":2935:2964   */\n      swap1\n      pop\n        /* \"#utility.yul\":2801:2970   */\n      swap3\n      swap2\n      pop\n      pop\n      jump\t// out\n        /* \"#utility.yul\":2976:3222   */\n    tag_109:\n        /* \"#utility.yul\":3057:3058   */\n      0x00\n        /* \"#utility.yul\":3067:3180   */\n    tag_182:\n        /* \"#utility.yul\":3081:3087   */\n      dup4\n        /* \"#utility.yul\":3078:3079   */\n      dup2\n        /* \"#utility.yul\":3075:3088   */\n      lt\n        /* \"#utility.yul\":3067:3180   */\n      iszero\n      tag_184\n      jumpi\n        /* \"#utility.yul\":3166:3167   */\n      dup1\n        /* \"#utility.yul\":3161:3164   */\n      dup3\n        /* \"#utility.yul\":3157:3168   */\n      add\n        /* \"#utility.yul\":3151:3169   */\n      mload\n        /* \"#utility.yul\":3147:3148   */\n      dup2\n        /* \"#utility.yul\":3142:3145   */\n      dup5\n        /* \"#utility.yul\":3138:3149   */\n      add\n        /* \"#utility.yul\":3131:3170   */\n      mstore\n        /* \"#utility.yul\":3103:3105   */\n      0x20\n        /* \"#utility.yul\":3100:3101   */\n      dup2\n        /* \"#utility.yul\":3096:3106   */\n      add\n        /* \"#utility.yul\":3091:3106   */\n      swap1\n      pop\n        /* \"#utility.yul\":3067:3180   */\n      jump(tag_182)\n    tag_184:\n        /* \"#utility.yul\":3214:3215   */\n      0x00\n        /* \"#utility.yul\":3205:3211   */\n      dup5\n        /* \"#utility.yul\":3200:3203   */\n      dup5\n        /* \"#utility.yul\":3196:3212   */\n      add\n        /* \"#utility.yul\":3189:3216   */\n      mstore\n        /* \"#utility.yul\":3038:3222   */\n      pop\n        /* \"#utility.yul\":2976:3222   */\n      pop\n      pop\n      pop\n      jump\t// out\n        /* \"#utility.yul\":3228:3330   */\n    tag_110:\n        /* \"#utility.yul\":3269:3275   */\n      0x00\n        /* \"#utility.yul\":3320:3322   */\n      0x1f\n        /* \"#utility.yul\":3316:3323   */\n      not\n        /* \"#utility.yul\":3311:3313   */\n      0x1f\n        /* \"#utility.yul\":3304:3309   */\n      dup4\n        /* \"#utility.yul\":3300:3314   */\n      add\n        /* \"#utility.yul\":3296:3324   */\n      and\n        /* \"#utility.yul\":3286:3324   */\n      swap1\n      pop\n        /* \"#utility.yul\":3228:3330   */\n      swap2\n      swap1\n      pop\n      jump\t// out\n        /* \"#utility.yul\":3336:3713   */\n    tag_111:\n        /* \"#utility.yul\":3424:3427   */\n      0x00\n        /* \"#utility.yul\":3452:3491   */\n      tag_187\n        /* \"#utility.yul\":3485:3490   */\n      dup3\n        /* \"#utility.yul\":3452:3491   */\n      tag_107\n      jump\t// in\n    tag_187:\n        /* \"#utility.yul\":3507:3578   */\n      tag_188\n        /* \"#utility.yul\":3571:3577   */\n      dup2\n        /* \"#utility.yul\":3566:3569   */\n      dup6\n        /* \"#utility.yul\":3507:3578   */\n      tag_108\n      jump\t// in\n    tag_188:\n        /* \"#utility.yul\":3500:3578   */\n      swap4\n      pop\n        /* \"#utility.yul\":3587:3652   */\n      tag_189\n        /* \"#utility.yul\":3645:3651   */\n      dup2\n        /* \"#utility.yul\":3640:3643   */\n      dup6\n        /* \"#utility.yul\":3633:3637   */\n      0x20\n        /* \"#utility.yul\":3626:3631   */\n      dup7\n        /* \"#utility.yul\":3622:3638   */\n      add\n        /* \"#utility.yul\":3587:3652   */\n      tag_109\n      jump\t// in\n    tag_189:\n        /* \"#utility.yul\":3677:3706   */\n      tag_190\n        /* \"#utility.yul\":3699:3705   */\n      dup2\n        /* \"#utility.yul\":3677:3706   */\n      tag_110\n      jump\t// in\n    tag_190:\n        /* \"#utility.yul\":3672:3675   */\n      dup5\n        /* \"#utility.yul\":3668:3707   */\n      add\n        /* \"#utility.yul\":3661:3707   */\n      swap2\n      pop\n        /* \"#utility.yul\":3428:3713   */\n      pop\n        /* \"#utility.yul\":3336:3713   */\n      swap3\n      swap2\n      pop\n      pop\n      jump\t// out\n        /* \"#utility.yul\":3719:3827   */\n    tag_112:\n        /* \"#utility.yul\":3796:3820   */\n      tag_192\n        /* \"#utility.yul\":3814:3819   */\n      dup2\n        /* \"#utility.yul\":3796:3820   */\n      tag_95\n      jump\t// in\n    tag_192:\n        /* \"#utility.yul\":3791:3794   */\n      dup3\n        /* \"#utility.yul\":3784:3821   */\n      mstore\n        /* \"#utility.yul\":3719:3827   */\n      pop\n      pop\n      jump\t// out\n        /* \"#utility.yul\":3901:4416   */\n    tag_113:\n        /* \"#utility.yul\":4044:4048   */\n      0x40\n        /* \"#utility.yul\":4039:4042   */\n      dup3\n        /* \"#utility.yul\":4035:4049   */\n      add\n        /* \"#utility.yul\":4137:4141   */\n      0x00\n        /* \"#utility.yul\":4130:4135   */\n      dup3\n        /* \"#utility.yul\":4126:4142   */\n      add\n        /* \"#utility.yul\":4120:4143   */\n      mload\n        /* \"#utility.yul\":4156:4219   */\n      tag_194\n        /* \"#utility.yul\":4213:4217   */\n      0x00\n        /* \"#utility.yul\":4208:4211   */\n      dup6\n        /* \"#utility.yul\":4204:4218   */\n      add\n        /* \"#utility.yul\":4190:4202   */\n      dup3\n        /* \"#utility.yul\":4156:4219   */\n      tag_112\n      jump\t// in\n    tag_194:\n        /* \"#utility.yul\":4059:4229   */\n      pop\n        /* \"#utility.yul\":4317:4321   */\n      0x20\n        /* \"#utility.yul\":4310:4315   */\n      dup3\n        /* \"#utility.yul\":4306:4322   */\n      add\n        /* \"#utility.yul\":4300:4323   */\n      mload\n        /* \"#utility.yul\":4336:4399   */\n      tag_195\n        /* \"#utility.yul\":4393:4397   */\n      0x20\n        /* \"#utility.yul\":4388:4391   */\n      dup6\n        /* \"#utility.yul\":4384:4398   */\n      add\n        /* \"#utility.yul\":4370:4382   */\n      dup3\n        /* \"#utility.yul\":4336:4399   */\n      tag_112\n      jump\t// in\n    tag_195:\n        /* \"#utility.yul\":4239:4409   */\n      pop\n        /* \"#utility.yul\":4013:4416   */\n      pop\n        /* \"#utility.yul\":3901:4416   */\n      pop\n      pop\n      jump\t// out\n        /* \"#utility.yul\":4422:5360   */\n    tag_21:\n        /* \"#utility.yul\":4713:4717   */\n      0x00\n        /* \"#utility.yul\":4751:4754   */\n      0xc0\n        /* \"#utility.yul\":4740:4749   */\n      dup3\n        /* \"#utility.yul\":4736:4755   */\n      add\n        /* \"#utility.yul\":4728:4755   */\n      swap1\n      pop\n        /* \"#utility.yul\":4801:4810   */\n      dup2\n        /* \"#utility.yul\":4795:4799   */\n      dup2\n        /* \"#utility.yul\":4791:4811   */\n      sub\n        /* \"#utility.yul\":4787:4788   */\n      0x00\n        /* \"#utility.yul\":4776:4785   */\n      dup4\n        /* \"#utility.yul\":4772:4789   */\n      add\n        /* \"#utility.yul\":4765:4812   */\n      mstore\n        /* \"#utility.yul\":4829:4907   */\n      tag_197\n        /* \"#utility.yul\":4902:4906   */\n      dup2\n        /* \"#utility.yul\":4893:4899   */\n      dup9\n        /* \"#utility.yul\":4829:4907   */\n      tag_111\n      jump\t// in\n    tag_197:\n        /* \"#utility.yul\":4821:4907   */\n      swap1\n      pop\n        /* \"#utility.yul\":4954:4963   */\n      dup2\n        /* \"#utility.yul\":4948:4952   */\n      dup2\n        /* \"#utility.yul\":4944:4964   */\n      sub\n        /* \"#utility.yul\":4939:4941   */\n      0x20\n        /* \"#utility.yul\":4928:4937   */\n      dup4\n        /* \"#utility.yul\":4924:4942   */\n      add\n        /* \"#utility.yul\":4917:4965   */\n      mstore\n        /* \"#utility.yul\":4982:5060   */\n      tag_198\n        /* \"#utility.yul\":5055:5059   */\n      dup2\n        /* \"#utility.yul\":5046:5052   */\n      dup8\n        /* \"#utility.yul\":4982:5060   */\n      tag_111\n      jump\t// in\n    tag_198:\n        /* \"#utility.yul\":4974:5060   */\n      swap1\n      pop\n        /* \"#utility.yul\":5070:5142   */\n      tag_199\n        /* \"#utility.yul\":5138:5140   */\n      0x40\n        /* \"#utility.yul\":5127:5136   */\n      dup4\n        /* \"#utility.yul\":5123:5141   */\n      add\n        /* \"#utility.yul\":5114:5120   */\n      dup7\n        /* \"#utility.yul\":5070:5142   */\n      tag_101\n      jump\t// in\n    tag_199:\n        /* \"#utility.yul\":5152:5224   */\n      tag_200\n        /* \"#utility.yul\":5220:5222   */\n      0x60\n        /* \"#utility.yul\":5209:5218   */\n      dup4\n        /* \"#utility.yul\":5205:5223   */\n      add\n        /* \"#utility.yul\":5196:5202   */\n      dup6\n        /* \"#utility.yul\":5152:5224   */\n      tag_101\n      jump\t// in\n    tag_200:\n        /* \"#utility.yul\":5234:5353   */\n      tag_201\n        /* \"#utility.yul\":5348:5351   */\n      0x80\n        /* \"#utility.yul\":5337:5346   */\n      dup4\n        /* \"#utility.yul\":5333:5352   */\n      add\n        /* \"#utility.yul\":5324:5330   */\n      dup5\n        /* \"#utility.yul\":5234:5353   */\n      tag_113\n      jump\t// in\n    tag_201:\n        /* \"#utility.yul\":4422:5360   */\n      swap7\n      swap6\n      pop\n      pop\n      pop\n      pop\n      pop\n      pop\n      jump\t// out\n        /* \"#utility.yul\":5366:5488   */\n    tag_114:\n        /* \"#utility.yul\":5439:5463   */\n      tag_203\n        /* \"#utility.yul\":5457:5462   */\n      dup2\n        /* \"#utility.yul\":5439:5463   */\n      tag_99\n      jump\t// in\n    tag_203:\n        /* \"#utility.yul\":5432:5437   */\n      dup2\n        /* \"#utility.yul\":5429:5464   */\n      eq\n        /* \"#utility.yul\":5419:5482   */\n      tag_204\n      jumpi\n        /* \"#utility.yul\":5478:5479   */\n      0x00\n        /* \"#utility.yul\":5475:5476   */\n      dup1\n        /* \"#utility.yul\":5468:5480   */\n      revert\n        /* \"#utility.yul\":5419:5482   */\n    tag_204:\n        /* \"#utility.yul\":5366:5488   */\n      pop\n      jump\t// out\n        /* \"#utility.yul\":5494:5633   */\n    tag_115:\n        /* \"#utility.yul\":5540:5545   */\n      0x00\n        /* \"#utility.yul\":5578:5584   */\n      dup2\n        /* \"#utility.yul\":5565:5585   */\n      calldataload\n        /* \"#utility.yul\":5556:5585   */\n      swap1\n      pop\n        /* \"#utility.yul\":5594:5627   */\n      tag_206\n        /* \"#utility.yul\":5621:5626   */\n      dup2\n        /* \"#utility.yul\":5594:5627   */\n      tag_114\n      jump\t// in\n    tag_206:\n        /* \"#utility.yul\":5494:5633   */\n      swap3\n      swap2\n      pop\n      pop\n      jump\t// out\n        /* \"#utility.yul\":5639:5968   */\n    tag_24:\n        /* \"#utility.yul\":5698:5704   */\n      0x00\n        /* \"#utility.yul\":5747:5749   */\n      0x20\n        /* \"#utility.yul\":5735:5744   */\n      dup3\n        /* \"#utility.yul\":5726:5733   */\n      dup5\n        /* \"#utility.yul\":5722:5745   */\n      sub\n        /* \"#utility.yul\":5718:5750   */\n      slt\n        /* \"#utility.yul\":5715:5834   */\n      iszero\n      tag_208\n      jumpi\n        /* \"#utility.yul\":5753:5832   */\n      tag_209\n      tag_93\n      jump\t// in\n    tag_209:\n        /* \"#utility.yul\":5715:5834   */\n    tag_208:\n        /* \"#utility.yul\":5873:5874   */\n      0x00\n        /* \"#utility.yul\":5898:5951   */\n      tag_210\n        /* \"#utility.yul\":5943:5950   */\n      dup5\n        /* \"#utility.yul\":5934:5940   */\n      dup3\n        /* \"#utility.yul\":5923:5932   */\n      dup6\n        /* \"#utility.yul\":5919:5941   */\n      add\n        /* \"#utility.yul\":5898:5951   */\n      tag_115\n      jump\t// in\n    tag_210:\n        /* \"#utility.yul\":5888:5951   */\n      swap2\n      pop\n        /* \"#utility.yul\":5844:5961   */\n      pop\n        /* \"#utility.yul\":5639:5968   */\n      swap3\n      swap2\n      pop\n      pop\n      jump\t// out\n        /* \"#utility.yul\":5974:6430   */\n    tag_27:\n        /* \"#utility.yul\":6130:6134   */\n      0x00\n        /* \"#utility.yul\":6168:6170   */\n      0x60\n        /* \"#utility.yul\":6157:6166   */\n      dup3\n        /* \"#utility.yul\":6153:6171   */\n      add\n        /* \"#utility.yul\":6145:6171   */\n      swap1\n      pop\n        /* \"#utility.yul\":6181:6259   */\n      tag_212\n        /* \"#utility.yul\":6256:6257   */\n      0x00\n        /* \"#utility.yul\":6245:6254   */\n      dup4\n        /* \"#utility.yul\":6241:6258   */\n      add\n        /* \"#utility.yul\":6232:6238   */\n      dup7\n        /* \"#utility.yul\":6181:6259   */\n      tag_106\n      jump\t// in\n    tag_212:\n        /* \"#utility.yul\":6269:6341   */\n      tag_213\n        /* \"#utility.yul\":6337:6339   */\n      0x20\n        /* \"#utility.yul\":6326:6335   */\n      dup4\n        /* \"#utility.yul\":6322:6340   */\n      add\n        /* \"#utility.yul\":6313:6319   */\n      dup6\n        /* \"#utility.yul\":6269:6341   */\n      tag_101\n      jump\t// in\n    tag_213:\n        /* \"#utility.yul\":6351:6423   */\n      tag_214\n        /* \"#utility.yul\":6419:6421   */\n      0x40\n        /* \"#utility.yul\":6408:6417   */\n      dup4\n        /* \"#utility.yul\":6404:6422   */\n      add\n        /* \"#utility.yul\":6395:6401   */\n      dup5\n        /* \"#utility.yul\":6351:6423   */\n      tag_101\n      jump\t// in\n    tag_214:\n        /* \"#utility.yul\":5974:6430   */\n      swap5\n      swap4\n      pop\n      pop\n      pop\n      pop\n      jump\t// out\n        /* \"#utility.yul\":6436:6553   */\n    tag_116:\n        /* \"#utility.yul\":6545:6546   */\n      0x00\n        /* \"#utility.yul\":6542:6543   */\n      dup1\n        /* \"#utility.yul\":6535:6547   */\n      revert\n        /* \"#utility.yul\":6559:6676   */\n    tag_117:\n        /* \"#utility.yul\":6668:6669   */\n      0x00\n        /* \"#utility.yul\":6665:6666   */\n      dup1\n        /* \"#utility.yul\":6658:6670   */\n      revert\n        /* \"#utility.yul\":6682:6799   */\n    tag_118:\n        /* \"#utility.yul\":6791:6792   */\n      0x00\n        /* \"#utility.yul\":6788:6789   */\n      dup1\n        /* \"#utility.yul\":6781:6793   */\n      revert\n        /* \"#utility.yul\":6819:7372   */\n    tag_119:\n        /* \"#utility.yul\":6877:6885   */\n      0x00\n        /* \"#utility.yul\":6887:6893   */\n      dup1\n        /* \"#utility.yul\":6937:6940   */\n      dup4\n        /* \"#utility.yul\":6930:6934   */\n      0x1f\n        /* \"#utility.yul\":6922:6928   */\n      dup5\n        /* \"#utility.yul\":6918:6935   */\n      add\n        /* \"#utility.yul\":6914:6941   */\n      slt\n        /* \"#utility.yul\":6904:7026   */\n      tag_219\n      jumpi\n        /* \"#utility.yul\":6945:7024   */\n      tag_220\n      tag_116\n      jump\t// in\n    tag_220:\n        /* \"#utility.yul\":6904:7026   */\n    tag_219:\n        /* \"#utility.yul\":7058:7064   */\n      dup3\n        /* \"#utility.yul\":7045:7065   */\n      calldataload\n        /* \"#utility.yul\":7035:7065   */\n      swap1\n      pop\n        /* \"#utility.yul\":7088:7106   */\n      0xffffffffffffffff\n        /* \"#utility.yul\":7080:7086   */\n      dup2\n        /* \"#utility.yul\":7077:7107   */\n      gt\n        /* \"#utility.yul\":7074:7191   */\n      iszero\n      tag_221\n      jumpi\n        /* \"#utility.yul\":7110:7189   */\n      tag_222\n      tag_117\n      jump\t// in\n    tag_222:\n        /* \"#utility.yul\":7074:7191   */\n    tag_221:\n        /* \"#utility.yul\":7224:7228   */\n      0x20\n        /* \"#utility.yul\":7216:7222   */\n      dup4\n        /* \"#utility.yul\":7212:7229   */\n      add\n        /* \"#utility.yul\":7200:7229   */\n      swap2\n      pop\n        /* \"#utility.yul\":7278:7281   */\n      dup4\n        /* \"#utility.yul\":7270:7274   */\n      0x01\n        /* \"#utility.yul\":7262:7268   */\n      dup3\n        /* \"#utility.yul\":7258:7275   */\n      mul\n        /* \"#utility.yul\":7248:7256   */\n      dup4\n        /* \"#utility.yul\":7244:7276   */\n      add\n        /* \"#utility.yul\":7241:7282   */\n      gt\n        /* \"#utility.yul\":7238:7366   */\n      iszero\n      tag_223\n      jumpi\n        /* \"#utility.yul\":7285:7364   */\n      tag_224\n      tag_118\n      jump\t// in\n    tag_224:\n        /* \"#utility.yul\":7238:7366   */\n    tag_223:\n        /* \"#utility.yul\":6819:7372   */\n      swap3\n      pop\n      swap3\n      swap1\n      pop\n      jump\t// out\n        /* \"#utility.yul\":7378:8397   */\n    tag_34:\n        /* \"#utility.yul\":7479:7485   */\n      0x00\n        /* \"#utility.yul\":7487:7493   */\n      dup1\n        /* \"#utility.yul\":7495:7501   */\n      0x00\n        /* \"#utility.yul\":7503:7509   */\n      dup1\n        /* \"#utility.yul\":7511:7517   */\n      0x00\n        /* \"#utility.yul\":7560:7562   */\n      0x60\n        /* \"#utility.yul\":7548:7557   */\n      dup7\n        /* \"#utility.yul\":7539:7546   */\n      dup9\n        /* \"#utility.yul\":7535:7558   */\n      sub\n        /* \"#utility.yul\":7531:7563   */\n      slt\n        /* \"#utility.yul\":7528:7647   */\n      iszero\n      tag_226\n      jumpi\n        /* \"#utility.yul\":7566:7645   */\n      tag_227\n      tag_93\n      jump\t// in\n    tag_227:\n        /* \"#utility.yul\":7528:7647   */\n    tag_226:\n        /* \"#utility.yul\":7714:7715   */\n      0x00\n        /* \"#utility.yul\":7703:7712   */\n      dup7\n        /* \"#utility.yul\":7699:7716   */\n      add\n        /* \"#utility.yul\":7686:7717   */\n      calldataload\n        /* \"#utility.yul\":7744:7762   */\n      0xffffffffffffffff\n        /* \"#utility.yul\":7736:7742   */\n      dup2\n        /* \"#utility.yul\":7733:7763   */\n      gt\n        /* \"#utility.yul\":7730:7847   */\n      iszero\n      tag_228\n      jumpi\n        /* \"#utility.yul\":7766:7845   */\n      tag_229\n      tag_94\n      jump\t// in\n    tag_229:\n        /* \"#utility.yul\":7730:7847   */\n    tag_228:\n        /* \"#utility.yul\":7879:7944   */\n      tag_230\n        /* \"#utility.yul\":7936:7943   */\n      dup9\n        /* \"#utility.yul\":7927:7933   */\n      dup3\n        /* \"#utility.yul\":7916:7925   */\n      dup10\n        /* \"#utility.yul\":7912:7934   */\n      add\n        /* \"#utility.yul\":7879:7944   */\n      tag_119\n      jump\t// in\n    tag_230:\n        /* \"#utility.yul\":7861:7944   */\n      swap6\n      pop\n      swap6\n      pop\n        /* \"#utility.yul\":7657:7954   */\n      pop\n        /* \"#utility.yul\":8021:8023   */\n      0x20\n        /* \"#utility.yul\":8010:8019   */\n      dup7\n        /* \"#utility.yul\":8006:8024   */\n      add\n        /* \"#utility.yul\":7993:8025   */\n      calldataload\n        /* \"#utility.yul\":8052:8070   */\n      0xffffffffffffffff\n        /* \"#utility.yul\":8044:8050   */\n      dup2\n        /* \"#utility.yul\":8041:8071   */\n      gt\n        /* \"#utility.yul\":8038:8155   */\n      iszero\n      tag_231\n      jumpi\n        /* \"#utility.yul\":8074:8153   */\n      tag_232\n      tag_94\n      jump\t// in\n    tag_232:\n        /* \"#utility.yul\":8038:8155   */\n    tag_231:\n        /* \"#utility.yul\":8187:8252   */\n      tag_233\n        /* \"#utility.yul\":8244:8251   */\n      dup9\n        /* \"#utility.yul\":8235:8241   */\n      dup3\n        /* \"#utility.yul\":8224:8233   */\n      dup10\n        /* \"#utility.yul\":8220:8242   */\n      add\n        /* \"#utility.yul\":8187:8252   */\n      tag_119\n      jump\t// in\n    tag_233:\n        /* \"#utility.yul\":8169:8252   */\n      swap4\n      pop\n      swap4\n      pop\n        /* \"#utility.yul\":7964:8262   */\n      pop\n        /* \"#utility.yul\":8301:8303   */\n      0x40\n        /* \"#utility.yul\":8327:8380   */\n      tag_234\n        /* \"#utility.yul\":8372:8379   */\n      dup9\n        /* \"#utility.yul\":8363:8369   */\n      dup3\n        /* \"#utility.yul\":8352:8361   */\n      dup10\n        /* \"#utility.yul\":8348:8370   */\n      add\n        /* \"#utility.yul\":8327:8380   */\n      tag_97\n      jump\t// in\n    tag_234:\n        /* \"#utility.yul\":8317:8380   */\n      swap2\n      pop\n        /* \"#utility.yul\":8272:8390   */\n      pop\n        /* \"#utility.yul\":7378:8397   */\n      swap3\n      swap6\n      pop\n      swap3\n      swap6\n      swap1\n      swap4\n      pop\n      jump\t// out\n        /* \"#utility.yul\":8403:8493   */\n    tag_120:\n        /* \"#utility.yul\":8437:8444   */\n      0x00\n        /* \"#utility.yul\":8480:8485   */\n      dup2\n        /* \"#utility.yul\":8473:8486   */\n      iszero\n        /* \"#utility.yul\":8466:8487   */\n      iszero\n        /* \"#utility.yul\":8455:8487   */\n      swap1\n      pop\n        /* \"#utility.yul\":8403:8493   */\n      swap2\n      swap1\n      pop\n      jump\t// out\n        /* \"#utility.yul\":8499:8608   */\n    tag_121:\n        /* \"#utility.yul\":8580:8601   */\n      tag_237\n        /* \"#utility.yul\":8595:8600   */\n      dup2\n        /* \"#utility.yul\":8580:8601   */\n      tag_120\n      jump\t// in\n    tag_237:\n        /* \"#utility.yul\":8575:8578   */\n      dup3\n        /* \"#utility.yul\":8568:8602   */\n      mstore\n        /* \"#utility.yul\":8499:8608   */\n      pop\n      pop\n      jump\t// out\n        /* \"#utility.yul\":8614:8824   */\n    tag_37:\n        /* \"#utility.yul\":8701:8705   */\n      0x00\n        /* \"#utility.yul\":8739:8741   */\n      0x20\n        /* \"#utility.yul\":8728:8737   */\n      dup3\n        /* \"#utility.yul\":8724:8742   */\n      add\n        /* \"#utility.yul\":8716:8742   */\n      swap1\n      pop\n        /* \"#utility.yul\":8752:8817   */\n      tag_239\n        /* \"#utility.yul\":8814:8815   */\n      0x00\n        /* \"#utility.yul\":8803:8812   */\n      dup4\n        /* \"#utility.yul\":8799:8816   */\n      add\n        /* \"#utility.yul\":8790:8796   */\n      dup5\n        /* \"#utility.yul\":8752:8817   */\n      tag_121\n      jump\t// in\n    tag_239:\n        /* \"#utility.yul\":8614:8824   */\n      swap3\n      swap2\n      pop\n      pop\n      jump\t// out\n        /* \"#utility.yul\":8830:9449   */\n    tag_40:\n        /* \"#utility.yul\":8907:8913   */\n      0x00\n        /* \"#utility.yul\":8915:8921   */\n      dup1\n        /* \"#utility.yul\":8923:8929   */\n      0x00\n        /* \"#utility.yul\":8972:8974   */\n      0x60\n        /* \"#utility.yul\":8960:8969   */\n      dup5\n        /* \"#utility.yul\":8951:8958   */\n      dup7\n        /* \"#utility.yul\":8947:8970   */\n      sub\n        /* \"#utility.yul\":8943:8975   */\n      slt\n        /* \"#utility.yul\":8940:9059   */\n      iszero\n      tag_241\n      jumpi\n        /* \"#utility.yul\":8978:9057   */\n      tag_242\n      tag_93\n      jump\t// in\n    tag_242:\n        /* \"#utility.yul\":8940:9059   */\n    tag_241:\n        /* \"#utility.yul\":9098:9099   */\n      0x00\n        /* \"#utility.yul\":9123:9176   */\n      tag_243\n        /* \"#utility.yul\":9168:9175   */\n      dup7\n        /* \"#utility.yul\":9159:9165   */\n      dup3\n        /* \"#utility.yul\":9148:9157   */\n      dup8\n        /* \"#utility.yul\":9144:9166   */\n      add\n        /* \"#utility.yul\":9123:9176   */\n      tag_97\n      jump\t// in\n    tag_243:\n        /* \"#utility.yul\":9113:9176   */\n      swap4\n      pop\n        /* \"#utility.yul\":9069:9186   */\n      pop\n        /* \"#utility.yul\":9225:9227   */\n      0x20\n        /* \"#utility.yul\":9251:9304   */\n      tag_244\n        /* \"#utility.yul\":9296:9303   */\n      dup7\n        /* \"#utility.yul\":9287:9293   */\n      dup3\n        /* \"#utility.yul\":9276:9285   */\n      dup8\n        /* \"#utility.yul\":9272:9294   */\n      add\n        /* \"#utility.yul\":9251:9304   */\n      tag_97\n      jump\t// in\n    tag_244:\n        /* \"#utility.yul\":9241:9304   */\n      swap3\n      pop\n        /* \"#utility.yul\":9196:9314   */\n      pop\n        /* \"#utility.yul\":9353:9355   */\n      0x40\n        /* \"#utility.yul\":9379:9432   */\n      tag_245\n        /* \"#utility.yul\":9424:9431   */\n      dup7\n        /* \"#utility.yul\":9415:9421   */\n      dup3\n        /* \"#utility.yul\":9404:9413   */\n      dup8\n        /* \"#utility.yul\":9400:9422   */\n      add\n        /* \"#utility.yul\":9379:9432   */\n      tag_97\n      jump\t// in\n    tag_245:\n        /* \"#utility.yul\":9369:9432   */\n      swap2\n      pop\n        /* \"#utility.yul\":9324:9442   */\n      pop\n        /* \"#utility.yul\":8830:9449   */\n      swap3\n      pop\n      swap3\n      pop\n      swap3\n      jump\t// out\n        /* \"#utility.yul\":9455:9677   */\n    tag_45:\n        /* \"#utility.yul\":9548:9552   */\n      0x00\n        /* \"#utility.yul\":9586:9588   */\n      0x20\n        /* \"#utility.yul\":9575:9584   */\n      dup3\n        /* \"#utility.yul\":9571:9589   */\n      add\n        /* \"#utility.yul\":9563:9589   */\n      swap1\n      pop\n        /* \"#utility.yul\":9599:9670   */\n      tag_247\n        /* \"#utility.yul\":9667:9668   */\n      0x00\n        /* \"#utility.yul\":9656:9665   */\n      dup4\n        /* \"#utility.yul\":9652:9669   */\n      add\n        /* \"#utility.yul\":9643:9649   */\n      dup5\n        /* \"#utility.yul\":9599:9670   */\n      tag_100\n      jump\t// in\n    tag_247:\n        /* \"#utility.yul\":9455:9677   */\n      swap3\n      swap2\n      pop\n      pop\n      jump\t// out\n        /* \"#utility.yul\":9683:9863   */\n    tag_122:\n        /* \"#utility.yul\":9731:9808   */\n      0x4e487b7100000000000000000000000000000000000000000000000000000000\n        /* \"#utility.yul\":9728:9729   */\n      0x00\n        /* \"#utility.yul\":9721:9809   */\n      mstore\n        /* \"#utility.yul\":9828:9832   */\n      0x22\n        /* \"#utility.yul\":9825:9826   */\n      0x04\n        /* \"#utility.yul\":9818:9833   */\n      mstore\n        /* \"#utility.yul\":9852:9856   */\n      0x24\n        /* \"#utility.yul\":9849:9850   */\n      0x00\n        /* \"#utility.yul\":9842:9857   */\n      revert\n        /* \"#utility.yul\":9869:10189   */\n    tag_47:\n        /* \"#utility.yul\":9913:9919   */\n      0x00\n        /* \"#utility.yul\":9950:9951   */\n      0x02\n        /* \"#utility.yul\":9944:9948   */\n      dup3\n        /* \"#utility.yul\":9940:9952   */\n      div\n        /* \"#utility.yul\":9930:9952   */\n      swap1\n      pop\n        /* \"#utility.yul\":9997:9998   */\n      0x01\n        /* \"#utility.yul\":9991:9995   */\n      dup3\n        /* \"#utility.yul\":9987:9999   */\n      and\n        /* \"#utility.yul\":10018:10036   */\n      dup1\n        /* \"#utility.yul\":10008:10089   */\n      tag_250\n      jumpi\n        /* \"#utility.yul\":10074:10078   */\n      0x7f\n        /* \"#utility.yul\":10066:10072   */\n      dup3\n        /* \"#utility.yul\":10062:10079   */\n      and\n        /* \"#utility.yul\":10052:10079   */\n      swap2\n      pop\n        /* \"#utility.yul\":10008:10089   */\n    tag_250:\n        /* \"#utility.yul\":10136:10138   */\n      0x20\n        /* \"#utility.yul\":10128:10134   */\n      dup3\n        /* \"#utility.yul\":10125:10139   */\n      lt\n        /* \"#utility.yul\":10105:10123   */\n      dup2\n        /* \"#utility.yul\":10102:10140   */\n      sub\n        /* \"#utility.yul\":10099:10183   */\n      tag_251\n      jumpi\n        /* \"#utility.yul\":10155:10173   */\n      tag_252\n      tag_122\n      jump\t// in\n    tag_252:\n        /* \"#utility.yul\":10099:10183   */\n    tag_251:\n        /* \"#utility.yul\":9920:10189   */\n      pop\n        /* \"#utility.yul\":9869:10189   */\n      swap2\n      swap1\n      pop\n      jump\t// out\n        /* \"#utility.yul\":10195:10354   */\n    tag_123:\n        /* \"#utility.yul\":10335:10346   */\n      0x4e6f74204f776e65720000000000000000000000000000000000000000000000\n        /* \"#utility.yul\":10331:10332   */\n      0x00\n        /* \"#utility.yul\":10323:10329   */\n      dup3\n        /* \"#utility.yul\":10319:10333   */\n      add\n        /* \"#utility.yul\":10312:10347   */\n      mstore\n        /* \"#utility.yul\":10195:10354   */\n      pop\n      jump\t// out\n        /* \"#utility.yul\":10360:10725   */\n    tag_124:\n        /* \"#utility.yul\":10502:10505   */\n      0x00\n        /* \"#utility.yul\":10523:10589   */\n      tag_255\n        /* \"#utility.yul\":10587:10588   */\n      0x09\n        /* \"#utility.yul\":10582:10585   */\n      dup4\n        /* \"#utility.yul\":10523:10589   */\n      tag_108\n      jump\t// in\n    tag_255:\n        /* \"#utility.yul\":10516:10589   */\n      swap2\n      pop\n        /* \"#utility.yul\":10598:10691   */\n      tag_256\n        /* \"#utility.yul\":10687:10690   */\n      dup3\n        /* \"#utility.yul\":10598:10691   */\n      tag_123\n      jump\t// in\n    tag_256:\n        /* \"#utility.yul\":10716:10718   */\n      0x20\n        /* \"#utility.yul\":10711:10714   */\n      dup3\n        /* \"#utility.yul\":10707:10719   */\n      add\n        /* \"#utility.yul\":10700:10719   */\n      swap1\n      pop\n        /* \"#utility.yul\":10360:10725   */\n      swap2\n      swap1\n      pop\n      jump\t// out\n        /* \"#utility.yul\":10731:11150   */\n    tag_72:\n        /* \"#utility.yul\":10897:10901   */\n      0x00\n        /* \"#utility.yul\":10935:10937   */\n      0x20\n        /* \"#utility.yul\":10924:10933   */\n      dup3\n        /* \"#utility.yul\":10920:10938   */\n      add\n        /* \"#utility.yul\":10912:10938   */\n      swap1\n      pop\n        /* \"#utility.yul\":10984:10993   */\n      dup2\n        /* \"#utility.yul\":10978:10982   */\n      dup2\n        /* \"#utility.yul\":10974:10994   */\n      sub\n        /* \"#utility.yul\":10970:10971   */\n      0x00\n        /* \"#utility.yul\":10959:10968   */\n      dup4\n        /* \"#utility.yul\":10955:10972   */\n      add\n        /* \"#utility.yul\":10948:10995   */\n      mstore\n        /* \"#utility.yul\":11012:11143   */\n      tag_258\n        /* \"#utility.yul\":11138:11142   */\n      dup2\n        /* \"#utility.yul\":11012:11143   */\n      tag_124\n      jump\t// in\n    tag_258:\n        /* \"#utility.yul\":11004:11143   */\n      swap1\n      pop\n        /* \"#utility.yul\":10731:11150   */\n      swap2\n      swap1\n      pop\n      jump\t// out\n        /* \"#utility.yul\":11156:11336   */\n    tag_125:\n        /* \"#utility.yul\":11204:11281   */\n      0x4e487b7100000000000000000000000000000000000000000000000000000000\n        /* \"#utility.yul\":11201:11202   */\n      0x00\n        /* \"#utility.yul\":11194:11282   */\n      mstore\n        /* \"#utility.yul\":11301:11305   */\n      0x11\n        /* \"#utility.yul\":11298:11299   */\n      0x04\n        /* \"#utility.yul\":11291:11306   */\n      mstore\n        /* \"#utility.yul\":11325:11329   */\n      0x24\n        /* \"#utility.yul\":11322:11323   */\n      0x00\n        /* \"#utility.yul\":11315:11330   */\n      revert\n        /* \"#utility.yul\":11342:11533   */\n    tag_74:\n        /* \"#utility.yul\":11382:11385   */\n      0x00\n        /* \"#utility.yul\":11401:11421   */\n      tag_261\n        /* \"#utility.yul\":11419:11420   */\n      dup3\n        /* \"#utility.yul\":11401:11421   */\n      tag_95\n      jump\t// in\n    tag_261:\n        /* \"#utility.yul\":11396:11421   */\n      swap2\n      pop\n        /* \"#utility.yul\":11435:11455   */\n      tag_262\n        /* \"#utility.yul\":11453:11454   */\n      dup4\n        /* \"#utility.yul\":11435:11455   */\n      tag_95\n      jump\t// in\n    tag_262:\n        /* \"#utility.yul\":11430:11455   */\n      swap3\n      pop\n        /* \"#utility.yul\":11478:11479   */\n      dup3\n        /* \"#utility.yul\":11475:11476   */\n      dup3\n        /* \"#utility.yul\":11471:11480   */\n      add\n        /* \"#utility.yul\":11464:11480   */\n      swap1\n      pop\n        /* \"#utility.yul\":11499:11502   */\n      dup1\n        /* \"#utility.yul\":11496:11497   */\n      dup3\n        /* \"#utility.yul\":11493:11503   */\n      gt\n        /* \"#utility.yul\":11490:11526   */\n      iszero\n      tag_263\n      jumpi\n        /* \"#utility.yul\":11506:11524   */\n      tag_264\n      tag_125\n      jump\t// in\n    tag_264:\n        /* \"#utility.yul\":11490:11526   */\n    tag_263:\n        /* \"#utility.yul\":11342:11533   */\n      swap3\n      swap2\n      pop\n      pop\n      jump\t// out\n        /* \"#utility.yul\":11539:11719   */\n    tag_126:\n        /* \"#utility.yul\":11587:11664   */\n      0x4e487b7100000000000000000000000000000000000000000000000000000000\n        /* \"#utility.yul\":11584:11585   */\n      0x00\n        /* \"#utility.yul\":11577:11665   */\n      mstore\n        /* \"#utility.yul\":11684:11688   */\n      0x41\n        /* \"#utility.yul\":11681:11682   */\n      0x04\n        /* \"#utility.yul\":11674:11689   */\n      mstore\n        /* \"#utility.yul\":11708:11712   */\n      0x24\n        /* \"#utility.yul\":11705:11706   */\n      0x00\n        /* \"#utility.yul\":11698:11713   */\n      revert\n        /* \"#utility.yul\":11725:11866   */\n    tag_127:\n        /* \"#utility.yul\":11774:11778   */\n      0x00\n        /* \"#utility.yul\":11797:11800   */\n      dup2\n        /* \"#utility.yul\":11789:11800   */\n      swap1\n      pop\n        /* \"#utility.yul\":11820:11823   */\n      dup2\n        /* \"#utility.yul\":11817:11818   */\n      0x00\n        /* \"#utility.yul\":11810:11824   */\n      mstore\n        /* \"#utility.yul\":11854:11858   */\n      0x20\n        /* \"#utility.yul\":11851:11852   */\n      0x00\n        /* \"#utility.yul\":11841:11859   */\n      keccak256\n        /* \"#utility.yul\":11833:11859   */\n      swap1\n      pop\n        /* \"#utility.yul\":11725:11866   */\n      swap2\n      swap1\n      pop\n      jump\t// out\n        /* \"#utility.yul\":11872:11965   */\n    tag_128:\n        /* \"#utility.yul\":11909:11915   */\n      0x00\n        /* \"#utility.yul\":11956:11958   */\n      0x20\n        /* \"#utility.yul\":11951:11953   */\n      0x1f\n        /* \"#utility.yul\":11944:11949   */\n      dup4\n        /* \"#utility.yul\":11940:11954   */\n      add\n        /* \"#utility.yul\":11936:11959   */\n      div\n        /* \"#utility.yul\":11926:11959   */\n      swap1\n      pop\n        /* \"#utility.yul\":11872:11965   */\n      swap2\n      swap1\n      pop\n      jump\t// out\n        /* \"#utility.yul\":11971:12078   */\n    tag_129:\n        /* \"#utility.yul\":12015:12023   */\n      0x00\n        /* \"#utility.yul\":12065:12070   */\n      dup3\n        /* \"#utility.yul\":12059:12063   */\n      dup3\n        /* \"#utility.yul\":12055:12071   */\n      shl\n        /* \"#utility.yul\":12034:12071   */\n      swap1\n      pop\n        /* \"#utility.yul\":11971:12078   */\n      swap3\n      swap2\n      pop\n      pop\n      jump\t// out\n        /* \"#utility.yul\":12084:12477   */\n    tag_130:\n        /* \"#utility.yul\":12153:12159   */\n      0x00\n        /* \"#utility.yul\":12203:12204   */\n      0x08\n        /* \"#utility.yul\":12191:12201   */\n      dup4\n        /* \"#utility.yul\":12187:12205   */\n      mul\n        /* \"#utility.yul\":12226:12323   */\n      tag_270\n        /* \"#utility.yul\":12256:12322   */\n      0xffffffffffffffffffffffffffffffffffffffffffffffffffffffffffffffff\n        /* \"#utility.yul\":12245:12254   */\n      dup3\n        /* \"#utility.yul\":12226:12323   */\n      tag_129\n      jump\t// in\n    tag_270:\n        /* \"#utility.yul\":12344:12383   */\n      tag_271\n        /* \"#utility.yul\":12374:12382   */\n      dup7\n        /* \"#utility.yul\":12363:12372   */\n      dup4\n        /* \"#utility.yul\":12344:12383   */\n      tag_129\n      jump\t// in\n    tag_271:\n        /* \"#utility.yul\":12332:12383   */\n      swap6\n      pop\n        /* \"#utility.yul\":12416:12420   */\n      dup1\n        /* \"#utility.yul\":12412:12421   */\n      not\n        /* \"#utility.yul\":12405:12410   */\n      dup5\n        /* \"#utility.yul\":12401:12422   */\n      and\n        /* \"#utility.yul\":12392:12422   */\n      swap4\n      pop\n        /* \"#utility.yul\":12465:12469   */\n      dup1\n        /* \"#utility.yul\":12455:12463   */\n      dup7\n        /* \"#utility.yul\":12451:12470   */\n      and\n        /* \"#utility.yul\":12444:12449   */\n      dup5\n        /* \"#utility.yul\":12441:12471   */\n      or\n        /* \"#utility.yul\":12431:12471   */\n      swap3\n      pop\n        /* \"#utility.yul\":12160:12477   */\n      pop\n      pop\n        /* \"#utility.yul\":12084:12477   */\n      swap4\n      swap3\n      pop\n      pop\n      pop\n      jump\t// out\n        /* \"#utility.yul\":12483:12543   */\n    tag_131:\n        /* \"#utility.yul\":12511:12514   */\n      0x00\n        /* \"#utility.yul\":12532:12537   */\n      dup2\n        /* \"#utility.yul\":12525:12537   */\n      swap1\n      pop\n        /* \"#utility.yul\":12483:12543   */\n      swap2\n      swap1\n      pop\n      jump\t// out\n        /* \"#utility.yul\":12549:12691   */\n    tag_132:\n        /* \"#utility.yul\":12599:12608   */\n      0x00\n        /* \"#utility.yul\":12632:12685   */\n      tag_274\n        /* \"#utility.yul\":12650:12684   */\n      tag_275\n        /* \"#utility.yul\":12659:12683   */\n      tag_276\n        /* \"#utility.yul\":12677:12682   */\n      dup5\n        /* \"#utility.yul\":12659:12683   */\n      tag_95\n      jump\t// in\n    tag_276:\n        /* \"#utility.yul\":12650:12684   */\n      tag_131\n      jump\t// in\n    tag_275:\n        /* \"#utility.yul\":12632:12685   */\n      tag_95\n      jump\t// in\n    tag_274:\n        /* \"#utility.yul\":12619:12685   */\n      swap1\n      pop\n        /* \"#utility.yul\":12549:12691   */\n      swap2\n      swap1\n      pop\n      jump\t// out\n        /* \"#utility.yul\":12697:12772   */\n    tag_133:\n        /* \"#utility.yul\":12740:12743   */\n      0x00\n        /* \"#utility.yul\":12761:12766   */\n      dup2\n        /* \"#utility.yul\":12754:12766   */\n      swap1\n      pop\n        /* \"#utility.yul\":12697:12772   */\n      swap2\n      swap1\n      pop\n      jump\t// out\n        /* \"#utility.yul\":12778:13047   */\n    tag_134:\n        /* \"#utility.yul\":12888:12927   */\n      tag_279\n        /* \"#utility.yul\":12919:12926   */\n      dup4\n        /* \"#utility.yul\":12888:12927   */\n      tag_132\n      jump\t// in\n    tag_279:\n        /* \"#utility.yul\":12949:13040   */\n      tag_280\n        /* \"#utility.yul\":12998:13039   */\n      tag_281\n        /* \"#utility.yul\":13022:13038   */\n      dup3\n        /* \"#utility.yul\":12998:13039   */\n      tag_133\n      jump\t// in\n    tag_281:\n        /* \"#utility.yul\":12990:12996   */\n      dup5\n        /* \"#utility.yul\":12983:12987   */\n      dup5\n        /* \"#utility.yul\":12977:12988   */\n      sload\n        /* \"#utility.yul\":12949:13040   */\n      tag_130\n      jump\t// in\n    tag_280:\n        /* \"#utility.yul\":12943:12947   */\n      dup3\n        /* \"#utility.yul\":12936:13041   */\n      sstore\n        /* \"#utility.yul\":12854:13047   */\n      pop\n        /* \"#utility.yul\":12778:13047   */\n      pop\n      pop\n      pop\n      jump\t// out\n        /* \"#utility.yul\":13053:13126   */\n    tag_135:\n        /* \"#utility.yul\":13098:13101   */\n      0x00\n        /* \"#utility.yul\":13053:13126   */\n      swap1\n      jump\t// out\n        /* \"#utility.yul\":13132:13321   */\n    tag_136:\n        /* \"#utility.yul\":13209:13241   */\n      tag_284\n      tag_135\n      jump\t// in\n    tag_284:\n        /* \"#utility.yul\":13250:13315   */\n      tag_285\n        /* \"#utility.yul\":13308:13314   */\n      dup2\n        /* \"#utility.yul\":13300:13306   */\n      dup5\n        /* \"#utility.yul\":13294:13298   */\n      dup5\n        /* \"#utility.yul\":13250:13315   */\n      tag_134\n      jump\t// in\n    tag_285:\n        /* \"#utility.yul\":13185:13321   */\n      pop\n        /* \"#utility.yul\":13132:13321   */\n      pop\n      pop\n      jump\t// out\n        /* \"#utility.yul\":13327:13513   */\n    tag_137:\n        /* \"#utility.yul\":13387:13507   */\n    tag_287:\n        /* \"#utility.yul\":13404:13407   */\n      dup2\n        /* \"#utility.yul\":13397:13402   */\n      dup2\n        /* \"#utility.yul\":13394:13408   */\n      lt\n        /* \"#utility.yul\":13387:13507   */\n      iszero\n      tag_289\n      jumpi\n        /* \"#utility.yul\":13458:13497   */\n      tag_290\n        /* \"#utility.yul\":13495:13496   */\n      0x00\n        /* \"#utility.yul\":13488:13493   */\n      dup3\n        /* \"#utility.yul\":13458:13497   */\n      tag_136\n      jump\t// in\n    tag_290:\n        /* \"#utility.yul\":13431:13432   */\n      0x01\n        /* \"#utility.yul\":13424:13429   */\n      dup2\n        /* \"#utility.yul\":13420:13433   */\n      add\n        /* \"#utility.yul\":13411:13433   */\n      swap1\n      pop\n        /* \"#utility.yul\":13387:13507   */\n      jump(tag_287)\n    tag_289:\n        /* \"#utility.yul\":13327:13513   */\n      pop\n      pop\n      jump\t// out\n        /* \"#utility.yul\":13519:14062   */\n    tag_138:\n        /* \"#utility.yul\":13620:13622   */\n      0x1f\n        /* \"#utility.yul\":13615:13618   */\n      dup3\n        /* \"#utility.yul\":13612:13623   */\n      gt\n        /* \"#utility.yul\":13609:14055   */\n      iszero\n      tag_292\n      jumpi\n        /* \"#utility.yul\":13654:13692   */\n      tag_293\n        /* \"#utility.yul\":13686:13691   */\n      dup2\n        /* \"#utility.yul\":13654:13692   */\n      tag_127\n      jump\t// in\n    tag_293:\n        /* \"#utility.yul\":13738:13767   */\n      tag_294\n        /* \"#utility.yul\":13756:13766   */\n      dup5\n        /* \"#utility.yul\":13738:13767   */\n      tag_128\n      jump\t// in\n    tag_294:\n        /* \"#utility.yul\":13728:13736   */\n      dup2\n        /* \"#utility.yul\":13724:13768   */\n      add\n        /* \"#utility.yul\":13921:13923   */\n      0x20\n        /* \"#utility.yul\":13909:13919   */\n      dup6\n        /* \"#utility.yul\":13906:13924   */\n      lt\n        /* \"#utility.yul\":13903:13952   */\n      iszero\n      tag_295\n      jumpi\n        /* \"#utility.yul\":13942:13950   */\n      dup2\n        /* \"#utility.yul\":13927:13950   */\n      swap1\n      pop\n        /* \"#utility.yul\":13903:13952   */\n    tag_295:\n        /* \"#utility.yul\":13965:14045   */\n      tag_296\n        /* \"#utility.yul\":14021:14043   */\n      tag_297\n        /* \"#utility.yul\":14039:14042   */\n      dup6\n        /* \"#utility.yul\":14021:14043   */\n      tag_128\n      jump\t// in\n    tag_297:\n        /* \"#utility.yul\":14011:14019   */\n      dup4\n        /* \"#utility.yul\":14007:14044   */\n      add\n        /* \"#utility.yul\":13994:14005   */\n      dup3\n        /* \"#utility.yul\":13965:14045   */\n      tag_137\n      jump\t// in\n    tag_296:\n        /* \"#utility.yul\":13624:14055   */\n      pop\n      pop\n        /* \"#utility.yul\":13609:14055   */\n    tag_292:\n        /* \"#utility.yul\":13519:14062   */\n      pop\n      pop\n      pop\n      jump\t// out\n        /* \"#utility.yul\":14068:14185   */\n    tag_139:\n        /* \"#utility.yul\":14122:14130   */\n      0x00\n        /* \"#utility.yul\":14172:14177   */\n      dup3\n        /* \"#utility.yul\":14166:14170   */\n      dup3\n        /* \"#utility.yul\":14162:14178   */\n      shr\n        /* \"#utility.yul\":14141:14178   */\n      swap1\n      pop\n        /* \"#utility.yul\":14068:14185   */\n      swap3\n      swap2\n      pop\n      pop\n      jump\t// out\n        /* \"#utility.yul\":14191:14360   */\n    tag_140:\n        /* \"#utility.yul\":14235:14241   */\n      0x00\n        /* \"#utility.yul\":14268:14319   */\n      tag_300\n        /* \"#utility.yul\":14316:14317   */\n      0x00\n        /* \"#utility.yul\":14312:14318   */\n      not\n        /* \"#utility.yul\":14304:14309   */\n      dup5\n        /* \"#utility.yul\":14301:14302   */\n      0x08\n        /* \"#utility.yul\":14297:14310   */\n      mul\n        /* \"#utility.yul\":14268:14319   */\n      tag_139\n      jump\t// in\n    tag_300:\n        /* \"#utility.yul\":14264:14320   */\n      not\n        /* \"#utility.yul\":14349:14353   */\n      dup1\n        /* \"#utility.yul\":14343:14347   */\n      dup4\n        /* \"#utility.yul\":14339:14354   */\n      and\n        /* \"#utility.yul\":14329:14354   */\n      swap2\n      pop\n        /* \"#utility.yul\":14242:14360   */\n      pop\n        /* \"#utility.yul\":14191:14360   */\n      swap3\n      swap2\n      pop\n      pop\n      jump\t// out\n        /* \"#utility.yul\":14365:14660   */\n    tag_141:\n        /* \"#utility.yul\":14441:14445   */\n      0x00\n        /* \"#utility.yul\":14587:14616   */\n      tag_302\n        /* \"#utility.yul\":14612:14615   */\n      dup4\n        /* \"#utility.yul\":14606:14610   */\n      dup4\n        /* \"#utility.yul\":14587:14616   */\n      tag_140\n      jump\t// in\n    tag_302:\n        /* \"#utility.yul\":14579:14616   */\n      swap2\n      pop\n        /* \"#utility.yul\":14649:14652   */\n      dup3\n        /* \"#utility.yul\":14646:14647   */\n      0x02\n        /* \"#utility.yul\":14642:14653   */\n      mul\n        /* \"#utility.yul\":14636:14640   */\n      dup3\n        /* \"#utility.yul\":14633:14654   */\n      or\n        /* \"#utility.yul\":14625:14654   */\n      swap1\n      pop\n        /* \"#utility.yul\":14365:14660   */\n      swap3\n      swap2\n      pop\n      pop\n      jump\t// out\n        /* \"#utility.yul\":14665:16060   */\n    tag_77:\n        /* \"#utility.yul\":14782:14819   */\n      tag_304\n        /* \"#utility.yul\":14815:14818   */\n      dup3\n        /* \"#utility.yul\":14782:14819   */\n      tag_107\n      jump\t// in\n    tag_304:\n        /* \"#utility.yul\":14884:14902   */\n      0xffffffffffffffff\n        /* \"#utility.yul\":14876:14882   */\n      dup2\n        /* \"#utility.yul\":14873:14903   */\n      gt\n        /* \"#utility.yul\":14870:14926   */\n      iszero\n      tag_305\n      jumpi\n        /* \"#utility.yul\":14906:14924   */\n      tag_306\n      tag_126\n      jump\t// in\n    tag_306:\n        /* \"#utility.yul\":14870:14926   */\n    tag_305:\n        /* \"#utility.yul\":14950:14988   */\n      tag_307\n        /* \"#utility.yul\":14982:14986   */\n      dup3\n        /* \"#utility.yul\":14976:14987   */\n      sload\n        /* \"#utility.yul\":14950:14988   */\n      tag_47\n      jump\t// in\n    tag_307:\n        /* \"#utility.yul\":15035:15102   */\n      tag_308\n        /* \"#utility.yul\":15095:15101   */\n      dup3\n        /* \"#utility.yul\":15087:15093   */\n      dup3\n        /* \"#utility.yul\":15081:15085   */\n      dup6\n        /* \"#utility.yul\":15035:15102   */\n      tag_138\n      jump\t// in\n    tag_308:\n        /* \"#utility.yul\":15129:15130   */\n      0x00\n        /* \"#utility.yul\":15153:15157   */\n      0x20\n        /* \"#utility.yul\":15140:15157   */\n      swap1\n      pop\n        /* \"#utility.yul\":15185:15187   */\n      0x1f\n        /* \"#utility.yul\":15177:15183   */\n      dup4\n        /* \"#utility.yul\":15174:15188   */\n      gt\n        /* \"#utility.yul\":15202:15203   */\n      0x01\n        /* \"#utility.yul\":15197:15815   */\n      dup2\n      eq\n      tag_310\n      jumpi\n        /* \"#utility.yul\":15859:15860   */\n      0x00\n        /* \"#utility.yul\":15876:15882   */\n      dup5\n        /* \"#utility.yul\":15873:15950   */\n      iszero\n      tag_311\n      jumpi\n        /* \"#utility.yul\":15925:15934   */\n      dup3\n        /* \"#utility.yul\":15920:15923   */\n      dup8\n        /* \"#utility.yul\":15916:15935   */\n      add\n        /* \"#utility.yul\":15910:15936   */\n      mload\n        /* \"#utility.yul\":15901:15936   */\n      swap1\n      pop\n        /* \"#utility.yul\":15873:15950   */\n    tag_311:\n        /* \"#utility.yul\":15976:16043   */\n      tag_312\n        /* \"#utility.yul\":16036:16042   */\n      dup6\n        /* \"#utility.yul\":16029:16034   */\n      dup3\n        /* \"#utility.yul\":15976:16043   */\n      tag_141\n      jump\t// in\n    tag_312:\n        /* \"#utility.yul\":15970:15974   */\n      dup7\n        /* \"#utility.yul\":15963:16044   */\n      sstore\n        /* \"#utility.yul\":15832:16054   */\n      pop\n        /* \"#utility.yul\":15167:16054   */\n      jump(tag_309)\n        /* \"#utility.yul\":15197:15815   */\n    tag_310:\n        /* \"#utility.yul\":15249:15253   */\n      0x1f\n        /* \"#utility.yul\":15245:15254   */\n      not\n        /* \"#utility.yul\":15237:15243   */\n      dup5\n        /* \"#utility.yul\":15233:15255   */\n      and\n        /* \"#utility.yul\":15283:15320   */\n      tag_313\n        /* \"#utility.yul\":15315:15319   */\n      dup7\n        /* \"#utility.yul\":15283:15320   */\n      tag_127\n      jump\t// in\n    tag_313:\n        /* \"#utility.yul\":15342:15343   */\n      0x00\n        /* \"#utility.yul\":15356:15564   */\n    tag_314:\n        /* \"#utility.yul\":15370:15377   */\n      dup3\n        /* \"#utility.yul\":15367:15368   */\n      dup2\n        /* \"#utility.yul\":15364:15378   */\n      lt\n        /* \"#utility.yul\":15356:15564   */\n      iszero\n      tag_316\n      jumpi\n        /* \"#utility.yul\":15449:15458   */\n      dup5\n        /* \"#utility.yul\":15444:15447   */\n      dup10\n        /* \"#utility.yul\":15440:15459   */\n      add\n        /* \"#utility.yul\":15434:15460   */\n      mload\n        /* \"#utility.yul\":15426:15432   */\n      dup3\n        /* \"#utility.yul\":15419:15461   */\n      sstore\n        /* \"#utility.yul\":15500:15501   */\n      0x01\n        /* \"#utility.yul\":15492:15498   */\n      dup3\n        /* \"#utility.yul\":15488:15502   */\n      add\n        /* \"#utility.yul\":15478:15502   */\n      swap2\n      pop\n        /* \"#utility.yul\":15547:15549   */\n      0x20\n        /* \"#utility.yul\":15536:15545   */\n      dup6\n        /* \"#utility.yul\":15532:15550   */\n      add\n        /* \"#utility.yul\":15519:15550   */\n      swap5\n      pop\n        /* \"#utility.yul\":15393:15397   */\n      0x20\n        /* \"#utility.yul\":15390:15391   */\n      dup2\n        /* \"#utility.yul\":15386:15398   */\n      add\n        /* \"#utility.yul\":15381:15398   */\n      swap1\n      pop\n        /* \"#utility.yul\":15356:15564   */\n      jump(tag_314)\n    tag_316:\n        /* \"#utility.yul\":15592:15598   */\n      dup7\n        /* \"#utility.yul\":15583:15590   */\n      dup4\n        /* \"#utility.yul\":15580:15599   */\n      lt\n        /* \"#utility.yul\":15577:15756   */\n      iszero\n      tag_317\n      jumpi\n        /* \"#utility.yul\":15650:15659   */\n      dup5\n        /* \"#utility.yul\":15645:15648   */\n      dup10\n        /* \"#utility.yul\":15641:15660   */\n      add\n        /* \"#utility.yul\":15635:15661   */\n      mload\n        /* \"#utility.yul\":15693:15741   */\n      tag_318\n        /* \"#utility.yul\":15735:15739   */\n      0x1f\n        /* \"#utility.yul\":15727:15733   */\n      dup10\n        /* \"#utility.yul\":15723:15740   */\n      and\n        /* \"#utility.yul\":15712:15721   */\n      dup3\n        /* \"#utility.yul\":15693:15741   */\n      tag_140\n      jump\t// in\n    tag_318:\n        /* \"#utility.yul\":15685:15691   */\n      dup4\n        /* \"#utility.yul\":15678:15742   */\n      sstore\n        /* \"#utility.yul\":15600:15756   */\n      pop\n        /* \"#utility.yul\":15577:15756   */\n    tag_317:\n        /* \"#utility.yul\":15802:15803   */\n      0x01\n        /* \"#utility.yul\":15798:15799   */\n      0x02\n        /* \"#utility.yul\":15790:15796   */\n      dup9\n        /* \"#utility.yul\":15786:15800   */\n      mul\n        /* \"#utility.yul\":15782:15804   */\n      add\n        /* \"#utility.yul\":15776:15780   */\n      dup9\n        /* \"#utility.yul\":15769:15805   */\n      sstore\n        /* \"#utility.yul\":15204:15815   */\n      pop\n      pop\n      pop\n        /* \"#utility.yul\":15167:16054   */\n    tag_309:\n      pop\n        /* \"#utility.yul\":14757:16060   */\n      pop\n      pop\n      pop\n        /* \"#utility.yul\":14665:16060   */\n      pop\n      pop\n      jump\t// out\n        /* \"#utility.yul\":16066:16246   */\n    tag_84:\n        /* \"#utility.yul\":16114:16191   */\n      0x4e487b7100000000000000000000000000000000000000000000000000000000\n        /* \"#utility.yul\":16111:16112   */\n      0x00\n        /* \"#utility.yul\":16104:16192   */\n      mstore\n        /* \"#utility.yul\":16211:16215   */\n      0x32\n        /* \"#utility.yul\":16208:16209   */\n      0x04\n        /* \"#utility.yul\":16201:16216   */\n      mstore\n        /* \"#utility.yul\":16235:16239   */\n      0x24\n        /* \"#utility.yul\":16232:16233   */\n      0x00\n        /* \"#utility.yul\":16225:16240   */\n      revert\n        /* \"#utility.yul\":16252:16419   */\n    tag_142:\n        /* \"#utility.yul\":16392:16411   */\n      0x4d61746368206973207374696c6c206f6e000000000000000000000000000000\n        /* \"#utility.yul\":16388:16389   */\n      0x00\n        /* \"#utility.yul\":16380:16386   */\n      dup3\n        /* \"#utility.yul\":16376:16390   */\n      add\n        /* \"#utility.yul\":16369:16412   */\n      mstore\n        /* \"#utility.yul\":16252:16419   */\n      pop\n      jump\t// out\n        /* \"#utility.yul\":16425:16791   */\n    tag_143:\n        /* \"#utility.yul\":16567:16570   */\n      0x00\n        /* \"#utility.yul\":16588:16655   */\n      tag_322\n        /* \"#utility.yul\":16652:16654   */\n      0x11\n        /* \"#utility.yul\":16647:16650   */\n      dup4\n        /* \"#utility.yul\":16588:16655   */\n      tag_108\n      jump\t// in\n    tag_322:\n        /* \"#utility.yul\":16581:16655   */\n      swap2\n      pop\n        /* \"#utility.yul\":16664:16757   */\n      tag_323\n        /* \"#utility.yul\":16753:16756   */\n      dup3\n        /* \"#utility.yul\":16664:16757   */\n      tag_142\n      jump\t// in\n    tag_323:\n        /* \"#utility.yul\":16782:16784   */\n      0x20\n        /* \"#utility.yul\":16777:16780   */\n      dup3\n        /* \"#utility.yul\":16773:16785   */\n      add\n        /* \"#utility.yul\":16766:16785   */\n      swap1\n      pop\n        /* \"#utility.yul\":16425:16791   */\n      swap2\n      swap1\n      pop\n      jump\t// out\n        /* \"#utility.yul\":16797:17216   */\n    tag_88:\n        /* \"#utility.yul\":16963:16967   */\n      0x00\n        /* \"#utility.yul\":17001:17003   */\n      0x20\n        /* \"#utility.yul\":16990:16999   */\n      dup3\n        /* \"#utility.yul\":16986:17004   */\n      add\n        /* \"#utility.yul\":16978:17004   */\n      swap1\n      pop\n        /* \"#utility.yul\":17050:17059   */\n      dup2\n        /* \"#utility.yul\":17044:17048   */\n      dup2\n        /* \"#utility.yul\":17040:17060   */\n      sub\n        /* \"#utility.yul\":17036:17037   */\n      0x00\n        /* \"#utility.yul\":17025:17034   */\n      dup4\n        /* \"#utility.yul\":17021:17038   */\n      add\n        /* \"#utility.yul\":17014:17061   */\n      mstore\n        /* \"#utility.yul\":17078:17209   */\n      tag_325\n        /* \"#utility.yul\":17204:17208   */\n      dup2\n        /* \"#utility.yul\":17078:17209   */\n      tag_143\n      jump\t// in\n    tag_325:\n        /* \"#utility.yul\":17070:17209   */\n      swap1\n      pop\n        /* \"#utility.yul\":16797:17216   */\n      swap2\n      swap1\n      pop\n      jump\t// out\n\n    auxdata: 0xa26469706673582212208bdec868f1eb2b7fa469edd6fd9f6f1da77699a5b11ebea59ec25ee32e3e934864736f6c63430008110033\n}\n",
				"bytecode": {
					"linkReferences": {},
					"object": "608060405234801561001057600080fd5b50336000806101000a81548173ffffffffffffffffffffffffffffffffffffffff021916908373ffffffffffffffffffffffffffffffffffffffff160217905550611215806100606000396000f3fe608060405234801561001057600080fd5b506004361061007d5760003560e01c8063b2edb39f1161005b578063b2edb39f1461011a578063bc9e6e2c1461014e578063ec7361a81461017e578063f851a4401461019a5761007d565b806315a3ae711461008257806321749fa3146100b457806367ad4ec2146100e8575b600080fd5b61009c600480360381019061009791906108e0565b6101b8565b6040516100ab939291906109d4565b60405180910390f35b6100ce60048036038101906100c991906108e0565b61020f565b6040516100df959493929190610ad9565b60405180910390f35b61010260048036038101906100fd9190610b66565b610373565b60405161011193929190610b93565b60405180910390f35b610134600480360381019061012f91906108e0565b6103aa565b604051610145959493929190610ad9565b60405180910390f35b61016860048036038101906101639190610c2f565b61051e565b6040516101759190610cdf565b60405180910390f35b61019860048036038101906101939190610cfa565b610724565b005b6101a261087c565b6040516101af9190610d4d565b60405180910390f35b60046020528060005260406000206000915090508060000160009054906101000a900473ffffffffffffffffffffffffffffffffffffffff16908060010154908060020160009054906101000a900460ff16905083565b600160205280600052604060002060009150905080600001805461023290610d97565b80601f016020809104026020016040519081016040528092919081815260200182805461025e90610d97565b80156102ab5780601f10610280576101008083540402835291602001916102ab565b820191906000526020600020905b81548152906001019060200180831161028e57829003601f168201915b5050505050908060010180546102c090610d97565b80601f01602080910402602001604051908101604052809291908181526020018280546102ec90610d97565b80156103395780601f1061030e57610100808354040283529160200191610339565b820191906000526020600020905b81548152906001019060200180831161031c57829003601f168201915b5050505050908060020154908060030154908060040160405180604001604052908160008201548152602001600182015481525050905085565b60036020528060005260406000206000915090508060000160009054906101000a900460ff16908060010154908060020154905083565b600281815481106103ba57600080fd5b90600052602060002090600602016000915090508060000180546103dd90610d97565b80601f016020809104026020016040519081016040528092919081815260200182805461040990610d97565b80156104565780601f1061042b57610100808354040283529160200191610456565b820191906000526020600020905b81548152906001019060200180831161043957829003601f168201915b50505050509080600101805461046b90610d97565b80601f016020809104026020016040519081016040528092919081815260200182805461049790610d97565b80156104e45780601f106104b9576101008083540402835291602001916104e4565b820191906000526020600020905b8154815290600101906020018083116104c757829003601f168201915b5050505050908060020154908060030154908060040160405180604001604052908160008201548152602001600182015481525050905085565b60003373ffffffffffffffffffffffffffffffffffffffff1660008054906101000a900473ffffffffffffffffffffffffffffffffffffffff1673ffffffffffffffffffffffffffffffffffffffff16146105ae576040517f08c379a00000000000000000000000000000000000000000000000000000000081526004016105a590610e14565b60405180910390fd5b6000605f836105bd9190610e63565b905060006040518060400160405280600081526020016000815250905060026040518060a001604052808a8a8080601f016020809104026020016040519081016040528093929190818152602001838380828437600081840152601f19601f82011690508083019250505050505050815260200188888080601f016020809104026020016040519081016040528093929190818152602001838380828437600081840152601f19601f82011690508083019250505050505050815260200186815260200184815260200183815250908060018154018082558091505060019003906000526020600020906006020160009091909190915060008201518160000190816106c99190611072565b5060208201518160010190816106df9190611072565b50604082015181600201556060820151816003015560808201518160040160008201518160000155602082015181600101555050505060019250505095945050505050565b3373ffffffffffffffffffffffffffffffffffffffff1660008054906101000a900473ffffffffffffffffffffffffffffffffffffffff1673ffffffffffffffffffffffffffffffffffffffff16146107b2576040517f08c379a00000000000000000000000000000000000000000000000000000000081526004016107a990610e14565b60405180910390fd5b6000429050600284815481106107cb576107ca611144565b5b90600052602060002090600602016003015481101561081f576040517f08c379a0000000000000000000000000000000000000000000000000000000008152600401610816906111bf565b60405180910390fd5b60006040518060400160405280858152602001848152509050806002868154811061084d5761084c611144565b5b906000526020600020906006020160040160008201518160000155602082015181600101559050505050505050565b60008054906101000a900473ffffffffffffffffffffffffffffffffffffffff1681565b600080fd5b600080fd5b6000819050919050565b6108bd816108aa565b81146108c857600080fd5b50565b6000813590506108da816108b4565b92915050565b6000602082840312156108f6576108f56108a0565b5b6000610904848285016108cb565b91505092915050565b600073ffffffffffffffffffffffffffffffffffffffff82169050919050565b60006109388261090d565b9050919050565b6109488161092d565b82525050565b610957816108aa565b82525050565b7f4e487b7100000000000000000000000000000000000000000000000000000000600052602160045260246000fd5b6004811061099d5761099c61095d565b5b50565b60008190506109ae8261098c565b919050565b60006109be826109a0565b9050919050565b6109ce816109b3565b82525050565b60006060820190506109e9600083018661093f565b6109f6602083018561094e565b610a0360408301846109c5565b949350505050565b600081519050919050565b600082825260208201905092915050565b60005b83811015610a45578082015181840152602081019050610a2a565b60008484015250505050565b6000601f19601f8301169050919050565b6000610a6d82610a0b565b610a778185610a16565b9350610a87818560208601610a27565b610a9081610a51565b840191505092915050565b610aa4816108aa565b82525050565b604082016000820151610ac06000850182610a9b565b506020820151610ad36020850182610a9b565b50505050565b600060c0820190508181036000830152610af38188610a62565b90508181036020830152610b078187610a62565b9050610b16604083018661094e565b610b23606083018561094e565b610b306080830184610aaa565b9695505050505050565b610b438161092d565b8114610b4e57600080fd5b50565b600081359050610b6081610b3a565b92915050565b600060208284031215610b7c57610b7b6108a0565b5b6000610b8a84828501610b51565b91505092915050565b6000606082019050610ba860008301866109c5565b610bb5602083018561094e565b610bc2604083018461094e565b949350505050565b600080fd5b600080fd5b600080fd5b60008083601f840112610bef57610bee610bca565b5b8235905067ffffffffffffffff811115610c0c57610c0b610bcf565b5b602083019150836001820283011115610c2857610c27610bd4565b5b9250929050565b600080600080600060608688031215610c4b57610c4a6108a0565b5b600086013567ffffffffffffffff811115610c6957610c686108a5565b5b610c7588828901610bd9565b9550955050602086013567ffffffffffffffff811115610c9857610c976108a5565b5b610ca488828901610bd9565b93509350506040610cb7888289016108cb565b9150509295509295909350565b60008115159050919050565b610cd981610cc4565b82525050565b6000602082019050610cf46000830184610cd0565b92915050565b600080600060608486031215610d1357610d126108a0565b5b6000610d21868287016108cb565b9350506020610d32868287016108cb565b9250506040610d43868287016108cb565b9150509250925092565b6000602082019050610d62600083018461093f565b92915050565b7f4e487b7100000000000000000000000000000000000000000000000000000000600052602260045260246000fd5b60006002820490506001821680610daf57607f821691505b602082108103610dc257610dc1610d68565b5b50919050565b7f4e6f74204f776e65720000000000000000000000000000000000000000000000600082015250565b6000610dfe600983610a16565b9150610e0982610dc8565b602082019050919050565b60006020820190508181036000830152610e2d81610df1565b9050919050565b7f4e487b7100000000000000000000000000000000000000000000000000000000600052601160045260246000fd5b6000610e6e826108aa565b9150610e79836108aa565b9250828201905080821115610e9157610e90610e34565b5b92915050565b7f4e487b7100000000000000000000000000000000000000000000000000000000600052604160045260246000fd5b60008190508160005260206000209050919050565b60006020601f8301049050919050565b600082821b905092915050565b600060088302610f287fffffffffffffffffffffffffffffffffffffffffffffffffffffffffffffffff82610eeb565b610f328683610eeb565b95508019841693508086168417925050509392505050565b6000819050919050565b6000610f6f610f6a610f65846108aa565b610f4a565b6108aa565b9050919050565b6000819050919050565b610f8983610f54565b610f9d610f9582610f76565b848454610ef8565b825550505050565b600090565b610fb2610fa5565b610fbd818484610f80565b505050565b5b81811015610fe157610fd6600082610faa565b600181019050610fc3565b5050565b601f82111561102657610ff781610ec6565b61100084610edb565b8101602085101561100f578190505b61102361101b85610edb565b830182610fc2565b50505b505050565b600082821c905092915050565b60006110496000198460080261102b565b1980831691505092915050565b60006110628383611038565b9150826002028217905092915050565b61107b82610a0b565b67ffffffffffffffff81111561109457611093610e97565b5b61109e8254610d97565b6110a9828285610fe5565b600060209050601f8311600181146110dc57600084156110ca578287015190505b6110d48582611056565b86555061113c565b601f1984166110ea86610ec6565b60005b82811015611112578489015182556001820191506020850194506020810190506110ed565b8683101561112f578489015161112b601f891682611038565b8355505b6001600288020188555050505b505050505050565b7f4e487b7100000000000000000000000000000000000000000000000000000000600052603260045260246000fd5b7f4d61746368206973207374696c6c206f6e000000000000000000000000000000600082015250565b60006111a9601183610a16565b91506111b482611173565b602082019050919050565b600060208201905081810360008301526111d88161119c565b905091905056fea26469706673582212208bdec868f1eb2b7fa469edd6fd9f6f1da77699a5b11ebea59ec25ee32e3e934864736f6c63430008110033",
					"opcodes": "PUSH1 0x80 PUSH1 0x40 MSTORE CALLVALUE DUP1 ISZERO PUSH2 0x10 JUMPI PUSH1 0x0 DUP1 REVERT JUMPDEST POP CALLER PUSH1 0x0 DUP1 PUSH2 0x100 EXP DUP2 SLOAD DUP2 PUSH20 0xFFFFFFFFFFFFFFFFFFFFFFFFFFFFFFFFFFFFFFFF MUL NOT AND SWAP1 DUP4 PUSH20 0xFFFFFFFFFFFFFFFFFFFFFFFFFFFFFFFFFFFFFFFF AND MUL OR SWAP1 SSTORE POP PUSH2 0x1215 DUP1 PUSH2 0x60 PUSH1 0x0 CODECOPY PUSH1 0x0 RETURN INVALID PUSH1 0x80 PUSH1 0x40 MSTORE CALLVALUE DUP1 ISZERO PUSH2 0x10 JUMPI PUSH1 0x0 DUP1 REVERT JUMPDEST POP PUSH1 0x4 CALLDATASIZE LT PUSH2 0x7D JUMPI PUSH1 0x0 CALLDATALOAD PUSH1 0xE0 SHR DUP1 PUSH4 0xB2EDB39F GT PUSH2 0x5B JUMPI DUP1 PUSH4 0xB2EDB39F EQ PUSH2 0x11A JUMPI DUP1 PUSH4 0xBC9E6E2C EQ PUSH2 0x14E JUMPI DUP1 PUSH4 0xEC7361A8 EQ PUSH2 0x17E JUMPI DUP1 PUSH4 0xF851A440 EQ PUSH2 0x19A JUMPI PUSH2 0x7D JUMP JUMPDEST DUP1 PUSH4 0x15A3AE71 EQ PUSH2 0x82 JUMPI DUP1 PUSH4 0x21749FA3 EQ PUSH2 0xB4 JUMPI DUP1 PUSH4 0x67AD4EC2 EQ PUSH2 0xE8 JUMPI JUMPDEST PUSH1 0x0 DUP1 REVERT JUMPDEST PUSH2 0x9C PUSH1 0x4 DUP1 CALLDATASIZE SUB DUP2 ADD SWAP1 PUSH2 0x97 SWAP2 SWAP1 PUSH2 0x8E0 JUMP JUMPDEST PUSH2 0x1B8 JUMP JUMPDEST PUSH1 0x40 MLOAD PUSH2 0xAB SWAP4 SWAP3 SWAP2 SWAP1 PUSH2 0x9D4 JUMP JUMPDEST PUSH1 0x40 MLOAD DUP1 SWAP2 SUB SWAP1 RETURN JUMPDEST PUSH2 0xCE PUSH1 0x4 DUP1 CALLDATASIZE SUB DUP2 ADD SWAP1 PUSH2 0xC9 SWAP2 SWAP1 PUSH2 0x8E0 JUMP JUMPDEST PUSH2 0x20F JUMP JUMPDEST PUSH1 0x40 MLOAD PUSH2 0xDF SWAP6 SWAP5 SWAP4 SWAP3 SWAP2 SWAP1 PUSH2 0xAD9 JUMP JUMPDEST PUSH1 0x40 MLOAD DUP1 SWAP2 SUB SWAP1 RETURN JUMPDEST PUSH2 0x102 PUSH1 0x4 DUP1 CALLDATASIZE SUB DUP2 ADD SWAP1 PUSH2 0xFD SWAP2 SWAP1 PUSH2 0xB66 JUMP JUMPDEST PUSH2 0x373 JUMP JUMPDEST PUSH1 0x40 MLOAD PUSH2 0x111 SWAP4 SWAP3 SWAP2 SWAP1 PUSH2 0xB93 JUMP JUMPDEST PUSH1 0x40 MLOAD DUP1 SWAP2 SUB SWAP1 RETURN JUMPDEST PUSH2 0x134 PUSH1 0x4 DUP1 CALLDATASIZE SUB DUP2 ADD SWAP1 PUSH2 0x12F SWAP2 SWAP1 PUSH2 0x8E0 JUMP JUMPDEST PUSH2 0x3AA JUMP JUMPDEST PUSH1 0x40 MLOAD PUSH2 0x145 SWAP6 SWAP5 SWAP4 SWAP3 SWAP2 SWAP1 PUSH2 0xAD9 JUMP JUMPDEST PUSH1 0x40 MLOAD DUP1 SWAP2 SUB SWAP1 RETURN JUMPDEST PUSH2 0x168 PUSH1 0x4 DUP1 CALLDATASIZE SUB DUP2 ADD SWAP1 PUSH2 0x163 SWAP2 SWAP1 PUSH2 0xC2F JUMP JUMPDEST PUSH2 0x51E JUMP JUMPDEST PUSH1 0x40 MLOAD PUSH2 0x175 SWAP2 SWAP1 PUSH2 0xCDF JUMP JUMPDEST PUSH1 0x40 MLOAD DUP1 SWAP2 SUB SWAP1 RETURN JUMPDEST PUSH2 0x198 PUSH1 0x4 DUP1 CALLDATASIZE SUB DUP2 ADD SWAP1 PUSH2 0x193 SWAP2 SWAP1 PUSH2 0xCFA JUMP JUMPDEST PUSH2 0x724 JUMP JUMPDEST STOP JUMPDEST PUSH2 0x1A2 PUSH2 0x87C JUMP JUMPDEST PUSH1 0x40 MLOAD PUSH2 0x1AF SWAP2 SWAP1 PUSH2 0xD4D JUMP JUMPDEST PUSH1 0x40 MLOAD DUP1 SWAP2 SUB SWAP1 RETURN JUMPDEST PUSH1 0x4 PUSH1 0x20 MSTORE DUP1 PUSH1 0x0 MSTORE PUSH1 0x40 PUSH1 0x0 KECCAK256 PUSH1 0x0 SWAP2 POP SWAP1 POP DUP1 PUSH1 0x0 ADD PUSH1 0x0 SWAP1 SLOAD SWAP1 PUSH2 0x100 EXP SWAP1 DIV PUSH20 0xFFFFFFFFFFFFFFFFFFFFFFFFFFFFFFFFFFFFFFFF AND SWAP1 DUP1 PUSH1 0x1 ADD SLOAD SWAP1 DUP1 PUSH1 0x2 ADD PUSH1 0x0 SWAP1 SLOAD SWAP1 PUSH2 0x100 EXP SWAP1 DIV PUSH1 0xFF AND SWAP1 POP DUP4 JUMP JUMPDEST PUSH1 0x1 PUSH1 0x20 MSTORE DUP1 PUSH1 0x0 MSTORE PUSH1 0x40 PUSH1 0x0 KECCAK256 PUSH1 0x0 SWAP2 POP SWAP1 POP DUP1 PUSH1 0x0 ADD DUP1 SLOAD PUSH2 0x232 SWAP1 PUSH2 0xD97 JUMP JUMPDEST DUP1 PUSH1 0x1F ADD PUSH1 0x20 DUP1 SWAP2 DIV MUL PUSH1 0x20 ADD PUSH1 0x40 MLOAD SWAP1 DUP2 ADD PUSH1 0x40 MSTORE DUP1 SWAP3 SWAP2 SWAP1 DUP2 DUP2 MSTORE PUSH1 0x20 ADD DUP3 DUP1 SLOAD PUSH2 0x25E SWAP1 PUSH2 0xD97 JUMP JUMPDEST DUP1 ISZERO PUSH2 0x2AB JUMPI DUP1 PUSH1 0x1F LT PUSH2 0x280 JUMPI PUSH2 0x100 DUP1 DUP4 SLOAD DIV MUL DUP4 MSTORE SWAP2 PUSH1 0x20 ADD SWAP2 PUSH2 0x2AB JUMP JUMPDEST DUP3 ADD SWAP2 SWAP1 PUSH1 0x0 MSTORE PUSH1 0x20 PUSH1 0x0 KECCAK256 SWAP1 JUMPDEST DUP2 SLOAD DUP2 MSTORE SWAP1 PUSH1 0x1 ADD SWAP1 PUSH1 0x20 ADD DUP1 DUP4 GT PUSH2 0x28E JUMPI DUP3 SWAP1 SUB PUSH1 0x1F AND DUP3 ADD SWAP2 JUMPDEST POP POP POP POP POP SWAP1 DUP1 PUSH1 0x1 ADD DUP1 SLOAD PUSH2 0x2C0 SWAP1 PUSH2 0xD97 JUMP JUMPDEST DUP1 PUSH1 0x1F ADD PUSH1 0x20 DUP1 SWAP2 DIV MUL PUSH1 0x20 ADD PUSH1 0x40 MLOAD SWAP1 DUP2 ADD PUSH1 0x40 MSTORE DUP1 SWAP3 SWAP2 SWAP1 DUP2 DUP2 MSTORE PUSH1 0x20 ADD DUP3 DUP1 SLOAD PUSH2 0x2EC SWAP1 PUSH2 0xD97 JUMP JUMPDEST DUP1 ISZERO PUSH2 0x339 JUMPI DUP1 PUSH1 0x1F LT PUSH2 0x30E JUMPI PUSH2 0x100 DUP1 DUP4 SLOAD DIV MUL DUP4 MSTORE SWAP2 PUSH1 0x20 ADD SWAP2 PUSH2 0x339 JUMP JUMPDEST DUP3 ADD SWAP2 SWAP1 PUSH1 0x0 MSTORE PUSH1 0x20 PUSH1 0x0 KECCAK256 SWAP1 JUMPDEST DUP2 SLOAD DUP2 MSTORE SWAP1 PUSH1 0x1 ADD SWAP1 PUSH1 0x20 ADD DUP1 DUP4 GT PUSH2 0x31C JUMPI DUP3 SWAP1 SUB PUSH1 0x1F AND DUP3 ADD SWAP2 JUMPDEST POP POP POP POP POP SWAP1 DUP1 PUSH1 0x2 ADD SLOAD SWAP1 DUP1 PUSH1 0x3 ADD SLOAD SWAP1 DUP1 PUSH1 0x4 ADD PUSH1 0x40 MLOAD DUP1 PUSH1 0x40 ADD PUSH1 0x40 MSTORE SWAP1 DUP2 PUSH1 0x0 DUP3 ADD SLOAD DUP2 MSTORE PUSH1 0x20 ADD PUSH1 0x1 DUP3 ADD SLOAD DUP2 MSTORE POP POP SWAP1 POP DUP6 JUMP JUMPDEST PUSH1 0x3 PUSH1 0x20 MSTORE DUP1 PUSH1 0x0 MSTORE PUSH1 0x40 PUSH1 0x0 KECCAK256 PUSH1 0x0 SWAP2 POP SWAP1 POP DUP1 PUSH1 0x0 ADD PUSH1 0x0 SWAP1 SLOAD SWAP1 PUSH2 0x100 EXP SWAP1 DIV PUSH1 0xFF AND SWAP1 DUP1 PUSH1 0x1 ADD SLOAD SWAP1 DUP1 PUSH1 0x2 ADD SLOAD SWAP1 POP DUP4 JUMP JUMPDEST PUSH1 0x2 DUP2 DUP2 SLOAD DUP2 LT PUSH2 0x3BA JUMPI PUSH1 0x0 DUP1 REVERT JUMPDEST SWAP1 PUSH1 0x0 MSTORE PUSH1 0x20 PUSH1 0x0 KECCAK256 SWAP1 PUSH1 0x6 MUL ADD PUSH1 0x0 SWAP2 POP SWAP1 POP DUP1 PUSH1 0x0 ADD DUP1 SLOAD PUSH2 0x3DD SWAP1 PUSH2 0xD97 JUMP JUMPDEST DUP1 PUSH1 0x1F ADD PUSH1 0x20 DUP1 SWAP2 DIV MUL PUSH1 0x20 ADD PUSH1 0x40 MLOAD SWAP1 DUP2 ADD PUSH1 0x40 MSTORE DUP1 SWAP3 SWAP2 SWAP1 DUP2 DUP2 MSTORE PUSH1 0x20 ADD DUP3 DUP1 SLOAD PUSH2 0x409 SWAP1 PUSH2 0xD97 JUMP JUMPDEST DUP1 ISZERO PUSH2 0x456 JUMPI DUP1 PUSH1 0x1F LT PUSH2 0x42B JUMPI PUSH2 0x100 DUP1 DUP4 SLOAD DIV MUL DUP4 MSTORE SWAP2 PUSH1 0x20 ADD SWAP2 PUSH2 0x456 JUMP JUMPDEST DUP3 ADD SWAP2 SWAP1 PUSH1 0x0 MSTORE PUSH1 0x20 PUSH1 0x0 KECCAK256 SWAP1 JUMPDEST DUP2 SLOAD DUP2 MSTORE SWAP1 PUSH1 0x1 ADD SWAP1 PUSH1 0x20 ADD DUP1 DUP4 GT PUSH2 0x439 JUMPI DUP3 SWAP1 SUB PUSH1 0x1F AND DUP3 ADD SWAP2 JUMPDEST POP POP POP POP POP SWAP1 DUP1 PUSH1 0x1 ADD DUP1 SLOAD PUSH2 0x46B SWAP1 PUSH2 0xD97 JUMP JUMPDEST DUP1 PUSH1 0x1F ADD PUSH1 0x20 DUP1 SWAP2 DIV MUL PUSH1 0x20 ADD PUSH1 0x40 MLOAD SWAP1 DUP2 ADD PUSH1 0x40 MSTORE DUP1 SWAP3 SWAP2 SWAP1 DUP2 DUP2 MSTORE PUSH1 0x20 ADD DUP3 DUP1 SLOAD PUSH2 0x497 SWAP1 PUSH2 0xD97 JUMP JUMPDEST DUP1 ISZERO PUSH2 0x4E4 JUMPI DUP1 PUSH1 0x1F LT PUSH2 0x4B9 JUMPI PUSH2 0x100 DUP1 DUP4 SLOAD DIV MUL DUP4 MSTORE SWAP2 PUSH1 0x20 ADD SWAP2 PUSH2 0x4E4 JUMP JUMPDEST DUP3 ADD SWAP2 SWAP1 PUSH1 0x0 MSTORE PUSH1 0x20 PUSH1 0x0 KECCAK256 SWAP1 JUMPDEST DUP2 SLOAD DUP2 MSTORE SWAP1 PUSH1 0x1 ADD SWAP1 PUSH1 0x20 ADD DUP1 DUP4 GT PUSH2 0x4C7 JUMPI DUP3 SWAP1 SUB PUSH1 0x1F AND DUP3 ADD SWAP2 JUMPDEST POP POP POP POP POP SWAP1 DUP1 PUSH1 0x2 ADD SLOAD SWAP1 DUP1 PUSH1 0x3 ADD SLOAD SWAP1 DUP1 PUSH1 0x4 ADD PUSH1 0x40 MLOAD DUP1 PUSH1 0x40 ADD PUSH1 0x40 MSTORE SWAP1 DUP2 PUSH1 0x0 DUP3 ADD SLOAD DUP2 MSTORE PUSH1 0x20 ADD PUSH1 0x1 DUP3 ADD SLOAD DUP2 MSTORE POP POP SWAP1 POP DUP6 JUMP JUMPDEST PUSH1 0x0 CALLER PUSH20 0xFFFFFFFFFFFFFFFFFFFFFFFFFFFFFFFFFFFFFFFF AND PUSH1 0x0 DUP1 SLOAD SWAP1 PUSH2 0x100 EXP SWAP1 DIV PUSH20 0xFFFFFFFFFFFFFFFFFFFFFFFFFFFFFFFFFFFFFFFF AND PUSH20 0xFFFFFFFFFFFFFFFFFFFFFFFFFFFFFFFFFFFFFFFF AND EQ PUSH2 0x5AE JUMPI PUSH1 0x40 MLOAD PUSH32 0x8C379A000000000000000000000000000000000000000000000000000000000 DUP2 MSTORE PUSH1 0x4 ADD PUSH2 0x5A5 SWAP1 PUSH2 0xE14 JUMP JUMPDEST PUSH1 0x40 MLOAD DUP1 SWAP2 SUB SWAP1 REVERT JUMPDEST PUSH1 0x0 PUSH1 0x5F DUP4 PUSH2 0x5BD SWAP2 SWAP1 PUSH2 0xE63 JUMP JUMPDEST SWAP1 POP PUSH1 0x0 PUSH1 0x40 MLOAD DUP1 PUSH1 0x40 ADD PUSH1 0x40 MSTORE DUP1 PUSH1 0x0 DUP2 MSTORE PUSH1 0x20 ADD PUSH1 0x0 DUP2 MSTORE POP SWAP1 POP PUSH1 0x2 PUSH1 0x40 MLOAD DUP1 PUSH1 0xA0 ADD PUSH1 0x40 MSTORE DUP1 DUP11 DUP11 DUP1 DUP1 PUSH1 0x1F ADD PUSH1 0x20 DUP1 SWAP2 DIV MUL PUSH1 0x20 ADD PUSH1 0x40 MLOAD SWAP1 DUP2 ADD PUSH1 0x40 MSTORE DUP1 SWAP4 SWAP3 SWAP2 SWAP1 DUP2 DUP2 MSTORE PUSH1 0x20 ADD DUP4 DUP4 DUP1 DUP3 DUP5 CALLDATACOPY PUSH1 0x0 DUP2 DUP5 ADD MSTORE PUSH1 0x1F NOT PUSH1 0x1F DUP3 ADD AND SWAP1 POP DUP1 DUP4 ADD SWAP3 POP POP POP POP POP POP POP DUP2 MSTORE PUSH1 0x20 ADD DUP9 DUP9 DUP1 DUP1 PUSH1 0x1F ADD PUSH1 0x20 DUP1 SWAP2 DIV MUL PUSH1 0x20 ADD PUSH1 0x40 MLOAD SWAP1 DUP2 ADD PUSH1 0x40 MSTORE DUP1 SWAP4 SWAP3 SWAP2 SWAP1 DUP2 DUP2 MSTORE PUSH1 0x20 ADD DUP4 DUP4 DUP1 DUP3 DUP5 CALLDATACOPY PUSH1 0x0 DUP2 DUP5 ADD MSTORE PUSH1 0x1F NOT PUSH1 0x1F DUP3 ADD AND SWAP1 POP DUP1 DUP4 ADD SWAP3 POP POP POP POP POP POP POP DUP2 MSTORE PUSH1 0x20 ADD DUP7 DUP2 MSTORE PUSH1 0x20 ADD DUP5 DUP2 MSTORE PUSH1 0x20 ADD DUP4 DUP2 MSTORE POP SWAP1 DUP1 PUSH1 0x1 DUP2 SLOAD ADD DUP1 DUP3 SSTORE DUP1 SWAP2 POP POP PUSH1 0x1 SWAP1 SUB SWAP1 PUSH1 0x0 MSTORE PUSH1 0x20 PUSH1 0x0 KECCAK256 SWAP1 PUSH1 0x6 MUL ADD PUSH1 0x0 SWAP1 SWAP2 SWAP1 SWAP2 SWAP1 SWAP2 POP PUSH1 0x0 DUP3 ADD MLOAD DUP2 PUSH1 0x0 ADD SWAP1 DUP2 PUSH2 0x6C9 SWAP2 SWAP1 PUSH2 0x1072 JUMP JUMPDEST POP PUSH1 0x20 DUP3 ADD MLOAD DUP2 PUSH1 0x1 ADD SWAP1 DUP2 PUSH2 0x6DF SWAP2 SWAP1 PUSH2 0x1072 JUMP JUMPDEST POP PUSH1 0x40 DUP3 ADD MLOAD DUP2 PUSH1 0x2 ADD SSTORE PUSH1 0x60 DUP3 ADD MLOAD DUP2 PUSH1 0x3 ADD SSTORE PUSH1 0x80 DUP3 ADD MLOAD DUP2 PUSH1 0x4 ADD PUSH1 0x0 DUP3 ADD MLOAD DUP2 PUSH1 0x0 ADD SSTORE PUSH1 0x20 DUP3 ADD MLOAD DUP2 PUSH1 0x1 ADD SSTORE POP POP POP POP PUSH1 0x1 SWAP3 POP POP POP SWAP6 SWAP5 POP POP POP POP POP JUMP JUMPDEST CALLER PUSH20 0xFFFFFFFFFFFFFFFFFFFFFFFFFFFFFFFFFFFFFFFF AND PUSH1 0x0 DUP1 SLOAD SWAP1 PUSH2 0x100 EXP SWAP1 DIV PUSH20 0xFFFFFFFFFFFFFFFFFFFFFFFFFFFFFFFFFFFFFFFF AND PUSH20 0xFFFFFFFFFFFFFFFFFFFFFFFFFFFFFFFFFFFFFFFF AND EQ PUSH2 0x7B2 JUMPI PUSH1 0x40 MLOAD PUSH32 0x8C379A000000000000000000000000000000000000000000000000000000000 DUP2 MSTORE PUSH1 0x4 ADD PUSH2 0x7A9 SWAP1 PUSH2 0xE14 JUMP JUMPDEST PUSH1 0x40 MLOAD DUP1 SWAP2 SUB SWAP1 REVERT JUMPDEST PUSH1 0x0 TIMESTAMP SWAP1 POP PUSH1 0x2 DUP5 DUP2 SLOAD DUP2 LT PUSH2 0x7CB JUMPI PUSH2 0x7CA PUSH2 0x1144 JUMP JUMPDEST JUMPDEST SWAP1 PUSH1 0x0 MSTORE PUSH1 0x20 PUSH1 0x0 KECCAK256 SWAP1 PUSH1 0x6 MUL ADD PUSH1 0x3 ADD SLOAD DUP2 LT ISZERO PUSH2 0x81F JUMPI PUSH1 0x40 MLOAD PUSH32 0x8C379A000000000000000000000000000000000000000000000000000000000 DUP2 MSTORE PUSH1 0x4 ADD PUSH2 0x816 SWAP1 PUSH2 0x11BF JUMP JUMPDEST PUSH1 0x40 MLOAD DUP1 SWAP2 SUB SWAP1 REVERT JUMPDEST PUSH1 0x0 PUSH1 0x40 MLOAD DUP1 PUSH1 0x40 ADD PUSH1 0x40 MSTORE DUP1 DUP6 DUP2 MSTORE PUSH1 0x20 ADD DUP5 DUP2 MSTORE POP SWAP1 POP DUP1 PUSH1 0x2 DUP7 DUP2 SLOAD DUP2 LT PUSH2 0x84D JUMPI PUSH2 0x84C PUSH2 0x1144 JUMP JUMPDEST JUMPDEST SWAP1 PUSH1 0x0 MSTORE PUSH1 0x20 PUSH1 0x0 KECCAK256 SWAP1 PUSH1 0x6 MUL ADD PUSH1 0x4 ADD PUSH1 0x0 DUP3 ADD MLOAD DUP2 PUSH1 0x0 ADD SSTORE PUSH1 0x20 DUP3 ADD MLOAD DUP2 PUSH1 0x1 ADD SSTORE SWAP1 POP POP POP POP POP POP POP JUMP JUMPDEST PUSH1 0x0 DUP1 SLOAD SWAP1 PUSH2 0x100 EXP SWAP1 DIV PUSH20 0xFFFFFFFFFFFFFFFFFFFFFFFFFFFFFFFFFFFFFFFF AND DUP2 JUMP JUMPDEST PUSH1 0x0 DUP1 REVERT JUMPDEST PUSH1 0x0 DUP1 REVERT JUMPDEST PUSH1 0x0 DUP2 SWAP1 POP SWAP2 SWAP1 POP JUMP JUMPDEST PUSH2 0x8BD DUP2 PUSH2 0x8AA JUMP JUMPDEST DUP2 EQ PUSH2 0x8C8 JUMPI PUSH1 0x0 DUP1 REVERT JUMPDEST POP JUMP JUMPDEST PUSH1 0x0 DUP2 CALLDATALOAD SWAP1 POP PUSH2 0x8DA DUP2 PUSH2 0x8B4 JUMP JUMPDEST SWAP3 SWAP2 POP POP JUMP JUMPDEST PUSH1 0x0 PUSH1 0x20 DUP3 DUP5 SUB SLT ISZERO PUSH2 0x8F6 JUMPI PUSH2 0x8F5 PUSH2 0x8A0 JUMP JUMPDEST JUMPDEST PUSH1 0x0 PUSH2 0x904 DUP5 DUP3 DUP6 ADD PUSH2 0x8CB JUMP JUMPDEST SWAP2 POP POP SWAP3 SWAP2 POP POP JUMP JUMPDEST PUSH1 0x0 PUSH20 0xFFFFFFFFFFFFFFFFFFFFFFFFFFFFFFFFFFFFFFFF DUP3 AND SWAP1 POP SWAP2 SWAP1 POP JUMP JUMPDEST PUSH1 0x0 PUSH2 0x938 DUP3 PUSH2 0x90D JUMP JUMPDEST SWAP1 POP SWAP2 SWAP1 POP JUMP JUMPDEST PUSH2 0x948 DUP2 PUSH2 0x92D JUMP JUMPDEST DUP3 MSTORE POP POP JUMP JUMPDEST PUSH2 0x957 DUP2 PUSH2 0x8AA JUMP JUMPDEST DUP3 MSTORE POP POP JUMP JUMPDEST PUSH32 0x4E487B7100000000000000000000000000000000000000000000000000000000 PUSH1 0x0 MSTORE PUSH1 0x21 PUSH1 0x4 MSTORE PUSH1 0x24 PUSH1 0x0 REVERT JUMPDEST PUSH1 0x4 DUP2 LT PUSH2 0x99D JUMPI PUSH2 0x99C PUSH2 0x95D JUMP JUMPDEST JUMPDEST POP JUMP JUMPDEST PUSH1 0x0 DUP2 SWAP1 POP PUSH2 0x9AE DUP3 PUSH2 0x98C JUMP JUMPDEST SWAP2 SWAP1 POP JUMP JUMPDEST PUSH1 0x0 PUSH2 0x9BE DUP3 PUSH2 0x9A0 JUMP JUMPDEST SWAP1 POP SWAP2 SWAP1 POP JUMP JUMPDEST PUSH2 0x9CE DUP2 PUSH2 0x9B3 JUMP JUMPDEST DUP3 MSTORE POP POP JUMP JUMPDEST PUSH1 0x0 PUSH1 0x60 DUP3 ADD SWAP1 POP PUSH2 0x9E9 PUSH1 0x0 DUP4 ADD DUP7 PUSH2 0x93F JUMP JUMPDEST PUSH2 0x9F6 PUSH1 0x20 DUP4 ADD DUP6 PUSH2 0x94E JUMP JUMPDEST PUSH2 0xA03 PUSH1 0x40 DUP4 ADD DUP5 PUSH2 0x9C5 JUMP JUMPDEST SWAP5 SWAP4 POP POP POP POP JUMP JUMPDEST PUSH1 0x0 DUP2 MLOAD SWAP1 POP SWAP2 SWAP1 POP JUMP JUMPDEST PUSH1 0x0 DUP3 DUP3 MSTORE PUSH1 0x20 DUP3 ADD SWAP1 POP SWAP3 SWAP2 POP POP JUMP JUMPDEST PUSH1 0x0 JUMPDEST DUP4 DUP2 LT ISZERO PUSH2 0xA45 JUMPI DUP1 DUP3 ADD MLOAD DUP2 DUP5 ADD MSTORE PUSH1 0x20 DUP2 ADD SWAP1 POP PUSH2 0xA2A JUMP JUMPDEST PUSH1 0x0 DUP5 DUP5 ADD MSTORE POP POP POP POP JUMP JUMPDEST PUSH1 0x0 PUSH1 0x1F NOT PUSH1 0x1F DUP4 ADD AND SWAP1 POP SWAP2 SWAP1 POP JUMP JUMPDEST PUSH1 0x0 PUSH2 0xA6D DUP3 PUSH2 0xA0B JUMP JUMPDEST PUSH2 0xA77 DUP2 DUP6 PUSH2 0xA16 JUMP JUMPDEST SWAP4 POP PUSH2 0xA87 DUP2 DUP6 PUSH1 0x20 DUP7 ADD PUSH2 0xA27 JUMP JUMPDEST PUSH2 0xA90 DUP2 PUSH2 0xA51 JUMP JUMPDEST DUP5 ADD SWAP2 POP POP SWAP3 SWAP2 POP POP JUMP JUMPDEST PUSH2 0xAA4 DUP2 PUSH2 0x8AA JUMP JUMPDEST DUP3 MSTORE POP POP JUMP JUMPDEST PUSH1 0x40 DUP3 ADD PUSH1 0x0 DUP3 ADD MLOAD PUSH2 0xAC0 PUSH1 0x0 DUP6 ADD DUP3 PUSH2 0xA9B JUMP JUMPDEST POP PUSH1 0x20 DUP3 ADD MLOAD PUSH2 0xAD3 PUSH1 0x20 DUP6 ADD DUP3 PUSH2 0xA9B JUMP JUMPDEST POP POP POP POP JUMP JUMPDEST PUSH1 0x0 PUSH1 0xC0 DUP3 ADD SWAP1 POP DUP2 DUP2 SUB PUSH1 0x0 DUP4 ADD MSTORE PUSH2 0xAF3 DUP2 DUP9 PUSH2 0xA62 JUMP JUMPDEST SWAP1 POP DUP2 DUP2 SUB PUSH1 0x20 DUP4 ADD MSTORE PUSH2 0xB07 DUP2 DUP8 PUSH2 0xA62 JUMP JUMPDEST SWAP1 POP PUSH2 0xB16 PUSH1 0x40 DUP4 ADD DUP7 PUSH2 0x94E JUMP JUMPDEST PUSH2 0xB23 PUSH1 0x60 DUP4 ADD DUP6 PUSH2 0x94E JUMP JUMPDEST PUSH2 0xB30 PUSH1 0x80 DUP4 ADD DUP5 PUSH2 0xAAA JUMP JUMPDEST SWAP7 SWAP6 POP POP POP POP POP POP JUMP JUMPDEST PUSH2 0xB43 DUP2 PUSH2 0x92D JUMP JUMPDEST DUP2 EQ PUSH2 0xB4E JUMPI PUSH1 0x0 DUP1 REVERT JUMPDEST POP JUMP JUMPDEST PUSH1 0x0 DUP2 CALLDATALOAD SWAP1 POP PUSH2 0xB60 DUP2 PUSH2 0xB3A JUMP JUMPDEST SWAP3 SWAP2 POP POP JUMP JUMPDEST PUSH1 0x0 PUSH1 0x20 DUP3 DUP5 SUB SLT ISZERO PUSH2 0xB7C JUMPI PUSH2 0xB7B PUSH2 0x8A0 JUMP JUMPDEST JUMPDEST PUSH1 0x0 PUSH2 0xB8A DUP5 DUP3 DUP6 ADD PUSH2 0xB51 JUMP JUMPDEST SWAP2 POP POP SWAP3 SWAP2 POP POP JUMP JUMPDEST PUSH1 0x0 PUSH1 0x60 DUP3 ADD SWAP1 POP PUSH2 0xBA8 PUSH1 0x0 DUP4 ADD DUP7 PUSH2 0x9C5 JUMP JUMPDEST PUSH2 0xBB5 PUSH1 0x20 DUP4 ADD DUP6 PUSH2 0x94E JUMP JUMPDEST PUSH2 0xBC2 PUSH1 0x40 DUP4 ADD DUP5 PUSH2 0x94E JUMP JUMPDEST SWAP5 SWAP4 POP POP POP POP JUMP JUMPDEST PUSH1 0x0 DUP1 REVERT JUMPDEST PUSH1 0x0 DUP1 REVERT JUMPDEST PUSH1 0x0 DUP1 REVERT JUMPDEST PUSH1 0x0 DUP1 DUP4 PUSH1 0x1F DUP5 ADD SLT PUSH2 0xBEF JUMPI PUSH2 0xBEE PUSH2 0xBCA JUMP JUMPDEST JUMPDEST DUP3 CALLDATALOAD SWAP1 POP PUSH8 0xFFFFFFFFFFFFFFFF DUP2 GT ISZERO PUSH2 0xC0C JUMPI PUSH2 0xC0B PUSH2 0xBCF JUMP JUMPDEST JUMPDEST PUSH1 0x20 DUP4 ADD SWAP2 POP DUP4 PUSH1 0x1 DUP3 MUL DUP4 ADD GT ISZERO PUSH2 0xC28 JUMPI PUSH2 0xC27 PUSH2 0xBD4 JUMP JUMPDEST JUMPDEST SWAP3 POP SWAP3 SWAP1 POP JUMP JUMPDEST PUSH1 0x0 DUP1 PUSH1 0x0 DUP1 PUSH1 0x0 PUSH1 0x60 DUP7 DUP9 SUB SLT ISZERO PUSH2 0xC4B JUMPI PUSH2 0xC4A PUSH2 0x8A0 JUMP JUMPDEST JUMPDEST PUSH1 0x0 DUP7 ADD CALLDATALOAD PUSH8 0xFFFFFFFFFFFFFFFF DUP2 GT ISZERO PUSH2 0xC69 JUMPI PUSH2 0xC68 PUSH2 0x8A5 JUMP JUMPDEST JUMPDEST PUSH2 0xC75 DUP9 DUP3 DUP10 ADD PUSH2 0xBD9 JUMP JUMPDEST SWAP6 POP SWAP6 POP POP PUSH1 0x20 DUP7 ADD CALLDATALOAD PUSH8 0xFFFFFFFFFFFFFFFF DUP2 GT ISZERO PUSH2 0xC98 JUMPI PUSH2 0xC97 PUSH2 0x8A5 JUMP JUMPDEST JUMPDEST PUSH2 0xCA4 DUP9 DUP3 DUP10 ADD PUSH2 0xBD9 JUMP JUMPDEST SWAP4 POP SWAP4 POP POP PUSH1 0x40 PUSH2 0xCB7 DUP9 DUP3 DUP10 ADD PUSH2 0x8CB JUMP JUMPDEST SWAP2 POP POP SWAP3 SWAP6 POP SWAP3 SWAP6 SWAP1 SWAP4 POP JUMP JUMPDEST PUSH1 0x0 DUP2 ISZERO ISZERO SWAP1 POP SWAP2 SWAP1 POP JUMP JUMPDEST PUSH2 0xCD9 DUP2 PUSH2 0xCC4 JUMP JUMPDEST DUP3 MSTORE POP POP JUMP JUMPDEST PUSH1 0x0 PUSH1 0x20 DUP3 ADD SWAP1 POP PUSH2 0xCF4 PUSH1 0x0 DUP4 ADD DUP5 PUSH2 0xCD0 JUMP JUMPDEST SWAP3 SWAP2 POP POP JUMP JUMPDEST PUSH1 0x0 DUP1 PUSH1 0x0 PUSH1 0x60 DUP5 DUP7 SUB SLT ISZERO PUSH2 0xD13 JUMPI PUSH2 0xD12 PUSH2 0x8A0 JUMP JUMPDEST JUMPDEST PUSH1 0x0 PUSH2 0xD21 DUP7 DUP3 DUP8 ADD PUSH2 0x8CB JUMP JUMPDEST SWAP4 POP POP PUSH1 0x20 PUSH2 0xD32 DUP7 DUP3 DUP8 ADD PUSH2 0x8CB JUMP JUMPDEST SWAP3 POP POP PUSH1 0x40 PUSH2 0xD43 DUP7 DUP3 DUP8 ADD PUSH2 0x8CB JUMP JUMPDEST SWAP2 POP POP SWAP3 POP SWAP3 POP SWAP3 JUMP JUMPDEST PUSH1 0x0 PUSH1 0x20 DUP3 ADD SWAP1 POP PUSH2 0xD62 PUSH1 0x0 DUP4 ADD DUP5 PUSH2 0x93F JUMP JUMPDEST SWAP3 SWAP2 POP POP JUMP JUMPDEST PUSH32 0x4E487B7100000000000000000000000000000000000000000000000000000000 PUSH1 0x0 MSTORE PUSH1 0x22 PUSH1 0x4 MSTORE PUSH1 0x24 PUSH1 0x0 REVERT JUMPDEST PUSH1 0x0 PUSH1 0x2 DUP3 DIV SWAP1 POP PUSH1 0x1 DUP3 AND DUP1 PUSH2 0xDAF JUMPI PUSH1 0x7F DUP3 AND SWAP2 POP JUMPDEST PUSH1 0x20 DUP3 LT DUP2 SUB PUSH2 0xDC2 JUMPI PUSH2 0xDC1 PUSH2 0xD68 JUMP JUMPDEST JUMPDEST POP SWAP2 SWAP1 POP JUMP JUMPDEST PUSH32 0x4E6F74204F776E65720000000000000000000000000000000000000000000000 PUSH1 0x0 DUP3 ADD MSTORE POP JUMP JUMPDEST PUSH1 0x0 PUSH2 0xDFE PUSH1 0x9 DUP4 PUSH2 0xA16 JUMP JUMPDEST SWAP2 POP PUSH2 0xE09 DUP3 PUSH2 0xDC8 JUMP JUMPDEST PUSH1 0x20 DUP3 ADD SWAP1 POP SWAP2 SWAP1 POP JUMP JUMPDEST PUSH1 0x0 PUSH1 0x20 DUP3 ADD SWAP1 POP DUP2 DUP2 SUB PUSH1 0x0 DUP4 ADD MSTORE PUSH2 0xE2D DUP2 PUSH2 0xDF1 JUMP JUMPDEST SWAP1 POP SWAP2 SWAP1 POP JUMP JUMPDEST PUSH32 0x4E487B7100000000000000000000000000000000000000000000000000000000 PUSH1 0x0 MSTORE PUSH1 0x11 PUSH1 0x4 MSTORE PUSH1 0x24 PUSH1 0x0 REVERT JUMPDEST PUSH1 0x0 PUSH2 0xE6E DUP3 PUSH2 0x8AA JUMP JUMPDEST SWAP2 POP PUSH2 0xE79 DUP4 PUSH2 0x8AA JUMP JUMPDEST SWAP3 POP DUP3 DUP3 ADD SWAP1 POP DUP1 DUP3 GT ISZERO PUSH2 0xE91 JUMPI PUSH2 0xE90 PUSH2 0xE34 JUMP JUMPDEST JUMPDEST SWAP3 SWAP2 POP POP JUMP JUMPDEST PUSH32 0x4E487B7100000000000000000000000000000000000000000000000000000000 PUSH1 0x0 MSTORE PUSH1 0x41 PUSH1 0x4 MSTORE PUSH1 0x24 PUSH1 0x0 REVERT JUMPDEST PUSH1 0x0 DUP2 SWAP1 POP DUP2 PUSH1 0x0 MSTORE PUSH1 0x20 PUSH1 0x0 KECCAK256 SWAP1 POP SWAP2 SWAP1 POP JUMP JUMPDEST PUSH1 0x0 PUSH1 0x20 PUSH1 0x1F DUP4 ADD DIV SWAP1 POP SWAP2 SWAP1 POP JUMP JUMPDEST PUSH1 0x0 DUP3 DUP3 SHL SWAP1 POP SWAP3 SWAP2 POP POP JUMP JUMPDEST PUSH1 0x0 PUSH1 0x8 DUP4 MUL PUSH2 0xF28 PUSH32 0xFFFFFFFFFFFFFFFFFFFFFFFFFFFFFFFFFFFFFFFFFFFFFFFFFFFFFFFFFFFFFFFF DUP3 PUSH2 0xEEB JUMP JUMPDEST PUSH2 0xF32 DUP7 DUP4 PUSH2 0xEEB JUMP JUMPDEST SWAP6 POP DUP1 NOT DUP5 AND SWAP4 POP DUP1 DUP7 AND DUP5 OR SWAP3 POP POP POP SWAP4 SWAP3 POP POP POP JUMP JUMPDEST PUSH1 0x0 DUP2 SWAP1 POP SWAP2 SWAP1 POP JUMP JUMPDEST PUSH1 0x0 PUSH2 0xF6F PUSH2 0xF6A PUSH2 0xF65 DUP5 PUSH2 0x8AA JUMP JUMPDEST PUSH2 0xF4A JUMP JUMPDEST PUSH2 0x8AA JUMP JUMPDEST SWAP1 POP SWAP2 SWAP1 POP JUMP JUMPDEST PUSH1 0x0 DUP2 SWAP1 POP SWAP2 SWAP1 POP JUMP JUMPDEST PUSH2 0xF89 DUP4 PUSH2 0xF54 JUMP JUMPDEST PUSH2 0xF9D PUSH2 0xF95 DUP3 PUSH2 0xF76 JUMP JUMPDEST DUP5 DUP5 SLOAD PUSH2 0xEF8 JUMP JUMPDEST DUP3 SSTORE POP POP POP POP JUMP JUMPDEST PUSH1 0x0 SWAP1 JUMP JUMPDEST PUSH2 0xFB2 PUSH2 0xFA5 JUMP JUMPDEST PUSH2 0xFBD DUP2 DUP5 DUP5 PUSH2 0xF80 JUMP JUMPDEST POP POP POP JUMP JUMPDEST JUMPDEST DUP2 DUP2 LT ISZERO PUSH2 0xFE1 JUMPI PUSH2 0xFD6 PUSH1 0x0 DUP3 PUSH2 0xFAA JUMP JUMPDEST PUSH1 0x1 DUP2 ADD SWAP1 POP PUSH2 0xFC3 JUMP JUMPDEST POP POP JUMP JUMPDEST PUSH1 0x1F DUP3 GT ISZERO PUSH2 0x1026 JUMPI PUSH2 0xFF7 DUP2 PUSH2 0xEC6 JUMP JUMPDEST PUSH2 0x1000 DUP5 PUSH2 0xEDB JUMP JUMPDEST DUP2 ADD PUSH1 0x20 DUP6 LT ISZERO PUSH2 0x100F JUMPI DUP2 SWAP1 POP JUMPDEST PUSH2 0x1023 PUSH2 0x101B DUP6 PUSH2 0xEDB JUMP JUMPDEST DUP4 ADD DUP3 PUSH2 0xFC2 JUMP JUMPDEST POP POP JUMPDEST POP POP POP JUMP JUMPDEST PUSH1 0x0 DUP3 DUP3 SHR SWAP1 POP SWAP3 SWAP2 POP POP JUMP JUMPDEST PUSH1 0x0 PUSH2 0x1049 PUSH1 0x0 NOT DUP5 PUSH1 0x8 MUL PUSH2 0x102B JUMP JUMPDEST NOT DUP1 DUP4 AND SWAP2 POP POP SWAP3 SWAP2 POP POP JUMP JUMPDEST PUSH1 0x0 PUSH2 0x1062 DUP4 DUP4 PUSH2 0x1038 JUMP JUMPDEST SWAP2 POP DUP3 PUSH1 0x2 MUL DUP3 OR SWAP1 POP SWAP3 SWAP2 POP POP JUMP JUMPDEST PUSH2 0x107B DUP3 PUSH2 0xA0B JUMP JUMPDEST PUSH8 0xFFFFFFFFFFFFFFFF DUP2 GT ISZERO PUSH2 0x1094 JUMPI PUSH2 0x1093 PUSH2 0xE97 JUMP JUMPDEST JUMPDEST PUSH2 0x109E DUP3 SLOAD PUSH2 0xD97 JUMP JUMPDEST PUSH2 0x10A9 DUP3 DUP3 DUP6 PUSH2 0xFE5 JUMP JUMPDEST PUSH1 0x0 PUSH1 0x20 SWAP1 POP PUSH1 0x1F DUP4 GT PUSH1 0x1 DUP2 EQ PUSH2 0x10DC JUMPI PUSH1 0x0 DUP5 ISZERO PUSH2 0x10CA JUMPI DUP3 DUP8 ADD MLOAD SWAP1 POP JUMPDEST PUSH2 0x10D4 DUP6 DUP3 PUSH2 0x1056 JUMP JUMPDEST DUP7 SSTORE POP PUSH2 0x113C JUMP JUMPDEST PUSH1 0x1F NOT DUP5 AND PUSH2 0x10EA DUP7 PUSH2 0xEC6 JUMP JUMPDEST PUSH1 0x0 JUMPDEST DUP3 DUP2 LT ISZERO PUSH2 0x1112 JUMPI DUP5 DUP10 ADD MLOAD DUP3 SSTORE PUSH1 0x1 DUP3 ADD SWAP2 POP PUSH1 0x20 DUP6 ADD SWAP5 POP PUSH1 0x20 DUP2 ADD SWAP1 POP PUSH2 0x10ED JUMP JUMPDEST DUP7 DUP4 LT ISZERO PUSH2 0x112F JUMPI DUP5 DUP10 ADD MLOAD PUSH2 0x112B PUSH1 0x1F DUP10 AND DUP3 PUSH2 0x1038 JUMP JUMPDEST DUP4 SSTORE POP JUMPDEST PUSH1 0x1 PUSH1 0x2 DUP9 MUL ADD DUP9 SSTORE POP POP POP JUMPDEST POP POP POP POP POP POP JUMP JUMPDEST PUSH32 0x4E487B7100000000000000000000000000000000000000000000000000000000 PUSH1 0x0 MSTORE PUSH1 0x32 PUSH1 0x4 MSTORE PUSH1 0x24 PUSH1 0x0 REVERT JUMPDEST PUSH32 0x4D61746368206973207374696C6C206F6E000000000000000000000000000000 PUSH1 0x0 DUP3 ADD MSTORE POP JUMP JUMPDEST PUSH1 0x0 PUSH2 0x11A9 PUSH1 0x11 DUP4 PUSH2 0xA16 JUMP JUMPDEST SWAP2 POP PUSH2 0x11B4 DUP3 PUSH2 0x1173 JUMP JUMPDEST PUSH1 0x20 DUP3 ADD SWAP1 POP SWAP2 SWAP1 POP JUMP JUMPDEST PUSH1 0x0 PUSH1 0x20 DUP3 ADD SWAP1 POP DUP2 DUP2 SUB PUSH1 0x0 DUP4 ADD MSTORE PUSH2 0x11D8 DUP2 PUSH2 0x119C JUMP JUMPDEST SWAP1 POP SWAP2 SWAP1 POP JUMP INVALID LOG2 PUSH5 0x6970667358 0x22 SLT KECCAK256 DUP12 0xDE 0xC8 PUSH9 0xF1EB2B7FA469EDD6FD SWAP16 PUSH16 0x1DA77699A5B11EBEA59EC25EE32E3E93 BASEFEE PUSH5 0x736F6C6343 STOP ADDMOD GT STOP CALLER "
				},
				"gasEstimates": {
					"creation": {
						"codeDepositCost": "925800",
						"executionCost": "25228",
						"totalCost": "951028"
					},
					"external": {
						"admin()": "2577",
						"allMatch(uint256)": "infinite",
						"closeMatch(uint256,uint256,uint256)": "infinite",
						"instantiateMatch(string,string,uint256)": "infinite",
						"specificGame(uint256)": "infinite",
						"specificMatchBets(uint256)": "infinite",
						"userBet(address)": "infinite"
					}
				},
				"methodIdentifiers": {
					"admin()": "f851a440",
					"allMatch(uint256)": "b2edb39f",
					"closeMatch(uint256,uint256,uint256)": "ec7361a8",
					"instantiateMatch(string,string,uint256)": "bc9e6e2c",
					"specificGame(uint256)": "21749fa3",
					"specificMatchBets(uint256)": "15a3ae71",
					"userBet(address)": "67ad4ec2"
				}
			},
			"storageLayout": {
				"storage": [
					{
						"astId": 8,
						"contract": "contracts/betting.sol:DistanceFiBET",
						"label": "admin",
						"offset": 0,
						"slot": "0",
						"type": "t_address"
					},
					{
						"astId": 30,
						"contract": "contracts/betting.sol:DistanceFiBET",
						"label": "specificGame",
						"offset": 0,
						"slot": "1",
						"type": "t_mapping(t_uint256,t_struct(Match)25_storage)"
					},
					{
						"astId": 34,
						"contract": "contracts/betting.sol:DistanceFiBET",
						"label": "allMatch",
						"offset": 0,
						"slot": "2",
						"type": "t_array(t_struct(Match)25_storage)dyn_storage"
					},
					{
						"astId": 47,
						"contract": "contracts/betting.sol:DistanceFiBET",
						"label": "userBet",
						"offset": 0,
						"slot": "3",
						"type": "t_mapping(t_address,t_struct(Bettor)42_storage)"
					},
					{
						"astId": 60,
						"contract": "contracts/betting.sol:DistanceFiBET",
						"label": "specificMatchBets",
						"offset": 0,
						"slot": "4",
						"type": "t_mapping(t_uint256,t_struct(allBets)55_storage)"
					}
				],
				"types": {
					"t_address": {
						"encoding": "inplace",
						"label": "address",
						"numberOfBytes": "20"
					},
					"t_array(t_struct(Match)25_storage)dyn_storage": {
						"base": "t_struct(Match)25_storage",
						"encoding": "dynamic_array",
						"label": "struct DistanceFiBET.Match[]",
						"numberOfBytes": "32"
					},
					"t_enum(Choices)6": {
						"encoding": "inplace",
						"label": "enum DistanceFiBET.Choices",
						"numberOfBytes": "1"
					},
					"t_mapping(t_address,t_struct(Bettor)42_storage)": {
						"encoding": "mapping",
						"key": "t_address",
						"label": "mapping(address => struct DistanceFiBET.Bettor)",
						"numberOfBytes": "32",
						"value": "t_struct(Bettor)42_storage"
					},
					"t_mapping(t_uint256,t_struct(Match)25_storage)": {
						"encoding": "mapping",
						"key": "t_uint256",
						"label": "mapping(uint256 => struct DistanceFiBET.Match)",
						"numberOfBytes": "32",
						"value": "t_struct(Match)25_storage"
					},
					"t_mapping(t_uint256,t_struct(allBets)55_storage)": {
						"encoding": "mapping",
						"key": "t_uint256",
						"label": "mapping(uint256 => struct DistanceFiBET.allBets)",
						"numberOfBytes": "32",
						"value": "t_struct(allBets)55_storage"
					},
					"t_string_storage": {
						"encoding": "bytes",
						"label": "string",
						"numberOfBytes": "32"
					},
					"t_struct(Bettor)42_storage": {
						"encoding": "inplace",
						"label": "struct DistanceFiBET.Bettor",
						"members": [
							{
								"astId": 37,
								"contract": "contracts/betting.sol:DistanceFiBET",
								"label": "bet",
								"offset": 0,
								"slot": "0",
								"type": "t_enum(Choices)6"
							},
							{
								"astId": 39,
								"contract": "contracts/betting.sol:DistanceFiBET",
								"label": "winAmounts",
								"offset": 0,
								"slot": "1",
								"type": "t_uint256"
							},
							{
								"astId": 41,
								"contract": "contracts/betting.sol:DistanceFiBET",
								"label": "betAmount",
								"offset": 0,
								"slot": "2",
								"type": "t_uint256"
							}
						],
						"numberOfBytes": "96"
					},
					"t_struct(Match)25_storage": {
						"encoding": "inplace",
						"label": "struct DistanceFiBET.Match",
						"members": [
							{
								"astId": 15,
								"contract": "contracts/betting.sol:DistanceFiBET",
								"label": "HomeTeam",
								"offset": 0,
								"slot": "0",
								"type": "t_string_storage"
							},
							{
								"astId": 17,
								"contract": "contracts/betting.sol:DistanceFiBET",
								"label": "AwayTeam",
								"offset": 0,
								"slot": "1",
								"type": "t_string_storage"
							},
							{
								"astId": 19,
								"contract": "contracts/betting.sol:DistanceFiBET",
								"label": "startTime",
								"offset": 0,
								"slot": "2",
								"type": "t_uint256"
							},
							{
								"astId": 21,
								"contract": "contracts/betting.sol:DistanceFiBET",
								"label": "endTime",
								"offset": 0,
								"slot": "3",
								"type": "t_uint256"
							},
							{
								"astId": 24,
								"contract": "contracts/betting.sol:DistanceFiBET",
								"label": "results",
								"offset": 0,
								"slot": "4",
								"type": "t_struct(Results)13_storage"
							}
						],
						"numberOfBytes": "192"
					},
					"t_struct(Results)13_storage": {
						"encoding": "inplace",
						"label": "struct DistanceFiBET.Results",
						"members": [
							{
								"astId": 10,
								"contract": "contracts/betting.sol:DistanceFiBET",
								"label": "Home_score",
								"offset": 0,
								"slot": "0",
								"type": "t_uint256"
							},
							{
								"astId": 12,
								"contract": "contracts/betting.sol:DistanceFiBET",
								"label": "Away_score",
								"offset": 0,
								"slot": "1",
								"type": "t_uint256"
							}
						],
						"numberOfBytes": "64"
					},
					"t_struct(allBets)55_storage": {
						"encoding": "inplace",
						"label": "struct DistanceFiBET.allBets",
						"members": [
							{
								"astId": 49,
								"contract": "contracts/betting.sol:DistanceFiBET",
								"label": "bettor",
								"offset": 0,
								"slot": "0",
								"type": "t_address"
							},
							{
								"astId": 51,
								"contract": "contracts/betting.sol:DistanceFiBET",
								"label": "amount",
								"offset": 0,
								"slot": "1",
								"type": "t_uint256"
							},
							{
								"astId": 54,
								"contract": "contracts/betting.sol:DistanceFiBET",
								"label": "choice",
								"offset": 0,
								"slot": "2",
								"type": "t_enum(Choices)6"
							}
						],
						"numberOfBytes": "96"
					},
					"t_uint256": {
						"encoding": "inplace",
						"label": "uint256",
						"numberOfBytes": "32"
					}
				}
			},
			"userdoc": {
				"kind": "user",
				"methods": {},
				"version": 1
			}
		}
	}
}