{
	"contracts/betting.sol": {
		"DistanceFiBET": {
			"abi": [
				{
					"inputs": [],
					"stateMutability": "nonpayable",
					"type": "constructor"
				},
				{
					"inputs": [],
					"name": "admin",
					"outputs": [
						{
							"internalType": "address",
							"name": "",
							"type": "address"
						}
					],
					"stateMutability": "view",
					"type": "function"
				},
				{
					"inputs": [
						{
							"internalType": "uint256",
							"name": "",
							"type": "uint256"
						}
					],
					"name": "allMatch",
					"outputs": [
						{
							"internalType": "string",
							"name": "HomeTeam",
							"type": "string"
						},
						{
							"internalType": "string",
							"name": "AwayTeam",
							"type": "string"
						},
						{
							"internalType": "uint256",
							"name": "startTime",
							"type": "uint256"
						},
						{
							"internalType": "uint256",
							"name": "endTime",
							"type": "uint256"
						},
						{
							"components": [
								{
									"internalType": "uint256",
									"name": "Home_score",
									"type": "uint256"
								},
								{
									"internalType": "uint256",
									"name": "Away_score",
									"type": "uint256"
								}
							],
							"internalType": "struct DistanceFiBET.Results",
							"name": "results",
							"type": "tuple"
						}
					],
					"stateMutability": "view",
					"type": "function"
				},
				{
					"inputs": [
						{
							"internalType": "uint256",
							"name": "epoch",
							"type": "uint256"
						},
						{
							"internalType": "uint256",
							"name": "_homeScore",
							"type": "uint256"
						},
						{
							"internalType": "uint256",
							"name": "_awayScore",
							"type": "uint256"
						}
					],
					"name": "closeMatch",
					"outputs": [],
					"stateMutability": "nonpayable",
					"type": "function"
				},
				{
					"inputs": [
						{
							"internalType": "string",
							"name": "_HomeTeam",
							"type": "string"
						},
						{
							"internalType": "string",
							"name": "_AwayTeam",
							"type": "string"
						},
						{
							"internalType": "uint256",
							"name": "_startTime",
							"type": "uint256"
						}
					],
					"name": "instantiateMatch",
					"outputs": [
						{
							"internalType": "bool",
							"name": "",
							"type": "bool"
						}
					],
					"stateMutability": "nonpayable",
					"type": "function"
				},
				{
					"inputs": [
						{
							"internalType": "uint256",
							"name": "",
							"type": "uint256"
						}
					],
					"name": "specificMatchBets",
					"outputs": [
						{
							"internalType": "address",
							"name": "bettor",
							"type": "address"
						},
						{
							"internalType": "uint256",
							"name": "amount",
							"type": "uint256"
						},
						{
							"internalType": "enum DistanceFiBET.Choices",
							"name": "choice",
							"type": "uint8"
						}
					],
					"stateMutability": "view",
					"type": "function"
				},
				{
					"inputs": [
						{
							"internalType": "address",
							"name": "",
							"type": "address"
						}
					],
					"name": "userBet",
					"outputs": [
						{
							"internalType": "enum DistanceFiBET.Choices",
							"name": "bet",
							"type": "uint8"
						},
						{
							"internalType": "uint256",
							"name": "winAmounts",
							"type": "uint256"
						}
					],
					"stateMutability": "view",
					"type": "function"
				}
			],
			"devdoc": {
				"kind": "dev",
				"methods": {},
				"version": 1
			},
			"evm": {
				"assembly": "    /* \"contracts/betting.sol\":63:1895  contract DistanceFiBET{... */\n  mstore(0x40, 0x80)\n    /* \"contracts/betting.sol\":725:775  constructor(){... */\n  callvalue\n  dup1\n  iszero\n  tag_1\n  jumpi\n  0x00\n  dup1\n  revert\ntag_1:\n  pop\n    /* \"contracts/betting.sol\":757:767  msg.sender */\n  caller\n    /* \"contracts/betting.sol\":749:754  admin */\n  0x00\n  dup1\n    /* \"contracts/betting.sol\":749:767  admin = msg.sender */\n  0x0100\n  exp\n  dup2\n  sload\n  dup2\n  0xffffffffffffffffffffffffffffffffffffffff\n  mul\n  not\n  and\n  swap1\n  dup4\n  0xffffffffffffffffffffffffffffffffffffffff\n  and\n  mul\n  or\n  swap1\n  sstore\n  pop\n    /* \"contracts/betting.sol\":63:1895  contract DistanceFiBET{... */\n  dataSize(sub_0)\n  dup1\n  dataOffset(sub_0)\n  0x00\n  codecopy\n  0x00\n  return\nstop\n\nsub_0: assembly {\n        /* \"contracts/betting.sol\":63:1895  contract DistanceFiBET{... */\n      mstore(0x40, 0x80)\n      callvalue\n      dup1\n      iszero\n      tag_1\n      jumpi\n      0x00\n      dup1\n      revert\n    tag_1:\n      pop\n      jumpi(tag_2, lt(calldatasize, 0x04))\n      shr(0xe0, calldataload(0x00))\n      dup1\n      0x15a3ae71\n      eq\n      tag_3\n      jumpi\n      dup1\n      0x67ad4ec2\n      eq\n      tag_4\n      jumpi\n      dup1\n      0xb2edb39f\n      eq\n      tag_5\n      jumpi\n      dup1\n      0xbc9e6e2c\n      eq\n      tag_6\n      jumpi\n      dup1\n      0xec7361a8\n      eq\n      tag_7\n      jumpi\n      dup1\n      0xf851a440\n      eq\n      tag_8\n      jumpi\n    tag_2:\n      0x00\n      dup1\n      revert\n        /* \"contracts/betting.sol\":635:685  mapping (uint => allBets) public specificMatchBets */\n    tag_3:\n      tag_9\n      0x04\n      dup1\n      calldatasize\n      sub\n      dup2\n      add\n      swap1\n      tag_10\n      swap2\n      swap1\n      tag_11\n      jump\t// in\n    tag_10:\n      tag_12\n      jump\t// in\n    tag_9:\n      mload(0x40)\n      tag_13\n      swap4\n      swap3\n      swap2\n      swap1\n      tag_14\n      jump\t// in\n    tag_13:\n      mload(0x40)\n      dup1\n      swap2\n      sub\n      swap1\n      return\n        /* \"contracts/betting.sol\":486:528  mapping (address => Bettor) public userBet */\n    tag_4:\n      tag_15\n      0x04\n      dup1\n      calldatasize\n      sub\n      dup2\n      add\n      swap1\n      tag_16\n      swap2\n      swap1\n      tag_17\n      jump\t// in\n    tag_16:\n      tag_18\n      jump\t// in\n    tag_15:\n      mload(0x40)\n      tag_19\n      swap3\n      swap2\n      swap1\n      tag_20\n      jump\t// in\n    tag_19:\n      mload(0x40)\n      dup1\n      swap2\n      sub\n      swap1\n      return\n        /* \"contracts/betting.sol\":694:718  Match [] public allMatch */\n    tag_5:\n      tag_21\n      0x04\n      dup1\n      calldatasize\n      sub\n      dup2\n      add\n      swap1\n      tag_22\n      swap2\n      swap1\n      tag_11\n      jump\t// in\n    tag_22:\n      tag_23\n      jump\t// in\n    tag_21:\n      mload(0x40)\n      tag_24\n      swap6\n      swap5\n      swap4\n      swap3\n      swap2\n      swap1\n      tag_25\n      jump\t// in\n    tag_24:\n      mload(0x40)\n      dup1\n      swap2\n      sub\n      swap1\n      return\n        /* \"contracts/betting.sol\":783:1185  function instantiateMatch(string calldata _HomeTeam, string calldata _AwayTeam, uint _startTime) external returns (bool) {... */\n    tag_6:\n      tag_26\n      0x04\n      dup1\n      calldatasize\n      sub\n      dup2\n      add\n      swap1\n      tag_27\n      swap2\n      swap1\n      tag_28\n      jump\t// in\n    tag_27:\n      tag_29\n      jump\t// in\n    tag_26:\n      mload(0x40)\n      tag_30\n      swap2\n      swap1\n      tag_31\n      jump\t// in\n    tag_30:\n      mload(0x40)\n      dup1\n      swap2\n      sub\n      swap1\n      return\n        /* \"contracts/betting.sol\":1193:1577  function closeMatch(uint epoch, uint _homeScore, uint _awayScore) external {... */\n    tag_7:\n      tag_32\n      0x04\n      dup1\n      calldatasize\n      sub\n      dup2\n      add\n      swap1\n      tag_33\n      swap2\n      swap1\n      tag_34\n      jump\t// in\n    tag_33:\n      tag_35\n      jump\t// in\n    tag_32:\n      stop\n        /* \"contracts/betting.sol\":94:114  address public admin */\n    tag_8:\n      tag_36\n      tag_37\n      jump\t// in\n    tag_36:\n      mload(0x40)\n      tag_38\n      swap2\n      swap1\n      tag_39\n      jump\t// in\n    tag_38:\n      mload(0x40)\n      dup1\n      swap2\n      sub\n      swap1\n      return\n        /* \"contracts/betting.sol\":635:685  mapping (uint => allBets) public specificMatchBets */\n    tag_12:\n      mstore(0x20, 0x02)\n      dup1\n      0x00\n      mstore\n      keccak256(0x00, 0x40)\n      0x00\n      swap2\n      pop\n      swap1\n      pop\n      dup1\n      0x00\n      add\n      0x00\n      swap1\n      sload\n      swap1\n      0x0100\n      exp\n      swap1\n      div\n      0xffffffffffffffffffffffffffffffffffffffff\n      and\n      swap1\n      dup1\n      0x01\n      add\n      sload\n      swap1\n      dup1\n      0x02\n      add\n      0x00\n      swap1\n      sload\n      swap1\n      0x0100\n      exp\n      swap1\n      div\n      0xff\n      and\n      swap1\n      pop\n      dup4\n      jump\t// out\n        /* \"contracts/betting.sol\":486:528  mapping (address => Bettor) public userBet */\n    tag_18:\n      mstore(0x20, 0x01)\n      dup1\n      0x00\n      mstore\n      keccak256(0x00, 0x40)\n      0x00\n      swap2\n      pop\n      swap1\n      pop\n      dup1\n      0x00\n      add\n      0x00\n      swap1\n      sload\n      swap1\n      0x0100\n      exp\n      swap1\n      div\n      0xff\n      and\n      swap1\n      dup1\n      0x01\n      add\n      sload\n      swap1\n      pop\n      dup3\n      jump\t// out\n        /* \"contracts/betting.sol\":694:718  Match [] public allMatch */\n    tag_23:\n      0x03\n      dup2\n      dup2\n      sload\n      dup2\n      lt\n      tag_40\n      jumpi\n      0x00\n      dup1\n      revert\n    tag_40:\n      swap1\n      0x00\n      mstore\n      keccak256(0x00, 0x20)\n      swap1\n      0x06\n      mul\n      add\n      0x00\n      swap2\n      pop\n      swap1\n      pop\n      dup1\n      0x00\n      add\n      dup1\n      sload\n      tag_42\n      swap1\n      tag_43\n      jump\t// in\n    tag_42:\n      dup1\n      0x1f\n      add\n      0x20\n      dup1\n      swap2\n      div\n      mul\n      0x20\n      add\n      mload(0x40)\n      swap1\n      dup2\n      add\n      0x40\n      mstore\n      dup1\n      swap3\n      swap2\n      swap1\n      dup2\n      dup2\n      mstore\n      0x20\n      add\n      dup3\n      dup1\n      sload\n      tag_44\n      swap1\n      tag_43\n      jump\t// in\n    tag_44:\n      dup1\n      iszero\n      tag_45\n      jumpi\n      dup1\n      0x1f\n      lt\n      tag_46\n      jumpi\n      0x0100\n      dup1\n      dup4\n      sload\n      div\n      mul\n      dup4\n      mstore\n      swap2\n      0x20\n      add\n      swap2\n      jump(tag_45)\n    tag_46:\n      dup3\n      add\n      swap2\n      swap1\n      0x00\n      mstore\n      keccak256(0x00, 0x20)\n      swap1\n    tag_47:\n      dup2\n      sload\n      dup2\n      mstore\n      swap1\n      0x01\n      add\n      swap1\n      0x20\n      add\n      dup1\n      dup4\n      gt\n      tag_47\n      jumpi\n      dup3\n      swap1\n      sub\n      0x1f\n      and\n      dup3\n      add\n      swap2\n    tag_45:\n      pop\n      pop\n      pop\n      pop\n      pop\n      swap1\n      dup1\n      0x01\n      add\n      dup1\n      sload\n      tag_48\n      swap1\n      tag_43\n      jump\t// in\n    tag_48:\n      dup1\n      0x1f\n      add\n      0x20\n      dup1\n      swap2\n      div\n      mul\n      0x20\n      add\n      mload(0x40)\n      swap1\n      dup2\n      add\n      0x40\n      mstore\n      dup1\n      swap3\n      swap2\n      swap1\n      dup2\n      dup2\n      mstore\n      0x20\n      add\n      dup3\n      dup1\n      sload\n      tag_49\n      swap1\n      tag_43\n      jump\t// in\n    tag_49:\n      dup1\n      iszero\n      tag_50\n      jumpi\n      dup1\n      0x1f\n      lt\n      tag_51\n      jumpi\n      0x0100\n      dup1\n      dup4\n      sload\n      div\n      mul\n      dup4\n      mstore\n      swap2\n      0x20\n      add\n      swap2\n      jump(tag_50)\n    tag_51:\n      dup3\n      add\n      swap2\n      swap1\n      0x00\n      mstore\n      keccak256(0x00, 0x20)\n      swap1\n    tag_52:\n      dup2\n      sload\n      dup2\n      mstore\n      swap1\n      0x01\n      add\n      swap1\n      0x20\n      add\n      dup1\n      dup4\n      gt\n      tag_52\n      jumpi\n      dup3\n      swap1\n      sub\n      0x1f\n      and\n      dup3\n      add\n      swap2\n    tag_50:\n      pop\n      pop\n      pop\n      pop\n      pop\n      swap1\n      dup1\n      0x02\n      add\n      sload\n      swap1\n      dup1\n      0x03\n      add\n      sload\n      swap1\n      dup1\n      0x04\n      add\n      mload(0x40)\n      dup1\n      0x40\n      add\n      0x40\n      mstore\n      swap1\n      dup2\n      0x00\n      dup3\n      add\n      sload\n      dup2\n      mstore\n      0x20\n      add\n      0x01\n      dup3\n      add\n      sload\n      dup2\n      mstore\n      pop\n      pop\n      swap1\n      pop\n      dup6\n      jump\t// out\n        /* \"contracts/betting.sol\":783:1185  function instantiateMatch(string calldata _HomeTeam, string calldata _AwayTeam, uint _startTime) external returns (bool) {... */\n    tag_29:\n        /* \"contracts/betting.sol\":898:902  bool */\n      0x00\n        /* \"contracts/betting.sol\":932:942  msg.sender */\n      caller\n        /* \"contracts/betting.sol\":923:942  admin == msg.sender */\n      0xffffffffffffffffffffffffffffffffffffffff\n      and\n        /* \"contracts/betting.sol\":923:928  admin */\n      0x00\n      dup1\n      sload\n      swap1\n      0x0100\n      exp\n      swap1\n      div\n      0xffffffffffffffffffffffffffffffffffffffff\n      and\n        /* \"contracts/betting.sol\":923:942  admin == msg.sender */\n      0xffffffffffffffffffffffffffffffffffffffff\n      and\n      eq\n        /* \"contracts/betting.sol\":915:956  require(admin == msg.sender, \"Not Owner\") */\n      tag_54\n      jumpi\n      mload(0x40)\n      0x08c379a000000000000000000000000000000000000000000000000000000000\n      dup2\n      mstore\n      0x04\n      add\n      tag_55\n      swap1\n      tag_56\n      jump\t// in\n    tag_55:\n      mload(0x40)\n      dup1\n      swap2\n      sub\n      swap1\n      revert\n    tag_54:\n        /* \"contracts/betting.sol\":967:980  uint matchEnd */\n      0x00\n        /* \"contracts/betting.sol\":996:1006  95 seconds */\n      0x5f\n        /* \"contracts/betting.sol\":983:993  _startTime */\n      dup4\n        /* \"contracts/betting.sol\":983:1006  _startTime + 95 seconds */\n      tag_57\n      swap2\n      swap1\n      tag_58\n      jump\t// in\n    tag_57:\n        /* \"contracts/betting.sol\":967:1006  uint matchEnd = _startTime + 95 seconds */\n      swap1\n      pop\n        /* \"contracts/betting.sol\":1017:1047  Results memory startingResults */\n      0x00\n        /* \"contracts/betting.sol\":1050:1063  Results(0, 0) */\n      mload(0x40)\n      dup1\n      0x40\n      add\n      0x40\n      mstore\n      dup1\n        /* \"contracts/betting.sol\":1058:1059  0 */\n      0x00\n        /* \"contracts/betting.sol\":1050:1063  Results(0, 0) */\n      dup2\n      mstore\n      0x20\n      add\n        /* \"contracts/betting.sol\":1061:1062  0 */\n      0x00\n        /* \"contracts/betting.sol\":1050:1063  Results(0, 0) */\n      dup2\n      mstore\n      pop\n        /* \"contracts/betting.sol\":1017:1063  Results memory startingResults = Results(0, 0) */\n      swap1\n      pop\n        /* \"contracts/betting.sol\":1074:1082  allMatch */\n      0x03\n        /* \"contracts/betting.sol\":1088:1154  Match(_HomeTeam, _AwayTeam, _startTime, matchEnd, startingResults) */\n      mload(0x40)\n      dup1\n      0xa0\n      add\n      0x40\n      mstore\n      dup1\n        /* \"contracts/betting.sol\":1094:1103  _HomeTeam */\n      dup11\n      dup11\n        /* \"contracts/betting.sol\":1088:1154  Match(_HomeTeam, _AwayTeam, _startTime, matchEnd, startingResults) */\n      dup1\n      dup1\n      0x1f\n      add\n      0x20\n      dup1\n      swap2\n      div\n      mul\n      0x20\n      add\n      mload(0x40)\n      swap1\n      dup2\n      add\n      0x40\n      mstore\n      dup1\n      swap4\n      swap3\n      swap2\n      swap1\n      dup2\n      dup2\n      mstore\n      0x20\n      add\n      dup4\n      dup4\n      dup1\n      dup3\n      dup5\n      calldatacopy\n      0x00\n      dup2\n      dup5\n      add\n      mstore\n      not(0x1f)\n      0x1f\n      dup3\n      add\n      and\n      swap1\n      pop\n      dup1\n      dup4\n      add\n      swap3\n      pop\n      pop\n      pop\n      pop\n      pop\n      pop\n      pop\n      dup2\n      mstore\n      0x20\n      add\n        /* \"contracts/betting.sol\":1105:1114  _AwayTeam */\n      dup9\n      dup9\n        /* \"contracts/betting.sol\":1088:1154  Match(_HomeTeam, _AwayTeam, _startTime, matchEnd, startingResults) */\n      dup1\n      dup1\n      0x1f\n      add\n      0x20\n      dup1\n      swap2\n      div\n      mul\n      0x20\n      add\n      mload(0x40)\n      swap1\n      dup2\n      add\n      0x40\n      mstore\n      dup1\n      swap4\n      swap3\n      swap2\n      swap1\n      dup2\n      dup2\n      mstore\n      0x20\n      add\n      dup4\n      dup4\n      dup1\n      dup3\n      dup5\n      calldatacopy\n      0x00\n      dup2\n      dup5\n      add\n      mstore\n      not(0x1f)\n      0x1f\n      dup3\n      add\n      and\n      swap1\n      pop\n      dup1\n      dup4\n      add\n      swap3\n      pop\n      pop\n      pop\n      pop\n      pop\n      pop\n      pop\n      dup2\n      mstore\n      0x20\n      add\n        /* \"contracts/betting.sol\":1116:1126  _startTime */\n      dup7\n        /* \"contracts/betting.sol\":1088:1154  Match(_HomeTeam, _AwayTeam, _startTime, matchEnd, startingResults) */\n      dup2\n      mstore\n      0x20\n      add\n        /* \"contracts/betting.sol\":1128:1136  matchEnd */\n      dup5\n        /* \"contracts/betting.sol\":1088:1154  Match(_HomeTeam, _AwayTeam, _startTime, matchEnd, startingResults) */\n      dup2\n      mstore\n      0x20\n      add\n        /* \"contracts/betting.sol\":1138:1153  startingResults */\n      dup4\n        /* \"contracts/betting.sol\":1088:1154  Match(_HomeTeam, _AwayTeam, _startTime, matchEnd, startingResults) */\n      dup2\n      mstore\n      pop\n        /* \"contracts/betting.sol\":1074:1155  allMatch.push(Match(_HomeTeam, _AwayTeam, _startTime, matchEnd, startingResults)) */\n      swap1\n      dup1\n      0x01\n      dup2\n      sload\n      add\n      dup1\n      dup3\n      sstore\n      dup1\n      swap2\n      pop\n      pop\n      0x01\n      swap1\n      sub\n      swap1\n      0x00\n      mstore\n      keccak256(0x00, 0x20)\n      swap1\n      0x06\n      mul\n      add\n      0x00\n      swap1\n      swap2\n      swap1\n      swap2\n      swap1\n      swap2\n      pop\n      0x00\n      dup3\n      add\n      mload\n      dup2\n      0x00\n      add\n      swap1\n      dup2\n      tag_60\n      swap2\n      swap1\n      tag_61\n      jump\t// in\n    tag_60:\n      pop\n      0x20\n      dup3\n      add\n      mload\n      dup2\n      0x01\n      add\n      swap1\n      dup2\n      tag_62\n      swap2\n      swap1\n      tag_61\n      jump\t// in\n    tag_62:\n      pop\n      0x40\n      dup3\n      add\n      mload\n      dup2\n      0x02\n      add\n      sstore\n      0x60\n      dup3\n      add\n      mload\n      dup2\n      0x03\n      add\n      sstore\n      0x80\n      dup3\n      add\n      mload\n      dup2\n      0x04\n      add\n      0x00\n      dup3\n      add\n      mload\n      dup2\n      0x00\n      add\n      sstore\n      0x20\n      dup3\n      add\n      mload\n      dup2\n      0x01\n      add\n      sstore\n      pop\n      pop\n      pop\n      pop\n        /* \"contracts/betting.sol\":1173:1177  true */\n      0x01\n        /* \"contracts/betting.sol\":1166:1177  return true */\n      swap3\n      pop\n      pop\n      pop\n        /* \"contracts/betting.sol\":783:1185  function instantiateMatch(string calldata _HomeTeam, string calldata _AwayTeam, uint _startTime) external returns (bool) {... */\n      swap6\n      swap5\n      pop\n      pop\n      pop\n      pop\n      pop\n      jump\t// out\n        /* \"contracts/betting.sol\":1193:1577  function closeMatch(uint epoch, uint _homeScore, uint _awayScore) external {... */\n    tag_35:\n        /* \"contracts/betting.sol\":1296:1306  msg.sender */\n      caller\n        /* \"contracts/betting.sol\":1287:1306  admin == msg.sender */\n      0xffffffffffffffffffffffffffffffffffffffff\n      and\n        /* \"contracts/betting.sol\":1287:1292  admin */\n      0x00\n      dup1\n      sload\n      swap1\n      0x0100\n      exp\n      swap1\n      div\n      0xffffffffffffffffffffffffffffffffffffffff\n      and\n        /* \"contracts/betting.sol\":1287:1306  admin == msg.sender */\n      0xffffffffffffffffffffffffffffffffffffffff\n      and\n      eq\n        /* \"contracts/betting.sol\":1279:1320  require(admin == msg.sender, \"Not Owner\") */\n      tag_64\n      jumpi\n      mload(0x40)\n      0x08c379a000000000000000000000000000000000000000000000000000000000\n      dup2\n      mstore\n      0x04\n      add\n      tag_65\n      swap1\n      tag_56\n      jump\t// in\n    tag_65:\n      mload(0x40)\n      dup1\n      swap2\n      sub\n      swap1\n      revert\n    tag_64:\n        /* \"contracts/betting.sol\":1331:1347  uint currentTime */\n      0x00\n        /* \"contracts/betting.sol\":1350:1365  block.timestamp */\n      timestamp\n        /* \"contracts/betting.sol\":1331:1365  uint currentTime = block.timestamp */\n      swap1\n      pop\n        /* \"contracts/betting.sol\":1399:1407  allMatch */\n      0x03\n        /* \"contracts/betting.sol\":1408:1413  epoch */\n      dup5\n        /* \"contracts/betting.sol\":1399:1414  allMatch[epoch] */\n      dup2\n      sload\n      dup2\n      lt\n      tag_66\n      jumpi\n      tag_67\n      tag_68\n      jump\t// in\n    tag_67:\n    tag_66:\n      swap1\n      0x00\n      mstore\n      keccak256(0x00, 0x20)\n      swap1\n      0x06\n      mul\n      add\n        /* \"contracts/betting.sol\":1399:1422  allMatch[epoch].endTime */\n      0x03\n      add\n      sload\n        /* \"contracts/betting.sol\":1384:1395  currentTime */\n      dup2\n        /* \"contracts/betting.sol\":1384:1422  currentTime >= allMatch[epoch].endTime */\n      lt\n      iszero\n        /* \"contracts/betting.sol\":1376:1444  require(currentTime >= allMatch[epoch].endTime, \"Match is still on\") */\n      tag_70\n      jumpi\n      mload(0x40)\n      0x08c379a000000000000000000000000000000000000000000000000000000000\n      dup2\n      mstore\n      0x04\n      add\n      tag_71\n      swap1\n      tag_72\n      jump\t// in\n    tag_71:\n      mload(0x40)\n      dup1\n      swap2\n      sub\n      swap1\n      revert\n    tag_70:\n        /* \"contracts/betting.sol\":1455:1484  Results memory closingResults */\n      0x00\n        /* \"contracts/betting.sol\":1487:1518  Results(_homeScore, _awayScore) */\n      mload(0x40)\n      dup1\n      0x40\n      add\n      0x40\n      mstore\n      dup1\n        /* \"contracts/betting.sol\":1495:1505  _homeScore */\n      dup6\n        /* \"contracts/betting.sol\":1487:1518  Results(_homeScore, _awayScore) */\n      dup2\n      mstore\n      0x20\n      add\n        /* \"contracts/betting.sol\":1507:1517  _awayScore */\n      dup5\n        /* \"contracts/betting.sol\":1487:1518  Results(_homeScore, _awayScore) */\n      dup2\n      mstore\n      pop\n        /* \"contracts/betting.sol\":1455:1518  Results memory closingResults = Results(_homeScore, _awayScore) */\n      swap1\n      pop\n        /* \"contracts/betting.sol\":1555:1569  closingResults */\n      dup1\n        /* \"contracts/betting.sol\":1529:1537  allMatch */\n      0x03\n        /* \"contracts/betting.sol\":1538:1543  epoch */\n      dup7\n        /* \"contracts/betting.sol\":1529:1544  allMatch[epoch] */\n      dup2\n      sload\n      dup2\n      lt\n      tag_73\n      jumpi\n      tag_74\n      tag_68\n      jump\t// in\n    tag_74:\n    tag_73:\n      swap1\n      0x00\n      mstore\n      keccak256(0x00, 0x20)\n      swap1\n      0x06\n      mul\n      add\n        /* \"contracts/betting.sol\":1529:1552  allMatch[epoch].results */\n      0x04\n      add\n        /* \"contracts/betting.sol\":1529:1569  allMatch[epoch].results = closingResults */\n      0x00\n      dup3\n      add\n      mload\n      dup2\n      0x00\n      add\n      sstore\n      0x20\n      dup3\n      add\n      mload\n      dup2\n      0x01\n      add\n      sstore\n      swap1\n      pop\n      pop\n        /* \"contracts/betting.sol\":1268:1577  {... */\n      pop\n      pop\n        /* \"contracts/betting.sol\":1193:1577  function closeMatch(uint epoch, uint _homeScore, uint _awayScore) external {... */\n      pop\n      pop\n      pop\n      jump\t// out\n        /* \"contracts/betting.sol\":94:114  address public admin */\n    tag_37:\n      0x00\n      dup1\n      sload\n      swap1\n      0x0100\n      exp\n      swap1\n      div\n      0xffffffffffffffffffffffffffffffffffffffff\n      and\n      dup2\n      jump\t// out\n        /* \"#utility.yul\":88:205   */\n    tag_77:\n        /* \"#utility.yul\":197:198   */\n      0x00\n        /* \"#utility.yul\":194:195   */\n      dup1\n        /* \"#utility.yul\":187:199   */\n      revert\n        /* \"#utility.yul\":211:328   */\n    tag_78:\n        /* \"#utility.yul\":320:321   */\n      0x00\n        /* \"#utility.yul\":317:318   */\n      dup1\n        /* \"#utility.yul\":310:322   */\n      revert\n        /* \"#utility.yul\":334:411   */\n    tag_79:\n        /* \"#utility.yul\":371:378   */\n      0x00\n        /* \"#utility.yul\":400:405   */\n      dup2\n        /* \"#utility.yul\":389:405   */\n      swap1\n      pop\n        /* \"#utility.yul\":334:411   */\n      swap2\n      swap1\n      pop\n      jump\t// out\n        /* \"#utility.yul\":417:539   */\n    tag_80:\n        /* \"#utility.yul\":490:514   */\n      tag_134\n        /* \"#utility.yul\":508:513   */\n      dup2\n        /* \"#utility.yul\":490:514   */\n      tag_79\n      jump\t// in\n    tag_134:\n        /* \"#utility.yul\":483:488   */\n      dup2\n        /* \"#utility.yul\":480:515   */\n      eq\n        /* \"#utility.yul\":470:533   */\n      tag_135\n      jumpi\n        /* \"#utility.yul\":529:530   */\n      0x00\n        /* \"#utility.yul\":526:527   */\n      dup1\n        /* \"#utility.yul\":519:531   */\n      revert\n        /* \"#utility.yul\":470:533   */\n    tag_135:\n        /* \"#utility.yul\":417:539   */\n      pop\n      jump\t// out\n        /* \"#utility.yul\":545:684   */\n    tag_81:\n        /* \"#utility.yul\":591:596   */\n      0x00\n        /* \"#utility.yul\":629:635   */\n      dup2\n        /* \"#utility.yul\":616:636   */\n      calldataload\n        /* \"#utility.yul\":607:636   */\n      swap1\n      pop\n        /* \"#utility.yul\":645:678   */\n      tag_137\n        /* \"#utility.yul\":672:677   */\n      dup2\n        /* \"#utility.yul\":645:678   */\n      tag_80\n      jump\t// in\n    tag_137:\n        /* \"#utility.yul\":545:684   */\n      swap3\n      swap2\n      pop\n      pop\n      jump\t// out\n        /* \"#utility.yul\":690:1019   */\n    tag_11:\n        /* \"#utility.yul\":749:755   */\n      0x00\n        /* \"#utility.yul\":798:800   */\n      0x20\n        /* \"#utility.yul\":786:795   */\n      dup3\n        /* \"#utility.yul\":777:784   */\n      dup5\n        /* \"#utility.yul\":773:796   */\n      sub\n        /* \"#utility.yul\":769:801   */\n      slt\n        /* \"#utility.yul\":766:885   */\n      iszero\n      tag_139\n      jumpi\n        /* \"#utility.yul\":804:883   */\n      tag_140\n      tag_77\n      jump\t// in\n    tag_140:\n        /* \"#utility.yul\":766:885   */\n    tag_139:\n        /* \"#utility.yul\":924:925   */\n      0x00\n        /* \"#utility.yul\":949:1002   */\n      tag_141\n        /* \"#utility.yul\":994:1001   */\n      dup5\n        /* \"#utility.yul\":985:991   */\n      dup3\n        /* \"#utility.yul\":974:983   */\n      dup6\n        /* \"#utility.yul\":970:992   */\n      add\n        /* \"#utility.yul\":949:1002   */\n      tag_81\n      jump\t// in\n    tag_141:\n        /* \"#utility.yul\":939:1002   */\n      swap2\n      pop\n        /* \"#utility.yul\":895:1012   */\n      pop\n        /* \"#utility.yul\":690:1019   */\n      swap3\n      swap2\n      pop\n      pop\n      jump\t// out\n        /* \"#utility.yul\":1025:1151   */\n    tag_82:\n        /* \"#utility.yul\":1062:1069   */\n      0x00\n        /* \"#utility.yul\":1102:1144   */\n      0xffffffffffffffffffffffffffffffffffffffff\n        /* \"#utility.yul\":1095:1100   */\n      dup3\n        /* \"#utility.yul\":1091:1145   */\n      and\n        /* \"#utility.yul\":1080:1145   */\n      swap1\n      pop\n        /* \"#utility.yul\":1025:1151   */\n      swap2\n      swap1\n      pop\n      jump\t// out\n        /* \"#utility.yul\":1157:1253   */\n    tag_83:\n        /* \"#utility.yul\":1194:1201   */\n      0x00\n        /* \"#utility.yul\":1223:1247   */\n      tag_144\n        /* \"#utility.yul\":1241:1246   */\n      dup3\n        /* \"#utility.yul\":1223:1247   */\n      tag_82\n      jump\t// in\n    tag_144:\n        /* \"#utility.yul\":1212:1247   */\n      swap1\n      pop\n        /* \"#utility.yul\":1157:1253   */\n      swap2\n      swap1\n      pop\n      jump\t// out\n        /* \"#utility.yul\":1259:1377   */\n    tag_84:\n        /* \"#utility.yul\":1346:1370   */\n      tag_146\n        /* \"#utility.yul\":1364:1369   */\n      dup2\n        /* \"#utility.yul\":1346:1370   */\n      tag_83\n      jump\t// in\n    tag_146:\n        /* \"#utility.yul\":1341:1344   */\n      dup3\n        /* \"#utility.yul\":1334:1371   */\n      mstore\n        /* \"#utility.yul\":1259:1377   */\n      pop\n      pop\n      jump\t// out\n        /* \"#utility.yul\":1383:1501   */\n    tag_85:\n        /* \"#utility.yul\":1470:1494   */\n      tag_148\n        /* \"#utility.yul\":1488:1493   */\n      dup2\n        /* \"#utility.yul\":1470:1494   */\n      tag_79\n      jump\t// in\n    tag_148:\n        /* \"#utility.yul\":1465:1468   */\n      dup3\n        /* \"#utility.yul\":1458:1495   */\n      mstore\n        /* \"#utility.yul\":1383:1501   */\n      pop\n      pop\n      jump\t// out\n        /* \"#utility.yul\":1507:1687   */\n    tag_86:\n        /* \"#utility.yul\":1555:1632   */\n      0x4e487b7100000000000000000000000000000000000000000000000000000000\n        /* \"#utility.yul\":1552:1553   */\n      0x00\n        /* \"#utility.yul\":1545:1633   */\n      mstore\n        /* \"#utility.yul\":1652:1656   */\n      0x21\n        /* \"#utility.yul\":1649:1650   */\n      0x04\n        /* \"#utility.yul\":1642:1657   */\n      mstore\n        /* \"#utility.yul\":1676:1680   */\n      0x24\n        /* \"#utility.yul\":1673:1674   */\n      0x00\n        /* \"#utility.yul\":1666:1681   */\n      revert\n        /* \"#utility.yul\":1693:1808   */\n    tag_87:\n        /* \"#utility.yul\":1776:1777   */\n      0x04\n        /* \"#utility.yul\":1769:1774   */\n      dup2\n        /* \"#utility.yul\":1766:1778   */\n      lt\n        /* \"#utility.yul\":1756:1802   */\n      tag_151\n      jumpi\n        /* \"#utility.yul\":1782:1800   */\n      tag_152\n      tag_86\n      jump\t// in\n    tag_152:\n        /* \"#utility.yul\":1756:1802   */\n    tag_151:\n        /* \"#utility.yul\":1693:1808   */\n      pop\n      jump\t// out\n        /* \"#utility.yul\":1814:1945   */\n    tag_88:\n        /* \"#utility.yul\":1861:1868   */\n      0x00\n        /* \"#utility.yul\":1890:1895   */\n      dup2\n        /* \"#utility.yul\":1879:1895   */\n      swap1\n      pop\n        /* \"#utility.yul\":1896:1939   */\n      tag_154\n        /* \"#utility.yul\":1933:1938   */\n      dup3\n        /* \"#utility.yul\":1896:1939   */\n      tag_87\n      jump\t// in\n    tag_154:\n        /* \"#utility.yul\":1814:1945   */\n      swap2\n      swap1\n      pop\n      jump\t// out\n        /* \"#utility.yul\":1951:2082   */\n    tag_89:\n        /* \"#utility.yul\":2009:2018   */\n      0x00\n        /* \"#utility.yul\":2042:2076   */\n      tag_156\n        /* \"#utility.yul\":2070:2075   */\n      dup3\n        /* \"#utility.yul\":2042:2076   */\n      tag_88\n      jump\t// in\n    tag_156:\n        /* \"#utility.yul\":2029:2076   */\n      swap1\n      pop\n        /* \"#utility.yul\":1951:2082   */\n      swap2\n      swap1\n      pop\n      jump\t// out\n        /* \"#utility.yul\":2088:2235   */\n    tag_90:\n        /* \"#utility.yul\":2183:2228   */\n      tag_158\n        /* \"#utility.yul\":2222:2227   */\n      dup2\n        /* \"#utility.yul\":2183:2228   */\n      tag_89\n      jump\t// in\n    tag_158:\n        /* \"#utility.yul\":2178:2181   */\n      dup3\n        /* \"#utility.yul\":2171:2229   */\n      mstore\n        /* \"#utility.yul\":2088:2235   */\n      pop\n      pop\n      jump\t// out\n        /* \"#utility.yul\":2241:2699   */\n    tag_14:\n        /* \"#utility.yul\":2398:2402   */\n      0x00\n        /* \"#utility.yul\":2436:2438   */\n      0x60\n        /* \"#utility.yul\":2425:2434   */\n      dup3\n        /* \"#utility.yul\":2421:2439   */\n      add\n        /* \"#utility.yul\":2413:2439   */\n      swap1\n      pop\n        /* \"#utility.yul\":2449:2520   */\n      tag_160\n        /* \"#utility.yul\":2517:2518   */\n      0x00\n        /* \"#utility.yul\":2506:2515   */\n      dup4\n        /* \"#utility.yul\":2502:2519   */\n      add\n        /* \"#utility.yul\":2493:2499   */\n      dup7\n        /* \"#utility.yul\":2449:2520   */\n      tag_84\n      jump\t// in\n    tag_160:\n        /* \"#utility.yul\":2530:2602   */\n      tag_161\n        /* \"#utility.yul\":2598:2600   */\n      0x20\n        /* \"#utility.yul\":2587:2596   */\n      dup4\n        /* \"#utility.yul\":2583:2601   */\n      add\n        /* \"#utility.yul\":2574:2580   */\n      dup6\n        /* \"#utility.yul\":2530:2602   */\n      tag_85\n      jump\t// in\n    tag_161:\n        /* \"#utility.yul\":2612:2692   */\n      tag_162\n        /* \"#utility.yul\":2688:2690   */\n      0x40\n        /* \"#utility.yul\":2677:2686   */\n      dup4\n        /* \"#utility.yul\":2673:2691   */\n      add\n        /* \"#utility.yul\":2664:2670   */\n      dup5\n        /* \"#utility.yul\":2612:2692   */\n      tag_90\n      jump\t// in\n    tag_162:\n        /* \"#utility.yul\":2241:2699   */\n      swap5\n      swap4\n      pop\n      pop\n      pop\n      pop\n      jump\t// out\n        /* \"#utility.yul\":2705:2827   */\n    tag_91:\n        /* \"#utility.yul\":2778:2802   */\n      tag_164\n        /* \"#utility.yul\":2796:2801   */\n      dup2\n        /* \"#utility.yul\":2778:2802   */\n      tag_83\n      jump\t// in\n    tag_164:\n        /* \"#utility.yul\":2771:2776   */\n      dup2\n        /* \"#utility.yul\":2768:2803   */\n      eq\n        /* \"#utility.yul\":2758:2821   */\n      tag_165\n      jumpi\n        /* \"#utility.yul\":2817:2818   */\n      0x00\n        /* \"#utility.yul\":2814:2815   */\n      dup1\n        /* \"#utility.yul\":2807:2819   */\n      revert\n        /* \"#utility.yul\":2758:2821   */\n    tag_165:\n        /* \"#utility.yul\":2705:2827   */\n      pop\n      jump\t// out\n        /* \"#utility.yul\":2833:2972   */\n    tag_92:\n        /* \"#utility.yul\":2879:2884   */\n      0x00\n        /* \"#utility.yul\":2917:2923   */\n      dup2\n        /* \"#utility.yul\":2904:2924   */\n      calldataload\n        /* \"#utility.yul\":2895:2924   */\n      swap1\n      pop\n        /* \"#utility.yul\":2933:2966   */\n      tag_167\n        /* \"#utility.yul\":2960:2965   */\n      dup2\n        /* \"#utility.yul\":2933:2966   */\n      tag_91\n      jump\t// in\n    tag_167:\n        /* \"#utility.yul\":2833:2972   */\n      swap3\n      swap2\n      pop\n      pop\n      jump\t// out\n        /* \"#utility.yul\":2978:3307   */\n    tag_17:\n        /* \"#utility.yul\":3037:3043   */\n      0x00\n        /* \"#utility.yul\":3086:3088   */\n      0x20\n        /* \"#utility.yul\":3074:3083   */\n      dup3\n        /* \"#utility.yul\":3065:3072   */\n      dup5\n        /* \"#utility.yul\":3061:3084   */\n      sub\n        /* \"#utility.yul\":3057:3089   */\n      slt\n        /* \"#utility.yul\":3054:3173   */\n      iszero\n      tag_169\n      jumpi\n        /* \"#utility.yul\":3092:3171   */\n      tag_170\n      tag_77\n      jump\t// in\n    tag_170:\n        /* \"#utility.yul\":3054:3173   */\n    tag_169:\n        /* \"#utility.yul\":3212:3213   */\n      0x00\n        /* \"#utility.yul\":3237:3290   */\n      tag_171\n        /* \"#utility.yul\":3282:3289   */\n      dup5\n        /* \"#utility.yul\":3273:3279   */\n      dup3\n        /* \"#utility.yul\":3262:3271   */\n      dup6\n        /* \"#utility.yul\":3258:3280   */\n      add\n        /* \"#utility.yul\":3237:3290   */\n      tag_92\n      jump\t// in\n    tag_171:\n        /* \"#utility.yul\":3227:3290   */\n      swap2\n      pop\n        /* \"#utility.yul\":3183:3300   */\n      pop\n        /* \"#utility.yul\":2978:3307   */\n      swap3\n      swap2\n      pop\n      pop\n      jump\t// out\n        /* \"#utility.yul\":3313:3661   */\n    tag_20:\n        /* \"#utility.yul\":3442:3446   */\n      0x00\n        /* \"#utility.yul\":3480:3482   */\n      0x40\n        /* \"#utility.yul\":3469:3478   */\n      dup3\n        /* \"#utility.yul\":3465:3483   */\n      add\n        /* \"#utility.yul\":3457:3483   */\n      swap1\n      pop\n        /* \"#utility.yul\":3493:3572   */\n      tag_173\n        /* \"#utility.yul\":3569:3570   */\n      0x00\n        /* \"#utility.yul\":3558:3567   */\n      dup4\n        /* \"#utility.yul\":3554:3571   */\n      add\n        /* \"#utility.yul\":3545:3551   */\n      dup6\n        /* \"#utility.yul\":3493:3572   */\n      tag_90\n      jump\t// in\n    tag_173:\n        /* \"#utility.yul\":3582:3654   */\n      tag_174\n        /* \"#utility.yul\":3650:3652   */\n      0x20\n        /* \"#utility.yul\":3639:3648   */\n      dup4\n        /* \"#utility.yul\":3635:3653   */\n      add\n        /* \"#utility.yul\":3626:3632   */\n      dup5\n        /* \"#utility.yul\":3582:3654   */\n      tag_85\n      jump\t// in\n    tag_174:\n        /* \"#utility.yul\":3313:3661   */\n      swap4\n      swap3\n      pop\n      pop\n      pop\n      jump\t// out\n        /* \"#utility.yul\":3667:3766   */\n    tag_93:\n        /* \"#utility.yul\":3719:3725   */\n      0x00\n        /* \"#utility.yul\":3753:3758   */\n      dup2\n        /* \"#utility.yul\":3747:3759   */\n      mload\n        /* \"#utility.yul\":3737:3759   */\n      swap1\n      pop\n        /* \"#utility.yul\":3667:3766   */\n      swap2\n      swap1\n      pop\n      jump\t// out\n        /* \"#utility.yul\":3772:3941   */\n    tag_94:\n        /* \"#utility.yul\":3856:3867   */\n      0x00\n        /* \"#utility.yul\":3890:3896   */\n      dup3\n        /* \"#utility.yul\":3885:3888   */\n      dup3\n        /* \"#utility.yul\":3878:3897   */\n      mstore\n        /* \"#utility.yul\":3930:3934   */\n      0x20\n        /* \"#utility.yul\":3925:3928   */\n      dup3\n        /* \"#utility.yul\":3921:3935   */\n      add\n        /* \"#utility.yul\":3906:3935   */\n      swap1\n      pop\n        /* \"#utility.yul\":3772:3941   */\n      swap3\n      swap2\n      pop\n      pop\n      jump\t// out\n        /* \"#utility.yul\":3947:4193   */\n    tag_95:\n        /* \"#utility.yul\":4028:4029   */\n      0x00\n        /* \"#utility.yul\":4038:4151   */\n    tag_178:\n        /* \"#utility.yul\":4052:4058   */\n      dup4\n        /* \"#utility.yul\":4049:4050   */\n      dup2\n        /* \"#utility.yul\":4046:4059   */\n      lt\n        /* \"#utility.yul\":4038:4151   */\n      iszero\n      tag_180\n      jumpi\n        /* \"#utility.yul\":4137:4138   */\n      dup1\n        /* \"#utility.yul\":4132:4135   */\n      dup3\n        /* \"#utility.yul\":4128:4139   */\n      add\n        /* \"#utility.yul\":4122:4140   */\n      mload\n        /* \"#utility.yul\":4118:4119   */\n      dup2\n        /* \"#utility.yul\":4113:4116   */\n      dup5\n        /* \"#utility.yul\":4109:4120   */\n      add\n        /* \"#utility.yul\":4102:4141   */\n      mstore\n        /* \"#utility.yul\":4074:4076   */\n      0x20\n        /* \"#utility.yul\":4071:4072   */\n      dup2\n        /* \"#utility.yul\":4067:4077   */\n      add\n        /* \"#utility.yul\":4062:4077   */\n      swap1\n      pop\n        /* \"#utility.yul\":4038:4151   */\n      jump(tag_178)\n    tag_180:\n        /* \"#utility.yul\":4185:4186   */\n      0x00\n        /* \"#utility.yul\":4176:4182   */\n      dup5\n        /* \"#utility.yul\":4171:4174   */\n      dup5\n        /* \"#utility.yul\":4167:4183   */\n      add\n        /* \"#utility.yul\":4160:4187   */\n      mstore\n        /* \"#utility.yul\":4009:4193   */\n      pop\n        /* \"#utility.yul\":3947:4193   */\n      pop\n      pop\n      pop\n      jump\t// out\n        /* \"#utility.yul\":4199:4301   */\n    tag_96:\n        /* \"#utility.yul\":4240:4246   */\n      0x00\n        /* \"#utility.yul\":4291:4293   */\n      0x1f\n        /* \"#utility.yul\":4287:4294   */\n      not\n        /* \"#utility.yul\":4282:4284   */\n      0x1f\n        /* \"#utility.yul\":4275:4280   */\n      dup4\n        /* \"#utility.yul\":4271:4285   */\n      add\n        /* \"#utility.yul\":4267:4295   */\n      and\n        /* \"#utility.yul\":4257:4295   */\n      swap1\n      pop\n        /* \"#utility.yul\":4199:4301   */\n      swap2\n      swap1\n      pop\n      jump\t// out\n        /* \"#utility.yul\":4307:4684   */\n    tag_97:\n        /* \"#utility.yul\":4395:4398   */\n      0x00\n        /* \"#utility.yul\":4423:4462   */\n      tag_183\n        /* \"#utility.yul\":4456:4461   */\n      dup3\n        /* \"#utility.yul\":4423:4462   */\n      tag_93\n      jump\t// in\n    tag_183:\n        /* \"#utility.yul\":4478:4549   */\n      tag_184\n        /* \"#utility.yul\":4542:4548   */\n      dup2\n        /* \"#utility.yul\":4537:4540   */\n      dup6\n        /* \"#utility.yul\":4478:4549   */\n      tag_94\n      jump\t// in\n    tag_184:\n        /* \"#utility.yul\":4471:4549   */\n      swap4\n      pop\n        /* \"#utility.yul\":4558:4623   */\n      tag_185\n        /* \"#utility.yul\":4616:4622   */\n      dup2\n        /* \"#utility.yul\":4611:4614   */\n      dup6\n        /* \"#utility.yul\":4604:4608   */\n      0x20\n        /* \"#utility.yul\":4597:4602   */\n      dup7\n        /* \"#utility.yul\":4593:4609   */\n      add\n        /* \"#utility.yul\":4558:4623   */\n      tag_95\n      jump\t// in\n    tag_185:\n        /* \"#utility.yul\":4648:4677   */\n      tag_186\n        /* \"#utility.yul\":4670:4676   */\n      dup2\n        /* \"#utility.yul\":4648:4677   */\n      tag_96\n      jump\t// in\n    tag_186:\n        /* \"#utility.yul\":4643:4646   */\n      dup5\n        /* \"#utility.yul\":4639:4678   */\n      add\n        /* \"#utility.yul\":4632:4678   */\n      swap2\n      pop\n        /* \"#utility.yul\":4399:4684   */\n      pop\n        /* \"#utility.yul\":4307:4684   */\n      swap3\n      swap2\n      pop\n      pop\n      jump\t// out\n        /* \"#utility.yul\":4690:4798   */\n    tag_98:\n        /* \"#utility.yul\":4767:4791   */\n      tag_188\n        /* \"#utility.yul\":4785:4790   */\n      dup2\n        /* \"#utility.yul\":4767:4791   */\n      tag_79\n      jump\t// in\n    tag_188:\n        /* \"#utility.yul\":4762:4765   */\n      dup3\n        /* \"#utility.yul\":4755:4792   */\n      mstore\n        /* \"#utility.yul\":4690:4798   */\n      pop\n      pop\n      jump\t// out\n        /* \"#utility.yul\":4872:5385   */\n    tag_99:\n        /* \"#utility.yul\":5013:5017   */\n      0x40\n        /* \"#utility.yul\":5008:5011   */\n      dup3\n        /* \"#utility.yul\":5004:5018   */\n      add\n        /* \"#utility.yul\":5106:5110   */\n      0x00\n        /* \"#utility.yul\":5099:5104   */\n      dup3\n        /* \"#utility.yul\":5095:5111   */\n      add\n        /* \"#utility.yul\":5089:5112   */\n      mload\n        /* \"#utility.yul\":5125:5188   */\n      tag_190\n        /* \"#utility.yul\":5182:5186   */\n      0x00\n        /* \"#utility.yul\":5177:5180   */\n      dup6\n        /* \"#utility.yul\":5173:5187   */\n      add\n        /* \"#utility.yul\":5159:5171   */\n      dup3\n        /* \"#utility.yul\":5125:5188   */\n      tag_98\n      jump\t// in\n    tag_190:\n        /* \"#utility.yul\":5028:5198   */\n      pop\n        /* \"#utility.yul\":5286:5290   */\n      0x20\n        /* \"#utility.yul\":5279:5284   */\n      dup3\n        /* \"#utility.yul\":5275:5291   */\n      add\n        /* \"#utility.yul\":5269:5292   */\n      mload\n        /* \"#utility.yul\":5305:5368   */\n      tag_191\n        /* \"#utility.yul\":5362:5366   */\n      0x20\n        /* \"#utility.yul\":5357:5360   */\n      dup6\n        /* \"#utility.yul\":5353:5367   */\n      add\n        /* \"#utility.yul\":5339:5351   */\n      dup3\n        /* \"#utility.yul\":5305:5368   */\n      tag_98\n      jump\t// in\n    tag_191:\n        /* \"#utility.yul\":5208:5378   */\n      pop\n        /* \"#utility.yul\":4982:5385   */\n      pop\n        /* \"#utility.yul\":4872:5385   */\n      pop\n      pop\n      jump\t// out\n        /* \"#utility.yul\":5391:6325   */\n    tag_25:\n        /* \"#utility.yul\":5680:5684   */\n      0x00\n        /* \"#utility.yul\":5718:5721   */\n      0xc0\n        /* \"#utility.yul\":5707:5716   */\n      dup3\n        /* \"#utility.yul\":5703:5722   */\n      add\n        /* \"#utility.yul\":5695:5722   */\n      swap1\n      pop\n        /* \"#utility.yul\":5768:5777   */\n      dup2\n        /* \"#utility.yul\":5762:5766   */\n      dup2\n        /* \"#utility.yul\":5758:5778   */\n      sub\n        /* \"#utility.yul\":5754:5755   */\n      0x00\n        /* \"#utility.yul\":5743:5752   */\n      dup4\n        /* \"#utility.yul\":5739:5756   */\n      add\n        /* \"#utility.yul\":5732:5779   */\n      mstore\n        /* \"#utility.yul\":5796:5874   */\n      tag_193\n        /* \"#utility.yul\":5869:5873   */\n      dup2\n        /* \"#utility.yul\":5860:5866   */\n      dup9\n        /* \"#utility.yul\":5796:5874   */\n      tag_97\n      jump\t// in\n    tag_193:\n        /* \"#utility.yul\":5788:5874   */\n      swap1\n      pop\n        /* \"#utility.yul\":5921:5930   */\n      dup2\n        /* \"#utility.yul\":5915:5919   */\n      dup2\n        /* \"#utility.yul\":5911:5931   */\n      sub\n        /* \"#utility.yul\":5906:5908   */\n      0x20\n        /* \"#utility.yul\":5895:5904   */\n      dup4\n        /* \"#utility.yul\":5891:5909   */\n      add\n        /* \"#utility.yul\":5884:5932   */\n      mstore\n        /* \"#utility.yul\":5949:6027   */\n      tag_194\n        /* \"#utility.yul\":6022:6026   */\n      dup2\n        /* \"#utility.yul\":6013:6019   */\n      dup8\n        /* \"#utility.yul\":5949:6027   */\n      tag_97\n      jump\t// in\n    tag_194:\n        /* \"#utility.yul\":5941:6027   */\n      swap1\n      pop\n        /* \"#utility.yul\":6037:6109   */\n      tag_195\n        /* \"#utility.yul\":6105:6107   */\n      0x40\n        /* \"#utility.yul\":6094:6103   */\n      dup4\n        /* \"#utility.yul\":6090:6108   */\n      add\n        /* \"#utility.yul\":6081:6087   */\n      dup7\n        /* \"#utility.yul\":6037:6109   */\n      tag_85\n      jump\t// in\n    tag_195:\n        /* \"#utility.yul\":6119:6191   */\n      tag_196\n        /* \"#utility.yul\":6187:6189   */\n      0x60\n        /* \"#utility.yul\":6176:6185   */\n      dup4\n        /* \"#utility.yul\":6172:6190   */\n      add\n        /* \"#utility.yul\":6163:6169   */\n      dup6\n        /* \"#utility.yul\":6119:6191   */\n      tag_85\n      jump\t// in\n    tag_196:\n        /* \"#utility.yul\":6201:6318   */\n      tag_197\n        /* \"#utility.yul\":6313:6316   */\n      0x80\n        /* \"#utility.yul\":6302:6311   */\n      dup4\n        /* \"#utility.yul\":6298:6317   */\n      add\n        /* \"#utility.yul\":6289:6295   */\n      dup5\n        /* \"#utility.yul\":6201:6318   */\n      tag_99\n      jump\t// in\n    tag_197:\n        /* \"#utility.yul\":5391:6325   */\n      swap7\n      swap6\n      pop\n      pop\n      pop\n      pop\n      pop\n      pop\n      jump\t// out\n        /* \"#utility.yul\":6331:6448   */\n    tag_100:\n        /* \"#utility.yul\":6440:6441   */\n      0x00\n        /* \"#utility.yul\":6437:6438   */\n      dup1\n        /* \"#utility.yul\":6430:6442   */\n      revert\n        /* \"#utility.yul\":6454:6571   */\n    tag_101:\n        /* \"#utility.yul\":6563:6564   */\n      0x00\n        /* \"#utility.yul\":6560:6561   */\n      dup1\n        /* \"#utility.yul\":6553:6565   */\n      revert\n        /* \"#utility.yul\":6577:6694   */\n    tag_102:\n        /* \"#utility.yul\":6686:6687   */\n      0x00\n        /* \"#utility.yul\":6683:6684   */\n      dup1\n        /* \"#utility.yul\":6676:6688   */\n      revert\n        /* \"#utility.yul\":6714:7267   */\n    tag_103:\n        /* \"#utility.yul\":6772:6780   */\n      0x00\n        /* \"#utility.yul\":6782:6788   */\n      dup1\n        /* \"#utility.yul\":6832:6835   */\n      dup4\n        /* \"#utility.yul\":6825:6829   */\n      0x1f\n        /* \"#utility.yul\":6817:6823   */\n      dup5\n        /* \"#utility.yul\":6813:6830   */\n      add\n        /* \"#utility.yul\":6809:6836   */\n      slt\n        /* \"#utility.yul\":6799:6921   */\n      tag_202\n      jumpi\n        /* \"#utility.yul\":6840:6919   */\n      tag_203\n      tag_100\n      jump\t// in\n    tag_203:\n        /* \"#utility.yul\":6799:6921   */\n    tag_202:\n        /* \"#utility.yul\":6953:6959   */\n      dup3\n        /* \"#utility.yul\":6940:6960   */\n      calldataload\n        /* \"#utility.yul\":6930:6960   */\n      swap1\n      pop\n        /* \"#utility.yul\":6983:7001   */\n      0xffffffffffffffff\n        /* \"#utility.yul\":6975:6981   */\n      dup2\n        /* \"#utility.yul\":6972:7002   */\n      gt\n        /* \"#utility.yul\":6969:7086   */\n      iszero\n      tag_204\n      jumpi\n        /* \"#utility.yul\":7005:7084   */\n      tag_205\n      tag_101\n      jump\t// in\n    tag_205:\n        /* \"#utility.yul\":6969:7086   */\n    tag_204:\n        /* \"#utility.yul\":7119:7123   */\n      0x20\n        /* \"#utility.yul\":7111:7117   */\n      dup4\n        /* \"#utility.yul\":7107:7124   */\n      add\n        /* \"#utility.yul\":7095:7124   */\n      swap2\n      pop\n        /* \"#utility.yul\":7173:7176   */\n      dup4\n        /* \"#utility.yul\":7165:7169   */\n      0x01\n        /* \"#utility.yul\":7157:7163   */\n      dup3\n        /* \"#utility.yul\":7153:7170   */\n      mul\n        /* \"#utility.yul\":7143:7151   */\n      dup4\n        /* \"#utility.yul\":7139:7171   */\n      add\n        /* \"#utility.yul\":7136:7177   */\n      gt\n        /* \"#utility.yul\":7133:7261   */\n      iszero\n      tag_206\n      jumpi\n        /* \"#utility.yul\":7180:7259   */\n      tag_207\n      tag_102\n      jump\t// in\n    tag_207:\n        /* \"#utility.yul\":7133:7261   */\n    tag_206:\n        /* \"#utility.yul\":6714:7267   */\n      swap3\n      pop\n      swap3\n      swap1\n      pop\n      jump\t// out\n        /* \"#utility.yul\":7273:8292   */\n    tag_28:\n        /* \"#utility.yul\":7374:7380   */\n      0x00\n        /* \"#utility.yul\":7382:7388   */\n      dup1\n        /* \"#utility.yul\":7390:7396   */\n      0x00\n        /* \"#utility.yul\":7398:7404   */\n      dup1\n        /* \"#utility.yul\":7406:7412   */\n      0x00\n        /* \"#utility.yul\":7455:7457   */\n      0x60\n        /* \"#utility.yul\":7443:7452   */\n      dup7\n        /* \"#utility.yul\":7434:7441   */\n      dup9\n        /* \"#utility.yul\":7430:7453   */\n      sub\n        /* \"#utility.yul\":7426:7458   */\n      slt\n        /* \"#utility.yul\":7423:7542   */\n      iszero\n      tag_209\n      jumpi\n        /* \"#utility.yul\":7461:7540   */\n      tag_210\n      tag_77\n      jump\t// in\n    tag_210:\n        /* \"#utility.yul\":7423:7542   */\n    tag_209:\n        /* \"#utility.yul\":7609:7610   */\n      0x00\n        /* \"#utility.yul\":7598:7607   */\n      dup7\n        /* \"#utility.yul\":7594:7611   */\n      add\n        /* \"#utility.yul\":7581:7612   */\n      calldataload\n        /* \"#utility.yul\":7639:7657   */\n      0xffffffffffffffff\n        /* \"#utility.yul\":7631:7637   */\n      dup2\n        /* \"#utility.yul\":7628:7658   */\n      gt\n        /* \"#utility.yul\":7625:7742   */\n      iszero\n      tag_211\n      jumpi\n        /* \"#utility.yul\":7661:7740   */\n      tag_212\n      tag_78\n      jump\t// in\n    tag_212:\n        /* \"#utility.yul\":7625:7742   */\n    tag_211:\n        /* \"#utility.yul\":7774:7839   */\n      tag_213\n        /* \"#utility.yul\":7831:7838   */\n      dup9\n        /* \"#utility.yul\":7822:7828   */\n      dup3\n        /* \"#utility.yul\":7811:7820   */\n      dup10\n        /* \"#utility.yul\":7807:7829   */\n      add\n        /* \"#utility.yul\":7774:7839   */\n      tag_103\n      jump\t// in\n    tag_213:\n        /* \"#utility.yul\":7756:7839   */\n      swap6\n      pop\n      swap6\n      pop\n        /* \"#utility.yul\":7552:7849   */\n      pop\n        /* \"#utility.yul\":7916:7918   */\n      0x20\n        /* \"#utility.yul\":7905:7914   */\n      dup7\n        /* \"#utility.yul\":7901:7919   */\n      add\n        /* \"#utility.yul\":7888:7920   */\n      calldataload\n        /* \"#utility.yul\":7947:7965   */\n      0xffffffffffffffff\n        /* \"#utility.yul\":7939:7945   */\n      dup2\n        /* \"#utility.yul\":7936:7966   */\n      gt\n        /* \"#utility.yul\":7933:8050   */\n      iszero\n      tag_214\n      jumpi\n        /* \"#utility.yul\":7969:8048   */\n      tag_215\n      tag_78\n      jump\t// in\n    tag_215:\n        /* \"#utility.yul\":7933:8050   */\n    tag_214:\n        /* \"#utility.yul\":8082:8147   */\n      tag_216\n        /* \"#utility.yul\":8139:8146   */\n      dup9\n        /* \"#utility.yul\":8130:8136   */\n      dup3\n        /* \"#utility.yul\":8119:8128   */\n      dup10\n        /* \"#utility.yul\":8115:8137   */\n      add\n        /* \"#utility.yul\":8082:8147   */\n      tag_103\n      jump\t// in\n    tag_216:\n        /* \"#utility.yul\":8064:8147   */\n      swap4\n      pop\n      swap4\n      pop\n        /* \"#utility.yul\":7859:8157   */\n      pop\n        /* \"#utility.yul\":8196:8198   */\n      0x40\n        /* \"#utility.yul\":8222:8275   */\n      tag_217\n        /* \"#utility.yul\":8267:8274   */\n      dup9\n        /* \"#utility.yul\":8258:8264   */\n      dup3\n        /* \"#utility.yul\":8247:8256   */\n      dup10\n        /* \"#utility.yul\":8243:8265   */\n      add\n        /* \"#utility.yul\":8222:8275   */\n      tag_81\n      jump\t// in\n    tag_217:\n        /* \"#utility.yul\":8212:8275   */\n      swap2\n      pop\n        /* \"#utility.yul\":8167:8285   */\n      pop\n        /* \"#utility.yul\":7273:8292   */\n      swap3\n      swap6\n      pop\n      swap3\n      swap6\n      swap1\n      swap4\n      pop\n      jump\t// out\n        /* \"#utility.yul\":8298:8388   */\n    tag_104:\n        /* \"#utility.yul\":8332:8339   */\n      0x00\n        /* \"#utility.yul\":8375:8380   */\n      dup2\n        /* \"#utility.yul\":8368:8381   */\n      iszero\n        /* \"#utility.yul\":8361:8382   */\n      iszero\n        /* \"#utility.yul\":8350:8382   */\n      swap1\n      pop\n        /* \"#utility.yul\":8298:8388   */\n      swap2\n      swap1\n      pop\n      jump\t// out\n        /* \"#utility.yul\":8394:8503   */\n    tag_105:\n        /* \"#utility.yul\":8475:8496   */\n      tag_220\n        /* \"#utility.yul\":8490:8495   */\n      dup2\n        /* \"#utility.yul\":8475:8496   */\n      tag_104\n      jump\t// in\n    tag_220:\n        /* \"#utility.yul\":8470:8473   */\n      dup3\n        /* \"#utility.yul\":8463:8497   */\n      mstore\n        /* \"#utility.yul\":8394:8503   */\n      pop\n      pop\n      jump\t// out\n        /* \"#utility.yul\":8509:8719   */\n    tag_31:\n        /* \"#utility.yul\":8596:8600   */\n      0x00\n        /* \"#utility.yul\":8634:8636   */\n      0x20\n        /* \"#utility.yul\":8623:8632   */\n      dup3\n        /* \"#utility.yul\":8619:8637   */\n      add\n        /* \"#utility.yul\":8611:8637   */\n      swap1\n      pop\n        /* \"#utility.yul\":8647:8712   */\n      tag_222\n        /* \"#utility.yul\":8709:8710   */\n      0x00\n        /* \"#utility.yul\":8698:8707   */\n      dup4\n        /* \"#utility.yul\":8694:8711   */\n      add\n        /* \"#utility.yul\":8685:8691   */\n      dup5\n        /* \"#utility.yul\":8647:8712   */\n      tag_105\n      jump\t// in\n    tag_222:\n        /* \"#utility.yul\":8509:8719   */\n      swap3\n      swap2\n      pop\n      pop\n      jump\t// out\n        /* \"#utility.yul\":8725:9344   */\n    tag_34:\n        /* \"#utility.yul\":8802:8808   */\n      0x00\n        /* \"#utility.yul\":8810:8816   */\n      dup1\n        /* \"#utility.yul\":8818:8824   */\n      0x00\n        /* \"#utility.yul\":8867:8869   */\n      0x60\n        /* \"#utility.yul\":8855:8864   */\n      dup5\n        /* \"#utility.yul\":8846:8853   */\n      dup7\n        /* \"#utility.yul\":8842:8865   */\n      sub\n        /* \"#utility.yul\":8838:8870   */\n      slt\n        /* \"#utility.yul\":8835:8954   */\n      iszero\n      tag_224\n      jumpi\n        /* \"#utility.yul\":8873:8952   */\n      tag_225\n      tag_77\n      jump\t// in\n    tag_225:\n        /* \"#utility.yul\":8835:8954   */\n    tag_224:\n        /* \"#utility.yul\":8993:8994   */\n      0x00\n        /* \"#utility.yul\":9018:9071   */\n      tag_226\n        /* \"#utility.yul\":9063:9070   */\n      dup7\n        /* \"#utility.yul\":9054:9060   */\n      dup3\n        /* \"#utility.yul\":9043:9052   */\n      dup8\n        /* \"#utility.yul\":9039:9061   */\n      add\n        /* \"#utility.yul\":9018:9071   */\n      tag_81\n      jump\t// in\n    tag_226:\n        /* \"#utility.yul\":9008:9071   */\n      swap4\n      pop\n        /* \"#utility.yul\":8964:9081   */\n      pop\n        /* \"#utility.yul\":9120:9122   */\n      0x20\n        /* \"#utility.yul\":9146:9199   */\n      tag_227\n        /* \"#utility.yul\":9191:9198   */\n      dup7\n        /* \"#utility.yul\":9182:9188   */\n      dup3\n        /* \"#utility.yul\":9171:9180   */\n      dup8\n        /* \"#utility.yul\":9167:9189   */\n      add\n        /* \"#utility.yul\":9146:9199   */\n      tag_81\n      jump\t// in\n    tag_227:\n        /* \"#utility.yul\":9136:9199   */\n      swap3\n      pop\n        /* \"#utility.yul\":9091:9209   */\n      pop\n        /* \"#utility.yul\":9248:9250   */\n      0x40\n        /* \"#utility.yul\":9274:9327   */\n      tag_228\n        /* \"#utility.yul\":9319:9326   */\n      dup7\n        /* \"#utility.yul\":9310:9316   */\n      dup3\n        /* \"#utility.yul\":9299:9308   */\n      dup8\n        /* \"#utility.yul\":9295:9317   */\n      add\n        /* \"#utility.yul\":9274:9327   */\n      tag_81\n      jump\t// in\n    tag_228:\n        /* \"#utility.yul\":9264:9327   */\n      swap2\n      pop\n        /* \"#utility.yul\":9219:9337   */\n      pop\n        /* \"#utility.yul\":8725:9344   */\n      swap3\n      pop\n      swap3\n      pop\n      swap3\n      jump\t// out\n        /* \"#utility.yul\":9350:9572   */\n    tag_39:\n        /* \"#utility.yul\":9443:9447   */\n      0x00\n        /* \"#utility.yul\":9481:9483   */\n      0x20\n        /* \"#utility.yul\":9470:9479   */\n      dup3\n        /* \"#utility.yul\":9466:9484   */\n      add\n        /* \"#utility.yul\":9458:9484   */\n      swap1\n      pop\n        /* \"#utility.yul\":9494:9565   */\n      tag_230\n        /* \"#utility.yul\":9562:9563   */\n      0x00\n        /* \"#utility.yul\":9551:9560   */\n      dup4\n        /* \"#utility.yul\":9547:9564   */\n      add\n        /* \"#utility.yul\":9538:9544   */\n      dup5\n        /* \"#utility.yul\":9494:9565   */\n      tag_84\n      jump\t// in\n    tag_230:\n        /* \"#utility.yul\":9350:9572   */\n      swap3\n      swap2\n      pop\n      pop\n      jump\t// out\n        /* \"#utility.yul\":9578:9758   */\n    tag_106:\n        /* \"#utility.yul\":9626:9703   */\n      0x4e487b7100000000000000000000000000000000000000000000000000000000\n        /* \"#utility.yul\":9623:9624   */\n      0x00\n        /* \"#utility.yul\":9616:9704   */\n      mstore\n        /* \"#utility.yul\":9723:9727   */\n      0x22\n        /* \"#utility.yul\":9720:9721   */\n      0x04\n        /* \"#utility.yul\":9713:9728   */\n      mstore\n        /* \"#utility.yul\":9747:9751   */\n      0x24\n        /* \"#utility.yul\":9744:9745   */\n      0x00\n        /* \"#utility.yul\":9737:9752   */\n      revert\n        /* \"#utility.yul\":9764:10084   */\n    tag_43:\n        /* \"#utility.yul\":9808:9814   */\n      0x00\n        /* \"#utility.yul\":9845:9846   */\n      0x02\n        /* \"#utility.yul\":9839:9843   */\n      dup3\n        /* \"#utility.yul\":9835:9847   */\n      div\n        /* \"#utility.yul\":9825:9847   */\n      swap1\n      pop\n        /* \"#utility.yul\":9892:9893   */\n      0x01\n        /* \"#utility.yul\":9886:9890   */\n      dup3\n        /* \"#utility.yul\":9882:9894   */\n      and\n        /* \"#utility.yul\":9913:9931   */\n      dup1\n        /* \"#utility.yul\":9903:9984   */\n      tag_233\n      jumpi\n        /* \"#utility.yul\":9969:9973   */\n      0x7f\n        /* \"#utility.yul\":9961:9967   */\n      dup3\n        /* \"#utility.yul\":9957:9974   */\n      and\n        /* \"#utility.yul\":9947:9974   */\n      swap2\n      pop\n        /* \"#utility.yul\":9903:9984   */\n    tag_233:\n        /* \"#utility.yul\":10031:10033   */\n      0x20\n        /* \"#utility.yul\":10023:10029   */\n      dup3\n        /* \"#utility.yul\":10020:10034   */\n      lt\n        /* \"#utility.yul\":10000:10018   */\n      dup2\n        /* \"#utility.yul\":9997:10035   */\n      sub\n        /* \"#utility.yul\":9994:10078   */\n      tag_234\n      jumpi\n        /* \"#utility.yul\":10050:10068   */\n      tag_235\n      tag_106\n      jump\t// in\n    tag_235:\n        /* \"#utility.yul\":9994:10078   */\n    tag_234:\n        /* \"#utility.yul\":9815:10084   */\n      pop\n        /* \"#utility.yul\":9764:10084   */\n      swap2\n      swap1\n      pop\n      jump\t// out\n        /* \"#utility.yul\":10090:10249   */\n    tag_107:\n        /* \"#utility.yul\":10230:10241   */\n      0x4e6f74204f776e65720000000000000000000000000000000000000000000000\n        /* \"#utility.yul\":10226:10227   */\n      0x00\n        /* \"#utility.yul\":10218:10224   */\n      dup3\n        /* \"#utility.yul\":10214:10228   */\n      add\n        /* \"#utility.yul\":10207:10242   */\n      mstore\n        /* \"#utility.yul\":10090:10249   */\n      pop\n      jump\t// out\n        /* \"#utility.yul\":10255:10620   */\n    tag_108:\n        /* \"#utility.yul\":10397:10400   */\n      0x00\n        /* \"#utility.yul\":10418:10484   */\n      tag_238\n        /* \"#utility.yul\":10482:10483   */\n      0x09\n        /* \"#utility.yul\":10477:10480   */\n      dup4\n        /* \"#utility.yul\":10418:10484   */\n      tag_94\n      jump\t// in\n    tag_238:\n        /* \"#utility.yul\":10411:10484   */\n      swap2\n      pop\n        /* \"#utility.yul\":10493:10586   */\n      tag_239\n        /* \"#utility.yul\":10582:10585   */\n      dup3\n        /* \"#utility.yul\":10493:10586   */\n      tag_107\n      jump\t// in\n    tag_239:\n        /* \"#utility.yul\":10611:10613   */\n      0x20\n        /* \"#utility.yul\":10606:10609   */\n      dup3\n        /* \"#utility.yul\":10602:10614   */\n      add\n        /* \"#utility.yul\":10595:10614   */\n      swap1\n      pop\n        /* \"#utility.yul\":10255:10620   */\n      swap2\n      swap1\n      pop\n      jump\t// out\n        /* \"#utility.yul\":10626:11045   */\n    tag_56:\n        /* \"#utility.yul\":10792:10796   */\n      0x00\n        /* \"#utility.yul\":10830:10832   */\n      0x20\n        /* \"#utility.yul\":10819:10828   */\n      dup3\n        /* \"#utility.yul\":10815:10833   */\n      add\n        /* \"#utility.yul\":10807:10833   */\n      swap1\n      pop\n        /* \"#utility.yul\":10879:10888   */\n      dup2\n        /* \"#utility.yul\":10873:10877   */\n      dup2\n        /* \"#utility.yul\":10869:10889   */\n      sub\n        /* \"#utility.yul\":10865:10866   */\n      0x00\n        /* \"#utility.yul\":10854:10863   */\n      dup4\n        /* \"#utility.yul\":10850:10867   */\n      add\n        /* \"#utility.yul\":10843:10890   */\n      mstore\n        /* \"#utility.yul\":10907:11038   */\n      tag_241\n        /* \"#utility.yul\":11033:11037   */\n      dup2\n        /* \"#utility.yul\":10907:11038   */\n      tag_108\n      jump\t// in\n    tag_241:\n        /* \"#utility.yul\":10899:11038   */\n      swap1\n      pop\n        /* \"#utility.yul\":10626:11045   */\n      swap2\n      swap1\n      pop\n      jump\t// out\n        /* \"#utility.yul\":11051:11231   */\n    tag_109:\n        /* \"#utility.yul\":11099:11176   */\n      0x4e487b7100000000000000000000000000000000000000000000000000000000\n        /* \"#utility.yul\":11096:11097   */\n      0x00\n        /* \"#utility.yul\":11089:11177   */\n      mstore\n        /* \"#utility.yul\":11196:11200   */\n      0x11\n        /* \"#utility.yul\":11193:11194   */\n      0x04\n        /* \"#utility.yul\":11186:11201   */\n      mstore\n        /* \"#utility.yul\":11220:11224   */\n      0x24\n        /* \"#utility.yul\":11217:11218   */\n      0x00\n        /* \"#utility.yul\":11210:11225   */\n      revert\n        /* \"#utility.yul\":11237:11428   */\n    tag_58:\n        /* \"#utility.yul\":11277:11280   */\n      0x00\n        /* \"#utility.yul\":11296:11316   */\n      tag_244\n        /* \"#utility.yul\":11314:11315   */\n      dup3\n        /* \"#utility.yul\":11296:11316   */\n      tag_79\n      jump\t// in\n    tag_244:\n        /* \"#utility.yul\":11291:11316   */\n      swap2\n      pop\n        /* \"#utility.yul\":11330:11350   */\n      tag_245\n        /* \"#utility.yul\":11348:11349   */\n      dup4\n        /* \"#utility.yul\":11330:11350   */\n      tag_79\n      jump\t// in\n    tag_245:\n        /* \"#utility.yul\":11325:11350   */\n      swap3\n      pop\n        /* \"#utility.yul\":11373:11374   */\n      dup3\n        /* \"#utility.yul\":11370:11371   */\n      dup3\n        /* \"#utility.yul\":11366:11375   */\n      add\n        /* \"#utility.yul\":11359:11375   */\n      swap1\n      pop\n        /* \"#utility.yul\":11394:11397   */\n      dup1\n        /* \"#utility.yul\":11391:11392   */\n      dup3\n        /* \"#utility.yul\":11388:11398   */\n      gt\n        /* \"#utility.yul\":11385:11421   */\n      iszero\n      tag_246\n      jumpi\n        /* \"#utility.yul\":11401:11419   */\n      tag_247\n      tag_109\n      jump\t// in\n    tag_247:\n        /* \"#utility.yul\":11385:11421   */\n    tag_246:\n        /* \"#utility.yul\":11237:11428   */\n      swap3\n      swap2\n      pop\n      pop\n      jump\t// out\n        /* \"#utility.yul\":11434:11614   */\n    tag_110:\n        /* \"#utility.yul\":11482:11559   */\n      0x4e487b7100000000000000000000000000000000000000000000000000000000\n        /* \"#utility.yul\":11479:11480   */\n      0x00\n        /* \"#utility.yul\":11472:11560   */\n      mstore\n        /* \"#utility.yul\":11579:11583   */\n      0x41\n        /* \"#utility.yul\":11576:11577   */\n      0x04\n        /* \"#utility.yul\":11569:11584   */\n      mstore\n        /* \"#utility.yul\":11603:11607   */\n      0x24\n        /* \"#utility.yul\":11600:11601   */\n      0x00\n        /* \"#utility.yul\":11593:11608   */\n      revert\n        /* \"#utility.yul\":11620:11761   */\n    tag_111:\n        /* \"#utility.yul\":11669:11673   */\n      0x00\n        /* \"#utility.yul\":11692:11695   */\n      dup2\n        /* \"#utility.yul\":11684:11695   */\n      swap1\n      pop\n        /* \"#utility.yul\":11715:11718   */\n      dup2\n        /* \"#utility.yul\":11712:11713   */\n      0x00\n        /* \"#utility.yul\":11705:11719   */\n      mstore\n        /* \"#utility.yul\":11749:11753   */\n      0x20\n        /* \"#utility.yul\":11746:11747   */\n      0x00\n        /* \"#utility.yul\":11736:11754   */\n      keccak256\n        /* \"#utility.yul\":11728:11754   */\n      swap1\n      pop\n        /* \"#utility.yul\":11620:11761   */\n      swap2\n      swap1\n      pop\n      jump\t// out\n        /* \"#utility.yul\":11767:11860   */\n    tag_112:\n        /* \"#utility.yul\":11804:11810   */\n      0x00\n        /* \"#utility.yul\":11851:11853   */\n      0x20\n        /* \"#utility.yul\":11846:11848   */\n      0x1f\n        /* \"#utility.yul\":11839:11844   */\n      dup4\n        /* \"#utility.yul\":11835:11849   */\n      add\n        /* \"#utility.yul\":11831:11854   */\n      div\n        /* \"#utility.yul\":11821:11854   */\n      swap1\n      pop\n        /* \"#utility.yul\":11767:11860   */\n      swap2\n      swap1\n      pop\n      jump\t// out\n        /* \"#utility.yul\":11866:11973   */\n    tag_113:\n        /* \"#utility.yul\":11910:11918   */\n      0x00\n        /* \"#utility.yul\":11960:11965   */\n      dup3\n        /* \"#utility.yul\":11954:11958   */\n      dup3\n        /* \"#utility.yul\":11950:11966   */\n      shl\n        /* \"#utility.yul\":11929:11966   */\n      swap1\n      pop\n        /* \"#utility.yul\":11866:11973   */\n      swap3\n      swap2\n      pop\n      pop\n      jump\t// out\n        /* \"#utility.yul\":11979:12372   */\n    tag_114:\n        /* \"#utility.yul\":12048:12054   */\n      0x00\n        /* \"#utility.yul\":12098:12099   */\n      0x08\n        /* \"#utility.yul\":12086:12096   */\n      dup4\n        /* \"#utility.yul\":12082:12100   */\n      mul\n        /* \"#utility.yul\":12121:12218   */\n      tag_253\n        /* \"#utility.yul\":12151:12217   */\n      0xffffffffffffffffffffffffffffffffffffffffffffffffffffffffffffffff\n        /* \"#utility.yul\":12140:12149   */\n      dup3\n        /* \"#utility.yul\":12121:12218   */\n      tag_113\n      jump\t// in\n    tag_253:\n        /* \"#utility.yul\":12239:12278   */\n      tag_254\n        /* \"#utility.yul\":12269:12277   */\n      dup7\n        /* \"#utility.yul\":12258:12267   */\n      dup4\n        /* \"#utility.yul\":12239:12278   */\n      tag_113\n      jump\t// in\n    tag_254:\n        /* \"#utility.yul\":12227:12278   */\n      swap6\n      pop\n        /* \"#utility.yul\":12311:12315   */\n      dup1\n        /* \"#utility.yul\":12307:12316   */\n      not\n        /* \"#utility.yul\":12300:12305   */\n      dup5\n        /* \"#utility.yul\":12296:12317   */\n      and\n        /* \"#utility.yul\":12287:12317   */\n      swap4\n      pop\n        /* \"#utility.yul\":12360:12364   */\n      dup1\n        /* \"#utility.yul\":12350:12358   */\n      dup7\n        /* \"#utility.yul\":12346:12365   */\n      and\n        /* \"#utility.yul\":12339:12344   */\n      dup5\n        /* \"#utility.yul\":12336:12366   */\n      or\n        /* \"#utility.yul\":12326:12366   */\n      swap3\n      pop\n        /* \"#utility.yul\":12055:12372   */\n      pop\n      pop\n        /* \"#utility.yul\":11979:12372   */\n      swap4\n      swap3\n      pop\n      pop\n      pop\n      jump\t// out\n        /* \"#utility.yul\":12378:12438   */\n    tag_115:\n        /* \"#utility.yul\":12406:12409   */\n      0x00\n        /* \"#utility.yul\":12427:12432   */\n      dup2\n        /* \"#utility.yul\":12420:12432   */\n      swap1\n      pop\n        /* \"#utility.yul\":12378:12438   */\n      swap2\n      swap1\n      pop\n      jump\t// out\n        /* \"#utility.yul\":12444:12586   */\n    tag_116:\n        /* \"#utility.yul\":12494:12503   */\n      0x00\n        /* \"#utility.yul\":12527:12580   */\n      tag_257\n        /* \"#utility.yul\":12545:12579   */\n      tag_258\n        /* \"#utility.yul\":12554:12578   */\n      tag_259\n        /* \"#utility.yul\":12572:12577   */\n      dup5\n        /* \"#utility.yul\":12554:12578   */\n      tag_79\n      jump\t// in\n    tag_259:\n        /* \"#utility.yul\":12545:12579   */\n      tag_115\n      jump\t// in\n    tag_258:\n        /* \"#utility.yul\":12527:12580   */\n      tag_79\n      jump\t// in\n    tag_257:\n        /* \"#utility.yul\":12514:12580   */\n      swap1\n      pop\n        /* \"#utility.yul\":12444:12586   */\n      swap2\n      swap1\n      pop\n      jump\t// out\n        /* \"#utility.yul\":12592:12667   */\n    tag_117:\n        /* \"#utility.yul\":12635:12638   */\n      0x00\n        /* \"#utility.yul\":12656:12661   */\n      dup2\n        /* \"#utility.yul\":12649:12661   */\n      swap1\n      pop\n        /* \"#utility.yul\":12592:12667   */\n      swap2\n      swap1\n      pop\n      jump\t// out\n        /* \"#utility.yul\":12673:12942   */\n    tag_118:\n        /* \"#utility.yul\":12783:12822   */\n      tag_262\n        /* \"#utility.yul\":12814:12821   */\n      dup4\n        /* \"#utility.yul\":12783:12822   */\n      tag_116\n      jump\t// in\n    tag_262:\n        /* \"#utility.yul\":12844:12935   */\n      tag_263\n        /* \"#utility.yul\":12893:12934   */\n      tag_264\n        /* \"#utility.yul\":12917:12933   */\n      dup3\n        /* \"#utility.yul\":12893:12934   */\n      tag_117\n      jump\t// in\n    tag_264:\n        /* \"#utility.yul\":12885:12891   */\n      dup5\n        /* \"#utility.yul\":12878:12882   */\n      dup5\n        /* \"#utility.yul\":12872:12883   */\n      sload\n        /* \"#utility.yul\":12844:12935   */\n      tag_114\n      jump\t// in\n    tag_263:\n        /* \"#utility.yul\":12838:12842   */\n      dup3\n        /* \"#utility.yul\":12831:12936   */\n      sstore\n        /* \"#utility.yul\":12749:12942   */\n      pop\n        /* \"#utility.yul\":12673:12942   */\n      pop\n      pop\n      pop\n      jump\t// out\n        /* \"#utility.yul\":12948:13021   */\n    tag_119:\n        /* \"#utility.yul\":12993:12996   */\n      0x00\n        /* \"#utility.yul\":12948:13021   */\n      swap1\n      jump\t// out\n        /* \"#utility.yul\":13027:13216   */\n    tag_120:\n        /* \"#utility.yul\":13104:13136   */\n      tag_267\n      tag_119\n      jump\t// in\n    tag_267:\n        /* \"#utility.yul\":13145:13210   */\n      tag_268\n        /* \"#utility.yul\":13203:13209   */\n      dup2\n        /* \"#utility.yul\":13195:13201   */\n      dup5\n        /* \"#utility.yul\":13189:13193   */\n      dup5\n        /* \"#utility.yul\":13145:13210   */\n      tag_118\n      jump\t// in\n    tag_268:\n        /* \"#utility.yul\":13080:13216   */\n      pop\n        /* \"#utility.yul\":13027:13216   */\n      pop\n      pop\n      jump\t// out\n        /* \"#utility.yul\":13222:13408   */\n    tag_121:\n        /* \"#utility.yul\":13282:13402   */\n    tag_270:\n        /* \"#utility.yul\":13299:13302   */\n      dup2\n        /* \"#utility.yul\":13292:13297   */\n      dup2\n        /* \"#utility.yul\":13289:13303   */\n      lt\n        /* \"#utility.yul\":13282:13402   */\n      iszero\n      tag_272\n      jumpi\n        /* \"#utility.yul\":13353:13392   */\n      tag_273\n        /* \"#utility.yul\":13390:13391   */\n      0x00\n        /* \"#utility.yul\":13383:13388   */\n      dup3\n        /* \"#utility.yul\":13353:13392   */\n      tag_120\n      jump\t// in\n    tag_273:\n        /* \"#utility.yul\":13326:13327   */\n      0x01\n        /* \"#utility.yul\":13319:13324   */\n      dup2\n        /* \"#utility.yul\":13315:13328   */\n      add\n        /* \"#utility.yul\":13306:13328   */\n      swap1\n      pop\n        /* \"#utility.yul\":13282:13402   */\n      jump(tag_270)\n    tag_272:\n        /* \"#utility.yul\":13222:13408   */\n      pop\n      pop\n      jump\t// out\n        /* \"#utility.yul\":13414:13957   */\n    tag_122:\n        /* \"#utility.yul\":13515:13517   */\n      0x1f\n        /* \"#utility.yul\":13510:13513   */\n      dup3\n        /* \"#utility.yul\":13507:13518   */\n      gt\n        /* \"#utility.yul\":13504:13950   */\n      iszero\n      tag_275\n      jumpi\n        /* \"#utility.yul\":13549:13587   */\n      tag_276\n        /* \"#utility.yul\":13581:13586   */\n      dup2\n        /* \"#utility.yul\":13549:13587   */\n      tag_111\n      jump\t// in\n    tag_276:\n        /* \"#utility.yul\":13633:13662   */\n      tag_277\n        /* \"#utility.yul\":13651:13661   */\n      dup5\n        /* \"#utility.yul\":13633:13662   */\n      tag_112\n      jump\t// in\n    tag_277:\n        /* \"#utility.yul\":13623:13631   */\n      dup2\n        /* \"#utility.yul\":13619:13663   */\n      add\n        /* \"#utility.yul\":13816:13818   */\n      0x20\n        /* \"#utility.yul\":13804:13814   */\n      dup6\n        /* \"#utility.yul\":13801:13819   */\n      lt\n        /* \"#utility.yul\":13798:13847   */\n      iszero\n      tag_278\n      jumpi\n        /* \"#utility.yul\":13837:13845   */\n      dup2\n        /* \"#utility.yul\":13822:13845   */\n      swap1\n      pop\n        /* \"#utility.yul\":13798:13847   */\n    tag_278:\n        /* \"#utility.yul\":13860:13940   */\n      tag_279\n        /* \"#utility.yul\":13916:13938   */\n      tag_280\n        /* \"#utility.yul\":13934:13937   */\n      dup6\n        /* \"#utility.yul\":13916:13938   */\n      tag_112\n      jump\t// in\n    tag_280:\n        /* \"#utility.yul\":13906:13914   */\n      dup4\n        /* \"#utility.yul\":13902:13939   */\n      add\n        /* \"#utility.yul\":13889:13900   */\n      dup3\n        /* \"#utility.yul\":13860:13940   */\n      tag_121\n      jump\t// in\n    tag_279:\n        /* \"#utility.yul\":13519:13950   */\n      pop\n      pop\n        /* \"#utility.yul\":13504:13950   */\n    tag_275:\n        /* \"#utility.yul\":13414:13957   */\n      pop\n      pop\n      pop\n      jump\t// out\n        /* \"#utility.yul\":13963:14080   */\n    tag_123:\n        /* \"#utility.yul\":14017:14025   */\n      0x00\n        /* \"#utility.yul\":14067:14072   */\n      dup3\n        /* \"#utility.yul\":14061:14065   */\n      dup3\n        /* \"#utility.yul\":14057:14073   */\n      shr\n        /* \"#utility.yul\":14036:14073   */\n      swap1\n      pop\n        /* \"#utility.yul\":13963:14080   */\n      swap3\n      swap2\n      pop\n      pop\n      jump\t// out\n        /* \"#utility.yul\":14086:14255   */\n    tag_124:\n        /* \"#utility.yul\":14130:14136   */\n      0x00\n        /* \"#utility.yul\":14163:14214   */\n      tag_283\n        /* \"#utility.yul\":14211:14212   */\n      0x00\n        /* \"#utility.yul\":14207:14213   */\n      not\n        /* \"#utility.yul\":14199:14204   */\n      dup5\n        /* \"#utility.yul\":14196:14197   */\n      0x08\n        /* \"#utility.yul\":14192:14205   */\n      mul\n        /* \"#utility.yul\":14163:14214   */\n      tag_123\n      jump\t// in\n    tag_283:\n        /* \"#utility.yul\":14159:14215   */\n      not\n        /* \"#utility.yul\":14244:14248   */\n      dup1\n        /* \"#utility.yul\":14238:14242   */\n      dup4\n        /* \"#utility.yul\":14234:14249   */\n      and\n        /* \"#utility.yul\":14224:14249   */\n      swap2\n      pop\n        /* \"#utility.yul\":14137:14255   */\n      pop\n        /* \"#utility.yul\":14086:14255   */\n      swap3\n      swap2\n      pop\n      pop\n      jump\t// out\n        /* \"#utility.yul\":14260:14555   */\n    tag_125:\n        /* \"#utility.yul\":14336:14340   */\n      0x00\n        /* \"#utility.yul\":14482:14511   */\n      tag_285\n        /* \"#utility.yul\":14507:14510   */\n      dup4\n        /* \"#utility.yul\":14501:14505   */\n      dup4\n        /* \"#utility.yul\":14482:14511   */\n      tag_124\n      jump\t// in\n    tag_285:\n        /* \"#utility.yul\":14474:14511   */\n      swap2\n      pop\n        /* \"#utility.yul\":14544:14547   */\n      dup3\n        /* \"#utility.yul\":14541:14542   */\n      0x02\n        /* \"#utility.yul\":14537:14548   */\n      mul\n        /* \"#utility.yul\":14531:14535   */\n      dup3\n        /* \"#utility.yul\":14528:14549   */\n      or\n        /* \"#utility.yul\":14520:14549   */\n      swap1\n      pop\n        /* \"#utility.yul\":14260:14555   */\n      swap3\n      swap2\n      pop\n      pop\n      jump\t// out\n        /* \"#utility.yul\":14560:15955   */\n    tag_61:\n        /* \"#utility.yul\":14677:14714   */\n      tag_287\n        /* \"#utility.yul\":14710:14713   */\n      dup3\n        /* \"#utility.yul\":14677:14714   */\n      tag_93\n      jump\t// in\n    tag_287:\n        /* \"#utility.yul\":14779:14797   */\n      0xffffffffffffffff\n        /* \"#utility.yul\":14771:14777   */\n      dup2\n        /* \"#utility.yul\":14768:14798   */\n      gt\n        /* \"#utility.yul\":14765:14821   */\n      iszero\n      tag_288\n      jumpi\n        /* \"#utility.yul\":14801:14819   */\n      tag_289\n      tag_110\n      jump\t// in\n    tag_289:\n        /* \"#utility.yul\":14765:14821   */\n    tag_288:\n        /* \"#utility.yul\":14845:14883   */\n      tag_290\n        /* \"#utility.yul\":14877:14881   */\n      dup3\n        /* \"#utility.yul\":14871:14882   */\n      sload\n        /* \"#utility.yul\":14845:14883   */\n      tag_43\n      jump\t// in\n    tag_290:\n        /* \"#utility.yul\":14930:14997   */\n      tag_291\n        /* \"#utility.yul\":14990:14996   */\n      dup3\n        /* \"#utility.yul\":14982:14988   */\n      dup3\n        /* \"#utility.yul\":14976:14980   */\n      dup6\n        /* \"#utility.yul\":14930:14997   */\n      tag_122\n      jump\t// in\n    tag_291:\n        /* \"#utility.yul\":15024:15025   */\n      0x00\n        /* \"#utility.yul\":15048:15052   */\n      0x20\n        /* \"#utility.yul\":15035:15052   */\n      swap1\n      pop\n        /* \"#utility.yul\":15080:15082   */\n      0x1f\n        /* \"#utility.yul\":15072:15078   */\n      dup4\n        /* \"#utility.yul\":15069:15083   */\n      gt\n        /* \"#utility.yul\":15097:15098   */\n      0x01\n        /* \"#utility.yul\":15092:15710   */\n      dup2\n      eq\n      tag_293\n      jumpi\n        /* \"#utility.yul\":15754:15755   */\n      0x00\n        /* \"#utility.yul\":15771:15777   */\n      dup5\n        /* \"#utility.yul\":15768:15845   */\n      iszero\n      tag_294\n      jumpi\n        /* \"#utility.yul\":15820:15829   */\n      dup3\n        /* \"#utility.yul\":15815:15818   */\n      dup8\n        /* \"#utility.yul\":15811:15830   */\n      add\n        /* \"#utility.yul\":15805:15831   */\n      mload\n        /* \"#utility.yul\":15796:15831   */\n      swap1\n      pop\n        /* \"#utility.yul\":15768:15845   */\n    tag_294:\n        /* \"#utility.yul\":15871:15938   */\n      tag_295\n        /* \"#utility.yul\":15931:15937   */\n      dup6\n        /* \"#utility.yul\":15924:15929   */\n      dup3\n        /* \"#utility.yul\":15871:15938   */\n      tag_125\n      jump\t// in\n    tag_295:\n        /* \"#utility.yul\":15865:15869   */\n      dup7\n        /* \"#utility.yul\":15858:15939   */\n      sstore\n        /* \"#utility.yul\":15727:15949   */\n      pop\n        /* \"#utility.yul\":15062:15949   */\n      jump(tag_292)\n        /* \"#utility.yul\":15092:15710   */\n    tag_293:\n        /* \"#utility.yul\":15144:15148   */\n      0x1f\n        /* \"#utility.yul\":15140:15149   */\n      not\n        /* \"#utility.yul\":15132:15138   */\n      dup5\n        /* \"#utility.yul\":15128:15150   */\n      and\n        /* \"#utility.yul\":15178:15215   */\n      tag_296\n        /* \"#utility.yul\":15210:15214   */\n      dup7\n        /* \"#utility.yul\":15178:15215   */\n      tag_111\n      jump\t// in\n    tag_296:\n        /* \"#utility.yul\":15237:15238   */\n      0x00\n        /* \"#utility.yul\":15251:15459   */\n    tag_297:\n        /* \"#utility.yul\":15265:15272   */\n      dup3\n        /* \"#utility.yul\":15262:15263   */\n      dup2\n        /* \"#utility.yul\":15259:15273   */\n      lt\n        /* \"#utility.yul\":15251:15459   */\n      iszero\n      tag_299\n      jumpi\n        /* \"#utility.yul\":15344:15353   */\n      dup5\n        /* \"#utility.yul\":15339:15342   */\n      dup10\n        /* \"#utility.yul\":15335:15354   */\n      add\n        /* \"#utility.yul\":15329:15355   */\n      mload\n        /* \"#utility.yul\":15321:15327   */\n      dup3\n        /* \"#utility.yul\":15314:15356   */\n      sstore\n        /* \"#utility.yul\":15395:15396   */\n      0x01\n        /* \"#utility.yul\":15387:15393   */\n      dup3\n        /* \"#utility.yul\":15383:15397   */\n      add\n        /* \"#utility.yul\":15373:15397   */\n      swap2\n      pop\n        /* \"#utility.yul\":15442:15444   */\n      0x20\n        /* \"#utility.yul\":15431:15440   */\n      dup6\n        /* \"#utility.yul\":15427:15445   */\n      add\n        /* \"#utility.yul\":15414:15445   */\n      swap5\n      pop\n        /* \"#utility.yul\":15288:15292   */\n      0x20\n        /* \"#utility.yul\":15285:15286   */\n      dup2\n        /* \"#utility.yul\":15281:15293   */\n      add\n        /* \"#utility.yul\":15276:15293   */\n      swap1\n      pop\n        /* \"#utility.yul\":15251:15459   */\n      jump(tag_297)\n    tag_299:\n        /* \"#utility.yul\":15487:15493   */\n      dup7\n        /* \"#utility.yul\":15478:15485   */\n      dup4\n        /* \"#utility.yul\":15475:15494   */\n      lt\n        /* \"#utility.yul\":15472:15651   */\n      iszero\n      tag_300\n      jumpi\n        /* \"#utility.yul\":15545:15554   */\n      dup5\n        /* \"#utility.yul\":15540:15543   */\n      dup10\n        /* \"#utility.yul\":15536:15555   */\n      add\n        /* \"#utility.yul\":15530:15556   */\n      mload\n        /* \"#utility.yul\":15588:15636   */\n      tag_301\n        /* \"#utility.yul\":15630:15634   */\n      0x1f\n        /* \"#utility.yul\":15622:15628   */\n      dup10\n        /* \"#utility.yul\":15618:15635   */\n      and\n        /* \"#utility.yul\":15607:15616   */\n      dup3\n        /* \"#utility.yul\":15588:15636   */\n      tag_124\n      jump\t// in\n    tag_301:\n        /* \"#utility.yul\":15580:15586   */\n      dup4\n        /* \"#utility.yul\":15573:15637   */\n      sstore\n        /* \"#utility.yul\":15495:15651   */\n      pop\n        /* \"#utility.yul\":15472:15651   */\n    tag_300:\n        /* \"#utility.yul\":15697:15698   */\n      0x01\n        /* \"#utility.yul\":15693:15694   */\n      0x02\n        /* \"#utility.yul\":15685:15691   */\n      dup9\n        /* \"#utility.yul\":15681:15695   */\n      mul\n        /* \"#utility.yul\":15677:15699   */\n      add\n        /* \"#utility.yul\":15671:15675   */\n      dup9\n        /* \"#utility.yul\":15664:15700   */\n      sstore\n        /* \"#utility.yul\":15099:15710   */\n      pop\n      pop\n      pop\n        /* \"#utility.yul\":15062:15949   */\n    tag_292:\n      pop\n        /* \"#utility.yul\":14652:15955   */\n      pop\n      pop\n      pop\n        /* \"#utility.yul\":14560:15955   */\n      pop\n      pop\n      jump\t// out\n        /* \"#utility.yul\":15961:16141   */\n    tag_68:\n        /* \"#utility.yul\":16009:16086   */\n      0x4e487b7100000000000000000000000000000000000000000000000000000000\n        /* \"#utility.yul\":16006:16007   */\n      0x00\n        /* \"#utility.yul\":15999:16087   */\n      mstore\n        /* \"#utility.yul\":16106:16110   */\n      0x32\n        /* \"#utility.yul\":16103:16104   */\n      0x04\n        /* \"#utility.yul\":16096:16111   */\n      mstore\n        /* \"#utility.yul\":16130:16134   */\n      0x24\n        /* \"#utility.yul\":16127:16128   */\n      0x00\n        /* \"#utility.yul\":16120:16135   */\n      revert\n        /* \"#utility.yul\":16147:16314   */\n    tag_126:\n        /* \"#utility.yul\":16287:16306   */\n      0x4d61746368206973207374696c6c206f6e000000000000000000000000000000\n        /* \"#utility.yul\":16283:16284   */\n      0x00\n        /* \"#utility.yul\":16275:16281   */\n      dup3\n        /* \"#utility.yul\":16271:16285   */\n      add\n        /* \"#utility.yul\":16264:16307   */\n      mstore\n        /* \"#utility.yul\":16147:16314   */\n      pop\n      jump\t// out\n        /* \"#utility.yul\":16320:16686   */\n    tag_127:\n        /* \"#utility.yul\":16462:16465   */\n      0x00\n        /* \"#utility.yul\":16483:16550   */\n      tag_305\n        /* \"#utility.yul\":16547:16549   */\n      0x11\n        /* \"#utility.yul\":16542:16545   */\n      dup4\n        /* \"#utility.yul\":16483:16550   */\n      tag_94\n      jump\t// in\n    tag_305:\n        /* \"#utility.yul\":16476:16550   */\n      swap2\n      pop\n        /* \"#utility.yul\":16559:16652   */\n      tag_306\n        /* \"#utility.yul\":16648:16651   */\n      dup3\n        /* \"#utility.yul\":16559:16652   */\n      tag_126\n      jump\t// in\n    tag_306:\n        /* \"#utility.yul\":16677:16679   */\n      0x20\n        /* \"#utility.yul\":16672:16675   */\n      dup3\n        /* \"#utility.yul\":16668:16680   */\n      add\n        /* \"#utility.yul\":16661:16680   */\n      swap1\n      pop\n        /* \"#utility.yul\":16320:16686   */\n      swap2\n      swap1\n      pop\n      jump\t// out\n        /* \"#utility.yul\":16692:17111   */\n    tag_72:\n        /* \"#utility.yul\":16858:16862   */\n      0x00\n        /* \"#utility.yul\":16896:16898   */\n      0x20\n        /* \"#utility.yul\":16885:16894   */\n      dup3\n        /* \"#utility.yul\":16881:16899   */\n      add\n        /* \"#utility.yul\":16873:16899   */\n      swap1\n      pop\n        /* \"#utility.yul\":16945:16954   */\n      dup2\n        /* \"#utility.yul\":16939:16943   */\n      dup2\n        /* \"#utility.yul\":16935:16955   */\n      sub\n        /* \"#utility.yul\":16931:16932   */\n      0x00\n        /* \"#utility.yul\":16920:16929   */\n      dup4\n        /* \"#utility.yul\":16916:16933   */\n      add\n        /* \"#utility.yul\":16909:16956   */\n      mstore\n        /* \"#utility.yul\":16973:17104   */\n      tag_308\n        /* \"#utility.yul\":17099:17103   */\n      dup2\n        /* \"#utility.yul\":16973:17104   */\n      tag_127\n      jump\t// in\n    tag_308:\n        /* \"#utility.yul\":16965:17104   */\n      swap1\n      pop\n        /* \"#utility.yul\":16692:17111   */\n      swap2\n      swap1\n      pop\n      jump\t// out\n\n    auxdata: 0xa2646970667358221220f379c76f5422adbd4a1eb506bdf99ffed1229df27da87dec4ed3e9ca81f9d17964736f6c63430008110033\n}\n",
				"bytecode": {
					"linkReferences": {},
					"object": "608060405234801561001057600080fd5b50336000806101000a81548173ffffffffffffffffffffffffffffffffffffffff021916908373ffffffffffffffffffffffffffffffffffffffff16021790555061104d806100606000396000f3fe608060405234801561001057600080fd5b50600436106100625760003560e01c806315a3ae711461006757806367ad4ec214610099578063b2edb39f146100ca578063bc9e6e2c146100fe578063ec7361a81461012e578063f851a4401461014a575b600080fd5b610081600480360381019061007c9190610726565b610168565b6040516100909392919061081a565b60405180910390f35b6100b360048036038101906100ae919061087d565b6101bf565b6040516100c19291906108aa565b60405180910390f35b6100e460048036038101906100df9190610726565b6101f0565b6040516100f59594939291906109a1565b60405180910390f35b61011860048036038101906101139190610a67565b610364565b6040516101259190610b17565b60405180910390f35b61014860048036038101906101439190610b32565b61056a565b005b6101526106c2565b60405161015f9190610b85565b60405180910390f35b60026020528060005260406000206000915090508060000160009054906101000a900473ffffffffffffffffffffffffffffffffffffffff16908060010154908060020160009054906101000a900460ff16905083565b60016020528060005260406000206000915090508060000160009054906101000a900460ff16908060010154905082565b6003818154811061020057600080fd5b906000526020600020906006020160009150905080600001805461022390610bcf565b80601f016020809104026020016040519081016040528092919081815260200182805461024f90610bcf565b801561029c5780601f106102715761010080835404028352916020019161029c565b820191906000526020600020905b81548152906001019060200180831161027f57829003601f168201915b5050505050908060010180546102b190610bcf565b80601f01602080910402602001604051908101604052809291908181526020018280546102dd90610bcf565b801561032a5780601f106102ff5761010080835404028352916020019161032a565b820191906000526020600020905b81548152906001019060200180831161030d57829003601f168201915b5050505050908060020154908060030154908060040160405180604001604052908160008201548152602001600182015481525050905085565b60003373ffffffffffffffffffffffffffffffffffffffff1660008054906101000a900473ffffffffffffffffffffffffffffffffffffffff1673ffffffffffffffffffffffffffffffffffffffff16146103f4576040517f08c379a00000000000000000000000000000000000000000000000000000000081526004016103eb90610c4c565b60405180910390fd5b6000605f836104039190610c9b565b905060006040518060400160405280600081526020016000815250905060036040518060a001604052808a8a8080601f016020809104026020016040519081016040528093929190818152602001838380828437600081840152601f19601f82011690508083019250505050505050815260200188888080601f016020809104026020016040519081016040528093929190818152602001838380828437600081840152601f19601f820116905080830192505050505050508152602001868152602001848152602001838152509080600181540180825580915050600190039060005260206000209060060201600090919091909150600082015181600001908161050f9190610eaa565b5060208201518160010190816105259190610eaa565b50604082015181600201556060820151816003015560808201518160040160008201518160000155602082015181600101555050505060019250505095945050505050565b3373ffffffffffffffffffffffffffffffffffffffff1660008054906101000a900473ffffffffffffffffffffffffffffffffffffffff1673ffffffffffffffffffffffffffffffffffffffff16146105f8576040517f08c379a00000000000000000000000000000000000000000000000000000000081526004016105ef90610c4c565b60405180910390fd5b60004290506003848154811061061157610610610f7c565b5b906000526020600020906006020160030154811015610665576040517f08c379a000000000000000000000000000000000000000000000000000000000815260040161065c90610ff7565b60405180910390fd5b60006040518060400160405280858152602001848152509050806003868154811061069357610692610f7c565b5b906000526020600020906006020160040160008201518160000155602082015181600101559050505050505050565b60008054906101000a900473ffffffffffffffffffffffffffffffffffffffff1681565b600080fd5b600080fd5b6000819050919050565b610703816106f0565b811461070e57600080fd5b50565b600081359050610720816106fa565b92915050565b60006020828403121561073c5761073b6106e6565b5b600061074a84828501610711565b91505092915050565b600073ffffffffffffffffffffffffffffffffffffffff82169050919050565b600061077e82610753565b9050919050565b61078e81610773565b82525050565b61079d816106f0565b82525050565b7f4e487b7100000000000000000000000000000000000000000000000000000000600052602160045260246000fd5b600481106107e3576107e26107a3565b5b50565b60008190506107f4826107d2565b919050565b6000610804826107e6565b9050919050565b610814816107f9565b82525050565b600060608201905061082f6000830186610785565b61083c6020830185610794565b610849604083018461080b565b949350505050565b61085a81610773565b811461086557600080fd5b50565b60008135905061087781610851565b92915050565b600060208284031215610893576108926106e6565b5b60006108a184828501610868565b91505092915050565b60006040820190506108bf600083018561080b565b6108cc6020830184610794565b9392505050565b600081519050919050565b600082825260208201905092915050565b60005b8381101561090d5780820151818401526020810190506108f2565b60008484015250505050565b6000601f19601f8301169050919050565b6000610935826108d3565b61093f81856108de565b935061094f8185602086016108ef565b61095881610919565b840191505092915050565b61096c816106f0565b82525050565b6040820160008201516109886000850182610963565b50602082015161099b6020850182610963565b50505050565b600060c08201905081810360008301526109bb818861092a565b905081810360208301526109cf818761092a565b90506109de6040830186610794565b6109eb6060830185610794565b6109f86080830184610972565b9695505050505050565b600080fd5b600080fd5b600080fd5b60008083601f840112610a2757610a26610a02565b5b8235905067ffffffffffffffff811115610a4457610a43610a07565b5b602083019150836001820283011115610a6057610a5f610a0c565b5b9250929050565b600080600080600060608688031215610a8357610a826106e6565b5b600086013567ffffffffffffffff811115610aa157610aa06106eb565b5b610aad88828901610a11565b9550955050602086013567ffffffffffffffff811115610ad057610acf6106eb565b5b610adc88828901610a11565b93509350506040610aef88828901610711565b9150509295509295909350565b60008115159050919050565b610b1181610afc565b82525050565b6000602082019050610b2c6000830184610b08565b92915050565b600080600060608486031215610b4b57610b4a6106e6565b5b6000610b5986828701610711565b9350506020610b6a86828701610711565b9250506040610b7b86828701610711565b9150509250925092565b6000602082019050610b9a6000830184610785565b92915050565b7f4e487b7100000000000000000000000000000000000000000000000000000000600052602260045260246000fd5b60006002820490506001821680610be757607f821691505b602082108103610bfa57610bf9610ba0565b5b50919050565b7f4e6f74204f776e65720000000000000000000000000000000000000000000000600082015250565b6000610c366009836108de565b9150610c4182610c00565b602082019050919050565b60006020820190508181036000830152610c6581610c29565b9050919050565b7f4e487b7100000000000000000000000000000000000000000000000000000000600052601160045260246000fd5b6000610ca6826106f0565b9150610cb1836106f0565b9250828201905080821115610cc957610cc8610c6c565b5b92915050565b7f4e487b7100000000000000000000000000000000000000000000000000000000600052604160045260246000fd5b60008190508160005260206000209050919050565b60006020601f8301049050919050565b600082821b905092915050565b600060088302610d607fffffffffffffffffffffffffffffffffffffffffffffffffffffffffffffffff82610d23565b610d6a8683610d23565b95508019841693508086168417925050509392505050565b6000819050919050565b6000610da7610da2610d9d846106f0565b610d82565b6106f0565b9050919050565b6000819050919050565b610dc183610d8c565b610dd5610dcd82610dae565b848454610d30565b825550505050565b600090565b610dea610ddd565b610df5818484610db8565b505050565b5b81811015610e1957610e0e600082610de2565b600181019050610dfb565b5050565b601f821115610e5e57610e2f81610cfe565b610e3884610d13565b81016020851015610e47578190505b610e5b610e5385610d13565b830182610dfa565b50505b505050565b600082821c905092915050565b6000610e8160001984600802610e63565b1980831691505092915050565b6000610e9a8383610e70565b9150826002028217905092915050565b610eb3826108d3565b67ffffffffffffffff811115610ecc57610ecb610ccf565b5b610ed68254610bcf565b610ee1828285610e1d565b600060209050601f831160018114610f145760008415610f02578287015190505b610f0c8582610e8e565b865550610f74565b601f198416610f2286610cfe565b60005b82811015610f4a57848901518255600182019150602085019450602081019050610f25565b86831015610f675784890151610f63601f891682610e70565b8355505b6001600288020188555050505b505050505050565b7f4e487b7100000000000000000000000000000000000000000000000000000000600052603260045260246000fd5b7f4d61746368206973207374696c6c206f6e000000000000000000000000000000600082015250565b6000610fe16011836108de565b9150610fec82610fab565b602082019050919050565b6000602082019050818103600083015261101081610fd4565b905091905056fea2646970667358221220f379c76f5422adbd4a1eb506bdf99ffed1229df27da87dec4ed3e9ca81f9d17964736f6c63430008110033",
					"opcodes": "PUSH1 0x80 PUSH1 0x40 MSTORE CALLVALUE DUP1 ISZERO PUSH2 0x10 JUMPI PUSH1 0x0 DUP1 REVERT JUMPDEST POP CALLER PUSH1 0x0 DUP1 PUSH2 0x100 EXP DUP2 SLOAD DUP2 PUSH20 0xFFFFFFFFFFFFFFFFFFFFFFFFFFFFFFFFFFFFFFFF MUL NOT AND SWAP1 DUP4 PUSH20 0xFFFFFFFFFFFFFFFFFFFFFFFFFFFFFFFFFFFFFFFF AND MUL OR SWAP1 SSTORE POP PUSH2 0x104D DUP1 PUSH2 0x60 PUSH1 0x0 CODECOPY PUSH1 0x0 RETURN INVALID PUSH1 0x80 PUSH1 0x40 MSTORE CALLVALUE DUP1 ISZERO PUSH2 0x10 JUMPI PUSH1 0x0 DUP1 REVERT JUMPDEST POP PUSH1 0x4 CALLDATASIZE LT PUSH2 0x62 JUMPI PUSH1 0x0 CALLDATALOAD PUSH1 0xE0 SHR DUP1 PUSH4 0x15A3AE71 EQ PUSH2 0x67 JUMPI DUP1 PUSH4 0x67AD4EC2 EQ PUSH2 0x99 JUMPI DUP1 PUSH4 0xB2EDB39F EQ PUSH2 0xCA JUMPI DUP1 PUSH4 0xBC9E6E2C EQ PUSH2 0xFE JUMPI DUP1 PUSH4 0xEC7361A8 EQ PUSH2 0x12E JUMPI DUP1 PUSH4 0xF851A440 EQ PUSH2 0x14A JUMPI JUMPDEST PUSH1 0x0 DUP1 REVERT JUMPDEST PUSH2 0x81 PUSH1 0x4 DUP1 CALLDATASIZE SUB DUP2 ADD SWAP1 PUSH2 0x7C SWAP2 SWAP1 PUSH2 0x726 JUMP JUMPDEST PUSH2 0x168 JUMP JUMPDEST PUSH1 0x40 MLOAD PUSH2 0x90 SWAP4 SWAP3 SWAP2 SWAP1 PUSH2 0x81A JUMP JUMPDEST PUSH1 0x40 MLOAD DUP1 SWAP2 SUB SWAP1 RETURN JUMPDEST PUSH2 0xB3 PUSH1 0x4 DUP1 CALLDATASIZE SUB DUP2 ADD SWAP1 PUSH2 0xAE SWAP2 SWAP1 PUSH2 0x87D JUMP JUMPDEST PUSH2 0x1BF JUMP JUMPDEST PUSH1 0x40 MLOAD PUSH2 0xC1 SWAP3 SWAP2 SWAP1 PUSH2 0x8AA JUMP JUMPDEST PUSH1 0x40 MLOAD DUP1 SWAP2 SUB SWAP1 RETURN JUMPDEST PUSH2 0xE4 PUSH1 0x4 DUP1 CALLDATASIZE SUB DUP2 ADD SWAP1 PUSH2 0xDF SWAP2 SWAP1 PUSH2 0x726 JUMP JUMPDEST PUSH2 0x1F0 JUMP JUMPDEST PUSH1 0x40 MLOAD PUSH2 0xF5 SWAP6 SWAP5 SWAP4 SWAP3 SWAP2 SWAP1 PUSH2 0x9A1 JUMP JUMPDEST PUSH1 0x40 MLOAD DUP1 SWAP2 SUB SWAP1 RETURN JUMPDEST PUSH2 0x118 PUSH1 0x4 DUP1 CALLDATASIZE SUB DUP2 ADD SWAP1 PUSH2 0x113 SWAP2 SWAP1 PUSH2 0xA67 JUMP JUMPDEST PUSH2 0x364 JUMP JUMPDEST PUSH1 0x40 MLOAD PUSH2 0x125 SWAP2 SWAP1 PUSH2 0xB17 JUMP JUMPDEST PUSH1 0x40 MLOAD DUP1 SWAP2 SUB SWAP1 RETURN JUMPDEST PUSH2 0x148 PUSH1 0x4 DUP1 CALLDATASIZE SUB DUP2 ADD SWAP1 PUSH2 0x143 SWAP2 SWAP1 PUSH2 0xB32 JUMP JUMPDEST PUSH2 0x56A JUMP JUMPDEST STOP JUMPDEST PUSH2 0x152 PUSH2 0x6C2 JUMP JUMPDEST PUSH1 0x40 MLOAD PUSH2 0x15F SWAP2 SWAP1 PUSH2 0xB85 JUMP JUMPDEST PUSH1 0x40 MLOAD DUP1 SWAP2 SUB SWAP1 RETURN JUMPDEST PUSH1 0x2 PUSH1 0x20 MSTORE DUP1 PUSH1 0x0 MSTORE PUSH1 0x40 PUSH1 0x0 KECCAK256 PUSH1 0x0 SWAP2 POP SWAP1 POP DUP1 PUSH1 0x0 ADD PUSH1 0x0 SWAP1 SLOAD SWAP1 PUSH2 0x100 EXP SWAP1 DIV PUSH20 0xFFFFFFFFFFFFFFFFFFFFFFFFFFFFFFFFFFFFFFFF AND SWAP1 DUP1 PUSH1 0x1 ADD SLOAD SWAP1 DUP1 PUSH1 0x2 ADD PUSH1 0x0 SWAP1 SLOAD SWAP1 PUSH2 0x100 EXP SWAP1 DIV PUSH1 0xFF AND SWAP1 POP DUP4 JUMP JUMPDEST PUSH1 0x1 PUSH1 0x20 MSTORE DUP1 PUSH1 0x0 MSTORE PUSH1 0x40 PUSH1 0x0 KECCAK256 PUSH1 0x0 SWAP2 POP SWAP1 POP DUP1 PUSH1 0x0 ADD PUSH1 0x0 SWAP1 SLOAD SWAP1 PUSH2 0x100 EXP SWAP1 DIV PUSH1 0xFF AND SWAP1 DUP1 PUSH1 0x1 ADD SLOAD SWAP1 POP DUP3 JUMP JUMPDEST PUSH1 0x3 DUP2 DUP2 SLOAD DUP2 LT PUSH2 0x200 JUMPI PUSH1 0x0 DUP1 REVERT JUMPDEST SWAP1 PUSH1 0x0 MSTORE PUSH1 0x20 PUSH1 0x0 KECCAK256 SWAP1 PUSH1 0x6 MUL ADD PUSH1 0x0 SWAP2 POP SWAP1 POP DUP1 PUSH1 0x0 ADD DUP1 SLOAD PUSH2 0x223 SWAP1 PUSH2 0xBCF JUMP JUMPDEST DUP1 PUSH1 0x1F ADD PUSH1 0x20 DUP1 SWAP2 DIV MUL PUSH1 0x20 ADD PUSH1 0x40 MLOAD SWAP1 DUP2 ADD PUSH1 0x40 MSTORE DUP1 SWAP3 SWAP2 SWAP1 DUP2 DUP2 MSTORE PUSH1 0x20 ADD DUP3 DUP1 SLOAD PUSH2 0x24F SWAP1 PUSH2 0xBCF JUMP JUMPDEST DUP1 ISZERO PUSH2 0x29C JUMPI DUP1 PUSH1 0x1F LT PUSH2 0x271 JUMPI PUSH2 0x100 DUP1 DUP4 SLOAD DIV MUL DUP4 MSTORE SWAP2 PUSH1 0x20 ADD SWAP2 PUSH2 0x29C JUMP JUMPDEST DUP3 ADD SWAP2 SWAP1 PUSH1 0x0 MSTORE PUSH1 0x20 PUSH1 0x0 KECCAK256 SWAP1 JUMPDEST DUP2 SLOAD DUP2 MSTORE SWAP1 PUSH1 0x1 ADD SWAP1 PUSH1 0x20 ADD DUP1 DUP4 GT PUSH2 0x27F JUMPI DUP3 SWAP1 SUB PUSH1 0x1F AND DUP3 ADD SWAP2 JUMPDEST POP POP POP POP POP SWAP1 DUP1 PUSH1 0x1 ADD DUP1 SLOAD PUSH2 0x2B1 SWAP1 PUSH2 0xBCF JUMP JUMPDEST DUP1 PUSH1 0x1F ADD PUSH1 0x20 DUP1 SWAP2 DIV MUL PUSH1 0x20 ADD PUSH1 0x40 MLOAD SWAP1 DUP2 ADD PUSH1 0x40 MSTORE DUP1 SWAP3 SWAP2 SWAP1 DUP2 DUP2 MSTORE PUSH1 0x20 ADD DUP3 DUP1 SLOAD PUSH2 0x2DD SWAP1 PUSH2 0xBCF JUMP JUMPDEST DUP1 ISZERO PUSH2 0x32A JUMPI DUP1 PUSH1 0x1F LT PUSH2 0x2FF JUMPI PUSH2 0x100 DUP1 DUP4 SLOAD DIV MUL DUP4 MSTORE SWAP2 PUSH1 0x20 ADD SWAP2 PUSH2 0x32A JUMP JUMPDEST DUP3 ADD SWAP2 SWAP1 PUSH1 0x0 MSTORE PUSH1 0x20 PUSH1 0x0 KECCAK256 SWAP1 JUMPDEST DUP2 SLOAD DUP2 MSTORE SWAP1 PUSH1 0x1 ADD SWAP1 PUSH1 0x20 ADD DUP1 DUP4 GT PUSH2 0x30D JUMPI DUP3 SWAP1 SUB PUSH1 0x1F AND DUP3 ADD SWAP2 JUMPDEST POP POP POP POP POP SWAP1 DUP1 PUSH1 0x2 ADD SLOAD SWAP1 DUP1 PUSH1 0x3 ADD SLOAD SWAP1 DUP1 PUSH1 0x4 ADD PUSH1 0x40 MLOAD DUP1 PUSH1 0x40 ADD PUSH1 0x40 MSTORE SWAP1 DUP2 PUSH1 0x0 DUP3 ADD SLOAD DUP2 MSTORE PUSH1 0x20 ADD PUSH1 0x1 DUP3 ADD SLOAD DUP2 MSTORE POP POP SWAP1 POP DUP6 JUMP JUMPDEST PUSH1 0x0 CALLER PUSH20 0xFFFFFFFFFFFFFFFFFFFFFFFFFFFFFFFFFFFFFFFF AND PUSH1 0x0 DUP1 SLOAD SWAP1 PUSH2 0x100 EXP SWAP1 DIV PUSH20 0xFFFFFFFFFFFFFFFFFFFFFFFFFFFFFFFFFFFFFFFF AND PUSH20 0xFFFFFFFFFFFFFFFFFFFFFFFFFFFFFFFFFFFFFFFF AND EQ PUSH2 0x3F4 JUMPI PUSH1 0x40 MLOAD PUSH32 0x8C379A000000000000000000000000000000000000000000000000000000000 DUP2 MSTORE PUSH1 0x4 ADD PUSH2 0x3EB SWAP1 PUSH2 0xC4C JUMP JUMPDEST PUSH1 0x40 MLOAD DUP1 SWAP2 SUB SWAP1 REVERT JUMPDEST PUSH1 0x0 PUSH1 0x5F DUP4 PUSH2 0x403 SWAP2 SWAP1 PUSH2 0xC9B JUMP JUMPDEST SWAP1 POP PUSH1 0x0 PUSH1 0x40 MLOAD DUP1 PUSH1 0x40 ADD PUSH1 0x40 MSTORE DUP1 PUSH1 0x0 DUP2 MSTORE PUSH1 0x20 ADD PUSH1 0x0 DUP2 MSTORE POP SWAP1 POP PUSH1 0x3 PUSH1 0x40 MLOAD DUP1 PUSH1 0xA0 ADD PUSH1 0x40 MSTORE DUP1 DUP11 DUP11 DUP1 DUP1 PUSH1 0x1F ADD PUSH1 0x20 DUP1 SWAP2 DIV MUL PUSH1 0x20 ADD PUSH1 0x40 MLOAD SWAP1 DUP2 ADD PUSH1 0x40 MSTORE DUP1 SWAP4 SWAP3 SWAP2 SWAP1 DUP2 DUP2 MSTORE PUSH1 0x20 ADD DUP4 DUP4 DUP1 DUP3 DUP5 CALLDATACOPY PUSH1 0x0 DUP2 DUP5 ADD MSTORE PUSH1 0x1F NOT PUSH1 0x1F DUP3 ADD AND SWAP1 POP DUP1 DUP4 ADD SWAP3 POP POP POP POP POP POP POP DUP2 MSTORE PUSH1 0x20 ADD DUP9 DUP9 DUP1 DUP1 PUSH1 0x1F ADD PUSH1 0x20 DUP1 SWAP2 DIV MUL PUSH1 0x20 ADD PUSH1 0x40 MLOAD SWAP1 DUP2 ADD PUSH1 0x40 MSTORE DUP1 SWAP4 SWAP3 SWAP2 SWAP1 DUP2 DUP2 MSTORE PUSH1 0x20 ADD DUP4 DUP4 DUP1 DUP3 DUP5 CALLDATACOPY PUSH1 0x0 DUP2 DUP5 ADD MSTORE PUSH1 0x1F NOT PUSH1 0x1F DUP3 ADD AND SWAP1 POP DUP1 DUP4 ADD SWAP3 POP POP POP POP POP POP POP DUP2 MSTORE PUSH1 0x20 ADD DUP7 DUP2 MSTORE PUSH1 0x20 ADD DUP5 DUP2 MSTORE PUSH1 0x20 ADD DUP4 DUP2 MSTORE POP SWAP1 DUP1 PUSH1 0x1 DUP2 SLOAD ADD DUP1 DUP3 SSTORE DUP1 SWAP2 POP POP PUSH1 0x1 SWAP1 SUB SWAP1 PUSH1 0x0 MSTORE PUSH1 0x20 PUSH1 0x0 KECCAK256 SWAP1 PUSH1 0x6 MUL ADD PUSH1 0x0 SWAP1 SWAP2 SWAP1 SWAP2 SWAP1 SWAP2 POP PUSH1 0x0 DUP3 ADD MLOAD DUP2 PUSH1 0x0 ADD SWAP1 DUP2 PUSH2 0x50F SWAP2 SWAP1 PUSH2 0xEAA JUMP JUMPDEST POP PUSH1 0x20 DUP3 ADD MLOAD DUP2 PUSH1 0x1 ADD SWAP1 DUP2 PUSH2 0x525 SWAP2 SWAP1 PUSH2 0xEAA JUMP JUMPDEST POP PUSH1 0x40 DUP3 ADD MLOAD DUP2 PUSH1 0x2 ADD SSTORE PUSH1 0x60 DUP3 ADD MLOAD DUP2 PUSH1 0x3 ADD SSTORE PUSH1 0x80 DUP3 ADD MLOAD DUP2 PUSH1 0x4 ADD PUSH1 0x0 DUP3 ADD MLOAD DUP2 PUSH1 0x0 ADD SSTORE PUSH1 0x20 DUP3 ADD MLOAD DUP2 PUSH1 0x1 ADD SSTORE POP POP POP POP PUSH1 0x1 SWAP3 POP POP POP SWAP6 SWAP5 POP POP POP POP POP JUMP JUMPDEST CALLER PUSH20 0xFFFFFFFFFFFFFFFFFFFFFFFFFFFFFFFFFFFFFFFF AND PUSH1 0x0 DUP1 SLOAD SWAP1 PUSH2 0x100 EXP SWAP1 DIV PUSH20 0xFFFFFFFFFFFFFFFFFFFFFFFFFFFFFFFFFFFFFFFF AND PUSH20 0xFFFFFFFFFFFFFFFFFFFFFFFFFFFFFFFFFFFFFFFF AND EQ PUSH2 0x5F8 JUMPI PUSH1 0x40 MLOAD PUSH32 0x8C379A000000000000000000000000000000000000000000000000000000000 DUP2 MSTORE PUSH1 0x4 ADD PUSH2 0x5EF SWAP1 PUSH2 0xC4C JUMP JUMPDEST PUSH1 0x40 MLOAD DUP1 SWAP2 SUB SWAP1 REVERT JUMPDEST PUSH1 0x0 TIMESTAMP SWAP1 POP PUSH1 0x3 DUP5 DUP2 SLOAD DUP2 LT PUSH2 0x611 JUMPI PUSH2 0x610 PUSH2 0xF7C JUMP JUMPDEST JUMPDEST SWAP1 PUSH1 0x0 MSTORE PUSH1 0x20 PUSH1 0x0 KECCAK256 SWAP1 PUSH1 0x6 MUL ADD PUSH1 0x3 ADD SLOAD DUP2 LT ISZERO PUSH2 0x665 JUMPI PUSH1 0x40 MLOAD PUSH32 0x8C379A000000000000000000000000000000000000000000000000000000000 DUP2 MSTORE PUSH1 0x4 ADD PUSH2 0x65C SWAP1 PUSH2 0xFF7 JUMP JUMPDEST PUSH1 0x40 MLOAD DUP1 SWAP2 SUB SWAP1 REVERT JUMPDEST PUSH1 0x0 PUSH1 0x40 MLOAD DUP1 PUSH1 0x40 ADD PUSH1 0x40 MSTORE DUP1 DUP6 DUP2 MSTORE PUSH1 0x20 ADD DUP5 DUP2 MSTORE POP SWAP1 POP DUP1 PUSH1 0x3 DUP7 DUP2 SLOAD DUP2 LT PUSH2 0x693 JUMPI PUSH2 0x692 PUSH2 0xF7C JUMP JUMPDEST JUMPDEST SWAP1 PUSH1 0x0 MSTORE PUSH1 0x20 PUSH1 0x0 KECCAK256 SWAP1 PUSH1 0x6 MUL ADD PUSH1 0x4 ADD PUSH1 0x0 DUP3 ADD MLOAD DUP2 PUSH1 0x0 ADD SSTORE PUSH1 0x20 DUP3 ADD MLOAD DUP2 PUSH1 0x1 ADD SSTORE SWAP1 POP POP POP POP POP POP POP JUMP JUMPDEST PUSH1 0x0 DUP1 SLOAD SWAP1 PUSH2 0x100 EXP SWAP1 DIV PUSH20 0xFFFFFFFFFFFFFFFFFFFFFFFFFFFFFFFFFFFFFFFF AND DUP2 JUMP JUMPDEST PUSH1 0x0 DUP1 REVERT JUMPDEST PUSH1 0x0 DUP1 REVERT JUMPDEST PUSH1 0x0 DUP2 SWAP1 POP SWAP2 SWAP1 POP JUMP JUMPDEST PUSH2 0x703 DUP2 PUSH2 0x6F0 JUMP JUMPDEST DUP2 EQ PUSH2 0x70E JUMPI PUSH1 0x0 DUP1 REVERT JUMPDEST POP JUMP JUMPDEST PUSH1 0x0 DUP2 CALLDATALOAD SWAP1 POP PUSH2 0x720 DUP2 PUSH2 0x6FA JUMP JUMPDEST SWAP3 SWAP2 POP POP JUMP JUMPDEST PUSH1 0x0 PUSH1 0x20 DUP3 DUP5 SUB SLT ISZERO PUSH2 0x73C JUMPI PUSH2 0x73B PUSH2 0x6E6 JUMP JUMPDEST JUMPDEST PUSH1 0x0 PUSH2 0x74A DUP5 DUP3 DUP6 ADD PUSH2 0x711 JUMP JUMPDEST SWAP2 POP POP SWAP3 SWAP2 POP POP JUMP JUMPDEST PUSH1 0x0 PUSH20 0xFFFFFFFFFFFFFFFFFFFFFFFFFFFFFFFFFFFFFFFF DUP3 AND SWAP1 POP SWAP2 SWAP1 POP JUMP JUMPDEST PUSH1 0x0 PUSH2 0x77E DUP3 PUSH2 0x753 JUMP JUMPDEST SWAP1 POP SWAP2 SWAP1 POP JUMP JUMPDEST PUSH2 0x78E DUP2 PUSH2 0x773 JUMP JUMPDEST DUP3 MSTORE POP POP JUMP JUMPDEST PUSH2 0x79D DUP2 PUSH2 0x6F0 JUMP JUMPDEST DUP3 MSTORE POP POP JUMP JUMPDEST PUSH32 0x4E487B7100000000000000000000000000000000000000000000000000000000 PUSH1 0x0 MSTORE PUSH1 0x21 PUSH1 0x4 MSTORE PUSH1 0x24 PUSH1 0x0 REVERT JUMPDEST PUSH1 0x4 DUP2 LT PUSH2 0x7E3 JUMPI PUSH2 0x7E2 PUSH2 0x7A3 JUMP JUMPDEST JUMPDEST POP JUMP JUMPDEST PUSH1 0x0 DUP2 SWAP1 POP PUSH2 0x7F4 DUP3 PUSH2 0x7D2 JUMP JUMPDEST SWAP2 SWAP1 POP JUMP JUMPDEST PUSH1 0x0 PUSH2 0x804 DUP3 PUSH2 0x7E6 JUMP JUMPDEST SWAP1 POP SWAP2 SWAP1 POP JUMP JUMPDEST PUSH2 0x814 DUP2 PUSH2 0x7F9 JUMP JUMPDEST DUP3 MSTORE POP POP JUMP JUMPDEST PUSH1 0x0 PUSH1 0x60 DUP3 ADD SWAP1 POP PUSH2 0x82F PUSH1 0x0 DUP4 ADD DUP7 PUSH2 0x785 JUMP JUMPDEST PUSH2 0x83C PUSH1 0x20 DUP4 ADD DUP6 PUSH2 0x794 JUMP JUMPDEST PUSH2 0x849 PUSH1 0x40 DUP4 ADD DUP5 PUSH2 0x80B JUMP JUMPDEST SWAP5 SWAP4 POP POP POP POP JUMP JUMPDEST PUSH2 0x85A DUP2 PUSH2 0x773 JUMP JUMPDEST DUP2 EQ PUSH2 0x865 JUMPI PUSH1 0x0 DUP1 REVERT JUMPDEST POP JUMP JUMPDEST PUSH1 0x0 DUP2 CALLDATALOAD SWAP1 POP PUSH2 0x877 DUP2 PUSH2 0x851 JUMP JUMPDEST SWAP3 SWAP2 POP POP JUMP JUMPDEST PUSH1 0x0 PUSH1 0x20 DUP3 DUP5 SUB SLT ISZERO PUSH2 0x893 JUMPI PUSH2 0x892 PUSH2 0x6E6 JUMP JUMPDEST JUMPDEST PUSH1 0x0 PUSH2 0x8A1 DUP5 DUP3 DUP6 ADD PUSH2 0x868 JUMP JUMPDEST SWAP2 POP POP SWAP3 SWAP2 POP POP JUMP JUMPDEST PUSH1 0x0 PUSH1 0x40 DUP3 ADD SWAP1 POP PUSH2 0x8BF PUSH1 0x0 DUP4 ADD DUP6 PUSH2 0x80B JUMP JUMPDEST PUSH2 0x8CC PUSH1 0x20 DUP4 ADD DUP5 PUSH2 0x794 JUMP JUMPDEST SWAP4 SWAP3 POP POP POP JUMP JUMPDEST PUSH1 0x0 DUP2 MLOAD SWAP1 POP SWAP2 SWAP1 POP JUMP JUMPDEST PUSH1 0x0 DUP3 DUP3 MSTORE PUSH1 0x20 DUP3 ADD SWAP1 POP SWAP3 SWAP2 POP POP JUMP JUMPDEST PUSH1 0x0 JUMPDEST DUP4 DUP2 LT ISZERO PUSH2 0x90D JUMPI DUP1 DUP3 ADD MLOAD DUP2 DUP5 ADD MSTORE PUSH1 0x20 DUP2 ADD SWAP1 POP PUSH2 0x8F2 JUMP JUMPDEST PUSH1 0x0 DUP5 DUP5 ADD MSTORE POP POP POP POP JUMP JUMPDEST PUSH1 0x0 PUSH1 0x1F NOT PUSH1 0x1F DUP4 ADD AND SWAP1 POP SWAP2 SWAP1 POP JUMP JUMPDEST PUSH1 0x0 PUSH2 0x935 DUP3 PUSH2 0x8D3 JUMP JUMPDEST PUSH2 0x93F DUP2 DUP6 PUSH2 0x8DE JUMP JUMPDEST SWAP4 POP PUSH2 0x94F DUP2 DUP6 PUSH1 0x20 DUP7 ADD PUSH2 0x8EF JUMP JUMPDEST PUSH2 0x958 DUP2 PUSH2 0x919 JUMP JUMPDEST DUP5 ADD SWAP2 POP POP SWAP3 SWAP2 POP POP JUMP JUMPDEST PUSH2 0x96C DUP2 PUSH2 0x6F0 JUMP JUMPDEST DUP3 MSTORE POP POP JUMP JUMPDEST PUSH1 0x40 DUP3 ADD PUSH1 0x0 DUP3 ADD MLOAD PUSH2 0x988 PUSH1 0x0 DUP6 ADD DUP3 PUSH2 0x963 JUMP JUMPDEST POP PUSH1 0x20 DUP3 ADD MLOAD PUSH2 0x99B PUSH1 0x20 DUP6 ADD DUP3 PUSH2 0x963 JUMP JUMPDEST POP POP POP POP JUMP JUMPDEST PUSH1 0x0 PUSH1 0xC0 DUP3 ADD SWAP1 POP DUP2 DUP2 SUB PUSH1 0x0 DUP4 ADD MSTORE PUSH2 0x9BB DUP2 DUP9 PUSH2 0x92A JUMP JUMPDEST SWAP1 POP DUP2 DUP2 SUB PUSH1 0x20 DUP4 ADD MSTORE PUSH2 0x9CF DUP2 DUP8 PUSH2 0x92A JUMP JUMPDEST SWAP1 POP PUSH2 0x9DE PUSH1 0x40 DUP4 ADD DUP7 PUSH2 0x794 JUMP JUMPDEST PUSH2 0x9EB PUSH1 0x60 DUP4 ADD DUP6 PUSH2 0x794 JUMP JUMPDEST PUSH2 0x9F8 PUSH1 0x80 DUP4 ADD DUP5 PUSH2 0x972 JUMP JUMPDEST SWAP7 SWAP6 POP POP POP POP POP POP JUMP JUMPDEST PUSH1 0x0 DUP1 REVERT JUMPDEST PUSH1 0x0 DUP1 REVERT JUMPDEST PUSH1 0x0 DUP1 REVERT JUMPDEST PUSH1 0x0 DUP1 DUP4 PUSH1 0x1F DUP5 ADD SLT PUSH2 0xA27 JUMPI PUSH2 0xA26 PUSH2 0xA02 JUMP JUMPDEST JUMPDEST DUP3 CALLDATALOAD SWAP1 POP PUSH8 0xFFFFFFFFFFFFFFFF DUP2 GT ISZERO PUSH2 0xA44 JUMPI PUSH2 0xA43 PUSH2 0xA07 JUMP JUMPDEST JUMPDEST PUSH1 0x20 DUP4 ADD SWAP2 POP DUP4 PUSH1 0x1 DUP3 MUL DUP4 ADD GT ISZERO PUSH2 0xA60 JUMPI PUSH2 0xA5F PUSH2 0xA0C JUMP JUMPDEST JUMPDEST SWAP3 POP SWAP3 SWAP1 POP JUMP JUMPDEST PUSH1 0x0 DUP1 PUSH1 0x0 DUP1 PUSH1 0x0 PUSH1 0x60 DUP7 DUP9 SUB SLT ISZERO PUSH2 0xA83 JUMPI PUSH2 0xA82 PUSH2 0x6E6 JUMP JUMPDEST JUMPDEST PUSH1 0x0 DUP7 ADD CALLDATALOAD PUSH8 0xFFFFFFFFFFFFFFFF DUP2 GT ISZERO PUSH2 0xAA1 JUMPI PUSH2 0xAA0 PUSH2 0x6EB JUMP JUMPDEST JUMPDEST PUSH2 0xAAD DUP9 DUP3 DUP10 ADD PUSH2 0xA11 JUMP JUMPDEST SWAP6 POP SWAP6 POP POP PUSH1 0x20 DUP7 ADD CALLDATALOAD PUSH8 0xFFFFFFFFFFFFFFFF DUP2 GT ISZERO PUSH2 0xAD0 JUMPI PUSH2 0xACF PUSH2 0x6EB JUMP JUMPDEST JUMPDEST PUSH2 0xADC DUP9 DUP3 DUP10 ADD PUSH2 0xA11 JUMP JUMPDEST SWAP4 POP SWAP4 POP POP PUSH1 0x40 PUSH2 0xAEF DUP9 DUP3 DUP10 ADD PUSH2 0x711 JUMP JUMPDEST SWAP2 POP POP SWAP3 SWAP6 POP SWAP3 SWAP6 SWAP1 SWAP4 POP JUMP JUMPDEST PUSH1 0x0 DUP2 ISZERO ISZERO SWAP1 POP SWAP2 SWAP1 POP JUMP JUMPDEST PUSH2 0xB11 DUP2 PUSH2 0xAFC JUMP JUMPDEST DUP3 MSTORE POP POP JUMP JUMPDEST PUSH1 0x0 PUSH1 0x20 DUP3 ADD SWAP1 POP PUSH2 0xB2C PUSH1 0x0 DUP4 ADD DUP5 PUSH2 0xB08 JUMP JUMPDEST SWAP3 SWAP2 POP POP JUMP JUMPDEST PUSH1 0x0 DUP1 PUSH1 0x0 PUSH1 0x60 DUP5 DUP7 SUB SLT ISZERO PUSH2 0xB4B JUMPI PUSH2 0xB4A PUSH2 0x6E6 JUMP JUMPDEST JUMPDEST PUSH1 0x0 PUSH2 0xB59 DUP7 DUP3 DUP8 ADD PUSH2 0x711 JUMP JUMPDEST SWAP4 POP POP PUSH1 0x20 PUSH2 0xB6A DUP7 DUP3 DUP8 ADD PUSH2 0x711 JUMP JUMPDEST SWAP3 POP POP PUSH1 0x40 PUSH2 0xB7B DUP7 DUP3 DUP8 ADD PUSH2 0x711 JUMP JUMPDEST SWAP2 POP POP SWAP3 POP SWAP3 POP SWAP3 JUMP JUMPDEST PUSH1 0x0 PUSH1 0x20 DUP3 ADD SWAP1 POP PUSH2 0xB9A PUSH1 0x0 DUP4 ADD DUP5 PUSH2 0x785 JUMP JUMPDEST SWAP3 SWAP2 POP POP JUMP JUMPDEST PUSH32 0x4E487B7100000000000000000000000000000000000000000000000000000000 PUSH1 0x0 MSTORE PUSH1 0x22 PUSH1 0x4 MSTORE PUSH1 0x24 PUSH1 0x0 REVERT JUMPDEST PUSH1 0x0 PUSH1 0x2 DUP3 DIV SWAP1 POP PUSH1 0x1 DUP3 AND DUP1 PUSH2 0xBE7 JUMPI PUSH1 0x7F DUP3 AND SWAP2 POP JUMPDEST PUSH1 0x20 DUP3 LT DUP2 SUB PUSH2 0xBFA JUMPI PUSH2 0xBF9 PUSH2 0xBA0 JUMP JUMPDEST JUMPDEST POP SWAP2 SWAP1 POP JUMP JUMPDEST PUSH32 0x4E6F74204F776E65720000000000000000000000000000000000000000000000 PUSH1 0x0 DUP3 ADD MSTORE POP JUMP JUMPDEST PUSH1 0x0 PUSH2 0xC36 PUSH1 0x9 DUP4 PUSH2 0x8DE JUMP JUMPDEST SWAP2 POP PUSH2 0xC41 DUP3 PUSH2 0xC00 JUMP JUMPDEST PUSH1 0x20 DUP3 ADD SWAP1 POP SWAP2 SWAP1 POP JUMP JUMPDEST PUSH1 0x0 PUSH1 0x20 DUP3 ADD SWAP1 POP DUP2 DUP2 SUB PUSH1 0x0 DUP4 ADD MSTORE PUSH2 0xC65 DUP2 PUSH2 0xC29 JUMP JUMPDEST SWAP1 POP SWAP2 SWAP1 POP JUMP JUMPDEST PUSH32 0x4E487B7100000000000000000000000000000000000000000000000000000000 PUSH1 0x0 MSTORE PUSH1 0x11 PUSH1 0x4 MSTORE PUSH1 0x24 PUSH1 0x0 REVERT JUMPDEST PUSH1 0x0 PUSH2 0xCA6 DUP3 PUSH2 0x6F0 JUMP JUMPDEST SWAP2 POP PUSH2 0xCB1 DUP4 PUSH2 0x6F0 JUMP JUMPDEST SWAP3 POP DUP3 DUP3 ADD SWAP1 POP DUP1 DUP3 GT ISZERO PUSH2 0xCC9 JUMPI PUSH2 0xCC8 PUSH2 0xC6C JUMP JUMPDEST JUMPDEST SWAP3 SWAP2 POP POP JUMP JUMPDEST PUSH32 0x4E487B7100000000000000000000000000000000000000000000000000000000 PUSH1 0x0 MSTORE PUSH1 0x41 PUSH1 0x4 MSTORE PUSH1 0x24 PUSH1 0x0 REVERT JUMPDEST PUSH1 0x0 DUP2 SWAP1 POP DUP2 PUSH1 0x0 MSTORE PUSH1 0x20 PUSH1 0x0 KECCAK256 SWAP1 POP SWAP2 SWAP1 POP JUMP JUMPDEST PUSH1 0x0 PUSH1 0x20 PUSH1 0x1F DUP4 ADD DIV SWAP1 POP SWAP2 SWAP1 POP JUMP JUMPDEST PUSH1 0x0 DUP3 DUP3 SHL SWAP1 POP SWAP3 SWAP2 POP POP JUMP JUMPDEST PUSH1 0x0 PUSH1 0x8 DUP4 MUL PUSH2 0xD60 PUSH32 0xFFFFFFFFFFFFFFFFFFFFFFFFFFFFFFFFFFFFFFFFFFFFFFFFFFFFFFFFFFFFFFFF DUP3 PUSH2 0xD23 JUMP JUMPDEST PUSH2 0xD6A DUP7 DUP4 PUSH2 0xD23 JUMP JUMPDEST SWAP6 POP DUP1 NOT DUP5 AND SWAP4 POP DUP1 DUP7 AND DUP5 OR SWAP3 POP POP POP SWAP4 SWAP3 POP POP POP JUMP JUMPDEST PUSH1 0x0 DUP2 SWAP1 POP SWAP2 SWAP1 POP JUMP JUMPDEST PUSH1 0x0 PUSH2 0xDA7 PUSH2 0xDA2 PUSH2 0xD9D DUP5 PUSH2 0x6F0 JUMP JUMPDEST PUSH2 0xD82 JUMP JUMPDEST PUSH2 0x6F0 JUMP JUMPDEST SWAP1 POP SWAP2 SWAP1 POP JUMP JUMPDEST PUSH1 0x0 DUP2 SWAP1 POP SWAP2 SWAP1 POP JUMP JUMPDEST PUSH2 0xDC1 DUP4 PUSH2 0xD8C JUMP JUMPDEST PUSH2 0xDD5 PUSH2 0xDCD DUP3 PUSH2 0xDAE JUMP JUMPDEST DUP5 DUP5 SLOAD PUSH2 0xD30 JUMP JUMPDEST DUP3 SSTORE POP POP POP POP JUMP JUMPDEST PUSH1 0x0 SWAP1 JUMP JUMPDEST PUSH2 0xDEA PUSH2 0xDDD JUMP JUMPDEST PUSH2 0xDF5 DUP2 DUP5 DUP5 PUSH2 0xDB8 JUMP JUMPDEST POP POP POP JUMP JUMPDEST JUMPDEST DUP2 DUP2 LT ISZERO PUSH2 0xE19 JUMPI PUSH2 0xE0E PUSH1 0x0 DUP3 PUSH2 0xDE2 JUMP JUMPDEST PUSH1 0x1 DUP2 ADD SWAP1 POP PUSH2 0xDFB JUMP JUMPDEST POP POP JUMP JUMPDEST PUSH1 0x1F DUP3 GT ISZERO PUSH2 0xE5E JUMPI PUSH2 0xE2F DUP2 PUSH2 0xCFE JUMP JUMPDEST PUSH2 0xE38 DUP5 PUSH2 0xD13 JUMP JUMPDEST DUP2 ADD PUSH1 0x20 DUP6 LT ISZERO PUSH2 0xE47 JUMPI DUP2 SWAP1 POP JUMPDEST PUSH2 0xE5B PUSH2 0xE53 DUP6 PUSH2 0xD13 JUMP JUMPDEST DUP4 ADD DUP3 PUSH2 0xDFA JUMP JUMPDEST POP POP JUMPDEST POP POP POP JUMP JUMPDEST PUSH1 0x0 DUP3 DUP3 SHR SWAP1 POP SWAP3 SWAP2 POP POP JUMP JUMPDEST PUSH1 0x0 PUSH2 0xE81 PUSH1 0x0 NOT DUP5 PUSH1 0x8 MUL PUSH2 0xE63 JUMP JUMPDEST NOT DUP1 DUP4 AND SWAP2 POP POP SWAP3 SWAP2 POP POP JUMP JUMPDEST PUSH1 0x0 PUSH2 0xE9A DUP4 DUP4 PUSH2 0xE70 JUMP JUMPDEST SWAP2 POP DUP3 PUSH1 0x2 MUL DUP3 OR SWAP1 POP SWAP3 SWAP2 POP POP JUMP JUMPDEST PUSH2 0xEB3 DUP3 PUSH2 0x8D3 JUMP JUMPDEST PUSH8 0xFFFFFFFFFFFFFFFF DUP2 GT ISZERO PUSH2 0xECC JUMPI PUSH2 0xECB PUSH2 0xCCF JUMP JUMPDEST JUMPDEST PUSH2 0xED6 DUP3 SLOAD PUSH2 0xBCF JUMP JUMPDEST PUSH2 0xEE1 DUP3 DUP3 DUP6 PUSH2 0xE1D JUMP JUMPDEST PUSH1 0x0 PUSH1 0x20 SWAP1 POP PUSH1 0x1F DUP4 GT PUSH1 0x1 DUP2 EQ PUSH2 0xF14 JUMPI PUSH1 0x0 DUP5 ISZERO PUSH2 0xF02 JUMPI DUP3 DUP8 ADD MLOAD SWAP1 POP JUMPDEST PUSH2 0xF0C DUP6 DUP3 PUSH2 0xE8E JUMP JUMPDEST DUP7 SSTORE POP PUSH2 0xF74 JUMP JUMPDEST PUSH1 0x1F NOT DUP5 AND PUSH2 0xF22 DUP7 PUSH2 0xCFE JUMP JUMPDEST PUSH1 0x0 JUMPDEST DUP3 DUP2 LT ISZERO PUSH2 0xF4A JUMPI DUP5 DUP10 ADD MLOAD DUP3 SSTORE PUSH1 0x1 DUP3 ADD SWAP2 POP PUSH1 0x20 DUP6 ADD SWAP5 POP PUSH1 0x20 DUP2 ADD SWAP1 POP PUSH2 0xF25 JUMP JUMPDEST DUP7 DUP4 LT ISZERO PUSH2 0xF67 JUMPI DUP5 DUP10 ADD MLOAD PUSH2 0xF63 PUSH1 0x1F DUP10 AND DUP3 PUSH2 0xE70 JUMP JUMPDEST DUP4 SSTORE POP JUMPDEST PUSH1 0x1 PUSH1 0x2 DUP9 MUL ADD DUP9 SSTORE POP POP POP JUMPDEST POP POP POP POP POP POP JUMP JUMPDEST PUSH32 0x4E487B7100000000000000000000000000000000000000000000000000000000 PUSH1 0x0 MSTORE PUSH1 0x32 PUSH1 0x4 MSTORE PUSH1 0x24 PUSH1 0x0 REVERT JUMPDEST PUSH32 0x4D61746368206973207374696C6C206F6E000000000000000000000000000000 PUSH1 0x0 DUP3 ADD MSTORE POP JUMP JUMPDEST PUSH1 0x0 PUSH2 0xFE1 PUSH1 0x11 DUP4 PUSH2 0x8DE JUMP JUMPDEST SWAP2 POP PUSH2 0xFEC DUP3 PUSH2 0xFAB JUMP JUMPDEST PUSH1 0x20 DUP3 ADD SWAP1 POP SWAP2 SWAP1 POP JUMP JUMPDEST PUSH1 0x0 PUSH1 0x20 DUP3 ADD SWAP1 POP DUP2 DUP2 SUB PUSH1 0x0 DUP4 ADD MSTORE PUSH2 0x1010 DUP2 PUSH2 0xFD4 JUMP JUMPDEST SWAP1 POP SWAP2 SWAP1 POP JUMP INVALID LOG2 PUSH5 0x6970667358 0x22 SLT KECCAK256 RETURN PUSH26 0xC76F5422ADBD4A1EB506BDF99FFED1229DF27DA87DEC4ED3E9CA DUP2 0xF9 0xD1 PUSH26 0x64736F6C63430008110033000000000000000000000000000000 "
				},
				"gasEstimates": {
					"creation": {
						"codeDepositCost": "834600",
						"executionCost": "25136",
						"totalCost": "859736"
					},
					"external": {
						"admin()": "2599",
						"allMatch(uint256)": "infinite",
						"closeMatch(uint256,uint256,uint256)": "infinite",
						"instantiateMatch(string,string,uint256)": "infinite",
						"specificMatchBets(uint256)": "infinite",
						"userBet(address)": "5171"
					}
				},
				"methodIdentifiers": {
					"admin()": "f851a440",
					"allMatch(uint256)": "b2edb39f",
					"closeMatch(uint256,uint256,uint256)": "ec7361a8",
					"instantiateMatch(string,string,uint256)": "bc9e6e2c",
					"specificMatchBets(uint256)": "15a3ae71",
					"userBet(address)": "67ad4ec2"
				}
			},
			"storageLayout": {
				"storage": [
					{
						"astId": 3,
						"contract": "contracts/betting.sol:DistanceFiBET",
						"label": "admin",
						"offset": 0,
						"slot": "0",
						"type": "t_address"
					},
					{
						"astId": 36,
						"contract": "contracts/betting.sol:DistanceFiBET",
						"label": "userBet",
						"offset": 0,
						"slot": "1",
						"type": "t_mapping(t_address,t_struct(Bettor)31_storage)"
					},
					{
						"astId": 49,
						"contract": "contracts/betting.sol:DistanceFiBET",
						"label": "specificMatchBets",
						"offset": 0,
						"slot": "2",
						"type": "t_mapping(t_uint256,t_struct(allBets)44_storage)"
					},
					{
						"astId": 53,
						"contract": "contracts/betting.sol:DistanceFiBET",
						"label": "allMatch",
						"offset": 0,
						"slot": "3",
						"type": "t_array(t_struct(Match)20_storage)dyn_storage"
					}
				],
				"types": {
					"t_address": {
						"encoding": "inplace",
						"label": "address",
						"numberOfBytes": "20"
					},
					"t_array(t_struct(Match)20_storage)dyn_storage": {
						"base": "t_struct(Match)20_storage",
						"encoding": "dynamic_array",
						"label": "struct DistanceFiBET.Match[]",
						"numberOfBytes": "32"
					},
					"t_enum(Choices)25": {
						"encoding": "inplace",
						"label": "enum DistanceFiBET.Choices",
						"numberOfBytes": "1"
					},
					"t_mapping(t_address,t_struct(Bettor)31_storage)": {
						"encoding": "mapping",
						"key": "t_address",
						"label": "mapping(address => struct DistanceFiBET.Bettor)",
						"numberOfBytes": "32",
						"value": "t_struct(Bettor)31_storage"
					},
					"t_mapping(t_uint256,t_struct(allBets)44_storage)": {
						"encoding": "mapping",
						"key": "t_uint256",
						"label": "mapping(uint256 => struct DistanceFiBET.allBets)",
						"numberOfBytes": "32",
						"value": "t_struct(allBets)44_storage"
					},
					"t_string_storage": {
						"encoding": "bytes",
						"label": "string",
						"numberOfBytes": "32"
					},
					"t_struct(Bettor)31_storage": {
						"encoding": "inplace",
						"label": "struct DistanceFiBET.Bettor",
						"members": [
							{
								"astId": 28,
								"contract": "contracts/betting.sol:DistanceFiBET",
								"label": "bet",
								"offset": 0,
								"slot": "0",
								"type": "t_enum(Choices)25"
							},
							{
								"astId": 30,
								"contract": "contracts/betting.sol:DistanceFiBET",
								"label": "winAmounts",
								"offset": 0,
								"slot": "1",
								"type": "t_uint256"
							}
						],
						"numberOfBytes": "64"
					},
					"t_struct(Match)20_storage": {
						"encoding": "inplace",
						"label": "struct DistanceFiBET.Match",
						"members": [
							{
								"astId": 10,
								"contract": "contracts/betting.sol:DistanceFiBET",
								"label": "HomeTeam",
								"offset": 0,
								"slot": "0",
								"type": "t_string_storage"
							},
							{
								"astId": 12,
								"contract": "contracts/betting.sol:DistanceFiBET",
								"label": "AwayTeam",
								"offset": 0,
								"slot": "1",
								"type": "t_string_storage"
							},
							{
								"astId": 14,
								"contract": "contracts/betting.sol:DistanceFiBET",
								"label": "startTime",
								"offset": 0,
								"slot": "2",
								"type": "t_uint256"
							},
							{
								"astId": 16,
								"contract": "contracts/betting.sol:DistanceFiBET",
								"label": "endTime",
								"offset": 0,
								"slot": "3",
								"type": "t_uint256"
							},
							{
								"astId": 19,
								"contract": "contracts/betting.sol:DistanceFiBET",
								"label": "results",
								"offset": 0,
								"slot": "4",
								"type": "t_struct(Results)8_storage"
							}
						],
						"numberOfBytes": "192"
					},
					"t_struct(Results)8_storage": {
						"encoding": "inplace",
						"label": "struct DistanceFiBET.Results",
						"members": [
							{
								"astId": 5,
								"contract": "contracts/betting.sol:DistanceFiBET",
								"label": "Home_score",
								"offset": 0,
								"slot": "0",
								"type": "t_uint256"
							},
							{
								"astId": 7,
								"contract": "contracts/betting.sol:DistanceFiBET",
								"label": "Away_score",
								"offset": 0,
								"slot": "1",
								"type": "t_uint256"
							}
						],
						"numberOfBytes": "64"
					},
					"t_struct(allBets)44_storage": {
						"encoding": "inplace",
						"label": "struct DistanceFiBET.allBets",
						"members": [
							{
								"astId": 38,
								"contract": "contracts/betting.sol:DistanceFiBET",
								"label": "bettor",
								"offset": 0,
								"slot": "0",
								"type": "t_address"
							},
							{
								"astId": 40,
								"contract": "contracts/betting.sol:DistanceFiBET",
								"label": "amount",
								"offset": 0,
								"slot": "1",
								"type": "t_uint256"
							},
							{
								"astId": 43,
								"contract": "contracts/betting.sol:DistanceFiBET",
								"label": "choice",
								"offset": 0,
								"slot": "2",
								"type": "t_enum(Choices)25"
							}
						],
						"numberOfBytes": "96"
					},
					"t_uint256": {
						"encoding": "inplace",
						"label": "uint256",
						"numberOfBytes": "32"
					}
				}
			},
			"userdoc": {
				"kind": "user",
				"methods": {},
				"version": 1
			}
		}
	}
}