{
	"contracts/betting.sol": {
		"DistanceFiBET": {
			"abi": [
				{
					"inputs": [],
					"stateMutability": "nonpayable",
					"type": "constructor"
				},
				{
					"inputs": [
						{
							"internalType": "uint256",
							"name": "",
							"type": "uint256"
						}
					],
					"name": "Game",
					"outputs": [
						{
							"internalType": "string",
							"name": "HomeTeam",
							"type": "string"
						},
						{
							"internalType": "string",
							"name": "AwayTeam",
							"type": "string"
						},
						{
							"internalType": "uint256",
							"name": "startTime",
							"type": "uint256"
						},
						{
							"internalType": "uint256",
							"name": "endTime",
							"type": "uint256"
						},
						{
							"components": [
								{
									"internalType": "uint256",
									"name": "Home_score",
									"type": "uint256"
								},
								{
									"internalType": "uint256",
									"name": "Away_score",
									"type": "uint256"
								}
							],
							"internalType": "struct DistanceFiBET.Results",
							"name": "results",
							"type": "tuple"
						}
					],
					"stateMutability": "view",
					"type": "function"
				},
				{
					"inputs": [],
					"name": "admin",
					"outputs": [
						{
							"internalType": "address",
							"name": "",
							"type": "address"
						}
					],
					"stateMutability": "view",
					"type": "function"
				},
				{
					"inputs": [
						{
							"internalType": "uint256",
							"name": "",
							"type": "uint256"
						}
					],
					"name": "allMatch",
					"outputs": [
						{
							"internalType": "string",
							"name": "HomeTeam",
							"type": "string"
						},
						{
							"internalType": "string",
							"name": "AwayTeam",
							"type": "string"
						},
						{
							"internalType": "uint256",
							"name": "startTime",
							"type": "uint256"
						},
						{
							"internalType": "uint256",
							"name": "endTime",
							"type": "uint256"
						},
						{
							"components": [
								{
									"internalType": "uint256",
									"name": "Home_score",
									"type": "uint256"
								},
								{
									"internalType": "uint256",
									"name": "Away_score",
									"type": "uint256"
								}
							],
							"internalType": "struct DistanceFiBET.Results",
							"name": "results",
							"type": "tuple"
						}
					],
					"stateMutability": "view",
					"type": "function"
				},
				{
					"inputs": [
						{
							"internalType": "uint256",
							"name": "epoch",
							"type": "uint256"
						},
						{
							"internalType": "uint256",
							"name": "_homeScore",
							"type": "uint256"
						},
						{
							"internalType": "uint256",
							"name": "_awayScore",
							"type": "uint256"
						}
					],
					"name": "closeMatch",
					"outputs": [],
					"stateMutability": "nonpayable",
					"type": "function"
				},
				{
					"inputs": [
						{
							"internalType": "string",
							"name": "_HomeTeam",
							"type": "string"
						},
						{
							"internalType": "string",
							"name": "_AwayTeam",
							"type": "string"
						},
						{
							"internalType": "uint256",
							"name": "_startTime",
							"type": "uint256"
						}
					],
					"name": "instantiateMatch",
					"outputs": [
						{
							"internalType": "bool",
							"name": "",
							"type": "bool"
						}
					],
					"stateMutability": "nonpayable",
					"type": "function"
				},
				{
					"inputs": [
						{
							"internalType": "uint256",
							"name": "",
							"type": "uint256"
						}
					],
					"name": "specificMatchBets",
					"outputs": [
						{
							"internalType": "address",
							"name": "bettor",
							"type": "address"
						},
						{
							"internalType": "uint256",
							"name": "amount",
							"type": "uint256"
						},
						{
							"internalType": "enum DistanceFiBET.Choices",
							"name": "choice",
							"type": "uint8"
						}
					],
					"stateMutability": "view",
					"type": "function"
				},
				{
					"inputs": [
						{
							"internalType": "address",
							"name": "",
							"type": "address"
						},
						{
							"internalType": "uint256",
							"name": "",
							"type": "uint256"
						}
					],
					"name": "userBet",
					"outputs": [
						{
							"internalType": "enum DistanceFiBET.Choices",
							"name": "bet",
							"type": "uint8"
						},
						{
							"internalType": "uint256",
							"name": "winAmounts",
							"type": "uint256"
						},
						{
							"internalType": "uint256",
							"name": "betAmount",
							"type": "uint256"
						}
					],
					"stateMutability": "view",
					"type": "function"
				}
			],
			"devdoc": {
				"kind": "dev",
				"methods": {},
				"version": 1
			},
			"evm": {
				"assembly": "    /* \"contracts/betting.sol\":63:2019  contract DistanceFiBET{... */\n  mstore(0x40, 0x80)\n    /* \"contracts/betting.sol\":811:861  constructor(){... */\n  callvalue\n  dup1\n  iszero\n  tag_1\n  jumpi\n  0x00\n  dup1\n  revert\ntag_1:\n  pop\n    /* \"contracts/betting.sol\":843:853  msg.sender */\n  caller\n    /* \"contracts/betting.sol\":835:840  admin */\n  0x00\n  dup1\n    /* \"contracts/betting.sol\":835:853  admin = msg.sender */\n  0x0100\n  exp\n  dup2\n  sload\n  dup2\n  0xffffffffffffffffffffffffffffffffffffffff\n  mul\n  not\n  and\n  swap1\n  dup4\n  0xffffffffffffffffffffffffffffffffffffffff\n  and\n  mul\n  or\n  swap1\n  sstore\n  pop\n    /* \"contracts/betting.sol\":63:2019  contract DistanceFiBET{... */\n  dataSize(sub_0)\n  dup1\n  dataOffset(sub_0)\n  0x00\n  codecopy\n  0x00\n  return\nstop\n\nsub_0: assembly {\n        /* \"contracts/betting.sol\":63:2019  contract DistanceFiBET{... */\n      mstore(0x40, 0x80)\n      callvalue\n      dup1\n      iszero\n      tag_1\n      jumpi\n      0x00\n      dup1\n      revert\n    tag_1:\n      pop\n      jumpi(tag_2, lt(calldatasize, 0x04))\n      shr(0xe0, calldataload(0x00))\n      dup1\n      0xb2edb39f\n      gt\n      tag_10\n      jumpi\n      dup1\n      0xb2edb39f\n      eq\n      tag_6\n      jumpi\n      dup1\n      0xbc9e6e2c\n      eq\n      tag_7\n      jumpi\n      dup1\n      0xec7361a8\n      eq\n      tag_8\n      jumpi\n      dup1\n      0xf851a440\n      eq\n      tag_9\n      jumpi\n      jump(tag_2)\n    tag_10:\n      dup1\n      0x15a3ae71\n      eq\n      tag_3\n      jumpi\n      dup1\n      0x2172ff16\n      eq\n      tag_4\n      jumpi\n      dup1\n      0x4195ab8e\n      eq\n      tag_5\n      jumpi\n    tag_2:\n      0x00\n      dup1\n      revert\n        /* \"contracts/betting.sol\":749:799  mapping (uint => allBets) public specificMatchBets */\n    tag_3:\n      tag_11\n      0x04\n      dup1\n      calldatasize\n      sub\n      dup2\n      add\n      swap1\n      tag_12\n      swap2\n      swap1\n      tag_13\n      jump\t// in\n    tag_12:\n      tag_14\n      jump\t// in\n    tag_11:\n      mload(0x40)\n      tag_15\n      swap4\n      swap3\n      swap2\n      swap1\n      tag_16\n      jump\t// in\n    tag_15:\n      mload(0x40)\n      dup1\n      swap2\n      sub\n      swap1\n      return\n        /* \"contracts/betting.sol\":509:544  mapping (uint => Match) public Game */\n    tag_4:\n      tag_17\n      0x04\n      dup1\n      calldatasize\n      sub\n      dup2\n      add\n      swap1\n      tag_18\n      swap2\n      swap1\n      tag_13\n      jump\t// in\n    tag_18:\n      tag_19\n      jump\t// in\n    tag_17:\n      mload(0x40)\n      tag_20\n      swap6\n      swap5\n      swap4\n      swap3\n      swap2\n      swap1\n      tag_21\n      jump\t// in\n    tag_20:\n      mload(0x40)\n      dup1\n      swap2\n      sub\n      swap1\n      return\n        /* \"contracts/betting.sol\":551:611  mapping (address => mapping (uint => Bettor)) public userBet */\n    tag_5:\n      tag_22\n      0x04\n      dup1\n      calldatasize\n      sub\n      dup2\n      add\n      swap1\n      tag_23\n      swap2\n      swap1\n      tag_24\n      jump\t// in\n    tag_23:\n      tag_25\n      jump\t// in\n    tag_22:\n      mload(0x40)\n      tag_26\n      swap4\n      swap3\n      swap2\n      swap1\n      tag_27\n      jump\t// in\n    tag_26:\n      mload(0x40)\n      dup1\n      swap2\n      sub\n      swap1\n      return\n        /* \"contracts/betting.sol\":618:642  Match [] public allMatch */\n    tag_6:\n      tag_28\n      0x04\n      dup1\n      calldatasize\n      sub\n      dup2\n      add\n      swap1\n      tag_29\n      swap2\n      swap1\n      tag_13\n      jump\t// in\n    tag_29:\n      tag_30\n      jump\t// in\n    tag_28:\n      mload(0x40)\n      tag_31\n      swap6\n      swap5\n      swap4\n      swap3\n      swap2\n      swap1\n      tag_21\n      jump\t// in\n    tag_31:\n      mload(0x40)\n      dup1\n      swap2\n      sub\n      swap1\n      return\n        /* \"contracts/betting.sol\":869:1309  function instantiateMatch(string calldata _HomeTeam, string calldata _AwayTeam, uint _startTime) external returns (bool) {... */\n    tag_7:\n      tag_32\n      0x04\n      dup1\n      calldatasize\n      sub\n      dup2\n      add\n      swap1\n      tag_33\n      swap2\n      swap1\n      tag_34\n      jump\t// in\n    tag_33:\n      tag_35\n      jump\t// in\n    tag_32:\n      mload(0x40)\n      tag_36\n      swap2\n      swap1\n      tag_37\n      jump\t// in\n    tag_36:\n      mload(0x40)\n      dup1\n      swap2\n      sub\n      swap1\n      return\n        /* \"contracts/betting.sol\":1317:1701  function closeMatch(uint epoch, uint _homeScore, uint _awayScore) external {... */\n    tag_8:\n      tag_38\n      0x04\n      dup1\n      calldatasize\n      sub\n      dup2\n      add\n      swap1\n      tag_39\n      swap2\n      swap1\n      tag_40\n      jump\t// in\n    tag_39:\n      tag_41\n      jump\t// in\n    tag_38:\n      stop\n        /* \"contracts/betting.sol\":148:168  address public admin */\n    tag_9:\n      tag_42\n      tag_43\n      jump\t// in\n    tag_42:\n      mload(0x40)\n      tag_44\n      swap2\n      swap1\n      tag_45\n      jump\t// in\n    tag_44:\n      mload(0x40)\n      dup1\n      swap2\n      sub\n      swap1\n      return\n        /* \"contracts/betting.sol\":749:799  mapping (uint => allBets) public specificMatchBets */\n    tag_14:\n      mstore(0x20, 0x04)\n      dup1\n      0x00\n      mstore\n      keccak256(0x00, 0x40)\n      0x00\n      swap2\n      pop\n      swap1\n      pop\n      dup1\n      0x00\n      add\n      0x00\n      swap1\n      sload\n      swap1\n      0x0100\n      exp\n      swap1\n      div\n      0xffffffffffffffffffffffffffffffffffffffff\n      and\n      swap1\n      dup1\n      0x01\n      add\n      sload\n      swap1\n      dup1\n      0x02\n      add\n      0x00\n      swap1\n      sload\n      swap1\n      0x0100\n      exp\n      swap1\n      div\n      0xff\n      and\n      swap1\n      pop\n      dup4\n      jump\t// out\n        /* \"contracts/betting.sol\":509:544  mapping (uint => Match) public Game */\n    tag_19:\n      mstore(0x20, 0x01)\n      dup1\n      0x00\n      mstore\n      keccak256(0x00, 0x40)\n      0x00\n      swap2\n      pop\n      swap1\n      pop\n      dup1\n      0x00\n      add\n      dup1\n      sload\n      tag_46\n      swap1\n      tag_47\n      jump\t// in\n    tag_46:\n      dup1\n      0x1f\n      add\n      0x20\n      dup1\n      swap2\n      div\n      mul\n      0x20\n      add\n      mload(0x40)\n      swap1\n      dup2\n      add\n      0x40\n      mstore\n      dup1\n      swap3\n      swap2\n      swap1\n      dup2\n      dup2\n      mstore\n      0x20\n      add\n      dup3\n      dup1\n      sload\n      tag_48\n      swap1\n      tag_47\n      jump\t// in\n    tag_48:\n      dup1\n      iszero\n      tag_49\n      jumpi\n      dup1\n      0x1f\n      lt\n      tag_50\n      jumpi\n      0x0100\n      dup1\n      dup4\n      sload\n      div\n      mul\n      dup4\n      mstore\n      swap2\n      0x20\n      add\n      swap2\n      jump(tag_49)\n    tag_50:\n      dup3\n      add\n      swap2\n      swap1\n      0x00\n      mstore\n      keccak256(0x00, 0x20)\n      swap1\n    tag_51:\n      dup2\n      sload\n      dup2\n      mstore\n      swap1\n      0x01\n      add\n      swap1\n      0x20\n      add\n      dup1\n      dup4\n      gt\n      tag_51\n      jumpi\n      dup3\n      swap1\n      sub\n      0x1f\n      and\n      dup3\n      add\n      swap2\n    tag_49:\n      pop\n      pop\n      pop\n      pop\n      pop\n      swap1\n      dup1\n      0x01\n      add\n      dup1\n      sload\n      tag_52\n      swap1\n      tag_47\n      jump\t// in\n    tag_52:\n      dup1\n      0x1f\n      add\n      0x20\n      dup1\n      swap2\n      div\n      mul\n      0x20\n      add\n      mload(0x40)\n      swap1\n      dup2\n      add\n      0x40\n      mstore\n      dup1\n      swap3\n      swap2\n      swap1\n      dup2\n      dup2\n      mstore\n      0x20\n      add\n      dup3\n      dup1\n      sload\n      tag_53\n      swap1\n      tag_47\n      jump\t// in\n    tag_53:\n      dup1\n      iszero\n      tag_54\n      jumpi\n      dup1\n      0x1f\n      lt\n      tag_55\n      jumpi\n      0x0100\n      dup1\n      dup4\n      sload\n      div\n      mul\n      dup4\n      mstore\n      swap2\n      0x20\n      add\n      swap2\n      jump(tag_54)\n    tag_55:\n      dup3\n      add\n      swap2\n      swap1\n      0x00\n      mstore\n      keccak256(0x00, 0x20)\n      swap1\n    tag_56:\n      dup2\n      sload\n      dup2\n      mstore\n      swap1\n      0x01\n      add\n      swap1\n      0x20\n      add\n      dup1\n      dup4\n      gt\n      tag_56\n      jumpi\n      dup3\n      swap1\n      sub\n      0x1f\n      and\n      dup3\n      add\n      swap2\n    tag_54:\n      pop\n      pop\n      pop\n      pop\n      pop\n      swap1\n      dup1\n      0x02\n      add\n      sload\n      swap1\n      dup1\n      0x03\n      add\n      sload\n      swap1\n      dup1\n      0x04\n      add\n      mload(0x40)\n      dup1\n      0x40\n      add\n      0x40\n      mstore\n      swap1\n      dup2\n      0x00\n      dup3\n      add\n      sload\n      dup2\n      mstore\n      0x20\n      add\n      0x01\n      dup3\n      add\n      sload\n      dup2\n      mstore\n      pop\n      pop\n      swap1\n      pop\n      dup6\n      jump\t// out\n        /* \"contracts/betting.sol\":551:611  mapping (address => mapping (uint => Bettor)) public userBet */\n    tag_25:\n      mstore(0x20, 0x02)\n      dup2\n      0x00\n      mstore\n      mstore(0x20, keccak256(0x00, 0x40))\n      dup1\n      0x00\n      mstore\n      keccak256(0x00, 0x40)\n      0x00\n      swap2\n      pop\n      swap2\n      pop\n      pop\n      dup1\n      0x00\n      add\n      0x00\n      swap1\n      sload\n      swap1\n      0x0100\n      exp\n      swap1\n      div\n      0xff\n      and\n      swap1\n      dup1\n      0x01\n      add\n      sload\n      swap1\n      dup1\n      0x02\n      add\n      sload\n      swap1\n      pop\n      dup4\n      jump\t// out\n        /* \"contracts/betting.sol\":618:642  Match [] public allMatch */\n    tag_30:\n      0x03\n      dup2\n      dup2\n      sload\n      dup2\n      lt\n      tag_57\n      jumpi\n      0x00\n      dup1\n      revert\n    tag_57:\n      swap1\n      0x00\n      mstore\n      keccak256(0x00, 0x20)\n      swap1\n      0x06\n      mul\n      add\n      0x00\n      swap2\n      pop\n      swap1\n      pop\n      dup1\n      0x00\n      add\n      dup1\n      sload\n      tag_59\n      swap1\n      tag_47\n      jump\t// in\n    tag_59:\n      dup1\n      0x1f\n      add\n      0x20\n      dup1\n      swap2\n      div\n      mul\n      0x20\n      add\n      mload(0x40)\n      swap1\n      dup2\n      add\n      0x40\n      mstore\n      dup1\n      swap3\n      swap2\n      swap1\n      dup2\n      dup2\n      mstore\n      0x20\n      add\n      dup3\n      dup1\n      sload\n      tag_60\n      swap1\n      tag_47\n      jump\t// in\n    tag_60:\n      dup1\n      iszero\n      tag_61\n      jumpi\n      dup1\n      0x1f\n      lt\n      tag_62\n      jumpi\n      0x0100\n      dup1\n      dup4\n      sload\n      div\n      mul\n      dup4\n      mstore\n      swap2\n      0x20\n      add\n      swap2\n      jump(tag_61)\n    tag_62:\n      dup3\n      add\n      swap2\n      swap1\n      0x00\n      mstore\n      keccak256(0x00, 0x20)\n      swap1\n    tag_63:\n      dup2\n      sload\n      dup2\n      mstore\n      swap1\n      0x01\n      add\n      swap1\n      0x20\n      add\n      dup1\n      dup4\n      gt\n      tag_63\n      jumpi\n      dup3\n      swap1\n      sub\n      0x1f\n      and\n      dup3\n      add\n      swap2\n    tag_61:\n      pop\n      pop\n      pop\n      pop\n      pop\n      swap1\n      dup1\n      0x01\n      add\n      dup1\n      sload\n      tag_64\n      swap1\n      tag_47\n      jump\t// in\n    tag_64:\n      dup1\n      0x1f\n      add\n      0x20\n      dup1\n      swap2\n      div\n      mul\n      0x20\n      add\n      mload(0x40)\n      swap1\n      dup2\n      add\n      0x40\n      mstore\n      dup1\n      swap3\n      swap2\n      swap1\n      dup2\n      dup2\n      mstore\n      0x20\n      add\n      dup3\n      dup1\n      sload\n      tag_65\n      swap1\n      tag_47\n      jump\t// in\n    tag_65:\n      dup1\n      iszero\n      tag_66\n      jumpi\n      dup1\n      0x1f\n      lt\n      tag_67\n      jumpi\n      0x0100\n      dup1\n      dup4\n      sload\n      div\n      mul\n      dup4\n      mstore\n      swap2\n      0x20\n      add\n      swap2\n      jump(tag_66)\n    tag_67:\n      dup3\n      add\n      swap2\n      swap1\n      0x00\n      mstore\n      keccak256(0x00, 0x20)\n      swap1\n    tag_68:\n      dup2\n      sload\n      dup2\n      mstore\n      swap1\n      0x01\n      add\n      swap1\n      0x20\n      add\n      dup1\n      dup4\n      gt\n      tag_68\n      jumpi\n      dup3\n      swap1\n      sub\n      0x1f\n      and\n      dup3\n      add\n      swap2\n    tag_66:\n      pop\n      pop\n      pop\n      pop\n      pop\n      swap1\n      dup1\n      0x02\n      add\n      sload\n      swap1\n      dup1\n      0x03\n      add\n      sload\n      swap1\n      dup1\n      0x04\n      add\n      mload(0x40)\n      dup1\n      0x40\n      add\n      0x40\n      mstore\n      swap1\n      dup2\n      0x00\n      dup3\n      add\n      sload\n      dup2\n      mstore\n      0x20\n      add\n      0x01\n      dup3\n      add\n      sload\n      dup2\n      mstore\n      pop\n      pop\n      swap1\n      pop\n      dup6\n      jump\t// out\n        /* \"contracts/betting.sol\":869:1309  function instantiateMatch(string calldata _HomeTeam, string calldata _AwayTeam, uint _startTime) external returns (bool) {... */\n    tag_35:\n        /* \"contracts/betting.sol\":984:988  bool */\n      0x00\n        /* \"contracts/betting.sol\":1018:1028  msg.sender */\n      caller\n        /* \"contracts/betting.sol\":1009:1028  admin == msg.sender */\n      0xffffffffffffffffffffffffffffffffffffffff\n      and\n        /* \"contracts/betting.sol\":1009:1014  admin */\n      0x00\n      dup1\n      sload\n      swap1\n      0x0100\n      exp\n      swap1\n      div\n      0xffffffffffffffffffffffffffffffffffffffff\n      and\n        /* \"contracts/betting.sol\":1009:1028  admin == msg.sender */\n      0xffffffffffffffffffffffffffffffffffffffff\n      and\n      eq\n        /* \"contracts/betting.sol\":1001:1042  require(admin == msg.sender, \"Not Owner\") */\n      tag_70\n      jumpi\n      mload(0x40)\n      0x08c379a000000000000000000000000000000000000000000000000000000000\n      dup2\n      mstore\n      0x04\n      add\n      tag_71\n      swap1\n      tag_72\n      jump\t// in\n    tag_71:\n      mload(0x40)\n      dup1\n      swap2\n      sub\n      swap1\n      revert\n    tag_70:\n        /* \"contracts/betting.sol\":1053:1066  uint matchEnd */\n      0x00\n        /* \"contracts/betting.sol\":1082:1092  95 seconds */\n      0x5f\n        /* \"contracts/betting.sol\":1069:1079  _startTime */\n      dup4\n        /* \"contracts/betting.sol\":1069:1092  _startTime + 95 seconds */\n      tag_73\n      swap2\n      swap1\n      tag_74\n      jump\t// in\n    tag_73:\n        /* \"contracts/betting.sol\":1053:1092  uint matchEnd = _startTime + 95 seconds */\n      swap1\n      pop\n        /* \"contracts/betting.sol\":1103:1133  Results memory startingResults */\n      0x00\n        /* \"contracts/betting.sol\":1136:1149  Results(0, 0) */\n      mload(0x40)\n      dup1\n      0x40\n      add\n      0x40\n      mstore\n      dup1\n        /* \"contracts/betting.sol\":1144:1145  0 */\n      0x00\n        /* \"contracts/betting.sol\":1136:1149  Results(0, 0) */\n      dup2\n      mstore\n      0x20\n      add\n        /* \"contracts/betting.sol\":1147:1148  0 */\n      0x00\n        /* \"contracts/betting.sol\":1136:1149  Results(0, 0) */\n      dup2\n      mstore\n      pop\n        /* \"contracts/betting.sol\":1103:1149  Results memory startingResults = Results(0, 0) */\n      swap1\n      pop\n        /* \"contracts/betting.sol\":1160:1169  uint game */\n      0x00\n        /* \"contracts/betting.sol\":1172:1180  allMatch */\n      0x03\n        /* \"contracts/betting.sol\":1172:1187  allMatch.length */\n      dup1\n      sload\n      swap1\n      pop\n        /* \"contracts/betting.sol\":1160:1187  uint game = allMatch.length */\n      swap1\n      pop\n        /* \"contracts/betting.sol\":1198:1206  allMatch */\n      0x03\n        /* \"contracts/betting.sol\":1212:1278  Match(_HomeTeam, _AwayTeam, _startTime, matchEnd, startingResults) */\n      mload(0x40)\n      dup1\n      0xa0\n      add\n      0x40\n      mstore\n      dup1\n        /* \"contracts/betting.sol\":1218:1227  _HomeTeam */\n      dup12\n      dup12\n        /* \"contracts/betting.sol\":1212:1278  Match(_HomeTeam, _AwayTeam, _startTime, matchEnd, startingResults) */\n      dup1\n      dup1\n      0x1f\n      add\n      0x20\n      dup1\n      swap2\n      div\n      mul\n      0x20\n      add\n      mload(0x40)\n      swap1\n      dup2\n      add\n      0x40\n      mstore\n      dup1\n      swap4\n      swap3\n      swap2\n      swap1\n      dup2\n      dup2\n      mstore\n      0x20\n      add\n      dup4\n      dup4\n      dup1\n      dup3\n      dup5\n      calldatacopy\n      0x00\n      dup2\n      dup5\n      add\n      mstore\n      not(0x1f)\n      0x1f\n      dup3\n      add\n      and\n      swap1\n      pop\n      dup1\n      dup4\n      add\n      swap3\n      pop\n      pop\n      pop\n      pop\n      pop\n      pop\n      pop\n      dup2\n      mstore\n      0x20\n      add\n        /* \"contracts/betting.sol\":1229:1238  _AwayTeam */\n      dup10\n      dup10\n        /* \"contracts/betting.sol\":1212:1278  Match(_HomeTeam, _AwayTeam, _startTime, matchEnd, startingResults) */\n      dup1\n      dup1\n      0x1f\n      add\n      0x20\n      dup1\n      swap2\n      div\n      mul\n      0x20\n      add\n      mload(0x40)\n      swap1\n      dup2\n      add\n      0x40\n      mstore\n      dup1\n      swap4\n      swap3\n      swap2\n      swap1\n      dup2\n      dup2\n      mstore\n      0x20\n      add\n      dup4\n      dup4\n      dup1\n      dup3\n      dup5\n      calldatacopy\n      0x00\n      dup2\n      dup5\n      add\n      mstore\n      not(0x1f)\n      0x1f\n      dup3\n      add\n      and\n      swap1\n      pop\n      dup1\n      dup4\n      add\n      swap3\n      pop\n      pop\n      pop\n      pop\n      pop\n      pop\n      pop\n      dup2\n      mstore\n      0x20\n      add\n        /* \"contracts/betting.sol\":1240:1250  _startTime */\n      dup8\n        /* \"contracts/betting.sol\":1212:1278  Match(_HomeTeam, _AwayTeam, _startTime, matchEnd, startingResults) */\n      dup2\n      mstore\n      0x20\n      add\n        /* \"contracts/betting.sol\":1252:1260  matchEnd */\n      dup6\n        /* \"contracts/betting.sol\":1212:1278  Match(_HomeTeam, _AwayTeam, _startTime, matchEnd, startingResults) */\n      dup2\n      mstore\n      0x20\n      add\n        /* \"contracts/betting.sol\":1262:1277  startingResults */\n      dup5\n        /* \"contracts/betting.sol\":1212:1278  Match(_HomeTeam, _AwayTeam, _startTime, matchEnd, startingResults) */\n      dup2\n      mstore\n      pop\n        /* \"contracts/betting.sol\":1198:1279  allMatch.push(Match(_HomeTeam, _AwayTeam, _startTime, matchEnd, startingResults)) */\n      swap1\n      dup1\n      0x01\n      dup2\n      sload\n      add\n      dup1\n      dup3\n      sstore\n      dup1\n      swap2\n      pop\n      pop\n      0x01\n      swap1\n      sub\n      swap1\n      0x00\n      mstore\n      keccak256(0x00, 0x20)\n      swap1\n      0x06\n      mul\n      add\n      0x00\n      swap1\n      swap2\n      swap1\n      swap2\n      swap1\n      swap2\n      pop\n      0x00\n      dup3\n      add\n      mload\n      dup2\n      0x00\n      add\n      swap1\n      dup2\n      tag_76\n      swap2\n      swap1\n      tag_77\n      jump\t// in\n    tag_76:\n      pop\n      0x20\n      dup3\n      add\n      mload\n      dup2\n      0x01\n      add\n      swap1\n      dup2\n      tag_78\n      swap2\n      swap1\n      tag_77\n      jump\t// in\n    tag_78:\n      pop\n      0x40\n      dup3\n      add\n      mload\n      dup2\n      0x02\n      add\n      sstore\n      0x60\n      dup3\n      add\n      mload\n      dup2\n      0x03\n      add\n      sstore\n      0x80\n      dup3\n      add\n      mload\n      dup2\n      0x04\n      add\n      0x00\n      dup3\n      add\n      mload\n      dup2\n      0x00\n      add\n      sstore\n      0x20\n      dup3\n      add\n      mload\n      dup2\n      0x01\n      add\n      sstore\n      pop\n      pop\n      pop\n      pop\n        /* \"contracts/betting.sol\":1297:1301  true */\n      0x01\n        /* \"contracts/betting.sol\":1290:1301  return true */\n      swap4\n      pop\n      pop\n      pop\n      pop\n        /* \"contracts/betting.sol\":869:1309  function instantiateMatch(string calldata _HomeTeam, string calldata _AwayTeam, uint _startTime) external returns (bool) {... */\n      swap6\n      swap5\n      pop\n      pop\n      pop\n      pop\n      pop\n      jump\t// out\n        /* \"contracts/betting.sol\":1317:1701  function closeMatch(uint epoch, uint _homeScore, uint _awayScore) external {... */\n    tag_41:\n        /* \"contracts/betting.sol\":1420:1430  msg.sender */\n      caller\n        /* \"contracts/betting.sol\":1411:1430  admin == msg.sender */\n      0xffffffffffffffffffffffffffffffffffffffff\n      and\n        /* \"contracts/betting.sol\":1411:1416  admin */\n      0x00\n      dup1\n      sload\n      swap1\n      0x0100\n      exp\n      swap1\n      div\n      0xffffffffffffffffffffffffffffffffffffffff\n      and\n        /* \"contracts/betting.sol\":1411:1430  admin == msg.sender */\n      0xffffffffffffffffffffffffffffffffffffffff\n      and\n      eq\n        /* \"contracts/betting.sol\":1403:1444  require(admin == msg.sender, \"Not Owner\") */\n      tag_80\n      jumpi\n      mload(0x40)\n      0x08c379a000000000000000000000000000000000000000000000000000000000\n      dup2\n      mstore\n      0x04\n      add\n      tag_81\n      swap1\n      tag_72\n      jump\t// in\n    tag_81:\n      mload(0x40)\n      dup1\n      swap2\n      sub\n      swap1\n      revert\n    tag_80:\n        /* \"contracts/betting.sol\":1455:1471  uint currentTime */\n      0x00\n        /* \"contracts/betting.sol\":1474:1489  block.timestamp */\n      timestamp\n        /* \"contracts/betting.sol\":1455:1489  uint currentTime = block.timestamp */\n      swap1\n      pop\n        /* \"contracts/betting.sol\":1523:1531  allMatch */\n      0x03\n        /* \"contracts/betting.sol\":1532:1537  epoch */\n      dup5\n        /* \"contracts/betting.sol\":1523:1538  allMatch[epoch] */\n      dup2\n      sload\n      dup2\n      lt\n      tag_82\n      jumpi\n      tag_83\n      tag_84\n      jump\t// in\n    tag_83:\n    tag_82:\n      swap1\n      0x00\n      mstore\n      keccak256(0x00, 0x20)\n      swap1\n      0x06\n      mul\n      add\n        /* \"contracts/betting.sol\":1523:1546  allMatch[epoch].endTime */\n      0x03\n      add\n      sload\n        /* \"contracts/betting.sol\":1508:1519  currentTime */\n      dup2\n        /* \"contracts/betting.sol\":1508:1546  currentTime >= allMatch[epoch].endTime */\n      lt\n      iszero\n        /* \"contracts/betting.sol\":1500:1568  require(currentTime >= allMatch[epoch].endTime, \"Match is still on\") */\n      tag_86\n      jumpi\n      mload(0x40)\n      0x08c379a000000000000000000000000000000000000000000000000000000000\n      dup2\n      mstore\n      0x04\n      add\n      tag_87\n      swap1\n      tag_88\n      jump\t// in\n    tag_87:\n      mload(0x40)\n      dup1\n      swap2\n      sub\n      swap1\n      revert\n    tag_86:\n        /* \"contracts/betting.sol\":1579:1608  Results memory closingResults */\n      0x00\n        /* \"contracts/betting.sol\":1611:1642  Results(_homeScore, _awayScore) */\n      mload(0x40)\n      dup1\n      0x40\n      add\n      0x40\n      mstore\n      dup1\n        /* \"contracts/betting.sol\":1619:1629  _homeScore */\n      dup6\n        /* \"contracts/betting.sol\":1611:1642  Results(_homeScore, _awayScore) */\n      dup2\n      mstore\n      0x20\n      add\n        /* \"contracts/betting.sol\":1631:1641  _awayScore */\n      dup5\n        /* \"contracts/betting.sol\":1611:1642  Results(_homeScore, _awayScore) */\n      dup2\n      mstore\n      pop\n        /* \"contracts/betting.sol\":1579:1642  Results memory closingResults = Results(_homeScore, _awayScore) */\n      swap1\n      pop\n        /* \"contracts/betting.sol\":1679:1693  closingResults */\n      dup1\n        /* \"contracts/betting.sol\":1653:1661  allMatch */\n      0x03\n        /* \"contracts/betting.sol\":1662:1667  epoch */\n      dup7\n        /* \"contracts/betting.sol\":1653:1668  allMatch[epoch] */\n      dup2\n      sload\n      dup2\n      lt\n      tag_89\n      jumpi\n      tag_90\n      tag_84\n      jump\t// in\n    tag_90:\n    tag_89:\n      swap1\n      0x00\n      mstore\n      keccak256(0x00, 0x20)\n      swap1\n      0x06\n      mul\n      add\n        /* \"contracts/betting.sol\":1653:1676  allMatch[epoch].results */\n      0x04\n      add\n        /* \"contracts/betting.sol\":1653:1693  allMatch[epoch].results = closingResults */\n      0x00\n      dup3\n      add\n      mload\n      dup2\n      0x00\n      add\n      sstore\n      0x20\n      dup3\n      add\n      mload\n      dup2\n      0x01\n      add\n      sstore\n      swap1\n      pop\n      pop\n        /* \"contracts/betting.sol\":1392:1701  {... */\n      pop\n      pop\n        /* \"contracts/betting.sol\":1317:1701  function closeMatch(uint epoch, uint _homeScore, uint _awayScore) external {... */\n      pop\n      pop\n      pop\n      jump\t// out\n        /* \"contracts/betting.sol\":148:168  address public admin */\n    tag_43:\n      0x00\n      dup1\n      sload\n      swap1\n      0x0100\n      exp\n      swap1\n      div\n      0xffffffffffffffffffffffffffffffffffffffff\n      and\n      dup2\n      jump\t// out\n        /* \"#utility.yul\":88:205   */\n    tag_93:\n        /* \"#utility.yul\":197:198   */\n      0x00\n        /* \"#utility.yul\":194:195   */\n      dup1\n        /* \"#utility.yul\":187:199   */\n      revert\n        /* \"#utility.yul\":211:328   */\n    tag_94:\n        /* \"#utility.yul\":320:321   */\n      0x00\n        /* \"#utility.yul\":317:318   */\n      dup1\n        /* \"#utility.yul\":310:322   */\n      revert\n        /* \"#utility.yul\":334:411   */\n    tag_95:\n        /* \"#utility.yul\":371:378   */\n      0x00\n        /* \"#utility.yul\":400:405   */\n      dup2\n        /* \"#utility.yul\":389:405   */\n      swap1\n      pop\n        /* \"#utility.yul\":334:411   */\n      swap2\n      swap1\n      pop\n      jump\t// out\n        /* \"#utility.yul\":417:539   */\n    tag_96:\n        /* \"#utility.yul\":490:514   */\n      tag_150\n        /* \"#utility.yul\":508:513   */\n      dup2\n        /* \"#utility.yul\":490:514   */\n      tag_95\n      jump\t// in\n    tag_150:\n        /* \"#utility.yul\":483:488   */\n      dup2\n        /* \"#utility.yul\":480:515   */\n      eq\n        /* \"#utility.yul\":470:533   */\n      tag_151\n      jumpi\n        /* \"#utility.yul\":529:530   */\n      0x00\n        /* \"#utility.yul\":526:527   */\n      dup1\n        /* \"#utility.yul\":519:531   */\n      revert\n        /* \"#utility.yul\":470:533   */\n    tag_151:\n        /* \"#utility.yul\":417:539   */\n      pop\n      jump\t// out\n        /* \"#utility.yul\":545:684   */\n    tag_97:\n        /* \"#utility.yul\":591:596   */\n      0x00\n        /* \"#utility.yul\":629:635   */\n      dup2\n        /* \"#utility.yul\":616:636   */\n      calldataload\n        /* \"#utility.yul\":607:636   */\n      swap1\n      pop\n        /* \"#utility.yul\":645:678   */\n      tag_153\n        /* \"#utility.yul\":672:677   */\n      dup2\n        /* \"#utility.yul\":645:678   */\n      tag_96\n      jump\t// in\n    tag_153:\n        /* \"#utility.yul\":545:684   */\n      swap3\n      swap2\n      pop\n      pop\n      jump\t// out\n        /* \"#utility.yul\":690:1019   */\n    tag_13:\n        /* \"#utility.yul\":749:755   */\n      0x00\n        /* \"#utility.yul\":798:800   */\n      0x20\n        /* \"#utility.yul\":786:795   */\n      dup3\n        /* \"#utility.yul\":777:784   */\n      dup5\n        /* \"#utility.yul\":773:796   */\n      sub\n        /* \"#utility.yul\":769:801   */\n      slt\n        /* \"#utility.yul\":766:885   */\n      iszero\n      tag_155\n      jumpi\n        /* \"#utility.yul\":804:883   */\n      tag_156\n      tag_93\n      jump\t// in\n    tag_156:\n        /* \"#utility.yul\":766:885   */\n    tag_155:\n        /* \"#utility.yul\":924:925   */\n      0x00\n        /* \"#utility.yul\":949:1002   */\n      tag_157\n        /* \"#utility.yul\":994:1001   */\n      dup5\n        /* \"#utility.yul\":985:991   */\n      dup3\n        /* \"#utility.yul\":974:983   */\n      dup6\n        /* \"#utility.yul\":970:992   */\n      add\n        /* \"#utility.yul\":949:1002   */\n      tag_97\n      jump\t// in\n    tag_157:\n        /* \"#utility.yul\":939:1002   */\n      swap2\n      pop\n        /* \"#utility.yul\":895:1012   */\n      pop\n        /* \"#utility.yul\":690:1019   */\n      swap3\n      swap2\n      pop\n      pop\n      jump\t// out\n        /* \"#utility.yul\":1025:1151   */\n    tag_98:\n        /* \"#utility.yul\":1062:1069   */\n      0x00\n        /* \"#utility.yul\":1102:1144   */\n      0xffffffffffffffffffffffffffffffffffffffff\n        /* \"#utility.yul\":1095:1100   */\n      dup3\n        /* \"#utility.yul\":1091:1145   */\n      and\n        /* \"#utility.yul\":1080:1145   */\n      swap1\n      pop\n        /* \"#utility.yul\":1025:1151   */\n      swap2\n      swap1\n      pop\n      jump\t// out\n        /* \"#utility.yul\":1157:1253   */\n    tag_99:\n        /* \"#utility.yul\":1194:1201   */\n      0x00\n        /* \"#utility.yul\":1223:1247   */\n      tag_160\n        /* \"#utility.yul\":1241:1246   */\n      dup3\n        /* \"#utility.yul\":1223:1247   */\n      tag_98\n      jump\t// in\n    tag_160:\n        /* \"#utility.yul\":1212:1247   */\n      swap1\n      pop\n        /* \"#utility.yul\":1157:1253   */\n      swap2\n      swap1\n      pop\n      jump\t// out\n        /* \"#utility.yul\":1259:1377   */\n    tag_100:\n        /* \"#utility.yul\":1346:1370   */\n      tag_162\n        /* \"#utility.yul\":1364:1369   */\n      dup2\n        /* \"#utility.yul\":1346:1370   */\n      tag_99\n      jump\t// in\n    tag_162:\n        /* \"#utility.yul\":1341:1344   */\n      dup3\n        /* \"#utility.yul\":1334:1371   */\n      mstore\n        /* \"#utility.yul\":1259:1377   */\n      pop\n      pop\n      jump\t// out\n        /* \"#utility.yul\":1383:1501   */\n    tag_101:\n        /* \"#utility.yul\":1470:1494   */\n      tag_164\n        /* \"#utility.yul\":1488:1493   */\n      dup2\n        /* \"#utility.yul\":1470:1494   */\n      tag_95\n      jump\t// in\n    tag_164:\n        /* \"#utility.yul\":1465:1468   */\n      dup3\n        /* \"#utility.yul\":1458:1495   */\n      mstore\n        /* \"#utility.yul\":1383:1501   */\n      pop\n      pop\n      jump\t// out\n        /* \"#utility.yul\":1507:1687   */\n    tag_102:\n        /* \"#utility.yul\":1555:1632   */\n      0x4e487b7100000000000000000000000000000000000000000000000000000000\n        /* \"#utility.yul\":1552:1553   */\n      0x00\n        /* \"#utility.yul\":1545:1633   */\n      mstore\n        /* \"#utility.yul\":1652:1656   */\n      0x21\n        /* \"#utility.yul\":1649:1650   */\n      0x04\n        /* \"#utility.yul\":1642:1657   */\n      mstore\n        /* \"#utility.yul\":1676:1680   */\n      0x24\n        /* \"#utility.yul\":1673:1674   */\n      0x00\n        /* \"#utility.yul\":1666:1681   */\n      revert\n        /* \"#utility.yul\":1693:1807   */\n    tag_103:\n        /* \"#utility.yul\":1775:1776   */\n      0x04\n        /* \"#utility.yul\":1768:1773   */\n      dup2\n        /* \"#utility.yul\":1765:1777   */\n      lt\n        /* \"#utility.yul\":1755:1801   */\n      tag_167\n      jumpi\n        /* \"#utility.yul\":1781:1799   */\n      tag_168\n      tag_102\n      jump\t// in\n    tag_168:\n        /* \"#utility.yul\":1755:1801   */\n    tag_167:\n        /* \"#utility.yul\":1693:1807   */\n      pop\n      jump\t// out\n        /* \"#utility.yul\":1813:1942   */\n    tag_104:\n        /* \"#utility.yul\":1859:1866   */\n      0x00\n        /* \"#utility.yul\":1888:1893   */\n      dup2\n        /* \"#utility.yul\":1877:1893   */\n      swap1\n      pop\n        /* \"#utility.yul\":1894:1936   */\n      tag_170\n        /* \"#utility.yul\":1930:1935   */\n      dup3\n        /* \"#utility.yul\":1894:1936   */\n      tag_103\n      jump\t// in\n    tag_170:\n        /* \"#utility.yul\":1813:1942   */\n      swap2\n      swap1\n      pop\n      jump\t// out\n        /* \"#utility.yul\":1948:2077   */\n    tag_105:\n        /* \"#utility.yul\":2005:2014   */\n      0x00\n        /* \"#utility.yul\":2038:2071   */\n      tag_172\n        /* \"#utility.yul\":2065:2070   */\n      dup3\n        /* \"#utility.yul\":2038:2071   */\n      tag_104\n      jump\t// in\n    tag_172:\n        /* \"#utility.yul\":2025:2071   */\n      swap1\n      pop\n        /* \"#utility.yul\":1948:2077   */\n      swap2\n      swap1\n      pop\n      jump\t// out\n        /* \"#utility.yul\":2083:2228   */\n    tag_106:\n        /* \"#utility.yul\":2177:2221   */\n      tag_174\n        /* \"#utility.yul\":2215:2220   */\n      dup2\n        /* \"#utility.yul\":2177:2221   */\n      tag_105\n      jump\t// in\n    tag_174:\n        /* \"#utility.yul\":2172:2175   */\n      dup3\n        /* \"#utility.yul\":2165:2222   */\n      mstore\n        /* \"#utility.yul\":2083:2228   */\n      pop\n      pop\n      jump\t// out\n        /* \"#utility.yul\":2234:2690   */\n    tag_16:\n        /* \"#utility.yul\":2390:2394   */\n      0x00\n        /* \"#utility.yul\":2428:2430   */\n      0x60\n        /* \"#utility.yul\":2417:2426   */\n      dup3\n        /* \"#utility.yul\":2413:2431   */\n      add\n        /* \"#utility.yul\":2405:2431   */\n      swap1\n      pop\n        /* \"#utility.yul\":2441:2512   */\n      tag_176\n        /* \"#utility.yul\":2509:2510   */\n      0x00\n        /* \"#utility.yul\":2498:2507   */\n      dup4\n        /* \"#utility.yul\":2494:2511   */\n      add\n        /* \"#utility.yul\":2485:2491   */\n      dup7\n        /* \"#utility.yul\":2441:2512   */\n      tag_100\n      jump\t// in\n    tag_176:\n        /* \"#utility.yul\":2522:2594   */\n      tag_177\n        /* \"#utility.yul\":2590:2592   */\n      0x20\n        /* \"#utility.yul\":2579:2588   */\n      dup4\n        /* \"#utility.yul\":2575:2593   */\n      add\n        /* \"#utility.yul\":2566:2572   */\n      dup6\n        /* \"#utility.yul\":2522:2594   */\n      tag_101\n      jump\t// in\n    tag_177:\n        /* \"#utility.yul\":2604:2683   */\n      tag_178\n        /* \"#utility.yul\":2679:2681   */\n      0x40\n        /* \"#utility.yul\":2668:2677   */\n      dup4\n        /* \"#utility.yul\":2664:2682   */\n      add\n        /* \"#utility.yul\":2655:2661   */\n      dup5\n        /* \"#utility.yul\":2604:2683   */\n      tag_106\n      jump\t// in\n    tag_178:\n        /* \"#utility.yul\":2234:2690   */\n      swap5\n      swap4\n      pop\n      pop\n      pop\n      pop\n      jump\t// out\n        /* \"#utility.yul\":2696:2795   */\n    tag_107:\n        /* \"#utility.yul\":2748:2754   */\n      0x00\n        /* \"#utility.yul\":2782:2787   */\n      dup2\n        /* \"#utility.yul\":2776:2788   */\n      mload\n        /* \"#utility.yul\":2766:2788   */\n      swap1\n      pop\n        /* \"#utility.yul\":2696:2795   */\n      swap2\n      swap1\n      pop\n      jump\t// out\n        /* \"#utility.yul\":2801:2970   */\n    tag_108:\n        /* \"#utility.yul\":2885:2896   */\n      0x00\n        /* \"#utility.yul\":2919:2925   */\n      dup3\n        /* \"#utility.yul\":2914:2917   */\n      dup3\n        /* \"#utility.yul\":2907:2926   */\n      mstore\n        /* \"#utility.yul\":2959:2963   */\n      0x20\n        /* \"#utility.yul\":2954:2957   */\n      dup3\n        /* \"#utility.yul\":2950:2964   */\n      add\n        /* \"#utility.yul\":2935:2964   */\n      swap1\n      pop\n        /* \"#utility.yul\":2801:2970   */\n      swap3\n      swap2\n      pop\n      pop\n      jump\t// out\n        /* \"#utility.yul\":2976:3222   */\n    tag_109:\n        /* \"#utility.yul\":3057:3058   */\n      0x00\n        /* \"#utility.yul\":3067:3180   */\n    tag_182:\n        /* \"#utility.yul\":3081:3087   */\n      dup4\n        /* \"#utility.yul\":3078:3079   */\n      dup2\n        /* \"#utility.yul\":3075:3088   */\n      lt\n        /* \"#utility.yul\":3067:3180   */\n      iszero\n      tag_184\n      jumpi\n        /* \"#utility.yul\":3166:3167   */\n      dup1\n        /* \"#utility.yul\":3161:3164   */\n      dup3\n        /* \"#utility.yul\":3157:3168   */\n      add\n        /* \"#utility.yul\":3151:3169   */\n      mload\n        /* \"#utility.yul\":3147:3148   */\n      dup2\n        /* \"#utility.yul\":3142:3145   */\n      dup5\n        /* \"#utility.yul\":3138:3149   */\n      add\n        /* \"#utility.yul\":3131:3170   */\n      mstore\n        /* \"#utility.yul\":3103:3105   */\n      0x20\n        /* \"#utility.yul\":3100:3101   */\n      dup2\n        /* \"#utility.yul\":3096:3106   */\n      add\n        /* \"#utility.yul\":3091:3106   */\n      swap1\n      pop\n        /* \"#utility.yul\":3067:3180   */\n      jump(tag_182)\n    tag_184:\n        /* \"#utility.yul\":3214:3215   */\n      0x00\n        /* \"#utility.yul\":3205:3211   */\n      dup5\n        /* \"#utility.yul\":3200:3203   */\n      dup5\n        /* \"#utility.yul\":3196:3212   */\n      add\n        /* \"#utility.yul\":3189:3216   */\n      mstore\n        /* \"#utility.yul\":3038:3222   */\n      pop\n        /* \"#utility.yul\":2976:3222   */\n      pop\n      pop\n      pop\n      jump\t// out\n        /* \"#utility.yul\":3228:3330   */\n    tag_110:\n        /* \"#utility.yul\":3269:3275   */\n      0x00\n        /* \"#utility.yul\":3320:3322   */\n      0x1f\n        /* \"#utility.yul\":3316:3323   */\n      not\n        /* \"#utility.yul\":3311:3313   */\n      0x1f\n        /* \"#utility.yul\":3304:3309   */\n      dup4\n        /* \"#utility.yul\":3300:3314   */\n      add\n        /* \"#utility.yul\":3296:3324   */\n      and\n        /* \"#utility.yul\":3286:3324   */\n      swap1\n      pop\n        /* \"#utility.yul\":3228:3330   */\n      swap2\n      swap1\n      pop\n      jump\t// out\n        /* \"#utility.yul\":3336:3713   */\n    tag_111:\n        /* \"#utility.yul\":3424:3427   */\n      0x00\n        /* \"#utility.yul\":3452:3491   */\n      tag_187\n        /* \"#utility.yul\":3485:3490   */\n      dup3\n        /* \"#utility.yul\":3452:3491   */\n      tag_107\n      jump\t// in\n    tag_187:\n        /* \"#utility.yul\":3507:3578   */\n      tag_188\n        /* \"#utility.yul\":3571:3577   */\n      dup2\n        /* \"#utility.yul\":3566:3569   */\n      dup6\n        /* \"#utility.yul\":3507:3578   */\n      tag_108\n      jump\t// in\n    tag_188:\n        /* \"#utility.yul\":3500:3578   */\n      swap4\n      pop\n        /* \"#utility.yul\":3587:3652   */\n      tag_189\n        /* \"#utility.yul\":3645:3651   */\n      dup2\n        /* \"#utility.yul\":3640:3643   */\n      dup6\n        /* \"#utility.yul\":3633:3637   */\n      0x20\n        /* \"#utility.yul\":3626:3631   */\n      dup7\n        /* \"#utility.yul\":3622:3638   */\n      add\n        /* \"#utility.yul\":3587:3652   */\n      tag_109\n      jump\t// in\n    tag_189:\n        /* \"#utility.yul\":3677:3706   */\n      tag_190\n        /* \"#utility.yul\":3699:3705   */\n      dup2\n        /* \"#utility.yul\":3677:3706   */\n      tag_110\n      jump\t// in\n    tag_190:\n        /* \"#utility.yul\":3672:3675   */\n      dup5\n        /* \"#utility.yul\":3668:3707   */\n      add\n        /* \"#utility.yul\":3661:3707   */\n      swap2\n      pop\n        /* \"#utility.yul\":3428:3713   */\n      pop\n        /* \"#utility.yul\":3336:3713   */\n      swap3\n      swap2\n      pop\n      pop\n      jump\t// out\n        /* \"#utility.yul\":3719:3827   */\n    tag_112:\n        /* \"#utility.yul\":3796:3820   */\n      tag_192\n        /* \"#utility.yul\":3814:3819   */\n      dup2\n        /* \"#utility.yul\":3796:3820   */\n      tag_95\n      jump\t// in\n    tag_192:\n        /* \"#utility.yul\":3791:3794   */\n      dup3\n        /* \"#utility.yul\":3784:3821   */\n      mstore\n        /* \"#utility.yul\":3719:3827   */\n      pop\n      pop\n      jump\t// out\n        /* \"#utility.yul\":3901:4416   */\n    tag_113:\n        /* \"#utility.yul\":4044:4048   */\n      0x40\n        /* \"#utility.yul\":4039:4042   */\n      dup3\n        /* \"#utility.yul\":4035:4049   */\n      add\n        /* \"#utility.yul\":4137:4141   */\n      0x00\n        /* \"#utility.yul\":4130:4135   */\n      dup3\n        /* \"#utility.yul\":4126:4142   */\n      add\n        /* \"#utility.yul\":4120:4143   */\n      mload\n        /* \"#utility.yul\":4156:4219   */\n      tag_194\n        /* \"#utility.yul\":4213:4217   */\n      0x00\n        /* \"#utility.yul\":4208:4211   */\n      dup6\n        /* \"#utility.yul\":4204:4218   */\n      add\n        /* \"#utility.yul\":4190:4202   */\n      dup3\n        /* \"#utility.yul\":4156:4219   */\n      tag_112\n      jump\t// in\n    tag_194:\n        /* \"#utility.yul\":4059:4229   */\n      pop\n        /* \"#utility.yul\":4317:4321   */\n      0x20\n        /* \"#utility.yul\":4310:4315   */\n      dup3\n        /* \"#utility.yul\":4306:4322   */\n      add\n        /* \"#utility.yul\":4300:4323   */\n      mload\n        /* \"#utility.yul\":4336:4399   */\n      tag_195\n        /* \"#utility.yul\":4393:4397   */\n      0x20\n        /* \"#utility.yul\":4388:4391   */\n      dup6\n        /* \"#utility.yul\":4384:4398   */\n      add\n        /* \"#utility.yul\":4370:4382   */\n      dup3\n        /* \"#utility.yul\":4336:4399   */\n      tag_112\n      jump\t// in\n    tag_195:\n        /* \"#utility.yul\":4239:4409   */\n      pop\n        /* \"#utility.yul\":4013:4416   */\n      pop\n        /* \"#utility.yul\":3901:4416   */\n      pop\n      pop\n      jump\t// out\n        /* \"#utility.yul\":4422:5360   */\n    tag_21:\n        /* \"#utility.yul\":4713:4717   */\n      0x00\n        /* \"#utility.yul\":4751:4754   */\n      0xc0\n        /* \"#utility.yul\":4740:4749   */\n      dup3\n        /* \"#utility.yul\":4736:4755   */\n      add\n        /* \"#utility.yul\":4728:4755   */\n      swap1\n      pop\n        /* \"#utility.yul\":4801:4810   */\n      dup2\n        /* \"#utility.yul\":4795:4799   */\n      dup2\n        /* \"#utility.yul\":4791:4811   */\n      sub\n        /* \"#utility.yul\":4787:4788   */\n      0x00\n        /* \"#utility.yul\":4776:4785   */\n      dup4\n        /* \"#utility.yul\":4772:4789   */\n      add\n        /* \"#utility.yul\":4765:4812   */\n      mstore\n        /* \"#utility.yul\":4829:4907   */\n      tag_197\n        /* \"#utility.yul\":4902:4906   */\n      dup2\n        /* \"#utility.yul\":4893:4899   */\n      dup9\n        /* \"#utility.yul\":4829:4907   */\n      tag_111\n      jump\t// in\n    tag_197:\n        /* \"#utility.yul\":4821:4907   */\n      swap1\n      pop\n        /* \"#utility.yul\":4954:4963   */\n      dup2\n        /* \"#utility.yul\":4948:4952   */\n      dup2\n        /* \"#utility.yul\":4944:4964   */\n      sub\n        /* \"#utility.yul\":4939:4941   */\n      0x20\n        /* \"#utility.yul\":4928:4937   */\n      dup4\n        /* \"#utility.yul\":4924:4942   */\n      add\n        /* \"#utility.yul\":4917:4965   */\n      mstore\n        /* \"#utility.yul\":4982:5060   */\n      tag_198\n        /* \"#utility.yul\":5055:5059   */\n      dup2\n        /* \"#utility.yul\":5046:5052   */\n      dup8\n        /* \"#utility.yul\":4982:5060   */\n      tag_111\n      jump\t// in\n    tag_198:\n        /* \"#utility.yul\":4974:5060   */\n      swap1\n      pop\n        /* \"#utility.yul\":5070:5142   */\n      tag_199\n        /* \"#utility.yul\":5138:5140   */\n      0x40\n        /* \"#utility.yul\":5127:5136   */\n      dup4\n        /* \"#utility.yul\":5123:5141   */\n      add\n        /* \"#utility.yul\":5114:5120   */\n      dup7\n        /* \"#utility.yul\":5070:5142   */\n      tag_101\n      jump\t// in\n    tag_199:\n        /* \"#utility.yul\":5152:5224   */\n      tag_200\n        /* \"#utility.yul\":5220:5222   */\n      0x60\n        /* \"#utility.yul\":5209:5218   */\n      dup4\n        /* \"#utility.yul\":5205:5223   */\n      add\n        /* \"#utility.yul\":5196:5202   */\n      dup6\n        /* \"#utility.yul\":5152:5224   */\n      tag_101\n      jump\t// in\n    tag_200:\n        /* \"#utility.yul\":5234:5353   */\n      tag_201\n        /* \"#utility.yul\":5348:5351   */\n      0x80\n        /* \"#utility.yul\":5337:5346   */\n      dup4\n        /* \"#utility.yul\":5333:5352   */\n      add\n        /* \"#utility.yul\":5324:5330   */\n      dup5\n        /* \"#utility.yul\":5234:5353   */\n      tag_113\n      jump\t// in\n    tag_201:\n        /* \"#utility.yul\":4422:5360   */\n      swap7\n      swap6\n      pop\n      pop\n      pop\n      pop\n      pop\n      pop\n      jump\t// out\n        /* \"#utility.yul\":5366:5488   */\n    tag_114:\n        /* \"#utility.yul\":5439:5463   */\n      tag_203\n        /* \"#utility.yul\":5457:5462   */\n      dup2\n        /* \"#utility.yul\":5439:5463   */\n      tag_99\n      jump\t// in\n    tag_203:\n        /* \"#utility.yul\":5432:5437   */\n      dup2\n        /* \"#utility.yul\":5429:5464   */\n      eq\n        /* \"#utility.yul\":5419:5482   */\n      tag_204\n      jumpi\n        /* \"#utility.yul\":5478:5479   */\n      0x00\n        /* \"#utility.yul\":5475:5476   */\n      dup1\n        /* \"#utility.yul\":5468:5480   */\n      revert\n        /* \"#utility.yul\":5419:5482   */\n    tag_204:\n        /* \"#utility.yul\":5366:5488   */\n      pop\n      jump\t// out\n        /* \"#utility.yul\":5494:5633   */\n    tag_115:\n        /* \"#utility.yul\":5540:5545   */\n      0x00\n        /* \"#utility.yul\":5578:5584   */\n      dup2\n        /* \"#utility.yul\":5565:5585   */\n      calldataload\n        /* \"#utility.yul\":5556:5585   */\n      swap1\n      pop\n        /* \"#utility.yul\":5594:5627   */\n      tag_206\n        /* \"#utility.yul\":5621:5626   */\n      dup2\n        /* \"#utility.yul\":5594:5627   */\n      tag_114\n      jump\t// in\n    tag_206:\n        /* \"#utility.yul\":5494:5633   */\n      swap3\n      swap2\n      pop\n      pop\n      jump\t// out\n        /* \"#utility.yul\":5639:6113   */\n    tag_24:\n        /* \"#utility.yul\":5707:5713   */\n      0x00\n        /* \"#utility.yul\":5715:5721   */\n      dup1\n        /* \"#utility.yul\":5764:5766   */\n      0x40\n        /* \"#utility.yul\":5752:5761   */\n      dup4\n        /* \"#utility.yul\":5743:5750   */\n      dup6\n        /* \"#utility.yul\":5739:5762   */\n      sub\n        /* \"#utility.yul\":5735:5767   */\n      slt\n        /* \"#utility.yul\":5732:5851   */\n      iszero\n      tag_208\n      jumpi\n        /* \"#utility.yul\":5770:5849   */\n      tag_209\n      tag_93\n      jump\t// in\n    tag_209:\n        /* \"#utility.yul\":5732:5851   */\n    tag_208:\n        /* \"#utility.yul\":5890:5891   */\n      0x00\n        /* \"#utility.yul\":5915:5968   */\n      tag_210\n        /* \"#utility.yul\":5960:5967   */\n      dup6\n        /* \"#utility.yul\":5951:5957   */\n      dup3\n        /* \"#utility.yul\":5940:5949   */\n      dup7\n        /* \"#utility.yul\":5936:5958   */\n      add\n        /* \"#utility.yul\":5915:5968   */\n      tag_115\n      jump\t// in\n    tag_210:\n        /* \"#utility.yul\":5905:5968   */\n      swap3\n      pop\n        /* \"#utility.yul\":5861:5978   */\n      pop\n        /* \"#utility.yul\":6017:6019   */\n      0x20\n        /* \"#utility.yul\":6043:6096   */\n      tag_211\n        /* \"#utility.yul\":6088:6095   */\n      dup6\n        /* \"#utility.yul\":6079:6085   */\n      dup3\n        /* \"#utility.yul\":6068:6077   */\n      dup7\n        /* \"#utility.yul\":6064:6086   */\n      add\n        /* \"#utility.yul\":6043:6096   */\n      tag_97\n      jump\t// in\n    tag_211:\n        /* \"#utility.yul\":6033:6096   */\n      swap2\n      pop\n        /* \"#utility.yul\":5988:6106   */\n      pop\n        /* \"#utility.yul\":5639:6113   */\n      swap3\n      pop\n      swap3\n      swap1\n      pop\n      jump\t// out\n        /* \"#utility.yul\":6119:6575   */\n    tag_27:\n        /* \"#utility.yul\":6275:6279   */\n      0x00\n        /* \"#utility.yul\":6313:6315   */\n      0x60\n        /* \"#utility.yul\":6302:6311   */\n      dup3\n        /* \"#utility.yul\":6298:6316   */\n      add\n        /* \"#utility.yul\":6290:6316   */\n      swap1\n      pop\n        /* \"#utility.yul\":6326:6404   */\n      tag_213\n        /* \"#utility.yul\":6401:6402   */\n      0x00\n        /* \"#utility.yul\":6390:6399   */\n      dup4\n        /* \"#utility.yul\":6386:6403   */\n      add\n        /* \"#utility.yul\":6377:6383   */\n      dup7\n        /* \"#utility.yul\":6326:6404   */\n      tag_106\n      jump\t// in\n    tag_213:\n        /* \"#utility.yul\":6414:6486   */\n      tag_214\n        /* \"#utility.yul\":6482:6484   */\n      0x20\n        /* \"#utility.yul\":6471:6480   */\n      dup4\n        /* \"#utility.yul\":6467:6485   */\n      add\n        /* \"#utility.yul\":6458:6464   */\n      dup6\n        /* \"#utility.yul\":6414:6486   */\n      tag_101\n      jump\t// in\n    tag_214:\n        /* \"#utility.yul\":6496:6568   */\n      tag_215\n        /* \"#utility.yul\":6564:6566   */\n      0x40\n        /* \"#utility.yul\":6553:6562   */\n      dup4\n        /* \"#utility.yul\":6549:6567   */\n      add\n        /* \"#utility.yul\":6540:6546   */\n      dup5\n        /* \"#utility.yul\":6496:6568   */\n      tag_101\n      jump\t// in\n    tag_215:\n        /* \"#utility.yul\":6119:6575   */\n      swap5\n      swap4\n      pop\n      pop\n      pop\n      pop\n      jump\t// out\n        /* \"#utility.yul\":6581:6698   */\n    tag_116:\n        /* \"#utility.yul\":6690:6691   */\n      0x00\n        /* \"#utility.yul\":6687:6688   */\n      dup1\n        /* \"#utility.yul\":6680:6692   */\n      revert\n        /* \"#utility.yul\":6704:6821   */\n    tag_117:\n        /* \"#utility.yul\":6813:6814   */\n      0x00\n        /* \"#utility.yul\":6810:6811   */\n      dup1\n        /* \"#utility.yul\":6803:6815   */\n      revert\n        /* \"#utility.yul\":6827:6944   */\n    tag_118:\n        /* \"#utility.yul\":6936:6937   */\n      0x00\n        /* \"#utility.yul\":6933:6934   */\n      dup1\n        /* \"#utility.yul\":6926:6938   */\n      revert\n        /* \"#utility.yul\":6964:7517   */\n    tag_119:\n        /* \"#utility.yul\":7022:7030   */\n      0x00\n        /* \"#utility.yul\":7032:7038   */\n      dup1\n        /* \"#utility.yul\":7082:7085   */\n      dup4\n        /* \"#utility.yul\":7075:7079   */\n      0x1f\n        /* \"#utility.yul\":7067:7073   */\n      dup5\n        /* \"#utility.yul\":7063:7080   */\n      add\n        /* \"#utility.yul\":7059:7086   */\n      slt\n        /* \"#utility.yul\":7049:7171   */\n      tag_220\n      jumpi\n        /* \"#utility.yul\":7090:7169   */\n      tag_221\n      tag_116\n      jump\t// in\n    tag_221:\n        /* \"#utility.yul\":7049:7171   */\n    tag_220:\n        /* \"#utility.yul\":7203:7209   */\n      dup3\n        /* \"#utility.yul\":7190:7210   */\n      calldataload\n        /* \"#utility.yul\":7180:7210   */\n      swap1\n      pop\n        /* \"#utility.yul\":7233:7251   */\n      0xffffffffffffffff\n        /* \"#utility.yul\":7225:7231   */\n      dup2\n        /* \"#utility.yul\":7222:7252   */\n      gt\n        /* \"#utility.yul\":7219:7336   */\n      iszero\n      tag_222\n      jumpi\n        /* \"#utility.yul\":7255:7334   */\n      tag_223\n      tag_117\n      jump\t// in\n    tag_223:\n        /* \"#utility.yul\":7219:7336   */\n    tag_222:\n        /* \"#utility.yul\":7369:7373   */\n      0x20\n        /* \"#utility.yul\":7361:7367   */\n      dup4\n        /* \"#utility.yul\":7357:7374   */\n      add\n        /* \"#utility.yul\":7345:7374   */\n      swap2\n      pop\n        /* \"#utility.yul\":7423:7426   */\n      dup4\n        /* \"#utility.yul\":7415:7419   */\n      0x01\n        /* \"#utility.yul\":7407:7413   */\n      dup3\n        /* \"#utility.yul\":7403:7420   */\n      mul\n        /* \"#utility.yul\":7393:7401   */\n      dup4\n        /* \"#utility.yul\":7389:7421   */\n      add\n        /* \"#utility.yul\":7386:7427   */\n      gt\n        /* \"#utility.yul\":7383:7511   */\n      iszero\n      tag_224\n      jumpi\n        /* \"#utility.yul\":7430:7509   */\n      tag_225\n      tag_118\n      jump\t// in\n    tag_225:\n        /* \"#utility.yul\":7383:7511   */\n    tag_224:\n        /* \"#utility.yul\":6964:7517   */\n      swap3\n      pop\n      swap3\n      swap1\n      pop\n      jump\t// out\n        /* \"#utility.yul\":7523:8542   */\n    tag_34:\n        /* \"#utility.yul\":7624:7630   */\n      0x00\n        /* \"#utility.yul\":7632:7638   */\n      dup1\n        /* \"#utility.yul\":7640:7646   */\n      0x00\n        /* \"#utility.yul\":7648:7654   */\n      dup1\n        /* \"#utility.yul\":7656:7662   */\n      0x00\n        /* \"#utility.yul\":7705:7707   */\n      0x60\n        /* \"#utility.yul\":7693:7702   */\n      dup7\n        /* \"#utility.yul\":7684:7691   */\n      dup9\n        /* \"#utility.yul\":7680:7703   */\n      sub\n        /* \"#utility.yul\":7676:7708   */\n      slt\n        /* \"#utility.yul\":7673:7792   */\n      iszero\n      tag_227\n      jumpi\n        /* \"#utility.yul\":7711:7790   */\n      tag_228\n      tag_93\n      jump\t// in\n    tag_228:\n        /* \"#utility.yul\":7673:7792   */\n    tag_227:\n        /* \"#utility.yul\":7859:7860   */\n      0x00\n        /* \"#utility.yul\":7848:7857   */\n      dup7\n        /* \"#utility.yul\":7844:7861   */\n      add\n        /* \"#utility.yul\":7831:7862   */\n      calldataload\n        /* \"#utility.yul\":7889:7907   */\n      0xffffffffffffffff\n        /* \"#utility.yul\":7881:7887   */\n      dup2\n        /* \"#utility.yul\":7878:7908   */\n      gt\n        /* \"#utility.yul\":7875:7992   */\n      iszero\n      tag_229\n      jumpi\n        /* \"#utility.yul\":7911:7990   */\n      tag_230\n      tag_94\n      jump\t// in\n    tag_230:\n        /* \"#utility.yul\":7875:7992   */\n    tag_229:\n        /* \"#utility.yul\":8024:8089   */\n      tag_231\n        /* \"#utility.yul\":8081:8088   */\n      dup9\n        /* \"#utility.yul\":8072:8078   */\n      dup3\n        /* \"#utility.yul\":8061:8070   */\n      dup10\n        /* \"#utility.yul\":8057:8079   */\n      add\n        /* \"#utility.yul\":8024:8089   */\n      tag_119\n      jump\t// in\n    tag_231:\n        /* \"#utility.yul\":8006:8089   */\n      swap6\n      pop\n      swap6\n      pop\n        /* \"#utility.yul\":7802:8099   */\n      pop\n        /* \"#utility.yul\":8166:8168   */\n      0x20\n        /* \"#utility.yul\":8155:8164   */\n      dup7\n        /* \"#utility.yul\":8151:8169   */\n      add\n        /* \"#utility.yul\":8138:8170   */\n      calldataload\n        /* \"#utility.yul\":8197:8215   */\n      0xffffffffffffffff\n        /* \"#utility.yul\":8189:8195   */\n      dup2\n        /* \"#utility.yul\":8186:8216   */\n      gt\n        /* \"#utility.yul\":8183:8300   */\n      iszero\n      tag_232\n      jumpi\n        /* \"#utility.yul\":8219:8298   */\n      tag_233\n      tag_94\n      jump\t// in\n    tag_233:\n        /* \"#utility.yul\":8183:8300   */\n    tag_232:\n        /* \"#utility.yul\":8332:8397   */\n      tag_234\n        /* \"#utility.yul\":8389:8396   */\n      dup9\n        /* \"#utility.yul\":8380:8386   */\n      dup3\n        /* \"#utility.yul\":8369:8378   */\n      dup10\n        /* \"#utility.yul\":8365:8387   */\n      add\n        /* \"#utility.yul\":8332:8397   */\n      tag_119\n      jump\t// in\n    tag_234:\n        /* \"#utility.yul\":8314:8397   */\n      swap4\n      pop\n      swap4\n      pop\n        /* \"#utility.yul\":8109:8407   */\n      pop\n        /* \"#utility.yul\":8446:8448   */\n      0x40\n        /* \"#utility.yul\":8472:8525   */\n      tag_235\n        /* \"#utility.yul\":8517:8524   */\n      dup9\n        /* \"#utility.yul\":8508:8514   */\n      dup3\n        /* \"#utility.yul\":8497:8506   */\n      dup10\n        /* \"#utility.yul\":8493:8515   */\n      add\n        /* \"#utility.yul\":8472:8525   */\n      tag_97\n      jump\t// in\n    tag_235:\n        /* \"#utility.yul\":8462:8525   */\n      swap2\n      pop\n        /* \"#utility.yul\":8417:8535   */\n      pop\n        /* \"#utility.yul\":7523:8542   */\n      swap3\n      swap6\n      pop\n      swap3\n      swap6\n      swap1\n      swap4\n      pop\n      jump\t// out\n        /* \"#utility.yul\":8548:8638   */\n    tag_120:\n        /* \"#utility.yul\":8582:8589   */\n      0x00\n        /* \"#utility.yul\":8625:8630   */\n      dup2\n        /* \"#utility.yul\":8618:8631   */\n      iszero\n        /* \"#utility.yul\":8611:8632   */\n      iszero\n        /* \"#utility.yul\":8600:8632   */\n      swap1\n      pop\n        /* \"#utility.yul\":8548:8638   */\n      swap2\n      swap1\n      pop\n      jump\t// out\n        /* \"#utility.yul\":8644:8753   */\n    tag_121:\n        /* \"#utility.yul\":8725:8746   */\n      tag_238\n        /* \"#utility.yul\":8740:8745   */\n      dup2\n        /* \"#utility.yul\":8725:8746   */\n      tag_120\n      jump\t// in\n    tag_238:\n        /* \"#utility.yul\":8720:8723   */\n      dup3\n        /* \"#utility.yul\":8713:8747   */\n      mstore\n        /* \"#utility.yul\":8644:8753   */\n      pop\n      pop\n      jump\t// out\n        /* \"#utility.yul\":8759:8969   */\n    tag_37:\n        /* \"#utility.yul\":8846:8850   */\n      0x00\n        /* \"#utility.yul\":8884:8886   */\n      0x20\n        /* \"#utility.yul\":8873:8882   */\n      dup3\n        /* \"#utility.yul\":8869:8887   */\n      add\n        /* \"#utility.yul\":8861:8887   */\n      swap1\n      pop\n        /* \"#utility.yul\":8897:8962   */\n      tag_240\n        /* \"#utility.yul\":8959:8960   */\n      0x00\n        /* \"#utility.yul\":8948:8957   */\n      dup4\n        /* \"#utility.yul\":8944:8961   */\n      add\n        /* \"#utility.yul\":8935:8941   */\n      dup5\n        /* \"#utility.yul\":8897:8962   */\n      tag_121\n      jump\t// in\n    tag_240:\n        /* \"#utility.yul\":8759:8969   */\n      swap3\n      swap2\n      pop\n      pop\n      jump\t// out\n        /* \"#utility.yul\":8975:9594   */\n    tag_40:\n        /* \"#utility.yul\":9052:9058   */\n      0x00\n        /* \"#utility.yul\":9060:9066   */\n      dup1\n        /* \"#utility.yul\":9068:9074   */\n      0x00\n        /* \"#utility.yul\":9117:9119   */\n      0x60\n        /* \"#utility.yul\":9105:9114   */\n      dup5\n        /* \"#utility.yul\":9096:9103   */\n      dup7\n        /* \"#utility.yul\":9092:9115   */\n      sub\n        /* \"#utility.yul\":9088:9120   */\n      slt\n        /* \"#utility.yul\":9085:9204   */\n      iszero\n      tag_242\n      jumpi\n        /* \"#utility.yul\":9123:9202   */\n      tag_243\n      tag_93\n      jump\t// in\n    tag_243:\n        /* \"#utility.yul\":9085:9204   */\n    tag_242:\n        /* \"#utility.yul\":9243:9244   */\n      0x00\n        /* \"#utility.yul\":9268:9321   */\n      tag_244\n        /* \"#utility.yul\":9313:9320   */\n      dup7\n        /* \"#utility.yul\":9304:9310   */\n      dup3\n        /* \"#utility.yul\":9293:9302   */\n      dup8\n        /* \"#utility.yul\":9289:9311   */\n      add\n        /* \"#utility.yul\":9268:9321   */\n      tag_97\n      jump\t// in\n    tag_244:\n        /* \"#utility.yul\":9258:9321   */\n      swap4\n      pop\n        /* \"#utility.yul\":9214:9331   */\n      pop\n        /* \"#utility.yul\":9370:9372   */\n      0x20\n        /* \"#utility.yul\":9396:9449   */\n      tag_245\n        /* \"#utility.yul\":9441:9448   */\n      dup7\n        /* \"#utility.yul\":9432:9438   */\n      dup3\n        /* \"#utility.yul\":9421:9430   */\n      dup8\n        /* \"#utility.yul\":9417:9439   */\n      add\n        /* \"#utility.yul\":9396:9449   */\n      tag_97\n      jump\t// in\n    tag_245:\n        /* \"#utility.yul\":9386:9449   */\n      swap3\n      pop\n        /* \"#utility.yul\":9341:9459   */\n      pop\n        /* \"#utility.yul\":9498:9500   */\n      0x40\n        /* \"#utility.yul\":9524:9577   */\n      tag_246\n        /* \"#utility.yul\":9569:9576   */\n      dup7\n        /* \"#utility.yul\":9560:9566   */\n      dup3\n        /* \"#utility.yul\":9549:9558   */\n      dup8\n        /* \"#utility.yul\":9545:9567   */\n      add\n        /* \"#utility.yul\":9524:9577   */\n      tag_97\n      jump\t// in\n    tag_246:\n        /* \"#utility.yul\":9514:9577   */\n      swap2\n      pop\n        /* \"#utility.yul\":9469:9587   */\n      pop\n        /* \"#utility.yul\":8975:9594   */\n      swap3\n      pop\n      swap3\n      pop\n      swap3\n      jump\t// out\n        /* \"#utility.yul\":9600:9822   */\n    tag_45:\n        /* \"#utility.yul\":9693:9697   */\n      0x00\n        /* \"#utility.yul\":9731:9733   */\n      0x20\n        /* \"#utility.yul\":9720:9729   */\n      dup3\n        /* \"#utility.yul\":9716:9734   */\n      add\n        /* \"#utility.yul\":9708:9734   */\n      swap1\n      pop\n        /* \"#utility.yul\":9744:9815   */\n      tag_248\n        /* \"#utility.yul\":9812:9813   */\n      0x00\n        /* \"#utility.yul\":9801:9810   */\n      dup4\n        /* \"#utility.yul\":9797:9814   */\n      add\n        /* \"#utility.yul\":9788:9794   */\n      dup5\n        /* \"#utility.yul\":9744:9815   */\n      tag_100\n      jump\t// in\n    tag_248:\n        /* \"#utility.yul\":9600:9822   */\n      swap3\n      swap2\n      pop\n      pop\n      jump\t// out\n        /* \"#utility.yul\":9828:10008   */\n    tag_122:\n        /* \"#utility.yul\":9876:9953   */\n      0x4e487b7100000000000000000000000000000000000000000000000000000000\n        /* \"#utility.yul\":9873:9874   */\n      0x00\n        /* \"#utility.yul\":9866:9954   */\n      mstore\n        /* \"#utility.yul\":9973:9977   */\n      0x22\n        /* \"#utility.yul\":9970:9971   */\n      0x04\n        /* \"#utility.yul\":9963:9978   */\n      mstore\n        /* \"#utility.yul\":9997:10001   */\n      0x24\n        /* \"#utility.yul\":9994:9995   */\n      0x00\n        /* \"#utility.yul\":9987:10002   */\n      revert\n        /* \"#utility.yul\":10014:10334   */\n    tag_47:\n        /* \"#utility.yul\":10058:10064   */\n      0x00\n        /* \"#utility.yul\":10095:10096   */\n      0x02\n        /* \"#utility.yul\":10089:10093   */\n      dup3\n        /* \"#utility.yul\":10085:10097   */\n      div\n        /* \"#utility.yul\":10075:10097   */\n      swap1\n      pop\n        /* \"#utility.yul\":10142:10143   */\n      0x01\n        /* \"#utility.yul\":10136:10140   */\n      dup3\n        /* \"#utility.yul\":10132:10144   */\n      and\n        /* \"#utility.yul\":10163:10181   */\n      dup1\n        /* \"#utility.yul\":10153:10234   */\n      tag_251\n      jumpi\n        /* \"#utility.yul\":10219:10223   */\n      0x7f\n        /* \"#utility.yul\":10211:10217   */\n      dup3\n        /* \"#utility.yul\":10207:10224   */\n      and\n        /* \"#utility.yul\":10197:10224   */\n      swap2\n      pop\n        /* \"#utility.yul\":10153:10234   */\n    tag_251:\n        /* \"#utility.yul\":10281:10283   */\n      0x20\n        /* \"#utility.yul\":10273:10279   */\n      dup3\n        /* \"#utility.yul\":10270:10284   */\n      lt\n        /* \"#utility.yul\":10250:10268   */\n      dup2\n        /* \"#utility.yul\":10247:10285   */\n      sub\n        /* \"#utility.yul\":10244:10328   */\n      tag_252\n      jumpi\n        /* \"#utility.yul\":10300:10318   */\n      tag_253\n      tag_122\n      jump\t// in\n    tag_253:\n        /* \"#utility.yul\":10244:10328   */\n    tag_252:\n        /* \"#utility.yul\":10065:10334   */\n      pop\n        /* \"#utility.yul\":10014:10334   */\n      swap2\n      swap1\n      pop\n      jump\t// out\n        /* \"#utility.yul\":10340:10499   */\n    tag_123:\n        /* \"#utility.yul\":10480:10491   */\n      0x4e6f74204f776e65720000000000000000000000000000000000000000000000\n        /* \"#utility.yul\":10476:10477   */\n      0x00\n        /* \"#utility.yul\":10468:10474   */\n      dup3\n        /* \"#utility.yul\":10464:10478   */\n      add\n        /* \"#utility.yul\":10457:10492   */\n      mstore\n        /* \"#utility.yul\":10340:10499   */\n      pop\n      jump\t// out\n        /* \"#utility.yul\":10505:10870   */\n    tag_124:\n        /* \"#utility.yul\":10647:10650   */\n      0x00\n        /* \"#utility.yul\":10668:10734   */\n      tag_256\n        /* \"#utility.yul\":10732:10733   */\n      0x09\n        /* \"#utility.yul\":10727:10730   */\n      dup4\n        /* \"#utility.yul\":10668:10734   */\n      tag_108\n      jump\t// in\n    tag_256:\n        /* \"#utility.yul\":10661:10734   */\n      swap2\n      pop\n        /* \"#utility.yul\":10743:10836   */\n      tag_257\n        /* \"#utility.yul\":10832:10835   */\n      dup3\n        /* \"#utility.yul\":10743:10836   */\n      tag_123\n      jump\t// in\n    tag_257:\n        /* \"#utility.yul\":10861:10863   */\n      0x20\n        /* \"#utility.yul\":10856:10859   */\n      dup3\n        /* \"#utility.yul\":10852:10864   */\n      add\n        /* \"#utility.yul\":10845:10864   */\n      swap1\n      pop\n        /* \"#utility.yul\":10505:10870   */\n      swap2\n      swap1\n      pop\n      jump\t// out\n        /* \"#utility.yul\":10876:11295   */\n    tag_72:\n        /* \"#utility.yul\":11042:11046   */\n      0x00\n        /* \"#utility.yul\":11080:11082   */\n      0x20\n        /* \"#utility.yul\":11069:11078   */\n      dup3\n        /* \"#utility.yul\":11065:11083   */\n      add\n        /* \"#utility.yul\":11057:11083   */\n      swap1\n      pop\n        /* \"#utility.yul\":11129:11138   */\n      dup2\n        /* \"#utility.yul\":11123:11127   */\n      dup2\n        /* \"#utility.yul\":11119:11139   */\n      sub\n        /* \"#utility.yul\":11115:11116   */\n      0x00\n        /* \"#utility.yul\":11104:11113   */\n      dup4\n        /* \"#utility.yul\":11100:11117   */\n      add\n        /* \"#utility.yul\":11093:11140   */\n      mstore\n        /* \"#utility.yul\":11157:11288   */\n      tag_259\n        /* \"#utility.yul\":11283:11287   */\n      dup2\n        /* \"#utility.yul\":11157:11288   */\n      tag_124\n      jump\t// in\n    tag_259:\n        /* \"#utility.yul\":11149:11288   */\n      swap1\n      pop\n        /* \"#utility.yul\":10876:11295   */\n      swap2\n      swap1\n      pop\n      jump\t// out\n        /* \"#utility.yul\":11301:11481   */\n    tag_125:\n        /* \"#utility.yul\":11349:11426   */\n      0x4e487b7100000000000000000000000000000000000000000000000000000000\n        /* \"#utility.yul\":11346:11347   */\n      0x00\n        /* \"#utility.yul\":11339:11427   */\n      mstore\n        /* \"#utility.yul\":11446:11450   */\n      0x11\n        /* \"#utility.yul\":11443:11444   */\n      0x04\n        /* \"#utility.yul\":11436:11451   */\n      mstore\n        /* \"#utility.yul\":11470:11474   */\n      0x24\n        /* \"#utility.yul\":11467:11468   */\n      0x00\n        /* \"#utility.yul\":11460:11475   */\n      revert\n        /* \"#utility.yul\":11487:11678   */\n    tag_74:\n        /* \"#utility.yul\":11527:11530   */\n      0x00\n        /* \"#utility.yul\":11546:11566   */\n      tag_262\n        /* \"#utility.yul\":11564:11565   */\n      dup3\n        /* \"#utility.yul\":11546:11566   */\n      tag_95\n      jump\t// in\n    tag_262:\n        /* \"#utility.yul\":11541:11566   */\n      swap2\n      pop\n        /* \"#utility.yul\":11580:11600   */\n      tag_263\n        /* \"#utility.yul\":11598:11599   */\n      dup4\n        /* \"#utility.yul\":11580:11600   */\n      tag_95\n      jump\t// in\n    tag_263:\n        /* \"#utility.yul\":11575:11600   */\n      swap3\n      pop\n        /* \"#utility.yul\":11623:11624   */\n      dup3\n        /* \"#utility.yul\":11620:11621   */\n      dup3\n        /* \"#utility.yul\":11616:11625   */\n      add\n        /* \"#utility.yul\":11609:11625   */\n      swap1\n      pop\n        /* \"#utility.yul\":11644:11647   */\n      dup1\n        /* \"#utility.yul\":11641:11642   */\n      dup3\n        /* \"#utility.yul\":11638:11648   */\n      gt\n        /* \"#utility.yul\":11635:11671   */\n      iszero\n      tag_264\n      jumpi\n        /* \"#utility.yul\":11651:11669   */\n      tag_265\n      tag_125\n      jump\t// in\n    tag_265:\n        /* \"#utility.yul\":11635:11671   */\n    tag_264:\n        /* \"#utility.yul\":11487:11678   */\n      swap3\n      swap2\n      pop\n      pop\n      jump\t// out\n        /* \"#utility.yul\":11684:11864   */\n    tag_126:\n        /* \"#utility.yul\":11732:11809   */\n      0x4e487b7100000000000000000000000000000000000000000000000000000000\n        /* \"#utility.yul\":11729:11730   */\n      0x00\n        /* \"#utility.yul\":11722:11810   */\n      mstore\n        /* \"#utility.yul\":11829:11833   */\n      0x41\n        /* \"#utility.yul\":11826:11827   */\n      0x04\n        /* \"#utility.yul\":11819:11834   */\n      mstore\n        /* \"#utility.yul\":11853:11857   */\n      0x24\n        /* \"#utility.yul\":11850:11851   */\n      0x00\n        /* \"#utility.yul\":11843:11858   */\n      revert\n        /* \"#utility.yul\":11870:12011   */\n    tag_127:\n        /* \"#utility.yul\":11919:11923   */\n      0x00\n        /* \"#utility.yul\":11942:11945   */\n      dup2\n        /* \"#utility.yul\":11934:11945   */\n      swap1\n      pop\n        /* \"#utility.yul\":11965:11968   */\n      dup2\n        /* \"#utility.yul\":11962:11963   */\n      0x00\n        /* \"#utility.yul\":11955:11969   */\n      mstore\n        /* \"#utility.yul\":11999:12003   */\n      0x20\n        /* \"#utility.yul\":11996:11997   */\n      0x00\n        /* \"#utility.yul\":11986:12004   */\n      keccak256\n        /* \"#utility.yul\":11978:12004   */\n      swap1\n      pop\n        /* \"#utility.yul\":11870:12011   */\n      swap2\n      swap1\n      pop\n      jump\t// out\n        /* \"#utility.yul\":12017:12110   */\n    tag_128:\n        /* \"#utility.yul\":12054:12060   */\n      0x00\n        /* \"#utility.yul\":12101:12103   */\n      0x20\n        /* \"#utility.yul\":12096:12098   */\n      0x1f\n        /* \"#utility.yul\":12089:12094   */\n      dup4\n        /* \"#utility.yul\":12085:12099   */\n      add\n        /* \"#utility.yul\":12081:12104   */\n      div\n        /* \"#utility.yul\":12071:12104   */\n      swap1\n      pop\n        /* \"#utility.yul\":12017:12110   */\n      swap2\n      swap1\n      pop\n      jump\t// out\n        /* \"#utility.yul\":12116:12223   */\n    tag_129:\n        /* \"#utility.yul\":12160:12168   */\n      0x00\n        /* \"#utility.yul\":12210:12215   */\n      dup3\n        /* \"#utility.yul\":12204:12208   */\n      dup3\n        /* \"#utility.yul\":12200:12216   */\n      shl\n        /* \"#utility.yul\":12179:12216   */\n      swap1\n      pop\n        /* \"#utility.yul\":12116:12223   */\n      swap3\n      swap2\n      pop\n      pop\n      jump\t// out\n        /* \"#utility.yul\":12229:12622   */\n    tag_130:\n        /* \"#utility.yul\":12298:12304   */\n      0x00\n        /* \"#utility.yul\":12348:12349   */\n      0x08\n        /* \"#utility.yul\":12336:12346   */\n      dup4\n        /* \"#utility.yul\":12332:12350   */\n      mul\n        /* \"#utility.yul\":12371:12468   */\n      tag_271\n        /* \"#utility.yul\":12401:12467   */\n      0xffffffffffffffffffffffffffffffffffffffffffffffffffffffffffffffff\n        /* \"#utility.yul\":12390:12399   */\n      dup3\n        /* \"#utility.yul\":12371:12468   */\n      tag_129\n      jump\t// in\n    tag_271:\n        /* \"#utility.yul\":12489:12528   */\n      tag_272\n        /* \"#utility.yul\":12519:12527   */\n      dup7\n        /* \"#utility.yul\":12508:12517   */\n      dup4\n        /* \"#utility.yul\":12489:12528   */\n      tag_129\n      jump\t// in\n    tag_272:\n        /* \"#utility.yul\":12477:12528   */\n      swap6\n      pop\n        /* \"#utility.yul\":12561:12565   */\n      dup1\n        /* \"#utility.yul\":12557:12566   */\n      not\n        /* \"#utility.yul\":12550:12555   */\n      dup5\n        /* \"#utility.yul\":12546:12567   */\n      and\n        /* \"#utility.yul\":12537:12567   */\n      swap4\n      pop\n        /* \"#utility.yul\":12610:12614   */\n      dup1\n        /* \"#utility.yul\":12600:12608   */\n      dup7\n        /* \"#utility.yul\":12596:12615   */\n      and\n        /* \"#utility.yul\":12589:12594   */\n      dup5\n        /* \"#utility.yul\":12586:12616   */\n      or\n        /* \"#utility.yul\":12576:12616   */\n      swap3\n      pop\n        /* \"#utility.yul\":12305:12622   */\n      pop\n      pop\n        /* \"#utility.yul\":12229:12622   */\n      swap4\n      swap3\n      pop\n      pop\n      pop\n      jump\t// out\n        /* \"#utility.yul\":12628:12688   */\n    tag_131:\n        /* \"#utility.yul\":12656:12659   */\n      0x00\n        /* \"#utility.yul\":12677:12682   */\n      dup2\n        /* \"#utility.yul\":12670:12682   */\n      swap1\n      pop\n        /* \"#utility.yul\":12628:12688   */\n      swap2\n      swap1\n      pop\n      jump\t// out\n        /* \"#utility.yul\":12694:12836   */\n    tag_132:\n        /* \"#utility.yul\":12744:12753   */\n      0x00\n        /* \"#utility.yul\":12777:12830   */\n      tag_275\n        /* \"#utility.yul\":12795:12829   */\n      tag_276\n        /* \"#utility.yul\":12804:12828   */\n      tag_277\n        /* \"#utility.yul\":12822:12827   */\n      dup5\n        /* \"#utility.yul\":12804:12828   */\n      tag_95\n      jump\t// in\n    tag_277:\n        /* \"#utility.yul\":12795:12829   */\n      tag_131\n      jump\t// in\n    tag_276:\n        /* \"#utility.yul\":12777:12830   */\n      tag_95\n      jump\t// in\n    tag_275:\n        /* \"#utility.yul\":12764:12830   */\n      swap1\n      pop\n        /* \"#utility.yul\":12694:12836   */\n      swap2\n      swap1\n      pop\n      jump\t// out\n        /* \"#utility.yul\":12842:12917   */\n    tag_133:\n        /* \"#utility.yul\":12885:12888   */\n      0x00\n        /* \"#utility.yul\":12906:12911   */\n      dup2\n        /* \"#utility.yul\":12899:12911   */\n      swap1\n      pop\n        /* \"#utility.yul\":12842:12917   */\n      swap2\n      swap1\n      pop\n      jump\t// out\n        /* \"#utility.yul\":12923:13192   */\n    tag_134:\n        /* \"#utility.yul\":13033:13072   */\n      tag_280\n        /* \"#utility.yul\":13064:13071   */\n      dup4\n        /* \"#utility.yul\":13033:13072   */\n      tag_132\n      jump\t// in\n    tag_280:\n        /* \"#utility.yul\":13094:13185   */\n      tag_281\n        /* \"#utility.yul\":13143:13184   */\n      tag_282\n        /* \"#utility.yul\":13167:13183   */\n      dup3\n        /* \"#utility.yul\":13143:13184   */\n      tag_133\n      jump\t// in\n    tag_282:\n        /* \"#utility.yul\":13135:13141   */\n      dup5\n        /* \"#utility.yul\":13128:13132   */\n      dup5\n        /* \"#utility.yul\":13122:13133   */\n      sload\n        /* \"#utility.yul\":13094:13185   */\n      tag_130\n      jump\t// in\n    tag_281:\n        /* \"#utility.yul\":13088:13092   */\n      dup3\n        /* \"#utility.yul\":13081:13186   */\n      sstore\n        /* \"#utility.yul\":12999:13192   */\n      pop\n        /* \"#utility.yul\":12923:13192   */\n      pop\n      pop\n      pop\n      jump\t// out\n        /* \"#utility.yul\":13198:13271   */\n    tag_135:\n        /* \"#utility.yul\":13243:13246   */\n      0x00\n        /* \"#utility.yul\":13198:13271   */\n      swap1\n      jump\t// out\n        /* \"#utility.yul\":13277:13466   */\n    tag_136:\n        /* \"#utility.yul\":13354:13386   */\n      tag_285\n      tag_135\n      jump\t// in\n    tag_285:\n        /* \"#utility.yul\":13395:13460   */\n      tag_286\n        /* \"#utility.yul\":13453:13459   */\n      dup2\n        /* \"#utility.yul\":13445:13451   */\n      dup5\n        /* \"#utility.yul\":13439:13443   */\n      dup5\n        /* \"#utility.yul\":13395:13460   */\n      tag_134\n      jump\t// in\n    tag_286:\n        /* \"#utility.yul\":13330:13466   */\n      pop\n        /* \"#utility.yul\":13277:13466   */\n      pop\n      pop\n      jump\t// out\n        /* \"#utility.yul\":13472:13658   */\n    tag_137:\n        /* \"#utility.yul\":13532:13652   */\n    tag_288:\n        /* \"#utility.yul\":13549:13552   */\n      dup2\n        /* \"#utility.yul\":13542:13547   */\n      dup2\n        /* \"#utility.yul\":13539:13553   */\n      lt\n        /* \"#utility.yul\":13532:13652   */\n      iszero\n      tag_290\n      jumpi\n        /* \"#utility.yul\":13603:13642   */\n      tag_291\n        /* \"#utility.yul\":13640:13641   */\n      0x00\n        /* \"#utility.yul\":13633:13638   */\n      dup3\n        /* \"#utility.yul\":13603:13642   */\n      tag_136\n      jump\t// in\n    tag_291:\n        /* \"#utility.yul\":13576:13577   */\n      0x01\n        /* \"#utility.yul\":13569:13574   */\n      dup2\n        /* \"#utility.yul\":13565:13578   */\n      add\n        /* \"#utility.yul\":13556:13578   */\n      swap1\n      pop\n        /* \"#utility.yul\":13532:13652   */\n      jump(tag_288)\n    tag_290:\n        /* \"#utility.yul\":13472:13658   */\n      pop\n      pop\n      jump\t// out\n        /* \"#utility.yul\":13664:14207   */\n    tag_138:\n        /* \"#utility.yul\":13765:13767   */\n      0x1f\n        /* \"#utility.yul\":13760:13763   */\n      dup3\n        /* \"#utility.yul\":13757:13768   */\n      gt\n        /* \"#utility.yul\":13754:14200   */\n      iszero\n      tag_293\n      jumpi\n        /* \"#utility.yul\":13799:13837   */\n      tag_294\n        /* \"#utility.yul\":13831:13836   */\n      dup2\n        /* \"#utility.yul\":13799:13837   */\n      tag_127\n      jump\t// in\n    tag_294:\n        /* \"#utility.yul\":13883:13912   */\n      tag_295\n        /* \"#utility.yul\":13901:13911   */\n      dup5\n        /* \"#utility.yul\":13883:13912   */\n      tag_128\n      jump\t// in\n    tag_295:\n        /* \"#utility.yul\":13873:13881   */\n      dup2\n        /* \"#utility.yul\":13869:13913   */\n      add\n        /* \"#utility.yul\":14066:14068   */\n      0x20\n        /* \"#utility.yul\":14054:14064   */\n      dup6\n        /* \"#utility.yul\":14051:14069   */\n      lt\n        /* \"#utility.yul\":14048:14097   */\n      iszero\n      tag_296\n      jumpi\n        /* \"#utility.yul\":14087:14095   */\n      dup2\n        /* \"#utility.yul\":14072:14095   */\n      swap1\n      pop\n        /* \"#utility.yul\":14048:14097   */\n    tag_296:\n        /* \"#utility.yul\":14110:14190   */\n      tag_297\n        /* \"#utility.yul\":14166:14188   */\n      tag_298\n        /* \"#utility.yul\":14184:14187   */\n      dup6\n        /* \"#utility.yul\":14166:14188   */\n      tag_128\n      jump\t// in\n    tag_298:\n        /* \"#utility.yul\":14156:14164   */\n      dup4\n        /* \"#utility.yul\":14152:14189   */\n      add\n        /* \"#utility.yul\":14139:14150   */\n      dup3\n        /* \"#utility.yul\":14110:14190   */\n      tag_137\n      jump\t// in\n    tag_297:\n        /* \"#utility.yul\":13769:14200   */\n      pop\n      pop\n        /* \"#utility.yul\":13754:14200   */\n    tag_293:\n        /* \"#utility.yul\":13664:14207   */\n      pop\n      pop\n      pop\n      jump\t// out\n        /* \"#utility.yul\":14213:14330   */\n    tag_139:\n        /* \"#utility.yul\":14267:14275   */\n      0x00\n        /* \"#utility.yul\":14317:14322   */\n      dup3\n        /* \"#utility.yul\":14311:14315   */\n      dup3\n        /* \"#utility.yul\":14307:14323   */\n      shr\n        /* \"#utility.yul\":14286:14323   */\n      swap1\n      pop\n        /* \"#utility.yul\":14213:14330   */\n      swap3\n      swap2\n      pop\n      pop\n      jump\t// out\n        /* \"#utility.yul\":14336:14505   */\n    tag_140:\n        /* \"#utility.yul\":14380:14386   */\n      0x00\n        /* \"#utility.yul\":14413:14464   */\n      tag_301\n        /* \"#utility.yul\":14461:14462   */\n      0x00\n        /* \"#utility.yul\":14457:14463   */\n      not\n        /* \"#utility.yul\":14449:14454   */\n      dup5\n        /* \"#utility.yul\":14446:14447   */\n      0x08\n        /* \"#utility.yul\":14442:14455   */\n      mul\n        /* \"#utility.yul\":14413:14464   */\n      tag_139\n      jump\t// in\n    tag_301:\n        /* \"#utility.yul\":14409:14465   */\n      not\n        /* \"#utility.yul\":14494:14498   */\n      dup1\n        /* \"#utility.yul\":14488:14492   */\n      dup4\n        /* \"#utility.yul\":14484:14499   */\n      and\n        /* \"#utility.yul\":14474:14499   */\n      swap2\n      pop\n        /* \"#utility.yul\":14387:14505   */\n      pop\n        /* \"#utility.yul\":14336:14505   */\n      swap3\n      swap2\n      pop\n      pop\n      jump\t// out\n        /* \"#utility.yul\":14510:14805   */\n    tag_141:\n        /* \"#utility.yul\":14586:14590   */\n      0x00\n        /* \"#utility.yul\":14732:14761   */\n      tag_303\n        /* \"#utility.yul\":14757:14760   */\n      dup4\n        /* \"#utility.yul\":14751:14755   */\n      dup4\n        /* \"#utility.yul\":14732:14761   */\n      tag_140\n      jump\t// in\n    tag_303:\n        /* \"#utility.yul\":14724:14761   */\n      swap2\n      pop\n        /* \"#utility.yul\":14794:14797   */\n      dup3\n        /* \"#utility.yul\":14791:14792   */\n      0x02\n        /* \"#utility.yul\":14787:14798   */\n      mul\n        /* \"#utility.yul\":14781:14785   */\n      dup3\n        /* \"#utility.yul\":14778:14799   */\n      or\n        /* \"#utility.yul\":14770:14799   */\n      swap1\n      pop\n        /* \"#utility.yul\":14510:14805   */\n      swap3\n      swap2\n      pop\n      pop\n      jump\t// out\n        /* \"#utility.yul\":14810:16205   */\n    tag_77:\n        /* \"#utility.yul\":14927:14964   */\n      tag_305\n        /* \"#utility.yul\":14960:14963   */\n      dup3\n        /* \"#utility.yul\":14927:14964   */\n      tag_107\n      jump\t// in\n    tag_305:\n        /* \"#utility.yul\":15029:15047   */\n      0xffffffffffffffff\n        /* \"#utility.yul\":15021:15027   */\n      dup2\n        /* \"#utility.yul\":15018:15048   */\n      gt\n        /* \"#utility.yul\":15015:15071   */\n      iszero\n      tag_306\n      jumpi\n        /* \"#utility.yul\":15051:15069   */\n      tag_307\n      tag_126\n      jump\t// in\n    tag_307:\n        /* \"#utility.yul\":15015:15071   */\n    tag_306:\n        /* \"#utility.yul\":15095:15133   */\n      tag_308\n        /* \"#utility.yul\":15127:15131   */\n      dup3\n        /* \"#utility.yul\":15121:15132   */\n      sload\n        /* \"#utility.yul\":15095:15133   */\n      tag_47\n      jump\t// in\n    tag_308:\n        /* \"#utility.yul\":15180:15247   */\n      tag_309\n        /* \"#utility.yul\":15240:15246   */\n      dup3\n        /* \"#utility.yul\":15232:15238   */\n      dup3\n        /* \"#utility.yul\":15226:15230   */\n      dup6\n        /* \"#utility.yul\":15180:15247   */\n      tag_138\n      jump\t// in\n    tag_309:\n        /* \"#utility.yul\":15274:15275   */\n      0x00\n        /* \"#utility.yul\":15298:15302   */\n      0x20\n        /* \"#utility.yul\":15285:15302   */\n      swap1\n      pop\n        /* \"#utility.yul\":15330:15332   */\n      0x1f\n        /* \"#utility.yul\":15322:15328   */\n      dup4\n        /* \"#utility.yul\":15319:15333   */\n      gt\n        /* \"#utility.yul\":15347:15348   */\n      0x01\n        /* \"#utility.yul\":15342:15960   */\n      dup2\n      eq\n      tag_311\n      jumpi\n        /* \"#utility.yul\":16004:16005   */\n      0x00\n        /* \"#utility.yul\":16021:16027   */\n      dup5\n        /* \"#utility.yul\":16018:16095   */\n      iszero\n      tag_312\n      jumpi\n        /* \"#utility.yul\":16070:16079   */\n      dup3\n        /* \"#utility.yul\":16065:16068   */\n      dup8\n        /* \"#utility.yul\":16061:16080   */\n      add\n        /* \"#utility.yul\":16055:16081   */\n      mload\n        /* \"#utility.yul\":16046:16081   */\n      swap1\n      pop\n        /* \"#utility.yul\":16018:16095   */\n    tag_312:\n        /* \"#utility.yul\":16121:16188   */\n      tag_313\n        /* \"#utility.yul\":16181:16187   */\n      dup6\n        /* \"#utility.yul\":16174:16179   */\n      dup3\n        /* \"#utility.yul\":16121:16188   */\n      tag_141\n      jump\t// in\n    tag_313:\n        /* \"#utility.yul\":16115:16119   */\n      dup7\n        /* \"#utility.yul\":16108:16189   */\n      sstore\n        /* \"#utility.yul\":15977:16199   */\n      pop\n        /* \"#utility.yul\":15312:16199   */\n      jump(tag_310)\n        /* \"#utility.yul\":15342:15960   */\n    tag_311:\n        /* \"#utility.yul\":15394:15398   */\n      0x1f\n        /* \"#utility.yul\":15390:15399   */\n      not\n        /* \"#utility.yul\":15382:15388   */\n      dup5\n        /* \"#utility.yul\":15378:15400   */\n      and\n        /* \"#utility.yul\":15428:15465   */\n      tag_314\n        /* \"#utility.yul\":15460:15464   */\n      dup7\n        /* \"#utility.yul\":15428:15465   */\n      tag_127\n      jump\t// in\n    tag_314:\n        /* \"#utility.yul\":15487:15488   */\n      0x00\n        /* \"#utility.yul\":15501:15709   */\n    tag_315:\n        /* \"#utility.yul\":15515:15522   */\n      dup3\n        /* \"#utility.yul\":15512:15513   */\n      dup2\n        /* \"#utility.yul\":15509:15523   */\n      lt\n        /* \"#utility.yul\":15501:15709   */\n      iszero\n      tag_317\n      jumpi\n        /* \"#utility.yul\":15594:15603   */\n      dup5\n        /* \"#utility.yul\":15589:15592   */\n      dup10\n        /* \"#utility.yul\":15585:15604   */\n      add\n        /* \"#utility.yul\":15579:15605   */\n      mload\n        /* \"#utility.yul\":15571:15577   */\n      dup3\n        /* \"#utility.yul\":15564:15606   */\n      sstore\n        /* \"#utility.yul\":15645:15646   */\n      0x01\n        /* \"#utility.yul\":15637:15643   */\n      dup3\n        /* \"#utility.yul\":15633:15647   */\n      add\n        /* \"#utility.yul\":15623:15647   */\n      swap2\n      pop\n        /* \"#utility.yul\":15692:15694   */\n      0x20\n        /* \"#utility.yul\":15681:15690   */\n      dup6\n        /* \"#utility.yul\":15677:15695   */\n      add\n        /* \"#utility.yul\":15664:15695   */\n      swap5\n      pop\n        /* \"#utility.yul\":15538:15542   */\n      0x20\n        /* \"#utility.yul\":15535:15536   */\n      dup2\n        /* \"#utility.yul\":15531:15543   */\n      add\n        /* \"#utility.yul\":15526:15543   */\n      swap1\n      pop\n        /* \"#utility.yul\":15501:15709   */\n      jump(tag_315)\n    tag_317:\n        /* \"#utility.yul\":15737:15743   */\n      dup7\n        /* \"#utility.yul\":15728:15735   */\n      dup4\n        /* \"#utility.yul\":15725:15744   */\n      lt\n        /* \"#utility.yul\":15722:15901   */\n      iszero\n      tag_318\n      jumpi\n        /* \"#utility.yul\":15795:15804   */\n      dup5\n        /* \"#utility.yul\":15790:15793   */\n      dup10\n        /* \"#utility.yul\":15786:15805   */\n      add\n        /* \"#utility.yul\":15780:15806   */\n      mload\n        /* \"#utility.yul\":15838:15886   */\n      tag_319\n        /* \"#utility.yul\":15880:15884   */\n      0x1f\n        /* \"#utility.yul\":15872:15878   */\n      dup10\n        /* \"#utility.yul\":15868:15885   */\n      and\n        /* \"#utility.yul\":15857:15866   */\n      dup3\n        /* \"#utility.yul\":15838:15886   */\n      tag_140\n      jump\t// in\n    tag_319:\n        /* \"#utility.yul\":15830:15836   */\n      dup4\n        /* \"#utility.yul\":15823:15887   */\n      sstore\n        /* \"#utility.yul\":15745:15901   */\n      pop\n        /* \"#utility.yul\":15722:15901   */\n    tag_318:\n        /* \"#utility.yul\":15947:15948   */\n      0x01\n        /* \"#utility.yul\":15943:15944   */\n      0x02\n        /* \"#utility.yul\":15935:15941   */\n      dup9\n        /* \"#utility.yul\":15931:15945   */\n      mul\n        /* \"#utility.yul\":15927:15949   */\n      add\n        /* \"#utility.yul\":15921:15925   */\n      dup9\n        /* \"#utility.yul\":15914:15950   */\n      sstore\n        /* \"#utility.yul\":15349:15960   */\n      pop\n      pop\n      pop\n        /* \"#utility.yul\":15312:16199   */\n    tag_310:\n      pop\n        /* \"#utility.yul\":14902:16205   */\n      pop\n      pop\n      pop\n        /* \"#utility.yul\":14810:16205   */\n      pop\n      pop\n      jump\t// out\n        /* \"#utility.yul\":16211:16391   */\n    tag_84:\n        /* \"#utility.yul\":16259:16336   */\n      0x4e487b7100000000000000000000000000000000000000000000000000000000\n        /* \"#utility.yul\":16256:16257   */\n      0x00\n        /* \"#utility.yul\":16249:16337   */\n      mstore\n        /* \"#utility.yul\":16356:16360   */\n      0x32\n        /* \"#utility.yul\":16353:16354   */\n      0x04\n        /* \"#utility.yul\":16346:16361   */\n      mstore\n        /* \"#utility.yul\":16380:16384   */\n      0x24\n        /* \"#utility.yul\":16377:16378   */\n      0x00\n        /* \"#utility.yul\":16370:16385   */\n      revert\n        /* \"#utility.yul\":16397:16564   */\n    tag_142:\n        /* \"#utility.yul\":16537:16556   */\n      0x4d61746368206973207374696c6c206f6e000000000000000000000000000000\n        /* \"#utility.yul\":16533:16534   */\n      0x00\n        /* \"#utility.yul\":16525:16531   */\n      dup3\n        /* \"#utility.yul\":16521:16535   */\n      add\n        /* \"#utility.yul\":16514:16557   */\n      mstore\n        /* \"#utility.yul\":16397:16564   */\n      pop\n      jump\t// out\n        /* \"#utility.yul\":16570:16936   */\n    tag_143:\n        /* \"#utility.yul\":16712:16715   */\n      0x00\n        /* \"#utility.yul\":16733:16800   */\n      tag_323\n        /* \"#utility.yul\":16797:16799   */\n      0x11\n        /* \"#utility.yul\":16792:16795   */\n      dup4\n        /* \"#utility.yul\":16733:16800   */\n      tag_108\n      jump\t// in\n    tag_323:\n        /* \"#utility.yul\":16726:16800   */\n      swap2\n      pop\n        /* \"#utility.yul\":16809:16902   */\n      tag_324\n        /* \"#utility.yul\":16898:16901   */\n      dup3\n        /* \"#utility.yul\":16809:16902   */\n      tag_142\n      jump\t// in\n    tag_324:\n        /* \"#utility.yul\":16927:16929   */\n      0x20\n        /* \"#utility.yul\":16922:16925   */\n      dup3\n        /* \"#utility.yul\":16918:16930   */\n      add\n        /* \"#utility.yul\":16911:16930   */\n      swap1\n      pop\n        /* \"#utility.yul\":16570:16936   */\n      swap2\n      swap1\n      pop\n      jump\t// out\n        /* \"#utility.yul\":16942:17361   */\n    tag_88:\n        /* \"#utility.yul\":17108:17112   */\n      0x00\n        /* \"#utility.yul\":17146:17148   */\n      0x20\n        /* \"#utility.yul\":17135:17144   */\n      dup3\n        /* \"#utility.yul\":17131:17149   */\n      add\n        /* \"#utility.yul\":17123:17149   */\n      swap1\n      pop\n        /* \"#utility.yul\":17195:17204   */\n      dup2\n        /* \"#utility.yul\":17189:17193   */\n      dup2\n        /* \"#utility.yul\":17185:17205   */\n      sub\n        /* \"#utility.yul\":17181:17182   */\n      0x00\n        /* \"#utility.yul\":17170:17179   */\n      dup4\n        /* \"#utility.yul\":17166:17183   */\n      add\n        /* \"#utility.yul\":17159:17206   */\n      mstore\n        /* \"#utility.yul\":17223:17354   */\n      tag_326\n        /* \"#utility.yul\":17349:17353   */\n      dup2\n        /* \"#utility.yul\":17223:17354   */\n      tag_143\n      jump\t// in\n    tag_326:\n        /* \"#utility.yul\":17215:17354   */\n      swap1\n      pop\n        /* \"#utility.yul\":16942:17361   */\n      swap2\n      swap1\n      pop\n      jump\t// out\n\n    auxdata: 0xa2646970667358221220bcd51bc207cef131c222b468bb0714d6617c6eb0f6cb4794601c3a90aa69eb8f64736f6c63430008110033\n}\n",
				"bytecode": {
					"linkReferences": {},
					"object": "608060405234801561001057600080fd5b50336000806101000a81548173ffffffffffffffffffffffffffffffffffffffff021916908373ffffffffffffffffffffffffffffffffffffffff160217905550611240806100606000396000f3fe608060405234801561001057600080fd5b506004361061007d5760003560e01c8063b2edb39f1161005b578063b2edb39f1461011a578063bc9e6e2c1461014e578063ec7361a81461017e578063f851a4401461019a5761007d565b806315a3ae71146100825780632172ff16146100b45780634195ab8e146100e8575b600080fd5b61009c600480360381019061009791906108f8565b6101b8565b6040516100ab939291906109ec565b60405180910390f35b6100ce60048036038101906100c991906108f8565b61020f565b6040516100df959493929190610af1565b60405180910390f35b61010260048036038101906100fd9190610b7e565b610373565b60405161011193929190610bbe565b60405180910390f35b610134600480360381019061012f91906108f8565b6103b7565b604051610145959493929190610af1565b60405180910390f35b61016860048036038101906101639190610c5a565b61052b565b6040516101759190610d0a565b60405180910390f35b61019860048036038101906101939190610d25565b61073c565b005b6101a2610894565b6040516101af9190610d78565b60405180910390f35b60046020528060005260406000206000915090508060000160009054906101000a900473ffffffffffffffffffffffffffffffffffffffff16908060010154908060020160009054906101000a900460ff16905083565b600160205280600052604060002060009150905080600001805461023290610dc2565b80601f016020809104026020016040519081016040528092919081815260200182805461025e90610dc2565b80156102ab5780601f10610280576101008083540402835291602001916102ab565b820191906000526020600020905b81548152906001019060200180831161028e57829003601f168201915b5050505050908060010180546102c090610dc2565b80601f01602080910402602001604051908101604052809291908181526020018280546102ec90610dc2565b80156103395780601f1061030e57610100808354040283529160200191610339565b820191906000526020600020905b81548152906001019060200180831161031c57829003601f168201915b5050505050908060020154908060030154908060040160405180604001604052908160008201548152602001600182015481525050905085565b6002602052816000526040600020602052806000526040600020600091509150508060000160009054906101000a900460ff16908060010154908060020154905083565b600381815481106103c757600080fd5b90600052602060002090600602016000915090508060000180546103ea90610dc2565b80601f016020809104026020016040519081016040528092919081815260200182805461041690610dc2565b80156104635780601f1061043857610100808354040283529160200191610463565b820191906000526020600020905b81548152906001019060200180831161044657829003601f168201915b50505050509080600101805461047890610dc2565b80601f01602080910402602001604051908101604052809291908181526020018280546104a490610dc2565b80156104f15780601f106104c6576101008083540402835291602001916104f1565b820191906000526020600020905b8154815290600101906020018083116104d457829003601f168201915b5050505050908060020154908060030154908060040160405180604001604052908160008201548152602001600182015481525050905085565b60003373ffffffffffffffffffffffffffffffffffffffff1660008054906101000a900473ffffffffffffffffffffffffffffffffffffffff1673ffffffffffffffffffffffffffffffffffffffff16146105bb576040517f08c379a00000000000000000000000000000000000000000000000000000000081526004016105b290610e3f565b60405180910390fd5b6000605f836105ca9190610e8e565b90506000604051806040016040528060008152602001600081525090506000600380549050905060036040518060a001604052808b8b8080601f016020809104026020016040519081016040528093929190818152602001838380828437600081840152601f19601f82011690508083019250505050505050815260200189898080601f016020809104026020016040519081016040528093929190818152602001838380828437600081840152601f19601f82011690508083019250505050505050815260200187815260200185815260200184815250908060018154018082558091505060019003906000526020600020906006020160009091909190915060008201518160000190816106e0919061109d565b5060208201518160010190816106f6919061109d565b5060408201518160020155606082015181600301556080820151816004016000820151816000015560208201518160010155505050506001935050505095945050505050565b3373ffffffffffffffffffffffffffffffffffffffff1660008054906101000a900473ffffffffffffffffffffffffffffffffffffffff1673ffffffffffffffffffffffffffffffffffffffff16146107ca576040517f08c379a00000000000000000000000000000000000000000000000000000000081526004016107c190610e3f565b60405180910390fd5b6000429050600384815481106107e3576107e261116f565b5b906000526020600020906006020160030154811015610837576040517f08c379a000000000000000000000000000000000000000000000000000000000815260040161082e906111ea565b60405180910390fd5b6000604051806040016040528085815260200184815250905080600386815481106108655761086461116f565b5b906000526020600020906006020160040160008201518160000155602082015181600101559050505050505050565b60008054906101000a900473ffffffffffffffffffffffffffffffffffffffff1681565b600080fd5b600080fd5b6000819050919050565b6108d5816108c2565b81146108e057600080fd5b50565b6000813590506108f2816108cc565b92915050565b60006020828403121561090e5761090d6108b8565b5b600061091c848285016108e3565b91505092915050565b600073ffffffffffffffffffffffffffffffffffffffff82169050919050565b600061095082610925565b9050919050565b61096081610945565b82525050565b61096f816108c2565b82525050565b7f4e487b7100000000000000000000000000000000000000000000000000000000600052602160045260246000fd5b600481106109b5576109b4610975565b5b50565b60008190506109c6826109a4565b919050565b60006109d6826109b8565b9050919050565b6109e6816109cb565b82525050565b6000606082019050610a016000830186610957565b610a0e6020830185610966565b610a1b60408301846109dd565b949350505050565b600081519050919050565b600082825260208201905092915050565b60005b83811015610a5d578082015181840152602081019050610a42565b60008484015250505050565b6000601f19601f8301169050919050565b6000610a8582610a23565b610a8f8185610a2e565b9350610a9f818560208601610a3f565b610aa881610a69565b840191505092915050565b610abc816108c2565b82525050565b604082016000820151610ad86000850182610ab3565b506020820151610aeb6020850182610ab3565b50505050565b600060c0820190508181036000830152610b0b8188610a7a565b90508181036020830152610b1f8187610a7a565b9050610b2e6040830186610966565b610b3b6060830185610966565b610b486080830184610ac2565b9695505050505050565b610b5b81610945565b8114610b6657600080fd5b50565b600081359050610b7881610b52565b92915050565b60008060408385031215610b9557610b946108b8565b5b6000610ba385828601610b69565b9250506020610bb4858286016108e3565b9150509250929050565b6000606082019050610bd360008301866109dd565b610be06020830185610966565b610bed6040830184610966565b949350505050565b600080fd5b600080fd5b600080fd5b60008083601f840112610c1a57610c19610bf5565b5b8235905067ffffffffffffffff811115610c3757610c36610bfa565b5b602083019150836001820283011115610c5357610c52610bff565b5b9250929050565b600080600080600060608688031215610c7657610c756108b8565b5b600086013567ffffffffffffffff811115610c9457610c936108bd565b5b610ca088828901610c04565b9550955050602086013567ffffffffffffffff811115610cc357610cc26108bd565b5b610ccf88828901610c04565b93509350506040610ce2888289016108e3565b9150509295509295909350565b60008115159050919050565b610d0481610cef565b82525050565b6000602082019050610d1f6000830184610cfb565b92915050565b600080600060608486031215610d3e57610d3d6108b8565b5b6000610d4c868287016108e3565b9350506020610d5d868287016108e3565b9250506040610d6e868287016108e3565b9150509250925092565b6000602082019050610d8d6000830184610957565b92915050565b7f4e487b7100000000000000000000000000000000000000000000000000000000600052602260045260246000fd5b60006002820490506001821680610dda57607f821691505b602082108103610ded57610dec610d93565b5b50919050565b7f4e6f74204f776e65720000000000000000000000000000000000000000000000600082015250565b6000610e29600983610a2e565b9150610e3482610df3565b602082019050919050565b60006020820190508181036000830152610e5881610e1c565b9050919050565b7f4e487b7100000000000000000000000000000000000000000000000000000000600052601160045260246000fd5b6000610e99826108c2565b9150610ea4836108c2565b9250828201905080821115610ebc57610ebb610e5f565b5b92915050565b7f4e487b7100000000000000000000000000000000000000000000000000000000600052604160045260246000fd5b60008190508160005260206000209050919050565b60006020601f8301049050919050565b600082821b905092915050565b600060088302610f537fffffffffffffffffffffffffffffffffffffffffffffffffffffffffffffffff82610f16565b610f5d8683610f16565b95508019841693508086168417925050509392505050565b6000819050919050565b6000610f9a610f95610f90846108c2565b610f75565b6108c2565b9050919050565b6000819050919050565b610fb483610f7f565b610fc8610fc082610fa1565b848454610f23565b825550505050565b600090565b610fdd610fd0565b610fe8818484610fab565b505050565b5b8181101561100c57611001600082610fd5565b600181019050610fee565b5050565b601f8211156110515761102281610ef1565b61102b84610f06565b8101602085101561103a578190505b61104e61104685610f06565b830182610fed565b50505b505050565b600082821c905092915050565b600061107460001984600802611056565b1980831691505092915050565b600061108d8383611063565b9150826002028217905092915050565b6110a682610a23565b67ffffffffffffffff8111156110bf576110be610ec2565b5b6110c98254610dc2565b6110d4828285611010565b600060209050601f83116001811461110757600084156110f5578287015190505b6110ff8582611081565b865550611167565b601f19841661111586610ef1565b60005b8281101561113d57848901518255600182019150602085019450602081019050611118565b8683101561115a5784890151611156601f891682611063565b8355505b6001600288020188555050505b505050505050565b7f4e487b7100000000000000000000000000000000000000000000000000000000600052603260045260246000fd5b7f4d61746368206973207374696c6c206f6e000000000000000000000000000000600082015250565b60006111d4601183610a2e565b91506111df8261119e565b602082019050919050565b60006020820190508181036000830152611203816111c7565b905091905056fea2646970667358221220bcd51bc207cef131c222b468bb0714d6617c6eb0f6cb4794601c3a90aa69eb8f64736f6c63430008110033",
					"opcodes": "PUSH1 0x80 PUSH1 0x40 MSTORE CALLVALUE DUP1 ISZERO PUSH2 0x10 JUMPI PUSH1 0x0 DUP1 REVERT JUMPDEST POP CALLER PUSH1 0x0 DUP1 PUSH2 0x100 EXP DUP2 SLOAD DUP2 PUSH20 0xFFFFFFFFFFFFFFFFFFFFFFFFFFFFFFFFFFFFFFFF MUL NOT AND SWAP1 DUP4 PUSH20 0xFFFFFFFFFFFFFFFFFFFFFFFFFFFFFFFFFFFFFFFF AND MUL OR SWAP1 SSTORE POP PUSH2 0x1240 DUP1 PUSH2 0x60 PUSH1 0x0 CODECOPY PUSH1 0x0 RETURN INVALID PUSH1 0x80 PUSH1 0x40 MSTORE CALLVALUE DUP1 ISZERO PUSH2 0x10 JUMPI PUSH1 0x0 DUP1 REVERT JUMPDEST POP PUSH1 0x4 CALLDATASIZE LT PUSH2 0x7D JUMPI PUSH1 0x0 CALLDATALOAD PUSH1 0xE0 SHR DUP1 PUSH4 0xB2EDB39F GT PUSH2 0x5B JUMPI DUP1 PUSH4 0xB2EDB39F EQ PUSH2 0x11A JUMPI DUP1 PUSH4 0xBC9E6E2C EQ PUSH2 0x14E JUMPI DUP1 PUSH4 0xEC7361A8 EQ PUSH2 0x17E JUMPI DUP1 PUSH4 0xF851A440 EQ PUSH2 0x19A JUMPI PUSH2 0x7D JUMP JUMPDEST DUP1 PUSH4 0x15A3AE71 EQ PUSH2 0x82 JUMPI DUP1 PUSH4 0x2172FF16 EQ PUSH2 0xB4 JUMPI DUP1 PUSH4 0x4195AB8E EQ PUSH2 0xE8 JUMPI JUMPDEST PUSH1 0x0 DUP1 REVERT JUMPDEST PUSH2 0x9C PUSH1 0x4 DUP1 CALLDATASIZE SUB DUP2 ADD SWAP1 PUSH2 0x97 SWAP2 SWAP1 PUSH2 0x8F8 JUMP JUMPDEST PUSH2 0x1B8 JUMP JUMPDEST PUSH1 0x40 MLOAD PUSH2 0xAB SWAP4 SWAP3 SWAP2 SWAP1 PUSH2 0x9EC JUMP JUMPDEST PUSH1 0x40 MLOAD DUP1 SWAP2 SUB SWAP1 RETURN JUMPDEST PUSH2 0xCE PUSH1 0x4 DUP1 CALLDATASIZE SUB DUP2 ADD SWAP1 PUSH2 0xC9 SWAP2 SWAP1 PUSH2 0x8F8 JUMP JUMPDEST PUSH2 0x20F JUMP JUMPDEST PUSH1 0x40 MLOAD PUSH2 0xDF SWAP6 SWAP5 SWAP4 SWAP3 SWAP2 SWAP1 PUSH2 0xAF1 JUMP JUMPDEST PUSH1 0x40 MLOAD DUP1 SWAP2 SUB SWAP1 RETURN JUMPDEST PUSH2 0x102 PUSH1 0x4 DUP1 CALLDATASIZE SUB DUP2 ADD SWAP1 PUSH2 0xFD SWAP2 SWAP1 PUSH2 0xB7E JUMP JUMPDEST PUSH2 0x373 JUMP JUMPDEST PUSH1 0x40 MLOAD PUSH2 0x111 SWAP4 SWAP3 SWAP2 SWAP1 PUSH2 0xBBE JUMP JUMPDEST PUSH1 0x40 MLOAD DUP1 SWAP2 SUB SWAP1 RETURN JUMPDEST PUSH2 0x134 PUSH1 0x4 DUP1 CALLDATASIZE SUB DUP2 ADD SWAP1 PUSH2 0x12F SWAP2 SWAP1 PUSH2 0x8F8 JUMP JUMPDEST PUSH2 0x3B7 JUMP JUMPDEST PUSH1 0x40 MLOAD PUSH2 0x145 SWAP6 SWAP5 SWAP4 SWAP3 SWAP2 SWAP1 PUSH2 0xAF1 JUMP JUMPDEST PUSH1 0x40 MLOAD DUP1 SWAP2 SUB SWAP1 RETURN JUMPDEST PUSH2 0x168 PUSH1 0x4 DUP1 CALLDATASIZE SUB DUP2 ADD SWAP1 PUSH2 0x163 SWAP2 SWAP1 PUSH2 0xC5A JUMP JUMPDEST PUSH2 0x52B JUMP JUMPDEST PUSH1 0x40 MLOAD PUSH2 0x175 SWAP2 SWAP1 PUSH2 0xD0A JUMP JUMPDEST PUSH1 0x40 MLOAD DUP1 SWAP2 SUB SWAP1 RETURN JUMPDEST PUSH2 0x198 PUSH1 0x4 DUP1 CALLDATASIZE SUB DUP2 ADD SWAP1 PUSH2 0x193 SWAP2 SWAP1 PUSH2 0xD25 JUMP JUMPDEST PUSH2 0x73C JUMP JUMPDEST STOP JUMPDEST PUSH2 0x1A2 PUSH2 0x894 JUMP JUMPDEST PUSH1 0x40 MLOAD PUSH2 0x1AF SWAP2 SWAP1 PUSH2 0xD78 JUMP JUMPDEST PUSH1 0x40 MLOAD DUP1 SWAP2 SUB SWAP1 RETURN JUMPDEST PUSH1 0x4 PUSH1 0x20 MSTORE DUP1 PUSH1 0x0 MSTORE PUSH1 0x40 PUSH1 0x0 KECCAK256 PUSH1 0x0 SWAP2 POP SWAP1 POP DUP1 PUSH1 0x0 ADD PUSH1 0x0 SWAP1 SLOAD SWAP1 PUSH2 0x100 EXP SWAP1 DIV PUSH20 0xFFFFFFFFFFFFFFFFFFFFFFFFFFFFFFFFFFFFFFFF AND SWAP1 DUP1 PUSH1 0x1 ADD SLOAD SWAP1 DUP1 PUSH1 0x2 ADD PUSH1 0x0 SWAP1 SLOAD SWAP1 PUSH2 0x100 EXP SWAP1 DIV PUSH1 0xFF AND SWAP1 POP DUP4 JUMP JUMPDEST PUSH1 0x1 PUSH1 0x20 MSTORE DUP1 PUSH1 0x0 MSTORE PUSH1 0x40 PUSH1 0x0 KECCAK256 PUSH1 0x0 SWAP2 POP SWAP1 POP DUP1 PUSH1 0x0 ADD DUP1 SLOAD PUSH2 0x232 SWAP1 PUSH2 0xDC2 JUMP JUMPDEST DUP1 PUSH1 0x1F ADD PUSH1 0x20 DUP1 SWAP2 DIV MUL PUSH1 0x20 ADD PUSH1 0x40 MLOAD SWAP1 DUP2 ADD PUSH1 0x40 MSTORE DUP1 SWAP3 SWAP2 SWAP1 DUP2 DUP2 MSTORE PUSH1 0x20 ADD DUP3 DUP1 SLOAD PUSH2 0x25E SWAP1 PUSH2 0xDC2 JUMP JUMPDEST DUP1 ISZERO PUSH2 0x2AB JUMPI DUP1 PUSH1 0x1F LT PUSH2 0x280 JUMPI PUSH2 0x100 DUP1 DUP4 SLOAD DIV MUL DUP4 MSTORE SWAP2 PUSH1 0x20 ADD SWAP2 PUSH2 0x2AB JUMP JUMPDEST DUP3 ADD SWAP2 SWAP1 PUSH1 0x0 MSTORE PUSH1 0x20 PUSH1 0x0 KECCAK256 SWAP1 JUMPDEST DUP2 SLOAD DUP2 MSTORE SWAP1 PUSH1 0x1 ADD SWAP1 PUSH1 0x20 ADD DUP1 DUP4 GT PUSH2 0x28E JUMPI DUP3 SWAP1 SUB PUSH1 0x1F AND DUP3 ADD SWAP2 JUMPDEST POP POP POP POP POP SWAP1 DUP1 PUSH1 0x1 ADD DUP1 SLOAD PUSH2 0x2C0 SWAP1 PUSH2 0xDC2 JUMP JUMPDEST DUP1 PUSH1 0x1F ADD PUSH1 0x20 DUP1 SWAP2 DIV MUL PUSH1 0x20 ADD PUSH1 0x40 MLOAD SWAP1 DUP2 ADD PUSH1 0x40 MSTORE DUP1 SWAP3 SWAP2 SWAP1 DUP2 DUP2 MSTORE PUSH1 0x20 ADD DUP3 DUP1 SLOAD PUSH2 0x2EC SWAP1 PUSH2 0xDC2 JUMP JUMPDEST DUP1 ISZERO PUSH2 0x339 JUMPI DUP1 PUSH1 0x1F LT PUSH2 0x30E JUMPI PUSH2 0x100 DUP1 DUP4 SLOAD DIV MUL DUP4 MSTORE SWAP2 PUSH1 0x20 ADD SWAP2 PUSH2 0x339 JUMP JUMPDEST DUP3 ADD SWAP2 SWAP1 PUSH1 0x0 MSTORE PUSH1 0x20 PUSH1 0x0 KECCAK256 SWAP1 JUMPDEST DUP2 SLOAD DUP2 MSTORE SWAP1 PUSH1 0x1 ADD SWAP1 PUSH1 0x20 ADD DUP1 DUP4 GT PUSH2 0x31C JUMPI DUP3 SWAP1 SUB PUSH1 0x1F AND DUP3 ADD SWAP2 JUMPDEST POP POP POP POP POP SWAP1 DUP1 PUSH1 0x2 ADD SLOAD SWAP1 DUP1 PUSH1 0x3 ADD SLOAD SWAP1 DUP1 PUSH1 0x4 ADD PUSH1 0x40 MLOAD DUP1 PUSH1 0x40 ADD PUSH1 0x40 MSTORE SWAP1 DUP2 PUSH1 0x0 DUP3 ADD SLOAD DUP2 MSTORE PUSH1 0x20 ADD PUSH1 0x1 DUP3 ADD SLOAD DUP2 MSTORE POP POP SWAP1 POP DUP6 JUMP JUMPDEST PUSH1 0x2 PUSH1 0x20 MSTORE DUP2 PUSH1 0x0 MSTORE PUSH1 0x40 PUSH1 0x0 KECCAK256 PUSH1 0x20 MSTORE DUP1 PUSH1 0x0 MSTORE PUSH1 0x40 PUSH1 0x0 KECCAK256 PUSH1 0x0 SWAP2 POP SWAP2 POP POP DUP1 PUSH1 0x0 ADD PUSH1 0x0 SWAP1 SLOAD SWAP1 PUSH2 0x100 EXP SWAP1 DIV PUSH1 0xFF AND SWAP1 DUP1 PUSH1 0x1 ADD SLOAD SWAP1 DUP1 PUSH1 0x2 ADD SLOAD SWAP1 POP DUP4 JUMP JUMPDEST PUSH1 0x3 DUP2 DUP2 SLOAD DUP2 LT PUSH2 0x3C7 JUMPI PUSH1 0x0 DUP1 REVERT JUMPDEST SWAP1 PUSH1 0x0 MSTORE PUSH1 0x20 PUSH1 0x0 KECCAK256 SWAP1 PUSH1 0x6 MUL ADD PUSH1 0x0 SWAP2 POP SWAP1 POP DUP1 PUSH1 0x0 ADD DUP1 SLOAD PUSH2 0x3EA SWAP1 PUSH2 0xDC2 JUMP JUMPDEST DUP1 PUSH1 0x1F ADD PUSH1 0x20 DUP1 SWAP2 DIV MUL PUSH1 0x20 ADD PUSH1 0x40 MLOAD SWAP1 DUP2 ADD PUSH1 0x40 MSTORE DUP1 SWAP3 SWAP2 SWAP1 DUP2 DUP2 MSTORE PUSH1 0x20 ADD DUP3 DUP1 SLOAD PUSH2 0x416 SWAP1 PUSH2 0xDC2 JUMP JUMPDEST DUP1 ISZERO PUSH2 0x463 JUMPI DUP1 PUSH1 0x1F LT PUSH2 0x438 JUMPI PUSH2 0x100 DUP1 DUP4 SLOAD DIV MUL DUP4 MSTORE SWAP2 PUSH1 0x20 ADD SWAP2 PUSH2 0x463 JUMP JUMPDEST DUP3 ADD SWAP2 SWAP1 PUSH1 0x0 MSTORE PUSH1 0x20 PUSH1 0x0 KECCAK256 SWAP1 JUMPDEST DUP2 SLOAD DUP2 MSTORE SWAP1 PUSH1 0x1 ADD SWAP1 PUSH1 0x20 ADD DUP1 DUP4 GT PUSH2 0x446 JUMPI DUP3 SWAP1 SUB PUSH1 0x1F AND DUP3 ADD SWAP2 JUMPDEST POP POP POP POP POP SWAP1 DUP1 PUSH1 0x1 ADD DUP1 SLOAD PUSH2 0x478 SWAP1 PUSH2 0xDC2 JUMP JUMPDEST DUP1 PUSH1 0x1F ADD PUSH1 0x20 DUP1 SWAP2 DIV MUL PUSH1 0x20 ADD PUSH1 0x40 MLOAD SWAP1 DUP2 ADD PUSH1 0x40 MSTORE DUP1 SWAP3 SWAP2 SWAP1 DUP2 DUP2 MSTORE PUSH1 0x20 ADD DUP3 DUP1 SLOAD PUSH2 0x4A4 SWAP1 PUSH2 0xDC2 JUMP JUMPDEST DUP1 ISZERO PUSH2 0x4F1 JUMPI DUP1 PUSH1 0x1F LT PUSH2 0x4C6 JUMPI PUSH2 0x100 DUP1 DUP4 SLOAD DIV MUL DUP4 MSTORE SWAP2 PUSH1 0x20 ADD SWAP2 PUSH2 0x4F1 JUMP JUMPDEST DUP3 ADD SWAP2 SWAP1 PUSH1 0x0 MSTORE PUSH1 0x20 PUSH1 0x0 KECCAK256 SWAP1 JUMPDEST DUP2 SLOAD DUP2 MSTORE SWAP1 PUSH1 0x1 ADD SWAP1 PUSH1 0x20 ADD DUP1 DUP4 GT PUSH2 0x4D4 JUMPI DUP3 SWAP1 SUB PUSH1 0x1F AND DUP3 ADD SWAP2 JUMPDEST POP POP POP POP POP SWAP1 DUP1 PUSH1 0x2 ADD SLOAD SWAP1 DUP1 PUSH1 0x3 ADD SLOAD SWAP1 DUP1 PUSH1 0x4 ADD PUSH1 0x40 MLOAD DUP1 PUSH1 0x40 ADD PUSH1 0x40 MSTORE SWAP1 DUP2 PUSH1 0x0 DUP3 ADD SLOAD DUP2 MSTORE PUSH1 0x20 ADD PUSH1 0x1 DUP3 ADD SLOAD DUP2 MSTORE POP POP SWAP1 POP DUP6 JUMP JUMPDEST PUSH1 0x0 CALLER PUSH20 0xFFFFFFFFFFFFFFFFFFFFFFFFFFFFFFFFFFFFFFFF AND PUSH1 0x0 DUP1 SLOAD SWAP1 PUSH2 0x100 EXP SWAP1 DIV PUSH20 0xFFFFFFFFFFFFFFFFFFFFFFFFFFFFFFFFFFFFFFFF AND PUSH20 0xFFFFFFFFFFFFFFFFFFFFFFFFFFFFFFFFFFFFFFFF AND EQ PUSH2 0x5BB JUMPI PUSH1 0x40 MLOAD PUSH32 0x8C379A000000000000000000000000000000000000000000000000000000000 DUP2 MSTORE PUSH1 0x4 ADD PUSH2 0x5B2 SWAP1 PUSH2 0xE3F JUMP JUMPDEST PUSH1 0x40 MLOAD DUP1 SWAP2 SUB SWAP1 REVERT JUMPDEST PUSH1 0x0 PUSH1 0x5F DUP4 PUSH2 0x5CA SWAP2 SWAP1 PUSH2 0xE8E JUMP JUMPDEST SWAP1 POP PUSH1 0x0 PUSH1 0x40 MLOAD DUP1 PUSH1 0x40 ADD PUSH1 0x40 MSTORE DUP1 PUSH1 0x0 DUP2 MSTORE PUSH1 0x20 ADD PUSH1 0x0 DUP2 MSTORE POP SWAP1 POP PUSH1 0x0 PUSH1 0x3 DUP1 SLOAD SWAP1 POP SWAP1 POP PUSH1 0x3 PUSH1 0x40 MLOAD DUP1 PUSH1 0xA0 ADD PUSH1 0x40 MSTORE DUP1 DUP12 DUP12 DUP1 DUP1 PUSH1 0x1F ADD PUSH1 0x20 DUP1 SWAP2 DIV MUL PUSH1 0x20 ADD PUSH1 0x40 MLOAD SWAP1 DUP2 ADD PUSH1 0x40 MSTORE DUP1 SWAP4 SWAP3 SWAP2 SWAP1 DUP2 DUP2 MSTORE PUSH1 0x20 ADD DUP4 DUP4 DUP1 DUP3 DUP5 CALLDATACOPY PUSH1 0x0 DUP2 DUP5 ADD MSTORE PUSH1 0x1F NOT PUSH1 0x1F DUP3 ADD AND SWAP1 POP DUP1 DUP4 ADD SWAP3 POP POP POP POP POP POP POP DUP2 MSTORE PUSH1 0x20 ADD DUP10 DUP10 DUP1 DUP1 PUSH1 0x1F ADD PUSH1 0x20 DUP1 SWAP2 DIV MUL PUSH1 0x20 ADD PUSH1 0x40 MLOAD SWAP1 DUP2 ADD PUSH1 0x40 MSTORE DUP1 SWAP4 SWAP3 SWAP2 SWAP1 DUP2 DUP2 MSTORE PUSH1 0x20 ADD DUP4 DUP4 DUP1 DUP3 DUP5 CALLDATACOPY PUSH1 0x0 DUP2 DUP5 ADD MSTORE PUSH1 0x1F NOT PUSH1 0x1F DUP3 ADD AND SWAP1 POP DUP1 DUP4 ADD SWAP3 POP POP POP POP POP POP POP DUP2 MSTORE PUSH1 0x20 ADD DUP8 DUP2 MSTORE PUSH1 0x20 ADD DUP6 DUP2 MSTORE PUSH1 0x20 ADD DUP5 DUP2 MSTORE POP SWAP1 DUP1 PUSH1 0x1 DUP2 SLOAD ADD DUP1 DUP3 SSTORE DUP1 SWAP2 POP POP PUSH1 0x1 SWAP1 SUB SWAP1 PUSH1 0x0 MSTORE PUSH1 0x20 PUSH1 0x0 KECCAK256 SWAP1 PUSH1 0x6 MUL ADD PUSH1 0x0 SWAP1 SWAP2 SWAP1 SWAP2 SWAP1 SWAP2 POP PUSH1 0x0 DUP3 ADD MLOAD DUP2 PUSH1 0x0 ADD SWAP1 DUP2 PUSH2 0x6E0 SWAP2 SWAP1 PUSH2 0x109D JUMP JUMPDEST POP PUSH1 0x20 DUP3 ADD MLOAD DUP2 PUSH1 0x1 ADD SWAP1 DUP2 PUSH2 0x6F6 SWAP2 SWAP1 PUSH2 0x109D JUMP JUMPDEST POP PUSH1 0x40 DUP3 ADD MLOAD DUP2 PUSH1 0x2 ADD SSTORE PUSH1 0x60 DUP3 ADD MLOAD DUP2 PUSH1 0x3 ADD SSTORE PUSH1 0x80 DUP3 ADD MLOAD DUP2 PUSH1 0x4 ADD PUSH1 0x0 DUP3 ADD MLOAD DUP2 PUSH1 0x0 ADD SSTORE PUSH1 0x20 DUP3 ADD MLOAD DUP2 PUSH1 0x1 ADD SSTORE POP POP POP POP PUSH1 0x1 SWAP4 POP POP POP POP SWAP6 SWAP5 POP POP POP POP POP JUMP JUMPDEST CALLER PUSH20 0xFFFFFFFFFFFFFFFFFFFFFFFFFFFFFFFFFFFFFFFF AND PUSH1 0x0 DUP1 SLOAD SWAP1 PUSH2 0x100 EXP SWAP1 DIV PUSH20 0xFFFFFFFFFFFFFFFFFFFFFFFFFFFFFFFFFFFFFFFF AND PUSH20 0xFFFFFFFFFFFFFFFFFFFFFFFFFFFFFFFFFFFFFFFF AND EQ PUSH2 0x7CA JUMPI PUSH1 0x40 MLOAD PUSH32 0x8C379A000000000000000000000000000000000000000000000000000000000 DUP2 MSTORE PUSH1 0x4 ADD PUSH2 0x7C1 SWAP1 PUSH2 0xE3F JUMP JUMPDEST PUSH1 0x40 MLOAD DUP1 SWAP2 SUB SWAP1 REVERT JUMPDEST PUSH1 0x0 TIMESTAMP SWAP1 POP PUSH1 0x3 DUP5 DUP2 SLOAD DUP2 LT PUSH2 0x7E3 JUMPI PUSH2 0x7E2 PUSH2 0x116F JUMP JUMPDEST JUMPDEST SWAP1 PUSH1 0x0 MSTORE PUSH1 0x20 PUSH1 0x0 KECCAK256 SWAP1 PUSH1 0x6 MUL ADD PUSH1 0x3 ADD SLOAD DUP2 LT ISZERO PUSH2 0x837 JUMPI PUSH1 0x40 MLOAD PUSH32 0x8C379A000000000000000000000000000000000000000000000000000000000 DUP2 MSTORE PUSH1 0x4 ADD PUSH2 0x82E SWAP1 PUSH2 0x11EA JUMP JUMPDEST PUSH1 0x40 MLOAD DUP1 SWAP2 SUB SWAP1 REVERT JUMPDEST PUSH1 0x0 PUSH1 0x40 MLOAD DUP1 PUSH1 0x40 ADD PUSH1 0x40 MSTORE DUP1 DUP6 DUP2 MSTORE PUSH1 0x20 ADD DUP5 DUP2 MSTORE POP SWAP1 POP DUP1 PUSH1 0x3 DUP7 DUP2 SLOAD DUP2 LT PUSH2 0x865 JUMPI PUSH2 0x864 PUSH2 0x116F JUMP JUMPDEST JUMPDEST SWAP1 PUSH1 0x0 MSTORE PUSH1 0x20 PUSH1 0x0 KECCAK256 SWAP1 PUSH1 0x6 MUL ADD PUSH1 0x4 ADD PUSH1 0x0 DUP3 ADD MLOAD DUP2 PUSH1 0x0 ADD SSTORE PUSH1 0x20 DUP3 ADD MLOAD DUP2 PUSH1 0x1 ADD SSTORE SWAP1 POP POP POP POP POP POP POP JUMP JUMPDEST PUSH1 0x0 DUP1 SLOAD SWAP1 PUSH2 0x100 EXP SWAP1 DIV PUSH20 0xFFFFFFFFFFFFFFFFFFFFFFFFFFFFFFFFFFFFFFFF AND DUP2 JUMP JUMPDEST PUSH1 0x0 DUP1 REVERT JUMPDEST PUSH1 0x0 DUP1 REVERT JUMPDEST PUSH1 0x0 DUP2 SWAP1 POP SWAP2 SWAP1 POP JUMP JUMPDEST PUSH2 0x8D5 DUP2 PUSH2 0x8C2 JUMP JUMPDEST DUP2 EQ PUSH2 0x8E0 JUMPI PUSH1 0x0 DUP1 REVERT JUMPDEST POP JUMP JUMPDEST PUSH1 0x0 DUP2 CALLDATALOAD SWAP1 POP PUSH2 0x8F2 DUP2 PUSH2 0x8CC JUMP JUMPDEST SWAP3 SWAP2 POP POP JUMP JUMPDEST PUSH1 0x0 PUSH1 0x20 DUP3 DUP5 SUB SLT ISZERO PUSH2 0x90E JUMPI PUSH2 0x90D PUSH2 0x8B8 JUMP JUMPDEST JUMPDEST PUSH1 0x0 PUSH2 0x91C DUP5 DUP3 DUP6 ADD PUSH2 0x8E3 JUMP JUMPDEST SWAP2 POP POP SWAP3 SWAP2 POP POP JUMP JUMPDEST PUSH1 0x0 PUSH20 0xFFFFFFFFFFFFFFFFFFFFFFFFFFFFFFFFFFFFFFFF DUP3 AND SWAP1 POP SWAP2 SWAP1 POP JUMP JUMPDEST PUSH1 0x0 PUSH2 0x950 DUP3 PUSH2 0x925 JUMP JUMPDEST SWAP1 POP SWAP2 SWAP1 POP JUMP JUMPDEST PUSH2 0x960 DUP2 PUSH2 0x945 JUMP JUMPDEST DUP3 MSTORE POP POP JUMP JUMPDEST PUSH2 0x96F DUP2 PUSH2 0x8C2 JUMP JUMPDEST DUP3 MSTORE POP POP JUMP JUMPDEST PUSH32 0x4E487B7100000000000000000000000000000000000000000000000000000000 PUSH1 0x0 MSTORE PUSH1 0x21 PUSH1 0x4 MSTORE PUSH1 0x24 PUSH1 0x0 REVERT JUMPDEST PUSH1 0x4 DUP2 LT PUSH2 0x9B5 JUMPI PUSH2 0x9B4 PUSH2 0x975 JUMP JUMPDEST JUMPDEST POP JUMP JUMPDEST PUSH1 0x0 DUP2 SWAP1 POP PUSH2 0x9C6 DUP3 PUSH2 0x9A4 JUMP JUMPDEST SWAP2 SWAP1 POP JUMP JUMPDEST PUSH1 0x0 PUSH2 0x9D6 DUP3 PUSH2 0x9B8 JUMP JUMPDEST SWAP1 POP SWAP2 SWAP1 POP JUMP JUMPDEST PUSH2 0x9E6 DUP2 PUSH2 0x9CB JUMP JUMPDEST DUP3 MSTORE POP POP JUMP JUMPDEST PUSH1 0x0 PUSH1 0x60 DUP3 ADD SWAP1 POP PUSH2 0xA01 PUSH1 0x0 DUP4 ADD DUP7 PUSH2 0x957 JUMP JUMPDEST PUSH2 0xA0E PUSH1 0x20 DUP4 ADD DUP6 PUSH2 0x966 JUMP JUMPDEST PUSH2 0xA1B PUSH1 0x40 DUP4 ADD DUP5 PUSH2 0x9DD JUMP JUMPDEST SWAP5 SWAP4 POP POP POP POP JUMP JUMPDEST PUSH1 0x0 DUP2 MLOAD SWAP1 POP SWAP2 SWAP1 POP JUMP JUMPDEST PUSH1 0x0 DUP3 DUP3 MSTORE PUSH1 0x20 DUP3 ADD SWAP1 POP SWAP3 SWAP2 POP POP JUMP JUMPDEST PUSH1 0x0 JUMPDEST DUP4 DUP2 LT ISZERO PUSH2 0xA5D JUMPI DUP1 DUP3 ADD MLOAD DUP2 DUP5 ADD MSTORE PUSH1 0x20 DUP2 ADD SWAP1 POP PUSH2 0xA42 JUMP JUMPDEST PUSH1 0x0 DUP5 DUP5 ADD MSTORE POP POP POP POP JUMP JUMPDEST PUSH1 0x0 PUSH1 0x1F NOT PUSH1 0x1F DUP4 ADD AND SWAP1 POP SWAP2 SWAP1 POP JUMP JUMPDEST PUSH1 0x0 PUSH2 0xA85 DUP3 PUSH2 0xA23 JUMP JUMPDEST PUSH2 0xA8F DUP2 DUP6 PUSH2 0xA2E JUMP JUMPDEST SWAP4 POP PUSH2 0xA9F DUP2 DUP6 PUSH1 0x20 DUP7 ADD PUSH2 0xA3F JUMP JUMPDEST PUSH2 0xAA8 DUP2 PUSH2 0xA69 JUMP JUMPDEST DUP5 ADD SWAP2 POP POP SWAP3 SWAP2 POP POP JUMP JUMPDEST PUSH2 0xABC DUP2 PUSH2 0x8C2 JUMP JUMPDEST DUP3 MSTORE POP POP JUMP JUMPDEST PUSH1 0x40 DUP3 ADD PUSH1 0x0 DUP3 ADD MLOAD PUSH2 0xAD8 PUSH1 0x0 DUP6 ADD DUP3 PUSH2 0xAB3 JUMP JUMPDEST POP PUSH1 0x20 DUP3 ADD MLOAD PUSH2 0xAEB PUSH1 0x20 DUP6 ADD DUP3 PUSH2 0xAB3 JUMP JUMPDEST POP POP POP POP JUMP JUMPDEST PUSH1 0x0 PUSH1 0xC0 DUP3 ADD SWAP1 POP DUP2 DUP2 SUB PUSH1 0x0 DUP4 ADD MSTORE PUSH2 0xB0B DUP2 DUP9 PUSH2 0xA7A JUMP JUMPDEST SWAP1 POP DUP2 DUP2 SUB PUSH1 0x20 DUP4 ADD MSTORE PUSH2 0xB1F DUP2 DUP8 PUSH2 0xA7A JUMP JUMPDEST SWAP1 POP PUSH2 0xB2E PUSH1 0x40 DUP4 ADD DUP7 PUSH2 0x966 JUMP JUMPDEST PUSH2 0xB3B PUSH1 0x60 DUP4 ADD DUP6 PUSH2 0x966 JUMP JUMPDEST PUSH2 0xB48 PUSH1 0x80 DUP4 ADD DUP5 PUSH2 0xAC2 JUMP JUMPDEST SWAP7 SWAP6 POP POP POP POP POP POP JUMP JUMPDEST PUSH2 0xB5B DUP2 PUSH2 0x945 JUMP JUMPDEST DUP2 EQ PUSH2 0xB66 JUMPI PUSH1 0x0 DUP1 REVERT JUMPDEST POP JUMP JUMPDEST PUSH1 0x0 DUP2 CALLDATALOAD SWAP1 POP PUSH2 0xB78 DUP2 PUSH2 0xB52 JUMP JUMPDEST SWAP3 SWAP2 POP POP JUMP JUMPDEST PUSH1 0x0 DUP1 PUSH1 0x40 DUP4 DUP6 SUB SLT ISZERO PUSH2 0xB95 JUMPI PUSH2 0xB94 PUSH2 0x8B8 JUMP JUMPDEST JUMPDEST PUSH1 0x0 PUSH2 0xBA3 DUP6 DUP3 DUP7 ADD PUSH2 0xB69 JUMP JUMPDEST SWAP3 POP POP PUSH1 0x20 PUSH2 0xBB4 DUP6 DUP3 DUP7 ADD PUSH2 0x8E3 JUMP JUMPDEST SWAP2 POP POP SWAP3 POP SWAP3 SWAP1 POP JUMP JUMPDEST PUSH1 0x0 PUSH1 0x60 DUP3 ADD SWAP1 POP PUSH2 0xBD3 PUSH1 0x0 DUP4 ADD DUP7 PUSH2 0x9DD JUMP JUMPDEST PUSH2 0xBE0 PUSH1 0x20 DUP4 ADD DUP6 PUSH2 0x966 JUMP JUMPDEST PUSH2 0xBED PUSH1 0x40 DUP4 ADD DUP5 PUSH2 0x966 JUMP JUMPDEST SWAP5 SWAP4 POP POP POP POP JUMP JUMPDEST PUSH1 0x0 DUP1 REVERT JUMPDEST PUSH1 0x0 DUP1 REVERT JUMPDEST PUSH1 0x0 DUP1 REVERT JUMPDEST PUSH1 0x0 DUP1 DUP4 PUSH1 0x1F DUP5 ADD SLT PUSH2 0xC1A JUMPI PUSH2 0xC19 PUSH2 0xBF5 JUMP JUMPDEST JUMPDEST DUP3 CALLDATALOAD SWAP1 POP PUSH8 0xFFFFFFFFFFFFFFFF DUP2 GT ISZERO PUSH2 0xC37 JUMPI PUSH2 0xC36 PUSH2 0xBFA JUMP JUMPDEST JUMPDEST PUSH1 0x20 DUP4 ADD SWAP2 POP DUP4 PUSH1 0x1 DUP3 MUL DUP4 ADD GT ISZERO PUSH2 0xC53 JUMPI PUSH2 0xC52 PUSH2 0xBFF JUMP JUMPDEST JUMPDEST SWAP3 POP SWAP3 SWAP1 POP JUMP JUMPDEST PUSH1 0x0 DUP1 PUSH1 0x0 DUP1 PUSH1 0x0 PUSH1 0x60 DUP7 DUP9 SUB SLT ISZERO PUSH2 0xC76 JUMPI PUSH2 0xC75 PUSH2 0x8B8 JUMP JUMPDEST JUMPDEST PUSH1 0x0 DUP7 ADD CALLDATALOAD PUSH8 0xFFFFFFFFFFFFFFFF DUP2 GT ISZERO PUSH2 0xC94 JUMPI PUSH2 0xC93 PUSH2 0x8BD JUMP JUMPDEST JUMPDEST PUSH2 0xCA0 DUP9 DUP3 DUP10 ADD PUSH2 0xC04 JUMP JUMPDEST SWAP6 POP SWAP6 POP POP PUSH1 0x20 DUP7 ADD CALLDATALOAD PUSH8 0xFFFFFFFFFFFFFFFF DUP2 GT ISZERO PUSH2 0xCC3 JUMPI PUSH2 0xCC2 PUSH2 0x8BD JUMP JUMPDEST JUMPDEST PUSH2 0xCCF DUP9 DUP3 DUP10 ADD PUSH2 0xC04 JUMP JUMPDEST SWAP4 POP SWAP4 POP POP PUSH1 0x40 PUSH2 0xCE2 DUP9 DUP3 DUP10 ADD PUSH2 0x8E3 JUMP JUMPDEST SWAP2 POP POP SWAP3 SWAP6 POP SWAP3 SWAP6 SWAP1 SWAP4 POP JUMP JUMPDEST PUSH1 0x0 DUP2 ISZERO ISZERO SWAP1 POP SWAP2 SWAP1 POP JUMP JUMPDEST PUSH2 0xD04 DUP2 PUSH2 0xCEF JUMP JUMPDEST DUP3 MSTORE POP POP JUMP JUMPDEST PUSH1 0x0 PUSH1 0x20 DUP3 ADD SWAP1 POP PUSH2 0xD1F PUSH1 0x0 DUP4 ADD DUP5 PUSH2 0xCFB JUMP JUMPDEST SWAP3 SWAP2 POP POP JUMP JUMPDEST PUSH1 0x0 DUP1 PUSH1 0x0 PUSH1 0x60 DUP5 DUP7 SUB SLT ISZERO PUSH2 0xD3E JUMPI PUSH2 0xD3D PUSH2 0x8B8 JUMP JUMPDEST JUMPDEST PUSH1 0x0 PUSH2 0xD4C DUP7 DUP3 DUP8 ADD PUSH2 0x8E3 JUMP JUMPDEST SWAP4 POP POP PUSH1 0x20 PUSH2 0xD5D DUP7 DUP3 DUP8 ADD PUSH2 0x8E3 JUMP JUMPDEST SWAP3 POP POP PUSH1 0x40 PUSH2 0xD6E DUP7 DUP3 DUP8 ADD PUSH2 0x8E3 JUMP JUMPDEST SWAP2 POP POP SWAP3 POP SWAP3 POP SWAP3 JUMP JUMPDEST PUSH1 0x0 PUSH1 0x20 DUP3 ADD SWAP1 POP PUSH2 0xD8D PUSH1 0x0 DUP4 ADD DUP5 PUSH2 0x957 JUMP JUMPDEST SWAP3 SWAP2 POP POP JUMP JUMPDEST PUSH32 0x4E487B7100000000000000000000000000000000000000000000000000000000 PUSH1 0x0 MSTORE PUSH1 0x22 PUSH1 0x4 MSTORE PUSH1 0x24 PUSH1 0x0 REVERT JUMPDEST PUSH1 0x0 PUSH1 0x2 DUP3 DIV SWAP1 POP PUSH1 0x1 DUP3 AND DUP1 PUSH2 0xDDA JUMPI PUSH1 0x7F DUP3 AND SWAP2 POP JUMPDEST PUSH1 0x20 DUP3 LT DUP2 SUB PUSH2 0xDED JUMPI PUSH2 0xDEC PUSH2 0xD93 JUMP JUMPDEST JUMPDEST POP SWAP2 SWAP1 POP JUMP JUMPDEST PUSH32 0x4E6F74204F776E65720000000000000000000000000000000000000000000000 PUSH1 0x0 DUP3 ADD MSTORE POP JUMP JUMPDEST PUSH1 0x0 PUSH2 0xE29 PUSH1 0x9 DUP4 PUSH2 0xA2E JUMP JUMPDEST SWAP2 POP PUSH2 0xE34 DUP3 PUSH2 0xDF3 JUMP JUMPDEST PUSH1 0x20 DUP3 ADD SWAP1 POP SWAP2 SWAP1 POP JUMP JUMPDEST PUSH1 0x0 PUSH1 0x20 DUP3 ADD SWAP1 POP DUP2 DUP2 SUB PUSH1 0x0 DUP4 ADD MSTORE PUSH2 0xE58 DUP2 PUSH2 0xE1C JUMP JUMPDEST SWAP1 POP SWAP2 SWAP1 POP JUMP JUMPDEST PUSH32 0x4E487B7100000000000000000000000000000000000000000000000000000000 PUSH1 0x0 MSTORE PUSH1 0x11 PUSH1 0x4 MSTORE PUSH1 0x24 PUSH1 0x0 REVERT JUMPDEST PUSH1 0x0 PUSH2 0xE99 DUP3 PUSH2 0x8C2 JUMP JUMPDEST SWAP2 POP PUSH2 0xEA4 DUP4 PUSH2 0x8C2 JUMP JUMPDEST SWAP3 POP DUP3 DUP3 ADD SWAP1 POP DUP1 DUP3 GT ISZERO PUSH2 0xEBC JUMPI PUSH2 0xEBB PUSH2 0xE5F JUMP JUMPDEST JUMPDEST SWAP3 SWAP2 POP POP JUMP JUMPDEST PUSH32 0x4E487B7100000000000000000000000000000000000000000000000000000000 PUSH1 0x0 MSTORE PUSH1 0x41 PUSH1 0x4 MSTORE PUSH1 0x24 PUSH1 0x0 REVERT JUMPDEST PUSH1 0x0 DUP2 SWAP1 POP DUP2 PUSH1 0x0 MSTORE PUSH1 0x20 PUSH1 0x0 KECCAK256 SWAP1 POP SWAP2 SWAP1 POP JUMP JUMPDEST PUSH1 0x0 PUSH1 0x20 PUSH1 0x1F DUP4 ADD DIV SWAP1 POP SWAP2 SWAP1 POP JUMP JUMPDEST PUSH1 0x0 DUP3 DUP3 SHL SWAP1 POP SWAP3 SWAP2 POP POP JUMP JUMPDEST PUSH1 0x0 PUSH1 0x8 DUP4 MUL PUSH2 0xF53 PUSH32 0xFFFFFFFFFFFFFFFFFFFFFFFFFFFFFFFFFFFFFFFFFFFFFFFFFFFFFFFFFFFFFFFF DUP3 PUSH2 0xF16 JUMP JUMPDEST PUSH2 0xF5D DUP7 DUP4 PUSH2 0xF16 JUMP JUMPDEST SWAP6 POP DUP1 NOT DUP5 AND SWAP4 POP DUP1 DUP7 AND DUP5 OR SWAP3 POP POP POP SWAP4 SWAP3 POP POP POP JUMP JUMPDEST PUSH1 0x0 DUP2 SWAP1 POP SWAP2 SWAP1 POP JUMP JUMPDEST PUSH1 0x0 PUSH2 0xF9A PUSH2 0xF95 PUSH2 0xF90 DUP5 PUSH2 0x8C2 JUMP JUMPDEST PUSH2 0xF75 JUMP JUMPDEST PUSH2 0x8C2 JUMP JUMPDEST SWAP1 POP SWAP2 SWAP1 POP JUMP JUMPDEST PUSH1 0x0 DUP2 SWAP1 POP SWAP2 SWAP1 POP JUMP JUMPDEST PUSH2 0xFB4 DUP4 PUSH2 0xF7F JUMP JUMPDEST PUSH2 0xFC8 PUSH2 0xFC0 DUP3 PUSH2 0xFA1 JUMP JUMPDEST DUP5 DUP5 SLOAD PUSH2 0xF23 JUMP JUMPDEST DUP3 SSTORE POP POP POP POP JUMP JUMPDEST PUSH1 0x0 SWAP1 JUMP JUMPDEST PUSH2 0xFDD PUSH2 0xFD0 JUMP JUMPDEST PUSH2 0xFE8 DUP2 DUP5 DUP5 PUSH2 0xFAB JUMP JUMPDEST POP POP POP JUMP JUMPDEST JUMPDEST DUP2 DUP2 LT ISZERO PUSH2 0x100C JUMPI PUSH2 0x1001 PUSH1 0x0 DUP3 PUSH2 0xFD5 JUMP JUMPDEST PUSH1 0x1 DUP2 ADD SWAP1 POP PUSH2 0xFEE JUMP JUMPDEST POP POP JUMP JUMPDEST PUSH1 0x1F DUP3 GT ISZERO PUSH2 0x1051 JUMPI PUSH2 0x1022 DUP2 PUSH2 0xEF1 JUMP JUMPDEST PUSH2 0x102B DUP5 PUSH2 0xF06 JUMP JUMPDEST DUP2 ADD PUSH1 0x20 DUP6 LT ISZERO PUSH2 0x103A JUMPI DUP2 SWAP1 POP JUMPDEST PUSH2 0x104E PUSH2 0x1046 DUP6 PUSH2 0xF06 JUMP JUMPDEST DUP4 ADD DUP3 PUSH2 0xFED JUMP JUMPDEST POP POP JUMPDEST POP POP POP JUMP JUMPDEST PUSH1 0x0 DUP3 DUP3 SHR SWAP1 POP SWAP3 SWAP2 POP POP JUMP JUMPDEST PUSH1 0x0 PUSH2 0x1074 PUSH1 0x0 NOT DUP5 PUSH1 0x8 MUL PUSH2 0x1056 JUMP JUMPDEST NOT DUP1 DUP4 AND SWAP2 POP POP SWAP3 SWAP2 POP POP JUMP JUMPDEST PUSH1 0x0 PUSH2 0x108D DUP4 DUP4 PUSH2 0x1063 JUMP JUMPDEST SWAP2 POP DUP3 PUSH1 0x2 MUL DUP3 OR SWAP1 POP SWAP3 SWAP2 POP POP JUMP JUMPDEST PUSH2 0x10A6 DUP3 PUSH2 0xA23 JUMP JUMPDEST PUSH8 0xFFFFFFFFFFFFFFFF DUP2 GT ISZERO PUSH2 0x10BF JUMPI PUSH2 0x10BE PUSH2 0xEC2 JUMP JUMPDEST JUMPDEST PUSH2 0x10C9 DUP3 SLOAD PUSH2 0xDC2 JUMP JUMPDEST PUSH2 0x10D4 DUP3 DUP3 DUP6 PUSH2 0x1010 JUMP JUMPDEST PUSH1 0x0 PUSH1 0x20 SWAP1 POP PUSH1 0x1F DUP4 GT PUSH1 0x1 DUP2 EQ PUSH2 0x1107 JUMPI PUSH1 0x0 DUP5 ISZERO PUSH2 0x10F5 JUMPI DUP3 DUP8 ADD MLOAD SWAP1 POP JUMPDEST PUSH2 0x10FF DUP6 DUP3 PUSH2 0x1081 JUMP JUMPDEST DUP7 SSTORE POP PUSH2 0x1167 JUMP JUMPDEST PUSH1 0x1F NOT DUP5 AND PUSH2 0x1115 DUP7 PUSH2 0xEF1 JUMP JUMPDEST PUSH1 0x0 JUMPDEST DUP3 DUP2 LT ISZERO PUSH2 0x113D JUMPI DUP5 DUP10 ADD MLOAD DUP3 SSTORE PUSH1 0x1 DUP3 ADD SWAP2 POP PUSH1 0x20 DUP6 ADD SWAP5 POP PUSH1 0x20 DUP2 ADD SWAP1 POP PUSH2 0x1118 JUMP JUMPDEST DUP7 DUP4 LT ISZERO PUSH2 0x115A JUMPI DUP5 DUP10 ADD MLOAD PUSH2 0x1156 PUSH1 0x1F DUP10 AND DUP3 PUSH2 0x1063 JUMP JUMPDEST DUP4 SSTORE POP JUMPDEST PUSH1 0x1 PUSH1 0x2 DUP9 MUL ADD DUP9 SSTORE POP POP POP JUMPDEST POP POP POP POP POP POP JUMP JUMPDEST PUSH32 0x4E487B7100000000000000000000000000000000000000000000000000000000 PUSH1 0x0 MSTORE PUSH1 0x32 PUSH1 0x4 MSTORE PUSH1 0x24 PUSH1 0x0 REVERT JUMPDEST PUSH32 0x4D61746368206973207374696C6C206F6E000000000000000000000000000000 PUSH1 0x0 DUP3 ADD MSTORE POP JUMP JUMPDEST PUSH1 0x0 PUSH2 0x11D4 PUSH1 0x11 DUP4 PUSH2 0xA2E JUMP JUMPDEST SWAP2 POP PUSH2 0x11DF DUP3 PUSH2 0x119E JUMP JUMPDEST PUSH1 0x20 DUP3 ADD SWAP1 POP SWAP2 SWAP1 POP JUMP JUMPDEST PUSH1 0x0 PUSH1 0x20 DUP3 ADD SWAP1 POP DUP2 DUP2 SUB PUSH1 0x0 DUP4 ADD MSTORE PUSH2 0x1203 DUP2 PUSH2 0x11C7 JUMP JUMPDEST SWAP1 POP SWAP2 SWAP1 POP JUMP INVALID LOG2 PUSH5 0x6970667358 0x22 SLT KECCAK256 0xBC 0xD5 SHL 0xC2 SMOD 0xCE CALL BALANCE 0xC2 0x22 0xB4 PUSH9 0xBB0714D6617C6EB0F6 0xCB SELFBALANCE SWAP5 PUSH1 0x1C GASPRICE SWAP1 0xAA PUSH10 0xEB8F64736F6C63430008 GT STOP CALLER "
				},
				"gasEstimates": {
					"creation": {
						"codeDepositCost": "934400",
						"executionCost": "25234",
						"totalCost": "959634"
					},
					"external": {
						"Game(uint256)": "infinite",
						"admin()": "2577",
						"allMatch(uint256)": "infinite",
						"closeMatch(uint256,uint256,uint256)": "infinite",
						"instantiateMatch(string,string,uint256)": "infinite",
						"specificMatchBets(uint256)": "infinite",
						"userBet(address,uint256)": "infinite"
					}
				},
				"methodIdentifiers": {
					"Game(uint256)": "2172ff16",
					"admin()": "f851a440",
					"allMatch(uint256)": "b2edb39f",
					"closeMatch(uint256,uint256,uint256)": "ec7361a8",
					"instantiateMatch(string,string,uint256)": "bc9e6e2c",
					"specificMatchBets(uint256)": "15a3ae71",
					"userBet(address,uint256)": "4195ab8e"
				}
			},
			"storageLayout": {
				"storage": [
					{
						"astId": 8,
						"contract": "contracts/betting.sol:DistanceFiBET",
						"label": "admin",
						"offset": 0,
						"slot": "0",
						"type": "t_address"
					},
					{
						"astId": 38,
						"contract": "contracts/betting.sol:DistanceFiBET",
						"label": "Game",
						"offset": 0,
						"slot": "1",
						"type": "t_mapping(t_uint256,t_struct(Match)25_storage)"
					},
					{
						"astId": 45,
						"contract": "contracts/betting.sol:DistanceFiBET",
						"label": "userBet",
						"offset": 0,
						"slot": "2",
						"type": "t_mapping(t_address,t_mapping(t_uint256,t_struct(Bettor)33_storage))"
					},
					{
						"astId": 49,
						"contract": "contracts/betting.sol:DistanceFiBET",
						"label": "allMatch",
						"offset": 0,
						"slot": "3",
						"type": "t_array(t_struct(Match)25_storage)dyn_storage"
					},
					{
						"astId": 62,
						"contract": "contracts/betting.sol:DistanceFiBET",
						"label": "specificMatchBets",
						"offset": 0,
						"slot": "4",
						"type": "t_mapping(t_uint256,t_struct(allBets)57_storage)"
					}
				],
				"types": {
					"t_address": {
						"encoding": "inplace",
						"label": "address",
						"numberOfBytes": "20"
					},
					"t_array(t_struct(Match)25_storage)dyn_storage": {
						"base": "t_struct(Match)25_storage",
						"encoding": "dynamic_array",
						"label": "struct DistanceFiBET.Match[]",
						"numberOfBytes": "32"
					},
					"t_enum(Choices)6": {
						"encoding": "inplace",
						"label": "enum DistanceFiBET.Choices",
						"numberOfBytes": "1"
					},
					"t_mapping(t_address,t_mapping(t_uint256,t_struct(Bettor)33_storage))": {
						"encoding": "mapping",
						"key": "t_address",
						"label": "mapping(address => mapping(uint256 => struct DistanceFiBET.Bettor))",
						"numberOfBytes": "32",
						"value": "t_mapping(t_uint256,t_struct(Bettor)33_storage)"
					},
					"t_mapping(t_uint256,t_struct(Bettor)33_storage)": {
						"encoding": "mapping",
						"key": "t_uint256",
						"label": "mapping(uint256 => struct DistanceFiBET.Bettor)",
						"numberOfBytes": "32",
						"value": "t_struct(Bettor)33_storage"
					},
					"t_mapping(t_uint256,t_struct(Match)25_storage)": {
						"encoding": "mapping",
						"key": "t_uint256",
						"label": "mapping(uint256 => struct DistanceFiBET.Match)",
						"numberOfBytes": "32",
						"value": "t_struct(Match)25_storage"
					},
					"t_mapping(t_uint256,t_struct(allBets)57_storage)": {
						"encoding": "mapping",
						"key": "t_uint256",
						"label": "mapping(uint256 => struct DistanceFiBET.allBets)",
						"numberOfBytes": "32",
						"value": "t_struct(allBets)57_storage"
					},
					"t_string_storage": {
						"encoding": "bytes",
						"label": "string",
						"numberOfBytes": "32"
					},
					"t_struct(Bettor)33_storage": {
						"encoding": "inplace",
						"label": "struct DistanceFiBET.Bettor",
						"members": [
							{
								"astId": 28,
								"contract": "contracts/betting.sol:DistanceFiBET",
								"label": "bet",
								"offset": 0,
								"slot": "0",
								"type": "t_enum(Choices)6"
							},
							{
								"astId": 30,
								"contract": "contracts/betting.sol:DistanceFiBET",
								"label": "winAmounts",
								"offset": 0,
								"slot": "1",
								"type": "t_uint256"
							},
							{
								"astId": 32,
								"contract": "contracts/betting.sol:DistanceFiBET",
								"label": "betAmount",
								"offset": 0,
								"slot": "2",
								"type": "t_uint256"
							}
						],
						"numberOfBytes": "96"
					},
					"t_struct(Match)25_storage": {
						"encoding": "inplace",
						"label": "struct DistanceFiBET.Match",
						"members": [
							{
								"astId": 15,
								"contract": "contracts/betting.sol:DistanceFiBET",
								"label": "HomeTeam",
								"offset": 0,
								"slot": "0",
								"type": "t_string_storage"
							},
							{
								"astId": 17,
								"contract": "contracts/betting.sol:DistanceFiBET",
								"label": "AwayTeam",
								"offset": 0,
								"slot": "1",
								"type": "t_string_storage"
							},
							{
								"astId": 19,
								"contract": "contracts/betting.sol:DistanceFiBET",
								"label": "startTime",
								"offset": 0,
								"slot": "2",
								"type": "t_uint256"
							},
							{
								"astId": 21,
								"contract": "contracts/betting.sol:DistanceFiBET",
								"label": "endTime",
								"offset": 0,
								"slot": "3",
								"type": "t_uint256"
							},
							{
								"astId": 24,
								"contract": "contracts/betting.sol:DistanceFiBET",
								"label": "results",
								"offset": 0,
								"slot": "4",
								"type": "t_struct(Results)13_storage"
							}
						],
						"numberOfBytes": "192"
					},
					"t_struct(Results)13_storage": {
						"encoding": "inplace",
						"label": "struct DistanceFiBET.Results",
						"members": [
							{
								"astId": 10,
								"contract": "contracts/betting.sol:DistanceFiBET",
								"label": "Home_score",
								"offset": 0,
								"slot": "0",
								"type": "t_uint256"
							},
							{
								"astId": 12,
								"contract": "contracts/betting.sol:DistanceFiBET",
								"label": "Away_score",
								"offset": 0,
								"slot": "1",
								"type": "t_uint256"
							}
						],
						"numberOfBytes": "64"
					},
					"t_struct(allBets)57_storage": {
						"encoding": "inplace",
						"label": "struct DistanceFiBET.allBets",
						"members": [
							{
								"astId": 51,
								"contract": "contracts/betting.sol:DistanceFiBET",
								"label": "bettor",
								"offset": 0,
								"slot": "0",
								"type": "t_address"
							},
							{
								"astId": 53,
								"contract": "contracts/betting.sol:DistanceFiBET",
								"label": "amount",
								"offset": 0,
								"slot": "1",
								"type": "t_uint256"
							},
							{
								"astId": 56,
								"contract": "contracts/betting.sol:DistanceFiBET",
								"label": "choice",
								"offset": 0,
								"slot": "2",
								"type": "t_enum(Choices)6"
							}
						],
						"numberOfBytes": "96"
					},
					"t_uint256": {
						"encoding": "inplace",
						"label": "uint256",
						"numberOfBytes": "32"
					}
				}
			},
			"userdoc": {
				"kind": "user",
				"methods": {},
				"version": 1
			}
		}
	}
}