{
	"contracts/betting.sol": {
		"DistanceFiBET": {
			"abi": [
				{
					"inputs": [],
					"stateMutability": "nonpayable",
					"type": "constructor"
				},
				{
					"inputs": [],
					"name": "admin",
					"outputs": [
						{
							"internalType": "address",
							"name": "",
							"type": "address"
						}
					],
					"stateMutability": "view",
					"type": "function"
				},
				{
					"inputs": [
						{
							"internalType": "uint256",
							"name": "",
							"type": "uint256"
						}
					],
					"name": "allMatch",
					"outputs": [
						{
							"internalType": "string",
							"name": "HomeTeam",
							"type": "string"
						},
						{
							"internalType": "string",
							"name": "AwayTeam",
							"type": "string"
						},
						{
							"internalType": "uint256",
							"name": "startTime",
							"type": "uint256"
						},
						{
							"internalType": "uint256",
							"name": "endTime",
							"type": "uint256"
						},
						{
							"components": [
								{
									"internalType": "uint256",
									"name": "Home_score",
									"type": "uint256"
								},
								{
									"internalType": "uint256",
									"name": "Away_score",
									"type": "uint256"
								}
							],
							"internalType": "struct DistanceFiBET.Results",
							"name": "results",
							"type": "tuple"
						}
					],
					"stateMutability": "view",
					"type": "function"
				},
				{
					"inputs": [
						{
							"internalType": "uint256",
							"name": "epoch",
							"type": "uint256"
						},
						{
							"internalType": "uint256",
							"name": "_homeScore",
							"type": "uint256"
						},
						{
							"internalType": "uint256",
							"name": "_awayScore",
							"type": "uint256"
						}
					],
					"name": "closeMatch",
					"outputs": [],
					"stateMutability": "nonpayable",
					"type": "function"
				},
				{
					"inputs": [
						{
							"internalType": "string",
							"name": "_HomeTeam",
							"type": "string"
						},
						{
							"internalType": "string",
							"name": "_AwayTeam",
							"type": "string"
						},
						{
							"internalType": "uint256",
							"name": "_startTime",
							"type": "uint256"
						}
					],
					"name": "instantiateMatch",
					"outputs": [
						{
							"internalType": "bool",
							"name": "",
							"type": "bool"
						}
					],
					"stateMutability": "nonpayable",
					"type": "function"
				},
				{
					"inputs": [
						{
							"internalType": "uint256",
							"name": "",
							"type": "uint256"
						}
					],
					"name": "specificMatchBets",
					"outputs": [
						{
							"internalType": "address",
							"name": "bettor",
							"type": "address"
						},
						{
							"internalType": "uint256",
							"name": "amount",
							"type": "uint256"
						},
						{
							"internalType": "enum DistanceFiBET.Choices",
							"name": "choice",
							"type": "uint8"
						}
					],
					"stateMutability": "view",
					"type": "function"
				},
				{
					"inputs": [
						{
							"internalType": "address",
							"name": "",
							"type": "address"
						}
					],
					"name": "userBet",
					"outputs": [
						{
							"internalType": "enum DistanceFiBET.Choices",
							"name": "bet",
							"type": "uint8"
						},
						{
							"internalType": "uint256",
							"name": "winAmounts",
							"type": "uint256"
						},
						{
							"internalType": "uint256",
							"name": "betAmount",
							"type": "uint256"
						}
					],
					"stateMutability": "view",
					"type": "function"
				}
			],
			"devdoc": {
				"kind": "dev",
				"methods": {},
				"version": 1
			},
			"evm": {
				"assembly": "    /* \"contracts/betting.sol\":63:1920  contract DistanceFiBET{... */\n  mstore(0x40, 0x80)\n    /* \"contracts/betting.sol\":750:800  constructor(){... */\n  callvalue\n  dup1\n  iszero\n  tag_1\n  jumpi\n  0x00\n  dup1\n  revert\ntag_1:\n  pop\n    /* \"contracts/betting.sol\":782:792  msg.sender */\n  caller\n    /* \"contracts/betting.sol\":774:779  admin */\n  0x00\n  dup1\n    /* \"contracts/betting.sol\":774:792  admin = msg.sender */\n  0x0100\n  exp\n  dup2\n  sload\n  dup2\n  0xffffffffffffffffffffffffffffffffffffffff\n  mul\n  not\n  and\n  swap1\n  dup4\n  0xffffffffffffffffffffffffffffffffffffffff\n  and\n  mul\n  or\n  swap1\n  sstore\n  pop\n    /* \"contracts/betting.sol\":63:1920  contract DistanceFiBET{... */\n  dataSize(sub_0)\n  dup1\n  dataOffset(sub_0)\n  0x00\n  codecopy\n  0x00\n  return\nstop\n\nsub_0: assembly {\n        /* \"contracts/betting.sol\":63:1920  contract DistanceFiBET{... */\n      mstore(0x40, 0x80)\n      callvalue\n      dup1\n      iszero\n      tag_1\n      jumpi\n      0x00\n      dup1\n      revert\n    tag_1:\n      pop\n      jumpi(tag_2, lt(calldatasize, 0x04))\n      shr(0xe0, calldataload(0x00))\n      dup1\n      0x15a3ae71\n      eq\n      tag_3\n      jumpi\n      dup1\n      0x67ad4ec2\n      eq\n      tag_4\n      jumpi\n      dup1\n      0xb2edb39f\n      eq\n      tag_5\n      jumpi\n      dup1\n      0xbc9e6e2c\n      eq\n      tag_6\n      jumpi\n      dup1\n      0xec7361a8\n      eq\n      tag_7\n      jumpi\n      dup1\n      0xf851a440\n      eq\n      tag_8\n      jumpi\n    tag_2:\n      0x00\n      dup1\n      revert\n        /* \"contracts/betting.sol\":688:738  mapping (uint => allBets) public specificMatchBets */\n    tag_3:\n      tag_9\n      0x04\n      dup1\n      calldatasize\n      sub\n      dup2\n      add\n      swap1\n      tag_10\n      swap2\n      swap1\n      tag_11\n      jump\t// in\n    tag_10:\n      tag_12\n      jump\t// in\n    tag_9:\n      mload(0x40)\n      tag_13\n      swap4\n      swap3\n      swap2\n      swap1\n      tag_14\n      jump\t// in\n    tag_13:\n      mload(0x40)\n      dup1\n      swap2\n      sub\n      swap1\n      return\n        /* \"contracts/betting.sol\":539:581  mapping (address => Bettor) public userBet */\n    tag_4:\n      tag_15\n      0x04\n      dup1\n      calldatasize\n      sub\n      dup2\n      add\n      swap1\n      tag_16\n      swap2\n      swap1\n      tag_17\n      jump\t// in\n    tag_16:\n      tag_18\n      jump\t// in\n    tag_15:\n      mload(0x40)\n      tag_19\n      swap4\n      swap3\n      swap2\n      swap1\n      tag_20\n      jump\t// in\n    tag_19:\n      mload(0x40)\n      dup1\n      swap2\n      sub\n      swap1\n      return\n        /* \"contracts/betting.sol\":354:378  Match [] public allMatch */\n    tag_5:\n      tag_21\n      0x04\n      dup1\n      calldatasize\n      sub\n      dup2\n      add\n      swap1\n      tag_22\n      swap2\n      swap1\n      tag_11\n      jump\t// in\n    tag_22:\n      tag_23\n      jump\t// in\n    tag_21:\n      mload(0x40)\n      tag_24\n      swap6\n      swap5\n      swap4\n      swap3\n      swap2\n      swap1\n      tag_25\n      jump\t// in\n    tag_24:\n      mload(0x40)\n      dup1\n      swap2\n      sub\n      swap1\n      return\n        /* \"contracts/betting.sol\":808:1210  function instantiateMatch(string calldata _HomeTeam, string calldata _AwayTeam, uint _startTime) external returns (bool) {... */\n    tag_6:\n      tag_26\n      0x04\n      dup1\n      calldatasize\n      sub\n      dup2\n      add\n      swap1\n      tag_27\n      swap2\n      swap1\n      tag_28\n      jump\t// in\n    tag_27:\n      tag_29\n      jump\t// in\n    tag_26:\n      mload(0x40)\n      tag_30\n      swap2\n      swap1\n      tag_31\n      jump\t// in\n    tag_30:\n      mload(0x40)\n      dup1\n      swap2\n      sub\n      swap1\n      return\n        /* \"contracts/betting.sol\":1218:1602  function closeMatch(uint epoch, uint _homeScore, uint _awayScore) external {... */\n    tag_7:\n      tag_32\n      0x04\n      dup1\n      calldatasize\n      sub\n      dup2\n      add\n      swap1\n      tag_33\n      swap2\n      swap1\n      tag_34\n      jump\t// in\n    tag_33:\n      tag_35\n      jump\t// in\n    tag_32:\n      stop\n        /* \"contracts/betting.sol\":94:114  address public admin */\n    tag_8:\n      tag_36\n      tag_37\n      jump\t// in\n    tag_36:\n      mload(0x40)\n      tag_38\n      swap2\n      swap1\n      tag_39\n      jump\t// in\n    tag_38:\n      mload(0x40)\n      dup1\n      swap2\n      sub\n      swap1\n      return\n        /* \"contracts/betting.sol\":688:738  mapping (uint => allBets) public specificMatchBets */\n    tag_12:\n      mstore(0x20, 0x03)\n      dup1\n      0x00\n      mstore\n      keccak256(0x00, 0x40)\n      0x00\n      swap2\n      pop\n      swap1\n      pop\n      dup1\n      0x00\n      add\n      0x00\n      swap1\n      sload\n      swap1\n      0x0100\n      exp\n      swap1\n      div\n      0xffffffffffffffffffffffffffffffffffffffff\n      and\n      swap1\n      dup1\n      0x01\n      add\n      sload\n      swap1\n      dup1\n      0x02\n      add\n      0x00\n      swap1\n      sload\n      swap1\n      0x0100\n      exp\n      swap1\n      div\n      0xff\n      and\n      swap1\n      pop\n      dup4\n      jump\t// out\n        /* \"contracts/betting.sol\":539:581  mapping (address => Bettor) public userBet */\n    tag_18:\n      mstore(0x20, 0x02)\n      dup1\n      0x00\n      mstore\n      keccak256(0x00, 0x40)\n      0x00\n      swap2\n      pop\n      swap1\n      pop\n      dup1\n      0x00\n      add\n      0x00\n      swap1\n      sload\n      swap1\n      0x0100\n      exp\n      swap1\n      div\n      0xff\n      and\n      swap1\n      dup1\n      0x01\n      add\n      sload\n      swap1\n      dup1\n      0x02\n      add\n      sload\n      swap1\n      pop\n      dup4\n      jump\t// out\n        /* \"contracts/betting.sol\":354:378  Match [] public allMatch */\n    tag_23:\n      0x01\n      dup2\n      dup2\n      sload\n      dup2\n      lt\n      tag_40\n      jumpi\n      0x00\n      dup1\n      revert\n    tag_40:\n      swap1\n      0x00\n      mstore\n      keccak256(0x00, 0x20)\n      swap1\n      0x06\n      mul\n      add\n      0x00\n      swap2\n      pop\n      swap1\n      pop\n      dup1\n      0x00\n      add\n      dup1\n      sload\n      tag_42\n      swap1\n      tag_43\n      jump\t// in\n    tag_42:\n      dup1\n      0x1f\n      add\n      0x20\n      dup1\n      swap2\n      div\n      mul\n      0x20\n      add\n      mload(0x40)\n      swap1\n      dup2\n      add\n      0x40\n      mstore\n      dup1\n      swap3\n      swap2\n      swap1\n      dup2\n      dup2\n      mstore\n      0x20\n      add\n      dup3\n      dup1\n      sload\n      tag_44\n      swap1\n      tag_43\n      jump\t// in\n    tag_44:\n      dup1\n      iszero\n      tag_45\n      jumpi\n      dup1\n      0x1f\n      lt\n      tag_46\n      jumpi\n      0x0100\n      dup1\n      dup4\n      sload\n      div\n      mul\n      dup4\n      mstore\n      swap2\n      0x20\n      add\n      swap2\n      jump(tag_45)\n    tag_46:\n      dup3\n      add\n      swap2\n      swap1\n      0x00\n      mstore\n      keccak256(0x00, 0x20)\n      swap1\n    tag_47:\n      dup2\n      sload\n      dup2\n      mstore\n      swap1\n      0x01\n      add\n      swap1\n      0x20\n      add\n      dup1\n      dup4\n      gt\n      tag_47\n      jumpi\n      dup3\n      swap1\n      sub\n      0x1f\n      and\n      dup3\n      add\n      swap2\n    tag_45:\n      pop\n      pop\n      pop\n      pop\n      pop\n      swap1\n      dup1\n      0x01\n      add\n      dup1\n      sload\n      tag_48\n      swap1\n      tag_43\n      jump\t// in\n    tag_48:\n      dup1\n      0x1f\n      add\n      0x20\n      dup1\n      swap2\n      div\n      mul\n      0x20\n      add\n      mload(0x40)\n      swap1\n      dup2\n      add\n      0x40\n      mstore\n      dup1\n      swap3\n      swap2\n      swap1\n      dup2\n      dup2\n      mstore\n      0x20\n      add\n      dup3\n      dup1\n      sload\n      tag_49\n      swap1\n      tag_43\n      jump\t// in\n    tag_49:\n      dup1\n      iszero\n      tag_50\n      jumpi\n      dup1\n      0x1f\n      lt\n      tag_51\n      jumpi\n      0x0100\n      dup1\n      dup4\n      sload\n      div\n      mul\n      dup4\n      mstore\n      swap2\n      0x20\n      add\n      swap2\n      jump(tag_50)\n    tag_51:\n      dup3\n      add\n      swap2\n      swap1\n      0x00\n      mstore\n      keccak256(0x00, 0x20)\n      swap1\n    tag_52:\n      dup2\n      sload\n      dup2\n      mstore\n      swap1\n      0x01\n      add\n      swap1\n      0x20\n      add\n      dup1\n      dup4\n      gt\n      tag_52\n      jumpi\n      dup3\n      swap1\n      sub\n      0x1f\n      and\n      dup3\n      add\n      swap2\n    tag_50:\n      pop\n      pop\n      pop\n      pop\n      pop\n      swap1\n      dup1\n      0x02\n      add\n      sload\n      swap1\n      dup1\n      0x03\n      add\n      sload\n      swap1\n      dup1\n      0x04\n      add\n      mload(0x40)\n      dup1\n      0x40\n      add\n      0x40\n      mstore\n      swap1\n      dup2\n      0x00\n      dup3\n      add\n      sload\n      dup2\n      mstore\n      0x20\n      add\n      0x01\n      dup3\n      add\n      sload\n      dup2\n      mstore\n      pop\n      pop\n      swap1\n      pop\n      dup6\n      jump\t// out\n        /* \"contracts/betting.sol\":808:1210  function instantiateMatch(string calldata _HomeTeam, string calldata _AwayTeam, uint _startTime) external returns (bool) {... */\n    tag_29:\n        /* \"contracts/betting.sol\":923:927  bool */\n      0x00\n        /* \"contracts/betting.sol\":957:967  msg.sender */\n      caller\n        /* \"contracts/betting.sol\":948:967  admin == msg.sender */\n      0xffffffffffffffffffffffffffffffffffffffff\n      and\n        /* \"contracts/betting.sol\":948:953  admin */\n      0x00\n      dup1\n      sload\n      swap1\n      0x0100\n      exp\n      swap1\n      div\n      0xffffffffffffffffffffffffffffffffffffffff\n      and\n        /* \"contracts/betting.sol\":948:967  admin == msg.sender */\n      0xffffffffffffffffffffffffffffffffffffffff\n      and\n      eq\n        /* \"contracts/betting.sol\":940:981  require(admin == msg.sender, \"Not Owner\") */\n      tag_54\n      jumpi\n      mload(0x40)\n      0x08c379a000000000000000000000000000000000000000000000000000000000\n      dup2\n      mstore\n      0x04\n      add\n      tag_55\n      swap1\n      tag_56\n      jump\t// in\n    tag_55:\n      mload(0x40)\n      dup1\n      swap2\n      sub\n      swap1\n      revert\n    tag_54:\n        /* \"contracts/betting.sol\":992:1005  uint matchEnd */\n      0x00\n        /* \"contracts/betting.sol\":1021:1031  95 seconds */\n      0x5f\n        /* \"contracts/betting.sol\":1008:1018  _startTime */\n      dup4\n        /* \"contracts/betting.sol\":1008:1031  _startTime + 95 seconds */\n      tag_57\n      swap2\n      swap1\n      tag_58\n      jump\t// in\n    tag_57:\n        /* \"contracts/betting.sol\":992:1031  uint matchEnd = _startTime + 95 seconds */\n      swap1\n      pop\n        /* \"contracts/betting.sol\":1042:1072  Results memory startingResults */\n      0x00\n        /* \"contracts/betting.sol\":1075:1088  Results(0, 0) */\n      mload(0x40)\n      dup1\n      0x40\n      add\n      0x40\n      mstore\n      dup1\n        /* \"contracts/betting.sol\":1083:1084  0 */\n      0x00\n        /* \"contracts/betting.sol\":1075:1088  Results(0, 0) */\n      dup2\n      mstore\n      0x20\n      add\n        /* \"contracts/betting.sol\":1086:1087  0 */\n      0x00\n        /* \"contracts/betting.sol\":1075:1088  Results(0, 0) */\n      dup2\n      mstore\n      pop\n        /* \"contracts/betting.sol\":1042:1088  Results memory startingResults = Results(0, 0) */\n      swap1\n      pop\n        /* \"contracts/betting.sol\":1099:1107  allMatch */\n      0x01\n        /* \"contracts/betting.sol\":1113:1179  Match(_HomeTeam, _AwayTeam, _startTime, matchEnd, startingResults) */\n      mload(0x40)\n      dup1\n      0xa0\n      add\n      0x40\n      mstore\n      dup1\n        /* \"contracts/betting.sol\":1119:1128  _HomeTeam */\n      dup11\n      dup11\n        /* \"contracts/betting.sol\":1113:1179  Match(_HomeTeam, _AwayTeam, _startTime, matchEnd, startingResults) */\n      dup1\n      dup1\n      0x1f\n      add\n      0x20\n      dup1\n      swap2\n      div\n      mul\n      0x20\n      add\n      mload(0x40)\n      swap1\n      dup2\n      add\n      0x40\n      mstore\n      dup1\n      swap4\n      swap3\n      swap2\n      swap1\n      dup2\n      dup2\n      mstore\n      0x20\n      add\n      dup4\n      dup4\n      dup1\n      dup3\n      dup5\n      calldatacopy\n      0x00\n      dup2\n      dup5\n      add\n      mstore\n      not(0x1f)\n      0x1f\n      dup3\n      add\n      and\n      swap1\n      pop\n      dup1\n      dup4\n      add\n      swap3\n      pop\n      pop\n      pop\n      pop\n      pop\n      pop\n      pop\n      dup2\n      mstore\n      0x20\n      add\n        /* \"contracts/betting.sol\":1130:1139  _AwayTeam */\n      dup9\n      dup9\n        /* \"contracts/betting.sol\":1113:1179  Match(_HomeTeam, _AwayTeam, _startTime, matchEnd, startingResults) */\n      dup1\n      dup1\n      0x1f\n      add\n      0x20\n      dup1\n      swap2\n      div\n      mul\n      0x20\n      add\n      mload(0x40)\n      swap1\n      dup2\n      add\n      0x40\n      mstore\n      dup1\n      swap4\n      swap3\n      swap2\n      swap1\n      dup2\n      dup2\n      mstore\n      0x20\n      add\n      dup4\n      dup4\n      dup1\n      dup3\n      dup5\n      calldatacopy\n      0x00\n      dup2\n      dup5\n      add\n      mstore\n      not(0x1f)\n      0x1f\n      dup3\n      add\n      and\n      swap1\n      pop\n      dup1\n      dup4\n      add\n      swap3\n      pop\n      pop\n      pop\n      pop\n      pop\n      pop\n      pop\n      dup2\n      mstore\n      0x20\n      add\n        /* \"contracts/betting.sol\":1141:1151  _startTime */\n      dup7\n        /* \"contracts/betting.sol\":1113:1179  Match(_HomeTeam, _AwayTeam, _startTime, matchEnd, startingResults) */\n      dup2\n      mstore\n      0x20\n      add\n        /* \"contracts/betting.sol\":1153:1161  matchEnd */\n      dup5\n        /* \"contracts/betting.sol\":1113:1179  Match(_HomeTeam, _AwayTeam, _startTime, matchEnd, startingResults) */\n      dup2\n      mstore\n      0x20\n      add\n        /* \"contracts/betting.sol\":1163:1178  startingResults */\n      dup4\n        /* \"contracts/betting.sol\":1113:1179  Match(_HomeTeam, _AwayTeam, _startTime, matchEnd, startingResults) */\n      dup2\n      mstore\n      pop\n        /* \"contracts/betting.sol\":1099:1180  allMatch.push(Match(_HomeTeam, _AwayTeam, _startTime, matchEnd, startingResults)) */\n      swap1\n      dup1\n      0x01\n      dup2\n      sload\n      add\n      dup1\n      dup3\n      sstore\n      dup1\n      swap2\n      pop\n      pop\n      0x01\n      swap1\n      sub\n      swap1\n      0x00\n      mstore\n      keccak256(0x00, 0x20)\n      swap1\n      0x06\n      mul\n      add\n      0x00\n      swap1\n      swap2\n      swap1\n      swap2\n      swap1\n      swap2\n      pop\n      0x00\n      dup3\n      add\n      mload\n      dup2\n      0x00\n      add\n      swap1\n      dup2\n      tag_60\n      swap2\n      swap1\n      tag_61\n      jump\t// in\n    tag_60:\n      pop\n      0x20\n      dup3\n      add\n      mload\n      dup2\n      0x01\n      add\n      swap1\n      dup2\n      tag_62\n      swap2\n      swap1\n      tag_61\n      jump\t// in\n    tag_62:\n      pop\n      0x40\n      dup3\n      add\n      mload\n      dup2\n      0x02\n      add\n      sstore\n      0x60\n      dup3\n      add\n      mload\n      dup2\n      0x03\n      add\n      sstore\n      0x80\n      dup3\n      add\n      mload\n      dup2\n      0x04\n      add\n      0x00\n      dup3\n      add\n      mload\n      dup2\n      0x00\n      add\n      sstore\n      0x20\n      dup3\n      add\n      mload\n      dup2\n      0x01\n      add\n      sstore\n      pop\n      pop\n      pop\n      pop\n        /* \"contracts/betting.sol\":1198:1202  true */\n      0x01\n        /* \"contracts/betting.sol\":1191:1202  return true */\n      swap3\n      pop\n      pop\n      pop\n        /* \"contracts/betting.sol\":808:1210  function instantiateMatch(string calldata _HomeTeam, string calldata _AwayTeam, uint _startTime) external returns (bool) {... */\n      swap6\n      swap5\n      pop\n      pop\n      pop\n      pop\n      pop\n      jump\t// out\n        /* \"contracts/betting.sol\":1218:1602  function closeMatch(uint epoch, uint _homeScore, uint _awayScore) external {... */\n    tag_35:\n        /* \"contracts/betting.sol\":1321:1331  msg.sender */\n      caller\n        /* \"contracts/betting.sol\":1312:1331  admin == msg.sender */\n      0xffffffffffffffffffffffffffffffffffffffff\n      and\n        /* \"contracts/betting.sol\":1312:1317  admin */\n      0x00\n      dup1\n      sload\n      swap1\n      0x0100\n      exp\n      swap1\n      div\n      0xffffffffffffffffffffffffffffffffffffffff\n      and\n        /* \"contracts/betting.sol\":1312:1331  admin == msg.sender */\n      0xffffffffffffffffffffffffffffffffffffffff\n      and\n      eq\n        /* \"contracts/betting.sol\":1304:1345  require(admin == msg.sender, \"Not Owner\") */\n      tag_64\n      jumpi\n      mload(0x40)\n      0x08c379a000000000000000000000000000000000000000000000000000000000\n      dup2\n      mstore\n      0x04\n      add\n      tag_65\n      swap1\n      tag_56\n      jump\t// in\n    tag_65:\n      mload(0x40)\n      dup1\n      swap2\n      sub\n      swap1\n      revert\n    tag_64:\n        /* \"contracts/betting.sol\":1356:1372  uint currentTime */\n      0x00\n        /* \"contracts/betting.sol\":1375:1390  block.timestamp */\n      timestamp\n        /* \"contracts/betting.sol\":1356:1390  uint currentTime = block.timestamp */\n      swap1\n      pop\n        /* \"contracts/betting.sol\":1424:1432  allMatch */\n      0x01\n        /* \"contracts/betting.sol\":1433:1438  epoch */\n      dup5\n        /* \"contracts/betting.sol\":1424:1439  allMatch[epoch] */\n      dup2\n      sload\n      dup2\n      lt\n      tag_66\n      jumpi\n      tag_67\n      tag_68\n      jump\t// in\n    tag_67:\n    tag_66:\n      swap1\n      0x00\n      mstore\n      keccak256(0x00, 0x20)\n      swap1\n      0x06\n      mul\n      add\n        /* \"contracts/betting.sol\":1424:1447  allMatch[epoch].endTime */\n      0x03\n      add\n      sload\n        /* \"contracts/betting.sol\":1409:1420  currentTime */\n      dup2\n        /* \"contracts/betting.sol\":1409:1447  currentTime >= allMatch[epoch].endTime */\n      lt\n      iszero\n        /* \"contracts/betting.sol\":1401:1469  require(currentTime >= allMatch[epoch].endTime, \"Match is still on\") */\n      tag_70\n      jumpi\n      mload(0x40)\n      0x08c379a000000000000000000000000000000000000000000000000000000000\n      dup2\n      mstore\n      0x04\n      add\n      tag_71\n      swap1\n      tag_72\n      jump\t// in\n    tag_71:\n      mload(0x40)\n      dup1\n      swap2\n      sub\n      swap1\n      revert\n    tag_70:\n        /* \"contracts/betting.sol\":1480:1509  Results memory closingResults */\n      0x00\n        /* \"contracts/betting.sol\":1512:1543  Results(_homeScore, _awayScore) */\n      mload(0x40)\n      dup1\n      0x40\n      add\n      0x40\n      mstore\n      dup1\n        /* \"contracts/betting.sol\":1520:1530  _homeScore */\n      dup6\n        /* \"contracts/betting.sol\":1512:1543  Results(_homeScore, _awayScore) */\n      dup2\n      mstore\n      0x20\n      add\n        /* \"contracts/betting.sol\":1532:1542  _awayScore */\n      dup5\n        /* \"contracts/betting.sol\":1512:1543  Results(_homeScore, _awayScore) */\n      dup2\n      mstore\n      pop\n        /* \"contracts/betting.sol\":1480:1543  Results memory closingResults = Results(_homeScore, _awayScore) */\n      swap1\n      pop\n        /* \"contracts/betting.sol\":1580:1594  closingResults */\n      dup1\n        /* \"contracts/betting.sol\":1554:1562  allMatch */\n      0x01\n        /* \"contracts/betting.sol\":1563:1568  epoch */\n      dup7\n        /* \"contracts/betting.sol\":1554:1569  allMatch[epoch] */\n      dup2\n      sload\n      dup2\n      lt\n      tag_73\n      jumpi\n      tag_74\n      tag_68\n      jump\t// in\n    tag_74:\n    tag_73:\n      swap1\n      0x00\n      mstore\n      keccak256(0x00, 0x20)\n      swap1\n      0x06\n      mul\n      add\n        /* \"contracts/betting.sol\":1554:1577  allMatch[epoch].results */\n      0x04\n      add\n        /* \"contracts/betting.sol\":1554:1594  allMatch[epoch].results = closingResults */\n      0x00\n      dup3\n      add\n      mload\n      dup2\n      0x00\n      add\n      sstore\n      0x20\n      dup3\n      add\n      mload\n      dup2\n      0x01\n      add\n      sstore\n      swap1\n      pop\n      pop\n        /* \"contracts/betting.sol\":1293:1602  {... */\n      pop\n      pop\n        /* \"contracts/betting.sol\":1218:1602  function closeMatch(uint epoch, uint _homeScore, uint _awayScore) external {... */\n      pop\n      pop\n      pop\n      jump\t// out\n        /* \"contracts/betting.sol\":94:114  address public admin */\n    tag_37:\n      0x00\n      dup1\n      sload\n      swap1\n      0x0100\n      exp\n      swap1\n      div\n      0xffffffffffffffffffffffffffffffffffffffff\n      and\n      dup2\n      jump\t// out\n        /* \"#utility.yul\":88:205   */\n    tag_77:\n        /* \"#utility.yul\":197:198   */\n      0x00\n        /* \"#utility.yul\":194:195   */\n      dup1\n        /* \"#utility.yul\":187:199   */\n      revert\n        /* \"#utility.yul\":211:328   */\n    tag_78:\n        /* \"#utility.yul\":320:321   */\n      0x00\n        /* \"#utility.yul\":317:318   */\n      dup1\n        /* \"#utility.yul\":310:322   */\n      revert\n        /* \"#utility.yul\":334:411   */\n    tag_79:\n        /* \"#utility.yul\":371:378   */\n      0x00\n        /* \"#utility.yul\":400:405   */\n      dup2\n        /* \"#utility.yul\":389:405   */\n      swap1\n      pop\n        /* \"#utility.yul\":334:411   */\n      swap2\n      swap1\n      pop\n      jump\t// out\n        /* \"#utility.yul\":417:539   */\n    tag_80:\n        /* \"#utility.yul\":490:514   */\n      tag_134\n        /* \"#utility.yul\":508:513   */\n      dup2\n        /* \"#utility.yul\":490:514   */\n      tag_79\n      jump\t// in\n    tag_134:\n        /* \"#utility.yul\":483:488   */\n      dup2\n        /* \"#utility.yul\":480:515   */\n      eq\n        /* \"#utility.yul\":470:533   */\n      tag_135\n      jumpi\n        /* \"#utility.yul\":529:530   */\n      0x00\n        /* \"#utility.yul\":526:527   */\n      dup1\n        /* \"#utility.yul\":519:531   */\n      revert\n        /* \"#utility.yul\":470:533   */\n    tag_135:\n        /* \"#utility.yul\":417:539   */\n      pop\n      jump\t// out\n        /* \"#utility.yul\":545:684   */\n    tag_81:\n        /* \"#utility.yul\":591:596   */\n      0x00\n        /* \"#utility.yul\":629:635   */\n      dup2\n        /* \"#utility.yul\":616:636   */\n      calldataload\n        /* \"#utility.yul\":607:636   */\n      swap1\n      pop\n        /* \"#utility.yul\":645:678   */\n      tag_137\n        /* \"#utility.yul\":672:677   */\n      dup2\n        /* \"#utility.yul\":645:678   */\n      tag_80\n      jump\t// in\n    tag_137:\n        /* \"#utility.yul\":545:684   */\n      swap3\n      swap2\n      pop\n      pop\n      jump\t// out\n        /* \"#utility.yul\":690:1019   */\n    tag_11:\n        /* \"#utility.yul\":749:755   */\n      0x00\n        /* \"#utility.yul\":798:800   */\n      0x20\n        /* \"#utility.yul\":786:795   */\n      dup3\n        /* \"#utility.yul\":777:784   */\n      dup5\n        /* \"#utility.yul\":773:796   */\n      sub\n        /* \"#utility.yul\":769:801   */\n      slt\n        /* \"#utility.yul\":766:885   */\n      iszero\n      tag_139\n      jumpi\n        /* \"#utility.yul\":804:883   */\n      tag_140\n      tag_77\n      jump\t// in\n    tag_140:\n        /* \"#utility.yul\":766:885   */\n    tag_139:\n        /* \"#utility.yul\":924:925   */\n      0x00\n        /* \"#utility.yul\":949:1002   */\n      tag_141\n        /* \"#utility.yul\":994:1001   */\n      dup5\n        /* \"#utility.yul\":985:991   */\n      dup3\n        /* \"#utility.yul\":974:983   */\n      dup6\n        /* \"#utility.yul\":970:992   */\n      add\n        /* \"#utility.yul\":949:1002   */\n      tag_81\n      jump\t// in\n    tag_141:\n        /* \"#utility.yul\":939:1002   */\n      swap2\n      pop\n        /* \"#utility.yul\":895:1012   */\n      pop\n        /* \"#utility.yul\":690:1019   */\n      swap3\n      swap2\n      pop\n      pop\n      jump\t// out\n        /* \"#utility.yul\":1025:1151   */\n    tag_82:\n        /* \"#utility.yul\":1062:1069   */\n      0x00\n        /* \"#utility.yul\":1102:1144   */\n      0xffffffffffffffffffffffffffffffffffffffff\n        /* \"#utility.yul\":1095:1100   */\n      dup3\n        /* \"#utility.yul\":1091:1145   */\n      and\n        /* \"#utility.yul\":1080:1145   */\n      swap1\n      pop\n        /* \"#utility.yul\":1025:1151   */\n      swap2\n      swap1\n      pop\n      jump\t// out\n        /* \"#utility.yul\":1157:1253   */\n    tag_83:\n        /* \"#utility.yul\":1194:1201   */\n      0x00\n        /* \"#utility.yul\":1223:1247   */\n      tag_144\n        /* \"#utility.yul\":1241:1246   */\n      dup3\n        /* \"#utility.yul\":1223:1247   */\n      tag_82\n      jump\t// in\n    tag_144:\n        /* \"#utility.yul\":1212:1247   */\n      swap1\n      pop\n        /* \"#utility.yul\":1157:1253   */\n      swap2\n      swap1\n      pop\n      jump\t// out\n        /* \"#utility.yul\":1259:1377   */\n    tag_84:\n        /* \"#utility.yul\":1346:1370   */\n      tag_146\n        /* \"#utility.yul\":1364:1369   */\n      dup2\n        /* \"#utility.yul\":1346:1370   */\n      tag_83\n      jump\t// in\n    tag_146:\n        /* \"#utility.yul\":1341:1344   */\n      dup3\n        /* \"#utility.yul\":1334:1371   */\n      mstore\n        /* \"#utility.yul\":1259:1377   */\n      pop\n      pop\n      jump\t// out\n        /* \"#utility.yul\":1383:1501   */\n    tag_85:\n        /* \"#utility.yul\":1470:1494   */\n      tag_148\n        /* \"#utility.yul\":1488:1493   */\n      dup2\n        /* \"#utility.yul\":1470:1494   */\n      tag_79\n      jump\t// in\n    tag_148:\n        /* \"#utility.yul\":1465:1468   */\n      dup3\n        /* \"#utility.yul\":1458:1495   */\n      mstore\n        /* \"#utility.yul\":1383:1501   */\n      pop\n      pop\n      jump\t// out\n        /* \"#utility.yul\":1507:1687   */\n    tag_86:\n        /* \"#utility.yul\":1555:1632   */\n      0x4e487b7100000000000000000000000000000000000000000000000000000000\n        /* \"#utility.yul\":1552:1553   */\n      0x00\n        /* \"#utility.yul\":1545:1633   */\n      mstore\n        /* \"#utility.yul\":1652:1656   */\n      0x21\n        /* \"#utility.yul\":1649:1650   */\n      0x04\n        /* \"#utility.yul\":1642:1657   */\n      mstore\n        /* \"#utility.yul\":1676:1680   */\n      0x24\n        /* \"#utility.yul\":1673:1674   */\n      0x00\n        /* \"#utility.yul\":1666:1681   */\n      revert\n        /* \"#utility.yul\":1693:1808   */\n    tag_87:\n        /* \"#utility.yul\":1776:1777   */\n      0x04\n        /* \"#utility.yul\":1769:1774   */\n      dup2\n        /* \"#utility.yul\":1766:1778   */\n      lt\n        /* \"#utility.yul\":1756:1802   */\n      tag_151\n      jumpi\n        /* \"#utility.yul\":1782:1800   */\n      tag_152\n      tag_86\n      jump\t// in\n    tag_152:\n        /* \"#utility.yul\":1756:1802   */\n    tag_151:\n        /* \"#utility.yul\":1693:1808   */\n      pop\n      jump\t// out\n        /* \"#utility.yul\":1814:1945   */\n    tag_88:\n        /* \"#utility.yul\":1861:1868   */\n      0x00\n        /* \"#utility.yul\":1890:1895   */\n      dup2\n        /* \"#utility.yul\":1879:1895   */\n      swap1\n      pop\n        /* \"#utility.yul\":1896:1939   */\n      tag_154\n        /* \"#utility.yul\":1933:1938   */\n      dup3\n        /* \"#utility.yul\":1896:1939   */\n      tag_87\n      jump\t// in\n    tag_154:\n        /* \"#utility.yul\":1814:1945   */\n      swap2\n      swap1\n      pop\n      jump\t// out\n        /* \"#utility.yul\":1951:2082   */\n    tag_89:\n        /* \"#utility.yul\":2009:2018   */\n      0x00\n        /* \"#utility.yul\":2042:2076   */\n      tag_156\n        /* \"#utility.yul\":2070:2075   */\n      dup3\n        /* \"#utility.yul\":2042:2076   */\n      tag_88\n      jump\t// in\n    tag_156:\n        /* \"#utility.yul\":2029:2076   */\n      swap1\n      pop\n        /* \"#utility.yul\":1951:2082   */\n      swap2\n      swap1\n      pop\n      jump\t// out\n        /* \"#utility.yul\":2088:2235   */\n    tag_90:\n        /* \"#utility.yul\":2183:2228   */\n      tag_158\n        /* \"#utility.yul\":2222:2227   */\n      dup2\n        /* \"#utility.yul\":2183:2228   */\n      tag_89\n      jump\t// in\n    tag_158:\n        /* \"#utility.yul\":2178:2181   */\n      dup3\n        /* \"#utility.yul\":2171:2229   */\n      mstore\n        /* \"#utility.yul\":2088:2235   */\n      pop\n      pop\n      jump\t// out\n        /* \"#utility.yul\":2241:2699   */\n    tag_14:\n        /* \"#utility.yul\":2398:2402   */\n      0x00\n        /* \"#utility.yul\":2436:2438   */\n      0x60\n        /* \"#utility.yul\":2425:2434   */\n      dup3\n        /* \"#utility.yul\":2421:2439   */\n      add\n        /* \"#utility.yul\":2413:2439   */\n      swap1\n      pop\n        /* \"#utility.yul\":2449:2520   */\n      tag_160\n        /* \"#utility.yul\":2517:2518   */\n      0x00\n        /* \"#utility.yul\":2506:2515   */\n      dup4\n        /* \"#utility.yul\":2502:2519   */\n      add\n        /* \"#utility.yul\":2493:2499   */\n      dup7\n        /* \"#utility.yul\":2449:2520   */\n      tag_84\n      jump\t// in\n    tag_160:\n        /* \"#utility.yul\":2530:2602   */\n      tag_161\n        /* \"#utility.yul\":2598:2600   */\n      0x20\n        /* \"#utility.yul\":2587:2596   */\n      dup4\n        /* \"#utility.yul\":2583:2601   */\n      add\n        /* \"#utility.yul\":2574:2580   */\n      dup6\n        /* \"#utility.yul\":2530:2602   */\n      tag_85\n      jump\t// in\n    tag_161:\n        /* \"#utility.yul\":2612:2692   */\n      tag_162\n        /* \"#utility.yul\":2688:2690   */\n      0x40\n        /* \"#utility.yul\":2677:2686   */\n      dup4\n        /* \"#utility.yul\":2673:2691   */\n      add\n        /* \"#utility.yul\":2664:2670   */\n      dup5\n        /* \"#utility.yul\":2612:2692   */\n      tag_90\n      jump\t// in\n    tag_162:\n        /* \"#utility.yul\":2241:2699   */\n      swap5\n      swap4\n      pop\n      pop\n      pop\n      pop\n      jump\t// out\n        /* \"#utility.yul\":2705:2827   */\n    tag_91:\n        /* \"#utility.yul\":2778:2802   */\n      tag_164\n        /* \"#utility.yul\":2796:2801   */\n      dup2\n        /* \"#utility.yul\":2778:2802   */\n      tag_83\n      jump\t// in\n    tag_164:\n        /* \"#utility.yul\":2771:2776   */\n      dup2\n        /* \"#utility.yul\":2768:2803   */\n      eq\n        /* \"#utility.yul\":2758:2821   */\n      tag_165\n      jumpi\n        /* \"#utility.yul\":2817:2818   */\n      0x00\n        /* \"#utility.yul\":2814:2815   */\n      dup1\n        /* \"#utility.yul\":2807:2819   */\n      revert\n        /* \"#utility.yul\":2758:2821   */\n    tag_165:\n        /* \"#utility.yul\":2705:2827   */\n      pop\n      jump\t// out\n        /* \"#utility.yul\":2833:2972   */\n    tag_92:\n        /* \"#utility.yul\":2879:2884   */\n      0x00\n        /* \"#utility.yul\":2917:2923   */\n      dup2\n        /* \"#utility.yul\":2904:2924   */\n      calldataload\n        /* \"#utility.yul\":2895:2924   */\n      swap1\n      pop\n        /* \"#utility.yul\":2933:2966   */\n      tag_167\n        /* \"#utility.yul\":2960:2965   */\n      dup2\n        /* \"#utility.yul\":2933:2966   */\n      tag_91\n      jump\t// in\n    tag_167:\n        /* \"#utility.yul\":2833:2972   */\n      swap3\n      swap2\n      pop\n      pop\n      jump\t// out\n        /* \"#utility.yul\":2978:3307   */\n    tag_17:\n        /* \"#utility.yul\":3037:3043   */\n      0x00\n        /* \"#utility.yul\":3086:3088   */\n      0x20\n        /* \"#utility.yul\":3074:3083   */\n      dup3\n        /* \"#utility.yul\":3065:3072   */\n      dup5\n        /* \"#utility.yul\":3061:3084   */\n      sub\n        /* \"#utility.yul\":3057:3089   */\n      slt\n        /* \"#utility.yul\":3054:3173   */\n      iszero\n      tag_169\n      jumpi\n        /* \"#utility.yul\":3092:3171   */\n      tag_170\n      tag_77\n      jump\t// in\n    tag_170:\n        /* \"#utility.yul\":3054:3173   */\n    tag_169:\n        /* \"#utility.yul\":3212:3213   */\n      0x00\n        /* \"#utility.yul\":3237:3290   */\n      tag_171\n        /* \"#utility.yul\":3282:3289   */\n      dup5\n        /* \"#utility.yul\":3273:3279   */\n      dup3\n        /* \"#utility.yul\":3262:3271   */\n      dup6\n        /* \"#utility.yul\":3258:3280   */\n      add\n        /* \"#utility.yul\":3237:3290   */\n      tag_92\n      jump\t// in\n    tag_171:\n        /* \"#utility.yul\":3227:3290   */\n      swap2\n      pop\n        /* \"#utility.yul\":3183:3300   */\n      pop\n        /* \"#utility.yul\":2978:3307   */\n      swap3\n      swap2\n      pop\n      pop\n      jump\t// out\n        /* \"#utility.yul\":3313:3771   */\n    tag_20:\n        /* \"#utility.yul\":3470:3474   */\n      0x00\n        /* \"#utility.yul\":3508:3510   */\n      0x60\n        /* \"#utility.yul\":3497:3506   */\n      dup3\n        /* \"#utility.yul\":3493:3511   */\n      add\n        /* \"#utility.yul\":3485:3511   */\n      swap1\n      pop\n        /* \"#utility.yul\":3521:3600   */\n      tag_173\n        /* \"#utility.yul\":3597:3598   */\n      0x00\n        /* \"#utility.yul\":3586:3595   */\n      dup4\n        /* \"#utility.yul\":3582:3599   */\n      add\n        /* \"#utility.yul\":3573:3579   */\n      dup7\n        /* \"#utility.yul\":3521:3600   */\n      tag_90\n      jump\t// in\n    tag_173:\n        /* \"#utility.yul\":3610:3682   */\n      tag_174\n        /* \"#utility.yul\":3678:3680   */\n      0x20\n        /* \"#utility.yul\":3667:3676   */\n      dup4\n        /* \"#utility.yul\":3663:3681   */\n      add\n        /* \"#utility.yul\":3654:3660   */\n      dup6\n        /* \"#utility.yul\":3610:3682   */\n      tag_85\n      jump\t// in\n    tag_174:\n        /* \"#utility.yul\":3692:3764   */\n      tag_175\n        /* \"#utility.yul\":3760:3762   */\n      0x40\n        /* \"#utility.yul\":3749:3758   */\n      dup4\n        /* \"#utility.yul\":3745:3763   */\n      add\n        /* \"#utility.yul\":3736:3742   */\n      dup5\n        /* \"#utility.yul\":3692:3764   */\n      tag_85\n      jump\t// in\n    tag_175:\n        /* \"#utility.yul\":3313:3771   */\n      swap5\n      swap4\n      pop\n      pop\n      pop\n      pop\n      jump\t// out\n        /* \"#utility.yul\":3777:3876   */\n    tag_93:\n        /* \"#utility.yul\":3829:3835   */\n      0x00\n        /* \"#utility.yul\":3863:3868   */\n      dup2\n        /* \"#utility.yul\":3857:3869   */\n      mload\n        /* \"#utility.yul\":3847:3869   */\n      swap1\n      pop\n        /* \"#utility.yul\":3777:3876   */\n      swap2\n      swap1\n      pop\n      jump\t// out\n        /* \"#utility.yul\":3882:4051   */\n    tag_94:\n        /* \"#utility.yul\":3966:3977   */\n      0x00\n        /* \"#utility.yul\":4000:4006   */\n      dup3\n        /* \"#utility.yul\":3995:3998   */\n      dup3\n        /* \"#utility.yul\":3988:4007   */\n      mstore\n        /* \"#utility.yul\":4040:4044   */\n      0x20\n        /* \"#utility.yul\":4035:4038   */\n      dup3\n        /* \"#utility.yul\":4031:4045   */\n      add\n        /* \"#utility.yul\":4016:4045   */\n      swap1\n      pop\n        /* \"#utility.yul\":3882:4051   */\n      swap3\n      swap2\n      pop\n      pop\n      jump\t// out\n        /* \"#utility.yul\":4057:4303   */\n    tag_95:\n        /* \"#utility.yul\":4138:4139   */\n      0x00\n        /* \"#utility.yul\":4148:4261   */\n    tag_179:\n        /* \"#utility.yul\":4162:4168   */\n      dup4\n        /* \"#utility.yul\":4159:4160   */\n      dup2\n        /* \"#utility.yul\":4156:4169   */\n      lt\n        /* \"#utility.yul\":4148:4261   */\n      iszero\n      tag_181\n      jumpi\n        /* \"#utility.yul\":4247:4248   */\n      dup1\n        /* \"#utility.yul\":4242:4245   */\n      dup3\n        /* \"#utility.yul\":4238:4249   */\n      add\n        /* \"#utility.yul\":4232:4250   */\n      mload\n        /* \"#utility.yul\":4228:4229   */\n      dup2\n        /* \"#utility.yul\":4223:4226   */\n      dup5\n        /* \"#utility.yul\":4219:4230   */\n      add\n        /* \"#utility.yul\":4212:4251   */\n      mstore\n        /* \"#utility.yul\":4184:4186   */\n      0x20\n        /* \"#utility.yul\":4181:4182   */\n      dup2\n        /* \"#utility.yul\":4177:4187   */\n      add\n        /* \"#utility.yul\":4172:4187   */\n      swap1\n      pop\n        /* \"#utility.yul\":4148:4261   */\n      jump(tag_179)\n    tag_181:\n        /* \"#utility.yul\":4295:4296   */\n      0x00\n        /* \"#utility.yul\":4286:4292   */\n      dup5\n        /* \"#utility.yul\":4281:4284   */\n      dup5\n        /* \"#utility.yul\":4277:4293   */\n      add\n        /* \"#utility.yul\":4270:4297   */\n      mstore\n        /* \"#utility.yul\":4119:4303   */\n      pop\n        /* \"#utility.yul\":4057:4303   */\n      pop\n      pop\n      pop\n      jump\t// out\n        /* \"#utility.yul\":4309:4411   */\n    tag_96:\n        /* \"#utility.yul\":4350:4356   */\n      0x00\n        /* \"#utility.yul\":4401:4403   */\n      0x1f\n        /* \"#utility.yul\":4397:4404   */\n      not\n        /* \"#utility.yul\":4392:4394   */\n      0x1f\n        /* \"#utility.yul\":4385:4390   */\n      dup4\n        /* \"#utility.yul\":4381:4395   */\n      add\n        /* \"#utility.yul\":4377:4405   */\n      and\n        /* \"#utility.yul\":4367:4405   */\n      swap1\n      pop\n        /* \"#utility.yul\":4309:4411   */\n      swap2\n      swap1\n      pop\n      jump\t// out\n        /* \"#utility.yul\":4417:4794   */\n    tag_97:\n        /* \"#utility.yul\":4505:4508   */\n      0x00\n        /* \"#utility.yul\":4533:4572   */\n      tag_184\n        /* \"#utility.yul\":4566:4571   */\n      dup3\n        /* \"#utility.yul\":4533:4572   */\n      tag_93\n      jump\t// in\n    tag_184:\n        /* \"#utility.yul\":4588:4659   */\n      tag_185\n        /* \"#utility.yul\":4652:4658   */\n      dup2\n        /* \"#utility.yul\":4647:4650   */\n      dup6\n        /* \"#utility.yul\":4588:4659   */\n      tag_94\n      jump\t// in\n    tag_185:\n        /* \"#utility.yul\":4581:4659   */\n      swap4\n      pop\n        /* \"#utility.yul\":4668:4733   */\n      tag_186\n        /* \"#utility.yul\":4726:4732   */\n      dup2\n        /* \"#utility.yul\":4721:4724   */\n      dup6\n        /* \"#utility.yul\":4714:4718   */\n      0x20\n        /* \"#utility.yul\":4707:4712   */\n      dup7\n        /* \"#utility.yul\":4703:4719   */\n      add\n        /* \"#utility.yul\":4668:4733   */\n      tag_95\n      jump\t// in\n    tag_186:\n        /* \"#utility.yul\":4758:4787   */\n      tag_187\n        /* \"#utility.yul\":4780:4786   */\n      dup2\n        /* \"#utility.yul\":4758:4787   */\n      tag_96\n      jump\t// in\n    tag_187:\n        /* \"#utility.yul\":4753:4756   */\n      dup5\n        /* \"#utility.yul\":4749:4788   */\n      add\n        /* \"#utility.yul\":4742:4788   */\n      swap2\n      pop\n        /* \"#utility.yul\":4509:4794   */\n      pop\n        /* \"#utility.yul\":4417:4794   */\n      swap3\n      swap2\n      pop\n      pop\n      jump\t// out\n        /* \"#utility.yul\":4800:4908   */\n    tag_98:\n        /* \"#utility.yul\":4877:4901   */\n      tag_189\n        /* \"#utility.yul\":4895:4900   */\n      dup2\n        /* \"#utility.yul\":4877:4901   */\n      tag_79\n      jump\t// in\n    tag_189:\n        /* \"#utility.yul\":4872:4875   */\n      dup3\n        /* \"#utility.yul\":4865:4902   */\n      mstore\n        /* \"#utility.yul\":4800:4908   */\n      pop\n      pop\n      jump\t// out\n        /* \"#utility.yul\":4982:5495   */\n    tag_99:\n        /* \"#utility.yul\":5123:5127   */\n      0x40\n        /* \"#utility.yul\":5118:5121   */\n      dup3\n        /* \"#utility.yul\":5114:5128   */\n      add\n        /* \"#utility.yul\":5216:5220   */\n      0x00\n        /* \"#utility.yul\":5209:5214   */\n      dup3\n        /* \"#utility.yul\":5205:5221   */\n      add\n        /* \"#utility.yul\":5199:5222   */\n      mload\n        /* \"#utility.yul\":5235:5298   */\n      tag_191\n        /* \"#utility.yul\":5292:5296   */\n      0x00\n        /* \"#utility.yul\":5287:5290   */\n      dup6\n        /* \"#utility.yul\":5283:5297   */\n      add\n        /* \"#utility.yul\":5269:5281   */\n      dup3\n        /* \"#utility.yul\":5235:5298   */\n      tag_98\n      jump\t// in\n    tag_191:\n        /* \"#utility.yul\":5138:5308   */\n      pop\n        /* \"#utility.yul\":5396:5400   */\n      0x20\n        /* \"#utility.yul\":5389:5394   */\n      dup3\n        /* \"#utility.yul\":5385:5401   */\n      add\n        /* \"#utility.yul\":5379:5402   */\n      mload\n        /* \"#utility.yul\":5415:5478   */\n      tag_192\n        /* \"#utility.yul\":5472:5476   */\n      0x20\n        /* \"#utility.yul\":5467:5470   */\n      dup6\n        /* \"#utility.yul\":5463:5477   */\n      add\n        /* \"#utility.yul\":5449:5461   */\n      dup3\n        /* \"#utility.yul\":5415:5478   */\n      tag_98\n      jump\t// in\n    tag_192:\n        /* \"#utility.yul\":5318:5488   */\n      pop\n        /* \"#utility.yul\":5092:5495   */\n      pop\n        /* \"#utility.yul\":4982:5495   */\n      pop\n      pop\n      jump\t// out\n        /* \"#utility.yul\":5501:6435   */\n    tag_25:\n        /* \"#utility.yul\":5790:5794   */\n      0x00\n        /* \"#utility.yul\":5828:5831   */\n      0xc0\n        /* \"#utility.yul\":5817:5826   */\n      dup3\n        /* \"#utility.yul\":5813:5832   */\n      add\n        /* \"#utility.yul\":5805:5832   */\n      swap1\n      pop\n        /* \"#utility.yul\":5878:5887   */\n      dup2\n        /* \"#utility.yul\":5872:5876   */\n      dup2\n        /* \"#utility.yul\":5868:5888   */\n      sub\n        /* \"#utility.yul\":5864:5865   */\n      0x00\n        /* \"#utility.yul\":5853:5862   */\n      dup4\n        /* \"#utility.yul\":5849:5866   */\n      add\n        /* \"#utility.yul\":5842:5889   */\n      mstore\n        /* \"#utility.yul\":5906:5984   */\n      tag_194\n        /* \"#utility.yul\":5979:5983   */\n      dup2\n        /* \"#utility.yul\":5970:5976   */\n      dup9\n        /* \"#utility.yul\":5906:5984   */\n      tag_97\n      jump\t// in\n    tag_194:\n        /* \"#utility.yul\":5898:5984   */\n      swap1\n      pop\n        /* \"#utility.yul\":6031:6040   */\n      dup2\n        /* \"#utility.yul\":6025:6029   */\n      dup2\n        /* \"#utility.yul\":6021:6041   */\n      sub\n        /* \"#utility.yul\":6016:6018   */\n      0x20\n        /* \"#utility.yul\":6005:6014   */\n      dup4\n        /* \"#utility.yul\":6001:6019   */\n      add\n        /* \"#utility.yul\":5994:6042   */\n      mstore\n        /* \"#utility.yul\":6059:6137   */\n      tag_195\n        /* \"#utility.yul\":6132:6136   */\n      dup2\n        /* \"#utility.yul\":6123:6129   */\n      dup8\n        /* \"#utility.yul\":6059:6137   */\n      tag_97\n      jump\t// in\n    tag_195:\n        /* \"#utility.yul\":6051:6137   */\n      swap1\n      pop\n        /* \"#utility.yul\":6147:6219   */\n      tag_196\n        /* \"#utility.yul\":6215:6217   */\n      0x40\n        /* \"#utility.yul\":6204:6213   */\n      dup4\n        /* \"#utility.yul\":6200:6218   */\n      add\n        /* \"#utility.yul\":6191:6197   */\n      dup7\n        /* \"#utility.yul\":6147:6219   */\n      tag_85\n      jump\t// in\n    tag_196:\n        /* \"#utility.yul\":6229:6301   */\n      tag_197\n        /* \"#utility.yul\":6297:6299   */\n      0x60\n        /* \"#utility.yul\":6286:6295   */\n      dup4\n        /* \"#utility.yul\":6282:6300   */\n      add\n        /* \"#utility.yul\":6273:6279   */\n      dup6\n        /* \"#utility.yul\":6229:6301   */\n      tag_85\n      jump\t// in\n    tag_197:\n        /* \"#utility.yul\":6311:6428   */\n      tag_198\n        /* \"#utility.yul\":6423:6426   */\n      0x80\n        /* \"#utility.yul\":6412:6421   */\n      dup4\n        /* \"#utility.yul\":6408:6427   */\n      add\n        /* \"#utility.yul\":6399:6405   */\n      dup5\n        /* \"#utility.yul\":6311:6428   */\n      tag_99\n      jump\t// in\n    tag_198:\n        /* \"#utility.yul\":5501:6435   */\n      swap7\n      swap6\n      pop\n      pop\n      pop\n      pop\n      pop\n      pop\n      jump\t// out\n        /* \"#utility.yul\":6441:6558   */\n    tag_100:\n        /* \"#utility.yul\":6550:6551   */\n      0x00\n        /* \"#utility.yul\":6547:6548   */\n      dup1\n        /* \"#utility.yul\":6540:6552   */\n      revert\n        /* \"#utility.yul\":6564:6681   */\n    tag_101:\n        /* \"#utility.yul\":6673:6674   */\n      0x00\n        /* \"#utility.yul\":6670:6671   */\n      dup1\n        /* \"#utility.yul\":6663:6675   */\n      revert\n        /* \"#utility.yul\":6687:6804   */\n    tag_102:\n        /* \"#utility.yul\":6796:6797   */\n      0x00\n        /* \"#utility.yul\":6793:6794   */\n      dup1\n        /* \"#utility.yul\":6786:6798   */\n      revert\n        /* \"#utility.yul\":6824:7377   */\n    tag_103:\n        /* \"#utility.yul\":6882:6890   */\n      0x00\n        /* \"#utility.yul\":6892:6898   */\n      dup1\n        /* \"#utility.yul\":6942:6945   */\n      dup4\n        /* \"#utility.yul\":6935:6939   */\n      0x1f\n        /* \"#utility.yul\":6927:6933   */\n      dup5\n        /* \"#utility.yul\":6923:6940   */\n      add\n        /* \"#utility.yul\":6919:6946   */\n      slt\n        /* \"#utility.yul\":6909:7031   */\n      tag_203\n      jumpi\n        /* \"#utility.yul\":6950:7029   */\n      tag_204\n      tag_100\n      jump\t// in\n    tag_204:\n        /* \"#utility.yul\":6909:7031   */\n    tag_203:\n        /* \"#utility.yul\":7063:7069   */\n      dup3\n        /* \"#utility.yul\":7050:7070   */\n      calldataload\n        /* \"#utility.yul\":7040:7070   */\n      swap1\n      pop\n        /* \"#utility.yul\":7093:7111   */\n      0xffffffffffffffff\n        /* \"#utility.yul\":7085:7091   */\n      dup2\n        /* \"#utility.yul\":7082:7112   */\n      gt\n        /* \"#utility.yul\":7079:7196   */\n      iszero\n      tag_205\n      jumpi\n        /* \"#utility.yul\":7115:7194   */\n      tag_206\n      tag_101\n      jump\t// in\n    tag_206:\n        /* \"#utility.yul\":7079:7196   */\n    tag_205:\n        /* \"#utility.yul\":7229:7233   */\n      0x20\n        /* \"#utility.yul\":7221:7227   */\n      dup4\n        /* \"#utility.yul\":7217:7234   */\n      add\n        /* \"#utility.yul\":7205:7234   */\n      swap2\n      pop\n        /* \"#utility.yul\":7283:7286   */\n      dup4\n        /* \"#utility.yul\":7275:7279   */\n      0x01\n        /* \"#utility.yul\":7267:7273   */\n      dup3\n        /* \"#utility.yul\":7263:7280   */\n      mul\n        /* \"#utility.yul\":7253:7261   */\n      dup4\n        /* \"#utility.yul\":7249:7281   */\n      add\n        /* \"#utility.yul\":7246:7287   */\n      gt\n        /* \"#utility.yul\":7243:7371   */\n      iszero\n      tag_207\n      jumpi\n        /* \"#utility.yul\":7290:7369   */\n      tag_208\n      tag_102\n      jump\t// in\n    tag_208:\n        /* \"#utility.yul\":7243:7371   */\n    tag_207:\n        /* \"#utility.yul\":6824:7377   */\n      swap3\n      pop\n      swap3\n      swap1\n      pop\n      jump\t// out\n        /* \"#utility.yul\":7383:8402   */\n    tag_28:\n        /* \"#utility.yul\":7484:7490   */\n      0x00\n        /* \"#utility.yul\":7492:7498   */\n      dup1\n        /* \"#utility.yul\":7500:7506   */\n      0x00\n        /* \"#utility.yul\":7508:7514   */\n      dup1\n        /* \"#utility.yul\":7516:7522   */\n      0x00\n        /* \"#utility.yul\":7565:7567   */\n      0x60\n        /* \"#utility.yul\":7553:7562   */\n      dup7\n        /* \"#utility.yul\":7544:7551   */\n      dup9\n        /* \"#utility.yul\":7540:7563   */\n      sub\n        /* \"#utility.yul\":7536:7568   */\n      slt\n        /* \"#utility.yul\":7533:7652   */\n      iszero\n      tag_210\n      jumpi\n        /* \"#utility.yul\":7571:7650   */\n      tag_211\n      tag_77\n      jump\t// in\n    tag_211:\n        /* \"#utility.yul\":7533:7652   */\n    tag_210:\n        /* \"#utility.yul\":7719:7720   */\n      0x00\n        /* \"#utility.yul\":7708:7717   */\n      dup7\n        /* \"#utility.yul\":7704:7721   */\n      add\n        /* \"#utility.yul\":7691:7722   */\n      calldataload\n        /* \"#utility.yul\":7749:7767   */\n      0xffffffffffffffff\n        /* \"#utility.yul\":7741:7747   */\n      dup2\n        /* \"#utility.yul\":7738:7768   */\n      gt\n        /* \"#utility.yul\":7735:7852   */\n      iszero\n      tag_212\n      jumpi\n        /* \"#utility.yul\":7771:7850   */\n      tag_213\n      tag_78\n      jump\t// in\n    tag_213:\n        /* \"#utility.yul\":7735:7852   */\n    tag_212:\n        /* \"#utility.yul\":7884:7949   */\n      tag_214\n        /* \"#utility.yul\":7941:7948   */\n      dup9\n        /* \"#utility.yul\":7932:7938   */\n      dup3\n        /* \"#utility.yul\":7921:7930   */\n      dup10\n        /* \"#utility.yul\":7917:7939   */\n      add\n        /* \"#utility.yul\":7884:7949   */\n      tag_103\n      jump\t// in\n    tag_214:\n        /* \"#utility.yul\":7866:7949   */\n      swap6\n      pop\n      swap6\n      pop\n        /* \"#utility.yul\":7662:7959   */\n      pop\n        /* \"#utility.yul\":8026:8028   */\n      0x20\n        /* \"#utility.yul\":8015:8024   */\n      dup7\n        /* \"#utility.yul\":8011:8029   */\n      add\n        /* \"#utility.yul\":7998:8030   */\n      calldataload\n        /* \"#utility.yul\":8057:8075   */\n      0xffffffffffffffff\n        /* \"#utility.yul\":8049:8055   */\n      dup2\n        /* \"#utility.yul\":8046:8076   */\n      gt\n        /* \"#utility.yul\":8043:8160   */\n      iszero\n      tag_215\n      jumpi\n        /* \"#utility.yul\":8079:8158   */\n      tag_216\n      tag_78\n      jump\t// in\n    tag_216:\n        /* \"#utility.yul\":8043:8160   */\n    tag_215:\n        /* \"#utility.yul\":8192:8257   */\n      tag_217\n        /* \"#utility.yul\":8249:8256   */\n      dup9\n        /* \"#utility.yul\":8240:8246   */\n      dup3\n        /* \"#utility.yul\":8229:8238   */\n      dup10\n        /* \"#utility.yul\":8225:8247   */\n      add\n        /* \"#utility.yul\":8192:8257   */\n      tag_103\n      jump\t// in\n    tag_217:\n        /* \"#utility.yul\":8174:8257   */\n      swap4\n      pop\n      swap4\n      pop\n        /* \"#utility.yul\":7969:8267   */\n      pop\n        /* \"#utility.yul\":8306:8308   */\n      0x40\n        /* \"#utility.yul\":8332:8385   */\n      tag_218\n        /* \"#utility.yul\":8377:8384   */\n      dup9\n        /* \"#utility.yul\":8368:8374   */\n      dup3\n        /* \"#utility.yul\":8357:8366   */\n      dup10\n        /* \"#utility.yul\":8353:8375   */\n      add\n        /* \"#utility.yul\":8332:8385   */\n      tag_81\n      jump\t// in\n    tag_218:\n        /* \"#utility.yul\":8322:8385   */\n      swap2\n      pop\n        /* \"#utility.yul\":8277:8395   */\n      pop\n        /* \"#utility.yul\":7383:8402   */\n      swap3\n      swap6\n      pop\n      swap3\n      swap6\n      swap1\n      swap4\n      pop\n      jump\t// out\n        /* \"#utility.yul\":8408:8498   */\n    tag_104:\n        /* \"#utility.yul\":8442:8449   */\n      0x00\n        /* \"#utility.yul\":8485:8490   */\n      dup2\n        /* \"#utility.yul\":8478:8491   */\n      iszero\n        /* \"#utility.yul\":8471:8492   */\n      iszero\n        /* \"#utility.yul\":8460:8492   */\n      swap1\n      pop\n        /* \"#utility.yul\":8408:8498   */\n      swap2\n      swap1\n      pop\n      jump\t// out\n        /* \"#utility.yul\":8504:8613   */\n    tag_105:\n        /* \"#utility.yul\":8585:8606   */\n      tag_221\n        /* \"#utility.yul\":8600:8605   */\n      dup2\n        /* \"#utility.yul\":8585:8606   */\n      tag_104\n      jump\t// in\n    tag_221:\n        /* \"#utility.yul\":8580:8583   */\n      dup3\n        /* \"#utility.yul\":8573:8607   */\n      mstore\n        /* \"#utility.yul\":8504:8613   */\n      pop\n      pop\n      jump\t// out\n        /* \"#utility.yul\":8619:8829   */\n    tag_31:\n        /* \"#utility.yul\":8706:8710   */\n      0x00\n        /* \"#utility.yul\":8744:8746   */\n      0x20\n        /* \"#utility.yul\":8733:8742   */\n      dup3\n        /* \"#utility.yul\":8729:8747   */\n      add\n        /* \"#utility.yul\":8721:8747   */\n      swap1\n      pop\n        /* \"#utility.yul\":8757:8822   */\n      tag_223\n        /* \"#utility.yul\":8819:8820   */\n      0x00\n        /* \"#utility.yul\":8808:8817   */\n      dup4\n        /* \"#utility.yul\":8804:8821   */\n      add\n        /* \"#utility.yul\":8795:8801   */\n      dup5\n        /* \"#utility.yul\":8757:8822   */\n      tag_105\n      jump\t// in\n    tag_223:\n        /* \"#utility.yul\":8619:8829   */\n      swap3\n      swap2\n      pop\n      pop\n      jump\t// out\n        /* \"#utility.yul\":8835:9454   */\n    tag_34:\n        /* \"#utility.yul\":8912:8918   */\n      0x00\n        /* \"#utility.yul\":8920:8926   */\n      dup1\n        /* \"#utility.yul\":8928:8934   */\n      0x00\n        /* \"#utility.yul\":8977:8979   */\n      0x60\n        /* \"#utility.yul\":8965:8974   */\n      dup5\n        /* \"#utility.yul\":8956:8963   */\n      dup7\n        /* \"#utility.yul\":8952:8975   */\n      sub\n        /* \"#utility.yul\":8948:8980   */\n      slt\n        /* \"#utility.yul\":8945:9064   */\n      iszero\n      tag_225\n      jumpi\n        /* \"#utility.yul\":8983:9062   */\n      tag_226\n      tag_77\n      jump\t// in\n    tag_226:\n        /* \"#utility.yul\":8945:9064   */\n    tag_225:\n        /* \"#utility.yul\":9103:9104   */\n      0x00\n        /* \"#utility.yul\":9128:9181   */\n      tag_227\n        /* \"#utility.yul\":9173:9180   */\n      dup7\n        /* \"#utility.yul\":9164:9170   */\n      dup3\n        /* \"#utility.yul\":9153:9162   */\n      dup8\n        /* \"#utility.yul\":9149:9171   */\n      add\n        /* \"#utility.yul\":9128:9181   */\n      tag_81\n      jump\t// in\n    tag_227:\n        /* \"#utility.yul\":9118:9181   */\n      swap4\n      pop\n        /* \"#utility.yul\":9074:9191   */\n      pop\n        /* \"#utility.yul\":9230:9232   */\n      0x20\n        /* \"#utility.yul\":9256:9309   */\n      tag_228\n        /* \"#utility.yul\":9301:9308   */\n      dup7\n        /* \"#utility.yul\":9292:9298   */\n      dup3\n        /* \"#utility.yul\":9281:9290   */\n      dup8\n        /* \"#utility.yul\":9277:9299   */\n      add\n        /* \"#utility.yul\":9256:9309   */\n      tag_81\n      jump\t// in\n    tag_228:\n        /* \"#utility.yul\":9246:9309   */\n      swap3\n      pop\n        /* \"#utility.yul\":9201:9319   */\n      pop\n        /* \"#utility.yul\":9358:9360   */\n      0x40\n        /* \"#utility.yul\":9384:9437   */\n      tag_229\n        /* \"#utility.yul\":9429:9436   */\n      dup7\n        /* \"#utility.yul\":9420:9426   */\n      dup3\n        /* \"#utility.yul\":9409:9418   */\n      dup8\n        /* \"#utility.yul\":9405:9427   */\n      add\n        /* \"#utility.yul\":9384:9437   */\n      tag_81\n      jump\t// in\n    tag_229:\n        /* \"#utility.yul\":9374:9437   */\n      swap2\n      pop\n        /* \"#utility.yul\":9329:9447   */\n      pop\n        /* \"#utility.yul\":8835:9454   */\n      swap3\n      pop\n      swap3\n      pop\n      swap3\n      jump\t// out\n        /* \"#utility.yul\":9460:9682   */\n    tag_39:\n        /* \"#utility.yul\":9553:9557   */\n      0x00\n        /* \"#utility.yul\":9591:9593   */\n      0x20\n        /* \"#utility.yul\":9580:9589   */\n      dup3\n        /* \"#utility.yul\":9576:9594   */\n      add\n        /* \"#utility.yul\":9568:9594   */\n      swap1\n      pop\n        /* \"#utility.yul\":9604:9675   */\n      tag_231\n        /* \"#utility.yul\":9672:9673   */\n      0x00\n        /* \"#utility.yul\":9661:9670   */\n      dup4\n        /* \"#utility.yul\":9657:9674   */\n      add\n        /* \"#utility.yul\":9648:9654   */\n      dup5\n        /* \"#utility.yul\":9604:9675   */\n      tag_84\n      jump\t// in\n    tag_231:\n        /* \"#utility.yul\":9460:9682   */\n      swap3\n      swap2\n      pop\n      pop\n      jump\t// out\n        /* \"#utility.yul\":9688:9868   */\n    tag_106:\n        /* \"#utility.yul\":9736:9813   */\n      0x4e487b7100000000000000000000000000000000000000000000000000000000\n        /* \"#utility.yul\":9733:9734   */\n      0x00\n        /* \"#utility.yul\":9726:9814   */\n      mstore\n        /* \"#utility.yul\":9833:9837   */\n      0x22\n        /* \"#utility.yul\":9830:9831   */\n      0x04\n        /* \"#utility.yul\":9823:9838   */\n      mstore\n        /* \"#utility.yul\":9857:9861   */\n      0x24\n        /* \"#utility.yul\":9854:9855   */\n      0x00\n        /* \"#utility.yul\":9847:9862   */\n      revert\n        /* \"#utility.yul\":9874:10194   */\n    tag_43:\n        /* \"#utility.yul\":9918:9924   */\n      0x00\n        /* \"#utility.yul\":9955:9956   */\n      0x02\n        /* \"#utility.yul\":9949:9953   */\n      dup3\n        /* \"#utility.yul\":9945:9957   */\n      div\n        /* \"#utility.yul\":9935:9957   */\n      swap1\n      pop\n        /* \"#utility.yul\":10002:10003   */\n      0x01\n        /* \"#utility.yul\":9996:10000   */\n      dup3\n        /* \"#utility.yul\":9992:10004   */\n      and\n        /* \"#utility.yul\":10023:10041   */\n      dup1\n        /* \"#utility.yul\":10013:10094   */\n      tag_234\n      jumpi\n        /* \"#utility.yul\":10079:10083   */\n      0x7f\n        /* \"#utility.yul\":10071:10077   */\n      dup3\n        /* \"#utility.yul\":10067:10084   */\n      and\n        /* \"#utility.yul\":10057:10084   */\n      swap2\n      pop\n        /* \"#utility.yul\":10013:10094   */\n    tag_234:\n        /* \"#utility.yul\":10141:10143   */\n      0x20\n        /* \"#utility.yul\":10133:10139   */\n      dup3\n        /* \"#utility.yul\":10130:10144   */\n      lt\n        /* \"#utility.yul\":10110:10128   */\n      dup2\n        /* \"#utility.yul\":10107:10145   */\n      sub\n        /* \"#utility.yul\":10104:10188   */\n      tag_235\n      jumpi\n        /* \"#utility.yul\":10160:10178   */\n      tag_236\n      tag_106\n      jump\t// in\n    tag_236:\n        /* \"#utility.yul\":10104:10188   */\n    tag_235:\n        /* \"#utility.yul\":9925:10194   */\n      pop\n        /* \"#utility.yul\":9874:10194   */\n      swap2\n      swap1\n      pop\n      jump\t// out\n        /* \"#utility.yul\":10200:10359   */\n    tag_107:\n        /* \"#utility.yul\":10340:10351   */\n      0x4e6f74204f776e65720000000000000000000000000000000000000000000000\n        /* \"#utility.yul\":10336:10337   */\n      0x00\n        /* \"#utility.yul\":10328:10334   */\n      dup3\n        /* \"#utility.yul\":10324:10338   */\n      add\n        /* \"#utility.yul\":10317:10352   */\n      mstore\n        /* \"#utility.yul\":10200:10359   */\n      pop\n      jump\t// out\n        /* \"#utility.yul\":10365:10730   */\n    tag_108:\n        /* \"#utility.yul\":10507:10510   */\n      0x00\n        /* \"#utility.yul\":10528:10594   */\n      tag_239\n        /* \"#utility.yul\":10592:10593   */\n      0x09\n        /* \"#utility.yul\":10587:10590   */\n      dup4\n        /* \"#utility.yul\":10528:10594   */\n      tag_94\n      jump\t// in\n    tag_239:\n        /* \"#utility.yul\":10521:10594   */\n      swap2\n      pop\n        /* \"#utility.yul\":10603:10696   */\n      tag_240\n        /* \"#utility.yul\":10692:10695   */\n      dup3\n        /* \"#utility.yul\":10603:10696   */\n      tag_107\n      jump\t// in\n    tag_240:\n        /* \"#utility.yul\":10721:10723   */\n      0x20\n        /* \"#utility.yul\":10716:10719   */\n      dup3\n        /* \"#utility.yul\":10712:10724   */\n      add\n        /* \"#utility.yul\":10705:10724   */\n      swap1\n      pop\n        /* \"#utility.yul\":10365:10730   */\n      swap2\n      swap1\n      pop\n      jump\t// out\n        /* \"#utility.yul\":10736:11155   */\n    tag_56:\n        /* \"#utility.yul\":10902:10906   */\n      0x00\n        /* \"#utility.yul\":10940:10942   */\n      0x20\n        /* \"#utility.yul\":10929:10938   */\n      dup3\n        /* \"#utility.yul\":10925:10943   */\n      add\n        /* \"#utility.yul\":10917:10943   */\n      swap1\n      pop\n        /* \"#utility.yul\":10989:10998   */\n      dup2\n        /* \"#utility.yul\":10983:10987   */\n      dup2\n        /* \"#utility.yul\":10979:10999   */\n      sub\n        /* \"#utility.yul\":10975:10976   */\n      0x00\n        /* \"#utility.yul\":10964:10973   */\n      dup4\n        /* \"#utility.yul\":10960:10977   */\n      add\n        /* \"#utility.yul\":10953:11000   */\n      mstore\n        /* \"#utility.yul\":11017:11148   */\n      tag_242\n        /* \"#utility.yul\":11143:11147   */\n      dup2\n        /* \"#utility.yul\":11017:11148   */\n      tag_108\n      jump\t// in\n    tag_242:\n        /* \"#utility.yul\":11009:11148   */\n      swap1\n      pop\n        /* \"#utility.yul\":10736:11155   */\n      swap2\n      swap1\n      pop\n      jump\t// out\n        /* \"#utility.yul\":11161:11341   */\n    tag_109:\n        /* \"#utility.yul\":11209:11286   */\n      0x4e487b7100000000000000000000000000000000000000000000000000000000\n        /* \"#utility.yul\":11206:11207   */\n      0x00\n        /* \"#utility.yul\":11199:11287   */\n      mstore\n        /* \"#utility.yul\":11306:11310   */\n      0x11\n        /* \"#utility.yul\":11303:11304   */\n      0x04\n        /* \"#utility.yul\":11296:11311   */\n      mstore\n        /* \"#utility.yul\":11330:11334   */\n      0x24\n        /* \"#utility.yul\":11327:11328   */\n      0x00\n        /* \"#utility.yul\":11320:11335   */\n      revert\n        /* \"#utility.yul\":11347:11538   */\n    tag_58:\n        /* \"#utility.yul\":11387:11390   */\n      0x00\n        /* \"#utility.yul\":11406:11426   */\n      tag_245\n        /* \"#utility.yul\":11424:11425   */\n      dup3\n        /* \"#utility.yul\":11406:11426   */\n      tag_79\n      jump\t// in\n    tag_245:\n        /* \"#utility.yul\":11401:11426   */\n      swap2\n      pop\n        /* \"#utility.yul\":11440:11460   */\n      tag_246\n        /* \"#utility.yul\":11458:11459   */\n      dup4\n        /* \"#utility.yul\":11440:11460   */\n      tag_79\n      jump\t// in\n    tag_246:\n        /* \"#utility.yul\":11435:11460   */\n      swap3\n      pop\n        /* \"#utility.yul\":11483:11484   */\n      dup3\n        /* \"#utility.yul\":11480:11481   */\n      dup3\n        /* \"#utility.yul\":11476:11485   */\n      add\n        /* \"#utility.yul\":11469:11485   */\n      swap1\n      pop\n        /* \"#utility.yul\":11504:11507   */\n      dup1\n        /* \"#utility.yul\":11501:11502   */\n      dup3\n        /* \"#utility.yul\":11498:11508   */\n      gt\n        /* \"#utility.yul\":11495:11531   */\n      iszero\n      tag_247\n      jumpi\n        /* \"#utility.yul\":11511:11529   */\n      tag_248\n      tag_109\n      jump\t// in\n    tag_248:\n        /* \"#utility.yul\":11495:11531   */\n    tag_247:\n        /* \"#utility.yul\":11347:11538   */\n      swap3\n      swap2\n      pop\n      pop\n      jump\t// out\n        /* \"#utility.yul\":11544:11724   */\n    tag_110:\n        /* \"#utility.yul\":11592:11669   */\n      0x4e487b7100000000000000000000000000000000000000000000000000000000\n        /* \"#utility.yul\":11589:11590   */\n      0x00\n        /* \"#utility.yul\":11582:11670   */\n      mstore\n        /* \"#utility.yul\":11689:11693   */\n      0x41\n        /* \"#utility.yul\":11686:11687   */\n      0x04\n        /* \"#utility.yul\":11679:11694   */\n      mstore\n        /* \"#utility.yul\":11713:11717   */\n      0x24\n        /* \"#utility.yul\":11710:11711   */\n      0x00\n        /* \"#utility.yul\":11703:11718   */\n      revert\n        /* \"#utility.yul\":11730:11871   */\n    tag_111:\n        /* \"#utility.yul\":11779:11783   */\n      0x00\n        /* \"#utility.yul\":11802:11805   */\n      dup2\n        /* \"#utility.yul\":11794:11805   */\n      swap1\n      pop\n        /* \"#utility.yul\":11825:11828   */\n      dup2\n        /* \"#utility.yul\":11822:11823   */\n      0x00\n        /* \"#utility.yul\":11815:11829   */\n      mstore\n        /* \"#utility.yul\":11859:11863   */\n      0x20\n        /* \"#utility.yul\":11856:11857   */\n      0x00\n        /* \"#utility.yul\":11846:11864   */\n      keccak256\n        /* \"#utility.yul\":11838:11864   */\n      swap1\n      pop\n        /* \"#utility.yul\":11730:11871   */\n      swap2\n      swap1\n      pop\n      jump\t// out\n        /* \"#utility.yul\":11877:11970   */\n    tag_112:\n        /* \"#utility.yul\":11914:11920   */\n      0x00\n        /* \"#utility.yul\":11961:11963   */\n      0x20\n        /* \"#utility.yul\":11956:11958   */\n      0x1f\n        /* \"#utility.yul\":11949:11954   */\n      dup4\n        /* \"#utility.yul\":11945:11959   */\n      add\n        /* \"#utility.yul\":11941:11964   */\n      div\n        /* \"#utility.yul\":11931:11964   */\n      swap1\n      pop\n        /* \"#utility.yul\":11877:11970   */\n      swap2\n      swap1\n      pop\n      jump\t// out\n        /* \"#utility.yul\":11976:12083   */\n    tag_113:\n        /* \"#utility.yul\":12020:12028   */\n      0x00\n        /* \"#utility.yul\":12070:12075   */\n      dup3\n        /* \"#utility.yul\":12064:12068   */\n      dup3\n        /* \"#utility.yul\":12060:12076   */\n      shl\n        /* \"#utility.yul\":12039:12076   */\n      swap1\n      pop\n        /* \"#utility.yul\":11976:12083   */\n      swap3\n      swap2\n      pop\n      pop\n      jump\t// out\n        /* \"#utility.yul\":12089:12482   */\n    tag_114:\n        /* \"#utility.yul\":12158:12164   */\n      0x00\n        /* \"#utility.yul\":12208:12209   */\n      0x08\n        /* \"#utility.yul\":12196:12206   */\n      dup4\n        /* \"#utility.yul\":12192:12210   */\n      mul\n        /* \"#utility.yul\":12231:12328   */\n      tag_254\n        /* \"#utility.yul\":12261:12327   */\n      0xffffffffffffffffffffffffffffffffffffffffffffffffffffffffffffffff\n        /* \"#utility.yul\":12250:12259   */\n      dup3\n        /* \"#utility.yul\":12231:12328   */\n      tag_113\n      jump\t// in\n    tag_254:\n        /* \"#utility.yul\":12349:12388   */\n      tag_255\n        /* \"#utility.yul\":12379:12387   */\n      dup7\n        /* \"#utility.yul\":12368:12377   */\n      dup4\n        /* \"#utility.yul\":12349:12388   */\n      tag_113\n      jump\t// in\n    tag_255:\n        /* \"#utility.yul\":12337:12388   */\n      swap6\n      pop\n        /* \"#utility.yul\":12421:12425   */\n      dup1\n        /* \"#utility.yul\":12417:12426   */\n      not\n        /* \"#utility.yul\":12410:12415   */\n      dup5\n        /* \"#utility.yul\":12406:12427   */\n      and\n        /* \"#utility.yul\":12397:12427   */\n      swap4\n      pop\n        /* \"#utility.yul\":12470:12474   */\n      dup1\n        /* \"#utility.yul\":12460:12468   */\n      dup7\n        /* \"#utility.yul\":12456:12475   */\n      and\n        /* \"#utility.yul\":12449:12454   */\n      dup5\n        /* \"#utility.yul\":12446:12476   */\n      or\n        /* \"#utility.yul\":12436:12476   */\n      swap3\n      pop\n        /* \"#utility.yul\":12165:12482   */\n      pop\n      pop\n        /* \"#utility.yul\":12089:12482   */\n      swap4\n      swap3\n      pop\n      pop\n      pop\n      jump\t// out\n        /* \"#utility.yul\":12488:12548   */\n    tag_115:\n        /* \"#utility.yul\":12516:12519   */\n      0x00\n        /* \"#utility.yul\":12537:12542   */\n      dup2\n        /* \"#utility.yul\":12530:12542   */\n      swap1\n      pop\n        /* \"#utility.yul\":12488:12548   */\n      swap2\n      swap1\n      pop\n      jump\t// out\n        /* \"#utility.yul\":12554:12696   */\n    tag_116:\n        /* \"#utility.yul\":12604:12613   */\n      0x00\n        /* \"#utility.yul\":12637:12690   */\n      tag_258\n        /* \"#utility.yul\":12655:12689   */\n      tag_259\n        /* \"#utility.yul\":12664:12688   */\n      tag_260\n        /* \"#utility.yul\":12682:12687   */\n      dup5\n        /* \"#utility.yul\":12664:12688   */\n      tag_79\n      jump\t// in\n    tag_260:\n        /* \"#utility.yul\":12655:12689   */\n      tag_115\n      jump\t// in\n    tag_259:\n        /* \"#utility.yul\":12637:12690   */\n      tag_79\n      jump\t// in\n    tag_258:\n        /* \"#utility.yul\":12624:12690   */\n      swap1\n      pop\n        /* \"#utility.yul\":12554:12696   */\n      swap2\n      swap1\n      pop\n      jump\t// out\n        /* \"#utility.yul\":12702:12777   */\n    tag_117:\n        /* \"#utility.yul\":12745:12748   */\n      0x00\n        /* \"#utility.yul\":12766:12771   */\n      dup2\n        /* \"#utility.yul\":12759:12771   */\n      swap1\n      pop\n        /* \"#utility.yul\":12702:12777   */\n      swap2\n      swap1\n      pop\n      jump\t// out\n        /* \"#utility.yul\":12783:13052   */\n    tag_118:\n        /* \"#utility.yul\":12893:12932   */\n      tag_263\n        /* \"#utility.yul\":12924:12931   */\n      dup4\n        /* \"#utility.yul\":12893:12932   */\n      tag_116\n      jump\t// in\n    tag_263:\n        /* \"#utility.yul\":12954:13045   */\n      tag_264\n        /* \"#utility.yul\":13003:13044   */\n      tag_265\n        /* \"#utility.yul\":13027:13043   */\n      dup3\n        /* \"#utility.yul\":13003:13044   */\n      tag_117\n      jump\t// in\n    tag_265:\n        /* \"#utility.yul\":12995:13001   */\n      dup5\n        /* \"#utility.yul\":12988:12992   */\n      dup5\n        /* \"#utility.yul\":12982:12993   */\n      sload\n        /* \"#utility.yul\":12954:13045   */\n      tag_114\n      jump\t// in\n    tag_264:\n        /* \"#utility.yul\":12948:12952   */\n      dup3\n        /* \"#utility.yul\":12941:13046   */\n      sstore\n        /* \"#utility.yul\":12859:13052   */\n      pop\n        /* \"#utility.yul\":12783:13052   */\n      pop\n      pop\n      pop\n      jump\t// out\n        /* \"#utility.yul\":13058:13131   */\n    tag_119:\n        /* \"#utility.yul\":13103:13106   */\n      0x00\n        /* \"#utility.yul\":13058:13131   */\n      swap1\n      jump\t// out\n        /* \"#utility.yul\":13137:13326   */\n    tag_120:\n        /* \"#utility.yul\":13214:13246   */\n      tag_268\n      tag_119\n      jump\t// in\n    tag_268:\n        /* \"#utility.yul\":13255:13320   */\n      tag_269\n        /* \"#utility.yul\":13313:13319   */\n      dup2\n        /* \"#utility.yul\":13305:13311   */\n      dup5\n        /* \"#utility.yul\":13299:13303   */\n      dup5\n        /* \"#utility.yul\":13255:13320   */\n      tag_118\n      jump\t// in\n    tag_269:\n        /* \"#utility.yul\":13190:13326   */\n      pop\n        /* \"#utility.yul\":13137:13326   */\n      pop\n      pop\n      jump\t// out\n        /* \"#utility.yul\":13332:13518   */\n    tag_121:\n        /* \"#utility.yul\":13392:13512   */\n    tag_271:\n        /* \"#utility.yul\":13409:13412   */\n      dup2\n        /* \"#utility.yul\":13402:13407   */\n      dup2\n        /* \"#utility.yul\":13399:13413   */\n      lt\n        /* \"#utility.yul\":13392:13512   */\n      iszero\n      tag_273\n      jumpi\n        /* \"#utility.yul\":13463:13502   */\n      tag_274\n        /* \"#utility.yul\":13500:13501   */\n      0x00\n        /* \"#utility.yul\":13493:13498   */\n      dup3\n        /* \"#utility.yul\":13463:13502   */\n      tag_120\n      jump\t// in\n    tag_274:\n        /* \"#utility.yul\":13436:13437   */\n      0x01\n        /* \"#utility.yul\":13429:13434   */\n      dup2\n        /* \"#utility.yul\":13425:13438   */\n      add\n        /* \"#utility.yul\":13416:13438   */\n      swap1\n      pop\n        /* \"#utility.yul\":13392:13512   */\n      jump(tag_271)\n    tag_273:\n        /* \"#utility.yul\":13332:13518   */\n      pop\n      pop\n      jump\t// out\n        /* \"#utility.yul\":13524:14067   */\n    tag_122:\n        /* \"#utility.yul\":13625:13627   */\n      0x1f\n        /* \"#utility.yul\":13620:13623   */\n      dup3\n        /* \"#utility.yul\":13617:13628   */\n      gt\n        /* \"#utility.yul\":13614:14060   */\n      iszero\n      tag_276\n      jumpi\n        /* \"#utility.yul\":13659:13697   */\n      tag_277\n        /* \"#utility.yul\":13691:13696   */\n      dup2\n        /* \"#utility.yul\":13659:13697   */\n      tag_111\n      jump\t// in\n    tag_277:\n        /* \"#utility.yul\":13743:13772   */\n      tag_278\n        /* \"#utility.yul\":13761:13771   */\n      dup5\n        /* \"#utility.yul\":13743:13772   */\n      tag_112\n      jump\t// in\n    tag_278:\n        /* \"#utility.yul\":13733:13741   */\n      dup2\n        /* \"#utility.yul\":13729:13773   */\n      add\n        /* \"#utility.yul\":13926:13928   */\n      0x20\n        /* \"#utility.yul\":13914:13924   */\n      dup6\n        /* \"#utility.yul\":13911:13929   */\n      lt\n        /* \"#utility.yul\":13908:13957   */\n      iszero\n      tag_279\n      jumpi\n        /* \"#utility.yul\":13947:13955   */\n      dup2\n        /* \"#utility.yul\":13932:13955   */\n      swap1\n      pop\n        /* \"#utility.yul\":13908:13957   */\n    tag_279:\n        /* \"#utility.yul\":13970:14050   */\n      tag_280\n        /* \"#utility.yul\":14026:14048   */\n      tag_281\n        /* \"#utility.yul\":14044:14047   */\n      dup6\n        /* \"#utility.yul\":14026:14048   */\n      tag_112\n      jump\t// in\n    tag_281:\n        /* \"#utility.yul\":14016:14024   */\n      dup4\n        /* \"#utility.yul\":14012:14049   */\n      add\n        /* \"#utility.yul\":13999:14010   */\n      dup3\n        /* \"#utility.yul\":13970:14050   */\n      tag_121\n      jump\t// in\n    tag_280:\n        /* \"#utility.yul\":13629:14060   */\n      pop\n      pop\n        /* \"#utility.yul\":13614:14060   */\n    tag_276:\n        /* \"#utility.yul\":13524:14067   */\n      pop\n      pop\n      pop\n      jump\t// out\n        /* \"#utility.yul\":14073:14190   */\n    tag_123:\n        /* \"#utility.yul\":14127:14135   */\n      0x00\n        /* \"#utility.yul\":14177:14182   */\n      dup3\n        /* \"#utility.yul\":14171:14175   */\n      dup3\n        /* \"#utility.yul\":14167:14183   */\n      shr\n        /* \"#utility.yul\":14146:14183   */\n      swap1\n      pop\n        /* \"#utility.yul\":14073:14190   */\n      swap3\n      swap2\n      pop\n      pop\n      jump\t// out\n        /* \"#utility.yul\":14196:14365   */\n    tag_124:\n        /* \"#utility.yul\":14240:14246   */\n      0x00\n        /* \"#utility.yul\":14273:14324   */\n      tag_284\n        /* \"#utility.yul\":14321:14322   */\n      0x00\n        /* \"#utility.yul\":14317:14323   */\n      not\n        /* \"#utility.yul\":14309:14314   */\n      dup5\n        /* \"#utility.yul\":14306:14307   */\n      0x08\n        /* \"#utility.yul\":14302:14315   */\n      mul\n        /* \"#utility.yul\":14273:14324   */\n      tag_123\n      jump\t// in\n    tag_284:\n        /* \"#utility.yul\":14269:14325   */\n      not\n        /* \"#utility.yul\":14354:14358   */\n      dup1\n        /* \"#utility.yul\":14348:14352   */\n      dup4\n        /* \"#utility.yul\":14344:14359   */\n      and\n        /* \"#utility.yul\":14334:14359   */\n      swap2\n      pop\n        /* \"#utility.yul\":14247:14365   */\n      pop\n        /* \"#utility.yul\":14196:14365   */\n      swap3\n      swap2\n      pop\n      pop\n      jump\t// out\n        /* \"#utility.yul\":14370:14665   */\n    tag_125:\n        /* \"#utility.yul\":14446:14450   */\n      0x00\n        /* \"#utility.yul\":14592:14621   */\n      tag_286\n        /* \"#utility.yul\":14617:14620   */\n      dup4\n        /* \"#utility.yul\":14611:14615   */\n      dup4\n        /* \"#utility.yul\":14592:14621   */\n      tag_124\n      jump\t// in\n    tag_286:\n        /* \"#utility.yul\":14584:14621   */\n      swap2\n      pop\n        /* \"#utility.yul\":14654:14657   */\n      dup3\n        /* \"#utility.yul\":14651:14652   */\n      0x02\n        /* \"#utility.yul\":14647:14658   */\n      mul\n        /* \"#utility.yul\":14641:14645   */\n      dup3\n        /* \"#utility.yul\":14638:14659   */\n      or\n        /* \"#utility.yul\":14630:14659   */\n      swap1\n      pop\n        /* \"#utility.yul\":14370:14665   */\n      swap3\n      swap2\n      pop\n      pop\n      jump\t// out\n        /* \"#utility.yul\":14670:16065   */\n    tag_61:\n        /* \"#utility.yul\":14787:14824   */\n      tag_288\n        /* \"#utility.yul\":14820:14823   */\n      dup3\n        /* \"#utility.yul\":14787:14824   */\n      tag_93\n      jump\t// in\n    tag_288:\n        /* \"#utility.yul\":14889:14907   */\n      0xffffffffffffffff\n        /* \"#utility.yul\":14881:14887   */\n      dup2\n        /* \"#utility.yul\":14878:14908   */\n      gt\n        /* \"#utility.yul\":14875:14931   */\n      iszero\n      tag_289\n      jumpi\n        /* \"#utility.yul\":14911:14929   */\n      tag_290\n      tag_110\n      jump\t// in\n    tag_290:\n        /* \"#utility.yul\":14875:14931   */\n    tag_289:\n        /* \"#utility.yul\":14955:14993   */\n      tag_291\n        /* \"#utility.yul\":14987:14991   */\n      dup3\n        /* \"#utility.yul\":14981:14992   */\n      sload\n        /* \"#utility.yul\":14955:14993   */\n      tag_43\n      jump\t// in\n    tag_291:\n        /* \"#utility.yul\":15040:15107   */\n      tag_292\n        /* \"#utility.yul\":15100:15106   */\n      dup3\n        /* \"#utility.yul\":15092:15098   */\n      dup3\n        /* \"#utility.yul\":15086:15090   */\n      dup6\n        /* \"#utility.yul\":15040:15107   */\n      tag_122\n      jump\t// in\n    tag_292:\n        /* \"#utility.yul\":15134:15135   */\n      0x00\n        /* \"#utility.yul\":15158:15162   */\n      0x20\n        /* \"#utility.yul\":15145:15162   */\n      swap1\n      pop\n        /* \"#utility.yul\":15190:15192   */\n      0x1f\n        /* \"#utility.yul\":15182:15188   */\n      dup4\n        /* \"#utility.yul\":15179:15193   */\n      gt\n        /* \"#utility.yul\":15207:15208   */\n      0x01\n        /* \"#utility.yul\":15202:15820   */\n      dup2\n      eq\n      tag_294\n      jumpi\n        /* \"#utility.yul\":15864:15865   */\n      0x00\n        /* \"#utility.yul\":15881:15887   */\n      dup5\n        /* \"#utility.yul\":15878:15955   */\n      iszero\n      tag_295\n      jumpi\n        /* \"#utility.yul\":15930:15939   */\n      dup3\n        /* \"#utility.yul\":15925:15928   */\n      dup8\n        /* \"#utility.yul\":15921:15940   */\n      add\n        /* \"#utility.yul\":15915:15941   */\n      mload\n        /* \"#utility.yul\":15906:15941   */\n      swap1\n      pop\n        /* \"#utility.yul\":15878:15955   */\n    tag_295:\n        /* \"#utility.yul\":15981:16048   */\n      tag_296\n        /* \"#utility.yul\":16041:16047   */\n      dup6\n        /* \"#utility.yul\":16034:16039   */\n      dup3\n        /* \"#utility.yul\":15981:16048   */\n      tag_125\n      jump\t// in\n    tag_296:\n        /* \"#utility.yul\":15975:15979   */\n      dup7\n        /* \"#utility.yul\":15968:16049   */\n      sstore\n        /* \"#utility.yul\":15837:16059   */\n      pop\n        /* \"#utility.yul\":15172:16059   */\n      jump(tag_293)\n        /* \"#utility.yul\":15202:15820   */\n    tag_294:\n        /* \"#utility.yul\":15254:15258   */\n      0x1f\n        /* \"#utility.yul\":15250:15259   */\n      not\n        /* \"#utility.yul\":15242:15248   */\n      dup5\n        /* \"#utility.yul\":15238:15260   */\n      and\n        /* \"#utility.yul\":15288:15325   */\n      tag_297\n        /* \"#utility.yul\":15320:15324   */\n      dup7\n        /* \"#utility.yul\":15288:15325   */\n      tag_111\n      jump\t// in\n    tag_297:\n        /* \"#utility.yul\":15347:15348   */\n      0x00\n        /* \"#utility.yul\":15361:15569   */\n    tag_298:\n        /* \"#utility.yul\":15375:15382   */\n      dup3\n        /* \"#utility.yul\":15372:15373   */\n      dup2\n        /* \"#utility.yul\":15369:15383   */\n      lt\n        /* \"#utility.yul\":15361:15569   */\n      iszero\n      tag_300\n      jumpi\n        /* \"#utility.yul\":15454:15463   */\n      dup5\n        /* \"#utility.yul\":15449:15452   */\n      dup10\n        /* \"#utility.yul\":15445:15464   */\n      add\n        /* \"#utility.yul\":15439:15465   */\n      mload\n        /* \"#utility.yul\":15431:15437   */\n      dup3\n        /* \"#utility.yul\":15424:15466   */\n      sstore\n        /* \"#utility.yul\":15505:15506   */\n      0x01\n        /* \"#utility.yul\":15497:15503   */\n      dup3\n        /* \"#utility.yul\":15493:15507   */\n      add\n        /* \"#utility.yul\":15483:15507   */\n      swap2\n      pop\n        /* \"#utility.yul\":15552:15554   */\n      0x20\n        /* \"#utility.yul\":15541:15550   */\n      dup6\n        /* \"#utility.yul\":15537:15555   */\n      add\n        /* \"#utility.yul\":15524:15555   */\n      swap5\n      pop\n        /* \"#utility.yul\":15398:15402   */\n      0x20\n        /* \"#utility.yul\":15395:15396   */\n      dup2\n        /* \"#utility.yul\":15391:15403   */\n      add\n        /* \"#utility.yul\":15386:15403   */\n      swap1\n      pop\n        /* \"#utility.yul\":15361:15569   */\n      jump(tag_298)\n    tag_300:\n        /* \"#utility.yul\":15597:15603   */\n      dup7\n        /* \"#utility.yul\":15588:15595   */\n      dup4\n        /* \"#utility.yul\":15585:15604   */\n      lt\n        /* \"#utility.yul\":15582:15761   */\n      iszero\n      tag_301\n      jumpi\n        /* \"#utility.yul\":15655:15664   */\n      dup5\n        /* \"#utility.yul\":15650:15653   */\n      dup10\n        /* \"#utility.yul\":15646:15665   */\n      add\n        /* \"#utility.yul\":15640:15666   */\n      mload\n        /* \"#utility.yul\":15698:15746   */\n      tag_302\n        /* \"#utility.yul\":15740:15744   */\n      0x1f\n        /* \"#utility.yul\":15732:15738   */\n      dup10\n        /* \"#utility.yul\":15728:15745   */\n      and\n        /* \"#utility.yul\":15717:15726   */\n      dup3\n        /* \"#utility.yul\":15698:15746   */\n      tag_124\n      jump\t// in\n    tag_302:\n        /* \"#utility.yul\":15690:15696   */\n      dup4\n        /* \"#utility.yul\":15683:15747   */\n      sstore\n        /* \"#utility.yul\":15605:15761   */\n      pop\n        /* \"#utility.yul\":15582:15761   */\n    tag_301:\n        /* \"#utility.yul\":15807:15808   */\n      0x01\n        /* \"#utility.yul\":15803:15804   */\n      0x02\n        /* \"#utility.yul\":15795:15801   */\n      dup9\n        /* \"#utility.yul\":15791:15805   */\n      mul\n        /* \"#utility.yul\":15787:15809   */\n      add\n        /* \"#utility.yul\":15781:15785   */\n      dup9\n        /* \"#utility.yul\":15774:15810   */\n      sstore\n        /* \"#utility.yul\":15209:15820   */\n      pop\n      pop\n      pop\n        /* \"#utility.yul\":15172:16059   */\n    tag_293:\n      pop\n        /* \"#utility.yul\":14762:16065   */\n      pop\n      pop\n      pop\n        /* \"#utility.yul\":14670:16065   */\n      pop\n      pop\n      jump\t// out\n        /* \"#utility.yul\":16071:16251   */\n    tag_68:\n        /* \"#utility.yul\":16119:16196   */\n      0x4e487b7100000000000000000000000000000000000000000000000000000000\n        /* \"#utility.yul\":16116:16117   */\n      0x00\n        /* \"#utility.yul\":16109:16197   */\n      mstore\n        /* \"#utility.yul\":16216:16220   */\n      0x32\n        /* \"#utility.yul\":16213:16214   */\n      0x04\n        /* \"#utility.yul\":16206:16221   */\n      mstore\n        /* \"#utility.yul\":16240:16244   */\n      0x24\n        /* \"#utility.yul\":16237:16238   */\n      0x00\n        /* \"#utility.yul\":16230:16245   */\n      revert\n        /* \"#utility.yul\":16257:16424   */\n    tag_126:\n        /* \"#utility.yul\":16397:16416   */\n      0x4d61746368206973207374696c6c206f6e000000000000000000000000000000\n        /* \"#utility.yul\":16393:16394   */\n      0x00\n        /* \"#utility.yul\":16385:16391   */\n      dup3\n        /* \"#utility.yul\":16381:16395   */\n      add\n        /* \"#utility.yul\":16374:16417   */\n      mstore\n        /* \"#utility.yul\":16257:16424   */\n      pop\n      jump\t// out\n        /* \"#utility.yul\":16430:16796   */\n    tag_127:\n        /* \"#utility.yul\":16572:16575   */\n      0x00\n        /* \"#utility.yul\":16593:16660   */\n      tag_306\n        /* \"#utility.yul\":16657:16659   */\n      0x11\n        /* \"#utility.yul\":16652:16655   */\n      dup4\n        /* \"#utility.yul\":16593:16660   */\n      tag_94\n      jump\t// in\n    tag_306:\n        /* \"#utility.yul\":16586:16660   */\n      swap2\n      pop\n        /* \"#utility.yul\":16669:16762   */\n      tag_307\n        /* \"#utility.yul\":16758:16761   */\n      dup3\n        /* \"#utility.yul\":16669:16762   */\n      tag_126\n      jump\t// in\n    tag_307:\n        /* \"#utility.yul\":16787:16789   */\n      0x20\n        /* \"#utility.yul\":16782:16785   */\n      dup3\n        /* \"#utility.yul\":16778:16790   */\n      add\n        /* \"#utility.yul\":16771:16790   */\n      swap1\n      pop\n        /* \"#utility.yul\":16430:16796   */\n      swap2\n      swap1\n      pop\n      jump\t// out\n        /* \"#utility.yul\":16802:17221   */\n    tag_72:\n        /* \"#utility.yul\":16968:16972   */\n      0x00\n        /* \"#utility.yul\":17006:17008   */\n      0x20\n        /* \"#utility.yul\":16995:17004   */\n      dup3\n        /* \"#utility.yul\":16991:17009   */\n      add\n        /* \"#utility.yul\":16983:17009   */\n      swap1\n      pop\n        /* \"#utility.yul\":17055:17064   */\n      dup2\n        /* \"#utility.yul\":17049:17053   */\n      dup2\n        /* \"#utility.yul\":17045:17065   */\n      sub\n        /* \"#utility.yul\":17041:17042   */\n      0x00\n        /* \"#utility.yul\":17030:17039   */\n      dup4\n        /* \"#utility.yul\":17026:17043   */\n      add\n        /* \"#utility.yul\":17019:17066   */\n      mstore\n        /* \"#utility.yul\":17083:17214   */\n      tag_309\n        /* \"#utility.yul\":17209:17213   */\n      dup2\n        /* \"#utility.yul\":17083:17214   */\n      tag_127\n      jump\t// in\n    tag_309:\n        /* \"#utility.yul\":17075:17214   */\n      swap1\n      pop\n        /* \"#utility.yul\":16802:17221   */\n      swap2\n      swap1\n      pop\n      jump\t// out\n\n    auxdata: 0xa26469706673582212208b2497c0d81254b00c78ddd7f58d462c5763a11f2415b1324361685987245f7b64736f6c63430008110033\n}\n",
				"bytecode": {
					"linkReferences": {},
					"object": "608060405234801561001057600080fd5b50336000806101000a81548173ffffffffffffffffffffffffffffffffffffffff021916908373ffffffffffffffffffffffffffffffffffffffff160217905550611062806100606000396000f3fe608060405234801561001057600080fd5b50600436106100625760003560e01c806315a3ae711461006757806367ad4ec214610099578063b2edb39f146100cb578063bc9e6e2c146100ff578063ec7361a81461012f578063f851a4401461014b575b600080fd5b610081600480360381019061007c919061072d565b610169565b60405161009093929190610821565b60405180910390f35b6100b360048036038101906100ae9190610884565b6101c0565b6040516100c2939291906108b1565b60405180910390f35b6100e560048036038101906100e0919061072d565b6101f7565b6040516100f69594939291906109b6565b60405180910390f35b61011960048036038101906101149190610a7c565b61036b565b6040516101269190610b2c565b60405180910390f35b61014960048036038101906101449190610b47565b610571565b005b6101536106c9565b6040516101609190610b9a565b60405180910390f35b60036020528060005260406000206000915090508060000160009054906101000a900473ffffffffffffffffffffffffffffffffffffffff16908060010154908060020160009054906101000a900460ff16905083565b60026020528060005260406000206000915090508060000160009054906101000a900460ff16908060010154908060020154905083565b6001818154811061020757600080fd5b906000526020600020906006020160009150905080600001805461022a90610be4565b80601f016020809104026020016040519081016040528092919081815260200182805461025690610be4565b80156102a35780601f10610278576101008083540402835291602001916102a3565b820191906000526020600020905b81548152906001019060200180831161028657829003601f168201915b5050505050908060010180546102b890610be4565b80601f01602080910402602001604051908101604052809291908181526020018280546102e490610be4565b80156103315780601f1061030657610100808354040283529160200191610331565b820191906000526020600020905b81548152906001019060200180831161031457829003601f168201915b5050505050908060020154908060030154908060040160405180604001604052908160008201548152602001600182015481525050905085565b60003373ffffffffffffffffffffffffffffffffffffffff1660008054906101000a900473ffffffffffffffffffffffffffffffffffffffff1673ffffffffffffffffffffffffffffffffffffffff16146103fb576040517f08c379a00000000000000000000000000000000000000000000000000000000081526004016103f290610c61565b60405180910390fd5b6000605f8361040a9190610cb0565b905060006040518060400160405280600081526020016000815250905060016040518060a001604052808a8a8080601f016020809104026020016040519081016040528093929190818152602001838380828437600081840152601f19601f82011690508083019250505050505050815260200188888080601f016020809104026020016040519081016040528093929190818152602001838380828437600081840152601f19601f82011690508083019250505050505050815260200186815260200184815260200183815250908060018154018082558091505060019003906000526020600020906006020160009091909190915060008201518160000190816105169190610ebf565b50602082015181600101908161052c9190610ebf565b50604082015181600201556060820151816003015560808201518160040160008201518160000155602082015181600101555050505060019250505095945050505050565b3373ffffffffffffffffffffffffffffffffffffffff1660008054906101000a900473ffffffffffffffffffffffffffffffffffffffff1673ffffffffffffffffffffffffffffffffffffffff16146105ff576040517f08c379a00000000000000000000000000000000000000000000000000000000081526004016105f690610c61565b60405180910390fd5b60004290506001848154811061061857610617610f91565b5b90600052602060002090600602016003015481101561066c576040517f08c379a00000000000000000000000000000000000000000000000000000000081526004016106639061100c565b60405180910390fd5b60006040518060400160405280858152602001848152509050806001868154811061069a57610699610f91565b5b906000526020600020906006020160040160008201518160000155602082015181600101559050505050505050565b60008054906101000a900473ffffffffffffffffffffffffffffffffffffffff1681565b600080fd5b600080fd5b6000819050919050565b61070a816106f7565b811461071557600080fd5b50565b60008135905061072781610701565b92915050565b600060208284031215610743576107426106ed565b5b600061075184828501610718565b91505092915050565b600073ffffffffffffffffffffffffffffffffffffffff82169050919050565b60006107858261075a565b9050919050565b6107958161077a565b82525050565b6107a4816106f7565b82525050565b7f4e487b7100000000000000000000000000000000000000000000000000000000600052602160045260246000fd5b600481106107ea576107e96107aa565b5b50565b60008190506107fb826107d9565b919050565b600061080b826107ed565b9050919050565b61081b81610800565b82525050565b6000606082019050610836600083018661078c565b610843602083018561079b565b6108506040830184610812565b949350505050565b6108618161077a565b811461086c57600080fd5b50565b60008135905061087e81610858565b92915050565b60006020828403121561089a576108996106ed565b5b60006108a88482850161086f565b91505092915050565b60006060820190506108c66000830186610812565b6108d3602083018561079b565b6108e0604083018461079b565b949350505050565b600081519050919050565b600082825260208201905092915050565b60005b83811015610922578082015181840152602081019050610907565b60008484015250505050565b6000601f19601f8301169050919050565b600061094a826108e8565b61095481856108f3565b9350610964818560208601610904565b61096d8161092e565b840191505092915050565b610981816106f7565b82525050565b60408201600082015161099d6000850182610978565b5060208201516109b06020850182610978565b50505050565b600060c08201905081810360008301526109d0818861093f565b905081810360208301526109e4818761093f565b90506109f3604083018661079b565b610a00606083018561079b565b610a0d6080830184610987565b9695505050505050565b600080fd5b600080fd5b600080fd5b60008083601f840112610a3c57610a3b610a17565b5b8235905067ffffffffffffffff811115610a5957610a58610a1c565b5b602083019150836001820283011115610a7557610a74610a21565b5b9250929050565b600080600080600060608688031215610a9857610a976106ed565b5b600086013567ffffffffffffffff811115610ab657610ab56106f2565b5b610ac288828901610a26565b9550955050602086013567ffffffffffffffff811115610ae557610ae46106f2565b5b610af188828901610a26565b93509350506040610b0488828901610718565b9150509295509295909350565b60008115159050919050565b610b2681610b11565b82525050565b6000602082019050610b416000830184610b1d565b92915050565b600080600060608486031215610b6057610b5f6106ed565b5b6000610b6e86828701610718565b9350506020610b7f86828701610718565b9250506040610b9086828701610718565b9150509250925092565b6000602082019050610baf600083018461078c565b92915050565b7f4e487b7100000000000000000000000000000000000000000000000000000000600052602260045260246000fd5b60006002820490506001821680610bfc57607f821691505b602082108103610c0f57610c0e610bb5565b5b50919050565b7f4e6f74204f776e65720000000000000000000000000000000000000000000000600082015250565b6000610c4b6009836108f3565b9150610c5682610c15565b602082019050919050565b60006020820190508181036000830152610c7a81610c3e565b9050919050565b7f4e487b7100000000000000000000000000000000000000000000000000000000600052601160045260246000fd5b6000610cbb826106f7565b9150610cc6836106f7565b9250828201905080821115610cde57610cdd610c81565b5b92915050565b7f4e487b7100000000000000000000000000000000000000000000000000000000600052604160045260246000fd5b60008190508160005260206000209050919050565b60006020601f8301049050919050565b600082821b905092915050565b600060088302610d757fffffffffffffffffffffffffffffffffffffffffffffffffffffffffffffffff82610d38565b610d7f8683610d38565b95508019841693508086168417925050509392505050565b6000819050919050565b6000610dbc610db7610db2846106f7565b610d97565b6106f7565b9050919050565b6000819050919050565b610dd683610da1565b610dea610de282610dc3565b848454610d45565b825550505050565b600090565b610dff610df2565b610e0a818484610dcd565b505050565b5b81811015610e2e57610e23600082610df7565b600181019050610e10565b5050565b601f821115610e7357610e4481610d13565b610e4d84610d28565b81016020851015610e5c578190505b610e70610e6885610d28565b830182610e0f565b50505b505050565b600082821c905092915050565b6000610e9660001984600802610e78565b1980831691505092915050565b6000610eaf8383610e85565b9150826002028217905092915050565b610ec8826108e8565b67ffffffffffffffff811115610ee157610ee0610ce4565b5b610eeb8254610be4565b610ef6828285610e32565b600060209050601f831160018114610f295760008415610f17578287015190505b610f218582610ea3565b865550610f89565b601f198416610f3786610d13565b60005b82811015610f5f57848901518255600182019150602085019450602081019050610f3a565b86831015610f7c5784890151610f78601f891682610e85565b8355505b6001600288020188555050505b505050505050565b7f4e487b7100000000000000000000000000000000000000000000000000000000600052603260045260246000fd5b7f4d61746368206973207374696c6c206f6e000000000000000000000000000000600082015250565b6000610ff66011836108f3565b915061100182610fc0565b602082019050919050565b6000602082019050818103600083015261102581610fe9565b905091905056fea26469706673582212208b2497c0d81254b00c78ddd7f58d462c5763a11f2415b1324361685987245f7b64736f6c63430008110033",
					"opcodes": "PUSH1 0x80 PUSH1 0x40 MSTORE CALLVALUE DUP1 ISZERO PUSH2 0x10 JUMPI PUSH1 0x0 DUP1 REVERT JUMPDEST POP CALLER PUSH1 0x0 DUP1 PUSH2 0x100 EXP DUP2 SLOAD DUP2 PUSH20 0xFFFFFFFFFFFFFFFFFFFFFFFFFFFFFFFFFFFFFFFF MUL NOT AND SWAP1 DUP4 PUSH20 0xFFFFFFFFFFFFFFFFFFFFFFFFFFFFFFFFFFFFFFFF AND MUL OR SWAP1 SSTORE POP PUSH2 0x1062 DUP1 PUSH2 0x60 PUSH1 0x0 CODECOPY PUSH1 0x0 RETURN INVALID PUSH1 0x80 PUSH1 0x40 MSTORE CALLVALUE DUP1 ISZERO PUSH2 0x10 JUMPI PUSH1 0x0 DUP1 REVERT JUMPDEST POP PUSH1 0x4 CALLDATASIZE LT PUSH2 0x62 JUMPI PUSH1 0x0 CALLDATALOAD PUSH1 0xE0 SHR DUP1 PUSH4 0x15A3AE71 EQ PUSH2 0x67 JUMPI DUP1 PUSH4 0x67AD4EC2 EQ PUSH2 0x99 JUMPI DUP1 PUSH4 0xB2EDB39F EQ PUSH2 0xCB JUMPI DUP1 PUSH4 0xBC9E6E2C EQ PUSH2 0xFF JUMPI DUP1 PUSH4 0xEC7361A8 EQ PUSH2 0x12F JUMPI DUP1 PUSH4 0xF851A440 EQ PUSH2 0x14B JUMPI JUMPDEST PUSH1 0x0 DUP1 REVERT JUMPDEST PUSH2 0x81 PUSH1 0x4 DUP1 CALLDATASIZE SUB DUP2 ADD SWAP1 PUSH2 0x7C SWAP2 SWAP1 PUSH2 0x72D JUMP JUMPDEST PUSH2 0x169 JUMP JUMPDEST PUSH1 0x40 MLOAD PUSH2 0x90 SWAP4 SWAP3 SWAP2 SWAP1 PUSH2 0x821 JUMP JUMPDEST PUSH1 0x40 MLOAD DUP1 SWAP2 SUB SWAP1 RETURN JUMPDEST PUSH2 0xB3 PUSH1 0x4 DUP1 CALLDATASIZE SUB DUP2 ADD SWAP1 PUSH2 0xAE SWAP2 SWAP1 PUSH2 0x884 JUMP JUMPDEST PUSH2 0x1C0 JUMP JUMPDEST PUSH1 0x40 MLOAD PUSH2 0xC2 SWAP4 SWAP3 SWAP2 SWAP1 PUSH2 0x8B1 JUMP JUMPDEST PUSH1 0x40 MLOAD DUP1 SWAP2 SUB SWAP1 RETURN JUMPDEST PUSH2 0xE5 PUSH1 0x4 DUP1 CALLDATASIZE SUB DUP2 ADD SWAP1 PUSH2 0xE0 SWAP2 SWAP1 PUSH2 0x72D JUMP JUMPDEST PUSH2 0x1F7 JUMP JUMPDEST PUSH1 0x40 MLOAD PUSH2 0xF6 SWAP6 SWAP5 SWAP4 SWAP3 SWAP2 SWAP1 PUSH2 0x9B6 JUMP JUMPDEST PUSH1 0x40 MLOAD DUP1 SWAP2 SUB SWAP1 RETURN JUMPDEST PUSH2 0x119 PUSH1 0x4 DUP1 CALLDATASIZE SUB DUP2 ADD SWAP1 PUSH2 0x114 SWAP2 SWAP1 PUSH2 0xA7C JUMP JUMPDEST PUSH2 0x36B JUMP JUMPDEST PUSH1 0x40 MLOAD PUSH2 0x126 SWAP2 SWAP1 PUSH2 0xB2C JUMP JUMPDEST PUSH1 0x40 MLOAD DUP1 SWAP2 SUB SWAP1 RETURN JUMPDEST PUSH2 0x149 PUSH1 0x4 DUP1 CALLDATASIZE SUB DUP2 ADD SWAP1 PUSH2 0x144 SWAP2 SWAP1 PUSH2 0xB47 JUMP JUMPDEST PUSH2 0x571 JUMP JUMPDEST STOP JUMPDEST PUSH2 0x153 PUSH2 0x6C9 JUMP JUMPDEST PUSH1 0x40 MLOAD PUSH2 0x160 SWAP2 SWAP1 PUSH2 0xB9A JUMP JUMPDEST PUSH1 0x40 MLOAD DUP1 SWAP2 SUB SWAP1 RETURN JUMPDEST PUSH1 0x3 PUSH1 0x20 MSTORE DUP1 PUSH1 0x0 MSTORE PUSH1 0x40 PUSH1 0x0 KECCAK256 PUSH1 0x0 SWAP2 POP SWAP1 POP DUP1 PUSH1 0x0 ADD PUSH1 0x0 SWAP1 SLOAD SWAP1 PUSH2 0x100 EXP SWAP1 DIV PUSH20 0xFFFFFFFFFFFFFFFFFFFFFFFFFFFFFFFFFFFFFFFF AND SWAP1 DUP1 PUSH1 0x1 ADD SLOAD SWAP1 DUP1 PUSH1 0x2 ADD PUSH1 0x0 SWAP1 SLOAD SWAP1 PUSH2 0x100 EXP SWAP1 DIV PUSH1 0xFF AND SWAP1 POP DUP4 JUMP JUMPDEST PUSH1 0x2 PUSH1 0x20 MSTORE DUP1 PUSH1 0x0 MSTORE PUSH1 0x40 PUSH1 0x0 KECCAK256 PUSH1 0x0 SWAP2 POP SWAP1 POP DUP1 PUSH1 0x0 ADD PUSH1 0x0 SWAP1 SLOAD SWAP1 PUSH2 0x100 EXP SWAP1 DIV PUSH1 0xFF AND SWAP1 DUP1 PUSH1 0x1 ADD SLOAD SWAP1 DUP1 PUSH1 0x2 ADD SLOAD SWAP1 POP DUP4 JUMP JUMPDEST PUSH1 0x1 DUP2 DUP2 SLOAD DUP2 LT PUSH2 0x207 JUMPI PUSH1 0x0 DUP1 REVERT JUMPDEST SWAP1 PUSH1 0x0 MSTORE PUSH1 0x20 PUSH1 0x0 KECCAK256 SWAP1 PUSH1 0x6 MUL ADD PUSH1 0x0 SWAP2 POP SWAP1 POP DUP1 PUSH1 0x0 ADD DUP1 SLOAD PUSH2 0x22A SWAP1 PUSH2 0xBE4 JUMP JUMPDEST DUP1 PUSH1 0x1F ADD PUSH1 0x20 DUP1 SWAP2 DIV MUL PUSH1 0x20 ADD PUSH1 0x40 MLOAD SWAP1 DUP2 ADD PUSH1 0x40 MSTORE DUP1 SWAP3 SWAP2 SWAP1 DUP2 DUP2 MSTORE PUSH1 0x20 ADD DUP3 DUP1 SLOAD PUSH2 0x256 SWAP1 PUSH2 0xBE4 JUMP JUMPDEST DUP1 ISZERO PUSH2 0x2A3 JUMPI DUP1 PUSH1 0x1F LT PUSH2 0x278 JUMPI PUSH2 0x100 DUP1 DUP4 SLOAD DIV MUL DUP4 MSTORE SWAP2 PUSH1 0x20 ADD SWAP2 PUSH2 0x2A3 JUMP JUMPDEST DUP3 ADD SWAP2 SWAP1 PUSH1 0x0 MSTORE PUSH1 0x20 PUSH1 0x0 KECCAK256 SWAP1 JUMPDEST DUP2 SLOAD DUP2 MSTORE SWAP1 PUSH1 0x1 ADD SWAP1 PUSH1 0x20 ADD DUP1 DUP4 GT PUSH2 0x286 JUMPI DUP3 SWAP1 SUB PUSH1 0x1F AND DUP3 ADD SWAP2 JUMPDEST POP POP POP POP POP SWAP1 DUP1 PUSH1 0x1 ADD DUP1 SLOAD PUSH2 0x2B8 SWAP1 PUSH2 0xBE4 JUMP JUMPDEST DUP1 PUSH1 0x1F ADD PUSH1 0x20 DUP1 SWAP2 DIV MUL PUSH1 0x20 ADD PUSH1 0x40 MLOAD SWAP1 DUP2 ADD PUSH1 0x40 MSTORE DUP1 SWAP3 SWAP2 SWAP1 DUP2 DUP2 MSTORE PUSH1 0x20 ADD DUP3 DUP1 SLOAD PUSH2 0x2E4 SWAP1 PUSH2 0xBE4 JUMP JUMPDEST DUP1 ISZERO PUSH2 0x331 JUMPI DUP1 PUSH1 0x1F LT PUSH2 0x306 JUMPI PUSH2 0x100 DUP1 DUP4 SLOAD DIV MUL DUP4 MSTORE SWAP2 PUSH1 0x20 ADD SWAP2 PUSH2 0x331 JUMP JUMPDEST DUP3 ADD SWAP2 SWAP1 PUSH1 0x0 MSTORE PUSH1 0x20 PUSH1 0x0 KECCAK256 SWAP1 JUMPDEST DUP2 SLOAD DUP2 MSTORE SWAP1 PUSH1 0x1 ADD SWAP1 PUSH1 0x20 ADD DUP1 DUP4 GT PUSH2 0x314 JUMPI DUP3 SWAP1 SUB PUSH1 0x1F AND DUP3 ADD SWAP2 JUMPDEST POP POP POP POP POP SWAP1 DUP1 PUSH1 0x2 ADD SLOAD SWAP1 DUP1 PUSH1 0x3 ADD SLOAD SWAP1 DUP1 PUSH1 0x4 ADD PUSH1 0x40 MLOAD DUP1 PUSH1 0x40 ADD PUSH1 0x40 MSTORE SWAP1 DUP2 PUSH1 0x0 DUP3 ADD SLOAD DUP2 MSTORE PUSH1 0x20 ADD PUSH1 0x1 DUP3 ADD SLOAD DUP2 MSTORE POP POP SWAP1 POP DUP6 JUMP JUMPDEST PUSH1 0x0 CALLER PUSH20 0xFFFFFFFFFFFFFFFFFFFFFFFFFFFFFFFFFFFFFFFF AND PUSH1 0x0 DUP1 SLOAD SWAP1 PUSH2 0x100 EXP SWAP1 DIV PUSH20 0xFFFFFFFFFFFFFFFFFFFFFFFFFFFFFFFFFFFFFFFF AND PUSH20 0xFFFFFFFFFFFFFFFFFFFFFFFFFFFFFFFFFFFFFFFF AND EQ PUSH2 0x3FB JUMPI PUSH1 0x40 MLOAD PUSH32 0x8C379A000000000000000000000000000000000000000000000000000000000 DUP2 MSTORE PUSH1 0x4 ADD PUSH2 0x3F2 SWAP1 PUSH2 0xC61 JUMP JUMPDEST PUSH1 0x40 MLOAD DUP1 SWAP2 SUB SWAP1 REVERT JUMPDEST PUSH1 0x0 PUSH1 0x5F DUP4 PUSH2 0x40A SWAP2 SWAP1 PUSH2 0xCB0 JUMP JUMPDEST SWAP1 POP PUSH1 0x0 PUSH1 0x40 MLOAD DUP1 PUSH1 0x40 ADD PUSH1 0x40 MSTORE DUP1 PUSH1 0x0 DUP2 MSTORE PUSH1 0x20 ADD PUSH1 0x0 DUP2 MSTORE POP SWAP1 POP PUSH1 0x1 PUSH1 0x40 MLOAD DUP1 PUSH1 0xA0 ADD PUSH1 0x40 MSTORE DUP1 DUP11 DUP11 DUP1 DUP1 PUSH1 0x1F ADD PUSH1 0x20 DUP1 SWAP2 DIV MUL PUSH1 0x20 ADD PUSH1 0x40 MLOAD SWAP1 DUP2 ADD PUSH1 0x40 MSTORE DUP1 SWAP4 SWAP3 SWAP2 SWAP1 DUP2 DUP2 MSTORE PUSH1 0x20 ADD DUP4 DUP4 DUP1 DUP3 DUP5 CALLDATACOPY PUSH1 0x0 DUP2 DUP5 ADD MSTORE PUSH1 0x1F NOT PUSH1 0x1F DUP3 ADD AND SWAP1 POP DUP1 DUP4 ADD SWAP3 POP POP POP POP POP POP POP DUP2 MSTORE PUSH1 0x20 ADD DUP9 DUP9 DUP1 DUP1 PUSH1 0x1F ADD PUSH1 0x20 DUP1 SWAP2 DIV MUL PUSH1 0x20 ADD PUSH1 0x40 MLOAD SWAP1 DUP2 ADD PUSH1 0x40 MSTORE DUP1 SWAP4 SWAP3 SWAP2 SWAP1 DUP2 DUP2 MSTORE PUSH1 0x20 ADD DUP4 DUP4 DUP1 DUP3 DUP5 CALLDATACOPY PUSH1 0x0 DUP2 DUP5 ADD MSTORE PUSH1 0x1F NOT PUSH1 0x1F DUP3 ADD AND SWAP1 POP DUP1 DUP4 ADD SWAP3 POP POP POP POP POP POP POP DUP2 MSTORE PUSH1 0x20 ADD DUP7 DUP2 MSTORE PUSH1 0x20 ADD DUP5 DUP2 MSTORE PUSH1 0x20 ADD DUP4 DUP2 MSTORE POP SWAP1 DUP1 PUSH1 0x1 DUP2 SLOAD ADD DUP1 DUP3 SSTORE DUP1 SWAP2 POP POP PUSH1 0x1 SWAP1 SUB SWAP1 PUSH1 0x0 MSTORE PUSH1 0x20 PUSH1 0x0 KECCAK256 SWAP1 PUSH1 0x6 MUL ADD PUSH1 0x0 SWAP1 SWAP2 SWAP1 SWAP2 SWAP1 SWAP2 POP PUSH1 0x0 DUP3 ADD MLOAD DUP2 PUSH1 0x0 ADD SWAP1 DUP2 PUSH2 0x516 SWAP2 SWAP1 PUSH2 0xEBF JUMP JUMPDEST POP PUSH1 0x20 DUP3 ADD MLOAD DUP2 PUSH1 0x1 ADD SWAP1 DUP2 PUSH2 0x52C SWAP2 SWAP1 PUSH2 0xEBF JUMP JUMPDEST POP PUSH1 0x40 DUP3 ADD MLOAD DUP2 PUSH1 0x2 ADD SSTORE PUSH1 0x60 DUP3 ADD MLOAD DUP2 PUSH1 0x3 ADD SSTORE PUSH1 0x80 DUP3 ADD MLOAD DUP2 PUSH1 0x4 ADD PUSH1 0x0 DUP3 ADD MLOAD DUP2 PUSH1 0x0 ADD SSTORE PUSH1 0x20 DUP3 ADD MLOAD DUP2 PUSH1 0x1 ADD SSTORE POP POP POP POP PUSH1 0x1 SWAP3 POP POP POP SWAP6 SWAP5 POP POP POP POP POP JUMP JUMPDEST CALLER PUSH20 0xFFFFFFFFFFFFFFFFFFFFFFFFFFFFFFFFFFFFFFFF AND PUSH1 0x0 DUP1 SLOAD SWAP1 PUSH2 0x100 EXP SWAP1 DIV PUSH20 0xFFFFFFFFFFFFFFFFFFFFFFFFFFFFFFFFFFFFFFFF AND PUSH20 0xFFFFFFFFFFFFFFFFFFFFFFFFFFFFFFFFFFFFFFFF AND EQ PUSH2 0x5FF JUMPI PUSH1 0x40 MLOAD PUSH32 0x8C379A000000000000000000000000000000000000000000000000000000000 DUP2 MSTORE PUSH1 0x4 ADD PUSH2 0x5F6 SWAP1 PUSH2 0xC61 JUMP JUMPDEST PUSH1 0x40 MLOAD DUP1 SWAP2 SUB SWAP1 REVERT JUMPDEST PUSH1 0x0 TIMESTAMP SWAP1 POP PUSH1 0x1 DUP5 DUP2 SLOAD DUP2 LT PUSH2 0x618 JUMPI PUSH2 0x617 PUSH2 0xF91 JUMP JUMPDEST JUMPDEST SWAP1 PUSH1 0x0 MSTORE PUSH1 0x20 PUSH1 0x0 KECCAK256 SWAP1 PUSH1 0x6 MUL ADD PUSH1 0x3 ADD SLOAD DUP2 LT ISZERO PUSH2 0x66C JUMPI PUSH1 0x40 MLOAD PUSH32 0x8C379A000000000000000000000000000000000000000000000000000000000 DUP2 MSTORE PUSH1 0x4 ADD PUSH2 0x663 SWAP1 PUSH2 0x100C JUMP JUMPDEST PUSH1 0x40 MLOAD DUP1 SWAP2 SUB SWAP1 REVERT JUMPDEST PUSH1 0x0 PUSH1 0x40 MLOAD DUP1 PUSH1 0x40 ADD PUSH1 0x40 MSTORE DUP1 DUP6 DUP2 MSTORE PUSH1 0x20 ADD DUP5 DUP2 MSTORE POP SWAP1 POP DUP1 PUSH1 0x1 DUP7 DUP2 SLOAD DUP2 LT PUSH2 0x69A JUMPI PUSH2 0x699 PUSH2 0xF91 JUMP JUMPDEST JUMPDEST SWAP1 PUSH1 0x0 MSTORE PUSH1 0x20 PUSH1 0x0 KECCAK256 SWAP1 PUSH1 0x6 MUL ADD PUSH1 0x4 ADD PUSH1 0x0 DUP3 ADD MLOAD DUP2 PUSH1 0x0 ADD SSTORE PUSH1 0x20 DUP3 ADD MLOAD DUP2 PUSH1 0x1 ADD SSTORE SWAP1 POP POP POP POP POP POP POP JUMP JUMPDEST PUSH1 0x0 DUP1 SLOAD SWAP1 PUSH2 0x100 EXP SWAP1 DIV PUSH20 0xFFFFFFFFFFFFFFFFFFFFFFFFFFFFFFFFFFFFFFFF AND DUP2 JUMP JUMPDEST PUSH1 0x0 DUP1 REVERT JUMPDEST PUSH1 0x0 DUP1 REVERT JUMPDEST PUSH1 0x0 DUP2 SWAP1 POP SWAP2 SWAP1 POP JUMP JUMPDEST PUSH2 0x70A DUP2 PUSH2 0x6F7 JUMP JUMPDEST DUP2 EQ PUSH2 0x715 JUMPI PUSH1 0x0 DUP1 REVERT JUMPDEST POP JUMP JUMPDEST PUSH1 0x0 DUP2 CALLDATALOAD SWAP1 POP PUSH2 0x727 DUP2 PUSH2 0x701 JUMP JUMPDEST SWAP3 SWAP2 POP POP JUMP JUMPDEST PUSH1 0x0 PUSH1 0x20 DUP3 DUP5 SUB SLT ISZERO PUSH2 0x743 JUMPI PUSH2 0x742 PUSH2 0x6ED JUMP JUMPDEST JUMPDEST PUSH1 0x0 PUSH2 0x751 DUP5 DUP3 DUP6 ADD PUSH2 0x718 JUMP JUMPDEST SWAP2 POP POP SWAP3 SWAP2 POP POP JUMP JUMPDEST PUSH1 0x0 PUSH20 0xFFFFFFFFFFFFFFFFFFFFFFFFFFFFFFFFFFFFFFFF DUP3 AND SWAP1 POP SWAP2 SWAP1 POP JUMP JUMPDEST PUSH1 0x0 PUSH2 0x785 DUP3 PUSH2 0x75A JUMP JUMPDEST SWAP1 POP SWAP2 SWAP1 POP JUMP JUMPDEST PUSH2 0x795 DUP2 PUSH2 0x77A JUMP JUMPDEST DUP3 MSTORE POP POP JUMP JUMPDEST PUSH2 0x7A4 DUP2 PUSH2 0x6F7 JUMP JUMPDEST DUP3 MSTORE POP POP JUMP JUMPDEST PUSH32 0x4E487B7100000000000000000000000000000000000000000000000000000000 PUSH1 0x0 MSTORE PUSH1 0x21 PUSH1 0x4 MSTORE PUSH1 0x24 PUSH1 0x0 REVERT JUMPDEST PUSH1 0x4 DUP2 LT PUSH2 0x7EA JUMPI PUSH2 0x7E9 PUSH2 0x7AA JUMP JUMPDEST JUMPDEST POP JUMP JUMPDEST PUSH1 0x0 DUP2 SWAP1 POP PUSH2 0x7FB DUP3 PUSH2 0x7D9 JUMP JUMPDEST SWAP2 SWAP1 POP JUMP JUMPDEST PUSH1 0x0 PUSH2 0x80B DUP3 PUSH2 0x7ED JUMP JUMPDEST SWAP1 POP SWAP2 SWAP1 POP JUMP JUMPDEST PUSH2 0x81B DUP2 PUSH2 0x800 JUMP JUMPDEST DUP3 MSTORE POP POP JUMP JUMPDEST PUSH1 0x0 PUSH1 0x60 DUP3 ADD SWAP1 POP PUSH2 0x836 PUSH1 0x0 DUP4 ADD DUP7 PUSH2 0x78C JUMP JUMPDEST PUSH2 0x843 PUSH1 0x20 DUP4 ADD DUP6 PUSH2 0x79B JUMP JUMPDEST PUSH2 0x850 PUSH1 0x40 DUP4 ADD DUP5 PUSH2 0x812 JUMP JUMPDEST SWAP5 SWAP4 POP POP POP POP JUMP JUMPDEST PUSH2 0x861 DUP2 PUSH2 0x77A JUMP JUMPDEST DUP2 EQ PUSH2 0x86C JUMPI PUSH1 0x0 DUP1 REVERT JUMPDEST POP JUMP JUMPDEST PUSH1 0x0 DUP2 CALLDATALOAD SWAP1 POP PUSH2 0x87E DUP2 PUSH2 0x858 JUMP JUMPDEST SWAP3 SWAP2 POP POP JUMP JUMPDEST PUSH1 0x0 PUSH1 0x20 DUP3 DUP5 SUB SLT ISZERO PUSH2 0x89A JUMPI PUSH2 0x899 PUSH2 0x6ED JUMP JUMPDEST JUMPDEST PUSH1 0x0 PUSH2 0x8A8 DUP5 DUP3 DUP6 ADD PUSH2 0x86F JUMP JUMPDEST SWAP2 POP POP SWAP3 SWAP2 POP POP JUMP JUMPDEST PUSH1 0x0 PUSH1 0x60 DUP3 ADD SWAP1 POP PUSH2 0x8C6 PUSH1 0x0 DUP4 ADD DUP7 PUSH2 0x812 JUMP JUMPDEST PUSH2 0x8D3 PUSH1 0x20 DUP4 ADD DUP6 PUSH2 0x79B JUMP JUMPDEST PUSH2 0x8E0 PUSH1 0x40 DUP4 ADD DUP5 PUSH2 0x79B JUMP JUMPDEST SWAP5 SWAP4 POP POP POP POP JUMP JUMPDEST PUSH1 0x0 DUP2 MLOAD SWAP1 POP SWAP2 SWAP1 POP JUMP JUMPDEST PUSH1 0x0 DUP3 DUP3 MSTORE PUSH1 0x20 DUP3 ADD SWAP1 POP SWAP3 SWAP2 POP POP JUMP JUMPDEST PUSH1 0x0 JUMPDEST DUP4 DUP2 LT ISZERO PUSH2 0x922 JUMPI DUP1 DUP3 ADD MLOAD DUP2 DUP5 ADD MSTORE PUSH1 0x20 DUP2 ADD SWAP1 POP PUSH2 0x907 JUMP JUMPDEST PUSH1 0x0 DUP5 DUP5 ADD MSTORE POP POP POP POP JUMP JUMPDEST PUSH1 0x0 PUSH1 0x1F NOT PUSH1 0x1F DUP4 ADD AND SWAP1 POP SWAP2 SWAP1 POP JUMP JUMPDEST PUSH1 0x0 PUSH2 0x94A DUP3 PUSH2 0x8E8 JUMP JUMPDEST PUSH2 0x954 DUP2 DUP6 PUSH2 0x8F3 JUMP JUMPDEST SWAP4 POP PUSH2 0x964 DUP2 DUP6 PUSH1 0x20 DUP7 ADD PUSH2 0x904 JUMP JUMPDEST PUSH2 0x96D DUP2 PUSH2 0x92E JUMP JUMPDEST DUP5 ADD SWAP2 POP POP SWAP3 SWAP2 POP POP JUMP JUMPDEST PUSH2 0x981 DUP2 PUSH2 0x6F7 JUMP JUMPDEST DUP3 MSTORE POP POP JUMP JUMPDEST PUSH1 0x40 DUP3 ADD PUSH1 0x0 DUP3 ADD MLOAD PUSH2 0x99D PUSH1 0x0 DUP6 ADD DUP3 PUSH2 0x978 JUMP JUMPDEST POP PUSH1 0x20 DUP3 ADD MLOAD PUSH2 0x9B0 PUSH1 0x20 DUP6 ADD DUP3 PUSH2 0x978 JUMP JUMPDEST POP POP POP POP JUMP JUMPDEST PUSH1 0x0 PUSH1 0xC0 DUP3 ADD SWAP1 POP DUP2 DUP2 SUB PUSH1 0x0 DUP4 ADD MSTORE PUSH2 0x9D0 DUP2 DUP9 PUSH2 0x93F JUMP JUMPDEST SWAP1 POP DUP2 DUP2 SUB PUSH1 0x20 DUP4 ADD MSTORE PUSH2 0x9E4 DUP2 DUP8 PUSH2 0x93F JUMP JUMPDEST SWAP1 POP PUSH2 0x9F3 PUSH1 0x40 DUP4 ADD DUP7 PUSH2 0x79B JUMP JUMPDEST PUSH2 0xA00 PUSH1 0x60 DUP4 ADD DUP6 PUSH2 0x79B JUMP JUMPDEST PUSH2 0xA0D PUSH1 0x80 DUP4 ADD DUP5 PUSH2 0x987 JUMP JUMPDEST SWAP7 SWAP6 POP POP POP POP POP POP JUMP JUMPDEST PUSH1 0x0 DUP1 REVERT JUMPDEST PUSH1 0x0 DUP1 REVERT JUMPDEST PUSH1 0x0 DUP1 REVERT JUMPDEST PUSH1 0x0 DUP1 DUP4 PUSH1 0x1F DUP5 ADD SLT PUSH2 0xA3C JUMPI PUSH2 0xA3B PUSH2 0xA17 JUMP JUMPDEST JUMPDEST DUP3 CALLDATALOAD SWAP1 POP PUSH8 0xFFFFFFFFFFFFFFFF DUP2 GT ISZERO PUSH2 0xA59 JUMPI PUSH2 0xA58 PUSH2 0xA1C JUMP JUMPDEST JUMPDEST PUSH1 0x20 DUP4 ADD SWAP2 POP DUP4 PUSH1 0x1 DUP3 MUL DUP4 ADD GT ISZERO PUSH2 0xA75 JUMPI PUSH2 0xA74 PUSH2 0xA21 JUMP JUMPDEST JUMPDEST SWAP3 POP SWAP3 SWAP1 POP JUMP JUMPDEST PUSH1 0x0 DUP1 PUSH1 0x0 DUP1 PUSH1 0x0 PUSH1 0x60 DUP7 DUP9 SUB SLT ISZERO PUSH2 0xA98 JUMPI PUSH2 0xA97 PUSH2 0x6ED JUMP JUMPDEST JUMPDEST PUSH1 0x0 DUP7 ADD CALLDATALOAD PUSH8 0xFFFFFFFFFFFFFFFF DUP2 GT ISZERO PUSH2 0xAB6 JUMPI PUSH2 0xAB5 PUSH2 0x6F2 JUMP JUMPDEST JUMPDEST PUSH2 0xAC2 DUP9 DUP3 DUP10 ADD PUSH2 0xA26 JUMP JUMPDEST SWAP6 POP SWAP6 POP POP PUSH1 0x20 DUP7 ADD CALLDATALOAD PUSH8 0xFFFFFFFFFFFFFFFF DUP2 GT ISZERO PUSH2 0xAE5 JUMPI PUSH2 0xAE4 PUSH2 0x6F2 JUMP JUMPDEST JUMPDEST PUSH2 0xAF1 DUP9 DUP3 DUP10 ADD PUSH2 0xA26 JUMP JUMPDEST SWAP4 POP SWAP4 POP POP PUSH1 0x40 PUSH2 0xB04 DUP9 DUP3 DUP10 ADD PUSH2 0x718 JUMP JUMPDEST SWAP2 POP POP SWAP3 SWAP6 POP SWAP3 SWAP6 SWAP1 SWAP4 POP JUMP JUMPDEST PUSH1 0x0 DUP2 ISZERO ISZERO SWAP1 POP SWAP2 SWAP1 POP JUMP JUMPDEST PUSH2 0xB26 DUP2 PUSH2 0xB11 JUMP JUMPDEST DUP3 MSTORE POP POP JUMP JUMPDEST PUSH1 0x0 PUSH1 0x20 DUP3 ADD SWAP1 POP PUSH2 0xB41 PUSH1 0x0 DUP4 ADD DUP5 PUSH2 0xB1D JUMP JUMPDEST SWAP3 SWAP2 POP POP JUMP JUMPDEST PUSH1 0x0 DUP1 PUSH1 0x0 PUSH1 0x60 DUP5 DUP7 SUB SLT ISZERO PUSH2 0xB60 JUMPI PUSH2 0xB5F PUSH2 0x6ED JUMP JUMPDEST JUMPDEST PUSH1 0x0 PUSH2 0xB6E DUP7 DUP3 DUP8 ADD PUSH2 0x718 JUMP JUMPDEST SWAP4 POP POP PUSH1 0x20 PUSH2 0xB7F DUP7 DUP3 DUP8 ADD PUSH2 0x718 JUMP JUMPDEST SWAP3 POP POP PUSH1 0x40 PUSH2 0xB90 DUP7 DUP3 DUP8 ADD PUSH2 0x718 JUMP JUMPDEST SWAP2 POP POP SWAP3 POP SWAP3 POP SWAP3 JUMP JUMPDEST PUSH1 0x0 PUSH1 0x20 DUP3 ADD SWAP1 POP PUSH2 0xBAF PUSH1 0x0 DUP4 ADD DUP5 PUSH2 0x78C JUMP JUMPDEST SWAP3 SWAP2 POP POP JUMP JUMPDEST PUSH32 0x4E487B7100000000000000000000000000000000000000000000000000000000 PUSH1 0x0 MSTORE PUSH1 0x22 PUSH1 0x4 MSTORE PUSH1 0x24 PUSH1 0x0 REVERT JUMPDEST PUSH1 0x0 PUSH1 0x2 DUP3 DIV SWAP1 POP PUSH1 0x1 DUP3 AND DUP1 PUSH2 0xBFC JUMPI PUSH1 0x7F DUP3 AND SWAP2 POP JUMPDEST PUSH1 0x20 DUP3 LT DUP2 SUB PUSH2 0xC0F JUMPI PUSH2 0xC0E PUSH2 0xBB5 JUMP JUMPDEST JUMPDEST POP SWAP2 SWAP1 POP JUMP JUMPDEST PUSH32 0x4E6F74204F776E65720000000000000000000000000000000000000000000000 PUSH1 0x0 DUP3 ADD MSTORE POP JUMP JUMPDEST PUSH1 0x0 PUSH2 0xC4B PUSH1 0x9 DUP4 PUSH2 0x8F3 JUMP JUMPDEST SWAP2 POP PUSH2 0xC56 DUP3 PUSH2 0xC15 JUMP JUMPDEST PUSH1 0x20 DUP3 ADD SWAP1 POP SWAP2 SWAP1 POP JUMP JUMPDEST PUSH1 0x0 PUSH1 0x20 DUP3 ADD SWAP1 POP DUP2 DUP2 SUB PUSH1 0x0 DUP4 ADD MSTORE PUSH2 0xC7A DUP2 PUSH2 0xC3E JUMP JUMPDEST SWAP1 POP SWAP2 SWAP1 POP JUMP JUMPDEST PUSH32 0x4E487B7100000000000000000000000000000000000000000000000000000000 PUSH1 0x0 MSTORE PUSH1 0x11 PUSH1 0x4 MSTORE PUSH1 0x24 PUSH1 0x0 REVERT JUMPDEST PUSH1 0x0 PUSH2 0xCBB DUP3 PUSH2 0x6F7 JUMP JUMPDEST SWAP2 POP PUSH2 0xCC6 DUP4 PUSH2 0x6F7 JUMP JUMPDEST SWAP3 POP DUP3 DUP3 ADD SWAP1 POP DUP1 DUP3 GT ISZERO PUSH2 0xCDE JUMPI PUSH2 0xCDD PUSH2 0xC81 JUMP JUMPDEST JUMPDEST SWAP3 SWAP2 POP POP JUMP JUMPDEST PUSH32 0x4E487B7100000000000000000000000000000000000000000000000000000000 PUSH1 0x0 MSTORE PUSH1 0x41 PUSH1 0x4 MSTORE PUSH1 0x24 PUSH1 0x0 REVERT JUMPDEST PUSH1 0x0 DUP2 SWAP1 POP DUP2 PUSH1 0x0 MSTORE PUSH1 0x20 PUSH1 0x0 KECCAK256 SWAP1 POP SWAP2 SWAP1 POP JUMP JUMPDEST PUSH1 0x0 PUSH1 0x20 PUSH1 0x1F DUP4 ADD DIV SWAP1 POP SWAP2 SWAP1 POP JUMP JUMPDEST PUSH1 0x0 DUP3 DUP3 SHL SWAP1 POP SWAP3 SWAP2 POP POP JUMP JUMPDEST PUSH1 0x0 PUSH1 0x8 DUP4 MUL PUSH2 0xD75 PUSH32 0xFFFFFFFFFFFFFFFFFFFFFFFFFFFFFFFFFFFFFFFFFFFFFFFFFFFFFFFFFFFFFFFF DUP3 PUSH2 0xD38 JUMP JUMPDEST PUSH2 0xD7F DUP7 DUP4 PUSH2 0xD38 JUMP JUMPDEST SWAP6 POP DUP1 NOT DUP5 AND SWAP4 POP DUP1 DUP7 AND DUP5 OR SWAP3 POP POP POP SWAP4 SWAP3 POP POP POP JUMP JUMPDEST PUSH1 0x0 DUP2 SWAP1 POP SWAP2 SWAP1 POP JUMP JUMPDEST PUSH1 0x0 PUSH2 0xDBC PUSH2 0xDB7 PUSH2 0xDB2 DUP5 PUSH2 0x6F7 JUMP JUMPDEST PUSH2 0xD97 JUMP JUMPDEST PUSH2 0x6F7 JUMP JUMPDEST SWAP1 POP SWAP2 SWAP1 POP JUMP JUMPDEST PUSH1 0x0 DUP2 SWAP1 POP SWAP2 SWAP1 POP JUMP JUMPDEST PUSH2 0xDD6 DUP4 PUSH2 0xDA1 JUMP JUMPDEST PUSH2 0xDEA PUSH2 0xDE2 DUP3 PUSH2 0xDC3 JUMP JUMPDEST DUP5 DUP5 SLOAD PUSH2 0xD45 JUMP JUMPDEST DUP3 SSTORE POP POP POP POP JUMP JUMPDEST PUSH1 0x0 SWAP1 JUMP JUMPDEST PUSH2 0xDFF PUSH2 0xDF2 JUMP JUMPDEST PUSH2 0xE0A DUP2 DUP5 DUP5 PUSH2 0xDCD JUMP JUMPDEST POP POP POP JUMP JUMPDEST JUMPDEST DUP2 DUP2 LT ISZERO PUSH2 0xE2E JUMPI PUSH2 0xE23 PUSH1 0x0 DUP3 PUSH2 0xDF7 JUMP JUMPDEST PUSH1 0x1 DUP2 ADD SWAP1 POP PUSH2 0xE10 JUMP JUMPDEST POP POP JUMP JUMPDEST PUSH1 0x1F DUP3 GT ISZERO PUSH2 0xE73 JUMPI PUSH2 0xE44 DUP2 PUSH2 0xD13 JUMP JUMPDEST PUSH2 0xE4D DUP5 PUSH2 0xD28 JUMP JUMPDEST DUP2 ADD PUSH1 0x20 DUP6 LT ISZERO PUSH2 0xE5C JUMPI DUP2 SWAP1 POP JUMPDEST PUSH2 0xE70 PUSH2 0xE68 DUP6 PUSH2 0xD28 JUMP JUMPDEST DUP4 ADD DUP3 PUSH2 0xE0F JUMP JUMPDEST POP POP JUMPDEST POP POP POP JUMP JUMPDEST PUSH1 0x0 DUP3 DUP3 SHR SWAP1 POP SWAP3 SWAP2 POP POP JUMP JUMPDEST PUSH1 0x0 PUSH2 0xE96 PUSH1 0x0 NOT DUP5 PUSH1 0x8 MUL PUSH2 0xE78 JUMP JUMPDEST NOT DUP1 DUP4 AND SWAP2 POP POP SWAP3 SWAP2 POP POP JUMP JUMPDEST PUSH1 0x0 PUSH2 0xEAF DUP4 DUP4 PUSH2 0xE85 JUMP JUMPDEST SWAP2 POP DUP3 PUSH1 0x2 MUL DUP3 OR SWAP1 POP SWAP3 SWAP2 POP POP JUMP JUMPDEST PUSH2 0xEC8 DUP3 PUSH2 0x8E8 JUMP JUMPDEST PUSH8 0xFFFFFFFFFFFFFFFF DUP2 GT ISZERO PUSH2 0xEE1 JUMPI PUSH2 0xEE0 PUSH2 0xCE4 JUMP JUMPDEST JUMPDEST PUSH2 0xEEB DUP3 SLOAD PUSH2 0xBE4 JUMP JUMPDEST PUSH2 0xEF6 DUP3 DUP3 DUP6 PUSH2 0xE32 JUMP JUMPDEST PUSH1 0x0 PUSH1 0x20 SWAP1 POP PUSH1 0x1F DUP4 GT PUSH1 0x1 DUP2 EQ PUSH2 0xF29 JUMPI PUSH1 0x0 DUP5 ISZERO PUSH2 0xF17 JUMPI DUP3 DUP8 ADD MLOAD SWAP1 POP JUMPDEST PUSH2 0xF21 DUP6 DUP3 PUSH2 0xEA3 JUMP JUMPDEST DUP7 SSTORE POP PUSH2 0xF89 JUMP JUMPDEST PUSH1 0x1F NOT DUP5 AND PUSH2 0xF37 DUP7 PUSH2 0xD13 JUMP JUMPDEST PUSH1 0x0 JUMPDEST DUP3 DUP2 LT ISZERO PUSH2 0xF5F JUMPI DUP5 DUP10 ADD MLOAD DUP3 SSTORE PUSH1 0x1 DUP3 ADD SWAP2 POP PUSH1 0x20 DUP6 ADD SWAP5 POP PUSH1 0x20 DUP2 ADD SWAP1 POP PUSH2 0xF3A JUMP JUMPDEST DUP7 DUP4 LT ISZERO PUSH2 0xF7C JUMPI DUP5 DUP10 ADD MLOAD PUSH2 0xF78 PUSH1 0x1F DUP10 AND DUP3 PUSH2 0xE85 JUMP JUMPDEST DUP4 SSTORE POP JUMPDEST PUSH1 0x1 PUSH1 0x2 DUP9 MUL ADD DUP9 SSTORE POP POP POP JUMPDEST POP POP POP POP POP POP JUMP JUMPDEST PUSH32 0x4E487B7100000000000000000000000000000000000000000000000000000000 PUSH1 0x0 MSTORE PUSH1 0x32 PUSH1 0x4 MSTORE PUSH1 0x24 PUSH1 0x0 REVERT JUMPDEST PUSH32 0x4D61746368206973207374696C6C206F6E000000000000000000000000000000 PUSH1 0x0 DUP3 ADD MSTORE POP JUMP JUMPDEST PUSH1 0x0 PUSH2 0xFF6 PUSH1 0x11 DUP4 PUSH2 0x8F3 JUMP JUMPDEST SWAP2 POP PUSH2 0x1001 DUP3 PUSH2 0xFC0 JUMP JUMPDEST PUSH1 0x20 DUP3 ADD SWAP1 POP SWAP2 SWAP1 POP JUMP JUMPDEST PUSH1 0x0 PUSH1 0x20 DUP3 ADD SWAP1 POP DUP2 DUP2 SUB PUSH1 0x0 DUP4 ADD MSTORE PUSH2 0x1025 DUP2 PUSH2 0xFE9 JUMP JUMPDEST SWAP1 POP SWAP2 SWAP1 POP JUMP INVALID LOG2 PUSH5 0x6970667358 0x22 SLT KECCAK256 DUP12 0x24 SWAP8 0xC0 0xD8 SLT SLOAD 0xB0 0xC PUSH25 0xDDD7F58D462C5763A11F2415B1324361685987245F7B64736F PUSH13 0x63430008110033000000000000 "
				},
				"gasEstimates": {
					"creation": {
						"codeDepositCost": "838800",
						"executionCost": "25143",
						"totalCost": "863943"
					},
					"external": {
						"admin()": "2599",
						"allMatch(uint256)": "infinite",
						"closeMatch(uint256,uint256,uint256)": "infinite",
						"instantiateMatch(string,string,uint256)": "infinite",
						"specificMatchBets(uint256)": "infinite",
						"userBet(address)": "infinite"
					}
				},
				"methodIdentifiers": {
					"admin()": "f851a440",
					"allMatch(uint256)": "b2edb39f",
					"closeMatch(uint256,uint256,uint256)": "ec7361a8",
					"instantiateMatch(string,string,uint256)": "bc9e6e2c",
					"specificMatchBets(uint256)": "15a3ae71",
					"userBet(address)": "67ad4ec2"
				}
			},
			"storageLayout": {
				"storage": [
					{
						"astId": 3,
						"contract": "contracts/betting.sol:DistanceFiBET",
						"label": "admin",
						"offset": 0,
						"slot": "0",
						"type": "t_address"
					},
					{
						"astId": 24,
						"contract": "contracts/betting.sol:DistanceFiBET",
						"label": "allMatch",
						"offset": 0,
						"slot": "1",
						"type": "t_array(t_struct(Match)20_storage)dyn_storage"
					},
					{
						"astId": 42,
						"contract": "contracts/betting.sol:DistanceFiBET",
						"label": "userBet",
						"offset": 0,
						"slot": "2",
						"type": "t_mapping(t_address,t_struct(Bettor)37_storage)"
					},
					{
						"astId": 55,
						"contract": "contracts/betting.sol:DistanceFiBET",
						"label": "specificMatchBets",
						"offset": 0,
						"slot": "3",
						"type": "t_mapping(t_uint256,t_struct(allBets)50_storage)"
					}
				],
				"types": {
					"t_address": {
						"encoding": "inplace",
						"label": "address",
						"numberOfBytes": "20"
					},
					"t_array(t_struct(Match)20_storage)dyn_storage": {
						"base": "t_struct(Match)20_storage",
						"encoding": "dynamic_array",
						"label": "struct DistanceFiBET.Match[]",
						"numberOfBytes": "32"
					},
					"t_enum(Choices)29": {
						"encoding": "inplace",
						"label": "enum DistanceFiBET.Choices",
						"numberOfBytes": "1"
					},
					"t_mapping(t_address,t_struct(Bettor)37_storage)": {
						"encoding": "mapping",
						"key": "t_address",
						"label": "mapping(address => struct DistanceFiBET.Bettor)",
						"numberOfBytes": "32",
						"value": "t_struct(Bettor)37_storage"
					},
					"t_mapping(t_uint256,t_struct(allBets)50_storage)": {
						"encoding": "mapping",
						"key": "t_uint256",
						"label": "mapping(uint256 => struct DistanceFiBET.allBets)",
						"numberOfBytes": "32",
						"value": "t_struct(allBets)50_storage"
					},
					"t_string_storage": {
						"encoding": "bytes",
						"label": "string",
						"numberOfBytes": "32"
					},
					"t_struct(Bettor)37_storage": {
						"encoding": "inplace",
						"label": "struct DistanceFiBET.Bettor",
						"members": [
							{
								"astId": 32,
								"contract": "contracts/betting.sol:DistanceFiBET",
								"label": "bet",
								"offset": 0,
								"slot": "0",
								"type": "t_enum(Choices)29"
							},
							{
								"astId": 34,
								"contract": "contracts/betting.sol:DistanceFiBET",
								"label": "winAmounts",
								"offset": 0,
								"slot": "1",
								"type": "t_uint256"
							},
							{
								"astId": 36,
								"contract": "contracts/betting.sol:DistanceFiBET",
								"label": "betAmount",
								"offset": 0,
								"slot": "2",
								"type": "t_uint256"
							}
						],
						"numberOfBytes": "96"
					},
					"t_struct(Match)20_storage": {
						"encoding": "inplace",
						"label": "struct DistanceFiBET.Match",
						"members": [
							{
								"astId": 10,
								"contract": "contracts/betting.sol:DistanceFiBET",
								"label": "HomeTeam",
								"offset": 0,
								"slot": "0",
								"type": "t_string_storage"
							},
							{
								"astId": 12,
								"contract": "contracts/betting.sol:DistanceFiBET",
								"label": "AwayTeam",
								"offset": 0,
								"slot": "1",
								"type": "t_string_storage"
							},
							{
								"astId": 14,
								"contract": "contracts/betting.sol:DistanceFiBET",
								"label": "startTime",
								"offset": 0,
								"slot": "2",
								"type": "t_uint256"
							},
							{
								"astId": 16,
								"contract": "contracts/betting.sol:DistanceFiBET",
								"label": "endTime",
								"offset": 0,
								"slot": "3",
								"type": "t_uint256"
							},
							{
								"astId": 19,
								"contract": "contracts/betting.sol:DistanceFiBET",
								"label": "results",
								"offset": 0,
								"slot": "4",
								"type": "t_struct(Results)8_storage"
							}
						],
						"numberOfBytes": "192"
					},
					"t_struct(Results)8_storage": {
						"encoding": "inplace",
						"label": "struct DistanceFiBET.Results",
						"members": [
							{
								"astId": 5,
								"contract": "contracts/betting.sol:DistanceFiBET",
								"label": "Home_score",
								"offset": 0,
								"slot": "0",
								"type": "t_uint256"
							},
							{
								"astId": 7,
								"contract": "contracts/betting.sol:DistanceFiBET",
								"label": "Away_score",
								"offset": 0,
								"slot": "1",
								"type": "t_uint256"
							}
						],
						"numberOfBytes": "64"
					},
					"t_struct(allBets)50_storage": {
						"encoding": "inplace",
						"label": "struct DistanceFiBET.allBets",
						"members": [
							{
								"astId": 44,
								"contract": "contracts/betting.sol:DistanceFiBET",
								"label": "bettor",
								"offset": 0,
								"slot": "0",
								"type": "t_address"
							},
							{
								"astId": 46,
								"contract": "contracts/betting.sol:DistanceFiBET",
								"label": "amount",
								"offset": 0,
								"slot": "1",
								"type": "t_uint256"
							},
							{
								"astId": 49,
								"contract": "contracts/betting.sol:DistanceFiBET",
								"label": "choice",
								"offset": 0,
								"slot": "2",
								"type": "t_enum(Choices)29"
							}
						],
						"numberOfBytes": "96"
					},
					"t_uint256": {
						"encoding": "inplace",
						"label": "uint256",
						"numberOfBytes": "32"
					}
				}
			},
			"userdoc": {
				"kind": "user",
				"methods": {},
				"version": 1
			}
		}
	}
}