{
	"contracts/ico.sol": {
		"Amestarter": {
			"abi": [
				{
					"inputs": [
						{
							"internalType": "uint256",
							"name": "_tokenPrice",
							"type": "uint256"
						},
						{
							"internalType": "address",
							"name": "_IUSDT",
							"type": "address"
						},
						{
							"internalType": "address",
							"name": "_IDAZ",
							"type": "address"
						},
						{
							"internalType": "uint256",
							"name": "_targetSale",
							"type": "uint256"
						}
					],
					"stateMutability": "nonpayable",
					"type": "constructor"
				},
				{
					"anonymous": false,
					"inputs": [
						{
							"indexed": false,
							"internalType": "string",
							"name": "icoAlert",
							"type": "string"
						}
					],
					"name": "ICOStartAlert",
					"type": "event"
				},
				{
					"anonymous": false,
					"inputs": [
						{
							"indexed": false,
							"internalType": "uint256",
							"name": "newTokenprice",
							"type": "uint256"
						},
						{
							"indexed": false,
							"internalType": "uint256",
							"name": "target",
							"type": "uint256"
						}
					],
					"name": "icoUpdate",
					"type": "event"
				},
				{
					"anonymous": false,
					"inputs": [
						{
							"indexed": true,
							"internalType": "address",
							"name": "buyer",
							"type": "address"
						},
						{
							"indexed": false,
							"internalType": "uint256",
							"name": "amount",
							"type": "uint256"
						}
					],
					"name": "latestPurchased",
					"type": "event"
				},
				{
					"inputs": [],
					"name": "BeginIDO",
					"outputs": [],
					"stateMutability": "nonpayable",
					"type": "function"
				},
				{
					"inputs": [],
					"name": "DAZ",
					"outputs": [
						{
							"internalType": "address",
							"name": "",
							"type": "address"
						}
					],
					"stateMutability": "view",
					"type": "function"
				},
				{
					"inputs": [],
					"name": "StopIDO",
					"outputs": [],
					"stateMutability": "nonpayable",
					"type": "function"
				},
				{
					"inputs": [],
					"name": "USDT",
					"outputs": [
						{
							"internalType": "address",
							"name": "",
							"type": "address"
						}
					],
					"stateMutability": "view",
					"type": "function"
				},
				{
					"inputs": [
						{
							"internalType": "uint256",
							"name": "_tokenPrice",
							"type": "uint256"
						},
						{
							"internalType": "uint256",
							"name": "_targetSale",
							"type": "uint256"
						}
					],
					"name": "editIco",
					"outputs": [],
					"stateMutability": "nonpayable",
					"type": "function"
				},
				{
					"inputs": [
						{
							"internalType": "uint256",
							"name": "_amount",
							"type": "uint256"
						}
					],
					"name": "purchaseToken",
					"outputs": [],
					"stateMutability": "nonpayable",
					"type": "function"
				},
				{
					"inputs": [],
					"name": "tokenPrice",
					"outputs": [
						{
							"internalType": "uint256",
							"name": "",
							"type": "uint256"
						}
					],
					"stateMutability": "view",
					"type": "function"
				}
			],
			"devdoc": {
				"kind": "dev",
				"methods": {},
				"version": 1
			},
			"evm": {
				"assembly": "    /* \"contracts/ico.sol\":1245:3176  contract Amestarter is ReentrancyGuard {... */\n  mstore(0x40, 0xc0)\n    /* \"contracts/ico.sol\":1857:2098  constructor(uint _tokenPrice, address _IUSDT, address _IDAZ, uint256 _targetSale){... */\n  callvalue\n  dup1\n  iszero\n  tag_1\n  jumpi\n  0x00\n  dup1\n  revert\ntag_1:\n  pop\n  mload(0x40)\n  sub(codesize, bytecodeSize)\n  dup1\n  bytecodeSize\n  dup4\n  codecopy\n  dup2\n  dup2\n  add\n  0x40\n  mstore\n  dup2\n  add\n  swap1\n  tag_2\n  swap2\n  swap1\n  tag_3\n  jump\t// in\ntag_2:\n    /* \"@openzeppelin/contracts/security/ReentrancyGuard.sol\":1701:1702  1 */\n  0x01\n    /* \"@openzeppelin/contracts/security/ReentrancyGuard.sol\":1806:1813  _status */\n  0x00\n    /* \"@openzeppelin/contracts/security/ReentrancyGuard.sol\":1806:1828  _status = _NOT_ENTERED */\n  dup2\n  swap1\n  sstore\n  pop\n    /* \"contracts/ico.sol\":1957:1967  msg.sender */\n  caller\n    /* \"contracts/ico.sol\":1949:1954  owner */\n  0x02\n  0x00\n    /* \"contracts/ico.sol\":1949:1967  owner = msg.sender */\n  0x0100\n  exp\n  dup2\n  sload\n  dup2\n  0xffffffffffffffffffffffffffffffffffffffff\n  mul\n  not\n  and\n  swap1\n  dup4\n  0xffffffffffffffffffffffffffffffffffffffff\n  and\n  mul\n  or\n  swap1\n  sstore\n  pop\n    /* \"contracts/ico.sol\":2005:2007  10 */\n  0x0a\n    /* \"contracts/ico.sol\":1991:2002  _tokenPrice */\n  dup5\n    /* \"contracts/ico.sol\":1991:2007  _tokenPrice * 10 */\n  tag_8\n  swap2\n  swap1\n  tag_9\n  jump\t// in\ntag_8:\n    /* \"contracts/ico.sol\":1978:1988  tokenPrice */\n  0x01\n    /* \"contracts/ico.sol\":1978:2007  tokenPrice = _tokenPrice * 10 */\n  dup2\n  swap1\n  sstore\n  pop\n    /* \"contracts/ico.sol\":2026:2032  _IUSDT */\n  dup3\n    /* \"contracts/ico.sol\":2019:2032  USDT = _IUSDT */\n  0xffffffffffffffffffffffffffffffffffffffff\n  and\n  0x80\n  dup2\n  0xffffffffffffffffffffffffffffffffffffffff\n  and\n  dup2\n  mstore\n  pop\n  pop\n    /* \"contracts/ico.sol\":2050:2055  _IDAZ */\n  dup2\n    /* \"contracts/ico.sol\":2043:2055  DAZ =  _IDAZ */\n  0xffffffffffffffffffffffffffffffffffffffff\n  and\n  0xa0\n  dup2\n  0xffffffffffffffffffffffffffffffffffffffff\n  and\n  dup2\n  mstore\n  pop\n  pop\n    /* \"contracts/ico.sol\":2079:2090  _targetSale */\n  dup1\n    /* \"contracts/ico.sol\":2066:2076  targetSale */\n  0x03\n    /* \"contracts/ico.sol\":2066:2090  targetSale = _targetSale */\n  dup2\n  swap1\n  sstore\n  pop\n    /* \"contracts/ico.sol\":1857:2098  constructor(uint _tokenPrice, address _IUSDT, address _IDAZ, uint256 _targetSale){... */\n  pop\n  pop\n  pop\n  pop\n    /* \"contracts/ico.sol\":1245:3176  contract Amestarter is ReentrancyGuard {... */\n  jump(tag_10)\n    /* \"#utility.yul\":88:205   */\ntag_12:\n    /* \"#utility.yul\":197:198   */\n  0x00\n    /* \"#utility.yul\":194:195   */\n  dup1\n    /* \"#utility.yul\":187:199   */\n  revert\n    /* \"#utility.yul\":334:411   */\ntag_14:\n    /* \"#utility.yul\":371:378   */\n  0x00\n    /* \"#utility.yul\":400:405   */\n  dup2\n    /* \"#utility.yul\":389:405   */\n  swap1\n  pop\n    /* \"#utility.yul\":334:411   */\n  swap2\n  swap1\n  pop\n  jump\t// out\n    /* \"#utility.yul\":417:539   */\ntag_15:\n    /* \"#utility.yul\":490:514   */\n  tag_28\n    /* \"#utility.yul\":508:513   */\n  dup2\n    /* \"#utility.yul\":490:514   */\n  tag_14\n  jump\t// in\ntag_28:\n    /* \"#utility.yul\":483:488   */\n  dup2\n    /* \"#utility.yul\":480:515   */\n  eq\n    /* \"#utility.yul\":470:533   */\n  tag_29\n  jumpi\n    /* \"#utility.yul\":529:530   */\n  0x00\n    /* \"#utility.yul\":526:527   */\n  dup1\n    /* \"#utility.yul\":519:531   */\n  revert\n    /* \"#utility.yul\":470:533   */\ntag_29:\n    /* \"#utility.yul\":417:539   */\n  pop\n  jump\t// out\n    /* \"#utility.yul\":545:688   */\ntag_16:\n    /* \"#utility.yul\":602:607   */\n  0x00\n    /* \"#utility.yul\":633:639   */\n  dup2\n    /* \"#utility.yul\":627:640   */\n  mload\n    /* \"#utility.yul\":618:640   */\n  swap1\n  pop\n    /* \"#utility.yul\":649:682   */\n  tag_31\n    /* \"#utility.yul\":676:681   */\n  dup2\n    /* \"#utility.yul\":649:682   */\n  tag_15\n  jump\t// in\ntag_31:\n    /* \"#utility.yul\":545:688   */\n  swap3\n  swap2\n  pop\n  pop\n  jump\t// out\n    /* \"#utility.yul\":694:820   */\ntag_17:\n    /* \"#utility.yul\":731:738   */\n  0x00\n    /* \"#utility.yul\":771:813   */\n  0xffffffffffffffffffffffffffffffffffffffff\n    /* \"#utility.yul\":764:769   */\n  dup3\n    /* \"#utility.yul\":760:814   */\n  and\n    /* \"#utility.yul\":749:814   */\n  swap1\n  pop\n    /* \"#utility.yul\":694:820   */\n  swap2\n  swap1\n  pop\n  jump\t// out\n    /* \"#utility.yul\":826:922   */\ntag_18:\n    /* \"#utility.yul\":863:870   */\n  0x00\n    /* \"#utility.yul\":892:916   */\n  tag_34\n    /* \"#utility.yul\":910:915   */\n  dup3\n    /* \"#utility.yul\":892:916   */\n  tag_17\n  jump\t// in\ntag_34:\n    /* \"#utility.yul\":881:916   */\n  swap1\n  pop\n    /* \"#utility.yul\":826:922   */\n  swap2\n  swap1\n  pop\n  jump\t// out\n    /* \"#utility.yul\":928:1050   */\ntag_19:\n    /* \"#utility.yul\":1001:1025   */\n  tag_36\n    /* \"#utility.yul\":1019:1024   */\n  dup2\n    /* \"#utility.yul\":1001:1025   */\n  tag_18\n  jump\t// in\ntag_36:\n    /* \"#utility.yul\":994:999   */\n  dup2\n    /* \"#utility.yul\":991:1026   */\n  eq\n    /* \"#utility.yul\":981:1044   */\n  tag_37\n  jumpi\n    /* \"#utility.yul\":1040:1041   */\n  0x00\n    /* \"#utility.yul\":1037:1038   */\n  dup1\n    /* \"#utility.yul\":1030:1042   */\n  revert\n    /* \"#utility.yul\":981:1044   */\ntag_37:\n    /* \"#utility.yul\":928:1050   */\n  pop\n  jump\t// out\n    /* \"#utility.yul\":1056:1199   */\ntag_20:\n    /* \"#utility.yul\":1113:1118   */\n  0x00\n    /* \"#utility.yul\":1144:1150   */\n  dup2\n    /* \"#utility.yul\":1138:1151   */\n  mload\n    /* \"#utility.yul\":1129:1151   */\n  swap1\n  pop\n    /* \"#utility.yul\":1160:1193   */\n  tag_39\n    /* \"#utility.yul\":1187:1192   */\n  dup2\n    /* \"#utility.yul\":1160:1193   */\n  tag_19\n  jump\t// in\ntag_39:\n    /* \"#utility.yul\":1056:1199   */\n  swap3\n  swap2\n  pop\n  pop\n  jump\t// out\n    /* \"#utility.yul\":1205:2025   */\ntag_3:\n    /* \"#utility.yul\":1302:1308   */\n  0x00\n    /* \"#utility.yul\":1310:1316   */\n  dup1\n    /* \"#utility.yul\":1318:1324   */\n  0x00\n    /* \"#utility.yul\":1326:1332   */\n  dup1\n    /* \"#utility.yul\":1375:1378   */\n  0x80\n    /* \"#utility.yul\":1363:1372   */\n  dup6\n    /* \"#utility.yul\":1354:1361   */\n  dup8\n    /* \"#utility.yul\":1350:1373   */\n  sub\n    /* \"#utility.yul\":1346:1379   */\n  slt\n    /* \"#utility.yul\":1343:1463   */\n  iszero\n  tag_41\n  jumpi\n    /* \"#utility.yul\":1382:1461   */\n  tag_42\n  tag_12\n  jump\t// in\ntag_42:\n    /* \"#utility.yul\":1343:1463   */\ntag_41:\n    /* \"#utility.yul\":1502:1503   */\n  0x00\n    /* \"#utility.yul\":1527:1591   */\n  tag_43\n    /* \"#utility.yul\":1583:1590   */\n  dup8\n    /* \"#utility.yul\":1574:1580   */\n  dup3\n    /* \"#utility.yul\":1563:1572   */\n  dup9\n    /* \"#utility.yul\":1559:1581   */\n  add\n    /* \"#utility.yul\":1527:1591   */\n  tag_16\n  jump\t// in\ntag_43:\n    /* \"#utility.yul\":1517:1591   */\n  swap5\n  pop\n    /* \"#utility.yul\":1473:1601   */\n  pop\n    /* \"#utility.yul\":1640:1642   */\n  0x20\n    /* \"#utility.yul\":1666:1730   */\n  tag_44\n    /* \"#utility.yul\":1722:1729   */\n  dup8\n    /* \"#utility.yul\":1713:1719   */\n  dup3\n    /* \"#utility.yul\":1702:1711   */\n  dup9\n    /* \"#utility.yul\":1698:1720   */\n  add\n    /* \"#utility.yul\":1666:1730   */\n  tag_20\n  jump\t// in\ntag_44:\n    /* \"#utility.yul\":1656:1730   */\n  swap4\n  pop\n    /* \"#utility.yul\":1611:1740   */\n  pop\n    /* \"#utility.yul\":1779:1781   */\n  0x40\n    /* \"#utility.yul\":1805:1869   */\n  tag_45\n    /* \"#utility.yul\":1861:1868   */\n  dup8\n    /* \"#utility.yul\":1852:1858   */\n  dup3\n    /* \"#utility.yul\":1841:1850   */\n  dup9\n    /* \"#utility.yul\":1837:1859   */\n  add\n    /* \"#utility.yul\":1805:1869   */\n  tag_20\n  jump\t// in\ntag_45:\n    /* \"#utility.yul\":1795:1869   */\n  swap3\n  pop\n    /* \"#utility.yul\":1750:1879   */\n  pop\n    /* \"#utility.yul\":1918:1920   */\n  0x60\n    /* \"#utility.yul\":1944:2008   */\n  tag_46\n    /* \"#utility.yul\":2000:2007   */\n  dup8\n    /* \"#utility.yul\":1991:1997   */\n  dup3\n    /* \"#utility.yul\":1980:1989   */\n  dup9\n    /* \"#utility.yul\":1976:1998   */\n  add\n    /* \"#utility.yul\":1944:2008   */\n  tag_16\n  jump\t// in\ntag_46:\n    /* \"#utility.yul\":1934:2008   */\n  swap2\n  pop\n    /* \"#utility.yul\":1889:2018   */\n  pop\n    /* \"#utility.yul\":1205:2025   */\n  swap3\n  swap6\n  swap2\n  swap5\n  pop\n  swap3\n  pop\n  jump\t// out\n    /* \"#utility.yul\":2031:2211   */\ntag_21:\n    /* \"#utility.yul\":2079:2156   */\n  0x4e487b7100000000000000000000000000000000000000000000000000000000\n    /* \"#utility.yul\":2076:2077   */\n  0x00\n    /* \"#utility.yul\":2069:2157   */\n  mstore\n    /* \"#utility.yul\":2176:2180   */\n  0x11\n    /* \"#utility.yul\":2173:2174   */\n  0x04\n    /* \"#utility.yul\":2166:2181   */\n  mstore\n    /* \"#utility.yul\":2200:2204   */\n  0x24\n    /* \"#utility.yul\":2197:2198   */\n  0x00\n    /* \"#utility.yul\":2190:2205   */\n  revert\n    /* \"#utility.yul\":2217:2565   */\ntag_9:\n    /* \"#utility.yul\":2257:2264   */\n  0x00\n    /* \"#utility.yul\":2280:2300   */\n  tag_49\n    /* \"#utility.yul\":2298:2299   */\n  dup3\n    /* \"#utility.yul\":2280:2300   */\n  tag_14\n  jump\t// in\ntag_49:\n    /* \"#utility.yul\":2275:2300   */\n  swap2\n  pop\n    /* \"#utility.yul\":2314:2334   */\n  tag_50\n    /* \"#utility.yul\":2332:2333   */\n  dup4\n    /* \"#utility.yul\":2314:2334   */\n  tag_14\n  jump\t// in\ntag_50:\n    /* \"#utility.yul\":2309:2334   */\n  swap3\n  pop\n    /* \"#utility.yul\":2502:2503   */\n  dup2\n    /* \"#utility.yul\":2434:2500   */\n  0xffffffffffffffffffffffffffffffffffffffffffffffffffffffffffffffff\n    /* \"#utility.yul\":2430:2504   */\n  div\n    /* \"#utility.yul\":2427:2428   */\n  dup4\n    /* \"#utility.yul\":2424:2505   */\n  gt\n    /* \"#utility.yul\":2419:2420   */\n  dup3\n    /* \"#utility.yul\":2412:2421   */\n  iszero\n    /* \"#utility.yul\":2405:2422   */\n  iszero\n    /* \"#utility.yul\":2401:2506   */\n  and\n    /* \"#utility.yul\":2398:2529   */\n  iszero\n  tag_51\n  jumpi\n    /* \"#utility.yul\":2509:2527   */\n  tag_52\n  tag_21\n  jump\t// in\ntag_52:\n    /* \"#utility.yul\":2398:2529   */\ntag_51:\n    /* \"#utility.yul\":2557:2558   */\n  dup3\n    /* \"#utility.yul\":2554:2555   */\n  dup3\n    /* \"#utility.yul\":2550:2559   */\n  mul\n    /* \"#utility.yul\":2539:2559   */\n  swap1\n  pop\n    /* \"#utility.yul\":2217:2565   */\n  swap3\n  swap2\n  pop\n  pop\n  jump\t// out\n    /* \"contracts/ico.sol\":1245:3176  contract Amestarter is ReentrancyGuard {... */\ntag_10:\n  mload(0x80)\n  mload(0xa0)\n  codecopy(0x00, dataOffset(sub_0), dataSize(sub_0))\n  0x00\n  assignImmutable(\"0xb2defa75886dc68fff8e07e15f8c710632f536eafc1958aaf9db286a05b10ca2\")\n  0x00\n  assignImmutable(\"0xc8a6f112e7620748ca3ae6a49a58464897133c24b6f43e9fa71155cd2626380a\")\n  return(0x00, dataSize(sub_0))\nstop\n\nsub_0: assembly {\n        /* \"contracts/ico.sol\":1245:3176  contract Amestarter is ReentrancyGuard {... */\n      mstore(0x40, 0x80)\n      callvalue\n      dup1\n      iszero\n      tag_1\n      jumpi\n      0x00\n      dup1\n      revert\n    tag_1:\n      pop\n      jumpi(tag_2, lt(calldatasize, 0x04))\n      shr(0xe0, calldataload(0x00))\n      dup1\n      0xc2db2c42\n      gt\n      tag_10\n      jumpi\n      dup1\n      0xc2db2c42\n      eq\n      tag_6\n      jumpi\n      dup1\n      0xc3a17441\n      eq\n      tag_7\n      jumpi\n      dup1\n      0xc54e44eb\n      eq\n      tag_8\n      jumpi\n      dup1\n      0xdc55920f\n      eq\n      tag_9\n      jumpi\n      jump(tag_2)\n    tag_10:\n      dup1\n      0x6385f2fb\n      eq\n      tag_3\n      jumpi\n      dup1\n      0x76d812ea\n      eq\n      tag_4\n      jumpi\n      dup1\n      0x7ff9b596\n      eq\n      tag_5\n      jumpi\n    tag_2:\n      0x00\n      dup1\n      revert\n        /* \"contracts/ico.sol\":1368:1396  address public immutable DAZ */\n    tag_3:\n      tag_11\n      tag_12\n      jump\t// in\n    tag_11:\n      mload(0x40)\n      tag_13\n      swap2\n      swap1\n      tag_14\n      jump\t// in\n    tag_13:\n      mload(0x40)\n      dup1\n      swap2\n      sub\n      swap1\n      return\n        /* \"contracts/ico.sol\":3015:3165  function StopIDO() public {... */\n    tag_4:\n      tag_15\n      tag_16\n      jump\t// in\n    tag_15:\n      stop\n        /* \"contracts/ico.sol\":1403:1425  uint public tokenPrice */\n    tag_5:\n      tag_17\n      tag_18\n      jump\t// in\n    tag_17:\n      mload(0x40)\n      tag_19\n      swap2\n      swap1\n      tag_20\n      jump\t// in\n    tag_19:\n      mload(0x40)\n      dup1\n      swap2\n      sub\n      swap1\n      return\n        /* \"contracts/ico.sol\":2106:2608  function purchaseToken(uint _amount) external nonReentrant{... */\n    tag_6:\n      tag_21\n      0x04\n      dup1\n      calldatasize\n      sub\n      dup2\n      add\n      swap1\n      tag_22\n      swap2\n      swap1\n      tag_23\n      jump\t// in\n    tag_22:\n      tag_24\n      jump\t// in\n    tag_21:\n      stop\n        /* \"contracts/ico.sol\":2616:2853  function editIco(uint _tokenPrice, uint256 _targetSale) public{... */\n    tag_7:\n      tag_25\n      0x04\n      dup1\n      calldatasize\n      sub\n      dup2\n      add\n      swap1\n      tag_26\n      swap2\n      swap1\n      tag_27\n      jump\t// in\n    tag_26:\n      tag_28\n      jump\t// in\n    tag_25:\n      stop\n        /* \"contracts/ico.sol\":1332:1361  address public immutable USDT */\n    tag_8:\n      tag_29\n      tag_30\n      jump\t// in\n    tag_29:\n      mload(0x40)\n      tag_31\n      swap2\n      swap1\n      tag_14\n      jump\t// in\n    tag_31:\n      mload(0x40)\n      dup1\n      swap2\n      sub\n      swap1\n      return\n        /* \"contracts/ico.sol\":2861:3007  function BeginIDO() public {... */\n    tag_9:\n      tag_32\n      tag_33\n      jump\t// in\n    tag_32:\n      stop\n        /* \"contracts/ico.sol\":1368:1396  address public immutable DAZ */\n    tag_12:\n      immutable(\"0xb2defa75886dc68fff8e07e15f8c710632f536eafc1958aaf9db286a05b10ca2\")\n      dup2\n      jump\t// out\n        /* \"contracts/ico.sol\":3015:3165  function StopIDO() public {... */\n    tag_16:\n        /* \"contracts/ico.sol\":3074:3079  owner */\n      0x02\n      0x00\n      swap1\n      sload\n      swap1\n      0x0100\n      exp\n      swap1\n      div\n      0xffffffffffffffffffffffffffffffffffffffff\n      and\n        /* \"contracts/ico.sol\":3060:3079  msg.sender == owner */\n      0xffffffffffffffffffffffffffffffffffffffff\n      and\n        /* \"contracts/ico.sol\":3060:3070  msg.sender */\n      caller\n        /* \"contracts/ico.sol\":3060:3079  msg.sender == owner */\n      0xffffffffffffffffffffffffffffffffffffffff\n      and\n      eq\n        /* \"contracts/ico.sol\":3052:3080  require(msg.sender == owner) */\n      tag_35\n      jumpi\n      0x00\n      dup1\n      revert\n    tag_35:\n        /* \"contracts/ico.sol\":3106:3111  false */\n      0x00\n        /* \"contracts/ico.sol\":3093:3103  IDOStarted */\n      0x02\n      0x14\n        /* \"contracts/ico.sol\":3093:3111  IDOStarted = false */\n      0x0100\n      exp\n      dup2\n      sload\n      dup2\n      0xff\n      mul\n      not\n      and\n      swap1\n      dup4\n      iszero\n      iszero\n      mul\n      or\n      swap1\n      sstore\n      pop\n        /* \"contracts/ico.sol\":3127:3157  ICOStartAlert(\"ICO is paused\") */\n      0x71002079ab3de7feb03ee30c84baf1d2350d4ffe16709d3dacb5e1037a0fe1cc\n      mload(0x40)\n      tag_36\n      swap1\n      tag_37\n      jump\t// in\n    tag_36:\n      mload(0x40)\n      dup1\n      swap2\n      sub\n      swap1\n      log1\n        /* \"contracts/ico.sol\":3015:3165  function StopIDO() public {... */\n      jump\t// out\n        /* \"contracts/ico.sol\":1403:1425  uint public tokenPrice */\n    tag_18:\n      sload(0x01)\n      dup2\n      jump\t// out\n        /* \"contracts/ico.sol\":2106:2608  function purchaseToken(uint _amount) external nonReentrant{... */\n    tag_24:\n        /* \"@openzeppelin/contracts/security/ReentrancyGuard.sol\":1744:1745  2 */\n      0x02\n        /* \"@openzeppelin/contracts/security/ReentrancyGuard.sol\":2325:2332  _status */\n      sload(0x00)\n        /* \"@openzeppelin/contracts/security/ReentrancyGuard.sol\":2325:2344  _status != _ENTERED */\n      sub\n        /* \"@openzeppelin/contracts/security/ReentrancyGuard.sol\":2317:2380  require(_status != _ENTERED, \"ReentrancyGuard: reentrant call\") */\n      tag_39\n      jumpi\n      mload(0x40)\n      0x08c379a000000000000000000000000000000000000000000000000000000000\n      dup2\n      mstore\n      0x04\n      add\n      tag_40\n      swap1\n      tag_41\n      jump\t// in\n    tag_40:\n      mload(0x40)\n      dup1\n      swap2\n      sub\n      swap1\n      revert\n    tag_39:\n        /* \"@openzeppelin/contracts/security/ReentrancyGuard.sol\":1744:1745  2 */\n      0x02\n        /* \"@openzeppelin/contracts/security/ReentrancyGuard.sol\":2455:2462  _status */\n      0x00\n        /* \"@openzeppelin/contracts/security/ReentrancyGuard.sol\":2455:2473  _status = _ENTERED */\n      dup2\n      swap1\n      sstore\n      pop\n        /* \"contracts/ico.sol\":2197:2201  true */\n      0x01\n        /* \"contracts/ico.sol\":2183:2201  IDOStarted == true */\n      iszero\n      iszero\n        /* \"contracts/ico.sol\":2183:2193  IDOStarted */\n      0x02\n      0x14\n      swap1\n      sload\n      swap1\n      0x0100\n      exp\n      swap1\n      div\n      0xff\n      and\n        /* \"contracts/ico.sol\":2183:2201  IDOStarted == true */\n      iszero\n      iszero\n      eq\n        /* \"contracts/ico.sol\":2175:2225  require(IDOStarted == true, \"IDO has not started\") */\n      tag_43\n      jumpi\n      mload(0x40)\n      0x08c379a000000000000000000000000000000000000000000000000000000000\n      dup2\n      mstore\n      0x04\n      add\n      tag_44\n      swap1\n      tag_45\n      jump\t// in\n    tag_44:\n      mload(0x40)\n      dup1\n      swap2\n      sub\n      swap1\n      revert\n    tag_43:\n        /* \"contracts/ico.sol\":2236:2249  uint256 value */\n      0x00\n        /* \"contracts/ico.sol\":2266:2273  _amount */\n      dup2\n        /* \"contracts/ico.sol\":2252:2263  totalRaised */\n      sload(0x04)\n        /* \"contracts/ico.sol\":2252:2273  totalRaised + _amount */\n      tag_46\n      swap2\n      swap1\n      tag_47\n      jump\t// in\n    tag_46:\n        /* \"contracts/ico.sol\":2236:2273  uint256 value = totalRaised + _amount */\n      swap1\n      pop\n        /* \"contracts/ico.sol\":2300:2310  targetSale */\n      sload(0x03)\n        /* \"contracts/ico.sol\":2292:2297  value */\n      dup2\n        /* \"contracts/ico.sol\":2292:2310  value < targetSale */\n      lt\n        /* \"contracts/ico.sol\":2284:2339  require(value < targetSale, \"All tokens has been sold\") */\n      tag_48\n      jumpi\n      mload(0x40)\n      0x08c379a000000000000000000000000000000000000000000000000000000000\n      dup2\n      mstore\n      0x04\n      add\n      tag_49\n      swap1\n      tag_50\n      jump\t// in\n    tag_49:\n      mload(0x40)\n      dup1\n      swap2\n      sub\n      swap1\n      revert\n    tag_48:\n        /* \"contracts/ico.sol\":2357:2361  USDT */\n      immutable(\"0xc8a6f112e7620748ca3ae6a49a58464897133c24b6f43e9fa71155cd2626380a\")\n        /* \"contracts/ico.sol\":2350:2370  IKRC20(USDT).approve */\n      0xffffffffffffffffffffffffffffffffffffffff\n      and\n      0x095ea7b3\n        /* \"contracts/ico.sol\":2379:2383  this */\n      address\n        /* \"contracts/ico.sol\":2386:2393  _amount */\n      dup5\n        /* \"contracts/ico.sol\":2350:2394  IKRC20(USDT).approve(address(this), _amount) */\n      mload(0x40)\n      dup4\n      0xffffffff\n      and\n      0xe0\n      shl\n      dup2\n      mstore\n      0x04\n      add\n      tag_51\n      swap3\n      swap2\n      swap1\n      tag_52\n      jump\t// in\n    tag_51:\n      0x20\n      mload(0x40)\n      dup1\n      dup4\n      sub\n      dup2\n      0x00\n      dup8\n      gas\n      call\n      iszero\n      dup1\n      iszero\n      tag_54\n      jumpi\n      returndatasize\n      0x00\n      dup1\n      returndatacopy\n      revert(0x00, returndatasize)\n    tag_54:\n      pop\n      pop\n      pop\n      pop\n      mload(0x40)\n      returndatasize\n      not(0x1f)\n      0x1f\n      dup3\n      add\n      and\n      dup3\n      add\n      dup1\n      0x40\n      mstore\n      pop\n      dup2\n      add\n      swap1\n      tag_55\n      swap2\n      swap1\n      tag_56\n      jump\t// in\n    tag_55:\n      pop\n        /* \"contracts/ico.sol\":2405:2470  IKRC20(USDT).safeTransferFrom(msg.sender, address(this), _amount) */\n      tag_57\n        /* \"contracts/ico.sol\":2435:2445  msg.sender */\n      caller\n        /* \"contracts/ico.sol\":2455:2459  this */\n      address\n        /* \"contracts/ico.sol\":2462:2469  _amount */\n      dup5\n        /* \"contracts/ico.sol\":2412:2416  USDT */\n      immutable(\"0xc8a6f112e7620748ca3ae6a49a58464897133c24b6f43e9fa71155cd2626380a\")\n        /* \"contracts/ico.sol\":2405:2434  IKRC20(USDT).safeTransferFrom */\n      0xffffffffffffffffffffffffffffffffffffffff\n      and\n      tag_58\n      swap1\n        /* \"contracts/ico.sol\":2405:2470  IKRC20(USDT).safeTransferFrom(msg.sender, address(this), _amount) */\n      swap4\n      swap3\n      swap2\n      swap1\n      0xffffffff\n      and\n      jump\t// in\n    tag_57:\n        /* \"contracts/ico.sol\":2506:2513  _amount */\n      dup2\n        /* \"contracts/ico.sol\":2481:2489  purchase */\n      0x05\n        /* \"contracts/ico.sol\":2481:2501  purchase[msg.sender] */\n      0x00\n        /* \"contracts/ico.sol\":2490:2500  msg.sender */\n      caller\n        /* \"contracts/ico.sol\":2481:2501  purchase[msg.sender] */\n      0xffffffffffffffffffffffffffffffffffffffff\n      and\n      0xffffffffffffffffffffffffffffffffffffffff\n      and\n      dup2\n      mstore\n      0x20\n      add\n      swap1\n      dup2\n      mstore\n      0x20\n      add\n      0x00\n      keccak256\n      0x00\n        /* \"contracts/ico.sol\":2481:2513  purchase[msg.sender]  += _amount */\n      dup3\n      dup3\n      sload\n      tag_59\n      swap2\n      swap1\n      tag_47\n      jump\t// in\n    tag_59:\n      swap3\n      pop\n      pop\n      dup2\n      swap1\n      sstore\n      pop\n        /* \"contracts/ico.sol\":2539:2546  _amount */\n      dup2\n        /* \"contracts/ico.sol\":2524:2535  totalRaised */\n      0x04\n      0x00\n        /* \"contracts/ico.sol\":2524:2546  totalRaised += _amount */\n      dup3\n      dup3\n      sload\n      tag_60\n      swap2\n      swap1\n      tag_47\n      jump\t// in\n    tag_60:\n      swap3\n      pop\n      pop\n      dup2\n      swap1\n      sstore\n      pop\n        /* \"contracts/ico.sol\":2580:2590  msg.sender */\n      caller\n        /* \"contracts/ico.sol\":2564:2600  latestPurchased(msg.sender, _amount) */\n      0xffffffffffffffffffffffffffffffffffffffff\n      and\n      0xda4cadf0d4383cb43c8249e3cc678f6690bdbaa01421c99fd9b14edac62cde80\n        /* \"contracts/ico.sol\":2592:2599  _amount */\n      dup4\n        /* \"contracts/ico.sol\":2564:2600  latestPurchased(msg.sender, _amount) */\n      mload(0x40)\n      tag_61\n      swap2\n      swap1\n      tag_20\n      jump\t// in\n    tag_61:\n      mload(0x40)\n      dup1\n      swap2\n      sub\n      swap1\n      log2\n        /* \"contracts/ico.sol\":2164:2608  {... */\n      pop\n        /* \"@openzeppelin/contracts/security/ReentrancyGuard.sol\":1701:1702  1 */\n      0x01\n        /* \"@openzeppelin/contracts/security/ReentrancyGuard.sol\":2628:2635  _status */\n      0x00\n        /* \"@openzeppelin/contracts/security/ReentrancyGuard.sol\":2628:2650  _status = _NOT_ENTERED */\n      dup2\n      swap1\n      sstore\n      pop\n        /* \"contracts/ico.sol\":2106:2608  function purchaseToken(uint _amount) external nonReentrant{... */\n      pop\n      jump\t// out\n        /* \"contracts/ico.sol\":2616:2853  function editIco(uint _tokenPrice, uint256 _targetSale) public{... */\n    tag_28:\n        /* \"contracts/ico.sol\":2711:2716  owner */\n      0x02\n      0x00\n      swap1\n      sload\n      swap1\n      0x0100\n      exp\n      swap1\n      div\n      0xffffffffffffffffffffffffffffffffffffffff\n      and\n        /* \"contracts/ico.sol\":2697:2716  msg.sender == owner */\n      0xffffffffffffffffffffffffffffffffffffffff\n      and\n        /* \"contracts/ico.sol\":2697:2707  msg.sender */\n      caller\n        /* \"contracts/ico.sol\":2697:2716  msg.sender == owner */\n      0xffffffffffffffffffffffffffffffffffffffff\n      and\n      eq\n        /* \"contracts/ico.sol\":2689:2717  require(msg.sender == owner) */\n      tag_63\n      jumpi\n      0x00\n      dup1\n      revert\n    tag_63:\n        /* \"contracts/ico.sol\":2743:2754  _tokenPrice */\n      dup2\n        /* \"contracts/ico.sol\":2730:2740  tokenPrice */\n      0x01\n        /* \"contracts/ico.sol\":2730:2754  tokenPrice = _tokenPrice */\n      dup2\n      swap1\n      sstore\n      pop\n        /* \"contracts/ico.sol\":2778:2789  _targetSale */\n      dup1\n        /* \"contracts/ico.sol\":2765:2775  targetSale */\n      0x03\n        /* \"contracts/ico.sol\":2765:2789  targetSale = _targetSale */\n      dup2\n      swap1\n      sstore\n      pop\n        /* \"contracts/ico.sol\":2807:2843  icoUpdate( _tokenPrice, _targetSale) */\n      0x314bf1ccc32c608a6175053b0da1933b3a745b3f799011003a4c39aab0c518a3\n        /* \"contracts/ico.sol\":2818:2829  _tokenPrice */\n      dup3\n        /* \"contracts/ico.sol\":2831:2842  _targetSale */\n      dup3\n        /* \"contracts/ico.sol\":2807:2843  icoUpdate( _tokenPrice, _targetSale) */\n      mload(0x40)\n      tag_64\n      swap3\n      swap2\n      swap1\n      tag_65\n      jump\t// in\n    tag_64:\n      mload(0x40)\n      dup1\n      swap2\n      sub\n      swap1\n      log1\n        /* \"contracts/ico.sol\":2616:2853  function editIco(uint _tokenPrice, uint256 _targetSale) public{... */\n      pop\n      pop\n      jump\t// out\n        /* \"contracts/ico.sol\":1332:1361  address public immutable USDT */\n    tag_30:\n      immutable(\"0xc8a6f112e7620748ca3ae6a49a58464897133c24b6f43e9fa71155cd2626380a\")\n      dup2\n      jump\t// out\n        /* \"contracts/ico.sol\":2861:3007  function BeginIDO() public {... */\n    tag_33:\n        /* \"contracts/ico.sol\":2921:2926  owner */\n      0x02\n      0x00\n      swap1\n      sload\n      swap1\n      0x0100\n      exp\n      swap1\n      div\n      0xffffffffffffffffffffffffffffffffffffffff\n      and\n        /* \"contracts/ico.sol\":2907:2926  msg.sender == owner */\n      0xffffffffffffffffffffffffffffffffffffffff\n      and\n        /* \"contracts/ico.sol\":2907:2917  msg.sender */\n      caller\n        /* \"contracts/ico.sol\":2907:2926  msg.sender == owner */\n      0xffffffffffffffffffffffffffffffffffffffff\n      and\n      eq\n        /* \"contracts/ico.sol\":2899:2927  require(msg.sender == owner) */\n      tag_67\n      jumpi\n      0x00\n      dup1\n      revert\n    tag_67:\n        /* \"contracts/ico.sol\":2953:2957  true */\n      0x01\n        /* \"contracts/ico.sol\":2940:2950  IDOStarted */\n      0x02\n      0x14\n        /* \"contracts/ico.sol\":2940:2957  IDOStarted = true */\n      0x0100\n      exp\n      dup2\n      sload\n      dup2\n      0xff\n      mul\n      not\n      and\n      swap1\n      dup4\n      iszero\n      iszero\n      mul\n      or\n      swap1\n      sstore\n      pop\n        /* \"contracts/ico.sol\":2973:2999  ICOStartAlert(\"ICO is on\") */\n      0x71002079ab3de7feb03ee30c84baf1d2350d4ffe16709d3dacb5e1037a0fe1cc\n      mload(0x40)\n      tag_68\n      swap1\n      tag_69\n      jump\t// in\n    tag_68:\n      mload(0x40)\n      dup1\n      swap2\n      sub\n      swap1\n      log1\n        /* \"contracts/ico.sol\":2861:3007  function BeginIDO() public {... */\n      jump\t// out\n        /* \"@openzeppelin/contracts/token/ERC20/utils/SafeERC20.sol\":974:1215  function safeTransferFrom(... */\n    tag_58:\n        /* \"@openzeppelin/contracts/token/ERC20/utils/SafeERC20.sol\":1112:1208  _callOptionalReturn(token, abi.encodeWithSelector(token.transferFrom.selector, from, to, value)) */\n      tag_71\n        /* \"@openzeppelin/contracts/token/ERC20/utils/SafeERC20.sol\":1132:1137  token */\n      dup5\n        /* \"@openzeppelin/contracts/token/ERC20/utils/SafeERC20.sol\":1162:1189  token.transferFrom.selector */\n      shl(0xe0, 0x23b872dd)\n        /* \"@openzeppelin/contracts/token/ERC20/utils/SafeERC20.sol\":1191:1195  from */\n      dup6\n        /* \"@openzeppelin/contracts/token/ERC20/utils/SafeERC20.sol\":1197:1199  to */\n      dup6\n        /* \"@openzeppelin/contracts/token/ERC20/utils/SafeERC20.sol\":1201:1206  value */\n      dup6\n        /* \"@openzeppelin/contracts/token/ERC20/utils/SafeERC20.sol\":1139:1207  abi.encodeWithSelector(token.transferFrom.selector, from, to, value) */\n      add(0x24, mload(0x40))\n      tag_72\n      swap4\n      swap3\n      swap2\n      swap1\n      tag_73\n      jump\t// in\n    tag_72:\n      mload(0x40)\n      0x20\n      dup2\n      dup4\n      sub\n      sub\n      dup2\n      mstore\n      swap1\n      0x40\n      mstore\n      swap1\n      not(0xffffffffffffffffffffffffffffffffffffffffffffffffffffffff)\n      and\n      0x20\n      dup3\n      add\n      dup1\n      mload\n      0xffffffffffffffffffffffffffffffffffffffffffffffffffffffff\n      dup4\n      dup2\n      dup4\n      and\n      or\n      dup4\n      mstore\n      pop\n      pop\n      pop\n      pop\n        /* \"@openzeppelin/contracts/token/ERC20/utils/SafeERC20.sol\":1112:1131  _callOptionalReturn */\n      tag_74\n        /* \"@openzeppelin/contracts/token/ERC20/utils/SafeERC20.sol\":1112:1208  _callOptionalReturn(token, abi.encodeWithSelector(token.transferFrom.selector, from, to, value)) */\n      jump\t// in\n    tag_71:\n        /* \"@openzeppelin/contracts/token/ERC20/utils/SafeERC20.sol\":974:1215  function safeTransferFrom(... */\n      pop\n      pop\n      pop\n      pop\n      jump\t// out\n        /* \"@openzeppelin/contracts/token/ERC20/utils/SafeERC20.sol\":3747:4453  function _callOptionalReturn(IERC20 token, bytes memory data) private {... */\n    tag_74:\n        /* \"@openzeppelin/contracts/token/ERC20/utils/SafeERC20.sol\":4166:4189  bytes memory returndata */\n      0x00\n        /* \"@openzeppelin/contracts/token/ERC20/utils/SafeERC20.sol\":4192:4261  address(token).functionCall(data, \"SafeERC20: low-level call failed\") */\n      tag_76\n        /* \"@openzeppelin/contracts/token/ERC20/utils/SafeERC20.sol\":4220:4224  data */\n      dup3\n        /* \"@openzeppelin/contracts/token/ERC20/utils/SafeERC20.sol\":4192:4261  address(token).functionCall(data, \"SafeERC20: low-level call failed\") */\n      mload(0x40)\n      dup1\n      0x40\n      add\n      0x40\n      mstore\n      dup1\n      0x20\n      dup2\n      mstore\n      0x20\n      add\n      0x5361666545524332303a206c6f772d6c6576656c2063616c6c206661696c6564\n      dup2\n      mstore\n      pop\n        /* \"@openzeppelin/contracts/token/ERC20/utils/SafeERC20.sol\":4200:4205  token */\n      dup6\n        /* \"@openzeppelin/contracts/token/ERC20/utils/SafeERC20.sol\":4192:4219  address(token).functionCall */\n      0xffffffffffffffffffffffffffffffffffffffff\n      and\n      tag_77\n      swap1\n        /* \"@openzeppelin/contracts/token/ERC20/utils/SafeERC20.sol\":4192:4261  address(token).functionCall(data, \"SafeERC20: low-level call failed\") */\n      swap3\n      swap2\n      swap1\n      0xffffffff\n      and\n      jump\t// in\n    tag_76:\n        /* \"@openzeppelin/contracts/token/ERC20/utils/SafeERC20.sol\":4166:4261  bytes memory returndata = address(token).functionCall(data, \"SafeERC20: low-level call failed\") */\n      swap1\n      pop\n        /* \"@openzeppelin/contracts/token/ERC20/utils/SafeERC20.sol\":4295:4296  0 */\n      0x00\n        /* \"@openzeppelin/contracts/token/ERC20/utils/SafeERC20.sol\":4275:4285  returndata */\n      dup2\n        /* \"@openzeppelin/contracts/token/ERC20/utils/SafeERC20.sol\":4275:4292  returndata.length */\n      mload\n        /* \"@openzeppelin/contracts/token/ERC20/utils/SafeERC20.sol\":4275:4296  returndata.length > 0 */\n      gt\n        /* \"@openzeppelin/contracts/token/ERC20/utils/SafeERC20.sol\":4271:4447  if (returndata.length > 0) {... */\n      iszero\n      tag_78\n      jumpi\n        /* \"@openzeppelin/contracts/token/ERC20/utils/SafeERC20.sol\":4370:4380  returndata */\n      dup1\n        /* \"@openzeppelin/contracts/token/ERC20/utils/SafeERC20.sol\":4359:4389  abi.decode(returndata, (bool)) */\n      dup1\n      0x20\n      add\n      swap1\n      mload\n      dup2\n      add\n      swap1\n      tag_79\n      swap2\n      swap1\n      tag_56\n      jump\t// in\n    tag_79:\n        /* \"@openzeppelin/contracts/token/ERC20/utils/SafeERC20.sol\":4351:4436  require(abi.decode(returndata, (bool)), \"SafeERC20: ERC20 operation did not succeed\") */\n      tag_80\n      jumpi\n      mload(0x40)\n      0x08c379a000000000000000000000000000000000000000000000000000000000\n      dup2\n      mstore\n      0x04\n      add\n      tag_81\n      swap1\n      tag_82\n      jump\t// in\n    tag_81:\n      mload(0x40)\n      dup1\n      swap2\n      sub\n      swap1\n      revert\n    tag_80:\n        /* \"@openzeppelin/contracts/token/ERC20/utils/SafeERC20.sol\":4271:4447  if (returndata.length > 0) {... */\n    tag_78:\n        /* \"@openzeppelin/contracts/token/ERC20/utils/SafeERC20.sol\":3817:4453  {... */\n      pop\n        /* \"@openzeppelin/contracts/token/ERC20/utils/SafeERC20.sol\":3747:4453  function _callOptionalReturn(IERC20 token, bytes memory data) private {... */\n      pop\n      pop\n      jump\t// out\n        /* \"@openzeppelin/contracts/utils/Address.sol\":3861:4084  function functionCall(... */\n    tag_77:\n        /* \"@openzeppelin/contracts/utils/Address.sol\":3994:4006  bytes memory */\n      0x60\n        /* \"@openzeppelin/contracts/utils/Address.sol\":4025:4077  functionCallWithValue(target, data, 0, errorMessage) */\n      tag_84\n        /* \"@openzeppelin/contracts/utils/Address.sol\":4047:4053  target */\n      dup5\n        /* \"@openzeppelin/contracts/utils/Address.sol\":4055:4059  data */\n      dup5\n        /* \"@openzeppelin/contracts/utils/Address.sol\":4061:4062  0 */\n      0x00\n        /* \"@openzeppelin/contracts/utils/Address.sol\":4064:4076  errorMessage */\n      dup6\n        /* \"@openzeppelin/contracts/utils/Address.sol\":4025:4046  functionCallWithValue */\n      tag_85\n        /* \"@openzeppelin/contracts/utils/Address.sol\":4025:4077  functionCallWithValue(target, data, 0, errorMessage) */\n      jump\t// in\n    tag_84:\n        /* \"@openzeppelin/contracts/utils/Address.sol\":4018:4077  return functionCallWithValue(target, data, 0, errorMessage) */\n      swap1\n      pop\n        /* \"@openzeppelin/contracts/utils/Address.sol\":3861:4084  function functionCall(... */\n      swap4\n      swap3\n      pop\n      pop\n      pop\n      jump\t// out\n        /* \"@openzeppelin/contracts/utils/Address.sol\":4948:5447  function functionCallWithValue(... */\n    tag_85:\n        /* \"@openzeppelin/contracts/utils/Address.sol\":5113:5125  bytes memory */\n      0x60\n        /* \"@openzeppelin/contracts/utils/Address.sol\":5170:5175  value */\n      dup3\n        /* \"@openzeppelin/contracts/utils/Address.sol\":5145:5166  address(this).balance */\n      selfbalance\n        /* \"@openzeppelin/contracts/utils/Address.sol\":5145:5175  address(this).balance >= value */\n      lt\n      iszero\n        /* \"@openzeppelin/contracts/utils/Address.sol\":5137:5218  require(address(this).balance >= value, \"Address: insufficient balance for call\") */\n      tag_87\n      jumpi\n      mload(0x40)\n      0x08c379a000000000000000000000000000000000000000000000000000000000\n      dup2\n      mstore\n      0x04\n      add\n      tag_88\n      swap1\n      tag_89\n      jump\t// in\n    tag_88:\n      mload(0x40)\n      dup1\n      swap2\n      sub\n      swap1\n      revert\n    tag_87:\n        /* \"@openzeppelin/contracts/utils/Address.sol\":5236:5254  isContract(target) */\n      tag_90\n        /* \"@openzeppelin/contracts/utils/Address.sol\":5247:5253  target */\n      dup6\n        /* \"@openzeppelin/contracts/utils/Address.sol\":5236:5246  isContract */\n      tag_91\n        /* \"@openzeppelin/contracts/utils/Address.sol\":5236:5254  isContract(target) */\n      jump\t// in\n    tag_90:\n        /* \"@openzeppelin/contracts/utils/Address.sol\":5228:5288  require(isContract(target), \"Address: call to non-contract\") */\n      tag_92\n      jumpi\n      mload(0x40)\n      0x08c379a000000000000000000000000000000000000000000000000000000000\n      dup2\n      mstore\n      0x04\n      add\n      tag_93\n      swap1\n      tag_94\n      jump\t// in\n    tag_93:\n      mload(0x40)\n      dup1\n      swap2\n      sub\n      swap1\n      revert\n    tag_92:\n        /* \"@openzeppelin/contracts/utils/Address.sol\":5300:5312  bool success */\n      0x00\n        /* \"@openzeppelin/contracts/utils/Address.sol\":5314:5337  bytes memory returndata */\n      dup1\n        /* \"@openzeppelin/contracts/utils/Address.sol\":5341:5347  target */\n      dup7\n        /* \"@openzeppelin/contracts/utils/Address.sol\":5341:5352  target.call */\n      0xffffffffffffffffffffffffffffffffffffffff\n      and\n        /* \"@openzeppelin/contracts/utils/Address.sol\":5360:5365  value */\n      dup6\n        /* \"@openzeppelin/contracts/utils/Address.sol\":5367:5371  data */\n      dup8\n        /* \"@openzeppelin/contracts/utils/Address.sol\":5341:5372  target.call{value: value}(data) */\n      mload(0x40)\n      tag_95\n      swap2\n      swap1\n      tag_96\n      jump\t// in\n    tag_95:\n      0x00\n      mload(0x40)\n      dup1\n      dup4\n      sub\n      dup2\n      dup6\n      dup8\n      gas\n      call\n      swap3\n      pop\n      pop\n      pop\n      returndatasize\n      dup1\n      0x00\n      dup2\n      eq\n      tag_99\n      jumpi\n      mload(0x40)\n      swap2\n      pop\n      and(add(returndatasize, 0x3f), not(0x1f))\n      dup3\n      add\n      0x40\n      mstore\n      returndatasize\n      dup3\n      mstore\n      returndatasize\n      0x00\n      0x20\n      dup5\n      add\n      returndatacopy\n      jump(tag_98)\n    tag_99:\n      0x60\n      swap2\n      pop\n    tag_98:\n      pop\n        /* \"@openzeppelin/contracts/utils/Address.sol\":5299:5372  (bool success, bytes memory returndata) = target.call{value: value}(data) */\n      swap2\n      pop\n      swap2\n      pop\n        /* \"@openzeppelin/contracts/utils/Address.sol\":5389:5440  verifyCallResult(success, returndata, errorMessage) */\n      tag_100\n        /* \"@openzeppelin/contracts/utils/Address.sol\":5406:5413  success */\n      dup3\n        /* \"@openzeppelin/contracts/utils/Address.sol\":5415:5425  returndata */\n      dup3\n        /* \"@openzeppelin/contracts/utils/Address.sol\":5427:5439  errorMessage */\n      dup7\n        /* \"@openzeppelin/contracts/utils/Address.sol\":5389:5405  verifyCallResult */\n      tag_101\n        /* \"@openzeppelin/contracts/utils/Address.sol\":5389:5440  verifyCallResult(success, returndata, errorMessage) */\n      jump\t// in\n    tag_100:\n        /* \"@openzeppelin/contracts/utils/Address.sol\":5382:5440  return verifyCallResult(success, returndata, errorMessage) */\n      swap3\n      pop\n      pop\n      pop\n        /* \"@openzeppelin/contracts/utils/Address.sol\":4948:5447  function functionCallWithValue(... */\n      swap5\n      swap4\n      pop\n      pop\n      pop\n      pop\n      jump\t// out\n        /* \"@openzeppelin/contracts/utils/Address.sol\":1175:1495  function isContract(address account) internal view returns (bool) {... */\n    tag_91:\n        /* \"@openzeppelin/contracts/utils/Address.sol\":1235:1239  bool */\n      0x00\n        /* \"@openzeppelin/contracts/utils/Address.sol\":1487:1488  0 */\n      dup1\n        /* \"@openzeppelin/contracts/utils/Address.sol\":1465:1472  account */\n      dup3\n        /* \"@openzeppelin/contracts/utils/Address.sol\":1465:1484  account.code.length */\n      0xffffffffffffffffffffffffffffffffffffffff\n      and\n      extcodesize\n        /* \"@openzeppelin/contracts/utils/Address.sol\":1465:1488  account.code.length > 0 */\n      gt\n        /* \"@openzeppelin/contracts/utils/Address.sol\":1458:1488  return account.code.length > 0 */\n      swap1\n      pop\n        /* \"@openzeppelin/contracts/utils/Address.sol\":1175:1495  function isContract(address account) internal view returns (bool) {... */\n      swap2\n      swap1\n      pop\n      jump\t// out\n        /* \"@openzeppelin/contracts/utils/Address.sol\":7561:8303  function verifyCallResult(... */\n    tag_101:\n        /* \"@openzeppelin/contracts/utils/Address.sol\":7707:7719  bytes memory */\n      0x60\n        /* \"@openzeppelin/contracts/utils/Address.sol\":7735:7742  success */\n      dup4\n        /* \"@openzeppelin/contracts/utils/Address.sol\":7731:8297  if (success) {... */\n      iszero\n      tag_104\n      jumpi\n        /* \"@openzeppelin/contracts/utils/Address.sol\":7765:7775  returndata */\n      dup3\n        /* \"@openzeppelin/contracts/utils/Address.sol\":7758:7775  return returndata */\n      swap1\n      pop\n      jump(tag_103)\n        /* \"@openzeppelin/contracts/utils/Address.sol\":7731:8297  if (success) {... */\n    tag_104:\n        /* \"@openzeppelin/contracts/utils/Address.sol\":7896:7897  0 */\n      0x00\n        /* \"@openzeppelin/contracts/utils/Address.sol\":7876:7886  returndata */\n      dup4\n        /* \"@openzeppelin/contracts/utils/Address.sol\":7876:7893  returndata.length */\n      mload\n        /* \"@openzeppelin/contracts/utils/Address.sol\":7876:7897  returndata.length > 0 */\n      gt\n        /* \"@openzeppelin/contracts/utils/Address.sol\":7872:8287  if (returndata.length > 0) {... */\n      iszero\n      tag_106\n      jumpi\n        /* \"@openzeppelin/contracts/utils/Address.sol\":8120:8130  returndata */\n      dup3\n        /* \"@openzeppelin/contracts/utils/Address.sol\":8114:8131  mload(returndata) */\n      mload\n        /* \"@openzeppelin/contracts/utils/Address.sol\":8180:8195  returndata_size */\n      dup1\n        /* \"@openzeppelin/contracts/utils/Address.sol\":8167:8177  returndata */\n      dup5\n        /* \"@openzeppelin/contracts/utils/Address.sol\":8163:8165  32 */\n      0x20\n        /* \"@openzeppelin/contracts/utils/Address.sol\":8159:8178  add(32, returndata) */\n      add\n        /* \"@openzeppelin/contracts/utils/Address.sol\":8152:8196  revert(add(32, returndata), returndata_size) */\n      revert\n        /* \"@openzeppelin/contracts/utils/Address.sol\":7872:8287  if (returndata.length > 0) {... */\n    tag_106:\n        /* \"@openzeppelin/contracts/utils/Address.sol\":8259:8271  errorMessage */\n      dup2\n        /* \"@openzeppelin/contracts/utils/Address.sol\":8252:8272  revert(errorMessage) */\n      mload(0x40)\n      0x08c379a000000000000000000000000000000000000000000000000000000000\n      dup2\n      mstore\n      0x04\n      add\n      tag_108\n      swap2\n      swap1\n      tag_109\n      jump\t// in\n    tag_108:\n      mload(0x40)\n      dup1\n      swap2\n      sub\n      swap1\n      revert\n        /* \"@openzeppelin/contracts/utils/Address.sol\":7561:8303  function verifyCallResult(... */\n    tag_103:\n      swap4\n      swap3\n      pop\n      pop\n      pop\n      jump\t// out\n        /* \"#utility.yul\":7:133   */\n    tag_110:\n        /* \"#utility.yul\":44:51   */\n      0x00\n        /* \"#utility.yul\":84:126   */\n      0xffffffffffffffffffffffffffffffffffffffff\n        /* \"#utility.yul\":77:82   */\n      dup3\n        /* \"#utility.yul\":73:127   */\n      and\n        /* \"#utility.yul\":62:127   */\n      swap1\n      pop\n        /* \"#utility.yul\":7:133   */\n      swap2\n      swap1\n      pop\n      jump\t// out\n        /* \"#utility.yul\":139:235   */\n    tag_111:\n        /* \"#utility.yul\":176:183   */\n      0x00\n        /* \"#utility.yul\":205:229   */\n      tag_151\n        /* \"#utility.yul\":223:228   */\n      dup3\n        /* \"#utility.yul\":205:229   */\n      tag_110\n      jump\t// in\n    tag_151:\n        /* \"#utility.yul\":194:229   */\n      swap1\n      pop\n        /* \"#utility.yul\":139:235   */\n      swap2\n      swap1\n      pop\n      jump\t// out\n        /* \"#utility.yul\":241:359   */\n    tag_112:\n        /* \"#utility.yul\":328:352   */\n      tag_153\n        /* \"#utility.yul\":346:351   */\n      dup2\n        /* \"#utility.yul\":328:352   */\n      tag_111\n      jump\t// in\n    tag_153:\n        /* \"#utility.yul\":323:326   */\n      dup3\n        /* \"#utility.yul\":316:353   */\n      mstore\n        /* \"#utility.yul\":241:359   */\n      pop\n      pop\n      jump\t// out\n        /* \"#utility.yul\":365:587   */\n    tag_14:\n        /* \"#utility.yul\":458:462   */\n      0x00\n        /* \"#utility.yul\":496:498   */\n      0x20\n        /* \"#utility.yul\":485:494   */\n      dup3\n        /* \"#utility.yul\":481:499   */\n      add\n        /* \"#utility.yul\":473:499   */\n      swap1\n      pop\n        /* \"#utility.yul\":509:580   */\n      tag_155\n        /* \"#utility.yul\":577:578   */\n      0x00\n        /* \"#utility.yul\":566:575   */\n      dup4\n        /* \"#utility.yul\":562:579   */\n      add\n        /* \"#utility.yul\":553:559   */\n      dup5\n        /* \"#utility.yul\":509:580   */\n      tag_112\n      jump\t// in\n    tag_155:\n        /* \"#utility.yul\":365:587   */\n      swap3\n      swap2\n      pop\n      pop\n      jump\t// out\n        /* \"#utility.yul\":593:670   */\n    tag_113:\n        /* \"#utility.yul\":630:637   */\n      0x00\n        /* \"#utility.yul\":659:664   */\n      dup2\n        /* \"#utility.yul\":648:664   */\n      swap1\n      pop\n        /* \"#utility.yul\":593:670   */\n      swap2\n      swap1\n      pop\n      jump\t// out\n        /* \"#utility.yul\":676:794   */\n    tag_114:\n        /* \"#utility.yul\":763:787   */\n      tag_158\n        /* \"#utility.yul\":781:786   */\n      dup2\n        /* \"#utility.yul\":763:787   */\n      tag_113\n      jump\t// in\n    tag_158:\n        /* \"#utility.yul\":758:761   */\n      dup3\n        /* \"#utility.yul\":751:788   */\n      mstore\n        /* \"#utility.yul\":676:794   */\n      pop\n      pop\n      jump\t// out\n        /* \"#utility.yul\":800:1022   */\n    tag_20:\n        /* \"#utility.yul\":893:897   */\n      0x00\n        /* \"#utility.yul\":931:933   */\n      0x20\n        /* \"#utility.yul\":920:929   */\n      dup3\n        /* \"#utility.yul\":916:934   */\n      add\n        /* \"#utility.yul\":908:934   */\n      swap1\n      pop\n        /* \"#utility.yul\":944:1015   */\n      tag_160\n        /* \"#utility.yul\":1012:1013   */\n      0x00\n        /* \"#utility.yul\":1001:1010   */\n      dup4\n        /* \"#utility.yul\":997:1014   */\n      add\n        /* \"#utility.yul\":988:994   */\n      dup5\n        /* \"#utility.yul\":944:1015   */\n      tag_114\n      jump\t// in\n    tag_160:\n        /* \"#utility.yul\":800:1022   */\n      swap3\n      swap2\n      pop\n      pop\n      jump\t// out\n        /* \"#utility.yul\":1109:1226   */\n    tag_116:\n        /* \"#utility.yul\":1218:1219   */\n      0x00\n        /* \"#utility.yul\":1215:1216   */\n      dup1\n        /* \"#utility.yul\":1208:1220   */\n      revert\n        /* \"#utility.yul\":1355:1477   */\n    tag_118:\n        /* \"#utility.yul\":1428:1452   */\n      tag_165\n        /* \"#utility.yul\":1446:1451   */\n      dup2\n        /* \"#utility.yul\":1428:1452   */\n      tag_113\n      jump\t// in\n    tag_165:\n        /* \"#utility.yul\":1421:1426   */\n      dup2\n        /* \"#utility.yul\":1418:1453   */\n      eq\n        /* \"#utility.yul\":1408:1471   */\n      tag_166\n      jumpi\n        /* \"#utility.yul\":1467:1468   */\n      0x00\n        /* \"#utility.yul\":1464:1465   */\n      dup1\n        /* \"#utility.yul\":1457:1469   */\n      revert\n        /* \"#utility.yul\":1408:1471   */\n    tag_166:\n        /* \"#utility.yul\":1355:1477   */\n      pop\n      jump\t// out\n        /* \"#utility.yul\":1483:1622   */\n    tag_119:\n        /* \"#utility.yul\":1529:1534   */\n      0x00\n        /* \"#utility.yul\":1567:1573   */\n      dup2\n        /* \"#utility.yul\":1554:1574   */\n      calldataload\n        /* \"#utility.yul\":1545:1574   */\n      swap1\n      pop\n        /* \"#utility.yul\":1583:1616   */\n      tag_168\n        /* \"#utility.yul\":1610:1615   */\n      dup2\n        /* \"#utility.yul\":1583:1616   */\n      tag_118\n      jump\t// in\n    tag_168:\n        /* \"#utility.yul\":1483:1622   */\n      swap3\n      swap2\n      pop\n      pop\n      jump\t// out\n        /* \"#utility.yul\":1628:1957   */\n    tag_23:\n        /* \"#utility.yul\":1687:1693   */\n      0x00\n        /* \"#utility.yul\":1736:1738   */\n      0x20\n        /* \"#utility.yul\":1724:1733   */\n      dup3\n        /* \"#utility.yul\":1715:1722   */\n      dup5\n        /* \"#utility.yul\":1711:1734   */\n      sub\n        /* \"#utility.yul\":1707:1739   */\n      slt\n        /* \"#utility.yul\":1704:1823   */\n      iszero\n      tag_170\n      jumpi\n        /* \"#utility.yul\":1742:1821   */\n      tag_171\n      tag_116\n      jump\t// in\n    tag_171:\n        /* \"#utility.yul\":1704:1823   */\n    tag_170:\n        /* \"#utility.yul\":1862:1863   */\n      0x00\n        /* \"#utility.yul\":1887:1940   */\n      tag_172\n        /* \"#utility.yul\":1932:1939   */\n      dup5\n        /* \"#utility.yul\":1923:1929   */\n      dup3\n        /* \"#utility.yul\":1912:1921   */\n      dup6\n        /* \"#utility.yul\":1908:1930   */\n      add\n        /* \"#utility.yul\":1887:1940   */\n      tag_119\n      jump\t// in\n    tag_172:\n        /* \"#utility.yul\":1877:1940   */\n      swap2\n      pop\n        /* \"#utility.yul\":1833:1950   */\n      pop\n        /* \"#utility.yul\":1628:1957   */\n      swap3\n      swap2\n      pop\n      pop\n      jump\t// out\n        /* \"#utility.yul\":1963:2437   */\n    tag_27:\n        /* \"#utility.yul\":2031:2037   */\n      0x00\n        /* \"#utility.yul\":2039:2045   */\n      dup1\n        /* \"#utility.yul\":2088:2090   */\n      0x40\n        /* \"#utility.yul\":2076:2085   */\n      dup4\n        /* \"#utility.yul\":2067:2074   */\n      dup6\n        /* \"#utility.yul\":2063:2086   */\n      sub\n        /* \"#utility.yul\":2059:2091   */\n      slt\n        /* \"#utility.yul\":2056:2175   */\n      iszero\n      tag_174\n      jumpi\n        /* \"#utility.yul\":2094:2173   */\n      tag_175\n      tag_116\n      jump\t// in\n    tag_175:\n        /* \"#utility.yul\":2056:2175   */\n    tag_174:\n        /* \"#utility.yul\":2214:2215   */\n      0x00\n        /* \"#utility.yul\":2239:2292   */\n      tag_176\n        /* \"#utility.yul\":2284:2291   */\n      dup6\n        /* \"#utility.yul\":2275:2281   */\n      dup3\n        /* \"#utility.yul\":2264:2273   */\n      dup7\n        /* \"#utility.yul\":2260:2282   */\n      add\n        /* \"#utility.yul\":2239:2292   */\n      tag_119\n      jump\t// in\n    tag_176:\n        /* \"#utility.yul\":2229:2292   */\n      swap3\n      pop\n        /* \"#utility.yul\":2185:2302   */\n      pop\n        /* \"#utility.yul\":2341:2343   */\n      0x20\n        /* \"#utility.yul\":2367:2420   */\n      tag_177\n        /* \"#utility.yul\":2412:2419   */\n      dup6\n        /* \"#utility.yul\":2403:2409   */\n      dup3\n        /* \"#utility.yul\":2392:2401   */\n      dup7\n        /* \"#utility.yul\":2388:2410   */\n      add\n        /* \"#utility.yul\":2367:2420   */\n      tag_119\n      jump\t// in\n    tag_177:\n        /* \"#utility.yul\":2357:2420   */\n      swap2\n      pop\n        /* \"#utility.yul\":2312:2430   */\n      pop\n        /* \"#utility.yul\":1963:2437   */\n      swap3\n      pop\n      swap3\n      swap1\n      pop\n      jump\t// out\n        /* \"#utility.yul\":2443:2612   */\n    tag_120:\n        /* \"#utility.yul\":2527:2538   */\n      0x00\n        /* \"#utility.yul\":2561:2567   */\n      dup3\n        /* \"#utility.yul\":2556:2559   */\n      dup3\n        /* \"#utility.yul\":2549:2568   */\n      mstore\n        /* \"#utility.yul\":2601:2605   */\n      0x20\n        /* \"#utility.yul\":2596:2599   */\n      dup3\n        /* \"#utility.yul\":2592:2606   */\n      add\n        /* \"#utility.yul\":2577:2606   */\n      swap1\n      pop\n        /* \"#utility.yul\":2443:2612   */\n      swap3\n      swap2\n      pop\n      pop\n      jump\t// out\n        /* \"#utility.yul\":2618:2781   */\n    tag_121:\n        /* \"#utility.yul\":2758:2773   */\n      0x49434f2069732070617573656400000000000000000000000000000000000000\n        /* \"#utility.yul\":2754:2755   */\n      0x00\n        /* \"#utility.yul\":2746:2752   */\n      dup3\n        /* \"#utility.yul\":2742:2756   */\n      add\n        /* \"#utility.yul\":2735:2774   */\n      mstore\n        /* \"#utility.yul\":2618:2781   */\n      pop\n      jump\t// out\n        /* \"#utility.yul\":2787:3153   */\n    tag_122:\n        /* \"#utility.yul\":2929:2932   */\n      0x00\n        /* \"#utility.yul\":2950:3017   */\n      tag_181\n        /* \"#utility.yul\":3014:3016   */\n      0x0d\n        /* \"#utility.yul\":3009:3012   */\n      dup4\n        /* \"#utility.yul\":2950:3017   */\n      tag_120\n      jump\t// in\n    tag_181:\n        /* \"#utility.yul\":2943:3017   */\n      swap2\n      pop\n        /* \"#utility.yul\":3026:3119   */\n      tag_182\n        /* \"#utility.yul\":3115:3118   */\n      dup3\n        /* \"#utility.yul\":3026:3119   */\n      tag_121\n      jump\t// in\n    tag_182:\n        /* \"#utility.yul\":3144:3146   */\n      0x20\n        /* \"#utility.yul\":3139:3142   */\n      dup3\n        /* \"#utility.yul\":3135:3147   */\n      add\n        /* \"#utility.yul\":3128:3147   */\n      swap1\n      pop\n        /* \"#utility.yul\":2787:3153   */\n      swap2\n      swap1\n      pop\n      jump\t// out\n        /* \"#utility.yul\":3159:3578   */\n    tag_37:\n        /* \"#utility.yul\":3325:3329   */\n      0x00\n        /* \"#utility.yul\":3363:3365   */\n      0x20\n        /* \"#utility.yul\":3352:3361   */\n      dup3\n        /* \"#utility.yul\":3348:3366   */\n      add\n        /* \"#utility.yul\":3340:3366   */\n      swap1\n      pop\n        /* \"#utility.yul\":3412:3421   */\n      dup2\n        /* \"#utility.yul\":3406:3410   */\n      dup2\n        /* \"#utility.yul\":3402:3422   */\n      sub\n        /* \"#utility.yul\":3398:3399   */\n      0x00\n        /* \"#utility.yul\":3387:3396   */\n      dup4\n        /* \"#utility.yul\":3383:3400   */\n      add\n        /* \"#utility.yul\":3376:3423   */\n      mstore\n        /* \"#utility.yul\":3440:3571   */\n      tag_184\n        /* \"#utility.yul\":3566:3570   */\n      dup2\n        /* \"#utility.yul\":3440:3571   */\n      tag_122\n      jump\t// in\n    tag_184:\n        /* \"#utility.yul\":3432:3571   */\n      swap1\n      pop\n        /* \"#utility.yul\":3159:3578   */\n      swap2\n      swap1\n      pop\n      jump\t// out\n        /* \"#utility.yul\":3584:3765   */\n    tag_123:\n        /* \"#utility.yul\":3724:3757   */\n      0x5265656e7472616e637947756172643a207265656e7472616e742063616c6c00\n        /* \"#utility.yul\":3720:3721   */\n      0x00\n        /* \"#utility.yul\":3712:3718   */\n      dup3\n        /* \"#utility.yul\":3708:3722   */\n      add\n        /* \"#utility.yul\":3701:3758   */\n      mstore\n        /* \"#utility.yul\":3584:3765   */\n      pop\n      jump\t// out\n        /* \"#utility.yul\":3771:4137   */\n    tag_124:\n        /* \"#utility.yul\":3913:3916   */\n      0x00\n        /* \"#utility.yul\":3934:4001   */\n      tag_187\n        /* \"#utility.yul\":3998:4000   */\n      0x1f\n        /* \"#utility.yul\":3993:3996   */\n      dup4\n        /* \"#utility.yul\":3934:4001   */\n      tag_120\n      jump\t// in\n    tag_187:\n        /* \"#utility.yul\":3927:4001   */\n      swap2\n      pop\n        /* \"#utility.yul\":4010:4103   */\n      tag_188\n        /* \"#utility.yul\":4099:4102   */\n      dup3\n        /* \"#utility.yul\":4010:4103   */\n      tag_123\n      jump\t// in\n    tag_188:\n        /* \"#utility.yul\":4128:4130   */\n      0x20\n        /* \"#utility.yul\":4123:4126   */\n      dup3\n        /* \"#utility.yul\":4119:4131   */\n      add\n        /* \"#utility.yul\":4112:4131   */\n      swap1\n      pop\n        /* \"#utility.yul\":3771:4137   */\n      swap2\n      swap1\n      pop\n      jump\t// out\n        /* \"#utility.yul\":4143:4562   */\n    tag_41:\n        /* \"#utility.yul\":4309:4313   */\n      0x00\n        /* \"#utility.yul\":4347:4349   */\n      0x20\n        /* \"#utility.yul\":4336:4345   */\n      dup3\n        /* \"#utility.yul\":4332:4350   */\n      add\n        /* \"#utility.yul\":4324:4350   */\n      swap1\n      pop\n        /* \"#utility.yul\":4396:4405   */\n      dup2\n        /* \"#utility.yul\":4390:4394   */\n      dup2\n        /* \"#utility.yul\":4386:4406   */\n      sub\n        /* \"#utility.yul\":4382:4383   */\n      0x00\n        /* \"#utility.yul\":4371:4380   */\n      dup4\n        /* \"#utility.yul\":4367:4384   */\n      add\n        /* \"#utility.yul\":4360:4407   */\n      mstore\n        /* \"#utility.yul\":4424:4555   */\n      tag_190\n        /* \"#utility.yul\":4550:4554   */\n      dup2\n        /* \"#utility.yul\":4424:4555   */\n      tag_124\n      jump\t// in\n    tag_190:\n        /* \"#utility.yul\":4416:4555   */\n      swap1\n      pop\n        /* \"#utility.yul\":4143:4562   */\n      swap2\n      swap1\n      pop\n      jump\t// out\n        /* \"#utility.yul\":4568:4737   */\n    tag_125:\n        /* \"#utility.yul\":4708:4729   */\n      0x49444f20686173206e6f74207374617274656400000000000000000000000000\n        /* \"#utility.yul\":4704:4705   */\n      0x00\n        /* \"#utility.yul\":4696:4702   */\n      dup3\n        /* \"#utility.yul\":4692:4706   */\n      add\n        /* \"#utility.yul\":4685:4730   */\n      mstore\n        /* \"#utility.yul\":4568:4737   */\n      pop\n      jump\t// out\n        /* \"#utility.yul\":4743:5109   */\n    tag_126:\n        /* \"#utility.yul\":4885:4888   */\n      0x00\n        /* \"#utility.yul\":4906:4973   */\n      tag_193\n        /* \"#utility.yul\":4970:4972   */\n      0x13\n        /* \"#utility.yul\":4965:4968   */\n      dup4\n        /* \"#utility.yul\":4906:4973   */\n      tag_120\n      jump\t// in\n    tag_193:\n        /* \"#utility.yul\":4899:4973   */\n      swap2\n      pop\n        /* \"#utility.yul\":4982:5075   */\n      tag_194\n        /* \"#utility.yul\":5071:5074   */\n      dup3\n        /* \"#utility.yul\":4982:5075   */\n      tag_125\n      jump\t// in\n    tag_194:\n        /* \"#utility.yul\":5100:5102   */\n      0x20\n        /* \"#utility.yul\":5095:5098   */\n      dup3\n        /* \"#utility.yul\":5091:5103   */\n      add\n        /* \"#utility.yul\":5084:5103   */\n      swap1\n      pop\n        /* \"#utility.yul\":4743:5109   */\n      swap2\n      swap1\n      pop\n      jump\t// out\n        /* \"#utility.yul\":5115:5534   */\n    tag_45:\n        /* \"#utility.yul\":5281:5285   */\n      0x00\n        /* \"#utility.yul\":5319:5321   */\n      0x20\n        /* \"#utility.yul\":5308:5317   */\n      dup3\n        /* \"#utility.yul\":5304:5322   */\n      add\n        /* \"#utility.yul\":5296:5322   */\n      swap1\n      pop\n        /* \"#utility.yul\":5368:5377   */\n      dup2\n        /* \"#utility.yul\":5362:5366   */\n      dup2\n        /* \"#utility.yul\":5358:5378   */\n      sub\n        /* \"#utility.yul\":5354:5355   */\n      0x00\n        /* \"#utility.yul\":5343:5352   */\n      dup4\n        /* \"#utility.yul\":5339:5356   */\n      add\n        /* \"#utility.yul\":5332:5379   */\n      mstore\n        /* \"#utility.yul\":5396:5527   */\n      tag_196\n        /* \"#utility.yul\":5522:5526   */\n      dup2\n        /* \"#utility.yul\":5396:5527   */\n      tag_126\n      jump\t// in\n    tag_196:\n        /* \"#utility.yul\":5388:5527   */\n      swap1\n      pop\n        /* \"#utility.yul\":5115:5534   */\n      swap2\n      swap1\n      pop\n      jump\t// out\n        /* \"#utility.yul\":5540:5720   */\n    tag_127:\n        /* \"#utility.yul\":5588:5665   */\n      0x4e487b7100000000000000000000000000000000000000000000000000000000\n        /* \"#utility.yul\":5585:5586   */\n      0x00\n        /* \"#utility.yul\":5578:5666   */\n      mstore\n        /* \"#utility.yul\":5685:5689   */\n      0x11\n        /* \"#utility.yul\":5682:5683   */\n      0x04\n        /* \"#utility.yul\":5675:5690   */\n      mstore\n        /* \"#utility.yul\":5709:5713   */\n      0x24\n        /* \"#utility.yul\":5706:5707   */\n      0x00\n        /* \"#utility.yul\":5699:5714   */\n      revert\n        /* \"#utility.yul\":5726:6031   */\n    tag_47:\n        /* \"#utility.yul\":5766:5769   */\n      0x00\n        /* \"#utility.yul\":5785:5805   */\n      tag_199\n        /* \"#utility.yul\":5803:5804   */\n      dup3\n        /* \"#utility.yul\":5785:5805   */\n      tag_113\n      jump\t// in\n    tag_199:\n        /* \"#utility.yul\":5780:5805   */\n      swap2\n      pop\n        /* \"#utility.yul\":5819:5839   */\n      tag_200\n        /* \"#utility.yul\":5837:5838   */\n      dup4\n        /* \"#utility.yul\":5819:5839   */\n      tag_113\n      jump\t// in\n    tag_200:\n        /* \"#utility.yul\":5814:5839   */\n      swap3\n      pop\n        /* \"#utility.yul\":5973:5974   */\n      dup3\n        /* \"#utility.yul\":5905:5971   */\n      0xffffffffffffffffffffffffffffffffffffffffffffffffffffffffffffffff\n        /* \"#utility.yul\":5901:5975   */\n      sub\n        /* \"#utility.yul\":5898:5899   */\n      dup3\n        /* \"#utility.yul\":5895:5976   */\n      gt\n        /* \"#utility.yul\":5892:5999   */\n      iszero\n      tag_201\n      jumpi\n        /* \"#utility.yul\":5979:5997   */\n      tag_202\n      tag_127\n      jump\t// in\n    tag_202:\n        /* \"#utility.yul\":5892:5999   */\n    tag_201:\n        /* \"#utility.yul\":6023:6024   */\n      dup3\n        /* \"#utility.yul\":6020:6021   */\n      dup3\n        /* \"#utility.yul\":6016:6025   */\n      add\n        /* \"#utility.yul\":6009:6025   */\n      swap1\n      pop\n        /* \"#utility.yul\":5726:6031   */\n      swap3\n      swap2\n      pop\n      pop\n      jump\t// out\n        /* \"#utility.yul\":6037:6211   */\n    tag_128:\n        /* \"#utility.yul\":6177:6203   */\n      0x416c6c20746f6b656e7320686173206265656e20736f6c640000000000000000\n        /* \"#utility.yul\":6173:6174   */\n      0x00\n        /* \"#utility.yul\":6165:6171   */\n      dup3\n        /* \"#utility.yul\":6161:6175   */\n      add\n        /* \"#utility.yul\":6154:6204   */\n      mstore\n        /* \"#utility.yul\":6037:6211   */\n      pop\n      jump\t// out\n        /* \"#utility.yul\":6217:6583   */\n    tag_129:\n        /* \"#utility.yul\":6359:6362   */\n      0x00\n        /* \"#utility.yul\":6380:6447   */\n      tag_205\n        /* \"#utility.yul\":6444:6446   */\n      0x18\n        /* \"#utility.yul\":6439:6442   */\n      dup4\n        /* \"#utility.yul\":6380:6447   */\n      tag_120\n      jump\t// in\n    tag_205:\n        /* \"#utility.yul\":6373:6447   */\n      swap2\n      pop\n        /* \"#utility.yul\":6456:6549   */\n      tag_206\n        /* \"#utility.yul\":6545:6548   */\n      dup3\n        /* \"#utility.yul\":6456:6549   */\n      tag_128\n      jump\t// in\n    tag_206:\n        /* \"#utility.yul\":6574:6576   */\n      0x20\n        /* \"#utility.yul\":6569:6572   */\n      dup3\n        /* \"#utility.yul\":6565:6577   */\n      add\n        /* \"#utility.yul\":6558:6577   */\n      swap1\n      pop\n        /* \"#utility.yul\":6217:6583   */\n      swap2\n      swap1\n      pop\n      jump\t// out\n        /* \"#utility.yul\":6589:7008   */\n    tag_50:\n        /* \"#utility.yul\":6755:6759   */\n      0x00\n        /* \"#utility.yul\":6793:6795   */\n      0x20\n        /* \"#utility.yul\":6782:6791   */\n      dup3\n        /* \"#utility.yul\":6778:6796   */\n      add\n        /* \"#utility.yul\":6770:6796   */\n      swap1\n      pop\n        /* \"#utility.yul\":6842:6851   */\n      dup2\n        /* \"#utility.yul\":6836:6840   */\n      dup2\n        /* \"#utility.yul\":6832:6852   */\n      sub\n        /* \"#utility.yul\":6828:6829   */\n      0x00\n        /* \"#utility.yul\":6817:6826   */\n      dup4\n        /* \"#utility.yul\":6813:6830   */\n      add\n        /* \"#utility.yul\":6806:6853   */\n      mstore\n        /* \"#utility.yul\":6870:7001   */\n      tag_208\n        /* \"#utility.yul\":6996:7000   */\n      dup2\n        /* \"#utility.yul\":6870:7001   */\n      tag_129\n      jump\t// in\n    tag_208:\n        /* \"#utility.yul\":6862:7001   */\n      swap1\n      pop\n        /* \"#utility.yul\":6589:7008   */\n      swap2\n      swap1\n      pop\n      jump\t// out\n        /* \"#utility.yul\":7014:7346   */\n    tag_52:\n        /* \"#utility.yul\":7135:7139   */\n      0x00\n        /* \"#utility.yul\":7173:7175   */\n      0x40\n        /* \"#utility.yul\":7162:7171   */\n      dup3\n        /* \"#utility.yul\":7158:7176   */\n      add\n        /* \"#utility.yul\":7150:7176   */\n      swap1\n      pop\n        /* \"#utility.yul\":7186:7257   */\n      tag_210\n        /* \"#utility.yul\":7254:7255   */\n      0x00\n        /* \"#utility.yul\":7243:7252   */\n      dup4\n        /* \"#utility.yul\":7239:7256   */\n      add\n        /* \"#utility.yul\":7230:7236   */\n      dup6\n        /* \"#utility.yul\":7186:7257   */\n      tag_112\n      jump\t// in\n    tag_210:\n        /* \"#utility.yul\":7267:7339   */\n      tag_211\n        /* \"#utility.yul\":7335:7337   */\n      0x20\n        /* \"#utility.yul\":7324:7333   */\n      dup4\n        /* \"#utility.yul\":7320:7338   */\n      add\n        /* \"#utility.yul\":7311:7317   */\n      dup5\n        /* \"#utility.yul\":7267:7339   */\n      tag_114\n      jump\t// in\n    tag_211:\n        /* \"#utility.yul\":7014:7346   */\n      swap4\n      swap3\n      pop\n      pop\n      pop\n      jump\t// out\n        /* \"#utility.yul\":7352:7442   */\n    tag_130:\n        /* \"#utility.yul\":7386:7393   */\n      0x00\n        /* \"#utility.yul\":7429:7434   */\n      dup2\n        /* \"#utility.yul\":7422:7435   */\n      iszero\n        /* \"#utility.yul\":7415:7436   */\n      iszero\n        /* \"#utility.yul\":7404:7436   */\n      swap1\n      pop\n        /* \"#utility.yul\":7352:7442   */\n      swap2\n      swap1\n      pop\n      jump\t// out\n        /* \"#utility.yul\":7448:7564   */\n    tag_131:\n        /* \"#utility.yul\":7518:7539   */\n      tag_214\n        /* \"#utility.yul\":7533:7538   */\n      dup2\n        /* \"#utility.yul\":7518:7539   */\n      tag_130\n      jump\t// in\n    tag_214:\n        /* \"#utility.yul\":7511:7516   */\n      dup2\n        /* \"#utility.yul\":7508:7540   */\n      eq\n        /* \"#utility.yul\":7498:7558   */\n      tag_215\n      jumpi\n        /* \"#utility.yul\":7554:7555   */\n      0x00\n        /* \"#utility.yul\":7551:7552   */\n      dup1\n        /* \"#utility.yul\":7544:7556   */\n      revert\n        /* \"#utility.yul\":7498:7558   */\n    tag_215:\n        /* \"#utility.yul\":7448:7564   */\n      pop\n      jump\t// out\n        /* \"#utility.yul\":7570:7707   */\n    tag_132:\n        /* \"#utility.yul\":7624:7629   */\n      0x00\n        /* \"#utility.yul\":7655:7661   */\n      dup2\n        /* \"#utility.yul\":7649:7662   */\n      mload\n        /* \"#utility.yul\":7640:7662   */\n      swap1\n      pop\n        /* \"#utility.yul\":7671:7701   */\n      tag_217\n        /* \"#utility.yul\":7695:7700   */\n      dup2\n        /* \"#utility.yul\":7671:7701   */\n      tag_131\n      jump\t// in\n    tag_217:\n        /* \"#utility.yul\":7570:7707   */\n      swap3\n      swap2\n      pop\n      pop\n      jump\t// out\n        /* \"#utility.yul\":7713:8058   */\n    tag_56:\n        /* \"#utility.yul\":7780:7786   */\n      0x00\n        /* \"#utility.yul\":7829:7831   */\n      0x20\n        /* \"#utility.yul\":7817:7826   */\n      dup3\n        /* \"#utility.yul\":7808:7815   */\n      dup5\n        /* \"#utility.yul\":7804:7827   */\n      sub\n        /* \"#utility.yul\":7800:7832   */\n      slt\n        /* \"#utility.yul\":7797:7916   */\n      iszero\n      tag_219\n      jumpi\n        /* \"#utility.yul\":7835:7914   */\n      tag_220\n      tag_116\n      jump\t// in\n    tag_220:\n        /* \"#utility.yul\":7797:7916   */\n    tag_219:\n        /* \"#utility.yul\":7955:7956   */\n      0x00\n        /* \"#utility.yul\":7980:8041   */\n      tag_221\n        /* \"#utility.yul\":8033:8040   */\n      dup5\n        /* \"#utility.yul\":8024:8030   */\n      dup3\n        /* \"#utility.yul\":8013:8022   */\n      dup6\n        /* \"#utility.yul\":8009:8031   */\n      add\n        /* \"#utility.yul\":7980:8041   */\n      tag_132\n      jump\t// in\n    tag_221:\n        /* \"#utility.yul\":7970:8041   */\n      swap2\n      pop\n        /* \"#utility.yul\":7926:8051   */\n      pop\n        /* \"#utility.yul\":7713:8058   */\n      swap3\n      swap2\n      pop\n      pop\n      jump\t// out\n        /* \"#utility.yul\":8064:8396   */\n    tag_65:\n        /* \"#utility.yul\":8185:8189   */\n      0x00\n        /* \"#utility.yul\":8223:8225   */\n      0x40\n        /* \"#utility.yul\":8212:8221   */\n      dup3\n        /* \"#utility.yul\":8208:8226   */\n      add\n        /* \"#utility.yul\":8200:8226   */\n      swap1\n      pop\n        /* \"#utility.yul\":8236:8307   */\n      tag_223\n        /* \"#utility.yul\":8304:8305   */\n      0x00\n        /* \"#utility.yul\":8293:8302   */\n      dup4\n        /* \"#utility.yul\":8289:8306   */\n      add\n        /* \"#utility.yul\":8280:8286   */\n      dup6\n        /* \"#utility.yul\":8236:8307   */\n      tag_114\n      jump\t// in\n    tag_223:\n        /* \"#utility.yul\":8317:8389   */\n      tag_224\n        /* \"#utility.yul\":8385:8387   */\n      0x20\n        /* \"#utility.yul\":8374:8383   */\n      dup4\n        /* \"#utility.yul\":8370:8388   */\n      add\n        /* \"#utility.yul\":8361:8367   */\n      dup5\n        /* \"#utility.yul\":8317:8389   */\n      tag_114\n      jump\t// in\n    tag_224:\n        /* \"#utility.yul\":8064:8396   */\n      swap4\n      swap3\n      pop\n      pop\n      pop\n      jump\t// out\n        /* \"#utility.yul\":8402:8561   */\n    tag_133:\n        /* \"#utility.yul\":8542:8553   */\n      0x49434f206973206f6e0000000000000000000000000000000000000000000000\n        /* \"#utility.yul\":8538:8539   */\n      0x00\n        /* \"#utility.yul\":8530:8536   */\n      dup3\n        /* \"#utility.yul\":8526:8540   */\n      add\n        /* \"#utility.yul\":8519:8554   */\n      mstore\n        /* \"#utility.yul\":8402:8561   */\n      pop\n      jump\t// out\n        /* \"#utility.yul\":8567:8932   */\n    tag_134:\n        /* \"#utility.yul\":8709:8712   */\n      0x00\n        /* \"#utility.yul\":8730:8796   */\n      tag_227\n        /* \"#utility.yul\":8794:8795   */\n      0x09\n        /* \"#utility.yul\":8789:8792   */\n      dup4\n        /* \"#utility.yul\":8730:8796   */\n      tag_120\n      jump\t// in\n    tag_227:\n        /* \"#utility.yul\":8723:8796   */\n      swap2\n      pop\n        /* \"#utility.yul\":8805:8898   */\n      tag_228\n        /* \"#utility.yul\":8894:8897   */\n      dup3\n        /* \"#utility.yul\":8805:8898   */\n      tag_133\n      jump\t// in\n    tag_228:\n        /* \"#utility.yul\":8923:8925   */\n      0x20\n        /* \"#utility.yul\":8918:8921   */\n      dup3\n        /* \"#utility.yul\":8914:8926   */\n      add\n        /* \"#utility.yul\":8907:8926   */\n      swap1\n      pop\n        /* \"#utility.yul\":8567:8932   */\n      swap2\n      swap1\n      pop\n      jump\t// out\n        /* \"#utility.yul\":8938:9357   */\n    tag_69:\n        /* \"#utility.yul\":9104:9108   */\n      0x00\n        /* \"#utility.yul\":9142:9144   */\n      0x20\n        /* \"#utility.yul\":9131:9140   */\n      dup3\n        /* \"#utility.yul\":9127:9145   */\n      add\n        /* \"#utility.yul\":9119:9145   */\n      swap1\n      pop\n        /* \"#utility.yul\":9191:9200   */\n      dup2\n        /* \"#utility.yul\":9185:9189   */\n      dup2\n        /* \"#utility.yul\":9181:9201   */\n      sub\n        /* \"#utility.yul\":9177:9178   */\n      0x00\n        /* \"#utility.yul\":9166:9175   */\n      dup4\n        /* \"#utility.yul\":9162:9179   */\n      add\n        /* \"#utility.yul\":9155:9202   */\n      mstore\n        /* \"#utility.yul\":9219:9350   */\n      tag_230\n        /* \"#utility.yul\":9345:9349   */\n      dup2\n        /* \"#utility.yul\":9219:9350   */\n      tag_134\n      jump\t// in\n    tag_230:\n        /* \"#utility.yul\":9211:9350   */\n      swap1\n      pop\n        /* \"#utility.yul\":8938:9357   */\n      swap2\n      swap1\n      pop\n      jump\t// out\n        /* \"#utility.yul\":9363:9805   */\n    tag_73:\n        /* \"#utility.yul\":9512:9516   */\n      0x00\n        /* \"#utility.yul\":9550:9552   */\n      0x60\n        /* \"#utility.yul\":9539:9548   */\n      dup3\n        /* \"#utility.yul\":9535:9553   */\n      add\n        /* \"#utility.yul\":9527:9553   */\n      swap1\n      pop\n        /* \"#utility.yul\":9563:9634   */\n      tag_232\n        /* \"#utility.yul\":9631:9632   */\n      0x00\n        /* \"#utility.yul\":9620:9629   */\n      dup4\n        /* \"#utility.yul\":9616:9633   */\n      add\n        /* \"#utility.yul\":9607:9613   */\n      dup7\n        /* \"#utility.yul\":9563:9634   */\n      tag_112\n      jump\t// in\n    tag_232:\n        /* \"#utility.yul\":9644:9716   */\n      tag_233\n        /* \"#utility.yul\":9712:9714   */\n      0x20\n        /* \"#utility.yul\":9701:9710   */\n      dup4\n        /* \"#utility.yul\":9697:9715   */\n      add\n        /* \"#utility.yul\":9688:9694   */\n      dup6\n        /* \"#utility.yul\":9644:9716   */\n      tag_112\n      jump\t// in\n    tag_233:\n        /* \"#utility.yul\":9726:9798   */\n      tag_234\n        /* \"#utility.yul\":9794:9796   */\n      0x40\n        /* \"#utility.yul\":9783:9792   */\n      dup4\n        /* \"#utility.yul\":9779:9797   */\n      add\n        /* \"#utility.yul\":9770:9776   */\n      dup5\n        /* \"#utility.yul\":9726:9798   */\n      tag_114\n      jump\t// in\n    tag_234:\n        /* \"#utility.yul\":9363:9805   */\n      swap5\n      swap4\n      pop\n      pop\n      pop\n      pop\n      jump\t// out\n        /* \"#utility.yul\":9811:10040   */\n    tag_135:\n        /* \"#utility.yul\":9951:9985   */\n      0x5361666545524332303a204552433230206f7065726174696f6e20646964206e\n        /* \"#utility.yul\":9947:9948   */\n      0x00\n        /* \"#utility.yul\":9939:9945   */\n      dup3\n        /* \"#utility.yul\":9935:9949   */\n      add\n        /* \"#utility.yul\":9928:9986   */\n      mstore\n        /* \"#utility.yul\":10020:10032   */\n      0x6f74207375636365656400000000000000000000000000000000000000000000\n        /* \"#utility.yul\":10015:10017   */\n      0x20\n        /* \"#utility.yul\":10007:10013   */\n      dup3\n        /* \"#utility.yul\":10003:10018   */\n      add\n        /* \"#utility.yul\":9996:10033   */\n      mstore\n        /* \"#utility.yul\":9811:10040   */\n      pop\n      jump\t// out\n        /* \"#utility.yul\":10046:10412   */\n    tag_136:\n        /* \"#utility.yul\":10188:10191   */\n      0x00\n        /* \"#utility.yul\":10209:10276   */\n      tag_237\n        /* \"#utility.yul\":10273:10275   */\n      0x2a\n        /* \"#utility.yul\":10268:10271   */\n      dup4\n        /* \"#utility.yul\":10209:10276   */\n      tag_120\n      jump\t// in\n    tag_237:\n        /* \"#utility.yul\":10202:10276   */\n      swap2\n      pop\n        /* \"#utility.yul\":10285:10378   */\n      tag_238\n        /* \"#utility.yul\":10374:10377   */\n      dup3\n        /* \"#utility.yul\":10285:10378   */\n      tag_135\n      jump\t// in\n    tag_238:\n        /* \"#utility.yul\":10403:10405   */\n      0x40\n        /* \"#utility.yul\":10398:10401   */\n      dup3\n        /* \"#utility.yul\":10394:10406   */\n      add\n        /* \"#utility.yul\":10387:10406   */\n      swap1\n      pop\n        /* \"#utility.yul\":10046:10412   */\n      swap2\n      swap1\n      pop\n      jump\t// out\n        /* \"#utility.yul\":10418:10837   */\n    tag_82:\n        /* \"#utility.yul\":10584:10588   */\n      0x00\n        /* \"#utility.yul\":10622:10624   */\n      0x20\n        /* \"#utility.yul\":10611:10620   */\n      dup3\n        /* \"#utility.yul\":10607:10625   */\n      add\n        /* \"#utility.yul\":10599:10625   */\n      swap1\n      pop\n        /* \"#utility.yul\":10671:10680   */\n      dup2\n        /* \"#utility.yul\":10665:10669   */\n      dup2\n        /* \"#utility.yul\":10661:10681   */\n      sub\n        /* \"#utility.yul\":10657:10658   */\n      0x00\n        /* \"#utility.yul\":10646:10655   */\n      dup4\n        /* \"#utility.yul\":10642:10659   */\n      add\n        /* \"#utility.yul\":10635:10682   */\n      mstore\n        /* \"#utility.yul\":10699:10830   */\n      tag_240\n        /* \"#utility.yul\":10825:10829   */\n      dup2\n        /* \"#utility.yul\":10699:10830   */\n      tag_136\n      jump\t// in\n    tag_240:\n        /* \"#utility.yul\":10691:10830   */\n      swap1\n      pop\n        /* \"#utility.yul\":10418:10837   */\n      swap2\n      swap1\n      pop\n      jump\t// out\n        /* \"#utility.yul\":10843:11068   */\n    tag_137:\n        /* \"#utility.yul\":10983:11017   */\n      0x416464726573733a20696e73756666696369656e742062616c616e636520666f\n        /* \"#utility.yul\":10979:10980   */\n      0x00\n        /* \"#utility.yul\":10971:10977   */\n      dup3\n        /* \"#utility.yul\":10967:10981   */\n      add\n        /* \"#utility.yul\":10960:11018   */\n      mstore\n        /* \"#utility.yul\":11052:11060   */\n      0x722063616c6c0000000000000000000000000000000000000000000000000000\n        /* \"#utility.yul\":11047:11049   */\n      0x20\n        /* \"#utility.yul\":11039:11045   */\n      dup3\n        /* \"#utility.yul\":11035:11050   */\n      add\n        /* \"#utility.yul\":11028:11061   */\n      mstore\n        /* \"#utility.yul\":10843:11068   */\n      pop\n      jump\t// out\n        /* \"#utility.yul\":11074:11440   */\n    tag_138:\n        /* \"#utility.yul\":11216:11219   */\n      0x00\n        /* \"#utility.yul\":11237:11304   */\n      tag_243\n        /* \"#utility.yul\":11301:11303   */\n      0x26\n        /* \"#utility.yul\":11296:11299   */\n      dup4\n        /* \"#utility.yul\":11237:11304   */\n      tag_120\n      jump\t// in\n    tag_243:\n        /* \"#utility.yul\":11230:11304   */\n      swap2\n      pop\n        /* \"#utility.yul\":11313:11406   */\n      tag_244\n        /* \"#utility.yul\":11402:11405   */\n      dup3\n        /* \"#utility.yul\":11313:11406   */\n      tag_137\n      jump\t// in\n    tag_244:\n        /* \"#utility.yul\":11431:11433   */\n      0x40\n        /* \"#utility.yul\":11426:11429   */\n      dup3\n        /* \"#utility.yul\":11422:11434   */\n      add\n        /* \"#utility.yul\":11415:11434   */\n      swap1\n      pop\n        /* \"#utility.yul\":11074:11440   */\n      swap2\n      swap1\n      pop\n      jump\t// out\n        /* \"#utility.yul\":11446:11865   */\n    tag_89:\n        /* \"#utility.yul\":11612:11616   */\n      0x00\n        /* \"#utility.yul\":11650:11652   */\n      0x20\n        /* \"#utility.yul\":11639:11648   */\n      dup3\n        /* \"#utility.yul\":11635:11653   */\n      add\n        /* \"#utility.yul\":11627:11653   */\n      swap1\n      pop\n        /* \"#utility.yul\":11699:11708   */\n      dup2\n        /* \"#utility.yul\":11693:11697   */\n      dup2\n        /* \"#utility.yul\":11689:11709   */\n      sub\n        /* \"#utility.yul\":11685:11686   */\n      0x00\n        /* \"#utility.yul\":11674:11683   */\n      dup4\n        /* \"#utility.yul\":11670:11687   */\n      add\n        /* \"#utility.yul\":11663:11710   */\n      mstore\n        /* \"#utility.yul\":11727:11858   */\n      tag_246\n        /* \"#utility.yul\":11853:11857   */\n      dup2\n        /* \"#utility.yul\":11727:11858   */\n      tag_138\n      jump\t// in\n    tag_246:\n        /* \"#utility.yul\":11719:11858   */\n      swap1\n      pop\n        /* \"#utility.yul\":11446:11865   */\n      swap2\n      swap1\n      pop\n      jump\t// out\n        /* \"#utility.yul\":11871:12050   */\n    tag_139:\n        /* \"#utility.yul\":12011:12042   */\n      0x416464726573733a2063616c6c20746f206e6f6e2d636f6e7472616374000000\n        /* \"#utility.yul\":12007:12008   */\n      0x00\n        /* \"#utility.yul\":11999:12005   */\n      dup3\n        /* \"#utility.yul\":11995:12009   */\n      add\n        /* \"#utility.yul\":11988:12043   */\n      mstore\n        /* \"#utility.yul\":11871:12050   */\n      pop\n      jump\t// out\n        /* \"#utility.yul\":12056:12422   */\n    tag_140:\n        /* \"#utility.yul\":12198:12201   */\n      0x00\n        /* \"#utility.yul\":12219:12286   */\n      tag_249\n        /* \"#utility.yul\":12283:12285   */\n      0x1d\n        /* \"#utility.yul\":12278:12281   */\n      dup4\n        /* \"#utility.yul\":12219:12286   */\n      tag_120\n      jump\t// in\n    tag_249:\n        /* \"#utility.yul\":12212:12286   */\n      swap2\n      pop\n        /* \"#utility.yul\":12295:12388   */\n      tag_250\n        /* \"#utility.yul\":12384:12387   */\n      dup3\n        /* \"#utility.yul\":12295:12388   */\n      tag_139\n      jump\t// in\n    tag_250:\n        /* \"#utility.yul\":12413:12415   */\n      0x20\n        /* \"#utility.yul\":12408:12411   */\n      dup3\n        /* \"#utility.yul\":12404:12416   */\n      add\n        /* \"#utility.yul\":12397:12416   */\n      swap1\n      pop\n        /* \"#utility.yul\":12056:12422   */\n      swap2\n      swap1\n      pop\n      jump\t// out\n        /* \"#utility.yul\":12428:12847   */\n    tag_94:\n        /* \"#utility.yul\":12594:12598   */\n      0x00\n        /* \"#utility.yul\":12632:12634   */\n      0x20\n        /* \"#utility.yul\":12621:12630   */\n      dup3\n        /* \"#utility.yul\":12617:12635   */\n      add\n        /* \"#utility.yul\":12609:12635   */\n      swap1\n      pop\n        /* \"#utility.yul\":12681:12690   */\n      dup2\n        /* \"#utility.yul\":12675:12679   */\n      dup2\n        /* \"#utility.yul\":12671:12691   */\n      sub\n        /* \"#utility.yul\":12667:12668   */\n      0x00\n        /* \"#utility.yul\":12656:12665   */\n      dup4\n        /* \"#utility.yul\":12652:12669   */\n      add\n        /* \"#utility.yul\":12645:12692   */\n      mstore\n        /* \"#utility.yul\":12709:12840   */\n      tag_252\n        /* \"#utility.yul\":12835:12839   */\n      dup2\n        /* \"#utility.yul\":12709:12840   */\n      tag_140\n      jump\t// in\n    tag_252:\n        /* \"#utility.yul\":12701:12840   */\n      swap1\n      pop\n        /* \"#utility.yul\":12428:12847   */\n      swap2\n      swap1\n      pop\n      jump\t// out\n        /* \"#utility.yul\":12853:12951   */\n    tag_141:\n        /* \"#utility.yul\":12904:12910   */\n      0x00\n        /* \"#utility.yul\":12938:12943   */\n      dup2\n        /* \"#utility.yul\":12932:12944   */\n      mload\n        /* \"#utility.yul\":12922:12944   */\n      swap1\n      pop\n        /* \"#utility.yul\":12853:12951   */\n      swap2\n      swap1\n      pop\n      jump\t// out\n        /* \"#utility.yul\":12957:13104   */\n    tag_142:\n        /* \"#utility.yul\":13058:13069   */\n      0x00\n        /* \"#utility.yul\":13095:13098   */\n      dup2\n        /* \"#utility.yul\":13080:13098   */\n      swap1\n      pop\n        /* \"#utility.yul\":12957:13104   */\n      swap3\n      swap2\n      pop\n      pop\n      jump\t// out\n        /* \"#utility.yul\":13110:13417   */\n    tag_143:\n        /* \"#utility.yul\":13178:13179   */\n      0x00\n        /* \"#utility.yul\":13188:13301   */\n    tag_256:\n        /* \"#utility.yul\":13202:13208   */\n      dup4\n        /* \"#utility.yul\":13199:13200   */\n      dup2\n        /* \"#utility.yul\":13196:13209   */\n      lt\n        /* \"#utility.yul\":13188:13301   */\n      iszero\n      tag_258\n      jumpi\n        /* \"#utility.yul\":13287:13288   */\n      dup1\n        /* \"#utility.yul\":13282:13285   */\n      dup3\n        /* \"#utility.yul\":13278:13289   */\n      add\n        /* \"#utility.yul\":13272:13290   */\n      mload\n        /* \"#utility.yul\":13268:13269   */\n      dup2\n        /* \"#utility.yul\":13263:13266   */\n      dup5\n        /* \"#utility.yul\":13259:13270   */\n      add\n        /* \"#utility.yul\":13252:13291   */\n      mstore\n        /* \"#utility.yul\":13224:13226   */\n      0x20\n        /* \"#utility.yul\":13221:13222   */\n      dup2\n        /* \"#utility.yul\":13217:13227   */\n      add\n        /* \"#utility.yul\":13212:13227   */\n      swap1\n      pop\n        /* \"#utility.yul\":13188:13301   */\n      jump(tag_256)\n    tag_258:\n        /* \"#utility.yul\":13319:13325   */\n      dup4\n        /* \"#utility.yul\":13316:13317   */\n      dup2\n        /* \"#utility.yul\":13313:13326   */\n      gt\n        /* \"#utility.yul\":13310:13411   */\n      iszero\n      tag_259\n      jumpi\n        /* \"#utility.yul\":13399:13400   */\n      0x00\n        /* \"#utility.yul\":13390:13396   */\n      dup5\n        /* \"#utility.yul\":13385:13388   */\n      dup5\n        /* \"#utility.yul\":13381:13397   */\n      add\n        /* \"#utility.yul\":13374:13401   */\n      mstore\n        /* \"#utility.yul\":13310:13411   */\n    tag_259:\n        /* \"#utility.yul\":13159:13417   */\n      pop\n        /* \"#utility.yul\":13110:13417   */\n      pop\n      pop\n      pop\n      jump\t// out\n        /* \"#utility.yul\":13423:13796   */\n    tag_144:\n        /* \"#utility.yul\":13527:13530   */\n      0x00\n        /* \"#utility.yul\":13555:13593   */\n      tag_261\n        /* \"#utility.yul\":13587:13592   */\n      dup3\n        /* \"#utility.yul\":13555:13593   */\n      tag_141\n      jump\t// in\n    tag_261:\n        /* \"#utility.yul\":13609:13697   */\n      tag_262\n        /* \"#utility.yul\":13690:13696   */\n      dup2\n        /* \"#utility.yul\":13685:13688   */\n      dup6\n        /* \"#utility.yul\":13609:13697   */\n      tag_142\n      jump\t// in\n    tag_262:\n        /* \"#utility.yul\":13602:13697   */\n      swap4\n      pop\n        /* \"#utility.yul\":13706:13758   */\n      tag_263\n        /* \"#utility.yul\":13751:13757   */\n      dup2\n        /* \"#utility.yul\":13746:13749   */\n      dup6\n        /* \"#utility.yul\":13739:13743   */\n      0x20\n        /* \"#utility.yul\":13732:13737   */\n      dup7\n        /* \"#utility.yul\":13728:13744   */\n      add\n        /* \"#utility.yul\":13706:13758   */\n      tag_143\n      jump\t// in\n    tag_263:\n        /* \"#utility.yul\":13783:13789   */\n      dup1\n        /* \"#utility.yul\":13778:13781   */\n      dup5\n        /* \"#utility.yul\":13774:13790   */\n      add\n        /* \"#utility.yul\":13767:13790   */\n      swap2\n      pop\n        /* \"#utility.yul\":13531:13796   */\n      pop\n        /* \"#utility.yul\":13423:13796   */\n      swap3\n      swap2\n      pop\n      pop\n      jump\t// out\n        /* \"#utility.yul\":13802:14073   */\n    tag_96:\n        /* \"#utility.yul\":13932:13935   */\n      0x00\n        /* \"#utility.yul\":13954:14047   */\n      tag_265\n        /* \"#utility.yul\":14043:14046   */\n      dup3\n        /* \"#utility.yul\":14034:14040   */\n      dup5\n        /* \"#utility.yul\":13954:14047   */\n      tag_144\n      jump\t// in\n    tag_265:\n        /* \"#utility.yul\":13947:14047   */\n      swap2\n      pop\n        /* \"#utility.yul\":14064:14067   */\n      dup2\n        /* \"#utility.yul\":14057:14067   */\n      swap1\n      pop\n        /* \"#utility.yul\":13802:14073   */\n      swap3\n      swap2\n      pop\n      pop\n      jump\t// out\n        /* \"#utility.yul\":14079:14178   */\n    tag_145:\n        /* \"#utility.yul\":14131:14137   */\n      0x00\n        /* \"#utility.yul\":14165:14170   */\n      dup2\n        /* \"#utility.yul\":14159:14171   */\n      mload\n        /* \"#utility.yul\":14149:14171   */\n      swap1\n      pop\n        /* \"#utility.yul\":14079:14178   */\n      swap2\n      swap1\n      pop\n      jump\t// out\n        /* \"#utility.yul\":14184:14286   */\n    tag_146:\n        /* \"#utility.yul\":14225:14231   */\n      0x00\n        /* \"#utility.yul\":14276:14278   */\n      0x1f\n        /* \"#utility.yul\":14272:14279   */\n      not\n        /* \"#utility.yul\":14267:14269   */\n      0x1f\n        /* \"#utility.yul\":14260:14265   */\n      dup4\n        /* \"#utility.yul\":14256:14270   */\n      add\n        /* \"#utility.yul\":14252:14280   */\n      and\n        /* \"#utility.yul\":14242:14280   */\n      swap1\n      pop\n        /* \"#utility.yul\":14184:14286   */\n      swap2\n      swap1\n      pop\n      jump\t// out\n        /* \"#utility.yul\":14292:14656   */\n    tag_147:\n        /* \"#utility.yul\":14380:14383   */\n      0x00\n        /* \"#utility.yul\":14408:14447   */\n      tag_269\n        /* \"#utility.yul\":14441:14446   */\n      dup3\n        /* \"#utility.yul\":14408:14447   */\n      tag_145\n      jump\t// in\n    tag_269:\n        /* \"#utility.yul\":14463:14534   */\n      tag_270\n        /* \"#utility.yul\":14527:14533   */\n      dup2\n        /* \"#utility.yul\":14522:14525   */\n      dup6\n        /* \"#utility.yul\":14463:14534   */\n      tag_120\n      jump\t// in\n    tag_270:\n        /* \"#utility.yul\":14456:14534   */\n      swap4\n      pop\n        /* \"#utility.yul\":14543:14595   */\n      tag_271\n        /* \"#utility.yul\":14588:14594   */\n      dup2\n        /* \"#utility.yul\":14583:14586   */\n      dup6\n        /* \"#utility.yul\":14576:14580   */\n      0x20\n        /* \"#utility.yul\":14569:14574   */\n      dup7\n        /* \"#utility.yul\":14565:14581   */\n      add\n        /* \"#utility.yul\":14543:14595   */\n      tag_143\n      jump\t// in\n    tag_271:\n        /* \"#utility.yul\":14620:14649   */\n      tag_272\n        /* \"#utility.yul\":14642:14648   */\n      dup2\n        /* \"#utility.yul\":14620:14649   */\n      tag_146\n      jump\t// in\n    tag_272:\n        /* \"#utility.yul\":14615:14618   */\n      dup5\n        /* \"#utility.yul\":14611:14650   */\n      add\n        /* \"#utility.yul\":14604:14650   */\n      swap2\n      pop\n        /* \"#utility.yul\":14384:14656   */\n      pop\n        /* \"#utility.yul\":14292:14656   */\n      swap3\n      swap2\n      pop\n      pop\n      jump\t// out\n        /* \"#utility.yul\":14662:14975   */\n    tag_109:\n        /* \"#utility.yul\":14775:14779   */\n      0x00\n        /* \"#utility.yul\":14813:14815   */\n      0x20\n        /* \"#utility.yul\":14802:14811   */\n      dup3\n        /* \"#utility.yul\":14798:14816   */\n      add\n        /* \"#utility.yul\":14790:14816   */\n      swap1\n      pop\n        /* \"#utility.yul\":14862:14871   */\n      dup2\n        /* \"#utility.yul\":14856:14860   */\n      dup2\n        /* \"#utility.yul\":14852:14872   */\n      sub\n        /* \"#utility.yul\":14848:14849   */\n      0x00\n        /* \"#utility.yul\":14837:14846   */\n      dup4\n        /* \"#utility.yul\":14833:14850   */\n      add\n        /* \"#utility.yul\":14826:14873   */\n      mstore\n        /* \"#utility.yul\":14890:14968   */\n      tag_274\n        /* \"#utility.yul\":14963:14967   */\n      dup2\n        /* \"#utility.yul\":14954:14960   */\n      dup5\n        /* \"#utility.yul\":14890:14968   */\n      tag_147\n      jump\t// in\n    tag_274:\n        /* \"#utility.yul\":14882:14968   */\n      swap1\n      pop\n        /* \"#utility.yul\":14662:14975   */\n      swap3\n      swap2\n      pop\n      pop\n      jump\t// out\n\n    auxdata: 0xa264697066735822122025e2a687d168eebfdb7c67863aa07e31ec44cfb6c167b9da5141d5bd49b5e5f864736f6c634300080d0033\n}\n",
				"bytecode": {
					"linkReferences": {},
					"object": "60c06040523480156200001157600080fd5b50604051620013ac380380620013ac8339818101604052810190620000379190620001b3565b600160008190555033600260006101000a81548173ffffffffffffffffffffffffffffffffffffffff021916908373ffffffffffffffffffffffffffffffffffffffff160217905550600a846200008f919062000254565b6001819055508273ffffffffffffffffffffffffffffffffffffffff1660808173ffffffffffffffffffffffffffffffffffffffff16815250508173ffffffffffffffffffffffffffffffffffffffff1660a08173ffffffffffffffffffffffffffffffffffffffff16815250508060038190555050505050620002b5565b600080fd5b6000819050919050565b620001288162000113565b81146200013457600080fd5b50565b60008151905062000148816200011d565b92915050565b600073ffffffffffffffffffffffffffffffffffffffff82169050919050565b60006200017b826200014e565b9050919050565b6200018d816200016e565b81146200019957600080fd5b50565b600081519050620001ad8162000182565b92915050565b60008060008060808587031215620001d057620001cf6200010e565b5b6000620001e08782880162000137565b9450506020620001f3878288016200019c565b935050604062000206878288016200019c565b9250506060620002198782880162000137565b91505092959194509250565b7f4e487b7100000000000000000000000000000000000000000000000000000000600052601160045260246000fd5b6000620002618262000113565b91506200026e8362000113565b9250817fffffffffffffffffffffffffffffffffffffffffffffffffffffffffffffffff0483118215151615620002aa57620002a962000225565b5b828202905092915050565b60805160a0516110c3620002e9600039600061012a0152600081816102f90152818161039e015261055301526110c36000f3fe608060405234801561001057600080fd5b506004361061007d5760003560e01c8063c2db2c421161005b578063c2db2c42146100c8578063c3a17441146100e4578063c54e44eb14610100578063dc55920f1461011e5761007d565b80636385f2fb1461008257806376d812ea146100a05780637ff9b596146100aa575b600080fd5b61008a610128565b6040516100979190610968565b60405180910390f35b6100a861014c565b005b6100b26101f8565b6040516100bf919061099c565b60405180910390f35b6100e260048036038101906100dd91906109e8565b6101fe565b005b6100fe60048036038101906100f99190610a15565b6104ac565b005b610108610551565b6040516101159190610968565b60405180910390f35b610126610575565b005b7f000000000000000000000000000000000000000000000000000000000000000081565b600260009054906101000a900473ffffffffffffffffffffffffffffffffffffffff1673ffffffffffffffffffffffffffffffffffffffff163373ffffffffffffffffffffffffffffffffffffffff16146101a657600080fd5b6000600260146101000a81548160ff0219169083151502179055507f71002079ab3de7feb03ee30c84baf1d2350d4ffe16709d3dacb5e1037a0fe1cc6040516101ee90610ab2565b60405180910390a1565b60015481565b600260005403610243576040517f08c379a000000000000000000000000000000000000000000000000000000000815260040161023a90610b1e565b60405180910390fd5b600260008190555060011515600260149054906101000a900460ff161515146102a1576040517f08c379a000000000000000000000000000000000000000000000000000000000815260040161029890610b8a565b60405180910390fd5b6000816004546102b19190610bd9565b905060035481106102f7576040517f08c379a00000000000000000000000000000000000000000000000000000000081526004016102ee90610c7b565b60405180910390fd5b7f000000000000000000000000000000000000000000000000000000000000000073ffffffffffffffffffffffffffffffffffffffff1663095ea7b330846040518363ffffffff1660e01b8152600401610352929190610c9b565b6020604051808303816000875af1158015610371573d6000803e3d6000fd5b505050506040513d601f19601f820116820180604052508101906103959190610cfc565b506103e33330847f000000000000000000000000000000000000000000000000000000000000000073ffffffffffffffffffffffffffffffffffffffff16610621909392919063ffffffff16565b81600560003373ffffffffffffffffffffffffffffffffffffffff1673ffffffffffffffffffffffffffffffffffffffff16815260200190815260200160002060008282546104329190610bd9565b92505081905550816004600082825461044b9190610bd9565b925050819055503373ffffffffffffffffffffffffffffffffffffffff167fda4cadf0d4383cb43c8249e3cc678f6690bdbaa01421c99fd9b14edac62cde8083604051610498919061099c565b60405180910390a250600160008190555050565b600260009054906101000a900473ffffffffffffffffffffffffffffffffffffffff1673ffffffffffffffffffffffffffffffffffffffff163373ffffffffffffffffffffffffffffffffffffffff161461050657600080fd5b81600181905550806003819055507f314bf1ccc32c608a6175053b0da1933b3a745b3f799011003a4c39aab0c518a38282604051610545929190610d29565b60405180910390a15050565b7f000000000000000000000000000000000000000000000000000000000000000081565b600260009054906101000a900473ffffffffffffffffffffffffffffffffffffffff1673ffffffffffffffffffffffffffffffffffffffff163373ffffffffffffffffffffffffffffffffffffffff16146105cf57600080fd5b6001600260146101000a81548160ff0219169083151502179055507f71002079ab3de7feb03ee30c84baf1d2350d4ffe16709d3dacb5e1037a0fe1cc60405161061790610d9e565b60405180910390a1565b6106a4846323b872dd60e01b85858560405160240161064293929190610dbe565b604051602081830303815290604052907bffffffffffffffffffffffffffffffffffffffffffffffffffffffff19166020820180517bffffffffffffffffffffffffffffffffffffffffffffffffffffffff83818316178352505050506106aa565b50505050565b600061070c826040518060400160405280602081526020017f5361666545524332303a206c6f772d6c6576656c2063616c6c206661696c65648152508573ffffffffffffffffffffffffffffffffffffffff166107719092919063ffffffff16565b905060008151111561076c578080602001905181019061072c9190610cfc565b61076b576040517f08c379a000000000000000000000000000000000000000000000000000000000815260040161076290610e67565b60405180910390fd5b5b505050565b60606107808484600085610789565b90509392505050565b6060824710156107ce576040517f08c379a00000000000000000000000000000000000000000000000000000000081526004016107c590610ef9565b60405180910390fd5b6107d78561089d565b610816576040517f08c379a000000000000000000000000000000000000000000000000000000000815260040161080d90610f65565b60405180910390fd5b6000808673ffffffffffffffffffffffffffffffffffffffff16858760405161083f9190610fff565b60006040518083038185875af1925050503d806000811461087c576040519150601f19603f3d011682016040523d82523d6000602084013e610881565b606091505b50915091506108918282866108c0565b92505050949350505050565b6000808273ffffffffffffffffffffffffffffffffffffffff163b119050919050565b606083156108d057829050610920565b6000835111156108e35782518084602001fd5b816040517f08c379a0000000000000000000000000000000000000000000000000000000008152600401610917919061106b565b60405180910390fd5b9392505050565b600073ffffffffffffffffffffffffffffffffffffffff82169050919050565b600061095282610927565b9050919050565b61096281610947565b82525050565b600060208201905061097d6000830184610959565b92915050565b6000819050919050565b61099681610983565b82525050565b60006020820190506109b1600083018461098d565b92915050565b600080fd5b6109c581610983565b81146109d057600080fd5b50565b6000813590506109e2816109bc565b92915050565b6000602082840312156109fe576109fd6109b7565b5b6000610a0c848285016109d3565b91505092915050565b60008060408385031215610a2c57610a2b6109b7565b5b6000610a3a858286016109d3565b9250506020610a4b858286016109d3565b9150509250929050565b600082825260208201905092915050565b7f49434f2069732070617573656400000000000000000000000000000000000000600082015250565b6000610a9c600d83610a55565b9150610aa782610a66565b602082019050919050565b60006020820190508181036000830152610acb81610a8f565b9050919050565b7f5265656e7472616e637947756172643a207265656e7472616e742063616c6c00600082015250565b6000610b08601f83610a55565b9150610b1382610ad2565b602082019050919050565b60006020820190508181036000830152610b3781610afb565b9050919050565b7f49444f20686173206e6f74207374617274656400000000000000000000000000600082015250565b6000610b74601383610a55565b9150610b7f82610b3e565b602082019050919050565b60006020820190508181036000830152610ba381610b67565b9050919050565b7f4e487b7100000000000000000000000000000000000000000000000000000000600052601160045260246000fd5b6000610be482610983565b9150610bef83610983565b9250827fffffffffffffffffffffffffffffffffffffffffffffffffffffffffffffffff03821115610c2457610c23610baa565b5b828201905092915050565b7f416c6c20746f6b656e7320686173206265656e20736f6c640000000000000000600082015250565b6000610c65601883610a55565b9150610c7082610c2f565b602082019050919050565b60006020820190508181036000830152610c9481610c58565b9050919050565b6000604082019050610cb06000830185610959565b610cbd602083018461098d565b9392505050565b60008115159050919050565b610cd981610cc4565b8114610ce457600080fd5b50565b600081519050610cf681610cd0565b92915050565b600060208284031215610d1257610d116109b7565b5b6000610d2084828501610ce7565b91505092915050565b6000604082019050610d3e600083018561098d565b610d4b602083018461098d565b9392505050565b7f49434f206973206f6e0000000000000000000000000000000000000000000000600082015250565b6000610d88600983610a55565b9150610d9382610d52565b602082019050919050565b60006020820190508181036000830152610db781610d7b565b9050919050565b6000606082019050610dd36000830186610959565b610de06020830185610959565b610ded604083018461098d565b949350505050565b7f5361666545524332303a204552433230206f7065726174696f6e20646964206e60008201527f6f74207375636365656400000000000000000000000000000000000000000000602082015250565b6000610e51602a83610a55565b9150610e5c82610df5565b604082019050919050565b60006020820190508181036000830152610e8081610e44565b9050919050565b7f416464726573733a20696e73756666696369656e742062616c616e636520666f60008201527f722063616c6c0000000000000000000000000000000000000000000000000000602082015250565b6000610ee3602683610a55565b9150610eee82610e87565b604082019050919050565b60006020820190508181036000830152610f1281610ed6565b9050919050565b7f416464726573733a2063616c6c20746f206e6f6e2d636f6e7472616374000000600082015250565b6000610f4f601d83610a55565b9150610f5a82610f19565b602082019050919050565b60006020820190508181036000830152610f7e81610f42565b9050919050565b600081519050919050565b600081905092915050565b60005b83811015610fb9578082015181840152602081019050610f9e565b83811115610fc8576000848401525b50505050565b6000610fd982610f85565b610fe38185610f90565b9350610ff3818560208601610f9b565b80840191505092915050565b600061100b8284610fce565b915081905092915050565b600081519050919050565b6000601f19601f8301169050919050565b600061103d82611016565b6110478185610a55565b9350611057818560208601610f9b565b61106081611021565b840191505092915050565b600060208201905081810360008301526110858184611032565b90509291505056fea264697066735822122025e2a687d168eebfdb7c67863aa07e31ec44cfb6c167b9da5141d5bd49b5e5f864736f6c634300080d0033",
					"opcodes": "PUSH1 0xC0 PUSH1 0x40 MSTORE CALLVALUE DUP1 ISZERO PUSH3 0x11 JUMPI PUSH1 0x0 DUP1 REVERT JUMPDEST POP PUSH1 0x40 MLOAD PUSH3 0x13AC CODESIZE SUB DUP1 PUSH3 0x13AC DUP4 CODECOPY DUP2 DUP2 ADD PUSH1 0x40 MSTORE DUP2 ADD SWAP1 PUSH3 0x37 SWAP2 SWAP1 PUSH3 0x1B3 JUMP JUMPDEST PUSH1 0x1 PUSH1 0x0 DUP2 SWAP1 SSTORE POP CALLER PUSH1 0x2 PUSH1 0x0 PUSH2 0x100 EXP DUP2 SLOAD DUP2 PUSH20 0xFFFFFFFFFFFFFFFFFFFFFFFFFFFFFFFFFFFFFFFF MUL NOT AND SWAP1 DUP4 PUSH20 0xFFFFFFFFFFFFFFFFFFFFFFFFFFFFFFFFFFFFFFFF AND MUL OR SWAP1 SSTORE POP PUSH1 0xA DUP5 PUSH3 0x8F SWAP2 SWAP1 PUSH3 0x254 JUMP JUMPDEST PUSH1 0x1 DUP2 SWAP1 SSTORE POP DUP3 PUSH20 0xFFFFFFFFFFFFFFFFFFFFFFFFFFFFFFFFFFFFFFFF AND PUSH1 0x80 DUP2 PUSH20 0xFFFFFFFFFFFFFFFFFFFFFFFFFFFFFFFFFFFFFFFF AND DUP2 MSTORE POP POP DUP2 PUSH20 0xFFFFFFFFFFFFFFFFFFFFFFFFFFFFFFFFFFFFFFFF AND PUSH1 0xA0 DUP2 PUSH20 0xFFFFFFFFFFFFFFFFFFFFFFFFFFFFFFFFFFFFFFFF AND DUP2 MSTORE POP POP DUP1 PUSH1 0x3 DUP2 SWAP1 SSTORE POP POP POP POP POP PUSH3 0x2B5 JUMP JUMPDEST PUSH1 0x0 DUP1 REVERT JUMPDEST PUSH1 0x0 DUP2 SWAP1 POP SWAP2 SWAP1 POP JUMP JUMPDEST PUSH3 0x128 DUP2 PUSH3 0x113 JUMP JUMPDEST DUP2 EQ PUSH3 0x134 JUMPI PUSH1 0x0 DUP1 REVERT JUMPDEST POP JUMP JUMPDEST PUSH1 0x0 DUP2 MLOAD SWAP1 POP PUSH3 0x148 DUP2 PUSH3 0x11D JUMP JUMPDEST SWAP3 SWAP2 POP POP JUMP JUMPDEST PUSH1 0x0 PUSH20 0xFFFFFFFFFFFFFFFFFFFFFFFFFFFFFFFFFFFFFFFF DUP3 AND SWAP1 POP SWAP2 SWAP1 POP JUMP JUMPDEST PUSH1 0x0 PUSH3 0x17B DUP3 PUSH3 0x14E JUMP JUMPDEST SWAP1 POP SWAP2 SWAP1 POP JUMP JUMPDEST PUSH3 0x18D DUP2 PUSH3 0x16E JUMP JUMPDEST DUP2 EQ PUSH3 0x199 JUMPI PUSH1 0x0 DUP1 REVERT JUMPDEST POP JUMP JUMPDEST PUSH1 0x0 DUP2 MLOAD SWAP1 POP PUSH3 0x1AD DUP2 PUSH3 0x182 JUMP JUMPDEST SWAP3 SWAP2 POP POP JUMP JUMPDEST PUSH1 0x0 DUP1 PUSH1 0x0 DUP1 PUSH1 0x80 DUP6 DUP8 SUB SLT ISZERO PUSH3 0x1D0 JUMPI PUSH3 0x1CF PUSH3 0x10E JUMP JUMPDEST JUMPDEST PUSH1 0x0 PUSH3 0x1E0 DUP8 DUP3 DUP9 ADD PUSH3 0x137 JUMP JUMPDEST SWAP5 POP POP PUSH1 0x20 PUSH3 0x1F3 DUP8 DUP3 DUP9 ADD PUSH3 0x19C JUMP JUMPDEST SWAP4 POP POP PUSH1 0x40 PUSH3 0x206 DUP8 DUP3 DUP9 ADD PUSH3 0x19C JUMP JUMPDEST SWAP3 POP POP PUSH1 0x60 PUSH3 0x219 DUP8 DUP3 DUP9 ADD PUSH3 0x137 JUMP JUMPDEST SWAP2 POP POP SWAP3 SWAP6 SWAP2 SWAP5 POP SWAP3 POP JUMP JUMPDEST PUSH32 0x4E487B7100000000000000000000000000000000000000000000000000000000 PUSH1 0x0 MSTORE PUSH1 0x11 PUSH1 0x4 MSTORE PUSH1 0x24 PUSH1 0x0 REVERT JUMPDEST PUSH1 0x0 PUSH3 0x261 DUP3 PUSH3 0x113 JUMP JUMPDEST SWAP2 POP PUSH3 0x26E DUP4 PUSH3 0x113 JUMP JUMPDEST SWAP3 POP DUP2 PUSH32 0xFFFFFFFFFFFFFFFFFFFFFFFFFFFFFFFFFFFFFFFFFFFFFFFFFFFFFFFFFFFFFFFF DIV DUP4 GT DUP3 ISZERO ISZERO AND ISZERO PUSH3 0x2AA JUMPI PUSH3 0x2A9 PUSH3 0x225 JUMP JUMPDEST JUMPDEST DUP3 DUP3 MUL SWAP1 POP SWAP3 SWAP2 POP POP JUMP JUMPDEST PUSH1 0x80 MLOAD PUSH1 0xA0 MLOAD PUSH2 0x10C3 PUSH3 0x2E9 PUSH1 0x0 CODECOPY PUSH1 0x0 PUSH2 0x12A ADD MSTORE PUSH1 0x0 DUP2 DUP2 PUSH2 0x2F9 ADD MSTORE DUP2 DUP2 PUSH2 0x39E ADD MSTORE PUSH2 0x553 ADD MSTORE PUSH2 0x10C3 PUSH1 0x0 RETURN INVALID PUSH1 0x80 PUSH1 0x40 MSTORE CALLVALUE DUP1 ISZERO PUSH2 0x10 JUMPI PUSH1 0x0 DUP1 REVERT JUMPDEST POP PUSH1 0x4 CALLDATASIZE LT PUSH2 0x7D JUMPI PUSH1 0x0 CALLDATALOAD PUSH1 0xE0 SHR DUP1 PUSH4 0xC2DB2C42 GT PUSH2 0x5B JUMPI DUP1 PUSH4 0xC2DB2C42 EQ PUSH2 0xC8 JUMPI DUP1 PUSH4 0xC3A17441 EQ PUSH2 0xE4 JUMPI DUP1 PUSH4 0xC54E44EB EQ PUSH2 0x100 JUMPI DUP1 PUSH4 0xDC55920F EQ PUSH2 0x11E JUMPI PUSH2 0x7D JUMP JUMPDEST DUP1 PUSH4 0x6385F2FB EQ PUSH2 0x82 JUMPI DUP1 PUSH4 0x76D812EA EQ PUSH2 0xA0 JUMPI DUP1 PUSH4 0x7FF9B596 EQ PUSH2 0xAA JUMPI JUMPDEST PUSH1 0x0 DUP1 REVERT JUMPDEST PUSH2 0x8A PUSH2 0x128 JUMP JUMPDEST PUSH1 0x40 MLOAD PUSH2 0x97 SWAP2 SWAP1 PUSH2 0x968 JUMP JUMPDEST PUSH1 0x40 MLOAD DUP1 SWAP2 SUB SWAP1 RETURN JUMPDEST PUSH2 0xA8 PUSH2 0x14C JUMP JUMPDEST STOP JUMPDEST PUSH2 0xB2 PUSH2 0x1F8 JUMP JUMPDEST PUSH1 0x40 MLOAD PUSH2 0xBF SWAP2 SWAP1 PUSH2 0x99C JUMP JUMPDEST PUSH1 0x40 MLOAD DUP1 SWAP2 SUB SWAP1 RETURN JUMPDEST PUSH2 0xE2 PUSH1 0x4 DUP1 CALLDATASIZE SUB DUP2 ADD SWAP1 PUSH2 0xDD SWAP2 SWAP1 PUSH2 0x9E8 JUMP JUMPDEST PUSH2 0x1FE JUMP JUMPDEST STOP JUMPDEST PUSH2 0xFE PUSH1 0x4 DUP1 CALLDATASIZE SUB DUP2 ADD SWAP1 PUSH2 0xF9 SWAP2 SWAP1 PUSH2 0xA15 JUMP JUMPDEST PUSH2 0x4AC JUMP JUMPDEST STOP JUMPDEST PUSH2 0x108 PUSH2 0x551 JUMP JUMPDEST PUSH1 0x40 MLOAD PUSH2 0x115 SWAP2 SWAP1 PUSH2 0x968 JUMP JUMPDEST PUSH1 0x40 MLOAD DUP1 SWAP2 SUB SWAP1 RETURN JUMPDEST PUSH2 0x126 PUSH2 0x575 JUMP JUMPDEST STOP JUMPDEST PUSH32 0x0 DUP2 JUMP JUMPDEST PUSH1 0x2 PUSH1 0x0 SWAP1 SLOAD SWAP1 PUSH2 0x100 EXP SWAP1 DIV PUSH20 0xFFFFFFFFFFFFFFFFFFFFFFFFFFFFFFFFFFFFFFFF AND PUSH20 0xFFFFFFFFFFFFFFFFFFFFFFFFFFFFFFFFFFFFFFFF AND CALLER PUSH20 0xFFFFFFFFFFFFFFFFFFFFFFFFFFFFFFFFFFFFFFFF AND EQ PUSH2 0x1A6 JUMPI PUSH1 0x0 DUP1 REVERT JUMPDEST PUSH1 0x0 PUSH1 0x2 PUSH1 0x14 PUSH2 0x100 EXP DUP2 SLOAD DUP2 PUSH1 0xFF MUL NOT AND SWAP1 DUP4 ISZERO ISZERO MUL OR SWAP1 SSTORE POP PUSH32 0x71002079AB3DE7FEB03EE30C84BAF1D2350D4FFE16709D3DACB5E1037A0FE1CC PUSH1 0x40 MLOAD PUSH2 0x1EE SWAP1 PUSH2 0xAB2 JUMP JUMPDEST PUSH1 0x40 MLOAD DUP1 SWAP2 SUB SWAP1 LOG1 JUMP JUMPDEST PUSH1 0x1 SLOAD DUP2 JUMP JUMPDEST PUSH1 0x2 PUSH1 0x0 SLOAD SUB PUSH2 0x243 JUMPI PUSH1 0x40 MLOAD PUSH32 0x8C379A000000000000000000000000000000000000000000000000000000000 DUP2 MSTORE PUSH1 0x4 ADD PUSH2 0x23A SWAP1 PUSH2 0xB1E JUMP JUMPDEST PUSH1 0x40 MLOAD DUP1 SWAP2 SUB SWAP1 REVERT JUMPDEST PUSH1 0x2 PUSH1 0x0 DUP2 SWAP1 SSTORE POP PUSH1 0x1 ISZERO ISZERO PUSH1 0x2 PUSH1 0x14 SWAP1 SLOAD SWAP1 PUSH2 0x100 EXP SWAP1 DIV PUSH1 0xFF AND ISZERO ISZERO EQ PUSH2 0x2A1 JUMPI PUSH1 0x40 MLOAD PUSH32 0x8C379A000000000000000000000000000000000000000000000000000000000 DUP2 MSTORE PUSH1 0x4 ADD PUSH2 0x298 SWAP1 PUSH2 0xB8A JUMP JUMPDEST PUSH1 0x40 MLOAD DUP1 SWAP2 SUB SWAP1 REVERT JUMPDEST PUSH1 0x0 DUP2 PUSH1 0x4 SLOAD PUSH2 0x2B1 SWAP2 SWAP1 PUSH2 0xBD9 JUMP JUMPDEST SWAP1 POP PUSH1 0x3 SLOAD DUP2 LT PUSH2 0x2F7 JUMPI PUSH1 0x40 MLOAD PUSH32 0x8C379A000000000000000000000000000000000000000000000000000000000 DUP2 MSTORE PUSH1 0x4 ADD PUSH2 0x2EE SWAP1 PUSH2 0xC7B JUMP JUMPDEST PUSH1 0x40 MLOAD DUP1 SWAP2 SUB SWAP1 REVERT JUMPDEST PUSH32 0x0 PUSH20 0xFFFFFFFFFFFFFFFFFFFFFFFFFFFFFFFFFFFFFFFF AND PUSH4 0x95EA7B3 ADDRESS DUP5 PUSH1 0x40 MLOAD DUP4 PUSH4 0xFFFFFFFF AND PUSH1 0xE0 SHL DUP2 MSTORE PUSH1 0x4 ADD PUSH2 0x352 SWAP3 SWAP2 SWAP1 PUSH2 0xC9B JUMP JUMPDEST PUSH1 0x20 PUSH1 0x40 MLOAD DUP1 DUP4 SUB DUP2 PUSH1 0x0 DUP8 GAS CALL ISZERO DUP1 ISZERO PUSH2 0x371 JUMPI RETURNDATASIZE PUSH1 0x0 DUP1 RETURNDATACOPY RETURNDATASIZE PUSH1 0x0 REVERT JUMPDEST POP POP POP POP PUSH1 0x40 MLOAD RETURNDATASIZE PUSH1 0x1F NOT PUSH1 0x1F DUP3 ADD AND DUP3 ADD DUP1 PUSH1 0x40 MSTORE POP DUP2 ADD SWAP1 PUSH2 0x395 SWAP2 SWAP1 PUSH2 0xCFC JUMP JUMPDEST POP PUSH2 0x3E3 CALLER ADDRESS DUP5 PUSH32 0x0 PUSH20 0xFFFFFFFFFFFFFFFFFFFFFFFFFFFFFFFFFFFFFFFF AND PUSH2 0x621 SWAP1 SWAP4 SWAP3 SWAP2 SWAP1 PUSH4 0xFFFFFFFF AND JUMP JUMPDEST DUP2 PUSH1 0x5 PUSH1 0x0 CALLER PUSH20 0xFFFFFFFFFFFFFFFFFFFFFFFFFFFFFFFFFFFFFFFF AND PUSH20 0xFFFFFFFFFFFFFFFFFFFFFFFFFFFFFFFFFFFFFFFF AND DUP2 MSTORE PUSH1 0x20 ADD SWAP1 DUP2 MSTORE PUSH1 0x20 ADD PUSH1 0x0 KECCAK256 PUSH1 0x0 DUP3 DUP3 SLOAD PUSH2 0x432 SWAP2 SWAP1 PUSH2 0xBD9 JUMP JUMPDEST SWAP3 POP POP DUP2 SWAP1 SSTORE POP DUP2 PUSH1 0x4 PUSH1 0x0 DUP3 DUP3 SLOAD PUSH2 0x44B SWAP2 SWAP1 PUSH2 0xBD9 JUMP JUMPDEST SWAP3 POP POP DUP2 SWAP1 SSTORE POP CALLER PUSH20 0xFFFFFFFFFFFFFFFFFFFFFFFFFFFFFFFFFFFFFFFF AND PUSH32 0xDA4CADF0D4383CB43C8249E3CC678F6690BDBAA01421C99FD9B14EDAC62CDE80 DUP4 PUSH1 0x40 MLOAD PUSH2 0x498 SWAP2 SWAP1 PUSH2 0x99C JUMP JUMPDEST PUSH1 0x40 MLOAD DUP1 SWAP2 SUB SWAP1 LOG2 POP PUSH1 0x1 PUSH1 0x0 DUP2 SWAP1 SSTORE POP POP JUMP JUMPDEST PUSH1 0x2 PUSH1 0x0 SWAP1 SLOAD SWAP1 PUSH2 0x100 EXP SWAP1 DIV PUSH20 0xFFFFFFFFFFFFFFFFFFFFFFFFFFFFFFFFFFFFFFFF AND PUSH20 0xFFFFFFFFFFFFFFFFFFFFFFFFFFFFFFFFFFFFFFFF AND CALLER PUSH20 0xFFFFFFFFFFFFFFFFFFFFFFFFFFFFFFFFFFFFFFFF AND EQ PUSH2 0x506 JUMPI PUSH1 0x0 DUP1 REVERT JUMPDEST DUP2 PUSH1 0x1 DUP2 SWAP1 SSTORE POP DUP1 PUSH1 0x3 DUP2 SWAP1 SSTORE POP PUSH32 0x314BF1CCC32C608A6175053B0DA1933B3A745B3F799011003A4C39AAB0C518A3 DUP3 DUP3 PUSH1 0x40 MLOAD PUSH2 0x545 SWAP3 SWAP2 SWAP1 PUSH2 0xD29 JUMP JUMPDEST PUSH1 0x40 MLOAD DUP1 SWAP2 SUB SWAP1 LOG1 POP POP JUMP JUMPDEST PUSH32 0x0 DUP2 JUMP JUMPDEST PUSH1 0x2 PUSH1 0x0 SWAP1 SLOAD SWAP1 PUSH2 0x100 EXP SWAP1 DIV PUSH20 0xFFFFFFFFFFFFFFFFFFFFFFFFFFFFFFFFFFFFFFFF AND PUSH20 0xFFFFFFFFFFFFFFFFFFFFFFFFFFFFFFFFFFFFFFFF AND CALLER PUSH20 0xFFFFFFFFFFFFFFFFFFFFFFFFFFFFFFFFFFFFFFFF AND EQ PUSH2 0x5CF JUMPI PUSH1 0x0 DUP1 REVERT JUMPDEST PUSH1 0x1 PUSH1 0x2 PUSH1 0x14 PUSH2 0x100 EXP DUP2 SLOAD DUP2 PUSH1 0xFF MUL NOT AND SWAP1 DUP4 ISZERO ISZERO MUL OR SWAP1 SSTORE POP PUSH32 0x71002079AB3DE7FEB03EE30C84BAF1D2350D4FFE16709D3DACB5E1037A0FE1CC PUSH1 0x40 MLOAD PUSH2 0x617 SWAP1 PUSH2 0xD9E JUMP JUMPDEST PUSH1 0x40 MLOAD DUP1 SWAP2 SUB SWAP1 LOG1 JUMP JUMPDEST PUSH2 0x6A4 DUP5 PUSH4 0x23B872DD PUSH1 0xE0 SHL DUP6 DUP6 DUP6 PUSH1 0x40 MLOAD PUSH1 0x24 ADD PUSH2 0x642 SWAP4 SWAP3 SWAP2 SWAP1 PUSH2 0xDBE JUMP JUMPDEST PUSH1 0x40 MLOAD PUSH1 0x20 DUP2 DUP4 SUB SUB DUP2 MSTORE SWAP1 PUSH1 0x40 MSTORE SWAP1 PUSH28 0xFFFFFFFFFFFFFFFFFFFFFFFFFFFFFFFFFFFFFFFFFFFFFFFFFFFFFFFF NOT AND PUSH1 0x20 DUP3 ADD DUP1 MLOAD PUSH28 0xFFFFFFFFFFFFFFFFFFFFFFFFFFFFFFFFFFFFFFFFFFFFFFFFFFFFFFFF DUP4 DUP2 DUP4 AND OR DUP4 MSTORE POP POP POP POP PUSH2 0x6AA JUMP JUMPDEST POP POP POP POP JUMP JUMPDEST PUSH1 0x0 PUSH2 0x70C DUP3 PUSH1 0x40 MLOAD DUP1 PUSH1 0x40 ADD PUSH1 0x40 MSTORE DUP1 PUSH1 0x20 DUP2 MSTORE PUSH1 0x20 ADD PUSH32 0x5361666545524332303A206C6F772D6C6576656C2063616C6C206661696C6564 DUP2 MSTORE POP DUP6 PUSH20 0xFFFFFFFFFFFFFFFFFFFFFFFFFFFFFFFFFFFFFFFF AND PUSH2 0x771 SWAP1 SWAP3 SWAP2 SWAP1 PUSH4 0xFFFFFFFF AND JUMP JUMPDEST SWAP1 POP PUSH1 0x0 DUP2 MLOAD GT ISZERO PUSH2 0x76C JUMPI DUP1 DUP1 PUSH1 0x20 ADD SWAP1 MLOAD DUP2 ADD SWAP1 PUSH2 0x72C SWAP2 SWAP1 PUSH2 0xCFC JUMP JUMPDEST PUSH2 0x76B JUMPI PUSH1 0x40 MLOAD PUSH32 0x8C379A000000000000000000000000000000000000000000000000000000000 DUP2 MSTORE PUSH1 0x4 ADD PUSH2 0x762 SWAP1 PUSH2 0xE67 JUMP JUMPDEST PUSH1 0x40 MLOAD DUP1 SWAP2 SUB SWAP1 REVERT JUMPDEST JUMPDEST POP POP POP JUMP JUMPDEST PUSH1 0x60 PUSH2 0x780 DUP5 DUP5 PUSH1 0x0 DUP6 PUSH2 0x789 JUMP JUMPDEST SWAP1 POP SWAP4 SWAP3 POP POP POP JUMP JUMPDEST PUSH1 0x60 DUP3 SELFBALANCE LT ISZERO PUSH2 0x7CE JUMPI PUSH1 0x40 MLOAD PUSH32 0x8C379A000000000000000000000000000000000000000000000000000000000 DUP2 MSTORE PUSH1 0x4 ADD PUSH2 0x7C5 SWAP1 PUSH2 0xEF9 JUMP JUMPDEST PUSH1 0x40 MLOAD DUP1 SWAP2 SUB SWAP1 REVERT JUMPDEST PUSH2 0x7D7 DUP6 PUSH2 0x89D JUMP JUMPDEST PUSH2 0x816 JUMPI PUSH1 0x40 MLOAD PUSH32 0x8C379A000000000000000000000000000000000000000000000000000000000 DUP2 MSTORE PUSH1 0x4 ADD PUSH2 0x80D SWAP1 PUSH2 0xF65 JUMP JUMPDEST PUSH1 0x40 MLOAD DUP1 SWAP2 SUB SWAP1 REVERT JUMPDEST PUSH1 0x0 DUP1 DUP7 PUSH20 0xFFFFFFFFFFFFFFFFFFFFFFFFFFFFFFFFFFFFFFFF AND DUP6 DUP8 PUSH1 0x40 MLOAD PUSH2 0x83F SWAP2 SWAP1 PUSH2 0xFFF JUMP JUMPDEST PUSH1 0x0 PUSH1 0x40 MLOAD DUP1 DUP4 SUB DUP2 DUP6 DUP8 GAS CALL SWAP3 POP POP POP RETURNDATASIZE DUP1 PUSH1 0x0 DUP2 EQ PUSH2 0x87C JUMPI PUSH1 0x40 MLOAD SWAP2 POP PUSH1 0x1F NOT PUSH1 0x3F RETURNDATASIZE ADD AND DUP3 ADD PUSH1 0x40 MSTORE RETURNDATASIZE DUP3 MSTORE RETURNDATASIZE PUSH1 0x0 PUSH1 0x20 DUP5 ADD RETURNDATACOPY PUSH2 0x881 JUMP JUMPDEST PUSH1 0x60 SWAP2 POP JUMPDEST POP SWAP2 POP SWAP2 POP PUSH2 0x891 DUP3 DUP3 DUP7 PUSH2 0x8C0 JUMP JUMPDEST SWAP3 POP POP POP SWAP5 SWAP4 POP POP POP POP JUMP JUMPDEST PUSH1 0x0 DUP1 DUP3 PUSH20 0xFFFFFFFFFFFFFFFFFFFFFFFFFFFFFFFFFFFFFFFF AND EXTCODESIZE GT SWAP1 POP SWAP2 SWAP1 POP JUMP JUMPDEST PUSH1 0x60 DUP4 ISZERO PUSH2 0x8D0 JUMPI DUP3 SWAP1 POP PUSH2 0x920 JUMP JUMPDEST PUSH1 0x0 DUP4 MLOAD GT ISZERO PUSH2 0x8E3 JUMPI DUP3 MLOAD DUP1 DUP5 PUSH1 0x20 ADD REVERT JUMPDEST DUP2 PUSH1 0x40 MLOAD PUSH32 0x8C379A000000000000000000000000000000000000000000000000000000000 DUP2 MSTORE PUSH1 0x4 ADD PUSH2 0x917 SWAP2 SWAP1 PUSH2 0x106B JUMP JUMPDEST PUSH1 0x40 MLOAD DUP1 SWAP2 SUB SWAP1 REVERT JUMPDEST SWAP4 SWAP3 POP POP POP JUMP JUMPDEST PUSH1 0x0 PUSH20 0xFFFFFFFFFFFFFFFFFFFFFFFFFFFFFFFFFFFFFFFF DUP3 AND SWAP1 POP SWAP2 SWAP1 POP JUMP JUMPDEST PUSH1 0x0 PUSH2 0x952 DUP3 PUSH2 0x927 JUMP JUMPDEST SWAP1 POP SWAP2 SWAP1 POP JUMP JUMPDEST PUSH2 0x962 DUP2 PUSH2 0x947 JUMP JUMPDEST DUP3 MSTORE POP POP JUMP JUMPDEST PUSH1 0x0 PUSH1 0x20 DUP3 ADD SWAP1 POP PUSH2 0x97D PUSH1 0x0 DUP4 ADD DUP5 PUSH2 0x959 JUMP JUMPDEST SWAP3 SWAP2 POP POP JUMP JUMPDEST PUSH1 0x0 DUP2 SWAP1 POP SWAP2 SWAP1 POP JUMP JUMPDEST PUSH2 0x996 DUP2 PUSH2 0x983 JUMP JUMPDEST DUP3 MSTORE POP POP JUMP JUMPDEST PUSH1 0x0 PUSH1 0x20 DUP3 ADD SWAP1 POP PUSH2 0x9B1 PUSH1 0x0 DUP4 ADD DUP5 PUSH2 0x98D JUMP JUMPDEST SWAP3 SWAP2 POP POP JUMP JUMPDEST PUSH1 0x0 DUP1 REVERT JUMPDEST PUSH2 0x9C5 DUP2 PUSH2 0x983 JUMP JUMPDEST DUP2 EQ PUSH2 0x9D0 JUMPI PUSH1 0x0 DUP1 REVERT JUMPDEST POP JUMP JUMPDEST PUSH1 0x0 DUP2 CALLDATALOAD SWAP1 POP PUSH2 0x9E2 DUP2 PUSH2 0x9BC JUMP JUMPDEST SWAP3 SWAP2 POP POP JUMP JUMPDEST PUSH1 0x0 PUSH1 0x20 DUP3 DUP5 SUB SLT ISZERO PUSH2 0x9FE JUMPI PUSH2 0x9FD PUSH2 0x9B7 JUMP JUMPDEST JUMPDEST PUSH1 0x0 PUSH2 0xA0C DUP5 DUP3 DUP6 ADD PUSH2 0x9D3 JUMP JUMPDEST SWAP2 POP POP SWAP3 SWAP2 POP POP JUMP JUMPDEST PUSH1 0x0 DUP1 PUSH1 0x40 DUP4 DUP6 SUB SLT ISZERO PUSH2 0xA2C JUMPI PUSH2 0xA2B PUSH2 0x9B7 JUMP JUMPDEST JUMPDEST PUSH1 0x0 PUSH2 0xA3A DUP6 DUP3 DUP7 ADD PUSH2 0x9D3 JUMP JUMPDEST SWAP3 POP POP PUSH1 0x20 PUSH2 0xA4B DUP6 DUP3 DUP7 ADD PUSH2 0x9D3 JUMP JUMPDEST SWAP2 POP POP SWAP3 POP SWAP3 SWAP1 POP JUMP JUMPDEST PUSH1 0x0 DUP3 DUP3 MSTORE PUSH1 0x20 DUP3 ADD SWAP1 POP SWAP3 SWAP2 POP POP JUMP JUMPDEST PUSH32 0x49434F2069732070617573656400000000000000000000000000000000000000 PUSH1 0x0 DUP3 ADD MSTORE POP JUMP JUMPDEST PUSH1 0x0 PUSH2 0xA9C PUSH1 0xD DUP4 PUSH2 0xA55 JUMP JUMPDEST SWAP2 POP PUSH2 0xAA7 DUP3 PUSH2 0xA66 JUMP JUMPDEST PUSH1 0x20 DUP3 ADD SWAP1 POP SWAP2 SWAP1 POP JUMP JUMPDEST PUSH1 0x0 PUSH1 0x20 DUP3 ADD SWAP1 POP DUP2 DUP2 SUB PUSH1 0x0 DUP4 ADD MSTORE PUSH2 0xACB DUP2 PUSH2 0xA8F JUMP JUMPDEST SWAP1 POP SWAP2 SWAP1 POP JUMP JUMPDEST PUSH32 0x5265656E7472616E637947756172643A207265656E7472616E742063616C6C00 PUSH1 0x0 DUP3 ADD MSTORE POP JUMP JUMPDEST PUSH1 0x0 PUSH2 0xB08 PUSH1 0x1F DUP4 PUSH2 0xA55 JUMP JUMPDEST SWAP2 POP PUSH2 0xB13 DUP3 PUSH2 0xAD2 JUMP JUMPDEST PUSH1 0x20 DUP3 ADD SWAP1 POP SWAP2 SWAP1 POP JUMP JUMPDEST PUSH1 0x0 PUSH1 0x20 DUP3 ADD SWAP1 POP DUP2 DUP2 SUB PUSH1 0x0 DUP4 ADD MSTORE PUSH2 0xB37 DUP2 PUSH2 0xAFB JUMP JUMPDEST SWAP1 POP SWAP2 SWAP1 POP JUMP JUMPDEST PUSH32 0x49444F20686173206E6F74207374617274656400000000000000000000000000 PUSH1 0x0 DUP3 ADD MSTORE POP JUMP JUMPDEST PUSH1 0x0 PUSH2 0xB74 PUSH1 0x13 DUP4 PUSH2 0xA55 JUMP JUMPDEST SWAP2 POP PUSH2 0xB7F DUP3 PUSH2 0xB3E JUMP JUMPDEST PUSH1 0x20 DUP3 ADD SWAP1 POP SWAP2 SWAP1 POP JUMP JUMPDEST PUSH1 0x0 PUSH1 0x20 DUP3 ADD SWAP1 POP DUP2 DUP2 SUB PUSH1 0x0 DUP4 ADD MSTORE PUSH2 0xBA3 DUP2 PUSH2 0xB67 JUMP JUMPDEST SWAP1 POP SWAP2 SWAP1 POP JUMP JUMPDEST PUSH32 0x4E487B7100000000000000000000000000000000000000000000000000000000 PUSH1 0x0 MSTORE PUSH1 0x11 PUSH1 0x4 MSTORE PUSH1 0x24 PUSH1 0x0 REVERT JUMPDEST PUSH1 0x0 PUSH2 0xBE4 DUP3 PUSH2 0x983 JUMP JUMPDEST SWAP2 POP PUSH2 0xBEF DUP4 PUSH2 0x983 JUMP JUMPDEST SWAP3 POP DUP3 PUSH32 0xFFFFFFFFFFFFFFFFFFFFFFFFFFFFFFFFFFFFFFFFFFFFFFFFFFFFFFFFFFFFFFFF SUB DUP3 GT ISZERO PUSH2 0xC24 JUMPI PUSH2 0xC23 PUSH2 0xBAA JUMP JUMPDEST JUMPDEST DUP3 DUP3 ADD SWAP1 POP SWAP3 SWAP2 POP POP JUMP JUMPDEST PUSH32 0x416C6C20746F6B656E7320686173206265656E20736F6C640000000000000000 PUSH1 0x0 DUP3 ADD MSTORE POP JUMP JUMPDEST PUSH1 0x0 PUSH2 0xC65 PUSH1 0x18 DUP4 PUSH2 0xA55 JUMP JUMPDEST SWAP2 POP PUSH2 0xC70 DUP3 PUSH2 0xC2F JUMP JUMPDEST PUSH1 0x20 DUP3 ADD SWAP1 POP SWAP2 SWAP1 POP JUMP JUMPDEST PUSH1 0x0 PUSH1 0x20 DUP3 ADD SWAP1 POP DUP2 DUP2 SUB PUSH1 0x0 DUP4 ADD MSTORE PUSH2 0xC94 DUP2 PUSH2 0xC58 JUMP JUMPDEST SWAP1 POP SWAP2 SWAP1 POP JUMP JUMPDEST PUSH1 0x0 PUSH1 0x40 DUP3 ADD SWAP1 POP PUSH2 0xCB0 PUSH1 0x0 DUP4 ADD DUP6 PUSH2 0x959 JUMP JUMPDEST PUSH2 0xCBD PUSH1 0x20 DUP4 ADD DUP5 PUSH2 0x98D JUMP JUMPDEST SWAP4 SWAP3 POP POP POP JUMP JUMPDEST PUSH1 0x0 DUP2 ISZERO ISZERO SWAP1 POP SWAP2 SWAP1 POP JUMP JUMPDEST PUSH2 0xCD9 DUP2 PUSH2 0xCC4 JUMP JUMPDEST DUP2 EQ PUSH2 0xCE4 JUMPI PUSH1 0x0 DUP1 REVERT JUMPDEST POP JUMP JUMPDEST PUSH1 0x0 DUP2 MLOAD SWAP1 POP PUSH2 0xCF6 DUP2 PUSH2 0xCD0 JUMP JUMPDEST SWAP3 SWAP2 POP POP JUMP JUMPDEST PUSH1 0x0 PUSH1 0x20 DUP3 DUP5 SUB SLT ISZERO PUSH2 0xD12 JUMPI PUSH2 0xD11 PUSH2 0x9B7 JUMP JUMPDEST JUMPDEST PUSH1 0x0 PUSH2 0xD20 DUP5 DUP3 DUP6 ADD PUSH2 0xCE7 JUMP JUMPDEST SWAP2 POP POP SWAP3 SWAP2 POP POP JUMP JUMPDEST PUSH1 0x0 PUSH1 0x40 DUP3 ADD SWAP1 POP PUSH2 0xD3E PUSH1 0x0 DUP4 ADD DUP6 PUSH2 0x98D JUMP JUMPDEST PUSH2 0xD4B PUSH1 0x20 DUP4 ADD DUP5 PUSH2 0x98D JUMP JUMPDEST SWAP4 SWAP3 POP POP POP JUMP JUMPDEST PUSH32 0x49434F206973206F6E0000000000000000000000000000000000000000000000 PUSH1 0x0 DUP3 ADD MSTORE POP JUMP JUMPDEST PUSH1 0x0 PUSH2 0xD88 PUSH1 0x9 DUP4 PUSH2 0xA55 JUMP JUMPDEST SWAP2 POP PUSH2 0xD93 DUP3 PUSH2 0xD52 JUMP JUMPDEST PUSH1 0x20 DUP3 ADD SWAP1 POP SWAP2 SWAP1 POP JUMP JUMPDEST PUSH1 0x0 PUSH1 0x20 DUP3 ADD SWAP1 POP DUP2 DUP2 SUB PUSH1 0x0 DUP4 ADD MSTORE PUSH2 0xDB7 DUP2 PUSH2 0xD7B JUMP JUMPDEST SWAP1 POP SWAP2 SWAP1 POP JUMP JUMPDEST PUSH1 0x0 PUSH1 0x60 DUP3 ADD SWAP1 POP PUSH2 0xDD3 PUSH1 0x0 DUP4 ADD DUP7 PUSH2 0x959 JUMP JUMPDEST PUSH2 0xDE0 PUSH1 0x20 DUP4 ADD DUP6 PUSH2 0x959 JUMP JUMPDEST PUSH2 0xDED PUSH1 0x40 DUP4 ADD DUP5 PUSH2 0x98D JUMP JUMPDEST SWAP5 SWAP4 POP POP POP POP JUMP JUMPDEST PUSH32 0x5361666545524332303A204552433230206F7065726174696F6E20646964206E PUSH1 0x0 DUP3 ADD MSTORE PUSH32 0x6F74207375636365656400000000000000000000000000000000000000000000 PUSH1 0x20 DUP3 ADD MSTORE POP JUMP JUMPDEST PUSH1 0x0 PUSH2 0xE51 PUSH1 0x2A DUP4 PUSH2 0xA55 JUMP JUMPDEST SWAP2 POP PUSH2 0xE5C DUP3 PUSH2 0xDF5 JUMP JUMPDEST PUSH1 0x40 DUP3 ADD SWAP1 POP SWAP2 SWAP1 POP JUMP JUMPDEST PUSH1 0x0 PUSH1 0x20 DUP3 ADD SWAP1 POP DUP2 DUP2 SUB PUSH1 0x0 DUP4 ADD MSTORE PUSH2 0xE80 DUP2 PUSH2 0xE44 JUMP JUMPDEST SWAP1 POP SWAP2 SWAP1 POP JUMP JUMPDEST PUSH32 0x416464726573733A20696E73756666696369656E742062616C616E636520666F PUSH1 0x0 DUP3 ADD MSTORE PUSH32 0x722063616C6C0000000000000000000000000000000000000000000000000000 PUSH1 0x20 DUP3 ADD MSTORE POP JUMP JUMPDEST PUSH1 0x0 PUSH2 0xEE3 PUSH1 0x26 DUP4 PUSH2 0xA55 JUMP JUMPDEST SWAP2 POP PUSH2 0xEEE DUP3 PUSH2 0xE87 JUMP JUMPDEST PUSH1 0x40 DUP3 ADD SWAP1 POP SWAP2 SWAP1 POP JUMP JUMPDEST PUSH1 0x0 PUSH1 0x20 DUP3 ADD SWAP1 POP DUP2 DUP2 SUB PUSH1 0x0 DUP4 ADD MSTORE PUSH2 0xF12 DUP2 PUSH2 0xED6 JUMP JUMPDEST SWAP1 POP SWAP2 SWAP1 POP JUMP JUMPDEST PUSH32 0x416464726573733A2063616C6C20746F206E6F6E2D636F6E7472616374000000 PUSH1 0x0 DUP3 ADD MSTORE POP JUMP JUMPDEST PUSH1 0x0 PUSH2 0xF4F PUSH1 0x1D DUP4 PUSH2 0xA55 JUMP JUMPDEST SWAP2 POP PUSH2 0xF5A DUP3 PUSH2 0xF19 JUMP JUMPDEST PUSH1 0x20 DUP3 ADD SWAP1 POP SWAP2 SWAP1 POP JUMP JUMPDEST PUSH1 0x0 PUSH1 0x20 DUP3 ADD SWAP1 POP DUP2 DUP2 SUB PUSH1 0x0 DUP4 ADD MSTORE PUSH2 0xF7E DUP2 PUSH2 0xF42 JUMP JUMPDEST SWAP1 POP SWAP2 SWAP1 POP JUMP JUMPDEST PUSH1 0x0 DUP2 MLOAD SWAP1 POP SWAP2 SWAP1 POP JUMP JUMPDEST PUSH1 0x0 DUP2 SWAP1 POP SWAP3 SWAP2 POP POP JUMP JUMPDEST PUSH1 0x0 JUMPDEST DUP4 DUP2 LT ISZERO PUSH2 0xFB9 JUMPI DUP1 DUP3 ADD MLOAD DUP2 DUP5 ADD MSTORE PUSH1 0x20 DUP2 ADD SWAP1 POP PUSH2 0xF9E JUMP JUMPDEST DUP4 DUP2 GT ISZERO PUSH2 0xFC8 JUMPI PUSH1 0x0 DUP5 DUP5 ADD MSTORE JUMPDEST POP POP POP POP JUMP JUMPDEST PUSH1 0x0 PUSH2 0xFD9 DUP3 PUSH2 0xF85 JUMP JUMPDEST PUSH2 0xFE3 DUP2 DUP6 PUSH2 0xF90 JUMP JUMPDEST SWAP4 POP PUSH2 0xFF3 DUP2 DUP6 PUSH1 0x20 DUP7 ADD PUSH2 0xF9B JUMP JUMPDEST DUP1 DUP5 ADD SWAP2 POP POP SWAP3 SWAP2 POP POP JUMP JUMPDEST PUSH1 0x0 PUSH2 0x100B DUP3 DUP5 PUSH2 0xFCE JUMP JUMPDEST SWAP2 POP DUP2 SWAP1 POP SWAP3 SWAP2 POP POP JUMP JUMPDEST PUSH1 0x0 DUP2 MLOAD SWAP1 POP SWAP2 SWAP1 POP JUMP JUMPDEST PUSH1 0x0 PUSH1 0x1F NOT PUSH1 0x1F DUP4 ADD AND SWAP1 POP SWAP2 SWAP1 POP JUMP JUMPDEST PUSH1 0x0 PUSH2 0x103D DUP3 PUSH2 0x1016 JUMP JUMPDEST PUSH2 0x1047 DUP2 DUP6 PUSH2 0xA55 JUMP JUMPDEST SWAP4 POP PUSH2 0x1057 DUP2 DUP6 PUSH1 0x20 DUP7 ADD PUSH2 0xF9B JUMP JUMPDEST PUSH2 0x1060 DUP2 PUSH2 0x1021 JUMP JUMPDEST DUP5 ADD SWAP2 POP POP SWAP3 SWAP2 POP POP JUMP JUMPDEST PUSH1 0x0 PUSH1 0x20 DUP3 ADD SWAP1 POP DUP2 DUP2 SUB PUSH1 0x0 DUP4 ADD MSTORE PUSH2 0x1085 DUP2 DUP5 PUSH2 0x1032 JUMP JUMPDEST SWAP1 POP SWAP3 SWAP2 POP POP JUMP INVALID LOG2 PUSH5 0x6970667358 0x22 SLT KECCAK256 0x25 0xE2 0xA6 DUP8 0xD1 PUSH9 0xEEBFDB7C67863AA07E BALANCE 0xEC DIFFICULTY 0xCF 0xB6 0xC1 PUSH8 0xB9DA5141D5BD49B5 0xE5 0xF8 PUSH5 0x736F6C6343 STOP ADDMOD 0xD STOP CALLER "
				},
				"gasEstimates": {
					"creation": {
						"codeDepositCost": "858200",
						"executionCost": "infinite",
						"totalCost": "infinite"
					},
					"external": {
						"BeginIDO()": "28499",
						"DAZ()": "infinite",
						"StopIDO()": "28456",
						"USDT()": "infinite",
						"editIco(uint256,uint256)": "infinite",
						"purchaseToken(uint256)": "infinite",
						"tokenPrice()": "2474"
					}
				},
				"methodIdentifiers": {
					"BeginIDO()": "dc55920f",
					"DAZ()": "6385f2fb",
					"StopIDO()": "76d812ea",
					"USDT()": "c54e44eb",
					"editIco(uint256,uint256)": "c3a17441",
					"purchaseToken(uint256)": "c2db2c42",
					"tokenPrice()": "7ff9b596"
				}
			},
			"storageLayout": {
				"storage": [
					{
						"astId": 10,
						"contract": "contracts/ico.sol:Amestarter",
						"label": "_status",
						"offset": 0,
						"slot": "0",
						"type": "t_uint256"
					},
					{
						"astId": 1473,
						"contract": "contracts/ico.sol:Amestarter",
						"label": "tokenPrice",
						"offset": 0,
						"slot": "1",
						"type": "t_uint256"
					},
					{
						"astId": 1475,
						"contract": "contracts/ico.sol:Amestarter",
						"label": "owner",
						"offset": 0,
						"slot": "2",
						"type": "t_address"
					},
					{
						"astId": 1477,
						"contract": "contracts/ico.sol:Amestarter",
						"label": "IDOStarted",
						"offset": 20,
						"slot": "2",
						"type": "t_bool"
					},
					{
						"astId": 1479,
						"contract": "contracts/ico.sol:Amestarter",
						"label": "targetSale",
						"offset": 0,
						"slot": "3",
						"type": "t_uint256"
					},
					{
						"astId": 1481,
						"contract": "contracts/ico.sol:Amestarter",
						"label": "totalRaised",
						"offset": 0,
						"slot": "4",
						"type": "t_uint256"
					},
					{
						"astId": 1485,
						"contract": "contracts/ico.sol:Amestarter",
						"label": "purchase",
						"offset": 0,
						"slot": "5",
						"type": "t_mapping(t_address,t_uint256)"
					}
				],
				"types": {
					"t_address": {
						"encoding": "inplace",
						"label": "address",
						"numberOfBytes": "20"
					},
					"t_bool": {
						"encoding": "inplace",
						"label": "bool",
						"numberOfBytes": "1"
					},
					"t_mapping(t_address,t_uint256)": {
						"encoding": "mapping",
						"key": "t_address",
						"label": "mapping(address => uint256)",
						"numberOfBytes": "32",
						"value": "t_uint256"
					},
					"t_uint256": {
						"encoding": "inplace",
						"label": "uint256",
						"numberOfBytes": "32"
					}
				}
			},
			"userdoc": {
				"kind": "user",
				"methods": {},
				"version": 1
			}
		}
	}
}