{
	"contracts/ico.sol": {
		"Amestarter": {
			"abi": [
				{
					"inputs": [
						{
							"internalType": "uint256",
							"name": "_tokenPrice",
							"type": "uint256"
						},
						{
							"internalType": "address",
							"name": "_IUSDT",
							"type": "address"
						},
						{
							"internalType": "uint256",
							"name": "_targetSale",
							"type": "uint256"
						}
					],
					"stateMutability": "nonpayable",
					"type": "constructor"
				},
				{
					"anonymous": false,
					"inputs": [
						{
							"indexed": false,
							"internalType": "string",
							"name": "icoAlert",
							"type": "string"
						}
					],
					"name": "ICOStartAlert",
					"type": "event"
				},
				{
					"anonymous": false,
					"inputs": [
						{
							"indexed": false,
							"internalType": "address",
							"name": "buyuer",
							"type": "address"
						},
						{
							"indexed": false,
							"internalType": "uint256",
							"name": "tokenBought",
							"type": "uint256"
						}
					],
					"name": "claimToken",
					"type": "event"
				},
				{
					"anonymous": false,
					"inputs": [
						{
							"indexed": false,
							"internalType": "uint256",
							"name": "newTokenprice",
							"type": "uint256"
						},
						{
							"indexed": false,
							"internalType": "uint256",
							"name": "target",
							"type": "uint256"
						}
					],
					"name": "icoUpdate",
					"type": "event"
				},
				{
					"anonymous": false,
					"inputs": [
						{
							"indexed": true,
							"internalType": "address",
							"name": "buyer",
							"type": "address"
						},
						{
							"indexed": false,
							"internalType": "uint256",
							"name": "amount",
							"type": "uint256"
						}
					],
					"name": "latestPurchased",
					"type": "event"
				},
				{
					"inputs": [],
					"name": "BeginIDO",
					"outputs": [],
					"stateMutability": "nonpayable",
					"type": "function"
				},
				{
					"inputs": [],
					"name": "StopIDO",
					"outputs": [],
					"stateMutability": "nonpayable",
					"type": "function"
				},
				{
					"inputs": [],
					"name": "USDT",
					"outputs": [
						{
							"internalType": "address",
							"name": "",
							"type": "address"
						}
					],
					"stateMutability": "view",
					"type": "function"
				},
				{
					"inputs": [],
					"name": "claimPurchasedToken",
					"outputs": [],
					"stateMutability": "nonpayable",
					"type": "function"
				},
				{
					"inputs": [],
					"name": "claimRaisedFunds",
					"outputs": [],
					"stateMutability": "nonpayable",
					"type": "function"
				},
				{
					"inputs": [
						{
							"internalType": "uint256",
							"name": "_tokenPrice",
							"type": "uint256"
						},
						{
							"internalType": "uint256",
							"name": "_targetSale",
							"type": "uint256"
						}
					],
					"name": "editIDO",
					"outputs": [],
					"stateMutability": "nonpayable",
					"type": "function"
				},
				{
					"inputs": [
						{
							"internalType": "uint256",
							"name": "_amount",
							"type": "uint256"
						}
					],
					"name": "purchaseToken",
					"outputs": [],
					"stateMutability": "nonpayable",
					"type": "function"
				},
				{
					"inputs": [
						{
							"internalType": "address",
							"name": "_token",
							"type": "address"
						},
						{
							"internalType": "uint256",
							"name": "_tokens",
							"type": "uint256"
						}
					],
					"name": "startClaim",
					"outputs": [],
					"stateMutability": "nonpayable",
					"type": "function"
				},
				{
					"inputs": [],
					"name": "tokenPrice",
					"outputs": [
						{
							"internalType": "uint256",
							"name": "",
							"type": "uint256"
						}
					],
					"stateMutability": "view",
					"type": "function"
				}
			],
			"devdoc": {
				"kind": "dev",
				"methods": {},
				"version": 1
			},
			"evm": {
				"assembly": "    /* \"contracts/ico.sol\":1245:4327  contract Amestarter is ReentrancyGuard {... */\n  mstore(0x40, 0xa0)\n    /* \"contracts/ico.sol\":1991:2211  constructor(uint _tokenPrice, address _IUSDT, uint256 _targetSale){... */\n  callvalue\n  dup1\n  iszero\n  tag_1\n  jumpi\n  0x00\n  dup1\n  revert\ntag_1:\n  pop\n  mload(0x40)\n  sub(codesize, bytecodeSize)\n  dup1\n  bytecodeSize\n  dup4\n  codecopy\n  dup2\n  dup2\n  add\n  0x40\n  mstore\n  dup2\n  add\n  swap1\n  tag_2\n  swap2\n  swap1\n  tag_3\n  jump\t// in\ntag_2:\n    /* \"@openzeppelin/contracts/security/ReentrancyGuard.sol\":1701:1702  1 */\n  0x01\n    /* \"@openzeppelin/contracts/security/ReentrancyGuard.sol\":1806:1813  _status */\n  0x00\n    /* \"@openzeppelin/contracts/security/ReentrancyGuard.sol\":1806:1828  _status = _NOT_ENTERED */\n  dup2\n  swap1\n  sstore\n  pop\n    /* \"contracts/ico.sol\":2076:2086  msg.sender */\n  caller\n    /* \"contracts/ico.sol\":2068:2073  owner */\n  0x03\n  0x00\n    /* \"contracts/ico.sol\":2068:2086  owner = msg.sender */\n  0x0100\n  exp\n  dup2\n  sload\n  dup2\n  0xffffffffffffffffffffffffffffffffffffffff\n  mul\n  not\n  and\n  swap1\n  dup4\n  0xffffffffffffffffffffffffffffffffffffffff\n  and\n  mul\n  or\n  swap1\n  sstore\n  pop\n    /* \"contracts/ico.sol\":2124:2132  10 ** 18 */\n  0x0de0b6b3a7640000\n    /* \"contracts/ico.sol\":2110:2121  _tokenPrice */\n  dup4\n    /* \"contracts/ico.sol\":2110:2132  _tokenPrice * 10 ** 18 */\n  tag_8\n  swap2\n  swap1\n  tag_9\n  jump\t// in\ntag_8:\n    /* \"contracts/ico.sol\":2097:2107  tokenPrice */\n  0x02\n    /* \"contracts/ico.sol\":2097:2132  tokenPrice = _tokenPrice * 10 ** 18 */\n  dup2\n  swap1\n  sstore\n  pop\n    /* \"contracts/ico.sol\":2150:2156  _IUSDT */\n  dup2\n    /* \"contracts/ico.sol\":2143:2156  USDT = _IUSDT */\n  0xffffffffffffffffffffffffffffffffffffffff\n  and\n  0x80\n  dup2\n  0xffffffffffffffffffffffffffffffffffffffff\n  and\n  dup2\n  mstore\n  pop\n  pop\n    /* \"contracts/ico.sol\":2195:2203  10 ** 18 */\n  0x0de0b6b3a7640000\n    /* \"contracts/ico.sol\":2181:2192  _targetSale */\n  dup2\n    /* \"contracts/ico.sol\":2181:2203  _targetSale * 10 ** 18 */\n  tag_10\n  swap2\n  swap1\n  tag_9\n  jump\t// in\ntag_10:\n    /* \"contracts/ico.sol\":2168:2178  targetSale */\n  0x04\n    /* \"contracts/ico.sol\":2168:2203  targetSale = _targetSale * 10 ** 18 */\n  dup2\n  swap1\n  sstore\n  pop\n    /* \"contracts/ico.sol\":1991:2211  constructor(uint _tokenPrice, address _IUSDT, uint256 _targetSale){... */\n  pop\n  pop\n  pop\n    /* \"contracts/ico.sol\":1245:4327  contract Amestarter is ReentrancyGuard {... */\n  jump(tag_11)\n    /* \"#utility.yul\":88:205   */\ntag_13:\n    /* \"#utility.yul\":197:198   */\n  0x00\n    /* \"#utility.yul\":194:195   */\n  dup1\n    /* \"#utility.yul\":187:199   */\n  revert\n    /* \"#utility.yul\":334:411   */\ntag_15:\n    /* \"#utility.yul\":371:378   */\n  0x00\n    /* \"#utility.yul\":400:405   */\n  dup2\n    /* \"#utility.yul\":389:405   */\n  swap1\n  pop\n    /* \"#utility.yul\":334:411   */\n  swap2\n  swap1\n  pop\n  jump\t// out\n    /* \"#utility.yul\":417:539   */\ntag_16:\n    /* \"#utility.yul\":490:514   */\n  tag_29\n    /* \"#utility.yul\":508:513   */\n  dup2\n    /* \"#utility.yul\":490:514   */\n  tag_15\n  jump\t// in\ntag_29:\n    /* \"#utility.yul\":483:488   */\n  dup2\n    /* \"#utility.yul\":480:515   */\n  eq\n    /* \"#utility.yul\":470:533   */\n  tag_30\n  jumpi\n    /* \"#utility.yul\":529:530   */\n  0x00\n    /* \"#utility.yul\":526:527   */\n  dup1\n    /* \"#utility.yul\":519:531   */\n  revert\n    /* \"#utility.yul\":470:533   */\ntag_30:\n    /* \"#utility.yul\":417:539   */\n  pop\n  jump\t// out\n    /* \"#utility.yul\":545:688   */\ntag_17:\n    /* \"#utility.yul\":602:607   */\n  0x00\n    /* \"#utility.yul\":633:639   */\n  dup2\n    /* \"#utility.yul\":627:640   */\n  mload\n    /* \"#utility.yul\":618:640   */\n  swap1\n  pop\n    /* \"#utility.yul\":649:682   */\n  tag_32\n    /* \"#utility.yul\":676:681   */\n  dup2\n    /* \"#utility.yul\":649:682   */\n  tag_16\n  jump\t// in\ntag_32:\n    /* \"#utility.yul\":545:688   */\n  swap3\n  swap2\n  pop\n  pop\n  jump\t// out\n    /* \"#utility.yul\":694:820   */\ntag_18:\n    /* \"#utility.yul\":731:738   */\n  0x00\n    /* \"#utility.yul\":771:813   */\n  0xffffffffffffffffffffffffffffffffffffffff\n    /* \"#utility.yul\":764:769   */\n  dup3\n    /* \"#utility.yul\":760:814   */\n  and\n    /* \"#utility.yul\":749:814   */\n  swap1\n  pop\n    /* \"#utility.yul\":694:820   */\n  swap2\n  swap1\n  pop\n  jump\t// out\n    /* \"#utility.yul\":826:922   */\ntag_19:\n    /* \"#utility.yul\":863:870   */\n  0x00\n    /* \"#utility.yul\":892:916   */\n  tag_35\n    /* \"#utility.yul\":910:915   */\n  dup3\n    /* \"#utility.yul\":892:916   */\n  tag_18\n  jump\t// in\ntag_35:\n    /* \"#utility.yul\":881:916   */\n  swap1\n  pop\n    /* \"#utility.yul\":826:922   */\n  swap2\n  swap1\n  pop\n  jump\t// out\n    /* \"#utility.yul\":928:1050   */\ntag_20:\n    /* \"#utility.yul\":1001:1025   */\n  tag_37\n    /* \"#utility.yul\":1019:1024   */\n  dup2\n    /* \"#utility.yul\":1001:1025   */\n  tag_19\n  jump\t// in\ntag_37:\n    /* \"#utility.yul\":994:999   */\n  dup2\n    /* \"#utility.yul\":991:1026   */\n  eq\n    /* \"#utility.yul\":981:1044   */\n  tag_38\n  jumpi\n    /* \"#utility.yul\":1040:1041   */\n  0x00\n    /* \"#utility.yul\":1037:1038   */\n  dup1\n    /* \"#utility.yul\":1030:1042   */\n  revert\n    /* \"#utility.yul\":981:1044   */\ntag_38:\n    /* \"#utility.yul\":928:1050   */\n  pop\n  jump\t// out\n    /* \"#utility.yul\":1056:1199   */\ntag_21:\n    /* \"#utility.yul\":1113:1118   */\n  0x00\n    /* \"#utility.yul\":1144:1150   */\n  dup2\n    /* \"#utility.yul\":1138:1151   */\n  mload\n    /* \"#utility.yul\":1129:1151   */\n  swap1\n  pop\n    /* \"#utility.yul\":1160:1193   */\n  tag_40\n    /* \"#utility.yul\":1187:1192   */\n  dup2\n    /* \"#utility.yul\":1160:1193   */\n  tag_20\n  jump\t// in\ntag_40:\n    /* \"#utility.yul\":1056:1199   */\n  swap3\n  swap2\n  pop\n  pop\n  jump\t// out\n    /* \"#utility.yul\":1205:1868   */\ntag_3:\n    /* \"#utility.yul\":1293:1299   */\n  0x00\n    /* \"#utility.yul\":1301:1307   */\n  dup1\n    /* \"#utility.yul\":1309:1315   */\n  0x00\n    /* \"#utility.yul\":1358:1360   */\n  0x60\n    /* \"#utility.yul\":1346:1355   */\n  dup5\n    /* \"#utility.yul\":1337:1344   */\n  dup7\n    /* \"#utility.yul\":1333:1356   */\n  sub\n    /* \"#utility.yul\":1329:1361   */\n  slt\n    /* \"#utility.yul\":1326:1445   */\n  iszero\n  tag_42\n  jumpi\n    /* \"#utility.yul\":1364:1443   */\n  tag_43\n  tag_13\n  jump\t// in\ntag_43:\n    /* \"#utility.yul\":1326:1445   */\ntag_42:\n    /* \"#utility.yul\":1484:1485   */\n  0x00\n    /* \"#utility.yul\":1509:1573   */\n  tag_44\n    /* \"#utility.yul\":1565:1572   */\n  dup7\n    /* \"#utility.yul\":1556:1562   */\n  dup3\n    /* \"#utility.yul\":1545:1554   */\n  dup8\n    /* \"#utility.yul\":1541:1563   */\n  add\n    /* \"#utility.yul\":1509:1573   */\n  tag_17\n  jump\t// in\ntag_44:\n    /* \"#utility.yul\":1499:1573   */\n  swap4\n  pop\n    /* \"#utility.yul\":1455:1583   */\n  pop\n    /* \"#utility.yul\":1622:1624   */\n  0x20\n    /* \"#utility.yul\":1648:1712   */\n  tag_45\n    /* \"#utility.yul\":1704:1711   */\n  dup7\n    /* \"#utility.yul\":1695:1701   */\n  dup3\n    /* \"#utility.yul\":1684:1693   */\n  dup8\n    /* \"#utility.yul\":1680:1702   */\n  add\n    /* \"#utility.yul\":1648:1712   */\n  tag_21\n  jump\t// in\ntag_45:\n    /* \"#utility.yul\":1638:1712   */\n  swap3\n  pop\n    /* \"#utility.yul\":1593:1722   */\n  pop\n    /* \"#utility.yul\":1761:1763   */\n  0x40\n    /* \"#utility.yul\":1787:1851   */\n  tag_46\n    /* \"#utility.yul\":1843:1850   */\n  dup7\n    /* \"#utility.yul\":1834:1840   */\n  dup3\n    /* \"#utility.yul\":1823:1832   */\n  dup8\n    /* \"#utility.yul\":1819:1841   */\n  add\n    /* \"#utility.yul\":1787:1851   */\n  tag_17\n  jump\t// in\ntag_46:\n    /* \"#utility.yul\":1777:1851   */\n  swap2\n  pop\n    /* \"#utility.yul\":1732:1861   */\n  pop\n    /* \"#utility.yul\":1205:1868   */\n  swap3\n  pop\n  swap3\n  pop\n  swap3\n  jump\t// out\n    /* \"#utility.yul\":1874:2054   */\ntag_22:\n    /* \"#utility.yul\":1922:1999   */\n  0x4e487b7100000000000000000000000000000000000000000000000000000000\n    /* \"#utility.yul\":1919:1920   */\n  0x00\n    /* \"#utility.yul\":1912:2000   */\n  mstore\n    /* \"#utility.yul\":2019:2023   */\n  0x11\n    /* \"#utility.yul\":2016:2017   */\n  0x04\n    /* \"#utility.yul\":2009:2024   */\n  mstore\n    /* \"#utility.yul\":2043:2047   */\n  0x24\n    /* \"#utility.yul\":2040:2041   */\n  0x00\n    /* \"#utility.yul\":2033:2048   */\n  revert\n    /* \"#utility.yul\":2060:2470   */\ntag_9:\n    /* \"#utility.yul\":2100:2107   */\n  0x00\n    /* \"#utility.yul\":2123:2143   */\n  tag_49\n    /* \"#utility.yul\":2141:2142   */\n  dup3\n    /* \"#utility.yul\":2123:2143   */\n  tag_15\n  jump\t// in\ntag_49:\n    /* \"#utility.yul\":2118:2143   */\n  swap2\n  pop\n    /* \"#utility.yul\":2157:2177   */\n  tag_50\n    /* \"#utility.yul\":2175:2176   */\n  dup4\n    /* \"#utility.yul\":2157:2177   */\n  tag_15\n  jump\t// in\ntag_50:\n    /* \"#utility.yul\":2152:2177   */\n  swap3\n  pop\n    /* \"#utility.yul\":2212:2213   */\n  dup3\n    /* \"#utility.yul\":2209:2210   */\n  dup3\n    /* \"#utility.yul\":2205:2214   */\n  mul\n    /* \"#utility.yul\":2234:2264   */\n  tag_51\n    /* \"#utility.yul\":2252:2263   */\n  dup2\n    /* \"#utility.yul\":2234:2264   */\n  tag_15\n  jump\t// in\ntag_51:\n    /* \"#utility.yul\":2223:2264   */\n  swap2\n  pop\n    /* \"#utility.yul\":2413:2414   */\n  dup3\n    /* \"#utility.yul\":2404:2411   */\n  dup3\n    /* \"#utility.yul\":2400:2415   */\n  div\n    /* \"#utility.yul\":2397:2398   */\n  dup5\n    /* \"#utility.yul\":2394:2416   */\n  eq\n    /* \"#utility.yul\":2374:2375   */\n  dup4\n    /* \"#utility.yul\":2367:2376   */\n  iszero\n    /* \"#utility.yul\":2347:2430   */\n  or\n    /* \"#utility.yul\":2324:2463   */\n  tag_52\n  jumpi\n    /* \"#utility.yul\":2443:2461   */\n  tag_53\n  tag_22\n  jump\t// in\ntag_53:\n    /* \"#utility.yul\":2324:2463   */\ntag_52:\n    /* \"#utility.yul\":2108:2470   */\n  pop\n    /* \"#utility.yul\":2060:2470   */\n  swap3\n  swap2\n  pop\n  pop\n  jump\t// out\n    /* \"contracts/ico.sol\":1245:4327  contract Amestarter is ReentrancyGuard {... */\ntag_11:\n  mload(0x80)\n  codecopy(0x00, dataOffset(sub_0), dataSize(sub_0))\n  0x00\n  assignImmutable(\"0xc8a6f112e7620748ca3ae6a49a58464897133c24b6f43e9fa71155cd2626380a\")\n  return(0x00, dataSize(sub_0))\nstop\n\nsub_0: assembly {\n        /* \"contracts/ico.sol\":1245:4327  contract Amestarter is ReentrancyGuard {... */\n      mstore(0x40, 0x80)\n      callvalue\n      dup1\n      iszero\n      tag_1\n      jumpi\n      0x00\n      dup1\n      revert\n    tag_1:\n      pop\n      jumpi(tag_2, lt(calldatasize, 0x04))\n      shr(0xe0, calldataload(0x00))\n      dup1\n      0xb5924100\n      gt\n      tag_12\n      jumpi\n      dup1\n      0xb5924100\n      eq\n      tag_7\n      jumpi\n      dup1\n      0xc2db2c42\n      eq\n      tag_8\n      jumpi\n      dup1\n      0xc54e44eb\n      eq\n      tag_9\n      jumpi\n      dup1\n      0xd7997f7e\n      eq\n      tag_10\n      jumpi\n      dup1\n      0xdc55920f\n      eq\n      tag_11\n      jumpi\n      jump(tag_2)\n    tag_12:\n      dup1\n      0x76d812ea\n      eq\n      tag_3\n      jumpi\n      dup1\n      0x7ff9b596\n      eq\n      tag_4\n      jumpi\n      dup1\n      0x890e63e7\n      eq\n      tag_5\n      jumpi\n      dup1\n      0xb392972d\n      eq\n      tag_6\n      jumpi\n    tag_2:\n      0x00\n      dup1\n      revert\n        /* \"contracts/ico.sol\":4168:4316  function StopIDO() public {... */\n    tag_3:\n      tag_13\n      tag_14\n      jump\t// in\n    tag_13:\n      stop\n        /* \"contracts/ico.sol\":1394:1416  uint public tokenPrice */\n    tag_4:\n      tag_15\n      tag_16\n      jump\t// in\n    tag_15:\n      mload(0x40)\n      tag_17\n      swap2\n      swap1\n      tag_18\n      jump\t// in\n    tag_17:\n      mload(0x40)\n      dup1\n      swap2\n      sub\n      swap1\n      return\n        /* \"contracts/ico.sol\":3720:3975  function editIDO(uint _tokenPrice, uint256 _targetSale) public{... */\n    tag_5:\n      tag_19\n      0x04\n      dup1\n      calldatasize\n      sub\n      dup2\n      add\n      swap1\n      tag_20\n      swap2\n      swap1\n      tag_21\n      jump\t// in\n    tag_20:\n      tag_22\n      jump\t// in\n    tag_19:\n      stop\n        /* \"contracts/ico.sol\":3458:3712  function claimRaisedFunds() external {... */\n    tag_6:\n      tag_23\n      tag_24\n      jump\t// in\n    tag_23:\n      stop\n        /* \"contracts/ico.sol\":2671:2906  function startClaim(address _token, uint256 _tokens) external {... */\n    tag_7:\n      tag_25\n      0x04\n      dup1\n      calldatasize\n      sub\n      dup2\n      add\n      swap1\n      tag_26\n      swap2\n      swap1\n      tag_27\n      jump\t// in\n    tag_26:\n      tag_28\n      jump\t// in\n    tag_25:\n      stop\n        /* \"contracts/ico.sol\":2219:2663  function purchaseToken(uint _amount)  public nonReentrant{... */\n    tag_8:\n      tag_29\n      0x04\n      dup1\n      calldatasize\n      sub\n      dup2\n      add\n      swap1\n      tag_30\n      swap2\n      swap1\n      tag_31\n      jump\t// in\n    tag_30:\n      tag_32\n      jump\t// in\n    tag_29:\n      stop\n        /* \"contracts/ico.sol\":1332:1361  address public immutable USDT */\n    tag_9:\n      tag_33\n      tag_34\n      jump\t// in\n    tag_33:\n      mload(0x40)\n      tag_35\n      swap2\n      swap1\n      tag_36\n      jump\t// in\n    tag_35:\n      mload(0x40)\n      dup1\n      swap2\n      sub\n      swap1\n      return\n        /* \"contracts/ico.sol\":2914:3450  function claimPurchasedToken() external nonReentrant {... */\n    tag_10:\n      tag_37\n      tag_38\n      jump\t// in\n    tag_37:\n      stop\n        /* \"contracts/ico.sol\":3983:4160  function BeginIDO() public {... */\n    tag_11:\n      tag_39\n      tag_40\n      jump\t// in\n    tag_39:\n      stop\n        /* \"contracts/ico.sol\":4168:4316  function StopIDO() public {... */\n    tag_14:\n        /* \"contracts/ico.sol\":4227:4232  owner */\n      0x03\n      0x00\n      swap1\n      sload\n      swap1\n      0x0100\n      exp\n      swap1\n      div\n      0xffffffffffffffffffffffffffffffffffffffff\n      and\n        /* \"contracts/ico.sol\":4213:4232  msg.sender == owner */\n      0xffffffffffffffffffffffffffffffffffffffff\n      and\n        /* \"contracts/ico.sol\":4213:4223  msg.sender */\n      caller\n        /* \"contracts/ico.sol\":4213:4232  msg.sender == owner */\n      0xffffffffffffffffffffffffffffffffffffffff\n      and\n      eq\n        /* \"contracts/ico.sol\":4205:4233  require(msg.sender == owner) */\n      tag_42\n      jumpi\n      0x00\n      dup1\n      revert\n    tag_42:\n        /* \"contracts/ico.sol\":4257:4262  false */\n      0x00\n        /* \"contracts/ico.sol\":4244:4254  IDOStarted */\n      0x03\n      0x14\n        /* \"contracts/ico.sol\":4244:4262  IDOStarted = false */\n      0x0100\n      exp\n      dup2\n      sload\n      dup2\n      0xff\n      mul\n      not\n      and\n      swap1\n      dup4\n      iszero\n      iszero\n      mul\n      or\n      swap1\n      sstore\n      pop\n        /* \"contracts/ico.sol\":4278:4308  ICOStartAlert(\"ICO is paused\") */\n      0x71002079ab3de7feb03ee30c84baf1d2350d4ffe16709d3dacb5e1037a0fe1cc\n      mload(0x40)\n      tag_43\n      swap1\n      tag_44\n      jump\t// in\n    tag_43:\n      mload(0x40)\n      dup1\n      swap2\n      sub\n      swap1\n      log1\n        /* \"contracts/ico.sol\":4168:4316  function StopIDO() public {... */\n      jump\t// out\n        /* \"contracts/ico.sol\":1394:1416  uint public tokenPrice */\n    tag_16:\n      sload(0x02)\n      dup2\n      jump\t// out\n        /* \"contracts/ico.sol\":3720:3975  function editIDO(uint _tokenPrice, uint256 _targetSale) public{... */\n    tag_22:\n        /* \"contracts/ico.sol\":3815:3820  owner */\n      0x03\n      0x00\n      swap1\n      sload\n      swap1\n      0x0100\n      exp\n      swap1\n      div\n      0xffffffffffffffffffffffffffffffffffffffff\n      and\n        /* \"contracts/ico.sol\":3801:3820  msg.sender == owner */\n      0xffffffffffffffffffffffffffffffffffffffff\n      and\n        /* \"contracts/ico.sol\":3801:3811  msg.sender */\n      caller\n        /* \"contracts/ico.sol\":3801:3820  msg.sender == owner */\n      0xffffffffffffffffffffffffffffffffffffffff\n      and\n      eq\n        /* \"contracts/ico.sol\":3793:3821  require(msg.sender == owner) */\n      tag_46\n      jumpi\n      0x00\n      dup1\n      revert\n    tag_46:\n        /* \"contracts/ico.sol\":3859:3867  10 ** 18 */\n      0x0de0b6b3a7640000\n        /* \"contracts/ico.sol\":3845:3856  _tokenPrice */\n      dup3\n        /* \"contracts/ico.sol\":3845:3867  _tokenPrice * 10 ** 18 */\n      tag_47\n      swap2\n      swap1\n      tag_48\n      jump\t// in\n    tag_47:\n        /* \"contracts/ico.sol\":3832:3842  tokenPrice */\n      0x02\n        /* \"contracts/ico.sol\":3832:3867  tokenPrice = _tokenPrice * 10 ** 18 */\n      dup2\n      swap1\n      sstore\n      pop\n        /* \"contracts/ico.sol\":3905:3913  10 ** 18 */\n      0x0de0b6b3a7640000\n        /* \"contracts/ico.sol\":3891:3902  _targetSale */\n      dup2\n        /* \"contracts/ico.sol\":3891:3913  _targetSale * 10 ** 18 */\n      tag_49\n      swap2\n      swap1\n      tag_48\n      jump\t// in\n    tag_49:\n        /* \"contracts/ico.sol\":3878:3888  targetSale */\n      0x04\n        /* \"contracts/ico.sol\":3878:3913  targetSale = _targetSale * 10 ** 18 */\n      dup2\n      swap1\n      sstore\n      pop\n        /* \"contracts/ico.sol\":3931:3967  icoUpdate( _tokenPrice, _targetSale) */\n      0x314bf1ccc32c608a6175053b0da1933b3a745b3f799011003a4c39aab0c518a3\n        /* \"contracts/ico.sol\":3942:3953  _tokenPrice */\n      dup3\n        /* \"contracts/ico.sol\":3955:3966  _targetSale */\n      dup3\n        /* \"contracts/ico.sol\":3931:3967  icoUpdate( _tokenPrice, _targetSale) */\n      mload(0x40)\n      tag_50\n      swap3\n      swap2\n      swap1\n      tag_51\n      jump\t// in\n    tag_50:\n      mload(0x40)\n      dup1\n      swap2\n      sub\n      swap1\n      log1\n        /* \"contracts/ico.sol\":3720:3975  function editIDO(uint _tokenPrice, uint256 _targetSale) public{... */\n      pop\n      pop\n      jump\t// out\n        /* \"contracts/ico.sol\":3458:3712  function claimRaisedFunds() external {... */\n    tag_24:\n        /* \"contracts/ico.sol\":3528:3533  owner */\n      0x03\n      0x00\n      swap1\n      sload\n      swap1\n      0x0100\n      exp\n      swap1\n      div\n      0xffffffffffffffffffffffffffffffffffffffff\n      and\n        /* \"contracts/ico.sol\":3514:3533  msg.sender == owner */\n      0xffffffffffffffffffffffffffffffffffffffff\n      and\n        /* \"contracts/ico.sol\":3514:3524  msg.sender */\n      caller\n        /* \"contracts/ico.sol\":3514:3533  msg.sender == owner */\n      0xffffffffffffffffffffffffffffffffffffffff\n      and\n      eq\n        /* \"contracts/ico.sol\":3506:3558  require(msg.sender == owner, \"Only owner can claim\") */\n      tag_53\n      jumpi\n      mload(0x40)\n      0x08c379a000000000000000000000000000000000000000000000000000000000\n      dup2\n      mstore\n      0x04\n      add\n      tag_54\n      swap1\n      tag_55\n      jump\t// in\n    tag_54:\n      mload(0x40)\n      dup1\n      swap2\n      sub\n      swap1\n      revert\n    tag_53:\n        /* \"contracts/ico.sol\":3569:3588  uint256 raisedFunds */\n      0x00\n        /* \"contracts/ico.sol\":3591:3602  totalRaised */\n      sload(0x05)\n        /* \"contracts/ico.sol\":3569:3602  uint256 raisedFunds = totalRaised */\n      swap1\n      pop\n        /* \"contracts/ico.sol\":3627:3628  0 */\n      0x00\n        /* \"contracts/ico.sol\":3613:3624  totalRaised */\n      0x05\n        /* \"contracts/ico.sol\":3613:3628  totalRaised = 0 */\n      dup2\n      swap1\n      sstore\n      pop\n        /* \"contracts/ico.sol\":3646:3650  USDT */\n      immutable(\"0xc8a6f112e7620748ca3ae6a49a58464897133c24b6f43e9fa71155cd2626380a\")\n        /* \"contracts/ico.sol\":3639:3664  IKRC20(USDT).transferFrom */\n      0xffffffffffffffffffffffffffffffffffffffff\n      and\n      0x23b872dd\n        /* \"contracts/ico.sol\":3673:3677  this */\n      address\n        /* \"contracts/ico.sol\":3680:3690  msg.sender */\n      caller\n        /* \"contracts/ico.sol\":3692:3703  raisedFunds */\n      dup5\n        /* \"contracts/ico.sol\":3639:3704  IKRC20(USDT).transferFrom(address(this), msg.sender, raisedFunds) */\n      mload(0x40)\n      dup5\n      0xffffffff\n      and\n      0xe0\n      shl\n      dup2\n      mstore\n      0x04\n      add\n      tag_56\n      swap4\n      swap3\n      swap2\n      swap1\n      tag_57\n      jump\t// in\n    tag_56:\n      0x20\n      mload(0x40)\n      dup1\n      dup4\n      sub\n      dup2\n      0x00\n      dup8\n      gas\n      call\n      iszero\n      dup1\n      iszero\n      tag_59\n      jumpi\n      returndatasize\n      0x00\n      dup1\n      returndatacopy\n      revert(0x00, returndatasize)\n    tag_59:\n      pop\n      pop\n      pop\n      pop\n      mload(0x40)\n      returndatasize\n      not(0x1f)\n      0x1f\n      dup3\n      add\n      and\n      dup3\n      add\n      dup1\n      0x40\n      mstore\n      pop\n      dup2\n      add\n      swap1\n      tag_60\n      swap2\n      swap1\n      tag_61\n      jump\t// in\n    tag_60:\n      pop\n        /* \"contracts/ico.sol\":3495:3712  {... */\n      pop\n        /* \"contracts/ico.sol\":3458:3712  function claimRaisedFunds() external {... */\n      jump\t// out\n        /* \"contracts/ico.sol\":2671:2906  function startClaim(address _token, uint256 _tokens) external {... */\n    tag_28:\n        /* \"contracts/ico.sol\":2766:2771  owner */\n      0x03\n      0x00\n      swap1\n      sload\n      swap1\n      0x0100\n      exp\n      swap1\n      div\n      0xffffffffffffffffffffffffffffffffffffffff\n      and\n        /* \"contracts/ico.sol\":2752:2771  msg.sender == owner */\n      0xffffffffffffffffffffffffffffffffffffffff\n      and\n        /* \"contracts/ico.sol\":2752:2762  msg.sender */\n      caller\n        /* \"contracts/ico.sol\":2752:2771  msg.sender == owner */\n      0xffffffffffffffffffffffffffffffffffffffff\n      and\n      eq\n        /* \"contracts/ico.sol\":2744:2809  require(msg.sender == owner, \"Only owner can call this function\") */\n      tag_63\n      jumpi\n      mload(0x40)\n      0x08c379a000000000000000000000000000000000000000000000000000000000\n      dup2\n      mstore\n      0x04\n      add\n      tag_64\n      swap1\n      tag_65\n      jump\t// in\n    tag_64:\n      mload(0x40)\n      dup1\n      swap2\n      sub\n      swap1\n      revert\n    tag_63:\n        /* \"contracts/ico.sol\":2826:2832  _token */\n      dup2\n        /* \"contracts/ico.sol\":2820:2823  DAZ */\n      0x01\n      0x00\n        /* \"contracts/ico.sol\":2820:2832  DAZ = _token */\n      0x0100\n      exp\n      dup2\n      sload\n      dup2\n      0xffffffffffffffffffffffffffffffffffffffff\n      mul\n      not\n      and\n      swap1\n      dup4\n      0xffffffffffffffffffffffffffffffffffffffff\n      and\n      mul\n      or\n      swap1\n      sstore\n      pop\n        /* \"contracts/ico.sol\":2861:2868  _tokens */\n      dup1\n        /* \"contracts/ico.sol\":2843:2858  claimableTokens */\n      0x06\n        /* \"contracts/ico.sol\":2843:2868  claimableTokens = _tokens */\n      dup2\n      swap1\n      sstore\n      pop\n        /* \"contracts/ico.sol\":2894:2898  true */\n      0x01\n        /* \"contracts/ico.sol\":2879:2891  claimStarted */\n      0x03\n      0x15\n        /* \"contracts/ico.sol\":2879:2898  claimStarted = true */\n      0x0100\n      exp\n      dup2\n      sload\n      dup2\n      0xff\n      mul\n      not\n      and\n      swap1\n      dup4\n      iszero\n      iszero\n      mul\n      or\n      swap1\n      sstore\n      pop\n        /* \"contracts/ico.sol\":2671:2906  function startClaim(address _token, uint256 _tokens) external {... */\n      pop\n      pop\n      jump\t// out\n        /* \"contracts/ico.sol\":2219:2663  function purchaseToken(uint _amount)  public nonReentrant{... */\n    tag_32:\n        /* \"@openzeppelin/contracts/security/ReentrancyGuard.sol\":1744:1745  2 */\n      0x02\n        /* \"@openzeppelin/contracts/security/ReentrancyGuard.sol\":2325:2332  _status */\n      sload(0x00)\n        /* \"@openzeppelin/contracts/security/ReentrancyGuard.sol\":2325:2344  _status != _ENTERED */\n      sub\n        /* \"@openzeppelin/contracts/security/ReentrancyGuard.sol\":2317:2380  require(_status != _ENTERED, \"ReentrancyGuard: reentrant call\") */\n      tag_67\n      jumpi\n      mload(0x40)\n      0x08c379a000000000000000000000000000000000000000000000000000000000\n      dup2\n      mstore\n      0x04\n      add\n      tag_68\n      swap1\n      tag_69\n      jump\t// in\n    tag_68:\n      mload(0x40)\n      dup1\n      swap2\n      sub\n      swap1\n      revert\n    tag_67:\n        /* \"@openzeppelin/contracts/security/ReentrancyGuard.sol\":1744:1745  2 */\n      0x02\n        /* \"@openzeppelin/contracts/security/ReentrancyGuard.sol\":2455:2462  _status */\n      0x00\n        /* \"@openzeppelin/contracts/security/ReentrancyGuard.sol\":2455:2473  _status = _ENTERED */\n      dup2\n      swap1\n      sstore\n      pop\n        /* \"contracts/ico.sol\":2309:2313  true */\n      0x01\n        /* \"contracts/ico.sol\":2295:2313  IDOStarted == true */\n      iszero\n      iszero\n        /* \"contracts/ico.sol\":2295:2305  IDOStarted */\n      0x03\n      0x14\n      swap1\n      sload\n      swap1\n      0x0100\n      exp\n      swap1\n      div\n      0xff\n      and\n        /* \"contracts/ico.sol\":2295:2313  IDOStarted == true */\n      iszero\n      iszero\n      eq\n        /* \"contracts/ico.sol\":2287:2337  require(IDOStarted == true, \"IDO has not started\") */\n      tag_71\n      jumpi\n      mload(0x40)\n      0x08c379a000000000000000000000000000000000000000000000000000000000\n      dup2\n      mstore\n      0x04\n      add\n      tag_72\n      swap1\n      tag_73\n      jump\t// in\n    tag_72:\n      mload(0x40)\n      dup1\n      swap2\n      sub\n      swap1\n      revert\n    tag_71:\n        /* \"contracts/ico.sol\":2348:2361  uint256 value */\n      0x00\n        /* \"contracts/ico.sol\":2378:2385  _amount */\n      dup2\n        /* \"contracts/ico.sol\":2364:2375  totalRaised */\n      sload(0x05)\n        /* \"contracts/ico.sol\":2364:2385  totalRaised + _amount */\n      tag_74\n      swap2\n      swap1\n      tag_75\n      jump\t// in\n    tag_74:\n        /* \"contracts/ico.sol\":2348:2385  uint256 value = totalRaised + _amount */\n      swap1\n      pop\n        /* \"contracts/ico.sol\":2412:2422  targetSale */\n      sload(0x04)\n        /* \"contracts/ico.sol\":2404:2409  value */\n      dup2\n        /* \"contracts/ico.sol\":2404:2422  value < targetSale */\n      lt\n        /* \"contracts/ico.sol\":2396:2451  require(value < targetSale, \"All tokens has been sold\") */\n      tag_76\n      jumpi\n      mload(0x40)\n      0x08c379a000000000000000000000000000000000000000000000000000000000\n      dup2\n      mstore\n      0x04\n      add\n      tag_77\n      swap1\n      tag_78\n      jump\t// in\n    tag_77:\n      mload(0x40)\n      dup1\n      swap2\n      sub\n      swap1\n      revert\n    tag_76:\n        /* \"contracts/ico.sol\":2462:2527  IKRC20(USDT).safeTransferFrom(msg.sender, address(this), _amount) */\n      tag_79\n        /* \"contracts/ico.sol\":2492:2502  msg.sender */\n      caller\n        /* \"contracts/ico.sol\":2512:2516  this */\n      address\n        /* \"contracts/ico.sol\":2519:2526  _amount */\n      dup5\n        /* \"contracts/ico.sol\":2469:2473  USDT */\n      immutable(\"0xc8a6f112e7620748ca3ae6a49a58464897133c24b6f43e9fa71155cd2626380a\")\n        /* \"contracts/ico.sol\":2462:2491  IKRC20(USDT).safeTransferFrom */\n      0xffffffffffffffffffffffffffffffffffffffff\n      and\n      tag_80\n      swap1\n        /* \"contracts/ico.sol\":2462:2527  IKRC20(USDT).safeTransferFrom(msg.sender, address(this), _amount) */\n      swap4\n      swap3\n      swap2\n      swap1\n      0xffffffff\n      and\n      jump\t// in\n    tag_79:\n        /* \"contracts/ico.sol\":2563:2570  _amount */\n      dup2\n        /* \"contracts/ico.sol\":2538:2546  purchase */\n      0x07\n        /* \"contracts/ico.sol\":2538:2558  purchase[msg.sender] */\n      0x00\n        /* \"contracts/ico.sol\":2547:2557  msg.sender */\n      caller\n        /* \"contracts/ico.sol\":2538:2558  purchase[msg.sender] */\n      0xffffffffffffffffffffffffffffffffffffffff\n      and\n      0xffffffffffffffffffffffffffffffffffffffff\n      and\n      dup2\n      mstore\n      0x20\n      add\n      swap1\n      dup2\n      mstore\n      0x20\n      add\n      0x00\n      keccak256\n      0x00\n        /* \"contracts/ico.sol\":2538:2570  purchase[msg.sender]  += _amount */\n      dup3\n      dup3\n      sload\n      tag_81\n      swap2\n      swap1\n      tag_75\n      jump\t// in\n    tag_81:\n      swap3\n      pop\n      pop\n      dup2\n      swap1\n      sstore\n      pop\n        /* \"contracts/ico.sol\":2596:2603  _amount */\n      dup2\n        /* \"contracts/ico.sol\":2581:2592  totalRaised */\n      0x05\n      0x00\n        /* \"contracts/ico.sol\":2581:2603  totalRaised += _amount */\n      dup3\n      dup3\n      sload\n      tag_82\n      swap2\n      swap1\n      tag_75\n      jump\t// in\n    tag_82:\n      swap3\n      pop\n      pop\n      dup2\n      swap1\n      sstore\n      pop\n        /* \"contracts/ico.sol\":2635:2645  msg.sender */\n      caller\n        /* \"contracts/ico.sol\":2619:2655  latestPurchased(msg.sender, _amount) */\n      0xffffffffffffffffffffffffffffffffffffffff\n      and\n      0xda4cadf0d4383cb43c8249e3cc678f6690bdbaa01421c99fd9b14edac62cde80\n        /* \"contracts/ico.sol\":2647:2654  _amount */\n      dup4\n        /* \"contracts/ico.sol\":2619:2655  latestPurchased(msg.sender, _amount) */\n      mload(0x40)\n      tag_83\n      swap2\n      swap1\n      tag_18\n      jump\t// in\n    tag_83:\n      mload(0x40)\n      dup1\n      swap2\n      sub\n      swap1\n      log2\n        /* \"contracts/ico.sol\":2276:2663  {... */\n      pop\n        /* \"@openzeppelin/contracts/security/ReentrancyGuard.sol\":1701:1702  1 */\n      0x01\n        /* \"@openzeppelin/contracts/security/ReentrancyGuard.sol\":2628:2635  _status */\n      0x00\n        /* \"@openzeppelin/contracts/security/ReentrancyGuard.sol\":2628:2650  _status = _NOT_ENTERED */\n      dup2\n      swap1\n      sstore\n      pop\n        /* \"contracts/ico.sol\":2219:2663  function purchaseToken(uint _amount)  public nonReentrant{... */\n      pop\n      jump\t// out\n        /* \"contracts/ico.sol\":1332:1361  address public immutable USDT */\n    tag_34:\n      immutable(\"0xc8a6f112e7620748ca3ae6a49a58464897133c24b6f43e9fa71155cd2626380a\")\n      dup2\n      jump\t// out\n        /* \"contracts/ico.sol\":2914:3450  function claimPurchasedToken() external nonReentrant {... */\n    tag_38:\n        /* \"@openzeppelin/contracts/security/ReentrancyGuard.sol\":1744:1745  2 */\n      0x02\n        /* \"@openzeppelin/contracts/security/ReentrancyGuard.sol\":2325:2332  _status */\n      sload(0x00)\n        /* \"@openzeppelin/contracts/security/ReentrancyGuard.sol\":2325:2344  _status != _ENTERED */\n      sub\n        /* \"@openzeppelin/contracts/security/ReentrancyGuard.sol\":2317:2380  require(_status != _ENTERED, \"ReentrancyGuard: reentrant call\") */\n      tag_85\n      jumpi\n      mload(0x40)\n      0x08c379a000000000000000000000000000000000000000000000000000000000\n      dup2\n      mstore\n      0x04\n      add\n      tag_86\n      swap1\n      tag_69\n      jump\t// in\n    tag_86:\n      mload(0x40)\n      dup1\n      swap2\n      sub\n      swap1\n      revert\n    tag_85:\n        /* \"@openzeppelin/contracts/security/ReentrancyGuard.sol\":1744:1745  2 */\n      0x02\n        /* \"@openzeppelin/contracts/security/ReentrancyGuard.sol\":2455:2462  _status */\n      0x00\n        /* \"@openzeppelin/contracts/security/ReentrancyGuard.sol\":2455:2473  _status = _ENTERED */\n      dup2\n      swap1\n      sstore\n      pop\n        /* \"contracts/ico.sol\":3000:3005  false */\n      0x00\n        /* \"contracts/ico.sol\":2986:3005  IDOStarted == false */\n      iszero\n      iszero\n        /* \"contracts/ico.sol\":2986:2996  IDOStarted */\n      0x03\n      0x14\n      swap1\n      sload\n      swap1\n      0x0100\n      exp\n      swap1\n      div\n      0xff\n      and\n        /* \"contracts/ico.sol\":2986:3005  IDOStarted == false */\n      iszero\n      iszero\n      eq\n        /* \"contracts/ico.sol\":2978:3047  require(IDOStarted == false, \"IDO Has  not ended, claim unavailable\") */\n      tag_88\n      jumpi\n      mload(0x40)\n      0x08c379a000000000000000000000000000000000000000000000000000000000\n      dup2\n      mstore\n      0x04\n      add\n      tag_89\n      swap1\n      tag_90\n      jump\t// in\n    tag_89:\n      mload(0x40)\n      dup1\n      swap2\n      sub\n      swap1\n      revert\n    tag_88:\n        /* \"contracts/ico.sol\":3089:3090  0 */\n      0x00\n        /* \"contracts/ico.sol\":3066:3074  purchase */\n      0x07\n        /* \"contracts/ico.sol\":3066:3086  purchase[msg.sender] */\n      0x00\n        /* \"contracts/ico.sol\":3075:3085  msg.sender */\n      caller\n        /* \"contracts/ico.sol\":3066:3086  purchase[msg.sender] */\n      0xffffffffffffffffffffffffffffffffffffffff\n      and\n      0xffffffffffffffffffffffffffffffffffffffff\n      and\n      dup2\n      mstore\n      0x20\n      add\n      swap1\n      dup2\n      mstore\n      0x20\n      add\n      0x00\n      keccak256\n      sload\n        /* \"contracts/ico.sol\":3066:3090  purchase[msg.sender] > 0 */\n      gt\n        /* \"contracts/ico.sol\":3058:3118  require(purchase[msg.sender] > 0, \"you did not participate\") */\n      tag_91\n      jumpi\n      mload(0x40)\n      0x08c379a000000000000000000000000000000000000000000000000000000000\n      dup2\n      mstore\n      0x04\n      add\n      tag_92\n      swap1\n      tag_93\n      jump\t// in\n    tag_92:\n      mload(0x40)\n      dup1\n      swap2\n      sub\n      swap1\n      revert\n    tag_91:\n        /* \"contracts/ico.sol\":3129:3153  uint256  claimableAmount */\n      0x00\n        /* \"contracts/ico.sol\":3156:3164  purchase */\n      0x07\n        /* \"contracts/ico.sol\":3156:3176  purchase[msg.sender] */\n      0x00\n        /* \"contracts/ico.sol\":3165:3175  msg.sender */\n      caller\n        /* \"contracts/ico.sol\":3156:3176  purchase[msg.sender] */\n      0xffffffffffffffffffffffffffffffffffffffff\n      and\n      0xffffffffffffffffffffffffffffffffffffffff\n      and\n      dup2\n      mstore\n      0x20\n      add\n      swap1\n      dup2\n      mstore\n      0x20\n      add\n      0x00\n      keccak256\n      sload\n        /* \"contracts/ico.sol\":3129:3176  uint256  claimableAmount = purchase[msg.sender] */\n      swap1\n      pop\n        /* \"contracts/ico.sol\":3187:3201  uint256  token */\n      0x00\n        /* \"contracts/ico.sol\":3223:3233  tokenPrice */\n      sload(0x02)\n        /* \"contracts/ico.sol\":3205:3220  claimableAmount */\n      dup3\n        /* \"contracts/ico.sol\":3205:3233  claimableAmount / tokenPrice */\n      tag_94\n      swap2\n      swap1\n      tag_95\n      jump\t// in\n    tag_94:\n        /* \"contracts/ico.sol\":3187:3234  uint256  token = (claimableAmount / tokenPrice) */\n      swap1\n      pop\n        /* \"contracts/ico.sol\":3245:3267  uint256 claimableToken */\n      0x00\n        /* \"contracts/ico.sol\":3278:3284  10**18 */\n      0x0de0b6b3a7640000\n        /* \"contracts/ico.sol\":3270:3275  token */\n      dup3\n        /* \"contracts/ico.sol\":3270:3284  token * 10**18 */\n      tag_96\n      swap2\n      swap1\n      tag_48\n      jump\t// in\n    tag_96:\n        /* \"contracts/ico.sol\":3245:3284  uint256 claimableToken = token * 10**18 */\n      swap1\n      pop\n        /* \"contracts/ico.sol\":3318:3319  0 */\n      0x00\n        /* \"contracts/ico.sol\":3295:3303  purchase */\n      0x07\n        /* \"contracts/ico.sol\":3295:3315  purchase[msg.sender] */\n      0x00\n        /* \"contracts/ico.sol\":3304:3314  msg.sender */\n      caller\n        /* \"contracts/ico.sol\":3295:3315  purchase[msg.sender] */\n      0xffffffffffffffffffffffffffffffffffffffff\n      and\n      0xffffffffffffffffffffffffffffffffffffffff\n      and\n      dup2\n      mstore\n      0x20\n      add\n      swap1\n      dup2\n      mstore\n      0x20\n      add\n      0x00\n      keccak256\n        /* \"contracts/ico.sol\":3295:3319  purchase[msg.sender] = 0 */\n      dup2\n      swap1\n      sstore\n      pop\n        /* \"contracts/ico.sol\":3337:3340  DAZ */\n      0x01\n      0x00\n      swap1\n      sload\n      swap1\n      0x0100\n      exp\n      swap1\n      div\n      0xffffffffffffffffffffffffffffffffffffffff\n      and\n        /* \"contracts/ico.sol\":3330:3354  IKRC20(DAZ).transferFrom */\n      0xffffffffffffffffffffffffffffffffffffffff\n      and\n      0x23b872dd\n        /* \"contracts/ico.sol\":3363:3367  this */\n      address\n        /* \"contracts/ico.sol\":3370:3380  msg.sender */\n      caller\n        /* \"contracts/ico.sol\":3382:3396  claimableToken */\n      dup5\n        /* \"contracts/ico.sol\":3330:3397  IKRC20(DAZ).transferFrom(address(this), msg.sender, claimableToken) */\n      mload(0x40)\n      dup5\n      0xffffffff\n      and\n      0xe0\n      shl\n      dup2\n      mstore\n      0x04\n      add\n      tag_97\n      swap4\n      swap3\n      swap2\n      swap1\n      tag_57\n      jump\t// in\n    tag_97:\n      0x20\n      mload(0x40)\n      dup1\n      dup4\n      sub\n      dup2\n      0x00\n      dup8\n      gas\n      call\n      iszero\n      dup1\n      iszero\n      tag_99\n      jumpi\n      returndatasize\n      0x00\n      dup1\n      returndatacopy\n      revert(0x00, returndatasize)\n    tag_99:\n      pop\n      pop\n      pop\n      pop\n      mload(0x40)\n      returndatasize\n      not(0x1f)\n      0x1f\n      dup3\n      add\n      and\n      dup3\n      add\n      dup1\n      0x40\n      mstore\n      pop\n      dup2\n      add\n      swap1\n      tag_100\n      swap2\n      swap1\n      tag_61\n      jump\t// in\n    tag_100:\n      pop\n        /* \"contracts/ico.sol\":3413:3442  claimToken(msg.sender, token) */\n      0x1698755f2f63264c31ca84d930df9dd8ca3ac92d33a0dd64d10154f95e4203ef\n        /* \"contracts/ico.sol\":3424:3434  msg.sender */\n      caller\n        /* \"contracts/ico.sol\":3436:3441  token */\n      dup4\n        /* \"contracts/ico.sol\":3413:3442  claimToken(msg.sender, token) */\n      mload(0x40)\n      tag_101\n      swap3\n      swap2\n      swap1\n      tag_102\n      jump\t// in\n    tag_101:\n      mload(0x40)\n      dup1\n      swap2\n      sub\n      swap1\n      log1\n        /* \"contracts/ico.sol\":2967:3450  {... */\n      pop\n      pop\n      pop\n        /* \"@openzeppelin/contracts/security/ReentrancyGuard.sol\":1701:1702  1 */\n      0x01\n        /* \"@openzeppelin/contracts/security/ReentrancyGuard.sol\":2628:2635  _status */\n      0x00\n        /* \"@openzeppelin/contracts/security/ReentrancyGuard.sol\":2628:2650  _status = _NOT_ENTERED */\n      dup2\n      swap1\n      sstore\n      pop\n        /* \"contracts/ico.sol\":2914:3450  function claimPurchasedToken() external nonReentrant {... */\n      jump\t// out\n        /* \"contracts/ico.sol\":3983:4160  function BeginIDO() public {... */\n    tag_40:\n        /* \"contracts/ico.sol\":4043:4048  owner */\n      0x03\n      0x00\n      swap1\n      sload\n      swap1\n      0x0100\n      exp\n      swap1\n      div\n      0xffffffffffffffffffffffffffffffffffffffff\n      and\n        /* \"contracts/ico.sol\":4029:4048  msg.sender == owner */\n      0xffffffffffffffffffffffffffffffffffffffff\n      and\n        /* \"contracts/ico.sol\":4029:4039  msg.sender */\n      caller\n        /* \"contracts/ico.sol\":4029:4048  msg.sender == owner */\n      0xffffffffffffffffffffffffffffffffffffffff\n      and\n      eq\n        /* \"contracts/ico.sol\":4021:4049  require(msg.sender == owner) */\n      tag_104\n      jumpi\n      0x00\n      dup1\n      revert\n    tag_104:\n        /* \"contracts/ico.sol\":4073:4077  true */\n      0x01\n        /* \"contracts/ico.sol\":4060:4070  IDOStarted */\n      0x03\n      0x14\n        /* \"contracts/ico.sol\":4060:4077  IDOStarted = true */\n      0x0100\n      exp\n      dup2\n      sload\n      dup2\n      0xff\n      mul\n      not\n      and\n      swap1\n      dup4\n      iszero\n      iszero\n      mul\n      or\n      swap1\n      sstore\n      pop\n        /* \"contracts/ico.sol\":4103:4108  false */\n      0x00\n        /* \"contracts/ico.sol\":4088:4100  claimStarted */\n      0x03\n      0x15\n        /* \"contracts/ico.sol\":4088:4108  claimStarted = false */\n      0x0100\n      exp\n      dup2\n      sload\n      dup2\n      0xff\n      mul\n      not\n      and\n      swap1\n      dup4\n      iszero\n      iszero\n      mul\n      or\n      swap1\n      sstore\n      pop\n        /* \"contracts/ico.sol\":4126:4152  ICOStartAlert(\"ICO is on\") */\n      0x71002079ab3de7feb03ee30c84baf1d2350d4ffe16709d3dacb5e1037a0fe1cc\n      mload(0x40)\n      tag_105\n      swap1\n      tag_106\n      jump\t// in\n    tag_105:\n      mload(0x40)\n      dup1\n      swap2\n      sub\n      swap1\n      log1\n        /* \"contracts/ico.sol\":3983:4160  function BeginIDO() public {... */\n      jump\t// out\n        /* \"@openzeppelin/contracts/token/ERC20/utils/SafeERC20.sol\":974:1215  function safeTransferFrom(... */\n    tag_80:\n        /* \"@openzeppelin/contracts/token/ERC20/utils/SafeERC20.sol\":1112:1208  _callOptionalReturn(token, abi.encodeWithSelector(token.transferFrom.selector, from, to, value)) */\n      tag_108\n        /* \"@openzeppelin/contracts/token/ERC20/utils/SafeERC20.sol\":1132:1137  token */\n      dup5\n        /* \"@openzeppelin/contracts/token/ERC20/utils/SafeERC20.sol\":1162:1189  token.transferFrom.selector */\n      shl(0xe0, 0x23b872dd)\n        /* \"@openzeppelin/contracts/token/ERC20/utils/SafeERC20.sol\":1191:1195  from */\n      dup6\n        /* \"@openzeppelin/contracts/token/ERC20/utils/SafeERC20.sol\":1197:1199  to */\n      dup6\n        /* \"@openzeppelin/contracts/token/ERC20/utils/SafeERC20.sol\":1201:1206  value */\n      dup6\n        /* \"@openzeppelin/contracts/token/ERC20/utils/SafeERC20.sol\":1139:1207  abi.encodeWithSelector(token.transferFrom.selector, from, to, value) */\n      add(0x24, mload(0x40))\n      tag_109\n      swap4\n      swap3\n      swap2\n      swap1\n      tag_57\n      jump\t// in\n    tag_109:\n      mload(0x40)\n      0x20\n      dup2\n      dup4\n      sub\n      sub\n      dup2\n      mstore\n      swap1\n      0x40\n      mstore\n      swap1\n      not(0xffffffffffffffffffffffffffffffffffffffffffffffffffffffff)\n      and\n      0x20\n      dup3\n      add\n      dup1\n      mload\n      0xffffffffffffffffffffffffffffffffffffffffffffffffffffffff\n      dup4\n      dup2\n      dup4\n      and\n      or\n      dup4\n      mstore\n      pop\n      pop\n      pop\n      pop\n        /* \"@openzeppelin/contracts/token/ERC20/utils/SafeERC20.sol\":1112:1131  _callOptionalReturn */\n      tag_110\n        /* \"@openzeppelin/contracts/token/ERC20/utils/SafeERC20.sol\":1112:1208  _callOptionalReturn(token, abi.encodeWithSelector(token.transferFrom.selector, from, to, value)) */\n      jump\t// in\n    tag_108:\n        /* \"@openzeppelin/contracts/token/ERC20/utils/SafeERC20.sol\":974:1215  function safeTransferFrom(... */\n      pop\n      pop\n      pop\n      pop\n      jump\t// out\n        /* \"@openzeppelin/contracts/token/ERC20/utils/SafeERC20.sol\":3747:4453  function _callOptionalReturn(IERC20 token, bytes memory data) private {... */\n    tag_110:\n        /* \"@openzeppelin/contracts/token/ERC20/utils/SafeERC20.sol\":4166:4189  bytes memory returndata */\n      0x00\n        /* \"@openzeppelin/contracts/token/ERC20/utils/SafeERC20.sol\":4192:4261  address(token).functionCall(data, \"SafeERC20: low-level call failed\") */\n      tag_112\n        /* \"@openzeppelin/contracts/token/ERC20/utils/SafeERC20.sol\":4220:4224  data */\n      dup3\n        /* \"@openzeppelin/contracts/token/ERC20/utils/SafeERC20.sol\":4192:4261  address(token).functionCall(data, \"SafeERC20: low-level call failed\") */\n      mload(0x40)\n      dup1\n      0x40\n      add\n      0x40\n      mstore\n      dup1\n      0x20\n      dup2\n      mstore\n      0x20\n      add\n      0x5361666545524332303a206c6f772d6c6576656c2063616c6c206661696c6564\n      dup2\n      mstore\n      pop\n        /* \"@openzeppelin/contracts/token/ERC20/utils/SafeERC20.sol\":4200:4205  token */\n      dup6\n        /* \"@openzeppelin/contracts/token/ERC20/utils/SafeERC20.sol\":4192:4219  address(token).functionCall */\n      0xffffffffffffffffffffffffffffffffffffffff\n      and\n      tag_113\n      swap1\n        /* \"@openzeppelin/contracts/token/ERC20/utils/SafeERC20.sol\":4192:4261  address(token).functionCall(data, \"SafeERC20: low-level call failed\") */\n      swap3\n      swap2\n      swap1\n      0xffffffff\n      and\n      jump\t// in\n    tag_112:\n        /* \"@openzeppelin/contracts/token/ERC20/utils/SafeERC20.sol\":4166:4261  bytes memory returndata = address(token).functionCall(data, \"SafeERC20: low-level call failed\") */\n      swap1\n      pop\n        /* \"@openzeppelin/contracts/token/ERC20/utils/SafeERC20.sol\":4295:4296  0 */\n      0x00\n        /* \"@openzeppelin/contracts/token/ERC20/utils/SafeERC20.sol\":4275:4285  returndata */\n      dup2\n        /* \"@openzeppelin/contracts/token/ERC20/utils/SafeERC20.sol\":4275:4292  returndata.length */\n      mload\n        /* \"@openzeppelin/contracts/token/ERC20/utils/SafeERC20.sol\":4275:4296  returndata.length > 0 */\n      gt\n        /* \"@openzeppelin/contracts/token/ERC20/utils/SafeERC20.sol\":4271:4447  if (returndata.length > 0) {... */\n      iszero\n      tag_114\n      jumpi\n        /* \"@openzeppelin/contracts/token/ERC20/utils/SafeERC20.sol\":4370:4380  returndata */\n      dup1\n        /* \"@openzeppelin/contracts/token/ERC20/utils/SafeERC20.sol\":4359:4389  abi.decode(returndata, (bool)) */\n      dup1\n      0x20\n      add\n      swap1\n      mload\n      dup2\n      add\n      swap1\n      tag_115\n      swap2\n      swap1\n      tag_61\n      jump\t// in\n    tag_115:\n        /* \"@openzeppelin/contracts/token/ERC20/utils/SafeERC20.sol\":4351:4436  require(abi.decode(returndata, (bool)), \"SafeERC20: ERC20 operation did not succeed\") */\n      tag_116\n      jumpi\n      mload(0x40)\n      0x08c379a000000000000000000000000000000000000000000000000000000000\n      dup2\n      mstore\n      0x04\n      add\n      tag_117\n      swap1\n      tag_118\n      jump\t// in\n    tag_117:\n      mload(0x40)\n      dup1\n      swap2\n      sub\n      swap1\n      revert\n    tag_116:\n        /* \"@openzeppelin/contracts/token/ERC20/utils/SafeERC20.sol\":4271:4447  if (returndata.length > 0) {... */\n    tag_114:\n        /* \"@openzeppelin/contracts/token/ERC20/utils/SafeERC20.sol\":3817:4453  {... */\n      pop\n        /* \"@openzeppelin/contracts/token/ERC20/utils/SafeERC20.sol\":3747:4453  function _callOptionalReturn(IERC20 token, bytes memory data) private {... */\n      pop\n      pop\n      jump\t// out\n        /* \"@openzeppelin/contracts/utils/Address.sol\":3861:4084  function functionCall(... */\n    tag_113:\n        /* \"@openzeppelin/contracts/utils/Address.sol\":3994:4006  bytes memory */\n      0x60\n        /* \"@openzeppelin/contracts/utils/Address.sol\":4025:4077  functionCallWithValue(target, data, 0, errorMessage) */\n      tag_120\n        /* \"@openzeppelin/contracts/utils/Address.sol\":4047:4053  target */\n      dup5\n        /* \"@openzeppelin/contracts/utils/Address.sol\":4055:4059  data */\n      dup5\n        /* \"@openzeppelin/contracts/utils/Address.sol\":4061:4062  0 */\n      0x00\n        /* \"@openzeppelin/contracts/utils/Address.sol\":4064:4076  errorMessage */\n      dup6\n        /* \"@openzeppelin/contracts/utils/Address.sol\":4025:4046  functionCallWithValue */\n      tag_121\n        /* \"@openzeppelin/contracts/utils/Address.sol\":4025:4077  functionCallWithValue(target, data, 0, errorMessage) */\n      jump\t// in\n    tag_120:\n        /* \"@openzeppelin/contracts/utils/Address.sol\":4018:4077  return functionCallWithValue(target, data, 0, errorMessage) */\n      swap1\n      pop\n        /* \"@openzeppelin/contracts/utils/Address.sol\":3861:4084  function functionCall(... */\n      swap4\n      swap3\n      pop\n      pop\n      pop\n      jump\t// out\n        /* \"@openzeppelin/contracts/utils/Address.sol\":4948:5447  function functionCallWithValue(... */\n    tag_121:\n        /* \"@openzeppelin/contracts/utils/Address.sol\":5113:5125  bytes memory */\n      0x60\n        /* \"@openzeppelin/contracts/utils/Address.sol\":5170:5175  value */\n      dup3\n        /* \"@openzeppelin/contracts/utils/Address.sol\":5145:5166  address(this).balance */\n      selfbalance\n        /* \"@openzeppelin/contracts/utils/Address.sol\":5145:5175  address(this).balance >= value */\n      lt\n      iszero\n        /* \"@openzeppelin/contracts/utils/Address.sol\":5137:5218  require(address(this).balance >= value, \"Address: insufficient balance for call\") */\n      tag_123\n      jumpi\n      mload(0x40)\n      0x08c379a000000000000000000000000000000000000000000000000000000000\n      dup2\n      mstore\n      0x04\n      add\n      tag_124\n      swap1\n      tag_125\n      jump\t// in\n    tag_124:\n      mload(0x40)\n      dup1\n      swap2\n      sub\n      swap1\n      revert\n    tag_123:\n        /* \"@openzeppelin/contracts/utils/Address.sol\":5236:5254  isContract(target) */\n      tag_126\n        /* \"@openzeppelin/contracts/utils/Address.sol\":5247:5253  target */\n      dup6\n        /* \"@openzeppelin/contracts/utils/Address.sol\":5236:5246  isContract */\n      tag_127\n        /* \"@openzeppelin/contracts/utils/Address.sol\":5236:5254  isContract(target) */\n      jump\t// in\n    tag_126:\n        /* \"@openzeppelin/contracts/utils/Address.sol\":5228:5288  require(isContract(target), \"Address: call to non-contract\") */\n      tag_128\n      jumpi\n      mload(0x40)\n      0x08c379a000000000000000000000000000000000000000000000000000000000\n      dup2\n      mstore\n      0x04\n      add\n      tag_129\n      swap1\n      tag_130\n      jump\t// in\n    tag_129:\n      mload(0x40)\n      dup1\n      swap2\n      sub\n      swap1\n      revert\n    tag_128:\n        /* \"@openzeppelin/contracts/utils/Address.sol\":5300:5312  bool success */\n      0x00\n        /* \"@openzeppelin/contracts/utils/Address.sol\":5314:5337  bytes memory returndata */\n      dup1\n        /* \"@openzeppelin/contracts/utils/Address.sol\":5341:5347  target */\n      dup7\n        /* \"@openzeppelin/contracts/utils/Address.sol\":5341:5352  target.call */\n      0xffffffffffffffffffffffffffffffffffffffff\n      and\n        /* \"@openzeppelin/contracts/utils/Address.sol\":5360:5365  value */\n      dup6\n        /* \"@openzeppelin/contracts/utils/Address.sol\":5367:5371  data */\n      dup8\n        /* \"@openzeppelin/contracts/utils/Address.sol\":5341:5372  target.call{value: value}(data) */\n      mload(0x40)\n      tag_131\n      swap2\n      swap1\n      tag_132\n      jump\t// in\n    tag_131:\n      0x00\n      mload(0x40)\n      dup1\n      dup4\n      sub\n      dup2\n      dup6\n      dup8\n      gas\n      call\n      swap3\n      pop\n      pop\n      pop\n      returndatasize\n      dup1\n      0x00\n      dup2\n      eq\n      tag_135\n      jumpi\n      mload(0x40)\n      swap2\n      pop\n      and(add(returndatasize, 0x3f), not(0x1f))\n      dup3\n      add\n      0x40\n      mstore\n      returndatasize\n      dup3\n      mstore\n      returndatasize\n      0x00\n      0x20\n      dup5\n      add\n      returndatacopy\n      jump(tag_134)\n    tag_135:\n      0x60\n      swap2\n      pop\n    tag_134:\n      pop\n        /* \"@openzeppelin/contracts/utils/Address.sol\":5299:5372  (bool success, bytes memory returndata) = target.call{value: value}(data) */\n      swap2\n      pop\n      swap2\n      pop\n        /* \"@openzeppelin/contracts/utils/Address.sol\":5389:5440  verifyCallResult(success, returndata, errorMessage) */\n      tag_136\n        /* \"@openzeppelin/contracts/utils/Address.sol\":5406:5413  success */\n      dup3\n        /* \"@openzeppelin/contracts/utils/Address.sol\":5415:5425  returndata */\n      dup3\n        /* \"@openzeppelin/contracts/utils/Address.sol\":5427:5439  errorMessage */\n      dup7\n        /* \"@openzeppelin/contracts/utils/Address.sol\":5389:5405  verifyCallResult */\n      tag_137\n        /* \"@openzeppelin/contracts/utils/Address.sol\":5389:5440  verifyCallResult(success, returndata, errorMessage) */\n      jump\t// in\n    tag_136:\n        /* \"@openzeppelin/contracts/utils/Address.sol\":5382:5440  return verifyCallResult(success, returndata, errorMessage) */\n      swap3\n      pop\n      pop\n      pop\n        /* \"@openzeppelin/contracts/utils/Address.sol\":4948:5447  function functionCallWithValue(... */\n      swap5\n      swap4\n      pop\n      pop\n      pop\n      pop\n      jump\t// out\n        /* \"@openzeppelin/contracts/utils/Address.sol\":1175:1495  function isContract(address account) internal view returns (bool) {... */\n    tag_127:\n        /* \"@openzeppelin/contracts/utils/Address.sol\":1235:1239  bool */\n      0x00\n        /* \"@openzeppelin/contracts/utils/Address.sol\":1487:1488  0 */\n      dup1\n        /* \"@openzeppelin/contracts/utils/Address.sol\":1465:1472  account */\n      dup3\n        /* \"@openzeppelin/contracts/utils/Address.sol\":1465:1484  account.code.length */\n      0xffffffffffffffffffffffffffffffffffffffff\n      and\n      extcodesize\n        /* \"@openzeppelin/contracts/utils/Address.sol\":1465:1488  account.code.length > 0 */\n      gt\n        /* \"@openzeppelin/contracts/utils/Address.sol\":1458:1488  return account.code.length > 0 */\n      swap1\n      pop\n        /* \"@openzeppelin/contracts/utils/Address.sol\":1175:1495  function isContract(address account) internal view returns (bool) {... */\n      swap2\n      swap1\n      pop\n      jump\t// out\n        /* \"@openzeppelin/contracts/utils/Address.sol\":7561:8303  function verifyCallResult(... */\n    tag_137:\n        /* \"@openzeppelin/contracts/utils/Address.sol\":7707:7719  bytes memory */\n      0x60\n        /* \"@openzeppelin/contracts/utils/Address.sol\":7735:7742  success */\n      dup4\n        /* \"@openzeppelin/contracts/utils/Address.sol\":7731:8297  if (success) {... */\n      iszero\n      tag_140\n      jumpi\n        /* \"@openzeppelin/contracts/utils/Address.sol\":7765:7775  returndata */\n      dup3\n        /* \"@openzeppelin/contracts/utils/Address.sol\":7758:7775  return returndata */\n      swap1\n      pop\n      jump(tag_139)\n        /* \"@openzeppelin/contracts/utils/Address.sol\":7731:8297  if (success) {... */\n    tag_140:\n        /* \"@openzeppelin/contracts/utils/Address.sol\":7896:7897  0 */\n      0x00\n        /* \"@openzeppelin/contracts/utils/Address.sol\":7876:7886  returndata */\n      dup4\n        /* \"@openzeppelin/contracts/utils/Address.sol\":7876:7893  returndata.length */\n      mload\n        /* \"@openzeppelin/contracts/utils/Address.sol\":7876:7897  returndata.length > 0 */\n      gt\n        /* \"@openzeppelin/contracts/utils/Address.sol\":7872:8287  if (returndata.length > 0) {... */\n      iszero\n      tag_142\n      jumpi\n        /* \"@openzeppelin/contracts/utils/Address.sol\":8120:8130  returndata */\n      dup3\n        /* \"@openzeppelin/contracts/utils/Address.sol\":8114:8131  mload(returndata) */\n      mload\n        /* \"@openzeppelin/contracts/utils/Address.sol\":8180:8195  returndata_size */\n      dup1\n        /* \"@openzeppelin/contracts/utils/Address.sol\":8167:8177  returndata */\n      dup5\n        /* \"@openzeppelin/contracts/utils/Address.sol\":8163:8165  32 */\n      0x20\n        /* \"@openzeppelin/contracts/utils/Address.sol\":8159:8178  add(32, returndata) */\n      add\n        /* \"@openzeppelin/contracts/utils/Address.sol\":8152:8196  revert(add(32, returndata), returndata_size) */\n      revert\n        /* \"@openzeppelin/contracts/utils/Address.sol\":7872:8287  if (returndata.length > 0) {... */\n    tag_142:\n        /* \"@openzeppelin/contracts/utils/Address.sol\":8259:8271  errorMessage */\n      dup2\n        /* \"@openzeppelin/contracts/utils/Address.sol\":8252:8272  revert(errorMessage) */\n      mload(0x40)\n      0x08c379a000000000000000000000000000000000000000000000000000000000\n      dup2\n      mstore\n      0x04\n      add\n      tag_144\n      swap2\n      swap1\n      tag_145\n      jump\t// in\n    tag_144:\n      mload(0x40)\n      dup1\n      swap2\n      sub\n      swap1\n      revert\n        /* \"@openzeppelin/contracts/utils/Address.sol\":7561:8303  function verifyCallResult(... */\n    tag_139:\n      swap4\n      swap3\n      pop\n      pop\n      pop\n      jump\t// out\n        /* \"#utility.yul\":7:84   */\n    tag_146:\n        /* \"#utility.yul\":44:51   */\n      0x00\n        /* \"#utility.yul\":73:78   */\n      dup2\n        /* \"#utility.yul\":62:78   */\n      swap1\n      pop\n        /* \"#utility.yul\":7:84   */\n      swap2\n      swap1\n      pop\n      jump\t// out\n        /* \"#utility.yul\":90:208   */\n    tag_147:\n        /* \"#utility.yul\":177:201   */\n      tag_198\n        /* \"#utility.yul\":195:200   */\n      dup2\n        /* \"#utility.yul\":177:201   */\n      tag_146\n      jump\t// in\n    tag_198:\n        /* \"#utility.yul\":172:175   */\n      dup3\n        /* \"#utility.yul\":165:202   */\n      mstore\n        /* \"#utility.yul\":90:208   */\n      pop\n      pop\n      jump\t// out\n        /* \"#utility.yul\":214:436   */\n    tag_18:\n        /* \"#utility.yul\":307:311   */\n      0x00\n        /* \"#utility.yul\":345:347   */\n      0x20\n        /* \"#utility.yul\":334:343   */\n      dup3\n        /* \"#utility.yul\":330:348   */\n      add\n        /* \"#utility.yul\":322:348   */\n      swap1\n      pop\n        /* \"#utility.yul\":358:429   */\n      tag_200\n        /* \"#utility.yul\":426:427   */\n      0x00\n        /* \"#utility.yul\":415:424   */\n      dup4\n        /* \"#utility.yul\":411:428   */\n      add\n        /* \"#utility.yul\":402:408   */\n      dup5\n        /* \"#utility.yul\":358:429   */\n      tag_147\n      jump\t// in\n    tag_200:\n        /* \"#utility.yul\":214:436   */\n      swap3\n      swap2\n      pop\n      pop\n      jump\t// out\n        /* \"#utility.yul\":523:640   */\n    tag_149:\n        /* \"#utility.yul\":632:633   */\n      0x00\n        /* \"#utility.yul\":629:630   */\n      dup1\n        /* \"#utility.yul\":622:634   */\n      revert\n        /* \"#utility.yul\":769:891   */\n    tag_151:\n        /* \"#utility.yul\":842:866   */\n      tag_205\n        /* \"#utility.yul\":860:865   */\n      dup2\n        /* \"#utility.yul\":842:866   */\n      tag_146\n      jump\t// in\n    tag_205:\n        /* \"#utility.yul\":835:840   */\n      dup2\n        /* \"#utility.yul\":832:867   */\n      eq\n        /* \"#utility.yul\":822:885   */\n      tag_206\n      jumpi\n        /* \"#utility.yul\":881:882   */\n      0x00\n        /* \"#utility.yul\":878:879   */\n      dup1\n        /* \"#utility.yul\":871:883   */\n      revert\n        /* \"#utility.yul\":822:885   */\n    tag_206:\n        /* \"#utility.yul\":769:891   */\n      pop\n      jump\t// out\n        /* \"#utility.yul\":897:1036   */\n    tag_152:\n        /* \"#utility.yul\":943:948   */\n      0x00\n        /* \"#utility.yul\":981:987   */\n      dup2\n        /* \"#utility.yul\":968:988   */\n      calldataload\n        /* \"#utility.yul\":959:988   */\n      swap1\n      pop\n        /* \"#utility.yul\":997:1030   */\n      tag_208\n        /* \"#utility.yul\":1024:1029   */\n      dup2\n        /* \"#utility.yul\":997:1030   */\n      tag_151\n      jump\t// in\n    tag_208:\n        /* \"#utility.yul\":897:1036   */\n      swap3\n      swap2\n      pop\n      pop\n      jump\t// out\n        /* \"#utility.yul\":1042:1516   */\n    tag_21:\n        /* \"#utility.yul\":1110:1116   */\n      0x00\n        /* \"#utility.yul\":1118:1124   */\n      dup1\n        /* \"#utility.yul\":1167:1169   */\n      0x40\n        /* \"#utility.yul\":1155:1164   */\n      dup4\n        /* \"#utility.yul\":1146:1153   */\n      dup6\n        /* \"#utility.yul\":1142:1165   */\n      sub\n        /* \"#utility.yul\":1138:1170   */\n      slt\n        /* \"#utility.yul\":1135:1254   */\n      iszero\n      tag_210\n      jumpi\n        /* \"#utility.yul\":1173:1252   */\n      tag_211\n      tag_149\n      jump\t// in\n    tag_211:\n        /* \"#utility.yul\":1135:1254   */\n    tag_210:\n        /* \"#utility.yul\":1293:1294   */\n      0x00\n        /* \"#utility.yul\":1318:1371   */\n      tag_212\n        /* \"#utility.yul\":1363:1370   */\n      dup6\n        /* \"#utility.yul\":1354:1360   */\n      dup3\n        /* \"#utility.yul\":1343:1352   */\n      dup7\n        /* \"#utility.yul\":1339:1361   */\n      add\n        /* \"#utility.yul\":1318:1371   */\n      tag_152\n      jump\t// in\n    tag_212:\n        /* \"#utility.yul\":1308:1371   */\n      swap3\n      pop\n        /* \"#utility.yul\":1264:1381   */\n      pop\n        /* \"#utility.yul\":1420:1422   */\n      0x20\n        /* \"#utility.yul\":1446:1499   */\n      tag_213\n        /* \"#utility.yul\":1491:1498   */\n      dup6\n        /* \"#utility.yul\":1482:1488   */\n      dup3\n        /* \"#utility.yul\":1471:1480   */\n      dup7\n        /* \"#utility.yul\":1467:1489   */\n      add\n        /* \"#utility.yul\":1446:1499   */\n      tag_152\n      jump\t// in\n    tag_213:\n        /* \"#utility.yul\":1436:1499   */\n      swap2\n      pop\n        /* \"#utility.yul\":1391:1509   */\n      pop\n        /* \"#utility.yul\":1042:1516   */\n      swap3\n      pop\n      swap3\n      swap1\n      pop\n      jump\t// out\n        /* \"#utility.yul\":1522:1648   */\n    tag_153:\n        /* \"#utility.yul\":1559:1566   */\n      0x00\n        /* \"#utility.yul\":1599:1641   */\n      0xffffffffffffffffffffffffffffffffffffffff\n        /* \"#utility.yul\":1592:1597   */\n      dup3\n        /* \"#utility.yul\":1588:1642   */\n      and\n        /* \"#utility.yul\":1577:1642   */\n      swap1\n      pop\n        /* \"#utility.yul\":1522:1648   */\n      swap2\n      swap1\n      pop\n      jump\t// out\n        /* \"#utility.yul\":1654:1750   */\n    tag_154:\n        /* \"#utility.yul\":1691:1698   */\n      0x00\n        /* \"#utility.yul\":1720:1744   */\n      tag_216\n        /* \"#utility.yul\":1738:1743   */\n      dup3\n        /* \"#utility.yul\":1720:1744   */\n      tag_153\n      jump\t// in\n    tag_216:\n        /* \"#utility.yul\":1709:1744   */\n      swap1\n      pop\n        /* \"#utility.yul\":1654:1750   */\n      swap2\n      swap1\n      pop\n      jump\t// out\n        /* \"#utility.yul\":1756:1878   */\n    tag_155:\n        /* \"#utility.yul\":1829:1853   */\n      tag_218\n        /* \"#utility.yul\":1847:1852   */\n      dup2\n        /* \"#utility.yul\":1829:1853   */\n      tag_154\n      jump\t// in\n    tag_218:\n        /* \"#utility.yul\":1822:1827   */\n      dup2\n        /* \"#utility.yul\":1819:1854   */\n      eq\n        /* \"#utility.yul\":1809:1872   */\n      tag_219\n      jumpi\n        /* \"#utility.yul\":1868:1869   */\n      0x00\n        /* \"#utility.yul\":1865:1866   */\n      dup1\n        /* \"#utility.yul\":1858:1870   */\n      revert\n        /* \"#utility.yul\":1809:1872   */\n    tag_219:\n        /* \"#utility.yul\":1756:1878   */\n      pop\n      jump\t// out\n        /* \"#utility.yul\":1884:2023   */\n    tag_156:\n        /* \"#utility.yul\":1930:1935   */\n      0x00\n        /* \"#utility.yul\":1968:1974   */\n      dup2\n        /* \"#utility.yul\":1955:1975   */\n      calldataload\n        /* \"#utility.yul\":1946:1975   */\n      swap1\n      pop\n        /* \"#utility.yul\":1984:2017   */\n      tag_221\n        /* \"#utility.yul\":2011:2016   */\n      dup2\n        /* \"#utility.yul\":1984:2017   */\n      tag_155\n      jump\t// in\n    tag_221:\n        /* \"#utility.yul\":1884:2023   */\n      swap3\n      swap2\n      pop\n      pop\n      jump\t// out\n        /* \"#utility.yul\":2029:2503   */\n    tag_27:\n        /* \"#utility.yul\":2097:2103   */\n      0x00\n        /* \"#utility.yul\":2105:2111   */\n      dup1\n        /* \"#utility.yul\":2154:2156   */\n      0x40\n        /* \"#utility.yul\":2142:2151   */\n      dup4\n        /* \"#utility.yul\":2133:2140   */\n      dup6\n        /* \"#utility.yul\":2129:2152   */\n      sub\n        /* \"#utility.yul\":2125:2157   */\n      slt\n        /* \"#utility.yul\":2122:2241   */\n      iszero\n      tag_223\n      jumpi\n        /* \"#utility.yul\":2160:2239   */\n      tag_224\n      tag_149\n      jump\t// in\n    tag_224:\n        /* \"#utility.yul\":2122:2241   */\n    tag_223:\n        /* \"#utility.yul\":2280:2281   */\n      0x00\n        /* \"#utility.yul\":2305:2358   */\n      tag_225\n        /* \"#utility.yul\":2350:2357   */\n      dup6\n        /* \"#utility.yul\":2341:2347   */\n      dup3\n        /* \"#utility.yul\":2330:2339   */\n      dup7\n        /* \"#utility.yul\":2326:2348   */\n      add\n        /* \"#utility.yul\":2305:2358   */\n      tag_156\n      jump\t// in\n    tag_225:\n        /* \"#utility.yul\":2295:2358   */\n      swap3\n      pop\n        /* \"#utility.yul\":2251:2368   */\n      pop\n        /* \"#utility.yul\":2407:2409   */\n      0x20\n        /* \"#utility.yul\":2433:2486   */\n      tag_226\n        /* \"#utility.yul\":2478:2485   */\n      dup6\n        /* \"#utility.yul\":2469:2475   */\n      dup3\n        /* \"#utility.yul\":2458:2467   */\n      dup7\n        /* \"#utility.yul\":2454:2476   */\n      add\n        /* \"#utility.yul\":2433:2486   */\n      tag_152\n      jump\t// in\n    tag_226:\n        /* \"#utility.yul\":2423:2486   */\n      swap2\n      pop\n        /* \"#utility.yul\":2378:2496   */\n      pop\n        /* \"#utility.yul\":2029:2503   */\n      swap3\n      pop\n      swap3\n      swap1\n      pop\n      jump\t// out\n        /* \"#utility.yul\":2509:2838   */\n    tag_31:\n        /* \"#utility.yul\":2568:2574   */\n      0x00\n        /* \"#utility.yul\":2617:2619   */\n      0x20\n        /* \"#utility.yul\":2605:2614   */\n      dup3\n        /* \"#utility.yul\":2596:2603   */\n      dup5\n        /* \"#utility.yul\":2592:2615   */\n      sub\n        /* \"#utility.yul\":2588:2620   */\n      slt\n        /* \"#utility.yul\":2585:2704   */\n      iszero\n      tag_228\n      jumpi\n        /* \"#utility.yul\":2623:2702   */\n      tag_229\n      tag_149\n      jump\t// in\n    tag_229:\n        /* \"#utility.yul\":2585:2704   */\n    tag_228:\n        /* \"#utility.yul\":2743:2744   */\n      0x00\n        /* \"#utility.yul\":2768:2821   */\n      tag_230\n        /* \"#utility.yul\":2813:2820   */\n      dup5\n        /* \"#utility.yul\":2804:2810   */\n      dup3\n        /* \"#utility.yul\":2793:2802   */\n      dup6\n        /* \"#utility.yul\":2789:2811   */\n      add\n        /* \"#utility.yul\":2768:2821   */\n      tag_152\n      jump\t// in\n    tag_230:\n        /* \"#utility.yul\":2758:2821   */\n      swap2\n      pop\n        /* \"#utility.yul\":2714:2831   */\n      pop\n        /* \"#utility.yul\":2509:2838   */\n      swap3\n      swap2\n      pop\n      pop\n      jump\t// out\n        /* \"#utility.yul\":2844:2962   */\n    tag_157:\n        /* \"#utility.yul\":2931:2955   */\n      tag_232\n        /* \"#utility.yul\":2949:2954   */\n      dup2\n        /* \"#utility.yul\":2931:2955   */\n      tag_154\n      jump\t// in\n    tag_232:\n        /* \"#utility.yul\":2926:2929   */\n      dup3\n        /* \"#utility.yul\":2919:2956   */\n      mstore\n        /* \"#utility.yul\":2844:2962   */\n      pop\n      pop\n      jump\t// out\n        /* \"#utility.yul\":2968:3190   */\n    tag_36:\n        /* \"#utility.yul\":3061:3065   */\n      0x00\n        /* \"#utility.yul\":3099:3101   */\n      0x20\n        /* \"#utility.yul\":3088:3097   */\n      dup3\n        /* \"#utility.yul\":3084:3102   */\n      add\n        /* \"#utility.yul\":3076:3102   */\n      swap1\n      pop\n        /* \"#utility.yul\":3112:3183   */\n      tag_234\n        /* \"#utility.yul\":3180:3181   */\n      0x00\n        /* \"#utility.yul\":3169:3178   */\n      dup4\n        /* \"#utility.yul\":3165:3182   */\n      add\n        /* \"#utility.yul\":3156:3162   */\n      dup5\n        /* \"#utility.yul\":3112:3183   */\n      tag_157\n      jump\t// in\n    tag_234:\n        /* \"#utility.yul\":2968:3190   */\n      swap3\n      swap2\n      pop\n      pop\n      jump\t// out\n        /* \"#utility.yul\":3196:3365   */\n    tag_158:\n        /* \"#utility.yul\":3280:3291   */\n      0x00\n        /* \"#utility.yul\":3314:3320   */\n      dup3\n        /* \"#utility.yul\":3309:3312   */\n      dup3\n        /* \"#utility.yul\":3302:3321   */\n      mstore\n        /* \"#utility.yul\":3354:3358   */\n      0x20\n        /* \"#utility.yul\":3349:3352   */\n      dup3\n        /* \"#utility.yul\":3345:3359   */\n      add\n        /* \"#utility.yul\":3330:3359   */\n      swap1\n      pop\n        /* \"#utility.yul\":3196:3365   */\n      swap3\n      swap2\n      pop\n      pop\n      jump\t// out\n        /* \"#utility.yul\":3371:3534   */\n    tag_159:\n        /* \"#utility.yul\":3511:3526   */\n      0x49434f2069732070617573656400000000000000000000000000000000000000\n        /* \"#utility.yul\":3507:3508   */\n      0x00\n        /* \"#utility.yul\":3499:3505   */\n      dup3\n        /* \"#utility.yul\":3495:3509   */\n      add\n        /* \"#utility.yul\":3488:3527   */\n      mstore\n        /* \"#utility.yul\":3371:3534   */\n      pop\n      jump\t// out\n        /* \"#utility.yul\":3540:3906   */\n    tag_160:\n        /* \"#utility.yul\":3682:3685   */\n      0x00\n        /* \"#utility.yul\":3703:3770   */\n      tag_238\n        /* \"#utility.yul\":3767:3769   */\n      0x0d\n        /* \"#utility.yul\":3762:3765   */\n      dup4\n        /* \"#utility.yul\":3703:3770   */\n      tag_158\n      jump\t// in\n    tag_238:\n        /* \"#utility.yul\":3696:3770   */\n      swap2\n      pop\n        /* \"#utility.yul\":3779:3872   */\n      tag_239\n        /* \"#utility.yul\":3868:3871   */\n      dup3\n        /* \"#utility.yul\":3779:3872   */\n      tag_159\n      jump\t// in\n    tag_239:\n        /* \"#utility.yul\":3897:3899   */\n      0x20\n        /* \"#utility.yul\":3892:3895   */\n      dup3\n        /* \"#utility.yul\":3888:3900   */\n      add\n        /* \"#utility.yul\":3881:3900   */\n      swap1\n      pop\n        /* \"#utility.yul\":3540:3906   */\n      swap2\n      swap1\n      pop\n      jump\t// out\n        /* \"#utility.yul\":3912:4331   */\n    tag_44:\n        /* \"#utility.yul\":4078:4082   */\n      0x00\n        /* \"#utility.yul\":4116:4118   */\n      0x20\n        /* \"#utility.yul\":4105:4114   */\n      dup3\n        /* \"#utility.yul\":4101:4119   */\n      add\n        /* \"#utility.yul\":4093:4119   */\n      swap1\n      pop\n        /* \"#utility.yul\":4165:4174   */\n      dup2\n        /* \"#utility.yul\":4159:4163   */\n      dup2\n        /* \"#utility.yul\":4155:4175   */\n      sub\n        /* \"#utility.yul\":4151:4152   */\n      0x00\n        /* \"#utility.yul\":4140:4149   */\n      dup4\n        /* \"#utility.yul\":4136:4153   */\n      add\n        /* \"#utility.yul\":4129:4176   */\n      mstore\n        /* \"#utility.yul\":4193:4324   */\n      tag_241\n        /* \"#utility.yul\":4319:4323   */\n      dup2\n        /* \"#utility.yul\":4193:4324   */\n      tag_160\n      jump\t// in\n    tag_241:\n        /* \"#utility.yul\":4185:4324   */\n      swap1\n      pop\n        /* \"#utility.yul\":3912:4331   */\n      swap2\n      swap1\n      pop\n      jump\t// out\n        /* \"#utility.yul\":4337:4517   */\n    tag_161:\n        /* \"#utility.yul\":4385:4462   */\n      0x4e487b7100000000000000000000000000000000000000000000000000000000\n        /* \"#utility.yul\":4382:4383   */\n      0x00\n        /* \"#utility.yul\":4375:4463   */\n      mstore\n        /* \"#utility.yul\":4482:4486   */\n      0x11\n        /* \"#utility.yul\":4479:4480   */\n      0x04\n        /* \"#utility.yul\":4472:4487   */\n      mstore\n        /* \"#utility.yul\":4506:4510   */\n      0x24\n        /* \"#utility.yul\":4503:4504   */\n      0x00\n        /* \"#utility.yul\":4496:4511   */\n      revert\n        /* \"#utility.yul\":4523:4933   */\n    tag_48:\n        /* \"#utility.yul\":4563:4570   */\n      0x00\n        /* \"#utility.yul\":4586:4606   */\n      tag_244\n        /* \"#utility.yul\":4604:4605   */\n      dup3\n        /* \"#utility.yul\":4586:4606   */\n      tag_146\n      jump\t// in\n    tag_244:\n        /* \"#utility.yul\":4581:4606   */\n      swap2\n      pop\n        /* \"#utility.yul\":4620:4640   */\n      tag_245\n        /* \"#utility.yul\":4638:4639   */\n      dup4\n        /* \"#utility.yul\":4620:4640   */\n      tag_146\n      jump\t// in\n    tag_245:\n        /* \"#utility.yul\":4615:4640   */\n      swap3\n      pop\n        /* \"#utility.yul\":4675:4676   */\n      dup3\n        /* \"#utility.yul\":4672:4673   */\n      dup3\n        /* \"#utility.yul\":4668:4677   */\n      mul\n        /* \"#utility.yul\":4697:4727   */\n      tag_246\n        /* \"#utility.yul\":4715:4726   */\n      dup2\n        /* \"#utility.yul\":4697:4727   */\n      tag_146\n      jump\t// in\n    tag_246:\n        /* \"#utility.yul\":4686:4727   */\n      swap2\n      pop\n        /* \"#utility.yul\":4876:4877   */\n      dup3\n        /* \"#utility.yul\":4867:4874   */\n      dup3\n        /* \"#utility.yul\":4863:4878   */\n      div\n        /* \"#utility.yul\":4860:4861   */\n      dup5\n        /* \"#utility.yul\":4857:4879   */\n      eq\n        /* \"#utility.yul\":4837:4838   */\n      dup4\n        /* \"#utility.yul\":4830:4839   */\n      iszero\n        /* \"#utility.yul\":4810:4893   */\n      or\n        /* \"#utility.yul\":4787:4926   */\n      tag_247\n      jumpi\n        /* \"#utility.yul\":4906:4924   */\n      tag_248\n      tag_161\n      jump\t// in\n    tag_248:\n        /* \"#utility.yul\":4787:4926   */\n    tag_247:\n        /* \"#utility.yul\":4571:4933   */\n      pop\n        /* \"#utility.yul\":4523:4933   */\n      swap3\n      swap2\n      pop\n      pop\n      jump\t// out\n        /* \"#utility.yul\":4939:5271   */\n    tag_51:\n        /* \"#utility.yul\":5060:5064   */\n      0x00\n        /* \"#utility.yul\":5098:5100   */\n      0x40\n        /* \"#utility.yul\":5087:5096   */\n      dup3\n        /* \"#utility.yul\":5083:5101   */\n      add\n        /* \"#utility.yul\":5075:5101   */\n      swap1\n      pop\n        /* \"#utility.yul\":5111:5182   */\n      tag_250\n        /* \"#utility.yul\":5179:5180   */\n      0x00\n        /* \"#utility.yul\":5168:5177   */\n      dup4\n        /* \"#utility.yul\":5164:5181   */\n      add\n        /* \"#utility.yul\":5155:5161   */\n      dup6\n        /* \"#utility.yul\":5111:5182   */\n      tag_147\n      jump\t// in\n    tag_250:\n        /* \"#utility.yul\":5192:5264   */\n      tag_251\n        /* \"#utility.yul\":5260:5262   */\n      0x20\n        /* \"#utility.yul\":5249:5258   */\n      dup4\n        /* \"#utility.yul\":5245:5263   */\n      add\n        /* \"#utility.yul\":5236:5242   */\n      dup5\n        /* \"#utility.yul\":5192:5264   */\n      tag_147\n      jump\t// in\n    tag_251:\n        /* \"#utility.yul\":4939:5271   */\n      swap4\n      swap3\n      pop\n      pop\n      pop\n      jump\t// out\n        /* \"#utility.yul\":5277:5447   */\n    tag_162:\n        /* \"#utility.yul\":5417:5439   */\n      0x4f6e6c79206f776e65722063616e20636c61696d000000000000000000000000\n        /* \"#utility.yul\":5413:5414   */\n      0x00\n        /* \"#utility.yul\":5405:5411   */\n      dup3\n        /* \"#utility.yul\":5401:5415   */\n      add\n        /* \"#utility.yul\":5394:5440   */\n      mstore\n        /* \"#utility.yul\":5277:5447   */\n      pop\n      jump\t// out\n        /* \"#utility.yul\":5453:5819   */\n    tag_163:\n        /* \"#utility.yul\":5595:5598   */\n      0x00\n        /* \"#utility.yul\":5616:5683   */\n      tag_254\n        /* \"#utility.yul\":5680:5682   */\n      0x14\n        /* \"#utility.yul\":5675:5678   */\n      dup4\n        /* \"#utility.yul\":5616:5683   */\n      tag_158\n      jump\t// in\n    tag_254:\n        /* \"#utility.yul\":5609:5683   */\n      swap2\n      pop\n        /* \"#utility.yul\":5692:5785   */\n      tag_255\n        /* \"#utility.yul\":5781:5784   */\n      dup3\n        /* \"#utility.yul\":5692:5785   */\n      tag_162\n      jump\t// in\n    tag_255:\n        /* \"#utility.yul\":5810:5812   */\n      0x20\n        /* \"#utility.yul\":5805:5808   */\n      dup3\n        /* \"#utility.yul\":5801:5813   */\n      add\n        /* \"#utility.yul\":5794:5813   */\n      swap1\n      pop\n        /* \"#utility.yul\":5453:5819   */\n      swap2\n      swap1\n      pop\n      jump\t// out\n        /* \"#utility.yul\":5825:6244   */\n    tag_55:\n        /* \"#utility.yul\":5991:5995   */\n      0x00\n        /* \"#utility.yul\":6029:6031   */\n      0x20\n        /* \"#utility.yul\":6018:6027   */\n      dup3\n        /* \"#utility.yul\":6014:6032   */\n      add\n        /* \"#utility.yul\":6006:6032   */\n      swap1\n      pop\n        /* \"#utility.yul\":6078:6087   */\n      dup2\n        /* \"#utility.yul\":6072:6076   */\n      dup2\n        /* \"#utility.yul\":6068:6088   */\n      sub\n        /* \"#utility.yul\":6064:6065   */\n      0x00\n        /* \"#utility.yul\":6053:6062   */\n      dup4\n        /* \"#utility.yul\":6049:6066   */\n      add\n        /* \"#utility.yul\":6042:6089   */\n      mstore\n        /* \"#utility.yul\":6106:6237   */\n      tag_257\n        /* \"#utility.yul\":6232:6236   */\n      dup2\n        /* \"#utility.yul\":6106:6237   */\n      tag_163\n      jump\t// in\n    tag_257:\n        /* \"#utility.yul\":6098:6237   */\n      swap1\n      pop\n        /* \"#utility.yul\":5825:6244   */\n      swap2\n      swap1\n      pop\n      jump\t// out\n        /* \"#utility.yul\":6250:6692   */\n    tag_57:\n        /* \"#utility.yul\":6399:6403   */\n      0x00\n        /* \"#utility.yul\":6437:6439   */\n      0x60\n        /* \"#utility.yul\":6426:6435   */\n      dup3\n        /* \"#utility.yul\":6422:6440   */\n      add\n        /* \"#utility.yul\":6414:6440   */\n      swap1\n      pop\n        /* \"#utility.yul\":6450:6521   */\n      tag_259\n        /* \"#utility.yul\":6518:6519   */\n      0x00\n        /* \"#utility.yul\":6507:6516   */\n      dup4\n        /* \"#utility.yul\":6503:6520   */\n      add\n        /* \"#utility.yul\":6494:6500   */\n      dup7\n        /* \"#utility.yul\":6450:6521   */\n      tag_157\n      jump\t// in\n    tag_259:\n        /* \"#utility.yul\":6531:6603   */\n      tag_260\n        /* \"#utility.yul\":6599:6601   */\n      0x20\n        /* \"#utility.yul\":6588:6597   */\n      dup4\n        /* \"#utility.yul\":6584:6602   */\n      add\n        /* \"#utility.yul\":6575:6581   */\n      dup6\n        /* \"#utility.yul\":6531:6603   */\n      tag_157\n      jump\t// in\n    tag_260:\n        /* \"#utility.yul\":6613:6685   */\n      tag_261\n        /* \"#utility.yul\":6681:6683   */\n      0x40\n        /* \"#utility.yul\":6670:6679   */\n      dup4\n        /* \"#utility.yul\":6666:6684   */\n      add\n        /* \"#utility.yul\":6657:6663   */\n      dup5\n        /* \"#utility.yul\":6613:6685   */\n      tag_147\n      jump\t// in\n    tag_261:\n        /* \"#utility.yul\":6250:6692   */\n      swap5\n      swap4\n      pop\n      pop\n      pop\n      pop\n      jump\t// out\n        /* \"#utility.yul\":6698:6788   */\n    tag_164:\n        /* \"#utility.yul\":6732:6739   */\n      0x00\n        /* \"#utility.yul\":6775:6780   */\n      dup2\n        /* \"#utility.yul\":6768:6781   */\n      iszero\n        /* \"#utility.yul\":6761:6782   */\n      iszero\n        /* \"#utility.yul\":6750:6782   */\n      swap1\n      pop\n        /* \"#utility.yul\":6698:6788   */\n      swap2\n      swap1\n      pop\n      jump\t// out\n        /* \"#utility.yul\":6794:6910   */\n    tag_165:\n        /* \"#utility.yul\":6864:6885   */\n      tag_264\n        /* \"#utility.yul\":6879:6884   */\n      dup2\n        /* \"#utility.yul\":6864:6885   */\n      tag_164\n      jump\t// in\n    tag_264:\n        /* \"#utility.yul\":6857:6862   */\n      dup2\n        /* \"#utility.yul\":6854:6886   */\n      eq\n        /* \"#utility.yul\":6844:6904   */\n      tag_265\n      jumpi\n        /* \"#utility.yul\":6900:6901   */\n      0x00\n        /* \"#utility.yul\":6897:6898   */\n      dup1\n        /* \"#utility.yul\":6890:6902   */\n      revert\n        /* \"#utility.yul\":6844:6904   */\n    tag_265:\n        /* \"#utility.yul\":6794:6910   */\n      pop\n      jump\t// out\n        /* \"#utility.yul\":6916:7053   */\n    tag_166:\n        /* \"#utility.yul\":6970:6975   */\n      0x00\n        /* \"#utility.yul\":7001:7007   */\n      dup2\n        /* \"#utility.yul\":6995:7008   */\n      mload\n        /* \"#utility.yul\":6986:7008   */\n      swap1\n      pop\n        /* \"#utility.yul\":7017:7047   */\n      tag_267\n        /* \"#utility.yul\":7041:7046   */\n      dup2\n        /* \"#utility.yul\":7017:7047   */\n      tag_165\n      jump\t// in\n    tag_267:\n        /* \"#utility.yul\":6916:7053   */\n      swap3\n      swap2\n      pop\n      pop\n      jump\t// out\n        /* \"#utility.yul\":7059:7404   */\n    tag_61:\n        /* \"#utility.yul\":7126:7132   */\n      0x00\n        /* \"#utility.yul\":7175:7177   */\n      0x20\n        /* \"#utility.yul\":7163:7172   */\n      dup3\n        /* \"#utility.yul\":7154:7161   */\n      dup5\n        /* \"#utility.yul\":7150:7173   */\n      sub\n        /* \"#utility.yul\":7146:7178   */\n      slt\n        /* \"#utility.yul\":7143:7262   */\n      iszero\n      tag_269\n      jumpi\n        /* \"#utility.yul\":7181:7260   */\n      tag_270\n      tag_149\n      jump\t// in\n    tag_270:\n        /* \"#utility.yul\":7143:7262   */\n    tag_269:\n        /* \"#utility.yul\":7301:7302   */\n      0x00\n        /* \"#utility.yul\":7326:7387   */\n      tag_271\n        /* \"#utility.yul\":7379:7386   */\n      dup5\n        /* \"#utility.yul\":7370:7376   */\n      dup3\n        /* \"#utility.yul\":7359:7368   */\n      dup6\n        /* \"#utility.yul\":7355:7377   */\n      add\n        /* \"#utility.yul\":7326:7387   */\n      tag_166\n      jump\t// in\n    tag_271:\n        /* \"#utility.yul\":7316:7387   */\n      swap2\n      pop\n        /* \"#utility.yul\":7272:7397   */\n      pop\n        /* \"#utility.yul\":7059:7404   */\n      swap3\n      swap2\n      pop\n      pop\n      jump\t// out\n        /* \"#utility.yul\":7410:7630   */\n    tag_167:\n        /* \"#utility.yul\":7550:7584   */\n      0x4f6e6c79206f776e65722063616e2063616c6c20746869732066756e6374696f\n        /* \"#utility.yul\":7546:7547   */\n      0x00\n        /* \"#utility.yul\":7538:7544   */\n      dup3\n        /* \"#utility.yul\":7534:7548   */\n      add\n        /* \"#utility.yul\":7527:7585   */\n      mstore\n        /* \"#utility.yul\":7619:7622   */\n      0x6e00000000000000000000000000000000000000000000000000000000000000\n        /* \"#utility.yul\":7614:7616   */\n      0x20\n        /* \"#utility.yul\":7606:7612   */\n      dup3\n        /* \"#utility.yul\":7602:7617   */\n      add\n        /* \"#utility.yul\":7595:7623   */\n      mstore\n        /* \"#utility.yul\":7410:7630   */\n      pop\n      jump\t// out\n        /* \"#utility.yul\":7636:8002   */\n    tag_168:\n        /* \"#utility.yul\":7778:7781   */\n      0x00\n        /* \"#utility.yul\":7799:7866   */\n      tag_274\n        /* \"#utility.yul\":7863:7865   */\n      0x21\n        /* \"#utility.yul\":7858:7861   */\n      dup4\n        /* \"#utility.yul\":7799:7866   */\n      tag_158\n      jump\t// in\n    tag_274:\n        /* \"#utility.yul\":7792:7866   */\n      swap2\n      pop\n        /* \"#utility.yul\":7875:7968   */\n      tag_275\n        /* \"#utility.yul\":7964:7967   */\n      dup3\n        /* \"#utility.yul\":7875:7968   */\n      tag_167\n      jump\t// in\n    tag_275:\n        /* \"#utility.yul\":7993:7995   */\n      0x40\n        /* \"#utility.yul\":7988:7991   */\n      dup3\n        /* \"#utility.yul\":7984:7996   */\n      add\n        /* \"#utility.yul\":7977:7996   */\n      swap1\n      pop\n        /* \"#utility.yul\":7636:8002   */\n      swap2\n      swap1\n      pop\n      jump\t// out\n        /* \"#utility.yul\":8008:8427   */\n    tag_65:\n        /* \"#utility.yul\":8174:8178   */\n      0x00\n        /* \"#utility.yul\":8212:8214   */\n      0x20\n        /* \"#utility.yul\":8201:8210   */\n      dup3\n        /* \"#utility.yul\":8197:8215   */\n      add\n        /* \"#utility.yul\":8189:8215   */\n      swap1\n      pop\n        /* \"#utility.yul\":8261:8270   */\n      dup2\n        /* \"#utility.yul\":8255:8259   */\n      dup2\n        /* \"#utility.yul\":8251:8271   */\n      sub\n        /* \"#utility.yul\":8247:8248   */\n      0x00\n        /* \"#utility.yul\":8236:8245   */\n      dup4\n        /* \"#utility.yul\":8232:8249   */\n      add\n        /* \"#utility.yul\":8225:8272   */\n      mstore\n        /* \"#utility.yul\":8289:8420   */\n      tag_277\n        /* \"#utility.yul\":8415:8419   */\n      dup2\n        /* \"#utility.yul\":8289:8420   */\n      tag_168\n      jump\t// in\n    tag_277:\n        /* \"#utility.yul\":8281:8420   */\n      swap1\n      pop\n        /* \"#utility.yul\":8008:8427   */\n      swap2\n      swap1\n      pop\n      jump\t// out\n        /* \"#utility.yul\":8433:8614   */\n    tag_169:\n        /* \"#utility.yul\":8573:8606   */\n      0x5265656e7472616e637947756172643a207265656e7472616e742063616c6c00\n        /* \"#utility.yul\":8569:8570   */\n      0x00\n        /* \"#utility.yul\":8561:8567   */\n      dup3\n        /* \"#utility.yul\":8557:8571   */\n      add\n        /* \"#utility.yul\":8550:8607   */\n      mstore\n        /* \"#utility.yul\":8433:8614   */\n      pop\n      jump\t// out\n        /* \"#utility.yul\":8620:8986   */\n    tag_170:\n        /* \"#utility.yul\":8762:8765   */\n      0x00\n        /* \"#utility.yul\":8783:8850   */\n      tag_280\n        /* \"#utility.yul\":8847:8849   */\n      0x1f\n        /* \"#utility.yul\":8842:8845   */\n      dup4\n        /* \"#utility.yul\":8783:8850   */\n      tag_158\n      jump\t// in\n    tag_280:\n        /* \"#utility.yul\":8776:8850   */\n      swap2\n      pop\n        /* \"#utility.yul\":8859:8952   */\n      tag_281\n        /* \"#utility.yul\":8948:8951   */\n      dup3\n        /* \"#utility.yul\":8859:8952   */\n      tag_169\n      jump\t// in\n    tag_281:\n        /* \"#utility.yul\":8977:8979   */\n      0x20\n        /* \"#utility.yul\":8972:8975   */\n      dup3\n        /* \"#utility.yul\":8968:8980   */\n      add\n        /* \"#utility.yul\":8961:8980   */\n      swap1\n      pop\n        /* \"#utility.yul\":8620:8986   */\n      swap2\n      swap1\n      pop\n      jump\t// out\n        /* \"#utility.yul\":8992:9411   */\n    tag_69:\n        /* \"#utility.yul\":9158:9162   */\n      0x00\n        /* \"#utility.yul\":9196:9198   */\n      0x20\n        /* \"#utility.yul\":9185:9194   */\n      dup3\n        /* \"#utility.yul\":9181:9199   */\n      add\n        /* \"#utility.yul\":9173:9199   */\n      swap1\n      pop\n        /* \"#utility.yul\":9245:9254   */\n      dup2\n        /* \"#utility.yul\":9239:9243   */\n      dup2\n        /* \"#utility.yul\":9235:9255   */\n      sub\n        /* \"#utility.yul\":9231:9232   */\n      0x00\n        /* \"#utility.yul\":9220:9229   */\n      dup4\n        /* \"#utility.yul\":9216:9233   */\n      add\n        /* \"#utility.yul\":9209:9256   */\n      mstore\n        /* \"#utility.yul\":9273:9404   */\n      tag_283\n        /* \"#utility.yul\":9399:9403   */\n      dup2\n        /* \"#utility.yul\":9273:9404   */\n      tag_170\n      jump\t// in\n    tag_283:\n        /* \"#utility.yul\":9265:9404   */\n      swap1\n      pop\n        /* \"#utility.yul\":8992:9411   */\n      swap2\n      swap1\n      pop\n      jump\t// out\n        /* \"#utility.yul\":9417:9586   */\n    tag_171:\n        /* \"#utility.yul\":9557:9578   */\n      0x49444f20686173206e6f74207374617274656400000000000000000000000000\n        /* \"#utility.yul\":9553:9554   */\n      0x00\n        /* \"#utility.yul\":9545:9551   */\n      dup3\n        /* \"#utility.yul\":9541:9555   */\n      add\n        /* \"#utility.yul\":9534:9579   */\n      mstore\n        /* \"#utility.yul\":9417:9586   */\n      pop\n      jump\t// out\n        /* \"#utility.yul\":9592:9958   */\n    tag_172:\n        /* \"#utility.yul\":9734:9737   */\n      0x00\n        /* \"#utility.yul\":9755:9822   */\n      tag_286\n        /* \"#utility.yul\":9819:9821   */\n      0x13\n        /* \"#utility.yul\":9814:9817   */\n      dup4\n        /* \"#utility.yul\":9755:9822   */\n      tag_158\n      jump\t// in\n    tag_286:\n        /* \"#utility.yul\":9748:9822   */\n      swap2\n      pop\n        /* \"#utility.yul\":9831:9924   */\n      tag_287\n        /* \"#utility.yul\":9920:9923   */\n      dup3\n        /* \"#utility.yul\":9831:9924   */\n      tag_171\n      jump\t// in\n    tag_287:\n        /* \"#utility.yul\":9949:9951   */\n      0x20\n        /* \"#utility.yul\":9944:9947   */\n      dup3\n        /* \"#utility.yul\":9940:9952   */\n      add\n        /* \"#utility.yul\":9933:9952   */\n      swap1\n      pop\n        /* \"#utility.yul\":9592:9958   */\n      swap2\n      swap1\n      pop\n      jump\t// out\n        /* \"#utility.yul\":9964:10383   */\n    tag_73:\n        /* \"#utility.yul\":10130:10134   */\n      0x00\n        /* \"#utility.yul\":10168:10170   */\n      0x20\n        /* \"#utility.yul\":10157:10166   */\n      dup3\n        /* \"#utility.yul\":10153:10171   */\n      add\n        /* \"#utility.yul\":10145:10171   */\n      swap1\n      pop\n        /* \"#utility.yul\":10217:10226   */\n      dup2\n        /* \"#utility.yul\":10211:10215   */\n      dup2\n        /* \"#utility.yul\":10207:10227   */\n      sub\n        /* \"#utility.yul\":10203:10204   */\n      0x00\n        /* \"#utility.yul\":10192:10201   */\n      dup4\n        /* \"#utility.yul\":10188:10205   */\n      add\n        /* \"#utility.yul\":10181:10228   */\n      mstore\n        /* \"#utility.yul\":10245:10376   */\n      tag_289\n        /* \"#utility.yul\":10371:10375   */\n      dup2\n        /* \"#utility.yul\":10245:10376   */\n      tag_172\n      jump\t// in\n    tag_289:\n        /* \"#utility.yul\":10237:10376   */\n      swap1\n      pop\n        /* \"#utility.yul\":9964:10383   */\n      swap2\n      swap1\n      pop\n      jump\t// out\n        /* \"#utility.yul\":10389:10580   */\n    tag_75:\n        /* \"#utility.yul\":10429:10432   */\n      0x00\n        /* \"#utility.yul\":10448:10468   */\n      tag_291\n        /* \"#utility.yul\":10466:10467   */\n      dup3\n        /* \"#utility.yul\":10448:10468   */\n      tag_146\n      jump\t// in\n    tag_291:\n        /* \"#utility.yul\":10443:10468   */\n      swap2\n      pop\n        /* \"#utility.yul\":10482:10502   */\n      tag_292\n        /* \"#utility.yul\":10500:10501   */\n      dup4\n        /* \"#utility.yul\":10482:10502   */\n      tag_146\n      jump\t// in\n    tag_292:\n        /* \"#utility.yul\":10477:10502   */\n      swap3\n      pop\n        /* \"#utility.yul\":10525:10526   */\n      dup3\n        /* \"#utility.yul\":10522:10523   */\n      dup3\n        /* \"#utility.yul\":10518:10527   */\n      add\n        /* \"#utility.yul\":10511:10527   */\n      swap1\n      pop\n        /* \"#utility.yul\":10546:10549   */\n      dup1\n        /* \"#utility.yul\":10543:10544   */\n      dup3\n        /* \"#utility.yul\":10540:10550   */\n      gt\n        /* \"#utility.yul\":10537:10573   */\n      iszero\n      tag_293\n      jumpi\n        /* \"#utility.yul\":10553:10571   */\n      tag_294\n      tag_161\n      jump\t// in\n    tag_294:\n        /* \"#utility.yul\":10537:10573   */\n    tag_293:\n        /* \"#utility.yul\":10389:10580   */\n      swap3\n      swap2\n      pop\n      pop\n      jump\t// out\n        /* \"#utility.yul\":10586:10760   */\n    tag_173:\n        /* \"#utility.yul\":10726:10752   */\n      0x416c6c20746f6b656e7320686173206265656e20736f6c640000000000000000\n        /* \"#utility.yul\":10722:10723   */\n      0x00\n        /* \"#utility.yul\":10714:10720   */\n      dup3\n        /* \"#utility.yul\":10710:10724   */\n      add\n        /* \"#utility.yul\":10703:10753   */\n      mstore\n        /* \"#utility.yul\":10586:10760   */\n      pop\n      jump\t// out\n        /* \"#utility.yul\":10766:11132   */\n    tag_174:\n        /* \"#utility.yul\":10908:10911   */\n      0x00\n        /* \"#utility.yul\":10929:10996   */\n      tag_297\n        /* \"#utility.yul\":10993:10995   */\n      0x18\n        /* \"#utility.yul\":10988:10991   */\n      dup4\n        /* \"#utility.yul\":10929:10996   */\n      tag_158\n      jump\t// in\n    tag_297:\n        /* \"#utility.yul\":10922:10996   */\n      swap2\n      pop\n        /* \"#utility.yul\":11005:11098   */\n      tag_298\n        /* \"#utility.yul\":11094:11097   */\n      dup3\n        /* \"#utility.yul\":11005:11098   */\n      tag_173\n      jump\t// in\n    tag_298:\n        /* \"#utility.yul\":11123:11125   */\n      0x20\n        /* \"#utility.yul\":11118:11121   */\n      dup3\n        /* \"#utility.yul\":11114:11126   */\n      add\n        /* \"#utility.yul\":11107:11126   */\n      swap1\n      pop\n        /* \"#utility.yul\":10766:11132   */\n      swap2\n      swap1\n      pop\n      jump\t// out\n        /* \"#utility.yul\":11138:11557   */\n    tag_78:\n        /* \"#utility.yul\":11304:11308   */\n      0x00\n        /* \"#utility.yul\":11342:11344   */\n      0x20\n        /* \"#utility.yul\":11331:11340   */\n      dup3\n        /* \"#utility.yul\":11327:11345   */\n      add\n        /* \"#utility.yul\":11319:11345   */\n      swap1\n      pop\n        /* \"#utility.yul\":11391:11400   */\n      dup2\n        /* \"#utility.yul\":11385:11389   */\n      dup2\n        /* \"#utility.yul\":11381:11401   */\n      sub\n        /* \"#utility.yul\":11377:11378   */\n      0x00\n        /* \"#utility.yul\":11366:11375   */\n      dup4\n        /* \"#utility.yul\":11362:11379   */\n      add\n        /* \"#utility.yul\":11355:11402   */\n      mstore\n        /* \"#utility.yul\":11419:11550   */\n      tag_300\n        /* \"#utility.yul\":11545:11549   */\n      dup2\n        /* \"#utility.yul\":11419:11550   */\n      tag_174\n      jump\t// in\n    tag_300:\n        /* \"#utility.yul\":11411:11550   */\n      swap1\n      pop\n        /* \"#utility.yul\":11138:11557   */\n      swap2\n      swap1\n      pop\n      jump\t// out\n        /* \"#utility.yul\":11563:11787   */\n    tag_175:\n        /* \"#utility.yul\":11703:11737   */\n      0x49444f2048617320206e6f7420656e6465642c20636c61696d20756e61766169\n        /* \"#utility.yul\":11699:11700   */\n      0x00\n        /* \"#utility.yul\":11691:11697   */\n      dup3\n        /* \"#utility.yul\":11687:11701   */\n      add\n        /* \"#utility.yul\":11680:11738   */\n      mstore\n        /* \"#utility.yul\":11772:11779   */\n      0x6c61626c65000000000000000000000000000000000000000000000000000000\n        /* \"#utility.yul\":11767:11769   */\n      0x20\n        /* \"#utility.yul\":11759:11765   */\n      dup3\n        /* \"#utility.yul\":11755:11770   */\n      add\n        /* \"#utility.yul\":11748:11780   */\n      mstore\n        /* \"#utility.yul\":11563:11787   */\n      pop\n      jump\t// out\n        /* \"#utility.yul\":11793:12159   */\n    tag_176:\n        /* \"#utility.yul\":11935:11938   */\n      0x00\n        /* \"#utility.yul\":11956:12023   */\n      tag_303\n        /* \"#utility.yul\":12020:12022   */\n      0x25\n        /* \"#utility.yul\":12015:12018   */\n      dup4\n        /* \"#utility.yul\":11956:12023   */\n      tag_158\n      jump\t// in\n    tag_303:\n        /* \"#utility.yul\":11949:12023   */\n      swap2\n      pop\n        /* \"#utility.yul\":12032:12125   */\n      tag_304\n        /* \"#utility.yul\":12121:12124   */\n      dup3\n        /* \"#utility.yul\":12032:12125   */\n      tag_175\n      jump\t// in\n    tag_304:\n        /* \"#utility.yul\":12150:12152   */\n      0x40\n        /* \"#utility.yul\":12145:12148   */\n      dup3\n        /* \"#utility.yul\":12141:12153   */\n      add\n        /* \"#utility.yul\":12134:12153   */\n      swap1\n      pop\n        /* \"#utility.yul\":11793:12159   */\n      swap2\n      swap1\n      pop\n      jump\t// out\n        /* \"#utility.yul\":12165:12584   */\n    tag_90:\n        /* \"#utility.yul\":12331:12335   */\n      0x00\n        /* \"#utility.yul\":12369:12371   */\n      0x20\n        /* \"#utility.yul\":12358:12367   */\n      dup3\n        /* \"#utility.yul\":12354:12372   */\n      add\n        /* \"#utility.yul\":12346:12372   */\n      swap1\n      pop\n        /* \"#utility.yul\":12418:12427   */\n      dup2\n        /* \"#utility.yul\":12412:12416   */\n      dup2\n        /* \"#utility.yul\":12408:12428   */\n      sub\n        /* \"#utility.yul\":12404:12405   */\n      0x00\n        /* \"#utility.yul\":12393:12402   */\n      dup4\n        /* \"#utility.yul\":12389:12406   */\n      add\n        /* \"#utility.yul\":12382:12429   */\n      mstore\n        /* \"#utility.yul\":12446:12577   */\n      tag_306\n        /* \"#utility.yul\":12572:12576   */\n      dup2\n        /* \"#utility.yul\":12446:12577   */\n      tag_176\n      jump\t// in\n    tag_306:\n        /* \"#utility.yul\":12438:12577   */\n      swap1\n      pop\n        /* \"#utility.yul\":12165:12584   */\n      swap2\n      swap1\n      pop\n      jump\t// out\n        /* \"#utility.yul\":12590:12763   */\n    tag_177:\n        /* \"#utility.yul\":12730:12755   */\n      0x796f7520646964206e6f74207061727469636970617465000000000000000000\n        /* \"#utility.yul\":12726:12727   */\n      0x00\n        /* \"#utility.yul\":12718:12724   */\n      dup3\n        /* \"#utility.yul\":12714:12728   */\n      add\n        /* \"#utility.yul\":12707:12756   */\n      mstore\n        /* \"#utility.yul\":12590:12763   */\n      pop\n      jump\t// out\n        /* \"#utility.yul\":12769:13135   */\n    tag_178:\n        /* \"#utility.yul\":12911:12914   */\n      0x00\n        /* \"#utility.yul\":12932:12999   */\n      tag_309\n        /* \"#utility.yul\":12996:12998   */\n      0x17\n        /* \"#utility.yul\":12991:12994   */\n      dup4\n        /* \"#utility.yul\":12932:12999   */\n      tag_158\n      jump\t// in\n    tag_309:\n        /* \"#utility.yul\":12925:12999   */\n      swap2\n      pop\n        /* \"#utility.yul\":13008:13101   */\n      tag_310\n        /* \"#utility.yul\":13097:13100   */\n      dup3\n        /* \"#utility.yul\":13008:13101   */\n      tag_177\n      jump\t// in\n    tag_310:\n        /* \"#utility.yul\":13126:13128   */\n      0x20\n        /* \"#utility.yul\":13121:13124   */\n      dup3\n        /* \"#utility.yul\":13117:13129   */\n      add\n        /* \"#utility.yul\":13110:13129   */\n      swap1\n      pop\n        /* \"#utility.yul\":12769:13135   */\n      swap2\n      swap1\n      pop\n      jump\t// out\n        /* \"#utility.yul\":13141:13560   */\n    tag_93:\n        /* \"#utility.yul\":13307:13311   */\n      0x00\n        /* \"#utility.yul\":13345:13347   */\n      0x20\n        /* \"#utility.yul\":13334:13343   */\n      dup3\n        /* \"#utility.yul\":13330:13348   */\n      add\n        /* \"#utility.yul\":13322:13348   */\n      swap1\n      pop\n        /* \"#utility.yul\":13394:13403   */\n      dup2\n        /* \"#utility.yul\":13388:13392   */\n      dup2\n        /* \"#utility.yul\":13384:13404   */\n      sub\n        /* \"#utility.yul\":13380:13381   */\n      0x00\n        /* \"#utility.yul\":13369:13378   */\n      dup4\n        /* \"#utility.yul\":13365:13382   */\n      add\n        /* \"#utility.yul\":13358:13405   */\n      mstore\n        /* \"#utility.yul\":13422:13553   */\n      tag_312\n        /* \"#utility.yul\":13548:13552   */\n      dup2\n        /* \"#utility.yul\":13422:13553   */\n      tag_178\n      jump\t// in\n    tag_312:\n        /* \"#utility.yul\":13414:13553   */\n      swap1\n      pop\n        /* \"#utility.yul\":13141:13560   */\n      swap2\n      swap1\n      pop\n      jump\t// out\n        /* \"#utility.yul\":13566:13746   */\n    tag_179:\n        /* \"#utility.yul\":13614:13691   */\n      0x4e487b7100000000000000000000000000000000000000000000000000000000\n        /* \"#utility.yul\":13611:13612   */\n      0x00\n        /* \"#utility.yul\":13604:13692   */\n      mstore\n        /* \"#utility.yul\":13711:13715   */\n      0x12\n        /* \"#utility.yul\":13708:13709   */\n      0x04\n        /* \"#utility.yul\":13701:13716   */\n      mstore\n        /* \"#utility.yul\":13735:13739   */\n      0x24\n        /* \"#utility.yul\":13732:13733   */\n      0x00\n        /* \"#utility.yul\":13725:13740   */\n      revert\n        /* \"#utility.yul\":13752:13937   */\n    tag_95:\n        /* \"#utility.yul\":13792:13793   */\n      0x00\n        /* \"#utility.yul\":13809:13829   */\n      tag_315\n        /* \"#utility.yul\":13827:13828   */\n      dup3\n        /* \"#utility.yul\":13809:13829   */\n      tag_146\n      jump\t// in\n    tag_315:\n        /* \"#utility.yul\":13804:13829   */\n      swap2\n      pop\n        /* \"#utility.yul\":13843:13863   */\n      tag_316\n        /* \"#utility.yul\":13861:13862   */\n      dup4\n        /* \"#utility.yul\":13843:13863   */\n      tag_146\n      jump\t// in\n    tag_316:\n        /* \"#utility.yul\":13838:13863   */\n      swap3\n      pop\n        /* \"#utility.yul\":13882:13883   */\n      dup3\n        /* \"#utility.yul\":13872:13907   */\n      tag_317\n      jumpi\n        /* \"#utility.yul\":13887:13905   */\n      tag_318\n      tag_179\n      jump\t// in\n    tag_318:\n        /* \"#utility.yul\":13872:13907   */\n    tag_317:\n        /* \"#utility.yul\":13929:13930   */\n      dup3\n        /* \"#utility.yul\":13926:13927   */\n      dup3\n        /* \"#utility.yul\":13922:13931   */\n      div\n        /* \"#utility.yul\":13917:13931   */\n      swap1\n      pop\n        /* \"#utility.yul\":13752:13937   */\n      swap3\n      swap2\n      pop\n      pop\n      jump\t// out\n        /* \"#utility.yul\":13943:14275   */\n    tag_102:\n        /* \"#utility.yul\":14064:14068   */\n      0x00\n        /* \"#utility.yul\":14102:14104   */\n      0x40\n        /* \"#utility.yul\":14091:14100   */\n      dup3\n        /* \"#utility.yul\":14087:14105   */\n      add\n        /* \"#utility.yul\":14079:14105   */\n      swap1\n      pop\n        /* \"#utility.yul\":14115:14186   */\n      tag_320\n        /* \"#utility.yul\":14183:14184   */\n      0x00\n        /* \"#utility.yul\":14172:14181   */\n      dup4\n        /* \"#utility.yul\":14168:14185   */\n      add\n        /* \"#utility.yul\":14159:14165   */\n      dup6\n        /* \"#utility.yul\":14115:14186   */\n      tag_157\n      jump\t// in\n    tag_320:\n        /* \"#utility.yul\":14196:14268   */\n      tag_321\n        /* \"#utility.yul\":14264:14266   */\n      0x20\n        /* \"#utility.yul\":14253:14262   */\n      dup4\n        /* \"#utility.yul\":14249:14267   */\n      add\n        /* \"#utility.yul\":14240:14246   */\n      dup5\n        /* \"#utility.yul\":14196:14268   */\n      tag_147\n      jump\t// in\n    tag_321:\n        /* \"#utility.yul\":13943:14275   */\n      swap4\n      swap3\n      pop\n      pop\n      pop\n      jump\t// out\n        /* \"#utility.yul\":14281:14440   */\n    tag_180:\n        /* \"#utility.yul\":14421:14432   */\n      0x49434f206973206f6e0000000000000000000000000000000000000000000000\n        /* \"#utility.yul\":14417:14418   */\n      0x00\n        /* \"#utility.yul\":14409:14415   */\n      dup3\n        /* \"#utility.yul\":14405:14419   */\n      add\n        /* \"#utility.yul\":14398:14433   */\n      mstore\n        /* \"#utility.yul\":14281:14440   */\n      pop\n      jump\t// out\n        /* \"#utility.yul\":14446:14811   */\n    tag_181:\n        /* \"#utility.yul\":14588:14591   */\n      0x00\n        /* \"#utility.yul\":14609:14675   */\n      tag_324\n        /* \"#utility.yul\":14673:14674   */\n      0x09\n        /* \"#utility.yul\":14668:14671   */\n      dup4\n        /* \"#utility.yul\":14609:14675   */\n      tag_158\n      jump\t// in\n    tag_324:\n        /* \"#utility.yul\":14602:14675   */\n      swap2\n      pop\n        /* \"#utility.yul\":14684:14777   */\n      tag_325\n        /* \"#utility.yul\":14773:14776   */\n      dup3\n        /* \"#utility.yul\":14684:14777   */\n      tag_180\n      jump\t// in\n    tag_325:\n        /* \"#utility.yul\":14802:14804   */\n      0x20\n        /* \"#utility.yul\":14797:14800   */\n      dup3\n        /* \"#utility.yul\":14793:14805   */\n      add\n        /* \"#utility.yul\":14786:14805   */\n      swap1\n      pop\n        /* \"#utility.yul\":14446:14811   */\n      swap2\n      swap1\n      pop\n      jump\t// out\n        /* \"#utility.yul\":14817:15236   */\n    tag_106:\n        /* \"#utility.yul\":14983:14987   */\n      0x00\n        /* \"#utility.yul\":15021:15023   */\n      0x20\n        /* \"#utility.yul\":15010:15019   */\n      dup3\n        /* \"#utility.yul\":15006:15024   */\n      add\n        /* \"#utility.yul\":14998:15024   */\n      swap1\n      pop\n        /* \"#utility.yul\":15070:15079   */\n      dup2\n        /* \"#utility.yul\":15064:15068   */\n      dup2\n        /* \"#utility.yul\":15060:15080   */\n      sub\n        /* \"#utility.yul\":15056:15057   */\n      0x00\n        /* \"#utility.yul\":15045:15054   */\n      dup4\n        /* \"#utility.yul\":15041:15058   */\n      add\n        /* \"#utility.yul\":15034:15081   */\n      mstore\n        /* \"#utility.yul\":15098:15229   */\n      tag_327\n        /* \"#utility.yul\":15224:15228   */\n      dup2\n        /* \"#utility.yul\":15098:15229   */\n      tag_181\n      jump\t// in\n    tag_327:\n        /* \"#utility.yul\":15090:15229   */\n      swap1\n      pop\n        /* \"#utility.yul\":14817:15236   */\n      swap2\n      swap1\n      pop\n      jump\t// out\n        /* \"#utility.yul\":15242:15471   */\n    tag_182:\n        /* \"#utility.yul\":15382:15416   */\n      0x5361666545524332303a204552433230206f7065726174696f6e20646964206e\n        /* \"#utility.yul\":15378:15379   */\n      0x00\n        /* \"#utility.yul\":15370:15376   */\n      dup3\n        /* \"#utility.yul\":15366:15380   */\n      add\n        /* \"#utility.yul\":15359:15417   */\n      mstore\n        /* \"#utility.yul\":15451:15463   */\n      0x6f74207375636365656400000000000000000000000000000000000000000000\n        /* \"#utility.yul\":15446:15448   */\n      0x20\n        /* \"#utility.yul\":15438:15444   */\n      dup3\n        /* \"#utility.yul\":15434:15449   */\n      add\n        /* \"#utility.yul\":15427:15464   */\n      mstore\n        /* \"#utility.yul\":15242:15471   */\n      pop\n      jump\t// out\n        /* \"#utility.yul\":15477:15843   */\n    tag_183:\n        /* \"#utility.yul\":15619:15622   */\n      0x00\n        /* \"#utility.yul\":15640:15707   */\n      tag_330\n        /* \"#utility.yul\":15704:15706   */\n      0x2a\n        /* \"#utility.yul\":15699:15702   */\n      dup4\n        /* \"#utility.yul\":15640:15707   */\n      tag_158\n      jump\t// in\n    tag_330:\n        /* \"#utility.yul\":15633:15707   */\n      swap2\n      pop\n        /* \"#utility.yul\":15716:15809   */\n      tag_331\n        /* \"#utility.yul\":15805:15808   */\n      dup3\n        /* \"#utility.yul\":15716:15809   */\n      tag_182\n      jump\t// in\n    tag_331:\n        /* \"#utility.yul\":15834:15836   */\n      0x40\n        /* \"#utility.yul\":15829:15832   */\n      dup3\n        /* \"#utility.yul\":15825:15837   */\n      add\n        /* \"#utility.yul\":15818:15837   */\n      swap1\n      pop\n        /* \"#utility.yul\":15477:15843   */\n      swap2\n      swap1\n      pop\n      jump\t// out\n        /* \"#utility.yul\":15849:16268   */\n    tag_118:\n        /* \"#utility.yul\":16015:16019   */\n      0x00\n        /* \"#utility.yul\":16053:16055   */\n      0x20\n        /* \"#utility.yul\":16042:16051   */\n      dup3\n        /* \"#utility.yul\":16038:16056   */\n      add\n        /* \"#utility.yul\":16030:16056   */\n      swap1\n      pop\n        /* \"#utility.yul\":16102:16111   */\n      dup2\n        /* \"#utility.yul\":16096:16100   */\n      dup2\n        /* \"#utility.yul\":16092:16112   */\n      sub\n        /* \"#utility.yul\":16088:16089   */\n      0x00\n        /* \"#utility.yul\":16077:16086   */\n      dup4\n        /* \"#utility.yul\":16073:16090   */\n      add\n        /* \"#utility.yul\":16066:16113   */\n      mstore\n        /* \"#utility.yul\":16130:16261   */\n      tag_333\n        /* \"#utility.yul\":16256:16260   */\n      dup2\n        /* \"#utility.yul\":16130:16261   */\n      tag_183\n      jump\t// in\n    tag_333:\n        /* \"#utility.yul\":16122:16261   */\n      swap1\n      pop\n        /* \"#utility.yul\":15849:16268   */\n      swap2\n      swap1\n      pop\n      jump\t// out\n        /* \"#utility.yul\":16274:16499   */\n    tag_184:\n        /* \"#utility.yul\":16414:16448   */\n      0x416464726573733a20696e73756666696369656e742062616c616e636520666f\n        /* \"#utility.yul\":16410:16411   */\n      0x00\n        /* \"#utility.yul\":16402:16408   */\n      dup3\n        /* \"#utility.yul\":16398:16412   */\n      add\n        /* \"#utility.yul\":16391:16449   */\n      mstore\n        /* \"#utility.yul\":16483:16491   */\n      0x722063616c6c0000000000000000000000000000000000000000000000000000\n        /* \"#utility.yul\":16478:16480   */\n      0x20\n        /* \"#utility.yul\":16470:16476   */\n      dup3\n        /* \"#utility.yul\":16466:16481   */\n      add\n        /* \"#utility.yul\":16459:16492   */\n      mstore\n        /* \"#utility.yul\":16274:16499   */\n      pop\n      jump\t// out\n        /* \"#utility.yul\":16505:16871   */\n    tag_185:\n        /* \"#utility.yul\":16647:16650   */\n      0x00\n        /* \"#utility.yul\":16668:16735   */\n      tag_336\n        /* \"#utility.yul\":16732:16734   */\n      0x26\n        /* \"#utility.yul\":16727:16730   */\n      dup4\n        /* \"#utility.yul\":16668:16735   */\n      tag_158\n      jump\t// in\n    tag_336:\n        /* \"#utility.yul\":16661:16735   */\n      swap2\n      pop\n        /* \"#utility.yul\":16744:16837   */\n      tag_337\n        /* \"#utility.yul\":16833:16836   */\n      dup3\n        /* \"#utility.yul\":16744:16837   */\n      tag_184\n      jump\t// in\n    tag_337:\n        /* \"#utility.yul\":16862:16864   */\n      0x40\n        /* \"#utility.yul\":16857:16860   */\n      dup3\n        /* \"#utility.yul\":16853:16865   */\n      add\n        /* \"#utility.yul\":16846:16865   */\n      swap1\n      pop\n        /* \"#utility.yul\":16505:16871   */\n      swap2\n      swap1\n      pop\n      jump\t// out\n        /* \"#utility.yul\":16877:17296   */\n    tag_125:\n        /* \"#utility.yul\":17043:17047   */\n      0x00\n        /* \"#utility.yul\":17081:17083   */\n      0x20\n        /* \"#utility.yul\":17070:17079   */\n      dup3\n        /* \"#utility.yul\":17066:17084   */\n      add\n        /* \"#utility.yul\":17058:17084   */\n      swap1\n      pop\n        /* \"#utility.yul\":17130:17139   */\n      dup2\n        /* \"#utility.yul\":17124:17128   */\n      dup2\n        /* \"#utility.yul\":17120:17140   */\n      sub\n        /* \"#utility.yul\":17116:17117   */\n      0x00\n        /* \"#utility.yul\":17105:17114   */\n      dup4\n        /* \"#utility.yul\":17101:17118   */\n      add\n        /* \"#utility.yul\":17094:17141   */\n      mstore\n        /* \"#utility.yul\":17158:17289   */\n      tag_339\n        /* \"#utility.yul\":17284:17288   */\n      dup2\n        /* \"#utility.yul\":17158:17289   */\n      tag_185\n      jump\t// in\n    tag_339:\n        /* \"#utility.yul\":17150:17289   */\n      swap1\n      pop\n        /* \"#utility.yul\":16877:17296   */\n      swap2\n      swap1\n      pop\n      jump\t// out\n        /* \"#utility.yul\":17302:17481   */\n    tag_186:\n        /* \"#utility.yul\":17442:17473   */\n      0x416464726573733a2063616c6c20746f206e6f6e2d636f6e7472616374000000\n        /* \"#utility.yul\":17438:17439   */\n      0x00\n        /* \"#utility.yul\":17430:17436   */\n      dup3\n        /* \"#utility.yul\":17426:17440   */\n      add\n        /* \"#utility.yul\":17419:17474   */\n      mstore\n        /* \"#utility.yul\":17302:17481   */\n      pop\n      jump\t// out\n        /* \"#utility.yul\":17487:17853   */\n    tag_187:\n        /* \"#utility.yul\":17629:17632   */\n      0x00\n        /* \"#utility.yul\":17650:17717   */\n      tag_342\n        /* \"#utility.yul\":17714:17716   */\n      0x1d\n        /* \"#utility.yul\":17709:17712   */\n      dup4\n        /* \"#utility.yul\":17650:17717   */\n      tag_158\n      jump\t// in\n    tag_342:\n        /* \"#utility.yul\":17643:17717   */\n      swap2\n      pop\n        /* \"#utility.yul\":17726:17819   */\n      tag_343\n        /* \"#utility.yul\":17815:17818   */\n      dup3\n        /* \"#utility.yul\":17726:17819   */\n      tag_186\n      jump\t// in\n    tag_343:\n        /* \"#utility.yul\":17844:17846   */\n      0x20\n        /* \"#utility.yul\":17839:17842   */\n      dup3\n        /* \"#utility.yul\":17835:17847   */\n      add\n        /* \"#utility.yul\":17828:17847   */\n      swap1\n      pop\n        /* \"#utility.yul\":17487:17853   */\n      swap2\n      swap1\n      pop\n      jump\t// out\n        /* \"#utility.yul\":17859:18278   */\n    tag_130:\n        /* \"#utility.yul\":18025:18029   */\n      0x00\n        /* \"#utility.yul\":18063:18065   */\n      0x20\n        /* \"#utility.yul\":18052:18061   */\n      dup3\n        /* \"#utility.yul\":18048:18066   */\n      add\n        /* \"#utility.yul\":18040:18066   */\n      swap1\n      pop\n        /* \"#utility.yul\":18112:18121   */\n      dup2\n        /* \"#utility.yul\":18106:18110   */\n      dup2\n        /* \"#utility.yul\":18102:18122   */\n      sub\n        /* \"#utility.yul\":18098:18099   */\n      0x00\n        /* \"#utility.yul\":18087:18096   */\n      dup4\n        /* \"#utility.yul\":18083:18100   */\n      add\n        /* \"#utility.yul\":18076:18123   */\n      mstore\n        /* \"#utility.yul\":18140:18271   */\n      tag_345\n        /* \"#utility.yul\":18266:18270   */\n      dup2\n        /* \"#utility.yul\":18140:18271   */\n      tag_187\n      jump\t// in\n    tag_345:\n        /* \"#utility.yul\":18132:18271   */\n      swap1\n      pop\n        /* \"#utility.yul\":17859:18278   */\n      swap2\n      swap1\n      pop\n      jump\t// out\n        /* \"#utility.yul\":18284:18382   */\n    tag_188:\n        /* \"#utility.yul\":18335:18341   */\n      0x00\n        /* \"#utility.yul\":18369:18374   */\n      dup2\n        /* \"#utility.yul\":18363:18375   */\n      mload\n        /* \"#utility.yul\":18353:18375   */\n      swap1\n      pop\n        /* \"#utility.yul\":18284:18382   */\n      swap2\n      swap1\n      pop\n      jump\t// out\n        /* \"#utility.yul\":18388:18535   */\n    tag_189:\n        /* \"#utility.yul\":18489:18500   */\n      0x00\n        /* \"#utility.yul\":18526:18529   */\n      dup2\n        /* \"#utility.yul\":18511:18529   */\n      swap1\n      pop\n        /* \"#utility.yul\":18388:18535   */\n      swap3\n      swap2\n      pop\n      pop\n      jump\t// out\n        /* \"#utility.yul\":18541:18787   */\n    tag_190:\n        /* \"#utility.yul\":18622:18623   */\n      0x00\n        /* \"#utility.yul\":18632:18745   */\n    tag_349:\n        /* \"#utility.yul\":18646:18652   */\n      dup4\n        /* \"#utility.yul\":18643:18644   */\n      dup2\n        /* \"#utility.yul\":18640:18653   */\n      lt\n        /* \"#utility.yul\":18632:18745   */\n      iszero\n      tag_351\n      jumpi\n        /* \"#utility.yul\":18731:18732   */\n      dup1\n        /* \"#utility.yul\":18726:18729   */\n      dup3\n        /* \"#utility.yul\":18722:18733   */\n      add\n        /* \"#utility.yul\":18716:18734   */\n      mload\n        /* \"#utility.yul\":18712:18713   */\n      dup2\n        /* \"#utility.yul\":18707:18710   */\n      dup5\n        /* \"#utility.yul\":18703:18714   */\n      add\n        /* \"#utility.yul\":18696:18735   */\n      mstore\n        /* \"#utility.yul\":18668:18670   */\n      0x20\n        /* \"#utility.yul\":18665:18666   */\n      dup2\n        /* \"#utility.yul\":18661:18671   */\n      add\n        /* \"#utility.yul\":18656:18671   */\n      swap1\n      pop\n        /* \"#utility.yul\":18632:18745   */\n      jump(tag_349)\n    tag_351:\n        /* \"#utility.yul\":18779:18780   */\n      0x00\n        /* \"#utility.yul\":18770:18776   */\n      dup5\n        /* \"#utility.yul\":18765:18768   */\n      dup5\n        /* \"#utility.yul\":18761:18777   */\n      add\n        /* \"#utility.yul\":18754:18781   */\n      mstore\n        /* \"#utility.yul\":18603:18787   */\n      pop\n        /* \"#utility.yul\":18541:18787   */\n      pop\n      pop\n      pop\n      jump\t// out\n        /* \"#utility.yul\":18793:19179   */\n    tag_191:\n        /* \"#utility.yul\":18897:18900   */\n      0x00\n        /* \"#utility.yul\":18925:18963   */\n      tag_353\n        /* \"#utility.yul\":18957:18962   */\n      dup3\n        /* \"#utility.yul\":18925:18963   */\n      tag_188\n      jump\t// in\n    tag_353:\n        /* \"#utility.yul\":18979:19067   */\n      tag_354\n        /* \"#utility.yul\":19060:19066   */\n      dup2\n        /* \"#utility.yul\":19055:19058   */\n      dup6\n        /* \"#utility.yul\":18979:19067   */\n      tag_189\n      jump\t// in\n    tag_354:\n        /* \"#utility.yul\":18972:19067   */\n      swap4\n      pop\n        /* \"#utility.yul\":19076:19141   */\n      tag_355\n        /* \"#utility.yul\":19134:19140   */\n      dup2\n        /* \"#utility.yul\":19129:19132   */\n      dup6\n        /* \"#utility.yul\":19122:19126   */\n      0x20\n        /* \"#utility.yul\":19115:19120   */\n      dup7\n        /* \"#utility.yul\":19111:19127   */\n      add\n        /* \"#utility.yul\":19076:19141   */\n      tag_190\n      jump\t// in\n    tag_355:\n        /* \"#utility.yul\":19166:19172   */\n      dup1\n        /* \"#utility.yul\":19161:19164   */\n      dup5\n        /* \"#utility.yul\":19157:19173   */\n      add\n        /* \"#utility.yul\":19150:19173   */\n      swap2\n      pop\n        /* \"#utility.yul\":18901:19179   */\n      pop\n        /* \"#utility.yul\":18793:19179   */\n      swap3\n      swap2\n      pop\n      pop\n      jump\t// out\n        /* \"#utility.yul\":19185:19456   */\n    tag_132:\n        /* \"#utility.yul\":19315:19318   */\n      0x00\n        /* \"#utility.yul\":19337:19430   */\n      tag_357\n        /* \"#utility.yul\":19426:19429   */\n      dup3\n        /* \"#utility.yul\":19417:19423   */\n      dup5\n        /* \"#utility.yul\":19337:19430   */\n      tag_191\n      jump\t// in\n    tag_357:\n        /* \"#utility.yul\":19330:19430   */\n      swap2\n      pop\n        /* \"#utility.yul\":19447:19450   */\n      dup2\n        /* \"#utility.yul\":19440:19450   */\n      swap1\n      pop\n        /* \"#utility.yul\":19185:19456   */\n      swap3\n      swap2\n      pop\n      pop\n      jump\t// out\n        /* \"#utility.yul\":19462:19561   */\n    tag_192:\n        /* \"#utility.yul\":19514:19520   */\n      0x00\n        /* \"#utility.yul\":19548:19553   */\n      dup2\n        /* \"#utility.yul\":19542:19554   */\n      mload\n        /* \"#utility.yul\":19532:19554   */\n      swap1\n      pop\n        /* \"#utility.yul\":19462:19561   */\n      swap2\n      swap1\n      pop\n      jump\t// out\n        /* \"#utility.yul\":19567:19669   */\n    tag_193:\n        /* \"#utility.yul\":19608:19614   */\n      0x00\n        /* \"#utility.yul\":19659:19661   */\n      0x1f\n        /* \"#utility.yul\":19655:19662   */\n      not\n        /* \"#utility.yul\":19650:19652   */\n      0x1f\n        /* \"#utility.yul\":19643:19648   */\n      dup4\n        /* \"#utility.yul\":19639:19653   */\n      add\n        /* \"#utility.yul\":19635:19663   */\n      and\n        /* \"#utility.yul\":19625:19663   */\n      swap1\n      pop\n        /* \"#utility.yul\":19567:19669   */\n      swap2\n      swap1\n      pop\n      jump\t// out\n        /* \"#utility.yul\":19675:20052   */\n    tag_194:\n        /* \"#utility.yul\":19763:19766   */\n      0x00\n        /* \"#utility.yul\":19791:19830   */\n      tag_361\n        /* \"#utility.yul\":19824:19829   */\n      dup3\n        /* \"#utility.yul\":19791:19830   */\n      tag_192\n      jump\t// in\n    tag_361:\n        /* \"#utility.yul\":19846:19917   */\n      tag_362\n        /* \"#utility.yul\":19910:19916   */\n      dup2\n        /* \"#utility.yul\":19905:19908   */\n      dup6\n        /* \"#utility.yul\":19846:19917   */\n      tag_158\n      jump\t// in\n    tag_362:\n        /* \"#utility.yul\":19839:19917   */\n      swap4\n      pop\n        /* \"#utility.yul\":19926:19991   */\n      tag_363\n        /* \"#utility.yul\":19984:19990   */\n      dup2\n        /* \"#utility.yul\":19979:19982   */\n      dup6\n        /* \"#utility.yul\":19972:19976   */\n      0x20\n        /* \"#utility.yul\":19965:19970   */\n      dup7\n        /* \"#utility.yul\":19961:19977   */\n      add\n        /* \"#utility.yul\":19926:19991   */\n      tag_190\n      jump\t// in\n    tag_363:\n        /* \"#utility.yul\":20016:20045   */\n      tag_364\n        /* \"#utility.yul\":20038:20044   */\n      dup2\n        /* \"#utility.yul\":20016:20045   */\n      tag_193\n      jump\t// in\n    tag_364:\n        /* \"#utility.yul\":20011:20014   */\n      dup5\n        /* \"#utility.yul\":20007:20046   */\n      add\n        /* \"#utility.yul\":20000:20046   */\n      swap2\n      pop\n        /* \"#utility.yul\":19767:20052   */\n      pop\n        /* \"#utility.yul\":19675:20052   */\n      swap3\n      swap2\n      pop\n      pop\n      jump\t// out\n        /* \"#utility.yul\":20058:20371   */\n    tag_145:\n        /* \"#utility.yul\":20171:20175   */\n      0x00\n        /* \"#utility.yul\":20209:20211   */\n      0x20\n        /* \"#utility.yul\":20198:20207   */\n      dup3\n        /* \"#utility.yul\":20194:20212   */\n      add\n        /* \"#utility.yul\":20186:20212   */\n      swap1\n      pop\n        /* \"#utility.yul\":20258:20267   */\n      dup2\n        /* \"#utility.yul\":20252:20256   */\n      dup2\n        /* \"#utility.yul\":20248:20268   */\n      sub\n        /* \"#utility.yul\":20244:20245   */\n      0x00\n        /* \"#utility.yul\":20233:20242   */\n      dup4\n        /* \"#utility.yul\":20229:20246   */\n      add\n        /* \"#utility.yul\":20222:20269   */\n      mstore\n        /* \"#utility.yul\":20286:20364   */\n      tag_366\n        /* \"#utility.yul\":20359:20363   */\n      dup2\n        /* \"#utility.yul\":20350:20356   */\n      dup5\n        /* \"#utility.yul\":20286:20364   */\n      tag_194\n      jump\t// in\n    tag_366:\n        /* \"#utility.yul\":20278:20364   */\n      swap1\n      pop\n        /* \"#utility.yul\":20058:20371   */\n      swap3\n      swap2\n      pop\n      pop\n      jump\t// out\n\n    auxdata: 0xa2646970667358221220da93007caf0f339eaad2458a3ae388dd76bd14721d526edc18730a904b64b09864736f6c63430008110033\n}\n",
				"bytecode": {
					"linkReferences": {},
					"object": "60a06040523480156200001157600080fd5b5060405162001add38038062001add83398181016040528101906200003791906200019a565b600160008190555033600360006101000a81548173ffffffffffffffffffffffffffffffffffffffff021916908373ffffffffffffffffffffffffffffffffffffffff160217905550670de0b6b3a76400008362000096919062000225565b6002819055508173ffffffffffffffffffffffffffffffffffffffff1660808173ffffffffffffffffffffffffffffffffffffffff1681525050670de0b6b3a764000081620000e6919062000225565b60048190555050505062000270565b600080fd5b6000819050919050565b6200010f81620000fa565b81146200011b57600080fd5b50565b6000815190506200012f8162000104565b92915050565b600073ffffffffffffffffffffffffffffffffffffffff82169050919050565b6000620001628262000135565b9050919050565b620001748162000155565b81146200018057600080fd5b50565b600081519050620001948162000169565b92915050565b600080600060608486031215620001b657620001b5620000f5565b5b6000620001c6868287016200011e565b9350506020620001d98682870162000183565b9250506040620001ec868287016200011e565b9150509250925092565b7f4e487b7100000000000000000000000000000000000000000000000000000000600052601160045260246000fd5b60006200023282620000fa565b91506200023f83620000fa565b92508282026200024f81620000fa565b91508282048414831517620002695762000268620001f6565b5b5092915050565b6080516118436200029a6000396000818161036e01528181610608015261071801526118436000f3fe608060405234801561001057600080fd5b50600436106100935760003560e01c8063b592410011610066578063b5924100146100e6578063c2db2c4214610102578063c54e44eb1461011e578063d7997f7e1461013c578063dc55920f1461014657610093565b806376d812ea146100985780637ff9b596146100a2578063890e63e7146100c0578063b392972d146100dc575b600080fd5b6100a0610150565b005b6100aa6101fc565b6040516100b79190610de1565b60405180910390f35b6100da60048036038101906100d59190610e2d565b610202565b005b6100e46102cd565b005b61010060048036038101906100fb9190610ecb565b610410565b005b61011c60048036038101906101179190610f0b565b610507565b005b610126610716565b6040516101339190610f47565b60405180910390f35b61014461073a565b005b61014e6109fb565b005b600360009054906101000a900473ffffffffffffffffffffffffffffffffffffffff1673ffffffffffffffffffffffffffffffffffffffff163373ffffffffffffffffffffffffffffffffffffffff16146101aa57600080fd5b6000600360146101000a81548160ff0219169083151502179055507f71002079ab3de7feb03ee30c84baf1d2350d4ffe16709d3dacb5e1037a0fe1cc6040516101f290610fbf565b60405180910390a1565b60025481565b600360009054906101000a900473ffffffffffffffffffffffffffffffffffffffff1673ffffffffffffffffffffffffffffffffffffffff163373ffffffffffffffffffffffffffffffffffffffff161461025c57600080fd5b670de0b6b3a764000082610270919061100e565b600281905550670de0b6b3a76400008161028a919061100e565b6004819055507f314bf1ccc32c608a6175053b0da1933b3a745b3f799011003a4c39aab0c518a382826040516102c1929190611050565b60405180910390a15050565b600360009054906101000a900473ffffffffffffffffffffffffffffffffffffffff1673ffffffffffffffffffffffffffffffffffffffff163373ffffffffffffffffffffffffffffffffffffffff161461035d576040517f08c379a0000000000000000000000000000000000000000000000000000000008152600401610354906110c5565b60405180910390fd5b6000600554905060006005819055507f000000000000000000000000000000000000000000000000000000000000000073ffffffffffffffffffffffffffffffffffffffff166323b872dd3033846040518463ffffffff1660e01b81526004016103c9939291906110e5565b6020604051808303816000875af11580156103e8573d6000803e3d6000fd5b505050506040513d601f19601f8201168201806040525081019061040c9190611154565b5050565b600360009054906101000a900473ffffffffffffffffffffffffffffffffffffffff1673ffffffffffffffffffffffffffffffffffffffff163373ffffffffffffffffffffffffffffffffffffffff16146104a0576040517f08c379a0000000000000000000000000000000000000000000000000000000008152600401610497906111f3565b60405180910390fd5b81600160006101000a81548173ffffffffffffffffffffffffffffffffffffffff021916908373ffffffffffffffffffffffffffffffffffffffff160217905550806006819055506001600360156101000a81548160ff0219169083151502179055505050565b60026000540361054c576040517f08c379a00000000000000000000000000000000000000000000000000000000081526004016105439061125f565b60405180910390fd5b600260008190555060011515600360149054906101000a900460ff161515146105aa576040517f08c379a00000000000000000000000000000000000000000000000000000000081526004016105a1906112cb565b60405180910390fd5b6000816005546105ba91906112eb565b90506004548110610600576040517f08c379a00000000000000000000000000000000000000000000000000000000081526004016105f79061136b565b60405180910390fd5b61064d3330847f000000000000000000000000000000000000000000000000000000000000000073ffffffffffffffffffffffffffffffffffffffff16610ac2909392919063ffffffff16565b81600760003373ffffffffffffffffffffffffffffffffffffffff1673ffffffffffffffffffffffffffffffffffffffff168152602001908152602001600020600082825461069c91906112eb565b9250508190555081600560008282546106b591906112eb565b925050819055503373ffffffffffffffffffffffffffffffffffffffff167fda4cadf0d4383cb43c8249e3cc678f6690bdbaa01421c99fd9b14edac62cde80836040516107029190610de1565b60405180910390a250600160008190555050565b7f000000000000000000000000000000000000000000000000000000000000000081565b60026000540361077f576040517f08c379a00000000000000000000000000000000000000000000000000000000081526004016107769061125f565b60405180910390fd5b600260008190555060001515600360149054906101000a900460ff161515146107dd576040517f08c379a00000000000000000000000000000000000000000000000000000000081526004016107d4906113fd565b60405180910390fd5b6000600760003373ffffffffffffffffffffffffffffffffffffffff1673ffffffffffffffffffffffffffffffffffffffff168152602001908152602001600020541161085f576040517f08c379a000000000000000000000000000000000000000000000000000000000815260040161085690611469565b60405180910390fd5b6000600760003373ffffffffffffffffffffffffffffffffffffffff1673ffffffffffffffffffffffffffffffffffffffff1681526020019081526020016000205490506000600254826108b391906114b8565b90506000670de0b6b3a7640000826108cb919061100e565b90506000600760003373ffffffffffffffffffffffffffffffffffffffff1673ffffffffffffffffffffffffffffffffffffffff16815260200190815260200160002081905550600160009054906101000a900473ffffffffffffffffffffffffffffffffffffffff1673ffffffffffffffffffffffffffffffffffffffff166323b872dd3033846040518463ffffffff1660e01b8152600401610971939291906110e5565b6020604051808303816000875af1158015610990573d6000803e3d6000fd5b505050506040513d601f19601f820116820180604052508101906109b49190611154565b507f1698755f2f63264c31ca84d930df9dd8ca3ac92d33a0dd64d10154f95e4203ef33836040516109e69291906114e9565b60405180910390a15050506001600081905550565b600360009054906101000a900473ffffffffffffffffffffffffffffffffffffffff1673ffffffffffffffffffffffffffffffffffffffff163373ffffffffffffffffffffffffffffffffffffffff1614610a5557600080fd5b6001600360146101000a81548160ff0219169083151502179055506000600360156101000a81548160ff0219169083151502179055507f71002079ab3de7feb03ee30c84baf1d2350d4ffe16709d3dacb5e1037a0fe1cc604051610ab89061155e565b60405180910390a1565b610b45846323b872dd60e01b858585604051602401610ae3939291906110e5565b604051602081830303815290604052907bffffffffffffffffffffffffffffffffffffffffffffffffffffffff19166020820180517bffffffffffffffffffffffffffffffffffffffffffffffffffffffff8381831617835250505050610b4b565b50505050565b6000610bad826040518060400160405280602081526020017f5361666545524332303a206c6f772d6c6576656c2063616c6c206661696c65648152508573ffffffffffffffffffffffffffffffffffffffff16610c129092919063ffffffff16565b9050600081511115610c0d5780806020019051810190610bcd9190611154565b610c0c576040517f08c379a0000000000000000000000000000000000000000000000000000000008152600401610c03906115f0565b60405180910390fd5b5b505050565b6060610c218484600085610c2a565b90509392505050565b606082471015610c6f576040517f08c379a0000000000000000000000000000000000000000000000000000000008152600401610c6690611682565b60405180910390fd5b610c7885610d3e565b610cb7576040517f08c379a0000000000000000000000000000000000000000000000000000000008152600401610cae906116ee565b60405180910390fd5b6000808673ffffffffffffffffffffffffffffffffffffffff168587604051610ce0919061177f565b60006040518083038185875af1925050503d8060008114610d1d576040519150601f19603f3d011682016040523d82523d6000602084013e610d22565b606091505b5091509150610d32828286610d61565b92505050949350505050565b6000808273ffffffffffffffffffffffffffffffffffffffff163b119050919050565b60608315610d7157829050610dc1565b600083511115610d845782518084602001fd5b816040517f08c379a0000000000000000000000000000000000000000000000000000000008152600401610db891906117eb565b60405180910390fd5b9392505050565b6000819050919050565b610ddb81610dc8565b82525050565b6000602082019050610df66000830184610dd2565b92915050565b600080fd5b610e0a81610dc8565b8114610e1557600080fd5b50565b600081359050610e2781610e01565b92915050565b60008060408385031215610e4457610e43610dfc565b5b6000610e5285828601610e18565b9250506020610e6385828601610e18565b9150509250929050565b600073ffffffffffffffffffffffffffffffffffffffff82169050919050565b6000610e9882610e6d565b9050919050565b610ea881610e8d565b8114610eb357600080fd5b50565b600081359050610ec581610e9f565b92915050565b60008060408385031215610ee257610ee1610dfc565b5b6000610ef085828601610eb6565b9250506020610f0185828601610e18565b9150509250929050565b600060208284031215610f2157610f20610dfc565b5b6000610f2f84828501610e18565b91505092915050565b610f4181610e8d565b82525050565b6000602082019050610f5c6000830184610f38565b92915050565b600082825260208201905092915050565b7f49434f2069732070617573656400000000000000000000000000000000000000600082015250565b6000610fa9600d83610f62565b9150610fb482610f73565b602082019050919050565b60006020820190508181036000830152610fd881610f9c565b9050919050565b7f4e487b7100000000000000000000000000000000000000000000000000000000600052601160045260246000fd5b600061101982610dc8565b915061102483610dc8565b925082820261103281610dc8565b9150828204841483151761104957611048610fdf565b5b5092915050565b60006040820190506110656000830185610dd2565b6110726020830184610dd2565b9392505050565b7f4f6e6c79206f776e65722063616e20636c61696d000000000000000000000000600082015250565b60006110af601483610f62565b91506110ba82611079565b602082019050919050565b600060208201905081810360008301526110de816110a2565b9050919050565b60006060820190506110fa6000830186610f38565b6111076020830185610f38565b6111146040830184610dd2565b949350505050565b60008115159050919050565b6111318161111c565b811461113c57600080fd5b50565b60008151905061114e81611128565b92915050565b60006020828403121561116a57611169610dfc565b5b60006111788482850161113f565b91505092915050565b7f4f6e6c79206f776e65722063616e2063616c6c20746869732066756e6374696f60008201527f6e00000000000000000000000000000000000000000000000000000000000000602082015250565b60006111dd602183610f62565b91506111e882611181565b604082019050919050565b6000602082019050818103600083015261120c816111d0565b9050919050565b7f5265656e7472616e637947756172643a207265656e7472616e742063616c6c00600082015250565b6000611249601f83610f62565b915061125482611213565b602082019050919050565b600060208201905081810360008301526112788161123c565b9050919050565b7f49444f20686173206e6f74207374617274656400000000000000000000000000600082015250565b60006112b5601383610f62565b91506112c08261127f565b602082019050919050565b600060208201905081810360008301526112e4816112a8565b9050919050565b60006112f682610dc8565b915061130183610dc8565b925082820190508082111561131957611318610fdf565b5b92915050565b7f416c6c20746f6b656e7320686173206265656e20736f6c640000000000000000600082015250565b6000611355601883610f62565b91506113608261131f565b602082019050919050565b6000602082019050818103600083015261138481611348565b9050919050565b7f49444f2048617320206e6f7420656e6465642c20636c61696d20756e6176616960008201527f6c61626c65000000000000000000000000000000000000000000000000000000602082015250565b60006113e7602583610f62565b91506113f28261138b565b604082019050919050565b60006020820190508181036000830152611416816113da565b9050919050565b7f796f7520646964206e6f74207061727469636970617465000000000000000000600082015250565b6000611453601783610f62565b915061145e8261141d565b602082019050919050565b6000602082019050818103600083015261148281611446565b9050919050565b7f4e487b7100000000000000000000000000000000000000000000000000000000600052601260045260246000fd5b60006114c382610dc8565b91506114ce83610dc8565b9250826114de576114dd611489565b5b828204905092915050565b60006040820190506114fe6000830185610f38565b61150b6020830184610dd2565b9392505050565b7f49434f206973206f6e0000000000000000000000000000000000000000000000600082015250565b6000611548600983610f62565b915061155382611512565b602082019050919050565b600060208201905081810360008301526115778161153b565b9050919050565b7f5361666545524332303a204552433230206f7065726174696f6e20646964206e60008201527f6f74207375636365656400000000000000000000000000000000000000000000602082015250565b60006115da602a83610f62565b91506115e58261157e565b604082019050919050565b60006020820190508181036000830152611609816115cd565b9050919050565b7f416464726573733a20696e73756666696369656e742062616c616e636520666f60008201527f722063616c6c0000000000000000000000000000000000000000000000000000602082015250565b600061166c602683610f62565b915061167782611610565b604082019050919050565b6000602082019050818103600083015261169b8161165f565b9050919050565b7f416464726573733a2063616c6c20746f206e6f6e2d636f6e7472616374000000600082015250565b60006116d8601d83610f62565b91506116e3826116a2565b602082019050919050565b60006020820190508181036000830152611707816116cb565b9050919050565b600081519050919050565b600081905092915050565b60005b83811015611742578082015181840152602081019050611727565b60008484015250505050565b60006117598261170e565b6117638185611719565b9350611773818560208601611724565b80840191505092915050565b600061178b828461174e565b915081905092915050565b600081519050919050565b6000601f19601f8301169050919050565b60006117bd82611796565b6117c78185610f62565b93506117d7818560208601611724565b6117e0816117a1565b840191505092915050565b6000602082019050818103600083015261180581846117b2565b90509291505056fea2646970667358221220da93007caf0f339eaad2458a3ae388dd76bd14721d526edc18730a904b64b09864736f6c63430008110033",
					"opcodes": "PUSH1 0xA0 PUSH1 0x40 MSTORE CALLVALUE DUP1 ISZERO PUSH3 0x11 JUMPI PUSH1 0x0 DUP1 REVERT JUMPDEST POP PUSH1 0x40 MLOAD PUSH3 0x1ADD CODESIZE SUB DUP1 PUSH3 0x1ADD DUP4 CODECOPY DUP2 DUP2 ADD PUSH1 0x40 MSTORE DUP2 ADD SWAP1 PUSH3 0x37 SWAP2 SWAP1 PUSH3 0x19A JUMP JUMPDEST PUSH1 0x1 PUSH1 0x0 DUP2 SWAP1 SSTORE POP CALLER PUSH1 0x3 PUSH1 0x0 PUSH2 0x100 EXP DUP2 SLOAD DUP2 PUSH20 0xFFFFFFFFFFFFFFFFFFFFFFFFFFFFFFFFFFFFFFFF MUL NOT AND SWAP1 DUP4 PUSH20 0xFFFFFFFFFFFFFFFFFFFFFFFFFFFFFFFFFFFFFFFF AND MUL OR SWAP1 SSTORE POP PUSH8 0xDE0B6B3A7640000 DUP4 PUSH3 0x96 SWAP2 SWAP1 PUSH3 0x225 JUMP JUMPDEST PUSH1 0x2 DUP2 SWAP1 SSTORE POP DUP2 PUSH20 0xFFFFFFFFFFFFFFFFFFFFFFFFFFFFFFFFFFFFFFFF AND PUSH1 0x80 DUP2 PUSH20 0xFFFFFFFFFFFFFFFFFFFFFFFFFFFFFFFFFFFFFFFF AND DUP2 MSTORE POP POP PUSH8 0xDE0B6B3A7640000 DUP2 PUSH3 0xE6 SWAP2 SWAP1 PUSH3 0x225 JUMP JUMPDEST PUSH1 0x4 DUP2 SWAP1 SSTORE POP POP POP POP PUSH3 0x270 JUMP JUMPDEST PUSH1 0x0 DUP1 REVERT JUMPDEST PUSH1 0x0 DUP2 SWAP1 POP SWAP2 SWAP1 POP JUMP JUMPDEST PUSH3 0x10F DUP2 PUSH3 0xFA JUMP JUMPDEST DUP2 EQ PUSH3 0x11B JUMPI PUSH1 0x0 DUP1 REVERT JUMPDEST POP JUMP JUMPDEST PUSH1 0x0 DUP2 MLOAD SWAP1 POP PUSH3 0x12F DUP2 PUSH3 0x104 JUMP JUMPDEST SWAP3 SWAP2 POP POP JUMP JUMPDEST PUSH1 0x0 PUSH20 0xFFFFFFFFFFFFFFFFFFFFFFFFFFFFFFFFFFFFFFFF DUP3 AND SWAP1 POP SWAP2 SWAP1 POP JUMP JUMPDEST PUSH1 0x0 PUSH3 0x162 DUP3 PUSH3 0x135 JUMP JUMPDEST SWAP1 POP SWAP2 SWAP1 POP JUMP JUMPDEST PUSH3 0x174 DUP2 PUSH3 0x155 JUMP JUMPDEST DUP2 EQ PUSH3 0x180 JUMPI PUSH1 0x0 DUP1 REVERT JUMPDEST POP JUMP JUMPDEST PUSH1 0x0 DUP2 MLOAD SWAP1 POP PUSH3 0x194 DUP2 PUSH3 0x169 JUMP JUMPDEST SWAP3 SWAP2 POP POP JUMP JUMPDEST PUSH1 0x0 DUP1 PUSH1 0x0 PUSH1 0x60 DUP5 DUP7 SUB SLT ISZERO PUSH3 0x1B6 JUMPI PUSH3 0x1B5 PUSH3 0xF5 JUMP JUMPDEST JUMPDEST PUSH1 0x0 PUSH3 0x1C6 DUP7 DUP3 DUP8 ADD PUSH3 0x11E JUMP JUMPDEST SWAP4 POP POP PUSH1 0x20 PUSH3 0x1D9 DUP7 DUP3 DUP8 ADD PUSH3 0x183 JUMP JUMPDEST SWAP3 POP POP PUSH1 0x40 PUSH3 0x1EC DUP7 DUP3 DUP8 ADD PUSH3 0x11E JUMP JUMPDEST SWAP2 POP POP SWAP3 POP SWAP3 POP SWAP3 JUMP JUMPDEST PUSH32 0x4E487B7100000000000000000000000000000000000000000000000000000000 PUSH1 0x0 MSTORE PUSH1 0x11 PUSH1 0x4 MSTORE PUSH1 0x24 PUSH1 0x0 REVERT JUMPDEST PUSH1 0x0 PUSH3 0x232 DUP3 PUSH3 0xFA JUMP JUMPDEST SWAP2 POP PUSH3 0x23F DUP4 PUSH3 0xFA JUMP JUMPDEST SWAP3 POP DUP3 DUP3 MUL PUSH3 0x24F DUP2 PUSH3 0xFA JUMP JUMPDEST SWAP2 POP DUP3 DUP3 DIV DUP5 EQ DUP4 ISZERO OR PUSH3 0x269 JUMPI PUSH3 0x268 PUSH3 0x1F6 JUMP JUMPDEST JUMPDEST POP SWAP3 SWAP2 POP POP JUMP JUMPDEST PUSH1 0x80 MLOAD PUSH2 0x1843 PUSH3 0x29A PUSH1 0x0 CODECOPY PUSH1 0x0 DUP2 DUP2 PUSH2 0x36E ADD MSTORE DUP2 DUP2 PUSH2 0x608 ADD MSTORE PUSH2 0x718 ADD MSTORE PUSH2 0x1843 PUSH1 0x0 RETURN INVALID PUSH1 0x80 PUSH1 0x40 MSTORE CALLVALUE DUP1 ISZERO PUSH2 0x10 JUMPI PUSH1 0x0 DUP1 REVERT JUMPDEST POP PUSH1 0x4 CALLDATASIZE LT PUSH2 0x93 JUMPI PUSH1 0x0 CALLDATALOAD PUSH1 0xE0 SHR DUP1 PUSH4 0xB5924100 GT PUSH2 0x66 JUMPI DUP1 PUSH4 0xB5924100 EQ PUSH2 0xE6 JUMPI DUP1 PUSH4 0xC2DB2C42 EQ PUSH2 0x102 JUMPI DUP1 PUSH4 0xC54E44EB EQ PUSH2 0x11E JUMPI DUP1 PUSH4 0xD7997F7E EQ PUSH2 0x13C JUMPI DUP1 PUSH4 0xDC55920F EQ PUSH2 0x146 JUMPI PUSH2 0x93 JUMP JUMPDEST DUP1 PUSH4 0x76D812EA EQ PUSH2 0x98 JUMPI DUP1 PUSH4 0x7FF9B596 EQ PUSH2 0xA2 JUMPI DUP1 PUSH4 0x890E63E7 EQ PUSH2 0xC0 JUMPI DUP1 PUSH4 0xB392972D EQ PUSH2 0xDC JUMPI JUMPDEST PUSH1 0x0 DUP1 REVERT JUMPDEST PUSH2 0xA0 PUSH2 0x150 JUMP JUMPDEST STOP JUMPDEST PUSH2 0xAA PUSH2 0x1FC JUMP JUMPDEST PUSH1 0x40 MLOAD PUSH2 0xB7 SWAP2 SWAP1 PUSH2 0xDE1 JUMP JUMPDEST PUSH1 0x40 MLOAD DUP1 SWAP2 SUB SWAP1 RETURN JUMPDEST PUSH2 0xDA PUSH1 0x4 DUP1 CALLDATASIZE SUB DUP2 ADD SWAP1 PUSH2 0xD5 SWAP2 SWAP1 PUSH2 0xE2D JUMP JUMPDEST PUSH2 0x202 JUMP JUMPDEST STOP JUMPDEST PUSH2 0xE4 PUSH2 0x2CD JUMP JUMPDEST STOP JUMPDEST PUSH2 0x100 PUSH1 0x4 DUP1 CALLDATASIZE SUB DUP2 ADD SWAP1 PUSH2 0xFB SWAP2 SWAP1 PUSH2 0xECB JUMP JUMPDEST PUSH2 0x410 JUMP JUMPDEST STOP JUMPDEST PUSH2 0x11C PUSH1 0x4 DUP1 CALLDATASIZE SUB DUP2 ADD SWAP1 PUSH2 0x117 SWAP2 SWAP1 PUSH2 0xF0B JUMP JUMPDEST PUSH2 0x507 JUMP JUMPDEST STOP JUMPDEST PUSH2 0x126 PUSH2 0x716 JUMP JUMPDEST PUSH1 0x40 MLOAD PUSH2 0x133 SWAP2 SWAP1 PUSH2 0xF47 JUMP JUMPDEST PUSH1 0x40 MLOAD DUP1 SWAP2 SUB SWAP1 RETURN JUMPDEST PUSH2 0x144 PUSH2 0x73A JUMP JUMPDEST STOP JUMPDEST PUSH2 0x14E PUSH2 0x9FB JUMP JUMPDEST STOP JUMPDEST PUSH1 0x3 PUSH1 0x0 SWAP1 SLOAD SWAP1 PUSH2 0x100 EXP SWAP1 DIV PUSH20 0xFFFFFFFFFFFFFFFFFFFFFFFFFFFFFFFFFFFFFFFF AND PUSH20 0xFFFFFFFFFFFFFFFFFFFFFFFFFFFFFFFFFFFFFFFF AND CALLER PUSH20 0xFFFFFFFFFFFFFFFFFFFFFFFFFFFFFFFFFFFFFFFF AND EQ PUSH2 0x1AA JUMPI PUSH1 0x0 DUP1 REVERT JUMPDEST PUSH1 0x0 PUSH1 0x3 PUSH1 0x14 PUSH2 0x100 EXP DUP2 SLOAD DUP2 PUSH1 0xFF MUL NOT AND SWAP1 DUP4 ISZERO ISZERO MUL OR SWAP1 SSTORE POP PUSH32 0x71002079AB3DE7FEB03EE30C84BAF1D2350D4FFE16709D3DACB5E1037A0FE1CC PUSH1 0x40 MLOAD PUSH2 0x1F2 SWAP1 PUSH2 0xFBF JUMP JUMPDEST PUSH1 0x40 MLOAD DUP1 SWAP2 SUB SWAP1 LOG1 JUMP JUMPDEST PUSH1 0x2 SLOAD DUP2 JUMP JUMPDEST PUSH1 0x3 PUSH1 0x0 SWAP1 SLOAD SWAP1 PUSH2 0x100 EXP SWAP1 DIV PUSH20 0xFFFFFFFFFFFFFFFFFFFFFFFFFFFFFFFFFFFFFFFF AND PUSH20 0xFFFFFFFFFFFFFFFFFFFFFFFFFFFFFFFFFFFFFFFF AND CALLER PUSH20 0xFFFFFFFFFFFFFFFFFFFFFFFFFFFFFFFFFFFFFFFF AND EQ PUSH2 0x25C JUMPI PUSH1 0x0 DUP1 REVERT JUMPDEST PUSH8 0xDE0B6B3A7640000 DUP3 PUSH2 0x270 SWAP2 SWAP1 PUSH2 0x100E JUMP JUMPDEST PUSH1 0x2 DUP2 SWAP1 SSTORE POP PUSH8 0xDE0B6B3A7640000 DUP2 PUSH2 0x28A SWAP2 SWAP1 PUSH2 0x100E JUMP JUMPDEST PUSH1 0x4 DUP2 SWAP1 SSTORE POP PUSH32 0x314BF1CCC32C608A6175053B0DA1933B3A745B3F799011003A4C39AAB0C518A3 DUP3 DUP3 PUSH1 0x40 MLOAD PUSH2 0x2C1 SWAP3 SWAP2 SWAP1 PUSH2 0x1050 JUMP JUMPDEST PUSH1 0x40 MLOAD DUP1 SWAP2 SUB SWAP1 LOG1 POP POP JUMP JUMPDEST PUSH1 0x3 PUSH1 0x0 SWAP1 SLOAD SWAP1 PUSH2 0x100 EXP SWAP1 DIV PUSH20 0xFFFFFFFFFFFFFFFFFFFFFFFFFFFFFFFFFFFFFFFF AND PUSH20 0xFFFFFFFFFFFFFFFFFFFFFFFFFFFFFFFFFFFFFFFF AND CALLER PUSH20 0xFFFFFFFFFFFFFFFFFFFFFFFFFFFFFFFFFFFFFFFF AND EQ PUSH2 0x35D JUMPI PUSH1 0x40 MLOAD PUSH32 0x8C379A000000000000000000000000000000000000000000000000000000000 DUP2 MSTORE PUSH1 0x4 ADD PUSH2 0x354 SWAP1 PUSH2 0x10C5 JUMP JUMPDEST PUSH1 0x40 MLOAD DUP1 SWAP2 SUB SWAP1 REVERT JUMPDEST PUSH1 0x0 PUSH1 0x5 SLOAD SWAP1 POP PUSH1 0x0 PUSH1 0x5 DUP2 SWAP1 SSTORE POP PUSH32 0x0 PUSH20 0xFFFFFFFFFFFFFFFFFFFFFFFFFFFFFFFFFFFFFFFF AND PUSH4 0x23B872DD ADDRESS CALLER DUP5 PUSH1 0x40 MLOAD DUP5 PUSH4 0xFFFFFFFF AND PUSH1 0xE0 SHL DUP2 MSTORE PUSH1 0x4 ADD PUSH2 0x3C9 SWAP4 SWAP3 SWAP2 SWAP1 PUSH2 0x10E5 JUMP JUMPDEST PUSH1 0x20 PUSH1 0x40 MLOAD DUP1 DUP4 SUB DUP2 PUSH1 0x0 DUP8 GAS CALL ISZERO DUP1 ISZERO PUSH2 0x3E8 JUMPI RETURNDATASIZE PUSH1 0x0 DUP1 RETURNDATACOPY RETURNDATASIZE PUSH1 0x0 REVERT JUMPDEST POP POP POP POP PUSH1 0x40 MLOAD RETURNDATASIZE PUSH1 0x1F NOT PUSH1 0x1F DUP3 ADD AND DUP3 ADD DUP1 PUSH1 0x40 MSTORE POP DUP2 ADD SWAP1 PUSH2 0x40C SWAP2 SWAP1 PUSH2 0x1154 JUMP JUMPDEST POP POP JUMP JUMPDEST PUSH1 0x3 PUSH1 0x0 SWAP1 SLOAD SWAP1 PUSH2 0x100 EXP SWAP1 DIV PUSH20 0xFFFFFFFFFFFFFFFFFFFFFFFFFFFFFFFFFFFFFFFF AND PUSH20 0xFFFFFFFFFFFFFFFFFFFFFFFFFFFFFFFFFFFFFFFF AND CALLER PUSH20 0xFFFFFFFFFFFFFFFFFFFFFFFFFFFFFFFFFFFFFFFF AND EQ PUSH2 0x4A0 JUMPI PUSH1 0x40 MLOAD PUSH32 0x8C379A000000000000000000000000000000000000000000000000000000000 DUP2 MSTORE PUSH1 0x4 ADD PUSH2 0x497 SWAP1 PUSH2 0x11F3 JUMP JUMPDEST PUSH1 0x40 MLOAD DUP1 SWAP2 SUB SWAP1 REVERT JUMPDEST DUP2 PUSH1 0x1 PUSH1 0x0 PUSH2 0x100 EXP DUP2 SLOAD DUP2 PUSH20 0xFFFFFFFFFFFFFFFFFFFFFFFFFFFFFFFFFFFFFFFF MUL NOT AND SWAP1 DUP4 PUSH20 0xFFFFFFFFFFFFFFFFFFFFFFFFFFFFFFFFFFFFFFFF AND MUL OR SWAP1 SSTORE POP DUP1 PUSH1 0x6 DUP2 SWAP1 SSTORE POP PUSH1 0x1 PUSH1 0x3 PUSH1 0x15 PUSH2 0x100 EXP DUP2 SLOAD DUP2 PUSH1 0xFF MUL NOT AND SWAP1 DUP4 ISZERO ISZERO MUL OR SWAP1 SSTORE POP POP POP JUMP JUMPDEST PUSH1 0x2 PUSH1 0x0 SLOAD SUB PUSH2 0x54C JUMPI PUSH1 0x40 MLOAD PUSH32 0x8C379A000000000000000000000000000000000000000000000000000000000 DUP2 MSTORE PUSH1 0x4 ADD PUSH2 0x543 SWAP1 PUSH2 0x125F JUMP JUMPDEST PUSH1 0x40 MLOAD DUP1 SWAP2 SUB SWAP1 REVERT JUMPDEST PUSH1 0x2 PUSH1 0x0 DUP2 SWAP1 SSTORE POP PUSH1 0x1 ISZERO ISZERO PUSH1 0x3 PUSH1 0x14 SWAP1 SLOAD SWAP1 PUSH2 0x100 EXP SWAP1 DIV PUSH1 0xFF AND ISZERO ISZERO EQ PUSH2 0x5AA JUMPI PUSH1 0x40 MLOAD PUSH32 0x8C379A000000000000000000000000000000000000000000000000000000000 DUP2 MSTORE PUSH1 0x4 ADD PUSH2 0x5A1 SWAP1 PUSH2 0x12CB JUMP JUMPDEST PUSH1 0x40 MLOAD DUP1 SWAP2 SUB SWAP1 REVERT JUMPDEST PUSH1 0x0 DUP2 PUSH1 0x5 SLOAD PUSH2 0x5BA SWAP2 SWAP1 PUSH2 0x12EB JUMP JUMPDEST SWAP1 POP PUSH1 0x4 SLOAD DUP2 LT PUSH2 0x600 JUMPI PUSH1 0x40 MLOAD PUSH32 0x8C379A000000000000000000000000000000000000000000000000000000000 DUP2 MSTORE PUSH1 0x4 ADD PUSH2 0x5F7 SWAP1 PUSH2 0x136B JUMP JUMPDEST PUSH1 0x40 MLOAD DUP1 SWAP2 SUB SWAP1 REVERT JUMPDEST PUSH2 0x64D CALLER ADDRESS DUP5 PUSH32 0x0 PUSH20 0xFFFFFFFFFFFFFFFFFFFFFFFFFFFFFFFFFFFFFFFF AND PUSH2 0xAC2 SWAP1 SWAP4 SWAP3 SWAP2 SWAP1 PUSH4 0xFFFFFFFF AND JUMP JUMPDEST DUP2 PUSH1 0x7 PUSH1 0x0 CALLER PUSH20 0xFFFFFFFFFFFFFFFFFFFFFFFFFFFFFFFFFFFFFFFF AND PUSH20 0xFFFFFFFFFFFFFFFFFFFFFFFFFFFFFFFFFFFFFFFF AND DUP2 MSTORE PUSH1 0x20 ADD SWAP1 DUP2 MSTORE PUSH1 0x20 ADD PUSH1 0x0 KECCAK256 PUSH1 0x0 DUP3 DUP3 SLOAD PUSH2 0x69C SWAP2 SWAP1 PUSH2 0x12EB JUMP JUMPDEST SWAP3 POP POP DUP2 SWAP1 SSTORE POP DUP2 PUSH1 0x5 PUSH1 0x0 DUP3 DUP3 SLOAD PUSH2 0x6B5 SWAP2 SWAP1 PUSH2 0x12EB JUMP JUMPDEST SWAP3 POP POP DUP2 SWAP1 SSTORE POP CALLER PUSH20 0xFFFFFFFFFFFFFFFFFFFFFFFFFFFFFFFFFFFFFFFF AND PUSH32 0xDA4CADF0D4383CB43C8249E3CC678F6690BDBAA01421C99FD9B14EDAC62CDE80 DUP4 PUSH1 0x40 MLOAD PUSH2 0x702 SWAP2 SWAP1 PUSH2 0xDE1 JUMP JUMPDEST PUSH1 0x40 MLOAD DUP1 SWAP2 SUB SWAP1 LOG2 POP PUSH1 0x1 PUSH1 0x0 DUP2 SWAP1 SSTORE POP POP JUMP JUMPDEST PUSH32 0x0 DUP2 JUMP JUMPDEST PUSH1 0x2 PUSH1 0x0 SLOAD SUB PUSH2 0x77F JUMPI PUSH1 0x40 MLOAD PUSH32 0x8C379A000000000000000000000000000000000000000000000000000000000 DUP2 MSTORE PUSH1 0x4 ADD PUSH2 0x776 SWAP1 PUSH2 0x125F JUMP JUMPDEST PUSH1 0x40 MLOAD DUP1 SWAP2 SUB SWAP1 REVERT JUMPDEST PUSH1 0x2 PUSH1 0x0 DUP2 SWAP1 SSTORE POP PUSH1 0x0 ISZERO ISZERO PUSH1 0x3 PUSH1 0x14 SWAP1 SLOAD SWAP1 PUSH2 0x100 EXP SWAP1 DIV PUSH1 0xFF AND ISZERO ISZERO EQ PUSH2 0x7DD JUMPI PUSH1 0x40 MLOAD PUSH32 0x8C379A000000000000000000000000000000000000000000000000000000000 DUP2 MSTORE PUSH1 0x4 ADD PUSH2 0x7D4 SWAP1 PUSH2 0x13FD JUMP JUMPDEST PUSH1 0x40 MLOAD DUP1 SWAP2 SUB SWAP1 REVERT JUMPDEST PUSH1 0x0 PUSH1 0x7 PUSH1 0x0 CALLER PUSH20 0xFFFFFFFFFFFFFFFFFFFFFFFFFFFFFFFFFFFFFFFF AND PUSH20 0xFFFFFFFFFFFFFFFFFFFFFFFFFFFFFFFFFFFFFFFF AND DUP2 MSTORE PUSH1 0x20 ADD SWAP1 DUP2 MSTORE PUSH1 0x20 ADD PUSH1 0x0 KECCAK256 SLOAD GT PUSH2 0x85F JUMPI PUSH1 0x40 MLOAD PUSH32 0x8C379A000000000000000000000000000000000000000000000000000000000 DUP2 MSTORE PUSH1 0x4 ADD PUSH2 0x856 SWAP1 PUSH2 0x1469 JUMP JUMPDEST PUSH1 0x40 MLOAD DUP1 SWAP2 SUB SWAP1 REVERT JUMPDEST PUSH1 0x0 PUSH1 0x7 PUSH1 0x0 CALLER PUSH20 0xFFFFFFFFFFFFFFFFFFFFFFFFFFFFFFFFFFFFFFFF AND PUSH20 0xFFFFFFFFFFFFFFFFFFFFFFFFFFFFFFFFFFFFFFFF AND DUP2 MSTORE PUSH1 0x20 ADD SWAP1 DUP2 MSTORE PUSH1 0x20 ADD PUSH1 0x0 KECCAK256 SLOAD SWAP1 POP PUSH1 0x0 PUSH1 0x2 SLOAD DUP3 PUSH2 0x8B3 SWAP2 SWAP1 PUSH2 0x14B8 JUMP JUMPDEST SWAP1 POP PUSH1 0x0 PUSH8 0xDE0B6B3A7640000 DUP3 PUSH2 0x8CB SWAP2 SWAP1 PUSH2 0x100E JUMP JUMPDEST SWAP1 POP PUSH1 0x0 PUSH1 0x7 PUSH1 0x0 CALLER PUSH20 0xFFFFFFFFFFFFFFFFFFFFFFFFFFFFFFFFFFFFFFFF AND PUSH20 0xFFFFFFFFFFFFFFFFFFFFFFFFFFFFFFFFFFFFFFFF AND DUP2 MSTORE PUSH1 0x20 ADD SWAP1 DUP2 MSTORE PUSH1 0x20 ADD PUSH1 0x0 KECCAK256 DUP2 SWAP1 SSTORE POP PUSH1 0x1 PUSH1 0x0 SWAP1 SLOAD SWAP1 PUSH2 0x100 EXP SWAP1 DIV PUSH20 0xFFFFFFFFFFFFFFFFFFFFFFFFFFFFFFFFFFFFFFFF AND PUSH20 0xFFFFFFFFFFFFFFFFFFFFFFFFFFFFFFFFFFFFFFFF AND PUSH4 0x23B872DD ADDRESS CALLER DUP5 PUSH1 0x40 MLOAD DUP5 PUSH4 0xFFFFFFFF AND PUSH1 0xE0 SHL DUP2 MSTORE PUSH1 0x4 ADD PUSH2 0x971 SWAP4 SWAP3 SWAP2 SWAP1 PUSH2 0x10E5 JUMP JUMPDEST PUSH1 0x20 PUSH1 0x40 MLOAD DUP1 DUP4 SUB DUP2 PUSH1 0x0 DUP8 GAS CALL ISZERO DUP1 ISZERO PUSH2 0x990 JUMPI RETURNDATASIZE PUSH1 0x0 DUP1 RETURNDATACOPY RETURNDATASIZE PUSH1 0x0 REVERT JUMPDEST POP POP POP POP PUSH1 0x40 MLOAD RETURNDATASIZE PUSH1 0x1F NOT PUSH1 0x1F DUP3 ADD AND DUP3 ADD DUP1 PUSH1 0x40 MSTORE POP DUP2 ADD SWAP1 PUSH2 0x9B4 SWAP2 SWAP1 PUSH2 0x1154 JUMP JUMPDEST POP PUSH32 0x1698755F2F63264C31CA84D930DF9DD8CA3AC92D33A0DD64D10154F95E4203EF CALLER DUP4 PUSH1 0x40 MLOAD PUSH2 0x9E6 SWAP3 SWAP2 SWAP1 PUSH2 0x14E9 JUMP JUMPDEST PUSH1 0x40 MLOAD DUP1 SWAP2 SUB SWAP1 LOG1 POP POP POP PUSH1 0x1 PUSH1 0x0 DUP2 SWAP1 SSTORE POP JUMP JUMPDEST PUSH1 0x3 PUSH1 0x0 SWAP1 SLOAD SWAP1 PUSH2 0x100 EXP SWAP1 DIV PUSH20 0xFFFFFFFFFFFFFFFFFFFFFFFFFFFFFFFFFFFFFFFF AND PUSH20 0xFFFFFFFFFFFFFFFFFFFFFFFFFFFFFFFFFFFFFFFF AND CALLER PUSH20 0xFFFFFFFFFFFFFFFFFFFFFFFFFFFFFFFFFFFFFFFF AND EQ PUSH2 0xA55 JUMPI PUSH1 0x0 DUP1 REVERT JUMPDEST PUSH1 0x1 PUSH1 0x3 PUSH1 0x14 PUSH2 0x100 EXP DUP2 SLOAD DUP2 PUSH1 0xFF MUL NOT AND SWAP1 DUP4 ISZERO ISZERO MUL OR SWAP1 SSTORE POP PUSH1 0x0 PUSH1 0x3 PUSH1 0x15 PUSH2 0x100 EXP DUP2 SLOAD DUP2 PUSH1 0xFF MUL NOT AND SWAP1 DUP4 ISZERO ISZERO MUL OR SWAP1 SSTORE POP PUSH32 0x71002079AB3DE7FEB03EE30C84BAF1D2350D4FFE16709D3DACB5E1037A0FE1CC PUSH1 0x40 MLOAD PUSH2 0xAB8 SWAP1 PUSH2 0x155E JUMP JUMPDEST PUSH1 0x40 MLOAD DUP1 SWAP2 SUB SWAP1 LOG1 JUMP JUMPDEST PUSH2 0xB45 DUP5 PUSH4 0x23B872DD PUSH1 0xE0 SHL DUP6 DUP6 DUP6 PUSH1 0x40 MLOAD PUSH1 0x24 ADD PUSH2 0xAE3 SWAP4 SWAP3 SWAP2 SWAP1 PUSH2 0x10E5 JUMP JUMPDEST PUSH1 0x40 MLOAD PUSH1 0x20 DUP2 DUP4 SUB SUB DUP2 MSTORE SWAP1 PUSH1 0x40 MSTORE SWAP1 PUSH28 0xFFFFFFFFFFFFFFFFFFFFFFFFFFFFFFFFFFFFFFFFFFFFFFFFFFFFFFFF NOT AND PUSH1 0x20 DUP3 ADD DUP1 MLOAD PUSH28 0xFFFFFFFFFFFFFFFFFFFFFFFFFFFFFFFFFFFFFFFFFFFFFFFFFFFFFFFF DUP4 DUP2 DUP4 AND OR DUP4 MSTORE POP POP POP POP PUSH2 0xB4B JUMP JUMPDEST POP POP POP POP JUMP JUMPDEST PUSH1 0x0 PUSH2 0xBAD DUP3 PUSH1 0x40 MLOAD DUP1 PUSH1 0x40 ADD PUSH1 0x40 MSTORE DUP1 PUSH1 0x20 DUP2 MSTORE PUSH1 0x20 ADD PUSH32 0x5361666545524332303A206C6F772D6C6576656C2063616C6C206661696C6564 DUP2 MSTORE POP DUP6 PUSH20 0xFFFFFFFFFFFFFFFFFFFFFFFFFFFFFFFFFFFFFFFF AND PUSH2 0xC12 SWAP1 SWAP3 SWAP2 SWAP1 PUSH4 0xFFFFFFFF AND JUMP JUMPDEST SWAP1 POP PUSH1 0x0 DUP2 MLOAD GT ISZERO PUSH2 0xC0D JUMPI DUP1 DUP1 PUSH1 0x20 ADD SWAP1 MLOAD DUP2 ADD SWAP1 PUSH2 0xBCD SWAP2 SWAP1 PUSH2 0x1154 JUMP JUMPDEST PUSH2 0xC0C JUMPI PUSH1 0x40 MLOAD PUSH32 0x8C379A000000000000000000000000000000000000000000000000000000000 DUP2 MSTORE PUSH1 0x4 ADD PUSH2 0xC03 SWAP1 PUSH2 0x15F0 JUMP JUMPDEST PUSH1 0x40 MLOAD DUP1 SWAP2 SUB SWAP1 REVERT JUMPDEST JUMPDEST POP POP POP JUMP JUMPDEST PUSH1 0x60 PUSH2 0xC21 DUP5 DUP5 PUSH1 0x0 DUP6 PUSH2 0xC2A JUMP JUMPDEST SWAP1 POP SWAP4 SWAP3 POP POP POP JUMP JUMPDEST PUSH1 0x60 DUP3 SELFBALANCE LT ISZERO PUSH2 0xC6F JUMPI PUSH1 0x40 MLOAD PUSH32 0x8C379A000000000000000000000000000000000000000000000000000000000 DUP2 MSTORE PUSH1 0x4 ADD PUSH2 0xC66 SWAP1 PUSH2 0x1682 JUMP JUMPDEST PUSH1 0x40 MLOAD DUP1 SWAP2 SUB SWAP1 REVERT JUMPDEST PUSH2 0xC78 DUP6 PUSH2 0xD3E JUMP JUMPDEST PUSH2 0xCB7 JUMPI PUSH1 0x40 MLOAD PUSH32 0x8C379A000000000000000000000000000000000000000000000000000000000 DUP2 MSTORE PUSH1 0x4 ADD PUSH2 0xCAE SWAP1 PUSH2 0x16EE JUMP JUMPDEST PUSH1 0x40 MLOAD DUP1 SWAP2 SUB SWAP1 REVERT JUMPDEST PUSH1 0x0 DUP1 DUP7 PUSH20 0xFFFFFFFFFFFFFFFFFFFFFFFFFFFFFFFFFFFFFFFF AND DUP6 DUP8 PUSH1 0x40 MLOAD PUSH2 0xCE0 SWAP2 SWAP1 PUSH2 0x177F JUMP JUMPDEST PUSH1 0x0 PUSH1 0x40 MLOAD DUP1 DUP4 SUB DUP2 DUP6 DUP8 GAS CALL SWAP3 POP POP POP RETURNDATASIZE DUP1 PUSH1 0x0 DUP2 EQ PUSH2 0xD1D JUMPI PUSH1 0x40 MLOAD SWAP2 POP PUSH1 0x1F NOT PUSH1 0x3F RETURNDATASIZE ADD AND DUP3 ADD PUSH1 0x40 MSTORE RETURNDATASIZE DUP3 MSTORE RETURNDATASIZE PUSH1 0x0 PUSH1 0x20 DUP5 ADD RETURNDATACOPY PUSH2 0xD22 JUMP JUMPDEST PUSH1 0x60 SWAP2 POP JUMPDEST POP SWAP2 POP SWAP2 POP PUSH2 0xD32 DUP3 DUP3 DUP7 PUSH2 0xD61 JUMP JUMPDEST SWAP3 POP POP POP SWAP5 SWAP4 POP POP POP POP JUMP JUMPDEST PUSH1 0x0 DUP1 DUP3 PUSH20 0xFFFFFFFFFFFFFFFFFFFFFFFFFFFFFFFFFFFFFFFF AND EXTCODESIZE GT SWAP1 POP SWAP2 SWAP1 POP JUMP JUMPDEST PUSH1 0x60 DUP4 ISZERO PUSH2 0xD71 JUMPI DUP3 SWAP1 POP PUSH2 0xDC1 JUMP JUMPDEST PUSH1 0x0 DUP4 MLOAD GT ISZERO PUSH2 0xD84 JUMPI DUP3 MLOAD DUP1 DUP5 PUSH1 0x20 ADD REVERT JUMPDEST DUP2 PUSH1 0x40 MLOAD PUSH32 0x8C379A000000000000000000000000000000000000000000000000000000000 DUP2 MSTORE PUSH1 0x4 ADD PUSH2 0xDB8 SWAP2 SWAP1 PUSH2 0x17EB JUMP JUMPDEST PUSH1 0x40 MLOAD DUP1 SWAP2 SUB SWAP1 REVERT JUMPDEST SWAP4 SWAP3 POP POP POP JUMP JUMPDEST PUSH1 0x0 DUP2 SWAP1 POP SWAP2 SWAP1 POP JUMP JUMPDEST PUSH2 0xDDB DUP2 PUSH2 0xDC8 JUMP JUMPDEST DUP3 MSTORE POP POP JUMP JUMPDEST PUSH1 0x0 PUSH1 0x20 DUP3 ADD SWAP1 POP PUSH2 0xDF6 PUSH1 0x0 DUP4 ADD DUP5 PUSH2 0xDD2 JUMP JUMPDEST SWAP3 SWAP2 POP POP JUMP JUMPDEST PUSH1 0x0 DUP1 REVERT JUMPDEST PUSH2 0xE0A DUP2 PUSH2 0xDC8 JUMP JUMPDEST DUP2 EQ PUSH2 0xE15 JUMPI PUSH1 0x0 DUP1 REVERT JUMPDEST POP JUMP JUMPDEST PUSH1 0x0 DUP2 CALLDATALOAD SWAP1 POP PUSH2 0xE27 DUP2 PUSH2 0xE01 JUMP JUMPDEST SWAP3 SWAP2 POP POP JUMP JUMPDEST PUSH1 0x0 DUP1 PUSH1 0x40 DUP4 DUP6 SUB SLT ISZERO PUSH2 0xE44 JUMPI PUSH2 0xE43 PUSH2 0xDFC JUMP JUMPDEST JUMPDEST PUSH1 0x0 PUSH2 0xE52 DUP6 DUP3 DUP7 ADD PUSH2 0xE18 JUMP JUMPDEST SWAP3 POP POP PUSH1 0x20 PUSH2 0xE63 DUP6 DUP3 DUP7 ADD PUSH2 0xE18 JUMP JUMPDEST SWAP2 POP POP SWAP3 POP SWAP3 SWAP1 POP JUMP JUMPDEST PUSH1 0x0 PUSH20 0xFFFFFFFFFFFFFFFFFFFFFFFFFFFFFFFFFFFFFFFF DUP3 AND SWAP1 POP SWAP2 SWAP1 POP JUMP JUMPDEST PUSH1 0x0 PUSH2 0xE98 DUP3 PUSH2 0xE6D JUMP JUMPDEST SWAP1 POP SWAP2 SWAP1 POP JUMP JUMPDEST PUSH2 0xEA8 DUP2 PUSH2 0xE8D JUMP JUMPDEST DUP2 EQ PUSH2 0xEB3 JUMPI PUSH1 0x0 DUP1 REVERT JUMPDEST POP JUMP JUMPDEST PUSH1 0x0 DUP2 CALLDATALOAD SWAP1 POP PUSH2 0xEC5 DUP2 PUSH2 0xE9F JUMP JUMPDEST SWAP3 SWAP2 POP POP JUMP JUMPDEST PUSH1 0x0 DUP1 PUSH1 0x40 DUP4 DUP6 SUB SLT ISZERO PUSH2 0xEE2 JUMPI PUSH2 0xEE1 PUSH2 0xDFC JUMP JUMPDEST JUMPDEST PUSH1 0x0 PUSH2 0xEF0 DUP6 DUP3 DUP7 ADD PUSH2 0xEB6 JUMP JUMPDEST SWAP3 POP POP PUSH1 0x20 PUSH2 0xF01 DUP6 DUP3 DUP7 ADD PUSH2 0xE18 JUMP JUMPDEST SWAP2 POP POP SWAP3 POP SWAP3 SWAP1 POP JUMP JUMPDEST PUSH1 0x0 PUSH1 0x20 DUP3 DUP5 SUB SLT ISZERO PUSH2 0xF21 JUMPI PUSH2 0xF20 PUSH2 0xDFC JUMP JUMPDEST JUMPDEST PUSH1 0x0 PUSH2 0xF2F DUP5 DUP3 DUP6 ADD PUSH2 0xE18 JUMP JUMPDEST SWAP2 POP POP SWAP3 SWAP2 POP POP JUMP JUMPDEST PUSH2 0xF41 DUP2 PUSH2 0xE8D JUMP JUMPDEST DUP3 MSTORE POP POP JUMP JUMPDEST PUSH1 0x0 PUSH1 0x20 DUP3 ADD SWAP1 POP PUSH2 0xF5C PUSH1 0x0 DUP4 ADD DUP5 PUSH2 0xF38 JUMP JUMPDEST SWAP3 SWAP2 POP POP JUMP JUMPDEST PUSH1 0x0 DUP3 DUP3 MSTORE PUSH1 0x20 DUP3 ADD SWAP1 POP SWAP3 SWAP2 POP POP JUMP JUMPDEST PUSH32 0x49434F2069732070617573656400000000000000000000000000000000000000 PUSH1 0x0 DUP3 ADD MSTORE POP JUMP JUMPDEST PUSH1 0x0 PUSH2 0xFA9 PUSH1 0xD DUP4 PUSH2 0xF62 JUMP JUMPDEST SWAP2 POP PUSH2 0xFB4 DUP3 PUSH2 0xF73 JUMP JUMPDEST PUSH1 0x20 DUP3 ADD SWAP1 POP SWAP2 SWAP1 POP JUMP JUMPDEST PUSH1 0x0 PUSH1 0x20 DUP3 ADD SWAP1 POP DUP2 DUP2 SUB PUSH1 0x0 DUP4 ADD MSTORE PUSH2 0xFD8 DUP2 PUSH2 0xF9C JUMP JUMPDEST SWAP1 POP SWAP2 SWAP1 POP JUMP JUMPDEST PUSH32 0x4E487B7100000000000000000000000000000000000000000000000000000000 PUSH1 0x0 MSTORE PUSH1 0x11 PUSH1 0x4 MSTORE PUSH1 0x24 PUSH1 0x0 REVERT JUMPDEST PUSH1 0x0 PUSH2 0x1019 DUP3 PUSH2 0xDC8 JUMP JUMPDEST SWAP2 POP PUSH2 0x1024 DUP4 PUSH2 0xDC8 JUMP JUMPDEST SWAP3 POP DUP3 DUP3 MUL PUSH2 0x1032 DUP2 PUSH2 0xDC8 JUMP JUMPDEST SWAP2 POP DUP3 DUP3 DIV DUP5 EQ DUP4 ISZERO OR PUSH2 0x1049 JUMPI PUSH2 0x1048 PUSH2 0xFDF JUMP JUMPDEST JUMPDEST POP SWAP3 SWAP2 POP POP JUMP JUMPDEST PUSH1 0x0 PUSH1 0x40 DUP3 ADD SWAP1 POP PUSH2 0x1065 PUSH1 0x0 DUP4 ADD DUP6 PUSH2 0xDD2 JUMP JUMPDEST PUSH2 0x1072 PUSH1 0x20 DUP4 ADD DUP5 PUSH2 0xDD2 JUMP JUMPDEST SWAP4 SWAP3 POP POP POP JUMP JUMPDEST PUSH32 0x4F6E6C79206F776E65722063616E20636C61696D000000000000000000000000 PUSH1 0x0 DUP3 ADD MSTORE POP JUMP JUMPDEST PUSH1 0x0 PUSH2 0x10AF PUSH1 0x14 DUP4 PUSH2 0xF62 JUMP JUMPDEST SWAP2 POP PUSH2 0x10BA DUP3 PUSH2 0x1079 JUMP JUMPDEST PUSH1 0x20 DUP3 ADD SWAP1 POP SWAP2 SWAP1 POP JUMP JUMPDEST PUSH1 0x0 PUSH1 0x20 DUP3 ADD SWAP1 POP DUP2 DUP2 SUB PUSH1 0x0 DUP4 ADD MSTORE PUSH2 0x10DE DUP2 PUSH2 0x10A2 JUMP JUMPDEST SWAP1 POP SWAP2 SWAP1 POP JUMP JUMPDEST PUSH1 0x0 PUSH1 0x60 DUP3 ADD SWAP1 POP PUSH2 0x10FA PUSH1 0x0 DUP4 ADD DUP7 PUSH2 0xF38 JUMP JUMPDEST PUSH2 0x1107 PUSH1 0x20 DUP4 ADD DUP6 PUSH2 0xF38 JUMP JUMPDEST PUSH2 0x1114 PUSH1 0x40 DUP4 ADD DUP5 PUSH2 0xDD2 JUMP JUMPDEST SWAP5 SWAP4 POP POP POP POP JUMP JUMPDEST PUSH1 0x0 DUP2 ISZERO ISZERO SWAP1 POP SWAP2 SWAP1 POP JUMP JUMPDEST PUSH2 0x1131 DUP2 PUSH2 0x111C JUMP JUMPDEST DUP2 EQ PUSH2 0x113C JUMPI PUSH1 0x0 DUP1 REVERT JUMPDEST POP JUMP JUMPDEST PUSH1 0x0 DUP2 MLOAD SWAP1 POP PUSH2 0x114E DUP2 PUSH2 0x1128 JUMP JUMPDEST SWAP3 SWAP2 POP POP JUMP JUMPDEST PUSH1 0x0 PUSH1 0x20 DUP3 DUP5 SUB SLT ISZERO PUSH2 0x116A JUMPI PUSH2 0x1169 PUSH2 0xDFC JUMP JUMPDEST JUMPDEST PUSH1 0x0 PUSH2 0x1178 DUP5 DUP3 DUP6 ADD PUSH2 0x113F JUMP JUMPDEST SWAP2 POP POP SWAP3 SWAP2 POP POP JUMP JUMPDEST PUSH32 0x4F6E6C79206F776E65722063616E2063616C6C20746869732066756E6374696F PUSH1 0x0 DUP3 ADD MSTORE PUSH32 0x6E00000000000000000000000000000000000000000000000000000000000000 PUSH1 0x20 DUP3 ADD MSTORE POP JUMP JUMPDEST PUSH1 0x0 PUSH2 0x11DD PUSH1 0x21 DUP4 PUSH2 0xF62 JUMP JUMPDEST SWAP2 POP PUSH2 0x11E8 DUP3 PUSH2 0x1181 JUMP JUMPDEST PUSH1 0x40 DUP3 ADD SWAP1 POP SWAP2 SWAP1 POP JUMP JUMPDEST PUSH1 0x0 PUSH1 0x20 DUP3 ADD SWAP1 POP DUP2 DUP2 SUB PUSH1 0x0 DUP4 ADD MSTORE PUSH2 0x120C DUP2 PUSH2 0x11D0 JUMP JUMPDEST SWAP1 POP SWAP2 SWAP1 POP JUMP JUMPDEST PUSH32 0x5265656E7472616E637947756172643A207265656E7472616E742063616C6C00 PUSH1 0x0 DUP3 ADD MSTORE POP JUMP JUMPDEST PUSH1 0x0 PUSH2 0x1249 PUSH1 0x1F DUP4 PUSH2 0xF62 JUMP JUMPDEST SWAP2 POP PUSH2 0x1254 DUP3 PUSH2 0x1213 JUMP JUMPDEST PUSH1 0x20 DUP3 ADD SWAP1 POP SWAP2 SWAP1 POP JUMP JUMPDEST PUSH1 0x0 PUSH1 0x20 DUP3 ADD SWAP1 POP DUP2 DUP2 SUB PUSH1 0x0 DUP4 ADD MSTORE PUSH2 0x1278 DUP2 PUSH2 0x123C JUMP JUMPDEST SWAP1 POP SWAP2 SWAP1 POP JUMP JUMPDEST PUSH32 0x49444F20686173206E6F74207374617274656400000000000000000000000000 PUSH1 0x0 DUP3 ADD MSTORE POP JUMP JUMPDEST PUSH1 0x0 PUSH2 0x12B5 PUSH1 0x13 DUP4 PUSH2 0xF62 JUMP JUMPDEST SWAP2 POP PUSH2 0x12C0 DUP3 PUSH2 0x127F JUMP JUMPDEST PUSH1 0x20 DUP3 ADD SWAP1 POP SWAP2 SWAP1 POP JUMP JUMPDEST PUSH1 0x0 PUSH1 0x20 DUP3 ADD SWAP1 POP DUP2 DUP2 SUB PUSH1 0x0 DUP4 ADD MSTORE PUSH2 0x12E4 DUP2 PUSH2 0x12A8 JUMP JUMPDEST SWAP1 POP SWAP2 SWAP1 POP JUMP JUMPDEST PUSH1 0x0 PUSH2 0x12F6 DUP3 PUSH2 0xDC8 JUMP JUMPDEST SWAP2 POP PUSH2 0x1301 DUP4 PUSH2 0xDC8 JUMP JUMPDEST SWAP3 POP DUP3 DUP3 ADD SWAP1 POP DUP1 DUP3 GT ISZERO PUSH2 0x1319 JUMPI PUSH2 0x1318 PUSH2 0xFDF JUMP JUMPDEST JUMPDEST SWAP3 SWAP2 POP POP JUMP JUMPDEST PUSH32 0x416C6C20746F6B656E7320686173206265656E20736F6C640000000000000000 PUSH1 0x0 DUP3 ADD MSTORE POP JUMP JUMPDEST PUSH1 0x0 PUSH2 0x1355 PUSH1 0x18 DUP4 PUSH2 0xF62 JUMP JUMPDEST SWAP2 POP PUSH2 0x1360 DUP3 PUSH2 0x131F JUMP JUMPDEST PUSH1 0x20 DUP3 ADD SWAP1 POP SWAP2 SWAP1 POP JUMP JUMPDEST PUSH1 0x0 PUSH1 0x20 DUP3 ADD SWAP1 POP DUP2 DUP2 SUB PUSH1 0x0 DUP4 ADD MSTORE PUSH2 0x1384 DUP2 PUSH2 0x1348 JUMP JUMPDEST SWAP1 POP SWAP2 SWAP1 POP JUMP JUMPDEST PUSH32 0x49444F2048617320206E6F7420656E6465642C20636C61696D20756E61766169 PUSH1 0x0 DUP3 ADD MSTORE PUSH32 0x6C61626C65000000000000000000000000000000000000000000000000000000 PUSH1 0x20 DUP3 ADD MSTORE POP JUMP JUMPDEST PUSH1 0x0 PUSH2 0x13E7 PUSH1 0x25 DUP4 PUSH2 0xF62 JUMP JUMPDEST SWAP2 POP PUSH2 0x13F2 DUP3 PUSH2 0x138B JUMP JUMPDEST PUSH1 0x40 DUP3 ADD SWAP1 POP SWAP2 SWAP1 POP JUMP JUMPDEST PUSH1 0x0 PUSH1 0x20 DUP3 ADD SWAP1 POP DUP2 DUP2 SUB PUSH1 0x0 DUP4 ADD MSTORE PUSH2 0x1416 DUP2 PUSH2 0x13DA JUMP JUMPDEST SWAP1 POP SWAP2 SWAP1 POP JUMP JUMPDEST PUSH32 0x796F7520646964206E6F74207061727469636970617465000000000000000000 PUSH1 0x0 DUP3 ADD MSTORE POP JUMP JUMPDEST PUSH1 0x0 PUSH2 0x1453 PUSH1 0x17 DUP4 PUSH2 0xF62 JUMP JUMPDEST SWAP2 POP PUSH2 0x145E DUP3 PUSH2 0x141D JUMP JUMPDEST PUSH1 0x20 DUP3 ADD SWAP1 POP SWAP2 SWAP1 POP JUMP JUMPDEST PUSH1 0x0 PUSH1 0x20 DUP3 ADD SWAP1 POP DUP2 DUP2 SUB PUSH1 0x0 DUP4 ADD MSTORE PUSH2 0x1482 DUP2 PUSH2 0x1446 JUMP JUMPDEST SWAP1 POP SWAP2 SWAP1 POP JUMP JUMPDEST PUSH32 0x4E487B7100000000000000000000000000000000000000000000000000000000 PUSH1 0x0 MSTORE PUSH1 0x12 PUSH1 0x4 MSTORE PUSH1 0x24 PUSH1 0x0 REVERT JUMPDEST PUSH1 0x0 PUSH2 0x14C3 DUP3 PUSH2 0xDC8 JUMP JUMPDEST SWAP2 POP PUSH2 0x14CE DUP4 PUSH2 0xDC8 JUMP JUMPDEST SWAP3 POP DUP3 PUSH2 0x14DE JUMPI PUSH2 0x14DD PUSH2 0x1489 JUMP JUMPDEST JUMPDEST DUP3 DUP3 DIV SWAP1 POP SWAP3 SWAP2 POP POP JUMP JUMPDEST PUSH1 0x0 PUSH1 0x40 DUP3 ADD SWAP1 POP PUSH2 0x14FE PUSH1 0x0 DUP4 ADD DUP6 PUSH2 0xF38 JUMP JUMPDEST PUSH2 0x150B PUSH1 0x20 DUP4 ADD DUP5 PUSH2 0xDD2 JUMP JUMPDEST SWAP4 SWAP3 POP POP POP JUMP JUMPDEST PUSH32 0x49434F206973206F6E0000000000000000000000000000000000000000000000 PUSH1 0x0 DUP3 ADD MSTORE POP JUMP JUMPDEST PUSH1 0x0 PUSH2 0x1548 PUSH1 0x9 DUP4 PUSH2 0xF62 JUMP JUMPDEST SWAP2 POP PUSH2 0x1553 DUP3 PUSH2 0x1512 JUMP JUMPDEST PUSH1 0x20 DUP3 ADD SWAP1 POP SWAP2 SWAP1 POP JUMP JUMPDEST PUSH1 0x0 PUSH1 0x20 DUP3 ADD SWAP1 POP DUP2 DUP2 SUB PUSH1 0x0 DUP4 ADD MSTORE PUSH2 0x1577 DUP2 PUSH2 0x153B JUMP JUMPDEST SWAP1 POP SWAP2 SWAP1 POP JUMP JUMPDEST PUSH32 0x5361666545524332303A204552433230206F7065726174696F6E20646964206E PUSH1 0x0 DUP3 ADD MSTORE PUSH32 0x6F74207375636365656400000000000000000000000000000000000000000000 PUSH1 0x20 DUP3 ADD MSTORE POP JUMP JUMPDEST PUSH1 0x0 PUSH2 0x15DA PUSH1 0x2A DUP4 PUSH2 0xF62 JUMP JUMPDEST SWAP2 POP PUSH2 0x15E5 DUP3 PUSH2 0x157E JUMP JUMPDEST PUSH1 0x40 DUP3 ADD SWAP1 POP SWAP2 SWAP1 POP JUMP JUMPDEST PUSH1 0x0 PUSH1 0x20 DUP3 ADD SWAP1 POP DUP2 DUP2 SUB PUSH1 0x0 DUP4 ADD MSTORE PUSH2 0x1609 DUP2 PUSH2 0x15CD JUMP JUMPDEST SWAP1 POP SWAP2 SWAP1 POP JUMP JUMPDEST PUSH32 0x416464726573733A20696E73756666696369656E742062616C616E636520666F PUSH1 0x0 DUP3 ADD MSTORE PUSH32 0x722063616C6C0000000000000000000000000000000000000000000000000000 PUSH1 0x20 DUP3 ADD MSTORE POP JUMP JUMPDEST PUSH1 0x0 PUSH2 0x166C PUSH1 0x26 DUP4 PUSH2 0xF62 JUMP JUMPDEST SWAP2 POP PUSH2 0x1677 DUP3 PUSH2 0x1610 JUMP JUMPDEST PUSH1 0x40 DUP3 ADD SWAP1 POP SWAP2 SWAP1 POP JUMP JUMPDEST PUSH1 0x0 PUSH1 0x20 DUP3 ADD SWAP1 POP DUP2 DUP2 SUB PUSH1 0x0 DUP4 ADD MSTORE PUSH2 0x169B DUP2 PUSH2 0x165F JUMP JUMPDEST SWAP1 POP SWAP2 SWAP1 POP JUMP JUMPDEST PUSH32 0x416464726573733A2063616C6C20746F206E6F6E2D636F6E7472616374000000 PUSH1 0x0 DUP3 ADD MSTORE POP JUMP JUMPDEST PUSH1 0x0 PUSH2 0x16D8 PUSH1 0x1D DUP4 PUSH2 0xF62 JUMP JUMPDEST SWAP2 POP PUSH2 0x16E3 DUP3 PUSH2 0x16A2 JUMP JUMPDEST PUSH1 0x20 DUP3 ADD SWAP1 POP SWAP2 SWAP1 POP JUMP JUMPDEST PUSH1 0x0 PUSH1 0x20 DUP3 ADD SWAP1 POP DUP2 DUP2 SUB PUSH1 0x0 DUP4 ADD MSTORE PUSH2 0x1707 DUP2 PUSH2 0x16CB JUMP JUMPDEST SWAP1 POP SWAP2 SWAP1 POP JUMP JUMPDEST PUSH1 0x0 DUP2 MLOAD SWAP1 POP SWAP2 SWAP1 POP JUMP JUMPDEST PUSH1 0x0 DUP2 SWAP1 POP SWAP3 SWAP2 POP POP JUMP JUMPDEST PUSH1 0x0 JUMPDEST DUP4 DUP2 LT ISZERO PUSH2 0x1742 JUMPI DUP1 DUP3 ADD MLOAD DUP2 DUP5 ADD MSTORE PUSH1 0x20 DUP2 ADD SWAP1 POP PUSH2 0x1727 JUMP JUMPDEST PUSH1 0x0 DUP5 DUP5 ADD MSTORE POP POP POP POP JUMP JUMPDEST PUSH1 0x0 PUSH2 0x1759 DUP3 PUSH2 0x170E JUMP JUMPDEST PUSH2 0x1763 DUP2 DUP6 PUSH2 0x1719 JUMP JUMPDEST SWAP4 POP PUSH2 0x1773 DUP2 DUP6 PUSH1 0x20 DUP7 ADD PUSH2 0x1724 JUMP JUMPDEST DUP1 DUP5 ADD SWAP2 POP POP SWAP3 SWAP2 POP POP JUMP JUMPDEST PUSH1 0x0 PUSH2 0x178B DUP3 DUP5 PUSH2 0x174E JUMP JUMPDEST SWAP2 POP DUP2 SWAP1 POP SWAP3 SWAP2 POP POP JUMP JUMPDEST PUSH1 0x0 DUP2 MLOAD SWAP1 POP SWAP2 SWAP1 POP JUMP JUMPDEST PUSH1 0x0 PUSH1 0x1F NOT PUSH1 0x1F DUP4 ADD AND SWAP1 POP SWAP2 SWAP1 POP JUMP JUMPDEST PUSH1 0x0 PUSH2 0x17BD DUP3 PUSH2 0x1796 JUMP JUMPDEST PUSH2 0x17C7 DUP2 DUP6 PUSH2 0xF62 JUMP JUMPDEST SWAP4 POP PUSH2 0x17D7 DUP2 DUP6 PUSH1 0x20 DUP7 ADD PUSH2 0x1724 JUMP JUMPDEST PUSH2 0x17E0 DUP2 PUSH2 0x17A1 JUMP JUMPDEST DUP5 ADD SWAP2 POP POP SWAP3 SWAP2 POP POP JUMP JUMPDEST PUSH1 0x0 PUSH1 0x20 DUP3 ADD SWAP1 POP DUP2 DUP2 SUB PUSH1 0x0 DUP4 ADD MSTORE PUSH2 0x1805 DUP2 DUP5 PUSH2 0x17B2 JUMP JUMPDEST SWAP1 POP SWAP3 SWAP2 POP POP JUMP INVALID LOG2 PUSH5 0x6970667358 0x22 SLT KECCAK256 0xDA SWAP4 STOP PUSH29 0xAF0F339EAAD2458A3AE388DD76BD14721D526EDC18730A904B64B09864 PUSH20 0x6F6C634300081100330000000000000000000000 "
				},
				"gasEstimates": {
					"creation": {
						"codeDepositCost": "1242200",
						"executionCost": "infinite",
						"totalCost": "infinite"
					},
					"external": {
						"BeginIDO()": "52838",
						"StopIDO()": "28434",
						"USDT()": "infinite",
						"claimPurchasedToken()": "infinite",
						"claimRaisedFunds()": "infinite",
						"editIDO(uint256,uint256)": "infinite",
						"purchaseToken(uint256)": "infinite",
						"startClaim(address,uint256)": "73496",
						"tokenPrice()": "2452"
					}
				},
				"methodIdentifiers": {
					"BeginIDO()": "dc55920f",
					"StopIDO()": "76d812ea",
					"USDT()": "c54e44eb",
					"claimPurchasedToken()": "d7997f7e",
					"claimRaisedFunds()": "b392972d",
					"editIDO(uint256,uint256)": "890e63e7",
					"purchaseToken(uint256)": "c2db2c42",
					"startClaim(address,uint256)": "b5924100",
					"tokenPrice()": "7ff9b596"
				}
			},
			"storageLayout": {
				"storage": [
					{
						"astId": 10,
						"contract": "contracts/ico.sol:Amestarter",
						"label": "_status",
						"offset": 0,
						"slot": "0",
						"type": "t_uint256"
					},
					{
						"astId": 1471,
						"contract": "contracts/ico.sol:Amestarter",
						"label": "DAZ",
						"offset": 0,
						"slot": "1",
						"type": "t_address"
					},
					{
						"astId": 1473,
						"contract": "contracts/ico.sol:Amestarter",
						"label": "tokenPrice",
						"offset": 0,
						"slot": "2",
						"type": "t_uint256"
					},
					{
						"astId": 1475,
						"contract": "contracts/ico.sol:Amestarter",
						"label": "owner",
						"offset": 0,
						"slot": "3",
						"type": "t_address"
					},
					{
						"astId": 1477,
						"contract": "contracts/ico.sol:Amestarter",
						"label": "IDOStarted",
						"offset": 20,
						"slot": "3",
						"type": "t_bool"
					},
					{
						"astId": 1479,
						"contract": "contracts/ico.sol:Amestarter",
						"label": "claimStarted",
						"offset": 21,
						"slot": "3",
						"type": "t_bool"
					},
					{
						"astId": 1481,
						"contract": "contracts/ico.sol:Amestarter",
						"label": "targetSale",
						"offset": 0,
						"slot": "4",
						"type": "t_uint256"
					},
					{
						"astId": 1483,
						"contract": "contracts/ico.sol:Amestarter",
						"label": "totalRaised",
						"offset": 0,
						"slot": "5",
						"type": "t_uint256"
					},
					{
						"astId": 1485,
						"contract": "contracts/ico.sol:Amestarter",
						"label": "claimableTokens",
						"offset": 0,
						"slot": "6",
						"type": "t_uint256"
					},
					{
						"astId": 1489,
						"contract": "contracts/ico.sol:Amestarter",
						"label": "purchase",
						"offset": 0,
						"slot": "7",
						"type": "t_mapping(t_address,t_uint256)"
					}
				],
				"types": {
					"t_address": {
						"encoding": "inplace",
						"label": "address",
						"numberOfBytes": "20"
					},
					"t_bool": {
						"encoding": "inplace",
						"label": "bool",
						"numberOfBytes": "1"
					},
					"t_mapping(t_address,t_uint256)": {
						"encoding": "mapping",
						"key": "t_address",
						"label": "mapping(address => uint256)",
						"numberOfBytes": "32",
						"value": "t_uint256"
					},
					"t_uint256": {
						"encoding": "inplace",
						"label": "uint256",
						"numberOfBytes": "32"
					}
				}
			},
			"userdoc": {
				"kind": "user",
				"methods": {},
				"version": 1
			}
		}
	}
}