{
	"contracts/betting.sol": {
		"DistanceFiBET": {
			"abi": [
				{
					"inputs": [],
					"stateMutability": "nonpayable",
					"type": "constructor"
				},
				{
					"inputs": [
						{
							"internalType": "uint256",
							"name": "",
							"type": "uint256"
						}
					],
					"name": "Game",
					"outputs": [
						{
							"internalType": "string",
							"name": "HomeTeam",
							"type": "string"
						},
						{
							"internalType": "string",
							"name": "AwayTeam",
							"type": "string"
						},
						{
							"internalType": "uint256",
							"name": "startTime",
							"type": "uint256"
						},
						{
							"internalType": "uint256",
							"name": "endTime",
							"type": "uint256"
						},
						{
							"components": [
								{
									"internalType": "uint256",
									"name": "Home_score",
									"type": "uint256"
								},
								{
									"internalType": "uint256",
									"name": "Away_score",
									"type": "uint256"
								}
							],
							"internalType": "struct DistanceFiBET.Results",
							"name": "results",
							"type": "tuple"
						}
					],
					"stateMutability": "view",
					"type": "function"
				},
				{
					"inputs": [],
					"name": "admin",
					"outputs": [
						{
							"internalType": "address",
							"name": "",
							"type": "address"
						}
					],
					"stateMutability": "view",
					"type": "function"
				},
				{
					"inputs": [
						{
							"internalType": "uint256",
							"name": "",
							"type": "uint256"
						}
					],
					"name": "allMatch",
					"outputs": [
						{
							"internalType": "string",
							"name": "HomeTeam",
							"type": "string"
						},
						{
							"internalType": "string",
							"name": "AwayTeam",
							"type": "string"
						},
						{
							"internalType": "uint256",
							"name": "startTime",
							"type": "uint256"
						},
						{
							"internalType": "uint256",
							"name": "endTime",
							"type": "uint256"
						},
						{
							"components": [
								{
									"internalType": "uint256",
									"name": "Home_score",
									"type": "uint256"
								},
								{
									"internalType": "uint256",
									"name": "Away_score",
									"type": "uint256"
								}
							],
							"internalType": "struct DistanceFiBET.Results",
							"name": "results",
							"type": "tuple"
						}
					],
					"stateMutability": "view",
					"type": "function"
				},
				{
					"inputs": [
						{
							"internalType": "uint256",
							"name": "epoch",
							"type": "uint256"
						},
						{
							"internalType": "uint256",
							"name": "_homeScore",
							"type": "uint256"
						},
						{
							"internalType": "uint256",
							"name": "_awayScore",
							"type": "uint256"
						}
					],
					"name": "closeMatch",
					"outputs": [],
					"stateMutability": "nonpayable",
					"type": "function"
				},
				{
					"inputs": [
						{
							"internalType": "string",
							"name": "_HomeTeam",
							"type": "string"
						},
						{
							"internalType": "string",
							"name": "_AwayTeam",
							"type": "string"
						},
						{
							"internalType": "uint256",
							"name": "_startTime",
							"type": "uint256"
						}
					],
					"name": "instantiateMatch",
					"outputs": [
						{
							"internalType": "bool",
							"name": "",
							"type": "bool"
						}
					],
					"stateMutability": "nonpayable",
					"type": "function"
				},
				{
					"inputs": [
						{
							"internalType": "uint256",
							"name": "epoch",
							"type": "uint256"
						},
						{
							"internalType": "enum DistanceFiBET.Choices",
							"name": "_betChoice",
							"type": "uint8"
						}
					],
					"name": "placeBet",
					"outputs": [],
					"stateMutability": "payable",
					"type": "function"
				},
				{
					"inputs": [
						{
							"internalType": "uint256",
							"name": "",
							"type": "uint256"
						}
					],
					"name": "specificMatchBets",
					"outputs": [
						{
							"internalType": "address",
							"name": "bettor",
							"type": "address"
						},
						{
							"internalType": "uint256",
							"name": "amount",
							"type": "uint256"
						},
						{
							"internalType": "enum DistanceFiBET.Choices",
							"name": "choice",
							"type": "uint8"
						}
					],
					"stateMutability": "view",
					"type": "function"
				},
				{
					"inputs": [
						{
							"internalType": "address",
							"name": "",
							"type": "address"
						},
						{
							"internalType": "uint256",
							"name": "",
							"type": "uint256"
						}
					],
					"name": "userBet",
					"outputs": [
						{
							"internalType": "enum DistanceFiBET.Choices",
							"name": "bet",
							"type": "uint8"
						},
						{
							"internalType": "uint256",
							"name": "winAmounts",
							"type": "uint256"
						},
						{
							"internalType": "uint256",
							"name": "betAmount",
							"type": "uint256"
						}
					],
					"stateMutability": "view",
					"type": "function"
				}
			],
			"devdoc": {
				"kind": "dev",
				"methods": {},
				"version": 1
			},
			"evm": {
				"assembly": "    /* \"contracts/betting.sol\":63:2381  contract DistanceFiBET{... */\n  mstore(0x40, 0x80)\n    /* \"contracts/betting.sol\":795:845  constructor(){... */\n  callvalue\n  dup1\n  iszero\n  tag_1\n  jumpi\n  0x00\n  dup1\n  revert\ntag_1:\n  pop\n    /* \"contracts/betting.sol\":827:837  msg.sender */\n  caller\n    /* \"contracts/betting.sol\":819:824  admin */\n  0x00\n  dup1\n    /* \"contracts/betting.sol\":819:837  admin = msg.sender */\n  0x0100\n  exp\n  dup2\n  sload\n  dup2\n  0xffffffffffffffffffffffffffffffffffffffff\n  mul\n  not\n  and\n  swap1\n  dup4\n  0xffffffffffffffffffffffffffffffffffffffff\n  and\n  mul\n  or\n  swap1\n  sstore\n  pop\n    /* \"contracts/betting.sol\":63:2381  contract DistanceFiBET{... */\n  dataSize(sub_0)\n  dup1\n  dataOffset(sub_0)\n  0x00\n  codecopy\n  0x00\n  return\nstop\n\nsub_0: assembly {\n        /* \"contracts/betting.sol\":63:2381  contract DistanceFiBET{... */\n      mstore(0x40, 0x80)\n      jumpi(tag_1, lt(calldatasize, 0x04))\n      shr(0xe0, calldataload(0x00))\n      dup1\n      0xb2edb39f\n      gt\n      tag_10\n      jumpi\n      dup1\n      0xb2edb39f\n      eq\n      tag_6\n      jumpi\n      dup1\n      0xbc9e6e2c\n      eq\n      tag_7\n      jumpi\n      dup1\n      0xec7361a8\n      eq\n      tag_8\n      jumpi\n      dup1\n      0xf851a440\n      eq\n      tag_9\n      jumpi\n      jump(tag_1)\n    tag_10:\n      dup1\n      0x03edf914\n      eq\n      tag_2\n      jumpi\n      dup1\n      0x15a3ae71\n      eq\n      tag_3\n      jumpi\n      dup1\n      0x2172ff16\n      eq\n      tag_4\n      jumpi\n      dup1\n      0x4195ab8e\n      eq\n      tag_5\n      jumpi\n    tag_1:\n      0x00\n      dup1\n      revert\n        /* \"contracts/betting.sol\":1830:2173  function placeBet(uint epoch, Choices _betChoice) payable external {... */\n    tag_2:\n      tag_11\n      0x04\n      dup1\n      calldatasize\n      sub\n      dup2\n      add\n      swap1\n      tag_12\n      swap2\n      swap1\n      tag_13\n      jump\t// in\n    tag_12:\n      tag_14\n      jump\t// in\n    tag_11:\n      stop\n        /* \"contracts/betting.sol\":749:783  allBets[] public specificMatchBets */\n    tag_3:\n      callvalue\n      dup1\n      iszero\n      tag_15\n      jumpi\n      0x00\n      dup1\n      revert\n    tag_15:\n      pop\n      tag_16\n      0x04\n      dup1\n      calldatasize\n      sub\n      dup2\n      add\n      swap1\n      tag_17\n      swap2\n      swap1\n      tag_18\n      jump\t// in\n    tag_17:\n      tag_19\n      jump\t// in\n    tag_16:\n      mload(0x40)\n      tag_20\n      swap4\n      swap3\n      swap2\n      swap1\n      tag_21\n      jump\t// in\n    tag_20:\n      mload(0x40)\n      dup1\n      swap2\n      sub\n      swap1\n      return\n        /* \"contracts/betting.sol\":509:544  mapping (uint => Match) public Game */\n    tag_4:\n      callvalue\n      dup1\n      iszero\n      tag_22\n      jumpi\n      0x00\n      dup1\n      revert\n    tag_22:\n      pop\n      tag_23\n      0x04\n      dup1\n      calldatasize\n      sub\n      dup2\n      add\n      swap1\n      tag_24\n      swap2\n      swap1\n      tag_18\n      jump\t// in\n    tag_24:\n      tag_25\n      jump\t// in\n    tag_23:\n      mload(0x40)\n      tag_26\n      swap6\n      swap5\n      swap4\n      swap3\n      swap2\n      swap1\n      tag_27\n      jump\t// in\n    tag_26:\n      mload(0x40)\n      dup1\n      swap2\n      sub\n      swap1\n      return\n        /* \"contracts/betting.sol\":551:611  mapping (address => mapping (uint => Bettor)) public userBet */\n    tag_5:\n      callvalue\n      dup1\n      iszero\n      tag_28\n      jumpi\n      0x00\n      dup1\n      revert\n    tag_28:\n      pop\n      tag_29\n      0x04\n      dup1\n      calldatasize\n      sub\n      dup2\n      add\n      swap1\n      tag_30\n      swap2\n      swap1\n      tag_31\n      jump\t// in\n    tag_30:\n      tag_32\n      jump\t// in\n    tag_29:\n      mload(0x40)\n      tag_33\n      swap4\n      swap3\n      swap2\n      swap1\n      tag_34\n      jump\t// in\n    tag_33:\n      mload(0x40)\n      dup1\n      swap2\n      sub\n      swap1\n      return\n        /* \"contracts/betting.sol\":618:642  Match [] public allMatch */\n    tag_6:\n      callvalue\n      dup1\n      iszero\n      tag_35\n      jumpi\n      0x00\n      dup1\n      revert\n    tag_35:\n      pop\n      tag_36\n      0x04\n      dup1\n      calldatasize\n      sub\n      dup2\n      add\n      swap1\n      tag_37\n      swap2\n      swap1\n      tag_18\n      jump\t// in\n    tag_37:\n      tag_38\n      jump\t// in\n    tag_36:\n      mload(0x40)\n      tag_39\n      swap6\n      swap5\n      swap4\n      swap3\n      swap2\n      swap1\n      tag_27\n      jump\t// in\n    tag_39:\n      mload(0x40)\n      dup1\n      swap2\n      sub\n      swap1\n      return\n        /* \"contracts/betting.sol\":853:1383  function instantiateMatch(string calldata _HomeTeam, string calldata _AwayTeam, uint _startTime) external returns (bool) {... */\n    tag_7:\n      callvalue\n      dup1\n      iszero\n      tag_40\n      jumpi\n      0x00\n      dup1\n      revert\n    tag_40:\n      pop\n      tag_41\n      0x04\n      dup1\n      calldatasize\n      sub\n      dup2\n      add\n      swap1\n      tag_42\n      swap2\n      swap1\n      tag_43\n      jump\t// in\n    tag_42:\n      tag_44\n      jump\t// in\n    tag_41:\n      mload(0x40)\n      tag_45\n      swap2\n      swap1\n      tag_46\n      jump\t// in\n    tag_45:\n      mload(0x40)\n      dup1\n      swap2\n      sub\n      swap1\n      return\n        /* \"contracts/betting.sol\":1391:1822  function closeMatch(uint epoch, uint _homeScore, uint _awayScore) external {... */\n    tag_8:\n      callvalue\n      dup1\n      iszero\n      tag_47\n      jumpi\n      0x00\n      dup1\n      revert\n    tag_47:\n      pop\n      tag_48\n      0x04\n      dup1\n      calldatasize\n      sub\n      dup2\n      add\n      swap1\n      tag_49\n      swap2\n      swap1\n      tag_50\n      jump\t// in\n    tag_49:\n      tag_51\n      jump\t// in\n    tag_48:\n      stop\n        /* \"contracts/betting.sol\":148:168  address public admin */\n    tag_9:\n      callvalue\n      dup1\n      iszero\n      tag_52\n      jumpi\n      0x00\n      dup1\n      revert\n    tag_52:\n      pop\n      tag_53\n      tag_54\n      jump\t// in\n    tag_53:\n      mload(0x40)\n      tag_55\n      swap2\n      swap1\n      tag_56\n      jump\t// in\n    tag_55:\n      mload(0x40)\n      dup1\n      swap2\n      sub\n      swap1\n      return\n        /* \"contracts/betting.sol\":1830:2173  function placeBet(uint epoch, Choices _betChoice) payable external {... */\n    tag_14:\n        /* \"contracts/betting.sol\":1929:1936  1 ether */\n      0x0de0b6b3a7640000\n        /* \"contracts/betting.sol\":1916:1925  msg.value */\n      callvalue\n        /* \"contracts/betting.sol\":1916:1936  msg.value == 1 ether */\n      eq\n        /* \"contracts/betting.sol\":1908:1973  require(msg.value == 1 ether, \"Bet Amount is less than required\") */\n      tag_58\n      jumpi\n      mload(0x40)\n      0x08c379a000000000000000000000000000000000000000000000000000000000\n      dup2\n      mstore\n      0x04\n      add\n      tag_59\n      swap1\n      tag_60\n      jump\t// in\n    tag_59:\n      mload(0x40)\n      dup1\n      swap2\n      sub\n      swap1\n      revert\n    tag_58:\n        /* \"contracts/betting.sol\":1984:1999  uint _betAmount */\n      0x00\n        /* \"contracts/betting.sol\":2002:2011  msg.value */\n      callvalue\n        /* \"contracts/betting.sol\":1984:2011  uint _betAmount = msg.value */\n      swap1\n      pop\n        /* \"contracts/betting.sol\":2051:2084  Bettor(_betChoice, 0, _betAmount) */\n      mload(0x40)\n      dup1\n      0x60\n      add\n      0x40\n      mstore\n      dup1\n        /* \"contracts/betting.sol\":2058:2068  _betChoice */\n      dup4\n        /* \"contracts/betting.sol\":2051:2084  Bettor(_betChoice, 0, _betAmount) */\n      0x03\n      dup2\n      gt\n      iszero\n      tag_61\n      jumpi\n      tag_62\n      tag_63\n      jump\t// in\n    tag_62:\n    tag_61:\n      dup2\n      mstore\n      0x20\n      add\n        /* \"contracts/betting.sol\":2070:2071  0 */\n      0x00\n        /* \"contracts/betting.sol\":2051:2084  Bettor(_betChoice, 0, _betAmount) */\n      dup2\n      mstore\n      0x20\n      add\n        /* \"contracts/betting.sol\":2073:2083  _betAmount */\n      dup3\n        /* \"contracts/betting.sol\":2051:2084  Bettor(_betChoice, 0, _betAmount) */\n      dup2\n      mstore\n      pop\n        /* \"contracts/betting.sol\":2022:2029  userBet */\n      0x02\n        /* \"contracts/betting.sol\":2022:2041  userBet[msg.sender] */\n      0x00\n        /* \"contracts/betting.sol\":2030:2040  msg.sender */\n      caller\n        /* \"contracts/betting.sol\":2022:2041  userBet[msg.sender] */\n      0xffffffffffffffffffffffffffffffffffffffff\n      and\n      0xffffffffffffffffffffffffffffffffffffffff\n      and\n      dup2\n      mstore\n      0x20\n      add\n      swap1\n      dup2\n      mstore\n      0x20\n      add\n      0x00\n      keccak256\n        /* \"contracts/betting.sol\":2022:2048  userBet[msg.sender][epoch] */\n      0x00\n        /* \"contracts/betting.sol\":2042:2047  epoch */\n      dup6\n        /* \"contracts/betting.sol\":2022:2048  userBet[msg.sender][epoch] */\n      dup2\n      mstore\n      0x20\n      add\n      swap1\n      dup2\n      mstore\n      0x20\n      add\n      0x00\n      keccak256\n        /* \"contracts/betting.sol\":2022:2084  userBet[msg.sender][epoch] = Bettor(_betChoice, 0, _betAmount) */\n      0x00\n      dup3\n      add\n      mload\n      dup2\n      0x00\n      add\n      exp(0x0100, 0x00)\n      dup2\n      sload\n      dup2\n      0xff\n      mul\n      not\n      and\n      swap1\n      dup4\n      0x03\n      dup2\n      gt\n      iszero\n      tag_64\n      jumpi\n      tag_65\n      tag_63\n      jump\t// in\n    tag_65:\n    tag_64:\n      mul\n      or\n      swap1\n      sstore\n      pop\n      0x20\n      dup3\n      add\n      mload\n      dup2\n      0x01\n      add\n      sstore\n      0x40\n      dup3\n      add\n      mload\n      dup2\n      0x02\n      add\n      sstore\n      swap1\n      pop\n      pop\n        /* \"contracts/betting.sol\":2122:2165  allBets(msg.sender, _betAmount, _betChoice) */\n      mload(0x40)\n      dup1\n      0x60\n      add\n      0x40\n      mstore\n      dup1\n        /* \"contracts/betting.sol\":2130:2140  msg.sender */\n      caller\n        /* \"contracts/betting.sol\":2122:2165  allBets(msg.sender, _betAmount, _betChoice) */\n      0xffffffffffffffffffffffffffffffffffffffff\n      and\n      dup2\n      mstore\n      0x20\n      add\n        /* \"contracts/betting.sol\":2142:2152  _betAmount */\n      dup3\n        /* \"contracts/betting.sol\":2122:2165  allBets(msg.sender, _betAmount, _betChoice) */\n      dup2\n      mstore\n      0x20\n      add\n        /* \"contracts/betting.sol\":2154:2164  _betChoice */\n      dup4\n        /* \"contracts/betting.sol\":2122:2165  allBets(msg.sender, _betAmount, _betChoice) */\n      0x03\n      dup2\n      gt\n      iszero\n      tag_66\n      jumpi\n      tag_67\n      tag_63\n      jump\t// in\n    tag_67:\n    tag_66:\n      dup2\n      mstore\n      pop\n        /* \"contracts/betting.sol\":2095:2112  specificMatchBets */\n      0x04\n        /* \"contracts/betting.sol\":2113:2118  epoch */\n      dup5\n        /* \"contracts/betting.sol\":2095:2119  specificMatchBets[epoch] */\n      dup2\n      sload\n      dup2\n      lt\n      tag_68\n      jumpi\n      tag_69\n      tag_70\n      jump\t// in\n    tag_69:\n    tag_68:\n      swap1\n      0x00\n      mstore\n      keccak256(0x00, 0x20)\n      swap1\n      0x03\n      mul\n      add\n        /* \"contracts/betting.sol\":2095:2165  specificMatchBets[epoch] = allBets(msg.sender, _betAmount, _betChoice) */\n      0x00\n      dup3\n      add\n      mload\n      dup2\n      0x00\n      add\n      exp(0x0100, 0x00)\n      dup2\n      sload\n      dup2\n      0xffffffffffffffffffffffffffffffffffffffff\n      mul\n      not\n      and\n      swap1\n      dup4\n      0xffffffffffffffffffffffffffffffffffffffff\n      and\n      mul\n      or\n      swap1\n      sstore\n      pop\n      0x20\n      dup3\n      add\n      mload\n      dup2\n      0x01\n      add\n      sstore\n      0x40\n      dup3\n      add\n      mload\n      dup2\n      0x02\n      add\n      exp(0x0100, 0x00)\n      dup2\n      sload\n      dup2\n      0xff\n      mul\n      not\n      and\n      swap1\n      dup4\n      0x03\n      dup2\n      gt\n      iszero\n      tag_72\n      jumpi\n      tag_73\n      tag_63\n      jump\t// in\n    tag_73:\n    tag_72:\n      mul\n      or\n      swap1\n      sstore\n      pop\n      swap1\n      pop\n      pop\n        /* \"contracts/betting.sol\":1897:2173  {... */\n      pop\n        /* \"contracts/betting.sol\":1830:2173  function placeBet(uint epoch, Choices _betChoice) payable external {... */\n      pop\n      pop\n      jump\t// out\n        /* \"contracts/betting.sol\":749:783  allBets[] public specificMatchBets */\n    tag_19:\n      0x04\n      dup2\n      dup2\n      sload\n      dup2\n      lt\n      tag_74\n      jumpi\n      0x00\n      dup1\n      revert\n    tag_74:\n      swap1\n      0x00\n      mstore\n      keccak256(0x00, 0x20)\n      swap1\n      0x03\n      mul\n      add\n      0x00\n      swap2\n      pop\n      swap1\n      pop\n      dup1\n      0x00\n      add\n      0x00\n      swap1\n      sload\n      swap1\n      0x0100\n      exp\n      swap1\n      div\n      0xffffffffffffffffffffffffffffffffffffffff\n      and\n      swap1\n      dup1\n      0x01\n      add\n      sload\n      swap1\n      dup1\n      0x02\n      add\n      0x00\n      swap1\n      sload\n      swap1\n      0x0100\n      exp\n      swap1\n      div\n      0xff\n      and\n      swap1\n      pop\n      dup4\n      jump\t// out\n        /* \"contracts/betting.sol\":509:544  mapping (uint => Match) public Game */\n    tag_25:\n      mstore(0x20, 0x01)\n      dup1\n      0x00\n      mstore\n      keccak256(0x00, 0x40)\n      0x00\n      swap2\n      pop\n      swap1\n      pop\n      dup1\n      0x00\n      add\n      dup1\n      sload\n      tag_76\n      swap1\n      tag_77\n      jump\t// in\n    tag_76:\n      dup1\n      0x1f\n      add\n      0x20\n      dup1\n      swap2\n      div\n      mul\n      0x20\n      add\n      mload(0x40)\n      swap1\n      dup2\n      add\n      0x40\n      mstore\n      dup1\n      swap3\n      swap2\n      swap1\n      dup2\n      dup2\n      mstore\n      0x20\n      add\n      dup3\n      dup1\n      sload\n      tag_78\n      swap1\n      tag_77\n      jump\t// in\n    tag_78:\n      dup1\n      iszero\n      tag_79\n      jumpi\n      dup1\n      0x1f\n      lt\n      tag_80\n      jumpi\n      0x0100\n      dup1\n      dup4\n      sload\n      div\n      mul\n      dup4\n      mstore\n      swap2\n      0x20\n      add\n      swap2\n      jump(tag_79)\n    tag_80:\n      dup3\n      add\n      swap2\n      swap1\n      0x00\n      mstore\n      keccak256(0x00, 0x20)\n      swap1\n    tag_81:\n      dup2\n      sload\n      dup2\n      mstore\n      swap1\n      0x01\n      add\n      swap1\n      0x20\n      add\n      dup1\n      dup4\n      gt\n      tag_81\n      jumpi\n      dup3\n      swap1\n      sub\n      0x1f\n      and\n      dup3\n      add\n      swap2\n    tag_79:\n      pop\n      pop\n      pop\n      pop\n      pop\n      swap1\n      dup1\n      0x01\n      add\n      dup1\n      sload\n      tag_82\n      swap1\n      tag_77\n      jump\t// in\n    tag_82:\n      dup1\n      0x1f\n      add\n      0x20\n      dup1\n      swap2\n      div\n      mul\n      0x20\n      add\n      mload(0x40)\n      swap1\n      dup2\n      add\n      0x40\n      mstore\n      dup1\n      swap3\n      swap2\n      swap1\n      dup2\n      dup2\n      mstore\n      0x20\n      add\n      dup3\n      dup1\n      sload\n      tag_83\n      swap1\n      tag_77\n      jump\t// in\n    tag_83:\n      dup1\n      iszero\n      tag_84\n      jumpi\n      dup1\n      0x1f\n      lt\n      tag_85\n      jumpi\n      0x0100\n      dup1\n      dup4\n      sload\n      div\n      mul\n      dup4\n      mstore\n      swap2\n      0x20\n      add\n      swap2\n      jump(tag_84)\n    tag_85:\n      dup3\n      add\n      swap2\n      swap1\n      0x00\n      mstore\n      keccak256(0x00, 0x20)\n      swap1\n    tag_86:\n      dup2\n      sload\n      dup2\n      mstore\n      swap1\n      0x01\n      add\n      swap1\n      0x20\n      add\n      dup1\n      dup4\n      gt\n      tag_86\n      jumpi\n      dup3\n      swap1\n      sub\n      0x1f\n      and\n      dup3\n      add\n      swap2\n    tag_84:\n      pop\n      pop\n      pop\n      pop\n      pop\n      swap1\n      dup1\n      0x02\n      add\n      sload\n      swap1\n      dup1\n      0x03\n      add\n      sload\n      swap1\n      dup1\n      0x04\n      add\n      mload(0x40)\n      dup1\n      0x40\n      add\n      0x40\n      mstore\n      swap1\n      dup2\n      0x00\n      dup3\n      add\n      sload\n      dup2\n      mstore\n      0x20\n      add\n      0x01\n      dup3\n      add\n      sload\n      dup2\n      mstore\n      pop\n      pop\n      swap1\n      pop\n      dup6\n      jump\t// out\n        /* \"contracts/betting.sol\":551:611  mapping (address => mapping (uint => Bettor)) public userBet */\n    tag_32:\n      mstore(0x20, 0x02)\n      dup2\n      0x00\n      mstore\n      mstore(0x20, keccak256(0x00, 0x40))\n      dup1\n      0x00\n      mstore\n      keccak256(0x00, 0x40)\n      0x00\n      swap2\n      pop\n      swap2\n      pop\n      pop\n      dup1\n      0x00\n      add\n      0x00\n      swap1\n      sload\n      swap1\n      0x0100\n      exp\n      swap1\n      div\n      0xff\n      and\n      swap1\n      dup1\n      0x01\n      add\n      sload\n      swap1\n      dup1\n      0x02\n      add\n      sload\n      swap1\n      pop\n      dup4\n      jump\t// out\n        /* \"contracts/betting.sol\":618:642  Match [] public allMatch */\n    tag_38:\n      0x03\n      dup2\n      dup2\n      sload\n      dup2\n      lt\n      tag_87\n      jumpi\n      0x00\n      dup1\n      revert\n    tag_87:\n      swap1\n      0x00\n      mstore\n      keccak256(0x00, 0x20)\n      swap1\n      0x06\n      mul\n      add\n      0x00\n      swap2\n      pop\n      swap1\n      pop\n      dup1\n      0x00\n      add\n      dup1\n      sload\n      tag_89\n      swap1\n      tag_77\n      jump\t// in\n    tag_89:\n      dup1\n      0x1f\n      add\n      0x20\n      dup1\n      swap2\n      div\n      mul\n      0x20\n      add\n      mload(0x40)\n      swap1\n      dup2\n      add\n      0x40\n      mstore\n      dup1\n      swap3\n      swap2\n      swap1\n      dup2\n      dup2\n      mstore\n      0x20\n      add\n      dup3\n      dup1\n      sload\n      tag_90\n      swap1\n      tag_77\n      jump\t// in\n    tag_90:\n      dup1\n      iszero\n      tag_91\n      jumpi\n      dup1\n      0x1f\n      lt\n      tag_92\n      jumpi\n      0x0100\n      dup1\n      dup4\n      sload\n      div\n      mul\n      dup4\n      mstore\n      swap2\n      0x20\n      add\n      swap2\n      jump(tag_91)\n    tag_92:\n      dup3\n      add\n      swap2\n      swap1\n      0x00\n      mstore\n      keccak256(0x00, 0x20)\n      swap1\n    tag_93:\n      dup2\n      sload\n      dup2\n      mstore\n      swap1\n      0x01\n      add\n      swap1\n      0x20\n      add\n      dup1\n      dup4\n      gt\n      tag_93\n      jumpi\n      dup3\n      swap1\n      sub\n      0x1f\n      and\n      dup3\n      add\n      swap2\n    tag_91:\n      pop\n      pop\n      pop\n      pop\n      pop\n      swap1\n      dup1\n      0x01\n      add\n      dup1\n      sload\n      tag_94\n      swap1\n      tag_77\n      jump\t// in\n    tag_94:\n      dup1\n      0x1f\n      add\n      0x20\n      dup1\n      swap2\n      div\n      mul\n      0x20\n      add\n      mload(0x40)\n      swap1\n      dup2\n      add\n      0x40\n      mstore\n      dup1\n      swap3\n      swap2\n      swap1\n      dup2\n      dup2\n      mstore\n      0x20\n      add\n      dup3\n      dup1\n      sload\n      tag_95\n      swap1\n      tag_77\n      jump\t// in\n    tag_95:\n      dup1\n      iszero\n      tag_96\n      jumpi\n      dup1\n      0x1f\n      lt\n      tag_97\n      jumpi\n      0x0100\n      dup1\n      dup4\n      sload\n      div\n      mul\n      dup4\n      mstore\n      swap2\n      0x20\n      add\n      swap2\n      jump(tag_96)\n    tag_97:\n      dup3\n      add\n      swap2\n      swap1\n      0x00\n      mstore\n      keccak256(0x00, 0x20)\n      swap1\n    tag_98:\n      dup2\n      sload\n      dup2\n      mstore\n      swap1\n      0x01\n      add\n      swap1\n      0x20\n      add\n      dup1\n      dup4\n      gt\n      tag_98\n      jumpi\n      dup3\n      swap1\n      sub\n      0x1f\n      and\n      dup3\n      add\n      swap2\n    tag_96:\n      pop\n      pop\n      pop\n      pop\n      pop\n      swap1\n      dup1\n      0x02\n      add\n      sload\n      swap1\n      dup1\n      0x03\n      add\n      sload\n      swap1\n      dup1\n      0x04\n      add\n      mload(0x40)\n      dup1\n      0x40\n      add\n      0x40\n      mstore\n      swap1\n      dup2\n      0x00\n      dup3\n      add\n      sload\n      dup2\n      mstore\n      0x20\n      add\n      0x01\n      dup3\n      add\n      sload\n      dup2\n      mstore\n      pop\n      pop\n      swap1\n      pop\n      dup6\n      jump\t// out\n        /* \"contracts/betting.sol\":853:1383  function instantiateMatch(string calldata _HomeTeam, string calldata _AwayTeam, uint _startTime) external returns (bool) {... */\n    tag_44:\n        /* \"contracts/betting.sol\":968:972  bool */\n      0x00\n        /* \"contracts/betting.sol\":1002:1012  msg.sender */\n      caller\n        /* \"contracts/betting.sol\":993:1012  admin == msg.sender */\n      0xffffffffffffffffffffffffffffffffffffffff\n      and\n        /* \"contracts/betting.sol\":993:998  admin */\n      0x00\n      dup1\n      sload\n      swap1\n      0x0100\n      exp\n      swap1\n      div\n      0xffffffffffffffffffffffffffffffffffffffff\n      and\n        /* \"contracts/betting.sol\":993:1012  admin == msg.sender */\n      0xffffffffffffffffffffffffffffffffffffffff\n      and\n      eq\n        /* \"contracts/betting.sol\":985:1026  require(admin == msg.sender, \"Not Owner\") */\n      tag_100\n      jumpi\n      mload(0x40)\n      0x08c379a000000000000000000000000000000000000000000000000000000000\n      dup2\n      mstore\n      0x04\n      add\n      tag_101\n      swap1\n      tag_102\n      jump\t// in\n    tag_101:\n      mload(0x40)\n      dup1\n      swap2\n      sub\n      swap1\n      revert\n    tag_100:\n        /* \"contracts/betting.sol\":1037:1050  uint matchEnd */\n      0x00\n        /* \"contracts/betting.sol\":1066:1076  95 seconds */\n      0x5f\n        /* \"contracts/betting.sol\":1053:1063  _startTime */\n      dup4\n        /* \"contracts/betting.sol\":1053:1076  _startTime + 95 seconds */\n      tag_103\n      swap2\n      swap1\n      tag_104\n      jump\t// in\n    tag_103:\n        /* \"contracts/betting.sol\":1037:1076  uint matchEnd = _startTime + 95 seconds */\n      swap1\n      pop\n        /* \"contracts/betting.sol\":1087:1117  Results memory startingResults */\n      0x00\n        /* \"contracts/betting.sol\":1120:1133  Results(0, 0) */\n      mload(0x40)\n      dup1\n      0x40\n      add\n      0x40\n      mstore\n      dup1\n        /* \"contracts/betting.sol\":1128:1129  0 */\n      0x00\n        /* \"contracts/betting.sol\":1120:1133  Results(0, 0) */\n      dup2\n      mstore\n      0x20\n      add\n        /* \"contracts/betting.sol\":1131:1132  0 */\n      0x00\n        /* \"contracts/betting.sol\":1120:1133  Results(0, 0) */\n      dup2\n      mstore\n      pop\n        /* \"contracts/betting.sol\":1087:1133  Results memory startingResults = Results(0, 0) */\n      swap1\n      pop\n        /* \"contracts/betting.sol\":1144:1153  uint game */\n      0x00\n        /* \"contracts/betting.sol\":1156:1164  allMatch */\n      0x03\n        /* \"contracts/betting.sol\":1156:1171  allMatch.length */\n      dup1\n      sload\n      swap1\n      pop\n        /* \"contracts/betting.sol\":1144:1171  uint game = allMatch.length */\n      swap1\n      pop\n        /* \"contracts/betting.sol\":1195:1261  Match(_HomeTeam, _AwayTeam, _startTime, matchEnd, startingResults) */\n      mload(0x40)\n      dup1\n      0xa0\n      add\n      0x40\n      mstore\n      dup1\n        /* \"contracts/betting.sol\":1201:1210  _HomeTeam */\n      dup11\n      dup11\n        /* \"contracts/betting.sol\":1195:1261  Match(_HomeTeam, _AwayTeam, _startTime, matchEnd, startingResults) */\n      dup1\n      dup1\n      0x1f\n      add\n      0x20\n      dup1\n      swap2\n      div\n      mul\n      0x20\n      add\n      mload(0x40)\n      swap1\n      dup2\n      add\n      0x40\n      mstore\n      dup1\n      swap4\n      swap3\n      swap2\n      swap1\n      dup2\n      dup2\n      mstore\n      0x20\n      add\n      dup4\n      dup4\n      dup1\n      dup3\n      dup5\n      calldatacopy\n      0x00\n      dup2\n      dup5\n      add\n      mstore\n      not(0x1f)\n      0x1f\n      dup3\n      add\n      and\n      swap1\n      pop\n      dup1\n      dup4\n      add\n      swap3\n      pop\n      pop\n      pop\n      pop\n      pop\n      pop\n      pop\n      dup2\n      mstore\n      0x20\n      add\n        /* \"contracts/betting.sol\":1212:1221  _AwayTeam */\n      dup9\n      dup9\n        /* \"contracts/betting.sol\":1195:1261  Match(_HomeTeam, _AwayTeam, _startTime, matchEnd, startingResults) */\n      dup1\n      dup1\n      0x1f\n      add\n      0x20\n      dup1\n      swap2\n      div\n      mul\n      0x20\n      add\n      mload(0x40)\n      swap1\n      dup2\n      add\n      0x40\n      mstore\n      dup1\n      swap4\n      swap3\n      swap2\n      swap1\n      dup2\n      dup2\n      mstore\n      0x20\n      add\n      dup4\n      dup4\n      dup1\n      dup3\n      dup5\n      calldatacopy\n      0x00\n      dup2\n      dup5\n      add\n      mstore\n      not(0x1f)\n      0x1f\n      dup3\n      add\n      and\n      swap1\n      pop\n      dup1\n      dup4\n      add\n      swap3\n      pop\n      pop\n      pop\n      pop\n      pop\n      pop\n      pop\n      dup2\n      mstore\n      0x20\n      add\n        /* \"contracts/betting.sol\":1223:1233  _startTime */\n      dup7\n        /* \"contracts/betting.sol\":1195:1261  Match(_HomeTeam, _AwayTeam, _startTime, matchEnd, startingResults) */\n      dup2\n      mstore\n      0x20\n      add\n        /* \"contracts/betting.sol\":1235:1243  matchEnd */\n      dup5\n        /* \"contracts/betting.sol\":1195:1261  Match(_HomeTeam, _AwayTeam, _startTime, matchEnd, startingResults) */\n      dup2\n      mstore\n      0x20\n      add\n        /* \"contracts/betting.sol\":1245:1260  startingResults */\n      dup4\n        /* \"contracts/betting.sol\":1195:1261  Match(_HomeTeam, _AwayTeam, _startTime, matchEnd, startingResults) */\n      dup2\n      mstore\n      pop\n        /* \"contracts/betting.sol\":1182:1186  Game */\n      0x01\n        /* \"contracts/betting.sol\":1182:1192  Game[game] */\n      0x00\n        /* \"contracts/betting.sol\":1187:1191  game */\n      dup4\n        /* \"contracts/betting.sol\":1182:1192  Game[game] */\n      dup2\n      mstore\n      0x20\n      add\n      swap1\n      dup2\n      mstore\n      0x20\n      add\n      0x00\n      keccak256\n        /* \"contracts/betting.sol\":1182:1261  Game[game] = Match(_HomeTeam, _AwayTeam, _startTime, matchEnd, startingResults) */\n      0x00\n      dup3\n      add\n      mload\n      dup2\n      0x00\n      add\n      swap1\n      dup2\n      tag_105\n      swap2\n      swap1\n      tag_106\n      jump\t// in\n    tag_105:\n      pop\n      0x20\n      dup3\n      add\n      mload\n      dup2\n      0x01\n      add\n      swap1\n      dup2\n      tag_107\n      swap2\n      swap1\n      tag_106\n      jump\t// in\n    tag_107:\n      pop\n      0x40\n      dup3\n      add\n      mload\n      dup2\n      0x02\n      add\n      sstore\n      0x60\n      dup3\n      add\n      mload\n      dup2\n      0x03\n      add\n      sstore\n      0x80\n      dup3\n      add\n      mload\n      dup2\n      0x04\n      add\n      0x00\n      dup3\n      add\n      mload\n      dup2\n      0x00\n      add\n      sstore\n      0x20\n      dup3\n      add\n      mload\n      dup2\n      0x01\n      add\n      sstore\n      pop\n      pop\n      swap1\n      pop\n      pop\n        /* \"contracts/betting.sol\":1272:1280  allMatch */\n      0x03\n        /* \"contracts/betting.sol\":1286:1352  Match(_HomeTeam, _AwayTeam, _startTime, matchEnd, startingResults) */\n      mload(0x40)\n      dup1\n      0xa0\n      add\n      0x40\n      mstore\n      dup1\n        /* \"contracts/betting.sol\":1292:1301  _HomeTeam */\n      dup12\n      dup12\n        /* \"contracts/betting.sol\":1286:1352  Match(_HomeTeam, _AwayTeam, _startTime, matchEnd, startingResults) */\n      dup1\n      dup1\n      0x1f\n      add\n      0x20\n      dup1\n      swap2\n      div\n      mul\n      0x20\n      add\n      mload(0x40)\n      swap1\n      dup2\n      add\n      0x40\n      mstore\n      dup1\n      swap4\n      swap3\n      swap2\n      swap1\n      dup2\n      dup2\n      mstore\n      0x20\n      add\n      dup4\n      dup4\n      dup1\n      dup3\n      dup5\n      calldatacopy\n      0x00\n      dup2\n      dup5\n      add\n      mstore\n      not(0x1f)\n      0x1f\n      dup3\n      add\n      and\n      swap1\n      pop\n      dup1\n      dup4\n      add\n      swap3\n      pop\n      pop\n      pop\n      pop\n      pop\n      pop\n      pop\n      dup2\n      mstore\n      0x20\n      add\n        /* \"contracts/betting.sol\":1303:1312  _AwayTeam */\n      dup10\n      dup10\n        /* \"contracts/betting.sol\":1286:1352  Match(_HomeTeam, _AwayTeam, _startTime, matchEnd, startingResults) */\n      dup1\n      dup1\n      0x1f\n      add\n      0x20\n      dup1\n      swap2\n      div\n      mul\n      0x20\n      add\n      mload(0x40)\n      swap1\n      dup2\n      add\n      0x40\n      mstore\n      dup1\n      swap4\n      swap3\n      swap2\n      swap1\n      dup2\n      dup2\n      mstore\n      0x20\n      add\n      dup4\n      dup4\n      dup1\n      dup3\n      dup5\n      calldatacopy\n      0x00\n      dup2\n      dup5\n      add\n      mstore\n      not(0x1f)\n      0x1f\n      dup3\n      add\n      and\n      swap1\n      pop\n      dup1\n      dup4\n      add\n      swap3\n      pop\n      pop\n      pop\n      pop\n      pop\n      pop\n      pop\n      dup2\n      mstore\n      0x20\n      add\n        /* \"contracts/betting.sol\":1314:1324  _startTime */\n      dup8\n        /* \"contracts/betting.sol\":1286:1352  Match(_HomeTeam, _AwayTeam, _startTime, matchEnd, startingResults) */\n      dup2\n      mstore\n      0x20\n      add\n        /* \"contracts/betting.sol\":1326:1334  matchEnd */\n      dup6\n        /* \"contracts/betting.sol\":1286:1352  Match(_HomeTeam, _AwayTeam, _startTime, matchEnd, startingResults) */\n      dup2\n      mstore\n      0x20\n      add\n        /* \"contracts/betting.sol\":1336:1351  startingResults */\n      dup5\n        /* \"contracts/betting.sol\":1286:1352  Match(_HomeTeam, _AwayTeam, _startTime, matchEnd, startingResults) */\n      dup2\n      mstore\n      pop\n        /* \"contracts/betting.sol\":1272:1353  allMatch.push(Match(_HomeTeam, _AwayTeam, _startTime, matchEnd, startingResults)) */\n      swap1\n      dup1\n      0x01\n      dup2\n      sload\n      add\n      dup1\n      dup3\n      sstore\n      dup1\n      swap2\n      pop\n      pop\n      0x01\n      swap1\n      sub\n      swap1\n      0x00\n      mstore\n      keccak256(0x00, 0x20)\n      swap1\n      0x06\n      mul\n      add\n      0x00\n      swap1\n      swap2\n      swap1\n      swap2\n      swap1\n      swap2\n      pop\n      0x00\n      dup3\n      add\n      mload\n      dup2\n      0x00\n      add\n      swap1\n      dup2\n      tag_109\n      swap2\n      swap1\n      tag_106\n      jump\t// in\n    tag_109:\n      pop\n      0x20\n      dup3\n      add\n      mload\n      dup2\n      0x01\n      add\n      swap1\n      dup2\n      tag_110\n      swap2\n      swap1\n      tag_106\n      jump\t// in\n    tag_110:\n      pop\n      0x40\n      dup3\n      add\n      mload\n      dup2\n      0x02\n      add\n      sstore\n      0x60\n      dup3\n      add\n      mload\n      dup2\n      0x03\n      add\n      sstore\n      0x80\n      dup3\n      add\n      mload\n      dup2\n      0x04\n      add\n      0x00\n      dup3\n      add\n      mload\n      dup2\n      0x00\n      add\n      sstore\n      0x20\n      dup3\n      add\n      mload\n      dup2\n      0x01\n      add\n      sstore\n      pop\n      pop\n      pop\n      pop\n        /* \"contracts/betting.sol\":1371:1375  true */\n      0x01\n        /* \"contracts/betting.sol\":1364:1375  return true */\n      swap4\n      pop\n      pop\n      pop\n      pop\n        /* \"contracts/betting.sol\":853:1383  function instantiateMatch(string calldata _HomeTeam, string calldata _AwayTeam, uint _startTime) external returns (bool) {... */\n      swap6\n      swap5\n      pop\n      pop\n      pop\n      pop\n      pop\n      jump\t// out\n        /* \"contracts/betting.sol\":1391:1822  function closeMatch(uint epoch, uint _homeScore, uint _awayScore) external {... */\n    tag_51:\n        /* \"contracts/betting.sol\":1494:1504  msg.sender */\n      caller\n        /* \"contracts/betting.sol\":1485:1504  admin == msg.sender */\n      0xffffffffffffffffffffffffffffffffffffffff\n      and\n        /* \"contracts/betting.sol\":1485:1490  admin */\n      0x00\n      dup1\n      sload\n      swap1\n      0x0100\n      exp\n      swap1\n      div\n      0xffffffffffffffffffffffffffffffffffffffff\n      and\n        /* \"contracts/betting.sol\":1485:1504  admin == msg.sender */\n      0xffffffffffffffffffffffffffffffffffffffff\n      and\n      eq\n        /* \"contracts/betting.sol\":1477:1518  require(admin == msg.sender, \"Not Owner\") */\n      tag_112\n      jumpi\n      mload(0x40)\n      0x08c379a000000000000000000000000000000000000000000000000000000000\n      dup2\n      mstore\n      0x04\n      add\n      tag_113\n      swap1\n      tag_102\n      jump\t// in\n    tag_113:\n      mload(0x40)\n      dup1\n      swap2\n      sub\n      swap1\n      revert\n    tag_112:\n        /* \"contracts/betting.sol\":1529:1545  uint currentTime */\n      0x00\n        /* \"contracts/betting.sol\":1548:1563  block.timestamp */\n      timestamp\n        /* \"contracts/betting.sol\":1529:1563  uint currentTime = block.timestamp */\n      swap1\n      pop\n        /* \"contracts/betting.sol\":1597:1605  allMatch */\n      0x03\n        /* \"contracts/betting.sol\":1606:1611  epoch */\n      dup5\n        /* \"contracts/betting.sol\":1597:1612  allMatch[epoch] */\n      dup2\n      sload\n      dup2\n      lt\n      tag_114\n      jumpi\n      tag_115\n      tag_70\n      jump\t// in\n    tag_115:\n    tag_114:\n      swap1\n      0x00\n      mstore\n      keccak256(0x00, 0x20)\n      swap1\n      0x06\n      mul\n      add\n        /* \"contracts/betting.sol\":1597:1620  allMatch[epoch].endTime */\n      0x03\n      add\n      sload\n        /* \"contracts/betting.sol\":1582:1593  currentTime */\n      dup2\n        /* \"contracts/betting.sol\":1582:1620  currentTime >= allMatch[epoch].endTime */\n      lt\n      iszero\n        /* \"contracts/betting.sol\":1574:1642  require(currentTime >= allMatch[epoch].endTime, \"Match is still on\") */\n      tag_117\n      jumpi\n      mload(0x40)\n      0x08c379a000000000000000000000000000000000000000000000000000000000\n      dup2\n      mstore\n      0x04\n      add\n      tag_118\n      swap1\n      tag_119\n      jump\t// in\n    tag_118:\n      mload(0x40)\n      dup1\n      swap2\n      sub\n      swap1\n      revert\n    tag_117:\n        /* \"contracts/betting.sol\":1653:1682  Results memory closingResults */\n      0x00\n        /* \"contracts/betting.sol\":1685:1716  Results(_homeScore, _awayScore) */\n      mload(0x40)\n      dup1\n      0x40\n      add\n      0x40\n      mstore\n      dup1\n        /* \"contracts/betting.sol\":1693:1703  _homeScore */\n      dup6\n        /* \"contracts/betting.sol\":1685:1716  Results(_homeScore, _awayScore) */\n      dup2\n      mstore\n      0x20\n      add\n        /* \"contracts/betting.sol\":1705:1715  _awayScore */\n      dup5\n        /* \"contracts/betting.sol\":1685:1716  Results(_homeScore, _awayScore) */\n      dup2\n      mstore\n      pop\n        /* \"contracts/betting.sol\":1653:1716  Results memory closingResults = Results(_homeScore, _awayScore) */\n      swap1\n      pop\n        /* \"contracts/betting.sol\":1753:1767  closingResults */\n      dup1\n        /* \"contracts/betting.sol\":1727:1735  allMatch */\n      0x03\n        /* \"contracts/betting.sol\":1736:1741  epoch */\n      dup7\n        /* \"contracts/betting.sol\":1727:1742  allMatch[epoch] */\n      dup2\n      sload\n      dup2\n      lt\n      tag_120\n      jumpi\n      tag_121\n      tag_70\n      jump\t// in\n    tag_121:\n    tag_120:\n      swap1\n      0x00\n      mstore\n      keccak256(0x00, 0x20)\n      swap1\n      0x06\n      mul\n      add\n        /* \"contracts/betting.sol\":1727:1750  allMatch[epoch].results */\n      0x04\n      add\n        /* \"contracts/betting.sol\":1727:1767  allMatch[epoch].results = closingResults */\n      0x00\n      dup3\n      add\n      mload\n      dup2\n      0x00\n      add\n      sstore\n      0x20\n      dup3\n      add\n      mload\n      dup2\n      0x01\n      add\n      sstore\n      swap1\n      pop\n      pop\n        /* \"contracts/betting.sol\":1800:1814  closingResults */\n      dup1\n        /* \"contracts/betting.sol\":1778:1782  Game */\n      0x01\n        /* \"contracts/betting.sol\":1778:1789  Game[epoch] */\n      0x00\n        /* \"contracts/betting.sol\":1783:1788  epoch */\n      dup8\n        /* \"contracts/betting.sol\":1778:1789  Game[epoch] */\n      dup2\n      mstore\n      0x20\n      add\n      swap1\n      dup2\n      mstore\n      0x20\n      add\n      0x00\n      keccak256\n        /* \"contracts/betting.sol\":1778:1797  Game[epoch].results */\n      0x04\n      add\n        /* \"contracts/betting.sol\":1778:1814  Game[epoch].results = closingResults */\n      0x00\n      dup3\n      add\n      mload\n      dup2\n      0x00\n      add\n      sstore\n      0x20\n      dup3\n      add\n      mload\n      dup2\n      0x01\n      add\n      sstore\n      swap1\n      pop\n      pop\n        /* \"contracts/betting.sol\":1466:1822  {... */\n      pop\n      pop\n        /* \"contracts/betting.sol\":1391:1822  function closeMatch(uint epoch, uint _homeScore, uint _awayScore) external {... */\n      pop\n      pop\n      pop\n      jump\t// out\n        /* \"contracts/betting.sol\":148:168  address public admin */\n    tag_54:\n      0x00\n      dup1\n      sload\n      swap1\n      0x0100\n      exp\n      swap1\n      div\n      0xffffffffffffffffffffffffffffffffffffffff\n      and\n      dup2\n      jump\t// out\n        /* \"#utility.yul\":88:205   */\n    tag_124:\n        /* \"#utility.yul\":197:198   */\n      0x00\n        /* \"#utility.yul\":194:195   */\n      dup1\n        /* \"#utility.yul\":187:199   */\n      revert\n        /* \"#utility.yul\":211:328   */\n    tag_125:\n        /* \"#utility.yul\":320:321   */\n      0x00\n        /* \"#utility.yul\":317:318   */\n      dup1\n        /* \"#utility.yul\":310:322   */\n      revert\n        /* \"#utility.yul\":334:411   */\n    tag_126:\n        /* \"#utility.yul\":371:378   */\n      0x00\n        /* \"#utility.yul\":400:405   */\n      dup2\n        /* \"#utility.yul\":389:405   */\n      swap1\n      pop\n        /* \"#utility.yul\":334:411   */\n      swap2\n      swap1\n      pop\n      jump\t// out\n        /* \"#utility.yul\":417:539   */\n    tag_127:\n        /* \"#utility.yul\":490:514   */\n      tag_184\n        /* \"#utility.yul\":508:513   */\n      dup2\n        /* \"#utility.yul\":490:514   */\n      tag_126\n      jump\t// in\n    tag_184:\n        /* \"#utility.yul\":483:488   */\n      dup2\n        /* \"#utility.yul\":480:515   */\n      eq\n        /* \"#utility.yul\":470:533   */\n      tag_185\n      jumpi\n        /* \"#utility.yul\":529:530   */\n      0x00\n        /* \"#utility.yul\":526:527   */\n      dup1\n        /* \"#utility.yul\":519:531   */\n      revert\n        /* \"#utility.yul\":470:533   */\n    tag_185:\n        /* \"#utility.yul\":417:539   */\n      pop\n      jump\t// out\n        /* \"#utility.yul\":545:684   */\n    tag_128:\n        /* \"#utility.yul\":591:596   */\n      0x00\n        /* \"#utility.yul\":629:635   */\n      dup2\n        /* \"#utility.yul\":616:636   */\n      calldataload\n        /* \"#utility.yul\":607:636   */\n      swap1\n      pop\n        /* \"#utility.yul\":645:678   */\n      tag_187\n        /* \"#utility.yul\":672:677   */\n      dup2\n        /* \"#utility.yul\":645:678   */\n      tag_127\n      jump\t// in\n    tag_187:\n        /* \"#utility.yul\":545:684   */\n      swap3\n      swap2\n      pop\n      pop\n      jump\t// out\n        /* \"#utility.yul\":690:798   */\n    tag_129:\n        /* \"#utility.yul\":772:773   */\n      0x04\n        /* \"#utility.yul\":765:770   */\n      dup2\n        /* \"#utility.yul\":762:774   */\n      lt\n        /* \"#utility.yul\":752:792   */\n      tag_189\n      jumpi\n        /* \"#utility.yul\":788:789   */\n      0x00\n        /* \"#utility.yul\":785:786   */\n      dup1\n        /* \"#utility.yul\":778:790   */\n      revert\n        /* \"#utility.yul\":752:792   */\n    tag_189:\n        /* \"#utility.yul\":690:798   */\n      pop\n      jump\t// out\n        /* \"#utility.yul\":804:961   */\n    tag_130:\n        /* \"#utility.yul\":859:864   */\n      0x00\n        /* \"#utility.yul\":897:903   */\n      dup2\n        /* \"#utility.yul\":884:904   */\n      calldataload\n        /* \"#utility.yul\":875:904   */\n      swap1\n      pop\n        /* \"#utility.yul\":913:955   */\n      tag_191\n        /* \"#utility.yul\":949:954   */\n      dup2\n        /* \"#utility.yul\":913:955   */\n      tag_129\n      jump\t// in\n    tag_191:\n        /* \"#utility.yul\":804:961   */\n      swap3\n      swap2\n      pop\n      pop\n      jump\t// out\n        /* \"#utility.yul\":967:1459   */\n    tag_13:\n        /* \"#utility.yul\":1044:1050   */\n      0x00\n        /* \"#utility.yul\":1052:1058   */\n      dup1\n        /* \"#utility.yul\":1101:1103   */\n      0x40\n        /* \"#utility.yul\":1089:1098   */\n      dup4\n        /* \"#utility.yul\":1080:1087   */\n      dup6\n        /* \"#utility.yul\":1076:1099   */\n      sub\n        /* \"#utility.yul\":1072:1104   */\n      slt\n        /* \"#utility.yul\":1069:1188   */\n      iszero\n      tag_193\n      jumpi\n        /* \"#utility.yul\":1107:1186   */\n      tag_194\n      tag_124\n      jump\t// in\n    tag_194:\n        /* \"#utility.yul\":1069:1188   */\n    tag_193:\n        /* \"#utility.yul\":1227:1228   */\n      0x00\n        /* \"#utility.yul\":1252:1305   */\n      tag_195\n        /* \"#utility.yul\":1297:1304   */\n      dup6\n        /* \"#utility.yul\":1288:1294   */\n      dup3\n        /* \"#utility.yul\":1277:1286   */\n      dup7\n        /* \"#utility.yul\":1273:1295   */\n      add\n        /* \"#utility.yul\":1252:1305   */\n      tag_128\n      jump\t// in\n    tag_195:\n        /* \"#utility.yul\":1242:1305   */\n      swap3\n      pop\n        /* \"#utility.yul\":1198:1315   */\n      pop\n        /* \"#utility.yul\":1354:1356   */\n      0x20\n        /* \"#utility.yul\":1380:1442   */\n      tag_196\n        /* \"#utility.yul\":1434:1441   */\n      dup6\n        /* \"#utility.yul\":1425:1431   */\n      dup3\n        /* \"#utility.yul\":1414:1423   */\n      dup7\n        /* \"#utility.yul\":1410:1432   */\n      add\n        /* \"#utility.yul\":1380:1442   */\n      tag_130\n      jump\t// in\n    tag_196:\n        /* \"#utility.yul\":1370:1442   */\n      swap2\n      pop\n        /* \"#utility.yul\":1325:1452   */\n      pop\n        /* \"#utility.yul\":967:1459   */\n      swap3\n      pop\n      swap3\n      swap1\n      pop\n      jump\t// out\n        /* \"#utility.yul\":1465:1794   */\n    tag_18:\n        /* \"#utility.yul\":1524:1530   */\n      0x00\n        /* \"#utility.yul\":1573:1575   */\n      0x20\n        /* \"#utility.yul\":1561:1570   */\n      dup3\n        /* \"#utility.yul\":1552:1559   */\n      dup5\n        /* \"#utility.yul\":1548:1571   */\n      sub\n        /* \"#utility.yul\":1544:1576   */\n      slt\n        /* \"#utility.yul\":1541:1660   */\n      iszero\n      tag_198\n      jumpi\n        /* \"#utility.yul\":1579:1658   */\n      tag_199\n      tag_124\n      jump\t// in\n    tag_199:\n        /* \"#utility.yul\":1541:1660   */\n    tag_198:\n        /* \"#utility.yul\":1699:1700   */\n      0x00\n        /* \"#utility.yul\":1724:1777   */\n      tag_200\n        /* \"#utility.yul\":1769:1776   */\n      dup5\n        /* \"#utility.yul\":1760:1766   */\n      dup3\n        /* \"#utility.yul\":1749:1758   */\n      dup6\n        /* \"#utility.yul\":1745:1767   */\n      add\n        /* \"#utility.yul\":1724:1777   */\n      tag_128\n      jump\t// in\n    tag_200:\n        /* \"#utility.yul\":1714:1777   */\n      swap2\n      pop\n        /* \"#utility.yul\":1670:1787   */\n      pop\n        /* \"#utility.yul\":1465:1794   */\n      swap3\n      swap2\n      pop\n      pop\n      jump\t// out\n        /* \"#utility.yul\":1800:1926   */\n    tag_131:\n        /* \"#utility.yul\":1837:1844   */\n      0x00\n        /* \"#utility.yul\":1877:1919   */\n      0xffffffffffffffffffffffffffffffffffffffff\n        /* \"#utility.yul\":1870:1875   */\n      dup3\n        /* \"#utility.yul\":1866:1920   */\n      and\n        /* \"#utility.yul\":1855:1920   */\n      swap1\n      pop\n        /* \"#utility.yul\":1800:1926   */\n      swap2\n      swap1\n      pop\n      jump\t// out\n        /* \"#utility.yul\":1932:2028   */\n    tag_132:\n        /* \"#utility.yul\":1969:1976   */\n      0x00\n        /* \"#utility.yul\":1998:2022   */\n      tag_203\n        /* \"#utility.yul\":2016:2021   */\n      dup3\n        /* \"#utility.yul\":1998:2022   */\n      tag_131\n      jump\t// in\n    tag_203:\n        /* \"#utility.yul\":1987:2022   */\n      swap1\n      pop\n        /* \"#utility.yul\":1932:2028   */\n      swap2\n      swap1\n      pop\n      jump\t// out\n        /* \"#utility.yul\":2034:2152   */\n    tag_133:\n        /* \"#utility.yul\":2121:2145   */\n      tag_205\n        /* \"#utility.yul\":2139:2144   */\n      dup2\n        /* \"#utility.yul\":2121:2145   */\n      tag_132\n      jump\t// in\n    tag_205:\n        /* \"#utility.yul\":2116:2119   */\n      dup3\n        /* \"#utility.yul\":2109:2146   */\n      mstore\n        /* \"#utility.yul\":2034:2152   */\n      pop\n      pop\n      jump\t// out\n        /* \"#utility.yul\":2158:2276   */\n    tag_134:\n        /* \"#utility.yul\":2245:2269   */\n      tag_207\n        /* \"#utility.yul\":2263:2268   */\n      dup2\n        /* \"#utility.yul\":2245:2269   */\n      tag_126\n      jump\t// in\n    tag_207:\n        /* \"#utility.yul\":2240:2243   */\n      dup3\n        /* \"#utility.yul\":2233:2270   */\n      mstore\n        /* \"#utility.yul\":2158:2276   */\n      pop\n      pop\n      jump\t// out\n        /* \"#utility.yul\":2282:2462   */\n    tag_63:\n        /* \"#utility.yul\":2330:2407   */\n      0x4e487b7100000000000000000000000000000000000000000000000000000000\n        /* \"#utility.yul\":2327:2328   */\n      0x00\n        /* \"#utility.yul\":2320:2408   */\n      mstore\n        /* \"#utility.yul\":2427:2431   */\n      0x21\n        /* \"#utility.yul\":2424:2425   */\n      0x04\n        /* \"#utility.yul\":2417:2432   */\n      mstore\n        /* \"#utility.yul\":2451:2455   */\n      0x24\n        /* \"#utility.yul\":2448:2449   */\n      0x00\n        /* \"#utility.yul\":2441:2456   */\n      revert\n        /* \"#utility.yul\":2468:2582   */\n    tag_135:\n        /* \"#utility.yul\":2550:2551   */\n      0x04\n        /* \"#utility.yul\":2543:2548   */\n      dup2\n        /* \"#utility.yul\":2540:2552   */\n      lt\n        /* \"#utility.yul\":2530:2576   */\n      tag_210\n      jumpi\n        /* \"#utility.yul\":2556:2574   */\n      tag_211\n      tag_63\n      jump\t// in\n    tag_211:\n        /* \"#utility.yul\":2530:2576   */\n    tag_210:\n        /* \"#utility.yul\":2468:2582   */\n      pop\n      jump\t// out\n        /* \"#utility.yul\":2588:2717   */\n    tag_136:\n        /* \"#utility.yul\":2634:2641   */\n      0x00\n        /* \"#utility.yul\":2663:2668   */\n      dup2\n        /* \"#utility.yul\":2652:2668   */\n      swap1\n      pop\n        /* \"#utility.yul\":2669:2711   */\n      tag_213\n        /* \"#utility.yul\":2705:2710   */\n      dup3\n        /* \"#utility.yul\":2669:2711   */\n      tag_135\n      jump\t// in\n    tag_213:\n        /* \"#utility.yul\":2588:2717   */\n      swap2\n      swap1\n      pop\n      jump\t// out\n        /* \"#utility.yul\":2723:2852   */\n    tag_137:\n        /* \"#utility.yul\":2780:2789   */\n      0x00\n        /* \"#utility.yul\":2813:2846   */\n      tag_215\n        /* \"#utility.yul\":2840:2845   */\n      dup3\n        /* \"#utility.yul\":2813:2846   */\n      tag_136\n      jump\t// in\n    tag_215:\n        /* \"#utility.yul\":2800:2846   */\n      swap1\n      pop\n        /* \"#utility.yul\":2723:2852   */\n      swap2\n      swap1\n      pop\n      jump\t// out\n        /* \"#utility.yul\":2858:3003   */\n    tag_138:\n        /* \"#utility.yul\":2952:2996   */\n      tag_217\n        /* \"#utility.yul\":2990:2995   */\n      dup2\n        /* \"#utility.yul\":2952:2996   */\n      tag_137\n      jump\t// in\n    tag_217:\n        /* \"#utility.yul\":2947:2950   */\n      dup3\n        /* \"#utility.yul\":2940:2997   */\n      mstore\n        /* \"#utility.yul\":2858:3003   */\n      pop\n      pop\n      jump\t// out\n        /* \"#utility.yul\":3009:3465   */\n    tag_21:\n        /* \"#utility.yul\":3165:3169   */\n      0x00\n        /* \"#utility.yul\":3203:3205   */\n      0x60\n        /* \"#utility.yul\":3192:3201   */\n      dup3\n        /* \"#utility.yul\":3188:3206   */\n      add\n        /* \"#utility.yul\":3180:3206   */\n      swap1\n      pop\n        /* \"#utility.yul\":3216:3287   */\n      tag_219\n        /* \"#utility.yul\":3284:3285   */\n      0x00\n        /* \"#utility.yul\":3273:3282   */\n      dup4\n        /* \"#utility.yul\":3269:3286   */\n      add\n        /* \"#utility.yul\":3260:3266   */\n      dup7\n        /* \"#utility.yul\":3216:3287   */\n      tag_133\n      jump\t// in\n    tag_219:\n        /* \"#utility.yul\":3297:3369   */\n      tag_220\n        /* \"#utility.yul\":3365:3367   */\n      0x20\n        /* \"#utility.yul\":3354:3363   */\n      dup4\n        /* \"#utility.yul\":3350:3368   */\n      add\n        /* \"#utility.yul\":3341:3347   */\n      dup6\n        /* \"#utility.yul\":3297:3369   */\n      tag_134\n      jump\t// in\n    tag_220:\n        /* \"#utility.yul\":3379:3458   */\n      tag_221\n        /* \"#utility.yul\":3454:3456   */\n      0x40\n        /* \"#utility.yul\":3443:3452   */\n      dup4\n        /* \"#utility.yul\":3439:3457   */\n      add\n        /* \"#utility.yul\":3430:3436   */\n      dup5\n        /* \"#utility.yul\":3379:3458   */\n      tag_138\n      jump\t// in\n    tag_221:\n        /* \"#utility.yul\":3009:3465   */\n      swap5\n      swap4\n      pop\n      pop\n      pop\n      pop\n      jump\t// out\n        /* \"#utility.yul\":3471:3570   */\n    tag_139:\n        /* \"#utility.yul\":3523:3529   */\n      0x00\n        /* \"#utility.yul\":3557:3562   */\n      dup2\n        /* \"#utility.yul\":3551:3563   */\n      mload\n        /* \"#utility.yul\":3541:3563   */\n      swap1\n      pop\n        /* \"#utility.yul\":3471:3570   */\n      swap2\n      swap1\n      pop\n      jump\t// out\n        /* \"#utility.yul\":3576:3745   */\n    tag_140:\n        /* \"#utility.yul\":3660:3671   */\n      0x00\n        /* \"#utility.yul\":3694:3700   */\n      dup3\n        /* \"#utility.yul\":3689:3692   */\n      dup3\n        /* \"#utility.yul\":3682:3701   */\n      mstore\n        /* \"#utility.yul\":3734:3738   */\n      0x20\n        /* \"#utility.yul\":3729:3732   */\n      dup3\n        /* \"#utility.yul\":3725:3739   */\n      add\n        /* \"#utility.yul\":3710:3739   */\n      swap1\n      pop\n        /* \"#utility.yul\":3576:3745   */\n      swap3\n      swap2\n      pop\n      pop\n      jump\t// out\n        /* \"#utility.yul\":3751:3997   */\n    tag_141:\n        /* \"#utility.yul\":3832:3833   */\n      0x00\n        /* \"#utility.yul\":3842:3955   */\n    tag_225:\n        /* \"#utility.yul\":3856:3862   */\n      dup4\n        /* \"#utility.yul\":3853:3854   */\n      dup2\n        /* \"#utility.yul\":3850:3863   */\n      lt\n        /* \"#utility.yul\":3842:3955   */\n      iszero\n      tag_227\n      jumpi\n        /* \"#utility.yul\":3941:3942   */\n      dup1\n        /* \"#utility.yul\":3936:3939   */\n      dup3\n        /* \"#utility.yul\":3932:3943   */\n      add\n        /* \"#utility.yul\":3926:3944   */\n      mload\n        /* \"#utility.yul\":3922:3923   */\n      dup2\n        /* \"#utility.yul\":3917:3920   */\n      dup5\n        /* \"#utility.yul\":3913:3924   */\n      add\n        /* \"#utility.yul\":3906:3945   */\n      mstore\n        /* \"#utility.yul\":3878:3880   */\n      0x20\n        /* \"#utility.yul\":3875:3876   */\n      dup2\n        /* \"#utility.yul\":3871:3881   */\n      add\n        /* \"#utility.yul\":3866:3881   */\n      swap1\n      pop\n        /* \"#utility.yul\":3842:3955   */\n      jump(tag_225)\n    tag_227:\n        /* \"#utility.yul\":3989:3990   */\n      0x00\n        /* \"#utility.yul\":3980:3986   */\n      dup5\n        /* \"#utility.yul\":3975:3978   */\n      dup5\n        /* \"#utility.yul\":3971:3987   */\n      add\n        /* \"#utility.yul\":3964:3991   */\n      mstore\n        /* \"#utility.yul\":3813:3997   */\n      pop\n        /* \"#utility.yul\":3751:3997   */\n      pop\n      pop\n      pop\n      jump\t// out\n        /* \"#utility.yul\":4003:4105   */\n    tag_142:\n        /* \"#utility.yul\":4044:4050   */\n      0x00\n        /* \"#utility.yul\":4095:4097   */\n      0x1f\n        /* \"#utility.yul\":4091:4098   */\n      not\n        /* \"#utility.yul\":4086:4088   */\n      0x1f\n        /* \"#utility.yul\":4079:4084   */\n      dup4\n        /* \"#utility.yul\":4075:4089   */\n      add\n        /* \"#utility.yul\":4071:4099   */\n      and\n        /* \"#utility.yul\":4061:4099   */\n      swap1\n      pop\n        /* \"#utility.yul\":4003:4105   */\n      swap2\n      swap1\n      pop\n      jump\t// out\n        /* \"#utility.yul\":4111:4488   */\n    tag_143:\n        /* \"#utility.yul\":4199:4202   */\n      0x00\n        /* \"#utility.yul\":4227:4266   */\n      tag_230\n        /* \"#utility.yul\":4260:4265   */\n      dup3\n        /* \"#utility.yul\":4227:4266   */\n      tag_139\n      jump\t// in\n    tag_230:\n        /* \"#utility.yul\":4282:4353   */\n      tag_231\n        /* \"#utility.yul\":4346:4352   */\n      dup2\n        /* \"#utility.yul\":4341:4344   */\n      dup6\n        /* \"#utility.yul\":4282:4353   */\n      tag_140\n      jump\t// in\n    tag_231:\n        /* \"#utility.yul\":4275:4353   */\n      swap4\n      pop\n        /* \"#utility.yul\":4362:4427   */\n      tag_232\n        /* \"#utility.yul\":4420:4426   */\n      dup2\n        /* \"#utility.yul\":4415:4418   */\n      dup6\n        /* \"#utility.yul\":4408:4412   */\n      0x20\n        /* \"#utility.yul\":4401:4406   */\n      dup7\n        /* \"#utility.yul\":4397:4413   */\n      add\n        /* \"#utility.yul\":4362:4427   */\n      tag_141\n      jump\t// in\n    tag_232:\n        /* \"#utility.yul\":4452:4481   */\n      tag_233\n        /* \"#utility.yul\":4474:4480   */\n      dup2\n        /* \"#utility.yul\":4452:4481   */\n      tag_142\n      jump\t// in\n    tag_233:\n        /* \"#utility.yul\":4447:4450   */\n      dup5\n        /* \"#utility.yul\":4443:4482   */\n      add\n        /* \"#utility.yul\":4436:4482   */\n      swap2\n      pop\n        /* \"#utility.yul\":4203:4488   */\n      pop\n        /* \"#utility.yul\":4111:4488   */\n      swap3\n      swap2\n      pop\n      pop\n      jump\t// out\n        /* \"#utility.yul\":4494:4602   */\n    tag_144:\n        /* \"#utility.yul\":4571:4595   */\n      tag_235\n        /* \"#utility.yul\":4589:4594   */\n      dup2\n        /* \"#utility.yul\":4571:4595   */\n      tag_126\n      jump\t// in\n    tag_235:\n        /* \"#utility.yul\":4566:4569   */\n      dup3\n        /* \"#utility.yul\":4559:4596   */\n      mstore\n        /* \"#utility.yul\":4494:4602   */\n      pop\n      pop\n      jump\t// out\n        /* \"#utility.yul\":4676:5191   */\n    tag_145:\n        /* \"#utility.yul\":4819:4823   */\n      0x40\n        /* \"#utility.yul\":4814:4817   */\n      dup3\n        /* \"#utility.yul\":4810:4824   */\n      add\n        /* \"#utility.yul\":4912:4916   */\n      0x00\n        /* \"#utility.yul\":4905:4910   */\n      dup3\n        /* \"#utility.yul\":4901:4917   */\n      add\n        /* \"#utility.yul\":4895:4918   */\n      mload\n        /* \"#utility.yul\":4931:4994   */\n      tag_237\n        /* \"#utility.yul\":4988:4992   */\n      0x00\n        /* \"#utility.yul\":4983:4986   */\n      dup6\n        /* \"#utility.yul\":4979:4993   */\n      add\n        /* \"#utility.yul\":4965:4977   */\n      dup3\n        /* \"#utility.yul\":4931:4994   */\n      tag_144\n      jump\t// in\n    tag_237:\n        /* \"#utility.yul\":4834:5004   */\n      pop\n        /* \"#utility.yul\":5092:5096   */\n      0x20\n        /* \"#utility.yul\":5085:5090   */\n      dup3\n        /* \"#utility.yul\":5081:5097   */\n      add\n        /* \"#utility.yul\":5075:5098   */\n      mload\n        /* \"#utility.yul\":5111:5174   */\n      tag_238\n        /* \"#utility.yul\":5168:5172   */\n      0x20\n        /* \"#utility.yul\":5163:5166   */\n      dup6\n        /* \"#utility.yul\":5159:5173   */\n      add\n        /* \"#utility.yul\":5145:5157   */\n      dup3\n        /* \"#utility.yul\":5111:5174   */\n      tag_144\n      jump\t// in\n    tag_238:\n        /* \"#utility.yul\":5014:5184   */\n      pop\n        /* \"#utility.yul\":4788:5191   */\n      pop\n        /* \"#utility.yul\":4676:5191   */\n      pop\n      pop\n      jump\t// out\n        /* \"#utility.yul\":5197:6135   */\n    tag_27:\n        /* \"#utility.yul\":5488:5492   */\n      0x00\n        /* \"#utility.yul\":5526:5529   */\n      0xc0\n        /* \"#utility.yul\":5515:5524   */\n      dup3\n        /* \"#utility.yul\":5511:5530   */\n      add\n        /* \"#utility.yul\":5503:5530   */\n      swap1\n      pop\n        /* \"#utility.yul\":5576:5585   */\n      dup2\n        /* \"#utility.yul\":5570:5574   */\n      dup2\n        /* \"#utility.yul\":5566:5586   */\n      sub\n        /* \"#utility.yul\":5562:5563   */\n      0x00\n        /* \"#utility.yul\":5551:5560   */\n      dup4\n        /* \"#utility.yul\":5547:5564   */\n      add\n        /* \"#utility.yul\":5540:5587   */\n      mstore\n        /* \"#utility.yul\":5604:5682   */\n      tag_240\n        /* \"#utility.yul\":5677:5681   */\n      dup2\n        /* \"#utility.yul\":5668:5674   */\n      dup9\n        /* \"#utility.yul\":5604:5682   */\n      tag_143\n      jump\t// in\n    tag_240:\n        /* \"#utility.yul\":5596:5682   */\n      swap1\n      pop\n        /* \"#utility.yul\":5729:5738   */\n      dup2\n        /* \"#utility.yul\":5723:5727   */\n      dup2\n        /* \"#utility.yul\":5719:5739   */\n      sub\n        /* \"#utility.yul\":5714:5716   */\n      0x20\n        /* \"#utility.yul\":5703:5712   */\n      dup4\n        /* \"#utility.yul\":5699:5717   */\n      add\n        /* \"#utility.yul\":5692:5740   */\n      mstore\n        /* \"#utility.yul\":5757:5835   */\n      tag_241\n        /* \"#utility.yul\":5830:5834   */\n      dup2\n        /* \"#utility.yul\":5821:5827   */\n      dup8\n        /* \"#utility.yul\":5757:5835   */\n      tag_143\n      jump\t// in\n    tag_241:\n        /* \"#utility.yul\":5749:5835   */\n      swap1\n      pop\n        /* \"#utility.yul\":5845:5917   */\n      tag_242\n        /* \"#utility.yul\":5913:5915   */\n      0x40\n        /* \"#utility.yul\":5902:5911   */\n      dup4\n        /* \"#utility.yul\":5898:5916   */\n      add\n        /* \"#utility.yul\":5889:5895   */\n      dup7\n        /* \"#utility.yul\":5845:5917   */\n      tag_134\n      jump\t// in\n    tag_242:\n        /* \"#utility.yul\":5927:5999   */\n      tag_243\n        /* \"#utility.yul\":5995:5997   */\n      0x60\n        /* \"#utility.yul\":5984:5993   */\n      dup4\n        /* \"#utility.yul\":5980:5998   */\n      add\n        /* \"#utility.yul\":5971:5977   */\n      dup6\n        /* \"#utility.yul\":5927:5999   */\n      tag_134\n      jump\t// in\n    tag_243:\n        /* \"#utility.yul\":6009:6128   */\n      tag_244\n        /* \"#utility.yul\":6123:6126   */\n      0x80\n        /* \"#utility.yul\":6112:6121   */\n      dup4\n        /* \"#utility.yul\":6108:6127   */\n      add\n        /* \"#utility.yul\":6099:6105   */\n      dup5\n        /* \"#utility.yul\":6009:6128   */\n      tag_145\n      jump\t// in\n    tag_244:\n        /* \"#utility.yul\":5197:6135   */\n      swap7\n      swap6\n      pop\n      pop\n      pop\n      pop\n      pop\n      pop\n      jump\t// out\n        /* \"#utility.yul\":6141:6263   */\n    tag_146:\n        /* \"#utility.yul\":6214:6238   */\n      tag_246\n        /* \"#utility.yul\":6232:6237   */\n      dup2\n        /* \"#utility.yul\":6214:6238   */\n      tag_132\n      jump\t// in\n    tag_246:\n        /* \"#utility.yul\":6207:6212   */\n      dup2\n        /* \"#utility.yul\":6204:6239   */\n      eq\n        /* \"#utility.yul\":6194:6257   */\n      tag_247\n      jumpi\n        /* \"#utility.yul\":6253:6254   */\n      0x00\n        /* \"#utility.yul\":6250:6251   */\n      dup1\n        /* \"#utility.yul\":6243:6255   */\n      revert\n        /* \"#utility.yul\":6194:6257   */\n    tag_247:\n        /* \"#utility.yul\":6141:6263   */\n      pop\n      jump\t// out\n        /* \"#utility.yul\":6269:6408   */\n    tag_147:\n        /* \"#utility.yul\":6315:6320   */\n      0x00\n        /* \"#utility.yul\":6353:6359   */\n      dup2\n        /* \"#utility.yul\":6340:6360   */\n      calldataload\n        /* \"#utility.yul\":6331:6360   */\n      swap1\n      pop\n        /* \"#utility.yul\":6369:6402   */\n      tag_249\n        /* \"#utility.yul\":6396:6401   */\n      dup2\n        /* \"#utility.yul\":6369:6402   */\n      tag_146\n      jump\t// in\n    tag_249:\n        /* \"#utility.yul\":6269:6408   */\n      swap3\n      swap2\n      pop\n      pop\n      jump\t// out\n        /* \"#utility.yul\":6414:6888   */\n    tag_31:\n        /* \"#utility.yul\":6482:6488   */\n      0x00\n        /* \"#utility.yul\":6490:6496   */\n      dup1\n        /* \"#utility.yul\":6539:6541   */\n      0x40\n        /* \"#utility.yul\":6527:6536   */\n      dup4\n        /* \"#utility.yul\":6518:6525   */\n      dup6\n        /* \"#utility.yul\":6514:6537   */\n      sub\n        /* \"#utility.yul\":6510:6542   */\n      slt\n        /* \"#utility.yul\":6507:6626   */\n      iszero\n      tag_251\n      jumpi\n        /* \"#utility.yul\":6545:6624   */\n      tag_252\n      tag_124\n      jump\t// in\n    tag_252:\n        /* \"#utility.yul\":6507:6626   */\n    tag_251:\n        /* \"#utility.yul\":6665:6666   */\n      0x00\n        /* \"#utility.yul\":6690:6743   */\n      tag_253\n        /* \"#utility.yul\":6735:6742   */\n      dup6\n        /* \"#utility.yul\":6726:6732   */\n      dup3\n        /* \"#utility.yul\":6715:6724   */\n      dup7\n        /* \"#utility.yul\":6711:6733   */\n      add\n        /* \"#utility.yul\":6690:6743   */\n      tag_147\n      jump\t// in\n    tag_253:\n        /* \"#utility.yul\":6680:6743   */\n      swap3\n      pop\n        /* \"#utility.yul\":6636:6753   */\n      pop\n        /* \"#utility.yul\":6792:6794   */\n      0x20\n        /* \"#utility.yul\":6818:6871   */\n      tag_254\n        /* \"#utility.yul\":6863:6870   */\n      dup6\n        /* \"#utility.yul\":6854:6860   */\n      dup3\n        /* \"#utility.yul\":6843:6852   */\n      dup7\n        /* \"#utility.yul\":6839:6861   */\n      add\n        /* \"#utility.yul\":6818:6871   */\n      tag_128\n      jump\t// in\n    tag_254:\n        /* \"#utility.yul\":6808:6871   */\n      swap2\n      pop\n        /* \"#utility.yul\":6763:6881   */\n      pop\n        /* \"#utility.yul\":6414:6888   */\n      swap3\n      pop\n      swap3\n      swap1\n      pop\n      jump\t// out\n        /* \"#utility.yul\":6894:7350   */\n    tag_34:\n        /* \"#utility.yul\":7050:7054   */\n      0x00\n        /* \"#utility.yul\":7088:7090   */\n      0x60\n        /* \"#utility.yul\":7077:7086   */\n      dup3\n        /* \"#utility.yul\":7073:7091   */\n      add\n        /* \"#utility.yul\":7065:7091   */\n      swap1\n      pop\n        /* \"#utility.yul\":7101:7179   */\n      tag_256\n        /* \"#utility.yul\":7176:7177   */\n      0x00\n        /* \"#utility.yul\":7165:7174   */\n      dup4\n        /* \"#utility.yul\":7161:7178   */\n      add\n        /* \"#utility.yul\":7152:7158   */\n      dup7\n        /* \"#utility.yul\":7101:7179   */\n      tag_138\n      jump\t// in\n    tag_256:\n        /* \"#utility.yul\":7189:7261   */\n      tag_257\n        /* \"#utility.yul\":7257:7259   */\n      0x20\n        /* \"#utility.yul\":7246:7255   */\n      dup4\n        /* \"#utility.yul\":7242:7260   */\n      add\n        /* \"#utility.yul\":7233:7239   */\n      dup6\n        /* \"#utility.yul\":7189:7261   */\n      tag_134\n      jump\t// in\n    tag_257:\n        /* \"#utility.yul\":7271:7343   */\n      tag_258\n        /* \"#utility.yul\":7339:7341   */\n      0x40\n        /* \"#utility.yul\":7328:7337   */\n      dup4\n        /* \"#utility.yul\":7324:7342   */\n      add\n        /* \"#utility.yul\":7315:7321   */\n      dup5\n        /* \"#utility.yul\":7271:7343   */\n      tag_134\n      jump\t// in\n    tag_258:\n        /* \"#utility.yul\":6894:7350   */\n      swap5\n      swap4\n      pop\n      pop\n      pop\n      pop\n      jump\t// out\n        /* \"#utility.yul\":7356:7473   */\n    tag_148:\n        /* \"#utility.yul\":7465:7466   */\n      0x00\n        /* \"#utility.yul\":7462:7463   */\n      dup1\n        /* \"#utility.yul\":7455:7467   */\n      revert\n        /* \"#utility.yul\":7479:7596   */\n    tag_149:\n        /* \"#utility.yul\":7588:7589   */\n      0x00\n        /* \"#utility.yul\":7585:7586   */\n      dup1\n        /* \"#utility.yul\":7578:7590   */\n      revert\n        /* \"#utility.yul\":7602:7719   */\n    tag_150:\n        /* \"#utility.yul\":7711:7712   */\n      0x00\n        /* \"#utility.yul\":7708:7709   */\n      dup1\n        /* \"#utility.yul\":7701:7713   */\n      revert\n        /* \"#utility.yul\":7739:8292   */\n    tag_151:\n        /* \"#utility.yul\":7797:7805   */\n      0x00\n        /* \"#utility.yul\":7807:7813   */\n      dup1\n        /* \"#utility.yul\":7857:7860   */\n      dup4\n        /* \"#utility.yul\":7850:7854   */\n      0x1f\n        /* \"#utility.yul\":7842:7848   */\n      dup5\n        /* \"#utility.yul\":7838:7855   */\n      add\n        /* \"#utility.yul\":7834:7861   */\n      slt\n        /* \"#utility.yul\":7824:7946   */\n      tag_263\n      jumpi\n        /* \"#utility.yul\":7865:7944   */\n      tag_264\n      tag_148\n      jump\t// in\n    tag_264:\n        /* \"#utility.yul\":7824:7946   */\n    tag_263:\n        /* \"#utility.yul\":7978:7984   */\n      dup3\n        /* \"#utility.yul\":7965:7985   */\n      calldataload\n        /* \"#utility.yul\":7955:7985   */\n      swap1\n      pop\n        /* \"#utility.yul\":8008:8026   */\n      0xffffffffffffffff\n        /* \"#utility.yul\":8000:8006   */\n      dup2\n        /* \"#utility.yul\":7997:8027   */\n      gt\n        /* \"#utility.yul\":7994:8111   */\n      iszero\n      tag_265\n      jumpi\n        /* \"#utility.yul\":8030:8109   */\n      tag_266\n      tag_149\n      jump\t// in\n    tag_266:\n        /* \"#utility.yul\":7994:8111   */\n    tag_265:\n        /* \"#utility.yul\":8144:8148   */\n      0x20\n        /* \"#utility.yul\":8136:8142   */\n      dup4\n        /* \"#utility.yul\":8132:8149   */\n      add\n        /* \"#utility.yul\":8120:8149   */\n      swap2\n      pop\n        /* \"#utility.yul\":8198:8201   */\n      dup4\n        /* \"#utility.yul\":8190:8194   */\n      0x01\n        /* \"#utility.yul\":8182:8188   */\n      dup3\n        /* \"#utility.yul\":8178:8195   */\n      mul\n        /* \"#utility.yul\":8168:8176   */\n      dup4\n        /* \"#utility.yul\":8164:8196   */\n      add\n        /* \"#utility.yul\":8161:8202   */\n      gt\n        /* \"#utility.yul\":8158:8286   */\n      iszero\n      tag_267\n      jumpi\n        /* \"#utility.yul\":8205:8284   */\n      tag_268\n      tag_150\n      jump\t// in\n    tag_268:\n        /* \"#utility.yul\":8158:8286   */\n    tag_267:\n        /* \"#utility.yul\":7739:8292   */\n      swap3\n      pop\n      swap3\n      swap1\n      pop\n      jump\t// out\n        /* \"#utility.yul\":8298:9317   */\n    tag_43:\n        /* \"#utility.yul\":8399:8405   */\n      0x00\n        /* \"#utility.yul\":8407:8413   */\n      dup1\n        /* \"#utility.yul\":8415:8421   */\n      0x00\n        /* \"#utility.yul\":8423:8429   */\n      dup1\n        /* \"#utility.yul\":8431:8437   */\n      0x00\n        /* \"#utility.yul\":8480:8482   */\n      0x60\n        /* \"#utility.yul\":8468:8477   */\n      dup7\n        /* \"#utility.yul\":8459:8466   */\n      dup9\n        /* \"#utility.yul\":8455:8478   */\n      sub\n        /* \"#utility.yul\":8451:8483   */\n      slt\n        /* \"#utility.yul\":8448:8567   */\n      iszero\n      tag_270\n      jumpi\n        /* \"#utility.yul\":8486:8565   */\n      tag_271\n      tag_124\n      jump\t// in\n    tag_271:\n        /* \"#utility.yul\":8448:8567   */\n    tag_270:\n        /* \"#utility.yul\":8634:8635   */\n      0x00\n        /* \"#utility.yul\":8623:8632   */\n      dup7\n        /* \"#utility.yul\":8619:8636   */\n      add\n        /* \"#utility.yul\":8606:8637   */\n      calldataload\n        /* \"#utility.yul\":8664:8682   */\n      0xffffffffffffffff\n        /* \"#utility.yul\":8656:8662   */\n      dup2\n        /* \"#utility.yul\":8653:8683   */\n      gt\n        /* \"#utility.yul\":8650:8767   */\n      iszero\n      tag_272\n      jumpi\n        /* \"#utility.yul\":8686:8765   */\n      tag_273\n      tag_125\n      jump\t// in\n    tag_273:\n        /* \"#utility.yul\":8650:8767   */\n    tag_272:\n        /* \"#utility.yul\":8799:8864   */\n      tag_274\n        /* \"#utility.yul\":8856:8863   */\n      dup9\n        /* \"#utility.yul\":8847:8853   */\n      dup3\n        /* \"#utility.yul\":8836:8845   */\n      dup10\n        /* \"#utility.yul\":8832:8854   */\n      add\n        /* \"#utility.yul\":8799:8864   */\n      tag_151\n      jump\t// in\n    tag_274:\n        /* \"#utility.yul\":8781:8864   */\n      swap6\n      pop\n      swap6\n      pop\n        /* \"#utility.yul\":8577:8874   */\n      pop\n        /* \"#utility.yul\":8941:8943   */\n      0x20\n        /* \"#utility.yul\":8930:8939   */\n      dup7\n        /* \"#utility.yul\":8926:8944   */\n      add\n        /* \"#utility.yul\":8913:8945   */\n      calldataload\n        /* \"#utility.yul\":8972:8990   */\n      0xffffffffffffffff\n        /* \"#utility.yul\":8964:8970   */\n      dup2\n        /* \"#utility.yul\":8961:8991   */\n      gt\n        /* \"#utility.yul\":8958:9075   */\n      iszero\n      tag_275\n      jumpi\n        /* \"#utility.yul\":8994:9073   */\n      tag_276\n      tag_125\n      jump\t// in\n    tag_276:\n        /* \"#utility.yul\":8958:9075   */\n    tag_275:\n        /* \"#utility.yul\":9107:9172   */\n      tag_277\n        /* \"#utility.yul\":9164:9171   */\n      dup9\n        /* \"#utility.yul\":9155:9161   */\n      dup3\n        /* \"#utility.yul\":9144:9153   */\n      dup10\n        /* \"#utility.yul\":9140:9162   */\n      add\n        /* \"#utility.yul\":9107:9172   */\n      tag_151\n      jump\t// in\n    tag_277:\n        /* \"#utility.yul\":9089:9172   */\n      swap4\n      pop\n      swap4\n      pop\n        /* \"#utility.yul\":8884:9182   */\n      pop\n        /* \"#utility.yul\":9221:9223   */\n      0x40\n        /* \"#utility.yul\":9247:9300   */\n      tag_278\n        /* \"#utility.yul\":9292:9299   */\n      dup9\n        /* \"#utility.yul\":9283:9289   */\n      dup3\n        /* \"#utility.yul\":9272:9281   */\n      dup10\n        /* \"#utility.yul\":9268:9290   */\n      add\n        /* \"#utility.yul\":9247:9300   */\n      tag_128\n      jump\t// in\n    tag_278:\n        /* \"#utility.yul\":9237:9300   */\n      swap2\n      pop\n        /* \"#utility.yul\":9192:9310   */\n      pop\n        /* \"#utility.yul\":8298:9317   */\n      swap3\n      swap6\n      pop\n      swap3\n      swap6\n      swap1\n      swap4\n      pop\n      jump\t// out\n        /* \"#utility.yul\":9323:9413   */\n    tag_152:\n        /* \"#utility.yul\":9357:9364   */\n      0x00\n        /* \"#utility.yul\":9400:9405   */\n      dup2\n        /* \"#utility.yul\":9393:9406   */\n      iszero\n        /* \"#utility.yul\":9386:9407   */\n      iszero\n        /* \"#utility.yul\":9375:9407   */\n      swap1\n      pop\n        /* \"#utility.yul\":9323:9413   */\n      swap2\n      swap1\n      pop\n      jump\t// out\n        /* \"#utility.yul\":9419:9528   */\n    tag_153:\n        /* \"#utility.yul\":9500:9521   */\n      tag_281\n        /* \"#utility.yul\":9515:9520   */\n      dup2\n        /* \"#utility.yul\":9500:9521   */\n      tag_152\n      jump\t// in\n    tag_281:\n        /* \"#utility.yul\":9495:9498   */\n      dup3\n        /* \"#utility.yul\":9488:9522   */\n      mstore\n        /* \"#utility.yul\":9419:9528   */\n      pop\n      pop\n      jump\t// out\n        /* \"#utility.yul\":9534:9744   */\n    tag_46:\n        /* \"#utility.yul\":9621:9625   */\n      0x00\n        /* \"#utility.yul\":9659:9661   */\n      0x20\n        /* \"#utility.yul\":9648:9657   */\n      dup3\n        /* \"#utility.yul\":9644:9662   */\n      add\n        /* \"#utility.yul\":9636:9662   */\n      swap1\n      pop\n        /* \"#utility.yul\":9672:9737   */\n      tag_283\n        /* \"#utility.yul\":9734:9735   */\n      0x00\n        /* \"#utility.yul\":9723:9732   */\n      dup4\n        /* \"#utility.yul\":9719:9736   */\n      add\n        /* \"#utility.yul\":9710:9716   */\n      dup5\n        /* \"#utility.yul\":9672:9737   */\n      tag_153\n      jump\t// in\n    tag_283:\n        /* \"#utility.yul\":9534:9744   */\n      swap3\n      swap2\n      pop\n      pop\n      jump\t// out\n        /* \"#utility.yul\":9750:10369   */\n    tag_50:\n        /* \"#utility.yul\":9827:9833   */\n      0x00\n        /* \"#utility.yul\":9835:9841   */\n      dup1\n        /* \"#utility.yul\":9843:9849   */\n      0x00\n        /* \"#utility.yul\":9892:9894   */\n      0x60\n        /* \"#utility.yul\":9880:9889   */\n      dup5\n        /* \"#utility.yul\":9871:9878   */\n      dup7\n        /* \"#utility.yul\":9867:9890   */\n      sub\n        /* \"#utility.yul\":9863:9895   */\n      slt\n        /* \"#utility.yul\":9860:9979   */\n      iszero\n      tag_285\n      jumpi\n        /* \"#utility.yul\":9898:9977   */\n      tag_286\n      tag_124\n      jump\t// in\n    tag_286:\n        /* \"#utility.yul\":9860:9979   */\n    tag_285:\n        /* \"#utility.yul\":10018:10019   */\n      0x00\n        /* \"#utility.yul\":10043:10096   */\n      tag_287\n        /* \"#utility.yul\":10088:10095   */\n      dup7\n        /* \"#utility.yul\":10079:10085   */\n      dup3\n        /* \"#utility.yul\":10068:10077   */\n      dup8\n        /* \"#utility.yul\":10064:10086   */\n      add\n        /* \"#utility.yul\":10043:10096   */\n      tag_128\n      jump\t// in\n    tag_287:\n        /* \"#utility.yul\":10033:10096   */\n      swap4\n      pop\n        /* \"#utility.yul\":9989:10106   */\n      pop\n        /* \"#utility.yul\":10145:10147   */\n      0x20\n        /* \"#utility.yul\":10171:10224   */\n      tag_288\n        /* \"#utility.yul\":10216:10223   */\n      dup7\n        /* \"#utility.yul\":10207:10213   */\n      dup3\n        /* \"#utility.yul\":10196:10205   */\n      dup8\n        /* \"#utility.yul\":10192:10214   */\n      add\n        /* \"#utility.yul\":10171:10224   */\n      tag_128\n      jump\t// in\n    tag_288:\n        /* \"#utility.yul\":10161:10224   */\n      swap3\n      pop\n        /* \"#utility.yul\":10116:10234   */\n      pop\n        /* \"#utility.yul\":10273:10275   */\n      0x40\n        /* \"#utility.yul\":10299:10352   */\n      tag_289\n        /* \"#utility.yul\":10344:10351   */\n      dup7\n        /* \"#utility.yul\":10335:10341   */\n      dup3\n        /* \"#utility.yul\":10324:10333   */\n      dup8\n        /* \"#utility.yul\":10320:10342   */\n      add\n        /* \"#utility.yul\":10299:10352   */\n      tag_128\n      jump\t// in\n    tag_289:\n        /* \"#utility.yul\":10289:10352   */\n      swap2\n      pop\n        /* \"#utility.yul\":10244:10362   */\n      pop\n        /* \"#utility.yul\":9750:10369   */\n      swap3\n      pop\n      swap3\n      pop\n      swap3\n      jump\t// out\n        /* \"#utility.yul\":10375:10597   */\n    tag_56:\n        /* \"#utility.yul\":10468:10472   */\n      0x00\n        /* \"#utility.yul\":10506:10508   */\n      0x20\n        /* \"#utility.yul\":10495:10504   */\n      dup3\n        /* \"#utility.yul\":10491:10509   */\n      add\n        /* \"#utility.yul\":10483:10509   */\n      swap1\n      pop\n        /* \"#utility.yul\":10519:10590   */\n      tag_291\n        /* \"#utility.yul\":10587:10588   */\n      0x00\n        /* \"#utility.yul\":10576:10585   */\n      dup4\n        /* \"#utility.yul\":10572:10589   */\n      add\n        /* \"#utility.yul\":10563:10569   */\n      dup5\n        /* \"#utility.yul\":10519:10590   */\n      tag_133\n      jump\t// in\n    tag_291:\n        /* \"#utility.yul\":10375:10597   */\n      swap3\n      swap2\n      pop\n      pop\n      jump\t// out\n        /* \"#utility.yul\":10603:10785   */\n    tag_154:\n        /* \"#utility.yul\":10743:10777   */\n      0x42657420416d6f756e74206973206c657373207468616e207265717569726564\n        /* \"#utility.yul\":10739:10740   */\n      0x00\n        /* \"#utility.yul\":10731:10737   */\n      dup3\n        /* \"#utility.yul\":10727:10741   */\n      add\n        /* \"#utility.yul\":10720:10778   */\n      mstore\n        /* \"#utility.yul\":10603:10785   */\n      pop\n      jump\t// out\n        /* \"#utility.yul\":10791:11157   */\n    tag_155:\n        /* \"#utility.yul\":10933:10936   */\n      0x00\n        /* \"#utility.yul\":10954:11021   */\n      tag_294\n        /* \"#utility.yul\":11018:11020   */\n      0x20\n        /* \"#utility.yul\":11013:11016   */\n      dup4\n        /* \"#utility.yul\":10954:11021   */\n      tag_140\n      jump\t// in\n    tag_294:\n        /* \"#utility.yul\":10947:11021   */\n      swap2\n      pop\n        /* \"#utility.yul\":11030:11123   */\n      tag_295\n        /* \"#utility.yul\":11119:11122   */\n      dup3\n        /* \"#utility.yul\":11030:11123   */\n      tag_154\n      jump\t// in\n    tag_295:\n        /* \"#utility.yul\":11148:11150   */\n      0x20\n        /* \"#utility.yul\":11143:11146   */\n      dup3\n        /* \"#utility.yul\":11139:11151   */\n      add\n        /* \"#utility.yul\":11132:11151   */\n      swap1\n      pop\n        /* \"#utility.yul\":10791:11157   */\n      swap2\n      swap1\n      pop\n      jump\t// out\n        /* \"#utility.yul\":11163:11582   */\n    tag_60:\n        /* \"#utility.yul\":11329:11333   */\n      0x00\n        /* \"#utility.yul\":11367:11369   */\n      0x20\n        /* \"#utility.yul\":11356:11365   */\n      dup3\n        /* \"#utility.yul\":11352:11370   */\n      add\n        /* \"#utility.yul\":11344:11370   */\n      swap1\n      pop\n        /* \"#utility.yul\":11416:11425   */\n      dup2\n        /* \"#utility.yul\":11410:11414   */\n      dup2\n        /* \"#utility.yul\":11406:11426   */\n      sub\n        /* \"#utility.yul\":11402:11403   */\n      0x00\n        /* \"#utility.yul\":11391:11400   */\n      dup4\n        /* \"#utility.yul\":11387:11404   */\n      add\n        /* \"#utility.yul\":11380:11427   */\n      mstore\n        /* \"#utility.yul\":11444:11575   */\n      tag_297\n        /* \"#utility.yul\":11570:11574   */\n      dup2\n        /* \"#utility.yul\":11444:11575   */\n      tag_155\n      jump\t// in\n    tag_297:\n        /* \"#utility.yul\":11436:11575   */\n      swap1\n      pop\n        /* \"#utility.yul\":11163:11582   */\n      swap2\n      swap1\n      pop\n      jump\t// out\n        /* \"#utility.yul\":11588:11768   */\n    tag_70:\n        /* \"#utility.yul\":11636:11713   */\n      0x4e487b7100000000000000000000000000000000000000000000000000000000\n        /* \"#utility.yul\":11633:11634   */\n      0x00\n        /* \"#utility.yul\":11626:11714   */\n      mstore\n        /* \"#utility.yul\":11733:11737   */\n      0x32\n        /* \"#utility.yul\":11730:11731   */\n      0x04\n        /* \"#utility.yul\":11723:11738   */\n      mstore\n        /* \"#utility.yul\":11757:11761   */\n      0x24\n        /* \"#utility.yul\":11754:11755   */\n      0x00\n        /* \"#utility.yul\":11747:11762   */\n      revert\n        /* \"#utility.yul\":11774:11954   */\n    tag_156:\n        /* \"#utility.yul\":11822:11899   */\n      0x4e487b7100000000000000000000000000000000000000000000000000000000\n        /* \"#utility.yul\":11819:11820   */\n      0x00\n        /* \"#utility.yul\":11812:11900   */\n      mstore\n        /* \"#utility.yul\":11919:11923   */\n      0x22\n        /* \"#utility.yul\":11916:11917   */\n      0x04\n        /* \"#utility.yul\":11909:11924   */\n      mstore\n        /* \"#utility.yul\":11943:11947   */\n      0x24\n        /* \"#utility.yul\":11940:11941   */\n      0x00\n        /* \"#utility.yul\":11933:11948   */\n      revert\n        /* \"#utility.yul\":11960:12280   */\n    tag_77:\n        /* \"#utility.yul\":12004:12010   */\n      0x00\n        /* \"#utility.yul\":12041:12042   */\n      0x02\n        /* \"#utility.yul\":12035:12039   */\n      dup3\n        /* \"#utility.yul\":12031:12043   */\n      div\n        /* \"#utility.yul\":12021:12043   */\n      swap1\n      pop\n        /* \"#utility.yul\":12088:12089   */\n      0x01\n        /* \"#utility.yul\":12082:12086   */\n      dup3\n        /* \"#utility.yul\":12078:12090   */\n      and\n        /* \"#utility.yul\":12109:12127   */\n      dup1\n        /* \"#utility.yul\":12099:12180   */\n      tag_301\n      jumpi\n        /* \"#utility.yul\":12165:12169   */\n      0x7f\n        /* \"#utility.yul\":12157:12163   */\n      dup3\n        /* \"#utility.yul\":12153:12170   */\n      and\n        /* \"#utility.yul\":12143:12170   */\n      swap2\n      pop\n        /* \"#utility.yul\":12099:12180   */\n    tag_301:\n        /* \"#utility.yul\":12227:12229   */\n      0x20\n        /* \"#utility.yul\":12219:12225   */\n      dup3\n        /* \"#utility.yul\":12216:12230   */\n      lt\n        /* \"#utility.yul\":12196:12214   */\n      dup2\n        /* \"#utility.yul\":12193:12231   */\n      sub\n        /* \"#utility.yul\":12190:12274   */\n      tag_302\n      jumpi\n        /* \"#utility.yul\":12246:12264   */\n      tag_303\n      tag_156\n      jump\t// in\n    tag_303:\n        /* \"#utility.yul\":12190:12274   */\n    tag_302:\n        /* \"#utility.yul\":12011:12280   */\n      pop\n        /* \"#utility.yul\":11960:12280   */\n      swap2\n      swap1\n      pop\n      jump\t// out\n        /* \"#utility.yul\":12286:12445   */\n    tag_157:\n        /* \"#utility.yul\":12426:12437   */\n      0x4e6f74204f776e65720000000000000000000000000000000000000000000000\n        /* \"#utility.yul\":12422:12423   */\n      0x00\n        /* \"#utility.yul\":12414:12420   */\n      dup3\n        /* \"#utility.yul\":12410:12424   */\n      add\n        /* \"#utility.yul\":12403:12438   */\n      mstore\n        /* \"#utility.yul\":12286:12445   */\n      pop\n      jump\t// out\n        /* \"#utility.yul\":12451:12816   */\n    tag_158:\n        /* \"#utility.yul\":12593:12596   */\n      0x00\n        /* \"#utility.yul\":12614:12680   */\n      tag_306\n        /* \"#utility.yul\":12678:12679   */\n      0x09\n        /* \"#utility.yul\":12673:12676   */\n      dup4\n        /* \"#utility.yul\":12614:12680   */\n      tag_140\n      jump\t// in\n    tag_306:\n        /* \"#utility.yul\":12607:12680   */\n      swap2\n      pop\n        /* \"#utility.yul\":12689:12782   */\n      tag_307\n        /* \"#utility.yul\":12778:12781   */\n      dup3\n        /* \"#utility.yul\":12689:12782   */\n      tag_157\n      jump\t// in\n    tag_307:\n        /* \"#utility.yul\":12807:12809   */\n      0x20\n        /* \"#utility.yul\":12802:12805   */\n      dup3\n        /* \"#utility.yul\":12798:12810   */\n      add\n        /* \"#utility.yul\":12791:12810   */\n      swap1\n      pop\n        /* \"#utility.yul\":12451:12816   */\n      swap2\n      swap1\n      pop\n      jump\t// out\n        /* \"#utility.yul\":12822:13241   */\n    tag_102:\n        /* \"#utility.yul\":12988:12992   */\n      0x00\n        /* \"#utility.yul\":13026:13028   */\n      0x20\n        /* \"#utility.yul\":13015:13024   */\n      dup3\n        /* \"#utility.yul\":13011:13029   */\n      add\n        /* \"#utility.yul\":13003:13029   */\n      swap1\n      pop\n        /* \"#utility.yul\":13075:13084   */\n      dup2\n        /* \"#utility.yul\":13069:13073   */\n      dup2\n        /* \"#utility.yul\":13065:13085   */\n      sub\n        /* \"#utility.yul\":13061:13062   */\n      0x00\n        /* \"#utility.yul\":13050:13059   */\n      dup4\n        /* \"#utility.yul\":13046:13063   */\n      add\n        /* \"#utility.yul\":13039:13086   */\n      mstore\n        /* \"#utility.yul\":13103:13234   */\n      tag_309\n        /* \"#utility.yul\":13229:13233   */\n      dup2\n        /* \"#utility.yul\":13103:13234   */\n      tag_158\n      jump\t// in\n    tag_309:\n        /* \"#utility.yul\":13095:13234   */\n      swap1\n      pop\n        /* \"#utility.yul\":12822:13241   */\n      swap2\n      swap1\n      pop\n      jump\t// out\n        /* \"#utility.yul\":13247:13427   */\n    tag_159:\n        /* \"#utility.yul\":13295:13372   */\n      0x4e487b7100000000000000000000000000000000000000000000000000000000\n        /* \"#utility.yul\":13292:13293   */\n      0x00\n        /* \"#utility.yul\":13285:13373   */\n      mstore\n        /* \"#utility.yul\":13392:13396   */\n      0x11\n        /* \"#utility.yul\":13389:13390   */\n      0x04\n        /* \"#utility.yul\":13382:13397   */\n      mstore\n        /* \"#utility.yul\":13416:13420   */\n      0x24\n        /* \"#utility.yul\":13413:13414   */\n      0x00\n        /* \"#utility.yul\":13406:13421   */\n      revert\n        /* \"#utility.yul\":13433:13624   */\n    tag_104:\n        /* \"#utility.yul\":13473:13476   */\n      0x00\n        /* \"#utility.yul\":13492:13512   */\n      tag_312\n        /* \"#utility.yul\":13510:13511   */\n      dup3\n        /* \"#utility.yul\":13492:13512   */\n      tag_126\n      jump\t// in\n    tag_312:\n        /* \"#utility.yul\":13487:13512   */\n      swap2\n      pop\n        /* \"#utility.yul\":13526:13546   */\n      tag_313\n        /* \"#utility.yul\":13544:13545   */\n      dup4\n        /* \"#utility.yul\":13526:13546   */\n      tag_126\n      jump\t// in\n    tag_313:\n        /* \"#utility.yul\":13521:13546   */\n      swap3\n      pop\n        /* \"#utility.yul\":13569:13570   */\n      dup3\n        /* \"#utility.yul\":13566:13567   */\n      dup3\n        /* \"#utility.yul\":13562:13571   */\n      add\n        /* \"#utility.yul\":13555:13571   */\n      swap1\n      pop\n        /* \"#utility.yul\":13590:13593   */\n      dup1\n        /* \"#utility.yul\":13587:13588   */\n      dup3\n        /* \"#utility.yul\":13584:13594   */\n      gt\n        /* \"#utility.yul\":13581:13617   */\n      iszero\n      tag_314\n      jumpi\n        /* \"#utility.yul\":13597:13615   */\n      tag_315\n      tag_159\n      jump\t// in\n    tag_315:\n        /* \"#utility.yul\":13581:13617   */\n    tag_314:\n        /* \"#utility.yul\":13433:13624   */\n      swap3\n      swap2\n      pop\n      pop\n      jump\t// out\n        /* \"#utility.yul\":13630:13810   */\n    tag_160:\n        /* \"#utility.yul\":13678:13755   */\n      0x4e487b7100000000000000000000000000000000000000000000000000000000\n        /* \"#utility.yul\":13675:13676   */\n      0x00\n        /* \"#utility.yul\":13668:13756   */\n      mstore\n        /* \"#utility.yul\":13775:13779   */\n      0x41\n        /* \"#utility.yul\":13772:13773   */\n      0x04\n        /* \"#utility.yul\":13765:13780   */\n      mstore\n        /* \"#utility.yul\":13799:13803   */\n      0x24\n        /* \"#utility.yul\":13796:13797   */\n      0x00\n        /* \"#utility.yul\":13789:13804   */\n      revert\n        /* \"#utility.yul\":13816:13957   */\n    tag_161:\n        /* \"#utility.yul\":13865:13869   */\n      0x00\n        /* \"#utility.yul\":13888:13891   */\n      dup2\n        /* \"#utility.yul\":13880:13891   */\n      swap1\n      pop\n        /* \"#utility.yul\":13911:13914   */\n      dup2\n        /* \"#utility.yul\":13908:13909   */\n      0x00\n        /* \"#utility.yul\":13901:13915   */\n      mstore\n        /* \"#utility.yul\":13945:13949   */\n      0x20\n        /* \"#utility.yul\":13942:13943   */\n      0x00\n        /* \"#utility.yul\":13932:13950   */\n      keccak256\n        /* \"#utility.yul\":13924:13950   */\n      swap1\n      pop\n        /* \"#utility.yul\":13816:13957   */\n      swap2\n      swap1\n      pop\n      jump\t// out\n        /* \"#utility.yul\":13963:14056   */\n    tag_162:\n        /* \"#utility.yul\":14000:14006   */\n      0x00\n        /* \"#utility.yul\":14047:14049   */\n      0x20\n        /* \"#utility.yul\":14042:14044   */\n      0x1f\n        /* \"#utility.yul\":14035:14040   */\n      dup4\n        /* \"#utility.yul\":14031:14045   */\n      add\n        /* \"#utility.yul\":14027:14050   */\n      div\n        /* \"#utility.yul\":14017:14050   */\n      swap1\n      pop\n        /* \"#utility.yul\":13963:14056   */\n      swap2\n      swap1\n      pop\n      jump\t// out\n        /* \"#utility.yul\":14062:14169   */\n    tag_163:\n        /* \"#utility.yul\":14106:14114   */\n      0x00\n        /* \"#utility.yul\":14156:14161   */\n      dup3\n        /* \"#utility.yul\":14150:14154   */\n      dup3\n        /* \"#utility.yul\":14146:14162   */\n      shl\n        /* \"#utility.yul\":14125:14162   */\n      swap1\n      pop\n        /* \"#utility.yul\":14062:14169   */\n      swap3\n      swap2\n      pop\n      pop\n      jump\t// out\n        /* \"#utility.yul\":14175:14568   */\n    tag_164:\n        /* \"#utility.yul\":14244:14250   */\n      0x00\n        /* \"#utility.yul\":14294:14295   */\n      0x08\n        /* \"#utility.yul\":14282:14292   */\n      dup4\n        /* \"#utility.yul\":14278:14296   */\n      mul\n        /* \"#utility.yul\":14317:14414   */\n      tag_321\n        /* \"#utility.yul\":14347:14413   */\n      0xffffffffffffffffffffffffffffffffffffffffffffffffffffffffffffffff\n        /* \"#utility.yul\":14336:14345   */\n      dup3\n        /* \"#utility.yul\":14317:14414   */\n      tag_163\n      jump\t// in\n    tag_321:\n        /* \"#utility.yul\":14435:14474   */\n      tag_322\n        /* \"#utility.yul\":14465:14473   */\n      dup7\n        /* \"#utility.yul\":14454:14463   */\n      dup4\n        /* \"#utility.yul\":14435:14474   */\n      tag_163\n      jump\t// in\n    tag_322:\n        /* \"#utility.yul\":14423:14474   */\n      swap6\n      pop\n        /* \"#utility.yul\":14507:14511   */\n      dup1\n        /* \"#utility.yul\":14503:14512   */\n      not\n        /* \"#utility.yul\":14496:14501   */\n      dup5\n        /* \"#utility.yul\":14492:14513   */\n      and\n        /* \"#utility.yul\":14483:14513   */\n      swap4\n      pop\n        /* \"#utility.yul\":14556:14560   */\n      dup1\n        /* \"#utility.yul\":14546:14554   */\n      dup7\n        /* \"#utility.yul\":14542:14561   */\n      and\n        /* \"#utility.yul\":14535:14540   */\n      dup5\n        /* \"#utility.yul\":14532:14562   */\n      or\n        /* \"#utility.yul\":14522:14562   */\n      swap3\n      pop\n        /* \"#utility.yul\":14251:14568   */\n      pop\n      pop\n        /* \"#utility.yul\":14175:14568   */\n      swap4\n      swap3\n      pop\n      pop\n      pop\n      jump\t// out\n        /* \"#utility.yul\":14574:14634   */\n    tag_165:\n        /* \"#utility.yul\":14602:14605   */\n      0x00\n        /* \"#utility.yul\":14623:14628   */\n      dup2\n        /* \"#utility.yul\":14616:14628   */\n      swap1\n      pop\n        /* \"#utility.yul\":14574:14634   */\n      swap2\n      swap1\n      pop\n      jump\t// out\n        /* \"#utility.yul\":14640:14782   */\n    tag_166:\n        /* \"#utility.yul\":14690:14699   */\n      0x00\n        /* \"#utility.yul\":14723:14776   */\n      tag_325\n        /* \"#utility.yul\":14741:14775   */\n      tag_326\n        /* \"#utility.yul\":14750:14774   */\n      tag_327\n        /* \"#utility.yul\":14768:14773   */\n      dup5\n        /* \"#utility.yul\":14750:14774   */\n      tag_126\n      jump\t// in\n    tag_327:\n        /* \"#utility.yul\":14741:14775   */\n      tag_165\n      jump\t// in\n    tag_326:\n        /* \"#utility.yul\":14723:14776   */\n      tag_126\n      jump\t// in\n    tag_325:\n        /* \"#utility.yul\":14710:14776   */\n      swap1\n      pop\n        /* \"#utility.yul\":14640:14782   */\n      swap2\n      swap1\n      pop\n      jump\t// out\n        /* \"#utility.yul\":14788:14863   */\n    tag_167:\n        /* \"#utility.yul\":14831:14834   */\n      0x00\n        /* \"#utility.yul\":14852:14857   */\n      dup2\n        /* \"#utility.yul\":14845:14857   */\n      swap1\n      pop\n        /* \"#utility.yul\":14788:14863   */\n      swap2\n      swap1\n      pop\n      jump\t// out\n        /* \"#utility.yul\":14869:15138   */\n    tag_168:\n        /* \"#utility.yul\":14979:15018   */\n      tag_330\n        /* \"#utility.yul\":15010:15017   */\n      dup4\n        /* \"#utility.yul\":14979:15018   */\n      tag_166\n      jump\t// in\n    tag_330:\n        /* \"#utility.yul\":15040:15131   */\n      tag_331\n        /* \"#utility.yul\":15089:15130   */\n      tag_332\n        /* \"#utility.yul\":15113:15129   */\n      dup3\n        /* \"#utility.yul\":15089:15130   */\n      tag_167\n      jump\t// in\n    tag_332:\n        /* \"#utility.yul\":15081:15087   */\n      dup5\n        /* \"#utility.yul\":15074:15078   */\n      dup5\n        /* \"#utility.yul\":15068:15079   */\n      sload\n        /* \"#utility.yul\":15040:15131   */\n      tag_164\n      jump\t// in\n    tag_331:\n        /* \"#utility.yul\":15034:15038   */\n      dup3\n        /* \"#utility.yul\":15027:15132   */\n      sstore\n        /* \"#utility.yul\":14945:15138   */\n      pop\n        /* \"#utility.yul\":14869:15138   */\n      pop\n      pop\n      pop\n      jump\t// out\n        /* \"#utility.yul\":15144:15217   */\n    tag_169:\n        /* \"#utility.yul\":15189:15192   */\n      0x00\n        /* \"#utility.yul\":15144:15217   */\n      swap1\n      jump\t// out\n        /* \"#utility.yul\":15223:15412   */\n    tag_170:\n        /* \"#utility.yul\":15300:15332   */\n      tag_335\n      tag_169\n      jump\t// in\n    tag_335:\n        /* \"#utility.yul\":15341:15406   */\n      tag_336\n        /* \"#utility.yul\":15399:15405   */\n      dup2\n        /* \"#utility.yul\":15391:15397   */\n      dup5\n        /* \"#utility.yul\":15385:15389   */\n      dup5\n        /* \"#utility.yul\":15341:15406   */\n      tag_168\n      jump\t// in\n    tag_336:\n        /* \"#utility.yul\":15276:15412   */\n      pop\n        /* \"#utility.yul\":15223:15412   */\n      pop\n      pop\n      jump\t// out\n        /* \"#utility.yul\":15418:15604   */\n    tag_171:\n        /* \"#utility.yul\":15478:15598   */\n    tag_338:\n        /* \"#utility.yul\":15495:15498   */\n      dup2\n        /* \"#utility.yul\":15488:15493   */\n      dup2\n        /* \"#utility.yul\":15485:15499   */\n      lt\n        /* \"#utility.yul\":15478:15598   */\n      iszero\n      tag_340\n      jumpi\n        /* \"#utility.yul\":15549:15588   */\n      tag_341\n        /* \"#utility.yul\":15586:15587   */\n      0x00\n        /* \"#utility.yul\":15579:15584   */\n      dup3\n        /* \"#utility.yul\":15549:15588   */\n      tag_170\n      jump\t// in\n    tag_341:\n        /* \"#utility.yul\":15522:15523   */\n      0x01\n        /* \"#utility.yul\":15515:15520   */\n      dup2\n        /* \"#utility.yul\":15511:15524   */\n      add\n        /* \"#utility.yul\":15502:15524   */\n      swap1\n      pop\n        /* \"#utility.yul\":15478:15598   */\n      jump(tag_338)\n    tag_340:\n        /* \"#utility.yul\":15418:15604   */\n      pop\n      pop\n      jump\t// out\n        /* \"#utility.yul\":15610:16153   */\n    tag_172:\n        /* \"#utility.yul\":15711:15713   */\n      0x1f\n        /* \"#utility.yul\":15706:15709   */\n      dup3\n        /* \"#utility.yul\":15703:15714   */\n      gt\n        /* \"#utility.yul\":15700:16146   */\n      iszero\n      tag_343\n      jumpi\n        /* \"#utility.yul\":15745:15783   */\n      tag_344\n        /* \"#utility.yul\":15777:15782   */\n      dup2\n        /* \"#utility.yul\":15745:15783   */\n      tag_161\n      jump\t// in\n    tag_344:\n        /* \"#utility.yul\":15829:15858   */\n      tag_345\n        /* \"#utility.yul\":15847:15857   */\n      dup5\n        /* \"#utility.yul\":15829:15858   */\n      tag_162\n      jump\t// in\n    tag_345:\n        /* \"#utility.yul\":15819:15827   */\n      dup2\n        /* \"#utility.yul\":15815:15859   */\n      add\n        /* \"#utility.yul\":16012:16014   */\n      0x20\n        /* \"#utility.yul\":16000:16010   */\n      dup6\n        /* \"#utility.yul\":15997:16015   */\n      lt\n        /* \"#utility.yul\":15994:16043   */\n      iszero\n      tag_346\n      jumpi\n        /* \"#utility.yul\":16033:16041   */\n      dup2\n        /* \"#utility.yul\":16018:16041   */\n      swap1\n      pop\n        /* \"#utility.yul\":15994:16043   */\n    tag_346:\n        /* \"#utility.yul\":16056:16136   */\n      tag_347\n        /* \"#utility.yul\":16112:16134   */\n      tag_348\n        /* \"#utility.yul\":16130:16133   */\n      dup6\n        /* \"#utility.yul\":16112:16134   */\n      tag_162\n      jump\t// in\n    tag_348:\n        /* \"#utility.yul\":16102:16110   */\n      dup4\n        /* \"#utility.yul\":16098:16135   */\n      add\n        /* \"#utility.yul\":16085:16096   */\n      dup3\n        /* \"#utility.yul\":16056:16136   */\n      tag_171\n      jump\t// in\n    tag_347:\n        /* \"#utility.yul\":15715:16146   */\n      pop\n      pop\n        /* \"#utility.yul\":15700:16146   */\n    tag_343:\n        /* \"#utility.yul\":15610:16153   */\n      pop\n      pop\n      pop\n      jump\t// out\n        /* \"#utility.yul\":16159:16276   */\n    tag_173:\n        /* \"#utility.yul\":16213:16221   */\n      0x00\n        /* \"#utility.yul\":16263:16268   */\n      dup3\n        /* \"#utility.yul\":16257:16261   */\n      dup3\n        /* \"#utility.yul\":16253:16269   */\n      shr\n        /* \"#utility.yul\":16232:16269   */\n      swap1\n      pop\n        /* \"#utility.yul\":16159:16276   */\n      swap3\n      swap2\n      pop\n      pop\n      jump\t// out\n        /* \"#utility.yul\":16282:16451   */\n    tag_174:\n        /* \"#utility.yul\":16326:16332   */\n      0x00\n        /* \"#utility.yul\":16359:16410   */\n      tag_351\n        /* \"#utility.yul\":16407:16408   */\n      0x00\n        /* \"#utility.yul\":16403:16409   */\n      not\n        /* \"#utility.yul\":16395:16400   */\n      dup5\n        /* \"#utility.yul\":16392:16393   */\n      0x08\n        /* \"#utility.yul\":16388:16401   */\n      mul\n        /* \"#utility.yul\":16359:16410   */\n      tag_173\n      jump\t// in\n    tag_351:\n        /* \"#utility.yul\":16355:16411   */\n      not\n        /* \"#utility.yul\":16440:16444   */\n      dup1\n        /* \"#utility.yul\":16434:16438   */\n      dup4\n        /* \"#utility.yul\":16430:16445   */\n      and\n        /* \"#utility.yul\":16420:16445   */\n      swap2\n      pop\n        /* \"#utility.yul\":16333:16451   */\n      pop\n        /* \"#utility.yul\":16282:16451   */\n      swap3\n      swap2\n      pop\n      pop\n      jump\t// out\n        /* \"#utility.yul\":16456:16751   */\n    tag_175:\n        /* \"#utility.yul\":16532:16536   */\n      0x00\n        /* \"#utility.yul\":16678:16707   */\n      tag_353\n        /* \"#utility.yul\":16703:16706   */\n      dup4\n        /* \"#utility.yul\":16697:16701   */\n      dup4\n        /* \"#utility.yul\":16678:16707   */\n      tag_174\n      jump\t// in\n    tag_353:\n        /* \"#utility.yul\":16670:16707   */\n      swap2\n      pop\n        /* \"#utility.yul\":16740:16743   */\n      dup3\n        /* \"#utility.yul\":16737:16738   */\n      0x02\n        /* \"#utility.yul\":16733:16744   */\n      mul\n        /* \"#utility.yul\":16727:16731   */\n      dup3\n        /* \"#utility.yul\":16724:16745   */\n      or\n        /* \"#utility.yul\":16716:16745   */\n      swap1\n      pop\n        /* \"#utility.yul\":16456:16751   */\n      swap3\n      swap2\n      pop\n      pop\n      jump\t// out\n        /* \"#utility.yul\":16756:18151   */\n    tag_106:\n        /* \"#utility.yul\":16873:16910   */\n      tag_355\n        /* \"#utility.yul\":16906:16909   */\n      dup3\n        /* \"#utility.yul\":16873:16910   */\n      tag_139\n      jump\t// in\n    tag_355:\n        /* \"#utility.yul\":16975:16993   */\n      0xffffffffffffffff\n        /* \"#utility.yul\":16967:16973   */\n      dup2\n        /* \"#utility.yul\":16964:16994   */\n      gt\n        /* \"#utility.yul\":16961:17017   */\n      iszero\n      tag_356\n      jumpi\n        /* \"#utility.yul\":16997:17015   */\n      tag_357\n      tag_160\n      jump\t// in\n    tag_357:\n        /* \"#utility.yul\":16961:17017   */\n    tag_356:\n        /* \"#utility.yul\":17041:17079   */\n      tag_358\n        /* \"#utility.yul\":17073:17077   */\n      dup3\n        /* \"#utility.yul\":17067:17078   */\n      sload\n        /* \"#utility.yul\":17041:17079   */\n      tag_77\n      jump\t// in\n    tag_358:\n        /* \"#utility.yul\":17126:17193   */\n      tag_359\n        /* \"#utility.yul\":17186:17192   */\n      dup3\n        /* \"#utility.yul\":17178:17184   */\n      dup3\n        /* \"#utility.yul\":17172:17176   */\n      dup6\n        /* \"#utility.yul\":17126:17193   */\n      tag_172\n      jump\t// in\n    tag_359:\n        /* \"#utility.yul\":17220:17221   */\n      0x00\n        /* \"#utility.yul\":17244:17248   */\n      0x20\n        /* \"#utility.yul\":17231:17248   */\n      swap1\n      pop\n        /* \"#utility.yul\":17276:17278   */\n      0x1f\n        /* \"#utility.yul\":17268:17274   */\n      dup4\n        /* \"#utility.yul\":17265:17279   */\n      gt\n        /* \"#utility.yul\":17293:17294   */\n      0x01\n        /* \"#utility.yul\":17288:17906   */\n      dup2\n      eq\n      tag_361\n      jumpi\n        /* \"#utility.yul\":17950:17951   */\n      0x00\n        /* \"#utility.yul\":17967:17973   */\n      dup5\n        /* \"#utility.yul\":17964:18041   */\n      iszero\n      tag_362\n      jumpi\n        /* \"#utility.yul\":18016:18025   */\n      dup3\n        /* \"#utility.yul\":18011:18014   */\n      dup8\n        /* \"#utility.yul\":18007:18026   */\n      add\n        /* \"#utility.yul\":18001:18027   */\n      mload\n        /* \"#utility.yul\":17992:18027   */\n      swap1\n      pop\n        /* \"#utility.yul\":17964:18041   */\n    tag_362:\n        /* \"#utility.yul\":18067:18134   */\n      tag_363\n        /* \"#utility.yul\":18127:18133   */\n      dup6\n        /* \"#utility.yul\":18120:18125   */\n      dup3\n        /* \"#utility.yul\":18067:18134   */\n      tag_175\n      jump\t// in\n    tag_363:\n        /* \"#utility.yul\":18061:18065   */\n      dup7\n        /* \"#utility.yul\":18054:18135   */\n      sstore\n        /* \"#utility.yul\":17923:18145   */\n      pop\n        /* \"#utility.yul\":17258:18145   */\n      jump(tag_360)\n        /* \"#utility.yul\":17288:17906   */\n    tag_361:\n        /* \"#utility.yul\":17340:17344   */\n      0x1f\n        /* \"#utility.yul\":17336:17345   */\n      not\n        /* \"#utility.yul\":17328:17334   */\n      dup5\n        /* \"#utility.yul\":17324:17346   */\n      and\n        /* \"#utility.yul\":17374:17411   */\n      tag_364\n        /* \"#utility.yul\":17406:17410   */\n      dup7\n        /* \"#utility.yul\":17374:17411   */\n      tag_161\n      jump\t// in\n    tag_364:\n        /* \"#utility.yul\":17433:17434   */\n      0x00\n        /* \"#utility.yul\":17447:17655   */\n    tag_365:\n        /* \"#utility.yul\":17461:17468   */\n      dup3\n        /* \"#utility.yul\":17458:17459   */\n      dup2\n        /* \"#utility.yul\":17455:17469   */\n      lt\n        /* \"#utility.yul\":17447:17655   */\n      iszero\n      tag_367\n      jumpi\n        /* \"#utility.yul\":17540:17549   */\n      dup5\n        /* \"#utility.yul\":17535:17538   */\n      dup10\n        /* \"#utility.yul\":17531:17550   */\n      add\n        /* \"#utility.yul\":17525:17551   */\n      mload\n        /* \"#utility.yul\":17517:17523   */\n      dup3\n        /* \"#utility.yul\":17510:17552   */\n      sstore\n        /* \"#utility.yul\":17591:17592   */\n      0x01\n        /* \"#utility.yul\":17583:17589   */\n      dup3\n        /* \"#utility.yul\":17579:17593   */\n      add\n        /* \"#utility.yul\":17569:17593   */\n      swap2\n      pop\n        /* \"#utility.yul\":17638:17640   */\n      0x20\n        /* \"#utility.yul\":17627:17636   */\n      dup6\n        /* \"#utility.yul\":17623:17641   */\n      add\n        /* \"#utility.yul\":17610:17641   */\n      swap5\n      pop\n        /* \"#utility.yul\":17484:17488   */\n      0x20\n        /* \"#utility.yul\":17481:17482   */\n      dup2\n        /* \"#utility.yul\":17477:17489   */\n      add\n        /* \"#utility.yul\":17472:17489   */\n      swap1\n      pop\n        /* \"#utility.yul\":17447:17655   */\n      jump(tag_365)\n    tag_367:\n        /* \"#utility.yul\":17683:17689   */\n      dup7\n        /* \"#utility.yul\":17674:17681   */\n      dup4\n        /* \"#utility.yul\":17671:17690   */\n      lt\n        /* \"#utility.yul\":17668:17847   */\n      iszero\n      tag_368\n      jumpi\n        /* \"#utility.yul\":17741:17750   */\n      dup5\n        /* \"#utility.yul\":17736:17739   */\n      dup10\n        /* \"#utility.yul\":17732:17751   */\n      add\n        /* \"#utility.yul\":17726:17752   */\n      mload\n        /* \"#utility.yul\":17784:17832   */\n      tag_369\n        /* \"#utility.yul\":17826:17830   */\n      0x1f\n        /* \"#utility.yul\":17818:17824   */\n      dup10\n        /* \"#utility.yul\":17814:17831   */\n      and\n        /* \"#utility.yul\":17803:17812   */\n      dup3\n        /* \"#utility.yul\":17784:17832   */\n      tag_174\n      jump\t// in\n    tag_369:\n        /* \"#utility.yul\":17776:17782   */\n      dup4\n        /* \"#utility.yul\":17769:17833   */\n      sstore\n        /* \"#utility.yul\":17691:17847   */\n      pop\n        /* \"#utility.yul\":17668:17847   */\n    tag_368:\n        /* \"#utility.yul\":17893:17894   */\n      0x01\n        /* \"#utility.yul\":17889:17890   */\n      0x02\n        /* \"#utility.yul\":17881:17887   */\n      dup9\n        /* \"#utility.yul\":17877:17891   */\n      mul\n        /* \"#utility.yul\":17873:17895   */\n      add\n        /* \"#utility.yul\":17867:17871   */\n      dup9\n        /* \"#utility.yul\":17860:17896   */\n      sstore\n        /* \"#utility.yul\":17295:17906   */\n      pop\n      pop\n      pop\n        /* \"#utility.yul\":17258:18145   */\n    tag_360:\n      pop\n        /* \"#utility.yul\":16848:18151   */\n      pop\n      pop\n      pop\n        /* \"#utility.yul\":16756:18151   */\n      pop\n      pop\n      jump\t// out\n        /* \"#utility.yul\":18157:18324   */\n    tag_176:\n        /* \"#utility.yul\":18297:18316   */\n      0x4d61746368206973207374696c6c206f6e000000000000000000000000000000\n        /* \"#utility.yul\":18293:18294   */\n      0x00\n        /* \"#utility.yul\":18285:18291   */\n      dup3\n        /* \"#utility.yul\":18281:18295   */\n      add\n        /* \"#utility.yul\":18274:18317   */\n      mstore\n        /* \"#utility.yul\":18157:18324   */\n      pop\n      jump\t// out\n        /* \"#utility.yul\":18330:18696   */\n    tag_177:\n        /* \"#utility.yul\":18472:18475   */\n      0x00\n        /* \"#utility.yul\":18493:18560   */\n      tag_372\n        /* \"#utility.yul\":18557:18559   */\n      0x11\n        /* \"#utility.yul\":18552:18555   */\n      dup4\n        /* \"#utility.yul\":18493:18560   */\n      tag_140\n      jump\t// in\n    tag_372:\n        /* \"#utility.yul\":18486:18560   */\n      swap2\n      pop\n        /* \"#utility.yul\":18569:18662   */\n      tag_373\n        /* \"#utility.yul\":18658:18661   */\n      dup3\n        /* \"#utility.yul\":18569:18662   */\n      tag_176\n      jump\t// in\n    tag_373:\n        /* \"#utility.yul\":18687:18689   */\n      0x20\n        /* \"#utility.yul\":18682:18685   */\n      dup3\n        /* \"#utility.yul\":18678:18690   */\n      add\n        /* \"#utility.yul\":18671:18690   */\n      swap1\n      pop\n        /* \"#utility.yul\":18330:18696   */\n      swap2\n      swap1\n      pop\n      jump\t// out\n        /* \"#utility.yul\":18702:19121   */\n    tag_119:\n        /* \"#utility.yul\":18868:18872   */\n      0x00\n        /* \"#utility.yul\":18906:18908   */\n      0x20\n        /* \"#utility.yul\":18895:18904   */\n      dup3\n        /* \"#utility.yul\":18891:18909   */\n      add\n        /* \"#utility.yul\":18883:18909   */\n      swap1\n      pop\n        /* \"#utility.yul\":18955:18964   */\n      dup2\n        /* \"#utility.yul\":18949:18953   */\n      dup2\n        /* \"#utility.yul\":18945:18965   */\n      sub\n        /* \"#utility.yul\":18941:18942   */\n      0x00\n        /* \"#utility.yul\":18930:18939   */\n      dup4\n        /* \"#utility.yul\":18926:18943   */\n      add\n        /* \"#utility.yul\":18919:18966   */\n      mstore\n        /* \"#utility.yul\":18983:19114   */\n      tag_375\n        /* \"#utility.yul\":19109:19113   */\n      dup2\n        /* \"#utility.yul\":18983:19114   */\n      tag_177\n      jump\t// in\n    tag_375:\n        /* \"#utility.yul\":18975:19114   */\n      swap1\n      pop\n        /* \"#utility.yul\":18702:19121   */\n      swap2\n      swap1\n      pop\n      jump\t// out\n\n    auxdata: 0xa26469706673582212200aab356d1f6f1ffef1ac056c71affa7898f5fbac83cf2ec06de5b497e176a3ea64736f6c63430008110033\n}\n",
				"bytecode": {
					"linkReferences": {},
					"object": "608060405234801561001057600080fd5b50336000806101000a81548173ffffffffffffffffffffffffffffffffffffffff021916908373ffffffffffffffffffffffffffffffffffffffff1602179055506116ea806100606000396000f3fe60806040526004361061007b5760003560e01c8063b2edb39f1161004e578063b2edb39f1461015b578063bc9e6e2c1461019c578063ec7361a8146101d9578063f851a440146102025761007b565b806303edf9141461008057806315a3ae711461009c5780632172ff16146100db5780634195ab8e1461011c575b600080fd5b61009a60048036038101906100959190610cf6565b61022d565b005b3480156100a857600080fd5b506100c360048036038101906100be9190610d36565b61042f565b6040516100d293929190610e2a565b60405180910390f35b3480156100e757600080fd5b5061010260048036038101906100fd9190610d36565b610496565b604051610113959493929190610f2f565b60405180910390f35b34801561012857600080fd5b50610143600480360381019061013e9190610fbc565b6105fa565b60405161015293929190610ffc565b60405180910390f35b34801561016757600080fd5b50610182600480360381019061017d9190610d36565b61063e565b604051610193959493929190610f2f565b60405180910390f35b3480156101a857600080fd5b506101c360048036038101906101be9190611098565b6107b2565b6040516101d09190611148565b60405180910390f35b3480156101e557600080fd5b5061020060048036038101906101fb9190611163565b610ae7565b005b34801561020e57600080fd5b50610217610c6d565b60405161022491906111b6565b60405180910390f35b670de0b6b3a76400003414610277576040517f08c379a000000000000000000000000000000000000000000000000000000000815260040161026e9061121d565b60405180910390fd5b6000349050604051806060016040528083600381111561029a57610299610db3565b5b81526020016000815260200182815250600260003373ffffffffffffffffffffffffffffffffffffffff1673ffffffffffffffffffffffffffffffffffffffff168152602001908152602001600020600085815260200190815260200160002060008201518160000160006101000a81548160ff0219169083600381111561032557610324610db3565b5b0217905550602082015181600101556040820151816002015590505060405180606001604052803373ffffffffffffffffffffffffffffffffffffffff16815260200182815260200183600381111561038157610380610db3565b5b815250600484815481106103985761039761123d565b5b906000526020600020906003020160008201518160000160006101000a81548173ffffffffffffffffffffffffffffffffffffffff021916908373ffffffffffffffffffffffffffffffffffffffff1602179055506020820151816001015560408201518160020160006101000a81548160ff0219169083600381111561042257610421610db3565b5b0217905550905050505050565b6004818154811061043f57600080fd5b90600052602060002090600302016000915090508060000160009054906101000a900473ffffffffffffffffffffffffffffffffffffffff16908060010154908060020160009054906101000a900460ff16905083565b60016020528060005260406000206000915090508060000180546104b99061129b565b80601f01602080910402602001604051908101604052809291908181526020018280546104e59061129b565b80156105325780601f1061050757610100808354040283529160200191610532565b820191906000526020600020905b81548152906001019060200180831161051557829003601f168201915b5050505050908060010180546105479061129b565b80601f01602080910402602001604051908101604052809291908181526020018280546105739061129b565b80156105c05780601f10610595576101008083540402835291602001916105c0565b820191906000526020600020905b8154815290600101906020018083116105a357829003601f168201915b5050505050908060020154908060030154908060040160405180604001604052908160008201548152602001600182015481525050905085565b6002602052816000526040600020602052806000526040600020600091509150508060000160009054906101000a900460ff16908060010154908060020154905083565b6003818154811061064e57600080fd5b90600052602060002090600602016000915090508060000180546106719061129b565b80601f016020809104026020016040519081016040528092919081815260200182805461069d9061129b565b80156106ea5780601f106106bf576101008083540402835291602001916106ea565b820191906000526020600020905b8154815290600101906020018083116106cd57829003601f168201915b5050505050908060010180546106ff9061129b565b80601f016020809104026020016040519081016040528092919081815260200182805461072b9061129b565b80156107785780601f1061074d57610100808354040283529160200191610778565b820191906000526020600020905b81548152906001019060200180831161075b57829003601f168201915b5050505050908060020154908060030154908060040160405180604001604052908160008201548152602001600182015481525050905085565b60003373ffffffffffffffffffffffffffffffffffffffff1660008054906101000a900473ffffffffffffffffffffffffffffffffffffffff1673ffffffffffffffffffffffffffffffffffffffff1614610842576040517f08c379a000000000000000000000000000000000000000000000000000000000815260040161083990611318565b60405180910390fd5b6000605f836108519190611367565b9050600060405180604001604052806000815260200160008152509050600060038054905090506040518060a001604052808a8a8080601f016020809104026020016040519081016040528093929190818152602001838380828437600081840152601f19601f82011690508083019250505050505050815260200188888080601f016020809104026020016040519081016040528093929190818152602001838380828437600081840152601f19601f8201169050808301925050505050505081526020018681526020018481526020018381525060016000838152602001908152602001600020600082015181600001908161094f9190611576565b5060208201518160010190816109659190611576565b5060408201518160020155606082015181600301556080820151816004016000820151816000015560208201518160010155505090505060036040518060a001604052808b8b8080601f016020809104026020016040519081016040528093929190818152602001838380828437600081840152601f19601f82011690508083019250505050505050815260200189898080601f016020809104026020016040519081016040528093929190818152602001838380828437600081840152601f19601f8201169050808301925050505050505081526020018781526020018581526020018481525090806001815401808255809150506001900390600052602060002090600602016000909190919091506000820151816000019081610a8b9190611576565b506020820151816001019081610aa19190611576565b5060408201518160020155606082015181600301556080820151816004016000820151816000015560208201518160010155505050506001935050505095945050505050565b3373ffffffffffffffffffffffffffffffffffffffff1660008054906101000a900473ffffffffffffffffffffffffffffffffffffffff1673ffffffffffffffffffffffffffffffffffffffff1614610b75576040517f08c379a0000000000000000000000000000000000000000000000000000000008152600401610b6c90611318565b60405180910390fd5b600042905060038481548110610b8e57610b8d61123d565b5b906000526020600020906006020160030154811015610be2576040517f08c379a0000000000000000000000000000000000000000000000000000000008152600401610bd990611694565b60405180910390fd5b600060405180604001604052808581526020018481525090508060038681548110610c1057610c0f61123d565b5b90600052602060002090600602016004016000820151816000015560208201518160010155905050806001600087815260200190815260200160002060040160008201518160000155602082015181600101559050505050505050565b60008054906101000a900473ffffffffffffffffffffffffffffffffffffffff1681565b600080fd5b600080fd5b6000819050919050565b610cae81610c9b565b8114610cb957600080fd5b50565b600081359050610ccb81610ca5565b92915050565b60048110610cde57600080fd5b50565b600081359050610cf081610cd1565b92915050565b60008060408385031215610d0d57610d0c610c91565b5b6000610d1b85828601610cbc565b9250506020610d2c85828601610ce1565b9150509250929050565b600060208284031215610d4c57610d4b610c91565b5b6000610d5a84828501610cbc565b91505092915050565b600073ffffffffffffffffffffffffffffffffffffffff82169050919050565b6000610d8e82610d63565b9050919050565b610d9e81610d83565b82525050565b610dad81610c9b565b82525050565b7f4e487b7100000000000000000000000000000000000000000000000000000000600052602160045260246000fd5b60048110610df357610df2610db3565b5b50565b6000819050610e0482610de2565b919050565b6000610e1482610df6565b9050919050565b610e2481610e09565b82525050565b6000606082019050610e3f6000830186610d95565b610e4c6020830185610da4565b610e596040830184610e1b565b949350505050565b600081519050919050565b600082825260208201905092915050565b60005b83811015610e9b578082015181840152602081019050610e80565b60008484015250505050565b6000601f19601f8301169050919050565b6000610ec382610e61565b610ecd8185610e6c565b9350610edd818560208601610e7d565b610ee681610ea7565b840191505092915050565b610efa81610c9b565b82525050565b604082016000820151610f166000850182610ef1565b506020820151610f296020850182610ef1565b50505050565b600060c0820190508181036000830152610f498188610eb8565b90508181036020830152610f5d8187610eb8565b9050610f6c6040830186610da4565b610f796060830185610da4565b610f866080830184610f00565b9695505050505050565b610f9981610d83565b8114610fa457600080fd5b50565b600081359050610fb681610f90565b92915050565b60008060408385031215610fd357610fd2610c91565b5b6000610fe185828601610fa7565b9250506020610ff285828601610cbc565b9150509250929050565b60006060820190506110116000830186610e1b565b61101e6020830185610da4565b61102b6040830184610da4565b949350505050565b600080fd5b600080fd5b600080fd5b60008083601f84011261105857611057611033565b5b8235905067ffffffffffffffff81111561107557611074611038565b5b6020830191508360018202830111156110915761109061103d565b5b9250929050565b6000806000806000606086880312156110b4576110b3610c91565b5b600086013567ffffffffffffffff8111156110d2576110d1610c96565b5b6110de88828901611042565b9550955050602086013567ffffffffffffffff81111561110157611100610c96565b5b61110d88828901611042565b9350935050604061112088828901610cbc565b9150509295509295909350565b60008115159050919050565b6111428161112d565b82525050565b600060208201905061115d6000830184611139565b92915050565b60008060006060848603121561117c5761117b610c91565b5b600061118a86828701610cbc565b935050602061119b86828701610cbc565b92505060406111ac86828701610cbc565b9150509250925092565b60006020820190506111cb6000830184610d95565b92915050565b7f42657420416d6f756e74206973206c657373207468616e207265717569726564600082015250565b6000611207602083610e6c565b9150611212826111d1565b602082019050919050565b60006020820190508181036000830152611236816111fa565b9050919050565b7f4e487b7100000000000000000000000000000000000000000000000000000000600052603260045260246000fd5b7f4e487b7100000000000000000000000000000000000000000000000000000000600052602260045260246000fd5b600060028204905060018216806112b357607f821691505b6020821081036112c6576112c561126c565b5b50919050565b7f4e6f74204f776e65720000000000000000000000000000000000000000000000600082015250565b6000611302600983610e6c565b915061130d826112cc565b602082019050919050565b60006020820190508181036000830152611331816112f5565b9050919050565b7f4e487b7100000000000000000000000000000000000000000000000000000000600052601160045260246000fd5b600061137282610c9b565b915061137d83610c9b565b925082820190508082111561139557611394611338565b5b92915050565b7f4e487b7100000000000000000000000000000000000000000000000000000000600052604160045260246000fd5b60008190508160005260206000209050919050565b60006020601f8301049050919050565b600082821b905092915050565b60006008830261142c7fffffffffffffffffffffffffffffffffffffffffffffffffffffffffffffffff826113ef565b61143686836113ef565b95508019841693508086168417925050509392505050565b6000819050919050565b600061147361146e61146984610c9b565b61144e565b610c9b565b9050919050565b6000819050919050565b61148d83611458565b6114a16114998261147a565b8484546113fc565b825550505050565b600090565b6114b66114a9565b6114c1818484611484565b505050565b5b818110156114e5576114da6000826114ae565b6001810190506114c7565b5050565b601f82111561152a576114fb816113ca565b611504846113df565b81016020851015611513578190505b61152761151f856113df565b8301826114c6565b50505b505050565b600082821c905092915050565b600061154d6000198460080261152f565b1980831691505092915050565b6000611566838361153c565b9150826002028217905092915050565b61157f82610e61565b67ffffffffffffffff8111156115985761159761139b565b5b6115a2825461129b565b6115ad8282856114e9565b600060209050601f8311600181146115e057600084156115ce578287015190505b6115d8858261155a565b865550611640565b601f1984166115ee866113ca565b60005b82811015611616578489015182556001820191506020850194506020810190506115f1565b86831015611633578489015161162f601f89168261153c565b8355505b6001600288020188555050505b505050505050565b7f4d61746368206973207374696c6c206f6e000000000000000000000000000000600082015250565b600061167e601183610e6c565b915061168982611648565b602082019050919050565b600060208201905081810360008301526116ad81611671565b905091905056fea26469706673582212200aab356d1f6f1ffef1ac056c71affa7898f5fbac83cf2ec06de5b497e176a3ea64736f6c63430008110033",
					"opcodes": "PUSH1 0x80 PUSH1 0x40 MSTORE CALLVALUE DUP1 ISZERO PUSH2 0x10 JUMPI PUSH1 0x0 DUP1 REVERT JUMPDEST POP CALLER PUSH1 0x0 DUP1 PUSH2 0x100 EXP DUP2 SLOAD DUP2 PUSH20 0xFFFFFFFFFFFFFFFFFFFFFFFFFFFFFFFFFFFFFFFF MUL NOT AND SWAP1 DUP4 PUSH20 0xFFFFFFFFFFFFFFFFFFFFFFFFFFFFFFFFFFFFFFFF AND MUL OR SWAP1 SSTORE POP PUSH2 0x16EA DUP1 PUSH2 0x60 PUSH1 0x0 CODECOPY PUSH1 0x0 RETURN INVALID PUSH1 0x80 PUSH1 0x40 MSTORE PUSH1 0x4 CALLDATASIZE LT PUSH2 0x7B JUMPI PUSH1 0x0 CALLDATALOAD PUSH1 0xE0 SHR DUP1 PUSH4 0xB2EDB39F GT PUSH2 0x4E JUMPI DUP1 PUSH4 0xB2EDB39F EQ PUSH2 0x15B JUMPI DUP1 PUSH4 0xBC9E6E2C EQ PUSH2 0x19C JUMPI DUP1 PUSH4 0xEC7361A8 EQ PUSH2 0x1D9 JUMPI DUP1 PUSH4 0xF851A440 EQ PUSH2 0x202 JUMPI PUSH2 0x7B JUMP JUMPDEST DUP1 PUSH4 0x3EDF914 EQ PUSH2 0x80 JUMPI DUP1 PUSH4 0x15A3AE71 EQ PUSH2 0x9C JUMPI DUP1 PUSH4 0x2172FF16 EQ PUSH2 0xDB JUMPI DUP1 PUSH4 0x4195AB8E EQ PUSH2 0x11C JUMPI JUMPDEST PUSH1 0x0 DUP1 REVERT JUMPDEST PUSH2 0x9A PUSH1 0x4 DUP1 CALLDATASIZE SUB DUP2 ADD SWAP1 PUSH2 0x95 SWAP2 SWAP1 PUSH2 0xCF6 JUMP JUMPDEST PUSH2 0x22D JUMP JUMPDEST STOP JUMPDEST CALLVALUE DUP1 ISZERO PUSH2 0xA8 JUMPI PUSH1 0x0 DUP1 REVERT JUMPDEST POP PUSH2 0xC3 PUSH1 0x4 DUP1 CALLDATASIZE SUB DUP2 ADD SWAP1 PUSH2 0xBE SWAP2 SWAP1 PUSH2 0xD36 JUMP JUMPDEST PUSH2 0x42F JUMP JUMPDEST PUSH1 0x40 MLOAD PUSH2 0xD2 SWAP4 SWAP3 SWAP2 SWAP1 PUSH2 0xE2A JUMP JUMPDEST PUSH1 0x40 MLOAD DUP1 SWAP2 SUB SWAP1 RETURN JUMPDEST CALLVALUE DUP1 ISZERO PUSH2 0xE7 JUMPI PUSH1 0x0 DUP1 REVERT JUMPDEST POP PUSH2 0x102 PUSH1 0x4 DUP1 CALLDATASIZE SUB DUP2 ADD SWAP1 PUSH2 0xFD SWAP2 SWAP1 PUSH2 0xD36 JUMP JUMPDEST PUSH2 0x496 JUMP JUMPDEST PUSH1 0x40 MLOAD PUSH2 0x113 SWAP6 SWAP5 SWAP4 SWAP3 SWAP2 SWAP1 PUSH2 0xF2F JUMP JUMPDEST PUSH1 0x40 MLOAD DUP1 SWAP2 SUB SWAP1 RETURN JUMPDEST CALLVALUE DUP1 ISZERO PUSH2 0x128 JUMPI PUSH1 0x0 DUP1 REVERT JUMPDEST POP PUSH2 0x143 PUSH1 0x4 DUP1 CALLDATASIZE SUB DUP2 ADD SWAP1 PUSH2 0x13E SWAP2 SWAP1 PUSH2 0xFBC JUMP JUMPDEST PUSH2 0x5FA JUMP JUMPDEST PUSH1 0x40 MLOAD PUSH2 0x152 SWAP4 SWAP3 SWAP2 SWAP1 PUSH2 0xFFC JUMP JUMPDEST PUSH1 0x40 MLOAD DUP1 SWAP2 SUB SWAP1 RETURN JUMPDEST CALLVALUE DUP1 ISZERO PUSH2 0x167 JUMPI PUSH1 0x0 DUP1 REVERT JUMPDEST POP PUSH2 0x182 PUSH1 0x4 DUP1 CALLDATASIZE SUB DUP2 ADD SWAP1 PUSH2 0x17D SWAP2 SWAP1 PUSH2 0xD36 JUMP JUMPDEST PUSH2 0x63E JUMP JUMPDEST PUSH1 0x40 MLOAD PUSH2 0x193 SWAP6 SWAP5 SWAP4 SWAP3 SWAP2 SWAP1 PUSH2 0xF2F JUMP JUMPDEST PUSH1 0x40 MLOAD DUP1 SWAP2 SUB SWAP1 RETURN JUMPDEST CALLVALUE DUP1 ISZERO PUSH2 0x1A8 JUMPI PUSH1 0x0 DUP1 REVERT JUMPDEST POP PUSH2 0x1C3 PUSH1 0x4 DUP1 CALLDATASIZE SUB DUP2 ADD SWAP1 PUSH2 0x1BE SWAP2 SWAP1 PUSH2 0x1098 JUMP JUMPDEST PUSH2 0x7B2 JUMP JUMPDEST PUSH1 0x40 MLOAD PUSH2 0x1D0 SWAP2 SWAP1 PUSH2 0x1148 JUMP JUMPDEST PUSH1 0x40 MLOAD DUP1 SWAP2 SUB SWAP1 RETURN JUMPDEST CALLVALUE DUP1 ISZERO PUSH2 0x1E5 JUMPI PUSH1 0x0 DUP1 REVERT JUMPDEST POP PUSH2 0x200 PUSH1 0x4 DUP1 CALLDATASIZE SUB DUP2 ADD SWAP1 PUSH2 0x1FB SWAP2 SWAP1 PUSH2 0x1163 JUMP JUMPDEST PUSH2 0xAE7 JUMP JUMPDEST STOP JUMPDEST CALLVALUE DUP1 ISZERO PUSH2 0x20E JUMPI PUSH1 0x0 DUP1 REVERT JUMPDEST POP PUSH2 0x217 PUSH2 0xC6D JUMP JUMPDEST PUSH1 0x40 MLOAD PUSH2 0x224 SWAP2 SWAP1 PUSH2 0x11B6 JUMP JUMPDEST PUSH1 0x40 MLOAD DUP1 SWAP2 SUB SWAP1 RETURN JUMPDEST PUSH8 0xDE0B6B3A7640000 CALLVALUE EQ PUSH2 0x277 JUMPI PUSH1 0x40 MLOAD PUSH32 0x8C379A000000000000000000000000000000000000000000000000000000000 DUP2 MSTORE PUSH1 0x4 ADD PUSH2 0x26E SWAP1 PUSH2 0x121D JUMP JUMPDEST PUSH1 0x40 MLOAD DUP1 SWAP2 SUB SWAP1 REVERT JUMPDEST PUSH1 0x0 CALLVALUE SWAP1 POP PUSH1 0x40 MLOAD DUP1 PUSH1 0x60 ADD PUSH1 0x40 MSTORE DUP1 DUP4 PUSH1 0x3 DUP2 GT ISZERO PUSH2 0x29A JUMPI PUSH2 0x299 PUSH2 0xDB3 JUMP JUMPDEST JUMPDEST DUP2 MSTORE PUSH1 0x20 ADD PUSH1 0x0 DUP2 MSTORE PUSH1 0x20 ADD DUP3 DUP2 MSTORE POP PUSH1 0x2 PUSH1 0x0 CALLER PUSH20 0xFFFFFFFFFFFFFFFFFFFFFFFFFFFFFFFFFFFFFFFF AND PUSH20 0xFFFFFFFFFFFFFFFFFFFFFFFFFFFFFFFFFFFFFFFF AND DUP2 MSTORE PUSH1 0x20 ADD SWAP1 DUP2 MSTORE PUSH1 0x20 ADD PUSH1 0x0 KECCAK256 PUSH1 0x0 DUP6 DUP2 MSTORE PUSH1 0x20 ADD SWAP1 DUP2 MSTORE PUSH1 0x20 ADD PUSH1 0x0 KECCAK256 PUSH1 0x0 DUP3 ADD MLOAD DUP2 PUSH1 0x0 ADD PUSH1 0x0 PUSH2 0x100 EXP DUP2 SLOAD DUP2 PUSH1 0xFF MUL NOT AND SWAP1 DUP4 PUSH1 0x3 DUP2 GT ISZERO PUSH2 0x325 JUMPI PUSH2 0x324 PUSH2 0xDB3 JUMP JUMPDEST JUMPDEST MUL OR SWAP1 SSTORE POP PUSH1 0x20 DUP3 ADD MLOAD DUP2 PUSH1 0x1 ADD SSTORE PUSH1 0x40 DUP3 ADD MLOAD DUP2 PUSH1 0x2 ADD SSTORE SWAP1 POP POP PUSH1 0x40 MLOAD DUP1 PUSH1 0x60 ADD PUSH1 0x40 MSTORE DUP1 CALLER PUSH20 0xFFFFFFFFFFFFFFFFFFFFFFFFFFFFFFFFFFFFFFFF AND DUP2 MSTORE PUSH1 0x20 ADD DUP3 DUP2 MSTORE PUSH1 0x20 ADD DUP4 PUSH1 0x3 DUP2 GT ISZERO PUSH2 0x381 JUMPI PUSH2 0x380 PUSH2 0xDB3 JUMP JUMPDEST JUMPDEST DUP2 MSTORE POP PUSH1 0x4 DUP5 DUP2 SLOAD DUP2 LT PUSH2 0x398 JUMPI PUSH2 0x397 PUSH2 0x123D JUMP JUMPDEST JUMPDEST SWAP1 PUSH1 0x0 MSTORE PUSH1 0x20 PUSH1 0x0 KECCAK256 SWAP1 PUSH1 0x3 MUL ADD PUSH1 0x0 DUP3 ADD MLOAD DUP2 PUSH1 0x0 ADD PUSH1 0x0 PUSH2 0x100 EXP DUP2 SLOAD DUP2 PUSH20 0xFFFFFFFFFFFFFFFFFFFFFFFFFFFFFFFFFFFFFFFF MUL NOT AND SWAP1 DUP4 PUSH20 0xFFFFFFFFFFFFFFFFFFFFFFFFFFFFFFFFFFFFFFFF AND MUL OR SWAP1 SSTORE POP PUSH1 0x20 DUP3 ADD MLOAD DUP2 PUSH1 0x1 ADD SSTORE PUSH1 0x40 DUP3 ADD MLOAD DUP2 PUSH1 0x2 ADD PUSH1 0x0 PUSH2 0x100 EXP DUP2 SLOAD DUP2 PUSH1 0xFF MUL NOT AND SWAP1 DUP4 PUSH1 0x3 DUP2 GT ISZERO PUSH2 0x422 JUMPI PUSH2 0x421 PUSH2 0xDB3 JUMP JUMPDEST JUMPDEST MUL OR SWAP1 SSTORE POP SWAP1 POP POP POP POP POP JUMP JUMPDEST PUSH1 0x4 DUP2 DUP2 SLOAD DUP2 LT PUSH2 0x43F JUMPI PUSH1 0x0 DUP1 REVERT JUMPDEST SWAP1 PUSH1 0x0 MSTORE PUSH1 0x20 PUSH1 0x0 KECCAK256 SWAP1 PUSH1 0x3 MUL ADD PUSH1 0x0 SWAP2 POP SWAP1 POP DUP1 PUSH1 0x0 ADD PUSH1 0x0 SWAP1 SLOAD SWAP1 PUSH2 0x100 EXP SWAP1 DIV PUSH20 0xFFFFFFFFFFFFFFFFFFFFFFFFFFFFFFFFFFFFFFFF AND SWAP1 DUP1 PUSH1 0x1 ADD SLOAD SWAP1 DUP1 PUSH1 0x2 ADD PUSH1 0x0 SWAP1 SLOAD SWAP1 PUSH2 0x100 EXP SWAP1 DIV PUSH1 0xFF AND SWAP1 POP DUP4 JUMP JUMPDEST PUSH1 0x1 PUSH1 0x20 MSTORE DUP1 PUSH1 0x0 MSTORE PUSH1 0x40 PUSH1 0x0 KECCAK256 PUSH1 0x0 SWAP2 POP SWAP1 POP DUP1 PUSH1 0x0 ADD DUP1 SLOAD PUSH2 0x4B9 SWAP1 PUSH2 0x129B JUMP JUMPDEST DUP1 PUSH1 0x1F ADD PUSH1 0x20 DUP1 SWAP2 DIV MUL PUSH1 0x20 ADD PUSH1 0x40 MLOAD SWAP1 DUP2 ADD PUSH1 0x40 MSTORE DUP1 SWAP3 SWAP2 SWAP1 DUP2 DUP2 MSTORE PUSH1 0x20 ADD DUP3 DUP1 SLOAD PUSH2 0x4E5 SWAP1 PUSH2 0x129B JUMP JUMPDEST DUP1 ISZERO PUSH2 0x532 JUMPI DUP1 PUSH1 0x1F LT PUSH2 0x507 JUMPI PUSH2 0x100 DUP1 DUP4 SLOAD DIV MUL DUP4 MSTORE SWAP2 PUSH1 0x20 ADD SWAP2 PUSH2 0x532 JUMP JUMPDEST DUP3 ADD SWAP2 SWAP1 PUSH1 0x0 MSTORE PUSH1 0x20 PUSH1 0x0 KECCAK256 SWAP1 JUMPDEST DUP2 SLOAD DUP2 MSTORE SWAP1 PUSH1 0x1 ADD SWAP1 PUSH1 0x20 ADD DUP1 DUP4 GT PUSH2 0x515 JUMPI DUP3 SWAP1 SUB PUSH1 0x1F AND DUP3 ADD SWAP2 JUMPDEST POP POP POP POP POP SWAP1 DUP1 PUSH1 0x1 ADD DUP1 SLOAD PUSH2 0x547 SWAP1 PUSH2 0x129B JUMP JUMPDEST DUP1 PUSH1 0x1F ADD PUSH1 0x20 DUP1 SWAP2 DIV MUL PUSH1 0x20 ADD PUSH1 0x40 MLOAD SWAP1 DUP2 ADD PUSH1 0x40 MSTORE DUP1 SWAP3 SWAP2 SWAP1 DUP2 DUP2 MSTORE PUSH1 0x20 ADD DUP3 DUP1 SLOAD PUSH2 0x573 SWAP1 PUSH2 0x129B JUMP JUMPDEST DUP1 ISZERO PUSH2 0x5C0 JUMPI DUP1 PUSH1 0x1F LT PUSH2 0x595 JUMPI PUSH2 0x100 DUP1 DUP4 SLOAD DIV MUL DUP4 MSTORE SWAP2 PUSH1 0x20 ADD SWAP2 PUSH2 0x5C0 JUMP JUMPDEST DUP3 ADD SWAP2 SWAP1 PUSH1 0x0 MSTORE PUSH1 0x20 PUSH1 0x0 KECCAK256 SWAP1 JUMPDEST DUP2 SLOAD DUP2 MSTORE SWAP1 PUSH1 0x1 ADD SWAP1 PUSH1 0x20 ADD DUP1 DUP4 GT PUSH2 0x5A3 JUMPI DUP3 SWAP1 SUB PUSH1 0x1F AND DUP3 ADD SWAP2 JUMPDEST POP POP POP POP POP SWAP1 DUP1 PUSH1 0x2 ADD SLOAD SWAP1 DUP1 PUSH1 0x3 ADD SLOAD SWAP1 DUP1 PUSH1 0x4 ADD PUSH1 0x40 MLOAD DUP1 PUSH1 0x40 ADD PUSH1 0x40 MSTORE SWAP1 DUP2 PUSH1 0x0 DUP3 ADD SLOAD DUP2 MSTORE PUSH1 0x20 ADD PUSH1 0x1 DUP3 ADD SLOAD DUP2 MSTORE POP POP SWAP1 POP DUP6 JUMP JUMPDEST PUSH1 0x2 PUSH1 0x20 MSTORE DUP2 PUSH1 0x0 MSTORE PUSH1 0x40 PUSH1 0x0 KECCAK256 PUSH1 0x20 MSTORE DUP1 PUSH1 0x0 MSTORE PUSH1 0x40 PUSH1 0x0 KECCAK256 PUSH1 0x0 SWAP2 POP SWAP2 POP POP DUP1 PUSH1 0x0 ADD PUSH1 0x0 SWAP1 SLOAD SWAP1 PUSH2 0x100 EXP SWAP1 DIV PUSH1 0xFF AND SWAP1 DUP1 PUSH1 0x1 ADD SLOAD SWAP1 DUP1 PUSH1 0x2 ADD SLOAD SWAP1 POP DUP4 JUMP JUMPDEST PUSH1 0x3 DUP2 DUP2 SLOAD DUP2 LT PUSH2 0x64E JUMPI PUSH1 0x0 DUP1 REVERT JUMPDEST SWAP1 PUSH1 0x0 MSTORE PUSH1 0x20 PUSH1 0x0 KECCAK256 SWAP1 PUSH1 0x6 MUL ADD PUSH1 0x0 SWAP2 POP SWAP1 POP DUP1 PUSH1 0x0 ADD DUP1 SLOAD PUSH2 0x671 SWAP1 PUSH2 0x129B JUMP JUMPDEST DUP1 PUSH1 0x1F ADD PUSH1 0x20 DUP1 SWAP2 DIV MUL PUSH1 0x20 ADD PUSH1 0x40 MLOAD SWAP1 DUP2 ADD PUSH1 0x40 MSTORE DUP1 SWAP3 SWAP2 SWAP1 DUP2 DUP2 MSTORE PUSH1 0x20 ADD DUP3 DUP1 SLOAD PUSH2 0x69D SWAP1 PUSH2 0x129B JUMP JUMPDEST DUP1 ISZERO PUSH2 0x6EA JUMPI DUP1 PUSH1 0x1F LT PUSH2 0x6BF JUMPI PUSH2 0x100 DUP1 DUP4 SLOAD DIV MUL DUP4 MSTORE SWAP2 PUSH1 0x20 ADD SWAP2 PUSH2 0x6EA JUMP JUMPDEST DUP3 ADD SWAP2 SWAP1 PUSH1 0x0 MSTORE PUSH1 0x20 PUSH1 0x0 KECCAK256 SWAP1 JUMPDEST DUP2 SLOAD DUP2 MSTORE SWAP1 PUSH1 0x1 ADD SWAP1 PUSH1 0x20 ADD DUP1 DUP4 GT PUSH2 0x6CD JUMPI DUP3 SWAP1 SUB PUSH1 0x1F AND DUP3 ADD SWAP2 JUMPDEST POP POP POP POP POP SWAP1 DUP1 PUSH1 0x1 ADD DUP1 SLOAD PUSH2 0x6FF SWAP1 PUSH2 0x129B JUMP JUMPDEST DUP1 PUSH1 0x1F ADD PUSH1 0x20 DUP1 SWAP2 DIV MUL PUSH1 0x20 ADD PUSH1 0x40 MLOAD SWAP1 DUP2 ADD PUSH1 0x40 MSTORE DUP1 SWAP3 SWAP2 SWAP1 DUP2 DUP2 MSTORE PUSH1 0x20 ADD DUP3 DUP1 SLOAD PUSH2 0x72B SWAP1 PUSH2 0x129B JUMP JUMPDEST DUP1 ISZERO PUSH2 0x778 JUMPI DUP1 PUSH1 0x1F LT PUSH2 0x74D JUMPI PUSH2 0x100 DUP1 DUP4 SLOAD DIV MUL DUP4 MSTORE SWAP2 PUSH1 0x20 ADD SWAP2 PUSH2 0x778 JUMP JUMPDEST DUP3 ADD SWAP2 SWAP1 PUSH1 0x0 MSTORE PUSH1 0x20 PUSH1 0x0 KECCAK256 SWAP1 JUMPDEST DUP2 SLOAD DUP2 MSTORE SWAP1 PUSH1 0x1 ADD SWAP1 PUSH1 0x20 ADD DUP1 DUP4 GT PUSH2 0x75B JUMPI DUP3 SWAP1 SUB PUSH1 0x1F AND DUP3 ADD SWAP2 JUMPDEST POP POP POP POP POP SWAP1 DUP1 PUSH1 0x2 ADD SLOAD SWAP1 DUP1 PUSH1 0x3 ADD SLOAD SWAP1 DUP1 PUSH1 0x4 ADD PUSH1 0x40 MLOAD DUP1 PUSH1 0x40 ADD PUSH1 0x40 MSTORE SWAP1 DUP2 PUSH1 0x0 DUP3 ADD SLOAD DUP2 MSTORE PUSH1 0x20 ADD PUSH1 0x1 DUP3 ADD SLOAD DUP2 MSTORE POP POP SWAP1 POP DUP6 JUMP JUMPDEST PUSH1 0x0 CALLER PUSH20 0xFFFFFFFFFFFFFFFFFFFFFFFFFFFFFFFFFFFFFFFF AND PUSH1 0x0 DUP1 SLOAD SWAP1 PUSH2 0x100 EXP SWAP1 DIV PUSH20 0xFFFFFFFFFFFFFFFFFFFFFFFFFFFFFFFFFFFFFFFF AND PUSH20 0xFFFFFFFFFFFFFFFFFFFFFFFFFFFFFFFFFFFFFFFF AND EQ PUSH2 0x842 JUMPI PUSH1 0x40 MLOAD PUSH32 0x8C379A000000000000000000000000000000000000000000000000000000000 DUP2 MSTORE PUSH1 0x4 ADD PUSH2 0x839 SWAP1 PUSH2 0x1318 JUMP JUMPDEST PUSH1 0x40 MLOAD DUP1 SWAP2 SUB SWAP1 REVERT JUMPDEST PUSH1 0x0 PUSH1 0x5F DUP4 PUSH2 0x851 SWAP2 SWAP1 PUSH2 0x1367 JUMP JUMPDEST SWAP1 POP PUSH1 0x0 PUSH1 0x40 MLOAD DUP1 PUSH1 0x40 ADD PUSH1 0x40 MSTORE DUP1 PUSH1 0x0 DUP2 MSTORE PUSH1 0x20 ADD PUSH1 0x0 DUP2 MSTORE POP SWAP1 POP PUSH1 0x0 PUSH1 0x3 DUP1 SLOAD SWAP1 POP SWAP1 POP PUSH1 0x40 MLOAD DUP1 PUSH1 0xA0 ADD PUSH1 0x40 MSTORE DUP1 DUP11 DUP11 DUP1 DUP1 PUSH1 0x1F ADD PUSH1 0x20 DUP1 SWAP2 DIV MUL PUSH1 0x20 ADD PUSH1 0x40 MLOAD SWAP1 DUP2 ADD PUSH1 0x40 MSTORE DUP1 SWAP4 SWAP3 SWAP2 SWAP1 DUP2 DUP2 MSTORE PUSH1 0x20 ADD DUP4 DUP4 DUP1 DUP3 DUP5 CALLDATACOPY PUSH1 0x0 DUP2 DUP5 ADD MSTORE PUSH1 0x1F NOT PUSH1 0x1F DUP3 ADD AND SWAP1 POP DUP1 DUP4 ADD SWAP3 POP POP POP POP POP POP POP DUP2 MSTORE PUSH1 0x20 ADD DUP9 DUP9 DUP1 DUP1 PUSH1 0x1F ADD PUSH1 0x20 DUP1 SWAP2 DIV MUL PUSH1 0x20 ADD PUSH1 0x40 MLOAD SWAP1 DUP2 ADD PUSH1 0x40 MSTORE DUP1 SWAP4 SWAP3 SWAP2 SWAP1 DUP2 DUP2 MSTORE PUSH1 0x20 ADD DUP4 DUP4 DUP1 DUP3 DUP5 CALLDATACOPY PUSH1 0x0 DUP2 DUP5 ADD MSTORE PUSH1 0x1F NOT PUSH1 0x1F DUP3 ADD AND SWAP1 POP DUP1 DUP4 ADD SWAP3 POP POP POP POP POP POP POP DUP2 MSTORE PUSH1 0x20 ADD DUP7 DUP2 MSTORE PUSH1 0x20 ADD DUP5 DUP2 MSTORE PUSH1 0x20 ADD DUP4 DUP2 MSTORE POP PUSH1 0x1 PUSH1 0x0 DUP4 DUP2 MSTORE PUSH1 0x20 ADD SWAP1 DUP2 MSTORE PUSH1 0x20 ADD PUSH1 0x0 KECCAK256 PUSH1 0x0 DUP3 ADD MLOAD DUP2 PUSH1 0x0 ADD SWAP1 DUP2 PUSH2 0x94F SWAP2 SWAP1 PUSH2 0x1576 JUMP JUMPDEST POP PUSH1 0x20 DUP3 ADD MLOAD DUP2 PUSH1 0x1 ADD SWAP1 DUP2 PUSH2 0x965 SWAP2 SWAP1 PUSH2 0x1576 JUMP JUMPDEST POP PUSH1 0x40 DUP3 ADD MLOAD DUP2 PUSH1 0x2 ADD SSTORE PUSH1 0x60 DUP3 ADD MLOAD DUP2 PUSH1 0x3 ADD SSTORE PUSH1 0x80 DUP3 ADD MLOAD DUP2 PUSH1 0x4 ADD PUSH1 0x0 DUP3 ADD MLOAD DUP2 PUSH1 0x0 ADD SSTORE PUSH1 0x20 DUP3 ADD MLOAD DUP2 PUSH1 0x1 ADD SSTORE POP POP SWAP1 POP POP PUSH1 0x3 PUSH1 0x40 MLOAD DUP1 PUSH1 0xA0 ADD PUSH1 0x40 MSTORE DUP1 DUP12 DUP12 DUP1 DUP1 PUSH1 0x1F ADD PUSH1 0x20 DUP1 SWAP2 DIV MUL PUSH1 0x20 ADD PUSH1 0x40 MLOAD SWAP1 DUP2 ADD PUSH1 0x40 MSTORE DUP1 SWAP4 SWAP3 SWAP2 SWAP1 DUP2 DUP2 MSTORE PUSH1 0x20 ADD DUP4 DUP4 DUP1 DUP3 DUP5 CALLDATACOPY PUSH1 0x0 DUP2 DUP5 ADD MSTORE PUSH1 0x1F NOT PUSH1 0x1F DUP3 ADD AND SWAP1 POP DUP1 DUP4 ADD SWAP3 POP POP POP POP POP POP POP DUP2 MSTORE PUSH1 0x20 ADD DUP10 DUP10 DUP1 DUP1 PUSH1 0x1F ADD PUSH1 0x20 DUP1 SWAP2 DIV MUL PUSH1 0x20 ADD PUSH1 0x40 MLOAD SWAP1 DUP2 ADD PUSH1 0x40 MSTORE DUP1 SWAP4 SWAP3 SWAP2 SWAP1 DUP2 DUP2 MSTORE PUSH1 0x20 ADD DUP4 DUP4 DUP1 DUP3 DUP5 CALLDATACOPY PUSH1 0x0 DUP2 DUP5 ADD MSTORE PUSH1 0x1F NOT PUSH1 0x1F DUP3 ADD AND SWAP1 POP DUP1 DUP4 ADD SWAP3 POP POP POP POP POP POP POP DUP2 MSTORE PUSH1 0x20 ADD DUP8 DUP2 MSTORE PUSH1 0x20 ADD DUP6 DUP2 MSTORE PUSH1 0x20 ADD DUP5 DUP2 MSTORE POP SWAP1 DUP1 PUSH1 0x1 DUP2 SLOAD ADD DUP1 DUP3 SSTORE DUP1 SWAP2 POP POP PUSH1 0x1 SWAP1 SUB SWAP1 PUSH1 0x0 MSTORE PUSH1 0x20 PUSH1 0x0 KECCAK256 SWAP1 PUSH1 0x6 MUL ADD PUSH1 0x0 SWAP1 SWAP2 SWAP1 SWAP2 SWAP1 SWAP2 POP PUSH1 0x0 DUP3 ADD MLOAD DUP2 PUSH1 0x0 ADD SWAP1 DUP2 PUSH2 0xA8B SWAP2 SWAP1 PUSH2 0x1576 JUMP JUMPDEST POP PUSH1 0x20 DUP3 ADD MLOAD DUP2 PUSH1 0x1 ADD SWAP1 DUP2 PUSH2 0xAA1 SWAP2 SWAP1 PUSH2 0x1576 JUMP JUMPDEST POP PUSH1 0x40 DUP3 ADD MLOAD DUP2 PUSH1 0x2 ADD SSTORE PUSH1 0x60 DUP3 ADD MLOAD DUP2 PUSH1 0x3 ADD SSTORE PUSH1 0x80 DUP3 ADD MLOAD DUP2 PUSH1 0x4 ADD PUSH1 0x0 DUP3 ADD MLOAD DUP2 PUSH1 0x0 ADD SSTORE PUSH1 0x20 DUP3 ADD MLOAD DUP2 PUSH1 0x1 ADD SSTORE POP POP POP POP PUSH1 0x1 SWAP4 POP POP POP POP SWAP6 SWAP5 POP POP POP POP POP JUMP JUMPDEST CALLER PUSH20 0xFFFFFFFFFFFFFFFFFFFFFFFFFFFFFFFFFFFFFFFF AND PUSH1 0x0 DUP1 SLOAD SWAP1 PUSH2 0x100 EXP SWAP1 DIV PUSH20 0xFFFFFFFFFFFFFFFFFFFFFFFFFFFFFFFFFFFFFFFF AND PUSH20 0xFFFFFFFFFFFFFFFFFFFFFFFFFFFFFFFFFFFFFFFF AND EQ PUSH2 0xB75 JUMPI PUSH1 0x40 MLOAD PUSH32 0x8C379A000000000000000000000000000000000000000000000000000000000 DUP2 MSTORE PUSH1 0x4 ADD PUSH2 0xB6C SWAP1 PUSH2 0x1318 JUMP JUMPDEST PUSH1 0x40 MLOAD DUP1 SWAP2 SUB SWAP1 REVERT JUMPDEST PUSH1 0x0 TIMESTAMP SWAP1 POP PUSH1 0x3 DUP5 DUP2 SLOAD DUP2 LT PUSH2 0xB8E JUMPI PUSH2 0xB8D PUSH2 0x123D JUMP JUMPDEST JUMPDEST SWAP1 PUSH1 0x0 MSTORE PUSH1 0x20 PUSH1 0x0 KECCAK256 SWAP1 PUSH1 0x6 MUL ADD PUSH1 0x3 ADD SLOAD DUP2 LT ISZERO PUSH2 0xBE2 JUMPI PUSH1 0x40 MLOAD PUSH32 0x8C379A000000000000000000000000000000000000000000000000000000000 DUP2 MSTORE PUSH1 0x4 ADD PUSH2 0xBD9 SWAP1 PUSH2 0x1694 JUMP JUMPDEST PUSH1 0x40 MLOAD DUP1 SWAP2 SUB SWAP1 REVERT JUMPDEST PUSH1 0x0 PUSH1 0x40 MLOAD DUP1 PUSH1 0x40 ADD PUSH1 0x40 MSTORE DUP1 DUP6 DUP2 MSTORE PUSH1 0x20 ADD DUP5 DUP2 MSTORE POP SWAP1 POP DUP1 PUSH1 0x3 DUP7 DUP2 SLOAD DUP2 LT PUSH2 0xC10 JUMPI PUSH2 0xC0F PUSH2 0x123D JUMP JUMPDEST JUMPDEST SWAP1 PUSH1 0x0 MSTORE PUSH1 0x20 PUSH1 0x0 KECCAK256 SWAP1 PUSH1 0x6 MUL ADD PUSH1 0x4 ADD PUSH1 0x0 DUP3 ADD MLOAD DUP2 PUSH1 0x0 ADD SSTORE PUSH1 0x20 DUP3 ADD MLOAD DUP2 PUSH1 0x1 ADD SSTORE SWAP1 POP POP DUP1 PUSH1 0x1 PUSH1 0x0 DUP8 DUP2 MSTORE PUSH1 0x20 ADD SWAP1 DUP2 MSTORE PUSH1 0x20 ADD PUSH1 0x0 KECCAK256 PUSH1 0x4 ADD PUSH1 0x0 DUP3 ADD MLOAD DUP2 PUSH1 0x0 ADD SSTORE PUSH1 0x20 DUP3 ADD MLOAD DUP2 PUSH1 0x1 ADD SSTORE SWAP1 POP POP POP POP POP POP POP JUMP JUMPDEST PUSH1 0x0 DUP1 SLOAD SWAP1 PUSH2 0x100 EXP SWAP1 DIV PUSH20 0xFFFFFFFFFFFFFFFFFFFFFFFFFFFFFFFFFFFFFFFF AND DUP2 JUMP JUMPDEST PUSH1 0x0 DUP1 REVERT JUMPDEST PUSH1 0x0 DUP1 REVERT JUMPDEST PUSH1 0x0 DUP2 SWAP1 POP SWAP2 SWAP1 POP JUMP JUMPDEST PUSH2 0xCAE DUP2 PUSH2 0xC9B JUMP JUMPDEST DUP2 EQ PUSH2 0xCB9 JUMPI PUSH1 0x0 DUP1 REVERT JUMPDEST POP JUMP JUMPDEST PUSH1 0x0 DUP2 CALLDATALOAD SWAP1 POP PUSH2 0xCCB DUP2 PUSH2 0xCA5 JUMP JUMPDEST SWAP3 SWAP2 POP POP JUMP JUMPDEST PUSH1 0x4 DUP2 LT PUSH2 0xCDE JUMPI PUSH1 0x0 DUP1 REVERT JUMPDEST POP JUMP JUMPDEST PUSH1 0x0 DUP2 CALLDATALOAD SWAP1 POP PUSH2 0xCF0 DUP2 PUSH2 0xCD1 JUMP JUMPDEST SWAP3 SWAP2 POP POP JUMP JUMPDEST PUSH1 0x0 DUP1 PUSH1 0x40 DUP4 DUP6 SUB SLT ISZERO PUSH2 0xD0D JUMPI PUSH2 0xD0C PUSH2 0xC91 JUMP JUMPDEST JUMPDEST PUSH1 0x0 PUSH2 0xD1B DUP6 DUP3 DUP7 ADD PUSH2 0xCBC JUMP JUMPDEST SWAP3 POP POP PUSH1 0x20 PUSH2 0xD2C DUP6 DUP3 DUP7 ADD PUSH2 0xCE1 JUMP JUMPDEST SWAP2 POP POP SWAP3 POP SWAP3 SWAP1 POP JUMP JUMPDEST PUSH1 0x0 PUSH1 0x20 DUP3 DUP5 SUB SLT ISZERO PUSH2 0xD4C JUMPI PUSH2 0xD4B PUSH2 0xC91 JUMP JUMPDEST JUMPDEST PUSH1 0x0 PUSH2 0xD5A DUP5 DUP3 DUP6 ADD PUSH2 0xCBC JUMP JUMPDEST SWAP2 POP POP SWAP3 SWAP2 POP POP JUMP JUMPDEST PUSH1 0x0 PUSH20 0xFFFFFFFFFFFFFFFFFFFFFFFFFFFFFFFFFFFFFFFF DUP3 AND SWAP1 POP SWAP2 SWAP1 POP JUMP JUMPDEST PUSH1 0x0 PUSH2 0xD8E DUP3 PUSH2 0xD63 JUMP JUMPDEST SWAP1 POP SWAP2 SWAP1 POP JUMP JUMPDEST PUSH2 0xD9E DUP2 PUSH2 0xD83 JUMP JUMPDEST DUP3 MSTORE POP POP JUMP JUMPDEST PUSH2 0xDAD DUP2 PUSH2 0xC9B JUMP JUMPDEST DUP3 MSTORE POP POP JUMP JUMPDEST PUSH32 0x4E487B7100000000000000000000000000000000000000000000000000000000 PUSH1 0x0 MSTORE PUSH1 0x21 PUSH1 0x4 MSTORE PUSH1 0x24 PUSH1 0x0 REVERT JUMPDEST PUSH1 0x4 DUP2 LT PUSH2 0xDF3 JUMPI PUSH2 0xDF2 PUSH2 0xDB3 JUMP JUMPDEST JUMPDEST POP JUMP JUMPDEST PUSH1 0x0 DUP2 SWAP1 POP PUSH2 0xE04 DUP3 PUSH2 0xDE2 JUMP JUMPDEST SWAP2 SWAP1 POP JUMP JUMPDEST PUSH1 0x0 PUSH2 0xE14 DUP3 PUSH2 0xDF6 JUMP JUMPDEST SWAP1 POP SWAP2 SWAP1 POP JUMP JUMPDEST PUSH2 0xE24 DUP2 PUSH2 0xE09 JUMP JUMPDEST DUP3 MSTORE POP POP JUMP JUMPDEST PUSH1 0x0 PUSH1 0x60 DUP3 ADD SWAP1 POP PUSH2 0xE3F PUSH1 0x0 DUP4 ADD DUP7 PUSH2 0xD95 JUMP JUMPDEST PUSH2 0xE4C PUSH1 0x20 DUP4 ADD DUP6 PUSH2 0xDA4 JUMP JUMPDEST PUSH2 0xE59 PUSH1 0x40 DUP4 ADD DUP5 PUSH2 0xE1B JUMP JUMPDEST SWAP5 SWAP4 POP POP POP POP JUMP JUMPDEST PUSH1 0x0 DUP2 MLOAD SWAP1 POP SWAP2 SWAP1 POP JUMP JUMPDEST PUSH1 0x0 DUP3 DUP3 MSTORE PUSH1 0x20 DUP3 ADD SWAP1 POP SWAP3 SWAP2 POP POP JUMP JUMPDEST PUSH1 0x0 JUMPDEST DUP4 DUP2 LT ISZERO PUSH2 0xE9B JUMPI DUP1 DUP3 ADD MLOAD DUP2 DUP5 ADD MSTORE PUSH1 0x20 DUP2 ADD SWAP1 POP PUSH2 0xE80 JUMP JUMPDEST PUSH1 0x0 DUP5 DUP5 ADD MSTORE POP POP POP POP JUMP JUMPDEST PUSH1 0x0 PUSH1 0x1F NOT PUSH1 0x1F DUP4 ADD AND SWAP1 POP SWAP2 SWAP1 POP JUMP JUMPDEST PUSH1 0x0 PUSH2 0xEC3 DUP3 PUSH2 0xE61 JUMP JUMPDEST PUSH2 0xECD DUP2 DUP6 PUSH2 0xE6C JUMP JUMPDEST SWAP4 POP PUSH2 0xEDD DUP2 DUP6 PUSH1 0x20 DUP7 ADD PUSH2 0xE7D JUMP JUMPDEST PUSH2 0xEE6 DUP2 PUSH2 0xEA7 JUMP JUMPDEST DUP5 ADD SWAP2 POP POP SWAP3 SWAP2 POP POP JUMP JUMPDEST PUSH2 0xEFA DUP2 PUSH2 0xC9B JUMP JUMPDEST DUP3 MSTORE POP POP JUMP JUMPDEST PUSH1 0x40 DUP3 ADD PUSH1 0x0 DUP3 ADD MLOAD PUSH2 0xF16 PUSH1 0x0 DUP6 ADD DUP3 PUSH2 0xEF1 JUMP JUMPDEST POP PUSH1 0x20 DUP3 ADD MLOAD PUSH2 0xF29 PUSH1 0x20 DUP6 ADD DUP3 PUSH2 0xEF1 JUMP JUMPDEST POP POP POP POP JUMP JUMPDEST PUSH1 0x0 PUSH1 0xC0 DUP3 ADD SWAP1 POP DUP2 DUP2 SUB PUSH1 0x0 DUP4 ADD MSTORE PUSH2 0xF49 DUP2 DUP9 PUSH2 0xEB8 JUMP JUMPDEST SWAP1 POP DUP2 DUP2 SUB PUSH1 0x20 DUP4 ADD MSTORE PUSH2 0xF5D DUP2 DUP8 PUSH2 0xEB8 JUMP JUMPDEST SWAP1 POP PUSH2 0xF6C PUSH1 0x40 DUP4 ADD DUP7 PUSH2 0xDA4 JUMP JUMPDEST PUSH2 0xF79 PUSH1 0x60 DUP4 ADD DUP6 PUSH2 0xDA4 JUMP JUMPDEST PUSH2 0xF86 PUSH1 0x80 DUP4 ADD DUP5 PUSH2 0xF00 JUMP JUMPDEST SWAP7 SWAP6 POP POP POP POP POP POP JUMP JUMPDEST PUSH2 0xF99 DUP2 PUSH2 0xD83 JUMP JUMPDEST DUP2 EQ PUSH2 0xFA4 JUMPI PUSH1 0x0 DUP1 REVERT JUMPDEST POP JUMP JUMPDEST PUSH1 0x0 DUP2 CALLDATALOAD SWAP1 POP PUSH2 0xFB6 DUP2 PUSH2 0xF90 JUMP JUMPDEST SWAP3 SWAP2 POP POP JUMP JUMPDEST PUSH1 0x0 DUP1 PUSH1 0x40 DUP4 DUP6 SUB SLT ISZERO PUSH2 0xFD3 JUMPI PUSH2 0xFD2 PUSH2 0xC91 JUMP JUMPDEST JUMPDEST PUSH1 0x0 PUSH2 0xFE1 DUP6 DUP3 DUP7 ADD PUSH2 0xFA7 JUMP JUMPDEST SWAP3 POP POP PUSH1 0x20 PUSH2 0xFF2 DUP6 DUP3 DUP7 ADD PUSH2 0xCBC JUMP JUMPDEST SWAP2 POP POP SWAP3 POP SWAP3 SWAP1 POP JUMP JUMPDEST PUSH1 0x0 PUSH1 0x60 DUP3 ADD SWAP1 POP PUSH2 0x1011 PUSH1 0x0 DUP4 ADD DUP7 PUSH2 0xE1B JUMP JUMPDEST PUSH2 0x101E PUSH1 0x20 DUP4 ADD DUP6 PUSH2 0xDA4 JUMP JUMPDEST PUSH2 0x102B PUSH1 0x40 DUP4 ADD DUP5 PUSH2 0xDA4 JUMP JUMPDEST SWAP5 SWAP4 POP POP POP POP JUMP JUMPDEST PUSH1 0x0 DUP1 REVERT JUMPDEST PUSH1 0x0 DUP1 REVERT JUMPDEST PUSH1 0x0 DUP1 REVERT JUMPDEST PUSH1 0x0 DUP1 DUP4 PUSH1 0x1F DUP5 ADD SLT PUSH2 0x1058 JUMPI PUSH2 0x1057 PUSH2 0x1033 JUMP JUMPDEST JUMPDEST DUP3 CALLDATALOAD SWAP1 POP PUSH8 0xFFFFFFFFFFFFFFFF DUP2 GT ISZERO PUSH2 0x1075 JUMPI PUSH2 0x1074 PUSH2 0x1038 JUMP JUMPDEST JUMPDEST PUSH1 0x20 DUP4 ADD SWAP2 POP DUP4 PUSH1 0x1 DUP3 MUL DUP4 ADD GT ISZERO PUSH2 0x1091 JUMPI PUSH2 0x1090 PUSH2 0x103D JUMP JUMPDEST JUMPDEST SWAP3 POP SWAP3 SWAP1 POP JUMP JUMPDEST PUSH1 0x0 DUP1 PUSH1 0x0 DUP1 PUSH1 0x0 PUSH1 0x60 DUP7 DUP9 SUB SLT ISZERO PUSH2 0x10B4 JUMPI PUSH2 0x10B3 PUSH2 0xC91 JUMP JUMPDEST JUMPDEST PUSH1 0x0 DUP7 ADD CALLDATALOAD PUSH8 0xFFFFFFFFFFFFFFFF DUP2 GT ISZERO PUSH2 0x10D2 JUMPI PUSH2 0x10D1 PUSH2 0xC96 JUMP JUMPDEST JUMPDEST PUSH2 0x10DE DUP9 DUP3 DUP10 ADD PUSH2 0x1042 JUMP JUMPDEST SWAP6 POP SWAP6 POP POP PUSH1 0x20 DUP7 ADD CALLDATALOAD PUSH8 0xFFFFFFFFFFFFFFFF DUP2 GT ISZERO PUSH2 0x1101 JUMPI PUSH2 0x1100 PUSH2 0xC96 JUMP JUMPDEST JUMPDEST PUSH2 0x110D DUP9 DUP3 DUP10 ADD PUSH2 0x1042 JUMP JUMPDEST SWAP4 POP SWAP4 POP POP PUSH1 0x40 PUSH2 0x1120 DUP9 DUP3 DUP10 ADD PUSH2 0xCBC JUMP JUMPDEST SWAP2 POP POP SWAP3 SWAP6 POP SWAP3 SWAP6 SWAP1 SWAP4 POP JUMP JUMPDEST PUSH1 0x0 DUP2 ISZERO ISZERO SWAP1 POP SWAP2 SWAP1 POP JUMP JUMPDEST PUSH2 0x1142 DUP2 PUSH2 0x112D JUMP JUMPDEST DUP3 MSTORE POP POP JUMP JUMPDEST PUSH1 0x0 PUSH1 0x20 DUP3 ADD SWAP1 POP PUSH2 0x115D PUSH1 0x0 DUP4 ADD DUP5 PUSH2 0x1139 JUMP JUMPDEST SWAP3 SWAP2 POP POP JUMP JUMPDEST PUSH1 0x0 DUP1 PUSH1 0x0 PUSH1 0x60 DUP5 DUP7 SUB SLT ISZERO PUSH2 0x117C JUMPI PUSH2 0x117B PUSH2 0xC91 JUMP JUMPDEST JUMPDEST PUSH1 0x0 PUSH2 0x118A DUP7 DUP3 DUP8 ADD PUSH2 0xCBC JUMP JUMPDEST SWAP4 POP POP PUSH1 0x20 PUSH2 0x119B DUP7 DUP3 DUP8 ADD PUSH2 0xCBC JUMP JUMPDEST SWAP3 POP POP PUSH1 0x40 PUSH2 0x11AC DUP7 DUP3 DUP8 ADD PUSH2 0xCBC JUMP JUMPDEST SWAP2 POP POP SWAP3 POP SWAP3 POP SWAP3 JUMP JUMPDEST PUSH1 0x0 PUSH1 0x20 DUP3 ADD SWAP1 POP PUSH2 0x11CB PUSH1 0x0 DUP4 ADD DUP5 PUSH2 0xD95 JUMP JUMPDEST SWAP3 SWAP2 POP POP JUMP JUMPDEST PUSH32 0x42657420416D6F756E74206973206C657373207468616E207265717569726564 PUSH1 0x0 DUP3 ADD MSTORE POP JUMP JUMPDEST PUSH1 0x0 PUSH2 0x1207 PUSH1 0x20 DUP4 PUSH2 0xE6C JUMP JUMPDEST SWAP2 POP PUSH2 0x1212 DUP3 PUSH2 0x11D1 JUMP JUMPDEST PUSH1 0x20 DUP3 ADD SWAP1 POP SWAP2 SWAP1 POP JUMP JUMPDEST PUSH1 0x0 PUSH1 0x20 DUP3 ADD SWAP1 POP DUP2 DUP2 SUB PUSH1 0x0 DUP4 ADD MSTORE PUSH2 0x1236 DUP2 PUSH2 0x11FA JUMP JUMPDEST SWAP1 POP SWAP2 SWAP1 POP JUMP JUMPDEST PUSH32 0x4E487B7100000000000000000000000000000000000000000000000000000000 PUSH1 0x0 MSTORE PUSH1 0x32 PUSH1 0x4 MSTORE PUSH1 0x24 PUSH1 0x0 REVERT JUMPDEST PUSH32 0x4E487B7100000000000000000000000000000000000000000000000000000000 PUSH1 0x0 MSTORE PUSH1 0x22 PUSH1 0x4 MSTORE PUSH1 0x24 PUSH1 0x0 REVERT JUMPDEST PUSH1 0x0 PUSH1 0x2 DUP3 DIV SWAP1 POP PUSH1 0x1 DUP3 AND DUP1 PUSH2 0x12B3 JUMPI PUSH1 0x7F DUP3 AND SWAP2 POP JUMPDEST PUSH1 0x20 DUP3 LT DUP2 SUB PUSH2 0x12C6 JUMPI PUSH2 0x12C5 PUSH2 0x126C JUMP JUMPDEST JUMPDEST POP SWAP2 SWAP1 POP JUMP JUMPDEST PUSH32 0x4E6F74204F776E65720000000000000000000000000000000000000000000000 PUSH1 0x0 DUP3 ADD MSTORE POP JUMP JUMPDEST PUSH1 0x0 PUSH2 0x1302 PUSH1 0x9 DUP4 PUSH2 0xE6C JUMP JUMPDEST SWAP2 POP PUSH2 0x130D DUP3 PUSH2 0x12CC JUMP JUMPDEST PUSH1 0x20 DUP3 ADD SWAP1 POP SWAP2 SWAP1 POP JUMP JUMPDEST PUSH1 0x0 PUSH1 0x20 DUP3 ADD SWAP1 POP DUP2 DUP2 SUB PUSH1 0x0 DUP4 ADD MSTORE PUSH2 0x1331 DUP2 PUSH2 0x12F5 JUMP JUMPDEST SWAP1 POP SWAP2 SWAP1 POP JUMP JUMPDEST PUSH32 0x4E487B7100000000000000000000000000000000000000000000000000000000 PUSH1 0x0 MSTORE PUSH1 0x11 PUSH1 0x4 MSTORE PUSH1 0x24 PUSH1 0x0 REVERT JUMPDEST PUSH1 0x0 PUSH2 0x1372 DUP3 PUSH2 0xC9B JUMP JUMPDEST SWAP2 POP PUSH2 0x137D DUP4 PUSH2 0xC9B JUMP JUMPDEST SWAP3 POP DUP3 DUP3 ADD SWAP1 POP DUP1 DUP3 GT ISZERO PUSH2 0x1395 JUMPI PUSH2 0x1394 PUSH2 0x1338 JUMP JUMPDEST JUMPDEST SWAP3 SWAP2 POP POP JUMP JUMPDEST PUSH32 0x4E487B7100000000000000000000000000000000000000000000000000000000 PUSH1 0x0 MSTORE PUSH1 0x41 PUSH1 0x4 MSTORE PUSH1 0x24 PUSH1 0x0 REVERT JUMPDEST PUSH1 0x0 DUP2 SWAP1 POP DUP2 PUSH1 0x0 MSTORE PUSH1 0x20 PUSH1 0x0 KECCAK256 SWAP1 POP SWAP2 SWAP1 POP JUMP JUMPDEST PUSH1 0x0 PUSH1 0x20 PUSH1 0x1F DUP4 ADD DIV SWAP1 POP SWAP2 SWAP1 POP JUMP JUMPDEST PUSH1 0x0 DUP3 DUP3 SHL SWAP1 POP SWAP3 SWAP2 POP POP JUMP JUMPDEST PUSH1 0x0 PUSH1 0x8 DUP4 MUL PUSH2 0x142C PUSH32 0xFFFFFFFFFFFFFFFFFFFFFFFFFFFFFFFFFFFFFFFFFFFFFFFFFFFFFFFFFFFFFFFF DUP3 PUSH2 0x13EF JUMP JUMPDEST PUSH2 0x1436 DUP7 DUP4 PUSH2 0x13EF JUMP JUMPDEST SWAP6 POP DUP1 NOT DUP5 AND SWAP4 POP DUP1 DUP7 AND DUP5 OR SWAP3 POP POP POP SWAP4 SWAP3 POP POP POP JUMP JUMPDEST PUSH1 0x0 DUP2 SWAP1 POP SWAP2 SWAP1 POP JUMP JUMPDEST PUSH1 0x0 PUSH2 0x1473 PUSH2 0x146E PUSH2 0x1469 DUP5 PUSH2 0xC9B JUMP JUMPDEST PUSH2 0x144E JUMP JUMPDEST PUSH2 0xC9B JUMP JUMPDEST SWAP1 POP SWAP2 SWAP1 POP JUMP JUMPDEST PUSH1 0x0 DUP2 SWAP1 POP SWAP2 SWAP1 POP JUMP JUMPDEST PUSH2 0x148D DUP4 PUSH2 0x1458 JUMP JUMPDEST PUSH2 0x14A1 PUSH2 0x1499 DUP3 PUSH2 0x147A JUMP JUMPDEST DUP5 DUP5 SLOAD PUSH2 0x13FC JUMP JUMPDEST DUP3 SSTORE POP POP POP POP JUMP JUMPDEST PUSH1 0x0 SWAP1 JUMP JUMPDEST PUSH2 0x14B6 PUSH2 0x14A9 JUMP JUMPDEST PUSH2 0x14C1 DUP2 DUP5 DUP5 PUSH2 0x1484 JUMP JUMPDEST POP POP POP JUMP JUMPDEST JUMPDEST DUP2 DUP2 LT ISZERO PUSH2 0x14E5 JUMPI PUSH2 0x14DA PUSH1 0x0 DUP3 PUSH2 0x14AE JUMP JUMPDEST PUSH1 0x1 DUP2 ADD SWAP1 POP PUSH2 0x14C7 JUMP JUMPDEST POP POP JUMP JUMPDEST PUSH1 0x1F DUP3 GT ISZERO PUSH2 0x152A JUMPI PUSH2 0x14FB DUP2 PUSH2 0x13CA JUMP JUMPDEST PUSH2 0x1504 DUP5 PUSH2 0x13DF JUMP JUMPDEST DUP2 ADD PUSH1 0x20 DUP6 LT ISZERO PUSH2 0x1513 JUMPI DUP2 SWAP1 POP JUMPDEST PUSH2 0x1527 PUSH2 0x151F DUP6 PUSH2 0x13DF JUMP JUMPDEST DUP4 ADD DUP3 PUSH2 0x14C6 JUMP JUMPDEST POP POP JUMPDEST POP POP POP JUMP JUMPDEST PUSH1 0x0 DUP3 DUP3 SHR SWAP1 POP SWAP3 SWAP2 POP POP JUMP JUMPDEST PUSH1 0x0 PUSH2 0x154D PUSH1 0x0 NOT DUP5 PUSH1 0x8 MUL PUSH2 0x152F JUMP JUMPDEST NOT DUP1 DUP4 AND SWAP2 POP POP SWAP3 SWAP2 POP POP JUMP JUMPDEST PUSH1 0x0 PUSH2 0x1566 DUP4 DUP4 PUSH2 0x153C JUMP JUMPDEST SWAP2 POP DUP3 PUSH1 0x2 MUL DUP3 OR SWAP1 POP SWAP3 SWAP2 POP POP JUMP JUMPDEST PUSH2 0x157F DUP3 PUSH2 0xE61 JUMP JUMPDEST PUSH8 0xFFFFFFFFFFFFFFFF DUP2 GT ISZERO PUSH2 0x1598 JUMPI PUSH2 0x1597 PUSH2 0x139B JUMP JUMPDEST JUMPDEST PUSH2 0x15A2 DUP3 SLOAD PUSH2 0x129B JUMP JUMPDEST PUSH2 0x15AD DUP3 DUP3 DUP6 PUSH2 0x14E9 JUMP JUMPDEST PUSH1 0x0 PUSH1 0x20 SWAP1 POP PUSH1 0x1F DUP4 GT PUSH1 0x1 DUP2 EQ PUSH2 0x15E0 JUMPI PUSH1 0x0 DUP5 ISZERO PUSH2 0x15CE JUMPI DUP3 DUP8 ADD MLOAD SWAP1 POP JUMPDEST PUSH2 0x15D8 DUP6 DUP3 PUSH2 0x155A JUMP JUMPDEST DUP7 SSTORE POP PUSH2 0x1640 JUMP JUMPDEST PUSH1 0x1F NOT DUP5 AND PUSH2 0x15EE DUP7 PUSH2 0x13CA JUMP JUMPDEST PUSH1 0x0 JUMPDEST DUP3 DUP2 LT ISZERO PUSH2 0x1616 JUMPI DUP5 DUP10 ADD MLOAD DUP3 SSTORE PUSH1 0x1 DUP3 ADD SWAP2 POP PUSH1 0x20 DUP6 ADD SWAP5 POP PUSH1 0x20 DUP2 ADD SWAP1 POP PUSH2 0x15F1 JUMP JUMPDEST DUP7 DUP4 LT ISZERO PUSH2 0x1633 JUMPI DUP5 DUP10 ADD MLOAD PUSH2 0x162F PUSH1 0x1F DUP10 AND DUP3 PUSH2 0x153C JUMP JUMPDEST DUP4 SSTORE POP JUMPDEST PUSH1 0x1 PUSH1 0x2 DUP9 MUL ADD DUP9 SSTORE POP POP POP JUMPDEST POP POP POP POP POP POP JUMP JUMPDEST PUSH32 0x4D61746368206973207374696C6C206F6E000000000000000000000000000000 PUSH1 0x0 DUP3 ADD MSTORE POP JUMP JUMPDEST PUSH1 0x0 PUSH2 0x167E PUSH1 0x11 DUP4 PUSH2 0xE6C JUMP JUMPDEST SWAP2 POP PUSH2 0x1689 DUP3 PUSH2 0x1648 JUMP JUMPDEST PUSH1 0x20 DUP3 ADD SWAP1 POP SWAP2 SWAP1 POP JUMP JUMPDEST PUSH1 0x0 PUSH1 0x20 DUP3 ADD SWAP1 POP DUP2 DUP2 SUB PUSH1 0x0 DUP4 ADD MSTORE PUSH2 0x16AD DUP2 PUSH2 0x1671 JUMP JUMPDEST SWAP1 POP SWAP2 SWAP1 POP JUMP INVALID LOG2 PUSH5 0x6970667358 0x22 SLT KECCAK256 EXP 0xAB CALLDATALOAD PUSH14 0x1F6F1FFEF1AC056C71AFFA7898F5 0xFB 0xAC DUP4 0xCF 0x2E 0xC0 PUSH14 0xE5B497E176A3EA64736F6C634300 ADDMOD GT STOP CALLER "
				},
				"gasEstimates": {
					"creation": {
						"codeDepositCost": "1173200",
						"executionCost": "25487",
						"totalCost": "1198687"
					},
					"external": {
						"Game(uint256)": "infinite",
						"admin()": "2577",
						"allMatch(uint256)": "infinite",
						"closeMatch(uint256,uint256,uint256)": "infinite",
						"instantiateMatch(string,string,uint256)": "infinite",
						"placeBet(uint256,uint8)": "125282",
						"specificMatchBets(uint256)": "infinite",
						"userBet(address,uint256)": "infinite"
					}
				},
				"methodIdentifiers": {
					"Game(uint256)": "2172ff16",
					"admin()": "f851a440",
					"allMatch(uint256)": "b2edb39f",
					"closeMatch(uint256,uint256,uint256)": "ec7361a8",
					"instantiateMatch(string,string,uint256)": "bc9e6e2c",
					"placeBet(uint256,uint8)": "03edf914",
					"specificMatchBets(uint256)": "15a3ae71",
					"userBet(address,uint256)": "4195ab8e"
				}
			},
			"storageLayout": {
				"storage": [
					{
						"astId": 8,
						"contract": "contracts/betting.sol:DistanceFiBET",
						"label": "admin",
						"offset": 0,
						"slot": "0",
						"type": "t_address"
					},
					{
						"astId": 38,
						"contract": "contracts/betting.sol:DistanceFiBET",
						"label": "Game",
						"offset": 0,
						"slot": "1",
						"type": "t_mapping(t_uint256,t_struct(Match)25_storage)"
					},
					{
						"astId": 45,
						"contract": "contracts/betting.sol:DistanceFiBET",
						"label": "userBet",
						"offset": 0,
						"slot": "2",
						"type": "t_mapping(t_address,t_mapping(t_uint256,t_struct(Bettor)33_storage))"
					},
					{
						"astId": 49,
						"contract": "contracts/betting.sol:DistanceFiBET",
						"label": "allMatch",
						"offset": 0,
						"slot": "3",
						"type": "t_array(t_struct(Match)25_storage)dyn_storage"
					},
					{
						"astId": 61,
						"contract": "contracts/betting.sol:DistanceFiBET",
						"label": "specificMatchBets",
						"offset": 0,
						"slot": "4",
						"type": "t_array(t_struct(allBets)57_storage)dyn_storage"
					}
				],
				"types": {
					"t_address": {
						"encoding": "inplace",
						"label": "address",
						"numberOfBytes": "20"
					},
					"t_array(t_struct(Match)25_storage)dyn_storage": {
						"base": "t_struct(Match)25_storage",
						"encoding": "dynamic_array",
						"label": "struct DistanceFiBET.Match[]",
						"numberOfBytes": "32"
					},
					"t_array(t_struct(allBets)57_storage)dyn_storage": {
						"base": "t_struct(allBets)57_storage",
						"encoding": "dynamic_array",
						"label": "struct DistanceFiBET.allBets[]",
						"numberOfBytes": "32"
					},
					"t_enum(Choices)6": {
						"encoding": "inplace",
						"label": "enum DistanceFiBET.Choices",
						"numberOfBytes": "1"
					},
					"t_mapping(t_address,t_mapping(t_uint256,t_struct(Bettor)33_storage))": {
						"encoding": "mapping",
						"key": "t_address",
						"label": "mapping(address => mapping(uint256 => struct DistanceFiBET.Bettor))",
						"numberOfBytes": "32",
						"value": "t_mapping(t_uint256,t_struct(Bettor)33_storage)"
					},
					"t_mapping(t_uint256,t_struct(Bettor)33_storage)": {
						"encoding": "mapping",
						"key": "t_uint256",
						"label": "mapping(uint256 => struct DistanceFiBET.Bettor)",
						"numberOfBytes": "32",
						"value": "t_struct(Bettor)33_storage"
					},
					"t_mapping(t_uint256,t_struct(Match)25_storage)": {
						"encoding": "mapping",
						"key": "t_uint256",
						"label": "mapping(uint256 => struct DistanceFiBET.Match)",
						"numberOfBytes": "32",
						"value": "t_struct(Match)25_storage"
					},
					"t_string_storage": {
						"encoding": "bytes",
						"label": "string",
						"numberOfBytes": "32"
					},
					"t_struct(Bettor)33_storage": {
						"encoding": "inplace",
						"label": "struct DistanceFiBET.Bettor",
						"members": [
							{
								"astId": 28,
								"contract": "contracts/betting.sol:DistanceFiBET",
								"label": "bet",
								"offset": 0,
								"slot": "0",
								"type": "t_enum(Choices)6"
							},
							{
								"astId": 30,
								"contract": "contracts/betting.sol:DistanceFiBET",
								"label": "winAmounts",
								"offset": 0,
								"slot": "1",
								"type": "t_uint256"
							},
							{
								"astId": 32,
								"contract": "contracts/betting.sol:DistanceFiBET",
								"label": "betAmount",
								"offset": 0,
								"slot": "2",
								"type": "t_uint256"
							}
						],
						"numberOfBytes": "96"
					},
					"t_struct(Match)25_storage": {
						"encoding": "inplace",
						"label": "struct DistanceFiBET.Match",
						"members": [
							{
								"astId": 15,
								"contract": "contracts/betting.sol:DistanceFiBET",
								"label": "HomeTeam",
								"offset": 0,
								"slot": "0",
								"type": "t_string_storage"
							},
							{
								"astId": 17,
								"contract": "contracts/betting.sol:DistanceFiBET",
								"label": "AwayTeam",
								"offset": 0,
								"slot": "1",
								"type": "t_string_storage"
							},
							{
								"astId": 19,
								"contract": "contracts/betting.sol:DistanceFiBET",
								"label": "startTime",
								"offset": 0,
								"slot": "2",
								"type": "t_uint256"
							},
							{
								"astId": 21,
								"contract": "contracts/betting.sol:DistanceFiBET",
								"label": "endTime",
								"offset": 0,
								"slot": "3",
								"type": "t_uint256"
							},
							{
								"astId": 24,
								"contract": "contracts/betting.sol:DistanceFiBET",
								"label": "results",
								"offset": 0,
								"slot": "4",
								"type": "t_struct(Results)13_storage"
							}
						],
						"numberOfBytes": "192"
					},
					"t_struct(Results)13_storage": {
						"encoding": "inplace",
						"label": "struct DistanceFiBET.Results",
						"members": [
							{
								"astId": 10,
								"contract": "contracts/betting.sol:DistanceFiBET",
								"label": "Home_score",
								"offset": 0,
								"slot": "0",
								"type": "t_uint256"
							},
							{
								"astId": 12,
								"contract": "contracts/betting.sol:DistanceFiBET",
								"label": "Away_score",
								"offset": 0,
								"slot": "1",
								"type": "t_uint256"
							}
						],
						"numberOfBytes": "64"
					},
					"t_struct(allBets)57_storage": {
						"encoding": "inplace",
						"label": "struct DistanceFiBET.allBets",
						"members": [
							{
								"astId": 51,
								"contract": "contracts/betting.sol:DistanceFiBET",
								"label": "bettor",
								"offset": 0,
								"slot": "0",
								"type": "t_address"
							},
							{
								"astId": 53,
								"contract": "contracts/betting.sol:DistanceFiBET",
								"label": "amount",
								"offset": 0,
								"slot": "1",
								"type": "t_uint256"
							},
							{
								"astId": 56,
								"contract": "contracts/betting.sol:DistanceFiBET",
								"label": "choice",
								"offset": 0,
								"slot": "2",
								"type": "t_enum(Choices)6"
							}
						],
						"numberOfBytes": "96"
					},
					"t_uint256": {
						"encoding": "inplace",
						"label": "uint256",
						"numberOfBytes": "32"
					}
				}
			},
			"userdoc": {
				"kind": "user",
				"methods": {},
				"version": 1
			}
		}
	}
}