{
	"contracts/betting.sol": {
		"DistanceFiBET": {
			"abi": [
				{
					"inputs": [],
					"stateMutability": "nonpayable",
					"type": "constructor"
				},
				{
					"inputs": [
						{
							"internalType": "uint256",
							"name": "",
							"type": "uint256"
						}
					],
					"name": "Game",
					"outputs": [
						{
							"internalType": "string",
							"name": "HomeTeam",
							"type": "string"
						},
						{
							"internalType": "string",
							"name": "AwayTeam",
							"type": "string"
						},
						{
							"internalType": "uint256",
							"name": "startTime",
							"type": "uint256"
						},
						{
							"internalType": "uint256",
							"name": "endTime",
							"type": "uint256"
						},
						{
							"components": [
								{
									"internalType": "uint256",
									"name": "Home_score",
									"type": "uint256"
								},
								{
									"internalType": "uint256",
									"name": "Away_score",
									"type": "uint256"
								}
							],
							"internalType": "struct DistanceFiBET.Results",
							"name": "results",
							"type": "tuple"
						}
					],
					"stateMutability": "view",
					"type": "function"
				},
				{
					"inputs": [],
					"name": "admin",
					"outputs": [
						{
							"internalType": "address",
							"name": "",
							"type": "address"
						}
					],
					"stateMutability": "view",
					"type": "function"
				},
				{
					"inputs": [
						{
							"internalType": "uint256",
							"name": "",
							"type": "uint256"
						}
					],
					"name": "allMatch",
					"outputs": [
						{
							"internalType": "string",
							"name": "HomeTeam",
							"type": "string"
						},
						{
							"internalType": "string",
							"name": "AwayTeam",
							"type": "string"
						},
						{
							"internalType": "uint256",
							"name": "startTime",
							"type": "uint256"
						},
						{
							"internalType": "uint256",
							"name": "endTime",
							"type": "uint256"
						},
						{
							"components": [
								{
									"internalType": "uint256",
									"name": "Home_score",
									"type": "uint256"
								},
								{
									"internalType": "uint256",
									"name": "Away_score",
									"type": "uint256"
								}
							],
							"internalType": "struct DistanceFiBET.Results",
							"name": "results",
							"type": "tuple"
						}
					],
					"stateMutability": "view",
					"type": "function"
				},
				{
					"inputs": [
						{
							"internalType": "uint256",
							"name": "epoch",
							"type": "uint256"
						},
						{
							"internalType": "uint256",
							"name": "_homeScore",
							"type": "uint256"
						},
						{
							"internalType": "uint256",
							"name": "_awayScore",
							"type": "uint256"
						}
					],
					"name": "closeMatch",
					"outputs": [],
					"stateMutability": "nonpayable",
					"type": "function"
				},
				{
					"inputs": [
						{
							"internalType": "string",
							"name": "_HomeTeam",
							"type": "string"
						},
						{
							"internalType": "string",
							"name": "_AwayTeam",
							"type": "string"
						},
						{
							"internalType": "uint256",
							"name": "_startTime",
							"type": "uint256"
						}
					],
					"name": "instantiateMatch",
					"outputs": [
						{
							"internalType": "bool",
							"name": "",
							"type": "bool"
						}
					],
					"stateMutability": "nonpayable",
					"type": "function"
				},
				{
					"inputs": [
						{
							"internalType": "uint256",
							"name": "epoch",
							"type": "uint256"
						}
					],
					"name": "placeBet",
					"outputs": [],
					"stateMutability": "payable",
					"type": "function"
				},
				{
					"inputs": [
						{
							"internalType": "uint256",
							"name": "",
							"type": "uint256"
						}
					],
					"name": "specificMatchBets",
					"outputs": [
						{
							"internalType": "address",
							"name": "bettor",
							"type": "address"
						},
						{
							"internalType": "uint256",
							"name": "amount",
							"type": "uint256"
						},
						{
							"internalType": "enum DistanceFiBET.Choices",
							"name": "choice",
							"type": "uint8"
						}
					],
					"stateMutability": "view",
					"type": "function"
				},
				{
					"inputs": [
						{
							"internalType": "address",
							"name": "",
							"type": "address"
						},
						{
							"internalType": "uint256",
							"name": "",
							"type": "uint256"
						}
					],
					"name": "userBet",
					"outputs": [
						{
							"internalType": "enum DistanceFiBET.Choices",
							"name": "bet",
							"type": "uint8"
						},
						{
							"internalType": "uint256",
							"name": "winAmounts",
							"type": "uint256"
						},
						{
							"internalType": "uint256",
							"name": "betAmount",
							"type": "uint256"
						}
					],
					"stateMutability": "view",
					"type": "function"
				}
			],
			"devdoc": {
				"kind": "dev",
				"methods": {},
				"version": 1
			},
			"evm": {
				"assembly": "    /* \"contracts/betting.sol\":63:2194  contract DistanceFiBET{... */\n  mstore(0x40, 0x80)\n    /* \"contracts/betting.sol\":811:861  constructor(){... */\n  callvalue\n  dup1\n  iszero\n  tag_1\n  jumpi\n  0x00\n  dup1\n  revert\ntag_1:\n  pop\n    /* \"contracts/betting.sol\":843:853  msg.sender */\n  caller\n    /* \"contracts/betting.sol\":835:840  admin */\n  0x00\n  dup1\n    /* \"contracts/betting.sol\":835:853  admin = msg.sender */\n  0x0100\n  exp\n  dup2\n  sload\n  dup2\n  0xffffffffffffffffffffffffffffffffffffffff\n  mul\n  not\n  and\n  swap1\n  dup4\n  0xffffffffffffffffffffffffffffffffffffffff\n  and\n  mul\n  or\n  swap1\n  sstore\n  pop\n    /* \"contracts/betting.sol\":63:2194  contract DistanceFiBET{... */\n  dataSize(sub_0)\n  dup1\n  dataOffset(sub_0)\n  0x00\n  codecopy\n  0x00\n  return\nstop\n\nsub_0: assembly {\n        /* \"contracts/betting.sol\":63:2194  contract DistanceFiBET{... */\n      mstore(0x40, 0x80)\n      jumpi(tag_1, lt(calldatasize, 0x04))\n      shr(0xe0, calldataload(0x00))\n      dup1\n      0xb2edb39f\n      gt\n      tag_10\n      jumpi\n      dup1\n      0xb2edb39f\n      eq\n      tag_6\n      jumpi\n      dup1\n      0xbc9e6e2c\n      eq\n      tag_7\n      jumpi\n      dup1\n      0xec7361a8\n      eq\n      tag_8\n      jumpi\n      dup1\n      0xf851a440\n      eq\n      tag_9\n      jumpi\n      jump(tag_1)\n    tag_10:\n      dup1\n      0x10fe7c48\n      eq\n      tag_2\n      jumpi\n      dup1\n      0x15a3ae71\n      eq\n      tag_3\n      jumpi\n      dup1\n      0x2172ff16\n      eq\n      tag_4\n      jumpi\n      dup1\n      0x4195ab8e\n      eq\n      tag_5\n      jumpi\n    tag_1:\n      0x00\n      dup1\n      revert\n        /* \"contracts/betting.sol\":1846:1945  function placeBet(uint epoch) payable external {... */\n    tag_2:\n      tag_11\n      0x04\n      dup1\n      calldatasize\n      sub\n      dup2\n      add\n      swap1\n      tag_12\n      swap2\n      swap1\n      tag_13\n      jump\t// in\n    tag_12:\n      tag_14\n      jump\t// in\n    tag_11:\n      stop\n        /* \"contracts/betting.sol\":749:799  mapping (uint => allBets) public specificMatchBets */\n    tag_3:\n      callvalue\n      dup1\n      iszero\n      tag_15\n      jumpi\n      0x00\n      dup1\n      revert\n    tag_15:\n      pop\n      tag_16\n      0x04\n      dup1\n      calldatasize\n      sub\n      dup2\n      add\n      swap1\n      tag_17\n      swap2\n      swap1\n      tag_13\n      jump\t// in\n    tag_17:\n      tag_18\n      jump\t// in\n    tag_16:\n      mload(0x40)\n      tag_19\n      swap4\n      swap3\n      swap2\n      swap1\n      tag_20\n      jump\t// in\n    tag_19:\n      mload(0x40)\n      dup1\n      swap2\n      sub\n      swap1\n      return\n        /* \"contracts/betting.sol\":509:544  mapping (uint => Match) public Game */\n    tag_4:\n      callvalue\n      dup1\n      iszero\n      tag_21\n      jumpi\n      0x00\n      dup1\n      revert\n    tag_21:\n      pop\n      tag_22\n      0x04\n      dup1\n      calldatasize\n      sub\n      dup2\n      add\n      swap1\n      tag_23\n      swap2\n      swap1\n      tag_13\n      jump\t// in\n    tag_23:\n      tag_24\n      jump\t// in\n    tag_22:\n      mload(0x40)\n      tag_25\n      swap6\n      swap5\n      swap4\n      swap3\n      swap2\n      swap1\n      tag_26\n      jump\t// in\n    tag_25:\n      mload(0x40)\n      dup1\n      swap2\n      sub\n      swap1\n      return\n        /* \"contracts/betting.sol\":551:611  mapping (address => mapping (uint => Bettor)) public userBet */\n    tag_5:\n      callvalue\n      dup1\n      iszero\n      tag_27\n      jumpi\n      0x00\n      dup1\n      revert\n    tag_27:\n      pop\n      tag_28\n      0x04\n      dup1\n      calldatasize\n      sub\n      dup2\n      add\n      swap1\n      tag_29\n      swap2\n      swap1\n      tag_30\n      jump\t// in\n    tag_29:\n      tag_31\n      jump\t// in\n    tag_28:\n      mload(0x40)\n      tag_32\n      swap4\n      swap3\n      swap2\n      swap1\n      tag_33\n      jump\t// in\n    tag_32:\n      mload(0x40)\n      dup1\n      swap2\n      sub\n      swap1\n      return\n        /* \"contracts/betting.sol\":618:642  Match [] public allMatch */\n    tag_6:\n      callvalue\n      dup1\n      iszero\n      tag_34\n      jumpi\n      0x00\n      dup1\n      revert\n    tag_34:\n      pop\n      tag_35\n      0x04\n      dup1\n      calldatasize\n      sub\n      dup2\n      add\n      swap1\n      tag_36\n      swap2\n      swap1\n      tag_13\n      jump\t// in\n    tag_36:\n      tag_37\n      jump\t// in\n    tag_35:\n      mload(0x40)\n      tag_38\n      swap6\n      swap5\n      swap4\n      swap3\n      swap2\n      swap1\n      tag_26\n      jump\t// in\n    tag_38:\n      mload(0x40)\n      dup1\n      swap2\n      sub\n      swap1\n      return\n        /* \"contracts/betting.sol\":869:1399  function instantiateMatch(string calldata _HomeTeam, string calldata _AwayTeam, uint _startTime) external returns (bool) {... */\n    tag_7:\n      callvalue\n      dup1\n      iszero\n      tag_39\n      jumpi\n      0x00\n      dup1\n      revert\n    tag_39:\n      pop\n      tag_40\n      0x04\n      dup1\n      calldatasize\n      sub\n      dup2\n      add\n      swap1\n      tag_41\n      swap2\n      swap1\n      tag_42\n      jump\t// in\n    tag_41:\n      tag_43\n      jump\t// in\n    tag_40:\n      mload(0x40)\n      tag_44\n      swap2\n      swap1\n      tag_45\n      jump\t// in\n    tag_44:\n      mload(0x40)\n      dup1\n      swap2\n      sub\n      swap1\n      return\n        /* \"contracts/betting.sol\":1407:1838  function closeMatch(uint epoch, uint _homeScore, uint _awayScore) external {... */\n    tag_8:\n      callvalue\n      dup1\n      iszero\n      tag_46\n      jumpi\n      0x00\n      dup1\n      revert\n    tag_46:\n      pop\n      tag_47\n      0x04\n      dup1\n      calldatasize\n      sub\n      dup2\n      add\n      swap1\n      tag_48\n      swap2\n      swap1\n      tag_49\n      jump\t// in\n    tag_48:\n      tag_50\n      jump\t// in\n    tag_47:\n      stop\n        /* \"contracts/betting.sol\":148:168  address public admin */\n    tag_9:\n      callvalue\n      dup1\n      iszero\n      tag_51\n      jumpi\n      0x00\n      dup1\n      revert\n    tag_51:\n      pop\n      tag_52\n      tag_53\n      jump\t// in\n    tag_52:\n      mload(0x40)\n      tag_54\n      swap2\n      swap1\n      tag_55\n      jump\t// in\n    tag_54:\n      mload(0x40)\n      dup1\n      swap2\n      sub\n      swap1\n      return\n        /* \"contracts/betting.sol\":1846:1945  function placeBet(uint epoch) payable external {... */\n    tag_14:\n        /* \"contracts/betting.sol\":1925:1932  1 ether */\n      0x0de0b6b3a7640000\n        /* \"contracts/betting.sol\":1912:1921  msg.value */\n      callvalue\n        /* \"contracts/betting.sol\":1912:1932  msg.value == 1 ether */\n      eq\n        /* \"contracts/betting.sol\":1904:1937  require(msg.value == 1 ether, \"\") */\n      tag_57\n      jumpi\n      mload(0x40)\n      0x08c379a000000000000000000000000000000000000000000000000000000000\n      dup2\n      mstore\n      0x04\n      add\n      tag_58\n      swap1\n      tag_59\n      jump\t// in\n    tag_58:\n      mload(0x40)\n      dup1\n      swap2\n      sub\n      swap1\n      revert\n    tag_57:\n        /* \"contracts/betting.sol\":1846:1945  function placeBet(uint epoch) payable external {... */\n      pop\n      jump\t// out\n        /* \"contracts/betting.sol\":749:799  mapping (uint => allBets) public specificMatchBets */\n    tag_18:\n      mstore(0x20, 0x04)\n      dup1\n      0x00\n      mstore\n      keccak256(0x00, 0x40)\n      0x00\n      swap2\n      pop\n      swap1\n      pop\n      dup1\n      0x00\n      add\n      0x00\n      swap1\n      sload\n      swap1\n      0x0100\n      exp\n      swap1\n      div\n      0xffffffffffffffffffffffffffffffffffffffff\n      and\n      swap1\n      dup1\n      0x01\n      add\n      sload\n      swap1\n      dup1\n      0x02\n      add\n      0x00\n      swap1\n      sload\n      swap1\n      0x0100\n      exp\n      swap1\n      div\n      0xff\n      and\n      swap1\n      pop\n      dup4\n      jump\t// out\n        /* \"contracts/betting.sol\":509:544  mapping (uint => Match) public Game */\n    tag_24:\n      mstore(0x20, 0x01)\n      dup1\n      0x00\n      mstore\n      keccak256(0x00, 0x40)\n      0x00\n      swap2\n      pop\n      swap1\n      pop\n      dup1\n      0x00\n      add\n      dup1\n      sload\n      tag_60\n      swap1\n      tag_61\n      jump\t// in\n    tag_60:\n      dup1\n      0x1f\n      add\n      0x20\n      dup1\n      swap2\n      div\n      mul\n      0x20\n      add\n      mload(0x40)\n      swap1\n      dup2\n      add\n      0x40\n      mstore\n      dup1\n      swap3\n      swap2\n      swap1\n      dup2\n      dup2\n      mstore\n      0x20\n      add\n      dup3\n      dup1\n      sload\n      tag_62\n      swap1\n      tag_61\n      jump\t// in\n    tag_62:\n      dup1\n      iszero\n      tag_63\n      jumpi\n      dup1\n      0x1f\n      lt\n      tag_64\n      jumpi\n      0x0100\n      dup1\n      dup4\n      sload\n      div\n      mul\n      dup4\n      mstore\n      swap2\n      0x20\n      add\n      swap2\n      jump(tag_63)\n    tag_64:\n      dup3\n      add\n      swap2\n      swap1\n      0x00\n      mstore\n      keccak256(0x00, 0x20)\n      swap1\n    tag_65:\n      dup2\n      sload\n      dup2\n      mstore\n      swap1\n      0x01\n      add\n      swap1\n      0x20\n      add\n      dup1\n      dup4\n      gt\n      tag_65\n      jumpi\n      dup3\n      swap1\n      sub\n      0x1f\n      and\n      dup3\n      add\n      swap2\n    tag_63:\n      pop\n      pop\n      pop\n      pop\n      pop\n      swap1\n      dup1\n      0x01\n      add\n      dup1\n      sload\n      tag_66\n      swap1\n      tag_61\n      jump\t// in\n    tag_66:\n      dup1\n      0x1f\n      add\n      0x20\n      dup1\n      swap2\n      div\n      mul\n      0x20\n      add\n      mload(0x40)\n      swap1\n      dup2\n      add\n      0x40\n      mstore\n      dup1\n      swap3\n      swap2\n      swap1\n      dup2\n      dup2\n      mstore\n      0x20\n      add\n      dup3\n      dup1\n      sload\n      tag_67\n      swap1\n      tag_61\n      jump\t// in\n    tag_67:\n      dup1\n      iszero\n      tag_68\n      jumpi\n      dup1\n      0x1f\n      lt\n      tag_69\n      jumpi\n      0x0100\n      dup1\n      dup4\n      sload\n      div\n      mul\n      dup4\n      mstore\n      swap2\n      0x20\n      add\n      swap2\n      jump(tag_68)\n    tag_69:\n      dup3\n      add\n      swap2\n      swap1\n      0x00\n      mstore\n      keccak256(0x00, 0x20)\n      swap1\n    tag_70:\n      dup2\n      sload\n      dup2\n      mstore\n      swap1\n      0x01\n      add\n      swap1\n      0x20\n      add\n      dup1\n      dup4\n      gt\n      tag_70\n      jumpi\n      dup3\n      swap1\n      sub\n      0x1f\n      and\n      dup3\n      add\n      swap2\n    tag_68:\n      pop\n      pop\n      pop\n      pop\n      pop\n      swap1\n      dup1\n      0x02\n      add\n      sload\n      swap1\n      dup1\n      0x03\n      add\n      sload\n      swap1\n      dup1\n      0x04\n      add\n      mload(0x40)\n      dup1\n      0x40\n      add\n      0x40\n      mstore\n      swap1\n      dup2\n      0x00\n      dup3\n      add\n      sload\n      dup2\n      mstore\n      0x20\n      add\n      0x01\n      dup3\n      add\n      sload\n      dup2\n      mstore\n      pop\n      pop\n      swap1\n      pop\n      dup6\n      jump\t// out\n        /* \"contracts/betting.sol\":551:611  mapping (address => mapping (uint => Bettor)) public userBet */\n    tag_31:\n      mstore(0x20, 0x02)\n      dup2\n      0x00\n      mstore\n      mstore(0x20, keccak256(0x00, 0x40))\n      dup1\n      0x00\n      mstore\n      keccak256(0x00, 0x40)\n      0x00\n      swap2\n      pop\n      swap2\n      pop\n      pop\n      dup1\n      0x00\n      add\n      0x00\n      swap1\n      sload\n      swap1\n      0x0100\n      exp\n      swap1\n      div\n      0xff\n      and\n      swap1\n      dup1\n      0x01\n      add\n      sload\n      swap1\n      dup1\n      0x02\n      add\n      sload\n      swap1\n      pop\n      dup4\n      jump\t// out\n        /* \"contracts/betting.sol\":618:642  Match [] public allMatch */\n    tag_37:\n      0x03\n      dup2\n      dup2\n      sload\n      dup2\n      lt\n      tag_71\n      jumpi\n      0x00\n      dup1\n      revert\n    tag_71:\n      swap1\n      0x00\n      mstore\n      keccak256(0x00, 0x20)\n      swap1\n      0x06\n      mul\n      add\n      0x00\n      swap2\n      pop\n      swap1\n      pop\n      dup1\n      0x00\n      add\n      dup1\n      sload\n      tag_73\n      swap1\n      tag_61\n      jump\t// in\n    tag_73:\n      dup1\n      0x1f\n      add\n      0x20\n      dup1\n      swap2\n      div\n      mul\n      0x20\n      add\n      mload(0x40)\n      swap1\n      dup2\n      add\n      0x40\n      mstore\n      dup1\n      swap3\n      swap2\n      swap1\n      dup2\n      dup2\n      mstore\n      0x20\n      add\n      dup3\n      dup1\n      sload\n      tag_74\n      swap1\n      tag_61\n      jump\t// in\n    tag_74:\n      dup1\n      iszero\n      tag_75\n      jumpi\n      dup1\n      0x1f\n      lt\n      tag_76\n      jumpi\n      0x0100\n      dup1\n      dup4\n      sload\n      div\n      mul\n      dup4\n      mstore\n      swap2\n      0x20\n      add\n      swap2\n      jump(tag_75)\n    tag_76:\n      dup3\n      add\n      swap2\n      swap1\n      0x00\n      mstore\n      keccak256(0x00, 0x20)\n      swap1\n    tag_77:\n      dup2\n      sload\n      dup2\n      mstore\n      swap1\n      0x01\n      add\n      swap1\n      0x20\n      add\n      dup1\n      dup4\n      gt\n      tag_77\n      jumpi\n      dup3\n      swap1\n      sub\n      0x1f\n      and\n      dup3\n      add\n      swap2\n    tag_75:\n      pop\n      pop\n      pop\n      pop\n      pop\n      swap1\n      dup1\n      0x01\n      add\n      dup1\n      sload\n      tag_78\n      swap1\n      tag_61\n      jump\t// in\n    tag_78:\n      dup1\n      0x1f\n      add\n      0x20\n      dup1\n      swap2\n      div\n      mul\n      0x20\n      add\n      mload(0x40)\n      swap1\n      dup2\n      add\n      0x40\n      mstore\n      dup1\n      swap3\n      swap2\n      swap1\n      dup2\n      dup2\n      mstore\n      0x20\n      add\n      dup3\n      dup1\n      sload\n      tag_79\n      swap1\n      tag_61\n      jump\t// in\n    tag_79:\n      dup1\n      iszero\n      tag_80\n      jumpi\n      dup1\n      0x1f\n      lt\n      tag_81\n      jumpi\n      0x0100\n      dup1\n      dup4\n      sload\n      div\n      mul\n      dup4\n      mstore\n      swap2\n      0x20\n      add\n      swap2\n      jump(tag_80)\n    tag_81:\n      dup3\n      add\n      swap2\n      swap1\n      0x00\n      mstore\n      keccak256(0x00, 0x20)\n      swap1\n    tag_82:\n      dup2\n      sload\n      dup2\n      mstore\n      swap1\n      0x01\n      add\n      swap1\n      0x20\n      add\n      dup1\n      dup4\n      gt\n      tag_82\n      jumpi\n      dup3\n      swap1\n      sub\n      0x1f\n      and\n      dup3\n      add\n      swap2\n    tag_80:\n      pop\n      pop\n      pop\n      pop\n      pop\n      swap1\n      dup1\n      0x02\n      add\n      sload\n      swap1\n      dup1\n      0x03\n      add\n      sload\n      swap1\n      dup1\n      0x04\n      add\n      mload(0x40)\n      dup1\n      0x40\n      add\n      0x40\n      mstore\n      swap1\n      dup2\n      0x00\n      dup3\n      add\n      sload\n      dup2\n      mstore\n      0x20\n      add\n      0x01\n      dup3\n      add\n      sload\n      dup2\n      mstore\n      pop\n      pop\n      swap1\n      pop\n      dup6\n      jump\t// out\n        /* \"contracts/betting.sol\":869:1399  function instantiateMatch(string calldata _HomeTeam, string calldata _AwayTeam, uint _startTime) external returns (bool) {... */\n    tag_43:\n        /* \"contracts/betting.sol\":984:988  bool */\n      0x00\n        /* \"contracts/betting.sol\":1018:1028  msg.sender */\n      caller\n        /* \"contracts/betting.sol\":1009:1028  admin == msg.sender */\n      0xffffffffffffffffffffffffffffffffffffffff\n      and\n        /* \"contracts/betting.sol\":1009:1014  admin */\n      0x00\n      dup1\n      sload\n      swap1\n      0x0100\n      exp\n      swap1\n      div\n      0xffffffffffffffffffffffffffffffffffffffff\n      and\n        /* \"contracts/betting.sol\":1009:1028  admin == msg.sender */\n      0xffffffffffffffffffffffffffffffffffffffff\n      and\n      eq\n        /* \"contracts/betting.sol\":1001:1042  require(admin == msg.sender, \"Not Owner\") */\n      tag_84\n      jumpi\n      mload(0x40)\n      0x08c379a000000000000000000000000000000000000000000000000000000000\n      dup2\n      mstore\n      0x04\n      add\n      tag_85\n      swap1\n      tag_86\n      jump\t// in\n    tag_85:\n      mload(0x40)\n      dup1\n      swap2\n      sub\n      swap1\n      revert\n    tag_84:\n        /* \"contracts/betting.sol\":1053:1066  uint matchEnd */\n      0x00\n        /* \"contracts/betting.sol\":1082:1092  95 seconds */\n      0x5f\n        /* \"contracts/betting.sol\":1069:1079  _startTime */\n      dup4\n        /* \"contracts/betting.sol\":1069:1092  _startTime + 95 seconds */\n      tag_87\n      swap2\n      swap1\n      tag_88\n      jump\t// in\n    tag_87:\n        /* \"contracts/betting.sol\":1053:1092  uint matchEnd = _startTime + 95 seconds */\n      swap1\n      pop\n        /* \"contracts/betting.sol\":1103:1133  Results memory startingResults */\n      0x00\n        /* \"contracts/betting.sol\":1136:1149  Results(0, 0) */\n      mload(0x40)\n      dup1\n      0x40\n      add\n      0x40\n      mstore\n      dup1\n        /* \"contracts/betting.sol\":1144:1145  0 */\n      0x00\n        /* \"contracts/betting.sol\":1136:1149  Results(0, 0) */\n      dup2\n      mstore\n      0x20\n      add\n        /* \"contracts/betting.sol\":1147:1148  0 */\n      0x00\n        /* \"contracts/betting.sol\":1136:1149  Results(0, 0) */\n      dup2\n      mstore\n      pop\n        /* \"contracts/betting.sol\":1103:1149  Results memory startingResults = Results(0, 0) */\n      swap1\n      pop\n        /* \"contracts/betting.sol\":1160:1169  uint game */\n      0x00\n        /* \"contracts/betting.sol\":1172:1180  allMatch */\n      0x03\n        /* \"contracts/betting.sol\":1172:1187  allMatch.length */\n      dup1\n      sload\n      swap1\n      pop\n        /* \"contracts/betting.sol\":1160:1187  uint game = allMatch.length */\n      swap1\n      pop\n        /* \"contracts/betting.sol\":1211:1277  Match(_HomeTeam, _AwayTeam, _startTime, matchEnd, startingResults) */\n      mload(0x40)\n      dup1\n      0xa0\n      add\n      0x40\n      mstore\n      dup1\n        /* \"contracts/betting.sol\":1217:1226  _HomeTeam */\n      dup11\n      dup11\n        /* \"contracts/betting.sol\":1211:1277  Match(_HomeTeam, _AwayTeam, _startTime, matchEnd, startingResults) */\n      dup1\n      dup1\n      0x1f\n      add\n      0x20\n      dup1\n      swap2\n      div\n      mul\n      0x20\n      add\n      mload(0x40)\n      swap1\n      dup2\n      add\n      0x40\n      mstore\n      dup1\n      swap4\n      swap3\n      swap2\n      swap1\n      dup2\n      dup2\n      mstore\n      0x20\n      add\n      dup4\n      dup4\n      dup1\n      dup3\n      dup5\n      calldatacopy\n      0x00\n      dup2\n      dup5\n      add\n      mstore\n      not(0x1f)\n      0x1f\n      dup3\n      add\n      and\n      swap1\n      pop\n      dup1\n      dup4\n      add\n      swap3\n      pop\n      pop\n      pop\n      pop\n      pop\n      pop\n      pop\n      dup2\n      mstore\n      0x20\n      add\n        /* \"contracts/betting.sol\":1228:1237  _AwayTeam */\n      dup9\n      dup9\n        /* \"contracts/betting.sol\":1211:1277  Match(_HomeTeam, _AwayTeam, _startTime, matchEnd, startingResults) */\n      dup1\n      dup1\n      0x1f\n      add\n      0x20\n      dup1\n      swap2\n      div\n      mul\n      0x20\n      add\n      mload(0x40)\n      swap1\n      dup2\n      add\n      0x40\n      mstore\n      dup1\n      swap4\n      swap3\n      swap2\n      swap1\n      dup2\n      dup2\n      mstore\n      0x20\n      add\n      dup4\n      dup4\n      dup1\n      dup3\n      dup5\n      calldatacopy\n      0x00\n      dup2\n      dup5\n      add\n      mstore\n      not(0x1f)\n      0x1f\n      dup3\n      add\n      and\n      swap1\n      pop\n      dup1\n      dup4\n      add\n      swap3\n      pop\n      pop\n      pop\n      pop\n      pop\n      pop\n      pop\n      dup2\n      mstore\n      0x20\n      add\n        /* \"contracts/betting.sol\":1239:1249  _startTime */\n      dup7\n        /* \"contracts/betting.sol\":1211:1277  Match(_HomeTeam, _AwayTeam, _startTime, matchEnd, startingResults) */\n      dup2\n      mstore\n      0x20\n      add\n        /* \"contracts/betting.sol\":1251:1259  matchEnd */\n      dup5\n        /* \"contracts/betting.sol\":1211:1277  Match(_HomeTeam, _AwayTeam, _startTime, matchEnd, startingResults) */\n      dup2\n      mstore\n      0x20\n      add\n        /* \"contracts/betting.sol\":1261:1276  startingResults */\n      dup4\n        /* \"contracts/betting.sol\":1211:1277  Match(_HomeTeam, _AwayTeam, _startTime, matchEnd, startingResults) */\n      dup2\n      mstore\n      pop\n        /* \"contracts/betting.sol\":1198:1202  Game */\n      0x01\n        /* \"contracts/betting.sol\":1198:1208  Game[game] */\n      0x00\n        /* \"contracts/betting.sol\":1203:1207  game */\n      dup4\n        /* \"contracts/betting.sol\":1198:1208  Game[game] */\n      dup2\n      mstore\n      0x20\n      add\n      swap1\n      dup2\n      mstore\n      0x20\n      add\n      0x00\n      keccak256\n        /* \"contracts/betting.sol\":1198:1277  Game[game] = Match(_HomeTeam, _AwayTeam, _startTime, matchEnd, startingResults) */\n      0x00\n      dup3\n      add\n      mload\n      dup2\n      0x00\n      add\n      swap1\n      dup2\n      tag_89\n      swap2\n      swap1\n      tag_90\n      jump\t// in\n    tag_89:\n      pop\n      0x20\n      dup3\n      add\n      mload\n      dup2\n      0x01\n      add\n      swap1\n      dup2\n      tag_91\n      swap2\n      swap1\n      tag_90\n      jump\t// in\n    tag_91:\n      pop\n      0x40\n      dup3\n      add\n      mload\n      dup2\n      0x02\n      add\n      sstore\n      0x60\n      dup3\n      add\n      mload\n      dup2\n      0x03\n      add\n      sstore\n      0x80\n      dup3\n      add\n      mload\n      dup2\n      0x04\n      add\n      0x00\n      dup3\n      add\n      mload\n      dup2\n      0x00\n      add\n      sstore\n      0x20\n      dup3\n      add\n      mload\n      dup2\n      0x01\n      add\n      sstore\n      pop\n      pop\n      swap1\n      pop\n      pop\n        /* \"contracts/betting.sol\":1288:1296  allMatch */\n      0x03\n        /* \"contracts/betting.sol\":1302:1368  Match(_HomeTeam, _AwayTeam, _startTime, matchEnd, startingResults) */\n      mload(0x40)\n      dup1\n      0xa0\n      add\n      0x40\n      mstore\n      dup1\n        /* \"contracts/betting.sol\":1308:1317  _HomeTeam */\n      dup12\n      dup12\n        /* \"contracts/betting.sol\":1302:1368  Match(_HomeTeam, _AwayTeam, _startTime, matchEnd, startingResults) */\n      dup1\n      dup1\n      0x1f\n      add\n      0x20\n      dup1\n      swap2\n      div\n      mul\n      0x20\n      add\n      mload(0x40)\n      swap1\n      dup2\n      add\n      0x40\n      mstore\n      dup1\n      swap4\n      swap3\n      swap2\n      swap1\n      dup2\n      dup2\n      mstore\n      0x20\n      add\n      dup4\n      dup4\n      dup1\n      dup3\n      dup5\n      calldatacopy\n      0x00\n      dup2\n      dup5\n      add\n      mstore\n      not(0x1f)\n      0x1f\n      dup3\n      add\n      and\n      swap1\n      pop\n      dup1\n      dup4\n      add\n      swap3\n      pop\n      pop\n      pop\n      pop\n      pop\n      pop\n      pop\n      dup2\n      mstore\n      0x20\n      add\n        /* \"contracts/betting.sol\":1319:1328  _AwayTeam */\n      dup10\n      dup10\n        /* \"contracts/betting.sol\":1302:1368  Match(_HomeTeam, _AwayTeam, _startTime, matchEnd, startingResults) */\n      dup1\n      dup1\n      0x1f\n      add\n      0x20\n      dup1\n      swap2\n      div\n      mul\n      0x20\n      add\n      mload(0x40)\n      swap1\n      dup2\n      add\n      0x40\n      mstore\n      dup1\n      swap4\n      swap3\n      swap2\n      swap1\n      dup2\n      dup2\n      mstore\n      0x20\n      add\n      dup4\n      dup4\n      dup1\n      dup3\n      dup5\n      calldatacopy\n      0x00\n      dup2\n      dup5\n      add\n      mstore\n      not(0x1f)\n      0x1f\n      dup3\n      add\n      and\n      swap1\n      pop\n      dup1\n      dup4\n      add\n      swap3\n      pop\n      pop\n      pop\n      pop\n      pop\n      pop\n      pop\n      dup2\n      mstore\n      0x20\n      add\n        /* \"contracts/betting.sol\":1330:1340  _startTime */\n      dup8\n        /* \"contracts/betting.sol\":1302:1368  Match(_HomeTeam, _AwayTeam, _startTime, matchEnd, startingResults) */\n      dup2\n      mstore\n      0x20\n      add\n        /* \"contracts/betting.sol\":1342:1350  matchEnd */\n      dup6\n        /* \"contracts/betting.sol\":1302:1368  Match(_HomeTeam, _AwayTeam, _startTime, matchEnd, startingResults) */\n      dup2\n      mstore\n      0x20\n      add\n        /* \"contracts/betting.sol\":1352:1367  startingResults */\n      dup5\n        /* \"contracts/betting.sol\":1302:1368  Match(_HomeTeam, _AwayTeam, _startTime, matchEnd, startingResults) */\n      dup2\n      mstore\n      pop\n        /* \"contracts/betting.sol\":1288:1369  allMatch.push(Match(_HomeTeam, _AwayTeam, _startTime, matchEnd, startingResults)) */\n      swap1\n      dup1\n      0x01\n      dup2\n      sload\n      add\n      dup1\n      dup3\n      sstore\n      dup1\n      swap2\n      pop\n      pop\n      0x01\n      swap1\n      sub\n      swap1\n      0x00\n      mstore\n      keccak256(0x00, 0x20)\n      swap1\n      0x06\n      mul\n      add\n      0x00\n      swap1\n      swap2\n      swap1\n      swap2\n      swap1\n      swap2\n      pop\n      0x00\n      dup3\n      add\n      mload\n      dup2\n      0x00\n      add\n      swap1\n      dup2\n      tag_93\n      swap2\n      swap1\n      tag_90\n      jump\t// in\n    tag_93:\n      pop\n      0x20\n      dup3\n      add\n      mload\n      dup2\n      0x01\n      add\n      swap1\n      dup2\n      tag_94\n      swap2\n      swap1\n      tag_90\n      jump\t// in\n    tag_94:\n      pop\n      0x40\n      dup3\n      add\n      mload\n      dup2\n      0x02\n      add\n      sstore\n      0x60\n      dup3\n      add\n      mload\n      dup2\n      0x03\n      add\n      sstore\n      0x80\n      dup3\n      add\n      mload\n      dup2\n      0x04\n      add\n      0x00\n      dup3\n      add\n      mload\n      dup2\n      0x00\n      add\n      sstore\n      0x20\n      dup3\n      add\n      mload\n      dup2\n      0x01\n      add\n      sstore\n      pop\n      pop\n      pop\n      pop\n        /* \"contracts/betting.sol\":1387:1391  true */\n      0x01\n        /* \"contracts/betting.sol\":1380:1391  return true */\n      swap4\n      pop\n      pop\n      pop\n      pop\n        /* \"contracts/betting.sol\":869:1399  function instantiateMatch(string calldata _HomeTeam, string calldata _AwayTeam, uint _startTime) external returns (bool) {... */\n      swap6\n      swap5\n      pop\n      pop\n      pop\n      pop\n      pop\n      jump\t// out\n        /* \"contracts/betting.sol\":1407:1838  function closeMatch(uint epoch, uint _homeScore, uint _awayScore) external {... */\n    tag_50:\n        /* \"contracts/betting.sol\":1510:1520  msg.sender */\n      caller\n        /* \"contracts/betting.sol\":1501:1520  admin == msg.sender */\n      0xffffffffffffffffffffffffffffffffffffffff\n      and\n        /* \"contracts/betting.sol\":1501:1506  admin */\n      0x00\n      dup1\n      sload\n      swap1\n      0x0100\n      exp\n      swap1\n      div\n      0xffffffffffffffffffffffffffffffffffffffff\n      and\n        /* \"contracts/betting.sol\":1501:1520  admin == msg.sender */\n      0xffffffffffffffffffffffffffffffffffffffff\n      and\n      eq\n        /* \"contracts/betting.sol\":1493:1534  require(admin == msg.sender, \"Not Owner\") */\n      tag_96\n      jumpi\n      mload(0x40)\n      0x08c379a000000000000000000000000000000000000000000000000000000000\n      dup2\n      mstore\n      0x04\n      add\n      tag_97\n      swap1\n      tag_86\n      jump\t// in\n    tag_97:\n      mload(0x40)\n      dup1\n      swap2\n      sub\n      swap1\n      revert\n    tag_96:\n        /* \"contracts/betting.sol\":1545:1561  uint currentTime */\n      0x00\n        /* \"contracts/betting.sol\":1564:1579  block.timestamp */\n      timestamp\n        /* \"contracts/betting.sol\":1545:1579  uint currentTime = block.timestamp */\n      swap1\n      pop\n        /* \"contracts/betting.sol\":1613:1621  allMatch */\n      0x03\n        /* \"contracts/betting.sol\":1622:1627  epoch */\n      dup5\n        /* \"contracts/betting.sol\":1613:1628  allMatch[epoch] */\n      dup2\n      sload\n      dup2\n      lt\n      tag_98\n      jumpi\n      tag_99\n      tag_100\n      jump\t// in\n    tag_99:\n    tag_98:\n      swap1\n      0x00\n      mstore\n      keccak256(0x00, 0x20)\n      swap1\n      0x06\n      mul\n      add\n        /* \"contracts/betting.sol\":1613:1636  allMatch[epoch].endTime */\n      0x03\n      add\n      sload\n        /* \"contracts/betting.sol\":1598:1609  currentTime */\n      dup2\n        /* \"contracts/betting.sol\":1598:1636  currentTime >= allMatch[epoch].endTime */\n      lt\n      iszero\n        /* \"contracts/betting.sol\":1590:1658  require(currentTime >= allMatch[epoch].endTime, \"Match is still on\") */\n      tag_102\n      jumpi\n      mload(0x40)\n      0x08c379a000000000000000000000000000000000000000000000000000000000\n      dup2\n      mstore\n      0x04\n      add\n      tag_103\n      swap1\n      tag_104\n      jump\t// in\n    tag_103:\n      mload(0x40)\n      dup1\n      swap2\n      sub\n      swap1\n      revert\n    tag_102:\n        /* \"contracts/betting.sol\":1669:1698  Results memory closingResults */\n      0x00\n        /* \"contracts/betting.sol\":1701:1732  Results(_homeScore, _awayScore) */\n      mload(0x40)\n      dup1\n      0x40\n      add\n      0x40\n      mstore\n      dup1\n        /* \"contracts/betting.sol\":1709:1719  _homeScore */\n      dup6\n        /* \"contracts/betting.sol\":1701:1732  Results(_homeScore, _awayScore) */\n      dup2\n      mstore\n      0x20\n      add\n        /* \"contracts/betting.sol\":1721:1731  _awayScore */\n      dup5\n        /* \"contracts/betting.sol\":1701:1732  Results(_homeScore, _awayScore) */\n      dup2\n      mstore\n      pop\n        /* \"contracts/betting.sol\":1669:1732  Results memory closingResults = Results(_homeScore, _awayScore) */\n      swap1\n      pop\n        /* \"contracts/betting.sol\":1769:1783  closingResults */\n      dup1\n        /* \"contracts/betting.sol\":1743:1751  allMatch */\n      0x03\n        /* \"contracts/betting.sol\":1752:1757  epoch */\n      dup7\n        /* \"contracts/betting.sol\":1743:1758  allMatch[epoch] */\n      dup2\n      sload\n      dup2\n      lt\n      tag_105\n      jumpi\n      tag_106\n      tag_100\n      jump\t// in\n    tag_106:\n    tag_105:\n      swap1\n      0x00\n      mstore\n      keccak256(0x00, 0x20)\n      swap1\n      0x06\n      mul\n      add\n        /* \"contracts/betting.sol\":1743:1766  allMatch[epoch].results */\n      0x04\n      add\n        /* \"contracts/betting.sol\":1743:1783  allMatch[epoch].results = closingResults */\n      0x00\n      dup3\n      add\n      mload\n      dup2\n      0x00\n      add\n      sstore\n      0x20\n      dup3\n      add\n      mload\n      dup2\n      0x01\n      add\n      sstore\n      swap1\n      pop\n      pop\n        /* \"contracts/betting.sol\":1816:1830  closingResults */\n      dup1\n        /* \"contracts/betting.sol\":1794:1798  Game */\n      0x01\n        /* \"contracts/betting.sol\":1794:1805  Game[epoch] */\n      0x00\n        /* \"contracts/betting.sol\":1799:1804  epoch */\n      dup8\n        /* \"contracts/betting.sol\":1794:1805  Game[epoch] */\n      dup2\n      mstore\n      0x20\n      add\n      swap1\n      dup2\n      mstore\n      0x20\n      add\n      0x00\n      keccak256\n        /* \"contracts/betting.sol\":1794:1813  Game[epoch].results */\n      0x04\n      add\n        /* \"contracts/betting.sol\":1794:1830  Game[epoch].results = closingResults */\n      0x00\n      dup3\n      add\n      mload\n      dup2\n      0x00\n      add\n      sstore\n      0x20\n      dup3\n      add\n      mload\n      dup2\n      0x01\n      add\n      sstore\n      swap1\n      pop\n      pop\n        /* \"contracts/betting.sol\":1482:1838  {... */\n      pop\n      pop\n        /* \"contracts/betting.sol\":1407:1838  function closeMatch(uint epoch, uint _homeScore, uint _awayScore) external {... */\n      pop\n      pop\n      pop\n      jump\t// out\n        /* \"contracts/betting.sol\":148:168  address public admin */\n    tag_53:\n      0x00\n      dup1\n      sload\n      swap1\n      0x0100\n      exp\n      swap1\n      div\n      0xffffffffffffffffffffffffffffffffffffffff\n      and\n      dup2\n      jump\t// out\n        /* \"#utility.yul\":88:205   */\n    tag_109:\n        /* \"#utility.yul\":197:198   */\n      0x00\n        /* \"#utility.yul\":194:195   */\n      dup1\n        /* \"#utility.yul\":187:199   */\n      revert\n        /* \"#utility.yul\":211:328   */\n    tag_110:\n        /* \"#utility.yul\":320:321   */\n      0x00\n        /* \"#utility.yul\":317:318   */\n      dup1\n        /* \"#utility.yul\":310:322   */\n      revert\n        /* \"#utility.yul\":334:411   */\n    tag_111:\n        /* \"#utility.yul\":371:378   */\n      0x00\n        /* \"#utility.yul\":400:405   */\n      dup2\n        /* \"#utility.yul\":389:405   */\n      swap1\n      pop\n        /* \"#utility.yul\":334:411   */\n      swap2\n      swap1\n      pop\n      jump\t// out\n        /* \"#utility.yul\":417:539   */\n    tag_112:\n        /* \"#utility.yul\":490:514   */\n      tag_168\n        /* \"#utility.yul\":508:513   */\n      dup2\n        /* \"#utility.yul\":490:514   */\n      tag_111\n      jump\t// in\n    tag_168:\n        /* \"#utility.yul\":483:488   */\n      dup2\n        /* \"#utility.yul\":480:515   */\n      eq\n        /* \"#utility.yul\":470:533   */\n      tag_169\n      jumpi\n        /* \"#utility.yul\":529:530   */\n      0x00\n        /* \"#utility.yul\":526:527   */\n      dup1\n        /* \"#utility.yul\":519:531   */\n      revert\n        /* \"#utility.yul\":470:533   */\n    tag_169:\n        /* \"#utility.yul\":417:539   */\n      pop\n      jump\t// out\n        /* \"#utility.yul\":545:684   */\n    tag_113:\n        /* \"#utility.yul\":591:596   */\n      0x00\n        /* \"#utility.yul\":629:635   */\n      dup2\n        /* \"#utility.yul\":616:636   */\n      calldataload\n        /* \"#utility.yul\":607:636   */\n      swap1\n      pop\n        /* \"#utility.yul\":645:678   */\n      tag_171\n        /* \"#utility.yul\":672:677   */\n      dup2\n        /* \"#utility.yul\":645:678   */\n      tag_112\n      jump\t// in\n    tag_171:\n        /* \"#utility.yul\":545:684   */\n      swap3\n      swap2\n      pop\n      pop\n      jump\t// out\n        /* \"#utility.yul\":690:1019   */\n    tag_13:\n        /* \"#utility.yul\":749:755   */\n      0x00\n        /* \"#utility.yul\":798:800   */\n      0x20\n        /* \"#utility.yul\":786:795   */\n      dup3\n        /* \"#utility.yul\":777:784   */\n      dup5\n        /* \"#utility.yul\":773:796   */\n      sub\n        /* \"#utility.yul\":769:801   */\n      slt\n        /* \"#utility.yul\":766:885   */\n      iszero\n      tag_173\n      jumpi\n        /* \"#utility.yul\":804:883   */\n      tag_174\n      tag_109\n      jump\t// in\n    tag_174:\n        /* \"#utility.yul\":766:885   */\n    tag_173:\n        /* \"#utility.yul\":924:925   */\n      0x00\n        /* \"#utility.yul\":949:1002   */\n      tag_175\n        /* \"#utility.yul\":994:1001   */\n      dup5\n        /* \"#utility.yul\":985:991   */\n      dup3\n        /* \"#utility.yul\":974:983   */\n      dup6\n        /* \"#utility.yul\":970:992   */\n      add\n        /* \"#utility.yul\":949:1002   */\n      tag_113\n      jump\t// in\n    tag_175:\n        /* \"#utility.yul\":939:1002   */\n      swap2\n      pop\n        /* \"#utility.yul\":895:1012   */\n      pop\n        /* \"#utility.yul\":690:1019   */\n      swap3\n      swap2\n      pop\n      pop\n      jump\t// out\n        /* \"#utility.yul\":1025:1151   */\n    tag_114:\n        /* \"#utility.yul\":1062:1069   */\n      0x00\n        /* \"#utility.yul\":1102:1144   */\n      0xffffffffffffffffffffffffffffffffffffffff\n        /* \"#utility.yul\":1095:1100   */\n      dup3\n        /* \"#utility.yul\":1091:1145   */\n      and\n        /* \"#utility.yul\":1080:1145   */\n      swap1\n      pop\n        /* \"#utility.yul\":1025:1151   */\n      swap2\n      swap1\n      pop\n      jump\t// out\n        /* \"#utility.yul\":1157:1253   */\n    tag_115:\n        /* \"#utility.yul\":1194:1201   */\n      0x00\n        /* \"#utility.yul\":1223:1247   */\n      tag_178\n        /* \"#utility.yul\":1241:1246   */\n      dup3\n        /* \"#utility.yul\":1223:1247   */\n      tag_114\n      jump\t// in\n    tag_178:\n        /* \"#utility.yul\":1212:1247   */\n      swap1\n      pop\n        /* \"#utility.yul\":1157:1253   */\n      swap2\n      swap1\n      pop\n      jump\t// out\n        /* \"#utility.yul\":1259:1377   */\n    tag_116:\n        /* \"#utility.yul\":1346:1370   */\n      tag_180\n        /* \"#utility.yul\":1364:1369   */\n      dup2\n        /* \"#utility.yul\":1346:1370   */\n      tag_115\n      jump\t// in\n    tag_180:\n        /* \"#utility.yul\":1341:1344   */\n      dup3\n        /* \"#utility.yul\":1334:1371   */\n      mstore\n        /* \"#utility.yul\":1259:1377   */\n      pop\n      pop\n      jump\t// out\n        /* \"#utility.yul\":1383:1501   */\n    tag_117:\n        /* \"#utility.yul\":1470:1494   */\n      tag_182\n        /* \"#utility.yul\":1488:1493   */\n      dup2\n        /* \"#utility.yul\":1470:1494   */\n      tag_111\n      jump\t// in\n    tag_182:\n        /* \"#utility.yul\":1465:1468   */\n      dup3\n        /* \"#utility.yul\":1458:1495   */\n      mstore\n        /* \"#utility.yul\":1383:1501   */\n      pop\n      pop\n      jump\t// out\n        /* \"#utility.yul\":1507:1687   */\n    tag_118:\n        /* \"#utility.yul\":1555:1632   */\n      0x4e487b7100000000000000000000000000000000000000000000000000000000\n        /* \"#utility.yul\":1552:1553   */\n      0x00\n        /* \"#utility.yul\":1545:1633   */\n      mstore\n        /* \"#utility.yul\":1652:1656   */\n      0x21\n        /* \"#utility.yul\":1649:1650   */\n      0x04\n        /* \"#utility.yul\":1642:1657   */\n      mstore\n        /* \"#utility.yul\":1676:1680   */\n      0x24\n        /* \"#utility.yul\":1673:1674   */\n      0x00\n        /* \"#utility.yul\":1666:1681   */\n      revert\n        /* \"#utility.yul\":1693:1807   */\n    tag_119:\n        /* \"#utility.yul\":1775:1776   */\n      0x04\n        /* \"#utility.yul\":1768:1773   */\n      dup2\n        /* \"#utility.yul\":1765:1777   */\n      lt\n        /* \"#utility.yul\":1755:1801   */\n      tag_185\n      jumpi\n        /* \"#utility.yul\":1781:1799   */\n      tag_186\n      tag_118\n      jump\t// in\n    tag_186:\n        /* \"#utility.yul\":1755:1801   */\n    tag_185:\n        /* \"#utility.yul\":1693:1807   */\n      pop\n      jump\t// out\n        /* \"#utility.yul\":1813:1942   */\n    tag_120:\n        /* \"#utility.yul\":1859:1866   */\n      0x00\n        /* \"#utility.yul\":1888:1893   */\n      dup2\n        /* \"#utility.yul\":1877:1893   */\n      swap1\n      pop\n        /* \"#utility.yul\":1894:1936   */\n      tag_188\n        /* \"#utility.yul\":1930:1935   */\n      dup3\n        /* \"#utility.yul\":1894:1936   */\n      tag_119\n      jump\t// in\n    tag_188:\n        /* \"#utility.yul\":1813:1942   */\n      swap2\n      swap1\n      pop\n      jump\t// out\n        /* \"#utility.yul\":1948:2077   */\n    tag_121:\n        /* \"#utility.yul\":2005:2014   */\n      0x00\n        /* \"#utility.yul\":2038:2071   */\n      tag_190\n        /* \"#utility.yul\":2065:2070   */\n      dup3\n        /* \"#utility.yul\":2038:2071   */\n      tag_120\n      jump\t// in\n    tag_190:\n        /* \"#utility.yul\":2025:2071   */\n      swap1\n      pop\n        /* \"#utility.yul\":1948:2077   */\n      swap2\n      swap1\n      pop\n      jump\t// out\n        /* \"#utility.yul\":2083:2228   */\n    tag_122:\n        /* \"#utility.yul\":2177:2221   */\n      tag_192\n        /* \"#utility.yul\":2215:2220   */\n      dup2\n        /* \"#utility.yul\":2177:2221   */\n      tag_121\n      jump\t// in\n    tag_192:\n        /* \"#utility.yul\":2172:2175   */\n      dup3\n        /* \"#utility.yul\":2165:2222   */\n      mstore\n        /* \"#utility.yul\":2083:2228   */\n      pop\n      pop\n      jump\t// out\n        /* \"#utility.yul\":2234:2690   */\n    tag_20:\n        /* \"#utility.yul\":2390:2394   */\n      0x00\n        /* \"#utility.yul\":2428:2430   */\n      0x60\n        /* \"#utility.yul\":2417:2426   */\n      dup3\n        /* \"#utility.yul\":2413:2431   */\n      add\n        /* \"#utility.yul\":2405:2431   */\n      swap1\n      pop\n        /* \"#utility.yul\":2441:2512   */\n      tag_194\n        /* \"#utility.yul\":2509:2510   */\n      0x00\n        /* \"#utility.yul\":2498:2507   */\n      dup4\n        /* \"#utility.yul\":2494:2511   */\n      add\n        /* \"#utility.yul\":2485:2491   */\n      dup7\n        /* \"#utility.yul\":2441:2512   */\n      tag_116\n      jump\t// in\n    tag_194:\n        /* \"#utility.yul\":2522:2594   */\n      tag_195\n        /* \"#utility.yul\":2590:2592   */\n      0x20\n        /* \"#utility.yul\":2579:2588   */\n      dup4\n        /* \"#utility.yul\":2575:2593   */\n      add\n        /* \"#utility.yul\":2566:2572   */\n      dup6\n        /* \"#utility.yul\":2522:2594   */\n      tag_117\n      jump\t// in\n    tag_195:\n        /* \"#utility.yul\":2604:2683   */\n      tag_196\n        /* \"#utility.yul\":2679:2681   */\n      0x40\n        /* \"#utility.yul\":2668:2677   */\n      dup4\n        /* \"#utility.yul\":2664:2682   */\n      add\n        /* \"#utility.yul\":2655:2661   */\n      dup5\n        /* \"#utility.yul\":2604:2683   */\n      tag_122\n      jump\t// in\n    tag_196:\n        /* \"#utility.yul\":2234:2690   */\n      swap5\n      swap4\n      pop\n      pop\n      pop\n      pop\n      jump\t// out\n        /* \"#utility.yul\":2696:2795   */\n    tag_123:\n        /* \"#utility.yul\":2748:2754   */\n      0x00\n        /* \"#utility.yul\":2782:2787   */\n      dup2\n        /* \"#utility.yul\":2776:2788   */\n      mload\n        /* \"#utility.yul\":2766:2788   */\n      swap1\n      pop\n        /* \"#utility.yul\":2696:2795   */\n      swap2\n      swap1\n      pop\n      jump\t// out\n        /* \"#utility.yul\":2801:2970   */\n    tag_124:\n        /* \"#utility.yul\":2885:2896   */\n      0x00\n        /* \"#utility.yul\":2919:2925   */\n      dup3\n        /* \"#utility.yul\":2914:2917   */\n      dup3\n        /* \"#utility.yul\":2907:2926   */\n      mstore\n        /* \"#utility.yul\":2959:2963   */\n      0x20\n        /* \"#utility.yul\":2954:2957   */\n      dup3\n        /* \"#utility.yul\":2950:2964   */\n      add\n        /* \"#utility.yul\":2935:2964   */\n      swap1\n      pop\n        /* \"#utility.yul\":2801:2970   */\n      swap3\n      swap2\n      pop\n      pop\n      jump\t// out\n        /* \"#utility.yul\":2976:3222   */\n    tag_125:\n        /* \"#utility.yul\":3057:3058   */\n      0x00\n        /* \"#utility.yul\":3067:3180   */\n    tag_200:\n        /* \"#utility.yul\":3081:3087   */\n      dup4\n        /* \"#utility.yul\":3078:3079   */\n      dup2\n        /* \"#utility.yul\":3075:3088   */\n      lt\n        /* \"#utility.yul\":3067:3180   */\n      iszero\n      tag_202\n      jumpi\n        /* \"#utility.yul\":3166:3167   */\n      dup1\n        /* \"#utility.yul\":3161:3164   */\n      dup3\n        /* \"#utility.yul\":3157:3168   */\n      add\n        /* \"#utility.yul\":3151:3169   */\n      mload\n        /* \"#utility.yul\":3147:3148   */\n      dup2\n        /* \"#utility.yul\":3142:3145   */\n      dup5\n        /* \"#utility.yul\":3138:3149   */\n      add\n        /* \"#utility.yul\":3131:3170   */\n      mstore\n        /* \"#utility.yul\":3103:3105   */\n      0x20\n        /* \"#utility.yul\":3100:3101   */\n      dup2\n        /* \"#utility.yul\":3096:3106   */\n      add\n        /* \"#utility.yul\":3091:3106   */\n      swap1\n      pop\n        /* \"#utility.yul\":3067:3180   */\n      jump(tag_200)\n    tag_202:\n        /* \"#utility.yul\":3214:3215   */\n      0x00\n        /* \"#utility.yul\":3205:3211   */\n      dup5\n        /* \"#utility.yul\":3200:3203   */\n      dup5\n        /* \"#utility.yul\":3196:3212   */\n      add\n        /* \"#utility.yul\":3189:3216   */\n      mstore\n        /* \"#utility.yul\":3038:3222   */\n      pop\n        /* \"#utility.yul\":2976:3222   */\n      pop\n      pop\n      pop\n      jump\t// out\n        /* \"#utility.yul\":3228:3330   */\n    tag_126:\n        /* \"#utility.yul\":3269:3275   */\n      0x00\n        /* \"#utility.yul\":3320:3322   */\n      0x1f\n        /* \"#utility.yul\":3316:3323   */\n      not\n        /* \"#utility.yul\":3311:3313   */\n      0x1f\n        /* \"#utility.yul\":3304:3309   */\n      dup4\n        /* \"#utility.yul\":3300:3314   */\n      add\n        /* \"#utility.yul\":3296:3324   */\n      and\n        /* \"#utility.yul\":3286:3324   */\n      swap1\n      pop\n        /* \"#utility.yul\":3228:3330   */\n      swap2\n      swap1\n      pop\n      jump\t// out\n        /* \"#utility.yul\":3336:3713   */\n    tag_127:\n        /* \"#utility.yul\":3424:3427   */\n      0x00\n        /* \"#utility.yul\":3452:3491   */\n      tag_205\n        /* \"#utility.yul\":3485:3490   */\n      dup3\n        /* \"#utility.yul\":3452:3491   */\n      tag_123\n      jump\t// in\n    tag_205:\n        /* \"#utility.yul\":3507:3578   */\n      tag_206\n        /* \"#utility.yul\":3571:3577   */\n      dup2\n        /* \"#utility.yul\":3566:3569   */\n      dup6\n        /* \"#utility.yul\":3507:3578   */\n      tag_124\n      jump\t// in\n    tag_206:\n        /* \"#utility.yul\":3500:3578   */\n      swap4\n      pop\n        /* \"#utility.yul\":3587:3652   */\n      tag_207\n        /* \"#utility.yul\":3645:3651   */\n      dup2\n        /* \"#utility.yul\":3640:3643   */\n      dup6\n        /* \"#utility.yul\":3633:3637   */\n      0x20\n        /* \"#utility.yul\":3626:3631   */\n      dup7\n        /* \"#utility.yul\":3622:3638   */\n      add\n        /* \"#utility.yul\":3587:3652   */\n      tag_125\n      jump\t// in\n    tag_207:\n        /* \"#utility.yul\":3677:3706   */\n      tag_208\n        /* \"#utility.yul\":3699:3705   */\n      dup2\n        /* \"#utility.yul\":3677:3706   */\n      tag_126\n      jump\t// in\n    tag_208:\n        /* \"#utility.yul\":3672:3675   */\n      dup5\n        /* \"#utility.yul\":3668:3707   */\n      add\n        /* \"#utility.yul\":3661:3707   */\n      swap2\n      pop\n        /* \"#utility.yul\":3428:3713   */\n      pop\n        /* \"#utility.yul\":3336:3713   */\n      swap3\n      swap2\n      pop\n      pop\n      jump\t// out\n        /* \"#utility.yul\":3719:3827   */\n    tag_128:\n        /* \"#utility.yul\":3796:3820   */\n      tag_210\n        /* \"#utility.yul\":3814:3819   */\n      dup2\n        /* \"#utility.yul\":3796:3820   */\n      tag_111\n      jump\t// in\n    tag_210:\n        /* \"#utility.yul\":3791:3794   */\n      dup3\n        /* \"#utility.yul\":3784:3821   */\n      mstore\n        /* \"#utility.yul\":3719:3827   */\n      pop\n      pop\n      jump\t// out\n        /* \"#utility.yul\":3901:4416   */\n    tag_129:\n        /* \"#utility.yul\":4044:4048   */\n      0x40\n        /* \"#utility.yul\":4039:4042   */\n      dup3\n        /* \"#utility.yul\":4035:4049   */\n      add\n        /* \"#utility.yul\":4137:4141   */\n      0x00\n        /* \"#utility.yul\":4130:4135   */\n      dup3\n        /* \"#utility.yul\":4126:4142   */\n      add\n        /* \"#utility.yul\":4120:4143   */\n      mload\n        /* \"#utility.yul\":4156:4219   */\n      tag_212\n        /* \"#utility.yul\":4213:4217   */\n      0x00\n        /* \"#utility.yul\":4208:4211   */\n      dup6\n        /* \"#utility.yul\":4204:4218   */\n      add\n        /* \"#utility.yul\":4190:4202   */\n      dup3\n        /* \"#utility.yul\":4156:4219   */\n      tag_128\n      jump\t// in\n    tag_212:\n        /* \"#utility.yul\":4059:4229   */\n      pop\n        /* \"#utility.yul\":4317:4321   */\n      0x20\n        /* \"#utility.yul\":4310:4315   */\n      dup3\n        /* \"#utility.yul\":4306:4322   */\n      add\n        /* \"#utility.yul\":4300:4323   */\n      mload\n        /* \"#utility.yul\":4336:4399   */\n      tag_213\n        /* \"#utility.yul\":4393:4397   */\n      0x20\n        /* \"#utility.yul\":4388:4391   */\n      dup6\n        /* \"#utility.yul\":4384:4398   */\n      add\n        /* \"#utility.yul\":4370:4382   */\n      dup3\n        /* \"#utility.yul\":4336:4399   */\n      tag_128\n      jump\t// in\n    tag_213:\n        /* \"#utility.yul\":4239:4409   */\n      pop\n        /* \"#utility.yul\":4013:4416   */\n      pop\n        /* \"#utility.yul\":3901:4416   */\n      pop\n      pop\n      jump\t// out\n        /* \"#utility.yul\":4422:5360   */\n    tag_26:\n        /* \"#utility.yul\":4713:4717   */\n      0x00\n        /* \"#utility.yul\":4751:4754   */\n      0xc0\n        /* \"#utility.yul\":4740:4749   */\n      dup3\n        /* \"#utility.yul\":4736:4755   */\n      add\n        /* \"#utility.yul\":4728:4755   */\n      swap1\n      pop\n        /* \"#utility.yul\":4801:4810   */\n      dup2\n        /* \"#utility.yul\":4795:4799   */\n      dup2\n        /* \"#utility.yul\":4791:4811   */\n      sub\n        /* \"#utility.yul\":4787:4788   */\n      0x00\n        /* \"#utility.yul\":4776:4785   */\n      dup4\n        /* \"#utility.yul\":4772:4789   */\n      add\n        /* \"#utility.yul\":4765:4812   */\n      mstore\n        /* \"#utility.yul\":4829:4907   */\n      tag_215\n        /* \"#utility.yul\":4902:4906   */\n      dup2\n        /* \"#utility.yul\":4893:4899   */\n      dup9\n        /* \"#utility.yul\":4829:4907   */\n      tag_127\n      jump\t// in\n    tag_215:\n        /* \"#utility.yul\":4821:4907   */\n      swap1\n      pop\n        /* \"#utility.yul\":4954:4963   */\n      dup2\n        /* \"#utility.yul\":4948:4952   */\n      dup2\n        /* \"#utility.yul\":4944:4964   */\n      sub\n        /* \"#utility.yul\":4939:4941   */\n      0x20\n        /* \"#utility.yul\":4928:4937   */\n      dup4\n        /* \"#utility.yul\":4924:4942   */\n      add\n        /* \"#utility.yul\":4917:4965   */\n      mstore\n        /* \"#utility.yul\":4982:5060   */\n      tag_216\n        /* \"#utility.yul\":5055:5059   */\n      dup2\n        /* \"#utility.yul\":5046:5052   */\n      dup8\n        /* \"#utility.yul\":4982:5060   */\n      tag_127\n      jump\t// in\n    tag_216:\n        /* \"#utility.yul\":4974:5060   */\n      swap1\n      pop\n        /* \"#utility.yul\":5070:5142   */\n      tag_217\n        /* \"#utility.yul\":5138:5140   */\n      0x40\n        /* \"#utility.yul\":5127:5136   */\n      dup4\n        /* \"#utility.yul\":5123:5141   */\n      add\n        /* \"#utility.yul\":5114:5120   */\n      dup7\n        /* \"#utility.yul\":5070:5142   */\n      tag_117\n      jump\t// in\n    tag_217:\n        /* \"#utility.yul\":5152:5224   */\n      tag_218\n        /* \"#utility.yul\":5220:5222   */\n      0x60\n        /* \"#utility.yul\":5209:5218   */\n      dup4\n        /* \"#utility.yul\":5205:5223   */\n      add\n        /* \"#utility.yul\":5196:5202   */\n      dup6\n        /* \"#utility.yul\":5152:5224   */\n      tag_117\n      jump\t// in\n    tag_218:\n        /* \"#utility.yul\":5234:5353   */\n      tag_219\n        /* \"#utility.yul\":5348:5351   */\n      0x80\n        /* \"#utility.yul\":5337:5346   */\n      dup4\n        /* \"#utility.yul\":5333:5352   */\n      add\n        /* \"#utility.yul\":5324:5330   */\n      dup5\n        /* \"#utility.yul\":5234:5353   */\n      tag_129\n      jump\t// in\n    tag_219:\n        /* \"#utility.yul\":4422:5360   */\n      swap7\n      swap6\n      pop\n      pop\n      pop\n      pop\n      pop\n      pop\n      jump\t// out\n        /* \"#utility.yul\":5366:5488   */\n    tag_130:\n        /* \"#utility.yul\":5439:5463   */\n      tag_221\n        /* \"#utility.yul\":5457:5462   */\n      dup2\n        /* \"#utility.yul\":5439:5463   */\n      tag_115\n      jump\t// in\n    tag_221:\n        /* \"#utility.yul\":5432:5437   */\n      dup2\n        /* \"#utility.yul\":5429:5464   */\n      eq\n        /* \"#utility.yul\":5419:5482   */\n      tag_222\n      jumpi\n        /* \"#utility.yul\":5478:5479   */\n      0x00\n        /* \"#utility.yul\":5475:5476   */\n      dup1\n        /* \"#utility.yul\":5468:5480   */\n      revert\n        /* \"#utility.yul\":5419:5482   */\n    tag_222:\n        /* \"#utility.yul\":5366:5488   */\n      pop\n      jump\t// out\n        /* \"#utility.yul\":5494:5633   */\n    tag_131:\n        /* \"#utility.yul\":5540:5545   */\n      0x00\n        /* \"#utility.yul\":5578:5584   */\n      dup2\n        /* \"#utility.yul\":5565:5585   */\n      calldataload\n        /* \"#utility.yul\":5556:5585   */\n      swap1\n      pop\n        /* \"#utility.yul\":5594:5627   */\n      tag_224\n        /* \"#utility.yul\":5621:5626   */\n      dup2\n        /* \"#utility.yul\":5594:5627   */\n      tag_130\n      jump\t// in\n    tag_224:\n        /* \"#utility.yul\":5494:5633   */\n      swap3\n      swap2\n      pop\n      pop\n      jump\t// out\n        /* \"#utility.yul\":5639:6113   */\n    tag_30:\n        /* \"#utility.yul\":5707:5713   */\n      0x00\n        /* \"#utility.yul\":5715:5721   */\n      dup1\n        /* \"#utility.yul\":5764:5766   */\n      0x40\n        /* \"#utility.yul\":5752:5761   */\n      dup4\n        /* \"#utility.yul\":5743:5750   */\n      dup6\n        /* \"#utility.yul\":5739:5762   */\n      sub\n        /* \"#utility.yul\":5735:5767   */\n      slt\n        /* \"#utility.yul\":5732:5851   */\n      iszero\n      tag_226\n      jumpi\n        /* \"#utility.yul\":5770:5849   */\n      tag_227\n      tag_109\n      jump\t// in\n    tag_227:\n        /* \"#utility.yul\":5732:5851   */\n    tag_226:\n        /* \"#utility.yul\":5890:5891   */\n      0x00\n        /* \"#utility.yul\":5915:5968   */\n      tag_228\n        /* \"#utility.yul\":5960:5967   */\n      dup6\n        /* \"#utility.yul\":5951:5957   */\n      dup3\n        /* \"#utility.yul\":5940:5949   */\n      dup7\n        /* \"#utility.yul\":5936:5958   */\n      add\n        /* \"#utility.yul\":5915:5968   */\n      tag_131\n      jump\t// in\n    tag_228:\n        /* \"#utility.yul\":5905:5968   */\n      swap3\n      pop\n        /* \"#utility.yul\":5861:5978   */\n      pop\n        /* \"#utility.yul\":6017:6019   */\n      0x20\n        /* \"#utility.yul\":6043:6096   */\n      tag_229\n        /* \"#utility.yul\":6088:6095   */\n      dup6\n        /* \"#utility.yul\":6079:6085   */\n      dup3\n        /* \"#utility.yul\":6068:6077   */\n      dup7\n        /* \"#utility.yul\":6064:6086   */\n      add\n        /* \"#utility.yul\":6043:6096   */\n      tag_113\n      jump\t// in\n    tag_229:\n        /* \"#utility.yul\":6033:6096   */\n      swap2\n      pop\n        /* \"#utility.yul\":5988:6106   */\n      pop\n        /* \"#utility.yul\":5639:6113   */\n      swap3\n      pop\n      swap3\n      swap1\n      pop\n      jump\t// out\n        /* \"#utility.yul\":6119:6575   */\n    tag_33:\n        /* \"#utility.yul\":6275:6279   */\n      0x00\n        /* \"#utility.yul\":6313:6315   */\n      0x60\n        /* \"#utility.yul\":6302:6311   */\n      dup3\n        /* \"#utility.yul\":6298:6316   */\n      add\n        /* \"#utility.yul\":6290:6316   */\n      swap1\n      pop\n        /* \"#utility.yul\":6326:6404   */\n      tag_231\n        /* \"#utility.yul\":6401:6402   */\n      0x00\n        /* \"#utility.yul\":6390:6399   */\n      dup4\n        /* \"#utility.yul\":6386:6403   */\n      add\n        /* \"#utility.yul\":6377:6383   */\n      dup7\n        /* \"#utility.yul\":6326:6404   */\n      tag_122\n      jump\t// in\n    tag_231:\n        /* \"#utility.yul\":6414:6486   */\n      tag_232\n        /* \"#utility.yul\":6482:6484   */\n      0x20\n        /* \"#utility.yul\":6471:6480   */\n      dup4\n        /* \"#utility.yul\":6467:6485   */\n      add\n        /* \"#utility.yul\":6458:6464   */\n      dup6\n        /* \"#utility.yul\":6414:6486   */\n      tag_117\n      jump\t// in\n    tag_232:\n        /* \"#utility.yul\":6496:6568   */\n      tag_233\n        /* \"#utility.yul\":6564:6566   */\n      0x40\n        /* \"#utility.yul\":6553:6562   */\n      dup4\n        /* \"#utility.yul\":6549:6567   */\n      add\n        /* \"#utility.yul\":6540:6546   */\n      dup5\n        /* \"#utility.yul\":6496:6568   */\n      tag_117\n      jump\t// in\n    tag_233:\n        /* \"#utility.yul\":6119:6575   */\n      swap5\n      swap4\n      pop\n      pop\n      pop\n      pop\n      jump\t// out\n        /* \"#utility.yul\":6581:6698   */\n    tag_132:\n        /* \"#utility.yul\":6690:6691   */\n      0x00\n        /* \"#utility.yul\":6687:6688   */\n      dup1\n        /* \"#utility.yul\":6680:6692   */\n      revert\n        /* \"#utility.yul\":6704:6821   */\n    tag_133:\n        /* \"#utility.yul\":6813:6814   */\n      0x00\n        /* \"#utility.yul\":6810:6811   */\n      dup1\n        /* \"#utility.yul\":6803:6815   */\n      revert\n        /* \"#utility.yul\":6827:6944   */\n    tag_134:\n        /* \"#utility.yul\":6936:6937   */\n      0x00\n        /* \"#utility.yul\":6933:6934   */\n      dup1\n        /* \"#utility.yul\":6926:6938   */\n      revert\n        /* \"#utility.yul\":6964:7517   */\n    tag_135:\n        /* \"#utility.yul\":7022:7030   */\n      0x00\n        /* \"#utility.yul\":7032:7038   */\n      dup1\n        /* \"#utility.yul\":7082:7085   */\n      dup4\n        /* \"#utility.yul\":7075:7079   */\n      0x1f\n        /* \"#utility.yul\":7067:7073   */\n      dup5\n        /* \"#utility.yul\":7063:7080   */\n      add\n        /* \"#utility.yul\":7059:7086   */\n      slt\n        /* \"#utility.yul\":7049:7171   */\n      tag_238\n      jumpi\n        /* \"#utility.yul\":7090:7169   */\n      tag_239\n      tag_132\n      jump\t// in\n    tag_239:\n        /* \"#utility.yul\":7049:7171   */\n    tag_238:\n        /* \"#utility.yul\":7203:7209   */\n      dup3\n        /* \"#utility.yul\":7190:7210   */\n      calldataload\n        /* \"#utility.yul\":7180:7210   */\n      swap1\n      pop\n        /* \"#utility.yul\":7233:7251   */\n      0xffffffffffffffff\n        /* \"#utility.yul\":7225:7231   */\n      dup2\n        /* \"#utility.yul\":7222:7252   */\n      gt\n        /* \"#utility.yul\":7219:7336   */\n      iszero\n      tag_240\n      jumpi\n        /* \"#utility.yul\":7255:7334   */\n      tag_241\n      tag_133\n      jump\t// in\n    tag_241:\n        /* \"#utility.yul\":7219:7336   */\n    tag_240:\n        /* \"#utility.yul\":7369:7373   */\n      0x20\n        /* \"#utility.yul\":7361:7367   */\n      dup4\n        /* \"#utility.yul\":7357:7374   */\n      add\n        /* \"#utility.yul\":7345:7374   */\n      swap2\n      pop\n        /* \"#utility.yul\":7423:7426   */\n      dup4\n        /* \"#utility.yul\":7415:7419   */\n      0x01\n        /* \"#utility.yul\":7407:7413   */\n      dup3\n        /* \"#utility.yul\":7403:7420   */\n      mul\n        /* \"#utility.yul\":7393:7401   */\n      dup4\n        /* \"#utility.yul\":7389:7421   */\n      add\n        /* \"#utility.yul\":7386:7427   */\n      gt\n        /* \"#utility.yul\":7383:7511   */\n      iszero\n      tag_242\n      jumpi\n        /* \"#utility.yul\":7430:7509   */\n      tag_243\n      tag_134\n      jump\t// in\n    tag_243:\n        /* \"#utility.yul\":7383:7511   */\n    tag_242:\n        /* \"#utility.yul\":6964:7517   */\n      swap3\n      pop\n      swap3\n      swap1\n      pop\n      jump\t// out\n        /* \"#utility.yul\":7523:8542   */\n    tag_42:\n        /* \"#utility.yul\":7624:7630   */\n      0x00\n        /* \"#utility.yul\":7632:7638   */\n      dup1\n        /* \"#utility.yul\":7640:7646   */\n      0x00\n        /* \"#utility.yul\":7648:7654   */\n      dup1\n        /* \"#utility.yul\":7656:7662   */\n      0x00\n        /* \"#utility.yul\":7705:7707   */\n      0x60\n        /* \"#utility.yul\":7693:7702   */\n      dup7\n        /* \"#utility.yul\":7684:7691   */\n      dup9\n        /* \"#utility.yul\":7680:7703   */\n      sub\n        /* \"#utility.yul\":7676:7708   */\n      slt\n        /* \"#utility.yul\":7673:7792   */\n      iszero\n      tag_245\n      jumpi\n        /* \"#utility.yul\":7711:7790   */\n      tag_246\n      tag_109\n      jump\t// in\n    tag_246:\n        /* \"#utility.yul\":7673:7792   */\n    tag_245:\n        /* \"#utility.yul\":7859:7860   */\n      0x00\n        /* \"#utility.yul\":7848:7857   */\n      dup7\n        /* \"#utility.yul\":7844:7861   */\n      add\n        /* \"#utility.yul\":7831:7862   */\n      calldataload\n        /* \"#utility.yul\":7889:7907   */\n      0xffffffffffffffff\n        /* \"#utility.yul\":7881:7887   */\n      dup2\n        /* \"#utility.yul\":7878:7908   */\n      gt\n        /* \"#utility.yul\":7875:7992   */\n      iszero\n      tag_247\n      jumpi\n        /* \"#utility.yul\":7911:7990   */\n      tag_248\n      tag_110\n      jump\t// in\n    tag_248:\n        /* \"#utility.yul\":7875:7992   */\n    tag_247:\n        /* \"#utility.yul\":8024:8089   */\n      tag_249\n        /* \"#utility.yul\":8081:8088   */\n      dup9\n        /* \"#utility.yul\":8072:8078   */\n      dup3\n        /* \"#utility.yul\":8061:8070   */\n      dup10\n        /* \"#utility.yul\":8057:8079   */\n      add\n        /* \"#utility.yul\":8024:8089   */\n      tag_135\n      jump\t// in\n    tag_249:\n        /* \"#utility.yul\":8006:8089   */\n      swap6\n      pop\n      swap6\n      pop\n        /* \"#utility.yul\":7802:8099   */\n      pop\n        /* \"#utility.yul\":8166:8168   */\n      0x20\n        /* \"#utility.yul\":8155:8164   */\n      dup7\n        /* \"#utility.yul\":8151:8169   */\n      add\n        /* \"#utility.yul\":8138:8170   */\n      calldataload\n        /* \"#utility.yul\":8197:8215   */\n      0xffffffffffffffff\n        /* \"#utility.yul\":8189:8195   */\n      dup2\n        /* \"#utility.yul\":8186:8216   */\n      gt\n        /* \"#utility.yul\":8183:8300   */\n      iszero\n      tag_250\n      jumpi\n        /* \"#utility.yul\":8219:8298   */\n      tag_251\n      tag_110\n      jump\t// in\n    tag_251:\n        /* \"#utility.yul\":8183:8300   */\n    tag_250:\n        /* \"#utility.yul\":8332:8397   */\n      tag_252\n        /* \"#utility.yul\":8389:8396   */\n      dup9\n        /* \"#utility.yul\":8380:8386   */\n      dup3\n        /* \"#utility.yul\":8369:8378   */\n      dup10\n        /* \"#utility.yul\":8365:8387   */\n      add\n        /* \"#utility.yul\":8332:8397   */\n      tag_135\n      jump\t// in\n    tag_252:\n        /* \"#utility.yul\":8314:8397   */\n      swap4\n      pop\n      swap4\n      pop\n        /* \"#utility.yul\":8109:8407   */\n      pop\n        /* \"#utility.yul\":8446:8448   */\n      0x40\n        /* \"#utility.yul\":8472:8525   */\n      tag_253\n        /* \"#utility.yul\":8517:8524   */\n      dup9\n        /* \"#utility.yul\":8508:8514   */\n      dup3\n        /* \"#utility.yul\":8497:8506   */\n      dup10\n        /* \"#utility.yul\":8493:8515   */\n      add\n        /* \"#utility.yul\":8472:8525   */\n      tag_113\n      jump\t// in\n    tag_253:\n        /* \"#utility.yul\":8462:8525   */\n      swap2\n      pop\n        /* \"#utility.yul\":8417:8535   */\n      pop\n        /* \"#utility.yul\":7523:8542   */\n      swap3\n      swap6\n      pop\n      swap3\n      swap6\n      swap1\n      swap4\n      pop\n      jump\t// out\n        /* \"#utility.yul\":8548:8638   */\n    tag_136:\n        /* \"#utility.yul\":8582:8589   */\n      0x00\n        /* \"#utility.yul\":8625:8630   */\n      dup2\n        /* \"#utility.yul\":8618:8631   */\n      iszero\n        /* \"#utility.yul\":8611:8632   */\n      iszero\n        /* \"#utility.yul\":8600:8632   */\n      swap1\n      pop\n        /* \"#utility.yul\":8548:8638   */\n      swap2\n      swap1\n      pop\n      jump\t// out\n        /* \"#utility.yul\":8644:8753   */\n    tag_137:\n        /* \"#utility.yul\":8725:8746   */\n      tag_256\n        /* \"#utility.yul\":8740:8745   */\n      dup2\n        /* \"#utility.yul\":8725:8746   */\n      tag_136\n      jump\t// in\n    tag_256:\n        /* \"#utility.yul\":8720:8723   */\n      dup3\n        /* \"#utility.yul\":8713:8747   */\n      mstore\n        /* \"#utility.yul\":8644:8753   */\n      pop\n      pop\n      jump\t// out\n        /* \"#utility.yul\":8759:8969   */\n    tag_45:\n        /* \"#utility.yul\":8846:8850   */\n      0x00\n        /* \"#utility.yul\":8884:8886   */\n      0x20\n        /* \"#utility.yul\":8873:8882   */\n      dup3\n        /* \"#utility.yul\":8869:8887   */\n      add\n        /* \"#utility.yul\":8861:8887   */\n      swap1\n      pop\n        /* \"#utility.yul\":8897:8962   */\n      tag_258\n        /* \"#utility.yul\":8959:8960   */\n      0x00\n        /* \"#utility.yul\":8948:8957   */\n      dup4\n        /* \"#utility.yul\":8944:8961   */\n      add\n        /* \"#utility.yul\":8935:8941   */\n      dup5\n        /* \"#utility.yul\":8897:8962   */\n      tag_137\n      jump\t// in\n    tag_258:\n        /* \"#utility.yul\":8759:8969   */\n      swap3\n      swap2\n      pop\n      pop\n      jump\t// out\n        /* \"#utility.yul\":8975:9594   */\n    tag_49:\n        /* \"#utility.yul\":9052:9058   */\n      0x00\n        /* \"#utility.yul\":9060:9066   */\n      dup1\n        /* \"#utility.yul\":9068:9074   */\n      0x00\n        /* \"#utility.yul\":9117:9119   */\n      0x60\n        /* \"#utility.yul\":9105:9114   */\n      dup5\n        /* \"#utility.yul\":9096:9103   */\n      dup7\n        /* \"#utility.yul\":9092:9115   */\n      sub\n        /* \"#utility.yul\":9088:9120   */\n      slt\n        /* \"#utility.yul\":9085:9204   */\n      iszero\n      tag_260\n      jumpi\n        /* \"#utility.yul\":9123:9202   */\n      tag_261\n      tag_109\n      jump\t// in\n    tag_261:\n        /* \"#utility.yul\":9085:9204   */\n    tag_260:\n        /* \"#utility.yul\":9243:9244   */\n      0x00\n        /* \"#utility.yul\":9268:9321   */\n      tag_262\n        /* \"#utility.yul\":9313:9320   */\n      dup7\n        /* \"#utility.yul\":9304:9310   */\n      dup3\n        /* \"#utility.yul\":9293:9302   */\n      dup8\n        /* \"#utility.yul\":9289:9311   */\n      add\n        /* \"#utility.yul\":9268:9321   */\n      tag_113\n      jump\t// in\n    tag_262:\n        /* \"#utility.yul\":9258:9321   */\n      swap4\n      pop\n        /* \"#utility.yul\":9214:9331   */\n      pop\n        /* \"#utility.yul\":9370:9372   */\n      0x20\n        /* \"#utility.yul\":9396:9449   */\n      tag_263\n        /* \"#utility.yul\":9441:9448   */\n      dup7\n        /* \"#utility.yul\":9432:9438   */\n      dup3\n        /* \"#utility.yul\":9421:9430   */\n      dup8\n        /* \"#utility.yul\":9417:9439   */\n      add\n        /* \"#utility.yul\":9396:9449   */\n      tag_113\n      jump\t// in\n    tag_263:\n        /* \"#utility.yul\":9386:9449   */\n      swap3\n      pop\n        /* \"#utility.yul\":9341:9459   */\n      pop\n        /* \"#utility.yul\":9498:9500   */\n      0x40\n        /* \"#utility.yul\":9524:9577   */\n      tag_264\n        /* \"#utility.yul\":9569:9576   */\n      dup7\n        /* \"#utility.yul\":9560:9566   */\n      dup3\n        /* \"#utility.yul\":9549:9558   */\n      dup8\n        /* \"#utility.yul\":9545:9567   */\n      add\n        /* \"#utility.yul\":9524:9577   */\n      tag_113\n      jump\t// in\n    tag_264:\n        /* \"#utility.yul\":9514:9577   */\n      swap2\n      pop\n        /* \"#utility.yul\":9469:9587   */\n      pop\n        /* \"#utility.yul\":8975:9594   */\n      swap3\n      pop\n      swap3\n      pop\n      swap3\n      jump\t// out\n        /* \"#utility.yul\":9600:9822   */\n    tag_55:\n        /* \"#utility.yul\":9693:9697   */\n      0x00\n        /* \"#utility.yul\":9731:9733   */\n      0x20\n        /* \"#utility.yul\":9720:9729   */\n      dup3\n        /* \"#utility.yul\":9716:9734   */\n      add\n        /* \"#utility.yul\":9708:9734   */\n      swap1\n      pop\n        /* \"#utility.yul\":9744:9815   */\n      tag_266\n        /* \"#utility.yul\":9812:9813   */\n      0x00\n        /* \"#utility.yul\":9801:9810   */\n      dup4\n        /* \"#utility.yul\":9797:9814   */\n      add\n        /* \"#utility.yul\":9788:9794   */\n      dup5\n        /* \"#utility.yul\":9744:9815   */\n      tag_116\n      jump\t// in\n    tag_266:\n        /* \"#utility.yul\":9600:9822   */\n      swap3\n      swap2\n      pop\n      pop\n      jump\t// out\n        /* \"#utility.yul\":9828:9942   */\n    tag_138:\n      pop\n      jump\t// out\n        /* \"#utility.yul\":9948:10312   */\n    tag_139:\n        /* \"#utility.yul\":10090:10093   */\n      0x00\n        /* \"#utility.yul\":10111:10177   */\n      tag_269\n        /* \"#utility.yul\":10175:10176   */\n      0x00\n        /* \"#utility.yul\":10170:10173   */\n      dup4\n        /* \"#utility.yul\":10111:10177   */\n      tag_124\n      jump\t// in\n    tag_269:\n        /* \"#utility.yul\":10104:10177   */\n      swap2\n      pop\n        /* \"#utility.yul\":10186:10279   */\n      tag_270\n        /* \"#utility.yul\":10275:10278   */\n      dup3\n        /* \"#utility.yul\":10186:10279   */\n      tag_138\n      jump\t// in\n    tag_270:\n        /* \"#utility.yul\":10304:10305   */\n      0x00\n        /* \"#utility.yul\":10299:10302   */\n      dup3\n        /* \"#utility.yul\":10295:10306   */\n      add\n        /* \"#utility.yul\":10288:10306   */\n      swap1\n      pop\n        /* \"#utility.yul\":9948:10312   */\n      swap2\n      swap1\n      pop\n      jump\t// out\n        /* \"#utility.yul\":10318:10737   */\n    tag_59:\n        /* \"#utility.yul\":10484:10488   */\n      0x00\n        /* \"#utility.yul\":10522:10524   */\n      0x20\n        /* \"#utility.yul\":10511:10520   */\n      dup3\n        /* \"#utility.yul\":10507:10525   */\n      add\n        /* \"#utility.yul\":10499:10525   */\n      swap1\n      pop\n        /* \"#utility.yul\":10571:10580   */\n      dup2\n        /* \"#utility.yul\":10565:10569   */\n      dup2\n        /* \"#utility.yul\":10561:10581   */\n      sub\n        /* \"#utility.yul\":10557:10558   */\n      0x00\n        /* \"#utility.yul\":10546:10555   */\n      dup4\n        /* \"#utility.yul\":10542:10559   */\n      add\n        /* \"#utility.yul\":10535:10582   */\n      mstore\n        /* \"#utility.yul\":10599:10730   */\n      tag_272\n        /* \"#utility.yul\":10725:10729   */\n      dup2\n        /* \"#utility.yul\":10599:10730   */\n      tag_139\n      jump\t// in\n    tag_272:\n        /* \"#utility.yul\":10591:10730   */\n      swap1\n      pop\n        /* \"#utility.yul\":10318:10737   */\n      swap2\n      swap1\n      pop\n      jump\t// out\n        /* \"#utility.yul\":10743:10923   */\n    tag_140:\n        /* \"#utility.yul\":10791:10868   */\n      0x4e487b7100000000000000000000000000000000000000000000000000000000\n        /* \"#utility.yul\":10788:10789   */\n      0x00\n        /* \"#utility.yul\":10781:10869   */\n      mstore\n        /* \"#utility.yul\":10888:10892   */\n      0x22\n        /* \"#utility.yul\":10885:10886   */\n      0x04\n        /* \"#utility.yul\":10878:10893   */\n      mstore\n        /* \"#utility.yul\":10912:10916   */\n      0x24\n        /* \"#utility.yul\":10909:10910   */\n      0x00\n        /* \"#utility.yul\":10902:10917   */\n      revert\n        /* \"#utility.yul\":10929:11249   */\n    tag_61:\n        /* \"#utility.yul\":10973:10979   */\n      0x00\n        /* \"#utility.yul\":11010:11011   */\n      0x02\n        /* \"#utility.yul\":11004:11008   */\n      dup3\n        /* \"#utility.yul\":11000:11012   */\n      div\n        /* \"#utility.yul\":10990:11012   */\n      swap1\n      pop\n        /* \"#utility.yul\":11057:11058   */\n      0x01\n        /* \"#utility.yul\":11051:11055   */\n      dup3\n        /* \"#utility.yul\":11047:11059   */\n      and\n        /* \"#utility.yul\":11078:11096   */\n      dup1\n        /* \"#utility.yul\":11068:11149   */\n      tag_275\n      jumpi\n        /* \"#utility.yul\":11134:11138   */\n      0x7f\n        /* \"#utility.yul\":11126:11132   */\n      dup3\n        /* \"#utility.yul\":11122:11139   */\n      and\n        /* \"#utility.yul\":11112:11139   */\n      swap2\n      pop\n        /* \"#utility.yul\":11068:11149   */\n    tag_275:\n        /* \"#utility.yul\":11196:11198   */\n      0x20\n        /* \"#utility.yul\":11188:11194   */\n      dup3\n        /* \"#utility.yul\":11185:11199   */\n      lt\n        /* \"#utility.yul\":11165:11183   */\n      dup2\n        /* \"#utility.yul\":11162:11200   */\n      sub\n        /* \"#utility.yul\":11159:11243   */\n      tag_276\n      jumpi\n        /* \"#utility.yul\":11215:11233   */\n      tag_277\n      tag_140\n      jump\t// in\n    tag_277:\n        /* \"#utility.yul\":11159:11243   */\n    tag_276:\n        /* \"#utility.yul\":10980:11249   */\n      pop\n        /* \"#utility.yul\":10929:11249   */\n      swap2\n      swap1\n      pop\n      jump\t// out\n        /* \"#utility.yul\":11255:11414   */\n    tag_141:\n        /* \"#utility.yul\":11395:11406   */\n      0x4e6f74204f776e65720000000000000000000000000000000000000000000000\n        /* \"#utility.yul\":11391:11392   */\n      0x00\n        /* \"#utility.yul\":11383:11389   */\n      dup3\n        /* \"#utility.yul\":11379:11393   */\n      add\n        /* \"#utility.yul\":11372:11407   */\n      mstore\n        /* \"#utility.yul\":11255:11414   */\n      pop\n      jump\t// out\n        /* \"#utility.yul\":11420:11785   */\n    tag_142:\n        /* \"#utility.yul\":11562:11565   */\n      0x00\n        /* \"#utility.yul\":11583:11649   */\n      tag_280\n        /* \"#utility.yul\":11647:11648   */\n      0x09\n        /* \"#utility.yul\":11642:11645   */\n      dup4\n        /* \"#utility.yul\":11583:11649   */\n      tag_124\n      jump\t// in\n    tag_280:\n        /* \"#utility.yul\":11576:11649   */\n      swap2\n      pop\n        /* \"#utility.yul\":11658:11751   */\n      tag_281\n        /* \"#utility.yul\":11747:11750   */\n      dup3\n        /* \"#utility.yul\":11658:11751   */\n      tag_141\n      jump\t// in\n    tag_281:\n        /* \"#utility.yul\":11776:11778   */\n      0x20\n        /* \"#utility.yul\":11771:11774   */\n      dup3\n        /* \"#utility.yul\":11767:11779   */\n      add\n        /* \"#utility.yul\":11760:11779   */\n      swap1\n      pop\n        /* \"#utility.yul\":11420:11785   */\n      swap2\n      swap1\n      pop\n      jump\t// out\n        /* \"#utility.yul\":11791:12210   */\n    tag_86:\n        /* \"#utility.yul\":11957:11961   */\n      0x00\n        /* \"#utility.yul\":11995:11997   */\n      0x20\n        /* \"#utility.yul\":11984:11993   */\n      dup3\n        /* \"#utility.yul\":11980:11998   */\n      add\n        /* \"#utility.yul\":11972:11998   */\n      swap1\n      pop\n        /* \"#utility.yul\":12044:12053   */\n      dup2\n        /* \"#utility.yul\":12038:12042   */\n      dup2\n        /* \"#utility.yul\":12034:12054   */\n      sub\n        /* \"#utility.yul\":12030:12031   */\n      0x00\n        /* \"#utility.yul\":12019:12028   */\n      dup4\n        /* \"#utility.yul\":12015:12032   */\n      add\n        /* \"#utility.yul\":12008:12055   */\n      mstore\n        /* \"#utility.yul\":12072:12203   */\n      tag_283\n        /* \"#utility.yul\":12198:12202   */\n      dup2\n        /* \"#utility.yul\":12072:12203   */\n      tag_142\n      jump\t// in\n    tag_283:\n        /* \"#utility.yul\":12064:12203   */\n      swap1\n      pop\n        /* \"#utility.yul\":11791:12210   */\n      swap2\n      swap1\n      pop\n      jump\t// out\n        /* \"#utility.yul\":12216:12396   */\n    tag_143:\n        /* \"#utility.yul\":12264:12341   */\n      0x4e487b7100000000000000000000000000000000000000000000000000000000\n        /* \"#utility.yul\":12261:12262   */\n      0x00\n        /* \"#utility.yul\":12254:12342   */\n      mstore\n        /* \"#utility.yul\":12361:12365   */\n      0x11\n        /* \"#utility.yul\":12358:12359   */\n      0x04\n        /* \"#utility.yul\":12351:12366   */\n      mstore\n        /* \"#utility.yul\":12385:12389   */\n      0x24\n        /* \"#utility.yul\":12382:12383   */\n      0x00\n        /* \"#utility.yul\":12375:12390   */\n      revert\n        /* \"#utility.yul\":12402:12593   */\n    tag_88:\n        /* \"#utility.yul\":12442:12445   */\n      0x00\n        /* \"#utility.yul\":12461:12481   */\n      tag_286\n        /* \"#utility.yul\":12479:12480   */\n      dup3\n        /* \"#utility.yul\":12461:12481   */\n      tag_111\n      jump\t// in\n    tag_286:\n        /* \"#utility.yul\":12456:12481   */\n      swap2\n      pop\n        /* \"#utility.yul\":12495:12515   */\n      tag_287\n        /* \"#utility.yul\":12513:12514   */\n      dup4\n        /* \"#utility.yul\":12495:12515   */\n      tag_111\n      jump\t// in\n    tag_287:\n        /* \"#utility.yul\":12490:12515   */\n      swap3\n      pop\n        /* \"#utility.yul\":12538:12539   */\n      dup3\n        /* \"#utility.yul\":12535:12536   */\n      dup3\n        /* \"#utility.yul\":12531:12540   */\n      add\n        /* \"#utility.yul\":12524:12540   */\n      swap1\n      pop\n        /* \"#utility.yul\":12559:12562   */\n      dup1\n        /* \"#utility.yul\":12556:12557   */\n      dup3\n        /* \"#utility.yul\":12553:12563   */\n      gt\n        /* \"#utility.yul\":12550:12586   */\n      iszero\n      tag_288\n      jumpi\n        /* \"#utility.yul\":12566:12584   */\n      tag_289\n      tag_143\n      jump\t// in\n    tag_289:\n        /* \"#utility.yul\":12550:12586   */\n    tag_288:\n        /* \"#utility.yul\":12402:12593   */\n      swap3\n      swap2\n      pop\n      pop\n      jump\t// out\n        /* \"#utility.yul\":12599:12779   */\n    tag_144:\n        /* \"#utility.yul\":12647:12724   */\n      0x4e487b7100000000000000000000000000000000000000000000000000000000\n        /* \"#utility.yul\":12644:12645   */\n      0x00\n        /* \"#utility.yul\":12637:12725   */\n      mstore\n        /* \"#utility.yul\":12744:12748   */\n      0x41\n        /* \"#utility.yul\":12741:12742   */\n      0x04\n        /* \"#utility.yul\":12734:12749   */\n      mstore\n        /* \"#utility.yul\":12768:12772   */\n      0x24\n        /* \"#utility.yul\":12765:12766   */\n      0x00\n        /* \"#utility.yul\":12758:12773   */\n      revert\n        /* \"#utility.yul\":12785:12926   */\n    tag_145:\n        /* \"#utility.yul\":12834:12838   */\n      0x00\n        /* \"#utility.yul\":12857:12860   */\n      dup2\n        /* \"#utility.yul\":12849:12860   */\n      swap1\n      pop\n        /* \"#utility.yul\":12880:12883   */\n      dup2\n        /* \"#utility.yul\":12877:12878   */\n      0x00\n        /* \"#utility.yul\":12870:12884   */\n      mstore\n        /* \"#utility.yul\":12914:12918   */\n      0x20\n        /* \"#utility.yul\":12911:12912   */\n      0x00\n        /* \"#utility.yul\":12901:12919   */\n      keccak256\n        /* \"#utility.yul\":12893:12919   */\n      swap1\n      pop\n        /* \"#utility.yul\":12785:12926   */\n      swap2\n      swap1\n      pop\n      jump\t// out\n        /* \"#utility.yul\":12932:13025   */\n    tag_146:\n        /* \"#utility.yul\":12969:12975   */\n      0x00\n        /* \"#utility.yul\":13016:13018   */\n      0x20\n        /* \"#utility.yul\":13011:13013   */\n      0x1f\n        /* \"#utility.yul\":13004:13009   */\n      dup4\n        /* \"#utility.yul\":13000:13014   */\n      add\n        /* \"#utility.yul\":12996:13019   */\n      div\n        /* \"#utility.yul\":12986:13019   */\n      swap1\n      pop\n        /* \"#utility.yul\":12932:13025   */\n      swap2\n      swap1\n      pop\n      jump\t// out\n        /* \"#utility.yul\":13031:13138   */\n    tag_147:\n        /* \"#utility.yul\":13075:13083   */\n      0x00\n        /* \"#utility.yul\":13125:13130   */\n      dup3\n        /* \"#utility.yul\":13119:13123   */\n      dup3\n        /* \"#utility.yul\":13115:13131   */\n      shl\n        /* \"#utility.yul\":13094:13131   */\n      swap1\n      pop\n        /* \"#utility.yul\":13031:13138   */\n      swap3\n      swap2\n      pop\n      pop\n      jump\t// out\n        /* \"#utility.yul\":13144:13537   */\n    tag_148:\n        /* \"#utility.yul\":13213:13219   */\n      0x00\n        /* \"#utility.yul\":13263:13264   */\n      0x08\n        /* \"#utility.yul\":13251:13261   */\n      dup4\n        /* \"#utility.yul\":13247:13265   */\n      mul\n        /* \"#utility.yul\":13286:13383   */\n      tag_295\n        /* \"#utility.yul\":13316:13382   */\n      0xffffffffffffffffffffffffffffffffffffffffffffffffffffffffffffffff\n        /* \"#utility.yul\":13305:13314   */\n      dup3\n        /* \"#utility.yul\":13286:13383   */\n      tag_147\n      jump\t// in\n    tag_295:\n        /* \"#utility.yul\":13404:13443   */\n      tag_296\n        /* \"#utility.yul\":13434:13442   */\n      dup7\n        /* \"#utility.yul\":13423:13432   */\n      dup4\n        /* \"#utility.yul\":13404:13443   */\n      tag_147\n      jump\t// in\n    tag_296:\n        /* \"#utility.yul\":13392:13443   */\n      swap6\n      pop\n        /* \"#utility.yul\":13476:13480   */\n      dup1\n        /* \"#utility.yul\":13472:13481   */\n      not\n        /* \"#utility.yul\":13465:13470   */\n      dup5\n        /* \"#utility.yul\":13461:13482   */\n      and\n        /* \"#utility.yul\":13452:13482   */\n      swap4\n      pop\n        /* \"#utility.yul\":13525:13529   */\n      dup1\n        /* \"#utility.yul\":13515:13523   */\n      dup7\n        /* \"#utility.yul\":13511:13530   */\n      and\n        /* \"#utility.yul\":13504:13509   */\n      dup5\n        /* \"#utility.yul\":13501:13531   */\n      or\n        /* \"#utility.yul\":13491:13531   */\n      swap3\n      pop\n        /* \"#utility.yul\":13220:13537   */\n      pop\n      pop\n        /* \"#utility.yul\":13144:13537   */\n      swap4\n      swap3\n      pop\n      pop\n      pop\n      jump\t// out\n        /* \"#utility.yul\":13543:13603   */\n    tag_149:\n        /* \"#utility.yul\":13571:13574   */\n      0x00\n        /* \"#utility.yul\":13592:13597   */\n      dup2\n        /* \"#utility.yul\":13585:13597   */\n      swap1\n      pop\n        /* \"#utility.yul\":13543:13603   */\n      swap2\n      swap1\n      pop\n      jump\t// out\n        /* \"#utility.yul\":13609:13751   */\n    tag_150:\n        /* \"#utility.yul\":13659:13668   */\n      0x00\n        /* \"#utility.yul\":13692:13745   */\n      tag_299\n        /* \"#utility.yul\":13710:13744   */\n      tag_300\n        /* \"#utility.yul\":13719:13743   */\n      tag_301\n        /* \"#utility.yul\":13737:13742   */\n      dup5\n        /* \"#utility.yul\":13719:13743   */\n      tag_111\n      jump\t// in\n    tag_301:\n        /* \"#utility.yul\":13710:13744   */\n      tag_149\n      jump\t// in\n    tag_300:\n        /* \"#utility.yul\":13692:13745   */\n      tag_111\n      jump\t// in\n    tag_299:\n        /* \"#utility.yul\":13679:13745   */\n      swap1\n      pop\n        /* \"#utility.yul\":13609:13751   */\n      swap2\n      swap1\n      pop\n      jump\t// out\n        /* \"#utility.yul\":13757:13832   */\n    tag_151:\n        /* \"#utility.yul\":13800:13803   */\n      0x00\n        /* \"#utility.yul\":13821:13826   */\n      dup2\n        /* \"#utility.yul\":13814:13826   */\n      swap1\n      pop\n        /* \"#utility.yul\":13757:13832   */\n      swap2\n      swap1\n      pop\n      jump\t// out\n        /* \"#utility.yul\":13838:14107   */\n    tag_152:\n        /* \"#utility.yul\":13948:13987   */\n      tag_304\n        /* \"#utility.yul\":13979:13986   */\n      dup4\n        /* \"#utility.yul\":13948:13987   */\n      tag_150\n      jump\t// in\n    tag_304:\n        /* \"#utility.yul\":14009:14100   */\n      tag_305\n        /* \"#utility.yul\":14058:14099   */\n      tag_306\n        /* \"#utility.yul\":14082:14098   */\n      dup3\n        /* \"#utility.yul\":14058:14099   */\n      tag_151\n      jump\t// in\n    tag_306:\n        /* \"#utility.yul\":14050:14056   */\n      dup5\n        /* \"#utility.yul\":14043:14047   */\n      dup5\n        /* \"#utility.yul\":14037:14048   */\n      sload\n        /* \"#utility.yul\":14009:14100   */\n      tag_148\n      jump\t// in\n    tag_305:\n        /* \"#utility.yul\":14003:14007   */\n      dup3\n        /* \"#utility.yul\":13996:14101   */\n      sstore\n        /* \"#utility.yul\":13914:14107   */\n      pop\n        /* \"#utility.yul\":13838:14107   */\n      pop\n      pop\n      pop\n      jump\t// out\n        /* \"#utility.yul\":14113:14186   */\n    tag_153:\n        /* \"#utility.yul\":14158:14161   */\n      0x00\n        /* \"#utility.yul\":14113:14186   */\n      swap1\n      jump\t// out\n        /* \"#utility.yul\":14192:14381   */\n    tag_154:\n        /* \"#utility.yul\":14269:14301   */\n      tag_309\n      tag_153\n      jump\t// in\n    tag_309:\n        /* \"#utility.yul\":14310:14375   */\n      tag_310\n        /* \"#utility.yul\":14368:14374   */\n      dup2\n        /* \"#utility.yul\":14360:14366   */\n      dup5\n        /* \"#utility.yul\":14354:14358   */\n      dup5\n        /* \"#utility.yul\":14310:14375   */\n      tag_152\n      jump\t// in\n    tag_310:\n        /* \"#utility.yul\":14245:14381   */\n      pop\n        /* \"#utility.yul\":14192:14381   */\n      pop\n      pop\n      jump\t// out\n        /* \"#utility.yul\":14387:14573   */\n    tag_155:\n        /* \"#utility.yul\":14447:14567   */\n    tag_312:\n        /* \"#utility.yul\":14464:14467   */\n      dup2\n        /* \"#utility.yul\":14457:14462   */\n      dup2\n        /* \"#utility.yul\":14454:14468   */\n      lt\n        /* \"#utility.yul\":14447:14567   */\n      iszero\n      tag_314\n      jumpi\n        /* \"#utility.yul\":14518:14557   */\n      tag_315\n        /* \"#utility.yul\":14555:14556   */\n      0x00\n        /* \"#utility.yul\":14548:14553   */\n      dup3\n        /* \"#utility.yul\":14518:14557   */\n      tag_154\n      jump\t// in\n    tag_315:\n        /* \"#utility.yul\":14491:14492   */\n      0x01\n        /* \"#utility.yul\":14484:14489   */\n      dup2\n        /* \"#utility.yul\":14480:14493   */\n      add\n        /* \"#utility.yul\":14471:14493   */\n      swap1\n      pop\n        /* \"#utility.yul\":14447:14567   */\n      jump(tag_312)\n    tag_314:\n        /* \"#utility.yul\":14387:14573   */\n      pop\n      pop\n      jump\t// out\n        /* \"#utility.yul\":14579:15122   */\n    tag_156:\n        /* \"#utility.yul\":14680:14682   */\n      0x1f\n        /* \"#utility.yul\":14675:14678   */\n      dup3\n        /* \"#utility.yul\":14672:14683   */\n      gt\n        /* \"#utility.yul\":14669:15115   */\n      iszero\n      tag_317\n      jumpi\n        /* \"#utility.yul\":14714:14752   */\n      tag_318\n        /* \"#utility.yul\":14746:14751   */\n      dup2\n        /* \"#utility.yul\":14714:14752   */\n      tag_145\n      jump\t// in\n    tag_318:\n        /* \"#utility.yul\":14798:14827   */\n      tag_319\n        /* \"#utility.yul\":14816:14826   */\n      dup5\n        /* \"#utility.yul\":14798:14827   */\n      tag_146\n      jump\t// in\n    tag_319:\n        /* \"#utility.yul\":14788:14796   */\n      dup2\n        /* \"#utility.yul\":14784:14828   */\n      add\n        /* \"#utility.yul\":14981:14983   */\n      0x20\n        /* \"#utility.yul\":14969:14979   */\n      dup6\n        /* \"#utility.yul\":14966:14984   */\n      lt\n        /* \"#utility.yul\":14963:15012   */\n      iszero\n      tag_320\n      jumpi\n        /* \"#utility.yul\":15002:15010   */\n      dup2\n        /* \"#utility.yul\":14987:15010   */\n      swap1\n      pop\n        /* \"#utility.yul\":14963:15012   */\n    tag_320:\n        /* \"#utility.yul\":15025:15105   */\n      tag_321\n        /* \"#utility.yul\":15081:15103   */\n      tag_322\n        /* \"#utility.yul\":15099:15102   */\n      dup6\n        /* \"#utility.yul\":15081:15103   */\n      tag_146\n      jump\t// in\n    tag_322:\n        /* \"#utility.yul\":15071:15079   */\n      dup4\n        /* \"#utility.yul\":15067:15104   */\n      add\n        /* \"#utility.yul\":15054:15065   */\n      dup3\n        /* \"#utility.yul\":15025:15105   */\n      tag_155\n      jump\t// in\n    tag_321:\n        /* \"#utility.yul\":14684:15115   */\n      pop\n      pop\n        /* \"#utility.yul\":14669:15115   */\n    tag_317:\n        /* \"#utility.yul\":14579:15122   */\n      pop\n      pop\n      pop\n      jump\t// out\n        /* \"#utility.yul\":15128:15245   */\n    tag_157:\n        /* \"#utility.yul\":15182:15190   */\n      0x00\n        /* \"#utility.yul\":15232:15237   */\n      dup3\n        /* \"#utility.yul\":15226:15230   */\n      dup3\n        /* \"#utility.yul\":15222:15238   */\n      shr\n        /* \"#utility.yul\":15201:15238   */\n      swap1\n      pop\n        /* \"#utility.yul\":15128:15245   */\n      swap3\n      swap2\n      pop\n      pop\n      jump\t// out\n        /* \"#utility.yul\":15251:15420   */\n    tag_158:\n        /* \"#utility.yul\":15295:15301   */\n      0x00\n        /* \"#utility.yul\":15328:15379   */\n      tag_325\n        /* \"#utility.yul\":15376:15377   */\n      0x00\n        /* \"#utility.yul\":15372:15378   */\n      not\n        /* \"#utility.yul\":15364:15369   */\n      dup5\n        /* \"#utility.yul\":15361:15362   */\n      0x08\n        /* \"#utility.yul\":15357:15370   */\n      mul\n        /* \"#utility.yul\":15328:15379   */\n      tag_157\n      jump\t// in\n    tag_325:\n        /* \"#utility.yul\":15324:15380   */\n      not\n        /* \"#utility.yul\":15409:15413   */\n      dup1\n        /* \"#utility.yul\":15403:15407   */\n      dup4\n        /* \"#utility.yul\":15399:15414   */\n      and\n        /* \"#utility.yul\":15389:15414   */\n      swap2\n      pop\n        /* \"#utility.yul\":15302:15420   */\n      pop\n        /* \"#utility.yul\":15251:15420   */\n      swap3\n      swap2\n      pop\n      pop\n      jump\t// out\n        /* \"#utility.yul\":15425:15720   */\n    tag_159:\n        /* \"#utility.yul\":15501:15505   */\n      0x00\n        /* \"#utility.yul\":15647:15676   */\n      tag_327\n        /* \"#utility.yul\":15672:15675   */\n      dup4\n        /* \"#utility.yul\":15666:15670   */\n      dup4\n        /* \"#utility.yul\":15647:15676   */\n      tag_158\n      jump\t// in\n    tag_327:\n        /* \"#utility.yul\":15639:15676   */\n      swap2\n      pop\n        /* \"#utility.yul\":15709:15712   */\n      dup3\n        /* \"#utility.yul\":15706:15707   */\n      0x02\n        /* \"#utility.yul\":15702:15713   */\n      mul\n        /* \"#utility.yul\":15696:15700   */\n      dup3\n        /* \"#utility.yul\":15693:15714   */\n      or\n        /* \"#utility.yul\":15685:15714   */\n      swap1\n      pop\n        /* \"#utility.yul\":15425:15720   */\n      swap3\n      swap2\n      pop\n      pop\n      jump\t// out\n        /* \"#utility.yul\":15725:17120   */\n    tag_90:\n        /* \"#utility.yul\":15842:15879   */\n      tag_329\n        /* \"#utility.yul\":15875:15878   */\n      dup3\n        /* \"#utility.yul\":15842:15879   */\n      tag_123\n      jump\t// in\n    tag_329:\n        /* \"#utility.yul\":15944:15962   */\n      0xffffffffffffffff\n        /* \"#utility.yul\":15936:15942   */\n      dup2\n        /* \"#utility.yul\":15933:15963   */\n      gt\n        /* \"#utility.yul\":15930:15986   */\n      iszero\n      tag_330\n      jumpi\n        /* \"#utility.yul\":15966:15984   */\n      tag_331\n      tag_144\n      jump\t// in\n    tag_331:\n        /* \"#utility.yul\":15930:15986   */\n    tag_330:\n        /* \"#utility.yul\":16010:16048   */\n      tag_332\n        /* \"#utility.yul\":16042:16046   */\n      dup3\n        /* \"#utility.yul\":16036:16047   */\n      sload\n        /* \"#utility.yul\":16010:16048   */\n      tag_61\n      jump\t// in\n    tag_332:\n        /* \"#utility.yul\":16095:16162   */\n      tag_333\n        /* \"#utility.yul\":16155:16161   */\n      dup3\n        /* \"#utility.yul\":16147:16153   */\n      dup3\n        /* \"#utility.yul\":16141:16145   */\n      dup6\n        /* \"#utility.yul\":16095:16162   */\n      tag_156\n      jump\t// in\n    tag_333:\n        /* \"#utility.yul\":16189:16190   */\n      0x00\n        /* \"#utility.yul\":16213:16217   */\n      0x20\n        /* \"#utility.yul\":16200:16217   */\n      swap1\n      pop\n        /* \"#utility.yul\":16245:16247   */\n      0x1f\n        /* \"#utility.yul\":16237:16243   */\n      dup4\n        /* \"#utility.yul\":16234:16248   */\n      gt\n        /* \"#utility.yul\":16262:16263   */\n      0x01\n        /* \"#utility.yul\":16257:16875   */\n      dup2\n      eq\n      tag_335\n      jumpi\n        /* \"#utility.yul\":16919:16920   */\n      0x00\n        /* \"#utility.yul\":16936:16942   */\n      dup5\n        /* \"#utility.yul\":16933:17010   */\n      iszero\n      tag_336\n      jumpi\n        /* \"#utility.yul\":16985:16994   */\n      dup3\n        /* \"#utility.yul\":16980:16983   */\n      dup8\n        /* \"#utility.yul\":16976:16995   */\n      add\n        /* \"#utility.yul\":16970:16996   */\n      mload\n        /* \"#utility.yul\":16961:16996   */\n      swap1\n      pop\n        /* \"#utility.yul\":16933:17010   */\n    tag_336:\n        /* \"#utility.yul\":17036:17103   */\n      tag_337\n        /* \"#utility.yul\":17096:17102   */\n      dup6\n        /* \"#utility.yul\":17089:17094   */\n      dup3\n        /* \"#utility.yul\":17036:17103   */\n      tag_159\n      jump\t// in\n    tag_337:\n        /* \"#utility.yul\":17030:17034   */\n      dup7\n        /* \"#utility.yul\":17023:17104   */\n      sstore\n        /* \"#utility.yul\":16892:17114   */\n      pop\n        /* \"#utility.yul\":16227:17114   */\n      jump(tag_334)\n        /* \"#utility.yul\":16257:16875   */\n    tag_335:\n        /* \"#utility.yul\":16309:16313   */\n      0x1f\n        /* \"#utility.yul\":16305:16314   */\n      not\n        /* \"#utility.yul\":16297:16303   */\n      dup5\n        /* \"#utility.yul\":16293:16315   */\n      and\n        /* \"#utility.yul\":16343:16380   */\n      tag_338\n        /* \"#utility.yul\":16375:16379   */\n      dup7\n        /* \"#utility.yul\":16343:16380   */\n      tag_145\n      jump\t// in\n    tag_338:\n        /* \"#utility.yul\":16402:16403   */\n      0x00\n        /* \"#utility.yul\":16416:16624   */\n    tag_339:\n        /* \"#utility.yul\":16430:16437   */\n      dup3\n        /* \"#utility.yul\":16427:16428   */\n      dup2\n        /* \"#utility.yul\":16424:16438   */\n      lt\n        /* \"#utility.yul\":16416:16624   */\n      iszero\n      tag_341\n      jumpi\n        /* \"#utility.yul\":16509:16518   */\n      dup5\n        /* \"#utility.yul\":16504:16507   */\n      dup10\n        /* \"#utility.yul\":16500:16519   */\n      add\n        /* \"#utility.yul\":16494:16520   */\n      mload\n        /* \"#utility.yul\":16486:16492   */\n      dup3\n        /* \"#utility.yul\":16479:16521   */\n      sstore\n        /* \"#utility.yul\":16560:16561   */\n      0x01\n        /* \"#utility.yul\":16552:16558   */\n      dup3\n        /* \"#utility.yul\":16548:16562   */\n      add\n        /* \"#utility.yul\":16538:16562   */\n      swap2\n      pop\n        /* \"#utility.yul\":16607:16609   */\n      0x20\n        /* \"#utility.yul\":16596:16605   */\n      dup6\n        /* \"#utility.yul\":16592:16610   */\n      add\n        /* \"#utility.yul\":16579:16610   */\n      swap5\n      pop\n        /* \"#utility.yul\":16453:16457   */\n      0x20\n        /* \"#utility.yul\":16450:16451   */\n      dup2\n        /* \"#utility.yul\":16446:16458   */\n      add\n        /* \"#utility.yul\":16441:16458   */\n      swap1\n      pop\n        /* \"#utility.yul\":16416:16624   */\n      jump(tag_339)\n    tag_341:\n        /* \"#utility.yul\":16652:16658   */\n      dup7\n        /* \"#utility.yul\":16643:16650   */\n      dup4\n        /* \"#utility.yul\":16640:16659   */\n      lt\n        /* \"#utility.yul\":16637:16816   */\n      iszero\n      tag_342\n      jumpi\n        /* \"#utility.yul\":16710:16719   */\n      dup5\n        /* \"#utility.yul\":16705:16708   */\n      dup10\n        /* \"#utility.yul\":16701:16720   */\n      add\n        /* \"#utility.yul\":16695:16721   */\n      mload\n        /* \"#utility.yul\":16753:16801   */\n      tag_343\n        /* \"#utility.yul\":16795:16799   */\n      0x1f\n        /* \"#utility.yul\":16787:16793   */\n      dup10\n        /* \"#utility.yul\":16783:16800   */\n      and\n        /* \"#utility.yul\":16772:16781   */\n      dup3\n        /* \"#utility.yul\":16753:16801   */\n      tag_158\n      jump\t// in\n    tag_343:\n        /* \"#utility.yul\":16745:16751   */\n      dup4\n        /* \"#utility.yul\":16738:16802   */\n      sstore\n        /* \"#utility.yul\":16660:16816   */\n      pop\n        /* \"#utility.yul\":16637:16816   */\n    tag_342:\n        /* \"#utility.yul\":16862:16863   */\n      0x01\n        /* \"#utility.yul\":16858:16859   */\n      0x02\n        /* \"#utility.yul\":16850:16856   */\n      dup9\n        /* \"#utility.yul\":16846:16860   */\n      mul\n        /* \"#utility.yul\":16842:16864   */\n      add\n        /* \"#utility.yul\":16836:16840   */\n      dup9\n        /* \"#utility.yul\":16829:16865   */\n      sstore\n        /* \"#utility.yul\":16264:16875   */\n      pop\n      pop\n      pop\n        /* \"#utility.yul\":16227:17114   */\n    tag_334:\n      pop\n        /* \"#utility.yul\":15817:17120   */\n      pop\n      pop\n      pop\n        /* \"#utility.yul\":15725:17120   */\n      pop\n      pop\n      jump\t// out\n        /* \"#utility.yul\":17126:17306   */\n    tag_100:\n        /* \"#utility.yul\":17174:17251   */\n      0x4e487b7100000000000000000000000000000000000000000000000000000000\n        /* \"#utility.yul\":17171:17172   */\n      0x00\n        /* \"#utility.yul\":17164:17252   */\n      mstore\n        /* \"#utility.yul\":17271:17275   */\n      0x32\n        /* \"#utility.yul\":17268:17269   */\n      0x04\n        /* \"#utility.yul\":17261:17276   */\n      mstore\n        /* \"#utility.yul\":17295:17299   */\n      0x24\n        /* \"#utility.yul\":17292:17293   */\n      0x00\n        /* \"#utility.yul\":17285:17300   */\n      revert\n        /* \"#utility.yul\":17312:17479   */\n    tag_160:\n        /* \"#utility.yul\":17452:17471   */\n      0x4d61746368206973207374696c6c206f6e000000000000000000000000000000\n        /* \"#utility.yul\":17448:17449   */\n      0x00\n        /* \"#utility.yul\":17440:17446   */\n      dup3\n        /* \"#utility.yul\":17436:17450   */\n      add\n        /* \"#utility.yul\":17429:17472   */\n      mstore\n        /* \"#utility.yul\":17312:17479   */\n      pop\n      jump\t// out\n        /* \"#utility.yul\":17485:17851   */\n    tag_161:\n        /* \"#utility.yul\":17627:17630   */\n      0x00\n        /* \"#utility.yul\":17648:17715   */\n      tag_347\n        /* \"#utility.yul\":17712:17714   */\n      0x11\n        /* \"#utility.yul\":17707:17710   */\n      dup4\n        /* \"#utility.yul\":17648:17715   */\n      tag_124\n      jump\t// in\n    tag_347:\n        /* \"#utility.yul\":17641:17715   */\n      swap2\n      pop\n        /* \"#utility.yul\":17724:17817   */\n      tag_348\n        /* \"#utility.yul\":17813:17816   */\n      dup3\n        /* \"#utility.yul\":17724:17817   */\n      tag_160\n      jump\t// in\n    tag_348:\n        /* \"#utility.yul\":17842:17844   */\n      0x20\n        /* \"#utility.yul\":17837:17840   */\n      dup3\n        /* \"#utility.yul\":17833:17845   */\n      add\n        /* \"#utility.yul\":17826:17845   */\n      swap1\n      pop\n        /* \"#utility.yul\":17485:17851   */\n      swap2\n      swap1\n      pop\n      jump\t// out\n        /* \"#utility.yul\":17857:18276   */\n    tag_104:\n        /* \"#utility.yul\":18023:18027   */\n      0x00\n        /* \"#utility.yul\":18061:18063   */\n      0x20\n        /* \"#utility.yul\":18050:18059   */\n      dup3\n        /* \"#utility.yul\":18046:18064   */\n      add\n        /* \"#utility.yul\":18038:18064   */\n      swap1\n      pop\n        /* \"#utility.yul\":18110:18119   */\n      dup2\n        /* \"#utility.yul\":18104:18108   */\n      dup2\n        /* \"#utility.yul\":18100:18120   */\n      sub\n        /* \"#utility.yul\":18096:18097   */\n      0x00\n        /* \"#utility.yul\":18085:18094   */\n      dup4\n        /* \"#utility.yul\":18081:18098   */\n      add\n        /* \"#utility.yul\":18074:18121   */\n      mstore\n        /* \"#utility.yul\":18138:18269   */\n      tag_350\n        /* \"#utility.yul\":18264:18268   */\n      dup2\n        /* \"#utility.yul\":18138:18269   */\n      tag_161\n      jump\t// in\n    tag_350:\n        /* \"#utility.yul\":18130:18269   */\n      swap1\n      pop\n        /* \"#utility.yul\":17857:18276   */\n      swap2\n      swap1\n      pop\n      jump\t// out\n\n    auxdata: 0xa26469706673582212206d1d2cd0af302a1a787d8fde070dbf1b4c296f7eb03f5e2beee4f978c721b03d64736f6c63430008110033\n}\n",
				"bytecode": {
					"linkReferences": {},
					"object": "608060405234801561001057600080fd5b50336000806101000a81548173ffffffffffffffffffffffffffffffffffffffff021916908373ffffffffffffffffffffffffffffffffffffffff16021790555061149a806100606000396000f3fe60806040526004361061007b5760003560e01c8063b2edb39f1161004e578063b2edb39f1461015b578063bc9e6e2c1461019c578063ec7361a8146101d9578063f851a440146102025761007b565b806310fe7c481461008057806315a3ae711461009c5780632172ff16146100db5780634195ab8e1461011c575b600080fd5b61009a60048036038101906100959190610b0c565b61022d565b005b3480156100a857600080fd5b506100c360048036038101906100be9190610b0c565b61027a565b6040516100d293929190610c00565b60405180910390f35b3480156100e757600080fd5b5061010260048036038101906100fd9190610b0c565b6102d1565b604051610113959493929190610d05565b60405180910390f35b34801561012857600080fd5b50610143600480360381019061013e9190610d92565b610435565b60405161015293929190610dd2565b60405180910390f35b34801561016757600080fd5b50610182600480360381019061017d9190610b0c565b610479565b604051610193959493929190610d05565b60405180910390f35b3480156101a857600080fd5b506101c360048036038101906101be9190610e6e565b6105ed565b6040516101d09190610f1e565b60405180910390f35b3480156101e557600080fd5b5061020060048036038101906101fb9190610f39565b610922565b005b34801561020e57600080fd5b50610217610aa8565b6040516102249190610f8c565b60405180910390f35b670de0b6b3a76400003414610277576040517f08c379a000000000000000000000000000000000000000000000000000000000815260040161026e90610fcd565b60405180910390fd5b50565b60046020528060005260406000206000915090508060000160009054906101000a900473ffffffffffffffffffffffffffffffffffffffff16908060010154908060020160009054906101000a900460ff16905083565b60016020528060005260406000206000915090508060000180546102f49061101c565b80601f01602080910402602001604051908101604052809291908181526020018280546103209061101c565b801561036d5780601f106103425761010080835404028352916020019161036d565b820191906000526020600020905b81548152906001019060200180831161035057829003601f168201915b5050505050908060010180546103829061101c565b80601f01602080910402602001604051908101604052809291908181526020018280546103ae9061101c565b80156103fb5780601f106103d0576101008083540402835291602001916103fb565b820191906000526020600020905b8154815290600101906020018083116103de57829003601f168201915b5050505050908060020154908060030154908060040160405180604001604052908160008201548152602001600182015481525050905085565b6002602052816000526040600020602052806000526040600020600091509150508060000160009054906101000a900460ff16908060010154908060020154905083565b6003818154811061048957600080fd5b90600052602060002090600602016000915090508060000180546104ac9061101c565b80601f01602080910402602001604051908101604052809291908181526020018280546104d89061101c565b80156105255780601f106104fa57610100808354040283529160200191610525565b820191906000526020600020905b81548152906001019060200180831161050857829003601f168201915b50505050509080600101805461053a9061101c565b80601f01602080910402602001604051908101604052809291908181526020018280546105669061101c565b80156105b35780601f10610588576101008083540402835291602001916105b3565b820191906000526020600020905b81548152906001019060200180831161059657829003601f168201915b5050505050908060020154908060030154908060040160405180604001604052908160008201548152602001600182015481525050905085565b60003373ffffffffffffffffffffffffffffffffffffffff1660008054906101000a900473ffffffffffffffffffffffffffffffffffffffff1673ffffffffffffffffffffffffffffffffffffffff161461067d576040517f08c379a000000000000000000000000000000000000000000000000000000000815260040161067490611099565b60405180910390fd5b6000605f8361068c91906110e8565b9050600060405180604001604052806000815260200160008152509050600060038054905090506040518060a001604052808a8a8080601f016020809104026020016040519081016040528093929190818152602001838380828437600081840152601f19601f82011690508083019250505050505050815260200188888080601f016020809104026020016040519081016040528093929190818152602001838380828437600081840152601f19601f8201169050808301925050505050505081526020018681526020018481526020018381525060016000838152602001908152602001600020600082015181600001908161078a91906112f7565b5060208201518160010190816107a091906112f7565b5060408201518160020155606082015181600301556080820151816004016000820151816000015560208201518160010155505090505060036040518060a001604052808b8b8080601f016020809104026020016040519081016040528093929190818152602001838380828437600081840152601f19601f82011690508083019250505050505050815260200189898080601f016020809104026020016040519081016040528093929190818152602001838380828437600081840152601f19601f82011690508083019250505050505050815260200187815260200185815260200184815250908060018154018082558091505060019003906000526020600020906006020160009091909190915060008201518160000190816108c691906112f7565b5060208201518160010190816108dc91906112f7565b5060408201518160020155606082015181600301556080820151816004016000820151816000015560208201518160010155505050506001935050505095945050505050565b3373ffffffffffffffffffffffffffffffffffffffff1660008054906101000a900473ffffffffffffffffffffffffffffffffffffffff1673ffffffffffffffffffffffffffffffffffffffff16146109b0576040517f08c379a00000000000000000000000000000000000000000000000000000000081526004016109a790611099565b60405180910390fd5b6000429050600384815481106109c9576109c86113c9565b5b906000526020600020906006020160030154811015610a1d576040517f08c379a0000000000000000000000000000000000000000000000000000000008152600401610a1490611444565b60405180910390fd5b600060405180604001604052808581526020018481525090508060038681548110610a4b57610a4a6113c9565b5b90600052602060002090600602016004016000820151816000015560208201518160010155905050806001600087815260200190815260200160002060040160008201518160000155602082015181600101559050505050505050565b60008054906101000a900473ffffffffffffffffffffffffffffffffffffffff1681565b600080fd5b600080fd5b6000819050919050565b610ae981610ad6565b8114610af457600080fd5b50565b600081359050610b0681610ae0565b92915050565b600060208284031215610b2257610b21610acc565b5b6000610b3084828501610af7565b91505092915050565b600073ffffffffffffffffffffffffffffffffffffffff82169050919050565b6000610b6482610b39565b9050919050565b610b7481610b59565b82525050565b610b8381610ad6565b82525050565b7f4e487b7100000000000000000000000000000000000000000000000000000000600052602160045260246000fd5b60048110610bc957610bc8610b89565b5b50565b6000819050610bda82610bb8565b919050565b6000610bea82610bcc565b9050919050565b610bfa81610bdf565b82525050565b6000606082019050610c156000830186610b6b565b610c226020830185610b7a565b610c2f6040830184610bf1565b949350505050565b600081519050919050565b600082825260208201905092915050565b60005b83811015610c71578082015181840152602081019050610c56565b60008484015250505050565b6000601f19601f8301169050919050565b6000610c9982610c37565b610ca38185610c42565b9350610cb3818560208601610c53565b610cbc81610c7d565b840191505092915050565b610cd081610ad6565b82525050565b604082016000820151610cec6000850182610cc7565b506020820151610cff6020850182610cc7565b50505050565b600060c0820190508181036000830152610d1f8188610c8e565b90508181036020830152610d338187610c8e565b9050610d426040830186610b7a565b610d4f6060830185610b7a565b610d5c6080830184610cd6565b9695505050505050565b610d6f81610b59565b8114610d7a57600080fd5b50565b600081359050610d8c81610d66565b92915050565b60008060408385031215610da957610da8610acc565b5b6000610db785828601610d7d565b9250506020610dc885828601610af7565b9150509250929050565b6000606082019050610de76000830186610bf1565b610df46020830185610b7a565b610e016040830184610b7a565b949350505050565b600080fd5b600080fd5b600080fd5b60008083601f840112610e2e57610e2d610e09565b5b8235905067ffffffffffffffff811115610e4b57610e4a610e0e565b5b602083019150836001820283011115610e6757610e66610e13565b5b9250929050565b600080600080600060608688031215610e8a57610e89610acc565b5b600086013567ffffffffffffffff811115610ea857610ea7610ad1565b5b610eb488828901610e18565b9550955050602086013567ffffffffffffffff811115610ed757610ed6610ad1565b5b610ee388828901610e18565b93509350506040610ef688828901610af7565b9150509295509295909350565b60008115159050919050565b610f1881610f03565b82525050565b6000602082019050610f336000830184610f0f565b92915050565b600080600060608486031215610f5257610f51610acc565b5b6000610f6086828701610af7565b9350506020610f7186828701610af7565b9250506040610f8286828701610af7565b9150509250925092565b6000602082019050610fa16000830184610b6b565b92915050565b50565b6000610fb7600083610c42565b9150610fc282610fa7565b600082019050919050565b60006020820190508181036000830152610fe681610faa565b9050919050565b7f4e487b7100000000000000000000000000000000000000000000000000000000600052602260045260246000fd5b6000600282049050600182168061103457607f821691505b60208210810361104757611046610fed565b5b50919050565b7f4e6f74204f776e65720000000000000000000000000000000000000000000000600082015250565b6000611083600983610c42565b915061108e8261104d565b602082019050919050565b600060208201905081810360008301526110b281611076565b9050919050565b7f4e487b7100000000000000000000000000000000000000000000000000000000600052601160045260246000fd5b60006110f382610ad6565b91506110fe83610ad6565b9250828201905080821115611116576111156110b9565b5b92915050565b7f4e487b7100000000000000000000000000000000000000000000000000000000600052604160045260246000fd5b60008190508160005260206000209050919050565b60006020601f8301049050919050565b600082821b905092915050565b6000600883026111ad7fffffffffffffffffffffffffffffffffffffffffffffffffffffffffffffffff82611170565b6111b78683611170565b95508019841693508086168417925050509392505050565b6000819050919050565b60006111f46111ef6111ea84610ad6565b6111cf565b610ad6565b9050919050565b6000819050919050565b61120e836111d9565b61122261121a826111fb565b84845461117d565b825550505050565b600090565b61123761122a565b611242818484611205565b505050565b5b818110156112665761125b60008261122f565b600181019050611248565b5050565b601f8211156112ab5761127c8161114b565b61128584611160565b81016020851015611294578190505b6112a86112a085611160565b830182611247565b50505b505050565b600082821c905092915050565b60006112ce600019846008026112b0565b1980831691505092915050565b60006112e783836112bd565b9150826002028217905092915050565b61130082610c37565b67ffffffffffffffff8111156113195761131861111c565b5b611323825461101c565b61132e82828561126a565b600060209050601f831160018114611361576000841561134f578287015190505b61135985826112db565b8655506113c1565b601f19841661136f8661114b565b60005b8281101561139757848901518255600182019150602085019450602081019050611372565b868310156113b457848901516113b0601f8916826112bd565b8355505b6001600288020188555050505b505050505050565b7f4e487b7100000000000000000000000000000000000000000000000000000000600052603260045260246000fd5b7f4d61746368206973207374696c6c206f6e000000000000000000000000000000600082015250565b600061142e601183610c42565b9150611439826113f8565b602082019050919050565b6000602082019050818103600083015261145d81611421565b905091905056fea26469706673582212206d1d2cd0af302a1a787d8fde070dbf1b4c296f7eb03f5e2beee4f978c721b03d64736f6c63430008110033",
					"opcodes": "PUSH1 0x80 PUSH1 0x40 MSTORE CALLVALUE DUP1 ISZERO PUSH2 0x10 JUMPI PUSH1 0x0 DUP1 REVERT JUMPDEST POP CALLER PUSH1 0x0 DUP1 PUSH2 0x100 EXP DUP2 SLOAD DUP2 PUSH20 0xFFFFFFFFFFFFFFFFFFFFFFFFFFFFFFFFFFFFFFFF MUL NOT AND SWAP1 DUP4 PUSH20 0xFFFFFFFFFFFFFFFFFFFFFFFFFFFFFFFFFFFFFFFF AND MUL OR SWAP1 SSTORE POP PUSH2 0x149A DUP1 PUSH2 0x60 PUSH1 0x0 CODECOPY PUSH1 0x0 RETURN INVALID PUSH1 0x80 PUSH1 0x40 MSTORE PUSH1 0x4 CALLDATASIZE LT PUSH2 0x7B JUMPI PUSH1 0x0 CALLDATALOAD PUSH1 0xE0 SHR DUP1 PUSH4 0xB2EDB39F GT PUSH2 0x4E JUMPI DUP1 PUSH4 0xB2EDB39F EQ PUSH2 0x15B JUMPI DUP1 PUSH4 0xBC9E6E2C EQ PUSH2 0x19C JUMPI DUP1 PUSH4 0xEC7361A8 EQ PUSH2 0x1D9 JUMPI DUP1 PUSH4 0xF851A440 EQ PUSH2 0x202 JUMPI PUSH2 0x7B JUMP JUMPDEST DUP1 PUSH4 0x10FE7C48 EQ PUSH2 0x80 JUMPI DUP1 PUSH4 0x15A3AE71 EQ PUSH2 0x9C JUMPI DUP1 PUSH4 0x2172FF16 EQ PUSH2 0xDB JUMPI DUP1 PUSH4 0x4195AB8E EQ PUSH2 0x11C JUMPI JUMPDEST PUSH1 0x0 DUP1 REVERT JUMPDEST PUSH2 0x9A PUSH1 0x4 DUP1 CALLDATASIZE SUB DUP2 ADD SWAP1 PUSH2 0x95 SWAP2 SWAP1 PUSH2 0xB0C JUMP JUMPDEST PUSH2 0x22D JUMP JUMPDEST STOP JUMPDEST CALLVALUE DUP1 ISZERO PUSH2 0xA8 JUMPI PUSH1 0x0 DUP1 REVERT JUMPDEST POP PUSH2 0xC3 PUSH1 0x4 DUP1 CALLDATASIZE SUB DUP2 ADD SWAP1 PUSH2 0xBE SWAP2 SWAP1 PUSH2 0xB0C JUMP JUMPDEST PUSH2 0x27A JUMP JUMPDEST PUSH1 0x40 MLOAD PUSH2 0xD2 SWAP4 SWAP3 SWAP2 SWAP1 PUSH2 0xC00 JUMP JUMPDEST PUSH1 0x40 MLOAD DUP1 SWAP2 SUB SWAP1 RETURN JUMPDEST CALLVALUE DUP1 ISZERO PUSH2 0xE7 JUMPI PUSH1 0x0 DUP1 REVERT JUMPDEST POP PUSH2 0x102 PUSH1 0x4 DUP1 CALLDATASIZE SUB DUP2 ADD SWAP1 PUSH2 0xFD SWAP2 SWAP1 PUSH2 0xB0C JUMP JUMPDEST PUSH2 0x2D1 JUMP JUMPDEST PUSH1 0x40 MLOAD PUSH2 0x113 SWAP6 SWAP5 SWAP4 SWAP3 SWAP2 SWAP1 PUSH2 0xD05 JUMP JUMPDEST PUSH1 0x40 MLOAD DUP1 SWAP2 SUB SWAP1 RETURN JUMPDEST CALLVALUE DUP1 ISZERO PUSH2 0x128 JUMPI PUSH1 0x0 DUP1 REVERT JUMPDEST POP PUSH2 0x143 PUSH1 0x4 DUP1 CALLDATASIZE SUB DUP2 ADD SWAP1 PUSH2 0x13E SWAP2 SWAP1 PUSH2 0xD92 JUMP JUMPDEST PUSH2 0x435 JUMP JUMPDEST PUSH1 0x40 MLOAD PUSH2 0x152 SWAP4 SWAP3 SWAP2 SWAP1 PUSH2 0xDD2 JUMP JUMPDEST PUSH1 0x40 MLOAD DUP1 SWAP2 SUB SWAP1 RETURN JUMPDEST CALLVALUE DUP1 ISZERO PUSH2 0x167 JUMPI PUSH1 0x0 DUP1 REVERT JUMPDEST POP PUSH2 0x182 PUSH1 0x4 DUP1 CALLDATASIZE SUB DUP2 ADD SWAP1 PUSH2 0x17D SWAP2 SWAP1 PUSH2 0xB0C JUMP JUMPDEST PUSH2 0x479 JUMP JUMPDEST PUSH1 0x40 MLOAD PUSH2 0x193 SWAP6 SWAP5 SWAP4 SWAP3 SWAP2 SWAP1 PUSH2 0xD05 JUMP JUMPDEST PUSH1 0x40 MLOAD DUP1 SWAP2 SUB SWAP1 RETURN JUMPDEST CALLVALUE DUP1 ISZERO PUSH2 0x1A8 JUMPI PUSH1 0x0 DUP1 REVERT JUMPDEST POP PUSH2 0x1C3 PUSH1 0x4 DUP1 CALLDATASIZE SUB DUP2 ADD SWAP1 PUSH2 0x1BE SWAP2 SWAP1 PUSH2 0xE6E JUMP JUMPDEST PUSH2 0x5ED JUMP JUMPDEST PUSH1 0x40 MLOAD PUSH2 0x1D0 SWAP2 SWAP1 PUSH2 0xF1E JUMP JUMPDEST PUSH1 0x40 MLOAD DUP1 SWAP2 SUB SWAP1 RETURN JUMPDEST CALLVALUE DUP1 ISZERO PUSH2 0x1E5 JUMPI PUSH1 0x0 DUP1 REVERT JUMPDEST POP PUSH2 0x200 PUSH1 0x4 DUP1 CALLDATASIZE SUB DUP2 ADD SWAP1 PUSH2 0x1FB SWAP2 SWAP1 PUSH2 0xF39 JUMP JUMPDEST PUSH2 0x922 JUMP JUMPDEST STOP JUMPDEST CALLVALUE DUP1 ISZERO PUSH2 0x20E JUMPI PUSH1 0x0 DUP1 REVERT JUMPDEST POP PUSH2 0x217 PUSH2 0xAA8 JUMP JUMPDEST PUSH1 0x40 MLOAD PUSH2 0x224 SWAP2 SWAP1 PUSH2 0xF8C JUMP JUMPDEST PUSH1 0x40 MLOAD DUP1 SWAP2 SUB SWAP1 RETURN JUMPDEST PUSH8 0xDE0B6B3A7640000 CALLVALUE EQ PUSH2 0x277 JUMPI PUSH1 0x40 MLOAD PUSH32 0x8C379A000000000000000000000000000000000000000000000000000000000 DUP2 MSTORE PUSH1 0x4 ADD PUSH2 0x26E SWAP1 PUSH2 0xFCD JUMP JUMPDEST PUSH1 0x40 MLOAD DUP1 SWAP2 SUB SWAP1 REVERT JUMPDEST POP JUMP JUMPDEST PUSH1 0x4 PUSH1 0x20 MSTORE DUP1 PUSH1 0x0 MSTORE PUSH1 0x40 PUSH1 0x0 KECCAK256 PUSH1 0x0 SWAP2 POP SWAP1 POP DUP1 PUSH1 0x0 ADD PUSH1 0x0 SWAP1 SLOAD SWAP1 PUSH2 0x100 EXP SWAP1 DIV PUSH20 0xFFFFFFFFFFFFFFFFFFFFFFFFFFFFFFFFFFFFFFFF AND SWAP1 DUP1 PUSH1 0x1 ADD SLOAD SWAP1 DUP1 PUSH1 0x2 ADD PUSH1 0x0 SWAP1 SLOAD SWAP1 PUSH2 0x100 EXP SWAP1 DIV PUSH1 0xFF AND SWAP1 POP DUP4 JUMP JUMPDEST PUSH1 0x1 PUSH1 0x20 MSTORE DUP1 PUSH1 0x0 MSTORE PUSH1 0x40 PUSH1 0x0 KECCAK256 PUSH1 0x0 SWAP2 POP SWAP1 POP DUP1 PUSH1 0x0 ADD DUP1 SLOAD PUSH2 0x2F4 SWAP1 PUSH2 0x101C JUMP JUMPDEST DUP1 PUSH1 0x1F ADD PUSH1 0x20 DUP1 SWAP2 DIV MUL PUSH1 0x20 ADD PUSH1 0x40 MLOAD SWAP1 DUP2 ADD PUSH1 0x40 MSTORE DUP1 SWAP3 SWAP2 SWAP1 DUP2 DUP2 MSTORE PUSH1 0x20 ADD DUP3 DUP1 SLOAD PUSH2 0x320 SWAP1 PUSH2 0x101C JUMP JUMPDEST DUP1 ISZERO PUSH2 0x36D JUMPI DUP1 PUSH1 0x1F LT PUSH2 0x342 JUMPI PUSH2 0x100 DUP1 DUP4 SLOAD DIV MUL DUP4 MSTORE SWAP2 PUSH1 0x20 ADD SWAP2 PUSH2 0x36D JUMP JUMPDEST DUP3 ADD SWAP2 SWAP1 PUSH1 0x0 MSTORE PUSH1 0x20 PUSH1 0x0 KECCAK256 SWAP1 JUMPDEST DUP2 SLOAD DUP2 MSTORE SWAP1 PUSH1 0x1 ADD SWAP1 PUSH1 0x20 ADD DUP1 DUP4 GT PUSH2 0x350 JUMPI DUP3 SWAP1 SUB PUSH1 0x1F AND DUP3 ADD SWAP2 JUMPDEST POP POP POP POP POP SWAP1 DUP1 PUSH1 0x1 ADD DUP1 SLOAD PUSH2 0x382 SWAP1 PUSH2 0x101C JUMP JUMPDEST DUP1 PUSH1 0x1F ADD PUSH1 0x20 DUP1 SWAP2 DIV MUL PUSH1 0x20 ADD PUSH1 0x40 MLOAD SWAP1 DUP2 ADD PUSH1 0x40 MSTORE DUP1 SWAP3 SWAP2 SWAP1 DUP2 DUP2 MSTORE PUSH1 0x20 ADD DUP3 DUP1 SLOAD PUSH2 0x3AE SWAP1 PUSH2 0x101C JUMP JUMPDEST DUP1 ISZERO PUSH2 0x3FB JUMPI DUP1 PUSH1 0x1F LT PUSH2 0x3D0 JUMPI PUSH2 0x100 DUP1 DUP4 SLOAD DIV MUL DUP4 MSTORE SWAP2 PUSH1 0x20 ADD SWAP2 PUSH2 0x3FB JUMP JUMPDEST DUP3 ADD SWAP2 SWAP1 PUSH1 0x0 MSTORE PUSH1 0x20 PUSH1 0x0 KECCAK256 SWAP1 JUMPDEST DUP2 SLOAD DUP2 MSTORE SWAP1 PUSH1 0x1 ADD SWAP1 PUSH1 0x20 ADD DUP1 DUP4 GT PUSH2 0x3DE JUMPI DUP3 SWAP1 SUB PUSH1 0x1F AND DUP3 ADD SWAP2 JUMPDEST POP POP POP POP POP SWAP1 DUP1 PUSH1 0x2 ADD SLOAD SWAP1 DUP1 PUSH1 0x3 ADD SLOAD SWAP1 DUP1 PUSH1 0x4 ADD PUSH1 0x40 MLOAD DUP1 PUSH1 0x40 ADD PUSH1 0x40 MSTORE SWAP1 DUP2 PUSH1 0x0 DUP3 ADD SLOAD DUP2 MSTORE PUSH1 0x20 ADD PUSH1 0x1 DUP3 ADD SLOAD DUP2 MSTORE POP POP SWAP1 POP DUP6 JUMP JUMPDEST PUSH1 0x2 PUSH1 0x20 MSTORE DUP2 PUSH1 0x0 MSTORE PUSH1 0x40 PUSH1 0x0 KECCAK256 PUSH1 0x20 MSTORE DUP1 PUSH1 0x0 MSTORE PUSH1 0x40 PUSH1 0x0 KECCAK256 PUSH1 0x0 SWAP2 POP SWAP2 POP POP DUP1 PUSH1 0x0 ADD PUSH1 0x0 SWAP1 SLOAD SWAP1 PUSH2 0x100 EXP SWAP1 DIV PUSH1 0xFF AND SWAP1 DUP1 PUSH1 0x1 ADD SLOAD SWAP1 DUP1 PUSH1 0x2 ADD SLOAD SWAP1 POP DUP4 JUMP JUMPDEST PUSH1 0x3 DUP2 DUP2 SLOAD DUP2 LT PUSH2 0x489 JUMPI PUSH1 0x0 DUP1 REVERT JUMPDEST SWAP1 PUSH1 0x0 MSTORE PUSH1 0x20 PUSH1 0x0 KECCAK256 SWAP1 PUSH1 0x6 MUL ADD PUSH1 0x0 SWAP2 POP SWAP1 POP DUP1 PUSH1 0x0 ADD DUP1 SLOAD PUSH2 0x4AC SWAP1 PUSH2 0x101C JUMP JUMPDEST DUP1 PUSH1 0x1F ADD PUSH1 0x20 DUP1 SWAP2 DIV MUL PUSH1 0x20 ADD PUSH1 0x40 MLOAD SWAP1 DUP2 ADD PUSH1 0x40 MSTORE DUP1 SWAP3 SWAP2 SWAP1 DUP2 DUP2 MSTORE PUSH1 0x20 ADD DUP3 DUP1 SLOAD PUSH2 0x4D8 SWAP1 PUSH2 0x101C JUMP JUMPDEST DUP1 ISZERO PUSH2 0x525 JUMPI DUP1 PUSH1 0x1F LT PUSH2 0x4FA JUMPI PUSH2 0x100 DUP1 DUP4 SLOAD DIV MUL DUP4 MSTORE SWAP2 PUSH1 0x20 ADD SWAP2 PUSH2 0x525 JUMP JUMPDEST DUP3 ADD SWAP2 SWAP1 PUSH1 0x0 MSTORE PUSH1 0x20 PUSH1 0x0 KECCAK256 SWAP1 JUMPDEST DUP2 SLOAD DUP2 MSTORE SWAP1 PUSH1 0x1 ADD SWAP1 PUSH1 0x20 ADD DUP1 DUP4 GT PUSH2 0x508 JUMPI DUP3 SWAP1 SUB PUSH1 0x1F AND DUP3 ADD SWAP2 JUMPDEST POP POP POP POP POP SWAP1 DUP1 PUSH1 0x1 ADD DUP1 SLOAD PUSH2 0x53A SWAP1 PUSH2 0x101C JUMP JUMPDEST DUP1 PUSH1 0x1F ADD PUSH1 0x20 DUP1 SWAP2 DIV MUL PUSH1 0x20 ADD PUSH1 0x40 MLOAD SWAP1 DUP2 ADD PUSH1 0x40 MSTORE DUP1 SWAP3 SWAP2 SWAP1 DUP2 DUP2 MSTORE PUSH1 0x20 ADD DUP3 DUP1 SLOAD PUSH2 0x566 SWAP1 PUSH2 0x101C JUMP JUMPDEST DUP1 ISZERO PUSH2 0x5B3 JUMPI DUP1 PUSH1 0x1F LT PUSH2 0x588 JUMPI PUSH2 0x100 DUP1 DUP4 SLOAD DIV MUL DUP4 MSTORE SWAP2 PUSH1 0x20 ADD SWAP2 PUSH2 0x5B3 JUMP JUMPDEST DUP3 ADD SWAP2 SWAP1 PUSH1 0x0 MSTORE PUSH1 0x20 PUSH1 0x0 KECCAK256 SWAP1 JUMPDEST DUP2 SLOAD DUP2 MSTORE SWAP1 PUSH1 0x1 ADD SWAP1 PUSH1 0x20 ADD DUP1 DUP4 GT PUSH2 0x596 JUMPI DUP3 SWAP1 SUB PUSH1 0x1F AND DUP3 ADD SWAP2 JUMPDEST POP POP POP POP POP SWAP1 DUP1 PUSH1 0x2 ADD SLOAD SWAP1 DUP1 PUSH1 0x3 ADD SLOAD SWAP1 DUP1 PUSH1 0x4 ADD PUSH1 0x40 MLOAD DUP1 PUSH1 0x40 ADD PUSH1 0x40 MSTORE SWAP1 DUP2 PUSH1 0x0 DUP3 ADD SLOAD DUP2 MSTORE PUSH1 0x20 ADD PUSH1 0x1 DUP3 ADD SLOAD DUP2 MSTORE POP POP SWAP1 POP DUP6 JUMP JUMPDEST PUSH1 0x0 CALLER PUSH20 0xFFFFFFFFFFFFFFFFFFFFFFFFFFFFFFFFFFFFFFFF AND PUSH1 0x0 DUP1 SLOAD SWAP1 PUSH2 0x100 EXP SWAP1 DIV PUSH20 0xFFFFFFFFFFFFFFFFFFFFFFFFFFFFFFFFFFFFFFFF AND PUSH20 0xFFFFFFFFFFFFFFFFFFFFFFFFFFFFFFFFFFFFFFFF AND EQ PUSH2 0x67D JUMPI PUSH1 0x40 MLOAD PUSH32 0x8C379A000000000000000000000000000000000000000000000000000000000 DUP2 MSTORE PUSH1 0x4 ADD PUSH2 0x674 SWAP1 PUSH2 0x1099 JUMP JUMPDEST PUSH1 0x40 MLOAD DUP1 SWAP2 SUB SWAP1 REVERT JUMPDEST PUSH1 0x0 PUSH1 0x5F DUP4 PUSH2 0x68C SWAP2 SWAP1 PUSH2 0x10E8 JUMP JUMPDEST SWAP1 POP PUSH1 0x0 PUSH1 0x40 MLOAD DUP1 PUSH1 0x40 ADD PUSH1 0x40 MSTORE DUP1 PUSH1 0x0 DUP2 MSTORE PUSH1 0x20 ADD PUSH1 0x0 DUP2 MSTORE POP SWAP1 POP PUSH1 0x0 PUSH1 0x3 DUP1 SLOAD SWAP1 POP SWAP1 POP PUSH1 0x40 MLOAD DUP1 PUSH1 0xA0 ADD PUSH1 0x40 MSTORE DUP1 DUP11 DUP11 DUP1 DUP1 PUSH1 0x1F ADD PUSH1 0x20 DUP1 SWAP2 DIV MUL PUSH1 0x20 ADD PUSH1 0x40 MLOAD SWAP1 DUP2 ADD PUSH1 0x40 MSTORE DUP1 SWAP4 SWAP3 SWAP2 SWAP1 DUP2 DUP2 MSTORE PUSH1 0x20 ADD DUP4 DUP4 DUP1 DUP3 DUP5 CALLDATACOPY PUSH1 0x0 DUP2 DUP5 ADD MSTORE PUSH1 0x1F NOT PUSH1 0x1F DUP3 ADD AND SWAP1 POP DUP1 DUP4 ADD SWAP3 POP POP POP POP POP POP POP DUP2 MSTORE PUSH1 0x20 ADD DUP9 DUP9 DUP1 DUP1 PUSH1 0x1F ADD PUSH1 0x20 DUP1 SWAP2 DIV MUL PUSH1 0x20 ADD PUSH1 0x40 MLOAD SWAP1 DUP2 ADD PUSH1 0x40 MSTORE DUP1 SWAP4 SWAP3 SWAP2 SWAP1 DUP2 DUP2 MSTORE PUSH1 0x20 ADD DUP4 DUP4 DUP1 DUP3 DUP5 CALLDATACOPY PUSH1 0x0 DUP2 DUP5 ADD MSTORE PUSH1 0x1F NOT PUSH1 0x1F DUP3 ADD AND SWAP1 POP DUP1 DUP4 ADD SWAP3 POP POP POP POP POP POP POP DUP2 MSTORE PUSH1 0x20 ADD DUP7 DUP2 MSTORE PUSH1 0x20 ADD DUP5 DUP2 MSTORE PUSH1 0x20 ADD DUP4 DUP2 MSTORE POP PUSH1 0x1 PUSH1 0x0 DUP4 DUP2 MSTORE PUSH1 0x20 ADD SWAP1 DUP2 MSTORE PUSH1 0x20 ADD PUSH1 0x0 KECCAK256 PUSH1 0x0 DUP3 ADD MLOAD DUP2 PUSH1 0x0 ADD SWAP1 DUP2 PUSH2 0x78A SWAP2 SWAP1 PUSH2 0x12F7 JUMP JUMPDEST POP PUSH1 0x20 DUP3 ADD MLOAD DUP2 PUSH1 0x1 ADD SWAP1 DUP2 PUSH2 0x7A0 SWAP2 SWAP1 PUSH2 0x12F7 JUMP JUMPDEST POP PUSH1 0x40 DUP3 ADD MLOAD DUP2 PUSH1 0x2 ADD SSTORE PUSH1 0x60 DUP3 ADD MLOAD DUP2 PUSH1 0x3 ADD SSTORE PUSH1 0x80 DUP3 ADD MLOAD DUP2 PUSH1 0x4 ADD PUSH1 0x0 DUP3 ADD MLOAD DUP2 PUSH1 0x0 ADD SSTORE PUSH1 0x20 DUP3 ADD MLOAD DUP2 PUSH1 0x1 ADD SSTORE POP POP SWAP1 POP POP PUSH1 0x3 PUSH1 0x40 MLOAD DUP1 PUSH1 0xA0 ADD PUSH1 0x40 MSTORE DUP1 DUP12 DUP12 DUP1 DUP1 PUSH1 0x1F ADD PUSH1 0x20 DUP1 SWAP2 DIV MUL PUSH1 0x20 ADD PUSH1 0x40 MLOAD SWAP1 DUP2 ADD PUSH1 0x40 MSTORE DUP1 SWAP4 SWAP3 SWAP2 SWAP1 DUP2 DUP2 MSTORE PUSH1 0x20 ADD DUP4 DUP4 DUP1 DUP3 DUP5 CALLDATACOPY PUSH1 0x0 DUP2 DUP5 ADD MSTORE PUSH1 0x1F NOT PUSH1 0x1F DUP3 ADD AND SWAP1 POP DUP1 DUP4 ADD SWAP3 POP POP POP POP POP POP POP DUP2 MSTORE PUSH1 0x20 ADD DUP10 DUP10 DUP1 DUP1 PUSH1 0x1F ADD PUSH1 0x20 DUP1 SWAP2 DIV MUL PUSH1 0x20 ADD PUSH1 0x40 MLOAD SWAP1 DUP2 ADD PUSH1 0x40 MSTORE DUP1 SWAP4 SWAP3 SWAP2 SWAP1 DUP2 DUP2 MSTORE PUSH1 0x20 ADD DUP4 DUP4 DUP1 DUP3 DUP5 CALLDATACOPY PUSH1 0x0 DUP2 DUP5 ADD MSTORE PUSH1 0x1F NOT PUSH1 0x1F DUP3 ADD AND SWAP1 POP DUP1 DUP4 ADD SWAP3 POP POP POP POP POP POP POP DUP2 MSTORE PUSH1 0x20 ADD DUP8 DUP2 MSTORE PUSH1 0x20 ADD DUP6 DUP2 MSTORE PUSH1 0x20 ADD DUP5 DUP2 MSTORE POP SWAP1 DUP1 PUSH1 0x1 DUP2 SLOAD ADD DUP1 DUP3 SSTORE DUP1 SWAP2 POP POP PUSH1 0x1 SWAP1 SUB SWAP1 PUSH1 0x0 MSTORE PUSH1 0x20 PUSH1 0x0 KECCAK256 SWAP1 PUSH1 0x6 MUL ADD PUSH1 0x0 SWAP1 SWAP2 SWAP1 SWAP2 SWAP1 SWAP2 POP PUSH1 0x0 DUP3 ADD MLOAD DUP2 PUSH1 0x0 ADD SWAP1 DUP2 PUSH2 0x8C6 SWAP2 SWAP1 PUSH2 0x12F7 JUMP JUMPDEST POP PUSH1 0x20 DUP3 ADD MLOAD DUP2 PUSH1 0x1 ADD SWAP1 DUP2 PUSH2 0x8DC SWAP2 SWAP1 PUSH2 0x12F7 JUMP JUMPDEST POP PUSH1 0x40 DUP3 ADD MLOAD DUP2 PUSH1 0x2 ADD SSTORE PUSH1 0x60 DUP3 ADD MLOAD DUP2 PUSH1 0x3 ADD SSTORE PUSH1 0x80 DUP3 ADD MLOAD DUP2 PUSH1 0x4 ADD PUSH1 0x0 DUP3 ADD MLOAD DUP2 PUSH1 0x0 ADD SSTORE PUSH1 0x20 DUP3 ADD MLOAD DUP2 PUSH1 0x1 ADD SSTORE POP POP POP POP PUSH1 0x1 SWAP4 POP POP POP POP SWAP6 SWAP5 POP POP POP POP POP JUMP JUMPDEST CALLER PUSH20 0xFFFFFFFFFFFFFFFFFFFFFFFFFFFFFFFFFFFFFFFF AND PUSH1 0x0 DUP1 SLOAD SWAP1 PUSH2 0x100 EXP SWAP1 DIV PUSH20 0xFFFFFFFFFFFFFFFFFFFFFFFFFFFFFFFFFFFFFFFF AND PUSH20 0xFFFFFFFFFFFFFFFFFFFFFFFFFFFFFFFFFFFFFFFF AND EQ PUSH2 0x9B0 JUMPI PUSH1 0x40 MLOAD PUSH32 0x8C379A000000000000000000000000000000000000000000000000000000000 DUP2 MSTORE PUSH1 0x4 ADD PUSH2 0x9A7 SWAP1 PUSH2 0x1099 JUMP JUMPDEST PUSH1 0x40 MLOAD DUP1 SWAP2 SUB SWAP1 REVERT JUMPDEST PUSH1 0x0 TIMESTAMP SWAP1 POP PUSH1 0x3 DUP5 DUP2 SLOAD DUP2 LT PUSH2 0x9C9 JUMPI PUSH2 0x9C8 PUSH2 0x13C9 JUMP JUMPDEST JUMPDEST SWAP1 PUSH1 0x0 MSTORE PUSH1 0x20 PUSH1 0x0 KECCAK256 SWAP1 PUSH1 0x6 MUL ADD PUSH1 0x3 ADD SLOAD DUP2 LT ISZERO PUSH2 0xA1D JUMPI PUSH1 0x40 MLOAD PUSH32 0x8C379A000000000000000000000000000000000000000000000000000000000 DUP2 MSTORE PUSH1 0x4 ADD PUSH2 0xA14 SWAP1 PUSH2 0x1444 JUMP JUMPDEST PUSH1 0x40 MLOAD DUP1 SWAP2 SUB SWAP1 REVERT JUMPDEST PUSH1 0x0 PUSH1 0x40 MLOAD DUP1 PUSH1 0x40 ADD PUSH1 0x40 MSTORE DUP1 DUP6 DUP2 MSTORE PUSH1 0x20 ADD DUP5 DUP2 MSTORE POP SWAP1 POP DUP1 PUSH1 0x3 DUP7 DUP2 SLOAD DUP2 LT PUSH2 0xA4B JUMPI PUSH2 0xA4A PUSH2 0x13C9 JUMP JUMPDEST JUMPDEST SWAP1 PUSH1 0x0 MSTORE PUSH1 0x20 PUSH1 0x0 KECCAK256 SWAP1 PUSH1 0x6 MUL ADD PUSH1 0x4 ADD PUSH1 0x0 DUP3 ADD MLOAD DUP2 PUSH1 0x0 ADD SSTORE PUSH1 0x20 DUP3 ADD MLOAD DUP2 PUSH1 0x1 ADD SSTORE SWAP1 POP POP DUP1 PUSH1 0x1 PUSH1 0x0 DUP8 DUP2 MSTORE PUSH1 0x20 ADD SWAP1 DUP2 MSTORE PUSH1 0x20 ADD PUSH1 0x0 KECCAK256 PUSH1 0x4 ADD PUSH1 0x0 DUP3 ADD MLOAD DUP2 PUSH1 0x0 ADD SSTORE PUSH1 0x20 DUP3 ADD MLOAD DUP2 PUSH1 0x1 ADD SSTORE SWAP1 POP POP POP POP POP POP POP JUMP JUMPDEST PUSH1 0x0 DUP1 SLOAD SWAP1 PUSH2 0x100 EXP SWAP1 DIV PUSH20 0xFFFFFFFFFFFFFFFFFFFFFFFFFFFFFFFFFFFFFFFF AND DUP2 JUMP JUMPDEST PUSH1 0x0 DUP1 REVERT JUMPDEST PUSH1 0x0 DUP1 REVERT JUMPDEST PUSH1 0x0 DUP2 SWAP1 POP SWAP2 SWAP1 POP JUMP JUMPDEST PUSH2 0xAE9 DUP2 PUSH2 0xAD6 JUMP JUMPDEST DUP2 EQ PUSH2 0xAF4 JUMPI PUSH1 0x0 DUP1 REVERT JUMPDEST POP JUMP JUMPDEST PUSH1 0x0 DUP2 CALLDATALOAD SWAP1 POP PUSH2 0xB06 DUP2 PUSH2 0xAE0 JUMP JUMPDEST SWAP3 SWAP2 POP POP JUMP JUMPDEST PUSH1 0x0 PUSH1 0x20 DUP3 DUP5 SUB SLT ISZERO PUSH2 0xB22 JUMPI PUSH2 0xB21 PUSH2 0xACC JUMP JUMPDEST JUMPDEST PUSH1 0x0 PUSH2 0xB30 DUP5 DUP3 DUP6 ADD PUSH2 0xAF7 JUMP JUMPDEST SWAP2 POP POP SWAP3 SWAP2 POP POP JUMP JUMPDEST PUSH1 0x0 PUSH20 0xFFFFFFFFFFFFFFFFFFFFFFFFFFFFFFFFFFFFFFFF DUP3 AND SWAP1 POP SWAP2 SWAP1 POP JUMP JUMPDEST PUSH1 0x0 PUSH2 0xB64 DUP3 PUSH2 0xB39 JUMP JUMPDEST SWAP1 POP SWAP2 SWAP1 POP JUMP JUMPDEST PUSH2 0xB74 DUP2 PUSH2 0xB59 JUMP JUMPDEST DUP3 MSTORE POP POP JUMP JUMPDEST PUSH2 0xB83 DUP2 PUSH2 0xAD6 JUMP JUMPDEST DUP3 MSTORE POP POP JUMP JUMPDEST PUSH32 0x4E487B7100000000000000000000000000000000000000000000000000000000 PUSH1 0x0 MSTORE PUSH1 0x21 PUSH1 0x4 MSTORE PUSH1 0x24 PUSH1 0x0 REVERT JUMPDEST PUSH1 0x4 DUP2 LT PUSH2 0xBC9 JUMPI PUSH2 0xBC8 PUSH2 0xB89 JUMP JUMPDEST JUMPDEST POP JUMP JUMPDEST PUSH1 0x0 DUP2 SWAP1 POP PUSH2 0xBDA DUP3 PUSH2 0xBB8 JUMP JUMPDEST SWAP2 SWAP1 POP JUMP JUMPDEST PUSH1 0x0 PUSH2 0xBEA DUP3 PUSH2 0xBCC JUMP JUMPDEST SWAP1 POP SWAP2 SWAP1 POP JUMP JUMPDEST PUSH2 0xBFA DUP2 PUSH2 0xBDF JUMP JUMPDEST DUP3 MSTORE POP POP JUMP JUMPDEST PUSH1 0x0 PUSH1 0x60 DUP3 ADD SWAP1 POP PUSH2 0xC15 PUSH1 0x0 DUP4 ADD DUP7 PUSH2 0xB6B JUMP JUMPDEST PUSH2 0xC22 PUSH1 0x20 DUP4 ADD DUP6 PUSH2 0xB7A JUMP JUMPDEST PUSH2 0xC2F PUSH1 0x40 DUP4 ADD DUP5 PUSH2 0xBF1 JUMP JUMPDEST SWAP5 SWAP4 POP POP POP POP JUMP JUMPDEST PUSH1 0x0 DUP2 MLOAD SWAP1 POP SWAP2 SWAP1 POP JUMP JUMPDEST PUSH1 0x0 DUP3 DUP3 MSTORE PUSH1 0x20 DUP3 ADD SWAP1 POP SWAP3 SWAP2 POP POP JUMP JUMPDEST PUSH1 0x0 JUMPDEST DUP4 DUP2 LT ISZERO PUSH2 0xC71 JUMPI DUP1 DUP3 ADD MLOAD DUP2 DUP5 ADD MSTORE PUSH1 0x20 DUP2 ADD SWAP1 POP PUSH2 0xC56 JUMP JUMPDEST PUSH1 0x0 DUP5 DUP5 ADD MSTORE POP POP POP POP JUMP JUMPDEST PUSH1 0x0 PUSH1 0x1F NOT PUSH1 0x1F DUP4 ADD AND SWAP1 POP SWAP2 SWAP1 POP JUMP JUMPDEST PUSH1 0x0 PUSH2 0xC99 DUP3 PUSH2 0xC37 JUMP JUMPDEST PUSH2 0xCA3 DUP2 DUP6 PUSH2 0xC42 JUMP JUMPDEST SWAP4 POP PUSH2 0xCB3 DUP2 DUP6 PUSH1 0x20 DUP7 ADD PUSH2 0xC53 JUMP JUMPDEST PUSH2 0xCBC DUP2 PUSH2 0xC7D JUMP JUMPDEST DUP5 ADD SWAP2 POP POP SWAP3 SWAP2 POP POP JUMP JUMPDEST PUSH2 0xCD0 DUP2 PUSH2 0xAD6 JUMP JUMPDEST DUP3 MSTORE POP POP JUMP JUMPDEST PUSH1 0x40 DUP3 ADD PUSH1 0x0 DUP3 ADD MLOAD PUSH2 0xCEC PUSH1 0x0 DUP6 ADD DUP3 PUSH2 0xCC7 JUMP JUMPDEST POP PUSH1 0x20 DUP3 ADD MLOAD PUSH2 0xCFF PUSH1 0x20 DUP6 ADD DUP3 PUSH2 0xCC7 JUMP JUMPDEST POP POP POP POP JUMP JUMPDEST PUSH1 0x0 PUSH1 0xC0 DUP3 ADD SWAP1 POP DUP2 DUP2 SUB PUSH1 0x0 DUP4 ADD MSTORE PUSH2 0xD1F DUP2 DUP9 PUSH2 0xC8E JUMP JUMPDEST SWAP1 POP DUP2 DUP2 SUB PUSH1 0x20 DUP4 ADD MSTORE PUSH2 0xD33 DUP2 DUP8 PUSH2 0xC8E JUMP JUMPDEST SWAP1 POP PUSH2 0xD42 PUSH1 0x40 DUP4 ADD DUP7 PUSH2 0xB7A JUMP JUMPDEST PUSH2 0xD4F PUSH1 0x60 DUP4 ADD DUP6 PUSH2 0xB7A JUMP JUMPDEST PUSH2 0xD5C PUSH1 0x80 DUP4 ADD DUP5 PUSH2 0xCD6 JUMP JUMPDEST SWAP7 SWAP6 POP POP POP POP POP POP JUMP JUMPDEST PUSH2 0xD6F DUP2 PUSH2 0xB59 JUMP JUMPDEST DUP2 EQ PUSH2 0xD7A JUMPI PUSH1 0x0 DUP1 REVERT JUMPDEST POP JUMP JUMPDEST PUSH1 0x0 DUP2 CALLDATALOAD SWAP1 POP PUSH2 0xD8C DUP2 PUSH2 0xD66 JUMP JUMPDEST SWAP3 SWAP2 POP POP JUMP JUMPDEST PUSH1 0x0 DUP1 PUSH1 0x40 DUP4 DUP6 SUB SLT ISZERO PUSH2 0xDA9 JUMPI PUSH2 0xDA8 PUSH2 0xACC JUMP JUMPDEST JUMPDEST PUSH1 0x0 PUSH2 0xDB7 DUP6 DUP3 DUP7 ADD PUSH2 0xD7D JUMP JUMPDEST SWAP3 POP POP PUSH1 0x20 PUSH2 0xDC8 DUP6 DUP3 DUP7 ADD PUSH2 0xAF7 JUMP JUMPDEST SWAP2 POP POP SWAP3 POP SWAP3 SWAP1 POP JUMP JUMPDEST PUSH1 0x0 PUSH1 0x60 DUP3 ADD SWAP1 POP PUSH2 0xDE7 PUSH1 0x0 DUP4 ADD DUP7 PUSH2 0xBF1 JUMP JUMPDEST PUSH2 0xDF4 PUSH1 0x20 DUP4 ADD DUP6 PUSH2 0xB7A JUMP JUMPDEST PUSH2 0xE01 PUSH1 0x40 DUP4 ADD DUP5 PUSH2 0xB7A JUMP JUMPDEST SWAP5 SWAP4 POP POP POP POP JUMP JUMPDEST PUSH1 0x0 DUP1 REVERT JUMPDEST PUSH1 0x0 DUP1 REVERT JUMPDEST PUSH1 0x0 DUP1 REVERT JUMPDEST PUSH1 0x0 DUP1 DUP4 PUSH1 0x1F DUP5 ADD SLT PUSH2 0xE2E JUMPI PUSH2 0xE2D PUSH2 0xE09 JUMP JUMPDEST JUMPDEST DUP3 CALLDATALOAD SWAP1 POP PUSH8 0xFFFFFFFFFFFFFFFF DUP2 GT ISZERO PUSH2 0xE4B JUMPI PUSH2 0xE4A PUSH2 0xE0E JUMP JUMPDEST JUMPDEST PUSH1 0x20 DUP4 ADD SWAP2 POP DUP4 PUSH1 0x1 DUP3 MUL DUP4 ADD GT ISZERO PUSH2 0xE67 JUMPI PUSH2 0xE66 PUSH2 0xE13 JUMP JUMPDEST JUMPDEST SWAP3 POP SWAP3 SWAP1 POP JUMP JUMPDEST PUSH1 0x0 DUP1 PUSH1 0x0 DUP1 PUSH1 0x0 PUSH1 0x60 DUP7 DUP9 SUB SLT ISZERO PUSH2 0xE8A JUMPI PUSH2 0xE89 PUSH2 0xACC JUMP JUMPDEST JUMPDEST PUSH1 0x0 DUP7 ADD CALLDATALOAD PUSH8 0xFFFFFFFFFFFFFFFF DUP2 GT ISZERO PUSH2 0xEA8 JUMPI PUSH2 0xEA7 PUSH2 0xAD1 JUMP JUMPDEST JUMPDEST PUSH2 0xEB4 DUP9 DUP3 DUP10 ADD PUSH2 0xE18 JUMP JUMPDEST SWAP6 POP SWAP6 POP POP PUSH1 0x20 DUP7 ADD CALLDATALOAD PUSH8 0xFFFFFFFFFFFFFFFF DUP2 GT ISZERO PUSH2 0xED7 JUMPI PUSH2 0xED6 PUSH2 0xAD1 JUMP JUMPDEST JUMPDEST PUSH2 0xEE3 DUP9 DUP3 DUP10 ADD PUSH2 0xE18 JUMP JUMPDEST SWAP4 POP SWAP4 POP POP PUSH1 0x40 PUSH2 0xEF6 DUP9 DUP3 DUP10 ADD PUSH2 0xAF7 JUMP JUMPDEST SWAP2 POP POP SWAP3 SWAP6 POP SWAP3 SWAP6 SWAP1 SWAP4 POP JUMP JUMPDEST PUSH1 0x0 DUP2 ISZERO ISZERO SWAP1 POP SWAP2 SWAP1 POP JUMP JUMPDEST PUSH2 0xF18 DUP2 PUSH2 0xF03 JUMP JUMPDEST DUP3 MSTORE POP POP JUMP JUMPDEST PUSH1 0x0 PUSH1 0x20 DUP3 ADD SWAP1 POP PUSH2 0xF33 PUSH1 0x0 DUP4 ADD DUP5 PUSH2 0xF0F JUMP JUMPDEST SWAP3 SWAP2 POP POP JUMP JUMPDEST PUSH1 0x0 DUP1 PUSH1 0x0 PUSH1 0x60 DUP5 DUP7 SUB SLT ISZERO PUSH2 0xF52 JUMPI PUSH2 0xF51 PUSH2 0xACC JUMP JUMPDEST JUMPDEST PUSH1 0x0 PUSH2 0xF60 DUP7 DUP3 DUP8 ADD PUSH2 0xAF7 JUMP JUMPDEST SWAP4 POP POP PUSH1 0x20 PUSH2 0xF71 DUP7 DUP3 DUP8 ADD PUSH2 0xAF7 JUMP JUMPDEST SWAP3 POP POP PUSH1 0x40 PUSH2 0xF82 DUP7 DUP3 DUP8 ADD PUSH2 0xAF7 JUMP JUMPDEST SWAP2 POP POP SWAP3 POP SWAP3 POP SWAP3 JUMP JUMPDEST PUSH1 0x0 PUSH1 0x20 DUP3 ADD SWAP1 POP PUSH2 0xFA1 PUSH1 0x0 DUP4 ADD DUP5 PUSH2 0xB6B JUMP JUMPDEST SWAP3 SWAP2 POP POP JUMP JUMPDEST POP JUMP JUMPDEST PUSH1 0x0 PUSH2 0xFB7 PUSH1 0x0 DUP4 PUSH2 0xC42 JUMP JUMPDEST SWAP2 POP PUSH2 0xFC2 DUP3 PUSH2 0xFA7 JUMP JUMPDEST PUSH1 0x0 DUP3 ADD SWAP1 POP SWAP2 SWAP1 POP JUMP JUMPDEST PUSH1 0x0 PUSH1 0x20 DUP3 ADD SWAP1 POP DUP2 DUP2 SUB PUSH1 0x0 DUP4 ADD MSTORE PUSH2 0xFE6 DUP2 PUSH2 0xFAA JUMP JUMPDEST SWAP1 POP SWAP2 SWAP1 POP JUMP JUMPDEST PUSH32 0x4E487B7100000000000000000000000000000000000000000000000000000000 PUSH1 0x0 MSTORE PUSH1 0x22 PUSH1 0x4 MSTORE PUSH1 0x24 PUSH1 0x0 REVERT JUMPDEST PUSH1 0x0 PUSH1 0x2 DUP3 DIV SWAP1 POP PUSH1 0x1 DUP3 AND DUP1 PUSH2 0x1034 JUMPI PUSH1 0x7F DUP3 AND SWAP2 POP JUMPDEST PUSH1 0x20 DUP3 LT DUP2 SUB PUSH2 0x1047 JUMPI PUSH2 0x1046 PUSH2 0xFED JUMP JUMPDEST JUMPDEST POP SWAP2 SWAP1 POP JUMP JUMPDEST PUSH32 0x4E6F74204F776E65720000000000000000000000000000000000000000000000 PUSH1 0x0 DUP3 ADD MSTORE POP JUMP JUMPDEST PUSH1 0x0 PUSH2 0x1083 PUSH1 0x9 DUP4 PUSH2 0xC42 JUMP JUMPDEST SWAP2 POP PUSH2 0x108E DUP3 PUSH2 0x104D JUMP JUMPDEST PUSH1 0x20 DUP3 ADD SWAP1 POP SWAP2 SWAP1 POP JUMP JUMPDEST PUSH1 0x0 PUSH1 0x20 DUP3 ADD SWAP1 POP DUP2 DUP2 SUB PUSH1 0x0 DUP4 ADD MSTORE PUSH2 0x10B2 DUP2 PUSH2 0x1076 JUMP JUMPDEST SWAP1 POP SWAP2 SWAP1 POP JUMP JUMPDEST PUSH32 0x4E487B7100000000000000000000000000000000000000000000000000000000 PUSH1 0x0 MSTORE PUSH1 0x11 PUSH1 0x4 MSTORE PUSH1 0x24 PUSH1 0x0 REVERT JUMPDEST PUSH1 0x0 PUSH2 0x10F3 DUP3 PUSH2 0xAD6 JUMP JUMPDEST SWAP2 POP PUSH2 0x10FE DUP4 PUSH2 0xAD6 JUMP JUMPDEST SWAP3 POP DUP3 DUP3 ADD SWAP1 POP DUP1 DUP3 GT ISZERO PUSH2 0x1116 JUMPI PUSH2 0x1115 PUSH2 0x10B9 JUMP JUMPDEST JUMPDEST SWAP3 SWAP2 POP POP JUMP JUMPDEST PUSH32 0x4E487B7100000000000000000000000000000000000000000000000000000000 PUSH1 0x0 MSTORE PUSH1 0x41 PUSH1 0x4 MSTORE PUSH1 0x24 PUSH1 0x0 REVERT JUMPDEST PUSH1 0x0 DUP2 SWAP1 POP DUP2 PUSH1 0x0 MSTORE PUSH1 0x20 PUSH1 0x0 KECCAK256 SWAP1 POP SWAP2 SWAP1 POP JUMP JUMPDEST PUSH1 0x0 PUSH1 0x20 PUSH1 0x1F DUP4 ADD DIV SWAP1 POP SWAP2 SWAP1 POP JUMP JUMPDEST PUSH1 0x0 DUP3 DUP3 SHL SWAP1 POP SWAP3 SWAP2 POP POP JUMP JUMPDEST PUSH1 0x0 PUSH1 0x8 DUP4 MUL PUSH2 0x11AD PUSH32 0xFFFFFFFFFFFFFFFFFFFFFFFFFFFFFFFFFFFFFFFFFFFFFFFFFFFFFFFFFFFFFFFF DUP3 PUSH2 0x1170 JUMP JUMPDEST PUSH2 0x11B7 DUP7 DUP4 PUSH2 0x1170 JUMP JUMPDEST SWAP6 POP DUP1 NOT DUP5 AND SWAP4 POP DUP1 DUP7 AND DUP5 OR SWAP3 POP POP POP SWAP4 SWAP3 POP POP POP JUMP JUMPDEST PUSH1 0x0 DUP2 SWAP1 POP SWAP2 SWAP1 POP JUMP JUMPDEST PUSH1 0x0 PUSH2 0x11F4 PUSH2 0x11EF PUSH2 0x11EA DUP5 PUSH2 0xAD6 JUMP JUMPDEST PUSH2 0x11CF JUMP JUMPDEST PUSH2 0xAD6 JUMP JUMPDEST SWAP1 POP SWAP2 SWAP1 POP JUMP JUMPDEST PUSH1 0x0 DUP2 SWAP1 POP SWAP2 SWAP1 POP JUMP JUMPDEST PUSH2 0x120E DUP4 PUSH2 0x11D9 JUMP JUMPDEST PUSH2 0x1222 PUSH2 0x121A DUP3 PUSH2 0x11FB JUMP JUMPDEST DUP5 DUP5 SLOAD PUSH2 0x117D JUMP JUMPDEST DUP3 SSTORE POP POP POP POP JUMP JUMPDEST PUSH1 0x0 SWAP1 JUMP JUMPDEST PUSH2 0x1237 PUSH2 0x122A JUMP JUMPDEST PUSH2 0x1242 DUP2 DUP5 DUP5 PUSH2 0x1205 JUMP JUMPDEST POP POP POP JUMP JUMPDEST JUMPDEST DUP2 DUP2 LT ISZERO PUSH2 0x1266 JUMPI PUSH2 0x125B PUSH1 0x0 DUP3 PUSH2 0x122F JUMP JUMPDEST PUSH1 0x1 DUP2 ADD SWAP1 POP PUSH2 0x1248 JUMP JUMPDEST POP POP JUMP JUMPDEST PUSH1 0x1F DUP3 GT ISZERO PUSH2 0x12AB JUMPI PUSH2 0x127C DUP2 PUSH2 0x114B JUMP JUMPDEST PUSH2 0x1285 DUP5 PUSH2 0x1160 JUMP JUMPDEST DUP2 ADD PUSH1 0x20 DUP6 LT ISZERO PUSH2 0x1294 JUMPI DUP2 SWAP1 POP JUMPDEST PUSH2 0x12A8 PUSH2 0x12A0 DUP6 PUSH2 0x1160 JUMP JUMPDEST DUP4 ADD DUP3 PUSH2 0x1247 JUMP JUMPDEST POP POP JUMPDEST POP POP POP JUMP JUMPDEST PUSH1 0x0 DUP3 DUP3 SHR SWAP1 POP SWAP3 SWAP2 POP POP JUMP JUMPDEST PUSH1 0x0 PUSH2 0x12CE PUSH1 0x0 NOT DUP5 PUSH1 0x8 MUL PUSH2 0x12B0 JUMP JUMPDEST NOT DUP1 DUP4 AND SWAP2 POP POP SWAP3 SWAP2 POP POP JUMP JUMPDEST PUSH1 0x0 PUSH2 0x12E7 DUP4 DUP4 PUSH2 0x12BD JUMP JUMPDEST SWAP2 POP DUP3 PUSH1 0x2 MUL DUP3 OR SWAP1 POP SWAP3 SWAP2 POP POP JUMP JUMPDEST PUSH2 0x1300 DUP3 PUSH2 0xC37 JUMP JUMPDEST PUSH8 0xFFFFFFFFFFFFFFFF DUP2 GT ISZERO PUSH2 0x1319 JUMPI PUSH2 0x1318 PUSH2 0x111C JUMP JUMPDEST JUMPDEST PUSH2 0x1323 DUP3 SLOAD PUSH2 0x101C JUMP JUMPDEST PUSH2 0x132E DUP3 DUP3 DUP6 PUSH2 0x126A JUMP JUMPDEST PUSH1 0x0 PUSH1 0x20 SWAP1 POP PUSH1 0x1F DUP4 GT PUSH1 0x1 DUP2 EQ PUSH2 0x1361 JUMPI PUSH1 0x0 DUP5 ISZERO PUSH2 0x134F JUMPI DUP3 DUP8 ADD MLOAD SWAP1 POP JUMPDEST PUSH2 0x1359 DUP6 DUP3 PUSH2 0x12DB JUMP JUMPDEST DUP7 SSTORE POP PUSH2 0x13C1 JUMP JUMPDEST PUSH1 0x1F NOT DUP5 AND PUSH2 0x136F DUP7 PUSH2 0x114B JUMP JUMPDEST PUSH1 0x0 JUMPDEST DUP3 DUP2 LT ISZERO PUSH2 0x1397 JUMPI DUP5 DUP10 ADD MLOAD DUP3 SSTORE PUSH1 0x1 DUP3 ADD SWAP2 POP PUSH1 0x20 DUP6 ADD SWAP5 POP PUSH1 0x20 DUP2 ADD SWAP1 POP PUSH2 0x1372 JUMP JUMPDEST DUP7 DUP4 LT ISZERO PUSH2 0x13B4 JUMPI DUP5 DUP10 ADD MLOAD PUSH2 0x13B0 PUSH1 0x1F DUP10 AND DUP3 PUSH2 0x12BD JUMP JUMPDEST DUP4 SSTORE POP JUMPDEST PUSH1 0x1 PUSH1 0x2 DUP9 MUL ADD DUP9 SSTORE POP POP POP JUMPDEST POP POP POP POP POP POP JUMP JUMPDEST PUSH32 0x4E487B7100000000000000000000000000000000000000000000000000000000 PUSH1 0x0 MSTORE PUSH1 0x32 PUSH1 0x4 MSTORE PUSH1 0x24 PUSH1 0x0 REVERT JUMPDEST PUSH32 0x4D61746368206973207374696C6C206F6E000000000000000000000000000000 PUSH1 0x0 DUP3 ADD MSTORE POP JUMP JUMPDEST PUSH1 0x0 PUSH2 0x142E PUSH1 0x11 DUP4 PUSH2 0xC42 JUMP JUMPDEST SWAP2 POP PUSH2 0x1439 DUP3 PUSH2 0x13F8 JUMP JUMPDEST PUSH1 0x20 DUP3 ADD SWAP1 POP SWAP2 SWAP1 POP JUMP JUMPDEST PUSH1 0x0 PUSH1 0x20 DUP3 ADD SWAP1 POP DUP2 DUP2 SUB PUSH1 0x0 DUP4 ADD MSTORE PUSH2 0x145D DUP2 PUSH2 0x1421 JUMP JUMPDEST SWAP1 POP SWAP2 SWAP1 POP JUMP INVALID LOG2 PUSH5 0x6970667358 0x22 SLT KECCAK256 PUSH14 0x1D2CD0AF302A1A787D8FDE070DBF SHL 0x4C 0x29 PUSH16 0x7EB03F5E2BEEE4F978C721B03D64736F PUSH13 0x63430008110033000000000000 "
				},
				"gasEstimates": {
					"creation": {
						"codeDepositCost": "1054800",
						"executionCost": "25360",
						"totalCost": "1080160"
					},
					"external": {
						"Game(uint256)": "infinite",
						"admin()": "2577",
						"allMatch(uint256)": "infinite",
						"closeMatch(uint256,uint256,uint256)": "infinite",
						"instantiateMatch(string,string,uint256)": "infinite",
						"placeBet(uint256)": "674",
						"specificMatchBets(uint256)": "infinite",
						"userBet(address,uint256)": "infinite"
					}
				},
				"methodIdentifiers": {
					"Game(uint256)": "2172ff16",
					"admin()": "f851a440",
					"allMatch(uint256)": "b2edb39f",
					"closeMatch(uint256,uint256,uint256)": "ec7361a8",
					"instantiateMatch(string,string,uint256)": "bc9e6e2c",
					"placeBet(uint256)": "10fe7c48",
					"specificMatchBets(uint256)": "15a3ae71",
					"userBet(address,uint256)": "4195ab8e"
				}
			},
			"storageLayout": {
				"storage": [
					{
						"astId": 8,
						"contract": "contracts/betting.sol:DistanceFiBET",
						"label": "admin",
						"offset": 0,
						"slot": "0",
						"type": "t_address"
					},
					{
						"astId": 38,
						"contract": "contracts/betting.sol:DistanceFiBET",
						"label": "Game",
						"offset": 0,
						"slot": "1",
						"type": "t_mapping(t_uint256,t_struct(Match)25_storage)"
					},
					{
						"astId": 45,
						"contract": "contracts/betting.sol:DistanceFiBET",
						"label": "userBet",
						"offset": 0,
						"slot": "2",
						"type": "t_mapping(t_address,t_mapping(t_uint256,t_struct(Bettor)33_storage))"
					},
					{
						"astId": 49,
						"contract": "contracts/betting.sol:DistanceFiBET",
						"label": "allMatch",
						"offset": 0,
						"slot": "3",
						"type": "t_array(t_struct(Match)25_storage)dyn_storage"
					},
					{
						"astId": 62,
						"contract": "contracts/betting.sol:DistanceFiBET",
						"label": "specificMatchBets",
						"offset": 0,
						"slot": "4",
						"type": "t_mapping(t_uint256,t_struct(allBets)57_storage)"
					}
				],
				"types": {
					"t_address": {
						"encoding": "inplace",
						"label": "address",
						"numberOfBytes": "20"
					},
					"t_array(t_struct(Match)25_storage)dyn_storage": {
						"base": "t_struct(Match)25_storage",
						"encoding": "dynamic_array",
						"label": "struct DistanceFiBET.Match[]",
						"numberOfBytes": "32"
					},
					"t_enum(Choices)6": {
						"encoding": "inplace",
						"label": "enum DistanceFiBET.Choices",
						"numberOfBytes": "1"
					},
					"t_mapping(t_address,t_mapping(t_uint256,t_struct(Bettor)33_storage))": {
						"encoding": "mapping",
						"key": "t_address",
						"label": "mapping(address => mapping(uint256 => struct DistanceFiBET.Bettor))",
						"numberOfBytes": "32",
						"value": "t_mapping(t_uint256,t_struct(Bettor)33_storage)"
					},
					"t_mapping(t_uint256,t_struct(Bettor)33_storage)": {
						"encoding": "mapping",
						"key": "t_uint256",
						"label": "mapping(uint256 => struct DistanceFiBET.Bettor)",
						"numberOfBytes": "32",
						"value": "t_struct(Bettor)33_storage"
					},
					"t_mapping(t_uint256,t_struct(Match)25_storage)": {
						"encoding": "mapping",
						"key": "t_uint256",
						"label": "mapping(uint256 => struct DistanceFiBET.Match)",
						"numberOfBytes": "32",
						"value": "t_struct(Match)25_storage"
					},
					"t_mapping(t_uint256,t_struct(allBets)57_storage)": {
						"encoding": "mapping",
						"key": "t_uint256",
						"label": "mapping(uint256 => struct DistanceFiBET.allBets)",
						"numberOfBytes": "32",
						"value": "t_struct(allBets)57_storage"
					},
					"t_string_storage": {
						"encoding": "bytes",
						"label": "string",
						"numberOfBytes": "32"
					},
					"t_struct(Bettor)33_storage": {
						"encoding": "inplace",
						"label": "struct DistanceFiBET.Bettor",
						"members": [
							{
								"astId": 28,
								"contract": "contracts/betting.sol:DistanceFiBET",
								"label": "bet",
								"offset": 0,
								"slot": "0",
								"type": "t_enum(Choices)6"
							},
							{
								"astId": 30,
								"contract": "contracts/betting.sol:DistanceFiBET",
								"label": "winAmounts",
								"offset": 0,
								"slot": "1",
								"type": "t_uint256"
							},
							{
								"astId": 32,
								"contract": "contracts/betting.sol:DistanceFiBET",
								"label": "betAmount",
								"offset": 0,
								"slot": "2",
								"type": "t_uint256"
							}
						],
						"numberOfBytes": "96"
					},
					"t_struct(Match)25_storage": {
						"encoding": "inplace",
						"label": "struct DistanceFiBET.Match",
						"members": [
							{
								"astId": 15,
								"contract": "contracts/betting.sol:DistanceFiBET",
								"label": "HomeTeam",
								"offset": 0,
								"slot": "0",
								"type": "t_string_storage"
							},
							{
								"astId": 17,
								"contract": "contracts/betting.sol:DistanceFiBET",
								"label": "AwayTeam",
								"offset": 0,
								"slot": "1",
								"type": "t_string_storage"
							},
							{
								"astId": 19,
								"contract": "contracts/betting.sol:DistanceFiBET",
								"label": "startTime",
								"offset": 0,
								"slot": "2",
								"type": "t_uint256"
							},
							{
								"astId": 21,
								"contract": "contracts/betting.sol:DistanceFiBET",
								"label": "endTime",
								"offset": 0,
								"slot": "3",
								"type": "t_uint256"
							},
							{
								"astId": 24,
								"contract": "contracts/betting.sol:DistanceFiBET",
								"label": "results",
								"offset": 0,
								"slot": "4",
								"type": "t_struct(Results)13_storage"
							}
						],
						"numberOfBytes": "192"
					},
					"t_struct(Results)13_storage": {
						"encoding": "inplace",
						"label": "struct DistanceFiBET.Results",
						"members": [
							{
								"astId": 10,
								"contract": "contracts/betting.sol:DistanceFiBET",
								"label": "Home_score",
								"offset": 0,
								"slot": "0",
								"type": "t_uint256"
							},
							{
								"astId": 12,
								"contract": "contracts/betting.sol:DistanceFiBET",
								"label": "Away_score",
								"offset": 0,
								"slot": "1",
								"type": "t_uint256"
							}
						],
						"numberOfBytes": "64"
					},
					"t_struct(allBets)57_storage": {
						"encoding": "inplace",
						"label": "struct DistanceFiBET.allBets",
						"members": [
							{
								"astId": 51,
								"contract": "contracts/betting.sol:DistanceFiBET",
								"label": "bettor",
								"offset": 0,
								"slot": "0",
								"type": "t_address"
							},
							{
								"astId": 53,
								"contract": "contracts/betting.sol:DistanceFiBET",
								"label": "amount",
								"offset": 0,
								"slot": "1",
								"type": "t_uint256"
							},
							{
								"astId": 56,
								"contract": "contracts/betting.sol:DistanceFiBET",
								"label": "choice",
								"offset": 0,
								"slot": "2",
								"type": "t_enum(Choices)6"
							}
						],
						"numberOfBytes": "96"
					},
					"t_uint256": {
						"encoding": "inplace",
						"label": "uint256",
						"numberOfBytes": "32"
					}
				}
			},
			"userdoc": {
				"kind": "user",
				"methods": {},
				"version": 1
			}
		}
	}
}