{
	"contracts/ico.sol": {
		"Amestarter": {
			"abi": [
				{
					"inputs": [
						{
							"internalType": "uint256",
							"name": "_tokenPrice",
							"type": "uint256"
						},
						{
							"internalType": "address",
							"name": "_IUSDT",
							"type": "address"
						},
						{
							"internalType": "uint256",
							"name": "_targetSale",
							"type": "uint256"
						}
					],
					"stateMutability": "nonpayable",
					"type": "constructor"
				},
				{
					"anonymous": false,
					"inputs": [
						{
							"indexed": false,
							"internalType": "string",
							"name": "icoAlert",
							"type": "string"
						}
					],
					"name": "ICOStartAlert",
					"type": "event"
				},
				{
					"anonymous": false,
					"inputs": [
						{
							"indexed": false,
							"internalType": "address",
							"name": "buyuer",
							"type": "address"
						},
						{
							"indexed": false,
							"internalType": "uint256",
							"name": "tokenBought",
							"type": "uint256"
						}
					],
					"name": "claimToken",
					"type": "event"
				},
				{
					"anonymous": false,
					"inputs": [
						{
							"indexed": false,
							"internalType": "uint256",
							"name": "newTokenprice",
							"type": "uint256"
						},
						{
							"indexed": false,
							"internalType": "uint256",
							"name": "target",
							"type": "uint256"
						}
					],
					"name": "icoUpdate",
					"type": "event"
				},
				{
					"anonymous": false,
					"inputs": [
						{
							"indexed": true,
							"internalType": "address",
							"name": "buyer",
							"type": "address"
						},
						{
							"indexed": false,
							"internalType": "uint256",
							"name": "amount",
							"type": "uint256"
						}
					],
					"name": "latestPurchased",
					"type": "event"
				},
				{
					"inputs": [],
					"name": "BeginIDO",
					"outputs": [],
					"stateMutability": "nonpayable",
					"type": "function"
				},
				{
					"inputs": [],
					"name": "DAZ",
					"outputs": [
						{
							"internalType": "address",
							"name": "",
							"type": "address"
						}
					],
					"stateMutability": "view",
					"type": "function"
				},
				{
					"inputs": [],
					"name": "StopIDO",
					"outputs": [],
					"stateMutability": "nonpayable",
					"type": "function"
				},
				{
					"inputs": [],
					"name": "USDT",
					"outputs": [
						{
							"internalType": "address",
							"name": "",
							"type": "address"
						}
					],
					"stateMutability": "view",
					"type": "function"
				},
				{
					"inputs": [
						{
							"internalType": "address",
							"name": "_token",
							"type": "address"
						}
					],
					"name": "claimIDOTokens",
					"outputs": [],
					"stateMutability": "nonpayable",
					"type": "function"
				},
				{
					"inputs": [],
					"name": "claimPurchasedToken",
					"outputs": [],
					"stateMutability": "nonpayable",
					"type": "function"
				},
				{
					"inputs": [
						{
							"internalType": "uint256",
							"name": "_tokenPrice",
							"type": "uint256"
						},
						{
							"internalType": "uint256",
							"name": "_targetSale",
							"type": "uint256"
						}
					],
					"name": "editIDO",
					"outputs": [],
					"stateMutability": "nonpayable",
					"type": "function"
				},
				{
					"inputs": [
						{
							"internalType": "uint256",
							"name": "_amount",
							"type": "uint256"
						}
					],
					"name": "purchaseToken",
					"outputs": [],
					"stateMutability": "nonpayable",
					"type": "function"
				},
				{
					"inputs": [],
					"name": "tokenPrice",
					"outputs": [
						{
							"internalType": "uint256",
							"name": "",
							"type": "uint256"
						}
					],
					"stateMutability": "view",
					"type": "function"
				}
			],
			"devdoc": {
				"kind": "dev",
				"methods": {},
				"version": 1
			},
			"evm": {
				"assembly": "    /* \"contracts/ico.sol\":1245:3897  contract Amestarter is ReentrancyGuard {... */\n  mstore(0x40, 0xa0)\n    /* \"contracts/ico.sol\":1960:2179  constructor(uint _tokenPrice, address _IUSDT, uint256 _targetSale){... */\n  callvalue\n  dup1\n  iszero\n  tag_1\n  jumpi\n  0x00\n  dup1\n  revert\ntag_1:\n  pop\n  mload(0x40)\n  sub(codesize, bytecodeSize)\n  dup1\n  bytecodeSize\n  dup4\n  codecopy\n  dup2\n  dup2\n  add\n  0x40\n  mstore\n  dup2\n  add\n  swap1\n  tag_2\n  swap2\n  swap1\n  tag_3\n  jump\t// in\ntag_2:\n    /* \"@openzeppelin/contracts/security/ReentrancyGuard.sol\":1701:1702  1 */\n  0x01\n    /* \"@openzeppelin/contracts/security/ReentrancyGuard.sol\":1806:1813  _status */\n  0x00\n    /* \"@openzeppelin/contracts/security/ReentrancyGuard.sol\":1806:1828  _status = _NOT_ENTERED */\n  dup2\n  swap1\n  sstore\n  pop\n    /* \"contracts/ico.sol\":2045:2055  msg.sender */\n  caller\n    /* \"contracts/ico.sol\":2037:2042  owner */\n  0x03\n  0x00\n    /* \"contracts/ico.sol\":2037:2055  owner = msg.sender */\n  0x0100\n  exp\n  dup2\n  sload\n  dup2\n  0xffffffffffffffffffffffffffffffffffffffff\n  mul\n  not\n  and\n  swap1\n  dup4\n  0xffffffffffffffffffffffffffffffffffffffff\n  and\n  mul\n  or\n  swap1\n  sstore\n  pop\n    /* \"contracts/ico.sol\":2093:2101  10 ** 18 */\n  0x0de0b6b3a7640000\n    /* \"contracts/ico.sol\":2079:2090  _tokenPrice */\n  dup4\n    /* \"contracts/ico.sol\":2079:2101  _tokenPrice * 10 ** 18 */\n  tag_8\n  swap2\n  swap1\n  tag_9\n  jump\t// in\ntag_8:\n    /* \"contracts/ico.sol\":2066:2076  tokenPrice */\n  0x02\n    /* \"contracts/ico.sol\":2066:2101  tokenPrice = _tokenPrice * 10 ** 18 */\n  dup2\n  swap1\n  sstore\n  pop\n    /* \"contracts/ico.sol\":2119:2125  _IUSDT */\n  dup2\n    /* \"contracts/ico.sol\":2112:2125  USDT = _IUSDT */\n  0xffffffffffffffffffffffffffffffffffffffff\n  and\n  0x80\n  dup2\n  0xffffffffffffffffffffffffffffffffffffffff\n  and\n  dup2\n  mstore\n  pop\n  pop\n    /* \"contracts/ico.sol\":2163:2171  10 ** 18 */\n  0x0de0b6b3a7640000\n    /* \"contracts/ico.sol\":2149:2160  _targetSale */\n  dup2\n    /* \"contracts/ico.sol\":2149:2171  _targetSale * 10 ** 18 */\n  tag_10\n  swap2\n  swap1\n  tag_9\n  jump\t// in\ntag_10:\n    /* \"contracts/ico.sol\":2136:2146  targetSale */\n  0x04\n    /* \"contracts/ico.sol\":2136:2171  targetSale = _targetSale * 10 ** 18 */\n  dup2\n  swap1\n  sstore\n  pop\n    /* \"contracts/ico.sol\":1960:2179  constructor(uint _tokenPrice, address _IUSDT, uint256 _targetSale){... */\n  pop\n  pop\n  pop\n    /* \"contracts/ico.sol\":1245:3897  contract Amestarter is ReentrancyGuard {... */\n  jump(tag_11)\n    /* \"#utility.yul\":88:205   */\ntag_13:\n    /* \"#utility.yul\":197:198   */\n  0x00\n    /* \"#utility.yul\":194:195   */\n  dup1\n    /* \"#utility.yul\":187:199   */\n  revert\n    /* \"#utility.yul\":334:411   */\ntag_15:\n    /* \"#utility.yul\":371:378   */\n  0x00\n    /* \"#utility.yul\":400:405   */\n  dup2\n    /* \"#utility.yul\":389:405   */\n  swap1\n  pop\n    /* \"#utility.yul\":334:411   */\n  swap2\n  swap1\n  pop\n  jump\t// out\n    /* \"#utility.yul\":417:539   */\ntag_16:\n    /* \"#utility.yul\":490:514   */\n  tag_29\n    /* \"#utility.yul\":508:513   */\n  dup2\n    /* \"#utility.yul\":490:514   */\n  tag_15\n  jump\t// in\ntag_29:\n    /* \"#utility.yul\":483:488   */\n  dup2\n    /* \"#utility.yul\":480:515   */\n  eq\n    /* \"#utility.yul\":470:533   */\n  tag_30\n  jumpi\n    /* \"#utility.yul\":529:530   */\n  0x00\n    /* \"#utility.yul\":526:527   */\n  dup1\n    /* \"#utility.yul\":519:531   */\n  revert\n    /* \"#utility.yul\":470:533   */\ntag_30:\n    /* \"#utility.yul\":417:539   */\n  pop\n  jump\t// out\n    /* \"#utility.yul\":545:688   */\ntag_17:\n    /* \"#utility.yul\":602:607   */\n  0x00\n    /* \"#utility.yul\":633:639   */\n  dup2\n    /* \"#utility.yul\":627:640   */\n  mload\n    /* \"#utility.yul\":618:640   */\n  swap1\n  pop\n    /* \"#utility.yul\":649:682   */\n  tag_32\n    /* \"#utility.yul\":676:681   */\n  dup2\n    /* \"#utility.yul\":649:682   */\n  tag_16\n  jump\t// in\ntag_32:\n    /* \"#utility.yul\":545:688   */\n  swap3\n  swap2\n  pop\n  pop\n  jump\t// out\n    /* \"#utility.yul\":694:820   */\ntag_18:\n    /* \"#utility.yul\":731:738   */\n  0x00\n    /* \"#utility.yul\":771:813   */\n  0xffffffffffffffffffffffffffffffffffffffff\n    /* \"#utility.yul\":764:769   */\n  dup3\n    /* \"#utility.yul\":760:814   */\n  and\n    /* \"#utility.yul\":749:814   */\n  swap1\n  pop\n    /* \"#utility.yul\":694:820   */\n  swap2\n  swap1\n  pop\n  jump\t// out\n    /* \"#utility.yul\":826:922   */\ntag_19:\n    /* \"#utility.yul\":863:870   */\n  0x00\n    /* \"#utility.yul\":892:916   */\n  tag_35\n    /* \"#utility.yul\":910:915   */\n  dup3\n    /* \"#utility.yul\":892:916   */\n  tag_18\n  jump\t// in\ntag_35:\n    /* \"#utility.yul\":881:916   */\n  swap1\n  pop\n    /* \"#utility.yul\":826:922   */\n  swap2\n  swap1\n  pop\n  jump\t// out\n    /* \"#utility.yul\":928:1050   */\ntag_20:\n    /* \"#utility.yul\":1001:1025   */\n  tag_37\n    /* \"#utility.yul\":1019:1024   */\n  dup2\n    /* \"#utility.yul\":1001:1025   */\n  tag_19\n  jump\t// in\ntag_37:\n    /* \"#utility.yul\":994:999   */\n  dup2\n    /* \"#utility.yul\":991:1026   */\n  eq\n    /* \"#utility.yul\":981:1044   */\n  tag_38\n  jumpi\n    /* \"#utility.yul\":1040:1041   */\n  0x00\n    /* \"#utility.yul\":1037:1038   */\n  dup1\n    /* \"#utility.yul\":1030:1042   */\n  revert\n    /* \"#utility.yul\":981:1044   */\ntag_38:\n    /* \"#utility.yul\":928:1050   */\n  pop\n  jump\t// out\n    /* \"#utility.yul\":1056:1199   */\ntag_21:\n    /* \"#utility.yul\":1113:1118   */\n  0x00\n    /* \"#utility.yul\":1144:1150   */\n  dup2\n    /* \"#utility.yul\":1138:1151   */\n  mload\n    /* \"#utility.yul\":1129:1151   */\n  swap1\n  pop\n    /* \"#utility.yul\":1160:1193   */\n  tag_40\n    /* \"#utility.yul\":1187:1192   */\n  dup2\n    /* \"#utility.yul\":1160:1193   */\n  tag_20\n  jump\t// in\ntag_40:\n    /* \"#utility.yul\":1056:1199   */\n  swap3\n  swap2\n  pop\n  pop\n  jump\t// out\n    /* \"#utility.yul\":1205:1868   */\ntag_3:\n    /* \"#utility.yul\":1293:1299   */\n  0x00\n    /* \"#utility.yul\":1301:1307   */\n  dup1\n    /* \"#utility.yul\":1309:1315   */\n  0x00\n    /* \"#utility.yul\":1358:1360   */\n  0x60\n    /* \"#utility.yul\":1346:1355   */\n  dup5\n    /* \"#utility.yul\":1337:1344   */\n  dup7\n    /* \"#utility.yul\":1333:1356   */\n  sub\n    /* \"#utility.yul\":1329:1361   */\n  slt\n    /* \"#utility.yul\":1326:1445   */\n  iszero\n  tag_42\n  jumpi\n    /* \"#utility.yul\":1364:1443   */\n  tag_43\n  tag_13\n  jump\t// in\ntag_43:\n    /* \"#utility.yul\":1326:1445   */\ntag_42:\n    /* \"#utility.yul\":1484:1485   */\n  0x00\n    /* \"#utility.yul\":1509:1573   */\n  tag_44\n    /* \"#utility.yul\":1565:1572   */\n  dup7\n    /* \"#utility.yul\":1556:1562   */\n  dup3\n    /* \"#utility.yul\":1545:1554   */\n  dup8\n    /* \"#utility.yul\":1541:1563   */\n  add\n    /* \"#utility.yul\":1509:1573   */\n  tag_17\n  jump\t// in\ntag_44:\n    /* \"#utility.yul\":1499:1573   */\n  swap4\n  pop\n    /* \"#utility.yul\":1455:1583   */\n  pop\n    /* \"#utility.yul\":1622:1624   */\n  0x20\n    /* \"#utility.yul\":1648:1712   */\n  tag_45\n    /* \"#utility.yul\":1704:1711   */\n  dup7\n    /* \"#utility.yul\":1695:1701   */\n  dup3\n    /* \"#utility.yul\":1684:1693   */\n  dup8\n    /* \"#utility.yul\":1680:1702   */\n  add\n    /* \"#utility.yul\":1648:1712   */\n  tag_21\n  jump\t// in\ntag_45:\n    /* \"#utility.yul\":1638:1712   */\n  swap3\n  pop\n    /* \"#utility.yul\":1593:1722   */\n  pop\n    /* \"#utility.yul\":1761:1763   */\n  0x40\n    /* \"#utility.yul\":1787:1851   */\n  tag_46\n    /* \"#utility.yul\":1843:1850   */\n  dup7\n    /* \"#utility.yul\":1834:1840   */\n  dup3\n    /* \"#utility.yul\":1823:1832   */\n  dup8\n    /* \"#utility.yul\":1819:1841   */\n  add\n    /* \"#utility.yul\":1787:1851   */\n  tag_17\n  jump\t// in\ntag_46:\n    /* \"#utility.yul\":1777:1851   */\n  swap2\n  pop\n    /* \"#utility.yul\":1732:1861   */\n  pop\n    /* \"#utility.yul\":1205:1868   */\n  swap3\n  pop\n  swap3\n  pop\n  swap3\n  jump\t// out\n    /* \"#utility.yul\":1874:2054   */\ntag_22:\n    /* \"#utility.yul\":1922:1999   */\n  0x4e487b7100000000000000000000000000000000000000000000000000000000\n    /* \"#utility.yul\":1919:1920   */\n  0x00\n    /* \"#utility.yul\":1912:2000   */\n  mstore\n    /* \"#utility.yul\":2019:2023   */\n  0x11\n    /* \"#utility.yul\":2016:2017   */\n  0x04\n    /* \"#utility.yul\":2009:2024   */\n  mstore\n    /* \"#utility.yul\":2043:2047   */\n  0x24\n    /* \"#utility.yul\":2040:2041   */\n  0x00\n    /* \"#utility.yul\":2033:2048   */\n  revert\n    /* \"#utility.yul\":2060:2470   */\ntag_9:\n    /* \"#utility.yul\":2100:2107   */\n  0x00\n    /* \"#utility.yul\":2123:2143   */\n  tag_49\n    /* \"#utility.yul\":2141:2142   */\n  dup3\n    /* \"#utility.yul\":2123:2143   */\n  tag_15\n  jump\t// in\ntag_49:\n    /* \"#utility.yul\":2118:2143   */\n  swap2\n  pop\n    /* \"#utility.yul\":2157:2177   */\n  tag_50\n    /* \"#utility.yul\":2175:2176   */\n  dup4\n    /* \"#utility.yul\":2157:2177   */\n  tag_15\n  jump\t// in\ntag_50:\n    /* \"#utility.yul\":2152:2177   */\n  swap3\n  pop\n    /* \"#utility.yul\":2212:2213   */\n  dup3\n    /* \"#utility.yul\":2209:2210   */\n  dup3\n    /* \"#utility.yul\":2205:2214   */\n  mul\n    /* \"#utility.yul\":2234:2264   */\n  tag_51\n    /* \"#utility.yul\":2252:2263   */\n  dup2\n    /* \"#utility.yul\":2234:2264   */\n  tag_15\n  jump\t// in\ntag_51:\n    /* \"#utility.yul\":2223:2264   */\n  swap2\n  pop\n    /* \"#utility.yul\":2413:2414   */\n  dup3\n    /* \"#utility.yul\":2404:2411   */\n  dup3\n    /* \"#utility.yul\":2400:2415   */\n  div\n    /* \"#utility.yul\":2397:2398   */\n  dup5\n    /* \"#utility.yul\":2394:2416   */\n  eq\n    /* \"#utility.yul\":2374:2375   */\n  dup4\n    /* \"#utility.yul\":2367:2376   */\n  iszero\n    /* \"#utility.yul\":2347:2430   */\n  or\n    /* \"#utility.yul\":2324:2463   */\n  tag_52\n  jumpi\n    /* \"#utility.yul\":2443:2461   */\n  tag_53\n  tag_22\n  jump\t// in\ntag_53:\n    /* \"#utility.yul\":2324:2463   */\ntag_52:\n    /* \"#utility.yul\":2108:2470   */\n  pop\n    /* \"#utility.yul\":2060:2470   */\n  swap3\n  swap2\n  pop\n  pop\n  jump\t// out\n    /* \"contracts/ico.sol\":1245:3897  contract Amestarter is ReentrancyGuard {... */\ntag_11:\n  mload(0x80)\n  codecopy(0x00, dataOffset(sub_0), dataSize(sub_0))\n  0x00\n  assignImmutable(\"0xc8a6f112e7620748ca3ae6a49a58464897133c24b6f43e9fa71155cd2626380a\")\n  return(0x00, dataSize(sub_0))\nstop\n\nsub_0: assembly {\n        /* \"contracts/ico.sol\":1245:3897  contract Amestarter is ReentrancyGuard {... */\n      mstore(0x40, 0x80)\n      callvalue\n      dup1\n      iszero\n      tag_1\n      jumpi\n      0x00\n      dup1\n      revert\n    tag_1:\n      pop\n      jumpi(tag_2, lt(calldatasize, 0x04))\n      shr(0xe0, calldataload(0x00))\n      dup1\n      0x902dc8de\n      gt\n      tag_12\n      jumpi\n      dup1\n      0x902dc8de\n      eq\n      tag_7\n      jumpi\n      dup1\n      0xc2db2c42\n      eq\n      tag_8\n      jumpi\n      dup1\n      0xc54e44eb\n      eq\n      tag_9\n      jumpi\n      dup1\n      0xd7997f7e\n      eq\n      tag_10\n      jumpi\n      dup1\n      0xdc55920f\n      eq\n      tag_11\n      jumpi\n      jump(tag_2)\n    tag_12:\n      dup1\n      0x6385f2fb\n      eq\n      tag_3\n      jumpi\n      dup1\n      0x76d812ea\n      eq\n      tag_4\n      jumpi\n      dup1\n      0x7ff9b596\n      eq\n      tag_5\n      jumpi\n      dup1\n      0x890e63e7\n      eq\n      tag_6\n      jumpi\n    tag_2:\n      0x00\n      dup1\n      revert\n        /* \"contracts/ico.sol\":1368:1386  address public DAZ */\n    tag_3:\n      tag_13\n      tag_14\n      jump\t// in\n    tag_13:\n      mload(0x40)\n      tag_15\n      swap2\n      swap1\n      tag_16\n      jump\t// in\n    tag_15:\n      mload(0x40)\n      dup1\n      swap2\n      sub\n      swap1\n      return\n        /* \"contracts/ico.sol\":3738:3886  function StopIDO() public {... */\n    tag_4:\n      tag_17\n      tag_18\n      jump\t// in\n    tag_17:\n      stop\n        /* \"contracts/ico.sol\":1393:1415  uint public tokenPrice */\n    tag_5:\n      tag_19\n      tag_20\n      jump\t// in\n    tag_19:\n      mload(0x40)\n      tag_21\n      swap2\n      swap1\n      tag_22\n      jump\t// in\n    tag_21:\n      mload(0x40)\n      dup1\n      swap2\n      sub\n      swap1\n      return\n        /* \"contracts/ico.sol\":3290:3545  function editIDO(uint _tokenPrice, uint256 _targetSale) public{... */\n    tag_6:\n      tag_23\n      0x04\n      dup1\n      calldatasize\n      sub\n      dup2\n      add\n      swap1\n      tag_24\n      swap2\n      swap1\n      tag_25\n      jump\t// in\n    tag_24:\n      tag_26\n      jump\t// in\n    tag_23:\n      stop\n        /* \"contracts/ico.sol\":2639:2788  function claimIDOTokens(address _token) external {... */\n    tag_7:\n      tag_27\n      0x04\n      dup1\n      calldatasize\n      sub\n      dup2\n      add\n      swap1\n      tag_28\n      swap2\n      swap1\n      tag_29\n      jump\t// in\n    tag_28:\n      tag_30\n      jump\t// in\n    tag_27:\n      stop\n        /* \"contracts/ico.sol\":2187:2631  function purchaseToken(uint _amount)  public nonReentrant{... */\n    tag_8:\n      tag_31\n      0x04\n      dup1\n      calldatasize\n      sub\n      dup2\n      add\n      swap1\n      tag_32\n      swap2\n      swap1\n      tag_33\n      jump\t// in\n    tag_32:\n      tag_34\n      jump\t// in\n    tag_31:\n      stop\n        /* \"contracts/ico.sol\":1332:1361  address public immutable USDT */\n    tag_9:\n      tag_35\n      tag_36\n      jump\t// in\n    tag_35:\n      mload(0x40)\n      tag_37\n      swap2\n      swap1\n      tag_16\n      jump\t// in\n    tag_37:\n      mload(0x40)\n      dup1\n      swap2\n      sub\n      swap1\n      return\n        /* \"contracts/ico.sol\":2796:3282  function claimPurchasedToken() external nonReentrant {... */\n    tag_10:\n      tag_38\n      tag_39\n      jump\t// in\n    tag_38:\n      stop\n        /* \"contracts/ico.sol\":3553:3730  function BeginIDO() public {... */\n    tag_11:\n      tag_40\n      tag_41\n      jump\t// in\n    tag_40:\n      stop\n        /* \"contracts/ico.sol\":1368:1386  address public DAZ */\n    tag_14:\n      0x01\n      0x00\n      swap1\n      sload\n      swap1\n      0x0100\n      exp\n      swap1\n      div\n      0xffffffffffffffffffffffffffffffffffffffff\n      and\n      dup2\n      jump\t// out\n        /* \"contracts/ico.sol\":3738:3886  function StopIDO() public {... */\n    tag_18:\n        /* \"contracts/ico.sol\":3797:3802  owner */\n      0x03\n      0x00\n      swap1\n      sload\n      swap1\n      0x0100\n      exp\n      swap1\n      div\n      0xffffffffffffffffffffffffffffffffffffffff\n      and\n        /* \"contracts/ico.sol\":3783:3802  msg.sender == owner */\n      0xffffffffffffffffffffffffffffffffffffffff\n      and\n        /* \"contracts/ico.sol\":3783:3793  msg.sender */\n      caller\n        /* \"contracts/ico.sol\":3783:3802  msg.sender == owner */\n      0xffffffffffffffffffffffffffffffffffffffff\n      and\n      eq\n        /* \"contracts/ico.sol\":3775:3803  require(msg.sender == owner) */\n      tag_43\n      jumpi\n      0x00\n      dup1\n      revert\n    tag_43:\n        /* \"contracts/ico.sol\":3827:3832  false */\n      0x00\n        /* \"contracts/ico.sol\":3814:3824  IDOStarted */\n      0x03\n      0x14\n        /* \"contracts/ico.sol\":3814:3832  IDOStarted = false */\n      0x0100\n      exp\n      dup2\n      sload\n      dup2\n      0xff\n      mul\n      not\n      and\n      swap1\n      dup4\n      iszero\n      iszero\n      mul\n      or\n      swap1\n      sstore\n      pop\n        /* \"contracts/ico.sol\":3848:3878  ICOStartAlert(\"ICO is paused\") */\n      0x71002079ab3de7feb03ee30c84baf1d2350d4ffe16709d3dacb5e1037a0fe1cc\n      mload(0x40)\n      tag_44\n      swap1\n      tag_45\n      jump\t// in\n    tag_44:\n      mload(0x40)\n      dup1\n      swap2\n      sub\n      swap1\n      log1\n        /* \"contracts/ico.sol\":3738:3886  function StopIDO() public {... */\n      jump\t// out\n        /* \"contracts/ico.sol\":1393:1415  uint public tokenPrice */\n    tag_20:\n      sload(0x02)\n      dup2\n      jump\t// out\n        /* \"contracts/ico.sol\":3290:3545  function editIDO(uint _tokenPrice, uint256 _targetSale) public{... */\n    tag_26:\n        /* \"contracts/ico.sol\":3385:3390  owner */\n      0x03\n      0x00\n      swap1\n      sload\n      swap1\n      0x0100\n      exp\n      swap1\n      div\n      0xffffffffffffffffffffffffffffffffffffffff\n      and\n        /* \"contracts/ico.sol\":3371:3390  msg.sender == owner */\n      0xffffffffffffffffffffffffffffffffffffffff\n      and\n        /* \"contracts/ico.sol\":3371:3381  msg.sender */\n      caller\n        /* \"contracts/ico.sol\":3371:3390  msg.sender == owner */\n      0xffffffffffffffffffffffffffffffffffffffff\n      and\n      eq\n        /* \"contracts/ico.sol\":3363:3391  require(msg.sender == owner) */\n      tag_47\n      jumpi\n      0x00\n      dup1\n      revert\n    tag_47:\n        /* \"contracts/ico.sol\":3429:3437  10 ** 18 */\n      0x0de0b6b3a7640000\n        /* \"contracts/ico.sol\":3415:3426  _tokenPrice */\n      dup3\n        /* \"contracts/ico.sol\":3415:3437  _tokenPrice * 10 ** 18 */\n      tag_48\n      swap2\n      swap1\n      tag_49\n      jump\t// in\n    tag_48:\n        /* \"contracts/ico.sol\":3402:3412  tokenPrice */\n      0x02\n        /* \"contracts/ico.sol\":3402:3437  tokenPrice = _tokenPrice * 10 ** 18 */\n      dup2\n      swap1\n      sstore\n      pop\n        /* \"contracts/ico.sol\":3475:3483  10 ** 18 */\n      0x0de0b6b3a7640000\n        /* \"contracts/ico.sol\":3461:3472  _targetSale */\n      dup2\n        /* \"contracts/ico.sol\":3461:3483  _targetSale * 10 ** 18 */\n      tag_50\n      swap2\n      swap1\n      tag_49\n      jump\t// in\n    tag_50:\n        /* \"contracts/ico.sol\":3448:3458  targetSale */\n      0x04\n        /* \"contracts/ico.sol\":3448:3483  targetSale = _targetSale * 10 ** 18 */\n      dup2\n      swap1\n      sstore\n      pop\n        /* \"contracts/ico.sol\":3501:3537  icoUpdate( _tokenPrice, _targetSale) */\n      0x314bf1ccc32c608a6175053b0da1933b3a745b3f799011003a4c39aab0c518a3\n        /* \"contracts/ico.sol\":3512:3523  _tokenPrice */\n      dup3\n        /* \"contracts/ico.sol\":3525:3536  _targetSale */\n      dup3\n        /* \"contracts/ico.sol\":3501:3537  icoUpdate( _tokenPrice, _targetSale) */\n      mload(0x40)\n      tag_51\n      swap3\n      swap2\n      swap1\n      tag_52\n      jump\t// in\n    tag_51:\n      mload(0x40)\n      dup1\n      swap2\n      sub\n      swap1\n      log1\n        /* \"contracts/ico.sol\":3290:3545  function editIDO(uint _tokenPrice, uint256 _targetSale) public{... */\n      pop\n      pop\n      jump\t// out\n        /* \"contracts/ico.sol\":2639:2788  function claimIDOTokens(address _token) external {... */\n    tag_30:\n        /* \"contracts/ico.sol\":2721:2726  owner */\n      0x03\n      0x00\n      swap1\n      sload\n      swap1\n      0x0100\n      exp\n      swap1\n      div\n      0xffffffffffffffffffffffffffffffffffffffff\n      and\n        /* \"contracts/ico.sol\":2707:2726  msg.sender == owner */\n      0xffffffffffffffffffffffffffffffffffffffff\n      and\n        /* \"contracts/ico.sol\":2707:2717  msg.sender */\n      caller\n        /* \"contracts/ico.sol\":2707:2726  msg.sender == owner */\n      0xffffffffffffffffffffffffffffffffffffffff\n      and\n      eq\n        /* \"contracts/ico.sol\":2699:2727  require(msg.sender == owner) */\n      tag_54\n      jumpi\n      0x00\n      dup1\n      revert\n    tag_54:\n        /* \"contracts/ico.sol\":2744:2750  _token */\n      dup1\n        /* \"contracts/ico.sol\":2738:2741  DAZ */\n      0x01\n      0x00\n        /* \"contracts/ico.sol\":2738:2750  DAZ = _token */\n      0x0100\n      exp\n      dup2\n      sload\n      dup2\n      0xffffffffffffffffffffffffffffffffffffffff\n      mul\n      not\n      and\n      swap1\n      dup4\n      0xffffffffffffffffffffffffffffffffffffffff\n      and\n      mul\n      or\n      swap1\n      sstore\n      pop\n        /* \"contracts/ico.sol\":2776:2780  true */\n      0x01\n        /* \"contracts/ico.sol\":2761:2773  claimStarted */\n      0x03\n      0x15\n        /* \"contracts/ico.sol\":2761:2780  claimStarted = true */\n      0x0100\n      exp\n      dup2\n      sload\n      dup2\n      0xff\n      mul\n      not\n      and\n      swap1\n      dup4\n      iszero\n      iszero\n      mul\n      or\n      swap1\n      sstore\n      pop\n        /* \"contracts/ico.sol\":2639:2788  function claimIDOTokens(address _token) external {... */\n      pop\n      jump\t// out\n        /* \"contracts/ico.sol\":2187:2631  function purchaseToken(uint _amount)  public nonReentrant{... */\n    tag_34:\n        /* \"@openzeppelin/contracts/security/ReentrancyGuard.sol\":1744:1745  2 */\n      0x02\n        /* \"@openzeppelin/contracts/security/ReentrancyGuard.sol\":2325:2332  _status */\n      sload(0x00)\n        /* \"@openzeppelin/contracts/security/ReentrancyGuard.sol\":2325:2344  _status != _ENTERED */\n      sub\n        /* \"@openzeppelin/contracts/security/ReentrancyGuard.sol\":2317:2380  require(_status != _ENTERED, \"ReentrancyGuard: reentrant call\") */\n      tag_56\n      jumpi\n      mload(0x40)\n      0x08c379a000000000000000000000000000000000000000000000000000000000\n      dup2\n      mstore\n      0x04\n      add\n      tag_57\n      swap1\n      tag_58\n      jump\t// in\n    tag_57:\n      mload(0x40)\n      dup1\n      swap2\n      sub\n      swap1\n      revert\n    tag_56:\n        /* \"@openzeppelin/contracts/security/ReentrancyGuard.sol\":1744:1745  2 */\n      0x02\n        /* \"@openzeppelin/contracts/security/ReentrancyGuard.sol\":2455:2462  _status */\n      0x00\n        /* \"@openzeppelin/contracts/security/ReentrancyGuard.sol\":2455:2473  _status = _ENTERED */\n      dup2\n      swap1\n      sstore\n      pop\n        /* \"contracts/ico.sol\":2277:2281  true */\n      0x01\n        /* \"contracts/ico.sol\":2263:2281  IDOStarted == true */\n      iszero\n      iszero\n        /* \"contracts/ico.sol\":2263:2273  IDOStarted */\n      0x03\n      0x14\n      swap1\n      sload\n      swap1\n      0x0100\n      exp\n      swap1\n      div\n      0xff\n      and\n        /* \"contracts/ico.sol\":2263:2281  IDOStarted == true */\n      iszero\n      iszero\n      eq\n        /* \"contracts/ico.sol\":2255:2305  require(IDOStarted == true, \"IDO has not started\") */\n      tag_60\n      jumpi\n      mload(0x40)\n      0x08c379a000000000000000000000000000000000000000000000000000000000\n      dup2\n      mstore\n      0x04\n      add\n      tag_61\n      swap1\n      tag_62\n      jump\t// in\n    tag_61:\n      mload(0x40)\n      dup1\n      swap2\n      sub\n      swap1\n      revert\n    tag_60:\n        /* \"contracts/ico.sol\":2316:2329  uint256 value */\n      0x00\n        /* \"contracts/ico.sol\":2346:2353  _amount */\n      dup2\n        /* \"contracts/ico.sol\":2332:2343  totalRaised */\n      sload(0x05)\n        /* \"contracts/ico.sol\":2332:2353  totalRaised + _amount */\n      tag_63\n      swap2\n      swap1\n      tag_64\n      jump\t// in\n    tag_63:\n        /* \"contracts/ico.sol\":2316:2353  uint256 value = totalRaised + _amount */\n      swap1\n      pop\n        /* \"contracts/ico.sol\":2380:2390  targetSale */\n      sload(0x04)\n        /* \"contracts/ico.sol\":2372:2377  value */\n      dup2\n        /* \"contracts/ico.sol\":2372:2390  value < targetSale */\n      lt\n        /* \"contracts/ico.sol\":2364:2419  require(value < targetSale, \"All tokens has been sold\") */\n      tag_65\n      jumpi\n      mload(0x40)\n      0x08c379a000000000000000000000000000000000000000000000000000000000\n      dup2\n      mstore\n      0x04\n      add\n      tag_66\n      swap1\n      tag_67\n      jump\t// in\n    tag_66:\n      mload(0x40)\n      dup1\n      swap2\n      sub\n      swap1\n      revert\n    tag_65:\n        /* \"contracts/ico.sol\":2430:2495  IKRC20(USDT).safeTransferFrom(msg.sender, address(this), _amount) */\n      tag_68\n        /* \"contracts/ico.sol\":2460:2470  msg.sender */\n      caller\n        /* \"contracts/ico.sol\":2480:2484  this */\n      address\n        /* \"contracts/ico.sol\":2487:2494  _amount */\n      dup5\n        /* \"contracts/ico.sol\":2437:2441  USDT */\n      immutable(\"0xc8a6f112e7620748ca3ae6a49a58464897133c24b6f43e9fa71155cd2626380a\")\n        /* \"contracts/ico.sol\":2430:2459  IKRC20(USDT).safeTransferFrom */\n      0xffffffffffffffffffffffffffffffffffffffff\n      and\n      tag_69\n      swap1\n        /* \"contracts/ico.sol\":2430:2495  IKRC20(USDT).safeTransferFrom(msg.sender, address(this), _amount) */\n      swap4\n      swap3\n      swap2\n      swap1\n      0xffffffff\n      and\n      jump\t// in\n    tag_68:\n        /* \"contracts/ico.sol\":2531:2538  _amount */\n      dup2\n        /* \"contracts/ico.sol\":2506:2514  purchase */\n      0x06\n        /* \"contracts/ico.sol\":2506:2526  purchase[msg.sender] */\n      0x00\n        /* \"contracts/ico.sol\":2515:2525  msg.sender */\n      caller\n        /* \"contracts/ico.sol\":2506:2526  purchase[msg.sender] */\n      0xffffffffffffffffffffffffffffffffffffffff\n      and\n      0xffffffffffffffffffffffffffffffffffffffff\n      and\n      dup2\n      mstore\n      0x20\n      add\n      swap1\n      dup2\n      mstore\n      0x20\n      add\n      0x00\n      keccak256\n      0x00\n        /* \"contracts/ico.sol\":2506:2538  purchase[msg.sender]  += _amount */\n      dup3\n      dup3\n      sload\n      tag_70\n      swap2\n      swap1\n      tag_64\n      jump\t// in\n    tag_70:\n      swap3\n      pop\n      pop\n      dup2\n      swap1\n      sstore\n      pop\n        /* \"contracts/ico.sol\":2564:2571  _amount */\n      dup2\n        /* \"contracts/ico.sol\":2549:2560  totalRaised */\n      0x05\n      0x00\n        /* \"contracts/ico.sol\":2549:2571  totalRaised += _amount */\n      dup3\n      dup3\n      sload\n      tag_71\n      swap2\n      swap1\n      tag_64\n      jump\t// in\n    tag_71:\n      swap3\n      pop\n      pop\n      dup2\n      swap1\n      sstore\n      pop\n        /* \"contracts/ico.sol\":2603:2613  msg.sender */\n      caller\n        /* \"contracts/ico.sol\":2587:2623  latestPurchased(msg.sender, _amount) */\n      0xffffffffffffffffffffffffffffffffffffffff\n      and\n      0xda4cadf0d4383cb43c8249e3cc678f6690bdbaa01421c99fd9b14edac62cde80\n        /* \"contracts/ico.sol\":2615:2622  _amount */\n      dup4\n        /* \"contracts/ico.sol\":2587:2623  latestPurchased(msg.sender, _amount) */\n      mload(0x40)\n      tag_72\n      swap2\n      swap1\n      tag_22\n      jump\t// in\n    tag_72:\n      mload(0x40)\n      dup1\n      swap2\n      sub\n      swap1\n      log2\n        /* \"contracts/ico.sol\":2244:2631  {... */\n      pop\n        /* \"@openzeppelin/contracts/security/ReentrancyGuard.sol\":1701:1702  1 */\n      0x01\n        /* \"@openzeppelin/contracts/security/ReentrancyGuard.sol\":2628:2635  _status */\n      0x00\n        /* \"@openzeppelin/contracts/security/ReentrancyGuard.sol\":2628:2650  _status = _NOT_ENTERED */\n      dup2\n      swap1\n      sstore\n      pop\n        /* \"contracts/ico.sol\":2187:2631  function purchaseToken(uint _amount)  public nonReentrant{... */\n      pop\n      jump\t// out\n        /* \"contracts/ico.sol\":1332:1361  address public immutable USDT */\n    tag_36:\n      immutable(\"0xc8a6f112e7620748ca3ae6a49a58464897133c24b6f43e9fa71155cd2626380a\")\n      dup2\n      jump\t// out\n        /* \"contracts/ico.sol\":2796:3282  function claimPurchasedToken() external nonReentrant {... */\n    tag_39:\n        /* \"@openzeppelin/contracts/security/ReentrancyGuard.sol\":1744:1745  2 */\n      0x02\n        /* \"@openzeppelin/contracts/security/ReentrancyGuard.sol\":2325:2332  _status */\n      sload(0x00)\n        /* \"@openzeppelin/contracts/security/ReentrancyGuard.sol\":2325:2344  _status != _ENTERED */\n      sub\n        /* \"@openzeppelin/contracts/security/ReentrancyGuard.sol\":2317:2380  require(_status != _ENTERED, \"ReentrancyGuard: reentrant call\") */\n      tag_74\n      jumpi\n      mload(0x40)\n      0x08c379a000000000000000000000000000000000000000000000000000000000\n      dup2\n      mstore\n      0x04\n      add\n      tag_75\n      swap1\n      tag_58\n      jump\t// in\n    tag_75:\n      mload(0x40)\n      dup1\n      swap2\n      sub\n      swap1\n      revert\n    tag_74:\n        /* \"@openzeppelin/contracts/security/ReentrancyGuard.sol\":1744:1745  2 */\n      0x02\n        /* \"@openzeppelin/contracts/security/ReentrancyGuard.sol\":2455:2462  _status */\n      0x00\n        /* \"@openzeppelin/contracts/security/ReentrancyGuard.sol\":2455:2473  _status = _ENTERED */\n      dup2\n      swap1\n      sstore\n      pop\n        /* \"contracts/ico.sol\":2882:2887  false */\n      0x00\n        /* \"contracts/ico.sol\":2868:2887  IDOStarted == false */\n      iszero\n      iszero\n        /* \"contracts/ico.sol\":2868:2878  IDOStarted */\n      0x03\n      0x14\n      swap1\n      sload\n      swap1\n      0x0100\n      exp\n      swap1\n      div\n      0xff\n      and\n        /* \"contracts/ico.sol\":2868:2887  IDOStarted == false */\n      iszero\n      iszero\n      eq\n        /* \"contracts/ico.sol\":2860:2929  require(IDOStarted == false, \"IDO Has  not ended, claim unavailable\") */\n      tag_77\n      jumpi\n      mload(0x40)\n      0x08c379a000000000000000000000000000000000000000000000000000000000\n      dup2\n      mstore\n      0x04\n      add\n      tag_78\n      swap1\n      tag_79\n      jump\t// in\n    tag_78:\n      mload(0x40)\n      dup1\n      swap2\n      sub\n      swap1\n      revert\n    tag_77:\n        /* \"contracts/ico.sol\":2971:2972  0 */\n      0x00\n        /* \"contracts/ico.sol\":2948:2956  purchase */\n      0x06\n        /* \"contracts/ico.sol\":2948:2968  purchase[msg.sender] */\n      0x00\n        /* \"contracts/ico.sol\":2957:2967  msg.sender */\n      caller\n        /* \"contracts/ico.sol\":2948:2968  purchase[msg.sender] */\n      0xffffffffffffffffffffffffffffffffffffffff\n      and\n      0xffffffffffffffffffffffffffffffffffffffff\n      and\n      dup2\n      mstore\n      0x20\n      add\n      swap1\n      dup2\n      mstore\n      0x20\n      add\n      0x00\n      keccak256\n      sload\n        /* \"contracts/ico.sol\":2948:2972  purchase[msg.sender] > 0 */\n      gt\n        /* \"contracts/ico.sol\":2940:3000  require(purchase[msg.sender] > 0, \"you did not participate\") */\n      tag_80\n      jumpi\n      mload(0x40)\n      0x08c379a000000000000000000000000000000000000000000000000000000000\n      dup2\n      mstore\n      0x04\n      add\n      tag_81\n      swap1\n      tag_82\n      jump\t// in\n    tag_81:\n      mload(0x40)\n      dup1\n      swap2\n      sub\n      swap1\n      revert\n    tag_80:\n        /* \"contracts/ico.sol\":3011:3035  uint256  claimableAmount */\n      0x00\n        /* \"contracts/ico.sol\":3038:3046  purchase */\n      0x06\n        /* \"contracts/ico.sol\":3038:3058  purchase[msg.sender] */\n      0x00\n        /* \"contracts/ico.sol\":3047:3057  msg.sender */\n      caller\n        /* \"contracts/ico.sol\":3038:3058  purchase[msg.sender] */\n      0xffffffffffffffffffffffffffffffffffffffff\n      and\n      0xffffffffffffffffffffffffffffffffffffffff\n      and\n      dup2\n      mstore\n      0x20\n      add\n      swap1\n      dup2\n      mstore\n      0x20\n      add\n      0x00\n      keccak256\n      sload\n        /* \"contracts/ico.sol\":3011:3058  uint256  claimableAmount = purchase[msg.sender] */\n      swap1\n      pop\n        /* \"contracts/ico.sol\":3069:3083  uint256  token */\n      0x00\n        /* \"contracts/ico.sol\":3119:3125  10**18 */\n      0x0de0b6b3a7640000\n        /* \"contracts/ico.sol\":3105:3115  tokenPrice */\n      sload(0x02)\n        /* \"contracts/ico.sol\":3087:3102  claimableAmount */\n      dup4\n        /* \"contracts/ico.sol\":3087:3115  claimableAmount / tokenPrice */\n      tag_83\n      swap2\n      swap1\n      tag_84\n      jump\t// in\n    tag_83:\n        /* \"contracts/ico.sol\":3086:3125  (claimableAmount / tokenPrice) * 10**18 */\n      tag_85\n      swap2\n      swap1\n      tag_49\n      jump\t// in\n    tag_85:\n        /* \"contracts/ico.sol\":3069:3125  uint256  token = (claimableAmount / tokenPrice) * 10**18 */\n      swap1\n      pop\n        /* \"contracts/ico.sol\":3159:3160  0 */\n      0x00\n        /* \"contracts/ico.sol\":3136:3144  purchase */\n      0x06\n        /* \"contracts/ico.sol\":3136:3156  purchase[msg.sender] */\n      0x00\n        /* \"contracts/ico.sol\":3145:3155  msg.sender */\n      caller\n        /* \"contracts/ico.sol\":3136:3156  purchase[msg.sender] */\n      0xffffffffffffffffffffffffffffffffffffffff\n      and\n      0xffffffffffffffffffffffffffffffffffffffff\n      and\n      dup2\n      mstore\n      0x20\n      add\n      swap1\n      dup2\n      mstore\n      0x20\n      add\n      0x00\n      keccak256\n        /* \"contracts/ico.sol\":3136:3160  purchase[msg.sender] = 0 */\n      dup2\n      swap1\n      sstore\n      pop\n        /* \"contracts/ico.sol\":3178:3181  DAZ */\n      0x01\n      0x00\n      swap1\n      sload\n      swap1\n      0x0100\n      exp\n      swap1\n      div\n      0xffffffffffffffffffffffffffffffffffffffff\n      and\n        /* \"contracts/ico.sol\":3171:3195  IKRC20(DAZ).transferFrom */\n      0xffffffffffffffffffffffffffffffffffffffff\n      and\n      0x23b872dd\n        /* \"contracts/ico.sol\":3204:3208  this */\n      address\n        /* \"contracts/ico.sol\":3211:3221  msg.sender */\n      caller\n        /* \"contracts/ico.sol\":3223:3228  token */\n      dup5\n        /* \"contracts/ico.sol\":3171:3229  IKRC20(DAZ).transferFrom(address(this), msg.sender, token) */\n      mload(0x40)\n      dup5\n      0xffffffff\n      and\n      0xe0\n      shl\n      dup2\n      mstore\n      0x04\n      add\n      tag_86\n      swap4\n      swap3\n      swap2\n      swap1\n      tag_87\n      jump\t// in\n    tag_86:\n      0x20\n      mload(0x40)\n      dup1\n      dup4\n      sub\n      dup2\n      0x00\n      dup8\n      gas\n      call\n      iszero\n      dup1\n      iszero\n      tag_89\n      jumpi\n      returndatasize\n      0x00\n      dup1\n      returndatacopy\n      revert(0x00, returndatasize)\n    tag_89:\n      pop\n      pop\n      pop\n      pop\n      mload(0x40)\n      returndatasize\n      not(0x1f)\n      0x1f\n      dup3\n      add\n      and\n      dup3\n      add\n      dup1\n      0x40\n      mstore\n      pop\n      dup2\n      add\n      swap1\n      tag_90\n      swap2\n      swap1\n      tag_91\n      jump\t// in\n    tag_90:\n      pop\n        /* \"contracts/ico.sol\":3245:3274  claimToken(msg.sender, token) */\n      0x1698755f2f63264c31ca84d930df9dd8ca3ac92d33a0dd64d10154f95e4203ef\n        /* \"contracts/ico.sol\":3256:3266  msg.sender */\n      caller\n        /* \"contracts/ico.sol\":3268:3273  token */\n      dup3\n        /* \"contracts/ico.sol\":3245:3274  claimToken(msg.sender, token) */\n      mload(0x40)\n      tag_92\n      swap3\n      swap2\n      swap1\n      tag_93\n      jump\t// in\n    tag_92:\n      mload(0x40)\n      dup1\n      swap2\n      sub\n      swap1\n      log1\n        /* \"contracts/ico.sol\":2849:3282  {... */\n      pop\n      pop\n        /* \"@openzeppelin/contracts/security/ReentrancyGuard.sol\":1701:1702  1 */\n      0x01\n        /* \"@openzeppelin/contracts/security/ReentrancyGuard.sol\":2628:2635  _status */\n      0x00\n        /* \"@openzeppelin/contracts/security/ReentrancyGuard.sol\":2628:2650  _status = _NOT_ENTERED */\n      dup2\n      swap1\n      sstore\n      pop\n        /* \"contracts/ico.sol\":2796:3282  function claimPurchasedToken() external nonReentrant {... */\n      jump\t// out\n        /* \"contracts/ico.sol\":3553:3730  function BeginIDO() public {... */\n    tag_41:\n        /* \"contracts/ico.sol\":3613:3618  owner */\n      0x03\n      0x00\n      swap1\n      sload\n      swap1\n      0x0100\n      exp\n      swap1\n      div\n      0xffffffffffffffffffffffffffffffffffffffff\n      and\n        /* \"contracts/ico.sol\":3599:3618  msg.sender == owner */\n      0xffffffffffffffffffffffffffffffffffffffff\n      and\n        /* \"contracts/ico.sol\":3599:3609  msg.sender */\n      caller\n        /* \"contracts/ico.sol\":3599:3618  msg.sender == owner */\n      0xffffffffffffffffffffffffffffffffffffffff\n      and\n      eq\n        /* \"contracts/ico.sol\":3591:3619  require(msg.sender == owner) */\n      tag_95\n      jumpi\n      0x00\n      dup1\n      revert\n    tag_95:\n        /* \"contracts/ico.sol\":3643:3647  true */\n      0x01\n        /* \"contracts/ico.sol\":3630:3640  IDOStarted */\n      0x03\n      0x14\n        /* \"contracts/ico.sol\":3630:3647  IDOStarted = true */\n      0x0100\n      exp\n      dup2\n      sload\n      dup2\n      0xff\n      mul\n      not\n      and\n      swap1\n      dup4\n      iszero\n      iszero\n      mul\n      or\n      swap1\n      sstore\n      pop\n        /* \"contracts/ico.sol\":3673:3678  false */\n      0x00\n        /* \"contracts/ico.sol\":3658:3670  claimStarted */\n      0x03\n      0x15\n        /* \"contracts/ico.sol\":3658:3678  claimStarted = false */\n      0x0100\n      exp\n      dup2\n      sload\n      dup2\n      0xff\n      mul\n      not\n      and\n      swap1\n      dup4\n      iszero\n      iszero\n      mul\n      or\n      swap1\n      sstore\n      pop\n        /* \"contracts/ico.sol\":3696:3722  ICOStartAlert(\"ICO is on\") */\n      0x71002079ab3de7feb03ee30c84baf1d2350d4ffe16709d3dacb5e1037a0fe1cc\n      mload(0x40)\n      tag_96\n      swap1\n      tag_97\n      jump\t// in\n    tag_96:\n      mload(0x40)\n      dup1\n      swap2\n      sub\n      swap1\n      log1\n        /* \"contracts/ico.sol\":3553:3730  function BeginIDO() public {... */\n      jump\t// out\n        /* \"@openzeppelin/contracts/token/ERC20/utils/SafeERC20.sol\":974:1215  function safeTransferFrom(... */\n    tag_69:\n        /* \"@openzeppelin/contracts/token/ERC20/utils/SafeERC20.sol\":1112:1208  _callOptionalReturn(token, abi.encodeWithSelector(token.transferFrom.selector, from, to, value)) */\n      tag_99\n        /* \"@openzeppelin/contracts/token/ERC20/utils/SafeERC20.sol\":1132:1137  token */\n      dup5\n        /* \"@openzeppelin/contracts/token/ERC20/utils/SafeERC20.sol\":1162:1189  token.transferFrom.selector */\n      shl(0xe0, 0x23b872dd)\n        /* \"@openzeppelin/contracts/token/ERC20/utils/SafeERC20.sol\":1191:1195  from */\n      dup6\n        /* \"@openzeppelin/contracts/token/ERC20/utils/SafeERC20.sol\":1197:1199  to */\n      dup6\n        /* \"@openzeppelin/contracts/token/ERC20/utils/SafeERC20.sol\":1201:1206  value */\n      dup6\n        /* \"@openzeppelin/contracts/token/ERC20/utils/SafeERC20.sol\":1139:1207  abi.encodeWithSelector(token.transferFrom.selector, from, to, value) */\n      add(0x24, mload(0x40))\n      tag_100\n      swap4\n      swap3\n      swap2\n      swap1\n      tag_87\n      jump\t// in\n    tag_100:\n      mload(0x40)\n      0x20\n      dup2\n      dup4\n      sub\n      sub\n      dup2\n      mstore\n      swap1\n      0x40\n      mstore\n      swap1\n      not(0xffffffffffffffffffffffffffffffffffffffffffffffffffffffff)\n      and\n      0x20\n      dup3\n      add\n      dup1\n      mload\n      0xffffffffffffffffffffffffffffffffffffffffffffffffffffffff\n      dup4\n      dup2\n      dup4\n      and\n      or\n      dup4\n      mstore\n      pop\n      pop\n      pop\n      pop\n        /* \"@openzeppelin/contracts/token/ERC20/utils/SafeERC20.sol\":1112:1131  _callOptionalReturn */\n      tag_101\n        /* \"@openzeppelin/contracts/token/ERC20/utils/SafeERC20.sol\":1112:1208  _callOptionalReturn(token, abi.encodeWithSelector(token.transferFrom.selector, from, to, value)) */\n      jump\t// in\n    tag_99:\n        /* \"@openzeppelin/contracts/token/ERC20/utils/SafeERC20.sol\":974:1215  function safeTransferFrom(... */\n      pop\n      pop\n      pop\n      pop\n      jump\t// out\n        /* \"@openzeppelin/contracts/token/ERC20/utils/SafeERC20.sol\":3747:4453  function _callOptionalReturn(IERC20 token, bytes memory data) private {... */\n    tag_101:\n        /* \"@openzeppelin/contracts/token/ERC20/utils/SafeERC20.sol\":4166:4189  bytes memory returndata */\n      0x00\n        /* \"@openzeppelin/contracts/token/ERC20/utils/SafeERC20.sol\":4192:4261  address(token).functionCall(data, \"SafeERC20: low-level call failed\") */\n      tag_103\n        /* \"@openzeppelin/contracts/token/ERC20/utils/SafeERC20.sol\":4220:4224  data */\n      dup3\n        /* \"@openzeppelin/contracts/token/ERC20/utils/SafeERC20.sol\":4192:4261  address(token).functionCall(data, \"SafeERC20: low-level call failed\") */\n      mload(0x40)\n      dup1\n      0x40\n      add\n      0x40\n      mstore\n      dup1\n      0x20\n      dup2\n      mstore\n      0x20\n      add\n      0x5361666545524332303a206c6f772d6c6576656c2063616c6c206661696c6564\n      dup2\n      mstore\n      pop\n        /* \"@openzeppelin/contracts/token/ERC20/utils/SafeERC20.sol\":4200:4205  token */\n      dup6\n        /* \"@openzeppelin/contracts/token/ERC20/utils/SafeERC20.sol\":4192:4219  address(token).functionCall */\n      0xffffffffffffffffffffffffffffffffffffffff\n      and\n      tag_104\n      swap1\n        /* \"@openzeppelin/contracts/token/ERC20/utils/SafeERC20.sol\":4192:4261  address(token).functionCall(data, \"SafeERC20: low-level call failed\") */\n      swap3\n      swap2\n      swap1\n      0xffffffff\n      and\n      jump\t// in\n    tag_103:\n        /* \"@openzeppelin/contracts/token/ERC20/utils/SafeERC20.sol\":4166:4261  bytes memory returndata = address(token).functionCall(data, \"SafeERC20: low-level call failed\") */\n      swap1\n      pop\n        /* \"@openzeppelin/contracts/token/ERC20/utils/SafeERC20.sol\":4295:4296  0 */\n      0x00\n        /* \"@openzeppelin/contracts/token/ERC20/utils/SafeERC20.sol\":4275:4285  returndata */\n      dup2\n        /* \"@openzeppelin/contracts/token/ERC20/utils/SafeERC20.sol\":4275:4292  returndata.length */\n      mload\n        /* \"@openzeppelin/contracts/token/ERC20/utils/SafeERC20.sol\":4275:4296  returndata.length > 0 */\n      gt\n        /* \"@openzeppelin/contracts/token/ERC20/utils/SafeERC20.sol\":4271:4447  if (returndata.length > 0) {... */\n      iszero\n      tag_105\n      jumpi\n        /* \"@openzeppelin/contracts/token/ERC20/utils/SafeERC20.sol\":4370:4380  returndata */\n      dup1\n        /* \"@openzeppelin/contracts/token/ERC20/utils/SafeERC20.sol\":4359:4389  abi.decode(returndata, (bool)) */\n      dup1\n      0x20\n      add\n      swap1\n      mload\n      dup2\n      add\n      swap1\n      tag_106\n      swap2\n      swap1\n      tag_91\n      jump\t// in\n    tag_106:\n        /* \"@openzeppelin/contracts/token/ERC20/utils/SafeERC20.sol\":4351:4436  require(abi.decode(returndata, (bool)), \"SafeERC20: ERC20 operation did not succeed\") */\n      tag_107\n      jumpi\n      mload(0x40)\n      0x08c379a000000000000000000000000000000000000000000000000000000000\n      dup2\n      mstore\n      0x04\n      add\n      tag_108\n      swap1\n      tag_109\n      jump\t// in\n    tag_108:\n      mload(0x40)\n      dup1\n      swap2\n      sub\n      swap1\n      revert\n    tag_107:\n        /* \"@openzeppelin/contracts/token/ERC20/utils/SafeERC20.sol\":4271:4447  if (returndata.length > 0) {... */\n    tag_105:\n        /* \"@openzeppelin/contracts/token/ERC20/utils/SafeERC20.sol\":3817:4453  {... */\n      pop\n        /* \"@openzeppelin/contracts/token/ERC20/utils/SafeERC20.sol\":3747:4453  function _callOptionalReturn(IERC20 token, bytes memory data) private {... */\n      pop\n      pop\n      jump\t// out\n        /* \"@openzeppelin/contracts/utils/Address.sol\":3861:4084  function functionCall(... */\n    tag_104:\n        /* \"@openzeppelin/contracts/utils/Address.sol\":3994:4006  bytes memory */\n      0x60\n        /* \"@openzeppelin/contracts/utils/Address.sol\":4025:4077  functionCallWithValue(target, data, 0, errorMessage) */\n      tag_111\n        /* \"@openzeppelin/contracts/utils/Address.sol\":4047:4053  target */\n      dup5\n        /* \"@openzeppelin/contracts/utils/Address.sol\":4055:4059  data */\n      dup5\n        /* \"@openzeppelin/contracts/utils/Address.sol\":4061:4062  0 */\n      0x00\n        /* \"@openzeppelin/contracts/utils/Address.sol\":4064:4076  errorMessage */\n      dup6\n        /* \"@openzeppelin/contracts/utils/Address.sol\":4025:4046  functionCallWithValue */\n      tag_112\n        /* \"@openzeppelin/contracts/utils/Address.sol\":4025:4077  functionCallWithValue(target, data, 0, errorMessage) */\n      jump\t// in\n    tag_111:\n        /* \"@openzeppelin/contracts/utils/Address.sol\":4018:4077  return functionCallWithValue(target, data, 0, errorMessage) */\n      swap1\n      pop\n        /* \"@openzeppelin/contracts/utils/Address.sol\":3861:4084  function functionCall(... */\n      swap4\n      swap3\n      pop\n      pop\n      pop\n      jump\t// out\n        /* \"@openzeppelin/contracts/utils/Address.sol\":4948:5447  function functionCallWithValue(... */\n    tag_112:\n        /* \"@openzeppelin/contracts/utils/Address.sol\":5113:5125  bytes memory */\n      0x60\n        /* \"@openzeppelin/contracts/utils/Address.sol\":5170:5175  value */\n      dup3\n        /* \"@openzeppelin/contracts/utils/Address.sol\":5145:5166  address(this).balance */\n      selfbalance\n        /* \"@openzeppelin/contracts/utils/Address.sol\":5145:5175  address(this).balance >= value */\n      lt\n      iszero\n        /* \"@openzeppelin/contracts/utils/Address.sol\":5137:5218  require(address(this).balance >= value, \"Address: insufficient balance for call\") */\n      tag_114\n      jumpi\n      mload(0x40)\n      0x08c379a000000000000000000000000000000000000000000000000000000000\n      dup2\n      mstore\n      0x04\n      add\n      tag_115\n      swap1\n      tag_116\n      jump\t// in\n    tag_115:\n      mload(0x40)\n      dup1\n      swap2\n      sub\n      swap1\n      revert\n    tag_114:\n        /* \"@openzeppelin/contracts/utils/Address.sol\":5236:5254  isContract(target) */\n      tag_117\n        /* \"@openzeppelin/contracts/utils/Address.sol\":5247:5253  target */\n      dup6\n        /* \"@openzeppelin/contracts/utils/Address.sol\":5236:5246  isContract */\n      tag_118\n        /* \"@openzeppelin/contracts/utils/Address.sol\":5236:5254  isContract(target) */\n      jump\t// in\n    tag_117:\n        /* \"@openzeppelin/contracts/utils/Address.sol\":5228:5288  require(isContract(target), \"Address: call to non-contract\") */\n      tag_119\n      jumpi\n      mload(0x40)\n      0x08c379a000000000000000000000000000000000000000000000000000000000\n      dup2\n      mstore\n      0x04\n      add\n      tag_120\n      swap1\n      tag_121\n      jump\t// in\n    tag_120:\n      mload(0x40)\n      dup1\n      swap2\n      sub\n      swap1\n      revert\n    tag_119:\n        /* \"@openzeppelin/contracts/utils/Address.sol\":5300:5312  bool success */\n      0x00\n        /* \"@openzeppelin/contracts/utils/Address.sol\":5314:5337  bytes memory returndata */\n      dup1\n        /* \"@openzeppelin/contracts/utils/Address.sol\":5341:5347  target */\n      dup7\n        /* \"@openzeppelin/contracts/utils/Address.sol\":5341:5352  target.call */\n      0xffffffffffffffffffffffffffffffffffffffff\n      and\n        /* \"@openzeppelin/contracts/utils/Address.sol\":5360:5365  value */\n      dup6\n        /* \"@openzeppelin/contracts/utils/Address.sol\":5367:5371  data */\n      dup8\n        /* \"@openzeppelin/contracts/utils/Address.sol\":5341:5372  target.call{value: value}(data) */\n      mload(0x40)\n      tag_122\n      swap2\n      swap1\n      tag_123\n      jump\t// in\n    tag_122:\n      0x00\n      mload(0x40)\n      dup1\n      dup4\n      sub\n      dup2\n      dup6\n      dup8\n      gas\n      call\n      swap3\n      pop\n      pop\n      pop\n      returndatasize\n      dup1\n      0x00\n      dup2\n      eq\n      tag_126\n      jumpi\n      mload(0x40)\n      swap2\n      pop\n      and(add(returndatasize, 0x3f), not(0x1f))\n      dup3\n      add\n      0x40\n      mstore\n      returndatasize\n      dup3\n      mstore\n      returndatasize\n      0x00\n      0x20\n      dup5\n      add\n      returndatacopy\n      jump(tag_125)\n    tag_126:\n      0x60\n      swap2\n      pop\n    tag_125:\n      pop\n        /* \"@openzeppelin/contracts/utils/Address.sol\":5299:5372  (bool success, bytes memory returndata) = target.call{value: value}(data) */\n      swap2\n      pop\n      swap2\n      pop\n        /* \"@openzeppelin/contracts/utils/Address.sol\":5389:5440  verifyCallResult(success, returndata, errorMessage) */\n      tag_127\n        /* \"@openzeppelin/contracts/utils/Address.sol\":5406:5413  success */\n      dup3\n        /* \"@openzeppelin/contracts/utils/Address.sol\":5415:5425  returndata */\n      dup3\n        /* \"@openzeppelin/contracts/utils/Address.sol\":5427:5439  errorMessage */\n      dup7\n        /* \"@openzeppelin/contracts/utils/Address.sol\":5389:5405  verifyCallResult */\n      tag_128\n        /* \"@openzeppelin/contracts/utils/Address.sol\":5389:5440  verifyCallResult(success, returndata, errorMessage) */\n      jump\t// in\n    tag_127:\n        /* \"@openzeppelin/contracts/utils/Address.sol\":5382:5440  return verifyCallResult(success, returndata, errorMessage) */\n      swap3\n      pop\n      pop\n      pop\n        /* \"@openzeppelin/contracts/utils/Address.sol\":4948:5447  function functionCallWithValue(... */\n      swap5\n      swap4\n      pop\n      pop\n      pop\n      pop\n      jump\t// out\n        /* \"@openzeppelin/contracts/utils/Address.sol\":1175:1495  function isContract(address account) internal view returns (bool) {... */\n    tag_118:\n        /* \"@openzeppelin/contracts/utils/Address.sol\":1235:1239  bool */\n      0x00\n        /* \"@openzeppelin/contracts/utils/Address.sol\":1487:1488  0 */\n      dup1\n        /* \"@openzeppelin/contracts/utils/Address.sol\":1465:1472  account */\n      dup3\n        /* \"@openzeppelin/contracts/utils/Address.sol\":1465:1484  account.code.length */\n      0xffffffffffffffffffffffffffffffffffffffff\n      and\n      extcodesize\n        /* \"@openzeppelin/contracts/utils/Address.sol\":1465:1488  account.code.length > 0 */\n      gt\n        /* \"@openzeppelin/contracts/utils/Address.sol\":1458:1488  return account.code.length > 0 */\n      swap1\n      pop\n        /* \"@openzeppelin/contracts/utils/Address.sol\":1175:1495  function isContract(address account) internal view returns (bool) {... */\n      swap2\n      swap1\n      pop\n      jump\t// out\n        /* \"@openzeppelin/contracts/utils/Address.sol\":7561:8303  function verifyCallResult(... */\n    tag_128:\n        /* \"@openzeppelin/contracts/utils/Address.sol\":7707:7719  bytes memory */\n      0x60\n        /* \"@openzeppelin/contracts/utils/Address.sol\":7735:7742  success */\n      dup4\n        /* \"@openzeppelin/contracts/utils/Address.sol\":7731:8297  if (success) {... */\n      iszero\n      tag_131\n      jumpi\n        /* \"@openzeppelin/contracts/utils/Address.sol\":7765:7775  returndata */\n      dup3\n        /* \"@openzeppelin/contracts/utils/Address.sol\":7758:7775  return returndata */\n      swap1\n      pop\n      jump(tag_130)\n        /* \"@openzeppelin/contracts/utils/Address.sol\":7731:8297  if (success) {... */\n    tag_131:\n        /* \"@openzeppelin/contracts/utils/Address.sol\":7896:7897  0 */\n      0x00\n        /* \"@openzeppelin/contracts/utils/Address.sol\":7876:7886  returndata */\n      dup4\n        /* \"@openzeppelin/contracts/utils/Address.sol\":7876:7893  returndata.length */\n      mload\n        /* \"@openzeppelin/contracts/utils/Address.sol\":7876:7897  returndata.length > 0 */\n      gt\n        /* \"@openzeppelin/contracts/utils/Address.sol\":7872:8287  if (returndata.length > 0) {... */\n      iszero\n      tag_133\n      jumpi\n        /* \"@openzeppelin/contracts/utils/Address.sol\":8120:8130  returndata */\n      dup3\n        /* \"@openzeppelin/contracts/utils/Address.sol\":8114:8131  mload(returndata) */\n      mload\n        /* \"@openzeppelin/contracts/utils/Address.sol\":8180:8195  returndata_size */\n      dup1\n        /* \"@openzeppelin/contracts/utils/Address.sol\":8167:8177  returndata */\n      dup5\n        /* \"@openzeppelin/contracts/utils/Address.sol\":8163:8165  32 */\n      0x20\n        /* \"@openzeppelin/contracts/utils/Address.sol\":8159:8178  add(32, returndata) */\n      add\n        /* \"@openzeppelin/contracts/utils/Address.sol\":8152:8196  revert(add(32, returndata), returndata_size) */\n      revert\n        /* \"@openzeppelin/contracts/utils/Address.sol\":7872:8287  if (returndata.length > 0) {... */\n    tag_133:\n        /* \"@openzeppelin/contracts/utils/Address.sol\":8259:8271  errorMessage */\n      dup2\n        /* \"@openzeppelin/contracts/utils/Address.sol\":8252:8272  revert(errorMessage) */\n      mload(0x40)\n      0x08c379a000000000000000000000000000000000000000000000000000000000\n      dup2\n      mstore\n      0x04\n      add\n      tag_135\n      swap2\n      swap1\n      tag_136\n      jump\t// in\n    tag_135:\n      mload(0x40)\n      dup1\n      swap2\n      sub\n      swap1\n      revert\n        /* \"@openzeppelin/contracts/utils/Address.sol\":7561:8303  function verifyCallResult(... */\n    tag_130:\n      swap4\n      swap3\n      pop\n      pop\n      pop\n      jump\t// out\n        /* \"#utility.yul\":7:133   */\n    tag_137:\n        /* \"#utility.yul\":44:51   */\n      0x00\n        /* \"#utility.yul\":84:126   */\n      0xffffffffffffffffffffffffffffffffffffffff\n        /* \"#utility.yul\":77:82   */\n      dup3\n        /* \"#utility.yul\":73:127   */\n      and\n        /* \"#utility.yul\":62:127   */\n      swap1\n      pop\n        /* \"#utility.yul\":7:133   */\n      swap2\n      swap1\n      pop\n      jump\t// out\n        /* \"#utility.yul\":139:235   */\n    tag_138:\n        /* \"#utility.yul\":176:183   */\n      0x00\n        /* \"#utility.yul\":205:229   */\n      tag_185\n        /* \"#utility.yul\":223:228   */\n      dup3\n        /* \"#utility.yul\":205:229   */\n      tag_137\n      jump\t// in\n    tag_185:\n        /* \"#utility.yul\":194:229   */\n      swap1\n      pop\n        /* \"#utility.yul\":139:235   */\n      swap2\n      swap1\n      pop\n      jump\t// out\n        /* \"#utility.yul\":241:359   */\n    tag_139:\n        /* \"#utility.yul\":328:352   */\n      tag_187\n        /* \"#utility.yul\":346:351   */\n      dup2\n        /* \"#utility.yul\":328:352   */\n      tag_138\n      jump\t// in\n    tag_187:\n        /* \"#utility.yul\":323:326   */\n      dup3\n        /* \"#utility.yul\":316:353   */\n      mstore\n        /* \"#utility.yul\":241:359   */\n      pop\n      pop\n      jump\t// out\n        /* \"#utility.yul\":365:587   */\n    tag_16:\n        /* \"#utility.yul\":458:462   */\n      0x00\n        /* \"#utility.yul\":496:498   */\n      0x20\n        /* \"#utility.yul\":485:494   */\n      dup3\n        /* \"#utility.yul\":481:499   */\n      add\n        /* \"#utility.yul\":473:499   */\n      swap1\n      pop\n        /* \"#utility.yul\":509:580   */\n      tag_189\n        /* \"#utility.yul\":577:578   */\n      0x00\n        /* \"#utility.yul\":566:575   */\n      dup4\n        /* \"#utility.yul\":562:579   */\n      add\n        /* \"#utility.yul\":553:559   */\n      dup5\n        /* \"#utility.yul\":509:580   */\n      tag_139\n      jump\t// in\n    tag_189:\n        /* \"#utility.yul\":365:587   */\n      swap3\n      swap2\n      pop\n      pop\n      jump\t// out\n        /* \"#utility.yul\":593:670   */\n    tag_140:\n        /* \"#utility.yul\":630:637   */\n      0x00\n        /* \"#utility.yul\":659:664   */\n      dup2\n        /* \"#utility.yul\":648:664   */\n      swap1\n      pop\n        /* \"#utility.yul\":593:670   */\n      swap2\n      swap1\n      pop\n      jump\t// out\n        /* \"#utility.yul\":676:794   */\n    tag_141:\n        /* \"#utility.yul\":763:787   */\n      tag_192\n        /* \"#utility.yul\":781:786   */\n      dup2\n        /* \"#utility.yul\":763:787   */\n      tag_140\n      jump\t// in\n    tag_192:\n        /* \"#utility.yul\":758:761   */\n      dup3\n        /* \"#utility.yul\":751:788   */\n      mstore\n        /* \"#utility.yul\":676:794   */\n      pop\n      pop\n      jump\t// out\n        /* \"#utility.yul\":800:1022   */\n    tag_22:\n        /* \"#utility.yul\":893:897   */\n      0x00\n        /* \"#utility.yul\":931:933   */\n      0x20\n        /* \"#utility.yul\":920:929   */\n      dup3\n        /* \"#utility.yul\":916:934   */\n      add\n        /* \"#utility.yul\":908:934   */\n      swap1\n      pop\n        /* \"#utility.yul\":944:1015   */\n      tag_194\n        /* \"#utility.yul\":1012:1013   */\n      0x00\n        /* \"#utility.yul\":1001:1010   */\n      dup4\n        /* \"#utility.yul\":997:1014   */\n      add\n        /* \"#utility.yul\":988:994   */\n      dup5\n        /* \"#utility.yul\":944:1015   */\n      tag_141\n      jump\t// in\n    tag_194:\n        /* \"#utility.yul\":800:1022   */\n      swap3\n      swap2\n      pop\n      pop\n      jump\t// out\n        /* \"#utility.yul\":1109:1226   */\n    tag_143:\n        /* \"#utility.yul\":1218:1219   */\n      0x00\n        /* \"#utility.yul\":1215:1216   */\n      dup1\n        /* \"#utility.yul\":1208:1220   */\n      revert\n        /* \"#utility.yul\":1355:1477   */\n    tag_145:\n        /* \"#utility.yul\":1428:1452   */\n      tag_199\n        /* \"#utility.yul\":1446:1451   */\n      dup2\n        /* \"#utility.yul\":1428:1452   */\n      tag_140\n      jump\t// in\n    tag_199:\n        /* \"#utility.yul\":1421:1426   */\n      dup2\n        /* \"#utility.yul\":1418:1453   */\n      eq\n        /* \"#utility.yul\":1408:1471   */\n      tag_200\n      jumpi\n        /* \"#utility.yul\":1467:1468   */\n      0x00\n        /* \"#utility.yul\":1464:1465   */\n      dup1\n        /* \"#utility.yul\":1457:1469   */\n      revert\n        /* \"#utility.yul\":1408:1471   */\n    tag_200:\n        /* \"#utility.yul\":1355:1477   */\n      pop\n      jump\t// out\n        /* \"#utility.yul\":1483:1622   */\n    tag_146:\n        /* \"#utility.yul\":1529:1534   */\n      0x00\n        /* \"#utility.yul\":1567:1573   */\n      dup2\n        /* \"#utility.yul\":1554:1574   */\n      calldataload\n        /* \"#utility.yul\":1545:1574   */\n      swap1\n      pop\n        /* \"#utility.yul\":1583:1616   */\n      tag_202\n        /* \"#utility.yul\":1610:1615   */\n      dup2\n        /* \"#utility.yul\":1583:1616   */\n      tag_145\n      jump\t// in\n    tag_202:\n        /* \"#utility.yul\":1483:1622   */\n      swap3\n      swap2\n      pop\n      pop\n      jump\t// out\n        /* \"#utility.yul\":1628:2102   */\n    tag_25:\n        /* \"#utility.yul\":1696:1702   */\n      0x00\n        /* \"#utility.yul\":1704:1710   */\n      dup1\n        /* \"#utility.yul\":1753:1755   */\n      0x40\n        /* \"#utility.yul\":1741:1750   */\n      dup4\n        /* \"#utility.yul\":1732:1739   */\n      dup6\n        /* \"#utility.yul\":1728:1751   */\n      sub\n        /* \"#utility.yul\":1724:1756   */\n      slt\n        /* \"#utility.yul\":1721:1840   */\n      iszero\n      tag_204\n      jumpi\n        /* \"#utility.yul\":1759:1838   */\n      tag_205\n      tag_143\n      jump\t// in\n    tag_205:\n        /* \"#utility.yul\":1721:1840   */\n    tag_204:\n        /* \"#utility.yul\":1879:1880   */\n      0x00\n        /* \"#utility.yul\":1904:1957   */\n      tag_206\n        /* \"#utility.yul\":1949:1956   */\n      dup6\n        /* \"#utility.yul\":1940:1946   */\n      dup3\n        /* \"#utility.yul\":1929:1938   */\n      dup7\n        /* \"#utility.yul\":1925:1947   */\n      add\n        /* \"#utility.yul\":1904:1957   */\n      tag_146\n      jump\t// in\n    tag_206:\n        /* \"#utility.yul\":1894:1957   */\n      swap3\n      pop\n        /* \"#utility.yul\":1850:1967   */\n      pop\n        /* \"#utility.yul\":2006:2008   */\n      0x20\n        /* \"#utility.yul\":2032:2085   */\n      tag_207\n        /* \"#utility.yul\":2077:2084   */\n      dup6\n        /* \"#utility.yul\":2068:2074   */\n      dup3\n        /* \"#utility.yul\":2057:2066   */\n      dup7\n        /* \"#utility.yul\":2053:2075   */\n      add\n        /* \"#utility.yul\":2032:2085   */\n      tag_146\n      jump\t// in\n    tag_207:\n        /* \"#utility.yul\":2022:2085   */\n      swap2\n      pop\n        /* \"#utility.yul\":1977:2095   */\n      pop\n        /* \"#utility.yul\":1628:2102   */\n      swap3\n      pop\n      swap3\n      swap1\n      pop\n      jump\t// out\n        /* \"#utility.yul\":2108:2230   */\n    tag_147:\n        /* \"#utility.yul\":2181:2205   */\n      tag_209\n        /* \"#utility.yul\":2199:2204   */\n      dup2\n        /* \"#utility.yul\":2181:2205   */\n      tag_138\n      jump\t// in\n    tag_209:\n        /* \"#utility.yul\":2174:2179   */\n      dup2\n        /* \"#utility.yul\":2171:2206   */\n      eq\n        /* \"#utility.yul\":2161:2224   */\n      tag_210\n      jumpi\n        /* \"#utility.yul\":2220:2221   */\n      0x00\n        /* \"#utility.yul\":2217:2218   */\n      dup1\n        /* \"#utility.yul\":2210:2222   */\n      revert\n        /* \"#utility.yul\":2161:2224   */\n    tag_210:\n        /* \"#utility.yul\":2108:2230   */\n      pop\n      jump\t// out\n        /* \"#utility.yul\":2236:2375   */\n    tag_148:\n        /* \"#utility.yul\":2282:2287   */\n      0x00\n        /* \"#utility.yul\":2320:2326   */\n      dup2\n        /* \"#utility.yul\":2307:2327   */\n      calldataload\n        /* \"#utility.yul\":2298:2327   */\n      swap1\n      pop\n        /* \"#utility.yul\":2336:2369   */\n      tag_212\n        /* \"#utility.yul\":2363:2368   */\n      dup2\n        /* \"#utility.yul\":2336:2369   */\n      tag_147\n      jump\t// in\n    tag_212:\n        /* \"#utility.yul\":2236:2375   */\n      swap3\n      swap2\n      pop\n      pop\n      jump\t// out\n        /* \"#utility.yul\":2381:2710   */\n    tag_29:\n        /* \"#utility.yul\":2440:2446   */\n      0x00\n        /* \"#utility.yul\":2489:2491   */\n      0x20\n        /* \"#utility.yul\":2477:2486   */\n      dup3\n        /* \"#utility.yul\":2468:2475   */\n      dup5\n        /* \"#utility.yul\":2464:2487   */\n      sub\n        /* \"#utility.yul\":2460:2492   */\n      slt\n        /* \"#utility.yul\":2457:2576   */\n      iszero\n      tag_214\n      jumpi\n        /* \"#utility.yul\":2495:2574   */\n      tag_215\n      tag_143\n      jump\t// in\n    tag_215:\n        /* \"#utility.yul\":2457:2576   */\n    tag_214:\n        /* \"#utility.yul\":2615:2616   */\n      0x00\n        /* \"#utility.yul\":2640:2693   */\n      tag_216\n        /* \"#utility.yul\":2685:2692   */\n      dup5\n        /* \"#utility.yul\":2676:2682   */\n      dup3\n        /* \"#utility.yul\":2665:2674   */\n      dup6\n        /* \"#utility.yul\":2661:2683   */\n      add\n        /* \"#utility.yul\":2640:2693   */\n      tag_148\n      jump\t// in\n    tag_216:\n        /* \"#utility.yul\":2630:2693   */\n      swap2\n      pop\n        /* \"#utility.yul\":2586:2703   */\n      pop\n        /* \"#utility.yul\":2381:2710   */\n      swap3\n      swap2\n      pop\n      pop\n      jump\t// out\n        /* \"#utility.yul\":2716:3045   */\n    tag_33:\n        /* \"#utility.yul\":2775:2781   */\n      0x00\n        /* \"#utility.yul\":2824:2826   */\n      0x20\n        /* \"#utility.yul\":2812:2821   */\n      dup3\n        /* \"#utility.yul\":2803:2810   */\n      dup5\n        /* \"#utility.yul\":2799:2822   */\n      sub\n        /* \"#utility.yul\":2795:2827   */\n      slt\n        /* \"#utility.yul\":2792:2911   */\n      iszero\n      tag_218\n      jumpi\n        /* \"#utility.yul\":2830:2909   */\n      tag_219\n      tag_143\n      jump\t// in\n    tag_219:\n        /* \"#utility.yul\":2792:2911   */\n    tag_218:\n        /* \"#utility.yul\":2950:2951   */\n      0x00\n        /* \"#utility.yul\":2975:3028   */\n      tag_220\n        /* \"#utility.yul\":3020:3027   */\n      dup5\n        /* \"#utility.yul\":3011:3017   */\n      dup3\n        /* \"#utility.yul\":3000:3009   */\n      dup6\n        /* \"#utility.yul\":2996:3018   */\n      add\n        /* \"#utility.yul\":2975:3028   */\n      tag_146\n      jump\t// in\n    tag_220:\n        /* \"#utility.yul\":2965:3028   */\n      swap2\n      pop\n        /* \"#utility.yul\":2921:3038   */\n      pop\n        /* \"#utility.yul\":2716:3045   */\n      swap3\n      swap2\n      pop\n      pop\n      jump\t// out\n        /* \"#utility.yul\":3051:3220   */\n    tag_149:\n        /* \"#utility.yul\":3135:3146   */\n      0x00\n        /* \"#utility.yul\":3169:3175   */\n      dup3\n        /* \"#utility.yul\":3164:3167   */\n      dup3\n        /* \"#utility.yul\":3157:3176   */\n      mstore\n        /* \"#utility.yul\":3209:3213   */\n      0x20\n        /* \"#utility.yul\":3204:3207   */\n      dup3\n        /* \"#utility.yul\":3200:3214   */\n      add\n        /* \"#utility.yul\":3185:3214   */\n      swap1\n      pop\n        /* \"#utility.yul\":3051:3220   */\n      swap3\n      swap2\n      pop\n      pop\n      jump\t// out\n        /* \"#utility.yul\":3226:3389   */\n    tag_150:\n        /* \"#utility.yul\":3366:3381   */\n      0x49434f2069732070617573656400000000000000000000000000000000000000\n        /* \"#utility.yul\":3362:3363   */\n      0x00\n        /* \"#utility.yul\":3354:3360   */\n      dup3\n        /* \"#utility.yul\":3350:3364   */\n      add\n        /* \"#utility.yul\":3343:3382   */\n      mstore\n        /* \"#utility.yul\":3226:3389   */\n      pop\n      jump\t// out\n        /* \"#utility.yul\":3395:3761   */\n    tag_151:\n        /* \"#utility.yul\":3537:3540   */\n      0x00\n        /* \"#utility.yul\":3558:3625   */\n      tag_224\n        /* \"#utility.yul\":3622:3624   */\n      0x0d\n        /* \"#utility.yul\":3617:3620   */\n      dup4\n        /* \"#utility.yul\":3558:3625   */\n      tag_149\n      jump\t// in\n    tag_224:\n        /* \"#utility.yul\":3551:3625   */\n      swap2\n      pop\n        /* \"#utility.yul\":3634:3727   */\n      tag_225\n        /* \"#utility.yul\":3723:3726   */\n      dup3\n        /* \"#utility.yul\":3634:3727   */\n      tag_150\n      jump\t// in\n    tag_225:\n        /* \"#utility.yul\":3752:3754   */\n      0x20\n        /* \"#utility.yul\":3747:3750   */\n      dup3\n        /* \"#utility.yul\":3743:3755   */\n      add\n        /* \"#utility.yul\":3736:3755   */\n      swap1\n      pop\n        /* \"#utility.yul\":3395:3761   */\n      swap2\n      swap1\n      pop\n      jump\t// out\n        /* \"#utility.yul\":3767:4186   */\n    tag_45:\n        /* \"#utility.yul\":3933:3937   */\n      0x00\n        /* \"#utility.yul\":3971:3973   */\n      0x20\n        /* \"#utility.yul\":3960:3969   */\n      dup3\n        /* \"#utility.yul\":3956:3974   */\n      add\n        /* \"#utility.yul\":3948:3974   */\n      swap1\n      pop\n        /* \"#utility.yul\":4020:4029   */\n      dup2\n        /* \"#utility.yul\":4014:4018   */\n      dup2\n        /* \"#utility.yul\":4010:4030   */\n      sub\n        /* \"#utility.yul\":4006:4007   */\n      0x00\n        /* \"#utility.yul\":3995:4004   */\n      dup4\n        /* \"#utility.yul\":3991:4008   */\n      add\n        /* \"#utility.yul\":3984:4031   */\n      mstore\n        /* \"#utility.yul\":4048:4179   */\n      tag_227\n        /* \"#utility.yul\":4174:4178   */\n      dup2\n        /* \"#utility.yul\":4048:4179   */\n      tag_151\n      jump\t// in\n    tag_227:\n        /* \"#utility.yul\":4040:4179   */\n      swap1\n      pop\n        /* \"#utility.yul\":3767:4186   */\n      swap2\n      swap1\n      pop\n      jump\t// out\n        /* \"#utility.yul\":4192:4372   */\n    tag_152:\n        /* \"#utility.yul\":4240:4317   */\n      0x4e487b7100000000000000000000000000000000000000000000000000000000\n        /* \"#utility.yul\":4237:4238   */\n      0x00\n        /* \"#utility.yul\":4230:4318   */\n      mstore\n        /* \"#utility.yul\":4337:4341   */\n      0x11\n        /* \"#utility.yul\":4334:4335   */\n      0x04\n        /* \"#utility.yul\":4327:4342   */\n      mstore\n        /* \"#utility.yul\":4361:4365   */\n      0x24\n        /* \"#utility.yul\":4358:4359   */\n      0x00\n        /* \"#utility.yul\":4351:4366   */\n      revert\n        /* \"#utility.yul\":4378:4788   */\n    tag_49:\n        /* \"#utility.yul\":4418:4425   */\n      0x00\n        /* \"#utility.yul\":4441:4461   */\n      tag_230\n        /* \"#utility.yul\":4459:4460   */\n      dup3\n        /* \"#utility.yul\":4441:4461   */\n      tag_140\n      jump\t// in\n    tag_230:\n        /* \"#utility.yul\":4436:4461   */\n      swap2\n      pop\n        /* \"#utility.yul\":4475:4495   */\n      tag_231\n        /* \"#utility.yul\":4493:4494   */\n      dup4\n        /* \"#utility.yul\":4475:4495   */\n      tag_140\n      jump\t// in\n    tag_231:\n        /* \"#utility.yul\":4470:4495   */\n      swap3\n      pop\n        /* \"#utility.yul\":4530:4531   */\n      dup3\n        /* \"#utility.yul\":4527:4528   */\n      dup3\n        /* \"#utility.yul\":4523:4532   */\n      mul\n        /* \"#utility.yul\":4552:4582   */\n      tag_232\n        /* \"#utility.yul\":4570:4581   */\n      dup2\n        /* \"#utility.yul\":4552:4582   */\n      tag_140\n      jump\t// in\n    tag_232:\n        /* \"#utility.yul\":4541:4582   */\n      swap2\n      pop\n        /* \"#utility.yul\":4731:4732   */\n      dup3\n        /* \"#utility.yul\":4722:4729   */\n      dup3\n        /* \"#utility.yul\":4718:4733   */\n      div\n        /* \"#utility.yul\":4715:4716   */\n      dup5\n        /* \"#utility.yul\":4712:4734   */\n      eq\n        /* \"#utility.yul\":4692:4693   */\n      dup4\n        /* \"#utility.yul\":4685:4694   */\n      iszero\n        /* \"#utility.yul\":4665:4748   */\n      or\n        /* \"#utility.yul\":4642:4781   */\n      tag_233\n      jumpi\n        /* \"#utility.yul\":4761:4779   */\n      tag_234\n      tag_152\n      jump\t// in\n    tag_234:\n        /* \"#utility.yul\":4642:4781   */\n    tag_233:\n        /* \"#utility.yul\":4426:4788   */\n      pop\n        /* \"#utility.yul\":4378:4788   */\n      swap3\n      swap2\n      pop\n      pop\n      jump\t// out\n        /* \"#utility.yul\":4794:5126   */\n    tag_52:\n        /* \"#utility.yul\":4915:4919   */\n      0x00\n        /* \"#utility.yul\":4953:4955   */\n      0x40\n        /* \"#utility.yul\":4942:4951   */\n      dup3\n        /* \"#utility.yul\":4938:4956   */\n      add\n        /* \"#utility.yul\":4930:4956   */\n      swap1\n      pop\n        /* \"#utility.yul\":4966:5037   */\n      tag_236\n        /* \"#utility.yul\":5034:5035   */\n      0x00\n        /* \"#utility.yul\":5023:5032   */\n      dup4\n        /* \"#utility.yul\":5019:5036   */\n      add\n        /* \"#utility.yul\":5010:5016   */\n      dup6\n        /* \"#utility.yul\":4966:5037   */\n      tag_141\n      jump\t// in\n    tag_236:\n        /* \"#utility.yul\":5047:5119   */\n      tag_237\n        /* \"#utility.yul\":5115:5117   */\n      0x20\n        /* \"#utility.yul\":5104:5113   */\n      dup4\n        /* \"#utility.yul\":5100:5118   */\n      add\n        /* \"#utility.yul\":5091:5097   */\n      dup5\n        /* \"#utility.yul\":5047:5119   */\n      tag_141\n      jump\t// in\n    tag_237:\n        /* \"#utility.yul\":4794:5126   */\n      swap4\n      swap3\n      pop\n      pop\n      pop\n      jump\t// out\n        /* \"#utility.yul\":5132:5313   */\n    tag_153:\n        /* \"#utility.yul\":5272:5305   */\n      0x5265656e7472616e637947756172643a207265656e7472616e742063616c6c00\n        /* \"#utility.yul\":5268:5269   */\n      0x00\n        /* \"#utility.yul\":5260:5266   */\n      dup3\n        /* \"#utility.yul\":5256:5270   */\n      add\n        /* \"#utility.yul\":5249:5306   */\n      mstore\n        /* \"#utility.yul\":5132:5313   */\n      pop\n      jump\t// out\n        /* \"#utility.yul\":5319:5685   */\n    tag_154:\n        /* \"#utility.yul\":5461:5464   */\n      0x00\n        /* \"#utility.yul\":5482:5549   */\n      tag_240\n        /* \"#utility.yul\":5546:5548   */\n      0x1f\n        /* \"#utility.yul\":5541:5544   */\n      dup4\n        /* \"#utility.yul\":5482:5549   */\n      tag_149\n      jump\t// in\n    tag_240:\n        /* \"#utility.yul\":5475:5549   */\n      swap2\n      pop\n        /* \"#utility.yul\":5558:5651   */\n      tag_241\n        /* \"#utility.yul\":5647:5650   */\n      dup3\n        /* \"#utility.yul\":5558:5651   */\n      tag_153\n      jump\t// in\n    tag_241:\n        /* \"#utility.yul\":5676:5678   */\n      0x20\n        /* \"#utility.yul\":5671:5674   */\n      dup3\n        /* \"#utility.yul\":5667:5679   */\n      add\n        /* \"#utility.yul\":5660:5679   */\n      swap1\n      pop\n        /* \"#utility.yul\":5319:5685   */\n      swap2\n      swap1\n      pop\n      jump\t// out\n        /* \"#utility.yul\":5691:6110   */\n    tag_58:\n        /* \"#utility.yul\":5857:5861   */\n      0x00\n        /* \"#utility.yul\":5895:5897   */\n      0x20\n        /* \"#utility.yul\":5884:5893   */\n      dup3\n        /* \"#utility.yul\":5880:5898   */\n      add\n        /* \"#utility.yul\":5872:5898   */\n      swap1\n      pop\n        /* \"#utility.yul\":5944:5953   */\n      dup2\n        /* \"#utility.yul\":5938:5942   */\n      dup2\n        /* \"#utility.yul\":5934:5954   */\n      sub\n        /* \"#utility.yul\":5930:5931   */\n      0x00\n        /* \"#utility.yul\":5919:5928   */\n      dup4\n        /* \"#utility.yul\":5915:5932   */\n      add\n        /* \"#utility.yul\":5908:5955   */\n      mstore\n        /* \"#utility.yul\":5972:6103   */\n      tag_243\n        /* \"#utility.yul\":6098:6102   */\n      dup2\n        /* \"#utility.yul\":5972:6103   */\n      tag_154\n      jump\t// in\n    tag_243:\n        /* \"#utility.yul\":5964:6103   */\n      swap1\n      pop\n        /* \"#utility.yul\":5691:6110   */\n      swap2\n      swap1\n      pop\n      jump\t// out\n        /* \"#utility.yul\":6116:6285   */\n    tag_155:\n        /* \"#utility.yul\":6256:6277   */\n      0x49444f20686173206e6f74207374617274656400000000000000000000000000\n        /* \"#utility.yul\":6252:6253   */\n      0x00\n        /* \"#utility.yul\":6244:6250   */\n      dup3\n        /* \"#utility.yul\":6240:6254   */\n      add\n        /* \"#utility.yul\":6233:6278   */\n      mstore\n        /* \"#utility.yul\":6116:6285   */\n      pop\n      jump\t// out\n        /* \"#utility.yul\":6291:6657   */\n    tag_156:\n        /* \"#utility.yul\":6433:6436   */\n      0x00\n        /* \"#utility.yul\":6454:6521   */\n      tag_246\n        /* \"#utility.yul\":6518:6520   */\n      0x13\n        /* \"#utility.yul\":6513:6516   */\n      dup4\n        /* \"#utility.yul\":6454:6521   */\n      tag_149\n      jump\t// in\n    tag_246:\n        /* \"#utility.yul\":6447:6521   */\n      swap2\n      pop\n        /* \"#utility.yul\":6530:6623   */\n      tag_247\n        /* \"#utility.yul\":6619:6622   */\n      dup3\n        /* \"#utility.yul\":6530:6623   */\n      tag_155\n      jump\t// in\n    tag_247:\n        /* \"#utility.yul\":6648:6650   */\n      0x20\n        /* \"#utility.yul\":6643:6646   */\n      dup3\n        /* \"#utility.yul\":6639:6651   */\n      add\n        /* \"#utility.yul\":6632:6651   */\n      swap1\n      pop\n        /* \"#utility.yul\":6291:6657   */\n      swap2\n      swap1\n      pop\n      jump\t// out\n        /* \"#utility.yul\":6663:7082   */\n    tag_62:\n        /* \"#utility.yul\":6829:6833   */\n      0x00\n        /* \"#utility.yul\":6867:6869   */\n      0x20\n        /* \"#utility.yul\":6856:6865   */\n      dup3\n        /* \"#utility.yul\":6852:6870   */\n      add\n        /* \"#utility.yul\":6844:6870   */\n      swap1\n      pop\n        /* \"#utility.yul\":6916:6925   */\n      dup2\n        /* \"#utility.yul\":6910:6914   */\n      dup2\n        /* \"#utility.yul\":6906:6926   */\n      sub\n        /* \"#utility.yul\":6902:6903   */\n      0x00\n        /* \"#utility.yul\":6891:6900   */\n      dup4\n        /* \"#utility.yul\":6887:6904   */\n      add\n        /* \"#utility.yul\":6880:6927   */\n      mstore\n        /* \"#utility.yul\":6944:7075   */\n      tag_249\n        /* \"#utility.yul\":7070:7074   */\n      dup2\n        /* \"#utility.yul\":6944:7075   */\n      tag_156\n      jump\t// in\n    tag_249:\n        /* \"#utility.yul\":6936:7075   */\n      swap1\n      pop\n        /* \"#utility.yul\":6663:7082   */\n      swap2\n      swap1\n      pop\n      jump\t// out\n        /* \"#utility.yul\":7088:7279   */\n    tag_64:\n        /* \"#utility.yul\":7128:7131   */\n      0x00\n        /* \"#utility.yul\":7147:7167   */\n      tag_251\n        /* \"#utility.yul\":7165:7166   */\n      dup3\n        /* \"#utility.yul\":7147:7167   */\n      tag_140\n      jump\t// in\n    tag_251:\n        /* \"#utility.yul\":7142:7167   */\n      swap2\n      pop\n        /* \"#utility.yul\":7181:7201   */\n      tag_252\n        /* \"#utility.yul\":7199:7200   */\n      dup4\n        /* \"#utility.yul\":7181:7201   */\n      tag_140\n      jump\t// in\n    tag_252:\n        /* \"#utility.yul\":7176:7201   */\n      swap3\n      pop\n        /* \"#utility.yul\":7224:7225   */\n      dup3\n        /* \"#utility.yul\":7221:7222   */\n      dup3\n        /* \"#utility.yul\":7217:7226   */\n      add\n        /* \"#utility.yul\":7210:7226   */\n      swap1\n      pop\n        /* \"#utility.yul\":7245:7248   */\n      dup1\n        /* \"#utility.yul\":7242:7243   */\n      dup3\n        /* \"#utility.yul\":7239:7249   */\n      gt\n        /* \"#utility.yul\":7236:7272   */\n      iszero\n      tag_253\n      jumpi\n        /* \"#utility.yul\":7252:7270   */\n      tag_254\n      tag_152\n      jump\t// in\n    tag_254:\n        /* \"#utility.yul\":7236:7272   */\n    tag_253:\n        /* \"#utility.yul\":7088:7279   */\n      swap3\n      swap2\n      pop\n      pop\n      jump\t// out\n        /* \"#utility.yul\":7285:7459   */\n    tag_157:\n        /* \"#utility.yul\":7425:7451   */\n      0x416c6c20746f6b656e7320686173206265656e20736f6c640000000000000000\n        /* \"#utility.yul\":7421:7422   */\n      0x00\n        /* \"#utility.yul\":7413:7419   */\n      dup3\n        /* \"#utility.yul\":7409:7423   */\n      add\n        /* \"#utility.yul\":7402:7452   */\n      mstore\n        /* \"#utility.yul\":7285:7459   */\n      pop\n      jump\t// out\n        /* \"#utility.yul\":7465:7831   */\n    tag_158:\n        /* \"#utility.yul\":7607:7610   */\n      0x00\n        /* \"#utility.yul\":7628:7695   */\n      tag_257\n        /* \"#utility.yul\":7692:7694   */\n      0x18\n        /* \"#utility.yul\":7687:7690   */\n      dup4\n        /* \"#utility.yul\":7628:7695   */\n      tag_149\n      jump\t// in\n    tag_257:\n        /* \"#utility.yul\":7621:7695   */\n      swap2\n      pop\n        /* \"#utility.yul\":7704:7797   */\n      tag_258\n        /* \"#utility.yul\":7793:7796   */\n      dup3\n        /* \"#utility.yul\":7704:7797   */\n      tag_157\n      jump\t// in\n    tag_258:\n        /* \"#utility.yul\":7822:7824   */\n      0x20\n        /* \"#utility.yul\":7817:7820   */\n      dup3\n        /* \"#utility.yul\":7813:7825   */\n      add\n        /* \"#utility.yul\":7806:7825   */\n      swap1\n      pop\n        /* \"#utility.yul\":7465:7831   */\n      swap2\n      swap1\n      pop\n      jump\t// out\n        /* \"#utility.yul\":7837:8256   */\n    tag_67:\n        /* \"#utility.yul\":8003:8007   */\n      0x00\n        /* \"#utility.yul\":8041:8043   */\n      0x20\n        /* \"#utility.yul\":8030:8039   */\n      dup3\n        /* \"#utility.yul\":8026:8044   */\n      add\n        /* \"#utility.yul\":8018:8044   */\n      swap1\n      pop\n        /* \"#utility.yul\":8090:8099   */\n      dup2\n        /* \"#utility.yul\":8084:8088   */\n      dup2\n        /* \"#utility.yul\":8080:8100   */\n      sub\n        /* \"#utility.yul\":8076:8077   */\n      0x00\n        /* \"#utility.yul\":8065:8074   */\n      dup4\n        /* \"#utility.yul\":8061:8078   */\n      add\n        /* \"#utility.yul\":8054:8101   */\n      mstore\n        /* \"#utility.yul\":8118:8249   */\n      tag_260\n        /* \"#utility.yul\":8244:8248   */\n      dup2\n        /* \"#utility.yul\":8118:8249   */\n      tag_158\n      jump\t// in\n    tag_260:\n        /* \"#utility.yul\":8110:8249   */\n      swap1\n      pop\n        /* \"#utility.yul\":7837:8256   */\n      swap2\n      swap1\n      pop\n      jump\t// out\n        /* \"#utility.yul\":8262:8486   */\n    tag_159:\n        /* \"#utility.yul\":8402:8436   */\n      0x49444f2048617320206e6f7420656e6465642c20636c61696d20756e61766169\n        /* \"#utility.yul\":8398:8399   */\n      0x00\n        /* \"#utility.yul\":8390:8396   */\n      dup3\n        /* \"#utility.yul\":8386:8400   */\n      add\n        /* \"#utility.yul\":8379:8437   */\n      mstore\n        /* \"#utility.yul\":8471:8478   */\n      0x6c61626c65000000000000000000000000000000000000000000000000000000\n        /* \"#utility.yul\":8466:8468   */\n      0x20\n        /* \"#utility.yul\":8458:8464   */\n      dup3\n        /* \"#utility.yul\":8454:8469   */\n      add\n        /* \"#utility.yul\":8447:8479   */\n      mstore\n        /* \"#utility.yul\":8262:8486   */\n      pop\n      jump\t// out\n        /* \"#utility.yul\":8492:8858   */\n    tag_160:\n        /* \"#utility.yul\":8634:8637   */\n      0x00\n        /* \"#utility.yul\":8655:8722   */\n      tag_263\n        /* \"#utility.yul\":8719:8721   */\n      0x25\n        /* \"#utility.yul\":8714:8717   */\n      dup4\n        /* \"#utility.yul\":8655:8722   */\n      tag_149\n      jump\t// in\n    tag_263:\n        /* \"#utility.yul\":8648:8722   */\n      swap2\n      pop\n        /* \"#utility.yul\":8731:8824   */\n      tag_264\n        /* \"#utility.yul\":8820:8823   */\n      dup3\n        /* \"#utility.yul\":8731:8824   */\n      tag_159\n      jump\t// in\n    tag_264:\n        /* \"#utility.yul\":8849:8851   */\n      0x40\n        /* \"#utility.yul\":8844:8847   */\n      dup3\n        /* \"#utility.yul\":8840:8852   */\n      add\n        /* \"#utility.yul\":8833:8852   */\n      swap1\n      pop\n        /* \"#utility.yul\":8492:8858   */\n      swap2\n      swap1\n      pop\n      jump\t// out\n        /* \"#utility.yul\":8864:9283   */\n    tag_79:\n        /* \"#utility.yul\":9030:9034   */\n      0x00\n        /* \"#utility.yul\":9068:9070   */\n      0x20\n        /* \"#utility.yul\":9057:9066   */\n      dup3\n        /* \"#utility.yul\":9053:9071   */\n      add\n        /* \"#utility.yul\":9045:9071   */\n      swap1\n      pop\n        /* \"#utility.yul\":9117:9126   */\n      dup2\n        /* \"#utility.yul\":9111:9115   */\n      dup2\n        /* \"#utility.yul\":9107:9127   */\n      sub\n        /* \"#utility.yul\":9103:9104   */\n      0x00\n        /* \"#utility.yul\":9092:9101   */\n      dup4\n        /* \"#utility.yul\":9088:9105   */\n      add\n        /* \"#utility.yul\":9081:9128   */\n      mstore\n        /* \"#utility.yul\":9145:9276   */\n      tag_266\n        /* \"#utility.yul\":9271:9275   */\n      dup2\n        /* \"#utility.yul\":9145:9276   */\n      tag_160\n      jump\t// in\n    tag_266:\n        /* \"#utility.yul\":9137:9276   */\n      swap1\n      pop\n        /* \"#utility.yul\":8864:9283   */\n      swap2\n      swap1\n      pop\n      jump\t// out\n        /* \"#utility.yul\":9289:9462   */\n    tag_161:\n        /* \"#utility.yul\":9429:9454   */\n      0x796f7520646964206e6f74207061727469636970617465000000000000000000\n        /* \"#utility.yul\":9425:9426   */\n      0x00\n        /* \"#utility.yul\":9417:9423   */\n      dup3\n        /* \"#utility.yul\":9413:9427   */\n      add\n        /* \"#utility.yul\":9406:9455   */\n      mstore\n        /* \"#utility.yul\":9289:9462   */\n      pop\n      jump\t// out\n        /* \"#utility.yul\":9468:9834   */\n    tag_162:\n        /* \"#utility.yul\":9610:9613   */\n      0x00\n        /* \"#utility.yul\":9631:9698   */\n      tag_269\n        /* \"#utility.yul\":9695:9697   */\n      0x17\n        /* \"#utility.yul\":9690:9693   */\n      dup4\n        /* \"#utility.yul\":9631:9698   */\n      tag_149\n      jump\t// in\n    tag_269:\n        /* \"#utility.yul\":9624:9698   */\n      swap2\n      pop\n        /* \"#utility.yul\":9707:9800   */\n      tag_270\n        /* \"#utility.yul\":9796:9799   */\n      dup3\n        /* \"#utility.yul\":9707:9800   */\n      tag_161\n      jump\t// in\n    tag_270:\n        /* \"#utility.yul\":9825:9827   */\n      0x20\n        /* \"#utility.yul\":9820:9823   */\n      dup3\n        /* \"#utility.yul\":9816:9828   */\n      add\n        /* \"#utility.yul\":9809:9828   */\n      swap1\n      pop\n        /* \"#utility.yul\":9468:9834   */\n      swap2\n      swap1\n      pop\n      jump\t// out\n        /* \"#utility.yul\":9840:10259   */\n    tag_82:\n        /* \"#utility.yul\":10006:10010   */\n      0x00\n        /* \"#utility.yul\":10044:10046   */\n      0x20\n        /* \"#utility.yul\":10033:10042   */\n      dup3\n        /* \"#utility.yul\":10029:10047   */\n      add\n        /* \"#utility.yul\":10021:10047   */\n      swap1\n      pop\n        /* \"#utility.yul\":10093:10102   */\n      dup2\n        /* \"#utility.yul\":10087:10091   */\n      dup2\n        /* \"#utility.yul\":10083:10103   */\n      sub\n        /* \"#utility.yul\":10079:10080   */\n      0x00\n        /* \"#utility.yul\":10068:10077   */\n      dup4\n        /* \"#utility.yul\":10064:10081   */\n      add\n        /* \"#utility.yul\":10057:10104   */\n      mstore\n        /* \"#utility.yul\":10121:10252   */\n      tag_272\n        /* \"#utility.yul\":10247:10251   */\n      dup2\n        /* \"#utility.yul\":10121:10252   */\n      tag_162\n      jump\t// in\n    tag_272:\n        /* \"#utility.yul\":10113:10252   */\n      swap1\n      pop\n        /* \"#utility.yul\":9840:10259   */\n      swap2\n      swap1\n      pop\n      jump\t// out\n        /* \"#utility.yul\":10265:10445   */\n    tag_163:\n        /* \"#utility.yul\":10313:10390   */\n      0x4e487b7100000000000000000000000000000000000000000000000000000000\n        /* \"#utility.yul\":10310:10311   */\n      0x00\n        /* \"#utility.yul\":10303:10391   */\n      mstore\n        /* \"#utility.yul\":10410:10414   */\n      0x12\n        /* \"#utility.yul\":10407:10408   */\n      0x04\n        /* \"#utility.yul\":10400:10415   */\n      mstore\n        /* \"#utility.yul\":10434:10438   */\n      0x24\n        /* \"#utility.yul\":10431:10432   */\n      0x00\n        /* \"#utility.yul\":10424:10439   */\n      revert\n        /* \"#utility.yul\":10451:10636   */\n    tag_84:\n        /* \"#utility.yul\":10491:10492   */\n      0x00\n        /* \"#utility.yul\":10508:10528   */\n      tag_275\n        /* \"#utility.yul\":10526:10527   */\n      dup3\n        /* \"#utility.yul\":10508:10528   */\n      tag_140\n      jump\t// in\n    tag_275:\n        /* \"#utility.yul\":10503:10528   */\n      swap2\n      pop\n        /* \"#utility.yul\":10542:10562   */\n      tag_276\n        /* \"#utility.yul\":10560:10561   */\n      dup4\n        /* \"#utility.yul\":10542:10562   */\n      tag_140\n      jump\t// in\n    tag_276:\n        /* \"#utility.yul\":10537:10562   */\n      swap3\n      pop\n        /* \"#utility.yul\":10581:10582   */\n      dup3\n        /* \"#utility.yul\":10571:10606   */\n      tag_277\n      jumpi\n        /* \"#utility.yul\":10586:10604   */\n      tag_278\n      tag_163\n      jump\t// in\n    tag_278:\n        /* \"#utility.yul\":10571:10606   */\n    tag_277:\n        /* \"#utility.yul\":10628:10629   */\n      dup3\n        /* \"#utility.yul\":10625:10626   */\n      dup3\n        /* \"#utility.yul\":10621:10630   */\n      div\n        /* \"#utility.yul\":10616:10630   */\n      swap1\n      pop\n        /* \"#utility.yul\":10451:10636   */\n      swap3\n      swap2\n      pop\n      pop\n      jump\t// out\n        /* \"#utility.yul\":10642:11084   */\n    tag_87:\n        /* \"#utility.yul\":10791:10795   */\n      0x00\n        /* \"#utility.yul\":10829:10831   */\n      0x60\n        /* \"#utility.yul\":10818:10827   */\n      dup3\n        /* \"#utility.yul\":10814:10832   */\n      add\n        /* \"#utility.yul\":10806:10832   */\n      swap1\n      pop\n        /* \"#utility.yul\":10842:10913   */\n      tag_280\n        /* \"#utility.yul\":10910:10911   */\n      0x00\n        /* \"#utility.yul\":10899:10908   */\n      dup4\n        /* \"#utility.yul\":10895:10912   */\n      add\n        /* \"#utility.yul\":10886:10892   */\n      dup7\n        /* \"#utility.yul\":10842:10913   */\n      tag_139\n      jump\t// in\n    tag_280:\n        /* \"#utility.yul\":10923:10995   */\n      tag_281\n        /* \"#utility.yul\":10991:10993   */\n      0x20\n        /* \"#utility.yul\":10980:10989   */\n      dup4\n        /* \"#utility.yul\":10976:10994   */\n      add\n        /* \"#utility.yul\":10967:10973   */\n      dup6\n        /* \"#utility.yul\":10923:10995   */\n      tag_139\n      jump\t// in\n    tag_281:\n        /* \"#utility.yul\":11005:11077   */\n      tag_282\n        /* \"#utility.yul\":11073:11075   */\n      0x40\n        /* \"#utility.yul\":11062:11071   */\n      dup4\n        /* \"#utility.yul\":11058:11076   */\n      add\n        /* \"#utility.yul\":11049:11055   */\n      dup5\n        /* \"#utility.yul\":11005:11077   */\n      tag_141\n      jump\t// in\n    tag_282:\n        /* \"#utility.yul\":10642:11084   */\n      swap5\n      swap4\n      pop\n      pop\n      pop\n      pop\n      jump\t// out\n        /* \"#utility.yul\":11090:11180   */\n    tag_164:\n        /* \"#utility.yul\":11124:11131   */\n      0x00\n        /* \"#utility.yul\":11167:11172   */\n      dup2\n        /* \"#utility.yul\":11160:11173   */\n      iszero\n        /* \"#utility.yul\":11153:11174   */\n      iszero\n        /* \"#utility.yul\":11142:11174   */\n      swap1\n      pop\n        /* \"#utility.yul\":11090:11180   */\n      swap2\n      swap1\n      pop\n      jump\t// out\n        /* \"#utility.yul\":11186:11302   */\n    tag_165:\n        /* \"#utility.yul\":11256:11277   */\n      tag_285\n        /* \"#utility.yul\":11271:11276   */\n      dup2\n        /* \"#utility.yul\":11256:11277   */\n      tag_164\n      jump\t// in\n    tag_285:\n        /* \"#utility.yul\":11249:11254   */\n      dup2\n        /* \"#utility.yul\":11246:11278   */\n      eq\n        /* \"#utility.yul\":11236:11296   */\n      tag_286\n      jumpi\n        /* \"#utility.yul\":11292:11293   */\n      0x00\n        /* \"#utility.yul\":11289:11290   */\n      dup1\n        /* \"#utility.yul\":11282:11294   */\n      revert\n        /* \"#utility.yul\":11236:11296   */\n    tag_286:\n        /* \"#utility.yul\":11186:11302   */\n      pop\n      jump\t// out\n        /* \"#utility.yul\":11308:11445   */\n    tag_166:\n        /* \"#utility.yul\":11362:11367   */\n      0x00\n        /* \"#utility.yul\":11393:11399   */\n      dup2\n        /* \"#utility.yul\":11387:11400   */\n      mload\n        /* \"#utility.yul\":11378:11400   */\n      swap1\n      pop\n        /* \"#utility.yul\":11409:11439   */\n      tag_288\n        /* \"#utility.yul\":11433:11438   */\n      dup2\n        /* \"#utility.yul\":11409:11439   */\n      tag_165\n      jump\t// in\n    tag_288:\n        /* \"#utility.yul\":11308:11445   */\n      swap3\n      swap2\n      pop\n      pop\n      jump\t// out\n        /* \"#utility.yul\":11451:11796   */\n    tag_91:\n        /* \"#utility.yul\":11518:11524   */\n      0x00\n        /* \"#utility.yul\":11567:11569   */\n      0x20\n        /* \"#utility.yul\":11555:11564   */\n      dup3\n        /* \"#utility.yul\":11546:11553   */\n      dup5\n        /* \"#utility.yul\":11542:11565   */\n      sub\n        /* \"#utility.yul\":11538:11570   */\n      slt\n        /* \"#utility.yul\":11535:11654   */\n      iszero\n      tag_290\n      jumpi\n        /* \"#utility.yul\":11573:11652   */\n      tag_291\n      tag_143\n      jump\t// in\n    tag_291:\n        /* \"#utility.yul\":11535:11654   */\n    tag_290:\n        /* \"#utility.yul\":11693:11694   */\n      0x00\n        /* \"#utility.yul\":11718:11779   */\n      tag_292\n        /* \"#utility.yul\":11771:11778   */\n      dup5\n        /* \"#utility.yul\":11762:11768   */\n      dup3\n        /* \"#utility.yul\":11751:11760   */\n      dup6\n        /* \"#utility.yul\":11747:11769   */\n      add\n        /* \"#utility.yul\":11718:11779   */\n      tag_166\n      jump\t// in\n    tag_292:\n        /* \"#utility.yul\":11708:11779   */\n      swap2\n      pop\n        /* \"#utility.yul\":11664:11789   */\n      pop\n        /* \"#utility.yul\":11451:11796   */\n      swap3\n      swap2\n      pop\n      pop\n      jump\t// out\n        /* \"#utility.yul\":11802:12134   */\n    tag_93:\n        /* \"#utility.yul\":11923:11927   */\n      0x00\n        /* \"#utility.yul\":11961:11963   */\n      0x40\n        /* \"#utility.yul\":11950:11959   */\n      dup3\n        /* \"#utility.yul\":11946:11964   */\n      add\n        /* \"#utility.yul\":11938:11964   */\n      swap1\n      pop\n        /* \"#utility.yul\":11974:12045   */\n      tag_294\n        /* \"#utility.yul\":12042:12043   */\n      0x00\n        /* \"#utility.yul\":12031:12040   */\n      dup4\n        /* \"#utility.yul\":12027:12044   */\n      add\n        /* \"#utility.yul\":12018:12024   */\n      dup6\n        /* \"#utility.yul\":11974:12045   */\n      tag_139\n      jump\t// in\n    tag_294:\n        /* \"#utility.yul\":12055:12127   */\n      tag_295\n        /* \"#utility.yul\":12123:12125   */\n      0x20\n        /* \"#utility.yul\":12112:12121   */\n      dup4\n        /* \"#utility.yul\":12108:12126   */\n      add\n        /* \"#utility.yul\":12099:12105   */\n      dup5\n        /* \"#utility.yul\":12055:12127   */\n      tag_141\n      jump\t// in\n    tag_295:\n        /* \"#utility.yul\":11802:12134   */\n      swap4\n      swap3\n      pop\n      pop\n      pop\n      jump\t// out\n        /* \"#utility.yul\":12140:12299   */\n    tag_167:\n        /* \"#utility.yul\":12280:12291   */\n      0x49434f206973206f6e0000000000000000000000000000000000000000000000\n        /* \"#utility.yul\":12276:12277   */\n      0x00\n        /* \"#utility.yul\":12268:12274   */\n      dup3\n        /* \"#utility.yul\":12264:12278   */\n      add\n        /* \"#utility.yul\":12257:12292   */\n      mstore\n        /* \"#utility.yul\":12140:12299   */\n      pop\n      jump\t// out\n        /* \"#utility.yul\":12305:12670   */\n    tag_168:\n        /* \"#utility.yul\":12447:12450   */\n      0x00\n        /* \"#utility.yul\":12468:12534   */\n      tag_298\n        /* \"#utility.yul\":12532:12533   */\n      0x09\n        /* \"#utility.yul\":12527:12530   */\n      dup4\n        /* \"#utility.yul\":12468:12534   */\n      tag_149\n      jump\t// in\n    tag_298:\n        /* \"#utility.yul\":12461:12534   */\n      swap2\n      pop\n        /* \"#utility.yul\":12543:12636   */\n      tag_299\n        /* \"#utility.yul\":12632:12635   */\n      dup3\n        /* \"#utility.yul\":12543:12636   */\n      tag_167\n      jump\t// in\n    tag_299:\n        /* \"#utility.yul\":12661:12663   */\n      0x20\n        /* \"#utility.yul\":12656:12659   */\n      dup3\n        /* \"#utility.yul\":12652:12664   */\n      add\n        /* \"#utility.yul\":12645:12664   */\n      swap1\n      pop\n        /* \"#utility.yul\":12305:12670   */\n      swap2\n      swap1\n      pop\n      jump\t// out\n        /* \"#utility.yul\":12676:13095   */\n    tag_97:\n        /* \"#utility.yul\":12842:12846   */\n      0x00\n        /* \"#utility.yul\":12880:12882   */\n      0x20\n        /* \"#utility.yul\":12869:12878   */\n      dup3\n        /* \"#utility.yul\":12865:12883   */\n      add\n        /* \"#utility.yul\":12857:12883   */\n      swap1\n      pop\n        /* \"#utility.yul\":12929:12938   */\n      dup2\n        /* \"#utility.yul\":12923:12927   */\n      dup2\n        /* \"#utility.yul\":12919:12939   */\n      sub\n        /* \"#utility.yul\":12915:12916   */\n      0x00\n        /* \"#utility.yul\":12904:12913   */\n      dup4\n        /* \"#utility.yul\":12900:12917   */\n      add\n        /* \"#utility.yul\":12893:12940   */\n      mstore\n        /* \"#utility.yul\":12957:13088   */\n      tag_301\n        /* \"#utility.yul\":13083:13087   */\n      dup2\n        /* \"#utility.yul\":12957:13088   */\n      tag_168\n      jump\t// in\n    tag_301:\n        /* \"#utility.yul\":12949:13088   */\n      swap1\n      pop\n        /* \"#utility.yul\":12676:13095   */\n      swap2\n      swap1\n      pop\n      jump\t// out\n        /* \"#utility.yul\":13101:13330   */\n    tag_169:\n        /* \"#utility.yul\":13241:13275   */\n      0x5361666545524332303a204552433230206f7065726174696f6e20646964206e\n        /* \"#utility.yul\":13237:13238   */\n      0x00\n        /* \"#utility.yul\":13229:13235   */\n      dup3\n        /* \"#utility.yul\":13225:13239   */\n      add\n        /* \"#utility.yul\":13218:13276   */\n      mstore\n        /* \"#utility.yul\":13310:13322   */\n      0x6f74207375636365656400000000000000000000000000000000000000000000\n        /* \"#utility.yul\":13305:13307   */\n      0x20\n        /* \"#utility.yul\":13297:13303   */\n      dup3\n        /* \"#utility.yul\":13293:13308   */\n      add\n        /* \"#utility.yul\":13286:13323   */\n      mstore\n        /* \"#utility.yul\":13101:13330   */\n      pop\n      jump\t// out\n        /* \"#utility.yul\":13336:13702   */\n    tag_170:\n        /* \"#utility.yul\":13478:13481   */\n      0x00\n        /* \"#utility.yul\":13499:13566   */\n      tag_304\n        /* \"#utility.yul\":13563:13565   */\n      0x2a\n        /* \"#utility.yul\":13558:13561   */\n      dup4\n        /* \"#utility.yul\":13499:13566   */\n      tag_149\n      jump\t// in\n    tag_304:\n        /* \"#utility.yul\":13492:13566   */\n      swap2\n      pop\n        /* \"#utility.yul\":13575:13668   */\n      tag_305\n        /* \"#utility.yul\":13664:13667   */\n      dup3\n        /* \"#utility.yul\":13575:13668   */\n      tag_169\n      jump\t// in\n    tag_305:\n        /* \"#utility.yul\":13693:13695   */\n      0x40\n        /* \"#utility.yul\":13688:13691   */\n      dup3\n        /* \"#utility.yul\":13684:13696   */\n      add\n        /* \"#utility.yul\":13677:13696   */\n      swap1\n      pop\n        /* \"#utility.yul\":13336:13702   */\n      swap2\n      swap1\n      pop\n      jump\t// out\n        /* \"#utility.yul\":13708:14127   */\n    tag_109:\n        /* \"#utility.yul\":13874:13878   */\n      0x00\n        /* \"#utility.yul\":13912:13914   */\n      0x20\n        /* \"#utility.yul\":13901:13910   */\n      dup3\n        /* \"#utility.yul\":13897:13915   */\n      add\n        /* \"#utility.yul\":13889:13915   */\n      swap1\n      pop\n        /* \"#utility.yul\":13961:13970   */\n      dup2\n        /* \"#utility.yul\":13955:13959   */\n      dup2\n        /* \"#utility.yul\":13951:13971   */\n      sub\n        /* \"#utility.yul\":13947:13948   */\n      0x00\n        /* \"#utility.yul\":13936:13945   */\n      dup4\n        /* \"#utility.yul\":13932:13949   */\n      add\n        /* \"#utility.yul\":13925:13972   */\n      mstore\n        /* \"#utility.yul\":13989:14120   */\n      tag_307\n        /* \"#utility.yul\":14115:14119   */\n      dup2\n        /* \"#utility.yul\":13989:14120   */\n      tag_170\n      jump\t// in\n    tag_307:\n        /* \"#utility.yul\":13981:14120   */\n      swap1\n      pop\n        /* \"#utility.yul\":13708:14127   */\n      swap2\n      swap1\n      pop\n      jump\t// out\n        /* \"#utility.yul\":14133:14358   */\n    tag_171:\n        /* \"#utility.yul\":14273:14307   */\n      0x416464726573733a20696e73756666696369656e742062616c616e636520666f\n        /* \"#utility.yul\":14269:14270   */\n      0x00\n        /* \"#utility.yul\":14261:14267   */\n      dup3\n        /* \"#utility.yul\":14257:14271   */\n      add\n        /* \"#utility.yul\":14250:14308   */\n      mstore\n        /* \"#utility.yul\":14342:14350   */\n      0x722063616c6c0000000000000000000000000000000000000000000000000000\n        /* \"#utility.yul\":14337:14339   */\n      0x20\n        /* \"#utility.yul\":14329:14335   */\n      dup3\n        /* \"#utility.yul\":14325:14340   */\n      add\n        /* \"#utility.yul\":14318:14351   */\n      mstore\n        /* \"#utility.yul\":14133:14358   */\n      pop\n      jump\t// out\n        /* \"#utility.yul\":14364:14730   */\n    tag_172:\n        /* \"#utility.yul\":14506:14509   */\n      0x00\n        /* \"#utility.yul\":14527:14594   */\n      tag_310\n        /* \"#utility.yul\":14591:14593   */\n      0x26\n        /* \"#utility.yul\":14586:14589   */\n      dup4\n        /* \"#utility.yul\":14527:14594   */\n      tag_149\n      jump\t// in\n    tag_310:\n        /* \"#utility.yul\":14520:14594   */\n      swap2\n      pop\n        /* \"#utility.yul\":14603:14696   */\n      tag_311\n        /* \"#utility.yul\":14692:14695   */\n      dup3\n        /* \"#utility.yul\":14603:14696   */\n      tag_171\n      jump\t// in\n    tag_311:\n        /* \"#utility.yul\":14721:14723   */\n      0x40\n        /* \"#utility.yul\":14716:14719   */\n      dup3\n        /* \"#utility.yul\":14712:14724   */\n      add\n        /* \"#utility.yul\":14705:14724   */\n      swap1\n      pop\n        /* \"#utility.yul\":14364:14730   */\n      swap2\n      swap1\n      pop\n      jump\t// out\n        /* \"#utility.yul\":14736:15155   */\n    tag_116:\n        /* \"#utility.yul\":14902:14906   */\n      0x00\n        /* \"#utility.yul\":14940:14942   */\n      0x20\n        /* \"#utility.yul\":14929:14938   */\n      dup3\n        /* \"#utility.yul\":14925:14943   */\n      add\n        /* \"#utility.yul\":14917:14943   */\n      swap1\n      pop\n        /* \"#utility.yul\":14989:14998   */\n      dup2\n        /* \"#utility.yul\":14983:14987   */\n      dup2\n        /* \"#utility.yul\":14979:14999   */\n      sub\n        /* \"#utility.yul\":14975:14976   */\n      0x00\n        /* \"#utility.yul\":14964:14973   */\n      dup4\n        /* \"#utility.yul\":14960:14977   */\n      add\n        /* \"#utility.yul\":14953:15000   */\n      mstore\n        /* \"#utility.yul\":15017:15148   */\n      tag_313\n        /* \"#utility.yul\":15143:15147   */\n      dup2\n        /* \"#utility.yul\":15017:15148   */\n      tag_172\n      jump\t// in\n    tag_313:\n        /* \"#utility.yul\":15009:15148   */\n      swap1\n      pop\n        /* \"#utility.yul\":14736:15155   */\n      swap2\n      swap1\n      pop\n      jump\t// out\n        /* \"#utility.yul\":15161:15340   */\n    tag_173:\n        /* \"#utility.yul\":15301:15332   */\n      0x416464726573733a2063616c6c20746f206e6f6e2d636f6e7472616374000000\n        /* \"#utility.yul\":15297:15298   */\n      0x00\n        /* \"#utility.yul\":15289:15295   */\n      dup3\n        /* \"#utility.yul\":15285:15299   */\n      add\n        /* \"#utility.yul\":15278:15333   */\n      mstore\n        /* \"#utility.yul\":15161:15340   */\n      pop\n      jump\t// out\n        /* \"#utility.yul\":15346:15712   */\n    tag_174:\n        /* \"#utility.yul\":15488:15491   */\n      0x00\n        /* \"#utility.yul\":15509:15576   */\n      tag_316\n        /* \"#utility.yul\":15573:15575   */\n      0x1d\n        /* \"#utility.yul\":15568:15571   */\n      dup4\n        /* \"#utility.yul\":15509:15576   */\n      tag_149\n      jump\t// in\n    tag_316:\n        /* \"#utility.yul\":15502:15576   */\n      swap2\n      pop\n        /* \"#utility.yul\":15585:15678   */\n      tag_317\n        /* \"#utility.yul\":15674:15677   */\n      dup3\n        /* \"#utility.yul\":15585:15678   */\n      tag_173\n      jump\t// in\n    tag_317:\n        /* \"#utility.yul\":15703:15705   */\n      0x20\n        /* \"#utility.yul\":15698:15701   */\n      dup3\n        /* \"#utility.yul\":15694:15706   */\n      add\n        /* \"#utility.yul\":15687:15706   */\n      swap1\n      pop\n        /* \"#utility.yul\":15346:15712   */\n      swap2\n      swap1\n      pop\n      jump\t// out\n        /* \"#utility.yul\":15718:16137   */\n    tag_121:\n        /* \"#utility.yul\":15884:15888   */\n      0x00\n        /* \"#utility.yul\":15922:15924   */\n      0x20\n        /* \"#utility.yul\":15911:15920   */\n      dup3\n        /* \"#utility.yul\":15907:15925   */\n      add\n        /* \"#utility.yul\":15899:15925   */\n      swap1\n      pop\n        /* \"#utility.yul\":15971:15980   */\n      dup2\n        /* \"#utility.yul\":15965:15969   */\n      dup2\n        /* \"#utility.yul\":15961:15981   */\n      sub\n        /* \"#utility.yul\":15957:15958   */\n      0x00\n        /* \"#utility.yul\":15946:15955   */\n      dup4\n        /* \"#utility.yul\":15942:15959   */\n      add\n        /* \"#utility.yul\":15935:15982   */\n      mstore\n        /* \"#utility.yul\":15999:16130   */\n      tag_319\n        /* \"#utility.yul\":16125:16129   */\n      dup2\n        /* \"#utility.yul\":15999:16130   */\n      tag_174\n      jump\t// in\n    tag_319:\n        /* \"#utility.yul\":15991:16130   */\n      swap1\n      pop\n        /* \"#utility.yul\":15718:16137   */\n      swap2\n      swap1\n      pop\n      jump\t// out\n        /* \"#utility.yul\":16143:16241   */\n    tag_175:\n        /* \"#utility.yul\":16194:16200   */\n      0x00\n        /* \"#utility.yul\":16228:16233   */\n      dup2\n        /* \"#utility.yul\":16222:16234   */\n      mload\n        /* \"#utility.yul\":16212:16234   */\n      swap1\n      pop\n        /* \"#utility.yul\":16143:16241   */\n      swap2\n      swap1\n      pop\n      jump\t// out\n        /* \"#utility.yul\":16247:16394   */\n    tag_176:\n        /* \"#utility.yul\":16348:16359   */\n      0x00\n        /* \"#utility.yul\":16385:16388   */\n      dup2\n        /* \"#utility.yul\":16370:16388   */\n      swap1\n      pop\n        /* \"#utility.yul\":16247:16394   */\n      swap3\n      swap2\n      pop\n      pop\n      jump\t// out\n        /* \"#utility.yul\":16400:16646   */\n    tag_177:\n        /* \"#utility.yul\":16481:16482   */\n      0x00\n        /* \"#utility.yul\":16491:16604   */\n    tag_323:\n        /* \"#utility.yul\":16505:16511   */\n      dup4\n        /* \"#utility.yul\":16502:16503   */\n      dup2\n        /* \"#utility.yul\":16499:16512   */\n      lt\n        /* \"#utility.yul\":16491:16604   */\n      iszero\n      tag_325\n      jumpi\n        /* \"#utility.yul\":16590:16591   */\n      dup1\n        /* \"#utility.yul\":16585:16588   */\n      dup3\n        /* \"#utility.yul\":16581:16592   */\n      add\n        /* \"#utility.yul\":16575:16593   */\n      mload\n        /* \"#utility.yul\":16571:16572   */\n      dup2\n        /* \"#utility.yul\":16566:16569   */\n      dup5\n        /* \"#utility.yul\":16562:16573   */\n      add\n        /* \"#utility.yul\":16555:16594   */\n      mstore\n        /* \"#utility.yul\":16527:16529   */\n      0x20\n        /* \"#utility.yul\":16524:16525   */\n      dup2\n        /* \"#utility.yul\":16520:16530   */\n      add\n        /* \"#utility.yul\":16515:16530   */\n      swap1\n      pop\n        /* \"#utility.yul\":16491:16604   */\n      jump(tag_323)\n    tag_325:\n        /* \"#utility.yul\":16638:16639   */\n      0x00\n        /* \"#utility.yul\":16629:16635   */\n      dup5\n        /* \"#utility.yul\":16624:16627   */\n      dup5\n        /* \"#utility.yul\":16620:16636   */\n      add\n        /* \"#utility.yul\":16613:16640   */\n      mstore\n        /* \"#utility.yul\":16462:16646   */\n      pop\n        /* \"#utility.yul\":16400:16646   */\n      pop\n      pop\n      pop\n      jump\t// out\n        /* \"#utility.yul\":16652:17038   */\n    tag_178:\n        /* \"#utility.yul\":16756:16759   */\n      0x00\n        /* \"#utility.yul\":16784:16822   */\n      tag_327\n        /* \"#utility.yul\":16816:16821   */\n      dup3\n        /* \"#utility.yul\":16784:16822   */\n      tag_175\n      jump\t// in\n    tag_327:\n        /* \"#utility.yul\":16838:16926   */\n      tag_328\n        /* \"#utility.yul\":16919:16925   */\n      dup2\n        /* \"#utility.yul\":16914:16917   */\n      dup6\n        /* \"#utility.yul\":16838:16926   */\n      tag_176\n      jump\t// in\n    tag_328:\n        /* \"#utility.yul\":16831:16926   */\n      swap4\n      pop\n        /* \"#utility.yul\":16935:17000   */\n      tag_329\n        /* \"#utility.yul\":16993:16999   */\n      dup2\n        /* \"#utility.yul\":16988:16991   */\n      dup6\n        /* \"#utility.yul\":16981:16985   */\n      0x20\n        /* \"#utility.yul\":16974:16979   */\n      dup7\n        /* \"#utility.yul\":16970:16986   */\n      add\n        /* \"#utility.yul\":16935:17000   */\n      tag_177\n      jump\t// in\n    tag_329:\n        /* \"#utility.yul\":17025:17031   */\n      dup1\n        /* \"#utility.yul\":17020:17023   */\n      dup5\n        /* \"#utility.yul\":17016:17032   */\n      add\n        /* \"#utility.yul\":17009:17032   */\n      swap2\n      pop\n        /* \"#utility.yul\":16760:17038   */\n      pop\n        /* \"#utility.yul\":16652:17038   */\n      swap3\n      swap2\n      pop\n      pop\n      jump\t// out\n        /* \"#utility.yul\":17044:17315   */\n    tag_123:\n        /* \"#utility.yul\":17174:17177   */\n      0x00\n        /* \"#utility.yul\":17196:17289   */\n      tag_331\n        /* \"#utility.yul\":17285:17288   */\n      dup3\n        /* \"#utility.yul\":17276:17282   */\n      dup5\n        /* \"#utility.yul\":17196:17289   */\n      tag_178\n      jump\t// in\n    tag_331:\n        /* \"#utility.yul\":17189:17289   */\n      swap2\n      pop\n        /* \"#utility.yul\":17306:17309   */\n      dup2\n        /* \"#utility.yul\":17299:17309   */\n      swap1\n      pop\n        /* \"#utility.yul\":17044:17315   */\n      swap3\n      swap2\n      pop\n      pop\n      jump\t// out\n        /* \"#utility.yul\":17321:17420   */\n    tag_179:\n        /* \"#utility.yul\":17373:17379   */\n      0x00\n        /* \"#utility.yul\":17407:17412   */\n      dup2\n        /* \"#utility.yul\":17401:17413   */\n      mload\n        /* \"#utility.yul\":17391:17413   */\n      swap1\n      pop\n        /* \"#utility.yul\":17321:17420   */\n      swap2\n      swap1\n      pop\n      jump\t// out\n        /* \"#utility.yul\":17426:17528   */\n    tag_180:\n        /* \"#utility.yul\":17467:17473   */\n      0x00\n        /* \"#utility.yul\":17518:17520   */\n      0x1f\n        /* \"#utility.yul\":17514:17521   */\n      not\n        /* \"#utility.yul\":17509:17511   */\n      0x1f\n        /* \"#utility.yul\":17502:17507   */\n      dup4\n        /* \"#utility.yul\":17498:17512   */\n      add\n        /* \"#utility.yul\":17494:17522   */\n      and\n        /* \"#utility.yul\":17484:17522   */\n      swap1\n      pop\n        /* \"#utility.yul\":17426:17528   */\n      swap2\n      swap1\n      pop\n      jump\t// out\n        /* \"#utility.yul\":17534:17911   */\n    tag_181:\n        /* \"#utility.yul\":17622:17625   */\n      0x00\n        /* \"#utility.yul\":17650:17689   */\n      tag_335\n        /* \"#utility.yul\":17683:17688   */\n      dup3\n        /* \"#utility.yul\":17650:17689   */\n      tag_179\n      jump\t// in\n    tag_335:\n        /* \"#utility.yul\":17705:17776   */\n      tag_336\n        /* \"#utility.yul\":17769:17775   */\n      dup2\n        /* \"#utility.yul\":17764:17767   */\n      dup6\n        /* \"#utility.yul\":17705:17776   */\n      tag_149\n      jump\t// in\n    tag_336:\n        /* \"#utility.yul\":17698:17776   */\n      swap4\n      pop\n        /* \"#utility.yul\":17785:17850   */\n      tag_337\n        /* \"#utility.yul\":17843:17849   */\n      dup2\n        /* \"#utility.yul\":17838:17841   */\n      dup6\n        /* \"#utility.yul\":17831:17835   */\n      0x20\n        /* \"#utility.yul\":17824:17829   */\n      dup7\n        /* \"#utility.yul\":17820:17836   */\n      add\n        /* \"#utility.yul\":17785:17850   */\n      tag_177\n      jump\t// in\n    tag_337:\n        /* \"#utility.yul\":17875:17904   */\n      tag_338\n        /* \"#utility.yul\":17897:17903   */\n      dup2\n        /* \"#utility.yul\":17875:17904   */\n      tag_180\n      jump\t// in\n    tag_338:\n        /* \"#utility.yul\":17870:17873   */\n      dup5\n        /* \"#utility.yul\":17866:17905   */\n      add\n        /* \"#utility.yul\":17859:17905   */\n      swap2\n      pop\n        /* \"#utility.yul\":17626:17911   */\n      pop\n        /* \"#utility.yul\":17534:17911   */\n      swap3\n      swap2\n      pop\n      pop\n      jump\t// out\n        /* \"#utility.yul\":17917:18230   */\n    tag_136:\n        /* \"#utility.yul\":18030:18034   */\n      0x00\n        /* \"#utility.yul\":18068:18070   */\n      0x20\n        /* \"#utility.yul\":18057:18066   */\n      dup3\n        /* \"#utility.yul\":18053:18071   */\n      add\n        /* \"#utility.yul\":18045:18071   */\n      swap1\n      pop\n        /* \"#utility.yul\":18117:18126   */\n      dup2\n        /* \"#utility.yul\":18111:18115   */\n      dup2\n        /* \"#utility.yul\":18107:18127   */\n      sub\n        /* \"#utility.yul\":18103:18104   */\n      0x00\n        /* \"#utility.yul\":18092:18101   */\n      dup4\n        /* \"#utility.yul\":18088:18105   */\n      add\n        /* \"#utility.yul\":18081:18128   */\n      mstore\n        /* \"#utility.yul\":18145:18223   */\n      tag_340\n        /* \"#utility.yul\":18218:18222   */\n      dup2\n        /* \"#utility.yul\":18209:18215   */\n      dup5\n        /* \"#utility.yul\":18145:18223   */\n      tag_181\n      jump\t// in\n    tag_340:\n        /* \"#utility.yul\":18137:18223   */\n      swap1\n      pop\n        /* \"#utility.yul\":17917:18230   */\n      swap3\n      swap2\n      pop\n      pop\n      jump\t// out\n\n    auxdata: 0xa26469706673582212203f68867c58f506abb6bf1f94d6fc1f1f79b1ba614e2f0fb03e245b6c7599c8cd64736f6c63430008110033\n}\n",
				"bytecode": {
					"linkReferences": {},
					"object": "60a06040523480156200001157600080fd5b50604051620018783803806200187883398181016040528101906200003791906200019a565b600160008190555033600360006101000a81548173ffffffffffffffffffffffffffffffffffffffff021916908373ffffffffffffffffffffffffffffffffffffffff160217905550670de0b6b3a76400008362000096919062000225565b6002819055508173ffffffffffffffffffffffffffffffffffffffff1660808173ffffffffffffffffffffffffffffffffffffffff1681525050670de0b6b3a764000081620000e6919062000225565b60048190555050505062000270565b600080fd5b6000819050919050565b6200010f81620000fa565b81146200011b57600080fd5b50565b6000815190506200012f8162000104565b92915050565b600073ffffffffffffffffffffffffffffffffffffffff82169050919050565b6000620001628262000135565b9050919050565b620001748162000155565b81146200018057600080fd5b50565b600081519050620001948162000169565b92915050565b600080600060608486031215620001b657620001b5620000f5565b5b6000620001c6868287016200011e565b9350506020620001d98682870162000183565b9250506040620001ec868287016200011e565b9150509250925092565b7f4e487b7100000000000000000000000000000000000000000000000000000000600052601160045260246000fd5b60006200023282620000fa565b91506200023f83620000fa565b92508282026200024f81620000fa565b91508282048414831517620002695762000268620001f6565b5b5092915050565b6080516115e562000293600039600081816104c101526105d101526115e56000f3fe608060405234801561001057600080fd5b50600436106100935760003560e01c8063902dc8de11610066578063902dc8de146100fa578063c2db2c4214610116578063c54e44eb14610132578063d7997f7e14610150578063dc55920f1461015a57610093565b80636385f2fb1461009857806376d812ea146100b65780637ff9b596146100c0578063890e63e7146100de575b600080fd5b6100a0610164565b6040516100ad9190610cbc565b60405180910390f35b6100be61018a565b005b6100c8610236565b6040516100d59190610cf0565b60405180910390f35b6100f860048036038101906100f39190610d3c565b61023c565b005b610114600480360381019061010f9190610da8565b610307565b005b610130600480360381019061012b9190610dd5565b6103c0565b005b61013a6105cf565b6040516101479190610cbc565b60405180910390f35b6101586105f3565b005b6101626108ae565b005b600160009054906101000a900473ffffffffffffffffffffffffffffffffffffffff1681565b600360009054906101000a900473ffffffffffffffffffffffffffffffffffffffff1673ffffffffffffffffffffffffffffffffffffffff163373ffffffffffffffffffffffffffffffffffffffff16146101e457600080fd5b6000600360146101000a81548160ff0219169083151502179055507f71002079ab3de7feb03ee30c84baf1d2350d4ffe16709d3dacb5e1037a0fe1cc60405161022c90610e5f565b60405180910390a1565b60025481565b600360009054906101000a900473ffffffffffffffffffffffffffffffffffffffff1673ffffffffffffffffffffffffffffffffffffffff163373ffffffffffffffffffffffffffffffffffffffff161461029657600080fd5b670de0b6b3a7640000826102aa9190610eae565b600281905550670de0b6b3a7640000816102c49190610eae565b6004819055507f314bf1ccc32c608a6175053b0da1933b3a745b3f799011003a4c39aab0c518a382826040516102fb929190610ef0565b60405180910390a15050565b600360009054906101000a900473ffffffffffffffffffffffffffffffffffffffff1673ffffffffffffffffffffffffffffffffffffffff163373ffffffffffffffffffffffffffffffffffffffff161461036157600080fd5b80600160006101000a81548173ffffffffffffffffffffffffffffffffffffffff021916908373ffffffffffffffffffffffffffffffffffffffff1602179055506001600360156101000a81548160ff02191690831515021790555050565b600260005403610405576040517f08c379a00000000000000000000000000000000000000000000000000000000081526004016103fc90610f65565b60405180910390fd5b600260008190555060011515600360149054906101000a900460ff16151514610463576040517f08c379a000000000000000000000000000000000000000000000000000000000815260040161045a90610fd1565b60405180910390fd5b6000816005546104739190610ff1565b905060045481106104b9576040517f08c379a00000000000000000000000000000000000000000000000000000000081526004016104b090611071565b60405180910390fd5b6105063330847f000000000000000000000000000000000000000000000000000000000000000073ffffffffffffffffffffffffffffffffffffffff16610975909392919063ffffffff16565b81600660003373ffffffffffffffffffffffffffffffffffffffff1673ffffffffffffffffffffffffffffffffffffffff16815260200190815260200160002060008282546105559190610ff1565b92505081905550816005600082825461056e9190610ff1565b925050819055503373ffffffffffffffffffffffffffffffffffffffff167fda4cadf0d4383cb43c8249e3cc678f6690bdbaa01421c99fd9b14edac62cde80836040516105bb9190610cf0565b60405180910390a250600160008190555050565b7f000000000000000000000000000000000000000000000000000000000000000081565b600260005403610638576040517f08c379a000000000000000000000000000000000000000000000000000000000815260040161062f90610f65565b60405180910390fd5b600260008190555060001515600360149054906101000a900460ff16151514610696576040517f08c379a000000000000000000000000000000000000000000000000000000000815260040161068d90611103565b60405180910390fd5b6000600660003373ffffffffffffffffffffffffffffffffffffffff1673ffffffffffffffffffffffffffffffffffffffff1681526020019081526020016000205411610718576040517f08c379a000000000000000000000000000000000000000000000000000000000815260040161070f9061116f565b60405180910390fd5b6000600660003373ffffffffffffffffffffffffffffffffffffffff1673ffffffffffffffffffffffffffffffffffffffff1681526020019081526020016000205490506000670de0b6b3a76400006002548361077591906111be565b61077f9190610eae565b90506000600660003373ffffffffffffffffffffffffffffffffffffffff1673ffffffffffffffffffffffffffffffffffffffff16815260200190815260200160002081905550600160009054906101000a900473ffffffffffffffffffffffffffffffffffffffff1673ffffffffffffffffffffffffffffffffffffffff166323b872dd3033846040518463ffffffff1660e01b8152600401610825939291906111ef565b6020604051808303816000875af1158015610844573d6000803e3d6000fd5b505050506040513d601f19601f82011682018060405250810190610868919061125e565b507f1698755f2f63264c31ca84d930df9dd8ca3ac92d33a0dd64d10154f95e4203ef338260405161089a92919061128b565b60405180910390a150506001600081905550565b600360009054906101000a900473ffffffffffffffffffffffffffffffffffffffff1673ffffffffffffffffffffffffffffffffffffffff163373ffffffffffffffffffffffffffffffffffffffff161461090857600080fd5b6001600360146101000a81548160ff0219169083151502179055506000600360156101000a81548160ff0219169083151502179055507f71002079ab3de7feb03ee30c84baf1d2350d4ffe16709d3dacb5e1037a0fe1cc60405161096b90611300565b60405180910390a1565b6109f8846323b872dd60e01b858585604051602401610996939291906111ef565b604051602081830303815290604052907bffffffffffffffffffffffffffffffffffffffffffffffffffffffff19166020820180517bffffffffffffffffffffffffffffffffffffffffffffffffffffffff83818316178352505050506109fe565b50505050565b6000610a60826040518060400160405280602081526020017f5361666545524332303a206c6f772d6c6576656c2063616c6c206661696c65648152508573ffffffffffffffffffffffffffffffffffffffff16610ac59092919063ffffffff16565b9050600081511115610ac05780806020019051810190610a80919061125e565b610abf576040517f08c379a0000000000000000000000000000000000000000000000000000000008152600401610ab690611392565b60405180910390fd5b5b505050565b6060610ad48484600085610add565b90509392505050565b606082471015610b22576040517f08c379a0000000000000000000000000000000000000000000000000000000008152600401610b1990611424565b60405180910390fd5b610b2b85610bf1565b610b6a576040517f08c379a0000000000000000000000000000000000000000000000000000000008152600401610b6190611490565b60405180910390fd5b6000808673ffffffffffffffffffffffffffffffffffffffff168587604051610b939190611521565b60006040518083038185875af1925050503d8060008114610bd0576040519150601f19603f3d011682016040523d82523d6000602084013e610bd5565b606091505b5091509150610be5828286610c14565b92505050949350505050565b6000808273ffffffffffffffffffffffffffffffffffffffff163b119050919050565b60608315610c2457829050610c74565b600083511115610c375782518084602001fd5b816040517f08c379a0000000000000000000000000000000000000000000000000000000008152600401610c6b919061158d565b60405180910390fd5b9392505050565b600073ffffffffffffffffffffffffffffffffffffffff82169050919050565b6000610ca682610c7b565b9050919050565b610cb681610c9b565b82525050565b6000602082019050610cd16000830184610cad565b92915050565b6000819050919050565b610cea81610cd7565b82525050565b6000602082019050610d056000830184610ce1565b92915050565b600080fd5b610d1981610cd7565b8114610d2457600080fd5b50565b600081359050610d3681610d10565b92915050565b60008060408385031215610d5357610d52610d0b565b5b6000610d6185828601610d27565b9250506020610d7285828601610d27565b9150509250929050565b610d8581610c9b565b8114610d9057600080fd5b50565b600081359050610da281610d7c565b92915050565b600060208284031215610dbe57610dbd610d0b565b5b6000610dcc84828501610d93565b91505092915050565b600060208284031215610deb57610dea610d0b565b5b6000610df984828501610d27565b91505092915050565b600082825260208201905092915050565b7f49434f2069732070617573656400000000000000000000000000000000000000600082015250565b6000610e49600d83610e02565b9150610e5482610e13565b602082019050919050565b60006020820190508181036000830152610e7881610e3c565b9050919050565b7f4e487b7100000000000000000000000000000000000000000000000000000000600052601160045260246000fd5b6000610eb982610cd7565b9150610ec483610cd7565b9250828202610ed281610cd7565b91508282048414831517610ee957610ee8610e7f565b5b5092915050565b6000604082019050610f056000830185610ce1565b610f126020830184610ce1565b9392505050565b7f5265656e7472616e637947756172643a207265656e7472616e742063616c6c00600082015250565b6000610f4f601f83610e02565b9150610f5a82610f19565b602082019050919050565b60006020820190508181036000830152610f7e81610f42565b9050919050565b7f49444f20686173206e6f74207374617274656400000000000000000000000000600082015250565b6000610fbb601383610e02565b9150610fc682610f85565b602082019050919050565b60006020820190508181036000830152610fea81610fae565b9050919050565b6000610ffc82610cd7565b915061100783610cd7565b925082820190508082111561101f5761101e610e7f565b5b92915050565b7f416c6c20746f6b656e7320686173206265656e20736f6c640000000000000000600082015250565b600061105b601883610e02565b915061106682611025565b602082019050919050565b6000602082019050818103600083015261108a8161104e565b9050919050565b7f49444f2048617320206e6f7420656e6465642c20636c61696d20756e6176616960008201527f6c61626c65000000000000000000000000000000000000000000000000000000602082015250565b60006110ed602583610e02565b91506110f882611091565b604082019050919050565b6000602082019050818103600083015261111c816110e0565b9050919050565b7f796f7520646964206e6f74207061727469636970617465000000000000000000600082015250565b6000611159601783610e02565b915061116482611123565b602082019050919050565b600060208201905081810360008301526111888161114c565b9050919050565b7f4e487b7100000000000000000000000000000000000000000000000000000000600052601260045260246000fd5b60006111c982610cd7565b91506111d483610cd7565b9250826111e4576111e361118f565b5b828204905092915050565b60006060820190506112046000830186610cad565b6112116020830185610cad565b61121e6040830184610ce1565b949350505050565b60008115159050919050565b61123b81611226565b811461124657600080fd5b50565b60008151905061125881611232565b92915050565b60006020828403121561127457611273610d0b565b5b600061128284828501611249565b91505092915050565b60006040820190506112a06000830185610cad565b6112ad6020830184610ce1565b9392505050565b7f49434f206973206f6e0000000000000000000000000000000000000000000000600082015250565b60006112ea600983610e02565b91506112f5826112b4565b602082019050919050565b60006020820190508181036000830152611319816112dd565b9050919050565b7f5361666545524332303a204552433230206f7065726174696f6e20646964206e60008201527f6f74207375636365656400000000000000000000000000000000000000000000602082015250565b600061137c602a83610e02565b915061138782611320565b604082019050919050565b600060208201905081810360008301526113ab8161136f565b9050919050565b7f416464726573733a20696e73756666696369656e742062616c616e636520666f60008201527f722063616c6c0000000000000000000000000000000000000000000000000000602082015250565b600061140e602683610e02565b9150611419826113b2565b604082019050919050565b6000602082019050818103600083015261143d81611401565b9050919050565b7f416464726573733a2063616c6c20746f206e6f6e2d636f6e7472616374000000600082015250565b600061147a601d83610e02565b915061148582611444565b602082019050919050565b600060208201905081810360008301526114a98161146d565b9050919050565b600081519050919050565b600081905092915050565b60005b838110156114e45780820151818401526020810190506114c9565b60008484015250505050565b60006114fb826114b0565b61150581856114bb565b93506115158185602086016114c6565b80840191505092915050565b600061152d82846114f0565b915081905092915050565b600081519050919050565b6000601f19601f8301169050919050565b600061155f82611538565b6115698185610e02565b93506115798185602086016114c6565b61158281611543565b840191505092915050565b600060208201905081810360008301526115a78184611554565b90509291505056fea26469706673582212203f68867c58f506abb6bf1f94d6fc1f1f79b1ba614e2f0fb03e245b6c7599c8cd64736f6c63430008110033",
					"opcodes": "PUSH1 0xA0 PUSH1 0x40 MSTORE CALLVALUE DUP1 ISZERO PUSH3 0x11 JUMPI PUSH1 0x0 DUP1 REVERT JUMPDEST POP PUSH1 0x40 MLOAD PUSH3 0x1878 CODESIZE SUB DUP1 PUSH3 0x1878 DUP4 CODECOPY DUP2 DUP2 ADD PUSH1 0x40 MSTORE DUP2 ADD SWAP1 PUSH3 0x37 SWAP2 SWAP1 PUSH3 0x19A JUMP JUMPDEST PUSH1 0x1 PUSH1 0x0 DUP2 SWAP1 SSTORE POP CALLER PUSH1 0x3 PUSH1 0x0 PUSH2 0x100 EXP DUP2 SLOAD DUP2 PUSH20 0xFFFFFFFFFFFFFFFFFFFFFFFFFFFFFFFFFFFFFFFF MUL NOT AND SWAP1 DUP4 PUSH20 0xFFFFFFFFFFFFFFFFFFFFFFFFFFFFFFFFFFFFFFFF AND MUL OR SWAP1 SSTORE POP PUSH8 0xDE0B6B3A7640000 DUP4 PUSH3 0x96 SWAP2 SWAP1 PUSH3 0x225 JUMP JUMPDEST PUSH1 0x2 DUP2 SWAP1 SSTORE POP DUP2 PUSH20 0xFFFFFFFFFFFFFFFFFFFFFFFFFFFFFFFFFFFFFFFF AND PUSH1 0x80 DUP2 PUSH20 0xFFFFFFFFFFFFFFFFFFFFFFFFFFFFFFFFFFFFFFFF AND DUP2 MSTORE POP POP PUSH8 0xDE0B6B3A7640000 DUP2 PUSH3 0xE6 SWAP2 SWAP1 PUSH3 0x225 JUMP JUMPDEST PUSH1 0x4 DUP2 SWAP1 SSTORE POP POP POP POP PUSH3 0x270 JUMP JUMPDEST PUSH1 0x0 DUP1 REVERT JUMPDEST PUSH1 0x0 DUP2 SWAP1 POP SWAP2 SWAP1 POP JUMP JUMPDEST PUSH3 0x10F DUP2 PUSH3 0xFA JUMP JUMPDEST DUP2 EQ PUSH3 0x11B JUMPI PUSH1 0x0 DUP1 REVERT JUMPDEST POP JUMP JUMPDEST PUSH1 0x0 DUP2 MLOAD SWAP1 POP PUSH3 0x12F DUP2 PUSH3 0x104 JUMP JUMPDEST SWAP3 SWAP2 POP POP JUMP JUMPDEST PUSH1 0x0 PUSH20 0xFFFFFFFFFFFFFFFFFFFFFFFFFFFFFFFFFFFFFFFF DUP3 AND SWAP1 POP SWAP2 SWAP1 POP JUMP JUMPDEST PUSH1 0x0 PUSH3 0x162 DUP3 PUSH3 0x135 JUMP JUMPDEST SWAP1 POP SWAP2 SWAP1 POP JUMP JUMPDEST PUSH3 0x174 DUP2 PUSH3 0x155 JUMP JUMPDEST DUP2 EQ PUSH3 0x180 JUMPI PUSH1 0x0 DUP1 REVERT JUMPDEST POP JUMP JUMPDEST PUSH1 0x0 DUP2 MLOAD SWAP1 POP PUSH3 0x194 DUP2 PUSH3 0x169 JUMP JUMPDEST SWAP3 SWAP2 POP POP JUMP JUMPDEST PUSH1 0x0 DUP1 PUSH1 0x0 PUSH1 0x60 DUP5 DUP7 SUB SLT ISZERO PUSH3 0x1B6 JUMPI PUSH3 0x1B5 PUSH3 0xF5 JUMP JUMPDEST JUMPDEST PUSH1 0x0 PUSH3 0x1C6 DUP7 DUP3 DUP8 ADD PUSH3 0x11E JUMP JUMPDEST SWAP4 POP POP PUSH1 0x20 PUSH3 0x1D9 DUP7 DUP3 DUP8 ADD PUSH3 0x183 JUMP JUMPDEST SWAP3 POP POP PUSH1 0x40 PUSH3 0x1EC DUP7 DUP3 DUP8 ADD PUSH3 0x11E JUMP JUMPDEST SWAP2 POP POP SWAP3 POP SWAP3 POP SWAP3 JUMP JUMPDEST PUSH32 0x4E487B7100000000000000000000000000000000000000000000000000000000 PUSH1 0x0 MSTORE PUSH1 0x11 PUSH1 0x4 MSTORE PUSH1 0x24 PUSH1 0x0 REVERT JUMPDEST PUSH1 0x0 PUSH3 0x232 DUP3 PUSH3 0xFA JUMP JUMPDEST SWAP2 POP PUSH3 0x23F DUP4 PUSH3 0xFA JUMP JUMPDEST SWAP3 POP DUP3 DUP3 MUL PUSH3 0x24F DUP2 PUSH3 0xFA JUMP JUMPDEST SWAP2 POP DUP3 DUP3 DIV DUP5 EQ DUP4 ISZERO OR PUSH3 0x269 JUMPI PUSH3 0x268 PUSH3 0x1F6 JUMP JUMPDEST JUMPDEST POP SWAP3 SWAP2 POP POP JUMP JUMPDEST PUSH1 0x80 MLOAD PUSH2 0x15E5 PUSH3 0x293 PUSH1 0x0 CODECOPY PUSH1 0x0 DUP2 DUP2 PUSH2 0x4C1 ADD MSTORE PUSH2 0x5D1 ADD MSTORE PUSH2 0x15E5 PUSH1 0x0 RETURN INVALID PUSH1 0x80 PUSH1 0x40 MSTORE CALLVALUE DUP1 ISZERO PUSH2 0x10 JUMPI PUSH1 0x0 DUP1 REVERT JUMPDEST POP PUSH1 0x4 CALLDATASIZE LT PUSH2 0x93 JUMPI PUSH1 0x0 CALLDATALOAD PUSH1 0xE0 SHR DUP1 PUSH4 0x902DC8DE GT PUSH2 0x66 JUMPI DUP1 PUSH4 0x902DC8DE EQ PUSH2 0xFA JUMPI DUP1 PUSH4 0xC2DB2C42 EQ PUSH2 0x116 JUMPI DUP1 PUSH4 0xC54E44EB EQ PUSH2 0x132 JUMPI DUP1 PUSH4 0xD7997F7E EQ PUSH2 0x150 JUMPI DUP1 PUSH4 0xDC55920F EQ PUSH2 0x15A JUMPI PUSH2 0x93 JUMP JUMPDEST DUP1 PUSH4 0x6385F2FB EQ PUSH2 0x98 JUMPI DUP1 PUSH4 0x76D812EA EQ PUSH2 0xB6 JUMPI DUP1 PUSH4 0x7FF9B596 EQ PUSH2 0xC0 JUMPI DUP1 PUSH4 0x890E63E7 EQ PUSH2 0xDE JUMPI JUMPDEST PUSH1 0x0 DUP1 REVERT JUMPDEST PUSH2 0xA0 PUSH2 0x164 JUMP JUMPDEST PUSH1 0x40 MLOAD PUSH2 0xAD SWAP2 SWAP1 PUSH2 0xCBC JUMP JUMPDEST PUSH1 0x40 MLOAD DUP1 SWAP2 SUB SWAP1 RETURN JUMPDEST PUSH2 0xBE PUSH2 0x18A JUMP JUMPDEST STOP JUMPDEST PUSH2 0xC8 PUSH2 0x236 JUMP JUMPDEST PUSH1 0x40 MLOAD PUSH2 0xD5 SWAP2 SWAP1 PUSH2 0xCF0 JUMP JUMPDEST PUSH1 0x40 MLOAD DUP1 SWAP2 SUB SWAP1 RETURN JUMPDEST PUSH2 0xF8 PUSH1 0x4 DUP1 CALLDATASIZE SUB DUP2 ADD SWAP1 PUSH2 0xF3 SWAP2 SWAP1 PUSH2 0xD3C JUMP JUMPDEST PUSH2 0x23C JUMP JUMPDEST STOP JUMPDEST PUSH2 0x114 PUSH1 0x4 DUP1 CALLDATASIZE SUB DUP2 ADD SWAP1 PUSH2 0x10F SWAP2 SWAP1 PUSH2 0xDA8 JUMP JUMPDEST PUSH2 0x307 JUMP JUMPDEST STOP JUMPDEST PUSH2 0x130 PUSH1 0x4 DUP1 CALLDATASIZE SUB DUP2 ADD SWAP1 PUSH2 0x12B SWAP2 SWAP1 PUSH2 0xDD5 JUMP JUMPDEST PUSH2 0x3C0 JUMP JUMPDEST STOP JUMPDEST PUSH2 0x13A PUSH2 0x5CF JUMP JUMPDEST PUSH1 0x40 MLOAD PUSH2 0x147 SWAP2 SWAP1 PUSH2 0xCBC JUMP JUMPDEST PUSH1 0x40 MLOAD DUP1 SWAP2 SUB SWAP1 RETURN JUMPDEST PUSH2 0x158 PUSH2 0x5F3 JUMP JUMPDEST STOP JUMPDEST PUSH2 0x162 PUSH2 0x8AE JUMP JUMPDEST STOP JUMPDEST PUSH1 0x1 PUSH1 0x0 SWAP1 SLOAD SWAP1 PUSH2 0x100 EXP SWAP1 DIV PUSH20 0xFFFFFFFFFFFFFFFFFFFFFFFFFFFFFFFFFFFFFFFF AND DUP2 JUMP JUMPDEST PUSH1 0x3 PUSH1 0x0 SWAP1 SLOAD SWAP1 PUSH2 0x100 EXP SWAP1 DIV PUSH20 0xFFFFFFFFFFFFFFFFFFFFFFFFFFFFFFFFFFFFFFFF AND PUSH20 0xFFFFFFFFFFFFFFFFFFFFFFFFFFFFFFFFFFFFFFFF AND CALLER PUSH20 0xFFFFFFFFFFFFFFFFFFFFFFFFFFFFFFFFFFFFFFFF AND EQ PUSH2 0x1E4 JUMPI PUSH1 0x0 DUP1 REVERT JUMPDEST PUSH1 0x0 PUSH1 0x3 PUSH1 0x14 PUSH2 0x100 EXP DUP2 SLOAD DUP2 PUSH1 0xFF MUL NOT AND SWAP1 DUP4 ISZERO ISZERO MUL OR SWAP1 SSTORE POP PUSH32 0x71002079AB3DE7FEB03EE30C84BAF1D2350D4FFE16709D3DACB5E1037A0FE1CC PUSH1 0x40 MLOAD PUSH2 0x22C SWAP1 PUSH2 0xE5F JUMP JUMPDEST PUSH1 0x40 MLOAD DUP1 SWAP2 SUB SWAP1 LOG1 JUMP JUMPDEST PUSH1 0x2 SLOAD DUP2 JUMP JUMPDEST PUSH1 0x3 PUSH1 0x0 SWAP1 SLOAD SWAP1 PUSH2 0x100 EXP SWAP1 DIV PUSH20 0xFFFFFFFFFFFFFFFFFFFFFFFFFFFFFFFFFFFFFFFF AND PUSH20 0xFFFFFFFFFFFFFFFFFFFFFFFFFFFFFFFFFFFFFFFF AND CALLER PUSH20 0xFFFFFFFFFFFFFFFFFFFFFFFFFFFFFFFFFFFFFFFF AND EQ PUSH2 0x296 JUMPI PUSH1 0x0 DUP1 REVERT JUMPDEST PUSH8 0xDE0B6B3A7640000 DUP3 PUSH2 0x2AA SWAP2 SWAP1 PUSH2 0xEAE JUMP JUMPDEST PUSH1 0x2 DUP2 SWAP1 SSTORE POP PUSH8 0xDE0B6B3A7640000 DUP2 PUSH2 0x2C4 SWAP2 SWAP1 PUSH2 0xEAE JUMP JUMPDEST PUSH1 0x4 DUP2 SWAP1 SSTORE POP PUSH32 0x314BF1CCC32C608A6175053B0DA1933B3A745B3F799011003A4C39AAB0C518A3 DUP3 DUP3 PUSH1 0x40 MLOAD PUSH2 0x2FB SWAP3 SWAP2 SWAP1 PUSH2 0xEF0 JUMP JUMPDEST PUSH1 0x40 MLOAD DUP1 SWAP2 SUB SWAP1 LOG1 POP POP JUMP JUMPDEST PUSH1 0x3 PUSH1 0x0 SWAP1 SLOAD SWAP1 PUSH2 0x100 EXP SWAP1 DIV PUSH20 0xFFFFFFFFFFFFFFFFFFFFFFFFFFFFFFFFFFFFFFFF AND PUSH20 0xFFFFFFFFFFFFFFFFFFFFFFFFFFFFFFFFFFFFFFFF AND CALLER PUSH20 0xFFFFFFFFFFFFFFFFFFFFFFFFFFFFFFFFFFFFFFFF AND EQ PUSH2 0x361 JUMPI PUSH1 0x0 DUP1 REVERT JUMPDEST DUP1 PUSH1 0x1 PUSH1 0x0 PUSH2 0x100 EXP DUP2 SLOAD DUP2 PUSH20 0xFFFFFFFFFFFFFFFFFFFFFFFFFFFFFFFFFFFFFFFF MUL NOT AND SWAP1 DUP4 PUSH20 0xFFFFFFFFFFFFFFFFFFFFFFFFFFFFFFFFFFFFFFFF AND MUL OR SWAP1 SSTORE POP PUSH1 0x1 PUSH1 0x3 PUSH1 0x15 PUSH2 0x100 EXP DUP2 SLOAD DUP2 PUSH1 0xFF MUL NOT AND SWAP1 DUP4 ISZERO ISZERO MUL OR SWAP1 SSTORE POP POP JUMP JUMPDEST PUSH1 0x2 PUSH1 0x0 SLOAD SUB PUSH2 0x405 JUMPI PUSH1 0x40 MLOAD PUSH32 0x8C379A000000000000000000000000000000000000000000000000000000000 DUP2 MSTORE PUSH1 0x4 ADD PUSH2 0x3FC SWAP1 PUSH2 0xF65 JUMP JUMPDEST PUSH1 0x40 MLOAD DUP1 SWAP2 SUB SWAP1 REVERT JUMPDEST PUSH1 0x2 PUSH1 0x0 DUP2 SWAP1 SSTORE POP PUSH1 0x1 ISZERO ISZERO PUSH1 0x3 PUSH1 0x14 SWAP1 SLOAD SWAP1 PUSH2 0x100 EXP SWAP1 DIV PUSH1 0xFF AND ISZERO ISZERO EQ PUSH2 0x463 JUMPI PUSH1 0x40 MLOAD PUSH32 0x8C379A000000000000000000000000000000000000000000000000000000000 DUP2 MSTORE PUSH1 0x4 ADD PUSH2 0x45A SWAP1 PUSH2 0xFD1 JUMP JUMPDEST PUSH1 0x40 MLOAD DUP1 SWAP2 SUB SWAP1 REVERT JUMPDEST PUSH1 0x0 DUP2 PUSH1 0x5 SLOAD PUSH2 0x473 SWAP2 SWAP1 PUSH2 0xFF1 JUMP JUMPDEST SWAP1 POP PUSH1 0x4 SLOAD DUP2 LT PUSH2 0x4B9 JUMPI PUSH1 0x40 MLOAD PUSH32 0x8C379A000000000000000000000000000000000000000000000000000000000 DUP2 MSTORE PUSH1 0x4 ADD PUSH2 0x4B0 SWAP1 PUSH2 0x1071 JUMP JUMPDEST PUSH1 0x40 MLOAD DUP1 SWAP2 SUB SWAP1 REVERT JUMPDEST PUSH2 0x506 CALLER ADDRESS DUP5 PUSH32 0x0 PUSH20 0xFFFFFFFFFFFFFFFFFFFFFFFFFFFFFFFFFFFFFFFF AND PUSH2 0x975 SWAP1 SWAP4 SWAP3 SWAP2 SWAP1 PUSH4 0xFFFFFFFF AND JUMP JUMPDEST DUP2 PUSH1 0x6 PUSH1 0x0 CALLER PUSH20 0xFFFFFFFFFFFFFFFFFFFFFFFFFFFFFFFFFFFFFFFF AND PUSH20 0xFFFFFFFFFFFFFFFFFFFFFFFFFFFFFFFFFFFFFFFF AND DUP2 MSTORE PUSH1 0x20 ADD SWAP1 DUP2 MSTORE PUSH1 0x20 ADD PUSH1 0x0 KECCAK256 PUSH1 0x0 DUP3 DUP3 SLOAD PUSH2 0x555 SWAP2 SWAP1 PUSH2 0xFF1 JUMP JUMPDEST SWAP3 POP POP DUP2 SWAP1 SSTORE POP DUP2 PUSH1 0x5 PUSH1 0x0 DUP3 DUP3 SLOAD PUSH2 0x56E SWAP2 SWAP1 PUSH2 0xFF1 JUMP JUMPDEST SWAP3 POP POP DUP2 SWAP1 SSTORE POP CALLER PUSH20 0xFFFFFFFFFFFFFFFFFFFFFFFFFFFFFFFFFFFFFFFF AND PUSH32 0xDA4CADF0D4383CB43C8249E3CC678F6690BDBAA01421C99FD9B14EDAC62CDE80 DUP4 PUSH1 0x40 MLOAD PUSH2 0x5BB SWAP2 SWAP1 PUSH2 0xCF0 JUMP JUMPDEST PUSH1 0x40 MLOAD DUP1 SWAP2 SUB SWAP1 LOG2 POP PUSH1 0x1 PUSH1 0x0 DUP2 SWAP1 SSTORE POP POP JUMP JUMPDEST PUSH32 0x0 DUP2 JUMP JUMPDEST PUSH1 0x2 PUSH1 0x0 SLOAD SUB PUSH2 0x638 JUMPI PUSH1 0x40 MLOAD PUSH32 0x8C379A000000000000000000000000000000000000000000000000000000000 DUP2 MSTORE PUSH1 0x4 ADD PUSH2 0x62F SWAP1 PUSH2 0xF65 JUMP JUMPDEST PUSH1 0x40 MLOAD DUP1 SWAP2 SUB SWAP1 REVERT JUMPDEST PUSH1 0x2 PUSH1 0x0 DUP2 SWAP1 SSTORE POP PUSH1 0x0 ISZERO ISZERO PUSH1 0x3 PUSH1 0x14 SWAP1 SLOAD SWAP1 PUSH2 0x100 EXP SWAP1 DIV PUSH1 0xFF AND ISZERO ISZERO EQ PUSH2 0x696 JUMPI PUSH1 0x40 MLOAD PUSH32 0x8C379A000000000000000000000000000000000000000000000000000000000 DUP2 MSTORE PUSH1 0x4 ADD PUSH2 0x68D SWAP1 PUSH2 0x1103 JUMP JUMPDEST PUSH1 0x40 MLOAD DUP1 SWAP2 SUB SWAP1 REVERT JUMPDEST PUSH1 0x0 PUSH1 0x6 PUSH1 0x0 CALLER PUSH20 0xFFFFFFFFFFFFFFFFFFFFFFFFFFFFFFFFFFFFFFFF AND PUSH20 0xFFFFFFFFFFFFFFFFFFFFFFFFFFFFFFFFFFFFFFFF AND DUP2 MSTORE PUSH1 0x20 ADD SWAP1 DUP2 MSTORE PUSH1 0x20 ADD PUSH1 0x0 KECCAK256 SLOAD GT PUSH2 0x718 JUMPI PUSH1 0x40 MLOAD PUSH32 0x8C379A000000000000000000000000000000000000000000000000000000000 DUP2 MSTORE PUSH1 0x4 ADD PUSH2 0x70F SWAP1 PUSH2 0x116F JUMP JUMPDEST PUSH1 0x40 MLOAD DUP1 SWAP2 SUB SWAP1 REVERT JUMPDEST PUSH1 0x0 PUSH1 0x6 PUSH1 0x0 CALLER PUSH20 0xFFFFFFFFFFFFFFFFFFFFFFFFFFFFFFFFFFFFFFFF AND PUSH20 0xFFFFFFFFFFFFFFFFFFFFFFFFFFFFFFFFFFFFFFFF AND DUP2 MSTORE PUSH1 0x20 ADD SWAP1 DUP2 MSTORE PUSH1 0x20 ADD PUSH1 0x0 KECCAK256 SLOAD SWAP1 POP PUSH1 0x0 PUSH8 0xDE0B6B3A7640000 PUSH1 0x2 SLOAD DUP4 PUSH2 0x775 SWAP2 SWAP1 PUSH2 0x11BE JUMP JUMPDEST PUSH2 0x77F SWAP2 SWAP1 PUSH2 0xEAE JUMP JUMPDEST SWAP1 POP PUSH1 0x0 PUSH1 0x6 PUSH1 0x0 CALLER PUSH20 0xFFFFFFFFFFFFFFFFFFFFFFFFFFFFFFFFFFFFFFFF AND PUSH20 0xFFFFFFFFFFFFFFFFFFFFFFFFFFFFFFFFFFFFFFFF AND DUP2 MSTORE PUSH1 0x20 ADD SWAP1 DUP2 MSTORE PUSH1 0x20 ADD PUSH1 0x0 KECCAK256 DUP2 SWAP1 SSTORE POP PUSH1 0x1 PUSH1 0x0 SWAP1 SLOAD SWAP1 PUSH2 0x100 EXP SWAP1 DIV PUSH20 0xFFFFFFFFFFFFFFFFFFFFFFFFFFFFFFFFFFFFFFFF AND PUSH20 0xFFFFFFFFFFFFFFFFFFFFFFFFFFFFFFFFFFFFFFFF AND PUSH4 0x23B872DD ADDRESS CALLER DUP5 PUSH1 0x40 MLOAD DUP5 PUSH4 0xFFFFFFFF AND PUSH1 0xE0 SHL DUP2 MSTORE PUSH1 0x4 ADD PUSH2 0x825 SWAP4 SWAP3 SWAP2 SWAP1 PUSH2 0x11EF JUMP JUMPDEST PUSH1 0x20 PUSH1 0x40 MLOAD DUP1 DUP4 SUB DUP2 PUSH1 0x0 DUP8 GAS CALL ISZERO DUP1 ISZERO PUSH2 0x844 JUMPI RETURNDATASIZE PUSH1 0x0 DUP1 RETURNDATACOPY RETURNDATASIZE PUSH1 0x0 REVERT JUMPDEST POP POP POP POP PUSH1 0x40 MLOAD RETURNDATASIZE PUSH1 0x1F NOT PUSH1 0x1F DUP3 ADD AND DUP3 ADD DUP1 PUSH1 0x40 MSTORE POP DUP2 ADD SWAP1 PUSH2 0x868 SWAP2 SWAP1 PUSH2 0x125E JUMP JUMPDEST POP PUSH32 0x1698755F2F63264C31CA84D930DF9DD8CA3AC92D33A0DD64D10154F95E4203EF CALLER DUP3 PUSH1 0x40 MLOAD PUSH2 0x89A SWAP3 SWAP2 SWAP1 PUSH2 0x128B JUMP JUMPDEST PUSH1 0x40 MLOAD DUP1 SWAP2 SUB SWAP1 LOG1 POP POP PUSH1 0x1 PUSH1 0x0 DUP2 SWAP1 SSTORE POP JUMP JUMPDEST PUSH1 0x3 PUSH1 0x0 SWAP1 SLOAD SWAP1 PUSH2 0x100 EXP SWAP1 DIV PUSH20 0xFFFFFFFFFFFFFFFFFFFFFFFFFFFFFFFFFFFFFFFF AND PUSH20 0xFFFFFFFFFFFFFFFFFFFFFFFFFFFFFFFFFFFFFFFF AND CALLER PUSH20 0xFFFFFFFFFFFFFFFFFFFFFFFFFFFFFFFFFFFFFFFF AND EQ PUSH2 0x908 JUMPI PUSH1 0x0 DUP1 REVERT JUMPDEST PUSH1 0x1 PUSH1 0x3 PUSH1 0x14 PUSH2 0x100 EXP DUP2 SLOAD DUP2 PUSH1 0xFF MUL NOT AND SWAP1 DUP4 ISZERO ISZERO MUL OR SWAP1 SSTORE POP PUSH1 0x0 PUSH1 0x3 PUSH1 0x15 PUSH2 0x100 EXP DUP2 SLOAD DUP2 PUSH1 0xFF MUL NOT AND SWAP1 DUP4 ISZERO ISZERO MUL OR SWAP1 SSTORE POP PUSH32 0x71002079AB3DE7FEB03EE30C84BAF1D2350D4FFE16709D3DACB5E1037A0FE1CC PUSH1 0x40 MLOAD PUSH2 0x96B SWAP1 PUSH2 0x1300 JUMP JUMPDEST PUSH1 0x40 MLOAD DUP1 SWAP2 SUB SWAP1 LOG1 JUMP JUMPDEST PUSH2 0x9F8 DUP5 PUSH4 0x23B872DD PUSH1 0xE0 SHL DUP6 DUP6 DUP6 PUSH1 0x40 MLOAD PUSH1 0x24 ADD PUSH2 0x996 SWAP4 SWAP3 SWAP2 SWAP1 PUSH2 0x11EF JUMP JUMPDEST PUSH1 0x40 MLOAD PUSH1 0x20 DUP2 DUP4 SUB SUB DUP2 MSTORE SWAP1 PUSH1 0x40 MSTORE SWAP1 PUSH28 0xFFFFFFFFFFFFFFFFFFFFFFFFFFFFFFFFFFFFFFFFFFFFFFFFFFFFFFFF NOT AND PUSH1 0x20 DUP3 ADD DUP1 MLOAD PUSH28 0xFFFFFFFFFFFFFFFFFFFFFFFFFFFFFFFFFFFFFFFFFFFFFFFFFFFFFFFF DUP4 DUP2 DUP4 AND OR DUP4 MSTORE POP POP POP POP PUSH2 0x9FE JUMP JUMPDEST POP POP POP POP JUMP JUMPDEST PUSH1 0x0 PUSH2 0xA60 DUP3 PUSH1 0x40 MLOAD DUP1 PUSH1 0x40 ADD PUSH1 0x40 MSTORE DUP1 PUSH1 0x20 DUP2 MSTORE PUSH1 0x20 ADD PUSH32 0x5361666545524332303A206C6F772D6C6576656C2063616C6C206661696C6564 DUP2 MSTORE POP DUP6 PUSH20 0xFFFFFFFFFFFFFFFFFFFFFFFFFFFFFFFFFFFFFFFF AND PUSH2 0xAC5 SWAP1 SWAP3 SWAP2 SWAP1 PUSH4 0xFFFFFFFF AND JUMP JUMPDEST SWAP1 POP PUSH1 0x0 DUP2 MLOAD GT ISZERO PUSH2 0xAC0 JUMPI DUP1 DUP1 PUSH1 0x20 ADD SWAP1 MLOAD DUP2 ADD SWAP1 PUSH2 0xA80 SWAP2 SWAP1 PUSH2 0x125E JUMP JUMPDEST PUSH2 0xABF JUMPI PUSH1 0x40 MLOAD PUSH32 0x8C379A000000000000000000000000000000000000000000000000000000000 DUP2 MSTORE PUSH1 0x4 ADD PUSH2 0xAB6 SWAP1 PUSH2 0x1392 JUMP JUMPDEST PUSH1 0x40 MLOAD DUP1 SWAP2 SUB SWAP1 REVERT JUMPDEST JUMPDEST POP POP POP JUMP JUMPDEST PUSH1 0x60 PUSH2 0xAD4 DUP5 DUP5 PUSH1 0x0 DUP6 PUSH2 0xADD JUMP JUMPDEST SWAP1 POP SWAP4 SWAP3 POP POP POP JUMP JUMPDEST PUSH1 0x60 DUP3 SELFBALANCE LT ISZERO PUSH2 0xB22 JUMPI PUSH1 0x40 MLOAD PUSH32 0x8C379A000000000000000000000000000000000000000000000000000000000 DUP2 MSTORE PUSH1 0x4 ADD PUSH2 0xB19 SWAP1 PUSH2 0x1424 JUMP JUMPDEST PUSH1 0x40 MLOAD DUP1 SWAP2 SUB SWAP1 REVERT JUMPDEST PUSH2 0xB2B DUP6 PUSH2 0xBF1 JUMP JUMPDEST PUSH2 0xB6A JUMPI PUSH1 0x40 MLOAD PUSH32 0x8C379A000000000000000000000000000000000000000000000000000000000 DUP2 MSTORE PUSH1 0x4 ADD PUSH2 0xB61 SWAP1 PUSH2 0x1490 JUMP JUMPDEST PUSH1 0x40 MLOAD DUP1 SWAP2 SUB SWAP1 REVERT JUMPDEST PUSH1 0x0 DUP1 DUP7 PUSH20 0xFFFFFFFFFFFFFFFFFFFFFFFFFFFFFFFFFFFFFFFF AND DUP6 DUP8 PUSH1 0x40 MLOAD PUSH2 0xB93 SWAP2 SWAP1 PUSH2 0x1521 JUMP JUMPDEST PUSH1 0x0 PUSH1 0x40 MLOAD DUP1 DUP4 SUB DUP2 DUP6 DUP8 GAS CALL SWAP3 POP POP POP RETURNDATASIZE DUP1 PUSH1 0x0 DUP2 EQ PUSH2 0xBD0 JUMPI PUSH1 0x40 MLOAD SWAP2 POP PUSH1 0x1F NOT PUSH1 0x3F RETURNDATASIZE ADD AND DUP3 ADD PUSH1 0x40 MSTORE RETURNDATASIZE DUP3 MSTORE RETURNDATASIZE PUSH1 0x0 PUSH1 0x20 DUP5 ADD RETURNDATACOPY PUSH2 0xBD5 JUMP JUMPDEST PUSH1 0x60 SWAP2 POP JUMPDEST POP SWAP2 POP SWAP2 POP PUSH2 0xBE5 DUP3 DUP3 DUP7 PUSH2 0xC14 JUMP JUMPDEST SWAP3 POP POP POP SWAP5 SWAP4 POP POP POP POP JUMP JUMPDEST PUSH1 0x0 DUP1 DUP3 PUSH20 0xFFFFFFFFFFFFFFFFFFFFFFFFFFFFFFFFFFFFFFFF AND EXTCODESIZE GT SWAP1 POP SWAP2 SWAP1 POP JUMP JUMPDEST PUSH1 0x60 DUP4 ISZERO PUSH2 0xC24 JUMPI DUP3 SWAP1 POP PUSH2 0xC74 JUMP JUMPDEST PUSH1 0x0 DUP4 MLOAD GT ISZERO PUSH2 0xC37 JUMPI DUP3 MLOAD DUP1 DUP5 PUSH1 0x20 ADD REVERT JUMPDEST DUP2 PUSH1 0x40 MLOAD PUSH32 0x8C379A000000000000000000000000000000000000000000000000000000000 DUP2 MSTORE PUSH1 0x4 ADD PUSH2 0xC6B SWAP2 SWAP1 PUSH2 0x158D JUMP JUMPDEST PUSH1 0x40 MLOAD DUP1 SWAP2 SUB SWAP1 REVERT JUMPDEST SWAP4 SWAP3 POP POP POP JUMP JUMPDEST PUSH1 0x0 PUSH20 0xFFFFFFFFFFFFFFFFFFFFFFFFFFFFFFFFFFFFFFFF DUP3 AND SWAP1 POP SWAP2 SWAP1 POP JUMP JUMPDEST PUSH1 0x0 PUSH2 0xCA6 DUP3 PUSH2 0xC7B JUMP JUMPDEST SWAP1 POP SWAP2 SWAP1 POP JUMP JUMPDEST PUSH2 0xCB6 DUP2 PUSH2 0xC9B JUMP JUMPDEST DUP3 MSTORE POP POP JUMP JUMPDEST PUSH1 0x0 PUSH1 0x20 DUP3 ADD SWAP1 POP PUSH2 0xCD1 PUSH1 0x0 DUP4 ADD DUP5 PUSH2 0xCAD JUMP JUMPDEST SWAP3 SWAP2 POP POP JUMP JUMPDEST PUSH1 0x0 DUP2 SWAP1 POP SWAP2 SWAP1 POP JUMP JUMPDEST PUSH2 0xCEA DUP2 PUSH2 0xCD7 JUMP JUMPDEST DUP3 MSTORE POP POP JUMP JUMPDEST PUSH1 0x0 PUSH1 0x20 DUP3 ADD SWAP1 POP PUSH2 0xD05 PUSH1 0x0 DUP4 ADD DUP5 PUSH2 0xCE1 JUMP JUMPDEST SWAP3 SWAP2 POP POP JUMP JUMPDEST PUSH1 0x0 DUP1 REVERT JUMPDEST PUSH2 0xD19 DUP2 PUSH2 0xCD7 JUMP JUMPDEST DUP2 EQ PUSH2 0xD24 JUMPI PUSH1 0x0 DUP1 REVERT JUMPDEST POP JUMP JUMPDEST PUSH1 0x0 DUP2 CALLDATALOAD SWAP1 POP PUSH2 0xD36 DUP2 PUSH2 0xD10 JUMP JUMPDEST SWAP3 SWAP2 POP POP JUMP JUMPDEST PUSH1 0x0 DUP1 PUSH1 0x40 DUP4 DUP6 SUB SLT ISZERO PUSH2 0xD53 JUMPI PUSH2 0xD52 PUSH2 0xD0B JUMP JUMPDEST JUMPDEST PUSH1 0x0 PUSH2 0xD61 DUP6 DUP3 DUP7 ADD PUSH2 0xD27 JUMP JUMPDEST SWAP3 POP POP PUSH1 0x20 PUSH2 0xD72 DUP6 DUP3 DUP7 ADD PUSH2 0xD27 JUMP JUMPDEST SWAP2 POP POP SWAP3 POP SWAP3 SWAP1 POP JUMP JUMPDEST PUSH2 0xD85 DUP2 PUSH2 0xC9B JUMP JUMPDEST DUP2 EQ PUSH2 0xD90 JUMPI PUSH1 0x0 DUP1 REVERT JUMPDEST POP JUMP JUMPDEST PUSH1 0x0 DUP2 CALLDATALOAD SWAP1 POP PUSH2 0xDA2 DUP2 PUSH2 0xD7C JUMP JUMPDEST SWAP3 SWAP2 POP POP JUMP JUMPDEST PUSH1 0x0 PUSH1 0x20 DUP3 DUP5 SUB SLT ISZERO PUSH2 0xDBE JUMPI PUSH2 0xDBD PUSH2 0xD0B JUMP JUMPDEST JUMPDEST PUSH1 0x0 PUSH2 0xDCC DUP5 DUP3 DUP6 ADD PUSH2 0xD93 JUMP JUMPDEST SWAP2 POP POP SWAP3 SWAP2 POP POP JUMP JUMPDEST PUSH1 0x0 PUSH1 0x20 DUP3 DUP5 SUB SLT ISZERO PUSH2 0xDEB JUMPI PUSH2 0xDEA PUSH2 0xD0B JUMP JUMPDEST JUMPDEST PUSH1 0x0 PUSH2 0xDF9 DUP5 DUP3 DUP6 ADD PUSH2 0xD27 JUMP JUMPDEST SWAP2 POP POP SWAP3 SWAP2 POP POP JUMP JUMPDEST PUSH1 0x0 DUP3 DUP3 MSTORE PUSH1 0x20 DUP3 ADD SWAP1 POP SWAP3 SWAP2 POP POP JUMP JUMPDEST PUSH32 0x49434F2069732070617573656400000000000000000000000000000000000000 PUSH1 0x0 DUP3 ADD MSTORE POP JUMP JUMPDEST PUSH1 0x0 PUSH2 0xE49 PUSH1 0xD DUP4 PUSH2 0xE02 JUMP JUMPDEST SWAP2 POP PUSH2 0xE54 DUP3 PUSH2 0xE13 JUMP JUMPDEST PUSH1 0x20 DUP3 ADD SWAP1 POP SWAP2 SWAP1 POP JUMP JUMPDEST PUSH1 0x0 PUSH1 0x20 DUP3 ADD SWAP1 POP DUP2 DUP2 SUB PUSH1 0x0 DUP4 ADD MSTORE PUSH2 0xE78 DUP2 PUSH2 0xE3C JUMP JUMPDEST SWAP1 POP SWAP2 SWAP1 POP JUMP JUMPDEST PUSH32 0x4E487B7100000000000000000000000000000000000000000000000000000000 PUSH1 0x0 MSTORE PUSH1 0x11 PUSH1 0x4 MSTORE PUSH1 0x24 PUSH1 0x0 REVERT JUMPDEST PUSH1 0x0 PUSH2 0xEB9 DUP3 PUSH2 0xCD7 JUMP JUMPDEST SWAP2 POP PUSH2 0xEC4 DUP4 PUSH2 0xCD7 JUMP JUMPDEST SWAP3 POP DUP3 DUP3 MUL PUSH2 0xED2 DUP2 PUSH2 0xCD7 JUMP JUMPDEST SWAP2 POP DUP3 DUP3 DIV DUP5 EQ DUP4 ISZERO OR PUSH2 0xEE9 JUMPI PUSH2 0xEE8 PUSH2 0xE7F JUMP JUMPDEST JUMPDEST POP SWAP3 SWAP2 POP POP JUMP JUMPDEST PUSH1 0x0 PUSH1 0x40 DUP3 ADD SWAP1 POP PUSH2 0xF05 PUSH1 0x0 DUP4 ADD DUP6 PUSH2 0xCE1 JUMP JUMPDEST PUSH2 0xF12 PUSH1 0x20 DUP4 ADD DUP5 PUSH2 0xCE1 JUMP JUMPDEST SWAP4 SWAP3 POP POP POP JUMP JUMPDEST PUSH32 0x5265656E7472616E637947756172643A207265656E7472616E742063616C6C00 PUSH1 0x0 DUP3 ADD MSTORE POP JUMP JUMPDEST PUSH1 0x0 PUSH2 0xF4F PUSH1 0x1F DUP4 PUSH2 0xE02 JUMP JUMPDEST SWAP2 POP PUSH2 0xF5A DUP3 PUSH2 0xF19 JUMP JUMPDEST PUSH1 0x20 DUP3 ADD SWAP1 POP SWAP2 SWAP1 POP JUMP JUMPDEST PUSH1 0x0 PUSH1 0x20 DUP3 ADD SWAP1 POP DUP2 DUP2 SUB PUSH1 0x0 DUP4 ADD MSTORE PUSH2 0xF7E DUP2 PUSH2 0xF42 JUMP JUMPDEST SWAP1 POP SWAP2 SWAP1 POP JUMP JUMPDEST PUSH32 0x49444F20686173206E6F74207374617274656400000000000000000000000000 PUSH1 0x0 DUP3 ADD MSTORE POP JUMP JUMPDEST PUSH1 0x0 PUSH2 0xFBB PUSH1 0x13 DUP4 PUSH2 0xE02 JUMP JUMPDEST SWAP2 POP PUSH2 0xFC6 DUP3 PUSH2 0xF85 JUMP JUMPDEST PUSH1 0x20 DUP3 ADD SWAP1 POP SWAP2 SWAP1 POP JUMP JUMPDEST PUSH1 0x0 PUSH1 0x20 DUP3 ADD SWAP1 POP DUP2 DUP2 SUB PUSH1 0x0 DUP4 ADD MSTORE PUSH2 0xFEA DUP2 PUSH2 0xFAE JUMP JUMPDEST SWAP1 POP SWAP2 SWAP1 POP JUMP JUMPDEST PUSH1 0x0 PUSH2 0xFFC DUP3 PUSH2 0xCD7 JUMP JUMPDEST SWAP2 POP PUSH2 0x1007 DUP4 PUSH2 0xCD7 JUMP JUMPDEST SWAP3 POP DUP3 DUP3 ADD SWAP1 POP DUP1 DUP3 GT ISZERO PUSH2 0x101F JUMPI PUSH2 0x101E PUSH2 0xE7F JUMP JUMPDEST JUMPDEST SWAP3 SWAP2 POP POP JUMP JUMPDEST PUSH32 0x416C6C20746F6B656E7320686173206265656E20736F6C640000000000000000 PUSH1 0x0 DUP3 ADD MSTORE POP JUMP JUMPDEST PUSH1 0x0 PUSH2 0x105B PUSH1 0x18 DUP4 PUSH2 0xE02 JUMP JUMPDEST SWAP2 POP PUSH2 0x1066 DUP3 PUSH2 0x1025 JUMP JUMPDEST PUSH1 0x20 DUP3 ADD SWAP1 POP SWAP2 SWAP1 POP JUMP JUMPDEST PUSH1 0x0 PUSH1 0x20 DUP3 ADD SWAP1 POP DUP2 DUP2 SUB PUSH1 0x0 DUP4 ADD MSTORE PUSH2 0x108A DUP2 PUSH2 0x104E JUMP JUMPDEST SWAP1 POP SWAP2 SWAP1 POP JUMP JUMPDEST PUSH32 0x49444F2048617320206E6F7420656E6465642C20636C61696D20756E61766169 PUSH1 0x0 DUP3 ADD MSTORE PUSH32 0x6C61626C65000000000000000000000000000000000000000000000000000000 PUSH1 0x20 DUP3 ADD MSTORE POP JUMP JUMPDEST PUSH1 0x0 PUSH2 0x10ED PUSH1 0x25 DUP4 PUSH2 0xE02 JUMP JUMPDEST SWAP2 POP PUSH2 0x10F8 DUP3 PUSH2 0x1091 JUMP JUMPDEST PUSH1 0x40 DUP3 ADD SWAP1 POP SWAP2 SWAP1 POP JUMP JUMPDEST PUSH1 0x0 PUSH1 0x20 DUP3 ADD SWAP1 POP DUP2 DUP2 SUB PUSH1 0x0 DUP4 ADD MSTORE PUSH2 0x111C DUP2 PUSH2 0x10E0 JUMP JUMPDEST SWAP1 POP SWAP2 SWAP1 POP JUMP JUMPDEST PUSH32 0x796F7520646964206E6F74207061727469636970617465000000000000000000 PUSH1 0x0 DUP3 ADD MSTORE POP JUMP JUMPDEST PUSH1 0x0 PUSH2 0x1159 PUSH1 0x17 DUP4 PUSH2 0xE02 JUMP JUMPDEST SWAP2 POP PUSH2 0x1164 DUP3 PUSH2 0x1123 JUMP JUMPDEST PUSH1 0x20 DUP3 ADD SWAP1 POP SWAP2 SWAP1 POP JUMP JUMPDEST PUSH1 0x0 PUSH1 0x20 DUP3 ADD SWAP1 POP DUP2 DUP2 SUB PUSH1 0x0 DUP4 ADD MSTORE PUSH2 0x1188 DUP2 PUSH2 0x114C JUMP JUMPDEST SWAP1 POP SWAP2 SWAP1 POP JUMP JUMPDEST PUSH32 0x4E487B7100000000000000000000000000000000000000000000000000000000 PUSH1 0x0 MSTORE PUSH1 0x12 PUSH1 0x4 MSTORE PUSH1 0x24 PUSH1 0x0 REVERT JUMPDEST PUSH1 0x0 PUSH2 0x11C9 DUP3 PUSH2 0xCD7 JUMP JUMPDEST SWAP2 POP PUSH2 0x11D4 DUP4 PUSH2 0xCD7 JUMP JUMPDEST SWAP3 POP DUP3 PUSH2 0x11E4 JUMPI PUSH2 0x11E3 PUSH2 0x118F JUMP JUMPDEST JUMPDEST DUP3 DUP3 DIV SWAP1 POP SWAP3 SWAP2 POP POP JUMP JUMPDEST PUSH1 0x0 PUSH1 0x60 DUP3 ADD SWAP1 POP PUSH2 0x1204 PUSH1 0x0 DUP4 ADD DUP7 PUSH2 0xCAD JUMP JUMPDEST PUSH2 0x1211 PUSH1 0x20 DUP4 ADD DUP6 PUSH2 0xCAD JUMP JUMPDEST PUSH2 0x121E PUSH1 0x40 DUP4 ADD DUP5 PUSH2 0xCE1 JUMP JUMPDEST SWAP5 SWAP4 POP POP POP POP JUMP JUMPDEST PUSH1 0x0 DUP2 ISZERO ISZERO SWAP1 POP SWAP2 SWAP1 POP JUMP JUMPDEST PUSH2 0x123B DUP2 PUSH2 0x1226 JUMP JUMPDEST DUP2 EQ PUSH2 0x1246 JUMPI PUSH1 0x0 DUP1 REVERT JUMPDEST POP JUMP JUMPDEST PUSH1 0x0 DUP2 MLOAD SWAP1 POP PUSH2 0x1258 DUP2 PUSH2 0x1232 JUMP JUMPDEST SWAP3 SWAP2 POP POP JUMP JUMPDEST PUSH1 0x0 PUSH1 0x20 DUP3 DUP5 SUB SLT ISZERO PUSH2 0x1274 JUMPI PUSH2 0x1273 PUSH2 0xD0B JUMP JUMPDEST JUMPDEST PUSH1 0x0 PUSH2 0x1282 DUP5 DUP3 DUP6 ADD PUSH2 0x1249 JUMP JUMPDEST SWAP2 POP POP SWAP3 SWAP2 POP POP JUMP JUMPDEST PUSH1 0x0 PUSH1 0x40 DUP3 ADD SWAP1 POP PUSH2 0x12A0 PUSH1 0x0 DUP4 ADD DUP6 PUSH2 0xCAD JUMP JUMPDEST PUSH2 0x12AD PUSH1 0x20 DUP4 ADD DUP5 PUSH2 0xCE1 JUMP JUMPDEST SWAP4 SWAP3 POP POP POP JUMP JUMPDEST PUSH32 0x49434F206973206F6E0000000000000000000000000000000000000000000000 PUSH1 0x0 DUP3 ADD MSTORE POP JUMP JUMPDEST PUSH1 0x0 PUSH2 0x12EA PUSH1 0x9 DUP4 PUSH2 0xE02 JUMP JUMPDEST SWAP2 POP PUSH2 0x12F5 DUP3 PUSH2 0x12B4 JUMP JUMPDEST PUSH1 0x20 DUP3 ADD SWAP1 POP SWAP2 SWAP1 POP JUMP JUMPDEST PUSH1 0x0 PUSH1 0x20 DUP3 ADD SWAP1 POP DUP2 DUP2 SUB PUSH1 0x0 DUP4 ADD MSTORE PUSH2 0x1319 DUP2 PUSH2 0x12DD JUMP JUMPDEST SWAP1 POP SWAP2 SWAP1 POP JUMP JUMPDEST PUSH32 0x5361666545524332303A204552433230206F7065726174696F6E20646964206E PUSH1 0x0 DUP3 ADD MSTORE PUSH32 0x6F74207375636365656400000000000000000000000000000000000000000000 PUSH1 0x20 DUP3 ADD MSTORE POP JUMP JUMPDEST PUSH1 0x0 PUSH2 0x137C PUSH1 0x2A DUP4 PUSH2 0xE02 JUMP JUMPDEST SWAP2 POP PUSH2 0x1387 DUP3 PUSH2 0x1320 JUMP JUMPDEST PUSH1 0x40 DUP3 ADD SWAP1 POP SWAP2 SWAP1 POP JUMP JUMPDEST PUSH1 0x0 PUSH1 0x20 DUP3 ADD SWAP1 POP DUP2 DUP2 SUB PUSH1 0x0 DUP4 ADD MSTORE PUSH2 0x13AB DUP2 PUSH2 0x136F JUMP JUMPDEST SWAP1 POP SWAP2 SWAP1 POP JUMP JUMPDEST PUSH32 0x416464726573733A20696E73756666696369656E742062616C616E636520666F PUSH1 0x0 DUP3 ADD MSTORE PUSH32 0x722063616C6C0000000000000000000000000000000000000000000000000000 PUSH1 0x20 DUP3 ADD MSTORE POP JUMP JUMPDEST PUSH1 0x0 PUSH2 0x140E PUSH1 0x26 DUP4 PUSH2 0xE02 JUMP JUMPDEST SWAP2 POP PUSH2 0x1419 DUP3 PUSH2 0x13B2 JUMP JUMPDEST PUSH1 0x40 DUP3 ADD SWAP1 POP SWAP2 SWAP1 POP JUMP JUMPDEST PUSH1 0x0 PUSH1 0x20 DUP3 ADD SWAP1 POP DUP2 DUP2 SUB PUSH1 0x0 DUP4 ADD MSTORE PUSH2 0x143D DUP2 PUSH2 0x1401 JUMP JUMPDEST SWAP1 POP SWAP2 SWAP1 POP JUMP JUMPDEST PUSH32 0x416464726573733A2063616C6C20746F206E6F6E2D636F6E7472616374000000 PUSH1 0x0 DUP3 ADD MSTORE POP JUMP JUMPDEST PUSH1 0x0 PUSH2 0x147A PUSH1 0x1D DUP4 PUSH2 0xE02 JUMP JUMPDEST SWAP2 POP PUSH2 0x1485 DUP3 PUSH2 0x1444 JUMP JUMPDEST PUSH1 0x20 DUP3 ADD SWAP1 POP SWAP2 SWAP1 POP JUMP JUMPDEST PUSH1 0x0 PUSH1 0x20 DUP3 ADD SWAP1 POP DUP2 DUP2 SUB PUSH1 0x0 DUP4 ADD MSTORE PUSH2 0x14A9 DUP2 PUSH2 0x146D JUMP JUMPDEST SWAP1 POP SWAP2 SWAP1 POP JUMP JUMPDEST PUSH1 0x0 DUP2 MLOAD SWAP1 POP SWAP2 SWAP1 POP JUMP JUMPDEST PUSH1 0x0 DUP2 SWAP1 POP SWAP3 SWAP2 POP POP JUMP JUMPDEST PUSH1 0x0 JUMPDEST DUP4 DUP2 LT ISZERO PUSH2 0x14E4 JUMPI DUP1 DUP3 ADD MLOAD DUP2 DUP5 ADD MSTORE PUSH1 0x20 DUP2 ADD SWAP1 POP PUSH2 0x14C9 JUMP JUMPDEST PUSH1 0x0 DUP5 DUP5 ADD MSTORE POP POP POP POP JUMP JUMPDEST PUSH1 0x0 PUSH2 0x14FB DUP3 PUSH2 0x14B0 JUMP JUMPDEST PUSH2 0x1505 DUP2 DUP6 PUSH2 0x14BB JUMP JUMPDEST SWAP4 POP PUSH2 0x1515 DUP2 DUP6 PUSH1 0x20 DUP7 ADD PUSH2 0x14C6 JUMP JUMPDEST DUP1 DUP5 ADD SWAP2 POP POP SWAP3 SWAP2 POP POP JUMP JUMPDEST PUSH1 0x0 PUSH2 0x152D DUP3 DUP5 PUSH2 0x14F0 JUMP JUMPDEST SWAP2 POP DUP2 SWAP1 POP SWAP3 SWAP2 POP POP JUMP JUMPDEST PUSH1 0x0 DUP2 MLOAD SWAP1 POP SWAP2 SWAP1 POP JUMP JUMPDEST PUSH1 0x0 PUSH1 0x1F NOT PUSH1 0x1F DUP4 ADD AND SWAP1 POP SWAP2 SWAP1 POP JUMP JUMPDEST PUSH1 0x0 PUSH2 0x155F DUP3 PUSH2 0x1538 JUMP JUMPDEST PUSH2 0x1569 DUP2 DUP6 PUSH2 0xE02 JUMP JUMPDEST SWAP4 POP PUSH2 0x1579 DUP2 DUP6 PUSH1 0x20 DUP7 ADD PUSH2 0x14C6 JUMP JUMPDEST PUSH2 0x1582 DUP2 PUSH2 0x1543 JUMP JUMPDEST DUP5 ADD SWAP2 POP POP SWAP3 SWAP2 POP POP JUMP JUMPDEST PUSH1 0x0 PUSH1 0x20 DUP3 ADD SWAP1 POP DUP2 DUP2 SUB PUSH1 0x0 DUP4 ADD MSTORE PUSH2 0x15A7 DUP2 DUP5 PUSH2 0x1554 JUMP JUMPDEST SWAP1 POP SWAP3 SWAP2 POP POP JUMP INVALID LOG2 PUSH5 0x6970667358 0x22 SLT KECCAK256 EXTCODEHASH PUSH9 0x867C58F506ABB6BF1F SWAP5 0xD6 0xFC 0x1F 0x1F PUSH26 0xB1BA614E2F0FB03E245B6C7599C8CD64736F6C63430008110033 "
				},
				"gasEstimates": {
					"creation": {
						"codeDepositCost": "1121000",
						"executionCost": "infinite",
						"totalCost": "infinite"
					},
					"external": {
						"BeginIDO()": "52838",
						"DAZ()": "2515",
						"StopIDO()": "28456",
						"USDT()": "infinite",
						"claimIDOTokens(address)": "51209",
						"claimPurchasedToken()": "infinite",
						"editIDO(uint256,uint256)": "infinite",
						"purchaseToken(uint256)": "infinite",
						"tokenPrice()": "2474"
					}
				},
				"methodIdentifiers": {
					"BeginIDO()": "dc55920f",
					"DAZ()": "6385f2fb",
					"StopIDO()": "76d812ea",
					"USDT()": "c54e44eb",
					"claimIDOTokens(address)": "902dc8de",
					"claimPurchasedToken()": "d7997f7e",
					"editIDO(uint256,uint256)": "890e63e7",
					"purchaseToken(uint256)": "c2db2c42",
					"tokenPrice()": "7ff9b596"
				}
			},
			"storageLayout": {
				"storage": [
					{
						"astId": 10,
						"contract": "contracts/ico.sol:Amestarter",
						"label": "_status",
						"offset": 0,
						"slot": "0",
						"type": "t_uint256"
					},
					{
						"astId": 1471,
						"contract": "contracts/ico.sol:Amestarter",
						"label": "DAZ",
						"offset": 0,
						"slot": "1",
						"type": "t_address"
					},
					{
						"astId": 1473,
						"contract": "contracts/ico.sol:Amestarter",
						"label": "tokenPrice",
						"offset": 0,
						"slot": "2",
						"type": "t_uint256"
					},
					{
						"astId": 1475,
						"contract": "contracts/ico.sol:Amestarter",
						"label": "owner",
						"offset": 0,
						"slot": "3",
						"type": "t_address"
					},
					{
						"astId": 1477,
						"contract": "contracts/ico.sol:Amestarter",
						"label": "IDOStarted",
						"offset": 20,
						"slot": "3",
						"type": "t_bool"
					},
					{
						"astId": 1479,
						"contract": "contracts/ico.sol:Amestarter",
						"label": "claimStarted",
						"offset": 21,
						"slot": "3",
						"type": "t_bool"
					},
					{
						"astId": 1481,
						"contract": "contracts/ico.sol:Amestarter",
						"label": "targetSale",
						"offset": 0,
						"slot": "4",
						"type": "t_uint256"
					},
					{
						"astId": 1483,
						"contract": "contracts/ico.sol:Amestarter",
						"label": "totalRaised",
						"offset": 0,
						"slot": "5",
						"type": "t_uint256"
					},
					{
						"astId": 1487,
						"contract": "contracts/ico.sol:Amestarter",
						"label": "purchase",
						"offset": 0,
						"slot": "6",
						"type": "t_mapping(t_address,t_uint256)"
					}
				],
				"types": {
					"t_address": {
						"encoding": "inplace",
						"label": "address",
						"numberOfBytes": "20"
					},
					"t_bool": {
						"encoding": "inplace",
						"label": "bool",
						"numberOfBytes": "1"
					},
					"t_mapping(t_address,t_uint256)": {
						"encoding": "mapping",
						"key": "t_address",
						"label": "mapping(address => uint256)",
						"numberOfBytes": "32",
						"value": "t_uint256"
					},
					"t_uint256": {
						"encoding": "inplace",
						"label": "uint256",
						"numberOfBytes": "32"
					}
				}
			},
			"userdoc": {
				"kind": "user",
				"methods": {},
				"version": 1
			}
		}
	}
}