{
	"contracts/betting.sol": {
		"DistanceFiBET": {
			"abi": [
				{
					"inputs": [],
					"name": "admin",
					"outputs": [
						{
							"internalType": "address",
							"name": "",
							"type": "address"
						}
					],
					"stateMutability": "view",
					"type": "function"
				},
				{
					"inputs": [
						{
							"internalType": "string",
							"name": "_HomeTeam",
							"type": "string"
						},
						{
							"internalType": "string",
							"name": "_AwayTeam",
							"type": "string"
						},
						{
							"internalType": "uint256",
							"name": "_startTime",
							"type": "uint256"
						}
					],
					"name": "instantiateMatch",
					"outputs": [
						{
							"internalType": "bool",
							"name": "",
							"type": "bool"
						}
					],
					"stateMutability": "nonpayable",
					"type": "function"
				}
			],
			"devdoc": {
				"kind": "dev",
				"methods": {},
				"version": 1
			},
			"evm": {
				"assembly": "    /* \"contracts/betting.sol\":63:1012  contract DistanceFiBET{... */\n  mstore(0x40, 0x80)\n  callvalue\n  dup1\n  iszero\n  tag_1\n  jumpi\n  0x00\n  dup1\n  revert\ntag_1:\n  pop\n  dataSize(sub_0)\n  dup1\n  dataOffset(sub_0)\n  0x00\n  codecopy\n  0x00\n  return\nstop\n\nsub_0: assembly {\n        /* \"contracts/betting.sol\":63:1012  contract DistanceFiBET{... */\n      mstore(0x40, 0x80)\n      callvalue\n      dup1\n      iszero\n      tag_1\n      jumpi\n      0x00\n      dup1\n      revert\n    tag_1:\n      pop\n      jumpi(tag_2, lt(calldatasize, 0x04))\n      shr(0xe0, calldataload(0x00))\n      dup1\n      0xbc9e6e2c\n      eq\n      tag_3\n      jumpi\n      dup1\n      0xf851a440\n      eq\n      tag_4\n      jumpi\n    tag_2:\n      0x00\n      dup1\n      revert\n        /* \"contracts/betting.sol\":383:763  function instantiateMatch(string calldata _HomeTeam, string calldata _AwayTeam, uint _startTime) external returns (bool) {... */\n    tag_3:\n      tag_5\n      0x04\n      dup1\n      calldatasize\n      sub\n      dup2\n      add\n      swap1\n      tag_6\n      swap2\n      swap1\n      tag_7\n      jump\t// in\n    tag_6:\n      tag_8\n      jump\t// in\n    tag_5:\n      mload(0x40)\n      tag_9\n      swap2\n      swap1\n      tag_10\n      jump\t// in\n    tag_9:\n      mload(0x40)\n      dup1\n      swap2\n      sub\n      swap1\n      return\n        /* \"contracts/betting.sol\":94:114  address public admin */\n    tag_4:\n      tag_11\n      tag_12\n      jump\t// in\n    tag_11:\n      mload(0x40)\n      tag_13\n      swap2\n      swap1\n      tag_14\n      jump\t// in\n    tag_13:\n      mload(0x40)\n      dup1\n      swap2\n      sub\n      swap1\n      return\n        /* \"contracts/betting.sol\":383:763  function instantiateMatch(string calldata _HomeTeam, string calldata _AwayTeam, uint _startTime) external returns (bool) {... */\n    tag_8:\n        /* \"contracts/betting.sol\":498:502  bool */\n      0x00\n        /* \"contracts/betting.sol\":532:542  msg.sender */\n      caller\n        /* \"contracts/betting.sol\":523:542  admin == msg.sender */\n      0xffffffffffffffffffffffffffffffffffffffff\n      and\n        /* \"contracts/betting.sol\":523:528  admin */\n      0x00\n      dup1\n      sload\n      swap1\n      0x0100\n      exp\n      swap1\n      div\n      0xffffffffffffffffffffffffffffffffffffffff\n      and\n        /* \"contracts/betting.sol\":523:542  admin == msg.sender */\n      0xffffffffffffffffffffffffffffffffffffffff\n      and\n      eq\n        /* \"contracts/betting.sol\":515:556  require(admin == msg.sender, \"Not Owner\") */\n      tag_16\n      jumpi\n      mload(0x40)\n      0x08c379a000000000000000000000000000000000000000000000000000000000\n      dup2\n      mstore\n      0x04\n      add\n      tag_17\n      swap1\n      tag_18\n      jump\t// in\n    tag_17:\n      mload(0x40)\n      dup1\n      swap2\n      sub\n      swap1\n      revert\n    tag_16:\n        /* \"contracts/betting.sol\":567:580  uint matchEnd */\n      0x00\n        /* \"contracts/betting.sol\":596:606  95 minutes */\n      0x1644\n        /* \"contracts/betting.sol\":583:593  _startTime */\n      dup4\n        /* \"contracts/betting.sol\":583:606  _startTime + 95 minutes */\n      tag_19\n      swap2\n      swap1\n      tag_20\n      jump\t// in\n    tag_19:\n        /* \"contracts/betting.sol\":567:606  uint matchEnd = _startTime + 95 minutes */\n      swap1\n      pop\n        /* \"contracts/betting.sol\":617:647  Results memory startingResults */\n      0x00\n        /* \"contracts/betting.sol\":650:663  Results(0, 0) */\n      mload(0x40)\n      dup1\n      0x40\n      add\n      0x40\n      mstore\n      dup1\n        /* \"contracts/betting.sol\":658:659  0 */\n      0x00\n        /* \"contracts/betting.sol\":650:663  Results(0, 0) */\n      dup2\n      mstore\n      0x20\n      add\n        /* \"contracts/betting.sol\":661:662  0 */\n      0x00\n        /* \"contracts/betting.sol\":650:663  Results(0, 0) */\n      dup2\n      mstore\n      pop\n        /* \"contracts/betting.sol\":617:663  Results memory startingResults = Results(0, 0) */\n      swap1\n      pop\n        /* \"contracts/betting.sol\":674:682  allMatch */\n      0x01\n        /* \"contracts/betting.sol\":688:754  Match(_HomeTeam, _AwayTeam, _startTime, matchEnd, startingResults) */\n      mload(0x40)\n      dup1\n      0xa0\n      add\n      0x40\n      mstore\n      dup1\n        /* \"contracts/betting.sol\":694:703  _HomeTeam */\n      dup11\n      dup11\n        /* \"contracts/betting.sol\":688:754  Match(_HomeTeam, _AwayTeam, _startTime, matchEnd, startingResults) */\n      dup1\n      dup1\n      0x1f\n      add\n      0x20\n      dup1\n      swap2\n      div\n      mul\n      0x20\n      add\n      mload(0x40)\n      swap1\n      dup2\n      add\n      0x40\n      mstore\n      dup1\n      swap4\n      swap3\n      swap2\n      swap1\n      dup2\n      dup2\n      mstore\n      0x20\n      add\n      dup4\n      dup4\n      dup1\n      dup3\n      dup5\n      calldatacopy\n      0x00\n      dup2\n      dup5\n      add\n      mstore\n      not(0x1f)\n      0x1f\n      dup3\n      add\n      and\n      swap1\n      pop\n      dup1\n      dup4\n      add\n      swap3\n      pop\n      pop\n      pop\n      pop\n      pop\n      pop\n      pop\n      dup2\n      mstore\n      0x20\n      add\n        /* \"contracts/betting.sol\":705:714  _AwayTeam */\n      dup9\n      dup9\n        /* \"contracts/betting.sol\":688:754  Match(_HomeTeam, _AwayTeam, _startTime, matchEnd, startingResults) */\n      dup1\n      dup1\n      0x1f\n      add\n      0x20\n      dup1\n      swap2\n      div\n      mul\n      0x20\n      add\n      mload(0x40)\n      swap1\n      dup2\n      add\n      0x40\n      mstore\n      dup1\n      swap4\n      swap3\n      swap2\n      swap1\n      dup2\n      dup2\n      mstore\n      0x20\n      add\n      dup4\n      dup4\n      dup1\n      dup3\n      dup5\n      calldatacopy\n      0x00\n      dup2\n      dup5\n      add\n      mstore\n      not(0x1f)\n      0x1f\n      dup3\n      add\n      and\n      swap1\n      pop\n      dup1\n      dup4\n      add\n      swap3\n      pop\n      pop\n      pop\n      pop\n      pop\n      pop\n      pop\n      dup2\n      mstore\n      0x20\n      add\n        /* \"contracts/betting.sol\":716:726  _startTime */\n      dup7\n        /* \"contracts/betting.sol\":688:754  Match(_HomeTeam, _AwayTeam, _startTime, matchEnd, startingResults) */\n      dup2\n      mstore\n      0x20\n      add\n        /* \"contracts/betting.sol\":728:736  matchEnd */\n      dup5\n        /* \"contracts/betting.sol\":688:754  Match(_HomeTeam, _AwayTeam, _startTime, matchEnd, startingResults) */\n      dup2\n      mstore\n      0x20\n      add\n        /* \"contracts/betting.sol\":738:753  startingResults */\n      dup4\n        /* \"contracts/betting.sol\":688:754  Match(_HomeTeam, _AwayTeam, _startTime, matchEnd, startingResults) */\n      dup2\n      mstore\n      pop\n        /* \"contracts/betting.sol\":674:755  allMatch.push(Match(_HomeTeam, _AwayTeam, _startTime, matchEnd, startingResults)) */\n      swap1\n      dup1\n      0x01\n      dup2\n      sload\n      add\n      dup1\n      dup3\n      sstore\n      dup1\n      swap2\n      pop\n      pop\n      0x01\n      swap1\n      sub\n      swap1\n      0x00\n      mstore\n      keccak256(0x00, 0x20)\n      swap1\n      0x06\n      mul\n      add\n      0x00\n      swap1\n      swap2\n      swap1\n      swap2\n      swap1\n      swap2\n      pop\n      0x00\n      dup3\n      add\n      mload\n      dup2\n      0x00\n      add\n      swap1\n      dup2\n      tag_22\n      swap2\n      swap1\n      tag_23\n      jump\t// in\n    tag_22:\n      pop\n      0x20\n      dup3\n      add\n      mload\n      dup2\n      0x01\n      add\n      swap1\n      dup2\n      tag_24\n      swap2\n      swap1\n      tag_23\n      jump\t// in\n    tag_24:\n      pop\n      0x40\n      dup3\n      add\n      mload\n      dup2\n      0x02\n      add\n      sstore\n      0x60\n      dup3\n      add\n      mload\n      dup2\n      0x03\n      add\n      sstore\n      0x80\n      dup3\n      add\n      mload\n      dup2\n      0x04\n      add\n      0x00\n      dup3\n      add\n      mload\n      dup2\n      0x00\n      add\n      sstore\n      0x20\n      dup3\n      add\n      mload\n      dup2\n      0x01\n      add\n      sstore\n      pop\n      pop\n      pop\n      pop\n        /* \"contracts/betting.sol\":504:763  {... */\n      pop\n      pop\n        /* \"contracts/betting.sol\":383:763  function instantiateMatch(string calldata _HomeTeam, string calldata _AwayTeam, uint _startTime) external returns (bool) {... */\n      swap6\n      swap5\n      pop\n      pop\n      pop\n      pop\n      pop\n      jump\t// out\n        /* \"contracts/betting.sol\":94:114  address public admin */\n    tag_12:\n      0x00\n      dup1\n      sload\n      swap1\n      0x0100\n      exp\n      swap1\n      div\n      0xffffffffffffffffffffffffffffffffffffffff\n      and\n      dup2\n      jump\t// out\n        /* \"#utility.yul\":88:205   */\n    tag_26:\n        /* \"#utility.yul\":197:198   */\n      0x00\n        /* \"#utility.yul\":194:195   */\n      dup1\n        /* \"#utility.yul\":187:199   */\n      revert\n        /* \"#utility.yul\":211:328   */\n    tag_27:\n        /* \"#utility.yul\":320:321   */\n      0x00\n        /* \"#utility.yul\":317:318   */\n      dup1\n        /* \"#utility.yul\":310:322   */\n      revert\n        /* \"#utility.yul\":334:451   */\n    tag_28:\n        /* \"#utility.yul\":443:444   */\n      0x00\n        /* \"#utility.yul\":440:441   */\n      dup1\n        /* \"#utility.yul\":433:445   */\n      revert\n        /* \"#utility.yul\":457:574   */\n    tag_29:\n        /* \"#utility.yul\":566:567   */\n      0x00\n        /* \"#utility.yul\":563:564   */\n      dup1\n        /* \"#utility.yul\":556:568   */\n      revert\n        /* \"#utility.yul\":580:697   */\n    tag_30:\n        /* \"#utility.yul\":689:690   */\n      0x00\n        /* \"#utility.yul\":686:687   */\n      dup1\n        /* \"#utility.yul\":679:691   */\n      revert\n        /* \"#utility.yul\":717:1270   */\n    tag_31:\n        /* \"#utility.yul\":775:783   */\n      0x00\n        /* \"#utility.yul\":785:791   */\n      dup1\n        /* \"#utility.yul\":835:838   */\n      dup4\n        /* \"#utility.yul\":828:832   */\n      0x1f\n        /* \"#utility.yul\":820:826   */\n      dup5\n        /* \"#utility.yul\":816:833   */\n      add\n        /* \"#utility.yul\":812:839   */\n      slt\n        /* \"#utility.yul\":802:924   */\n      tag_71\n      jumpi\n        /* \"#utility.yul\":843:922   */\n      tag_72\n      tag_28\n      jump\t// in\n    tag_72:\n        /* \"#utility.yul\":802:924   */\n    tag_71:\n        /* \"#utility.yul\":956:962   */\n      dup3\n        /* \"#utility.yul\":943:963   */\n      calldataload\n        /* \"#utility.yul\":933:963   */\n      swap1\n      pop\n        /* \"#utility.yul\":986:1004   */\n      0xffffffffffffffff\n        /* \"#utility.yul\":978:984   */\n      dup2\n        /* \"#utility.yul\":975:1005   */\n      gt\n        /* \"#utility.yul\":972:1089   */\n      iszero\n      tag_73\n      jumpi\n        /* \"#utility.yul\":1008:1087   */\n      tag_74\n      tag_29\n      jump\t// in\n    tag_74:\n        /* \"#utility.yul\":972:1089   */\n    tag_73:\n        /* \"#utility.yul\":1122:1126   */\n      0x20\n        /* \"#utility.yul\":1114:1120   */\n      dup4\n        /* \"#utility.yul\":1110:1127   */\n      add\n        /* \"#utility.yul\":1098:1127   */\n      swap2\n      pop\n        /* \"#utility.yul\":1176:1179   */\n      dup4\n        /* \"#utility.yul\":1168:1172   */\n      0x01\n        /* \"#utility.yul\":1160:1166   */\n      dup3\n        /* \"#utility.yul\":1156:1173   */\n      mul\n        /* \"#utility.yul\":1146:1154   */\n      dup4\n        /* \"#utility.yul\":1142:1174   */\n      add\n        /* \"#utility.yul\":1139:1180   */\n      gt\n        /* \"#utility.yul\":1136:1264   */\n      iszero\n      tag_75\n      jumpi\n        /* \"#utility.yul\":1183:1262   */\n      tag_76\n      tag_30\n      jump\t// in\n    tag_76:\n        /* \"#utility.yul\":1136:1264   */\n    tag_75:\n        /* \"#utility.yul\":717:1270   */\n      swap3\n      pop\n      swap3\n      swap1\n      pop\n      jump\t// out\n        /* \"#utility.yul\":1276:1353   */\n    tag_32:\n        /* \"#utility.yul\":1313:1320   */\n      0x00\n        /* \"#utility.yul\":1342:1347   */\n      dup2\n        /* \"#utility.yul\":1331:1347   */\n      swap1\n      pop\n        /* \"#utility.yul\":1276:1353   */\n      swap2\n      swap1\n      pop\n      jump\t// out\n        /* \"#utility.yul\":1359:1481   */\n    tag_33:\n        /* \"#utility.yul\":1432:1456   */\n      tag_79\n        /* \"#utility.yul\":1450:1455   */\n      dup2\n        /* \"#utility.yul\":1432:1456   */\n      tag_32\n      jump\t// in\n    tag_79:\n        /* \"#utility.yul\":1425:1430   */\n      dup2\n        /* \"#utility.yul\":1422:1457   */\n      eq\n        /* \"#utility.yul\":1412:1475   */\n      tag_80\n      jumpi\n        /* \"#utility.yul\":1471:1472   */\n      0x00\n        /* \"#utility.yul\":1468:1469   */\n      dup1\n        /* \"#utility.yul\":1461:1473   */\n      revert\n        /* \"#utility.yul\":1412:1475   */\n    tag_80:\n        /* \"#utility.yul\":1359:1481   */\n      pop\n      jump\t// out\n        /* \"#utility.yul\":1487:1626   */\n    tag_34:\n        /* \"#utility.yul\":1533:1538   */\n      0x00\n        /* \"#utility.yul\":1571:1577   */\n      dup2\n        /* \"#utility.yul\":1558:1578   */\n      calldataload\n        /* \"#utility.yul\":1549:1578   */\n      swap1\n      pop\n        /* \"#utility.yul\":1587:1620   */\n      tag_82\n        /* \"#utility.yul\":1614:1619   */\n      dup2\n        /* \"#utility.yul\":1587:1620   */\n      tag_33\n      jump\t// in\n    tag_82:\n        /* \"#utility.yul\":1487:1626   */\n      swap3\n      swap2\n      pop\n      pop\n      jump\t// out\n        /* \"#utility.yul\":1632:2651   */\n    tag_7:\n        /* \"#utility.yul\":1733:1739   */\n      0x00\n        /* \"#utility.yul\":1741:1747   */\n      dup1\n        /* \"#utility.yul\":1749:1755   */\n      0x00\n        /* \"#utility.yul\":1757:1763   */\n      dup1\n        /* \"#utility.yul\":1765:1771   */\n      0x00\n        /* \"#utility.yul\":1814:1816   */\n      0x60\n        /* \"#utility.yul\":1802:1811   */\n      dup7\n        /* \"#utility.yul\":1793:1800   */\n      dup9\n        /* \"#utility.yul\":1789:1812   */\n      sub\n        /* \"#utility.yul\":1785:1817   */\n      slt\n        /* \"#utility.yul\":1782:1901   */\n      iszero\n      tag_84\n      jumpi\n        /* \"#utility.yul\":1820:1899   */\n      tag_85\n      tag_26\n      jump\t// in\n    tag_85:\n        /* \"#utility.yul\":1782:1901   */\n    tag_84:\n        /* \"#utility.yul\":1968:1969   */\n      0x00\n        /* \"#utility.yul\":1957:1966   */\n      dup7\n        /* \"#utility.yul\":1953:1970   */\n      add\n        /* \"#utility.yul\":1940:1971   */\n      calldataload\n        /* \"#utility.yul\":1998:2016   */\n      0xffffffffffffffff\n        /* \"#utility.yul\":1990:1996   */\n      dup2\n        /* \"#utility.yul\":1987:2017   */\n      gt\n        /* \"#utility.yul\":1984:2101   */\n      iszero\n      tag_86\n      jumpi\n        /* \"#utility.yul\":2020:2099   */\n      tag_87\n      tag_27\n      jump\t// in\n    tag_87:\n        /* \"#utility.yul\":1984:2101   */\n    tag_86:\n        /* \"#utility.yul\":2133:2198   */\n      tag_88\n        /* \"#utility.yul\":2190:2197   */\n      dup9\n        /* \"#utility.yul\":2181:2187   */\n      dup3\n        /* \"#utility.yul\":2170:2179   */\n      dup10\n        /* \"#utility.yul\":2166:2188   */\n      add\n        /* \"#utility.yul\":2133:2198   */\n      tag_31\n      jump\t// in\n    tag_88:\n        /* \"#utility.yul\":2115:2198   */\n      swap6\n      pop\n      swap6\n      pop\n        /* \"#utility.yul\":1911:2208   */\n      pop\n        /* \"#utility.yul\":2275:2277   */\n      0x20\n        /* \"#utility.yul\":2264:2273   */\n      dup7\n        /* \"#utility.yul\":2260:2278   */\n      add\n        /* \"#utility.yul\":2247:2279   */\n      calldataload\n        /* \"#utility.yul\":2306:2324   */\n      0xffffffffffffffff\n        /* \"#utility.yul\":2298:2304   */\n      dup2\n        /* \"#utility.yul\":2295:2325   */\n      gt\n        /* \"#utility.yul\":2292:2409   */\n      iszero\n      tag_89\n      jumpi\n        /* \"#utility.yul\":2328:2407   */\n      tag_90\n      tag_27\n      jump\t// in\n    tag_90:\n        /* \"#utility.yul\":2292:2409   */\n    tag_89:\n        /* \"#utility.yul\":2441:2506   */\n      tag_91\n        /* \"#utility.yul\":2498:2505   */\n      dup9\n        /* \"#utility.yul\":2489:2495   */\n      dup3\n        /* \"#utility.yul\":2478:2487   */\n      dup10\n        /* \"#utility.yul\":2474:2496   */\n      add\n        /* \"#utility.yul\":2441:2506   */\n      tag_31\n      jump\t// in\n    tag_91:\n        /* \"#utility.yul\":2423:2506   */\n      swap4\n      pop\n      swap4\n      pop\n        /* \"#utility.yul\":2218:2516   */\n      pop\n        /* \"#utility.yul\":2555:2557   */\n      0x40\n        /* \"#utility.yul\":2581:2634   */\n      tag_92\n        /* \"#utility.yul\":2626:2633   */\n      dup9\n        /* \"#utility.yul\":2617:2623   */\n      dup3\n        /* \"#utility.yul\":2606:2615   */\n      dup10\n        /* \"#utility.yul\":2602:2624   */\n      add\n        /* \"#utility.yul\":2581:2634   */\n      tag_34\n      jump\t// in\n    tag_92:\n        /* \"#utility.yul\":2571:2634   */\n      swap2\n      pop\n        /* \"#utility.yul\":2526:2644   */\n      pop\n        /* \"#utility.yul\":1632:2651   */\n      swap3\n      swap6\n      pop\n      swap3\n      swap6\n      swap1\n      swap4\n      pop\n      jump\t// out\n        /* \"#utility.yul\":2657:2747   */\n    tag_35:\n        /* \"#utility.yul\":2691:2698   */\n      0x00\n        /* \"#utility.yul\":2734:2739   */\n      dup2\n        /* \"#utility.yul\":2727:2740   */\n      iszero\n        /* \"#utility.yul\":2720:2741   */\n      iszero\n        /* \"#utility.yul\":2709:2741   */\n      swap1\n      pop\n        /* \"#utility.yul\":2657:2747   */\n      swap2\n      swap1\n      pop\n      jump\t// out\n        /* \"#utility.yul\":2753:2862   */\n    tag_36:\n        /* \"#utility.yul\":2834:2855   */\n      tag_95\n        /* \"#utility.yul\":2849:2854   */\n      dup2\n        /* \"#utility.yul\":2834:2855   */\n      tag_35\n      jump\t// in\n    tag_95:\n        /* \"#utility.yul\":2829:2832   */\n      dup3\n        /* \"#utility.yul\":2822:2856   */\n      mstore\n        /* \"#utility.yul\":2753:2862   */\n      pop\n      pop\n      jump\t// out\n        /* \"#utility.yul\":2868:3078   */\n    tag_10:\n        /* \"#utility.yul\":2955:2959   */\n      0x00\n        /* \"#utility.yul\":2993:2995   */\n      0x20\n        /* \"#utility.yul\":2982:2991   */\n      dup3\n        /* \"#utility.yul\":2978:2996   */\n      add\n        /* \"#utility.yul\":2970:2996   */\n      swap1\n      pop\n        /* \"#utility.yul\":3006:3071   */\n      tag_97\n        /* \"#utility.yul\":3068:3069   */\n      0x00\n        /* \"#utility.yul\":3057:3066   */\n      dup4\n        /* \"#utility.yul\":3053:3070   */\n      add\n        /* \"#utility.yul\":3044:3050   */\n      dup5\n        /* \"#utility.yul\":3006:3071   */\n      tag_36\n      jump\t// in\n    tag_97:\n        /* \"#utility.yul\":2868:3078   */\n      swap3\n      swap2\n      pop\n      pop\n      jump\t// out\n        /* \"#utility.yul\":3084:3210   */\n    tag_37:\n        /* \"#utility.yul\":3121:3128   */\n      0x00\n        /* \"#utility.yul\":3161:3203   */\n      0xffffffffffffffffffffffffffffffffffffffff\n        /* \"#utility.yul\":3154:3159   */\n      dup3\n        /* \"#utility.yul\":3150:3204   */\n      and\n        /* \"#utility.yul\":3139:3204   */\n      swap1\n      pop\n        /* \"#utility.yul\":3084:3210   */\n      swap2\n      swap1\n      pop\n      jump\t// out\n        /* \"#utility.yul\":3216:3312   */\n    tag_38:\n        /* \"#utility.yul\":3253:3260   */\n      0x00\n        /* \"#utility.yul\":3282:3306   */\n      tag_100\n        /* \"#utility.yul\":3300:3305   */\n      dup3\n        /* \"#utility.yul\":3282:3306   */\n      tag_37\n      jump\t// in\n    tag_100:\n        /* \"#utility.yul\":3271:3306   */\n      swap1\n      pop\n        /* \"#utility.yul\":3216:3312   */\n      swap2\n      swap1\n      pop\n      jump\t// out\n        /* \"#utility.yul\":3318:3436   */\n    tag_39:\n        /* \"#utility.yul\":3405:3429   */\n      tag_102\n        /* \"#utility.yul\":3423:3428   */\n      dup2\n        /* \"#utility.yul\":3405:3429   */\n      tag_38\n      jump\t// in\n    tag_102:\n        /* \"#utility.yul\":3400:3403   */\n      dup3\n        /* \"#utility.yul\":3393:3430   */\n      mstore\n        /* \"#utility.yul\":3318:3436   */\n      pop\n      pop\n      jump\t// out\n        /* \"#utility.yul\":3442:3664   */\n    tag_14:\n        /* \"#utility.yul\":3535:3539   */\n      0x00\n        /* \"#utility.yul\":3573:3575   */\n      0x20\n        /* \"#utility.yul\":3562:3571   */\n      dup3\n        /* \"#utility.yul\":3558:3576   */\n      add\n        /* \"#utility.yul\":3550:3576   */\n      swap1\n      pop\n        /* \"#utility.yul\":3586:3657   */\n      tag_104\n        /* \"#utility.yul\":3654:3655   */\n      0x00\n        /* \"#utility.yul\":3643:3652   */\n      dup4\n        /* \"#utility.yul\":3639:3656   */\n      add\n        /* \"#utility.yul\":3630:3636   */\n      dup5\n        /* \"#utility.yul\":3586:3657   */\n      tag_39\n      jump\t// in\n    tag_104:\n        /* \"#utility.yul\":3442:3664   */\n      swap3\n      swap2\n      pop\n      pop\n      jump\t// out\n        /* \"#utility.yul\":3670:3839   */\n    tag_40:\n        /* \"#utility.yul\":3754:3765   */\n      0x00\n        /* \"#utility.yul\":3788:3794   */\n      dup3\n        /* \"#utility.yul\":3783:3786   */\n      dup3\n        /* \"#utility.yul\":3776:3795   */\n      mstore\n        /* \"#utility.yul\":3828:3832   */\n      0x20\n        /* \"#utility.yul\":3823:3826   */\n      dup3\n        /* \"#utility.yul\":3819:3833   */\n      add\n        /* \"#utility.yul\":3804:3833   */\n      swap1\n      pop\n        /* \"#utility.yul\":3670:3839   */\n      swap3\n      swap2\n      pop\n      pop\n      jump\t// out\n        /* \"#utility.yul\":3845:4004   */\n    tag_41:\n        /* \"#utility.yul\":3985:3996   */\n      0x4e6f74204f776e65720000000000000000000000000000000000000000000000\n        /* \"#utility.yul\":3981:3982   */\n      0x00\n        /* \"#utility.yul\":3973:3979   */\n      dup3\n        /* \"#utility.yul\":3969:3983   */\n      add\n        /* \"#utility.yul\":3962:3997   */\n      mstore\n        /* \"#utility.yul\":3845:4004   */\n      pop\n      jump\t// out\n        /* \"#utility.yul\":4010:4375   */\n    tag_42:\n        /* \"#utility.yul\":4152:4155   */\n      0x00\n        /* \"#utility.yul\":4173:4239   */\n      tag_108\n        /* \"#utility.yul\":4237:4238   */\n      0x09\n        /* \"#utility.yul\":4232:4235   */\n      dup4\n        /* \"#utility.yul\":4173:4239   */\n      tag_40\n      jump\t// in\n    tag_108:\n        /* \"#utility.yul\":4166:4239   */\n      swap2\n      pop\n        /* \"#utility.yul\":4248:4341   */\n      tag_109\n        /* \"#utility.yul\":4337:4340   */\n      dup3\n        /* \"#utility.yul\":4248:4341   */\n      tag_41\n      jump\t// in\n    tag_109:\n        /* \"#utility.yul\":4366:4368   */\n      0x20\n        /* \"#utility.yul\":4361:4364   */\n      dup3\n        /* \"#utility.yul\":4357:4369   */\n      add\n        /* \"#utility.yul\":4350:4369   */\n      swap1\n      pop\n        /* \"#utility.yul\":4010:4375   */\n      swap2\n      swap1\n      pop\n      jump\t// out\n        /* \"#utility.yul\":4381:4800   */\n    tag_18:\n        /* \"#utility.yul\":4547:4551   */\n      0x00\n        /* \"#utility.yul\":4585:4587   */\n      0x20\n        /* \"#utility.yul\":4574:4583   */\n      dup3\n        /* \"#utility.yul\":4570:4588   */\n      add\n        /* \"#utility.yul\":4562:4588   */\n      swap1\n      pop\n        /* \"#utility.yul\":4634:4643   */\n      dup2\n        /* \"#utility.yul\":4628:4632   */\n      dup2\n        /* \"#utility.yul\":4624:4644   */\n      sub\n        /* \"#utility.yul\":4620:4621   */\n      0x00\n        /* \"#utility.yul\":4609:4618   */\n      dup4\n        /* \"#utility.yul\":4605:4622   */\n      add\n        /* \"#utility.yul\":4598:4645   */\n      mstore\n        /* \"#utility.yul\":4662:4793   */\n      tag_111\n        /* \"#utility.yul\":4788:4792   */\n      dup2\n        /* \"#utility.yul\":4662:4793   */\n      tag_42\n      jump\t// in\n    tag_111:\n        /* \"#utility.yul\":4654:4793   */\n      swap1\n      pop\n        /* \"#utility.yul\":4381:4800   */\n      swap2\n      swap1\n      pop\n      jump\t// out\n        /* \"#utility.yul\":4806:4986   */\n    tag_43:\n        /* \"#utility.yul\":4854:4931   */\n      0x4e487b7100000000000000000000000000000000000000000000000000000000\n        /* \"#utility.yul\":4851:4852   */\n      0x00\n        /* \"#utility.yul\":4844:4932   */\n      mstore\n        /* \"#utility.yul\":4951:4955   */\n      0x11\n        /* \"#utility.yul\":4948:4949   */\n      0x04\n        /* \"#utility.yul\":4941:4956   */\n      mstore\n        /* \"#utility.yul\":4975:4979   */\n      0x24\n        /* \"#utility.yul\":4972:4973   */\n      0x00\n        /* \"#utility.yul\":4965:4980   */\n      revert\n        /* \"#utility.yul\":4992:5183   */\n    tag_20:\n        /* \"#utility.yul\":5032:5035   */\n      0x00\n        /* \"#utility.yul\":5051:5071   */\n      tag_114\n        /* \"#utility.yul\":5069:5070   */\n      dup3\n        /* \"#utility.yul\":5051:5071   */\n      tag_32\n      jump\t// in\n    tag_114:\n        /* \"#utility.yul\":5046:5071   */\n      swap2\n      pop\n        /* \"#utility.yul\":5085:5105   */\n      tag_115\n        /* \"#utility.yul\":5103:5104   */\n      dup4\n        /* \"#utility.yul\":5085:5105   */\n      tag_32\n      jump\t// in\n    tag_115:\n        /* \"#utility.yul\":5080:5105   */\n      swap3\n      pop\n        /* \"#utility.yul\":5128:5129   */\n      dup3\n        /* \"#utility.yul\":5125:5126   */\n      dup3\n        /* \"#utility.yul\":5121:5130   */\n      add\n        /* \"#utility.yul\":5114:5130   */\n      swap1\n      pop\n        /* \"#utility.yul\":5149:5152   */\n      dup1\n        /* \"#utility.yul\":5146:5147   */\n      dup3\n        /* \"#utility.yul\":5143:5153   */\n      gt\n        /* \"#utility.yul\":5140:5176   */\n      iszero\n      tag_116\n      jumpi\n        /* \"#utility.yul\":5156:5174   */\n      tag_117\n      tag_43\n      jump\t// in\n    tag_117:\n        /* \"#utility.yul\":5140:5176   */\n    tag_116:\n        /* \"#utility.yul\":4992:5183   */\n      swap3\n      swap2\n      pop\n      pop\n      jump\t// out\n        /* \"#utility.yul\":5189:5288   */\n    tag_44:\n        /* \"#utility.yul\":5241:5247   */\n      0x00\n        /* \"#utility.yul\":5275:5280   */\n      dup2\n        /* \"#utility.yul\":5269:5281   */\n      mload\n        /* \"#utility.yul\":5259:5281   */\n      swap1\n      pop\n        /* \"#utility.yul\":5189:5288   */\n      swap2\n      swap1\n      pop\n      jump\t// out\n        /* \"#utility.yul\":5294:5474   */\n    tag_45:\n        /* \"#utility.yul\":5342:5419   */\n      0x4e487b7100000000000000000000000000000000000000000000000000000000\n        /* \"#utility.yul\":5339:5340   */\n      0x00\n        /* \"#utility.yul\":5332:5420   */\n      mstore\n        /* \"#utility.yul\":5439:5443   */\n      0x41\n        /* \"#utility.yul\":5436:5437   */\n      0x04\n        /* \"#utility.yul\":5429:5444   */\n      mstore\n        /* \"#utility.yul\":5463:5467   */\n      0x24\n        /* \"#utility.yul\":5460:5461   */\n      0x00\n        /* \"#utility.yul\":5453:5468   */\n      revert\n        /* \"#utility.yul\":5480:5660   */\n    tag_46:\n        /* \"#utility.yul\":5528:5605   */\n      0x4e487b7100000000000000000000000000000000000000000000000000000000\n        /* \"#utility.yul\":5525:5526   */\n      0x00\n        /* \"#utility.yul\":5518:5606   */\n      mstore\n        /* \"#utility.yul\":5625:5629   */\n      0x22\n        /* \"#utility.yul\":5622:5623   */\n      0x04\n        /* \"#utility.yul\":5615:5630   */\n      mstore\n        /* \"#utility.yul\":5649:5653   */\n      0x24\n        /* \"#utility.yul\":5646:5647   */\n      0x00\n        /* \"#utility.yul\":5639:5654   */\n      revert\n        /* \"#utility.yul\":5666:5986   */\n    tag_47:\n        /* \"#utility.yul\":5710:5716   */\n      0x00\n        /* \"#utility.yul\":5747:5748   */\n      0x02\n        /* \"#utility.yul\":5741:5745   */\n      dup3\n        /* \"#utility.yul\":5737:5749   */\n      div\n        /* \"#utility.yul\":5727:5749   */\n      swap1\n      pop\n        /* \"#utility.yul\":5794:5795   */\n      0x01\n        /* \"#utility.yul\":5788:5792   */\n      dup3\n        /* \"#utility.yul\":5784:5796   */\n      and\n        /* \"#utility.yul\":5815:5833   */\n      dup1\n        /* \"#utility.yul\":5805:5886   */\n      tag_122\n      jumpi\n        /* \"#utility.yul\":5871:5875   */\n      0x7f\n        /* \"#utility.yul\":5863:5869   */\n      dup3\n        /* \"#utility.yul\":5859:5876   */\n      and\n        /* \"#utility.yul\":5849:5876   */\n      swap2\n      pop\n        /* \"#utility.yul\":5805:5886   */\n    tag_122:\n        /* \"#utility.yul\":5933:5935   */\n      0x20\n        /* \"#utility.yul\":5925:5931   */\n      dup3\n        /* \"#utility.yul\":5922:5936   */\n      lt\n        /* \"#utility.yul\":5902:5920   */\n      dup2\n        /* \"#utility.yul\":5899:5937   */\n      sub\n        /* \"#utility.yul\":5896:5980   */\n      tag_123\n      jumpi\n        /* \"#utility.yul\":5952:5970   */\n      tag_124\n      tag_46\n      jump\t// in\n    tag_124:\n        /* \"#utility.yul\":5896:5980   */\n    tag_123:\n        /* \"#utility.yul\":5717:5986   */\n      pop\n        /* \"#utility.yul\":5666:5986   */\n      swap2\n      swap1\n      pop\n      jump\t// out\n        /* \"#utility.yul\":5992:6133   */\n    tag_48:\n        /* \"#utility.yul\":6041:6045   */\n      0x00\n        /* \"#utility.yul\":6064:6067   */\n      dup2\n        /* \"#utility.yul\":6056:6067   */\n      swap1\n      pop\n        /* \"#utility.yul\":6087:6090   */\n      dup2\n        /* \"#utility.yul\":6084:6085   */\n      0x00\n        /* \"#utility.yul\":6077:6091   */\n      mstore\n        /* \"#utility.yul\":6121:6125   */\n      0x20\n        /* \"#utility.yul\":6118:6119   */\n      0x00\n        /* \"#utility.yul\":6108:6126   */\n      keccak256\n        /* \"#utility.yul\":6100:6126   */\n      swap1\n      pop\n        /* \"#utility.yul\":5992:6133   */\n      swap2\n      swap1\n      pop\n      jump\t// out\n        /* \"#utility.yul\":6139:6232   */\n    tag_49:\n        /* \"#utility.yul\":6176:6182   */\n      0x00\n        /* \"#utility.yul\":6223:6225   */\n      0x20\n        /* \"#utility.yul\":6218:6220   */\n      0x1f\n        /* \"#utility.yul\":6211:6216   */\n      dup4\n        /* \"#utility.yul\":6207:6221   */\n      add\n        /* \"#utility.yul\":6203:6226   */\n      div\n        /* \"#utility.yul\":6193:6226   */\n      swap1\n      pop\n        /* \"#utility.yul\":6139:6232   */\n      swap2\n      swap1\n      pop\n      jump\t// out\n        /* \"#utility.yul\":6238:6345   */\n    tag_50:\n        /* \"#utility.yul\":6282:6290   */\n      0x00\n        /* \"#utility.yul\":6332:6337   */\n      dup3\n        /* \"#utility.yul\":6326:6330   */\n      dup3\n        /* \"#utility.yul\":6322:6338   */\n      shl\n        /* \"#utility.yul\":6301:6338   */\n      swap1\n      pop\n        /* \"#utility.yul\":6238:6345   */\n      swap3\n      swap2\n      pop\n      pop\n      jump\t// out\n        /* \"#utility.yul\":6351:6744   */\n    tag_51:\n        /* \"#utility.yul\":6420:6426   */\n      0x00\n        /* \"#utility.yul\":6470:6471   */\n      0x08\n        /* \"#utility.yul\":6458:6468   */\n      dup4\n        /* \"#utility.yul\":6454:6472   */\n      mul\n        /* \"#utility.yul\":6493:6590   */\n      tag_129\n        /* \"#utility.yul\":6523:6589   */\n      0xffffffffffffffffffffffffffffffffffffffffffffffffffffffffffffffff\n        /* \"#utility.yul\":6512:6521   */\n      dup3\n        /* \"#utility.yul\":6493:6590   */\n      tag_50\n      jump\t// in\n    tag_129:\n        /* \"#utility.yul\":6611:6650   */\n      tag_130\n        /* \"#utility.yul\":6641:6649   */\n      dup7\n        /* \"#utility.yul\":6630:6639   */\n      dup4\n        /* \"#utility.yul\":6611:6650   */\n      tag_50\n      jump\t// in\n    tag_130:\n        /* \"#utility.yul\":6599:6650   */\n      swap6\n      pop\n        /* \"#utility.yul\":6683:6687   */\n      dup1\n        /* \"#utility.yul\":6679:6688   */\n      not\n        /* \"#utility.yul\":6672:6677   */\n      dup5\n        /* \"#utility.yul\":6668:6689   */\n      and\n        /* \"#utility.yul\":6659:6689   */\n      swap4\n      pop\n        /* \"#utility.yul\":6732:6736   */\n      dup1\n        /* \"#utility.yul\":6722:6730   */\n      dup7\n        /* \"#utility.yul\":6718:6737   */\n      and\n        /* \"#utility.yul\":6711:6716   */\n      dup5\n        /* \"#utility.yul\":6708:6738   */\n      or\n        /* \"#utility.yul\":6698:6738   */\n      swap3\n      pop\n        /* \"#utility.yul\":6427:6744   */\n      pop\n      pop\n        /* \"#utility.yul\":6351:6744   */\n      swap4\n      swap3\n      pop\n      pop\n      pop\n      jump\t// out\n        /* \"#utility.yul\":6750:6810   */\n    tag_52:\n        /* \"#utility.yul\":6778:6781   */\n      0x00\n        /* \"#utility.yul\":6799:6804   */\n      dup2\n        /* \"#utility.yul\":6792:6804   */\n      swap1\n      pop\n        /* \"#utility.yul\":6750:6810   */\n      swap2\n      swap1\n      pop\n      jump\t// out\n        /* \"#utility.yul\":6816:6958   */\n    tag_53:\n        /* \"#utility.yul\":6866:6875   */\n      0x00\n        /* \"#utility.yul\":6899:6952   */\n      tag_133\n        /* \"#utility.yul\":6917:6951   */\n      tag_134\n        /* \"#utility.yul\":6926:6950   */\n      tag_135\n        /* \"#utility.yul\":6944:6949   */\n      dup5\n        /* \"#utility.yul\":6926:6950   */\n      tag_32\n      jump\t// in\n    tag_135:\n        /* \"#utility.yul\":6917:6951   */\n      tag_52\n      jump\t// in\n    tag_134:\n        /* \"#utility.yul\":6899:6952   */\n      tag_32\n      jump\t// in\n    tag_133:\n        /* \"#utility.yul\":6886:6952   */\n      swap1\n      pop\n        /* \"#utility.yul\":6816:6958   */\n      swap2\n      swap1\n      pop\n      jump\t// out\n        /* \"#utility.yul\":6964:7039   */\n    tag_54:\n        /* \"#utility.yul\":7007:7010   */\n      0x00\n        /* \"#utility.yul\":7028:7033   */\n      dup2\n        /* \"#utility.yul\":7021:7033   */\n      swap1\n      pop\n        /* \"#utility.yul\":6964:7039   */\n      swap2\n      swap1\n      pop\n      jump\t// out\n        /* \"#utility.yul\":7045:7314   */\n    tag_55:\n        /* \"#utility.yul\":7155:7194   */\n      tag_138\n        /* \"#utility.yul\":7186:7193   */\n      dup4\n        /* \"#utility.yul\":7155:7194   */\n      tag_53\n      jump\t// in\n    tag_138:\n        /* \"#utility.yul\":7216:7307   */\n      tag_139\n        /* \"#utility.yul\":7265:7306   */\n      tag_140\n        /* \"#utility.yul\":7289:7305   */\n      dup3\n        /* \"#utility.yul\":7265:7306   */\n      tag_54\n      jump\t// in\n    tag_140:\n        /* \"#utility.yul\":7257:7263   */\n      dup5\n        /* \"#utility.yul\":7250:7254   */\n      dup5\n        /* \"#utility.yul\":7244:7255   */\n      sload\n        /* \"#utility.yul\":7216:7307   */\n      tag_51\n      jump\t// in\n    tag_139:\n        /* \"#utility.yul\":7210:7214   */\n      dup3\n        /* \"#utility.yul\":7203:7308   */\n      sstore\n        /* \"#utility.yul\":7121:7314   */\n      pop\n        /* \"#utility.yul\":7045:7314   */\n      pop\n      pop\n      pop\n      jump\t// out\n        /* \"#utility.yul\":7320:7393   */\n    tag_56:\n        /* \"#utility.yul\":7365:7368   */\n      0x00\n        /* \"#utility.yul\":7320:7393   */\n      swap1\n      jump\t// out\n        /* \"#utility.yul\":7399:7588   */\n    tag_57:\n        /* \"#utility.yul\":7476:7508   */\n      tag_143\n      tag_56\n      jump\t// in\n    tag_143:\n        /* \"#utility.yul\":7517:7582   */\n      tag_144\n        /* \"#utility.yul\":7575:7581   */\n      dup2\n        /* \"#utility.yul\":7567:7573   */\n      dup5\n        /* \"#utility.yul\":7561:7565   */\n      dup5\n        /* \"#utility.yul\":7517:7582   */\n      tag_55\n      jump\t// in\n    tag_144:\n        /* \"#utility.yul\":7452:7588   */\n      pop\n        /* \"#utility.yul\":7399:7588   */\n      pop\n      pop\n      jump\t// out\n        /* \"#utility.yul\":7594:7780   */\n    tag_58:\n        /* \"#utility.yul\":7654:7774   */\n    tag_146:\n        /* \"#utility.yul\":7671:7674   */\n      dup2\n        /* \"#utility.yul\":7664:7669   */\n      dup2\n        /* \"#utility.yul\":7661:7675   */\n      lt\n        /* \"#utility.yul\":7654:7774   */\n      iszero\n      tag_148\n      jumpi\n        /* \"#utility.yul\":7725:7764   */\n      tag_149\n        /* \"#utility.yul\":7762:7763   */\n      0x00\n        /* \"#utility.yul\":7755:7760   */\n      dup3\n        /* \"#utility.yul\":7725:7764   */\n      tag_57\n      jump\t// in\n    tag_149:\n        /* \"#utility.yul\":7698:7699   */\n      0x01\n        /* \"#utility.yul\":7691:7696   */\n      dup2\n        /* \"#utility.yul\":7687:7700   */\n      add\n        /* \"#utility.yul\":7678:7700   */\n      swap1\n      pop\n        /* \"#utility.yul\":7654:7774   */\n      jump(tag_146)\n    tag_148:\n        /* \"#utility.yul\":7594:7780   */\n      pop\n      pop\n      jump\t// out\n        /* \"#utility.yul\":7786:8329   */\n    tag_59:\n        /* \"#utility.yul\":7887:7889   */\n      0x1f\n        /* \"#utility.yul\":7882:7885   */\n      dup3\n        /* \"#utility.yul\":7879:7890   */\n      gt\n        /* \"#utility.yul\":7876:8322   */\n      iszero\n      tag_151\n      jumpi\n        /* \"#utility.yul\":7921:7959   */\n      tag_152\n        /* \"#utility.yul\":7953:7958   */\n      dup2\n        /* \"#utility.yul\":7921:7959   */\n      tag_48\n      jump\t// in\n    tag_152:\n        /* \"#utility.yul\":8005:8034   */\n      tag_153\n        /* \"#utility.yul\":8023:8033   */\n      dup5\n        /* \"#utility.yul\":8005:8034   */\n      tag_49\n      jump\t// in\n    tag_153:\n        /* \"#utility.yul\":7995:8003   */\n      dup2\n        /* \"#utility.yul\":7991:8035   */\n      add\n        /* \"#utility.yul\":8188:8190   */\n      0x20\n        /* \"#utility.yul\":8176:8186   */\n      dup6\n        /* \"#utility.yul\":8173:8191   */\n      lt\n        /* \"#utility.yul\":8170:8219   */\n      iszero\n      tag_154\n      jumpi\n        /* \"#utility.yul\":8209:8217   */\n      dup2\n        /* \"#utility.yul\":8194:8217   */\n      swap1\n      pop\n        /* \"#utility.yul\":8170:8219   */\n    tag_154:\n        /* \"#utility.yul\":8232:8312   */\n      tag_155\n        /* \"#utility.yul\":8288:8310   */\n      tag_156\n        /* \"#utility.yul\":8306:8309   */\n      dup6\n        /* \"#utility.yul\":8288:8310   */\n      tag_49\n      jump\t// in\n    tag_156:\n        /* \"#utility.yul\":8278:8286   */\n      dup4\n        /* \"#utility.yul\":8274:8311   */\n      add\n        /* \"#utility.yul\":8261:8272   */\n      dup3\n        /* \"#utility.yul\":8232:8312   */\n      tag_58\n      jump\t// in\n    tag_155:\n        /* \"#utility.yul\":7891:8322   */\n      pop\n      pop\n        /* \"#utility.yul\":7876:8322   */\n    tag_151:\n        /* \"#utility.yul\":7786:8329   */\n      pop\n      pop\n      pop\n      jump\t// out\n        /* \"#utility.yul\":8335:8452   */\n    tag_60:\n        /* \"#utility.yul\":8389:8397   */\n      0x00\n        /* \"#utility.yul\":8439:8444   */\n      dup3\n        /* \"#utility.yul\":8433:8437   */\n      dup3\n        /* \"#utility.yul\":8429:8445   */\n      shr\n        /* \"#utility.yul\":8408:8445   */\n      swap1\n      pop\n        /* \"#utility.yul\":8335:8452   */\n      swap3\n      swap2\n      pop\n      pop\n      jump\t// out\n        /* \"#utility.yul\":8458:8627   */\n    tag_61:\n        /* \"#utility.yul\":8502:8508   */\n      0x00\n        /* \"#utility.yul\":8535:8586   */\n      tag_159\n        /* \"#utility.yul\":8583:8584   */\n      0x00\n        /* \"#utility.yul\":8579:8585   */\n      not\n        /* \"#utility.yul\":8571:8576   */\n      dup5\n        /* \"#utility.yul\":8568:8569   */\n      0x08\n        /* \"#utility.yul\":8564:8577   */\n      mul\n        /* \"#utility.yul\":8535:8586   */\n      tag_60\n      jump\t// in\n    tag_159:\n        /* \"#utility.yul\":8531:8587   */\n      not\n        /* \"#utility.yul\":8616:8620   */\n      dup1\n        /* \"#utility.yul\":8610:8614   */\n      dup4\n        /* \"#utility.yul\":8606:8621   */\n      and\n        /* \"#utility.yul\":8596:8621   */\n      swap2\n      pop\n        /* \"#utility.yul\":8509:8627   */\n      pop\n        /* \"#utility.yul\":8458:8627   */\n      swap3\n      swap2\n      pop\n      pop\n      jump\t// out\n        /* \"#utility.yul\":8632:8927   */\n    tag_62:\n        /* \"#utility.yul\":8708:8712   */\n      0x00\n        /* \"#utility.yul\":8854:8883   */\n      tag_161\n        /* \"#utility.yul\":8879:8882   */\n      dup4\n        /* \"#utility.yul\":8873:8877   */\n      dup4\n        /* \"#utility.yul\":8854:8883   */\n      tag_61\n      jump\t// in\n    tag_161:\n        /* \"#utility.yul\":8846:8883   */\n      swap2\n      pop\n        /* \"#utility.yul\":8916:8919   */\n      dup3\n        /* \"#utility.yul\":8913:8914   */\n      0x02\n        /* \"#utility.yul\":8909:8920   */\n      mul\n        /* \"#utility.yul\":8903:8907   */\n      dup3\n        /* \"#utility.yul\":8900:8921   */\n      or\n        /* \"#utility.yul\":8892:8921   */\n      swap1\n      pop\n        /* \"#utility.yul\":8632:8927   */\n      swap3\n      swap2\n      pop\n      pop\n      jump\t// out\n        /* \"#utility.yul\":8932:10327   */\n    tag_23:\n        /* \"#utility.yul\":9049:9086   */\n      tag_163\n        /* \"#utility.yul\":9082:9085   */\n      dup3\n        /* \"#utility.yul\":9049:9086   */\n      tag_44\n      jump\t// in\n    tag_163:\n        /* \"#utility.yul\":9151:9169   */\n      0xffffffffffffffff\n        /* \"#utility.yul\":9143:9149   */\n      dup2\n        /* \"#utility.yul\":9140:9170   */\n      gt\n        /* \"#utility.yul\":9137:9193   */\n      iszero\n      tag_164\n      jumpi\n        /* \"#utility.yul\":9173:9191   */\n      tag_165\n      tag_45\n      jump\t// in\n    tag_165:\n        /* \"#utility.yul\":9137:9193   */\n    tag_164:\n        /* \"#utility.yul\":9217:9255   */\n      tag_166\n        /* \"#utility.yul\":9249:9253   */\n      dup3\n        /* \"#utility.yul\":9243:9254   */\n      sload\n        /* \"#utility.yul\":9217:9255   */\n      tag_47\n      jump\t// in\n    tag_166:\n        /* \"#utility.yul\":9302:9369   */\n      tag_167\n        /* \"#utility.yul\":9362:9368   */\n      dup3\n        /* \"#utility.yul\":9354:9360   */\n      dup3\n        /* \"#utility.yul\":9348:9352   */\n      dup6\n        /* \"#utility.yul\":9302:9369   */\n      tag_59\n      jump\t// in\n    tag_167:\n        /* \"#utility.yul\":9396:9397   */\n      0x00\n        /* \"#utility.yul\":9420:9424   */\n      0x20\n        /* \"#utility.yul\":9407:9424   */\n      swap1\n      pop\n        /* \"#utility.yul\":9452:9454   */\n      0x1f\n        /* \"#utility.yul\":9444:9450   */\n      dup4\n        /* \"#utility.yul\":9441:9455   */\n      gt\n        /* \"#utility.yul\":9469:9470   */\n      0x01\n        /* \"#utility.yul\":9464:10082   */\n      dup2\n      eq\n      tag_169\n      jumpi\n        /* \"#utility.yul\":10126:10127   */\n      0x00\n        /* \"#utility.yul\":10143:10149   */\n      dup5\n        /* \"#utility.yul\":10140:10217   */\n      iszero\n      tag_170\n      jumpi\n        /* \"#utility.yul\":10192:10201   */\n      dup3\n        /* \"#utility.yul\":10187:10190   */\n      dup8\n        /* \"#utility.yul\":10183:10202   */\n      add\n        /* \"#utility.yul\":10177:10203   */\n      mload\n        /* \"#utility.yul\":10168:10203   */\n      swap1\n      pop\n        /* \"#utility.yul\":10140:10217   */\n    tag_170:\n        /* \"#utility.yul\":10243:10310   */\n      tag_171\n        /* \"#utility.yul\":10303:10309   */\n      dup6\n        /* \"#utility.yul\":10296:10301   */\n      dup3\n        /* \"#utility.yul\":10243:10310   */\n      tag_62\n      jump\t// in\n    tag_171:\n        /* \"#utility.yul\":10237:10241   */\n      dup7\n        /* \"#utility.yul\":10230:10311   */\n      sstore\n        /* \"#utility.yul\":10099:10321   */\n      pop\n        /* \"#utility.yul\":9434:10321   */\n      jump(tag_168)\n        /* \"#utility.yul\":9464:10082   */\n    tag_169:\n        /* \"#utility.yul\":9516:9520   */\n      0x1f\n        /* \"#utility.yul\":9512:9521   */\n      not\n        /* \"#utility.yul\":9504:9510   */\n      dup5\n        /* \"#utility.yul\":9500:9522   */\n      and\n        /* \"#utility.yul\":9550:9587   */\n      tag_172\n        /* \"#utility.yul\":9582:9586   */\n      dup7\n        /* \"#utility.yul\":9550:9587   */\n      tag_48\n      jump\t// in\n    tag_172:\n        /* \"#utility.yul\":9609:9610   */\n      0x00\n        /* \"#utility.yul\":9623:9831   */\n    tag_173:\n        /* \"#utility.yul\":9637:9644   */\n      dup3\n        /* \"#utility.yul\":9634:9635   */\n      dup2\n        /* \"#utility.yul\":9631:9645   */\n      lt\n        /* \"#utility.yul\":9623:9831   */\n      iszero\n      tag_175\n      jumpi\n        /* \"#utility.yul\":9716:9725   */\n      dup5\n        /* \"#utility.yul\":9711:9714   */\n      dup10\n        /* \"#utility.yul\":9707:9726   */\n      add\n        /* \"#utility.yul\":9701:9727   */\n      mload\n        /* \"#utility.yul\":9693:9699   */\n      dup3\n        /* \"#utility.yul\":9686:9728   */\n      sstore\n        /* \"#utility.yul\":9767:9768   */\n      0x01\n        /* \"#utility.yul\":9759:9765   */\n      dup3\n        /* \"#utility.yul\":9755:9769   */\n      add\n        /* \"#utility.yul\":9745:9769   */\n      swap2\n      pop\n        /* \"#utility.yul\":9814:9816   */\n      0x20\n        /* \"#utility.yul\":9803:9812   */\n      dup6\n        /* \"#utility.yul\":9799:9817   */\n      add\n        /* \"#utility.yul\":9786:9817   */\n      swap5\n      pop\n        /* \"#utility.yul\":9660:9664   */\n      0x20\n        /* \"#utility.yul\":9657:9658   */\n      dup2\n        /* \"#utility.yul\":9653:9665   */\n      add\n        /* \"#utility.yul\":9648:9665   */\n      swap1\n      pop\n        /* \"#utility.yul\":9623:9831   */\n      jump(tag_173)\n    tag_175:\n        /* \"#utility.yul\":9859:9865   */\n      dup7\n        /* \"#utility.yul\":9850:9857   */\n      dup4\n        /* \"#utility.yul\":9847:9866   */\n      lt\n        /* \"#utility.yul\":9844:10023   */\n      iszero\n      tag_176\n      jumpi\n        /* \"#utility.yul\":9917:9926   */\n      dup5\n        /* \"#utility.yul\":9912:9915   */\n      dup10\n        /* \"#utility.yul\":9908:9927   */\n      add\n        /* \"#utility.yul\":9902:9928   */\n      mload\n        /* \"#utility.yul\":9960:10008   */\n      tag_177\n        /* \"#utility.yul\":10002:10006   */\n      0x1f\n        /* \"#utility.yul\":9994:10000   */\n      dup10\n        /* \"#utility.yul\":9990:10007   */\n      and\n        /* \"#utility.yul\":9979:9988   */\n      dup3\n        /* \"#utility.yul\":9960:10008   */\n      tag_61\n      jump\t// in\n    tag_177:\n        /* \"#utility.yul\":9952:9958   */\n      dup4\n        /* \"#utility.yul\":9945:10009   */\n      sstore\n        /* \"#utility.yul\":9867:10023   */\n      pop\n        /* \"#utility.yul\":9844:10023   */\n    tag_176:\n        /* \"#utility.yul\":10069:10070   */\n      0x01\n        /* \"#utility.yul\":10065:10066   */\n      0x02\n        /* \"#utility.yul\":10057:10063   */\n      dup9\n        /* \"#utility.yul\":10053:10067   */\n      mul\n        /* \"#utility.yul\":10049:10071   */\n      add\n        /* \"#utility.yul\":10043:10047   */\n      dup9\n        /* \"#utility.yul\":10036:10072   */\n      sstore\n        /* \"#utility.yul\":9471:10082   */\n      pop\n      pop\n      pop\n        /* \"#utility.yul\":9434:10321   */\n    tag_168:\n      pop\n        /* \"#utility.yul\":9024:10327   */\n      pop\n      pop\n      pop\n        /* \"#utility.yul\":8932:10327   */\n      pop\n      pop\n      jump\t// out\n\n    auxdata: 0xa264697066735822122023a6a5843b7eb5108c633541de6835e3577f34e05cd2b2e1c1e838482145601964736f6c63430008110033\n}\n",
				"bytecode": {
					"linkReferences": {},
					"object": "608060405234801561001057600080fd5b506108aa806100206000396000f3fe608060405234801561001057600080fd5b50600436106100365760003560e01c8063bc9e6e2c1461003b578063f851a4401461006b575b600080fd5b61005560048036038101906100509190610355565b610089565b6040516100629190610405565b60405180910390f35b61007361028c565b6040516100809190610461565b60405180910390f35b60003373ffffffffffffffffffffffffffffffffffffffff1660008054906101000a900473ffffffffffffffffffffffffffffffffffffffff1673ffffffffffffffffffffffffffffffffffffffff1614610119576040517f08c379a0000000000000000000000000000000000000000000000000000000008152600401610110906104d9565b60405180910390fd5b6000611644836101299190610528565b905060006040518060400160405280600081526020016000815250905060016040518060a001604052808a8a8080601f016020809104026020016040519081016040528093929190818152602001838380828437600081840152601f19601f82011690508083019250505050505050815260200188888080601f016020809104026020016040519081016040528093929190818152602001838380828437600081840152601f19601f820116905080830192505050505050508152602001868152602001848152602001838152509080600181540180825580915050600190039060005260206000209060060201600090919091909150600082015181600001908161023591906107a2565b50602082015181600101908161024b91906107a2565b506040820151816002015560608201518160030155608082015181600401600082015181600001556020820151816001015550505050505095945050505050565b60008054906101000a900473ffffffffffffffffffffffffffffffffffffffff1681565b600080fd5b600080fd5b600080fd5b600080fd5b600080fd5b60008083601f8401126102df576102de6102ba565b5b8235905067ffffffffffffffff8111156102fc576102fb6102bf565b5b602083019150836001820283011115610318576103176102c4565b5b9250929050565b6000819050919050565b6103328161031f565b811461033d57600080fd5b50565b60008135905061034f81610329565b92915050565b600080600080600060608688031215610371576103706102b0565b5b600086013567ffffffffffffffff81111561038f5761038e6102b5565b5b61039b888289016102c9565b9550955050602086013567ffffffffffffffff8111156103be576103bd6102b5565b5b6103ca888289016102c9565b935093505060406103dd88828901610340565b9150509295509295909350565b60008115159050919050565b6103ff816103ea565b82525050565b600060208201905061041a60008301846103f6565b92915050565b600073ffffffffffffffffffffffffffffffffffffffff82169050919050565b600061044b82610420565b9050919050565b61045b81610440565b82525050565b60006020820190506104766000830184610452565b92915050565b600082825260208201905092915050565b7f4e6f74204f776e65720000000000000000000000000000000000000000000000600082015250565b60006104c360098361047c565b91506104ce8261048d565b602082019050919050565b600060208201905081810360008301526104f2816104b6565b9050919050565b7f4e487b7100000000000000000000000000000000000000000000000000000000600052601160045260246000fd5b60006105338261031f565b915061053e8361031f565b9250828201905080821115610556576105556104f9565b5b92915050565b600081519050919050565b7f4e487b7100000000000000000000000000000000000000000000000000000000600052604160045260246000fd5b7f4e487b7100000000000000000000000000000000000000000000000000000000600052602260045260246000fd5b600060028204905060018216806105dd57607f821691505b6020821081036105f0576105ef610596565b5b50919050565b60008190508160005260206000209050919050565b60006020601f8301049050919050565b600082821b905092915050565b6000600883026106587fffffffffffffffffffffffffffffffffffffffffffffffffffffffffffffffff8261061b565b610662868361061b565b95508019841693508086168417925050509392505050565b6000819050919050565b600061069f61069a6106958461031f565b61067a565b61031f565b9050919050565b6000819050919050565b6106b983610684565b6106cd6106c5826106a6565b848454610628565b825550505050565b600090565b6106e26106d5565b6106ed8184846106b0565b505050565b5b81811015610711576107066000826106da565b6001810190506106f3565b5050565b601f82111561075657610727816105f6565b6107308461060b565b8101602085101561073f578190505b61075361074b8561060b565b8301826106f2565b50505b505050565b600082821c905092915050565b60006107796000198460080261075b565b1980831691505092915050565b60006107928383610768565b9150826002028217905092915050565b6107ab8261055c565b67ffffffffffffffff8111156107c4576107c3610567565b5b6107ce82546105c5565b6107d9828285610715565b600060209050601f83116001811461080c57600084156107fa578287015190505b6108048582610786565b86555061086c565b601f19841661081a866105f6565b60005b828110156108425784890151825560018201915060208501945060208101905061081d565b8683101561085f578489015161085b601f891682610768565b8355505b6001600288020188555050505b50505050505056fea264697066735822122023a6a5843b7eb5108c633541de6835e3577f34e05cd2b2e1c1e838482145601964736f6c63430008110033",
					"opcodes": "PUSH1 0x80 PUSH1 0x40 MSTORE CALLVALUE DUP1 ISZERO PUSH2 0x10 JUMPI PUSH1 0x0 DUP1 REVERT JUMPDEST POP PUSH2 0x8AA DUP1 PUSH2 0x20 PUSH1 0x0 CODECOPY PUSH1 0x0 RETURN INVALID PUSH1 0x80 PUSH1 0x40 MSTORE CALLVALUE DUP1 ISZERO PUSH2 0x10 JUMPI PUSH1 0x0 DUP1 REVERT JUMPDEST POP PUSH1 0x4 CALLDATASIZE LT PUSH2 0x36 JUMPI PUSH1 0x0 CALLDATALOAD PUSH1 0xE0 SHR DUP1 PUSH4 0xBC9E6E2C EQ PUSH2 0x3B JUMPI DUP1 PUSH4 0xF851A440 EQ PUSH2 0x6B JUMPI JUMPDEST PUSH1 0x0 DUP1 REVERT JUMPDEST PUSH2 0x55 PUSH1 0x4 DUP1 CALLDATASIZE SUB DUP2 ADD SWAP1 PUSH2 0x50 SWAP2 SWAP1 PUSH2 0x355 JUMP JUMPDEST PUSH2 0x89 JUMP JUMPDEST PUSH1 0x40 MLOAD PUSH2 0x62 SWAP2 SWAP1 PUSH2 0x405 JUMP JUMPDEST PUSH1 0x40 MLOAD DUP1 SWAP2 SUB SWAP1 RETURN JUMPDEST PUSH2 0x73 PUSH2 0x28C JUMP JUMPDEST PUSH1 0x40 MLOAD PUSH2 0x80 SWAP2 SWAP1 PUSH2 0x461 JUMP JUMPDEST PUSH1 0x40 MLOAD DUP1 SWAP2 SUB SWAP1 RETURN JUMPDEST PUSH1 0x0 CALLER PUSH20 0xFFFFFFFFFFFFFFFFFFFFFFFFFFFFFFFFFFFFFFFF AND PUSH1 0x0 DUP1 SLOAD SWAP1 PUSH2 0x100 EXP SWAP1 DIV PUSH20 0xFFFFFFFFFFFFFFFFFFFFFFFFFFFFFFFFFFFFFFFF AND PUSH20 0xFFFFFFFFFFFFFFFFFFFFFFFFFFFFFFFFFFFFFFFF AND EQ PUSH2 0x119 JUMPI PUSH1 0x40 MLOAD PUSH32 0x8C379A000000000000000000000000000000000000000000000000000000000 DUP2 MSTORE PUSH1 0x4 ADD PUSH2 0x110 SWAP1 PUSH2 0x4D9 JUMP JUMPDEST PUSH1 0x40 MLOAD DUP1 SWAP2 SUB SWAP1 REVERT JUMPDEST PUSH1 0x0 PUSH2 0x1644 DUP4 PUSH2 0x129 SWAP2 SWAP1 PUSH2 0x528 JUMP JUMPDEST SWAP1 POP PUSH1 0x0 PUSH1 0x40 MLOAD DUP1 PUSH1 0x40 ADD PUSH1 0x40 MSTORE DUP1 PUSH1 0x0 DUP2 MSTORE PUSH1 0x20 ADD PUSH1 0x0 DUP2 MSTORE POP SWAP1 POP PUSH1 0x1 PUSH1 0x40 MLOAD DUP1 PUSH1 0xA0 ADD PUSH1 0x40 MSTORE DUP1 DUP11 DUP11 DUP1 DUP1 PUSH1 0x1F ADD PUSH1 0x20 DUP1 SWAP2 DIV MUL PUSH1 0x20 ADD PUSH1 0x40 MLOAD SWAP1 DUP2 ADD PUSH1 0x40 MSTORE DUP1 SWAP4 SWAP3 SWAP2 SWAP1 DUP2 DUP2 MSTORE PUSH1 0x20 ADD DUP4 DUP4 DUP1 DUP3 DUP5 CALLDATACOPY PUSH1 0x0 DUP2 DUP5 ADD MSTORE PUSH1 0x1F NOT PUSH1 0x1F DUP3 ADD AND SWAP1 POP DUP1 DUP4 ADD SWAP3 POP POP POP POP POP POP POP DUP2 MSTORE PUSH1 0x20 ADD DUP9 DUP9 DUP1 DUP1 PUSH1 0x1F ADD PUSH1 0x20 DUP1 SWAP2 DIV MUL PUSH1 0x20 ADD PUSH1 0x40 MLOAD SWAP1 DUP2 ADD PUSH1 0x40 MSTORE DUP1 SWAP4 SWAP3 SWAP2 SWAP1 DUP2 DUP2 MSTORE PUSH1 0x20 ADD DUP4 DUP4 DUP1 DUP3 DUP5 CALLDATACOPY PUSH1 0x0 DUP2 DUP5 ADD MSTORE PUSH1 0x1F NOT PUSH1 0x1F DUP3 ADD AND SWAP1 POP DUP1 DUP4 ADD SWAP3 POP POP POP POP POP POP POP DUP2 MSTORE PUSH1 0x20 ADD DUP7 DUP2 MSTORE PUSH1 0x20 ADD DUP5 DUP2 MSTORE PUSH1 0x20 ADD DUP4 DUP2 MSTORE POP SWAP1 DUP1 PUSH1 0x1 DUP2 SLOAD ADD DUP1 DUP3 SSTORE DUP1 SWAP2 POP POP PUSH1 0x1 SWAP1 SUB SWAP1 PUSH1 0x0 MSTORE PUSH1 0x20 PUSH1 0x0 KECCAK256 SWAP1 PUSH1 0x6 MUL ADD PUSH1 0x0 SWAP1 SWAP2 SWAP1 SWAP2 SWAP1 SWAP2 POP PUSH1 0x0 DUP3 ADD MLOAD DUP2 PUSH1 0x0 ADD SWAP1 DUP2 PUSH2 0x235 SWAP2 SWAP1 PUSH2 0x7A2 JUMP JUMPDEST POP PUSH1 0x20 DUP3 ADD MLOAD DUP2 PUSH1 0x1 ADD SWAP1 DUP2 PUSH2 0x24B SWAP2 SWAP1 PUSH2 0x7A2 JUMP JUMPDEST POP PUSH1 0x40 DUP3 ADD MLOAD DUP2 PUSH1 0x2 ADD SSTORE PUSH1 0x60 DUP3 ADD MLOAD DUP2 PUSH1 0x3 ADD SSTORE PUSH1 0x80 DUP3 ADD MLOAD DUP2 PUSH1 0x4 ADD PUSH1 0x0 DUP3 ADD MLOAD DUP2 PUSH1 0x0 ADD SSTORE PUSH1 0x20 DUP3 ADD MLOAD DUP2 PUSH1 0x1 ADD SSTORE POP POP POP POP POP POP SWAP6 SWAP5 POP POP POP POP POP JUMP JUMPDEST PUSH1 0x0 DUP1 SLOAD SWAP1 PUSH2 0x100 EXP SWAP1 DIV PUSH20 0xFFFFFFFFFFFFFFFFFFFFFFFFFFFFFFFFFFFFFFFF AND DUP2 JUMP JUMPDEST PUSH1 0x0 DUP1 REVERT JUMPDEST PUSH1 0x0 DUP1 REVERT JUMPDEST PUSH1 0x0 DUP1 REVERT JUMPDEST PUSH1 0x0 DUP1 REVERT JUMPDEST PUSH1 0x0 DUP1 REVERT JUMPDEST PUSH1 0x0 DUP1 DUP4 PUSH1 0x1F DUP5 ADD SLT PUSH2 0x2DF JUMPI PUSH2 0x2DE PUSH2 0x2BA JUMP JUMPDEST JUMPDEST DUP3 CALLDATALOAD SWAP1 POP PUSH8 0xFFFFFFFFFFFFFFFF DUP2 GT ISZERO PUSH2 0x2FC JUMPI PUSH2 0x2FB PUSH2 0x2BF JUMP JUMPDEST JUMPDEST PUSH1 0x20 DUP4 ADD SWAP2 POP DUP4 PUSH1 0x1 DUP3 MUL DUP4 ADD GT ISZERO PUSH2 0x318 JUMPI PUSH2 0x317 PUSH2 0x2C4 JUMP JUMPDEST JUMPDEST SWAP3 POP SWAP3 SWAP1 POP JUMP JUMPDEST PUSH1 0x0 DUP2 SWAP1 POP SWAP2 SWAP1 POP JUMP JUMPDEST PUSH2 0x332 DUP2 PUSH2 0x31F JUMP JUMPDEST DUP2 EQ PUSH2 0x33D JUMPI PUSH1 0x0 DUP1 REVERT JUMPDEST POP JUMP JUMPDEST PUSH1 0x0 DUP2 CALLDATALOAD SWAP1 POP PUSH2 0x34F DUP2 PUSH2 0x329 JUMP JUMPDEST SWAP3 SWAP2 POP POP JUMP JUMPDEST PUSH1 0x0 DUP1 PUSH1 0x0 DUP1 PUSH1 0x0 PUSH1 0x60 DUP7 DUP9 SUB SLT ISZERO PUSH2 0x371 JUMPI PUSH2 0x370 PUSH2 0x2B0 JUMP JUMPDEST JUMPDEST PUSH1 0x0 DUP7 ADD CALLDATALOAD PUSH8 0xFFFFFFFFFFFFFFFF DUP2 GT ISZERO PUSH2 0x38F JUMPI PUSH2 0x38E PUSH2 0x2B5 JUMP JUMPDEST JUMPDEST PUSH2 0x39B DUP9 DUP3 DUP10 ADD PUSH2 0x2C9 JUMP JUMPDEST SWAP6 POP SWAP6 POP POP PUSH1 0x20 DUP7 ADD CALLDATALOAD PUSH8 0xFFFFFFFFFFFFFFFF DUP2 GT ISZERO PUSH2 0x3BE JUMPI PUSH2 0x3BD PUSH2 0x2B5 JUMP JUMPDEST JUMPDEST PUSH2 0x3CA DUP9 DUP3 DUP10 ADD PUSH2 0x2C9 JUMP JUMPDEST SWAP4 POP SWAP4 POP POP PUSH1 0x40 PUSH2 0x3DD DUP9 DUP3 DUP10 ADD PUSH2 0x340 JUMP JUMPDEST SWAP2 POP POP SWAP3 SWAP6 POP SWAP3 SWAP6 SWAP1 SWAP4 POP JUMP JUMPDEST PUSH1 0x0 DUP2 ISZERO ISZERO SWAP1 POP SWAP2 SWAP1 POP JUMP JUMPDEST PUSH2 0x3FF DUP2 PUSH2 0x3EA JUMP JUMPDEST DUP3 MSTORE POP POP JUMP JUMPDEST PUSH1 0x0 PUSH1 0x20 DUP3 ADD SWAP1 POP PUSH2 0x41A PUSH1 0x0 DUP4 ADD DUP5 PUSH2 0x3F6 JUMP JUMPDEST SWAP3 SWAP2 POP POP JUMP JUMPDEST PUSH1 0x0 PUSH20 0xFFFFFFFFFFFFFFFFFFFFFFFFFFFFFFFFFFFFFFFF DUP3 AND SWAP1 POP SWAP2 SWAP1 POP JUMP JUMPDEST PUSH1 0x0 PUSH2 0x44B DUP3 PUSH2 0x420 JUMP JUMPDEST SWAP1 POP SWAP2 SWAP1 POP JUMP JUMPDEST PUSH2 0x45B DUP2 PUSH2 0x440 JUMP JUMPDEST DUP3 MSTORE POP POP JUMP JUMPDEST PUSH1 0x0 PUSH1 0x20 DUP3 ADD SWAP1 POP PUSH2 0x476 PUSH1 0x0 DUP4 ADD DUP5 PUSH2 0x452 JUMP JUMPDEST SWAP3 SWAP2 POP POP JUMP JUMPDEST PUSH1 0x0 DUP3 DUP3 MSTORE PUSH1 0x20 DUP3 ADD SWAP1 POP SWAP3 SWAP2 POP POP JUMP JUMPDEST PUSH32 0x4E6F74204F776E65720000000000000000000000000000000000000000000000 PUSH1 0x0 DUP3 ADD MSTORE POP JUMP JUMPDEST PUSH1 0x0 PUSH2 0x4C3 PUSH1 0x9 DUP4 PUSH2 0x47C JUMP JUMPDEST SWAP2 POP PUSH2 0x4CE DUP3 PUSH2 0x48D JUMP JUMPDEST PUSH1 0x20 DUP3 ADD SWAP1 POP SWAP2 SWAP1 POP JUMP JUMPDEST PUSH1 0x0 PUSH1 0x20 DUP3 ADD SWAP1 POP DUP2 DUP2 SUB PUSH1 0x0 DUP4 ADD MSTORE PUSH2 0x4F2 DUP2 PUSH2 0x4B6 JUMP JUMPDEST SWAP1 POP SWAP2 SWAP1 POP JUMP JUMPDEST PUSH32 0x4E487B7100000000000000000000000000000000000000000000000000000000 PUSH1 0x0 MSTORE PUSH1 0x11 PUSH1 0x4 MSTORE PUSH1 0x24 PUSH1 0x0 REVERT JUMPDEST PUSH1 0x0 PUSH2 0x533 DUP3 PUSH2 0x31F JUMP JUMPDEST SWAP2 POP PUSH2 0x53E DUP4 PUSH2 0x31F JUMP JUMPDEST SWAP3 POP DUP3 DUP3 ADD SWAP1 POP DUP1 DUP3 GT ISZERO PUSH2 0x556 JUMPI PUSH2 0x555 PUSH2 0x4F9 JUMP JUMPDEST JUMPDEST SWAP3 SWAP2 POP POP JUMP JUMPDEST PUSH1 0x0 DUP2 MLOAD SWAP1 POP SWAP2 SWAP1 POP JUMP JUMPDEST PUSH32 0x4E487B7100000000000000000000000000000000000000000000000000000000 PUSH1 0x0 MSTORE PUSH1 0x41 PUSH1 0x4 MSTORE PUSH1 0x24 PUSH1 0x0 REVERT JUMPDEST PUSH32 0x4E487B7100000000000000000000000000000000000000000000000000000000 PUSH1 0x0 MSTORE PUSH1 0x22 PUSH1 0x4 MSTORE PUSH1 0x24 PUSH1 0x0 REVERT JUMPDEST PUSH1 0x0 PUSH1 0x2 DUP3 DIV SWAP1 POP PUSH1 0x1 DUP3 AND DUP1 PUSH2 0x5DD JUMPI PUSH1 0x7F DUP3 AND SWAP2 POP JUMPDEST PUSH1 0x20 DUP3 LT DUP2 SUB PUSH2 0x5F0 JUMPI PUSH2 0x5EF PUSH2 0x596 JUMP JUMPDEST JUMPDEST POP SWAP2 SWAP1 POP JUMP JUMPDEST PUSH1 0x0 DUP2 SWAP1 POP DUP2 PUSH1 0x0 MSTORE PUSH1 0x20 PUSH1 0x0 KECCAK256 SWAP1 POP SWAP2 SWAP1 POP JUMP JUMPDEST PUSH1 0x0 PUSH1 0x20 PUSH1 0x1F DUP4 ADD DIV SWAP1 POP SWAP2 SWAP1 POP JUMP JUMPDEST PUSH1 0x0 DUP3 DUP3 SHL SWAP1 POP SWAP3 SWAP2 POP POP JUMP JUMPDEST PUSH1 0x0 PUSH1 0x8 DUP4 MUL PUSH2 0x658 PUSH32 0xFFFFFFFFFFFFFFFFFFFFFFFFFFFFFFFFFFFFFFFFFFFFFFFFFFFFFFFFFFFFFFFF DUP3 PUSH2 0x61B JUMP JUMPDEST PUSH2 0x662 DUP7 DUP4 PUSH2 0x61B JUMP JUMPDEST SWAP6 POP DUP1 NOT DUP5 AND SWAP4 POP DUP1 DUP7 AND DUP5 OR SWAP3 POP POP POP SWAP4 SWAP3 POP POP POP JUMP JUMPDEST PUSH1 0x0 DUP2 SWAP1 POP SWAP2 SWAP1 POP JUMP JUMPDEST PUSH1 0x0 PUSH2 0x69F PUSH2 0x69A PUSH2 0x695 DUP5 PUSH2 0x31F JUMP JUMPDEST PUSH2 0x67A JUMP JUMPDEST PUSH2 0x31F JUMP JUMPDEST SWAP1 POP SWAP2 SWAP1 POP JUMP JUMPDEST PUSH1 0x0 DUP2 SWAP1 POP SWAP2 SWAP1 POP JUMP JUMPDEST PUSH2 0x6B9 DUP4 PUSH2 0x684 JUMP JUMPDEST PUSH2 0x6CD PUSH2 0x6C5 DUP3 PUSH2 0x6A6 JUMP JUMPDEST DUP5 DUP5 SLOAD PUSH2 0x628 JUMP JUMPDEST DUP3 SSTORE POP POP POP POP JUMP JUMPDEST PUSH1 0x0 SWAP1 JUMP JUMPDEST PUSH2 0x6E2 PUSH2 0x6D5 JUMP JUMPDEST PUSH2 0x6ED DUP2 DUP5 DUP5 PUSH2 0x6B0 JUMP JUMPDEST POP POP POP JUMP JUMPDEST JUMPDEST DUP2 DUP2 LT ISZERO PUSH2 0x711 JUMPI PUSH2 0x706 PUSH1 0x0 DUP3 PUSH2 0x6DA JUMP JUMPDEST PUSH1 0x1 DUP2 ADD SWAP1 POP PUSH2 0x6F3 JUMP JUMPDEST POP POP JUMP JUMPDEST PUSH1 0x1F DUP3 GT ISZERO PUSH2 0x756 JUMPI PUSH2 0x727 DUP2 PUSH2 0x5F6 JUMP JUMPDEST PUSH2 0x730 DUP5 PUSH2 0x60B JUMP JUMPDEST DUP2 ADD PUSH1 0x20 DUP6 LT ISZERO PUSH2 0x73F JUMPI DUP2 SWAP1 POP JUMPDEST PUSH2 0x753 PUSH2 0x74B DUP6 PUSH2 0x60B JUMP JUMPDEST DUP4 ADD DUP3 PUSH2 0x6F2 JUMP JUMPDEST POP POP JUMPDEST POP POP POP JUMP JUMPDEST PUSH1 0x0 DUP3 DUP3 SHR SWAP1 POP SWAP3 SWAP2 POP POP JUMP JUMPDEST PUSH1 0x0 PUSH2 0x779 PUSH1 0x0 NOT DUP5 PUSH1 0x8 MUL PUSH2 0x75B JUMP JUMPDEST NOT DUP1 DUP4 AND SWAP2 POP POP SWAP3 SWAP2 POP POP JUMP JUMPDEST PUSH1 0x0 PUSH2 0x792 DUP4 DUP4 PUSH2 0x768 JUMP JUMPDEST SWAP2 POP DUP3 PUSH1 0x2 MUL DUP3 OR SWAP1 POP SWAP3 SWAP2 POP POP JUMP JUMPDEST PUSH2 0x7AB DUP3 PUSH2 0x55C JUMP JUMPDEST PUSH8 0xFFFFFFFFFFFFFFFF DUP2 GT ISZERO PUSH2 0x7C4 JUMPI PUSH2 0x7C3 PUSH2 0x567 JUMP JUMPDEST JUMPDEST PUSH2 0x7CE DUP3 SLOAD PUSH2 0x5C5 JUMP JUMPDEST PUSH2 0x7D9 DUP3 DUP3 DUP6 PUSH2 0x715 JUMP JUMPDEST PUSH1 0x0 PUSH1 0x20 SWAP1 POP PUSH1 0x1F DUP4 GT PUSH1 0x1 DUP2 EQ PUSH2 0x80C JUMPI PUSH1 0x0 DUP5 ISZERO PUSH2 0x7FA JUMPI DUP3 DUP8 ADD MLOAD SWAP1 POP JUMPDEST PUSH2 0x804 DUP6 DUP3 PUSH2 0x786 JUMP JUMPDEST DUP7 SSTORE POP PUSH2 0x86C JUMP JUMPDEST PUSH1 0x1F NOT DUP5 AND PUSH2 0x81A DUP7 PUSH2 0x5F6 JUMP JUMPDEST PUSH1 0x0 JUMPDEST DUP3 DUP2 LT ISZERO PUSH2 0x842 JUMPI DUP5 DUP10 ADD MLOAD DUP3 SSTORE PUSH1 0x1 DUP3 ADD SWAP2 POP PUSH1 0x20 DUP6 ADD SWAP5 POP PUSH1 0x20 DUP2 ADD SWAP1 POP PUSH2 0x81D JUMP JUMPDEST DUP7 DUP4 LT ISZERO PUSH2 0x85F JUMPI DUP5 DUP10 ADD MLOAD PUSH2 0x85B PUSH1 0x1F DUP10 AND DUP3 PUSH2 0x768 JUMP JUMPDEST DUP4 SSTORE POP JUMPDEST PUSH1 0x1 PUSH1 0x2 DUP9 MUL ADD DUP9 SSTORE POP POP POP JUMPDEST POP POP POP POP POP POP JUMP INVALID LOG2 PUSH5 0x6970667358 0x22 SLT KECCAK256 0x23 0xA6 0xA5 DUP5 EXTCODESIZE PUSH31 0xB5108C633541DE6835E3577F34E05CD2B2E1C1E838482145601964736F6C63 NUMBER STOP ADDMOD GT STOP CALLER "
				},
				"gasEstimates": {
					"creation": {
						"codeDepositCost": "443600",
						"executionCost": "480",
						"totalCost": "444080"
					},
					"external": {
						"admin()": "2511",
						"instantiateMatch(string,string,uint256)": "infinite"
					}
				},
				"methodIdentifiers": {
					"admin()": "f851a440",
					"instantiateMatch(string,string,uint256)": "bc9e6e2c"
				}
			},
			"storageLayout": {
				"storage": [
					{
						"astId": 3,
						"contract": "contracts/betting.sol:DistanceFiBET",
						"label": "admin",
						"offset": 0,
						"slot": "0",
						"type": "t_address"
					},
					{
						"astId": 24,
						"contract": "contracts/betting.sol:DistanceFiBET",
						"label": "allMatch",
						"offset": 0,
						"slot": "1",
						"type": "t_array(t_struct(Match)20_storage)dyn_storage"
					}
				],
				"types": {
					"t_address": {
						"encoding": "inplace",
						"label": "address",
						"numberOfBytes": "20"
					},
					"t_array(t_struct(Match)20_storage)dyn_storage": {
						"base": "t_struct(Match)20_storage",
						"encoding": "dynamic_array",
						"label": "struct DistanceFiBET.Match[]",
						"numberOfBytes": "32"
					},
					"t_string_storage": {
						"encoding": "bytes",
						"label": "string",
						"numberOfBytes": "32"
					},
					"t_struct(Match)20_storage": {
						"encoding": "inplace",
						"label": "struct DistanceFiBET.Match",
						"members": [
							{
								"astId": 10,
								"contract": "contracts/betting.sol:DistanceFiBET",
								"label": "HomeTeam",
								"offset": 0,
								"slot": "0",
								"type": "t_string_storage"
							},
							{
								"astId": 12,
								"contract": "contracts/betting.sol:DistanceFiBET",
								"label": "AwayTeam",
								"offset": 0,
								"slot": "1",
								"type": "t_string_storage"
							},
							{
								"astId": 14,
								"contract": "contracts/betting.sol:DistanceFiBET",
								"label": "startTime",
								"offset": 0,
								"slot": "2",
								"type": "t_uint256"
							},
							{
								"astId": 16,
								"contract": "contracts/betting.sol:DistanceFiBET",
								"label": "endTime",
								"offset": 0,
								"slot": "3",
								"type": "t_uint256"
							},
							{
								"astId": 19,
								"contract": "contracts/betting.sol:DistanceFiBET",
								"label": "results",
								"offset": 0,
								"slot": "4",
								"type": "t_struct(Results)8_storage"
							}
						],
						"numberOfBytes": "192"
					},
					"t_struct(Results)8_storage": {
						"encoding": "inplace",
						"label": "struct DistanceFiBET.Results",
						"members": [
							{
								"astId": 5,
								"contract": "contracts/betting.sol:DistanceFiBET",
								"label": "Home_score",
								"offset": 0,
								"slot": "0",
								"type": "t_uint256"
							},
							{
								"astId": 7,
								"contract": "contracts/betting.sol:DistanceFiBET",
								"label": "Away_score",
								"offset": 0,
								"slot": "1",
								"type": "t_uint256"
							}
						],
						"numberOfBytes": "64"
					},
					"t_uint256": {
						"encoding": "inplace",
						"label": "uint256",
						"numberOfBytes": "32"
					}
				}
			},
			"userdoc": {
				"kind": "user",
				"methods": {},
				"version": 1
			}
		}
	}
}