{
	"data": {
		"bytecode": {
			"linkReferences": {},
			"object": "6080604052606460025534801561001557600080fd5b5060405161062938038061062983398101604081905261003491610091565b600080546001600160a01b039384166001600160a01b03199182161790915560018054929093169181169190911790915560058054909116331790556100c4565b80516001600160a01b038116811461008c57600080fd5b919050565b600080604083850312156100a457600080fd5b6100ad83610075565b91506100bb60208401610075565b90509250929050565b610556806100d36000396000f3fe608060405234801561001057600080fd5b50600436106100ce5760003560e01c80637b0a47ee1161008c578063be434b0111610066578063be434b01146101bd578063c8f33c91146101c6578063cd3daf9d146101cf578063d1af0c7d146101d757600080fd5b80637b0a47ee146101815780638b8763471461018a578063a694fc3a146101aa57600080fd5b80628cc262146100d35780630700037d146100f95780631fc80f0f146101195780633d18b9121461012e5780636ebcf6071461013657806372f702f314610156575b600080fd5b6100e66100e1366004610440565b6101ea565b6040519081526020015b60405180910390f35b6100e6610107366004610440565b60076020526000908152604090205481565b61012c610127366004610470565b610267565b005b61012c61031c565b6100e6610144366004610440565b60096020526000908152604090205481565b600154610169906001600160a01b031681565b6040516001600160a01b0390911681526020016100f0565b6100e660025481565b6100e6610198366004610440565b60066020526000908152604090205481565b61012c6101b8366004610470565b61036b565b6100e660045481565b6100e660035481565b6100e66103e3565b600054610169906001600160a01b031681565b6001600160a01b0381166000908152600760209081526040808320546006909252822054670de0b6b3a7640000906102206103e3565b61022a919061049f565b6001600160a01b03851660009081526009602052604090205461024d91906104b2565b61025791906104c9565b61026191906104eb565b92915050565b8060086000828254610279919061049f565b9091555050336000908152600960205260408120805483929061029d90849061049f565b909155505060015460405163a9059cbb60e01b8152336004820152602481018390526001600160a01b039091169063a9059cbb906044015b6020604051808303816000875af11580156102f4573d6000803e3d6000fd5b505050506040513d601f19601f8201168201806040525081019061031891906104fe565b5050565b336000818152600760205260408082208054908390559154905163a9059cbb60e01b815260048101939093526024830182905290916001600160a01b039091169063a9059cbb906044016102d5565b806008600082825461037d91906104eb565b909155505033600090815260096020526040812080548392906103a19084906104eb565b90915550506001546040516323b872dd60e01b8152336004820152306024820152604481018390526001600160a01b03909116906323b872dd906064016102d5565b60006008546000036103f55750600090565b600854600354610405904261049f565b60025461041291906104b2565b61042490670de0b6b3a76400006104b2565b61042e91906104c9565b60045461043b91906104eb565b905090565b60006020828403121561045257600080fd5b81356001600160a01b038116811461046957600080fd5b9392505050565b60006020828403121561048257600080fd5b5035919050565b634e487b7160e01b600052601160045260246000fd5b8181038181111561026157610261610489565b808202811582820484141761026157610261610489565b6000826104e657634e487b7160e01b600052601260045260246000fd5b500490565b8082018082111561026157610261610489565b60006020828403121561051057600080fd5b8151801515811461046957600080fdfea2646970667358221220468d05a0894cb8700691b3051a23fd4d4aac66b5827e201dbde3158726519bba64736f6c63430008110033",
			"opcodes": "PUSH1 0x80 PUSH1 0x40 MSTORE PUSH1 0x64 PUSH1 0x2 SSTORE CALLVALUE DUP1 ISZERO PUSH2 0x15 JUMPI PUSH1 0x0 DUP1 REVERT JUMPDEST POP PUSH1 0x40 MLOAD PUSH2 0x629 CODESIZE SUB DUP1 PUSH2 0x629 DUP4 CODECOPY DUP2 ADD PUSH1 0x40 DUP2 SWAP1 MSTORE PUSH2 0x34 SWAP2 PUSH2 0x91 JUMP JUMPDEST PUSH1 0x0 DUP1 SLOAD PUSH1 0x1 PUSH1 0x1 PUSH1 0xA0 SHL SUB SWAP4 DUP5 AND PUSH1 0x1 PUSH1 0x1 PUSH1 0xA0 SHL SUB NOT SWAP2 DUP3 AND OR SWAP1 SWAP2 SSTORE PUSH1 0x1 DUP1 SLOAD SWAP3 SWAP1 SWAP4 AND SWAP2 DUP2 AND SWAP2 SWAP1 SWAP2 OR SWAP1 SWAP2 SSTORE PUSH1 0x5 DUP1 SLOAD SWAP1 SWAP2 AND CALLER OR SWAP1 SSTORE PUSH2 0xC4 JUMP JUMPDEST DUP1 MLOAD PUSH1 0x1 PUSH1 0x1 PUSH1 0xA0 SHL SUB DUP2 AND DUP2 EQ PUSH2 0x8C JUMPI PUSH1 0x0 DUP1 REVERT JUMPDEST SWAP2 SWAP1 POP JUMP JUMPDEST PUSH1 0x0 DUP1 PUSH1 0x40 DUP4 DUP6 SUB SLT ISZERO PUSH2 0xA4 JUMPI PUSH1 0x0 DUP1 REVERT JUMPDEST PUSH2 0xAD DUP4 PUSH2 0x75 JUMP JUMPDEST SWAP2 POP PUSH2 0xBB PUSH1 0x20 DUP5 ADD PUSH2 0x75 JUMP JUMPDEST SWAP1 POP SWAP3 POP SWAP3 SWAP1 POP JUMP JUMPDEST PUSH2 0x556 DUP1 PUSH2 0xD3 PUSH1 0x0 CODECOPY PUSH1 0x0 RETURN INVALID PUSH1 0x80 PUSH1 0x40 MSTORE CALLVALUE DUP1 ISZERO PUSH2 0x10 JUMPI PUSH1 0x0 DUP1 REVERT JUMPDEST POP PUSH1 0x4 CALLDATASIZE LT PUSH2 0xCE JUMPI PUSH1 0x0 CALLDATALOAD PUSH1 0xE0 SHR DUP1 PUSH4 0x7B0A47EE GT PUSH2 0x8C JUMPI DUP1 PUSH4 0xBE434B01 GT PUSH2 0x66 JUMPI DUP1 PUSH4 0xBE434B01 EQ PUSH2 0x1BD JUMPI DUP1 PUSH4 0xC8F33C91 EQ PUSH2 0x1C6 JUMPI DUP1 PUSH4 0xCD3DAF9D EQ PUSH2 0x1CF JUMPI DUP1 PUSH4 0xD1AF0C7D EQ PUSH2 0x1D7 JUMPI PUSH1 0x0 DUP1 REVERT JUMPDEST DUP1 PUSH4 0x7B0A47EE EQ PUSH2 0x181 JUMPI DUP1 PUSH4 0x8B876347 EQ PUSH2 0x18A JUMPI DUP1 PUSH4 0xA694FC3A EQ PUSH2 0x1AA JUMPI PUSH1 0x0 DUP1 REVERT JUMPDEST DUP1 PUSH3 0x8CC262 EQ PUSH2 0xD3 JUMPI DUP1 PUSH4 0x700037D EQ PUSH2 0xF9 JUMPI DUP1 PUSH4 0x1FC80F0F EQ PUSH2 0x119 JUMPI DUP1 PUSH4 0x3D18B912 EQ PUSH2 0x12E JUMPI DUP1 PUSH4 0x6EBCF607 EQ PUSH2 0x136 JUMPI DUP1 PUSH4 0x72F702F3 EQ PUSH2 0x156 JUMPI JUMPDEST PUSH1 0x0 DUP1 REVERT JUMPDEST PUSH2 0xE6 PUSH2 0xE1 CALLDATASIZE PUSH1 0x4 PUSH2 0x440 JUMP JUMPDEST PUSH2 0x1EA JUMP JUMPDEST PUSH1 0x40 MLOAD SWAP1 DUP2 MSTORE PUSH1 0x20 ADD JUMPDEST PUSH1 0x40 MLOAD DUP1 SWAP2 SUB SWAP1 RETURN JUMPDEST PUSH2 0xE6 PUSH2 0x107 CALLDATASIZE PUSH1 0x4 PUSH2 0x440 JUMP JUMPDEST PUSH1 0x7 PUSH1 0x20 MSTORE PUSH1 0x0 SWAP1 DUP2 MSTORE PUSH1 0x40 SWAP1 KECCAK256 SLOAD DUP2 JUMP JUMPDEST PUSH2 0x12C PUSH2 0x127 CALLDATASIZE PUSH1 0x4 PUSH2 0x470 JUMP JUMPDEST PUSH2 0x267 JUMP JUMPDEST STOP JUMPDEST PUSH2 0x12C PUSH2 0x31C JUMP JUMPDEST PUSH2 0xE6 PUSH2 0x144 CALLDATASIZE PUSH1 0x4 PUSH2 0x440 JUMP JUMPDEST PUSH1 0x9 PUSH1 0x20 MSTORE PUSH1 0x0 SWAP1 DUP2 MSTORE PUSH1 0x40 SWAP1 KECCAK256 SLOAD DUP2 JUMP JUMPDEST PUSH1 0x1 SLOAD PUSH2 0x169 SWAP1 PUSH1 0x1 PUSH1 0x1 PUSH1 0xA0 SHL SUB AND DUP2 JUMP JUMPDEST PUSH1 0x40 MLOAD PUSH1 0x1 PUSH1 0x1 PUSH1 0xA0 SHL SUB SWAP1 SWAP2 AND DUP2 MSTORE PUSH1 0x20 ADD PUSH2 0xF0 JUMP JUMPDEST PUSH2 0xE6 PUSH1 0x2 SLOAD DUP2 JUMP JUMPDEST PUSH2 0xE6 PUSH2 0x198 CALLDATASIZE PUSH1 0x4 PUSH2 0x440 JUMP JUMPDEST PUSH1 0x6 PUSH1 0x20 MSTORE PUSH1 0x0 SWAP1 DUP2 MSTORE PUSH1 0x40 SWAP1 KECCAK256 SLOAD DUP2 JUMP JUMPDEST PUSH2 0x12C PUSH2 0x1B8 CALLDATASIZE PUSH1 0x4 PUSH2 0x470 JUMP JUMPDEST PUSH2 0x36B JUMP JUMPDEST PUSH2 0xE6 PUSH1 0x4 SLOAD DUP2 JUMP JUMPDEST PUSH2 0xE6 PUSH1 0x3 SLOAD DUP2 JUMP JUMPDEST PUSH2 0xE6 PUSH2 0x3E3 JUMP JUMPDEST PUSH1 0x0 SLOAD PUSH2 0x169 SWAP1 PUSH1 0x1 PUSH1 0x1 PUSH1 0xA0 SHL SUB AND DUP2 JUMP JUMPDEST PUSH1 0x1 PUSH1 0x1 PUSH1 0xA0 SHL SUB DUP2 AND PUSH1 0x0 SWAP1 DUP2 MSTORE PUSH1 0x7 PUSH1 0x20 SWAP1 DUP2 MSTORE PUSH1 0x40 DUP1 DUP4 KECCAK256 SLOAD PUSH1 0x6 SWAP1 SWAP3 MSTORE DUP3 KECCAK256 SLOAD PUSH8 0xDE0B6B3A7640000 SWAP1 PUSH2 0x220 PUSH2 0x3E3 JUMP JUMPDEST PUSH2 0x22A SWAP2 SWAP1 PUSH2 0x49F JUMP JUMPDEST PUSH1 0x1 PUSH1 0x1 PUSH1 0xA0 SHL SUB DUP6 AND PUSH1 0x0 SWAP1 DUP2 MSTORE PUSH1 0x9 PUSH1 0x20 MSTORE PUSH1 0x40 SWAP1 KECCAK256 SLOAD PUSH2 0x24D SWAP2 SWAP1 PUSH2 0x4B2 JUMP JUMPDEST PUSH2 0x257 SWAP2 SWAP1 PUSH2 0x4C9 JUMP JUMPDEST PUSH2 0x261 SWAP2 SWAP1 PUSH2 0x4EB JUMP JUMPDEST SWAP3 SWAP2 POP POP JUMP JUMPDEST DUP1 PUSH1 0x8 PUSH1 0x0 DUP3 DUP3 SLOAD PUSH2 0x279 SWAP2 SWAP1 PUSH2 0x49F JUMP JUMPDEST SWAP1 SWAP2 SSTORE POP POP CALLER PUSH1 0x0 SWAP1 DUP2 MSTORE PUSH1 0x9 PUSH1 0x20 MSTORE PUSH1 0x40 DUP2 KECCAK256 DUP1 SLOAD DUP4 SWAP3 SWAP1 PUSH2 0x29D SWAP1 DUP5 SWAP1 PUSH2 0x49F JUMP JUMPDEST SWAP1 SWAP2 SSTORE POP POP PUSH1 0x1 SLOAD PUSH1 0x40 MLOAD PUSH4 0xA9059CBB PUSH1 0xE0 SHL DUP2 MSTORE CALLER PUSH1 0x4 DUP3 ADD MSTORE PUSH1 0x24 DUP2 ADD DUP4 SWAP1 MSTORE PUSH1 0x1 PUSH1 0x1 PUSH1 0xA0 SHL SUB SWAP1 SWAP2 AND SWAP1 PUSH4 0xA9059CBB SWAP1 PUSH1 0x44 ADD JUMPDEST PUSH1 0x20 PUSH1 0x40 MLOAD DUP1 DUP4 SUB DUP2 PUSH1 0x0 DUP8 GAS CALL ISZERO DUP1 ISZERO PUSH2 0x2F4 JUMPI RETURNDATASIZE PUSH1 0x0 DUP1 RETURNDATACOPY RETURNDATASIZE PUSH1 0x0 REVERT JUMPDEST POP POP POP POP PUSH1 0x40 MLOAD RETURNDATASIZE PUSH1 0x1F NOT PUSH1 0x1F DUP3 ADD AND DUP3 ADD DUP1 PUSH1 0x40 MSTORE POP DUP2 ADD SWAP1 PUSH2 0x318 SWAP2 SWAP1 PUSH2 0x4FE JUMP JUMPDEST POP POP JUMP JUMPDEST CALLER PUSH1 0x0 DUP2 DUP2 MSTORE PUSH1 0x7 PUSH1 0x20 MSTORE PUSH1 0x40 DUP1 DUP3 KECCAK256 DUP1 SLOAD SWAP1 DUP4 SWAP1 SSTORE SWAP2 SLOAD SWAP1 MLOAD PUSH4 0xA9059CBB PUSH1 0xE0 SHL DUP2 MSTORE PUSH1 0x4 DUP2 ADD SWAP4 SWAP1 SWAP4 MSTORE PUSH1 0x24 DUP4 ADD DUP3 SWAP1 MSTORE SWAP1 SWAP2 PUSH1 0x1 PUSH1 0x1 PUSH1 0xA0 SHL SUB SWAP1 SWAP2 AND SWAP1 PUSH4 0xA9059CBB SWAP1 PUSH1 0x44 ADD PUSH2 0x2D5 JUMP JUMPDEST DUP1 PUSH1 0x8 PUSH1 0x0 DUP3 DUP3 SLOAD PUSH2 0x37D SWAP2 SWAP1 PUSH2 0x4EB JUMP JUMPDEST SWAP1 SWAP2 SSTORE POP POP CALLER PUSH1 0x0 SWAP1 DUP2 MSTORE PUSH1 0x9 PUSH1 0x20 MSTORE PUSH1 0x40 DUP2 KECCAK256 DUP1 SLOAD DUP4 SWAP3 SWAP1 PUSH2 0x3A1 SWAP1 DUP5 SWAP1 PUSH2 0x4EB JUMP JUMPDEST SWAP1 SWAP2 SSTORE POP POP PUSH1 0x1 SLOAD PUSH1 0x40 MLOAD PUSH4 0x23B872DD PUSH1 0xE0 SHL DUP2 MSTORE CALLER PUSH1 0x4 DUP3 ADD MSTORE ADDRESS PUSH1 0x24 DUP3 ADD MSTORE PUSH1 0x44 DUP2 ADD DUP4 SWAP1 MSTORE PUSH1 0x1 PUSH1 0x1 PUSH1 0xA0 SHL SUB SWAP1 SWAP2 AND SWAP1 PUSH4 0x23B872DD SWAP1 PUSH1 0x64 ADD PUSH2 0x2D5 JUMP JUMPDEST PUSH1 0x0 PUSH1 0x8 SLOAD PUSH1 0x0 SUB PUSH2 0x3F5 JUMPI POP PUSH1 0x0 SWAP1 JUMP JUMPDEST PUSH1 0x8 SLOAD PUSH1 0x3 SLOAD PUSH2 0x405 SWAP1 TIMESTAMP PUSH2 0x49F JUMP JUMPDEST PUSH1 0x2 SLOAD PUSH2 0x412 SWAP2 SWAP1 PUSH2 0x4B2 JUMP JUMPDEST PUSH2 0x424 SWAP1 PUSH8 0xDE0B6B3A7640000 PUSH2 0x4B2 JUMP JUMPDEST PUSH2 0x42E SWAP2 SWAP1 PUSH2 0x4C9 JUMP JUMPDEST PUSH1 0x4 SLOAD PUSH2 0x43B SWAP2 SWAP1 PUSH2 0x4EB JUMP JUMPDEST SWAP1 POP SWAP1 JUMP JUMPDEST PUSH1 0x0 PUSH1 0x20 DUP3 DUP5 SUB SLT ISZERO PUSH2 0x452 JUMPI PUSH1 0x0 DUP1 REVERT JUMPDEST DUP2 CALLDATALOAD PUSH1 0x1 PUSH1 0x1 PUSH1 0xA0 SHL SUB DUP2 AND DUP2 EQ PUSH2 0x469 JUMPI PUSH1 0x0 DUP1 REVERT JUMPDEST SWAP4 SWAP3 POP POP POP JUMP JUMPDEST PUSH1 0x0 PUSH1 0x20 DUP3 DUP5 SUB SLT ISZERO PUSH2 0x482 JUMPI PUSH1 0x0 DUP1 REVERT JUMPDEST POP CALLDATALOAD SWAP2 SWAP1 POP JUMP JUMPDEST PUSH4 0x4E487B71 PUSH1 0xE0 SHL PUSH1 0x0 MSTORE PUSH1 0x11 PUSH1 0x4 MSTORE PUSH1 0x24 PUSH1 0x0 REVERT JUMPDEST DUP2 DUP2 SUB DUP2 DUP2 GT ISZERO PUSH2 0x261 JUMPI PUSH2 0x261 PUSH2 0x489 JUMP JUMPDEST DUP1 DUP3 MUL DUP2 ISZERO DUP3 DUP3 DIV DUP5 EQ OR PUSH2 0x261 JUMPI PUSH2 0x261 PUSH2 0x489 JUMP JUMPDEST PUSH1 0x0 DUP3 PUSH2 0x4E6 JUMPI PUSH4 0x4E487B71 PUSH1 0xE0 SHL PUSH1 0x0 MSTORE PUSH1 0x12 PUSH1 0x4 MSTORE PUSH1 0x24 PUSH1 0x0 REVERT JUMPDEST POP DIV SWAP1 JUMP JUMPDEST DUP1 DUP3 ADD DUP1 DUP3 GT ISZERO PUSH2 0x261 JUMPI PUSH2 0x261 PUSH2 0x489 JUMP JUMPDEST PUSH1 0x0 PUSH1 0x20 DUP3 DUP5 SUB SLT ISZERO PUSH2 0x510 JUMPI PUSH1 0x0 DUP1 REVERT JUMPDEST DUP2 MLOAD DUP1 ISZERO ISZERO DUP2 EQ PUSH2 0x469 JUMPI PUSH1 0x0 DUP1 REVERT INVALID LOG2 PUSH5 0x6970667358 0x22 SLT KECCAK256 CHAINID DUP14 SDIV LOG0 DUP10 0x4C 0xB8 PUSH17 0x691B3051A23FD4D4AAC66B5827E201DBD 0xE3 ISZERO DUP8 0x26 MLOAD SWAP12 0xBA PUSH5 0x736F6C6343 STOP ADDMOD GT STOP CALLER "
		},
		"gasEstimates": {
			"creation": {
				"codeDepositCost": "273200",
				"executionCost": "infinite",
				"totalCost": "infinite"
			},
			"external": {
				"_balances(address)": "2562",
				"earned(address)": "infinite",
				"getReward()": "infinite",
				"lastUpdateTime()": "2328",
				"rewardPerToken()": "infinite",
				"rewardPerTokenStore()": "2306",
				"rewardRate()": "2307",
				"rewards(address)": "2496",
				"rewardsToken()": "2425",
				"stake(uint256)": "infinite",
				"stakingToken()": "2448",
				"userRewardPerTokenPaid(address)": "2518",
				"withdraww(uint256)": "infinite"
			}
		},
		"methodIdentifiers": {
			"_balances(address)": "6ebcf607",
			"earned(address)": "008cc262",
			"getReward()": "3d18b912",
			"lastUpdateTime()": "c8f33c91",
			"rewardPerToken()": "cd3daf9d",
			"rewardPerTokenStore()": "be434b01",
			"rewardRate()": "7b0a47ee",
			"rewards(address)": "0700037d",
			"rewardsToken()": "d1af0c7d",
			"stake(uint256)": "a694fc3a",
			"stakingToken()": "72f702f3",
			"userRewardPerTokenPaid(address)": "8b876347",
			"withdraww(uint256)": "1fc80f0f"
		}
	},
	"abi": [
		{
			"inputs": [
				{
					"internalType": "address",
					"name": "_rewardsToken",
					"type": "address"
				},
				{
					"internalType": "address",
					"name": "_stakingToken",
					"type": "address"
				}
			],
			"stateMutability": "nonpayable",
			"type": "constructor"
		},
		{
			"inputs": [
				{
					"internalType": "address",
					"name": "",
					"type": "address"
				}
			],
			"name": "_balances",
			"outputs": [
				{
					"internalType": "uint256",
					"name": "",
					"type": "uint256"
				}
			],
			"stateMutability": "view",
			"type": "function"
		},
		{
			"inputs": [
				{
					"internalType": "address",
					"name": "account",
					"type": "address"
				}
			],
			"name": "earned",
			"outputs": [
				{
					"internalType": "uint256",
					"name": "",
					"type": "uint256"
				}
			],
			"stateMutability": "view",
			"type": "function"
		},
		{
			"inputs": [],
			"name": "getReward",
			"outputs": [],
			"stateMutability": "nonpayable",
			"type": "function"
		},
		{
			"inputs": [],
			"name": "lastUpdateTime",
			"outputs": [
				{
					"internalType": "uint256",
					"name": "",
					"type": "uint256"
				}
			],
			"stateMutability": "view",
			"type": "function"
		},
		{
			"inputs": [],
			"name": "rewardPerToken",
			"outputs": [
				{
					"internalType": "uint256",
					"name": "",
					"type": "uint256"
				}
			],
			"stateMutability": "view",
			"type": "function"
		},
		{
			"inputs": [],
			"name": "rewardPerTokenStore",
			"outputs": [
				{
					"internalType": "uint256",
					"name": "",
					"type": "uint256"
				}
			],
			"stateMutability": "view",
			"type": "function"
		},
		{
			"inputs": [],
			"name": "rewardRate",
			"outputs": [
				{
					"internalType": "uint256",
					"name": "",
					"type": "uint256"
				}
			],
			"stateMutability": "view",
			"type": "function"
		},
		{
			"inputs": [
				{
					"internalType": "address",
					"name": "",
					"type": "address"
				}
			],
			"name": "rewards",
			"outputs": [
				{
					"internalType": "uint256",
					"name": "",
					"type": "uint256"
				}
			],
			"stateMutability": "view",
			"type": "function"
		},
		{
			"inputs": [],
			"name": "rewardsToken",
			"outputs": [
				{
					"internalType": "contract IERC20",
					"name": "",
					"type": "address"
				}
			],
			"stateMutability": "view",
			"type": "function"
		},
		{
			"inputs": [
				{
					"internalType": "uint256",
					"name": "_amount",
					"type": "uint256"
				}
			],
			"name": "stake",
			"outputs": [],
			"stateMutability": "nonpayable",
			"type": "function"
		},
		{
			"inputs": [],
			"name": "stakingToken",
			"outputs": [
				{
					"internalType": "contract IERC20",
					"name": "",
					"type": "address"
				}
			],
			"stateMutability": "view",
			"type": "function"
		},
		{
			"inputs": [
				{
					"internalType": "address",
					"name": "",
					"type": "address"
				}
			],
			"name": "userRewardPerTokenPaid",
			"outputs": [
				{
					"internalType": "uint256",
					"name": "",
					"type": "uint256"
				}
			],
			"stateMutability": "view",
			"type": "function"
		},
		{
			"inputs": [
				{
					"internalType": "uint256",
					"name": "_amount",
					"type": "uint256"
				}
			],
			"name": "withdraww",
			"outputs": [],
			"stateMutability": "nonpayable",
			"type": "function"
		}
	]
}